{
	"Standard_ERC1155.sol": {
		"Standart_ERC1155": {
			"abi": [
				{
					"inputs": [],
					"stateMutability": "nonpayable",
					"type": "constructor"
				},
				{
					"inputs": [
						{
							"internalType": "address",
							"name": "sender",
							"type": "address"
						},
						{
							"internalType": "uint256",
							"name": "balance",
							"type": "uint256"
						},
						{
							"internalType": "uint256",
							"name": "needed",
							"type": "uint256"
						},
						{
							"internalType": "uint256",
							"name": "tokenId",
							"type": "uint256"
						}
					],
					"name": "ERC1155InsufficientBalance",
					"type": "error"
				},
				{
					"inputs": [
						{
							"internalType": "address",
							"name": "approver",
							"type": "address"
						}
					],
					"name": "ERC1155InvalidApprover",
					"type": "error"
				},
				{
					"inputs": [
						{
							"internalType": "uint256",
							"name": "idsLength",
							"type": "uint256"
						},
						{
							"internalType": "uint256",
							"name": "valuesLength",
							"type": "uint256"
						}
					],
					"name": "ERC1155InvalidArrayLength",
					"type": "error"
				},
				{
					"inputs": [
						{
							"internalType": "address",
							"name": "operator",
							"type": "address"
						}
					],
					"name": "ERC1155InvalidOperator",
					"type": "error"
				},
				{
					"inputs": [
						{
							"internalType": "address",
							"name": "receiver",
							"type": "address"
						}
					],
					"name": "ERC1155InvalidReceiver",
					"type": "error"
				},
				{
					"inputs": [
						{
							"internalType": "address",
							"name": "sender",
							"type": "address"
						}
					],
					"name": "ERC1155InvalidSender",
					"type": "error"
				},
				{
					"inputs": [
						{
							"internalType": "address",
							"name": "operator",
							"type": "address"
						},
						{
							"internalType": "address",
							"name": "owner",
							"type": "address"
						}
					],
					"name": "ERC1155MissingApprovalForAll",
					"type": "error"
				},
				{
					"anonymous": false,
					"inputs": [
						{
							"indexed": true,
							"internalType": "address",
							"name": "account",
							"type": "address"
						},
						{
							"indexed": true,
							"internalType": "address",
							"name": "operator",
							"type": "address"
						},
						{
							"indexed": false,
							"internalType": "bool",
							"name": "approved",
							"type": "bool"
						}
					],
					"name": "ApprovalForAll",
					"type": "event"
				},
				{
					"anonymous": false,
					"inputs": [
						{
							"indexed": true,
							"internalType": "address",
							"name": "operator",
							"type": "address"
						},
						{
							"indexed": true,
							"internalType": "address",
							"name": "from",
							"type": "address"
						},
						{
							"indexed": true,
							"internalType": "address",
							"name": "to",
							"type": "address"
						},
						{
							"indexed": false,
							"internalType": "uint256[]",
							"name": "ids",
							"type": "uint256[]"
						},
						{
							"indexed": false,
							"internalType": "uint256[]",
							"name": "values",
							"type": "uint256[]"
						}
					],
					"name": "TransferBatch",
					"type": "event"
				},
				{
					"anonymous": false,
					"inputs": [
						{
							"indexed": true,
							"internalType": "address",
							"name": "operator",
							"type": "address"
						},
						{
							"indexed": true,
							"internalType": "address",
							"name": "from",
							"type": "address"
						},
						{
							"indexed": true,
							"internalType": "address",
							"name": "to",
							"type": "address"
						},
						{
							"indexed": false,
							"internalType": "uint256",
							"name": "id",
							"type": "uint256"
						},
						{
							"indexed": false,
							"internalType": "uint256",
							"name": "value",
							"type": "uint256"
						}
					],
					"name": "TransferSingle",
					"type": "event"
				},
				{
					"anonymous": false,
					"inputs": [
						{
							"indexed": false,
							"internalType": "string",
							"name": "value",
							"type": "string"
						},
						{
							"indexed": true,
							"internalType": "uint256",
							"name": "id",
							"type": "uint256"
						}
					],
					"name": "URI",
					"type": "event"
				},
				{
					"inputs": [
						{
							"internalType": "address",
							"name": "account",
							"type": "address"
						},
						{
							"internalType": "uint256",
							"name": "id",
							"type": "uint256"
						}
					],
					"name": "balanceOf",
					"outputs": [
						{
							"internalType": "uint256",
							"name": "",
							"type": "uint256"
						}
					],
					"stateMutability": "view",
					"type": "function"
				},
				{
					"inputs": [
						{
							"internalType": "address[]",
							"name": "accounts",
							"type": "address[]"
						},
						{
							"internalType": "uint256[]",
							"name": "ids",
							"type": "uint256[]"
						}
					],
					"name": "balanceOfBatch",
					"outputs": [
						{
							"internalType": "uint256[]",
							"name": "",
							"type": "uint256[]"
						}
					],
					"stateMutability": "view",
					"type": "function"
				},
				{
					"inputs": [
						{
							"internalType": "address",
							"name": "account",
							"type": "address"
						},
						{
							"internalType": "address",
							"name": "operator",
							"type": "address"
						}
					],
					"name": "isApprovedForAll",
					"outputs": [
						{
							"internalType": "bool",
							"name": "",
							"type": "bool"
						}
					],
					"stateMutability": "view",
					"type": "function"
				},
				{
					"inputs": [
						{
							"internalType": "uint256",
							"name": "amount",
							"type": "uint256"
						}
					],
					"name": "mint",
					"outputs": [],
					"stateMutability": "nonpayable",
					"type": "function"
				},
				{
					"inputs": [],
					"name": "nextTokenId",
					"outputs": [
						{
							"internalType": "uint256",
							"name": "",
							"type": "uint256"
						}
					],
					"stateMutability": "view",
					"type": "function"
				},
				{
					"inputs": [
						{
							"internalType": "address",
							"name": "from",
							"type": "address"
						},
						{
							"internalType": "address",
							"name": "to",
							"type": "address"
						},
						{
							"internalType": "uint256[]",
							"name": "ids",
							"type": "uint256[]"
						},
						{
							"internalType": "uint256[]",
							"name": "values",
							"type": "uint256[]"
						},
						{
							"internalType": "bytes",
							"name": "data",
							"type": "bytes"
						}
					],
					"name": "safeBatchTransferFrom",
					"outputs": [],
					"stateMutability": "nonpayable",
					"type": "function"
				},
				{
					"inputs": [
						{
							"internalType": "address",
							"name": "from",
							"type": "address"
						},
						{
							"internalType": "address",
							"name": "to",
							"type": "address"
						},
						{
							"internalType": "uint256",
							"name": "id",
							"type": "uint256"
						},
						{
							"internalType": "uint256",
							"name": "value",
							"type": "uint256"
						},
						{
							"internalType": "bytes",
							"name": "data",
							"type": "bytes"
						}
					],
					"name": "safeTransferFrom",
					"outputs": [],
					"stateMutability": "nonpayable",
					"type": "function"
				},
				{
					"inputs": [
						{
							"internalType": "address",
							"name": "operator",
							"type": "address"
						},
						{
							"internalType": "bool",
							"name": "approved",
							"type": "bool"
						}
					],
					"name": "setApprovalForAll",
					"outputs": [],
					"stateMutability": "nonpayable",
					"type": "function"
				},
				{
					"inputs": [
						{
							"internalType": "bytes4",
							"name": "interfaceId",
							"type": "bytes4"
						}
					],
					"name": "supportsInterface",
					"outputs": [
						{
							"internalType": "bool",
							"name": "",
							"type": "bool"
						}
					],
					"stateMutability": "view",
					"type": "function"
				},
				{
					"inputs": [
						{
							"internalType": "uint256",
							"name": "",
							"type": "uint256"
						}
					],
					"name": "uri",
					"outputs": [
						{
							"internalType": "string",
							"name": "",
							"type": "string"
						}
					],
					"stateMutability": "view",
					"type": "function"
				}
			],
			"devdoc": {
				"errors": {
					"ERC1155InsufficientBalance(address,uint256,uint256,uint256)": [
						{
							"details": "Indicates an error related to the current `balance` of a `sender`. Used in transfers.",
							"params": {
								"balance": "Current balance for the interacting account.",
								"needed": "Minimum amount required to perform a transfer.",
								"sender": "Address whose tokens are being transferred.",
								"tokenId": "Identifier number of a token."
							}
						}
					],
					"ERC1155InvalidApprover(address)": [
						{
							"details": "Indicates a failure with the `approver` of a token to be approved. Used in approvals.",
							"params": {
								"approver": "Address initiating an approval operation."
							}
						}
					],
					"ERC1155InvalidArrayLength(uint256,uint256)": [
						{
							"details": "Indicates an array length mismatch between ids and values in a safeBatchTransferFrom operation. Used in batch transfers.",
							"params": {
								"idsLength": "Length of the array of token identifiers",
								"valuesLength": "Length of the array of token amounts"
							}
						}
					],
					"ERC1155InvalidOperator(address)": [
						{
							"details": "Indicates a failure with the `operator` to be approved. Used in approvals.",
							"params": {
								"operator": "Address that may be allowed to operate on tokens without being their owner."
							}
						}
					],
					"ERC1155InvalidReceiver(address)": [
						{
							"details": "Indicates a failure with the token `receiver`. Used in transfers.",
							"params": {
								"receiver": "Address to which tokens are being transferred."
							}
						}
					],
					"ERC1155InvalidSender(address)": [
						{
							"details": "Indicates a failure with the token `sender`. Used in transfers.",
							"params": {
								"sender": "Address whose tokens are being transferred."
							}
						}
					],
					"ERC1155MissingApprovalForAll(address,address)": [
						{
							"details": "Indicates a failure with the `operator`’s approval. Used in transfers.",
							"params": {
								"operator": "Address that may be allowed to operate on tokens without being their owner.",
								"owner": "Address of the current owner of a token."
							}
						}
					]
				},
				"events": {
					"ApprovalForAll(address,address,bool)": {
						"details": "Emitted when `account` grants or revokes permission to `operator` to transfer their tokens, according to `approved`."
					},
					"TransferBatch(address,address,address,uint256[],uint256[])": {
						"details": "Equivalent to multiple {TransferSingle} events, where `operator`, `from` and `to` are the same for all transfers."
					},
					"TransferSingle(address,address,address,uint256,uint256)": {
						"details": "Emitted when `value` amount of tokens of type `id` are transferred from `from` to `to` by `operator`."
					},
					"URI(string,uint256)": {
						"details": "Emitted when the URI for token type `id` changes to `value`, if it is a non-programmatic URI. If an {URI} event was emitted for `id`, the standard https://eips.ethereum.org/EIPS/eip-1155#metadata-extensions[guarantees] that `value` will equal the value returned by {IERC1155MetadataURI-uri}."
					}
				},
				"kind": "dev",
				"methods": {
					"balanceOf(address,uint256)": {
						"details": "See {IERC1155-balanceOf}."
					},
					"balanceOfBatch(address[],uint256[])": {
						"details": "See {IERC1155-balanceOfBatch}. Requirements: - `accounts` and `ids` must have the same length."
					},
					"isApprovedForAll(address,address)": {
						"details": "See {IERC1155-isApprovedForAll}."
					},
					"safeBatchTransferFrom(address,address,uint256[],uint256[],bytes)": {
						"details": "See {IERC1155-safeBatchTransferFrom}."
					},
					"safeTransferFrom(address,address,uint256,uint256,bytes)": {
						"details": "See {IERC1155-safeTransferFrom}."
					},
					"setApprovalForAll(address,bool)": {
						"details": "See {IERC1155-setApprovalForAll}."
					},
					"supportsInterface(bytes4)": {
						"details": "See {IERC165-supportsInterface}."
					},
					"uri(uint256)": {
						"details": "See {IERC1155MetadataURI-uri}. This implementation returns the same URI for *all* token types. It relies on the token type ID substitution mechanism https://eips.ethereum.org/EIPS/eip-1155#metadata[defined in the ERC]. Clients calling this function must replace the `\\{id\\}` substring with the actual token type ID."
					}
				},
				"version": 1
			},
			"evm": {
				"assembly": "    /* \"Standard_ERC1155.sol\":123:581  contract Standart_ERC1155 is ERC1155 {... */\n  mstore(0x40, 0x80)\n    /* \"Standard_ERC1155.sol\":287:353  constructor() ERC1155(\"https://example.com/api/item/{id}.json\") {} */\n  callvalue\n  dup1\n  iszero\n  tag_1\n  jumpi\n  0x00\n  dup1\n  revert\ntag_1:\n  pop\n    /* \"@openzeppelin/contracts/token/ERC1155/ERC1155.sol\":1249:1311  constructor(string memory uri_) {... */\n  mload(0x40)\n  dup1\n  0x60\n  add\n  0x40\n  mstore\n  dup1\n  0x26\n  dup2\n  mstore\n  0x20\n  add\n  data_4187f743cd1820c5afef0906cd3b4419c90fc3a98b6271dccd633167a3271d81\n  0x26\n  swap2\n  codecopy\n    /* \"@openzeppelin/contracts/token/ERC1155/ERC1155.sol\":1291:1304  _setURI(uri_) */\n  tag_5\n    /* \"@openzeppelin/contracts/token/ERC1155/ERC1155.sol\":1299:1303  uri_ */\n  dup2\n    /* \"@openzeppelin/contracts/token/ERC1155/ERC1155.sol\":1291:1298  _setURI */\n  tag_6\n    /* \"@openzeppelin/contracts/token/ERC1155/ERC1155.sol\":1291:1304  _setURI(uri_) */\n  jump\t// in\ntag_5:\n    /* \"@openzeppelin/contracts/token/ERC1155/ERC1155.sol\":1249:1311  constructor(string memory uri_) {... */\n  pop\n    /* \"Standard_ERC1155.sol\":123:581  contract Standart_ERC1155 is ERC1155 {... */\n  jump(tag_17)\n    /* \"@openzeppelin/contracts/token/ERC1155/ERC1155.sol\":10290:10376  function _setURI(string memory newuri) internal virtual {... */\ntag_6:\n    /* \"@openzeppelin/contracts/token/ERC1155/ERC1155.sol\":10356:10360  _uri */\n  0x02\n    /* \"@openzeppelin/contracts/token/ERC1155/ERC1155.sol\":10356:10369  _uri = newuri */\n  tag_10\n    /* \"@openzeppelin/contracts/token/ERC1155/ERC1155.sol\":10363:10369  newuri */\n  dup3\n    /* \"@openzeppelin/contracts/token/ERC1155/ERC1155.sol\":10356:10360  _uri */\n  dup3\n    /* \"@openzeppelin/contracts/token/ERC1155/ERC1155.sol\":10356:10369  _uri = newuri */\n  tag_11\n  jump\t// in\ntag_10:\n  pop\n    /* \"@openzeppelin/contracts/token/ERC1155/ERC1155.sol\":10290:10376  function _setURI(string memory newuri) internal virtual {... */\n  pop\n  jump\t// out\n    /* \"#utility.yul\":14:141   */\ntag_12:\n    /* \"#utility.yul\":75:85   */\n  0x4e487b71\n    /* \"#utility.yul\":70:73   */\n  0xe0\n    /* \"#utility.yul\":66:86   */\n  shl\n    /* \"#utility.yul\":63:64   */\n  0x00\n    /* \"#utility.yul\":56:87   */\n  mstore\n    /* \"#utility.yul\":106:110   */\n  0x41\n    /* \"#utility.yul\":103:104   */\n  0x04\n    /* \"#utility.yul\":96:111   */\n  mstore\n    /* \"#utility.yul\":130:134   */\n  0x24\n    /* \"#utility.yul\":127:128   */\n  0x00\n    /* \"#utility.yul\":120:135   */\n  revert\n    /* \"#utility.yul\":146:526   */\ntag_13:\n    /* \"#utility.yul\":225:226   */\n  0x01\n    /* \"#utility.yul\":221:233   */\n  dup2\n  dup2\n  shr\n  swap1\n    /* \"#utility.yul\":268:280   */\n  dup3\n  and\n  dup1\n    /* \"#utility.yul\":289:350   */\n  tag_20\n  jumpi\n    /* \"#utility.yul\":343:347   */\n  0x7f\n    /* \"#utility.yul\":335:341   */\n  dup3\n    /* \"#utility.yul\":331:348   */\n  and\n    /* \"#utility.yul\":321:348   */\n  swap2\n  pop\n    /* \"#utility.yul\":289:350   */\ntag_20:\n    /* \"#utility.yul\":396:398   */\n  0x20\n    /* \"#utility.yul\":388:394   */\n  dup3\n    /* \"#utility.yul\":385:399   */\n  lt\n    /* \"#utility.yul\":365:383   */\n  dup2\n    /* \"#utility.yul\":362:400   */\n  sub\n    /* \"#utility.yul\":359:520   */\n  tag_21\n  jumpi\n    /* \"#utility.yul\":442:452   */\n  0x4e487b71\n    /* \"#utility.yul\":437:440   */\n  0xe0\n    /* \"#utility.yul\":433:453   */\n  shl\n    /* \"#utility.yul\":430:431   */\n  0x00\n    /* \"#utility.yul\":423:454   */\n  mstore\n    /* \"#utility.yul\":477:481   */\n  0x22\n    /* \"#utility.yul\":474:475   */\n  0x04\n    /* \"#utility.yul\":467:482   */\n  mstore\n    /* \"#utility.yul\":505:509   */\n  0x24\n    /* \"#utility.yul\":502:503   */\n  0x00\n    /* \"#utility.yul\":495:510   */\n  revert\n    /* \"#utility.yul\":359:520   */\ntag_21:\n  pop\n    /* \"#utility.yul\":146:526   */\n  swap2\n  swap1\n  pop\n  jump\t// out\n    /* \"#utility.yul\":657:1202   */\ntag_15:\n    /* \"#utility.yul\":759:761   */\n  0x1f\n    /* \"#utility.yul\":754:757   */\n  dup3\n    /* \"#utility.yul\":751:762   */\n  gt\n    /* \"#utility.yul\":748:1196   */\n  iszero\n  tag_24\n  jumpi\n    /* \"#utility.yul\":795:796   */\n  0x00\n    /* \"#utility.yul\":820:825   */\n  dup2\n    /* \"#utility.yul\":816:818   */\n  dup2\n    /* \"#utility.yul\":809:826   */\n  mstore\n    /* \"#utility.yul\":865:869   */\n  0x20\n    /* \"#utility.yul\":861:863   */\n  dup2\n    /* \"#utility.yul\":851:870   */\n  keccak256\n    /* \"#utility.yul\":935:937   */\n  0x1f\n    /* \"#utility.yul\":923:933   */\n  dup6\n    /* \"#utility.yul\":919:938   */\n  add\n    /* \"#utility.yul\":916:917   */\n  0x05\n    /* \"#utility.yul\":912:939   */\n  shr\n    /* \"#utility.yul\":906:910   */\n  dup2\n    /* \"#utility.yul\":902:940   */\n  add\n    /* \"#utility.yul\":971:975   */\n  0x20\n    /* \"#utility.yul\":959:969   */\n  dup7\n    /* \"#utility.yul\":956:976   */\n  lt\n    /* \"#utility.yul\":953:1000   */\n  iszero\n  tag_25\n  jumpi\n  pop\n    /* \"#utility.yul\":994:998   */\n  dup1\n    /* \"#utility.yul\":953:1000   */\ntag_25:\n    /* \"#utility.yul\":1049:1051   */\n  0x1f\n    /* \"#utility.yul\":1044:1047   */\n  dup6\n    /* \"#utility.yul\":1040:1052   */\n  add\n    /* \"#utility.yul\":1037:1038   */\n  0x05\n    /* \"#utility.yul\":1033:1053   */\n  shr\n    /* \"#utility.yul\":1027:1031   */\n  dup3\n    /* \"#utility.yul\":1023:1054   */\n  add\n    /* \"#utility.yul\":1013:1054   */\n  swap2\n  pop\n    /* \"#utility.yul\":1104:1186   */\ntag_26:\n    /* \"#utility.yul\":1122:1124   */\n  dup2\n    /* \"#utility.yul\":1115:1120   */\n  dup2\n    /* \"#utility.yul\":1112:1125   */\n  lt\n    /* \"#utility.yul\":1104:1186   */\n  iszero\n  tag_28\n  jumpi\n    /* \"#utility.yul\":1167:1184   */\n  dup3\n  dup2\n  sstore\n    /* \"#utility.yul\":1148:1149   */\n  0x01\n    /* \"#utility.yul\":1137:1150   */\n  add\n    /* \"#utility.yul\":1104:1186   */\n  jump(tag_26)\ntag_28:\n    /* \"#utility.yul\":1108:1111   */\n  pop\n  pop\n  pop\n    /* \"#utility.yul\":748:1196   */\ntag_24:\n    /* \"#utility.yul\":657:1202   */\n  pop\n  pop\n  pop\n  jump\t// out\n    /* \"#utility.yul\":1378:2730   */\ntag_11:\n    /* \"#utility.yul\":1498:1508   */\n  dup2\n  mload\n  sub(shl(0x40, 0x01), 0x01)\n    /* \"#utility.yul\":1520:1550   */\n  dup2\n  gt\n    /* \"#utility.yul\":1517:1573   */\n  iszero\n  tag_32\n  jumpi\n    /* \"#utility.yul\":1553:1571   */\n  tag_32\n  tag_12\n  jump\t// in\ntag_32:\n    /* \"#utility.yul\":1582:1679   */\n  tag_33\n    /* \"#utility.yul\":1672:1678   */\n  dup2\n    /* \"#utility.yul\":1632:1670   */\n  tag_34\n    /* \"#utility.yul\":1664:1668   */\n  dup5\n    /* \"#utility.yul\":1658:1669   */\n  sload\n    /* \"#utility.yul\":1632:1670   */\n  tag_13\n  jump\t// in\ntag_34:\n    /* \"#utility.yul\":1626:1630   */\n  dup5\n    /* \"#utility.yul\":1582:1679   */\n  tag_15\n  jump\t// in\ntag_33:\n    /* \"#utility.yul\":1734:1738   */\n  0x20\n  dup1\n    /* \"#utility.yul\":1798:1800   */\n  0x1f\n    /* \"#utility.yul\":1787:1801   */\n  dup4\n  gt\n    /* \"#utility.yul\":1815:1816   */\n  0x01\n    /* \"#utility.yul\":1810:2473   */\n  dup2\n  eq\n  tag_36\n  jumpi\n    /* \"#utility.yul\":2517:2518   */\n  0x00\n    /* \"#utility.yul\":2534:2540   */\n  dup5\n    /* \"#utility.yul\":2531:2620   */\n  iszero\n  tag_37\n  jumpi\n  pop\n    /* \"#utility.yul\":2586:2605   */\n  dup6\n  dup4\n  add\n    /* \"#utility.yul\":2580:2606   */\n  mload\n    /* \"#utility.yul\":2531:2620   */\ntag_37:\n  not(0x00)\n    /* \"#utility.yul\":1335:1336   */\n  0x03\n    /* \"#utility.yul\":1331:1342   */\n  dup7\n  swap1\n  shl\n    /* \"#utility.yul\":1327:1351   */\n  shr\n    /* \"#utility.yul\":1323:1352   */\n  not\n    /* \"#utility.yul\":1313:1353   */\n  and\n    /* \"#utility.yul\":1359:1360   */\n  0x01\n    /* \"#utility.yul\":1355:1366   */\n  dup6\n  swap1\n  shl\n    /* \"#utility.yul\":1310:1367   */\n  or\n    /* \"#utility.yul\":2633:2714   */\n  dup6\n  sstore\n    /* \"#utility.yul\":1780:2724   */\n  jump(tag_28)\n    /* \"#utility.yul\":1810:2473   */\ntag_36:\n    /* \"#utility.yul\":604:605   */\n  0x00\n    /* \"#utility.yul\":597:611   */\n  dup6\n  dup2\n  mstore\n    /* \"#utility.yul\":641:645   */\n  0x20\n    /* \"#utility.yul\":628:646   */\n  dup2\n  keccak256\n  not(0x1f)\n    /* \"#utility.yul\":1846:1866   */\n  dup7\n  and\n  swap2\n    /* \"#utility.yul\":1964:2200   */\ntag_40:\n    /* \"#utility.yul\":1978:1985   */\n  dup3\n    /* \"#utility.yul\":1975:1976   */\n  dup2\n    /* \"#utility.yul\":1972:1986   */\n  lt\n    /* \"#utility.yul\":1964:2200   */\n  iszero\n  tag_42\n  jumpi\n    /* \"#utility.yul\":2067:2086   */\n  dup9\n  dup7\n  add\n    /* \"#utility.yul\":2061:2087   */\n  mload\n    /* \"#utility.yul\":2046:2088   */\n  dup3\n  sstore\n    /* \"#utility.yul\":2159:2186   */\n  swap5\n  dup5\n  add\n  swap5\n    /* \"#utility.yul\":2127:2128   */\n  0x01\n    /* \"#utility.yul\":2115:2129   */\n  swap1\n  swap2\n  add\n  swap1\n    /* \"#utility.yul\":1994:2013   */\n  dup5\n  add\n    /* \"#utility.yul\":1964:2200   */\n  jump(tag_40)\ntag_42:\n    /* \"#utility.yul\":1968:1971   */\n  pop\n    /* \"#utility.yul\":2228:2234   */\n  dup6\n    /* \"#utility.yul\":2219:2226   */\n  dup3\n    /* \"#utility.yul\":2216:2235   */\n  lt\n    /* \"#utility.yul\":2213:2414   */\n  iszero\n  tag_43\n  jumpi\n    /* \"#utility.yul\":2289:2308   */\n  dup8\n  dup6\n  add\n    /* \"#utility.yul\":2283:2309   */\n  mload\n  not(0x00)\n    /* \"#utility.yul\":2372:2373   */\n  0x03\n    /* \"#utility.yul\":2368:2382   */\n  dup9\n  swap1\n  shl\n    /* \"#utility.yul\":2384:2387   */\n  0xf8\n    /* \"#utility.yul\":2364:2388   */\n  and\n    /* \"#utility.yul\":2360:2397   */\n  shr\n    /* \"#utility.yul\":2356:2398   */\n  not\n    /* \"#utility.yul\":2341:2399   */\n  and\n    /* \"#utility.yul\":2326:2400   */\n  dup2\n  sstore\n    /* \"#utility.yul\":2213:2414   */\ntag_43:\n  pop\n  pop\n  pop\n  pop\n  pop\n    /* \"#utility.yul\":2460:2461   */\n  0x01\n    /* \"#utility.yul\":2444:2458   */\n  swap1\n  dup2\n  shl\n    /* \"#utility.yul\":2440:2462   */\n  add\n    /* \"#utility.yul\":2427:2463   */\n  swap1\n  sstore\n  pop\n    /* \"#utility.yul\":1378:2730   */\n  jump\t// out\ntag_17:\n    /* \"Standard_ERC1155.sol\":123:581  contract Standart_ERC1155 is ERC1155 {... */\n  dataSize(sub_0)\n  dup1\n  dataOffset(sub_0)\n  0x00\n  codecopy\n  0x00\n  return\nstop\ndata_4187f743cd1820c5afef0906cd3b4419c90fc3a98b6271dccd633167a3271d81 68747470733a2f2f6578616d706c652e636f6d2f6170692f6974656d2f7b69647d2e6a736f6e\n\nsub_0: assembly {\n        /* \"Standard_ERC1155.sol\":123:581  contract Standart_ERC1155 is ERC1155 {... */\n      mstore(0x40, 0x80)\n      callvalue\n      dup1\n      iszero\n      tag_1\n      jumpi\n      0x00\n      dup1\n      revert\n    tag_1:\n      pop\n      jumpi(tag_2, lt(calldatasize, 0x04))\n      shr(0xe0, calldataload(0x00))\n      dup1\n      0x75794a3c\n      gt\n      tag_13\n      jumpi\n      dup1\n      0x75794a3c\n      eq\n      tag_8\n      jumpi\n      dup1\n      0xa0712d68\n      eq\n      tag_9\n      jumpi\n      dup1\n      0xa22cb465\n      eq\n      tag_10\n      jumpi\n      dup1\n      0xe985e9c5\n      eq\n      tag_11\n      jumpi\n      dup1\n      0xf242432a\n      eq\n      tag_12\n      jumpi\n      0x00\n      dup1\n      revert\n    tag_13:\n      dup1\n      0xfdd58e\n      eq\n      tag_3\n      jumpi\n      dup1\n      0x01ffc9a7\n      eq\n      tag_4\n      jumpi\n      dup1\n      0x0e89341c\n      eq\n      tag_5\n      jumpi\n      dup1\n      0x2eb2c2d6\n      eq\n      tag_6\n      jumpi\n      dup1\n      0x4e1273f4\n      eq\n      tag_7\n      jumpi\n    tag_2:\n      0x00\n      dup1\n      revert\n        /* \"@openzeppelin/contracts/token/ERC1155/ERC1155.sol\":2245:2377  function balanceOf(address account, uint256 id) public view virtual returns (uint256) {... */\n    tag_3:\n      tag_14\n      tag_15\n      calldatasize\n      0x04\n      tag_16\n      jump\t// in\n    tag_15:\n      tag_17\n      jump\t// in\n    tag_14:\n      mload(0x40)\n        /* \"#utility.yul\":597:622   */\n      swap1\n      dup2\n      mstore\n        /* \"#utility.yul\":585:587   */\n      0x20\n        /* \"#utility.yul\":570:588   */\n      add\n        /* \"@openzeppelin/contracts/token/ERC1155/ERC1155.sol\":2245:2377  function balanceOf(address account, uint256 id) public view virtual returns (uint256) {... */\n    tag_18:\n      mload(0x40)\n      dup1\n      swap2\n      sub\n      swap1\n      return\n        /* \"@openzeppelin/contracts/token/ERC1155/ERC1155.sol\":1378:1683  function supportsInterface(bytes4 interfaceId) public view virtual override(ERC165, IERC165) returns (bool) {... */\n    tag_4:\n      tag_20\n      tag_21\n      calldatasize\n      0x04\n      tag_22\n      jump\t// in\n    tag_21:\n      tag_23\n      jump\t// in\n    tag_20:\n      mload(0x40)\n        /* \"#utility.yul\":1184:1198   */\n      swap1\n      iszero\n        /* \"#utility.yul\":1177:1199   */\n      iszero\n        /* \"#utility.yul\":1159:1200   */\n      dup2\n      mstore\n        /* \"#utility.yul\":1147:1149   */\n      0x20\n        /* \"#utility.yul\":1132:1150   */\n      add\n        /* \"@openzeppelin/contracts/token/ERC1155/ERC1155.sol\":1378:1683  function supportsInterface(bytes4 interfaceId) public view virtual override(ERC165, IERC165) returns (bool) {... */\n      tag_18\n        /* \"#utility.yul\":1019:1206   */\n      jump\n        /* \"@openzeppelin/contracts/token/ERC1155/ERC1155.sol\":2082:2185  function uri(uint256 /* id */) public view virtual returns (string memory) {... */\n    tag_5:\n      tag_26\n      tag_27\n      calldatasize\n      0x04\n      tag_28\n      jump\t// in\n    tag_27:\n      tag_29\n      jump\t// in\n    tag_26:\n      mload(0x40)\n      tag_18\n      swap2\n      swap1\n      tag_31\n      jump\t// in\n        /* \"@openzeppelin/contracts/token/ERC1155/ERC1155.sol\":4012:4441  function safeBatchTransferFrom(... */\n    tag_6:\n      tag_32\n      tag_33\n      calldatasize\n      0x04\n      tag_34\n      jump\t// in\n    tag_33:\n      tag_35\n      jump\t// in\n    tag_32:\n      stop\n        /* \"@openzeppelin/contracts/token/ERC1155/ERC1155.sol\":2534:3086  function balanceOfBatch(... */\n    tag_7:\n      tag_36\n      tag_37\n      calldatasize\n      0x04\n      tag_38\n      jump\t// in\n    tag_37:\n      tag_39\n      jump\t// in\n    tag_36:\n      mload(0x40)\n      tag_18\n      swap2\n      swap1\n      tag_41\n      jump\t// in\n        /* \"Standard_ERC1155.sol\":167:193  uint256 public nextTokenId */\n    tag_8:\n      tag_14\n      sload(0x03)\n      dup2\n      jump\n        /* \"Standard_ERC1155.sol\":454:578  function mint(uint256 amount) external {... */\n    tag_9:\n      tag_32\n      tag_46\n      calldatasize\n      0x04\n      tag_28\n      jump\t// in\n    tag_46:\n      tag_47\n      jump\t// in\n        /* \"@openzeppelin/contracts/token/ERC1155/ERC1155.sol\":3154:3298  function setApprovalForAll(address operator, bool approved) public virtual {... */\n    tag_10:\n      tag_32\n      tag_49\n      calldatasize\n      0x04\n      tag_50\n      jump\t// in\n    tag_49:\n      tag_51\n      jump\t// in\n        /* \"@openzeppelin/contracts/token/ERC1155/ERC1155.sol\":3365:3522  function isApprovedForAll(address account, address operator) public view virtual returns (bool) {... */\n    tag_11:\n      tag_20\n      tag_53\n      calldatasize\n      0x04\n      tag_54\n      jump\t// in\n    tag_53:\n      tag_55\n      jump\t// in\n        /* \"@openzeppelin/contracts/token/ERC1155/ERC1155.sol\":3589:3940  function safeTransferFrom(address from, address to, uint256 id, uint256 value, bytes memory data) public virtual {... */\n    tag_12:\n      tag_32\n      tag_58\n      calldatasize\n      0x04\n      tag_59\n      jump\t// in\n    tag_58:\n      tag_60\n      jump\t// in\n        /* \"@openzeppelin/contracts/token/ERC1155/ERC1155.sol\":2245:2377  function balanceOf(address account, uint256 id) public view virtual returns (uint256) {... */\n    tag_17:\n        /* \"@openzeppelin/contracts/token/ERC1155/ERC1155.sol\":2322:2329  uint256 */\n      0x00\n        /* \"@openzeppelin/contracts/token/ERC1155/ERC1155.sol\":2348:2361  _balances[id] */\n      dup2\n      dup2\n      mstore\n      0x20\n      dup2\n      dup2\n      mstore\n      0x40\n      dup1\n      dup4\n      keccak256\n      sub(shl(0xa0, 0x01), 0x01)\n        /* \"@openzeppelin/contracts/token/ERC1155/ERC1155.sol\":2348:2370  _balances[id][account] */\n      dup7\n      and\n      dup5\n      mstore\n      swap1\n      swap2\n      mstore\n      swap1\n      keccak256\n      sload\n        /* \"@openzeppelin/contracts/token/ERC1155/ERC1155.sol\":2245:2377  function balanceOf(address account, uint256 id) public view virtual returns (uint256) {... */\n    tag_61:\n      swap3\n      swap2\n      pop\n      pop\n      jump\t// out\n        /* \"@openzeppelin/contracts/token/ERC1155/ERC1155.sol\":1378:1683  function supportsInterface(bytes4 interfaceId) public view virtual override(ERC165, IERC165) returns (bool) {... */\n    tag_23:\n        /* \"@openzeppelin/contracts/token/ERC1155/ERC1155.sol\":1480:1484  bool */\n      0x00\n      not(sub(shl(0xe0, 0x01), 0x01))\n        /* \"@openzeppelin/contracts/token/ERC1155/ERC1155.sol\":1515:1556  interfaceId == type(IERC1155).interfaceId */\n      dup3\n      and\n      shl(0xe1, 0x6cdb3d13)\n      eq\n      dup1\n        /* \"@openzeppelin/contracts/token/ERC1155/ERC1155.sol\":1515:1624  interfaceId == type(IERC1155).interfaceId ||... */\n      tag_63\n      jumpi\n      pop\n      not(sub(shl(0xe0, 0x01), 0x01))\n        /* \"@openzeppelin/contracts/token/ERC1155/ERC1155.sol\":1572:1624  interfaceId == type(IERC1155MetadataURI).interfaceId */\n      dup3\n      and\n      shl(0xe2, 0x03a24d07)\n      eq\n        /* \"@openzeppelin/contracts/token/ERC1155/ERC1155.sol\":1515:1624  interfaceId == type(IERC1155).interfaceId ||... */\n    tag_63:\n        /* \"@openzeppelin/contracts/token/ERC1155/ERC1155.sol\":1515:1676  interfaceId == type(IERC1155).interfaceId ||... */\n      dup1\n      tag_61\n      jumpi\n      pop\n      shl(0xe0, 0x01ffc9a7)\n      not(sub(shl(0xe0, 0x01), 0x01))\n        /* \"@openzeppelin/contracts/utils/introspection/ERC165.sol\":862:902  interfaceId == type(IERC165).interfaceId */\n      dup4\n      and\n      eq\n        /* \"@openzeppelin/contracts/token/ERC1155/ERC1155.sol\":1640:1676  super.supportsInterface(interfaceId) */\n      tag_61\n        /* \"@openzeppelin/contracts/utils/introspection/ERC165.sol\":763:909  function supportsInterface(bytes4 interfaceId) public view virtual returns (bool) {... */\n      jump\n        /* \"@openzeppelin/contracts/token/ERC1155/ERC1155.sol\":2082:2185  function uri(uint256 /* id */) public view virtual returns (string memory) {... */\n    tag_29:\n        /* \"@openzeppelin/contracts/token/ERC1155/ERC1155.sol\":2142:2155  string memory */\n      0x60\n        /* \"@openzeppelin/contracts/token/ERC1155/ERC1155.sol\":2174:2178  _uri */\n      0x02\n        /* \"@openzeppelin/contracts/token/ERC1155/ERC1155.sol\":2167:2178  return _uri */\n      dup1\n      sload\n      tag_68\n      swap1\n      tag_69\n      jump\t// in\n    tag_68:\n      dup1\n      0x1f\n      add\n      0x20\n      dup1\n      swap2\n      div\n      mul\n      0x20\n      add\n      mload(0x40)\n      swap1\n      dup2\n      add\n      0x40\n      mstore\n      dup1\n      swap3\n      swap2\n      swap1\n      dup2\n      dup2\n      mstore\n      0x20\n      add\n      dup3\n      dup1\n      sload\n      tag_70\n      swap1\n      tag_69\n      jump\t// in\n    tag_70:\n      dup1\n      iszero\n      tag_71\n      jumpi\n      dup1\n      0x1f\n      lt\n      tag_72\n      jumpi\n      0x0100\n      dup1\n      dup4\n      sload\n      div\n      mul\n      dup4\n      mstore\n      swap2\n      0x20\n      add\n      swap2\n      jump(tag_71)\n    tag_72:\n      dup3\n      add\n      swap2\n      swap1\n      0x00\n      mstore\n      keccak256(0x00, 0x20)\n      swap1\n    tag_73:\n      dup2\n      sload\n      dup2\n      mstore\n      swap1\n      0x01\n      add\n      swap1\n      0x20\n      add\n      dup1\n      dup4\n      gt\n      tag_73\n      jumpi\n      dup3\n      swap1\n      sub\n      0x1f\n      and\n      dup3\n      add\n      swap2\n    tag_71:\n      pop\n      pop\n      pop\n      pop\n      pop\n      swap1\n      pop\n        /* \"@openzeppelin/contracts/token/ERC1155/ERC1155.sol\":2082:2185  function uri(uint256 /* id */) public view virtual returns (string memory) {... */\n      swap2\n      swap1\n      pop\n      jump\t// out\n        /* \"@openzeppelin/contracts/token/ERC1155/ERC1155.sol\":4012:4441  function safeBatchTransferFrom(... */\n    tag_35:\n        /* \"@openzeppelin/contracts/utils/Context.sol\":735:745  msg.sender */\n      caller\n      sub(shl(0xa0, 0x01), 0x01)\n        /* \"@openzeppelin/contracts/token/ERC1155/ERC1155.sol\":4249:4263  from != sender */\n      dup7\n      and\n      dup2\n      eq\n      dup1\n      iszero\n      swap1\n        /* \"@openzeppelin/contracts/token/ERC1155/ERC1155.sol\":4249:4298  from != sender && !isApprovedForAll(from, sender) */\n      tag_77\n      jumpi\n      pop\n        /* \"@openzeppelin/contracts/token/ERC1155/ERC1155.sol\":4268:4298  isApprovedForAll(from, sender) */\n      tag_78\n        /* \"@openzeppelin/contracts/token/ERC1155/ERC1155.sol\":4285:4289  from */\n      dup7\n        /* \"@openzeppelin/contracts/token/ERC1155/ERC1155.sol\":4291:4297  sender */\n      dup3\n        /* \"@openzeppelin/contracts/token/ERC1155/ERC1155.sol\":4268:4284  isApprovedForAll */\n      tag_55\n        /* \"@openzeppelin/contracts/token/ERC1155/ERC1155.sol\":4268:4298  isApprovedForAll(from, sender) */\n      jump\t// in\n    tag_78:\n        /* \"@openzeppelin/contracts/token/ERC1155/ERC1155.sol\":4267:4298  !isApprovedForAll(from, sender) */\n      iszero\n        /* \"@openzeppelin/contracts/token/ERC1155/ERC1155.sol\":4249:4298  from != sender && !isApprovedForAll(from, sender) */\n    tag_77:\n        /* \"@openzeppelin/contracts/token/ERC1155/ERC1155.sol\":4245:4374  if (from != sender && !isApprovedForAll(from, sender)) {... */\n      iszero\n      tag_79\n      jumpi\n        /* \"@openzeppelin/contracts/token/ERC1155/ERC1155.sol\":4321:4363  ERC1155MissingApprovalForAll(sender, from) */\n      mload(0x40)\n      shl(0xe1, 0x711bec91)\n      dup2\n      mstore\n      sub(shl(0xa0, 0x01), 0x01)\n        /* \"#utility.yul\":8499:8514   */\n      dup1\n      dup4\n      and\n        /* \"@openzeppelin/contracts/token/ERC1155/ERC1155.sol\":4321:4363  ERC1155MissingApprovalForAll(sender, from) */\n      0x04\n      dup4\n      add\n        /* \"#utility.yul\":8481:8515   */\n      mstore\n        /* \"#utility.yul\":8551:8566   */\n      dup8\n      and\n        /* \"#utility.yul\":8531:8549   */\n      0x24\n      dup3\n      add\n        /* \"#utility.yul\":8524:8567   */\n      mstore\n        /* \"#utility.yul\":8416:8434   */\n      0x44\n      add\n        /* \"@openzeppelin/contracts/token/ERC1155/ERC1155.sol\":4321:4363  ERC1155MissingApprovalForAll(sender, from) */\n    tag_80:\n      mload(0x40)\n      dup1\n      swap2\n      sub\n      swap1\n      revert\n        /* \"@openzeppelin/contracts/token/ERC1155/ERC1155.sol\":4245:4374  if (from != sender && !isApprovedForAll(from, sender)) {... */\n    tag_79:\n        /* \"@openzeppelin/contracts/token/ERC1155/ERC1155.sol\":4383:4434  _safeBatchTransferFrom(from, to, ids, values, data) */\n      tag_82\n        /* \"@openzeppelin/contracts/token/ERC1155/ERC1155.sol\":4406:4410  from */\n      dup7\n        /* \"@openzeppelin/contracts/token/ERC1155/ERC1155.sol\":4412:4414  to */\n      dup7\n        /* \"@openzeppelin/contracts/token/ERC1155/ERC1155.sol\":4416:4419  ids */\n      dup7\n        /* \"@openzeppelin/contracts/token/ERC1155/ERC1155.sol\":4421:4427  values */\n      dup7\n        /* \"@openzeppelin/contracts/token/ERC1155/ERC1155.sol\":4429:4433  data */\n      dup7\n        /* \"@openzeppelin/contracts/token/ERC1155/ERC1155.sol\":4383:4405  _safeBatchTransferFrom */\n      tag_83\n        /* \"@openzeppelin/contracts/token/ERC1155/ERC1155.sol\":4383:4434  _safeBatchTransferFrom(from, to, ids, values, data) */\n      jump\t// in\n    tag_82:\n        /* \"@openzeppelin/contracts/token/ERC1155/ERC1155.sol\":4196:4441  {... */\n      pop\n        /* \"@openzeppelin/contracts/token/ERC1155/ERC1155.sol\":4012:4441  function safeBatchTransferFrom(... */\n      pop\n      pop\n      pop\n      pop\n      pop\n      jump\t// out\n        /* \"@openzeppelin/contracts/token/ERC1155/ERC1155.sol\":2534:3086  function balanceOfBatch(... */\n    tag_39:\n        /* \"@openzeppelin/contracts/token/ERC1155/ERC1155.sol\":2658:2674  uint256[] memory */\n      0x60\n        /* \"@openzeppelin/contracts/token/ERC1155/ERC1155.sol\":2709:2712  ids */\n      dup2\n        /* \"@openzeppelin/contracts/token/ERC1155/ERC1155.sol\":2709:2719  ids.length */\n      mload\n        /* \"@openzeppelin/contracts/token/ERC1155/ERC1155.sol\":2690:2698  accounts */\n      dup4\n        /* \"@openzeppelin/contracts/token/ERC1155/ERC1155.sol\":2690:2705  accounts.length */\n      mload\n        /* \"@openzeppelin/contracts/token/ERC1155/ERC1155.sol\":2690:2719  accounts.length != ids.length */\n      eq\n        /* \"@openzeppelin/contracts/token/ERC1155/ERC1155.sol\":2686:2807  if (accounts.length != ids.length) {... */\n      tag_85\n      jumpi\n        /* \"@openzeppelin/contracts/token/ERC1155/ERC1155.sol\":2768:2778  ids.length */\n      dup2\n      mload\n        /* \"@openzeppelin/contracts/token/ERC1155/ERC1155.sol\":2780:2795  accounts.length */\n      dup4\n      mload\n        /* \"@openzeppelin/contracts/token/ERC1155/ERC1155.sol\":2742:2796  ERC1155InvalidArrayLength(ids.length, accounts.length) */\n      mload(0x40)\n      shl(0xe0, 0x5b059991)\n      dup2\n      mstore\n      0x04\n      dup2\n      add\n        /* \"#utility.yul\":8752:8777   */\n      swap3\n      swap1\n      swap3\n      mstore\n        /* \"#utility.yul\":8793:8811   */\n      0x24\n      dup3\n      add\n        /* \"#utility.yul\":8786:8820   */\n      mstore\n        /* \"#utility.yul\":8725:8743   */\n      0x44\n      add\n        /* \"@openzeppelin/contracts/token/ERC1155/ERC1155.sol\":2742:2796  ERC1155InvalidArrayLength(ids.length, accounts.length) */\n      tag_80\n        /* \"#utility.yul\":8578:8826   */\n      jump\n        /* \"@openzeppelin/contracts/token/ERC1155/ERC1155.sol\":2686:2807  if (accounts.length != ids.length) {... */\n    tag_85:\n        /* \"@openzeppelin/contracts/token/ERC1155/ERC1155.sol\":2817:2847  uint256[] memory batchBalances */\n      0x00\n        /* \"@openzeppelin/contracts/token/ERC1155/ERC1155.sol\":2864:2872  accounts */\n      dup4\n        /* \"@openzeppelin/contracts/token/ERC1155/ERC1155.sol\":2864:2879  accounts.length */\n      mload\n        /* \"@openzeppelin/contracts/token/ERC1155/ERC1155.sol\":2850:2880  new uint256[](accounts.length) */\n      0xffffffffffffffff\n      dup2\n      gt\n      iszero\n      tag_89\n      jumpi\n      tag_89\n      tag_90\n      jump\t// in\n    tag_89:\n      mload(0x40)\n      swap1\n      dup1\n      dup3\n      mstore\n      dup1\n      0x20\n      mul\n      0x20\n      add\n      dup3\n      add\n      0x40\n      mstore\n      dup1\n      iszero\n      tag_91\n      jumpi\n      dup2\n      0x20\n      add\n      0x20\n      dup3\n      mul\n      dup1\n      calldatasize\n      dup4\n      calldatacopy\n      add\n      swap1\n      pop\n    tag_91:\n      pop\n        /* \"@openzeppelin/contracts/token/ERC1155/ERC1155.sol\":2817:2880  uint256[] memory batchBalances = new uint256[](accounts.length) */\n      swap1\n      pop\n        /* \"@openzeppelin/contracts/token/ERC1155/ERC1155.sol\":2896:2905  uint256 i */\n      0x00\n        /* \"@openzeppelin/contracts/token/ERC1155/ERC1155.sol\":2891:3049  for (uint256 i = 0; i < accounts.length; ++i) {... */\n    tag_92:\n        /* \"@openzeppelin/contracts/token/ERC1155/ERC1155.sol\":2915:2923  accounts */\n      dup5\n        /* \"@openzeppelin/contracts/token/ERC1155/ERC1155.sol\":2915:2930  accounts.length */\n      mload\n        /* \"@openzeppelin/contracts/token/ERC1155/ERC1155.sol\":2911:2912  i */\n      dup2\n        /* \"@openzeppelin/contracts/token/ERC1155/ERC1155.sol\":2911:2930  i < accounts.length */\n      lt\n        /* \"@openzeppelin/contracts/token/ERC1155/ERC1155.sol\":2891:3049  for (uint256 i = 0; i < accounts.length; ++i) {... */\n      iszero\n      tag_93\n      jumpi\n        /* \"@openzeppelin/contracts/utils/Arrays.sol\":16302:16306  0x20 */\n      0x20\n        /* \"@openzeppelin/contracts/utils/Arrays.sol\":16293:16307  mul(pos, 0x20) */\n      dup1\n      dup3\n      mul\n        /* \"@openzeppelin/contracts/utils/Arrays.sol\":16273:16308  add(add(arr, 0x20), mul(pos, 0x20)) */\n      dup7\n      add\n      add\n        /* \"@openzeppelin/contracts/utils/Arrays.sol\":16267:16309  mload(add(add(arr, 0x20), mul(pos, 0x20))) */\n      mload\n        /* \"@openzeppelin/contracts/token/ERC1155/ERC1155.sol\":2970:3038  balanceOf(accounts.unsafeMemoryAccess(i), ids.unsafeMemoryAccess(i)) */\n      tag_95\n      swap1\n        /* \"@openzeppelin/contracts/utils/Arrays.sol\":16302:16306  0x20 */\n      0x20\n        /* \"@openzeppelin/contracts/utils/Arrays.sol\":16293:16307  mul(pos, 0x20) */\n      dup1\n      dup5\n      mul\n        /* \"@openzeppelin/contracts/utils/Arrays.sol\":16273:16308  add(add(arr, 0x20), mul(pos, 0x20)) */\n      dup8\n      add\n      add\n        /* \"@openzeppelin/contracts/utils/Arrays.sol\":16267:16309  mload(add(add(arr, 0x20), mul(pos, 0x20))) */\n      mload\n        /* \"@openzeppelin/contracts/token/ERC1155/ERC1155.sol\":2245:2377  function balanceOf(address account, uint256 id) public view virtual returns (uint256) {... */\n      tag_17\n      jump\t// in\n        /* \"@openzeppelin/contracts/token/ERC1155/ERC1155.sol\":2970:3038  balanceOf(accounts.unsafeMemoryAccess(i), ids.unsafeMemoryAccess(i)) */\n    tag_95:\n        /* \"@openzeppelin/contracts/token/ERC1155/ERC1155.sol\":2951:2964  batchBalances */\n      dup3\n        /* \"@openzeppelin/contracts/token/ERC1155/ERC1155.sol\":2965:2966  i */\n      dup3\n        /* \"@openzeppelin/contracts/token/ERC1155/ERC1155.sol\":2951:2967  batchBalances[i] */\n      dup2\n      mload\n      dup2\n      lt\n      tag_101\n      jumpi\n      tag_101\n      tag_102\n      jump\t// in\n    tag_101:\n      0x20\n      swap1\n      dup2\n      mul\n      swap2\n      swap1\n      swap2\n      add\n      add\n        /* \"@openzeppelin/contracts/token/ERC1155/ERC1155.sol\":2951:3038  batchBalances[i] = balanceOf(accounts.unsafeMemoryAccess(i), ids.unsafeMemoryAccess(i)) */\n      mstore\n        /* \"@openzeppelin/contracts/token/ERC1155/ERC1155.sol\":2932:2935  ++i */\n      tag_103\n      dup2\n      tag_104\n      jump\t// in\n    tag_103:\n      swap1\n      pop\n        /* \"@openzeppelin/contracts/token/ERC1155/ERC1155.sol\":2891:3049  for (uint256 i = 0; i < accounts.length; ++i) {... */\n      jump(tag_92)\n    tag_93:\n      pop\n        /* \"@openzeppelin/contracts/token/ERC1155/ERC1155.sol\":3066:3079  batchBalances */\n      swap4\n        /* \"@openzeppelin/contracts/token/ERC1155/ERC1155.sol\":2534:3086  function balanceOfBatch(... */\n      swap3\n      pop\n      pop\n      pop\n      jump\t// out\n        /* \"Standard_ERC1155.sol\":454:578  function mint(uint256 amount) external {... */\n    tag_47:\n        /* \"Standard_ERC1155.sol\":504:546  _mint(msg.sender, nextTokenId, amount, \"\") */\n      tag_106\n        /* \"Standard_ERC1155.sol\":510:520  msg.sender */\n      caller\n        /* \"Standard_ERC1155.sol\":522:533  nextTokenId */\n      sload(0x03)\n        /* \"Standard_ERC1155.sol\":535:541  amount */\n      dup4\n        /* \"Standard_ERC1155.sol\":504:546  _mint(msg.sender, nextTokenId, amount, \"\") */\n      mload(0x40)\n      dup1\n      0x20\n      add\n      0x40\n      mstore\n      dup1\n      0x00\n      dup2\n      mstore\n      pop\n        /* \"Standard_ERC1155.sol\":504:509  _mint */\n      tag_107\n        /* \"Standard_ERC1155.sol\":504:546  _mint(msg.sender, nextTokenId, amount, \"\") */\n      jump\t// in\n    tag_106:\n        /* \"Standard_ERC1155.sol\":557:568  nextTokenId */\n      0x03\n        /* \"Standard_ERC1155.sol\":557:570  nextTokenId++ */\n      dup1\n      sload\n      swap1\n        /* \"Standard_ERC1155.sol\":557:568  nextTokenId */\n      0x00\n        /* \"Standard_ERC1155.sol\":557:570  nextTokenId++ */\n      tag_108\n      dup4\n      tag_104\n      jump\t// in\n    tag_108:\n      swap2\n      swap1\n      pop\n      sstore\n      pop\n        /* \"Standard_ERC1155.sol\":454:578  function mint(uint256 amount) external {... */\n      pop\n      jump\t// out\n        /* \"@openzeppelin/contracts/token/ERC1155/ERC1155.sol\":3154:3298  function setApprovalForAll(address operator, bool approved) public virtual {... */\n    tag_51:\n        /* \"@openzeppelin/contracts/token/ERC1155/ERC1155.sol\":3239:3291  _setApprovalForAll(_msgSender(), operator, approved) */\n      tag_110\n        /* \"@openzeppelin/contracts/utils/Context.sol\":735:745  msg.sender */\n      caller\n        /* \"@openzeppelin/contracts/token/ERC1155/ERC1155.sol\":3272:3280  operator */\n      dup4\n        /* \"@openzeppelin/contracts/token/ERC1155/ERC1155.sol\":3282:3290  approved */\n      dup4\n        /* \"@openzeppelin/contracts/token/ERC1155/ERC1155.sol\":3239:3257  _setApprovalForAll */\n      tag_112\n        /* \"@openzeppelin/contracts/token/ERC1155/ERC1155.sol\":3239:3291  _setApprovalForAll(_msgSender(), operator, approved) */\n      jump\t// in\n    tag_110:\n        /* \"@openzeppelin/contracts/token/ERC1155/ERC1155.sol\":3154:3298  function setApprovalForAll(address operator, bool approved) public virtual {... */\n      pop\n      pop\n      jump\t// out\n        /* \"@openzeppelin/contracts/token/ERC1155/ERC1155.sol\":3365:3522  function isApprovedForAll(address account, address operator) public view virtual returns (bool) {... */\n    tag_55:\n      sub(shl(0xa0, 0x01), 0x01)\n        /* \"@openzeppelin/contracts/token/ERC1155/ERC1155.sol\":3478:3505  _operatorApprovals[account] */\n      swap2\n      dup3\n      and\n        /* \"@openzeppelin/contracts/token/ERC1155/ERC1155.sol\":3455:3459  bool */\n      0x00\n        /* \"@openzeppelin/contracts/token/ERC1155/ERC1155.sol\":3478:3505  _operatorApprovals[account] */\n      swap1\n      dup2\n      mstore\n        /* \"@openzeppelin/contracts/token/ERC1155/ERC1155.sol\":3478:3496  _operatorApprovals */\n      0x01\n        /* \"@openzeppelin/contracts/token/ERC1155/ERC1155.sol\":3478:3505  _operatorApprovals[account] */\n      0x20\n      swap1\n      dup2\n      mstore\n      0x40\n      dup1\n      dup4\n      keccak256\n        /* \"@openzeppelin/contracts/token/ERC1155/ERC1155.sol\":3478:3515  _operatorApprovals[account][operator] */\n      swap4\n      swap1\n      swap5\n      and\n      dup3\n      mstore\n      swap2\n      swap1\n      swap2\n      mstore\n      keccak256\n      sload\n      0xff\n      and\n      swap1\n        /* \"@openzeppelin/contracts/token/ERC1155/ERC1155.sol\":3365:3522  function isApprovedForAll(address account, address operator) public view virtual returns (bool) {... */\n      jump\t// out\n        /* \"@openzeppelin/contracts/token/ERC1155/ERC1155.sol\":3589:3940  function safeTransferFrom(address from, address to, uint256 id, uint256 value, bytes memory data) public virtual {... */\n    tag_60:\n        /* \"@openzeppelin/contracts/utils/Context.sol\":735:745  msg.sender */\n      caller\n      sub(shl(0xa0, 0x01), 0x01)\n        /* \"@openzeppelin/contracts/token/ERC1155/ERC1155.sol\":3755:3769  from != sender */\n      dup7\n      and\n      dup2\n      eq\n      dup1\n      iszero\n      swap1\n        /* \"@openzeppelin/contracts/token/ERC1155/ERC1155.sol\":3755:3804  from != sender && !isApprovedForAll(from, sender) */\n      tag_116\n      jumpi\n      pop\n        /* \"@openzeppelin/contracts/token/ERC1155/ERC1155.sol\":3774:3804  isApprovedForAll(from, sender) */\n      tag_117\n        /* \"@openzeppelin/contracts/token/ERC1155/ERC1155.sol\":3791:3795  from */\n      dup7\n        /* \"@openzeppelin/contracts/token/ERC1155/ERC1155.sol\":3797:3803  sender */\n      dup3\n        /* \"@openzeppelin/contracts/token/ERC1155/ERC1155.sol\":3774:3790  isApprovedForAll */\n      tag_55\n        /* \"@openzeppelin/contracts/token/ERC1155/ERC1155.sol\":3774:3804  isApprovedForAll(from, sender) */\n      jump\t// in\n    tag_117:\n        /* \"@openzeppelin/contracts/token/ERC1155/ERC1155.sol\":3773:3804  !isApprovedForAll(from, sender) */\n      iszero\n        /* \"@openzeppelin/contracts/token/ERC1155/ERC1155.sol\":3755:3804  from != sender && !isApprovedForAll(from, sender) */\n    tag_116:\n        /* \"@openzeppelin/contracts/token/ERC1155/ERC1155.sol\":3751:3880  if (from != sender && !isApprovedForAll(from, sender)) {... */\n      iszero\n      tag_118\n      jumpi\n        /* \"@openzeppelin/contracts/token/ERC1155/ERC1155.sol\":3827:3869  ERC1155MissingApprovalForAll(sender, from) */\n      mload(0x40)\n      shl(0xe1, 0x711bec91)\n      dup2\n      mstore\n      sub(shl(0xa0, 0x01), 0x01)\n        /* \"#utility.yul\":8499:8514   */\n      dup1\n      dup4\n      and\n        /* \"@openzeppelin/contracts/token/ERC1155/ERC1155.sol\":3827:3869  ERC1155MissingApprovalForAll(sender, from) */\n      0x04\n      dup4\n      add\n        /* \"#utility.yul\":8481:8515   */\n      mstore\n        /* \"#utility.yul\":8551:8566   */\n      dup8\n      and\n        /* \"#utility.yul\":8531:8549   */\n      0x24\n      dup3\n      add\n        /* \"#utility.yul\":8524:8567   */\n      mstore\n        /* \"#utility.yul\":8416:8434   */\n      0x44\n      add\n        /* \"@openzeppelin/contracts/token/ERC1155/ERC1155.sol\":3827:3869  ERC1155MissingApprovalForAll(sender, from) */\n      tag_80\n        /* \"#utility.yul\":8269:8573   */\n      jump\n        /* \"@openzeppelin/contracts/token/ERC1155/ERC1155.sol\":3751:3880  if (from != sender && !isApprovedForAll(from, sender)) {... */\n    tag_118:\n        /* \"@openzeppelin/contracts/token/ERC1155/ERC1155.sol\":3889:3933  _safeTransferFrom(from, to, id, value, data) */\n      tag_82\n        /* \"@openzeppelin/contracts/token/ERC1155/ERC1155.sol\":3907:3911  from */\n      dup7\n        /* \"@openzeppelin/contracts/token/ERC1155/ERC1155.sol\":3913:3915  to */\n      dup7\n        /* \"@openzeppelin/contracts/token/ERC1155/ERC1155.sol\":3917:3919  id */\n      dup7\n        /* \"@openzeppelin/contracts/token/ERC1155/ERC1155.sol\":3921:3926  value */\n      dup7\n        /* \"@openzeppelin/contracts/token/ERC1155/ERC1155.sol\":3928:3932  data */\n      dup7\n        /* \"@openzeppelin/contracts/token/ERC1155/ERC1155.sol\":3889:3906  _safeTransferFrom */\n      tag_121\n        /* \"@openzeppelin/contracts/token/ERC1155/ERC1155.sol\":3889:3933  _safeTransferFrom(from, to, id, value, data) */\n      jump\t// in\n        /* \"@openzeppelin/contracts/token/ERC1155/ERC1155.sol\":9023:9468  function _safeBatchTransferFrom(... */\n    tag_83:\n      sub(shl(0xa0, 0x01), 0x01)\n        /* \"@openzeppelin/contracts/token/ERC1155/ERC1155.sol\":9216:9232  to == address(0) */\n      dup5\n      and\n        /* \"@openzeppelin/contracts/token/ERC1155/ERC1155.sol\":9212:9300  if (to == address(0)) {... */\n      tag_125\n      jumpi\n        /* \"@openzeppelin/contracts/token/ERC1155/ERC1155.sol\":9255:9289  ERC1155InvalidReceiver(address(0)) */\n      mload(0x40)\n      shl(0xe1, 0x2bfa23e7)\n      dup2\n      mstore\n        /* \"@openzeppelin/contracts/token/ERC1155/ERC1155.sol\":9286:9287  0 */\n      0x00\n        /* \"@openzeppelin/contracts/token/ERC1155/ERC1155.sol\":9255:9289  ERC1155InvalidReceiver(address(0)) */\n      0x04\n      dup3\n      add\n        /* \"#utility.yul\":9381:9432   */\n      mstore\n        /* \"#utility.yul\":9354:9372   */\n      0x24\n      add\n        /* \"@openzeppelin/contracts/token/ERC1155/ERC1155.sol\":9255:9289  ERC1155InvalidReceiver(address(0)) */\n      tag_80\n        /* \"#utility.yul\":9235:9438   */\n      jump\n        /* \"@openzeppelin/contracts/token/ERC1155/ERC1155.sol\":9212:9300  if (to == address(0)) {... */\n    tag_125:\n      sub(shl(0xa0, 0x01), 0x01)\n        /* \"@openzeppelin/contracts/token/ERC1155/ERC1155.sol\":9313:9331  from == address(0) */\n      dup6\n      and\n        /* \"@openzeppelin/contracts/token/ERC1155/ERC1155.sol\":9309:9397  if (from == address(0)) {... */\n      tag_128\n      jumpi\n        /* \"@openzeppelin/contracts/token/ERC1155/ERC1155.sol\":9354:9386  ERC1155InvalidSender(address(0)) */\n      mload(0x40)\n      shl(0xe2, 0x6a0d45)\n      dup2\n      mstore\n        /* \"@openzeppelin/contracts/token/ERC1155/ERC1155.sol\":9383:9384  0 */\n      0x00\n        /* \"@openzeppelin/contracts/token/ERC1155/ERC1155.sol\":9354:9386  ERC1155InvalidSender(address(0)) */\n      0x04\n      dup3\n      add\n        /* \"#utility.yul\":9381:9432   */\n      mstore\n        /* \"#utility.yul\":9354:9372   */\n      0x24\n      add\n        /* \"@openzeppelin/contracts/token/ERC1155/ERC1155.sol\":9354:9386  ERC1155InvalidSender(address(0)) */\n      tag_80\n        /* \"#utility.yul\":9235:9438   */\n      jump\n        /* \"@openzeppelin/contracts/token/ERC1155/ERC1155.sol\":9309:9397  if (from == address(0)) {... */\n    tag_128:\n        /* \"@openzeppelin/contracts/token/ERC1155/ERC1155.sol\":9406:9461  _updateWithAcceptanceCheck(from, to, ids, values, data) */\n      tag_130\n        /* \"@openzeppelin/contracts/token/ERC1155/ERC1155.sol\":9433:9437  from */\n      dup6\n        /* \"@openzeppelin/contracts/token/ERC1155/ERC1155.sol\":9439:9441  to */\n      dup6\n        /* \"@openzeppelin/contracts/token/ERC1155/ERC1155.sol\":9443:9446  ids */\n      dup6\n        /* \"@openzeppelin/contracts/token/ERC1155/ERC1155.sol\":9448:9454  values */\n      dup6\n        /* \"@openzeppelin/contracts/token/ERC1155/ERC1155.sol\":9456:9460  data */\n      dup6\n        /* \"@openzeppelin/contracts/token/ERC1155/ERC1155.sol\":9406:9432  _updateWithAcceptanceCheck */\n      tag_131\n        /* \"@openzeppelin/contracts/token/ERC1155/ERC1155.sol\":9406:9461  _updateWithAcceptanceCheck(from, to, ids, values, data) */\n      jump\t// in\n    tag_130:\n        /* \"@openzeppelin/contracts/token/ERC1155/ERC1155.sol\":9023:9468  function _safeBatchTransferFrom(... */\n      pop\n      pop\n      pop\n      pop\n      pop\n      jump\t// out\n        /* \"@openzeppelin/contracts/token/ERC1155/ERC1155.sol\":10754:11100  function _mint(address to, uint256 id, uint256 value, bytes memory data) internal {... */\n    tag_107:\n      sub(shl(0xa0, 0x01), 0x01)\n        /* \"@openzeppelin/contracts/token/ERC1155/ERC1155.sol\":10850:10866  to == address(0) */\n      dup5\n      and\n        /* \"@openzeppelin/contracts/token/ERC1155/ERC1155.sol\":10846:10934  if (to == address(0)) {... */\n      tag_135\n      jumpi\n        /* \"@openzeppelin/contracts/token/ERC1155/ERC1155.sol\":10889:10923  ERC1155InvalidReceiver(address(0)) */\n      mload(0x40)\n      shl(0xe1, 0x2bfa23e7)\n      dup2\n      mstore\n        /* \"@openzeppelin/contracts/token/ERC1155/ERC1155.sol\":10920:10921  0 */\n      0x00\n        /* \"@openzeppelin/contracts/token/ERC1155/ERC1155.sol\":10889:10923  ERC1155InvalidReceiver(address(0)) */\n      0x04\n      dup3\n      add\n        /* \"#utility.yul\":9381:9432   */\n      mstore\n        /* \"#utility.yul\":9354:9372   */\n      0x24\n      add\n        /* \"@openzeppelin/contracts/token/ERC1155/ERC1155.sol\":10889:10923  ERC1155InvalidReceiver(address(0)) */\n      tag_80\n        /* \"#utility.yul\":9235:9438   */\n      jump\n        /* \"@openzeppelin/contracts/token/ERC1155/ERC1155.sol\":10846:10934  if (to == address(0)) {... */\n    tag_135:\n        /* \"@openzeppelin/contracts/token/ERC1155/ERC1155.sol\":13974:13978  0x40 */\n      0x40\n        /* \"@openzeppelin/contracts/token/ERC1155/ERC1155.sol\":13968:13979  mload(0x40) */\n      dup1\n      mload\n        /* \"@openzeppelin/contracts/token/ERC1155/ERC1155.sol\":14044:14045  1 */\n      0x01\n        /* \"@openzeppelin/contracts/token/ERC1155/ERC1155.sol\":14029:14046  mstore(array1, 1) */\n      dup1\n      dup3\n      mstore\n        /* \"@openzeppelin/contracts/token/ERC1155/ERC1155.sol\":14175:14179  0x20 */\n      0x20\n        /* \"@openzeppelin/contracts/token/ERC1155/ERC1155.sol\":14163:14180  add(array1, 0x20) */\n      dup3\n      add\n        /* \"@openzeppelin/contracts/token/ERC1155/ERC1155.sol\":14156:14191  mstore(add(array1, 0x20), element1) */\n      dup7\n      swap1\n      mstore\n        /* \"@openzeppelin/contracts/token/ERC1155/ERC1155.sol\":14292:14309  add(array1, 0x40) */\n      dup2\n      dup4\n      add\n        /* \"@openzeppelin/contracts/token/ERC1155/ERC1155.sol\":14322:14339  mstore(array2, 1) */\n      swap1\n      dup2\n      mstore\n        /* \"@openzeppelin/contracts/token/ERC1155/ERC1155.sol\":13815:13838  uint256[] memory array1 */\n      0x60\n        /* \"@openzeppelin/contracts/token/ERC1155/ERC1155.sol\":14359:14376  add(array2, 0x20) */\n      dup3\n      add\n        /* \"@openzeppelin/contracts/token/ERC1155/ERC1155.sol\":14352:14387  mstore(add(array2, 0x20), element2) */\n      dup6\n      swap1\n      mstore\n        /* \"@openzeppelin/contracts/token/ERC1155/ERC1155.sol\":14495:14512  add(array2, 0x40) */\n      0x80\n      dup3\n      add\n        /* \"@openzeppelin/contracts/token/ERC1155/ERC1155.sol\":14482:14513  mstore(0x40, add(array2, 0x40)) */\n      swap1\n      swap3\n      mstore\n        /* \"@openzeppelin/contracts/token/ERC1155/ERC1155.sol\":13968:13979  mload(0x40) */\n      swap1\n        /* \"@openzeppelin/contracts/token/ERC1155/ERC1155.sol\":11032:11093  _updateWithAcceptanceCheck(address(0), to, ids, values, data) */\n      tag_82\n      0x00\n        /* \"@openzeppelin/contracts/token/ERC1155/ERC1155.sol\":11071:11073  to */\n      dup8\n        /* \"@openzeppelin/contracts/token/ERC1155/ERC1155.sol\":13968:13979  mload(0x40) */\n      dup5\n        /* \"@openzeppelin/contracts/token/ERC1155/ERC1155.sol\":14292:14309  add(array1, 0x40) */\n      dup5\n        /* \"@openzeppelin/contracts/token/ERC1155/ERC1155.sol\":11088:11092  data */\n      dup8\n        /* \"@openzeppelin/contracts/token/ERC1155/ERC1155.sol\":11032:11058  _updateWithAcceptanceCheck */\n      tag_131\n        /* \"@openzeppelin/contracts/token/ERC1155/ERC1155.sol\":11032:11093  _updateWithAcceptanceCheck(address(0), to, ids, values, data) */\n      jump\t// in\n        /* \"@openzeppelin/contracts/token/ERC1155/ERC1155.sol\":13276:13591  function _setApprovalForAll(address owner, address operator, bool approved) internal virtual {... */\n    tag_112:\n      sub(shl(0xa0, 0x01), 0x01)\n        /* \"@openzeppelin/contracts/token/ERC1155/ERC1155.sol\":13383:13405  operator == address(0) */\n      dup3\n      and\n        /* \"@openzeppelin/contracts/token/ERC1155/ERC1155.sol\":13379:13473  if (operator == address(0)) {... */\n      tag_141\n      jumpi\n        /* \"@openzeppelin/contracts/token/ERC1155/ERC1155.sol\":13428:13462  ERC1155InvalidOperator(address(0)) */\n      mload(0x40)\n      shl(0xe8, 0xced3e1)\n      dup2\n      mstore\n        /* \"@openzeppelin/contracts/token/ERC1155/ERC1155.sol\":13459:13460  0 */\n      0x00\n        /* \"@openzeppelin/contracts/token/ERC1155/ERC1155.sol\":13428:13462  ERC1155InvalidOperator(address(0)) */\n      0x04\n      dup3\n      add\n        /* \"#utility.yul\":9381:9432   */\n      mstore\n        /* \"#utility.yul\":9354:9372   */\n      0x24\n      add\n        /* \"@openzeppelin/contracts/token/ERC1155/ERC1155.sol\":13428:13462  ERC1155InvalidOperator(address(0)) */\n      tag_80\n        /* \"#utility.yul\":9235:9438   */\n      jump\n        /* \"@openzeppelin/contracts/token/ERC1155/ERC1155.sol\":13379:13473  if (operator == address(0)) {... */\n    tag_141:\n      sub(shl(0xa0, 0x01), 0x01)\n        /* \"@openzeppelin/contracts/token/ERC1155/ERC1155.sol\":13482:13507  _operatorApprovals[owner] */\n      dup4\n      dup2\n      and\n      0x00\n      dup2\n      dup2\n      mstore\n        /* \"@openzeppelin/contracts/token/ERC1155/ERC1155.sol\":13482:13500  _operatorApprovals */\n      0x01\n        /* \"@openzeppelin/contracts/token/ERC1155/ERC1155.sol\":13482:13507  _operatorApprovals[owner] */\n      0x20\n      swap1\n      dup2\n      mstore\n      0x40\n      dup1\n      dup4\n      keccak256\n        /* \"@openzeppelin/contracts/token/ERC1155/ERC1155.sol\":13482:13517  _operatorApprovals[owner][operator] */\n      swap5\n      dup8\n      and\n      dup1\n      dup5\n      mstore\n      swap5\n      dup3\n      mstore\n      swap2\n      dup3\n      swap1\n      keccak256\n        /* \"@openzeppelin/contracts/token/ERC1155/ERC1155.sol\":13482:13528  _operatorApprovals[owner][operator] = approved */\n      dup1\n      sload\n      not(0xff)\n      and\n      dup7\n      iszero\n      iszero\n      swap1\n      dup2\n      or\n      swap1\n      swap2\n      sstore\n        /* \"@openzeppelin/contracts/token/ERC1155/ERC1155.sol\":13543:13584  ApprovalForAll(owner, operator, approved) */\n      swap2\n      mload\n        /* \"#utility.yul\":1159:1200   */\n      swap2\n      dup3\n      mstore\n        /* \"@openzeppelin/contracts/token/ERC1155/ERC1155.sol\":13543:13584  ApprovalForAll(owner, operator, approved) */\n      0x17307eab39ab6107e8899845ad3d59bd9653f200f220920489ca2b5937696c31\n      swap2\n        /* \"#utility.yul\":1132:1150   */\n      add\n        /* \"@openzeppelin/contracts/token/ERC1155/ERC1155.sol\":13543:13584  ApprovalForAll(owner, operator, approved) */\n      mload(0x40)\n      dup1\n      swap2\n      sub\n      swap1\n      log3\n        /* \"@openzeppelin/contracts/token/ERC1155/ERC1155.sol\":13276:13591  function _setApprovalForAll(address owner, address operator, bool approved) internal virtual {... */\n      pop\n      pop\n      pop\n      jump\t// out\n        /* \"@openzeppelin/contracts/token/ERC1155/ERC1155.sol\":8159:8622  function _safeTransferFrom(address from, address to, uint256 id, uint256 value, bytes memory data) internal {... */\n    tag_121:\n      sub(shl(0xa0, 0x01), 0x01)\n        /* \"@openzeppelin/contracts/token/ERC1155/ERC1155.sol\":8281:8297  to == address(0) */\n      dup5\n      and\n        /* \"@openzeppelin/contracts/token/ERC1155/ERC1155.sol\":8277:8365  if (to == address(0)) {... */\n      tag_145\n      jumpi\n        /* \"@openzeppelin/contracts/token/ERC1155/ERC1155.sol\":8320:8354  ERC1155InvalidReceiver(address(0)) */\n      mload(0x40)\n      shl(0xe1, 0x2bfa23e7)\n      dup2\n      mstore\n        /* \"@openzeppelin/contracts/token/ERC1155/ERC1155.sol\":8351:8352  0 */\n      0x00\n        /* \"@openzeppelin/contracts/token/ERC1155/ERC1155.sol\":8320:8354  ERC1155InvalidReceiver(address(0)) */\n      0x04\n      dup3\n      add\n        /* \"#utility.yul\":9381:9432   */\n      mstore\n        /* \"#utility.yul\":9354:9372   */\n      0x24\n      add\n        /* \"@openzeppelin/contracts/token/ERC1155/ERC1155.sol\":8320:8354  ERC1155InvalidReceiver(address(0)) */\n      tag_80\n        /* \"#utility.yul\":9235:9438   */\n      jump\n        /* \"@openzeppelin/contracts/token/ERC1155/ERC1155.sol\":8277:8365  if (to == address(0)) {... */\n    tag_145:\n      sub(shl(0xa0, 0x01), 0x01)\n        /* \"@openzeppelin/contracts/token/ERC1155/ERC1155.sol\":8378:8396  from == address(0) */\n      dup6\n      and\n        /* \"@openzeppelin/contracts/token/ERC1155/ERC1155.sol\":8374:8462  if (from == address(0)) {... */\n      tag_147\n      jumpi\n        /* \"@openzeppelin/contracts/token/ERC1155/ERC1155.sol\":8419:8451  ERC1155InvalidSender(address(0)) */\n      mload(0x40)\n      shl(0xe2, 0x6a0d45)\n      dup2\n      mstore\n        /* \"@openzeppelin/contracts/token/ERC1155/ERC1155.sol\":8448:8449  0 */\n      0x00\n        /* \"@openzeppelin/contracts/token/ERC1155/ERC1155.sol\":8419:8451  ERC1155InvalidSender(address(0)) */\n      0x04\n      dup3\n      add\n        /* \"#utility.yul\":9381:9432   */\n      mstore\n        /* \"#utility.yul\":9354:9372   */\n      0x24\n      add\n        /* \"@openzeppelin/contracts/token/ERC1155/ERC1155.sol\":8419:8451  ERC1155InvalidSender(address(0)) */\n      tag_80\n        /* \"#utility.yul\":9235:9438   */\n      jump\n        /* \"@openzeppelin/contracts/token/ERC1155/ERC1155.sol\":8374:8462  if (from == address(0)) {... */\n    tag_147:\n        /* \"@openzeppelin/contracts/token/ERC1155/ERC1155.sol\":13974:13978  0x40 */\n      0x40\n        /* \"@openzeppelin/contracts/token/ERC1155/ERC1155.sol\":13968:13979  mload(0x40) */\n      dup1\n      mload\n        /* \"@openzeppelin/contracts/token/ERC1155/ERC1155.sol\":14044:14045  1 */\n      0x01\n        /* \"@openzeppelin/contracts/token/ERC1155/ERC1155.sol\":14029:14046  mstore(array1, 1) */\n      dup1\n      dup3\n      mstore\n        /* \"@openzeppelin/contracts/token/ERC1155/ERC1155.sol\":14175:14179  0x20 */\n      0x20\n        /* \"@openzeppelin/contracts/token/ERC1155/ERC1155.sol\":14163:14180  add(array1, 0x20) */\n      dup3\n      add\n        /* \"@openzeppelin/contracts/token/ERC1155/ERC1155.sol\":14156:14191  mstore(add(array1, 0x20), element1) */\n      dup7\n      swap1\n      mstore\n        /* \"@openzeppelin/contracts/token/ERC1155/ERC1155.sol\":14292:14309  add(array1, 0x40) */\n      dup2\n      dup4\n      add\n        /* \"@openzeppelin/contracts/token/ERC1155/ERC1155.sol\":14322:14339  mstore(array2, 1) */\n      swap1\n      dup2\n      mstore\n        /* \"@openzeppelin/contracts/token/ERC1155/ERC1155.sol\":13815:13838  uint256[] memory array1 */\n      0x60\n        /* \"@openzeppelin/contracts/token/ERC1155/ERC1155.sol\":14359:14376  add(array2, 0x20) */\n      dup3\n      add\n        /* \"@openzeppelin/contracts/token/ERC1155/ERC1155.sol\":14352:14387  mstore(add(array2, 0x20), element2) */\n      dup6\n      swap1\n      mstore\n        /* \"@openzeppelin/contracts/token/ERC1155/ERC1155.sol\":14495:14512  add(array2, 0x40) */\n      0x80\n      dup3\n      add\n        /* \"@openzeppelin/contracts/token/ERC1155/ERC1155.sol\":14482:14513  mstore(0x40, add(array2, 0x40)) */\n      swap1\n      swap3\n      mstore\n        /* \"@openzeppelin/contracts/token/ERC1155/ERC1155.sol\":13968:13979  mload(0x40) */\n      swap1\n        /* \"@openzeppelin/contracts/token/ERC1155/ERC1155.sol\":8560:8615  _updateWithAcceptanceCheck(from, to, ids, values, data) */\n      tag_150\n        /* \"@openzeppelin/contracts/token/ERC1155/ERC1155.sol\":8587:8591  from */\n      dup8\n        /* \"@openzeppelin/contracts/token/ERC1155/ERC1155.sol\":8593:8595  to */\n      dup8\n        /* \"@openzeppelin/contracts/token/ERC1155/ERC1155.sol\":13968:13979  mload(0x40) */\n      dup5\n        /* \"@openzeppelin/contracts/token/ERC1155/ERC1155.sol\":14292:14309  add(array1, 0x40) */\n      dup5\n        /* \"@openzeppelin/contracts/token/ERC1155/ERC1155.sol\":8610:8614  data */\n      dup8\n        /* \"@openzeppelin/contracts/token/ERC1155/ERC1155.sol\":8560:8586  _updateWithAcceptanceCheck */\n      tag_131\n        /* \"@openzeppelin/contracts/token/ERC1155/ERC1155.sol\":8560:8615  _updateWithAcceptanceCheck(from, to, ids, values, data) */\n      jump\t// in\n    tag_150:\n        /* \"@openzeppelin/contracts/token/ERC1155/ERC1155.sol\":8267:8622  {... */\n      pop\n      pop\n        /* \"@openzeppelin/contracts/token/ERC1155/ERC1155.sol\":8159:8622  function _safeTransferFrom(address from, address to, uint256 id, uint256 value, bytes memory data) internal {... */\n      pop\n      pop\n      pop\n      pop\n      pop\n      jump\t// out\n        /* \"@openzeppelin/contracts/token/ERC1155/ERC1155.sol\":7002:7702  function _updateWithAcceptanceCheck(... */\n    tag_131:\n        /* \"@openzeppelin/contracts/token/ERC1155/ERC1155.sol\":7203:7233  _update(from, to, ids, values) */\n      tag_152\n        /* \"@openzeppelin/contracts/token/ERC1155/ERC1155.sol\":7211:7215  from */\n      dup6\n        /* \"@openzeppelin/contracts/token/ERC1155/ERC1155.sol\":7217:7219  to */\n      dup6\n        /* \"@openzeppelin/contracts/token/ERC1155/ERC1155.sol\":7221:7224  ids */\n      dup6\n        /* \"@openzeppelin/contracts/token/ERC1155/ERC1155.sol\":7226:7232  values */\n      dup6\n        /* \"@openzeppelin/contracts/token/ERC1155/ERC1155.sol\":7203:7210  _update */\n      tag_153\n        /* \"@openzeppelin/contracts/token/ERC1155/ERC1155.sol\":7203:7233  _update(from, to, ids, values) */\n      jump\t// in\n    tag_152:\n      sub(shl(0xa0, 0x01), 0x01)\n        /* \"@openzeppelin/contracts/token/ERC1155/ERC1155.sol\":7247:7263  to != address(0) */\n      dup5\n      and\n      iszero\n        /* \"@openzeppelin/contracts/token/ERC1155/ERC1155.sol\":7243:7696  if (to != address(0)) {... */\n      tag_130\n      jumpi\n        /* \"@openzeppelin/contracts/token/ERC1155/ERC1155.sol\":7328:7338  ids.length */\n      dup3\n      mload\n        /* \"@openzeppelin/contracts/utils/Context.sol\":735:745  msg.sender */\n      caller\n      swap1\n        /* \"@openzeppelin/contracts/token/ERC1155/ERC1155.sol\":7342:7343  1 */\n      0x01\n        /* \"@openzeppelin/contracts/token/ERC1155/ERC1155.sol\":7328:7343  ids.length == 1 */\n      sub\n        /* \"@openzeppelin/contracts/token/ERC1155/ERC1155.sol\":7324:7686  if (ids.length == 1) {... */\n      tag_156\n      jumpi\n        /* \"@openzeppelin/contracts/utils/Arrays.sol\":16302:16306  0x20 */\n      0x20\n        /* \"@openzeppelin/contracts/utils/Arrays.sol\":16273:16308  add(add(arr, 0x20), mul(pos, 0x20)) */\n      dup5\n      dup2\n      add\n        /* \"@openzeppelin/contracts/utils/Arrays.sol\":16267:16309  mload(add(add(arr, 0x20), mul(pos, 0x20))) */\n      mload\n        /* \"@openzeppelin/contracts/utils/Arrays.sol\":16273:16308  add(add(arr, 0x20), mul(pos, 0x20)) */\n      swap1\n      dup5\n      add\n        /* \"@openzeppelin/contracts/utils/Arrays.sol\":16267:16309  mload(add(add(arr, 0x20), mul(pos, 0x20))) */\n      mload\n        /* \"@openzeppelin/contracts/token/ERC1155/ERC1155.sol\":7481:7553  ERC1155Utils.checkOnERC1155Received(operator, from, to, id, value, data) */\n      tag_159\n        /* \"@openzeppelin/contracts/token/ERC1155/ERC1155.sol\":7517:7525  operator */\n      dup4\n        /* \"@openzeppelin/contracts/token/ERC1155/ERC1155.sol\":7527:7531  from */\n      dup10\n        /* \"@openzeppelin/contracts/token/ERC1155/ERC1155.sol\":7533:7535  to */\n      dup10\n        /* \"@openzeppelin/contracts/utils/Arrays.sol\":16267:16309  mload(add(add(arr, 0x20), mul(pos, 0x20))) */\n      dup6\n      dup6\n        /* \"@openzeppelin/contracts/token/ERC1155/ERC1155.sol\":7548:7552  data */\n      dup10\n        /* \"@openzeppelin/contracts/token/ERC1155/ERC1155.sol\":7481:7516  ERC1155Utils.checkOnERC1155Received */\n      tag_160\n        /* \"@openzeppelin/contracts/token/ERC1155/ERC1155.sol\":7481:7553  ERC1155Utils.checkOnERC1155Received(operator, from, to, id, value, data) */\n      jump\t// in\n    tag_159:\n        /* \"@openzeppelin/contracts/token/ERC1155/ERC1155.sol\":7345:7568  {... */\n      pop\n      pop\n        /* \"@openzeppelin/contracts/token/ERC1155/ERC1155.sol\":7324:7686  if (ids.length == 1) {... */\n      jump(tag_82)\n    tag_156:\n        /* \"@openzeppelin/contracts/token/ERC1155/ERC1155.sol\":7592:7671  ERC1155Utils.checkOnERC1155BatchReceived(operator, from, to, ids, values, data) */\n      tag_82\n        /* \"@openzeppelin/contracts/token/ERC1155/ERC1155.sol\":7633:7641  operator */\n      dup2\n        /* \"@openzeppelin/contracts/token/ERC1155/ERC1155.sol\":7643:7647  from */\n      dup8\n        /* \"@openzeppelin/contracts/token/ERC1155/ERC1155.sol\":7649:7651  to */\n      dup8\n        /* \"@openzeppelin/contracts/token/ERC1155/ERC1155.sol\":7653:7656  ids */\n      dup8\n        /* \"@openzeppelin/contracts/token/ERC1155/ERC1155.sol\":7658:7664  values */\n      dup8\n        /* \"@openzeppelin/contracts/token/ERC1155/ERC1155.sol\":7666:7670  data */\n      dup8\n        /* \"@openzeppelin/contracts/token/ERC1155/ERC1155.sol\":7592:7632  ERC1155Utils.checkOnERC1155BatchReceived */\n      tag_163\n        /* \"@openzeppelin/contracts/token/ERC1155/ERC1155.sol\":7592:7671  ERC1155Utils.checkOnERC1155BatchReceived(operator, from, to, ids, values, data) */\n      jump\t// in\n        /* \"@openzeppelin/contracts/token/ERC1155/ERC1155.sol\":5142:6423  function _update(address from, address to, uint256[] memory ids, uint256[] memory values) internal virtual {... */\n    tag_153:\n        /* \"@openzeppelin/contracts/token/ERC1155/ERC1155.sol\":5277:5283  values */\n      dup1\n        /* \"@openzeppelin/contracts/token/ERC1155/ERC1155.sol\":5277:5290  values.length */\n      mload\n        /* \"@openzeppelin/contracts/token/ERC1155/ERC1155.sol\":5263:5266  ids */\n      dup3\n        /* \"@openzeppelin/contracts/token/ERC1155/ERC1155.sol\":5263:5273  ids.length */\n      mload\n        /* \"@openzeppelin/contracts/token/ERC1155/ERC1155.sol\":5263:5290  ids.length != values.length */\n      eq\n        /* \"@openzeppelin/contracts/token/ERC1155/ERC1155.sol\":5259:5376  if (ids.length != values.length) {... */\n      tag_166\n      jumpi\n        /* \"@openzeppelin/contracts/token/ERC1155/ERC1155.sol\":5339:5349  ids.length */\n      dup2\n      mload\n        /* \"@openzeppelin/contracts/token/ERC1155/ERC1155.sol\":5351:5364  values.length */\n      dup2\n      mload\n        /* \"@openzeppelin/contracts/token/ERC1155/ERC1155.sol\":5313:5365  ERC1155InvalidArrayLength(ids.length, values.length) */\n      mload(0x40)\n      shl(0xe0, 0x5b059991)\n      dup2\n      mstore\n      0x04\n      dup2\n      add\n        /* \"#utility.yul\":8752:8777   */\n      swap3\n      swap1\n      swap3\n      mstore\n        /* \"#utility.yul\":8793:8811   */\n      0x24\n      dup3\n      add\n        /* \"#utility.yul\":8786:8820   */\n      mstore\n        /* \"#utility.yul\":8725:8743   */\n      0x44\n      add\n        /* \"@openzeppelin/contracts/token/ERC1155/ERC1155.sol\":5313:5365  ERC1155InvalidArrayLength(ids.length, values.length) */\n      tag_80\n        /* \"#utility.yul\":8578:8826   */\n      jump\n        /* \"@openzeppelin/contracts/token/ERC1155/ERC1155.sol\":5259:5376  if (ids.length != values.length) {... */\n    tag_166:\n        /* \"@openzeppelin/contracts/utils/Context.sol\":735:745  msg.sender */\n      caller\n        /* \"@openzeppelin/contracts/token/ERC1155/ERC1155.sol\":5386:5402  address operator */\n      0x00\n        /* \"@openzeppelin/contracts/token/ERC1155/ERC1155.sol\":5428:6119  for (uint256 i = 0; i < ids.length; ++i) {... */\n    tag_169:\n        /* \"@openzeppelin/contracts/token/ERC1155/ERC1155.sol\":5452:5455  ids */\n      dup4\n        /* \"@openzeppelin/contracts/token/ERC1155/ERC1155.sol\":5452:5462  ids.length */\n      mload\n        /* \"@openzeppelin/contracts/token/ERC1155/ERC1155.sol\":5448:5449  i */\n      dup2\n        /* \"@openzeppelin/contracts/token/ERC1155/ERC1155.sol\":5448:5462  i < ids.length */\n      lt\n        /* \"@openzeppelin/contracts/token/ERC1155/ERC1155.sol\":5428:6119  for (uint256 i = 0; i < ids.length; ++i) {... */\n      iszero\n      tag_170\n      jumpi\n        /* \"@openzeppelin/contracts/utils/Arrays.sol\":16302:16306  0x20 */\n      0x20\n        /* \"@openzeppelin/contracts/utils/Arrays.sol\":16293:16307  mul(pos, 0x20) */\n      dup2\n      dup2\n      mul\n        /* \"@openzeppelin/contracts/utils/Arrays.sol\":16273:16308  add(add(arr, 0x20), mul(pos, 0x20)) */\n      dup6\n      dup2\n      add\n      dup3\n      add\n        /* \"@openzeppelin/contracts/utils/Arrays.sol\":16267:16309  mload(add(add(arr, 0x20), mul(pos, 0x20))) */\n      mload\n        /* \"@openzeppelin/contracts/utils/Arrays.sol\":16273:16308  add(add(arr, 0x20), mul(pos, 0x20)) */\n      swap1\n      dup6\n      add\n      swap1\n      swap2\n      add\n        /* \"@openzeppelin/contracts/utils/Arrays.sol\":16267:16309  mload(add(add(arr, 0x20), mul(pos, 0x20))) */\n      mload\n      sub(shl(0xa0, 0x01), 0x01)\n        /* \"@openzeppelin/contracts/token/ERC1155/ERC1155.sol\":5598:5616  from != address(0) */\n      dup9\n      and\n      iszero\n        /* \"@openzeppelin/contracts/token/ERC1155/ERC1155.sol\":5594:6014  if (from != address(0)) {... */\n      tag_174\n      jumpi\n        /* \"@openzeppelin/contracts/token/ERC1155/ERC1155.sol\":5636:5655  uint256 fromBalance */\n      0x00\n        /* \"@openzeppelin/contracts/token/ERC1155/ERC1155.sol\":5658:5671  _balances[id] */\n      dup3\n      dup2\n      mstore\n      0x20\n      dup2\n      dup2\n      mstore\n      0x40\n      dup1\n      dup4\n      keccak256\n      sub(shl(0xa0, 0x01), 0x01)\n        /* \"@openzeppelin/contracts/token/ERC1155/ERC1155.sol\":5658:5677  _balances[id][from] */\n      dup13\n      and\n      dup5\n      mstore\n      swap1\n      swap2\n      mstore\n      swap1\n      keccak256\n      sload\n        /* \"@openzeppelin/contracts/token/ERC1155/ERC1155.sol\":5699:5718  fromBalance < value */\n      dup2\n      dup2\n      lt\n        /* \"@openzeppelin/contracts/token/ERC1155/ERC1155.sol\":5695:5824  if (fromBalance < value) {... */\n      iszero\n      tag_175\n      jumpi\n        /* \"@openzeppelin/contracts/token/ERC1155/ERC1155.sol\":5749:5805  ERC1155InsufficientBalance(from, fromBalance, value, id) */\n      mload(0x40)\n      shl(0xe0, 0x03dee4c5)\n      dup2\n      mstore\n      sub(shl(0xa0, 0x01), 0x01)\n        /* \"#utility.yul\":9692:9724   */\n      dup11\n      and\n        /* \"@openzeppelin/contracts/token/ERC1155/ERC1155.sol\":5749:5805  ERC1155InsufficientBalance(from, fromBalance, value, id) */\n      0x04\n      dup3\n      add\n        /* \"#utility.yul\":9674:9725   */\n      mstore\n        /* \"#utility.yul\":9741:9759   */\n      0x24\n      dup2\n      add\n        /* \"#utility.yul\":9734:9768   */\n      dup3\n      swap1\n      mstore\n        /* \"#utility.yul\":9784:9802   */\n      0x44\n      dup2\n      add\n        /* \"#utility.yul\":9777:9811   */\n      dup4\n      swap1\n      mstore\n        /* \"#utility.yul\":9827:9845   */\n      0x64\n      dup2\n      add\n        /* \"#utility.yul\":9820:9854   */\n      dup5\n      swap1\n      mstore\n        /* \"#utility.yul\":9646:9665   */\n      0x84\n      add\n        /* \"@openzeppelin/contracts/token/ERC1155/ERC1155.sol\":5749:5805  ERC1155InsufficientBalance(from, fromBalance, value, id) */\n      tag_80\n        /* \"#utility.yul\":9443:9860   */\n      jump\n        /* \"@openzeppelin/contracts/token/ERC1155/ERC1155.sol\":5695:5824  if (fromBalance < value) {... */\n    tag_175:\n        /* \"@openzeppelin/contracts/token/ERC1155/ERC1155.sol\":5940:5949  _balances */\n      0x00\n        /* \"@openzeppelin/contracts/token/ERC1155/ERC1155.sol\":5940:5953  _balances[id] */\n      dup4\n      dup2\n      mstore\n      0x20\n      dup2\n      dup2\n      mstore\n      0x40\n      dup1\n      dup4\n      keccak256\n      sub(shl(0xa0, 0x01), 0x01)\n        /* \"@openzeppelin/contracts/token/ERC1155/ERC1155.sol\":5940:5959  _balances[id][from] */\n      dup14\n      and\n      dup5\n      mstore\n      swap1\n      swap2\n      mstore\n      swap1\n      keccak256\n        /* \"@openzeppelin/contracts/token/ERC1155/ERC1155.sol\":5962:5981  fromBalance - value */\n      swap1\n      dup3\n      swap1\n      sub\n        /* \"@openzeppelin/contracts/token/ERC1155/ERC1155.sol\":5940:5981  _balances[id][from] = fromBalance - value */\n      swap1\n      sstore\n        /* \"@openzeppelin/contracts/token/ERC1155/ERC1155.sol\":5594:6014  if (from != address(0)) {... */\n    tag_174:\n      sub(shl(0xa0, 0x01), 0x01)\n        /* \"@openzeppelin/contracts/token/ERC1155/ERC1155.sol\":6032:6048  to != address(0) */\n      dup8\n      and\n      iszero\n        /* \"@openzeppelin/contracts/token/ERC1155/ERC1155.sol\":6028:6109  if (to != address(0)) {... */\n      tag_178\n      jumpi\n        /* \"@openzeppelin/contracts/token/ERC1155/ERC1155.sol\":6068:6077  _balances */\n      0x00\n        /* \"@openzeppelin/contracts/token/ERC1155/ERC1155.sol\":6068:6081  _balances[id] */\n      dup3\n      dup2\n      mstore\n      0x20\n      dup2\n      dup2\n      mstore\n      0x40\n      dup1\n      dup4\n      keccak256\n      sub(shl(0xa0, 0x01), 0x01)\n        /* \"@openzeppelin/contracts/token/ERC1155/ERC1155.sol\":6068:6085  _balances[id][to] */\n      dup12\n      and\n      dup5\n      mstore\n      swap1\n      swap2\n      mstore\n      dup2\n      keccak256\n        /* \"@openzeppelin/contracts/token/ERC1155/ERC1155.sol\":6068:6094  _balances[id][to] += value */\n      dup1\n      sload\n        /* \"@openzeppelin/contracts/token/ERC1155/ERC1155.sol\":6089:6094  value */\n      dup4\n      swap3\n        /* \"@openzeppelin/contracts/token/ERC1155/ERC1155.sol\":6068:6077  _balances */\n      swap1\n        /* \"@openzeppelin/contracts/token/ERC1155/ERC1155.sol\":6068:6094  _balances[id][to] += value */\n      tag_179\n      swap1\n        /* \"@openzeppelin/contracts/token/ERC1155/ERC1155.sol\":6089:6094  value */\n      dup5\n      swap1\n        /* \"@openzeppelin/contracts/token/ERC1155/ERC1155.sol\":6068:6094  _balances[id][to] += value */\n      tag_180\n      jump\t// in\n    tag_179:\n      swap1\n      swap2\n      sstore\n      pop\n      pop\n        /* \"@openzeppelin/contracts/token/ERC1155/ERC1155.sol\":6028:6109  if (to != address(0)) {... */\n    tag_178:\n        /* \"@openzeppelin/contracts/token/ERC1155/ERC1155.sol\":5469:6119  {... */\n      pop\n      pop\n        /* \"@openzeppelin/contracts/token/ERC1155/ERC1155.sol\":5464:5467  ++i */\n      dup1\n      tag_181\n      swap1\n      tag_104\n      jump\t// in\n    tag_181:\n      swap1\n      pop\n        /* \"@openzeppelin/contracts/token/ERC1155/ERC1155.sol\":5428:6119  for (uint256 i = 0; i < ids.length; ++i) {... */\n      jump(tag_169)\n    tag_170:\n      pop\n        /* \"@openzeppelin/contracts/token/ERC1155/ERC1155.sol\":6133:6136  ids */\n      dup3\n        /* \"@openzeppelin/contracts/token/ERC1155/ERC1155.sol\":6133:6143  ids.length */\n      mload\n        /* \"@openzeppelin/contracts/token/ERC1155/ERC1155.sol\":6147:6148  1 */\n      0x01\n        /* \"@openzeppelin/contracts/token/ERC1155/ERC1155.sol\":6133:6148  ids.length == 1 */\n      sub\n        /* \"@openzeppelin/contracts/token/ERC1155/ERC1155.sol\":6129:6417  if (ids.length == 1) {... */\n      tag_182\n      jumpi\n        /* \"@openzeppelin/contracts/utils/Arrays.sol\":16302:16306  0x20 */\n      0x20\n        /* \"@openzeppelin/contracts/utils/Arrays.sol\":16273:16308  add(add(arr, 0x20), mul(pos, 0x20)) */\n      dup4\n      add\n        /* \"@openzeppelin/contracts/utils/Arrays.sol\":16267:16309  mload(add(add(arr, 0x20), mul(pos, 0x20))) */\n      mload\n        /* \"@openzeppelin/contracts/token/ERC1155/ERC1155.sol\":6164:6174  uint256 id */\n      0x00\n      swap1\n        /* \"@openzeppelin/contracts/utils/Arrays.sol\":16302:16306  0x20 */\n      0x20\n        /* \"@openzeppelin/contracts/utils/Arrays.sol\":16273:16308  add(add(arr, 0x20), mul(pos, 0x20)) */\n      dup5\n      add\n        /* \"@openzeppelin/contracts/utils/Arrays.sol\":16267:16309  mload(add(add(arr, 0x20), mul(pos, 0x20))) */\n      mload\n        /* \"@openzeppelin/contracts/token/ERC1155/ERC1155.sol\":6164:6202  uint256 id = ids.unsafeMemoryAccess(0) */\n      swap1\n      swap2\n      pop\n        /* \"@openzeppelin/contracts/token/ERC1155/ERC1155.sol\":6310:6312  to */\n      dup6\n      sub(shl(0xa0, 0x01), 0x01)\n        /* \"@openzeppelin/contracts/token/ERC1155/ERC1155.sol\":6279:6324  TransferSingle(operator, from, to, id, value) */\n      and\n        /* \"@openzeppelin/contracts/token/ERC1155/ERC1155.sol\":6304:6308  from */\n      dup8\n      sub(shl(0xa0, 0x01), 0x01)\n        /* \"@openzeppelin/contracts/token/ERC1155/ERC1155.sol\":6279:6324  TransferSingle(operator, from, to, id, value) */\n      and\n        /* \"@openzeppelin/contracts/token/ERC1155/ERC1155.sol\":6294:6302  operator */\n      dup5\n      sub(shl(0xa0, 0x01), 0x01)\n        /* \"@openzeppelin/contracts/token/ERC1155/ERC1155.sol\":6279:6324  TransferSingle(operator, from, to, id, value) */\n      and\n      0xc3d58168c5ae7397731d063d5bbf3d657854427343f4c083240f7aacaa2d0f62\n        /* \"@openzeppelin/contracts/token/ERC1155/ERC1155.sol\":6314:6316  id */\n      dup6\n        /* \"@openzeppelin/contracts/token/ERC1155/ERC1155.sol\":6318:6323  value */\n      dup6\n        /* \"@openzeppelin/contracts/token/ERC1155/ERC1155.sol\":6279:6324  TransferSingle(operator, from, to, id, value) */\n      mload(0x40)\n      tag_185\n      swap3\n      swap2\n      swap1\n        /* \"#utility.yul\":8752:8777   */\n      swap2\n      dup3\n      mstore\n        /* \"#utility.yul\":8808:8810   */\n      0x20\n        /* \"#utility.yul\":8793:8811   */\n      dup3\n      add\n        /* \"#utility.yul\":8786:8820   */\n      mstore\n        /* \"#utility.yul\":8740:8742   */\n      0x40\n        /* \"#utility.yul\":8725:8743   */\n      add\n      swap1\n        /* \"#utility.yul\":8578:8826   */\n      jump\n        /* \"@openzeppelin/contracts/token/ERC1155/ERC1155.sol\":6279:6324  TransferSingle(operator, from, to, id, value) */\n    tag_185:\n      mload(0x40)\n      dup1\n      swap2\n      sub\n      swap1\n      log4\n        /* \"@openzeppelin/contracts/token/ERC1155/ERC1155.sol\":6150:6335  {... */\n      pop\n      pop\n        /* \"@openzeppelin/contracts/token/ERC1155/ERC1155.sol\":6129:6417  if (ids.length == 1) {... */\n      jump(tag_130)\n    tag_182:\n        /* \"@openzeppelin/contracts/token/ERC1155/ERC1155.sol\":6390:6392  to */\n      dup4\n      sub(shl(0xa0, 0x01), 0x01)\n        /* \"@openzeppelin/contracts/token/ERC1155/ERC1155.sol\":6360:6406  TransferBatch(operator, from, to, ids, values) */\n      and\n        /* \"@openzeppelin/contracts/token/ERC1155/ERC1155.sol\":6384:6388  from */\n      dup6\n      sub(shl(0xa0, 0x01), 0x01)\n        /* \"@openzeppelin/contracts/token/ERC1155/ERC1155.sol\":6360:6406  TransferBatch(operator, from, to, ids, values) */\n      and\n        /* \"@openzeppelin/contracts/token/ERC1155/ERC1155.sol\":6374:6382  operator */\n      dup3\n      sub(shl(0xa0, 0x01), 0x01)\n        /* \"@openzeppelin/contracts/token/ERC1155/ERC1155.sol\":6360:6406  TransferBatch(operator, from, to, ids, values) */\n      and\n      0x4a39dc06d4c0dbc64b70af90fd698a233a518aa5d07e595d983b8c0526c8f7fb\n        /* \"@openzeppelin/contracts/token/ERC1155/ERC1155.sol\":6394:6397  ids */\n      dup7\n        /* \"@openzeppelin/contracts/token/ERC1155/ERC1155.sol\":6399:6405  values */\n      dup7\n        /* \"@openzeppelin/contracts/token/ERC1155/ERC1155.sol\":6360:6406  TransferBatch(operator, from, to, ids, values) */\n      mload(0x40)\n      tag_187\n      swap3\n      swap2\n      swap1\n      tag_188\n      jump\t// in\n    tag_187:\n      mload(0x40)\n      dup1\n      swap2\n      sub\n      swap1\n      log4\n        /* \"@openzeppelin/contracts/token/ERC1155/ERC1155.sol\":5249:6423  {... */\n      pop\n        /* \"@openzeppelin/contracts/token/ERC1155/ERC1155.sol\":5142:6423  function _update(address from, address to, uint256[] memory ids, uint256[] memory values) internal virtual {... */\n      pop\n      pop\n      pop\n      pop\n      jump\t// out\n        /* \"@openzeppelin/contracts/token/ERC1155/utils/ERC1155Utils.sol\":998:1957  function checkOnERC1155Received(... */\n    tag_160:\n      sub(shl(0xa0, 0x01), 0x01)\n        /* \"@openzeppelin/contracts/token/ERC1155/utils/ERC1155Utils.sol\":1197:1211  to.code.length */\n      dup5\n      and\n      extcodesize\n        /* \"@openzeppelin/contracts/token/ERC1155/utils/ERC1155Utils.sol\":1197:1215  to.code.length > 0 */\n      iszero\n        /* \"@openzeppelin/contracts/token/ERC1155/utils/ERC1155Utils.sol\":1193:1951  if (to.code.length > 0) {... */\n      tag_82\n      jumpi\n        /* \"@openzeppelin/contracts/token/ERC1155/utils/ERC1155Utils.sol\":1235:1306  IERC1155Receiver(to).onERC1155Received(operator, from, id, value, data) */\n      mload(0x40)\n      shl(0xe0, 0xf23a6e61)\n      dup2\n      mstore\n      sub(shl(0xa0, 0x01), 0x01)\n        /* \"@openzeppelin/contracts/token/ERC1155/utils/ERC1155Utils.sol\":1235:1273  IERC1155Receiver(to).onERC1155Received */\n      dup6\n      and\n      swap1\n      0xf23a6e61\n      swap1\n        /* \"@openzeppelin/contracts/token/ERC1155/utils/ERC1155Utils.sol\":1235:1306  IERC1155Receiver(to).onERC1155Received(operator, from, id, value, data) */\n      tag_191\n      swap1\n        /* \"@openzeppelin/contracts/token/ERC1155/utils/ERC1155Utils.sol\":1274:1282  operator */\n      dup10\n      swap1\n        /* \"@openzeppelin/contracts/token/ERC1155/utils/ERC1155Utils.sol\":1284:1288  from */\n      dup10\n      swap1\n        /* \"@openzeppelin/contracts/token/ERC1155/utils/ERC1155Utils.sol\":1290:1292  id */\n      dup9\n      swap1\n        /* \"@openzeppelin/contracts/token/ERC1155/utils/ERC1155Utils.sol\":1294:1299  value */\n      dup9\n      swap1\n        /* \"@openzeppelin/contracts/token/ERC1155/utils/ERC1155Utils.sol\":1301:1305  data */\n      dup9\n      swap1\n        /* \"@openzeppelin/contracts/token/ERC1155/utils/ERC1155Utils.sol\":1235:1306  IERC1155Receiver(to).onERC1155Received(operator, from, id, value, data) */\n      0x04\n      add\n      tag_192\n      jump\t// in\n    tag_191:\n      0x20\n      mload(0x40)\n      dup1\n      dup4\n      sub\n      dup2\n      0x00\n      dup8\n      gas\n      call\n      swap3\n      pop\n      pop\n      pop\n      dup1\n      iszero\n      tag_193\n      jumpi\n      pop\n      0x40\n      dup1\n      mload\n      0x1f\n      returndatasize\n      swap1\n      dup2\n      add\n      not(0x1f)\n      and\n      dup3\n      add\n      swap1\n      swap3\n      mstore\n      tag_194\n      swap2\n      dup2\n      add\n      swap1\n      tag_195\n      jump\t// in\n    tag_194:\n      0x01\n    tag_193:\n        /* \"@openzeppelin/contracts/token/ERC1155/utils/ERC1155Utils.sol\":1231:1941  try IERC1155Receiver(to).onERC1155Received(operator, from, id, value, data) returns (bytes4 response) {... */\n      tag_196\n      jumpi\n      returndatasize\n      dup1\n      dup1\n      iszero\n      tag_201\n      jumpi\n      mload(0x40)\n      swap2\n      pop\n      and(add(returndatasize, 0x3f), not(0x1f))\n      dup3\n      add\n      0x40\n      mstore\n      returndatasize\n      dup3\n      mstore\n      returndatasize\n      0x00\n      0x20\n      dup5\n      add\n      returndatacopy\n      jump(tag_200)\n    tag_201:\n      0x60\n      swap2\n      pop\n    tag_200:\n      pop\n        /* \"@openzeppelin/contracts/token/ERC1155/utils/ERC1155Utils.sol\":1605:1611  reason */\n      dup1\n        /* \"@openzeppelin/contracts/token/ERC1155/utils/ERC1155Utils.sol\":1605:1618  reason.length */\n      mload\n        /* \"@openzeppelin/contracts/token/ERC1155/utils/ERC1155Utils.sol\":1622:1623  0 */\n      0x00\n        /* \"@openzeppelin/contracts/token/ERC1155/utils/ERC1155Utils.sol\":1605:1623  reason.length == 0 */\n      sub\n        /* \"@openzeppelin/contracts/token/ERC1155/utils/ERC1155Utils.sol\":1601:1927  if (reason.length == 0) {... */\n      tag_202\n      jumpi\n        /* \"@openzeppelin/contracts/token/ERC1155/utils/ERC1155Utils.sol\":1710:1751  IERC1155Errors.ERC1155InvalidReceiver(to) */\n      mload(0x40)\n      shl(0xe1, 0x2bfa23e7)\n      dup2\n      mstore\n      sub(shl(0xa0, 0x01), 0x01)\n        /* \"#utility.yul\":9399:9431   */\n      dup7\n      and\n        /* \"@openzeppelin/contracts/token/ERC1155/utils/ERC1155Utils.sol\":1710:1751  IERC1155Errors.ERC1155InvalidReceiver(to) */\n      0x04\n      dup3\n      add\n        /* \"#utility.yul\":9381:9432   */\n      mstore\n        /* \"#utility.yul\":9354:9372   */\n      0x24\n      add\n        /* \"@openzeppelin/contracts/token/ERC1155/utils/ERC1155Utils.sol\":1710:1751  IERC1155Errors.ERC1155InvalidReceiver(to) */\n      tag_80\n        /* \"#utility.yul\":9235:9438   */\n      jump\n        /* \"@openzeppelin/contracts/token/ERC1155/utils/ERC1155Utils.sol\":1601:1927  if (reason.length == 0) {... */\n    tag_202:\n        /* \"@openzeppelin/contracts/token/ERC1155/utils/ERC1155Utils.sol\":1879:1885  reason */\n      dup1\n        /* \"@openzeppelin/contracts/token/ERC1155/utils/ERC1155Utils.sol\":1873:1886  mload(reason) */\n      mload\n        /* \"@openzeppelin/contracts/token/ERC1155/utils/ERC1155Utils.sol\":1864:1870  reason */\n      dup2\n        /* \"@openzeppelin/contracts/token/ERC1155/utils/ERC1155Utils.sol\":1860:1862  32 */\n      0x20\n        /* \"@openzeppelin/contracts/token/ERC1155/utils/ERC1155Utils.sol\":1856:1871  add(32, reason) */\n      add\n        /* \"@openzeppelin/contracts/token/ERC1155/utils/ERC1155Utils.sol\":1849:1887  revert(add(32, reason), mload(reason)) */\n      revert\n        /* \"@openzeppelin/contracts/token/ERC1155/utils/ERC1155Utils.sol\":1231:1941  try IERC1155Receiver(to).onERC1155Received(operator, from, id, value, data) returns (bytes4 response) {... */\n    tag_196:\n      not(sub(shl(0xe0, 0x01), 0x01))\n        /* \"@openzeppelin/contracts/token/ERC1155/utils/ERC1155Utils.sol\":1355:1410  response != IERC1155Receiver.onERC1155Received.selector */\n      dup2\n      and\n      shl(0xe0, 0xf23a6e61)\n      eq\n        /* \"@openzeppelin/contracts/token/ERC1155/utils/ERC1155Utils.sol\":1351:1540  if (response != IERC1155Receiver.onERC1155Received.selector) {... */\n      tag_150\n      jumpi\n        /* \"@openzeppelin/contracts/token/ERC1155/utils/ERC1155Utils.sol\":1480:1521  IERC1155Errors.ERC1155InvalidReceiver(to) */\n      mload(0x40)\n      shl(0xe1, 0x2bfa23e7)\n      dup2\n      mstore\n      sub(shl(0xa0, 0x01), 0x01)\n        /* \"#utility.yul\":9399:9431   */\n      dup7\n      and\n        /* \"@openzeppelin/contracts/token/ERC1155/utils/ERC1155Utils.sol\":1480:1521  IERC1155Errors.ERC1155InvalidReceiver(to) */\n      0x04\n      dup3\n      add\n        /* \"#utility.yul\":9381:9432   */\n      mstore\n        /* \"#utility.yul\":9354:9372   */\n      0x24\n      add\n        /* \"@openzeppelin/contracts/token/ERC1155/utils/ERC1155Utils.sol\":1480:1521  IERC1155Errors.ERC1155InvalidReceiver(to) */\n      tag_80\n        /* \"#utility.yul\":9235:9438   */\n      jump\n        /* \"@openzeppelin/contracts/token/ERC1155/utils/ERC1155Utils.sol\":2505:3531  function checkOnERC1155BatchReceived(... */\n    tag_163:\n      sub(shl(0xa0, 0x01), 0x01)\n        /* \"@openzeppelin/contracts/token/ERC1155/utils/ERC1155Utils.sol\":2729:2743  to.code.length */\n      dup5\n      and\n      extcodesize\n        /* \"@openzeppelin/contracts/token/ERC1155/utils/ERC1155Utils.sol\":2729:2747  to.code.length > 0 */\n      iszero\n        /* \"@openzeppelin/contracts/token/ERC1155/utils/ERC1155Utils.sol\":2725:3525  if (to.code.length > 0) {... */\n      tag_82\n      jumpi\n        /* \"@openzeppelin/contracts/token/ERC1155/utils/ERC1155Utils.sol\":2767:2845  IERC1155Receiver(to).onERC1155BatchReceived(operator, from, ids, values, data) */\n      mload(0x40)\n      shl(0xe0, 0xbc197c81)\n      dup2\n      mstore\n      sub(shl(0xa0, 0x01), 0x01)\n        /* \"@openzeppelin/contracts/token/ERC1155/utils/ERC1155Utils.sol\":2767:2810  IERC1155Receiver(to).onERC1155BatchReceived */\n      dup6\n      and\n      swap1\n      0xbc197c81\n      swap1\n        /* \"@openzeppelin/contracts/token/ERC1155/utils/ERC1155Utils.sol\":2767:2845  IERC1155Receiver(to).onERC1155BatchReceived(operator, from, ids, values, data) */\n      tag_210\n      swap1\n        /* \"@openzeppelin/contracts/token/ERC1155/utils/ERC1155Utils.sol\":2811:2819  operator */\n      dup10\n      swap1\n        /* \"@openzeppelin/contracts/token/ERC1155/utils/ERC1155Utils.sol\":2821:2825  from */\n      dup10\n      swap1\n        /* \"@openzeppelin/contracts/token/ERC1155/utils/ERC1155Utils.sol\":2827:2830  ids */\n      dup9\n      swap1\n        /* \"@openzeppelin/contracts/token/ERC1155/utils/ERC1155Utils.sol\":2832:2838  values */\n      dup9\n      swap1\n        /* \"@openzeppelin/contracts/token/ERC1155/utils/ERC1155Utils.sol\":2840:2844  data */\n      dup9\n      swap1\n        /* \"@openzeppelin/contracts/token/ERC1155/utils/ERC1155Utils.sol\":2767:2845  IERC1155Receiver(to).onERC1155BatchReceived(operator, from, ids, values, data) */\n      0x04\n      add\n      tag_211\n      jump\t// in\n    tag_210:\n      0x20\n      mload(0x40)\n      dup1\n      dup4\n      sub\n      dup2\n      0x00\n      dup8\n      gas\n      call\n      swap3\n      pop\n      pop\n      pop\n      dup1\n      iszero\n      tag_212\n      jumpi\n      pop\n      0x40\n      dup1\n      mload\n      0x1f\n      returndatasize\n      swap1\n      dup2\n      add\n      not(0x1f)\n      and\n      dup3\n      add\n      swap1\n      swap3\n      mstore\n      tag_213\n      swap2\n      dup2\n      add\n      swap1\n      tag_195\n      jump\t// in\n    tag_213:\n      0x01\n    tag_212:\n        /* \"@openzeppelin/contracts/token/ERC1155/utils/ERC1155Utils.sol\":2763:3515  try IERC1155Receiver(to).onERC1155BatchReceived(operator, from, ids, values, data) returns (... */\n      tag_214\n      jumpi\n      returndatasize\n      dup1\n      dup1\n      iszero\n      tag_201\n      jumpi\n      mload(0x40)\n      swap2\n      pop\n      and(add(returndatasize, 0x3f), not(0x1f))\n      dup3\n      add\n      0x40\n      mstore\n      returndatasize\n      dup3\n      mstore\n      returndatasize\n      0x00\n      0x20\n      dup5\n      add\n      returndatacopy\n      jump(tag_200)\n    tag_214:\n      not(sub(shl(0xe0, 0x01), 0x01))\n        /* \"@openzeppelin/contracts/token/ERC1155/utils/ERC1155Utils.sol\":2924:2984  response != IERC1155Receiver.onERC1155BatchReceived.selector */\n      dup2\n      and\n      shl(0xe0, 0xbc197c81)\n      eq\n        /* \"@openzeppelin/contracts/token/ERC1155/utils/ERC1155Utils.sol\":2920:3114  if (response != IERC1155Receiver.onERC1155BatchReceived.selector) {... */\n      tag_150\n      jumpi\n        /* \"@openzeppelin/contracts/token/ERC1155/utils/ERC1155Utils.sol\":3054:3095  IERC1155Errors.ERC1155InvalidReceiver(to) */\n      mload(0x40)\n      shl(0xe1, 0x2bfa23e7)\n      dup2\n      mstore\n      sub(shl(0xa0, 0x01), 0x01)\n        /* \"#utility.yul\":9399:9431   */\n      dup7\n      and\n        /* \"@openzeppelin/contracts/token/ERC1155/utils/ERC1155Utils.sol\":3054:3095  IERC1155Errors.ERC1155InvalidReceiver(to) */\n      0x04\n      dup3\n      add\n        /* \"#utility.yul\":9381:9432   */\n      mstore\n        /* \"#utility.yul\":9354:9372   */\n      0x24\n      add\n        /* \"@openzeppelin/contracts/token/ERC1155/utils/ERC1155Utils.sol\":3054:3095  IERC1155Errors.ERC1155InvalidReceiver(to) */\n      tag_80\n        /* \"#utility.yul\":9235:9438   */\n      jump\n        /* \"#utility.yul\":14:187   */\n    tag_226:\n        /* \"#utility.yul\":82:102   */\n      dup1\n      calldataload\n      sub(shl(0xa0, 0x01), 0x01)\n        /* \"#utility.yul\":131:162   */\n      dup2\n      and\n        /* \"#utility.yul\":121:163   */\n      dup2\n      eq\n        /* \"#utility.yul\":111:181   */\n      tag_237\n      jumpi\n        /* \"#utility.yul\":177:178   */\n      0x00\n        /* \"#utility.yul\":174:175   */\n      dup1\n        /* \"#utility.yul\":167:179   */\n      revert\n        /* \"#utility.yul\":111:181   */\n    tag_237:\n        /* \"#utility.yul\":14:187   */\n      swap2\n      swap1\n      pop\n      jump\t// out\n        /* \"#utility.yul\":192:446   */\n    tag_16:\n        /* \"#utility.yul\":260:266   */\n      0x00\n        /* \"#utility.yul\":268:274   */\n      dup1\n        /* \"#utility.yul\":321:323   */\n      0x40\n        /* \"#utility.yul\":309:318   */\n      dup4\n        /* \"#utility.yul\":300:307   */\n      dup6\n        /* \"#utility.yul\":296:319   */\n      sub\n        /* \"#utility.yul\":292:324   */\n      slt\n        /* \"#utility.yul\":289:341   */\n      iszero\n      tag_239\n      jumpi\n        /* \"#utility.yul\":337:338   */\n      0x00\n        /* \"#utility.yul\":334:335   */\n      dup1\n        /* \"#utility.yul\":327:339   */\n      revert\n        /* \"#utility.yul\":289:341   */\n    tag_239:\n        /* \"#utility.yul\":360:389   */\n      tag_240\n        /* \"#utility.yul\":379:388   */\n      dup4\n        /* \"#utility.yul\":360:389   */\n      tag_226\n      jump\t// in\n    tag_240:\n        /* \"#utility.yul\":350:389   */\n      swap5\n        /* \"#utility.yul\":436:438   */\n      0x20\n        /* \"#utility.yul\":421:439   */\n      swap4\n      swap1\n      swap4\n      add\n        /* \"#utility.yul\":408:440   */\n      calldataload\n      swap4\n      pop\n      pop\n      pop\n        /* \"#utility.yul\":192:446   */\n      jump\t// out\n        /* \"#utility.yul\":633:764   */\n    tag_227:\n      not(sub(shl(0xe0, 0x01), 0x01))\n        /* \"#utility.yul\":707:739   */\n      dup2\n      and\n        /* \"#utility.yul\":697:740   */\n      dup2\n      eq\n        /* \"#utility.yul\":687:758   */\n      tag_243\n      jumpi\n        /* \"#utility.yul\":754:755   */\n      0x00\n        /* \"#utility.yul\":751:752   */\n      dup1\n        /* \"#utility.yul\":744:756   */\n      revert\n        /* \"#utility.yul\":687:758   */\n    tag_243:\n        /* \"#utility.yul\":633:764   */\n      pop\n      jump\t// out\n        /* \"#utility.yul\":769:1014   */\n    tag_22:\n        /* \"#utility.yul\":827:833   */\n      0x00\n        /* \"#utility.yul\":880:882   */\n      0x20\n        /* \"#utility.yul\":868:877   */\n      dup3\n        /* \"#utility.yul\":859:866   */\n      dup5\n        /* \"#utility.yul\":855:878   */\n      sub\n        /* \"#utility.yul\":851:883   */\n      slt\n        /* \"#utility.yul\":848:900   */\n      iszero\n      tag_245\n      jumpi\n        /* \"#utility.yul\":896:897   */\n      0x00\n        /* \"#utility.yul\":893:894   */\n      dup1\n        /* \"#utility.yul\":886:898   */\n      revert\n        /* \"#utility.yul\":848:900   */\n    tag_245:\n        /* \"#utility.yul\":935:944   */\n      dup2\n        /* \"#utility.yul\":922:945   */\n      calldataload\n        /* \"#utility.yul\":954:984   */\n      tag_246\n        /* \"#utility.yul\":978:983   */\n      dup2\n        /* \"#utility.yul\":954:984   */\n      tag_227\n      jump\t// in\n    tag_246:\n        /* \"#utility.yul\":1003:1008   */\n      swap4\n        /* \"#utility.yul\":769:1014   */\n      swap3\n      pop\n      pop\n      pop\n      jump\t// out\n        /* \"#utility.yul\":1211:1391   */\n    tag_28:\n        /* \"#utility.yul\":1270:1276   */\n      0x00\n        /* \"#utility.yul\":1323:1325   */\n      0x20\n        /* \"#utility.yul\":1311:1320   */\n      dup3\n        /* \"#utility.yul\":1302:1309   */\n      dup5\n        /* \"#utility.yul\":1298:1321   */\n      sub\n        /* \"#utility.yul\":1294:1326   */\n      slt\n        /* \"#utility.yul\":1291:1343   */\n      iszero\n      tag_249\n      jumpi\n        /* \"#utility.yul\":1339:1340   */\n      0x00\n        /* \"#utility.yul\":1336:1337   */\n      dup1\n        /* \"#utility.yul\":1329:1341   */\n      revert\n        /* \"#utility.yul\":1291:1343   */\n    tag_249:\n      pop\n        /* \"#utility.yul\":1362:1385   */\n      calldataload\n      swap2\n        /* \"#utility.yul\":1211:1391   */\n      swap1\n      pop\n      jump\t// out\n        /* \"#utility.yul\":1396:1819   */\n    tag_228:\n        /* \"#utility.yul\":1438:1441   */\n      0x00\n        /* \"#utility.yul\":1476:1481   */\n      dup2\n        /* \"#utility.yul\":1470:1482   */\n      mload\n        /* \"#utility.yul\":1503:1509   */\n      dup1\n        /* \"#utility.yul\":1498:1501   */\n      dup5\n        /* \"#utility.yul\":1491:1510   */\n      mstore\n        /* \"#utility.yul\":1528:1529   */\n      0x00\n        /* \"#utility.yul\":1538:1700   */\n    tag_251:\n        /* \"#utility.yul\":1552:1558   */\n      dup2\n        /* \"#utility.yul\":1549:1550   */\n      dup2\n        /* \"#utility.yul\":1546:1559   */\n      lt\n        /* \"#utility.yul\":1538:1700   */\n      iszero\n      tag_253\n      jumpi\n        /* \"#utility.yul\":1614:1618   */\n      0x20\n        /* \"#utility.yul\":1670:1683   */\n      dup2\n      dup6\n      add\n        /* \"#utility.yul\":1666:1688   */\n      dup2\n      add\n        /* \"#utility.yul\":1660:1689   */\n      mload\n        /* \"#utility.yul\":1642:1653   */\n      dup7\n      dup4\n      add\n        /* \"#utility.yul\":1638:1658   */\n      dup3\n      add\n        /* \"#utility.yul\":1631:1690   */\n      mstore\n        /* \"#utility.yul\":1567:1579   */\n      add\n        /* \"#utility.yul\":1538:1700   */\n      jump(tag_251)\n    tag_253:\n        /* \"#utility.yul\":1542:1545   */\n      pop\n        /* \"#utility.yul\":1745:1746   */\n      0x00\n        /* \"#utility.yul\":1738:1742   */\n      0x20\n        /* \"#utility.yul\":1729:1735   */\n      dup3\n        /* \"#utility.yul\":1724:1727   */\n      dup7\n        /* \"#utility.yul\":1720:1736   */\n      add\n        /* \"#utility.yul\":1716:1743   */\n      add\n        /* \"#utility.yul\":1709:1747   */\n      mstore\n        /* \"#utility.yul\":1808:1812   */\n      0x20\n        /* \"#utility.yul\":1801:1803   */\n      0x1f\n        /* \"#utility.yul\":1797:1804   */\n      not\n        /* \"#utility.yul\":1792:1794   */\n      0x1f\n        /* \"#utility.yul\":1784:1790   */\n      dup4\n        /* \"#utility.yul\":1780:1795   */\n      add\n        /* \"#utility.yul\":1776:1805   */\n      and\n        /* \"#utility.yul\":1771:1774   */\n      dup6\n        /* \"#utility.yul\":1767:1806   */\n      add\n        /* \"#utility.yul\":1763:1813   */\n      add\n        /* \"#utility.yul\":1756:1813   */\n      swap2\n      pop\n      pop\n        /* \"#utility.yul\":1396:1819   */\n      swap3\n      swap2\n      pop\n      pop\n      jump\t// out\n        /* \"#utility.yul\":1824:2044   */\n    tag_31:\n        /* \"#utility.yul\":1973:1975   */\n      0x20\n        /* \"#utility.yul\":1962:1971   */\n      dup2\n        /* \"#utility.yul\":1955:1976   */\n      mstore\n        /* \"#utility.yul\":1936:1940   */\n      0x00\n        /* \"#utility.yul\":1993:2038   */\n      tag_246\n        /* \"#utility.yul\":2034:2036   */\n      0x20\n        /* \"#utility.yul\":2023:2032   */\n      dup4\n        /* \"#utility.yul\":2019:2037   */\n      add\n        /* \"#utility.yul\":2011:2017   */\n      dup5\n        /* \"#utility.yul\":1993:2038   */\n      tag_228\n      jump\t// in\n        /* \"#utility.yul\":2049:2176   */\n    tag_90:\n        /* \"#utility.yul\":2110:2120   */\n      0x4e487b71\n        /* \"#utility.yul\":2105:2108   */\n      0xe0\n        /* \"#utility.yul\":2101:2121   */\n      shl\n        /* \"#utility.yul\":2098:2099   */\n      0x00\n        /* \"#utility.yul\":2091:2122   */\n      mstore\n        /* \"#utility.yul\":2141:2145   */\n      0x41\n        /* \"#utility.yul\":2138:2139   */\n      0x04\n        /* \"#utility.yul\":2131:2146   */\n      mstore\n        /* \"#utility.yul\":2165:2169   */\n      0x24\n        /* \"#utility.yul\":2162:2163   */\n      0x00\n        /* \"#utility.yul\":2155:2170   */\n      revert\n        /* \"#utility.yul\":2181:2456   */\n    tag_229:\n        /* \"#utility.yul\":2252:2254   */\n      0x40\n        /* \"#utility.yul\":2246:2255   */\n      mload\n        /* \"#utility.yul\":2317:2319   */\n      0x1f\n        /* \"#utility.yul\":2298:2311   */\n      dup3\n      add\n      not(0x1f)\n        /* \"#utility.yul\":2294:2321   */\n      and\n        /* \"#utility.yul\":2282:2322   */\n      dup2\n      add\n        /* \"#utility.yul\":2352:2370   */\n      0xffffffffffffffff\n        /* \"#utility.yul\":2337:2371   */\n      dup2\n      gt\n        /* \"#utility.yul\":2373:2395   */\n      dup3\n      dup3\n      lt\n        /* \"#utility.yul\":2334:2396   */\n      or\n        /* \"#utility.yul\":2331:2419   */\n      iszero\n      tag_259\n      jumpi\n        /* \"#utility.yul\":2399:2417   */\n      tag_259\n      tag_90\n      jump\t// in\n    tag_259:\n        /* \"#utility.yul\":2435:2437   */\n      0x40\n        /* \"#utility.yul\":2428:2450   */\n      mstore\n        /* \"#utility.yul\":2181:2456   */\n      swap2\n      swap1\n      pop\n      jump\t// out\n        /* \"#utility.yul\":2461:2644   */\n    tag_230:\n        /* \"#utility.yul\":2521:2525   */\n      0x00\n        /* \"#utility.yul\":2554:2572   */\n      0xffffffffffffffff\n        /* \"#utility.yul\":2546:2552   */\n      dup3\n        /* \"#utility.yul\":2543:2573   */\n      gt\n        /* \"#utility.yul\":2540:2596   */\n      iszero\n      tag_262\n      jumpi\n        /* \"#utility.yul\":2576:2594   */\n      tag_262\n      tag_90\n      jump\t// in\n    tag_262:\n      pop\n        /* \"#utility.yul\":2621:2622   */\n      0x05\n        /* \"#utility.yul\":2617:2631   */\n      shl\n        /* \"#utility.yul\":2633:2637   */\n      0x20\n        /* \"#utility.yul\":2613:2638   */\n      add\n      swap1\n        /* \"#utility.yul\":2461:2644   */\n      jump\t// out\n        /* \"#utility.yul\":2649:3311   */\n    tag_231:\n        /* \"#utility.yul\":2703:2708   */\n      0x00\n        /* \"#utility.yul\":2756:2759   */\n      dup3\n        /* \"#utility.yul\":2749:2753   */\n      0x1f\n        /* \"#utility.yul\":2741:2747   */\n      dup4\n        /* \"#utility.yul\":2737:2754   */\n      add\n        /* \"#utility.yul\":2733:2760   */\n      slt\n        /* \"#utility.yul\":2723:2778   */\n      tag_264\n      jumpi\n        /* \"#utility.yul\":2774:2775   */\n      0x00\n        /* \"#utility.yul\":2771:2772   */\n      dup1\n        /* \"#utility.yul\":2764:2776   */\n      revert\n        /* \"#utility.yul\":2723:2778   */\n    tag_264:\n        /* \"#utility.yul\":2810:2816   */\n      dup2\n        /* \"#utility.yul\":2797:2817   */\n      calldataload\n        /* \"#utility.yul\":2836:2840   */\n      0x20\n        /* \"#utility.yul\":2860:2920   */\n      tag_265\n        /* \"#utility.yul\":2876:2919   */\n      tag_266\n        /* \"#utility.yul\":2916:2918   */\n      dup4\n        /* \"#utility.yul\":2876:2919   */\n      tag_230\n      jump\t// in\n    tag_266:\n        /* \"#utility.yul\":2860:2920   */\n      tag_229\n      jump\t// in\n    tag_265:\n        /* \"#utility.yul\":2954:2969   */\n      dup3\n      dup2\n      mstore\n        /* \"#utility.yul\":3040:3041   */\n      0x05\n        /* \"#utility.yul\":3036:3046   */\n      swap3\n      swap1\n      swap3\n      shl\n        /* \"#utility.yul\":3024:3047   */\n      dup5\n      add\n        /* \"#utility.yul\":3020:3052   */\n      dup2\n      add\n      swap2\n        /* \"#utility.yul\":2985:2997   */\n      dup2\n      dup2\n      add\n      swap1\n        /* \"#utility.yul\":3064:3079   */\n      dup7\n      dup5\n      gt\n        /* \"#utility.yul\":3061:3096   */\n      iszero\n      tag_267\n      jumpi\n        /* \"#utility.yul\":3092:3093   */\n      0x00\n        /* \"#utility.yul\":3089:3090   */\n      dup1\n        /* \"#utility.yul\":3082:3094   */\n      revert\n        /* \"#utility.yul\":3061:3096   */\n    tag_267:\n        /* \"#utility.yul\":3128:3130   */\n      dup3\n        /* \"#utility.yul\":3120:3126   */\n      dup7\n        /* \"#utility.yul\":3116:3131   */\n      add\n        /* \"#utility.yul\":3140:3282   */\n    tag_268:\n        /* \"#utility.yul\":3156:3162   */\n      dup5\n        /* \"#utility.yul\":3151:3154   */\n      dup2\n        /* \"#utility.yul\":3148:3163   */\n      lt\n        /* \"#utility.yul\":3140:3282   */\n      iszero\n      tag_270\n      jumpi\n        /* \"#utility.yul\":3222:3239   */\n      dup1\n      calldataload\n        /* \"#utility.yul\":3210:3240   */\n      dup4\n      mstore\n        /* \"#utility.yul\":3260:3272   */\n      swap2\n      dup4\n      add\n      swap2\n        /* \"#utility.yul\":3173:3185   */\n      dup4\n      add\n        /* \"#utility.yul\":3140:3282   */\n      jump(tag_268)\n    tag_270:\n      pop\n        /* \"#utility.yul\":3300:3305   */\n      swap7\n        /* \"#utility.yul\":2649:3311   */\n      swap6\n      pop\n      pop\n      pop\n      pop\n      pop\n      pop\n      jump\t// out\n        /* \"#utility.yul\":3316:3846   */\n    tag_232:\n        /* \"#utility.yul\":3358:3363   */\n      0x00\n        /* \"#utility.yul\":3411:3414   */\n      dup3\n        /* \"#utility.yul\":3404:3408   */\n      0x1f\n        /* \"#utility.yul\":3396:3402   */\n      dup4\n        /* \"#utility.yul\":3392:3409   */\n      add\n        /* \"#utility.yul\":3388:3415   */\n      slt\n        /* \"#utility.yul\":3378:3433   */\n      tag_272\n      jumpi\n        /* \"#utility.yul\":3429:3430   */\n      0x00\n        /* \"#utility.yul\":3426:3427   */\n      dup1\n        /* \"#utility.yul\":3419:3431   */\n      revert\n        /* \"#utility.yul\":3378:3433   */\n    tag_272:\n        /* \"#utility.yul\":3465:3471   */\n      dup2\n        /* \"#utility.yul\":3452:3472   */\n      calldataload\n        /* \"#utility.yul\":3491:3509   */\n      0xffffffffffffffff\n        /* \"#utility.yul\":3487:3489   */\n      dup2\n        /* \"#utility.yul\":3484:3510   */\n      gt\n        /* \"#utility.yul\":3481:3533   */\n      iszero\n      tag_274\n      jumpi\n        /* \"#utility.yul\":3513:3531   */\n      tag_274\n      tag_90\n      jump\t// in\n    tag_274:\n        /* \"#utility.yul\":3557:3612   */\n      tag_275\n        /* \"#utility.yul\":3600:3602   */\n      0x1f\n        /* \"#utility.yul\":3581:3594   */\n      dup3\n      add\n      not(0x1f)\n        /* \"#utility.yul\":3577:3604   */\n      and\n        /* \"#utility.yul\":3606:3610   */\n      0x20\n        /* \"#utility.yul\":3573:3611   */\n      add\n        /* \"#utility.yul\":3557:3612   */\n      tag_229\n      jump\t// in\n    tag_275:\n        /* \"#utility.yul\":3637:3639   */\n      dup2\n        /* \"#utility.yul\":3628:3635   */\n      dup2\n        /* \"#utility.yul\":3621:3640   */\n      mstore\n        /* \"#utility.yul\":3683:3686   */\n      dup5\n        /* \"#utility.yul\":3676:3680   */\n      0x20\n        /* \"#utility.yul\":3671:3673   */\n      dup4\n        /* \"#utility.yul\":3663:3669   */\n      dup7\n        /* \"#utility.yul\":3659:3674   */\n      add\n        /* \"#utility.yul\":3655:3681   */\n      add\n        /* \"#utility.yul\":3652:3687   */\n      gt\n        /* \"#utility.yul\":3649:3704   */\n      iszero\n      tag_276\n      jumpi\n        /* \"#utility.yul\":3700:3701   */\n      0x00\n        /* \"#utility.yul\":3697:3698   */\n      dup1\n        /* \"#utility.yul\":3690:3702   */\n      revert\n        /* \"#utility.yul\":3649:3704   */\n    tag_276:\n        /* \"#utility.yul\":3765:3767   */\n      dup2\n        /* \"#utility.yul\":3758:3762   */\n      0x20\n        /* \"#utility.yul\":3750:3756   */\n      dup6\n        /* \"#utility.yul\":3746:3763   */\n      add\n        /* \"#utility.yul\":3739:3743   */\n      0x20\n        /* \"#utility.yul\":3730:3737   */\n      dup4\n        /* \"#utility.yul\":3726:3744   */\n      add\n        /* \"#utility.yul\":3713:3768   */\n      calldatacopy\n        /* \"#utility.yul\":3813:3814   */\n      0x00\n        /* \"#utility.yul\":3788:3804   */\n      swap2\n      dup2\n      add\n        /* \"#utility.yul\":3806:3810   */\n      0x20\n        /* \"#utility.yul\":3784:3811   */\n      add\n        /* \"#utility.yul\":3777:3815   */\n      swap2\n      swap1\n      swap2\n      mstore\n        /* \"#utility.yul\":3792:3799   */\n      swap4\n        /* \"#utility.yul\":3316:3846   */\n      swap3\n      pop\n      pop\n      pop\n      jump\t// out\n        /* \"#utility.yul\":3851:4794   */\n    tag_34:\n        /* \"#utility.yul\":4005:4011   */\n      0x00\n        /* \"#utility.yul\":4013:4019   */\n      dup1\n        /* \"#utility.yul\":4021:4027   */\n      0x00\n        /* \"#utility.yul\":4029:4035   */\n      dup1\n        /* \"#utility.yul\":4037:4043   */\n      0x00\n        /* \"#utility.yul\":4090:4093   */\n      0xa0\n        /* \"#utility.yul\":4078:4087   */\n      dup7\n        /* \"#utility.yul\":4069:4076   */\n      dup9\n        /* \"#utility.yul\":4065:4088   */\n      sub\n        /* \"#utility.yul\":4061:4094   */\n      slt\n        /* \"#utility.yul\":4058:4111   */\n      iszero\n      tag_278\n      jumpi\n        /* \"#utility.yul\":4107:4108   */\n      0x00\n        /* \"#utility.yul\":4104:4105   */\n      dup1\n        /* \"#utility.yul\":4097:4109   */\n      revert\n        /* \"#utility.yul\":4058:4111   */\n    tag_278:\n        /* \"#utility.yul\":4130:4159   */\n      tag_279\n        /* \"#utility.yul\":4149:4158   */\n      dup7\n        /* \"#utility.yul\":4130:4159   */\n      tag_226\n      jump\t// in\n    tag_279:\n        /* \"#utility.yul\":4120:4159   */\n      swap5\n      pop\n        /* \"#utility.yul\":4178:4216   */\n      tag_280\n        /* \"#utility.yul\":4212:4214   */\n      0x20\n        /* \"#utility.yul\":4201:4210   */\n      dup8\n        /* \"#utility.yul\":4197:4215   */\n      add\n        /* \"#utility.yul\":4178:4216   */\n      tag_226\n      jump\t// in\n    tag_280:\n        /* \"#utility.yul\":4168:4216   */\n      swap4\n      pop\n        /* \"#utility.yul\":4267:4269   */\n      0x40\n        /* \"#utility.yul\":4256:4265   */\n      dup7\n        /* \"#utility.yul\":4252:4270   */\n      add\n        /* \"#utility.yul\":4239:4271   */\n      calldataload\n        /* \"#utility.yul\":4290:4308   */\n      0xffffffffffffffff\n        /* \"#utility.yul\":4331:4333   */\n      dup1\n        /* \"#utility.yul\":4323:4329   */\n      dup3\n        /* \"#utility.yul\":4320:4334   */\n      gt\n        /* \"#utility.yul\":4317:4351   */\n      iszero\n      tag_281\n      jumpi\n        /* \"#utility.yul\":4347:4348   */\n      0x00\n        /* \"#utility.yul\":4344:4345   */\n      dup1\n        /* \"#utility.yul\":4337:4349   */\n      revert\n        /* \"#utility.yul\":4317:4351   */\n    tag_281:\n        /* \"#utility.yul\":4370:4431   */\n      tag_282\n        /* \"#utility.yul\":4423:4430   */\n      dup10\n        /* \"#utility.yul\":4414:4420   */\n      dup4\n        /* \"#utility.yul\":4403:4412   */\n      dup11\n        /* \"#utility.yul\":4399:4421   */\n      add\n        /* \"#utility.yul\":4370:4431   */\n      tag_231\n      jump\t// in\n    tag_282:\n        /* \"#utility.yul\":4360:4431   */\n      swap5\n      pop\n        /* \"#utility.yul\":4484:4486   */\n      0x60\n        /* \"#utility.yul\":4473:4482   */\n      dup9\n        /* \"#utility.yul\":4469:4487   */\n      add\n        /* \"#utility.yul\":4456:4488   */\n      calldataload\n        /* \"#utility.yul\":4440:4488   */\n      swap2\n      pop\n        /* \"#utility.yul\":4513:4515   */\n      dup1\n        /* \"#utility.yul\":4503:4511   */\n      dup3\n        /* \"#utility.yul\":4500:4516   */\n      gt\n        /* \"#utility.yul\":4497:4533   */\n      iszero\n      tag_283\n      jumpi\n        /* \"#utility.yul\":4529:4530   */\n      0x00\n        /* \"#utility.yul\":4526:4527   */\n      dup1\n        /* \"#utility.yul\":4519:4531   */\n      revert\n        /* \"#utility.yul\":4497:4533   */\n    tag_283:\n        /* \"#utility.yul\":4552:4615   */\n      tag_284\n        /* \"#utility.yul\":4607:4614   */\n      dup10\n        /* \"#utility.yul\":4596:4604   */\n      dup4\n        /* \"#utility.yul\":4585:4594   */\n      dup11\n        /* \"#utility.yul\":4581:4605   */\n      add\n        /* \"#utility.yul\":4552:4615   */\n      tag_231\n      jump\t// in\n    tag_284:\n        /* \"#utility.yul\":4542:4615   */\n      swap4\n      pop\n        /* \"#utility.yul\":4668:4671   */\n      0x80\n        /* \"#utility.yul\":4657:4666   */\n      dup9\n        /* \"#utility.yul\":4653:4672   */\n      add\n        /* \"#utility.yul\":4640:4673   */\n      calldataload\n        /* \"#utility.yul\":4624:4673   */\n      swap2\n      pop\n        /* \"#utility.yul\":4698:4700   */\n      dup1\n        /* \"#utility.yul\":4688:4696   */\n      dup3\n        /* \"#utility.yul\":4685:4701   */\n      gt\n        /* \"#utility.yul\":4682:4718   */\n      iszero\n      tag_285\n      jumpi\n        /* \"#utility.yul\":4714:4715   */\n      0x00\n        /* \"#utility.yul\":4711:4712   */\n      dup1\n        /* \"#utility.yul\":4704:4716   */\n      revert\n        /* \"#utility.yul\":4682:4718   */\n    tag_285:\n      pop\n        /* \"#utility.yul\":4737:4788   */\n      tag_286\n        /* \"#utility.yul\":4780:4787   */\n      dup9\n        /* \"#utility.yul\":4769:4777   */\n      dup3\n        /* \"#utility.yul\":4758:4767   */\n      dup10\n        /* \"#utility.yul\":4754:4778   */\n      add\n        /* \"#utility.yul\":4737:4788   */\n      tag_232\n      jump\t// in\n    tag_286:\n        /* \"#utility.yul\":4727:4788   */\n      swap2\n      pop\n      pop\n        /* \"#utility.yul\":3851:4794   */\n      swap3\n      swap6\n      pop\n      swap3\n      swap6\n      swap1\n      swap4\n      pop\n      jump\t// out\n        /* \"#utility.yul\":4799:5945   */\n    tag_38:\n        /* \"#utility.yul\":4917:4923   */\n      0x00\n        /* \"#utility.yul\":4925:4931   */\n      dup1\n        /* \"#utility.yul\":4978:4980   */\n      0x40\n        /* \"#utility.yul\":4966:4975   */\n      dup4\n        /* \"#utility.yul\":4957:4964   */\n      dup6\n        /* \"#utility.yul\":4953:4976   */\n      sub\n        /* \"#utility.yul\":4949:4981   */\n      slt\n        /* \"#utility.yul\":4946:4998   */\n      iszero\n      tag_288\n      jumpi\n        /* \"#utility.yul\":4994:4995   */\n      0x00\n        /* \"#utility.yul\":4991:4992   */\n      dup1\n        /* \"#utility.yul\":4984:4996   */\n      revert\n        /* \"#utility.yul\":4946:4998   */\n    tag_288:\n        /* \"#utility.yul\":5034:5043   */\n      dup3\n        /* \"#utility.yul\":5021:5044   */\n      calldataload\n        /* \"#utility.yul\":5063:5081   */\n      0xffffffffffffffff\n        /* \"#utility.yul\":5104:5106   */\n      dup1\n        /* \"#utility.yul\":5096:5102   */\n      dup3\n        /* \"#utility.yul\":5093:5107   */\n      gt\n        /* \"#utility.yul\":5090:5124   */\n      iszero\n      tag_289\n      jumpi\n        /* \"#utility.yul\":5120:5121   */\n      0x00\n        /* \"#utility.yul\":5117:5118   */\n      dup1\n        /* \"#utility.yul\":5110:5122   */\n      revert\n        /* \"#utility.yul\":5090:5124   */\n    tag_289:\n        /* \"#utility.yul\":5158:5164   */\n      dup2\n        /* \"#utility.yul\":5147:5156   */\n      dup6\n        /* \"#utility.yul\":5143:5165   */\n      add\n        /* \"#utility.yul\":5133:5165   */\n      swap2\n      pop\n        /* \"#utility.yul\":5203:5210   */\n      dup6\n        /* \"#utility.yul\":5196:5200   */\n      0x1f\n        /* \"#utility.yul\":5192:5194   */\n      dup4\n        /* \"#utility.yul\":5188:5201   */\n      add\n        /* \"#utility.yul\":5184:5211   */\n      slt\n        /* \"#utility.yul\":5174:5229   */\n      tag_290\n      jumpi\n        /* \"#utility.yul\":5225:5226   */\n      0x00\n        /* \"#utility.yul\":5222:5223   */\n      dup1\n        /* \"#utility.yul\":5215:5227   */\n      revert\n        /* \"#utility.yul\":5174:5229   */\n    tag_290:\n        /* \"#utility.yul\":5261:5263   */\n      dup2\n        /* \"#utility.yul\":5248:5264   */\n      calldataload\n        /* \"#utility.yul\":5283:5287   */\n      0x20\n        /* \"#utility.yul\":5307:5367   */\n      tag_291\n        /* \"#utility.yul\":5323:5366   */\n      tag_266\n        /* \"#utility.yul\":5363:5365   */\n      dup4\n        /* \"#utility.yul\":5323:5366   */\n      tag_230\n      jump\t// in\n        /* \"#utility.yul\":5307:5367   */\n    tag_291:\n        /* \"#utility.yul\":5401:5416   */\n      dup3\n      dup2\n      mstore\n        /* \"#utility.yul\":5483:5484   */\n      0x05\n        /* \"#utility.yul\":5479:5489   */\n      swap3\n      swap1\n      swap3\n      shl\n        /* \"#utility.yul\":5471:5490   */\n      dup5\n      add\n        /* \"#utility.yul\":5467:5495   */\n      dup2\n      add\n      swap2\n        /* \"#utility.yul\":5432:5444   */\n      dup2\n      dup2\n      add\n      swap1\n        /* \"#utility.yul\":5507:5526   */\n      dup10\n      dup5\n      gt\n        /* \"#utility.yul\":5504:5543   */\n      iszero\n      tag_293\n      jumpi\n        /* \"#utility.yul\":5539:5540   */\n      0x00\n        /* \"#utility.yul\":5536:5537   */\n      dup1\n        /* \"#utility.yul\":5529:5541   */\n      revert\n        /* \"#utility.yul\":5504:5543   */\n    tag_293:\n        /* \"#utility.yul\":5563:5574   */\n      swap5\n      dup3\n      add\n      swap5\n        /* \"#utility.yul\":5583:5731   */\n    tag_294:\n        /* \"#utility.yul\":5599:5605   */\n      dup4\n        /* \"#utility.yul\":5594:5597   */\n      dup7\n        /* \"#utility.yul\":5591:5606   */\n      lt\n        /* \"#utility.yul\":5583:5731   */\n      iszero\n      tag_296\n      jumpi\n        /* \"#utility.yul\":5665:5688   */\n      tag_297\n        /* \"#utility.yul\":5684:5687   */\n      dup7\n        /* \"#utility.yul\":5665:5688   */\n      tag_226\n      jump\t// in\n    tag_297:\n        /* \"#utility.yul\":5653:5689   */\n      dup3\n      mstore\n        /* \"#utility.yul\":5616:5628   */\n      swap5\n      dup3\n      add\n      swap5\n        /* \"#utility.yul\":5709:5721   */\n      swap1\n      dup3\n      add\n      swap1\n        /* \"#utility.yul\":5583:5731   */\n      jump(tag_294)\n    tag_296:\n        /* \"#utility.yul\":5750:5755   */\n      swap7\n      pop\n      pop\n        /* \"#utility.yul\":5793:5811   */\n      dup7\n      add\n        /* \"#utility.yul\":5780:5812   */\n      calldataload\n      swap3\n      pop\n      pop\n        /* \"#utility.yul\":5824:5840   */\n      dup1\n      dup3\n      gt\n        /* \"#utility.yul\":5821:5857   */\n      iszero\n      tag_298\n      jumpi\n        /* \"#utility.yul\":5853:5854   */\n      0x00\n        /* \"#utility.yul\":5850:5851   */\n      dup1\n        /* \"#utility.yul\":5843:5855   */\n      revert\n        /* \"#utility.yul\":5821:5857   */\n    tag_298:\n      pop\n        /* \"#utility.yul\":5876:5939   */\n      tag_299\n        /* \"#utility.yul\":5931:5938   */\n      dup6\n        /* \"#utility.yul\":5920:5928   */\n      dup3\n        /* \"#utility.yul\":5909:5918   */\n      dup7\n        /* \"#utility.yul\":5905:5929   */\n      add\n        /* \"#utility.yul\":5876:5939   */\n      tag_231\n      jump\t// in\n    tag_299:\n        /* \"#utility.yul\":5866:5939   */\n      swap2\n      pop\n      pop\n        /* \"#utility.yul\":4799:5945   */\n      swap3\n      pop\n      swap3\n      swap1\n      pop\n      jump\t// out\n        /* \"#utility.yul\":5950:6385   */\n    tag_233:\n        /* \"#utility.yul\":6003:6006   */\n      0x00\n        /* \"#utility.yul\":6041:6046   */\n      dup2\n        /* \"#utility.yul\":6035:6047   */\n      mload\n        /* \"#utility.yul\":6068:6074   */\n      dup1\n        /* \"#utility.yul\":6063:6066   */\n      dup5\n        /* \"#utility.yul\":6056:6075   */\n      mstore\n        /* \"#utility.yul\":6094:6098   */\n      0x20\n        /* \"#utility.yul\":6123:6125   */\n      dup1\n        /* \"#utility.yul\":6118:6121   */\n      dup6\n        /* \"#utility.yul\":6114:6126   */\n      add\n        /* \"#utility.yul\":6107:6126   */\n      swap5\n      pop\n        /* \"#utility.yul\":6160:6162   */\n      dup1\n        /* \"#utility.yul\":6153:6158   */\n      dup5\n        /* \"#utility.yul\":6149:6163   */\n      add\n        /* \"#utility.yul\":6181:6182   */\n      0x00\n        /* \"#utility.yul\":6191:6360   */\n    tag_301:\n        /* \"#utility.yul\":6205:6211   */\n      dup4\n        /* \"#utility.yul\":6202:6203   */\n      dup2\n        /* \"#utility.yul\":6199:6212   */\n      lt\n        /* \"#utility.yul\":6191:6360   */\n      iszero\n      tag_303\n      jumpi\n        /* \"#utility.yul\":6266:6279   */\n      dup2\n      mload\n        /* \"#utility.yul\":6254:6280   */\n      dup8\n      mstore\n        /* \"#utility.yul\":6300:6312   */\n      swap6\n      dup3\n      add\n      swap6\n        /* \"#utility.yul\":6335:6350   */\n      swap1\n      dup3\n      add\n      swap1\n        /* \"#utility.yul\":6227:6228   */\n      0x01\n        /* \"#utility.yul\":6220:6229   */\n      add\n        /* \"#utility.yul\":6191:6360   */\n      jump(tag_301)\n    tag_303:\n      pop\n        /* \"#utility.yul\":6376:6379   */\n      swap5\n      swap6\n        /* \"#utility.yul\":5950:6385   */\n      swap5\n      pop\n      pop\n      pop\n      pop\n      pop\n      jump\t// out\n        /* \"#utility.yul\":6390:6651   */\n    tag_41:\n        /* \"#utility.yul\":6569:6571   */\n      0x20\n        /* \"#utility.yul\":6558:6567   */\n      dup2\n        /* \"#utility.yul\":6551:6572   */\n      mstore\n        /* \"#utility.yul\":6532:6536   */\n      0x00\n        /* \"#utility.yul\":6589:6645   */\n      tag_246\n        /* \"#utility.yul\":6641:6643   */\n      0x20\n        /* \"#utility.yul\":6630:6639   */\n      dup4\n        /* \"#utility.yul\":6626:6644   */\n      add\n        /* \"#utility.yul\":6618:6624   */\n      dup5\n        /* \"#utility.yul\":6589:6645   */\n      tag_233\n      jump\t// in\n        /* \"#utility.yul\":6656:7003   */\n    tag_50:\n        /* \"#utility.yul\":6721:6727   */\n      0x00\n        /* \"#utility.yul\":6729:6735   */\n      dup1\n        /* \"#utility.yul\":6782:6784   */\n      0x40\n        /* \"#utility.yul\":6770:6779   */\n      dup4\n        /* \"#utility.yul\":6761:6768   */\n      dup6\n        /* \"#utility.yul\":6757:6780   */\n      sub\n        /* \"#utility.yul\":6753:6785   */\n      slt\n        /* \"#utility.yul\":6750:6802   */\n      iszero\n      tag_307\n      jumpi\n        /* \"#utility.yul\":6798:6799   */\n      0x00\n        /* \"#utility.yul\":6795:6796   */\n      dup1\n        /* \"#utility.yul\":6788:6800   */\n      revert\n        /* \"#utility.yul\":6750:6802   */\n    tag_307:\n        /* \"#utility.yul\":6821:6850   */\n      tag_308\n        /* \"#utility.yul\":6840:6849   */\n      dup4\n        /* \"#utility.yul\":6821:6850   */\n      tag_226\n      jump\t// in\n    tag_308:\n        /* \"#utility.yul\":6811:6850   */\n      swap2\n      pop\n        /* \"#utility.yul\":6900:6902   */\n      0x20\n        /* \"#utility.yul\":6889:6898   */\n      dup4\n        /* \"#utility.yul\":6885:6903   */\n      add\n        /* \"#utility.yul\":6872:6904   */\n      calldataload\n        /* \"#utility.yul\":6947:6952   */\n      dup1\n        /* \"#utility.yul\":6940:6953   */\n      iszero\n        /* \"#utility.yul\":6933:6954   */\n      iszero\n        /* \"#utility.yul\":6926:6931   */\n      dup2\n        /* \"#utility.yul\":6923:6955   */\n      eq\n        /* \"#utility.yul\":6913:6973   */\n      tag_309\n      jumpi\n        /* \"#utility.yul\":6969:6970   */\n      0x00\n        /* \"#utility.yul\":6966:6967   */\n      dup1\n        /* \"#utility.yul\":6959:6971   */\n      revert\n        /* \"#utility.yul\":6913:6973   */\n    tag_309:\n        /* \"#utility.yul\":6992:6997   */\n      dup1\n        /* \"#utility.yul\":6982:6997   */\n      swap2\n      pop\n      pop\n        /* \"#utility.yul\":6656:7003   */\n      swap3\n      pop\n      swap3\n      swap1\n      pop\n      jump\t// out\n        /* \"#utility.yul\":7008:7268   */\n    tag_54:\n        /* \"#utility.yul\":7076:7082   */\n      0x00\n        /* \"#utility.yul\":7084:7090   */\n      dup1\n        /* \"#utility.yul\":7137:7139   */\n      0x40\n        /* \"#utility.yul\":7125:7134   */\n      dup4\n        /* \"#utility.yul\":7116:7123   */\n      dup6\n        /* \"#utility.yul\":7112:7135   */\n      sub\n        /* \"#utility.yul\":7108:7140   */\n      slt\n        /* \"#utility.yul\":7105:7157   */\n      iszero\n      tag_311\n      jumpi\n        /* \"#utility.yul\":7153:7154   */\n      0x00\n        /* \"#utility.yul\":7150:7151   */\n      dup1\n        /* \"#utility.yul\":7143:7155   */\n      revert\n        /* \"#utility.yul\":7105:7157   */\n    tag_311:\n        /* \"#utility.yul\":7176:7205   */\n      tag_312\n        /* \"#utility.yul\":7195:7204   */\n      dup4\n        /* \"#utility.yul\":7176:7205   */\n      tag_226\n      jump\t// in\n    tag_312:\n        /* \"#utility.yul\":7166:7205   */\n      swap2\n      pop\n        /* \"#utility.yul\":7224:7262   */\n      tag_313\n        /* \"#utility.yul\":7258:7260   */\n      0x20\n        /* \"#utility.yul\":7247:7256   */\n      dup5\n        /* \"#utility.yul\":7243:7261   */\n      add\n        /* \"#utility.yul\":7224:7262   */\n      tag_226\n      jump\t// in\n    tag_313:\n        /* \"#utility.yul\":7214:7262   */\n      swap1\n      pop\n        /* \"#utility.yul\":7008:7268   */\n      swap3\n      pop\n      swap3\n      swap1\n      pop\n      jump\t// out\n        /* \"#utility.yul\":7273:7879   */\n    tag_59:\n        /* \"#utility.yul\":7377:7383   */\n      0x00\n        /* \"#utility.yul\":7385:7391   */\n      dup1\n        /* \"#utility.yul\":7393:7399   */\n      0x00\n        /* \"#utility.yul\":7401:7407   */\n      dup1\n        /* \"#utility.yul\":7409:7415   */\n      0x00\n        /* \"#utility.yul\":7462:7465   */\n      0xa0\n        /* \"#utility.yul\":7450:7459   */\n      dup7\n        /* \"#utility.yul\":7441:7448   */\n      dup9\n        /* \"#utility.yul\":7437:7460   */\n      sub\n        /* \"#utility.yul\":7433:7466   */\n      slt\n        /* \"#utility.yul\":7430:7483   */\n      iszero\n      tag_315\n      jumpi\n        /* \"#utility.yul\":7479:7480   */\n      0x00\n        /* \"#utility.yul\":7476:7477   */\n      dup1\n        /* \"#utility.yul\":7469:7481   */\n      revert\n        /* \"#utility.yul\":7430:7483   */\n    tag_315:\n        /* \"#utility.yul\":7502:7531   */\n      tag_316\n        /* \"#utility.yul\":7521:7530   */\n      dup7\n        /* \"#utility.yul\":7502:7531   */\n      tag_226\n      jump\t// in\n    tag_316:\n        /* \"#utility.yul\":7492:7531   */\n      swap5\n      pop\n        /* \"#utility.yul\":7550:7588   */\n      tag_317\n        /* \"#utility.yul\":7584:7586   */\n      0x20\n        /* \"#utility.yul\":7573:7582   */\n      dup8\n        /* \"#utility.yul\":7569:7587   */\n      add\n        /* \"#utility.yul\":7550:7588   */\n      tag_226\n      jump\t// in\n    tag_317:\n        /* \"#utility.yul\":7540:7588   */\n      swap4\n      pop\n        /* \"#utility.yul\":7635:7637   */\n      0x40\n        /* \"#utility.yul\":7624:7633   */\n      dup7\n        /* \"#utility.yul\":7620:7638   */\n      add\n        /* \"#utility.yul\":7607:7639   */\n      calldataload\n        /* \"#utility.yul\":7597:7639   */\n      swap3\n      pop\n        /* \"#utility.yul\":7686:7688   */\n      0x60\n        /* \"#utility.yul\":7675:7684   */\n      dup7\n        /* \"#utility.yul\":7671:7689   */\n      add\n        /* \"#utility.yul\":7658:7690   */\n      calldataload\n        /* \"#utility.yul\":7648:7690   */\n      swap2\n      pop\n        /* \"#utility.yul\":7741:7744   */\n      0x80\n        /* \"#utility.yul\":7730:7739   */\n      dup7\n        /* \"#utility.yul\":7726:7745   */\n      add\n        /* \"#utility.yul\":7713:7746   */\n      calldataload\n        /* \"#utility.yul\":7769:7787   */\n      0xffffffffffffffff\n        /* \"#utility.yul\":7761:7767   */\n      dup2\n        /* \"#utility.yul\":7758:7788   */\n      gt\n        /* \"#utility.yul\":7755:7805   */\n      iszero\n      tag_318\n      jumpi\n        /* \"#utility.yul\":7801:7802   */\n      0x00\n        /* \"#utility.yul\":7798:7799   */\n      dup1\n        /* \"#utility.yul\":7791:7803   */\n      revert\n        /* \"#utility.yul\":7755:7805   */\n    tag_318:\n        /* \"#utility.yul\":7824:7873   */\n      tag_286\n        /* \"#utility.yul\":7865:7872   */\n      dup9\n        /* \"#utility.yul\":7856:7862   */\n      dup3\n        /* \"#utility.yul\":7845:7854   */\n      dup10\n        /* \"#utility.yul\":7841:7863   */\n      add\n        /* \"#utility.yul\":7824:7873   */\n      tag_232\n      jump\t// in\n        /* \"#utility.yul\":7884:8264   */\n    tag_69:\n        /* \"#utility.yul\":7963:7964   */\n      0x01\n        /* \"#utility.yul\":7959:7971   */\n      dup2\n      dup2\n      shr\n      swap1\n        /* \"#utility.yul\":8006:8018   */\n      dup3\n      and\n      dup1\n        /* \"#utility.yul\":8027:8088   */\n      tag_321\n      jumpi\n        /* \"#utility.yul\":8081:8085   */\n      0x7f\n        /* \"#utility.yul\":8073:8079   */\n      dup3\n        /* \"#utility.yul\":8069:8086   */\n      and\n        /* \"#utility.yul\":8059:8086   */\n      swap2\n      pop\n        /* \"#utility.yul\":8027:8088   */\n    tag_321:\n        /* \"#utility.yul\":8134:8136   */\n      0x20\n        /* \"#utility.yul\":8126:8132   */\n      dup3\n        /* \"#utility.yul\":8123:8137   */\n      lt\n        /* \"#utility.yul\":8103:8121   */\n      dup2\n        /* \"#utility.yul\":8100:8138   */\n      sub\n        /* \"#utility.yul\":8097:8258   */\n      tag_322\n      jumpi\n        /* \"#utility.yul\":8180:8190   */\n      0x4e487b71\n        /* \"#utility.yul\":8175:8178   */\n      0xe0\n        /* \"#utility.yul\":8171:8191   */\n      shl\n        /* \"#utility.yul\":8168:8169   */\n      0x00\n        /* \"#utility.yul\":8161:8192   */\n      mstore\n        /* \"#utility.yul\":8215:8219   */\n      0x22\n        /* \"#utility.yul\":8212:8213   */\n      0x04\n        /* \"#utility.yul\":8205:8220   */\n      mstore\n        /* \"#utility.yul\":8243:8247   */\n      0x24\n        /* \"#utility.yul\":8240:8241   */\n      0x00\n        /* \"#utility.yul\":8233:8248   */\n      revert\n        /* \"#utility.yul\":8097:8258   */\n    tag_322:\n      pop\n        /* \"#utility.yul\":7884:8264   */\n      swap2\n      swap1\n      pop\n      jump\t// out\n        /* \"#utility.yul\":8831:8958   */\n    tag_102:\n        /* \"#utility.yul\":8892:8902   */\n      0x4e487b71\n        /* \"#utility.yul\":8887:8890   */\n      0xe0\n        /* \"#utility.yul\":8883:8903   */\n      shl\n        /* \"#utility.yul\":8880:8881   */\n      0x00\n        /* \"#utility.yul\":8873:8904   */\n      mstore\n        /* \"#utility.yul\":8923:8927   */\n      0x32\n        /* \"#utility.yul\":8920:8921   */\n      0x04\n        /* \"#utility.yul\":8913:8928   */\n      mstore\n        /* \"#utility.yul\":8947:8951   */\n      0x24\n        /* \"#utility.yul\":8944:8945   */\n      0x00\n        /* \"#utility.yul\":8937:8952   */\n      revert\n        /* \"#utility.yul\":8963:9090   */\n    tag_234:\n        /* \"#utility.yul\":9024:9034   */\n      0x4e487b71\n        /* \"#utility.yul\":9019:9022   */\n      0xe0\n        /* \"#utility.yul\":9015:9035   */\n      shl\n        /* \"#utility.yul\":9012:9013   */\n      0x00\n        /* \"#utility.yul\":9005:9036   */\n      mstore\n        /* \"#utility.yul\":9055:9059   */\n      0x11\n        /* \"#utility.yul\":9052:9053   */\n      0x04\n        /* \"#utility.yul\":9045:9060   */\n      mstore\n        /* \"#utility.yul\":9079:9083   */\n      0x24\n        /* \"#utility.yul\":9076:9077   */\n      0x00\n        /* \"#utility.yul\":9069:9084   */\n      revert\n        /* \"#utility.yul\":9095:9230   */\n    tag_104:\n        /* \"#utility.yul\":9134:9137   */\n      0x00\n        /* \"#utility.yul\":9155:9172   */\n      0x01\n      dup3\n      add\n        /* \"#utility.yul\":9152:9195   */\n      tag_329\n      jumpi\n        /* \"#utility.yul\":9175:9193   */\n      tag_329\n      tag_234\n      jump\t// in\n    tag_329:\n      pop\n        /* \"#utility.yul\":9222:9223   */\n      0x01\n        /* \"#utility.yul\":9211:9224   */\n      add\n      swap1\n        /* \"#utility.yul\":9095:9230   */\n      jump\t// out\n        /* \"#utility.yul\":9865:9990   */\n    tag_180:\n        /* \"#utility.yul\":9930:9939   */\n      dup1\n      dup3\n      add\n        /* \"#utility.yul\":9951:9961   */\n      dup1\n      dup3\n      gt\n        /* \"#utility.yul\":9948:9984   */\n      iszero\n      tag_61\n      jumpi\n        /* \"#utility.yul\":9964:9982   */\n      tag_61\n      tag_234\n      jump\t// in\n        /* \"#utility.yul\":9995:10460   */\n    tag_188:\n        /* \"#utility.yul\":10252:10254   */\n      0x40\n        /* \"#utility.yul\":10241:10250   */\n      dup2\n        /* \"#utility.yul\":10234:10255   */\n      mstore\n        /* \"#utility.yul\":10215:10219   */\n      0x00\n        /* \"#utility.yul\":10278:10334   */\n      tag_336\n        /* \"#utility.yul\":10330:10332   */\n      0x40\n        /* \"#utility.yul\":10319:10328   */\n      dup4\n        /* \"#utility.yul\":10315:10333   */\n      add\n        /* \"#utility.yul\":10307:10313   */\n      dup6\n        /* \"#utility.yul\":10278:10334   */\n      tag_233\n      jump\t// in\n    tag_336:\n        /* \"#utility.yul\":10382:10391   */\n      dup3\n        /* \"#utility.yul\":10374:10380   */\n      dup2\n        /* \"#utility.yul\":10370:10392   */\n      sub\n        /* \"#utility.yul\":10365:10367   */\n      0x20\n        /* \"#utility.yul\":10354:10363   */\n      dup5\n        /* \"#utility.yul\":10350:10368   */\n      add\n        /* \"#utility.yul\":10343:10393   */\n      mstore\n        /* \"#utility.yul\":10410:10454   */\n      tag_337\n        /* \"#utility.yul\":10447:10453   */\n      dup2\n        /* \"#utility.yul\":10439:10445   */\n      dup6\n        /* \"#utility.yul\":10410:10454   */\n      tag_233\n      jump\t// in\n    tag_337:\n        /* \"#utility.yul\":10402:10454   */\n      swap6\n        /* \"#utility.yul\":9995:10460   */\n      swap5\n      pop\n      pop\n      pop\n      pop\n      pop\n      jump\t// out\n        /* \"#utility.yul\":10465:11026   */\n    tag_192:\n      sub(shl(0xa0, 0x01), 0x01)\n        /* \"#utility.yul\":10762:10777   */\n      dup7\n      dup2\n      and\n        /* \"#utility.yul\":10744:10778   */\n      dup3\n      mstore\n        /* \"#utility.yul\":10814:10829   */\n      dup6\n      and\n        /* \"#utility.yul\":10809:10811   */\n      0x20\n        /* \"#utility.yul\":10794:10812   */\n      dup3\n      add\n        /* \"#utility.yul\":10787:10830   */\n      mstore\n        /* \"#utility.yul\":10861:10863   */\n      0x40\n        /* \"#utility.yul\":10846:10864   */\n      dup2\n      add\n        /* \"#utility.yul\":10839:10873   */\n      dup5\n      swap1\n      mstore\n        /* \"#utility.yul\":10904:10906   */\n      0x60\n        /* \"#utility.yul\":10889:10907   */\n      dup2\n      add\n        /* \"#utility.yul\":10882:10916   */\n      dup4\n      swap1\n      mstore\n        /* \"#utility.yul\":10724:10727   */\n      0xa0\n        /* \"#utility.yul\":10947:10950   */\n      0x80\n        /* \"#utility.yul\":10932:10951   */\n      dup3\n      add\n        /* \"#utility.yul\":10925:10957   */\n      dup2\n      swap1\n      mstore\n        /* \"#utility.yul\":10687:10691   */\n      0x00\n      swap1\n        /* \"#utility.yul\":10974:11020   */\n      tag_339\n      swap1\n        /* \"#utility.yul\":11000:11019   */\n      dup4\n      add\n        /* \"#utility.yul\":10992:10998   */\n      dup5\n        /* \"#utility.yul\":10974:11020   */\n      tag_228\n      jump\t// in\n    tag_339:\n        /* \"#utility.yul\":10966:11020   */\n      swap8\n        /* \"#utility.yul\":10465:11026   */\n      swap7\n      pop\n      pop\n      pop\n      pop\n      pop\n      pop\n      pop\n      jump\t// out\n        /* \"#utility.yul\":11031:11280   */\n    tag_195:\n        /* \"#utility.yul\":11100:11106   */\n      0x00\n        /* \"#utility.yul\":11153:11155   */\n      0x20\n        /* \"#utility.yul\":11141:11150   */\n      dup3\n        /* \"#utility.yul\":11132:11139   */\n      dup5\n        /* \"#utility.yul\":11128:11151   */\n      sub\n        /* \"#utility.yul\":11124:11156   */\n      slt\n        /* \"#utility.yul\":11121:11173   */\n      iszero\n      tag_341\n      jumpi\n        /* \"#utility.yul\":11169:11170   */\n      0x00\n        /* \"#utility.yul\":11166:11167   */\n      dup1\n        /* \"#utility.yul\":11159:11171   */\n      revert\n        /* \"#utility.yul\":11121:11173   */\n    tag_341:\n        /* \"#utility.yul\":11201:11210   */\n      dup2\n        /* \"#utility.yul\":11195:11211   */\n      mload\n        /* \"#utility.yul\":11220:11250   */\n      tag_246\n        /* \"#utility.yul\":11244:11249   */\n      dup2\n        /* \"#utility.yul\":11220:11250   */\n      tag_227\n      jump\t// in\n        /* \"#utility.yul\":11285:12112   */\n    tag_211:\n      sub(shl(0xa0, 0x01), 0x01)\n        /* \"#utility.yul\":11682:11697   */\n      dup7\n      dup2\n      and\n        /* \"#utility.yul\":11664:11698   */\n      dup3\n      mstore\n        /* \"#utility.yul\":11734:11749   */\n      dup6\n      and\n        /* \"#utility.yul\":11729:11731   */\n      0x20\n        /* \"#utility.yul\":11714:11732   */\n      dup3\n      add\n        /* \"#utility.yul\":11707:11750   */\n      mstore\n        /* \"#utility.yul\":11644:11647   */\n      0xa0\n        /* \"#utility.yul\":11781:11783   */\n      0x40\n        /* \"#utility.yul\":11766:11784   */\n      dup3\n      add\n        /* \"#utility.yul\":11759:11790   */\n      dup2\n      swap1\n      mstore\n        /* \"#utility.yul\":11607:11611   */\n      0x00\n      swap1\n        /* \"#utility.yul\":11813:11870   */\n      tag_344\n      swap1\n        /* \"#utility.yul\":11850:11869   */\n      dup4\n      add\n        /* \"#utility.yul\":11842:11848   */\n      dup7\n        /* \"#utility.yul\":11813:11870   */\n      tag_233\n      jump\t// in\n    tag_344:\n        /* \"#utility.yul\":11918:11927   */\n      dup3\n        /* \"#utility.yul\":11910:11916   */\n      dup2\n        /* \"#utility.yul\":11906:11928   */\n      sub\n        /* \"#utility.yul\":11901:11903   */\n      0x60\n        /* \"#utility.yul\":11890:11899   */\n      dup5\n        /* \"#utility.yul\":11886:11904   */\n      add\n        /* \"#utility.yul\":11879:11929   */\n      mstore\n        /* \"#utility.yul\":11952:11996   */\n      tag_345\n        /* \"#utility.yul\":11989:11995   */\n      dup2\n        /* \"#utility.yul\":11981:11987   */\n      dup7\n        /* \"#utility.yul\":11952:11996   */\n      tag_233\n      jump\t// in\n    tag_345:\n        /* \"#utility.yul\":11938:11996   */\n      swap1\n      pop\n        /* \"#utility.yul\":12045:12054   */\n      dup3\n        /* \"#utility.yul\":12037:12043   */\n      dup2\n        /* \"#utility.yul\":12033:12055   */\n      sub\n        /* \"#utility.yul\":12027:12030   */\n      0x80\n        /* \"#utility.yul\":12016:12025   */\n      dup5\n        /* \"#utility.yul\":12012:12031   */\n      add\n        /* \"#utility.yul\":12005:12056   */\n      mstore\n        /* \"#utility.yul\":12073:12106   */\n      tag_346\n        /* \"#utility.yul\":12099:12105   */\n      dup2\n        /* \"#utility.yul\":12091:12097   */\n      dup6\n        /* \"#utility.yul\":12073:12106   */\n      tag_228\n      jump\t// in\n    tag_346:\n        /* \"#utility.yul\":12065:12106   */\n      swap9\n        /* \"#utility.yul\":11285:12112   */\n      swap8\n      pop\n      pop\n      pop\n      pop\n      pop\n      pop\n      pop\n      pop\n      jump\t// out\n\n    auxdata: 0xa2646970667358221220dc417623179b482c73464040cdc61c8e608e801ea9047c4976ffe2bd62ed7acf64736f6c63430008140033\n}\n",
				"bytecode": {
					"linkReferences": {},
					"object": "608060405234801562000010575f80fd5b50604051806060016040528060268152602001620012ff6026913962000036816200003d565b50620001b7565b60026200004b8282620000ef565b5050565b634e487b7160e01b5f52604160045260245ffd5b600181811c908216806200007857607f821691505b6020821081036200009757634e487b7160e01b5f52602260045260245ffd5b50919050565b601f821115620000ea575f81815260208120601f850160051c81016020861015620000c55750805b601f850160051c820191505b81811015620000e657828155600101620000d1565b5050505b505050565b81516001600160401b038111156200010b576200010b6200004f565b62000123816200011c845462000063565b846200009d565b602080601f83116001811462000159575f8415620001415750858301515b5f19600386901b1c1916600185901b178555620000e6565b5f85815260208120601f198616915b82811015620001895788860151825594840194600190910190840162000168565b5085821015620001a757878501515f19600388901b60f8161c191681555b5050505050600190811b01905550565b61113a80620001c55f395ff3fe608060405234801561000f575f80fd5b506004361061009a575f3560e01c806375794a3c1161006357806375794a3c1461013c578063a0712d6814610145578063a22cb46514610158578063e985e9c51461016b578063f242432a1461017e575f80fd5b8062fdd58e1461009e57806301ffc9a7146100c45780630e89341c146100e75780632eb2c2d6146101075780634e1273f41461011c575b5f80fd5b6100b16100ac366004610b14565b610191565b6040519081526020015b60405180910390f35b6100d76100d2366004610b54565b6101b8565b60405190151581526020016100bb565b6100fa6100f5366004610b76565b610207565b6040516100bb9190610bd0565b61011a610115366004610d1e565b610299565b005b61012f61012a366004610dc1565b610305565b6040516100bb9190610eb4565b6100b160035481565b61011a610153366004610b76565b6103d8565b61011a610166366004610ec6565b61040b565b6100d7610179366004610eff565b61041a565b61011a61018c366004610f30565b610447565b5f818152602081815260408083206001600160a01b03861684529091529020545b92915050565b5f6001600160e01b03198216636cdb3d1360e11b14806101e857506001600160e01b031982166303a24d0760e21b145b806101b257506301ffc9a760e01b6001600160e01b03198316146101b2565b60606002805461021690610f90565b80601f016020809104026020016040519081016040528092919081815260200182805461024290610f90565b801561028d5780601f106102645761010080835404028352916020019161028d565b820191905f5260205f20905b81548152906001019060200180831161027057829003601f168201915b50505050509050919050565b336001600160a01b03861681148015906102ba57506102b8868261041a565b155b156102f05760405163711bec9160e11b81526001600160a01b038083166004830152871660248201526044015b60405180910390fd5b6102fd86868686866104a6565b505050505050565b606081518351146103365781518351604051635b05999160e01b8152600481019290925260248201526044016102e7565b5f835167ffffffffffffffff81111561035157610351610be2565b60405190808252806020026020018201604052801561037a578160200160208202803683370190505b5090505f5b84518110156103d0576020808202860101516103a390602080840287010151610191565b8282815181106103b5576103b5610fc8565b60209081029190910101526103c981610ff0565b905061037f565b509392505050565b6103f4336003548360405180602001604052805f81525061050b565b60038054905f61040383610ff0565b919050555050565b610416338383610566565b5050565b6001600160a01b039182165f90815260016020908152604080832093909416825291909152205460ff1690565b336001600160a01b03861681148015906104685750610466868261041a565b155b156104995760405163711bec9160e11b81526001600160a01b038083166004830152871660248201526044016102e7565b6102fd86868686866105fa565b6001600160a01b0384166104cf57604051632bfa23e760e11b81525f60048201526024016102e7565b6001600160a01b0385166104f757604051626a0d4560e21b81525f60048201526024016102e7565b6105048585858585610686565b5050505050565b6001600160a01b03841661053457604051632bfa23e760e11b81525f60048201526024016102e7565b604080516001808252602082018690528183019081526060820185905260808201909252906102fd5f87848487610686565b6001600160a01b03821661058e5760405162ced3e160e81b81525f60048201526024016102e7565b6001600160a01b038381165f81815260016020908152604080832094871680845294825291829020805460ff191686151590811790915591519182527f17307eab39ab6107e8899845ad3d59bd9653f200f220920489ca2b5937696c31910160405180910390a3505050565b6001600160a01b03841661062357604051632bfa23e760e11b81525f60048201526024016102e7565b6001600160a01b03851661064b57604051626a0d4560e21b81525f60048201526024016102e7565b6040805160018082526020820186905281830190815260608201859052608082019092529061067d8787848487610686565b50505050505050565b610692858585856106d9565b6001600160a01b0384161561050457825133906001036106cb57602084810151908401516106c48389898585896108f1565b50506102fd565b6102fd818787878787610a12565b80518251146107085781518151604051635b05999160e01b8152600481019290925260248201526044016102e7565b335f5b8351811015610813576020818102858101820151908501909101516001600160a01b038816156107bc575f828152602081815260408083206001600160a01b038c16845290915290205481811015610796576040516303dee4c560e01b81526001600160a01b038a1660048201526024810182905260448101839052606481018490526084016102e7565b5f838152602081815260408083206001600160a01b038d16845290915290209082900390555b6001600160a01b03871615610800575f828152602081815260408083206001600160a01b038b168452909152812080548392906107fa908490611008565b90915550505b50508061080c90610ff0565b905061070b565b5082516001036108935760208301515f906020840151909150856001600160a01b0316876001600160a01b0316846001600160a01b03167fc3d58168c5ae7397731d063d5bbf3d657854427343f4c083240f7aacaa2d0f628585604051610884929190918252602082015260400190565b60405180910390a45050610504565b836001600160a01b0316856001600160a01b0316826001600160a01b03167f4a39dc06d4c0dbc64b70af90fd698a233a518aa5d07e595d983b8c0526c8f7fb86866040516108e292919061101b565b60405180910390a45050505050565b6001600160a01b0384163b156102fd5760405163f23a6e6160e01b81526001600160a01b0385169063f23a6e61906109359089908990889088908890600401611048565b6020604051808303815f875af192505050801561096f575060408051601f3d908101601f1916820190925261096c9181019061108c565b60015b6109d6573d80801561099c576040519150601f19603f3d011682016040523d82523d5f602084013e6109a1565b606091505b5080515f036109ce57604051632bfa23e760e11b81526001600160a01b03861660048201526024016102e7565b805181602001fd5b6001600160e01b0319811663f23a6e6160e01b1461067d57604051632bfa23e760e11b81526001600160a01b03861660048201526024016102e7565b6001600160a01b0384163b156102fd5760405163bc197c8160e01b81526001600160a01b0385169063bc197c8190610a5690899089908890889088906004016110a7565b6020604051808303815f875af1925050508015610a90575060408051601f3d908101601f19168201909252610a8d9181019061108c565b60015b610abd573d80801561099c576040519150601f19603f3d011682016040523d82523d5f602084013e6109a1565b6001600160e01b0319811663bc197c8160e01b1461067d57604051632bfa23e760e11b81526001600160a01b03861660048201526024016102e7565b80356001600160a01b0381168114610b0f575f80fd5b919050565b5f8060408385031215610b25575f80fd5b610b2e83610af9565b946020939093013593505050565b6001600160e01b031981168114610b51575f80fd5b50565b5f60208284031215610b64575f80fd5b8135610b6f81610b3c565b9392505050565b5f60208284031215610b86575f80fd5b5035919050565b5f81518084525f5b81811015610bb157602081850181015186830182015201610b95565b505f602082860101526020601f19601f83011685010191505092915050565b602081525f610b6f6020830184610b8d565b634e487b7160e01b5f52604160045260245ffd5b604051601f8201601f1916810167ffffffffffffffff81118282101715610c1f57610c1f610be2565b604052919050565b5f67ffffffffffffffff821115610c4057610c40610be2565b5060051b60200190565b5f82601f830112610c59575f80fd5b81356020610c6e610c6983610c27565b610bf6565b82815260059290921b84018101918181019086841115610c8c575f80fd5b8286015b84811015610ca75780358352918301918301610c90565b509695505050505050565b5f82601f830112610cc1575f80fd5b813567ffffffffffffffff811115610cdb57610cdb610be2565b610cee601f8201601f1916602001610bf6565b818152846020838601011115610d02575f80fd5b816020850160208301375f918101602001919091529392505050565b5f805f805f60a08688031215610d32575f80fd5b610d3b86610af9565b9450610d4960208701610af9565b9350604086013567ffffffffffffffff80821115610d65575f80fd5b610d7189838a01610c4a565b94506060880135915080821115610d86575f80fd5b610d9289838a01610c4a565b93506080880135915080821115610da7575f80fd5b50610db488828901610cb2565b9150509295509295909350565b5f8060408385031215610dd2575f80fd5b823567ffffffffffffffff80821115610de9575f80fd5b818501915085601f830112610dfc575f80fd5b81356020610e0c610c6983610c27565b82815260059290921b84018101918181019089841115610e2a575f80fd5b948201945b83861015610e4f57610e4086610af9565b82529482019490820190610e2f565b96505086013592505080821115610e64575f80fd5b50610e7185828601610c4a565b9150509250929050565b5f8151808452602080850194508084015f5b83811015610ea957815187529582019590820190600101610e8d565b509495945050505050565b602081525f610b6f6020830184610e7b565b5f8060408385031215610ed7575f80fd5b610ee083610af9565b915060208301358015158114610ef4575f80fd5b809150509250929050565b5f8060408385031215610f10575f80fd5b610f1983610af9565b9150610f2760208401610af9565b90509250929050565b5f805f805f60a08688031215610f44575f80fd5b610f4d86610af9565b9450610f5b60208701610af9565b93506040860135925060608601359150608086013567ffffffffffffffff811115610f84575f80fd5b610db488828901610cb2565b600181811c90821680610fa457607f821691505b602082108103610fc257634e487b7160e01b5f52602260045260245ffd5b50919050565b634e487b7160e01b5f52603260045260245ffd5b634e487b7160e01b5f52601160045260245ffd5b5f6001820161100157611001610fdc565b5060010190565b808201808211156101b2576101b2610fdc565b604081525f61102d6040830185610e7b565b828103602084015261103f8185610e7b565b95945050505050565b6001600160a01b03868116825285166020820152604081018490526060810183905260a0608082018190525f9061108190830184610b8d565b979650505050505050565b5f6020828403121561109c575f80fd5b8151610b6f81610b3c565b6001600160a01b0386811682528516602082015260a0604082018190525f906110d290830186610e7b565b82810360608401526110e48186610e7b565b905082810360808401526110f88185610b8d565b9897505050505050505056fea2646970667358221220dc417623179b482c73464040cdc61c8e608e801ea9047c4976ffe2bd62ed7acf64736f6c6343000814003368747470733a2f2f6578616d706c652e636f6d2f6170692f6974656d2f7b69647d2e6a736f6e",
					"opcodes": "PUSH1 0x80 PUSH1 0x40 MSTORE CALLVALUE DUP1 ISZERO PUSH3 0x10 JUMPI PUSH0 DUP1 REVERT JUMPDEST POP PUSH1 0x40 MLOAD DUP1 PUSH1 0x60 ADD PUSH1 0x40 MSTORE DUP1 PUSH1 0x26 DUP2 MSTORE PUSH1 0x20 ADD PUSH3 0x12FF PUSH1 0x26 SWAP2 CODECOPY PUSH3 0x36 DUP2 PUSH3 0x3D JUMP JUMPDEST POP PUSH3 0x1B7 JUMP JUMPDEST PUSH1 0x2 PUSH3 0x4B DUP3 DUP3 PUSH3 0xEF JUMP JUMPDEST POP POP JUMP JUMPDEST PUSH4 0x4E487B71 PUSH1 0xE0 SHL PUSH0 MSTORE PUSH1 0x41 PUSH1 0x4 MSTORE PUSH1 0x24 PUSH0 REVERT JUMPDEST PUSH1 0x1 DUP2 DUP2 SHR SWAP1 DUP3 AND DUP1 PUSH3 0x78 JUMPI PUSH1 0x7F DUP3 AND SWAP2 POP JUMPDEST PUSH1 0x20 DUP3 LT DUP2 SUB PUSH3 0x97 JUMPI PUSH4 0x4E487B71 PUSH1 0xE0 SHL PUSH0 MSTORE PUSH1 0x22 PUSH1 0x4 MSTORE PUSH1 0x24 PUSH0 REVERT JUMPDEST POP SWAP2 SWAP1 POP JUMP JUMPDEST PUSH1 0x1F DUP3 GT ISZERO PUSH3 0xEA JUMPI PUSH0 DUP2 DUP2 MSTORE PUSH1 0x20 DUP2 KECCAK256 PUSH1 0x1F DUP6 ADD PUSH1 0x5 SHR DUP2 ADD PUSH1 0x20 DUP7 LT ISZERO PUSH3 0xC5 JUMPI POP DUP1 JUMPDEST PUSH1 0x1F DUP6 ADD PUSH1 0x5 SHR DUP3 ADD SWAP2 POP JUMPDEST DUP2 DUP2 LT ISZERO PUSH3 0xE6 JUMPI DUP3 DUP2 SSTORE PUSH1 0x1 ADD PUSH3 0xD1 JUMP JUMPDEST POP POP POP JUMPDEST POP POP POP JUMP JUMPDEST DUP2 MLOAD PUSH1 0x1 PUSH1 0x1 PUSH1 0x40 SHL SUB DUP2 GT ISZERO PUSH3 0x10B JUMPI PUSH3 0x10B PUSH3 0x4F JUMP JUMPDEST PUSH3 0x123 DUP2 PUSH3 0x11C DUP5 SLOAD PUSH3 0x63 JUMP JUMPDEST DUP5 PUSH3 0x9D JUMP JUMPDEST PUSH1 0x20 DUP1 PUSH1 0x1F DUP4 GT PUSH1 0x1 DUP2 EQ PUSH3 0x159 JUMPI PUSH0 DUP5 ISZERO PUSH3 0x141 JUMPI POP DUP6 DUP4 ADD MLOAD JUMPDEST PUSH0 NOT PUSH1 0x3 DUP7 SWAP1 SHL SHR NOT AND PUSH1 0x1 DUP6 SWAP1 SHL OR DUP6 SSTORE PUSH3 0xE6 JUMP JUMPDEST PUSH0 DUP6 DUP2 MSTORE PUSH1 0x20 DUP2 KECCAK256 PUSH1 0x1F NOT DUP7 AND SWAP2 JUMPDEST DUP3 DUP2 LT ISZERO PUSH3 0x189 JUMPI DUP9 DUP7 ADD MLOAD DUP3 SSTORE SWAP5 DUP5 ADD SWAP5 PUSH1 0x1 SWAP1 SWAP2 ADD SWAP1 DUP5 ADD PUSH3 0x168 JUMP JUMPDEST POP DUP6 DUP3 LT ISZERO PUSH3 0x1A7 JUMPI DUP8 DUP6 ADD MLOAD PUSH0 NOT PUSH1 0x3 DUP9 SWAP1 SHL PUSH1 0xF8 AND SHR NOT AND DUP2 SSTORE JUMPDEST POP POP POP POP POP PUSH1 0x1 SWAP1 DUP2 SHL ADD SWAP1 SSTORE POP JUMP JUMPDEST PUSH2 0x113A DUP1 PUSH3 0x1C5 PUSH0 CODECOPY PUSH0 RETURN INVALID PUSH1 0x80 PUSH1 0x40 MSTORE CALLVALUE DUP1 ISZERO PUSH2 0xF JUMPI PUSH0 DUP1 REVERT JUMPDEST POP PUSH1 0x4 CALLDATASIZE LT PUSH2 0x9A JUMPI PUSH0 CALLDATALOAD PUSH1 0xE0 SHR DUP1 PUSH4 0x75794A3C GT PUSH2 0x63 JUMPI DUP1 PUSH4 0x75794A3C EQ PUSH2 0x13C JUMPI DUP1 PUSH4 0xA0712D68 EQ PUSH2 0x145 JUMPI DUP1 PUSH4 0xA22CB465 EQ PUSH2 0x158 JUMPI DUP1 PUSH4 0xE985E9C5 EQ PUSH2 0x16B JUMPI DUP1 PUSH4 0xF242432A EQ PUSH2 0x17E JUMPI PUSH0 DUP1 REVERT JUMPDEST DUP1 PUSH3 0xFDD58E EQ PUSH2 0x9E JUMPI DUP1 PUSH4 0x1FFC9A7 EQ PUSH2 0xC4 JUMPI DUP1 PUSH4 0xE89341C EQ PUSH2 0xE7 JUMPI DUP1 PUSH4 0x2EB2C2D6 EQ PUSH2 0x107 JUMPI DUP1 PUSH4 0x4E1273F4 EQ PUSH2 0x11C JUMPI JUMPDEST PUSH0 DUP1 REVERT JUMPDEST PUSH2 0xB1 PUSH2 0xAC CALLDATASIZE PUSH1 0x4 PUSH2 0xB14 JUMP JUMPDEST PUSH2 0x191 JUMP JUMPDEST PUSH1 0x40 MLOAD SWAP1 DUP2 MSTORE PUSH1 0x20 ADD JUMPDEST PUSH1 0x40 MLOAD DUP1 SWAP2 SUB SWAP1 RETURN JUMPDEST PUSH2 0xD7 PUSH2 0xD2 CALLDATASIZE PUSH1 0x4 PUSH2 0xB54 JUMP JUMPDEST PUSH2 0x1B8 JUMP JUMPDEST PUSH1 0x40 MLOAD SWAP1 ISZERO ISZERO DUP2 MSTORE PUSH1 0x20 ADD PUSH2 0xBB JUMP JUMPDEST PUSH2 0xFA PUSH2 0xF5 CALLDATASIZE PUSH1 0x4 PUSH2 0xB76 JUMP JUMPDEST PUSH2 0x207 JUMP JUMPDEST PUSH1 0x40 MLOAD PUSH2 0xBB SWAP2 SWAP1 PUSH2 0xBD0 JUMP JUMPDEST PUSH2 0x11A PUSH2 0x115 CALLDATASIZE PUSH1 0x4 PUSH2 0xD1E JUMP JUMPDEST PUSH2 0x299 JUMP JUMPDEST STOP JUMPDEST PUSH2 0x12F PUSH2 0x12A CALLDATASIZE PUSH1 0x4 PUSH2 0xDC1 JUMP JUMPDEST PUSH2 0x305 JUMP JUMPDEST PUSH1 0x40 MLOAD PUSH2 0xBB SWAP2 SWAP1 PUSH2 0xEB4 JUMP JUMPDEST PUSH2 0xB1 PUSH1 0x3 SLOAD DUP2 JUMP JUMPDEST PUSH2 0x11A PUSH2 0x153 CALLDATASIZE PUSH1 0x4 PUSH2 0xB76 JUMP JUMPDEST PUSH2 0x3D8 JUMP JUMPDEST PUSH2 0x11A PUSH2 0x166 CALLDATASIZE PUSH1 0x4 PUSH2 0xEC6 JUMP JUMPDEST PUSH2 0x40B JUMP JUMPDEST PUSH2 0xD7 PUSH2 0x179 CALLDATASIZE PUSH1 0x4 PUSH2 0xEFF JUMP JUMPDEST PUSH2 0x41A JUMP JUMPDEST PUSH2 0x11A PUSH2 0x18C CALLDATASIZE PUSH1 0x4 PUSH2 0xF30 JUMP JUMPDEST PUSH2 0x447 JUMP JUMPDEST PUSH0 DUP2 DUP2 MSTORE PUSH1 0x20 DUP2 DUP2 MSTORE PUSH1 0x40 DUP1 DUP4 KECCAK256 PUSH1 0x1 PUSH1 0x1 PUSH1 0xA0 SHL SUB DUP7 AND DUP5 MSTORE SWAP1 SWAP2 MSTORE SWAP1 KECCAK256 SLOAD JUMPDEST SWAP3 SWAP2 POP POP JUMP JUMPDEST PUSH0 PUSH1 0x1 PUSH1 0x1 PUSH1 0xE0 SHL SUB NOT DUP3 AND PUSH4 0x6CDB3D13 PUSH1 0xE1 SHL EQ DUP1 PUSH2 0x1E8 JUMPI POP PUSH1 0x1 PUSH1 0x1 PUSH1 0xE0 SHL SUB NOT DUP3 AND PUSH4 0x3A24D07 PUSH1 0xE2 SHL EQ JUMPDEST DUP1 PUSH2 0x1B2 JUMPI POP PUSH4 0x1FFC9A7 PUSH1 0xE0 SHL PUSH1 0x1 PUSH1 0x1 PUSH1 0xE0 SHL SUB NOT DUP4 AND EQ PUSH2 0x1B2 JUMP JUMPDEST PUSH1 0x60 PUSH1 0x2 DUP1 SLOAD PUSH2 0x216 SWAP1 PUSH2 0xF90 JUMP JUMPDEST DUP1 PUSH1 0x1F ADD PUSH1 0x20 DUP1 SWAP2 DIV MUL PUSH1 0x20 ADD PUSH1 0x40 MLOAD SWAP1 DUP2 ADD PUSH1 0x40 MSTORE DUP1 SWAP3 SWAP2 SWAP1 DUP2 DUP2 MSTORE PUSH1 0x20 ADD DUP3 DUP1 SLOAD PUSH2 0x242 SWAP1 PUSH2 0xF90 JUMP JUMPDEST DUP1 ISZERO PUSH2 0x28D JUMPI DUP1 PUSH1 0x1F LT PUSH2 0x264 JUMPI PUSH2 0x100 DUP1 DUP4 SLOAD DIV MUL DUP4 MSTORE SWAP2 PUSH1 0x20 ADD SWAP2 PUSH2 0x28D JUMP JUMPDEST DUP3 ADD SWAP2 SWAP1 PUSH0 MSTORE PUSH1 0x20 PUSH0 KECCAK256 SWAP1 JUMPDEST DUP2 SLOAD DUP2 MSTORE SWAP1 PUSH1 0x1 ADD SWAP1 PUSH1 0x20 ADD DUP1 DUP4 GT PUSH2 0x270 JUMPI DUP3 SWAP1 SUB PUSH1 0x1F AND DUP3 ADD SWAP2 JUMPDEST POP POP POP POP POP SWAP1 POP SWAP2 SWAP1 POP JUMP JUMPDEST CALLER PUSH1 0x1 PUSH1 0x1 PUSH1 0xA0 SHL SUB DUP7 AND DUP2 EQ DUP1 ISZERO SWAP1 PUSH2 0x2BA JUMPI POP PUSH2 0x2B8 DUP7 DUP3 PUSH2 0x41A JUMP JUMPDEST ISZERO JUMPDEST ISZERO PUSH2 0x2F0 JUMPI PUSH1 0x40 MLOAD PUSH4 0x711BEC91 PUSH1 0xE1 SHL DUP2 MSTORE PUSH1 0x1 PUSH1 0x1 PUSH1 0xA0 SHL SUB DUP1 DUP4 AND PUSH1 0x4 DUP4 ADD MSTORE DUP8 AND PUSH1 0x24 DUP3 ADD MSTORE PUSH1 0x44 ADD JUMPDEST PUSH1 0x40 MLOAD DUP1 SWAP2 SUB SWAP1 REVERT JUMPDEST PUSH2 0x2FD DUP7 DUP7 DUP7 DUP7 DUP7 PUSH2 0x4A6 JUMP JUMPDEST POP POP POP POP POP POP JUMP JUMPDEST PUSH1 0x60 DUP2 MLOAD DUP4 MLOAD EQ PUSH2 0x336 JUMPI DUP2 MLOAD DUP4 MLOAD PUSH1 0x40 MLOAD PUSH4 0x5B059991 PUSH1 0xE0 SHL DUP2 MSTORE PUSH1 0x4 DUP2 ADD SWAP3 SWAP1 SWAP3 MSTORE PUSH1 0x24 DUP3 ADD MSTORE PUSH1 0x44 ADD PUSH2 0x2E7 JUMP JUMPDEST PUSH0 DUP4 MLOAD PUSH8 0xFFFFFFFFFFFFFFFF DUP2 GT ISZERO PUSH2 0x351 JUMPI PUSH2 0x351 PUSH2 0xBE2 JUMP JUMPDEST PUSH1 0x40 MLOAD SWAP1 DUP1 DUP3 MSTORE DUP1 PUSH1 0x20 MUL PUSH1 0x20 ADD DUP3 ADD PUSH1 0x40 MSTORE DUP1 ISZERO PUSH2 0x37A JUMPI DUP2 PUSH1 0x20 ADD PUSH1 0x20 DUP3 MUL DUP1 CALLDATASIZE DUP4 CALLDATACOPY ADD SWAP1 POP JUMPDEST POP SWAP1 POP PUSH0 JUMPDEST DUP5 MLOAD DUP2 LT ISZERO PUSH2 0x3D0 JUMPI PUSH1 0x20 DUP1 DUP3 MUL DUP7 ADD ADD MLOAD PUSH2 0x3A3 SWAP1 PUSH1 0x20 DUP1 DUP5 MUL DUP8 ADD ADD MLOAD PUSH2 0x191 JUMP JUMPDEST DUP3 DUP3 DUP2 MLOAD DUP2 LT PUSH2 0x3B5 JUMPI PUSH2 0x3B5 PUSH2 0xFC8 JUMP JUMPDEST PUSH1 0x20 SWAP1 DUP2 MUL SWAP2 SWAP1 SWAP2 ADD ADD MSTORE PUSH2 0x3C9 DUP2 PUSH2 0xFF0 JUMP JUMPDEST SWAP1 POP PUSH2 0x37F JUMP JUMPDEST POP SWAP4 SWAP3 POP POP POP JUMP JUMPDEST PUSH2 0x3F4 CALLER PUSH1 0x3 SLOAD DUP4 PUSH1 0x40 MLOAD DUP1 PUSH1 0x20 ADD PUSH1 0x40 MSTORE DUP1 PUSH0 DUP2 MSTORE POP PUSH2 0x50B JUMP JUMPDEST PUSH1 0x3 DUP1 SLOAD SWAP1 PUSH0 PUSH2 0x403 DUP4 PUSH2 0xFF0 JUMP JUMPDEST SWAP2 SWAP1 POP SSTORE POP POP JUMP JUMPDEST PUSH2 0x416 CALLER DUP4 DUP4 PUSH2 0x566 JUMP JUMPDEST POP POP JUMP JUMPDEST PUSH1 0x1 PUSH1 0x1 PUSH1 0xA0 SHL SUB SWAP2 DUP3 AND PUSH0 SWAP1 DUP2 MSTORE PUSH1 0x1 PUSH1 0x20 SWAP1 DUP2 MSTORE PUSH1 0x40 DUP1 DUP4 KECCAK256 SWAP4 SWAP1 SWAP5 AND DUP3 MSTORE SWAP2 SWAP1 SWAP2 MSTORE KECCAK256 SLOAD PUSH1 0xFF AND SWAP1 JUMP JUMPDEST CALLER PUSH1 0x1 PUSH1 0x1 PUSH1 0xA0 SHL SUB DUP7 AND DUP2 EQ DUP1 ISZERO SWAP1 PUSH2 0x468 JUMPI POP PUSH2 0x466 DUP7 DUP3 PUSH2 0x41A JUMP JUMPDEST ISZERO JUMPDEST ISZERO PUSH2 0x499 JUMPI PUSH1 0x40 MLOAD PUSH4 0x711BEC91 PUSH1 0xE1 SHL DUP2 MSTORE PUSH1 0x1 PUSH1 0x1 PUSH1 0xA0 SHL SUB DUP1 DUP4 AND PUSH1 0x4 DUP4 ADD MSTORE DUP8 AND PUSH1 0x24 DUP3 ADD MSTORE PUSH1 0x44 ADD PUSH2 0x2E7 JUMP JUMPDEST PUSH2 0x2FD DUP7 DUP7 DUP7 DUP7 DUP7 PUSH2 0x5FA JUMP JUMPDEST PUSH1 0x1 PUSH1 0x1 PUSH1 0xA0 SHL SUB DUP5 AND PUSH2 0x4CF JUMPI PUSH1 0x40 MLOAD PUSH4 0x2BFA23E7 PUSH1 0xE1 SHL DUP2 MSTORE PUSH0 PUSH1 0x4 DUP3 ADD MSTORE PUSH1 0x24 ADD PUSH2 0x2E7 JUMP JUMPDEST PUSH1 0x1 PUSH1 0x1 PUSH1 0xA0 SHL SUB DUP6 AND PUSH2 0x4F7 JUMPI PUSH1 0x40 MLOAD PUSH3 0x6A0D45 PUSH1 0xE2 SHL DUP2 MSTORE PUSH0 PUSH1 0x4 DUP3 ADD MSTORE PUSH1 0x24 ADD PUSH2 0x2E7 JUMP JUMPDEST PUSH2 0x504 DUP6 DUP6 DUP6 DUP6 DUP6 PUSH2 0x686 JUMP JUMPDEST POP POP POP POP POP JUMP JUMPDEST PUSH1 0x1 PUSH1 0x1 PUSH1 0xA0 SHL SUB DUP5 AND PUSH2 0x534 JUMPI PUSH1 0x40 MLOAD PUSH4 0x2BFA23E7 PUSH1 0xE1 SHL DUP2 MSTORE PUSH0 PUSH1 0x4 DUP3 ADD MSTORE PUSH1 0x24 ADD PUSH2 0x2E7 JUMP JUMPDEST PUSH1 0x40 DUP1 MLOAD PUSH1 0x1 DUP1 DUP3 MSTORE PUSH1 0x20 DUP3 ADD DUP7 SWAP1 MSTORE DUP2 DUP4 ADD SWAP1 DUP2 MSTORE PUSH1 0x60 DUP3 ADD DUP6 SWAP1 MSTORE PUSH1 0x80 DUP3 ADD SWAP1 SWAP3 MSTORE SWAP1 PUSH2 0x2FD PUSH0 DUP8 DUP5 DUP5 DUP8 PUSH2 0x686 JUMP JUMPDEST PUSH1 0x1 PUSH1 0x1 PUSH1 0xA0 SHL SUB DUP3 AND PUSH2 0x58E JUMPI PUSH1 0x40 MLOAD PUSH3 0xCED3E1 PUSH1 0xE8 SHL DUP2 MSTORE PUSH0 PUSH1 0x4 DUP3 ADD MSTORE PUSH1 0x24 ADD PUSH2 0x2E7 JUMP JUMPDEST PUSH1 0x1 PUSH1 0x1 PUSH1 0xA0 SHL SUB DUP4 DUP2 AND PUSH0 DUP2 DUP2 MSTORE PUSH1 0x1 PUSH1 0x20 SWAP1 DUP2 MSTORE PUSH1 0x40 DUP1 DUP4 KECCAK256 SWAP5 DUP8 AND DUP1 DUP5 MSTORE SWAP5 DUP3 MSTORE SWAP2 DUP3 SWAP1 KECCAK256 DUP1 SLOAD PUSH1 0xFF NOT AND DUP7 ISZERO ISZERO SWAP1 DUP2 OR SWAP1 SWAP2 SSTORE SWAP2 MLOAD SWAP2 DUP3 MSTORE PUSH32 0x17307EAB39AB6107E8899845AD3D59BD9653F200F220920489CA2B5937696C31 SWAP2 ADD PUSH1 0x40 MLOAD DUP1 SWAP2 SUB SWAP1 LOG3 POP POP POP JUMP JUMPDEST PUSH1 0x1 PUSH1 0x1 PUSH1 0xA0 SHL SUB DUP5 AND PUSH2 0x623 JUMPI PUSH1 0x40 MLOAD PUSH4 0x2BFA23E7 PUSH1 0xE1 SHL DUP2 MSTORE PUSH0 PUSH1 0x4 DUP3 ADD MSTORE PUSH1 0x24 ADD PUSH2 0x2E7 JUMP JUMPDEST PUSH1 0x1 PUSH1 0x1 PUSH1 0xA0 SHL SUB DUP6 AND PUSH2 0x64B JUMPI PUSH1 0x40 MLOAD PUSH3 0x6A0D45 PUSH1 0xE2 SHL DUP2 MSTORE PUSH0 PUSH1 0x4 DUP3 ADD MSTORE PUSH1 0x24 ADD PUSH2 0x2E7 JUMP JUMPDEST PUSH1 0x40 DUP1 MLOAD PUSH1 0x1 DUP1 DUP3 MSTORE PUSH1 0x20 DUP3 ADD DUP7 SWAP1 MSTORE DUP2 DUP4 ADD SWAP1 DUP2 MSTORE PUSH1 0x60 DUP3 ADD DUP6 SWAP1 MSTORE PUSH1 0x80 DUP3 ADD SWAP1 SWAP3 MSTORE SWAP1 PUSH2 0x67D DUP8 DUP8 DUP5 DUP5 DUP8 PUSH2 0x686 JUMP JUMPDEST POP POP POP POP POP POP POP JUMP JUMPDEST PUSH2 0x692 DUP6 DUP6 DUP6 DUP6 PUSH2 0x6D9 JUMP JUMPDEST PUSH1 0x1 PUSH1 0x1 PUSH1 0xA0 SHL SUB DUP5 AND ISZERO PUSH2 0x504 JUMPI DUP3 MLOAD CALLER SWAP1 PUSH1 0x1 SUB PUSH2 0x6CB JUMPI PUSH1 0x20 DUP5 DUP2 ADD MLOAD SWAP1 DUP5 ADD MLOAD PUSH2 0x6C4 DUP4 DUP10 DUP10 DUP6 DUP6 DUP10 PUSH2 0x8F1 JUMP JUMPDEST POP POP PUSH2 0x2FD JUMP JUMPDEST PUSH2 0x2FD DUP2 DUP8 DUP8 DUP8 DUP8 DUP8 PUSH2 0xA12 JUMP JUMPDEST DUP1 MLOAD DUP3 MLOAD EQ PUSH2 0x708 JUMPI DUP2 MLOAD DUP2 MLOAD PUSH1 0x40 MLOAD PUSH4 0x5B059991 PUSH1 0xE0 SHL DUP2 MSTORE PUSH1 0x4 DUP2 ADD SWAP3 SWAP1 SWAP3 MSTORE PUSH1 0x24 DUP3 ADD MSTORE PUSH1 0x44 ADD PUSH2 0x2E7 JUMP JUMPDEST CALLER PUSH0 JUMPDEST DUP4 MLOAD DUP2 LT ISZERO PUSH2 0x813 JUMPI PUSH1 0x20 DUP2 DUP2 MUL DUP6 DUP2 ADD DUP3 ADD MLOAD SWAP1 DUP6 ADD SWAP1 SWAP2 ADD MLOAD PUSH1 0x1 PUSH1 0x1 PUSH1 0xA0 SHL SUB DUP9 AND ISZERO PUSH2 0x7BC JUMPI PUSH0 DUP3 DUP2 MSTORE PUSH1 0x20 DUP2 DUP2 MSTORE PUSH1 0x40 DUP1 DUP4 KECCAK256 PUSH1 0x1 PUSH1 0x1 PUSH1 0xA0 SHL SUB DUP13 AND DUP5 MSTORE SWAP1 SWAP2 MSTORE SWAP1 KECCAK256 SLOAD DUP2 DUP2 LT ISZERO PUSH2 0x796 JUMPI PUSH1 0x40 MLOAD PUSH4 0x3DEE4C5 PUSH1 0xE0 SHL DUP2 MSTORE PUSH1 0x1 PUSH1 0x1 PUSH1 0xA0 SHL SUB DUP11 AND PUSH1 0x4 DUP3 ADD MSTORE PUSH1 0x24 DUP2 ADD DUP3 SWAP1 MSTORE PUSH1 0x44 DUP2 ADD DUP4 SWAP1 MSTORE PUSH1 0x64 DUP2 ADD DUP5 SWAP1 MSTORE PUSH1 0x84 ADD PUSH2 0x2E7 JUMP JUMPDEST PUSH0 DUP4 DUP2 MSTORE PUSH1 0x20 DUP2 DUP2 MSTORE PUSH1 0x40 DUP1 DUP4 KECCAK256 PUSH1 0x1 PUSH1 0x1 PUSH1 0xA0 SHL SUB DUP14 AND DUP5 MSTORE SWAP1 SWAP2 MSTORE SWAP1 KECCAK256 SWAP1 DUP3 SWAP1 SUB SWAP1 SSTORE JUMPDEST PUSH1 0x1 PUSH1 0x1 PUSH1 0xA0 SHL SUB DUP8 AND ISZERO PUSH2 0x800 JUMPI PUSH0 DUP3 DUP2 MSTORE PUSH1 0x20 DUP2 DUP2 MSTORE PUSH1 0x40 DUP1 DUP4 KECCAK256 PUSH1 0x1 PUSH1 0x1 PUSH1 0xA0 SHL SUB DUP12 AND DUP5 MSTORE SWAP1 SWAP2 MSTORE DUP2 KECCAK256 DUP1 SLOAD DUP4 SWAP3 SWAP1 PUSH2 0x7FA SWAP1 DUP5 SWAP1 PUSH2 0x1008 JUMP JUMPDEST SWAP1 SWAP2 SSTORE POP POP JUMPDEST POP POP DUP1 PUSH2 0x80C SWAP1 PUSH2 0xFF0 JUMP JUMPDEST SWAP1 POP PUSH2 0x70B JUMP JUMPDEST POP DUP3 MLOAD PUSH1 0x1 SUB PUSH2 0x893 JUMPI PUSH1 0x20 DUP4 ADD MLOAD PUSH0 SWAP1 PUSH1 0x20 DUP5 ADD MLOAD SWAP1 SWAP2 POP DUP6 PUSH1 0x1 PUSH1 0x1 PUSH1 0xA0 SHL SUB AND DUP8 PUSH1 0x1 PUSH1 0x1 PUSH1 0xA0 SHL SUB AND DUP5 PUSH1 0x1 PUSH1 0x1 PUSH1 0xA0 SHL SUB AND PUSH32 0xC3D58168C5AE7397731D063D5BBF3D657854427343F4C083240F7AACAA2D0F62 DUP6 DUP6 PUSH1 0x40 MLOAD PUSH2 0x884 SWAP3 SWAP2 SWAP1 SWAP2 DUP3 MSTORE PUSH1 0x20 DUP3 ADD MSTORE PUSH1 0x40 ADD SWAP1 JUMP JUMPDEST PUSH1 0x40 MLOAD DUP1 SWAP2 SUB SWAP1 LOG4 POP POP PUSH2 0x504 JUMP JUMPDEST DUP4 PUSH1 0x1 PUSH1 0x1 PUSH1 0xA0 SHL SUB AND DUP6 PUSH1 0x1 PUSH1 0x1 PUSH1 0xA0 SHL SUB AND DUP3 PUSH1 0x1 PUSH1 0x1 PUSH1 0xA0 SHL SUB AND PUSH32 0x4A39DC06D4C0DBC64B70AF90FD698A233A518AA5D07E595D983B8C0526C8F7FB DUP7 DUP7 PUSH1 0x40 MLOAD PUSH2 0x8E2 SWAP3 SWAP2 SWAP1 PUSH2 0x101B JUMP JUMPDEST PUSH1 0x40 MLOAD DUP1 SWAP2 SUB SWAP1 LOG4 POP POP POP POP POP JUMP JUMPDEST PUSH1 0x1 PUSH1 0x1 PUSH1 0xA0 SHL SUB DUP5 AND EXTCODESIZE ISZERO PUSH2 0x2FD JUMPI PUSH1 0x40 MLOAD PUSH4 0xF23A6E61 PUSH1 0xE0 SHL DUP2 MSTORE PUSH1 0x1 PUSH1 0x1 PUSH1 0xA0 SHL SUB DUP6 AND SWAP1 PUSH4 0xF23A6E61 SWAP1 PUSH2 0x935 SWAP1 DUP10 SWAP1 DUP10 SWAP1 DUP9 SWAP1 DUP9 SWAP1 DUP9 SWAP1 PUSH1 0x4 ADD PUSH2 0x1048 JUMP JUMPDEST PUSH1 0x20 PUSH1 0x40 MLOAD DUP1 DUP4 SUB DUP2 PUSH0 DUP8 GAS CALL SWAP3 POP POP POP DUP1 ISZERO PUSH2 0x96F JUMPI POP PUSH1 0x40 DUP1 MLOAD PUSH1 0x1F RETURNDATASIZE SWAP1 DUP2 ADD PUSH1 0x1F NOT AND DUP3 ADD SWAP1 SWAP3 MSTORE PUSH2 0x96C SWAP2 DUP2 ADD SWAP1 PUSH2 0x108C JUMP JUMPDEST PUSH1 0x1 JUMPDEST PUSH2 0x9D6 JUMPI RETURNDATASIZE DUP1 DUP1 ISZERO PUSH2 0x99C JUMPI PUSH1 0x40 MLOAD SWAP2 POP PUSH1 0x1F NOT PUSH1 0x3F RETURNDATASIZE ADD AND DUP3 ADD PUSH1 0x40 MSTORE RETURNDATASIZE DUP3 MSTORE RETURNDATASIZE PUSH0 PUSH1 0x20 DUP5 ADD RETURNDATACOPY PUSH2 0x9A1 JUMP JUMPDEST PUSH1 0x60 SWAP2 POP JUMPDEST POP DUP1 MLOAD PUSH0 SUB PUSH2 0x9CE JUMPI PUSH1 0x40 MLOAD PUSH4 0x2BFA23E7 PUSH1 0xE1 SHL DUP2 MSTORE PUSH1 0x1 PUSH1 0x1 PUSH1 0xA0 SHL SUB DUP7 AND PUSH1 0x4 DUP3 ADD MSTORE PUSH1 0x24 ADD PUSH2 0x2E7 JUMP JUMPDEST DUP1 MLOAD DUP2 PUSH1 0x20 ADD REVERT JUMPDEST PUSH1 0x1 PUSH1 0x1 PUSH1 0xE0 SHL SUB NOT DUP2 AND PUSH4 0xF23A6E61 PUSH1 0xE0 SHL EQ PUSH2 0x67D JUMPI PUSH1 0x40 MLOAD PUSH4 0x2BFA23E7 PUSH1 0xE1 SHL DUP2 MSTORE PUSH1 0x1 PUSH1 0x1 PUSH1 0xA0 SHL SUB DUP7 AND PUSH1 0x4 DUP3 ADD MSTORE PUSH1 0x24 ADD PUSH2 0x2E7 JUMP JUMPDEST PUSH1 0x1 PUSH1 0x1 PUSH1 0xA0 SHL SUB DUP5 AND EXTCODESIZE ISZERO PUSH2 0x2FD JUMPI PUSH1 0x40 MLOAD PUSH4 0xBC197C81 PUSH1 0xE0 SHL DUP2 MSTORE PUSH1 0x1 PUSH1 0x1 PUSH1 0xA0 SHL SUB DUP6 AND SWAP1 PUSH4 0xBC197C81 SWAP1 PUSH2 0xA56 SWAP1 DUP10 SWAP1 DUP10 SWAP1 DUP9 SWAP1 DUP9 SWAP1 DUP9 SWAP1 PUSH1 0x4 ADD PUSH2 0x10A7 JUMP JUMPDEST PUSH1 0x20 PUSH1 0x40 MLOAD DUP1 DUP4 SUB DUP2 PUSH0 DUP8 GAS CALL SWAP3 POP POP POP DUP1 ISZERO PUSH2 0xA90 JUMPI POP PUSH1 0x40 DUP1 MLOAD PUSH1 0x1F RETURNDATASIZE SWAP1 DUP2 ADD PUSH1 0x1F NOT AND DUP3 ADD SWAP1 SWAP3 MSTORE PUSH2 0xA8D SWAP2 DUP2 ADD SWAP1 PUSH2 0x108C JUMP JUMPDEST PUSH1 0x1 JUMPDEST PUSH2 0xABD JUMPI RETURNDATASIZE DUP1 DUP1 ISZERO PUSH2 0x99C JUMPI PUSH1 0x40 MLOAD SWAP2 POP PUSH1 0x1F NOT PUSH1 0x3F RETURNDATASIZE ADD AND DUP3 ADD PUSH1 0x40 MSTORE RETURNDATASIZE DUP3 MSTORE RETURNDATASIZE PUSH0 PUSH1 0x20 DUP5 ADD RETURNDATACOPY PUSH2 0x9A1 JUMP JUMPDEST PUSH1 0x1 PUSH1 0x1 PUSH1 0xE0 SHL SUB NOT DUP2 AND PUSH4 0xBC197C81 PUSH1 0xE0 SHL EQ PUSH2 0x67D JUMPI PUSH1 0x40 MLOAD PUSH4 0x2BFA23E7 PUSH1 0xE1 SHL DUP2 MSTORE PUSH1 0x1 PUSH1 0x1 PUSH1 0xA0 SHL SUB DUP7 AND PUSH1 0x4 DUP3 ADD MSTORE PUSH1 0x24 ADD PUSH2 0x2E7 JUMP JUMPDEST DUP1 CALLDATALOAD PUSH1 0x1 PUSH1 0x1 PUSH1 0xA0 SHL SUB DUP2 AND DUP2 EQ PUSH2 0xB0F JUMPI PUSH0 DUP1 REVERT JUMPDEST SWAP2 SWAP1 POP JUMP JUMPDEST PUSH0 DUP1 PUSH1 0x40 DUP4 DUP6 SUB SLT ISZERO PUSH2 0xB25 JUMPI PUSH0 DUP1 REVERT JUMPDEST PUSH2 0xB2E DUP4 PUSH2 0xAF9 JUMP JUMPDEST SWAP5 PUSH1 0x20 SWAP4 SWAP1 SWAP4 ADD CALLDATALOAD SWAP4 POP POP POP JUMP JUMPDEST PUSH1 0x1 PUSH1 0x1 PUSH1 0xE0 SHL SUB NOT DUP2 AND DUP2 EQ PUSH2 0xB51 JUMPI PUSH0 DUP1 REVERT JUMPDEST POP JUMP JUMPDEST PUSH0 PUSH1 0x20 DUP3 DUP5 SUB SLT ISZERO PUSH2 0xB64 JUMPI PUSH0 DUP1 REVERT JUMPDEST DUP2 CALLDATALOAD PUSH2 0xB6F DUP2 PUSH2 0xB3C JUMP JUMPDEST SWAP4 SWAP3 POP POP POP JUMP JUMPDEST PUSH0 PUSH1 0x20 DUP3 DUP5 SUB SLT ISZERO PUSH2 0xB86 JUMPI PUSH0 DUP1 REVERT JUMPDEST POP CALLDATALOAD SWAP2 SWAP1 POP JUMP JUMPDEST PUSH0 DUP2 MLOAD DUP1 DUP5 MSTORE PUSH0 JUMPDEST DUP2 DUP2 LT ISZERO PUSH2 0xBB1 JUMPI PUSH1 0x20 DUP2 DUP6 ADD DUP2 ADD MLOAD DUP7 DUP4 ADD DUP3 ADD MSTORE ADD PUSH2 0xB95 JUMP JUMPDEST POP PUSH0 PUSH1 0x20 DUP3 DUP7 ADD ADD MSTORE PUSH1 0x20 PUSH1 0x1F NOT PUSH1 0x1F DUP4 ADD AND DUP6 ADD ADD SWAP2 POP POP SWAP3 SWAP2 POP POP JUMP JUMPDEST PUSH1 0x20 DUP2 MSTORE PUSH0 PUSH2 0xB6F PUSH1 0x20 DUP4 ADD DUP5 PUSH2 0xB8D JUMP JUMPDEST PUSH4 0x4E487B71 PUSH1 0xE0 SHL PUSH0 MSTORE PUSH1 0x41 PUSH1 0x4 MSTORE PUSH1 0x24 PUSH0 REVERT JUMPDEST PUSH1 0x40 MLOAD PUSH1 0x1F DUP3 ADD PUSH1 0x1F NOT AND DUP2 ADD PUSH8 0xFFFFFFFFFFFFFFFF DUP2 GT DUP3 DUP3 LT OR ISZERO PUSH2 0xC1F JUMPI PUSH2 0xC1F PUSH2 0xBE2 JUMP JUMPDEST PUSH1 0x40 MSTORE SWAP2 SWAP1 POP JUMP JUMPDEST PUSH0 PUSH8 0xFFFFFFFFFFFFFFFF DUP3 GT ISZERO PUSH2 0xC40 JUMPI PUSH2 0xC40 PUSH2 0xBE2 JUMP JUMPDEST POP PUSH1 0x5 SHL PUSH1 0x20 ADD SWAP1 JUMP JUMPDEST PUSH0 DUP3 PUSH1 0x1F DUP4 ADD SLT PUSH2 0xC59 JUMPI PUSH0 DUP1 REVERT JUMPDEST DUP2 CALLDATALOAD PUSH1 0x20 PUSH2 0xC6E PUSH2 0xC69 DUP4 PUSH2 0xC27 JUMP JUMPDEST PUSH2 0xBF6 JUMP JUMPDEST DUP3 DUP2 MSTORE PUSH1 0x5 SWAP3 SWAP1 SWAP3 SHL DUP5 ADD DUP2 ADD SWAP2 DUP2 DUP2 ADD SWAP1 DUP7 DUP5 GT ISZERO PUSH2 0xC8C JUMPI PUSH0 DUP1 REVERT JUMPDEST DUP3 DUP7 ADD JUMPDEST DUP5 DUP2 LT ISZERO PUSH2 0xCA7 JUMPI DUP1 CALLDATALOAD DUP4 MSTORE SWAP2 DUP4 ADD SWAP2 DUP4 ADD PUSH2 0xC90 JUMP JUMPDEST POP SWAP7 SWAP6 POP POP POP POP POP POP JUMP JUMPDEST PUSH0 DUP3 PUSH1 0x1F DUP4 ADD SLT PUSH2 0xCC1 JUMPI PUSH0 DUP1 REVERT JUMPDEST DUP2 CALLDATALOAD PUSH8 0xFFFFFFFFFFFFFFFF DUP2 GT ISZERO PUSH2 0xCDB JUMPI PUSH2 0xCDB PUSH2 0xBE2 JUMP JUMPDEST PUSH2 0xCEE PUSH1 0x1F DUP3 ADD PUSH1 0x1F NOT AND PUSH1 0x20 ADD PUSH2 0xBF6 JUMP JUMPDEST DUP2 DUP2 MSTORE DUP5 PUSH1 0x20 DUP4 DUP7 ADD ADD GT ISZERO PUSH2 0xD02 JUMPI PUSH0 DUP1 REVERT JUMPDEST DUP2 PUSH1 0x20 DUP6 ADD PUSH1 0x20 DUP4 ADD CALLDATACOPY PUSH0 SWAP2 DUP2 ADD PUSH1 0x20 ADD SWAP2 SWAP1 SWAP2 MSTORE SWAP4 SWAP3 POP POP POP JUMP JUMPDEST PUSH0 DUP1 PUSH0 DUP1 PUSH0 PUSH1 0xA0 DUP7 DUP9 SUB SLT ISZERO PUSH2 0xD32 JUMPI PUSH0 DUP1 REVERT JUMPDEST PUSH2 0xD3B DUP7 PUSH2 0xAF9 JUMP JUMPDEST SWAP5 POP PUSH2 0xD49 PUSH1 0x20 DUP8 ADD PUSH2 0xAF9 JUMP JUMPDEST SWAP4 POP PUSH1 0x40 DUP7 ADD CALLDATALOAD PUSH8 0xFFFFFFFFFFFFFFFF DUP1 DUP3 GT ISZERO PUSH2 0xD65 JUMPI PUSH0 DUP1 REVERT JUMPDEST PUSH2 0xD71 DUP10 DUP4 DUP11 ADD PUSH2 0xC4A JUMP JUMPDEST SWAP5 POP PUSH1 0x60 DUP9 ADD CALLDATALOAD SWAP2 POP DUP1 DUP3 GT ISZERO PUSH2 0xD86 JUMPI PUSH0 DUP1 REVERT JUMPDEST PUSH2 0xD92 DUP10 DUP4 DUP11 ADD PUSH2 0xC4A JUMP JUMPDEST SWAP4 POP PUSH1 0x80 DUP9 ADD CALLDATALOAD SWAP2 POP DUP1 DUP3 GT ISZERO PUSH2 0xDA7 JUMPI PUSH0 DUP1 REVERT JUMPDEST POP PUSH2 0xDB4 DUP9 DUP3 DUP10 ADD PUSH2 0xCB2 JUMP JUMPDEST SWAP2 POP POP SWAP3 SWAP6 POP SWAP3 SWAP6 SWAP1 SWAP4 POP JUMP JUMPDEST PUSH0 DUP1 PUSH1 0x40 DUP4 DUP6 SUB SLT ISZERO PUSH2 0xDD2 JUMPI PUSH0 DUP1 REVERT JUMPDEST DUP3 CALLDATALOAD PUSH8 0xFFFFFFFFFFFFFFFF DUP1 DUP3 GT ISZERO PUSH2 0xDE9 JUMPI PUSH0 DUP1 REVERT JUMPDEST DUP2 DUP6 ADD SWAP2 POP DUP6 PUSH1 0x1F DUP4 ADD SLT PUSH2 0xDFC JUMPI PUSH0 DUP1 REVERT JUMPDEST DUP2 CALLDATALOAD PUSH1 0x20 PUSH2 0xE0C PUSH2 0xC69 DUP4 PUSH2 0xC27 JUMP JUMPDEST DUP3 DUP2 MSTORE PUSH1 0x5 SWAP3 SWAP1 SWAP3 SHL DUP5 ADD DUP2 ADD SWAP2 DUP2 DUP2 ADD SWAP1 DUP10 DUP5 GT ISZERO PUSH2 0xE2A JUMPI PUSH0 DUP1 REVERT JUMPDEST SWAP5 DUP3 ADD SWAP5 JUMPDEST DUP4 DUP7 LT ISZERO PUSH2 0xE4F JUMPI PUSH2 0xE40 DUP7 PUSH2 0xAF9 JUMP JUMPDEST DUP3 MSTORE SWAP5 DUP3 ADD SWAP5 SWAP1 DUP3 ADD SWAP1 PUSH2 0xE2F JUMP JUMPDEST SWAP7 POP POP DUP7 ADD CALLDATALOAD SWAP3 POP POP DUP1 DUP3 GT ISZERO PUSH2 0xE64 JUMPI PUSH0 DUP1 REVERT JUMPDEST POP PUSH2 0xE71 DUP6 DUP3 DUP7 ADD PUSH2 0xC4A JUMP JUMPDEST SWAP2 POP POP SWAP3 POP SWAP3 SWAP1 POP JUMP JUMPDEST PUSH0 DUP2 MLOAD DUP1 DUP5 MSTORE PUSH1 0x20 DUP1 DUP6 ADD SWAP5 POP DUP1 DUP5 ADD PUSH0 JUMPDEST DUP4 DUP2 LT ISZERO PUSH2 0xEA9 JUMPI DUP2 MLOAD DUP8 MSTORE SWAP6 DUP3 ADD SWAP6 SWAP1 DUP3 ADD SWAP1 PUSH1 0x1 ADD PUSH2 0xE8D JUMP JUMPDEST POP SWAP5 SWAP6 SWAP5 POP POP POP POP POP JUMP JUMPDEST PUSH1 0x20 DUP2 MSTORE PUSH0 PUSH2 0xB6F PUSH1 0x20 DUP4 ADD DUP5 PUSH2 0xE7B JUMP JUMPDEST PUSH0 DUP1 PUSH1 0x40 DUP4 DUP6 SUB SLT ISZERO PUSH2 0xED7 JUMPI PUSH0 DUP1 REVERT JUMPDEST PUSH2 0xEE0 DUP4 PUSH2 0xAF9 JUMP JUMPDEST SWAP2 POP PUSH1 0x20 DUP4 ADD CALLDATALOAD DUP1 ISZERO ISZERO DUP2 EQ PUSH2 0xEF4 JUMPI PUSH0 DUP1 REVERT JUMPDEST DUP1 SWAP2 POP POP SWAP3 POP SWAP3 SWAP1 POP JUMP JUMPDEST PUSH0 DUP1 PUSH1 0x40 DUP4 DUP6 SUB SLT ISZERO PUSH2 0xF10 JUMPI PUSH0 DUP1 REVERT JUMPDEST PUSH2 0xF19 DUP4 PUSH2 0xAF9 JUMP JUMPDEST SWAP2 POP PUSH2 0xF27 PUSH1 0x20 DUP5 ADD PUSH2 0xAF9 JUMP JUMPDEST SWAP1 POP SWAP3 POP SWAP3 SWAP1 POP JUMP JUMPDEST PUSH0 DUP1 PUSH0 DUP1 PUSH0 PUSH1 0xA0 DUP7 DUP9 SUB SLT ISZERO PUSH2 0xF44 JUMPI PUSH0 DUP1 REVERT JUMPDEST PUSH2 0xF4D DUP7 PUSH2 0xAF9 JUMP JUMPDEST SWAP5 POP PUSH2 0xF5B PUSH1 0x20 DUP8 ADD PUSH2 0xAF9 JUMP JUMPDEST SWAP4 POP PUSH1 0x40 DUP7 ADD CALLDATALOAD SWAP3 POP PUSH1 0x60 DUP7 ADD CALLDATALOAD SWAP2 POP PUSH1 0x80 DUP7 ADD CALLDATALOAD PUSH8 0xFFFFFFFFFFFFFFFF DUP2 GT ISZERO PUSH2 0xF84 JUMPI PUSH0 DUP1 REVERT JUMPDEST PUSH2 0xDB4 DUP9 DUP3 DUP10 ADD PUSH2 0xCB2 JUMP JUMPDEST PUSH1 0x1 DUP2 DUP2 SHR SWAP1 DUP3 AND DUP1 PUSH2 0xFA4 JUMPI PUSH1 0x7F DUP3 AND SWAP2 POP JUMPDEST PUSH1 0x20 DUP3 LT DUP2 SUB PUSH2 0xFC2 JUMPI PUSH4 0x4E487B71 PUSH1 0xE0 SHL PUSH0 MSTORE PUSH1 0x22 PUSH1 0x4 MSTORE PUSH1 0x24 PUSH0 REVERT JUMPDEST POP SWAP2 SWAP1 POP JUMP JUMPDEST PUSH4 0x4E487B71 PUSH1 0xE0 SHL PUSH0 MSTORE PUSH1 0x32 PUSH1 0x4 MSTORE PUSH1 0x24 PUSH0 REVERT JUMPDEST PUSH4 0x4E487B71 PUSH1 0xE0 SHL PUSH0 MSTORE PUSH1 0x11 PUSH1 0x4 MSTORE PUSH1 0x24 PUSH0 REVERT JUMPDEST PUSH0 PUSH1 0x1 DUP3 ADD PUSH2 0x1001 JUMPI PUSH2 0x1001 PUSH2 0xFDC JUMP JUMPDEST POP PUSH1 0x1 ADD SWAP1 JUMP JUMPDEST DUP1 DUP3 ADD DUP1 DUP3 GT ISZERO PUSH2 0x1B2 JUMPI PUSH2 0x1B2 PUSH2 0xFDC JUMP JUMPDEST PUSH1 0x40 DUP2 MSTORE PUSH0 PUSH2 0x102D PUSH1 0x40 DUP4 ADD DUP6 PUSH2 0xE7B JUMP JUMPDEST DUP3 DUP2 SUB PUSH1 0x20 DUP5 ADD MSTORE PUSH2 0x103F DUP2 DUP6 PUSH2 0xE7B JUMP JUMPDEST SWAP6 SWAP5 POP POP POP POP POP JUMP JUMPDEST PUSH1 0x1 PUSH1 0x1 PUSH1 0xA0 SHL SUB DUP7 DUP2 AND DUP3 MSTORE DUP6 AND PUSH1 0x20 DUP3 ADD MSTORE PUSH1 0x40 DUP2 ADD DUP5 SWAP1 MSTORE PUSH1 0x60 DUP2 ADD DUP4 SWAP1 MSTORE PUSH1 0xA0 PUSH1 0x80 DUP3 ADD DUP2 SWAP1 MSTORE PUSH0 SWAP1 PUSH2 0x1081 SWAP1 DUP4 ADD DUP5 PUSH2 0xB8D JUMP JUMPDEST SWAP8 SWAP7 POP POP POP POP POP POP POP JUMP JUMPDEST PUSH0 PUSH1 0x20 DUP3 DUP5 SUB SLT ISZERO PUSH2 0x109C JUMPI PUSH0 DUP1 REVERT JUMPDEST DUP2 MLOAD PUSH2 0xB6F DUP2 PUSH2 0xB3C JUMP JUMPDEST PUSH1 0x1 PUSH1 0x1 PUSH1 0xA0 SHL SUB DUP7 DUP2 AND DUP3 MSTORE DUP6 AND PUSH1 0x20 DUP3 ADD MSTORE PUSH1 0xA0 PUSH1 0x40 DUP3 ADD DUP2 SWAP1 MSTORE PUSH0 SWAP1 PUSH2 0x10D2 SWAP1 DUP4 ADD DUP7 PUSH2 0xE7B JUMP JUMPDEST DUP3 DUP2 SUB PUSH1 0x60 DUP5 ADD MSTORE PUSH2 0x10E4 DUP2 DUP7 PUSH2 0xE7B JUMP JUMPDEST SWAP1 POP DUP3 DUP2 SUB PUSH1 0x80 DUP5 ADD MSTORE PUSH2 0x10F8 DUP2 DUP6 PUSH2 0xB8D JUMP JUMPDEST SWAP9 SWAP8 POP POP POP POP POP POP POP POP JUMP INVALID LOG2 PUSH5 0x6970667358 0x22 SLT KECCAK256 0xDC COINBASE PUSH23 0x23179B482C73464040CDC61C8E608E801EA9047C4976FF 0xE2 0xBD PUSH3 0xED7ACF PUSH5 0x736F6C6343 STOP ADDMOD EQ STOP CALLER PUSH9 0x747470733A2F2F6578 PUSH2 0x6D70 PUSH13 0x652E636F6D2F6170692F697465 PUSH14 0x2F7B69647D2E6A736F6E00000000 "
				},
				"gasEstimates": {
					"creation": {
						"codeDepositCost": "882000",
						"executionCost": "infinite",
						"totalCost": "infinite"
					},
					"external": {
						"balanceOf(address,uint256)": "2634",
						"balanceOfBatch(address[],uint256[])": "infinite",
						"isApprovedForAll(address,address)": "infinite",
						"mint(uint256)": "infinite",
						"nextTokenId()": "2283",
						"safeBatchTransferFrom(address,address,uint256[],uint256[],bytes)": "infinite",
						"safeTransferFrom(address,address,uint256,uint256,bytes)": "infinite",
						"setApprovalForAll(address,bool)": "26700",
						"supportsInterface(bytes4)": "552",
						"uri(uint256)": "infinite"
					}
				},
				"methodIdentifiers": {
					"balanceOf(address,uint256)": "00fdd58e",
					"balanceOfBatch(address[],uint256[])": "4e1273f4",
					"isApprovedForAll(address,address)": "e985e9c5",
					"mint(uint256)": "a0712d68",
					"nextTokenId()": "75794a3c",
					"safeBatchTransferFrom(address,address,uint256[],uint256[],bytes)": "2eb2c2d6",
					"safeTransferFrom(address,address,uint256,uint256,bytes)": "f242432a",
					"setApprovalForAll(address,bool)": "a22cb465",
					"supportsInterface(bytes4)": "01ffc9a7",
					"uri(uint256)": "0e89341c"
				}
			},
			"storageLayout": {
				"storage": [
					{
						"astId": 178,
						"contract": "Standard_ERC1155.sol:Standart_ERC1155",
						"label": "_balances",
						"offset": 0,
						"slot": "0",
						"type": "t_mapping(t_uint256,t_mapping(t_address,t_uint256))"
					},
					{
						"astId": 184,
						"contract": "Standard_ERC1155.sol:Standart_ERC1155",
						"label": "_operatorApprovals",
						"offset": 0,
						"slot": "1",
						"type": "t_mapping(t_address,t_mapping(t_address,t_bool))"
					},
					{
						"astId": 186,
						"contract": "Standard_ERC1155.sol:Standart_ERC1155",
						"label": "_uri",
						"offset": 0,
						"slot": "2",
						"type": "t_string_storage"
					},
					{
						"astId": 6048,
						"contract": "Standard_ERC1155.sol:Standart_ERC1155",
						"label": "nextTokenId",
						"offset": 0,
						"slot": "3",
						"type": "t_uint256"
					}
				],
				"types": {
					"t_address": {
						"encoding": "inplace",
						"label": "address",
						"numberOfBytes": "20"
					},
					"t_bool": {
						"encoding": "inplace",
						"label": "bool",
						"numberOfBytes": "1"
					},
					"t_mapping(t_address,t_bool)": {
						"encoding": "mapping",
						"key": "t_address",
						"label": "mapping(address => bool)",
						"numberOfBytes": "32",
						"value": "t_bool"
					},
					"t_mapping(t_address,t_mapping(t_address,t_bool))": {
						"encoding": "mapping",
						"key": "t_address",
						"label": "mapping(address => mapping(address => bool))",
						"numberOfBytes": "32",
						"value": "t_mapping(t_address,t_bool)"
					},
					"t_mapping(t_address,t_uint256)": {
						"encoding": "mapping",
						"key": "t_address",
						"label": "mapping(address => uint256)",
						"numberOfBytes": "32",
						"value": "t_uint256"
					},
					"t_mapping(t_uint256,t_mapping(t_address,t_uint256))": {
						"encoding": "mapping",
						"key": "t_uint256",
						"label": "mapping(uint256 => mapping(address => uint256))",
						"numberOfBytes": "32",
						"value": "t_mapping(t_address,t_uint256)"
					},
					"t_string_storage": {
						"encoding": "bytes",
						"label": "string",
						"numberOfBytes": "32"
					},
					"t_uint256": {
						"encoding": "inplace",
						"label": "uint256",
						"numberOfBytes": "32"
					}
				}
			},
			"userdoc": {
				"kind": "user",
				"methods": {},
				"version": 1
			}
		}
	}
}