{
	"Standard_ERC721.sol": {
		"Standard_ERC721": {
			"abi": [
				{
					"inputs": [],
					"stateMutability": "nonpayable",
					"type": "constructor"
				},
				{
					"inputs": [
						{
							"internalType": "address",
							"name": "sender",
							"type": "address"
						},
						{
							"internalType": "uint256",
							"name": "tokenId",
							"type": "uint256"
						},
						{
							"internalType": "address",
							"name": "owner",
							"type": "address"
						}
					],
					"name": "ERC721IncorrectOwner",
					"type": "error"
				},
				{
					"inputs": [
						{
							"internalType": "address",
							"name": "operator",
							"type": "address"
						},
						{
							"internalType": "uint256",
							"name": "tokenId",
							"type": "uint256"
						}
					],
					"name": "ERC721InsufficientApproval",
					"type": "error"
				},
				{
					"inputs": [
						{
							"internalType": "address",
							"name": "approver",
							"type": "address"
						}
					],
					"name": "ERC721InvalidApprover",
					"type": "error"
				},
				{
					"inputs": [
						{
							"internalType": "address",
							"name": "operator",
							"type": "address"
						}
					],
					"name": "ERC721InvalidOperator",
					"type": "error"
				},
				{
					"inputs": [
						{
							"internalType": "address",
							"name": "owner",
							"type": "address"
						}
					],
					"name": "ERC721InvalidOwner",
					"type": "error"
				},
				{
					"inputs": [
						{
							"internalType": "address",
							"name": "receiver",
							"type": "address"
						}
					],
					"name": "ERC721InvalidReceiver",
					"type": "error"
				},
				{
					"inputs": [
						{
							"internalType": "address",
							"name": "sender",
							"type": "address"
						}
					],
					"name": "ERC721InvalidSender",
					"type": "error"
				},
				{
					"inputs": [
						{
							"internalType": "uint256",
							"name": "tokenId",
							"type": "uint256"
						}
					],
					"name": "ERC721NonexistentToken",
					"type": "error"
				},
				{
					"anonymous": false,
					"inputs": [
						{
							"indexed": true,
							"internalType": "address",
							"name": "owner",
							"type": "address"
						},
						{
							"indexed": true,
							"internalType": "address",
							"name": "approved",
							"type": "address"
						},
						{
							"indexed": true,
							"internalType": "uint256",
							"name": "tokenId",
							"type": "uint256"
						}
					],
					"name": "Approval",
					"type": "event"
				},
				{
					"anonymous": false,
					"inputs": [
						{
							"indexed": true,
							"internalType": "address",
							"name": "owner",
							"type": "address"
						},
						{
							"indexed": true,
							"internalType": "address",
							"name": "operator",
							"type": "address"
						},
						{
							"indexed": false,
							"internalType": "bool",
							"name": "approved",
							"type": "bool"
						}
					],
					"name": "ApprovalForAll",
					"type": "event"
				},
				{
					"anonymous": false,
					"inputs": [
						{
							"indexed": true,
							"internalType": "address",
							"name": "from",
							"type": "address"
						},
						{
							"indexed": true,
							"internalType": "address",
							"name": "to",
							"type": "address"
						},
						{
							"indexed": true,
							"internalType": "uint256",
							"name": "tokenId",
							"type": "uint256"
						}
					],
					"name": "Transfer",
					"type": "event"
				},
				{
					"inputs": [
						{
							"internalType": "address",
							"name": "to",
							"type": "address"
						},
						{
							"internalType": "uint256",
							"name": "tokenId",
							"type": "uint256"
						}
					],
					"name": "approve",
					"outputs": [],
					"stateMutability": "nonpayable",
					"type": "function"
				},
				{
					"inputs": [
						{
							"internalType": "address",
							"name": "owner",
							"type": "address"
						}
					],
					"name": "balanceOf",
					"outputs": [
						{
							"internalType": "uint256",
							"name": "",
							"type": "uint256"
						}
					],
					"stateMutability": "view",
					"type": "function"
				},
				{
					"inputs": [
						{
							"internalType": "uint256",
							"name": "tokenId",
							"type": "uint256"
						}
					],
					"name": "getApproved",
					"outputs": [
						{
							"internalType": "address",
							"name": "",
							"type": "address"
						}
					],
					"stateMutability": "view",
					"type": "function"
				},
				{
					"inputs": [
						{
							"internalType": "address",
							"name": "owner",
							"type": "address"
						},
						{
							"internalType": "address",
							"name": "operator",
							"type": "address"
						}
					],
					"name": "isApprovedForAll",
					"outputs": [
						{
							"internalType": "bool",
							"name": "",
							"type": "bool"
						}
					],
					"stateMutability": "view",
					"type": "function"
				},
				{
					"inputs": [],
					"name": "mint",
					"outputs": [],
					"stateMutability": "nonpayable",
					"type": "function"
				},
				{
					"inputs": [],
					"name": "name",
					"outputs": [
						{
							"internalType": "string",
							"name": "",
							"type": "string"
						}
					],
					"stateMutability": "view",
					"type": "function"
				},
				{
					"inputs": [],
					"name": "nextTokenId",
					"outputs": [
						{
							"internalType": "uint256",
							"name": "",
							"type": "uint256"
						}
					],
					"stateMutability": "view",
					"type": "function"
				},
				{
					"inputs": [
						{
							"internalType": "uint256",
							"name": "tokenId",
							"type": "uint256"
						}
					],
					"name": "ownerOf",
					"outputs": [
						{
							"internalType": "address",
							"name": "",
							"type": "address"
						}
					],
					"stateMutability": "view",
					"type": "function"
				},
				{
					"inputs": [
						{
							"internalType": "address",
							"name": "from",
							"type": "address"
						},
						{
							"internalType": "address",
							"name": "to",
							"type": "address"
						},
						{
							"internalType": "uint256",
							"name": "tokenId",
							"type": "uint256"
						}
					],
					"name": "safeTransferFrom",
					"outputs": [],
					"stateMutability": "nonpayable",
					"type": "function"
				},
				{
					"inputs": [
						{
							"internalType": "address",
							"name": "from",
							"type": "address"
						},
						{
							"internalType": "address",
							"name": "to",
							"type": "address"
						},
						{
							"internalType": "uint256",
							"name": "tokenId",
							"type": "uint256"
						},
						{
							"internalType": "bytes",
							"name": "data",
							"type": "bytes"
						}
					],
					"name": "safeTransferFrom",
					"outputs": [],
					"stateMutability": "nonpayable",
					"type": "function"
				},
				{
					"inputs": [
						{
							"internalType": "address",
							"name": "operator",
							"type": "address"
						},
						{
							"internalType": "bool",
							"name": "approved",
							"type": "bool"
						}
					],
					"name": "setApprovalForAll",
					"outputs": [],
					"stateMutability": "nonpayable",
					"type": "function"
				},
				{
					"inputs": [
						{
							"internalType": "bytes4",
							"name": "interfaceId",
							"type": "bytes4"
						}
					],
					"name": "supportsInterface",
					"outputs": [
						{
							"internalType": "bool",
							"name": "",
							"type": "bool"
						}
					],
					"stateMutability": "view",
					"type": "function"
				},
				{
					"inputs": [],
					"name": "symbol",
					"outputs": [
						{
							"internalType": "string",
							"name": "",
							"type": "string"
						}
					],
					"stateMutability": "view",
					"type": "function"
				},
				{
					"inputs": [
						{
							"internalType": "uint256",
							"name": "tokenId",
							"type": "uint256"
						}
					],
					"name": "tokenURI",
					"outputs": [
						{
							"internalType": "string",
							"name": "",
							"type": "string"
						}
					],
					"stateMutability": "view",
					"type": "function"
				},
				{
					"inputs": [
						{
							"internalType": "address",
							"name": "from",
							"type": "address"
						},
						{
							"internalType": "address",
							"name": "to",
							"type": "address"
						},
						{
							"internalType": "uint256",
							"name": "tokenId",
							"type": "uint256"
						}
					],
					"name": "transferFrom",
					"outputs": [],
					"stateMutability": "nonpayable",
					"type": "function"
				}
			],
			"devdoc": {
				"errors": {
					"ERC721IncorrectOwner(address,uint256,address)": [
						{
							"details": "Indicates an error related to the ownership over a particular token. Used in transfers.",
							"params": {
								"owner": "Address of the current owner of a token.",
								"sender": "Address whose tokens are being transferred.",
								"tokenId": "Identifier number of a token."
							}
						}
					],
					"ERC721InsufficientApproval(address,uint256)": [
						{
							"details": "Indicates a failure with the `operator`’s approval. Used in transfers.",
							"params": {
								"operator": "Address that may be allowed to operate on tokens without being their owner.",
								"tokenId": "Identifier number of a token."
							}
						}
					],
					"ERC721InvalidApprover(address)": [
						{
							"details": "Indicates a failure with the `approver` of a token to be approved. Used in approvals.",
							"params": {
								"approver": "Address initiating an approval operation."
							}
						}
					],
					"ERC721InvalidOperator(address)": [
						{
							"details": "Indicates a failure with the `operator` to be approved. Used in approvals.",
							"params": {
								"operator": "Address that may be allowed to operate on tokens without being their owner."
							}
						}
					],
					"ERC721InvalidOwner(address)": [
						{
							"details": "Indicates that an address can't be an owner. For example, `address(0)` is a forbidden owner in ERC-20. Used in balance queries.",
							"params": {
								"owner": "Address of the current owner of a token."
							}
						}
					],
					"ERC721InvalidReceiver(address)": [
						{
							"details": "Indicates a failure with the token `receiver`. Used in transfers.",
							"params": {
								"receiver": "Address to which tokens are being transferred."
							}
						}
					],
					"ERC721InvalidSender(address)": [
						{
							"details": "Indicates a failure with the token `sender`. Used in transfers.",
							"params": {
								"sender": "Address whose tokens are being transferred."
							}
						}
					],
					"ERC721NonexistentToken(uint256)": [
						{
							"details": "Indicates a `tokenId` whose `owner` is the zero address.",
							"params": {
								"tokenId": "Identifier number of a token."
							}
						}
					]
				},
				"events": {
					"Approval(address,address,uint256)": {
						"details": "Emitted when `owner` enables `approved` to manage the `tokenId` token."
					},
					"ApprovalForAll(address,address,bool)": {
						"details": "Emitted when `owner` enables or disables (`approved`) `operator` to manage all of its assets."
					},
					"Transfer(address,address,uint256)": {
						"details": "Emitted when `tokenId` token is transferred from `from` to `to`."
					}
				},
				"kind": "dev",
				"methods": {
					"approve(address,uint256)": {
						"details": "See {IERC721-approve}."
					},
					"balanceOf(address)": {
						"details": "See {IERC721-balanceOf}."
					},
					"getApproved(uint256)": {
						"details": "See {IERC721-getApproved}."
					},
					"isApprovedForAll(address,address)": {
						"details": "See {IERC721-isApprovedForAll}."
					},
					"name()": {
						"details": "See {IERC721Metadata-name}."
					},
					"ownerOf(uint256)": {
						"details": "See {IERC721-ownerOf}."
					},
					"safeTransferFrom(address,address,uint256)": {
						"details": "See {IERC721-safeTransferFrom}."
					},
					"safeTransferFrom(address,address,uint256,bytes)": {
						"details": "See {IERC721-safeTransferFrom}."
					},
					"setApprovalForAll(address,bool)": {
						"details": "See {IERC721-setApprovalForAll}."
					},
					"supportsInterface(bytes4)": {
						"details": "See {IERC165-supportsInterface}."
					},
					"symbol()": {
						"details": "See {IERC721Metadata-symbol}."
					},
					"tokenURI(uint256)": {
						"details": "See {IERC721Metadata-tokenURI}."
					},
					"transferFrom(address,address,uint256)": {
						"details": "See {IERC721-transferFrom}."
					}
				},
				"version": 1
			},
			"evm": {
				"assembly": "    /* \"Standard_ERC721.sol\":121:437  contract Standard_ERC721 is ERC721 {... */\n  mstore(0x40, 0x80)\n    /* \"Standard_ERC721.sol\":198:251  constructor() ERC721(\"Standard ERC721\", \"SERC721\") {} */\n  callvalue\n  dup1\n  iszero\n  tag_1\n  jumpi\n  0x00\n  dup1\n  revert\ntag_1:\n  pop\n    /* \"@openzeppelin/contracts/token/ERC721/ERC721.sol\":1380:1493  constructor(string memory name_, string memory symbol_) {... */\n  mload(0x40)\n  dup1\n  0x40\n  add\n  0x40\n  mstore\n  dup1\n  0x0f\n  dup2\n  mstore\n  0x20\n  add\n  shl(0x88, 0x5374616e6461726420455243373231)\n  dup2\n  mstore\n  pop\n  mload(0x40)\n  dup1\n  0x40\n  add\n  0x40\n  mstore\n  dup1\n  0x07\n  dup2\n  mstore\n  0x20\n  add\n  shl(0xc8, 0x53455243373231)\n  dup2\n  mstore\n  pop\n    /* \"@openzeppelin/contracts/token/ERC721/ERC721.sol\":1454:1459  name_ */\n  dup2\n    /* \"@openzeppelin/contracts/token/ERC721/ERC721.sol\":1446:1451  _name */\n  0x00\n    /* \"@openzeppelin/contracts/token/ERC721/ERC721.sol\":1446:1459  _name = name_ */\n  swap1\n  dup2\n  tag_5\n  swap2\n  swap1\n  tag_6\n  jump\t// in\ntag_5:\n  pop\n    /* \"@openzeppelin/contracts/token/ERC721/ERC721.sol\":1469:1476  _symbol */\n  0x01\n    /* \"@openzeppelin/contracts/token/ERC721/ERC721.sol\":1469:1486  _symbol = symbol_ */\n  tag_7\n    /* \"@openzeppelin/contracts/token/ERC721/ERC721.sol\":1479:1486  symbol_ */\n  dup3\n    /* \"@openzeppelin/contracts/token/ERC721/ERC721.sol\":1469:1476  _symbol */\n  dup3\n    /* \"@openzeppelin/contracts/token/ERC721/ERC721.sol\":1469:1486  _symbol = symbol_ */\n  tag_6\n  jump\t// in\ntag_7:\n  pop\n    /* \"@openzeppelin/contracts/token/ERC721/ERC721.sol\":1380:1493  constructor(string memory name_, string memory symbol_) {... */\n  pop\n  pop\n    /* \"Standard_ERC721.sol\":121:437  contract Standard_ERC721 is ERC721 {... */\n  jump(tag_15)\n    /* \"#utility.yul\":14:141   */\ntag_10:\n    /* \"#utility.yul\":75:85   */\n  0x4e487b71\n    /* \"#utility.yul\":70:73   */\n  0xe0\n    /* \"#utility.yul\":66:86   */\n  shl\n    /* \"#utility.yul\":63:64   */\n  0x00\n    /* \"#utility.yul\":56:87   */\n  mstore\n    /* \"#utility.yul\":106:110   */\n  0x41\n    /* \"#utility.yul\":103:104   */\n  0x04\n    /* \"#utility.yul\":96:111   */\n  mstore\n    /* \"#utility.yul\":130:134   */\n  0x24\n    /* \"#utility.yul\":127:128   */\n  0x00\n    /* \"#utility.yul\":120:135   */\n  revert\n    /* \"#utility.yul\":146:526   */\ntag_11:\n    /* \"#utility.yul\":225:226   */\n  0x01\n    /* \"#utility.yul\":221:233   */\n  dup2\n  dup2\n  shr\n  swap1\n    /* \"#utility.yul\":268:280   */\n  dup3\n  and\n  dup1\n    /* \"#utility.yul\":289:350   */\n  tag_18\n  jumpi\n    /* \"#utility.yul\":343:347   */\n  0x7f\n    /* \"#utility.yul\":335:341   */\n  dup3\n    /* \"#utility.yul\":331:348   */\n  and\n    /* \"#utility.yul\":321:348   */\n  swap2\n  pop\n    /* \"#utility.yul\":289:350   */\ntag_18:\n    /* \"#utility.yul\":396:398   */\n  0x20\n    /* \"#utility.yul\":388:394   */\n  dup3\n    /* \"#utility.yul\":385:399   */\n  lt\n    /* \"#utility.yul\":365:383   */\n  dup2\n    /* \"#utility.yul\":362:400   */\n  sub\n    /* \"#utility.yul\":359:520   */\n  tag_19\n  jumpi\n    /* \"#utility.yul\":442:452   */\n  0x4e487b71\n    /* \"#utility.yul\":437:440   */\n  0xe0\n    /* \"#utility.yul\":433:453   */\n  shl\n    /* \"#utility.yul\":430:431   */\n  0x00\n    /* \"#utility.yul\":423:454   */\n  mstore\n    /* \"#utility.yul\":477:481   */\n  0x22\n    /* \"#utility.yul\":474:475   */\n  0x04\n    /* \"#utility.yul\":467:482   */\n  mstore\n    /* \"#utility.yul\":505:509   */\n  0x24\n    /* \"#utility.yul\":502:503   */\n  0x00\n    /* \"#utility.yul\":495:510   */\n  revert\n    /* \"#utility.yul\":359:520   */\ntag_19:\n  pop\n    /* \"#utility.yul\":146:526   */\n  swap2\n  swap1\n  pop\n  jump\t// out\n    /* \"#utility.yul\":657:1202   */\ntag_13:\n    /* \"#utility.yul\":759:761   */\n  0x1f\n    /* \"#utility.yul\":754:757   */\n  dup3\n    /* \"#utility.yul\":751:762   */\n  gt\n    /* \"#utility.yul\":748:1196   */\n  iszero\n  tag_22\n  jumpi\n    /* \"#utility.yul\":795:796   */\n  0x00\n    /* \"#utility.yul\":820:825   */\n  dup2\n    /* \"#utility.yul\":816:818   */\n  dup2\n    /* \"#utility.yul\":809:826   */\n  mstore\n    /* \"#utility.yul\":865:869   */\n  0x20\n    /* \"#utility.yul\":861:863   */\n  dup2\n    /* \"#utility.yul\":851:870   */\n  keccak256\n    /* \"#utility.yul\":935:937   */\n  0x1f\n    /* \"#utility.yul\":923:933   */\n  dup6\n    /* \"#utility.yul\":919:938   */\n  add\n    /* \"#utility.yul\":916:917   */\n  0x05\n    /* \"#utility.yul\":912:939   */\n  shr\n    /* \"#utility.yul\":906:910   */\n  dup2\n    /* \"#utility.yul\":902:940   */\n  add\n    /* \"#utility.yul\":971:975   */\n  0x20\n    /* \"#utility.yul\":959:969   */\n  dup7\n    /* \"#utility.yul\":956:976   */\n  lt\n    /* \"#utility.yul\":953:1000   */\n  iszero\n  tag_23\n  jumpi\n  pop\n    /* \"#utility.yul\":994:998   */\n  dup1\n    /* \"#utility.yul\":953:1000   */\ntag_23:\n    /* \"#utility.yul\":1049:1051   */\n  0x1f\n    /* \"#utility.yul\":1044:1047   */\n  dup6\n    /* \"#utility.yul\":1040:1052   */\n  add\n    /* \"#utility.yul\":1037:1038   */\n  0x05\n    /* \"#utility.yul\":1033:1053   */\n  shr\n    /* \"#utility.yul\":1027:1031   */\n  dup3\n    /* \"#utility.yul\":1023:1054   */\n  add\n    /* \"#utility.yul\":1013:1054   */\n  swap2\n  pop\n    /* \"#utility.yul\":1104:1186   */\ntag_24:\n    /* \"#utility.yul\":1122:1124   */\n  dup2\n    /* \"#utility.yul\":1115:1120   */\n  dup2\n    /* \"#utility.yul\":1112:1125   */\n  lt\n    /* \"#utility.yul\":1104:1186   */\n  iszero\n  tag_26\n  jumpi\n    /* \"#utility.yul\":1167:1184   */\n  dup3\n  dup2\n  sstore\n    /* \"#utility.yul\":1148:1149   */\n  0x01\n    /* \"#utility.yul\":1137:1150   */\n  add\n    /* \"#utility.yul\":1104:1186   */\n  jump(tag_24)\ntag_26:\n    /* \"#utility.yul\":1108:1111   */\n  pop\n  pop\n  pop\n    /* \"#utility.yul\":748:1196   */\ntag_22:\n    /* \"#utility.yul\":657:1202   */\n  pop\n  pop\n  pop\n  jump\t// out\n    /* \"#utility.yul\":1378:2730   */\ntag_6:\n    /* \"#utility.yul\":1498:1508   */\n  dup2\n  mload\n  sub(shl(0x40, 0x01), 0x01)\n    /* \"#utility.yul\":1520:1550   */\n  dup2\n  gt\n    /* \"#utility.yul\":1517:1573   */\n  iszero\n  tag_30\n  jumpi\n    /* \"#utility.yul\":1553:1571   */\n  tag_30\n  tag_10\n  jump\t// in\ntag_30:\n    /* \"#utility.yul\":1582:1679   */\n  tag_31\n    /* \"#utility.yul\":1672:1678   */\n  dup2\n    /* \"#utility.yul\":1632:1670   */\n  tag_32\n    /* \"#utility.yul\":1664:1668   */\n  dup5\n    /* \"#utility.yul\":1658:1669   */\n  sload\n    /* \"#utility.yul\":1632:1670   */\n  tag_11\n  jump\t// in\ntag_32:\n    /* \"#utility.yul\":1626:1630   */\n  dup5\n    /* \"#utility.yul\":1582:1679   */\n  tag_13\n  jump\t// in\ntag_31:\n    /* \"#utility.yul\":1734:1738   */\n  0x20\n  dup1\n    /* \"#utility.yul\":1798:1800   */\n  0x1f\n    /* \"#utility.yul\":1787:1801   */\n  dup4\n  gt\n    /* \"#utility.yul\":1815:1816   */\n  0x01\n    /* \"#utility.yul\":1810:2473   */\n  dup2\n  eq\n  tag_34\n  jumpi\n    /* \"#utility.yul\":2517:2518   */\n  0x00\n    /* \"#utility.yul\":2534:2540   */\n  dup5\n    /* \"#utility.yul\":2531:2620   */\n  iszero\n  tag_35\n  jumpi\n  pop\n    /* \"#utility.yul\":2586:2605   */\n  dup6\n  dup4\n  add\n    /* \"#utility.yul\":2580:2606   */\n  mload\n    /* \"#utility.yul\":2531:2620   */\ntag_35:\n  not(0x00)\n    /* \"#utility.yul\":1335:1336   */\n  0x03\n    /* \"#utility.yul\":1331:1342   */\n  dup7\n  swap1\n  shl\n    /* \"#utility.yul\":1327:1351   */\n  shr\n    /* \"#utility.yul\":1323:1352   */\n  not\n    /* \"#utility.yul\":1313:1353   */\n  and\n    /* \"#utility.yul\":1359:1360   */\n  0x01\n    /* \"#utility.yul\":1355:1366   */\n  dup6\n  swap1\n  shl\n    /* \"#utility.yul\":1310:1367   */\n  or\n    /* \"#utility.yul\":2633:2714   */\n  dup6\n  sstore\n    /* \"#utility.yul\":1780:2724   */\n  jump(tag_26)\n    /* \"#utility.yul\":1810:2473   */\ntag_34:\n    /* \"#utility.yul\":604:605   */\n  0x00\n    /* \"#utility.yul\":597:611   */\n  dup6\n  dup2\n  mstore\n    /* \"#utility.yul\":641:645   */\n  0x20\n    /* \"#utility.yul\":628:646   */\n  dup2\n  keccak256\n  not(0x1f)\n    /* \"#utility.yul\":1846:1866   */\n  dup7\n  and\n  swap2\n    /* \"#utility.yul\":1964:2200   */\ntag_38:\n    /* \"#utility.yul\":1978:1985   */\n  dup3\n    /* \"#utility.yul\":1975:1976   */\n  dup2\n    /* \"#utility.yul\":1972:1986   */\n  lt\n    /* \"#utility.yul\":1964:2200   */\n  iszero\n  tag_40\n  jumpi\n    /* \"#utility.yul\":2067:2086   */\n  dup9\n  dup7\n  add\n    /* \"#utility.yul\":2061:2087   */\n  mload\n    /* \"#utility.yul\":2046:2088   */\n  dup3\n  sstore\n    /* \"#utility.yul\":2159:2186   */\n  swap5\n  dup5\n  add\n  swap5\n    /* \"#utility.yul\":2127:2128   */\n  0x01\n    /* \"#utility.yul\":2115:2129   */\n  swap1\n  swap2\n  add\n  swap1\n    /* \"#utility.yul\":1994:2013   */\n  dup5\n  add\n    /* \"#utility.yul\":1964:2200   */\n  jump(tag_38)\ntag_40:\n    /* \"#utility.yul\":1968:1971   */\n  pop\n    /* \"#utility.yul\":2228:2234   */\n  dup6\n    /* \"#utility.yul\":2219:2226   */\n  dup3\n    /* \"#utility.yul\":2216:2235   */\n  lt\n    /* \"#utility.yul\":2213:2414   */\n  iszero\n  tag_41\n  jumpi\n    /* \"#utility.yul\":2289:2308   */\n  dup8\n  dup6\n  add\n    /* \"#utility.yul\":2283:2309   */\n  mload\n  not(0x00)\n    /* \"#utility.yul\":2372:2373   */\n  0x03\n    /* \"#utility.yul\":2368:2382   */\n  dup9\n  swap1\n  shl\n    /* \"#utility.yul\":2384:2387   */\n  0xf8\n    /* \"#utility.yul\":2364:2388   */\n  and\n    /* \"#utility.yul\":2360:2397   */\n  shr\n    /* \"#utility.yul\":2356:2398   */\n  not\n    /* \"#utility.yul\":2341:2399   */\n  and\n    /* \"#utility.yul\":2326:2400   */\n  dup2\n  sstore\n    /* \"#utility.yul\":2213:2414   */\ntag_41:\n  pop\n  pop\n  pop\n  pop\n  pop\n    /* \"#utility.yul\":2460:2461   */\n  0x01\n    /* \"#utility.yul\":2444:2458   */\n  swap1\n  dup2\n  shl\n    /* \"#utility.yul\":2440:2462   */\n  add\n    /* \"#utility.yul\":2427:2463   */\n  swap1\n  sstore\n  pop\n    /* \"#utility.yul\":1378:2730   */\n  jump\t// out\ntag_15:\n    /* \"Standard_ERC721.sol\":121:437  contract Standard_ERC721 is ERC721 {... */\n  dataSize(sub_0)\n  dup1\n  dataOffset(sub_0)\n  0x00\n  codecopy\n  0x00\n  return\nstop\n\nsub_0: assembly {\n        /* \"Standard_ERC721.sol\":121:437  contract Standard_ERC721 is ERC721 {... */\n      mstore(0x40, 0x80)\n      callvalue\n      dup1\n      iszero\n      tag_1\n      jumpi\n      0x00\n      dup1\n      revert\n    tag_1:\n      pop\n      jumpi(tag_2, lt(calldatasize, 0x04))\n      shr(0xe0, calldataload(0x00))\n      dup1\n      0x6352211e\n      gt\n      tag_18\n      jumpi\n      dup1\n      0xa22cb465\n      gt\n      tag_19\n      jumpi\n      dup1\n      0xa22cb465\n      eq\n      tag_14\n      jumpi\n      dup1\n      0xb88d4fde\n      eq\n      tag_15\n      jumpi\n      dup1\n      0xc87b56dd\n      eq\n      tag_16\n      jumpi\n      dup1\n      0xe985e9c5\n      eq\n      tag_17\n      jumpi\n      0x00\n      dup1\n      revert\n    tag_19:\n      dup1\n      0x6352211e\n      eq\n      tag_10\n      jumpi\n      dup1\n      0x70a08231\n      eq\n      tag_11\n      jumpi\n      dup1\n      0x75794a3c\n      eq\n      tag_12\n      jumpi\n      dup1\n      0x95d89b41\n      eq\n      tag_13\n      jumpi\n      0x00\n      dup1\n      revert\n    tag_18:\n      dup1\n      0x095ea7b3\n      gt\n      tag_20\n      jumpi\n      dup1\n      0x095ea7b3\n      eq\n      tag_6\n      jumpi\n      dup1\n      0x1249c58b\n      eq\n      tag_7\n      jumpi\n      dup1\n      0x23b872dd\n      eq\n      tag_8\n      jumpi\n      dup1\n      0x42842e0e\n      eq\n      tag_9\n      jumpi\n      0x00\n      dup1\n      revert\n    tag_20:\n      dup1\n      0x01ffc9a7\n      eq\n      tag_3\n      jumpi\n      dup1\n      0x06fdde03\n      eq\n      tag_4\n      jumpi\n      dup1\n      0x081812fc\n      eq\n      tag_5\n      jumpi\n    tag_2:\n      0x00\n      dup1\n      revert\n        /* \"@openzeppelin/contracts/token/ERC721/ERC721.sol\":1560:1860  function supportsInterface(bytes4 interfaceId) public view virtual override(ERC165, IERC165) returns (bool) {... */\n    tag_3:\n      tag_21\n      tag_22\n      calldatasize\n      0x04\n      tag_23\n      jump\t// in\n    tag_22:\n      tag_24\n      jump\t// in\n    tag_21:\n      mload(0x40)\n        /* \"#utility.yul\":565:579   */\n      swap1\n      iszero\n        /* \"#utility.yul\":558:580   */\n      iszero\n        /* \"#utility.yul\":540:581   */\n      dup2\n      mstore\n        /* \"#utility.yul\":528:530   */\n      0x20\n        /* \"#utility.yul\":513:531   */\n      add\n        /* \"@openzeppelin/contracts/token/ERC721/ERC721.sol\":1560:1860  function supportsInterface(bytes4 interfaceId) public view virtual override(ERC165, IERC165) returns (bool) {... */\n    tag_25:\n      mload(0x40)\n      dup1\n      swap2\n      sub\n      swap1\n      return\n        /* \"@openzeppelin/contracts/token/ERC721/ERC721.sol\":2364:2453  function name() public view virtual returns (string memory) {... */\n    tag_4:\n      tag_27\n      tag_28\n      jump\t// in\n    tag_27:\n      mload(0x40)\n      tag_25\n      swap2\n      swap1\n      tag_30\n      jump\t// in\n        /* \"@openzeppelin/contracts/token/ERC721/ERC721.sol\":3496:3650  function getApproved(uint256 tokenId) public view virtual returns (address) {... */\n    tag_5:\n      tag_31\n      tag_32\n      calldatasize\n      0x04\n      tag_33\n      jump\t// in\n    tag_32:\n      tag_34\n      jump\t// in\n    tag_31:\n      mload(0x40)\n      sub(shl(0xa0, 0x01), 0x01)\n        /* \"#utility.yul\":1697:1729   */\n      swap1\n      swap2\n      and\n        /* \"#utility.yul\":1679:1730   */\n      dup2\n      mstore\n        /* \"#utility.yul\":1667:1669   */\n      0x20\n        /* \"#utility.yul\":1652:1670   */\n      add\n        /* \"@openzeppelin/contracts/token/ERC721/ERC721.sol\":3496:3650  function getApproved(uint256 tokenId) public view virtual returns (address) {... */\n      tag_25\n        /* \"#utility.yul\":1533:1736   */\n      jump\n        /* \"@openzeppelin/contracts/token/ERC721/ERC721.sol\":3322:3435  function approve(address to, uint256 tokenId) public virtual {... */\n    tag_6:\n      tag_37\n      tag_38\n      calldatasize\n      0x04\n      tag_39\n      jump\t// in\n    tag_38:\n      tag_40\n      jump\t// in\n    tag_37:\n      stop\n        /* \"Standard_ERC721.sol\":332:434  function mint() external {... */\n    tag_7:\n      tag_37\n      tag_42\n      jump\t// in\n        /* \"@openzeppelin/contracts/token/ERC721/ERC721.sol\":4142:4720  function transferFrom(address from, address to, uint256 tokenId) public virtual {... */\n    tag_8:\n      tag_37\n      tag_44\n      calldatasize\n      0x04\n      tag_45\n      jump\t// in\n    tag_44:\n      tag_46\n      jump\t// in\n        /* \"@openzeppelin/contracts/token/ERC721/ERC721.sol\":4786:4918  function safeTransferFrom(address from, address to, uint256 tokenId) public {... */\n    tag_9:\n      tag_37\n      tag_48\n      calldatasize\n      0x04\n      tag_45\n      jump\t// in\n    tag_48:\n      tag_49\n      jump\t// in\n        /* \"@openzeppelin/contracts/token/ERC721/ERC721.sol\":2184:2302  function ownerOf(uint256 tokenId) public view virtual returns (address) {... */\n    tag_10:\n      tag_31\n      tag_51\n      calldatasize\n      0x04\n      tag_33\n      jump\t// in\n    tag_51:\n      tag_52\n      jump\t// in\n        /* \"@openzeppelin/contracts/token/ERC721/ERC721.sol\":1919:2127  function balanceOf(address owner) public view virtual returns (uint256) {... */\n    tag_11:\n      tag_54\n      tag_55\n      calldatasize\n      0x04\n      tag_56\n      jump\t// in\n    tag_55:\n      tag_57\n      jump\t// in\n    tag_54:\n      mload(0x40)\n        /* \"#utility.yul\":2848:2873   */\n      swap1\n      dup2\n      mstore\n        /* \"#utility.yul\":2836:2838   */\n      0x20\n        /* \"#utility.yul\":2821:2839   */\n      add\n        /* \"@openzeppelin/contracts/token/ERC721/ERC721.sol\":1919:2127  function balanceOf(address owner) public view virtual returns (uint256) {... */\n      tag_25\n        /* \"#utility.yul\":2702:2879   */\n      jump\n        /* \"Standard_ERC721.sol\":163:189  uint256 public nextTokenId */\n    tag_12:\n      tag_54\n      sload(0x06)\n      dup2\n      jump\n        /* \"@openzeppelin/contracts/token/ERC721/ERC721.sol\":2517:2610  function symbol() public view virtual returns (string memory) {... */\n    tag_13:\n      tag_27\n      tag_64\n      jump\t// in\n        /* \"@openzeppelin/contracts/token/ERC721/ERC721.sol\":3717:3861  function setApprovalForAll(address operator, bool approved) public virtual {... */\n    tag_14:\n      tag_37\n      tag_67\n      calldatasize\n      0x04\n      tag_68\n      jump\t// in\n    tag_67:\n      tag_69\n      jump\t// in\n        /* \"@openzeppelin/contracts/token/ERC721/ERC721.sol\":4984:5217  function safeTransferFrom(address from, address to, uint256 tokenId, bytes memory data) public virtual {... */\n    tag_15:\n      tag_37\n      tag_71\n      calldatasize\n      0x04\n      tag_72\n      jump\t// in\n    tag_71:\n      tag_73\n      jump\t// in\n        /* \"@openzeppelin/contracts/token/ERC721/ERC721.sol\":2676:2931  function tokenURI(uint256 tokenId) public view virtual returns (string memory) {... */\n    tag_16:\n      tag_27\n      tag_75\n      calldatasize\n      0x04\n      tag_33\n      jump\t// in\n    tag_75:\n      tag_76\n      jump\t// in\n        /* \"@openzeppelin/contracts/token/ERC721/ERC721.sol\":3927:4080  function isApprovedForAll(address owner, address operator) public view virtual returns (bool) {... */\n    tag_17:\n      tag_21\n      tag_79\n      calldatasize\n      0x04\n      tag_80\n      jump\t// in\n    tag_79:\n      tag_81\n      jump\t// in\n        /* \"@openzeppelin/contracts/token/ERC721/ERC721.sol\":1560:1860  function supportsInterface(bytes4 interfaceId) public view virtual override(ERC165, IERC165) returns (bool) {... */\n    tag_24:\n        /* \"@openzeppelin/contracts/token/ERC721/ERC721.sol\":1662:1666  bool */\n      0x00\n      not(sub(shl(0xe0, 0x01), 0x01))\n        /* \"@openzeppelin/contracts/token/ERC721/ERC721.sol\":1697:1737  interfaceId == type(IERC721).interfaceId */\n      dup3\n      and\n      shl(0xe0, 0x80ac58cd)\n      eq\n      dup1\n        /* \"@openzeppelin/contracts/token/ERC721/ERC721.sol\":1697:1801  interfaceId == type(IERC721).interfaceId ||... */\n      tag_84\n      jumpi\n      pop\n      not(sub(shl(0xe0, 0x01), 0x01))\n        /* \"@openzeppelin/contracts/token/ERC721/ERC721.sol\":1753:1801  interfaceId == type(IERC721Metadata).interfaceId */\n      dup3\n      and\n      shl(0xe0, 0x5b5e139f)\n      eq\n        /* \"@openzeppelin/contracts/token/ERC721/ERC721.sol\":1697:1801  interfaceId == type(IERC721).interfaceId ||... */\n    tag_84:\n        /* \"@openzeppelin/contracts/token/ERC721/ERC721.sol\":1697:1853  interfaceId == type(IERC721).interfaceId ||... */\n      dup1\n      tag_86\n      jumpi\n      pop\n      shl(0xe0, 0x01ffc9a7)\n      not(sub(shl(0xe0, 0x01), 0x01))\n        /* \"@openzeppelin/contracts/utils/introspection/ERC165.sol\":862:902  interfaceId == type(IERC165).interfaceId */\n      dup4\n      and\n      eq\n        /* \"@openzeppelin/contracts/token/ERC721/ERC721.sol\":1817:1853  super.supportsInterface(interfaceId) */\n    tag_86:\n        /* \"@openzeppelin/contracts/token/ERC721/ERC721.sol\":1678:1853  return... */\n      swap3\n        /* \"@openzeppelin/contracts/token/ERC721/ERC721.sol\":1560:1860  function supportsInterface(bytes4 interfaceId) public view virtual override(ERC165, IERC165) returns (bool) {... */\n      swap2\n      pop\n      pop\n      jump\t// out\n        /* \"@openzeppelin/contracts/token/ERC721/ERC721.sol\":2364:2453  function name() public view virtual returns (string memory) {... */\n    tag_28:\n        /* \"@openzeppelin/contracts/token/ERC721/ERC721.sol\":2409:2422  string memory */\n      0x60\n        /* \"@openzeppelin/contracts/token/ERC721/ERC721.sol\":2441:2446  _name */\n      0x00\n        /* \"@openzeppelin/contracts/token/ERC721/ERC721.sol\":2434:2446  return _name */\n      dup1\n      sload\n      tag_89\n      swap1\n      tag_90\n      jump\t// in\n    tag_89:\n      dup1\n      0x1f\n      add\n      0x20\n      dup1\n      swap2\n      div\n      mul\n      0x20\n      add\n      mload(0x40)\n      swap1\n      dup2\n      add\n      0x40\n      mstore\n      dup1\n      swap3\n      swap2\n      swap1\n      dup2\n      dup2\n      mstore\n      0x20\n      add\n      dup3\n      dup1\n      sload\n      tag_91\n      swap1\n      tag_90\n      jump\t// in\n    tag_91:\n      dup1\n      iszero\n      tag_92\n      jumpi\n      dup1\n      0x1f\n      lt\n      tag_93\n      jumpi\n      0x0100\n      dup1\n      dup4\n      sload\n      div\n      mul\n      dup4\n      mstore\n      swap2\n      0x20\n      add\n      swap2\n      jump(tag_92)\n    tag_93:\n      dup3\n      add\n      swap2\n      swap1\n      0x00\n      mstore\n      keccak256(0x00, 0x20)\n      swap1\n    tag_94:\n      dup2\n      sload\n      dup2\n      mstore\n      swap1\n      0x01\n      add\n      swap1\n      0x20\n      add\n      dup1\n      dup4\n      gt\n      tag_94\n      jumpi\n      dup3\n      swap1\n      sub\n      0x1f\n      and\n      dup3\n      add\n      swap2\n    tag_92:\n      pop\n      pop\n      pop\n      pop\n      pop\n      swap1\n      pop\n        /* \"@openzeppelin/contracts/token/ERC721/ERC721.sol\":2364:2453  function name() public view virtual returns (string memory) {... */\n      swap1\n      jump\t// out\n        /* \"@openzeppelin/contracts/token/ERC721/ERC721.sol\":3496:3650  function getApproved(uint256 tokenId) public view virtual returns (address) {... */\n    tag_34:\n        /* \"@openzeppelin/contracts/token/ERC721/ERC721.sol\":3563:3570  address */\n      0x00\n        /* \"@openzeppelin/contracts/token/ERC721/ERC721.sol\":3582:3604  _requireOwned(tokenId) */\n      tag_96\n        /* \"@openzeppelin/contracts/token/ERC721/ERC721.sol\":3596:3603  tokenId */\n      dup3\n        /* \"@openzeppelin/contracts/token/ERC721/ERC721.sol\":3582:3595  _requireOwned */\n      tag_97\n        /* \"@openzeppelin/contracts/token/ERC721/ERC721.sol\":3582:3604  _requireOwned(tokenId) */\n      jump\t// in\n    tag_96:\n      pop\n        /* \"@openzeppelin/contracts/token/ERC721/ERC721.sol\":6033:6040  address */\n      0x00\n        /* \"@openzeppelin/contracts/token/ERC721/ERC721.sol\":6059:6083  _tokenApprovals[tokenId] */\n      dup3\n      dup2\n      mstore\n        /* \"@openzeppelin/contracts/token/ERC721/ERC721.sol\":6059:6074  _tokenApprovals */\n      0x04\n        /* \"@openzeppelin/contracts/token/ERC721/ERC721.sol\":6059:6083  _tokenApprovals[tokenId] */\n      0x20\n      mstore\n      0x40\n      swap1\n      keccak256\n      sload\n      sub(shl(0xa0, 0x01), 0x01)\n      and\n        /* \"@openzeppelin/contracts/token/ERC721/ERC721.sol\":3622:3643  _getApproved(tokenId) */\n      tag_86\n        /* \"@openzeppelin/contracts/token/ERC721/ERC721.sol\":5963:6090  function _getApproved(uint256 tokenId) internal view virtual returns (address) {... */\n      jump\n        /* \"@openzeppelin/contracts/token/ERC721/ERC721.sol\":3322:3435  function approve(address to, uint256 tokenId) public virtual {... */\n    tag_40:\n        /* \"@openzeppelin/contracts/token/ERC721/ERC721.sol\":3393:3428  _approve(to, tokenId, _msgSender()) */\n      tag_101\n        /* \"@openzeppelin/contracts/token/ERC721/ERC721.sol\":3402:3404  to */\n      dup3\n        /* \"@openzeppelin/contracts/token/ERC721/ERC721.sol\":3406:3413  tokenId */\n      dup3\n        /* \"@openzeppelin/contracts/utils/Context.sol\":735:745  msg.sender */\n      caller\n        /* \"@openzeppelin/contracts/token/ERC721/ERC721.sol\":3393:3401  _approve */\n      tag_104\n        /* \"@openzeppelin/contracts/token/ERC721/ERC721.sol\":3393:3428  _approve(to, tokenId, _msgSender()) */\n      jump\t// in\n    tag_101:\n        /* \"@openzeppelin/contracts/token/ERC721/ERC721.sol\":3322:3435  function approve(address to, uint256 tokenId) public virtual {... */\n      pop\n      pop\n      jump\t// out\n        /* \"Standard_ERC721.sol\":332:434  function mint() external {... */\n    tag_42:\n        /* \"Standard_ERC721.sol\":368:402  _safeMint(msg.sender, nextTokenId) */\n      tag_106\n        /* \"Standard_ERC721.sol\":378:388  msg.sender */\n      caller\n        /* \"Standard_ERC721.sol\":390:401  nextTokenId */\n      sload(0x06)\n        /* \"Standard_ERC721.sol\":368:377  _safeMint */\n      tag_107\n        /* \"Standard_ERC721.sol\":368:402  _safeMint(msg.sender, nextTokenId) */\n      jump\t// in\n    tag_106:\n        /* \"Standard_ERC721.sol\":413:424  nextTokenId */\n      0x06\n        /* \"Standard_ERC721.sol\":413:426  nextTokenId++ */\n      dup1\n      sload\n      swap1\n        /* \"Standard_ERC721.sol\":413:424  nextTokenId */\n      0x00\n        /* \"Standard_ERC721.sol\":413:426  nextTokenId++ */\n      tag_108\n      dup4\n      tag_109\n      jump\t// in\n    tag_108:\n      swap2\n      swap1\n      pop\n      sstore\n      pop\n        /* \"Standard_ERC721.sol\":332:434  function mint() external {... */\n      jump\t// out\n        /* \"@openzeppelin/contracts/token/ERC721/ERC721.sol\":4142:4720  function transferFrom(address from, address to, uint256 tokenId) public virtual {... */\n    tag_46:\n      sub(shl(0xa0, 0x01), 0x01)\n        /* \"@openzeppelin/contracts/token/ERC721/ERC721.sol\":4236:4252  to == address(0) */\n      dup3\n      and\n        /* \"@openzeppelin/contracts/token/ERC721/ERC721.sol\":4232:4319  if (to == address(0)) {... */\n      tag_111\n      jumpi\n        /* \"@openzeppelin/contracts/token/ERC721/ERC721.sol\":4275:4308  ERC721InvalidReceiver(address(0)) */\n      mload(0x40)\n      shl(0xe1, 0x32505749)\n      dup2\n      mstore\n        /* \"@openzeppelin/contracts/token/ERC721/ERC721.sol\":4305:4306  0 */\n      0x00\n        /* \"@openzeppelin/contracts/token/ERC721/ERC721.sol\":4275:4308  ERC721InvalidReceiver(address(0)) */\n      0x04\n      dup3\n      add\n        /* \"#utility.yul\":1679:1730   */\n      mstore\n        /* \"#utility.yul\":1652:1670   */\n      0x24\n      add\n        /* \"@openzeppelin/contracts/token/ERC721/ERC721.sol\":4275:4308  ERC721InvalidReceiver(address(0)) */\n    tag_112:\n      mload(0x40)\n      dup1\n      swap2\n      sub\n      swap1\n      revert\n        /* \"@openzeppelin/contracts/token/ERC721/ERC721.sol\":4232:4319  if (to == address(0)) {... */\n    tag_111:\n        /* \"@openzeppelin/contracts/token/ERC721/ERC721.sol\":4537:4558  address previousOwner */\n      0x00\n        /* \"@openzeppelin/contracts/token/ERC721/ERC721.sol\":4561:4595  _update(to, tokenId, _msgSender()) */\n      tag_113\n        /* \"@openzeppelin/contracts/token/ERC721/ERC721.sol\":4569:4571  to */\n      dup4\n        /* \"@openzeppelin/contracts/token/ERC721/ERC721.sol\":4573:4580  tokenId */\n      dup4\n        /* \"@openzeppelin/contracts/utils/Context.sol\":735:745  msg.sender */\n      caller\n        /* \"@openzeppelin/contracts/token/ERC721/ERC721.sol\":4561:4568  _update */\n      tag_115\n        /* \"@openzeppelin/contracts/token/ERC721/ERC721.sol\":4561:4595  _update(to, tokenId, _msgSender()) */\n      jump\t// in\n    tag_113:\n        /* \"@openzeppelin/contracts/token/ERC721/ERC721.sol\":4537:4595  address previousOwner = _update(to, tokenId, _msgSender()) */\n      swap1\n      pop\n        /* \"@openzeppelin/contracts/token/ERC721/ERC721.sol\":4626:4630  from */\n      dup4\n      sub(shl(0xa0, 0x01), 0x01)\n        /* \"@openzeppelin/contracts/token/ERC721/ERC721.sol\":4609:4630  previousOwner != from */\n      and\n        /* \"@openzeppelin/contracts/token/ERC721/ERC721.sol\":4609:4622  previousOwner */\n      dup2\n      sub(shl(0xa0, 0x01), 0x01)\n        /* \"@openzeppelin/contracts/token/ERC721/ERC721.sol\":4609:4630  previousOwner != from */\n      and\n      eq\n        /* \"@openzeppelin/contracts/token/ERC721/ERC721.sol\":4605:4714  if (previousOwner != from) {... */\n      tag_116\n      jumpi\n        /* \"@openzeppelin/contracts/token/ERC721/ERC721.sol\":4653:4703  ERC721IncorrectOwner(from, tokenId, previousOwner) */\n      mload(0x40)\n      shl(0xe0, 0x64283d7b)\n      dup2\n      mstore\n      sub(shl(0xa0, 0x01), 0x01)\n        /* \"#utility.yul\":5656:5671   */\n      dup1\n      dup7\n      and\n        /* \"@openzeppelin/contracts/token/ERC721/ERC721.sol\":4653:4703  ERC721IncorrectOwner(from, tokenId, previousOwner) */\n      0x04\n      dup4\n      add\n        /* \"#utility.yul\":5638:5672   */\n      mstore\n        /* \"#utility.yul\":5688:5706   */\n      0x24\n      dup3\n      add\n        /* \"#utility.yul\":5681:5715   */\n      dup5\n      swap1\n      mstore\n        /* \"#utility.yul\":5751:5766   */\n      dup3\n      and\n        /* \"#utility.yul\":5731:5749   */\n      0x44\n      dup3\n      add\n        /* \"#utility.yul\":5724:5767   */\n      mstore\n        /* \"#utility.yul\":5573:5591   */\n      0x64\n      add\n        /* \"@openzeppelin/contracts/token/ERC721/ERC721.sol\":4653:4703  ERC721IncorrectOwner(from, tokenId, previousOwner) */\n      tag_112\n        /* \"#utility.yul\":5398:5773   */\n      jump\n        /* \"@openzeppelin/contracts/token/ERC721/ERC721.sol\":4605:4714  if (previousOwner != from) {... */\n    tag_116:\n        /* \"@openzeppelin/contracts/token/ERC721/ERC721.sol\":4222:4720  {... */\n      pop\n        /* \"@openzeppelin/contracts/token/ERC721/ERC721.sol\":4142:4720  function transferFrom(address from, address to, uint256 tokenId) public virtual {... */\n      pop\n      pop\n      pop\n      jump\t// out\n        /* \"@openzeppelin/contracts/token/ERC721/ERC721.sol\":4786:4918  function safeTransferFrom(address from, address to, uint256 tokenId) public {... */\n    tag_49:\n        /* \"@openzeppelin/contracts/token/ERC721/ERC721.sol\":4872:4911  safeTransferFrom(from, to, tokenId, \"\") */\n      tag_120\n        /* \"@openzeppelin/contracts/token/ERC721/ERC721.sol\":4889:4893  from */\n      dup4\n        /* \"@openzeppelin/contracts/token/ERC721/ERC721.sol\":4895:4897  to */\n      dup4\n        /* \"@openzeppelin/contracts/token/ERC721/ERC721.sol\":4899:4906  tokenId */\n      dup4\n        /* \"@openzeppelin/contracts/token/ERC721/ERC721.sol\":4872:4911  safeTransferFrom(from, to, tokenId, \"\") */\n      mload(0x40)\n      dup1\n      0x20\n      add\n      0x40\n      mstore\n      dup1\n      0x00\n      dup2\n      mstore\n      pop\n        /* \"@openzeppelin/contracts/token/ERC721/ERC721.sol\":4872:4888  safeTransferFrom */\n      tag_73\n        /* \"@openzeppelin/contracts/token/ERC721/ERC721.sol\":4872:4911  safeTransferFrom(from, to, tokenId, \"\") */\n      jump\t// in\n    tag_120:\n        /* \"@openzeppelin/contracts/token/ERC721/ERC721.sol\":4786:4918  function safeTransferFrom(address from, address to, uint256 tokenId) public {... */\n      pop\n      pop\n      pop\n      jump\t// out\n        /* \"@openzeppelin/contracts/token/ERC721/ERC721.sol\":2184:2302  function ownerOf(uint256 tokenId) public view virtual returns (address) {... */\n    tag_52:\n        /* \"@openzeppelin/contracts/token/ERC721/ERC721.sol\":2247:2254  address */\n      0x00\n        /* \"@openzeppelin/contracts/token/ERC721/ERC721.sol\":2273:2295  _requireOwned(tokenId) */\n      tag_86\n        /* \"@openzeppelin/contracts/token/ERC721/ERC721.sol\":2287:2294  tokenId */\n      dup3\n        /* \"@openzeppelin/contracts/token/ERC721/ERC721.sol\":2273:2286  _requireOwned */\n      tag_97\n        /* \"@openzeppelin/contracts/token/ERC721/ERC721.sol\":2273:2295  _requireOwned(tokenId) */\n      jump\t// in\n        /* \"@openzeppelin/contracts/token/ERC721/ERC721.sol\":1919:2127  function balanceOf(address owner) public view virtual returns (uint256) {... */\n    tag_57:\n        /* \"@openzeppelin/contracts/token/ERC721/ERC721.sol\":1982:1989  uint256 */\n      0x00\n      sub(shl(0xa0, 0x01), 0x01)\n        /* \"@openzeppelin/contracts/token/ERC721/ERC721.sol\":2005:2024  owner == address(0) */\n      dup3\n      and\n        /* \"@openzeppelin/contracts/token/ERC721/ERC721.sol\":2001:2088  if (owner == address(0)) {... */\n      tag_124\n      jumpi\n        /* \"@openzeppelin/contracts/token/ERC721/ERC721.sol\":2047:2077  ERC721InvalidOwner(address(0)) */\n      mload(0x40)\n      shl(0xe2, 0x22718ad9)\n      dup2\n      mstore\n        /* \"@openzeppelin/contracts/token/ERC721/ERC721.sol\":2074:2075  0 */\n      0x00\n        /* \"@openzeppelin/contracts/token/ERC721/ERC721.sol\":2047:2077  ERC721InvalidOwner(address(0)) */\n      0x04\n      dup3\n      add\n        /* \"#utility.yul\":1679:1730   */\n      mstore\n        /* \"#utility.yul\":1652:1670   */\n      0x24\n      add\n        /* \"@openzeppelin/contracts/token/ERC721/ERC721.sol\":2047:2077  ERC721InvalidOwner(address(0)) */\n      tag_112\n        /* \"#utility.yul\":1533:1736   */\n      jump\n        /* \"@openzeppelin/contracts/token/ERC721/ERC721.sol\":2001:2088  if (owner == address(0)) {... */\n    tag_124:\n      pop\n      sub(shl(0xa0, 0x01), 0x01)\n        /* \"@openzeppelin/contracts/token/ERC721/ERC721.sol\":2104:2120  _balances[owner] */\n      and\n      0x00\n      swap1\n      dup2\n      mstore\n        /* \"@openzeppelin/contracts/token/ERC721/ERC721.sol\":2104:2113  _balances */\n      0x03\n        /* \"@openzeppelin/contracts/token/ERC721/ERC721.sol\":2104:2120  _balances[owner] */\n      0x20\n      mstore\n      0x40\n      swap1\n      keccak256\n      sload\n      swap1\n        /* \"@openzeppelin/contracts/token/ERC721/ERC721.sol\":1919:2127  function balanceOf(address owner) public view virtual returns (uint256) {... */\n      jump\t// out\n        /* \"@openzeppelin/contracts/token/ERC721/ERC721.sol\":2517:2610  function symbol() public view virtual returns (string memory) {... */\n    tag_64:\n        /* \"@openzeppelin/contracts/token/ERC721/ERC721.sol\":2564:2577  string memory */\n      0x60\n        /* \"@openzeppelin/contracts/token/ERC721/ERC721.sol\":2596:2603  _symbol */\n      0x01\n        /* \"@openzeppelin/contracts/token/ERC721/ERC721.sol\":2589:2603  return _symbol */\n      dup1\n      sload\n      tag_89\n      swap1\n      tag_90\n      jump\t// in\n        /* \"@openzeppelin/contracts/token/ERC721/ERC721.sol\":3717:3861  function setApprovalForAll(address operator, bool approved) public virtual {... */\n    tag_69:\n        /* \"@openzeppelin/contracts/token/ERC721/ERC721.sol\":3802:3854  _setApprovalForAll(_msgSender(), operator, approved) */\n      tag_101\n        /* \"@openzeppelin/contracts/utils/Context.sol\":735:745  msg.sender */\n      caller\n        /* \"@openzeppelin/contracts/token/ERC721/ERC721.sol\":3835:3843  operator */\n      dup4\n        /* \"@openzeppelin/contracts/token/ERC721/ERC721.sol\":3845:3853  approved */\n      dup4\n        /* \"@openzeppelin/contracts/token/ERC721/ERC721.sol\":3802:3820  _setApprovalForAll */\n      tag_135\n        /* \"@openzeppelin/contracts/token/ERC721/ERC721.sol\":3802:3854  _setApprovalForAll(_msgSender(), operator, approved) */\n      jump\t// in\n        /* \"@openzeppelin/contracts/token/ERC721/ERC721.sol\":4984:5217  function safeTransferFrom(address from, address to, uint256 tokenId, bytes memory data) public virtual {... */\n    tag_73:\n        /* \"@openzeppelin/contracts/token/ERC721/ERC721.sol\":5097:5128  transferFrom(from, to, tokenId) */\n      tag_137\n        /* \"@openzeppelin/contracts/token/ERC721/ERC721.sol\":5110:5114  from */\n      dup5\n        /* \"@openzeppelin/contracts/token/ERC721/ERC721.sol\":5116:5118  to */\n      dup5\n        /* \"@openzeppelin/contracts/token/ERC721/ERC721.sol\":5120:5127  tokenId */\n      dup5\n        /* \"@openzeppelin/contracts/token/ERC721/ERC721.sol\":5097:5109  transferFrom */\n      tag_46\n        /* \"@openzeppelin/contracts/token/ERC721/ERC721.sol\":5097:5128  transferFrom(from, to, tokenId) */\n      jump\t// in\n    tag_137:\n        /* \"@openzeppelin/contracts/token/ERC721/ERC721.sol\":5138:5210  ERC721Utils.checkOnERC721Received(_msgSender(), from, to, tokenId, data) */\n      tag_116\n        /* \"@openzeppelin/contracts/utils/Context.sol\":735:745  msg.sender */\n      caller\n        /* \"@openzeppelin/contracts/token/ERC721/ERC721.sol\":5186:5190  from */\n      dup6\n        /* \"@openzeppelin/contracts/token/ERC721/ERC721.sol\":5192:5194  to */\n      dup6\n        /* \"@openzeppelin/contracts/token/ERC721/ERC721.sol\":5196:5203  tokenId */\n      dup6\n        /* \"@openzeppelin/contracts/token/ERC721/ERC721.sol\":5205:5209  data */\n      dup6\n        /* \"@openzeppelin/contracts/token/ERC721/ERC721.sol\":5138:5171  ERC721Utils.checkOnERC721Received */\n      tag_140\n        /* \"@openzeppelin/contracts/token/ERC721/ERC721.sol\":5138:5210  ERC721Utils.checkOnERC721Received(_msgSender(), from, to, tokenId, data) */\n      jump\t// in\n        /* \"@openzeppelin/contracts/token/ERC721/ERC721.sol\":2676:2931  function tokenURI(uint256 tokenId) public view virtual returns (string memory) {... */\n    tag_76:\n        /* \"@openzeppelin/contracts/token/ERC721/ERC721.sol\":2740:2753  string memory */\n      0x60\n        /* \"@openzeppelin/contracts/token/ERC721/ERC721.sol\":2765:2787  _requireOwned(tokenId) */\n      tag_142\n        /* \"@openzeppelin/contracts/token/ERC721/ERC721.sol\":2779:2786  tokenId */\n      dup3\n        /* \"@openzeppelin/contracts/token/ERC721/ERC721.sol\":2765:2778  _requireOwned */\n      tag_97\n        /* \"@openzeppelin/contracts/token/ERC721/ERC721.sol\":2765:2787  _requireOwned(tokenId) */\n      jump\t// in\n    tag_142:\n      pop\n        /* \"@openzeppelin/contracts/token/ERC721/ERC721.sol\":2798:2819  string memory baseURI */\n      0x00\n        /* \"@openzeppelin/contracts/token/ERC721/ERC721.sol\":2822:2832  _baseURI() */\n      tag_143\n        /* \"@openzeppelin/contracts/token/ERC721/ERC721.sol\":3249:3258  return \"\" */\n      0x40\n      dup1\n      mload\n      0x20\n      dup2\n      add\n      swap1\n      swap2\n      mstore\n      0x00\n      dup2\n      mstore\n      swap1\n        /* \"@openzeppelin/contracts/token/ERC721/ERC721.sol\":3173:3265  function _baseURI() internal view virtual returns (string memory) {... */\n      jump\n        /* \"@openzeppelin/contracts/token/ERC721/ERC721.sol\":2822:2832  _baseURI() */\n    tag_143:\n        /* \"@openzeppelin/contracts/token/ERC721/ERC721.sol\":2798:2832  string memory baseURI = _baseURI() */\n      swap1\n      pop\n        /* \"@openzeppelin/contracts/token/ERC721/ERC721.sol\":2873:2874  0 */\n      0x00\n        /* \"@openzeppelin/contracts/token/ERC721/ERC721.sol\":2855:2862  baseURI */\n      dup2\n        /* \"@openzeppelin/contracts/token/ERC721/ERC721.sol\":2849:2870  bytes(baseURI).length */\n      mload\n        /* \"@openzeppelin/contracts/token/ERC721/ERC721.sol\":2849:2874  bytes(baseURI).length > 0 */\n      gt\n        /* \"@openzeppelin/contracts/token/ERC721/ERC721.sol\":2849:2924  bytes(baseURI).length > 0 ? string.concat(baseURI, tokenId.toString()) : \"\" */\n      tag_145\n      jumpi\n      mload(0x40)\n      dup1\n      0x20\n      add\n      0x40\n      mstore\n      dup1\n      0x00\n      dup2\n      mstore\n      pop\n      jump(tag_146)\n    tag_145:\n        /* \"@openzeppelin/contracts/token/ERC721/ERC721.sol\":2891:2898  baseURI */\n      dup1\n        /* \"@openzeppelin/contracts/token/ERC721/ERC721.sol\":2900:2918  tokenId.toString() */\n      tag_147\n        /* \"@openzeppelin/contracts/token/ERC721/ERC721.sol\":2900:2907  tokenId */\n      dup5\n        /* \"@openzeppelin/contracts/token/ERC721/ERC721.sol\":2900:2916  tokenId.toString */\n      tag_148\n        /* \"@openzeppelin/contracts/token/ERC721/ERC721.sol\":2900:2918  tokenId.toString() */\n      jump\t// in\n    tag_147:\n        /* \"@openzeppelin/contracts/token/ERC721/ERC721.sol\":2877:2919  string.concat(baseURI, tokenId.toString()) */\n      add(0x20, mload(0x40))\n      tag_149\n      swap3\n      swap2\n      swap1\n      tag_150\n      jump\t// in\n    tag_149:\n      mload(0x40)\n      0x20\n      dup2\n      dup4\n      sub\n      sub\n      dup2\n      mstore\n      swap1\n      0x40\n      mstore\n        /* \"@openzeppelin/contracts/token/ERC721/ERC721.sol\":2849:2924  bytes(baseURI).length > 0 ? string.concat(baseURI, tokenId.toString()) : \"\" */\n    tag_146:\n        /* \"@openzeppelin/contracts/token/ERC721/ERC721.sol\":2842:2924  return bytes(baseURI).length > 0 ? string.concat(baseURI, tokenId.toString()) : \"\" */\n      swap4\n        /* \"@openzeppelin/contracts/token/ERC721/ERC721.sol\":2676:2931  function tokenURI(uint256 tokenId) public view virtual returns (string memory) {... */\n      swap3\n      pop\n      pop\n      pop\n      jump\t// out\n        /* \"@openzeppelin/contracts/token/ERC721/ERC721.sol\":3927:4080  function isApprovedForAll(address owner, address operator) public view virtual returns (bool) {... */\n    tag_81:\n      sub(shl(0xa0, 0x01), 0x01)\n        /* \"@openzeppelin/contracts/token/ERC721/ERC721.sol\":4038:4063  _operatorApprovals[owner] */\n      swap2\n      dup3\n      and\n        /* \"@openzeppelin/contracts/token/ERC721/ERC721.sol\":4015:4019  bool */\n      0x00\n        /* \"@openzeppelin/contracts/token/ERC721/ERC721.sol\":4038:4063  _operatorApprovals[owner] */\n      swap1\n      dup2\n      mstore\n        /* \"@openzeppelin/contracts/token/ERC721/ERC721.sol\":4038:4056  _operatorApprovals */\n      0x05\n        /* \"@openzeppelin/contracts/token/ERC721/ERC721.sol\":4038:4063  _operatorApprovals[owner] */\n      0x20\n      swap1\n      dup2\n      mstore\n      0x40\n      dup1\n      dup4\n      keccak256\n        /* \"@openzeppelin/contracts/token/ERC721/ERC721.sol\":4038:4073  _operatorApprovals[owner][operator] */\n      swap4\n      swap1\n      swap5\n      and\n      dup3\n      mstore\n      swap2\n      swap1\n      swap2\n      mstore\n      keccak256\n      sload\n      0xff\n      and\n      swap1\n        /* \"@openzeppelin/contracts/token/ERC721/ERC721.sol\":3927:4080  function isApprovedForAll(address owner, address operator) public view virtual returns (bool) {... */\n      jump\t// out\n        /* \"@openzeppelin/contracts/token/ERC721/ERC721.sol\":16212:16453  function _requireOwned(uint256 tokenId) internal view returns (address) {... */\n    tag_97:\n        /* \"@openzeppelin/contracts/token/ERC721/ERC721.sol\":16275:16282  address */\n      0x00\n        /* \"@openzeppelin/contracts/token/ERC721/ERC721.sol\":5824:5840  _owners[tokenId] */\n      dup2\n      dup2\n      mstore\n        /* \"@openzeppelin/contracts/token/ERC721/ERC721.sol\":5824:5831  _owners */\n      0x02\n        /* \"@openzeppelin/contracts/token/ERC721/ERC721.sol\":5824:5840  _owners[tokenId] */\n      0x20\n      mstore\n      0x40\n      dup2\n      keccak256\n      sload\n      sub(shl(0xa0, 0x01), 0x01)\n      and\n      dup1\n        /* \"@openzeppelin/contracts/token/ERC721/ERC721.sol\":16337:16425  if (owner == address(0)) {... */\n      tag_86\n      jumpi\n        /* \"@openzeppelin/contracts/token/ERC721/ERC721.sol\":16383:16414  ERC721NonexistentToken(tokenId) */\n      mload(0x40)\n      shl(0xe0, 0x7e273289)\n      dup2\n      mstore\n      0x04\n      dup2\n      add\n        /* \"#utility.yul\":2848:2873   */\n      dup5\n      swap1\n      mstore\n        /* \"#utility.yul\":2821:2839   */\n      0x24\n      add\n        /* \"@openzeppelin/contracts/token/ERC721/ERC721.sol\":16383:16414  ERC721NonexistentToken(tokenId) */\n      tag_112\n        /* \"#utility.yul\":2702:2879   */\n      jump\n        /* \"@openzeppelin/contracts/token/ERC721/ERC721.sol\":14492:14612  function _approve(address to, uint256 tokenId, address auth) internal {... */\n    tag_104:\n        /* \"@openzeppelin/contracts/token/ERC721/ERC721.sol\":14572:14605  _approve(to, tokenId, auth, true) */\n      tag_120\n        /* \"@openzeppelin/contracts/token/ERC721/ERC721.sol\":14581:14583  to */\n      dup4\n        /* \"@openzeppelin/contracts/token/ERC721/ERC721.sol\":14585:14592  tokenId */\n      dup4\n        /* \"@openzeppelin/contracts/token/ERC721/ERC721.sol\":14594:14598  auth */\n      dup4\n        /* \"@openzeppelin/contracts/token/ERC721/ERC721.sol\":14600:14604  true */\n      0x01\n        /* \"@openzeppelin/contracts/token/ERC721/ERC721.sol\":14572:14580  _approve */\n      tag_162\n        /* \"@openzeppelin/contracts/token/ERC721/ERC721.sol\":14572:14605  _approve(to, tokenId, auth, true) */\n      jump\t// in\n        /* \"@openzeppelin/contracts/token/ERC721/ERC721.sol\":10656:10756  function _safeMint(address to, uint256 tokenId) internal {... */\n    tag_107:\n        /* \"@openzeppelin/contracts/token/ERC721/ERC721.sol\":10723:10749  _safeMint(to, tokenId, \"\") */\n      tag_101\n        /* \"@openzeppelin/contracts/token/ERC721/ERC721.sol\":10733:10735  to */\n      dup3\n        /* \"@openzeppelin/contracts/token/ERC721/ERC721.sol\":10737:10744  tokenId */\n      dup3\n        /* \"@openzeppelin/contracts/token/ERC721/ERC721.sol\":10723:10749  _safeMint(to, tokenId, \"\") */\n      mload(0x40)\n      dup1\n      0x20\n      add\n      0x40\n      mstore\n      dup1\n      0x00\n      dup2\n      mstore\n      pop\n        /* \"@openzeppelin/contracts/token/ERC721/ERC721.sol\":10723:10732  _safeMint */\n      tag_165\n        /* \"@openzeppelin/contracts/token/ERC721/ERC721.sol\":10723:10749  _safeMint(to, tokenId, \"\") */\n      jump\t// in\n        /* \"@openzeppelin/contracts/token/ERC721/ERC721.sol\":8861:9656  function _update(address to, uint256 tokenId, address auth) internal virtual returns (address) {... */\n    tag_115:\n        /* \"@openzeppelin/contracts/token/ERC721/ERC721.sol\":8947:8954  address */\n      0x00\n        /* \"@openzeppelin/contracts/token/ERC721/ERC721.sol\":5824:5840  _owners[tokenId] */\n      dup3\n      dup2\n      mstore\n        /* \"@openzeppelin/contracts/token/ERC721/ERC721.sol\":5824:5831  _owners */\n      0x02\n        /* \"@openzeppelin/contracts/token/ERC721/ERC721.sol\":5824:5840  _owners[tokenId] */\n      0x20\n      mstore\n      0x40\n      dup2\n      keccak256\n      sload\n      sub(shl(0xa0, 0x01), 0x01)\n      swap1\n      dup2\n      and\n      swap1\n        /* \"@openzeppelin/contracts/token/ERC721/ERC721.sol\":9058:9076  auth != address(0) */\n      dup4\n      and\n      iszero\n        /* \"@openzeppelin/contracts/token/ERC721/ERC721.sol\":9054:9140  if (auth != address(0)) {... */\n      tag_169\n      jumpi\n        /* \"@openzeppelin/contracts/token/ERC721/ERC721.sol\":9092:9129  _checkAuthorized(from, auth, tokenId) */\n      tag_169\n        /* \"@openzeppelin/contracts/token/ERC721/ERC721.sol\":9109:9113  from */\n      dup2\n        /* \"@openzeppelin/contracts/token/ERC721/ERC721.sol\":9115:9119  auth */\n      dup5\n        /* \"@openzeppelin/contracts/token/ERC721/ERC721.sol\":9121:9128  tokenId */\n      dup7\n        /* \"@openzeppelin/contracts/token/ERC721/ERC721.sol\":9092:9108  _checkAuthorized */\n      tag_170\n        /* \"@openzeppelin/contracts/token/ERC721/ERC721.sol\":9092:9129  _checkAuthorized(from, auth, tokenId) */\n      jump\t// in\n    tag_169:\n      sub(shl(0xa0, 0x01), 0x01)\n        /* \"@openzeppelin/contracts/token/ERC721/ERC721.sol\":9184:9202  from != address(0) */\n      dup2\n      and\n      iszero\n        /* \"@openzeppelin/contracts/token/ERC721/ERC721.sol\":9180:9436  if (from != address(0)) {... */\n      tag_171\n      jumpi\n        /* \"@openzeppelin/contracts/token/ERC721/ERC721.sol\":9300:9348  _approve(address(0), tokenId, address(0), false) */\n      tag_172\n        /* \"@openzeppelin/contracts/token/ERC721/ERC721.sol\":9317:9318  0 */\n      0x00\n        /* \"@openzeppelin/contracts/token/ERC721/ERC721.sol\":9321:9328  tokenId */\n      dup6\n        /* \"@openzeppelin/contracts/token/ERC721/ERC721.sol\":9338:9339  0 */\n      0x00\n        /* \"@openzeppelin/contracts/token/ERC721/ERC721.sol\":9342:9347  false */\n      dup1\n        /* \"@openzeppelin/contracts/token/ERC721/ERC721.sol\":9300:9308  _approve */\n      tag_162\n        /* \"@openzeppelin/contracts/token/ERC721/ERC721.sol\":9300:9348  _approve(address(0), tokenId, address(0), false) */\n      jump\t// in\n    tag_172:\n      sub(shl(0xa0, 0x01), 0x01)\n        /* \"@openzeppelin/contracts/token/ERC721/ERC721.sol\":9391:9406  _balances[from] */\n      dup2\n      and\n      0x00\n      swap1\n      dup2\n      mstore\n        /* \"@openzeppelin/contracts/token/ERC721/ERC721.sol\":9391:9400  _balances */\n      0x03\n        /* \"@openzeppelin/contracts/token/ERC721/ERC721.sol\":9391:9406  _balances[from] */\n      0x20\n      mstore\n      0x40\n      swap1\n      keccak256\n        /* \"@openzeppelin/contracts/token/ERC721/ERC721.sol\":9391:9411  _balances[from] -= 1 */\n      dup1\n      sload\n      not(0x00)\n      add\n      swap1\n      sstore\n        /* \"@openzeppelin/contracts/token/ERC721/ERC721.sol\":9180:9436  if (from != address(0)) {... */\n    tag_171:\n      sub(shl(0xa0, 0x01), 0x01)\n        /* \"@openzeppelin/contracts/token/ERC721/ERC721.sol\":9450:9466  to != address(0) */\n      dup6\n      and\n      iszero\n        /* \"@openzeppelin/contracts/token/ERC721/ERC721.sol\":9446:9553  if (to != address(0)) {... */\n      tag_173\n      jumpi\n      sub(shl(0xa0, 0x01), 0x01)\n        /* \"@openzeppelin/contracts/token/ERC721/ERC721.sol\":9510:9523  _balances[to] */\n      dup6\n      and\n      0x00\n      swap1\n      dup2\n      mstore\n        /* \"@openzeppelin/contracts/token/ERC721/ERC721.sol\":9510:9519  _balances */\n      0x03\n        /* \"@openzeppelin/contracts/token/ERC721/ERC721.sol\":9510:9523  _balances[to] */\n      0x20\n      mstore\n      0x40\n      swap1\n      keccak256\n        /* \"@openzeppelin/contracts/token/ERC721/ERC721.sol\":9510:9528  _balances[to] += 1 */\n      dup1\n      sload\n        /* \"@openzeppelin/contracts/token/ERC721/ERC721.sol\":9527:9528  1 */\n      0x01\n        /* \"@openzeppelin/contracts/token/ERC721/ERC721.sol\":9510:9528  _balances[to] += 1 */\n      add\n      swap1\n      sstore\n        /* \"@openzeppelin/contracts/token/ERC721/ERC721.sol\":9446:9553  if (to != address(0)) {... */\n    tag_173:\n        /* \"@openzeppelin/contracts/token/ERC721/ERC721.sol\":9563:9579  _owners[tokenId] */\n      0x00\n      dup5\n      dup2\n      mstore\n        /* \"@openzeppelin/contracts/token/ERC721/ERC721.sol\":9563:9570  _owners */\n      0x02\n        /* \"@openzeppelin/contracts/token/ERC721/ERC721.sol\":9563:9579  _owners[tokenId] */\n      0x20\n      mstore\n      0x40\n      dup1\n      dup3\n      keccak256\n        /* \"@openzeppelin/contracts/token/ERC721/ERC721.sol\":9563:9584  _owners[tokenId] = to */\n      dup1\n      sload\n      not(sub(shl(0xa0, 0x01), 0x01))\n      and\n      sub(shl(0xa0, 0x01), 0x01)\n      dup10\n      dup2\n      and\n      swap2\n      dup3\n      or\n      swap1\n      swap3\n      sstore\n        /* \"@openzeppelin/contracts/token/ERC721/ERC721.sol\":9600:9627  Transfer(from, to, tokenId) */\n      swap2\n      mload\n        /* \"@openzeppelin/contracts/token/ERC721/ERC721.sol\":9563:9579  _owners[tokenId] */\n      dup8\n      swap4\n        /* \"@openzeppelin/contracts/token/ERC721/ERC721.sol\":9600:9627  Transfer(from, to, tokenId) */\n      swap2\n      dup6\n      and\n      swap2\n      0xddf252ad1be2c89b69c2b068fc378daa952ba7f163c4a11628f55a4df523b3ef\n      swap2\n      log4\n        /* \"@openzeppelin/contracts/token/ERC721/ERC721.sol\":9645:9649  from */\n      swap5\n        /* \"@openzeppelin/contracts/token/ERC721/ERC721.sol\":8861:9656  function _update(address to, uint256 tokenId, address auth) internal virtual returns (address) {... */\n      swap4\n      pop\n      pop\n      pop\n      pop\n      jump\t// out\n        /* \"@openzeppelin/contracts/token/ERC721/ERC721.sol\":15665:15977  function _setApprovalForAll(address owner, address operator, bool approved) internal virtual {... */\n    tag_135:\n      sub(shl(0xa0, 0x01), 0x01)\n        /* \"@openzeppelin/contracts/token/ERC721/ERC721.sol\":15772:15794  operator == address(0) */\n      dup3\n      and\n        /* \"@openzeppelin/contracts/token/ERC721/ERC721.sol\":15768:15859  if (operator == address(0)) {... */\n      tag_175\n      jumpi\n        /* \"@openzeppelin/contracts/token/ERC721/ERC721.sol\":15817:15848  ERC721InvalidOperator(operator) */\n      mload(0x40)\n      shl(0xe3, 0x0b611743)\n      dup2\n      mstore\n      sub(shl(0xa0, 0x01), 0x01)\n        /* \"#utility.yul\":1697:1729   */\n      dup4\n      and\n        /* \"@openzeppelin/contracts/token/ERC721/ERC721.sol\":15817:15848  ERC721InvalidOperator(operator) */\n      0x04\n      dup3\n      add\n        /* \"#utility.yul\":1679:1730   */\n      mstore\n        /* \"#utility.yul\":1652:1670   */\n      0x24\n      add\n        /* \"@openzeppelin/contracts/token/ERC721/ERC721.sol\":15817:15848  ERC721InvalidOperator(operator) */\n      tag_112\n        /* \"#utility.yul\":1533:1736   */\n      jump\n        /* \"@openzeppelin/contracts/token/ERC721/ERC721.sol\":15768:15859  if (operator == address(0)) {... */\n    tag_175:\n      sub(shl(0xa0, 0x01), 0x01)\n        /* \"@openzeppelin/contracts/token/ERC721/ERC721.sol\":15868:15893  _operatorApprovals[owner] */\n      dup4\n      dup2\n      and\n      0x00\n      dup2\n      dup2\n      mstore\n        /* \"@openzeppelin/contracts/token/ERC721/ERC721.sol\":15868:15886  _operatorApprovals */\n      0x05\n        /* \"@openzeppelin/contracts/token/ERC721/ERC721.sol\":15868:15893  _operatorApprovals[owner] */\n      0x20\n      swap1\n      dup2\n      mstore\n      0x40\n      dup1\n      dup4\n      keccak256\n        /* \"@openzeppelin/contracts/token/ERC721/ERC721.sol\":15868:15903  _operatorApprovals[owner][operator] */\n      swap5\n      dup8\n      and\n      dup1\n      dup5\n      mstore\n      swap5\n      dup3\n      mstore\n      swap2\n      dup3\n      swap1\n      keccak256\n        /* \"@openzeppelin/contracts/token/ERC721/ERC721.sol\":15868:15914  _operatorApprovals[owner][operator] = approved */\n      dup1\n      sload\n      not(0xff)\n      and\n      dup7\n      iszero\n      iszero\n      swap1\n      dup2\n      or\n      swap1\n      swap2\n      sstore\n        /* \"@openzeppelin/contracts/token/ERC721/ERC721.sol\":15929:15970  ApprovalForAll(owner, operator, approved) */\n      swap2\n      mload\n        /* \"#utility.yul\":540:581   */\n      swap2\n      dup3\n      mstore\n        /* \"@openzeppelin/contracts/token/ERC721/ERC721.sol\":15929:15970  ApprovalForAll(owner, operator, approved) */\n      0x17307eab39ab6107e8899845ad3d59bd9653f200f220920489ca2b5937696c31\n      swap2\n        /* \"#utility.yul\":513:531   */\n      add\n        /* \"@openzeppelin/contracts/token/ERC721/ERC721.sol\":15929:15970  ApprovalForAll(owner, operator, approved) */\n      mload(0x40)\n      dup1\n      swap2\n      sub\n      swap1\n      log3\n        /* \"@openzeppelin/contracts/token/ERC721/ERC721.sol\":15665:15977  function _setApprovalForAll(address owner, address operator, bool approved) internal virtual {... */\n      pop\n      pop\n      pop\n      jump\t// out\n        /* \"@openzeppelin/contracts/token/ERC721/utils/ERC721Utils.sol\":985:1909  function checkOnERC721Received(... */\n    tag_140:\n      sub(shl(0xa0, 0x01), 0x01)\n        /* \"@openzeppelin/contracts/token/ERC721/utils/ERC721Utils.sol\":1165:1179  to.code.length */\n      dup4\n      and\n      extcodesize\n        /* \"@openzeppelin/contracts/token/ERC721/utils/ERC721Utils.sol\":1165:1183  to.code.length > 0 */\n      iszero\n        /* \"@openzeppelin/contracts/token/ERC721/utils/ERC721Utils.sol\":1161:1903  if (to.code.length > 0) {... */\n      tag_194\n      jumpi\n        /* \"@openzeppelin/contracts/token/ERC721/utils/ERC721Utils.sol\":1203:1270  IERC721Receiver(to).onERC721Received(operator, from, tokenId, data) */\n      mload(0x40)\n      shl(0xe1, 0x0a85bd01)\n      dup2\n      mstore\n      sub(shl(0xa0, 0x01), 0x01)\n        /* \"@openzeppelin/contracts/token/ERC721/utils/ERC721Utils.sol\":1203:1239  IERC721Receiver(to).onERC721Received */\n      dup5\n      and\n      swap1\n      0x150b7a02\n      swap1\n        /* \"@openzeppelin/contracts/token/ERC721/utils/ERC721Utils.sol\":1203:1270  IERC721Receiver(to).onERC721Received(operator, from, tokenId, data) */\n      tag_180\n      swap1\n        /* \"@openzeppelin/contracts/token/ERC721/utils/ERC721Utils.sol\":1240:1248  operator */\n      dup9\n      swap1\n        /* \"@openzeppelin/contracts/token/ERC721/utils/ERC721Utils.sol\":1250:1254  from */\n      dup9\n      swap1\n        /* \"@openzeppelin/contracts/token/ERC721/utils/ERC721Utils.sol\":1256:1263  tokenId */\n      dup8\n      swap1\n        /* \"@openzeppelin/contracts/token/ERC721/utils/ERC721Utils.sol\":1265:1269  data */\n      dup8\n      swap1\n        /* \"@openzeppelin/contracts/token/ERC721/utils/ERC721Utils.sol\":1203:1270  IERC721Receiver(to).onERC721Received(operator, from, tokenId, data) */\n      0x04\n      add\n      tag_181\n      jump\t// in\n    tag_180:\n      0x20\n      mload(0x40)\n      dup1\n      dup4\n      sub\n      dup2\n      0x00\n      dup8\n      gas\n      call\n      swap3\n      pop\n      pop\n      pop\n      dup1\n      iszero\n      tag_182\n      jumpi\n      pop\n      0x40\n      dup1\n      mload\n      0x1f\n      returndatasize\n      swap1\n      dup2\n      add\n      not(0x1f)\n      and\n      dup3\n      add\n      swap1\n      swap3\n      mstore\n      tag_183\n      swap2\n      dup2\n      add\n      swap1\n      tag_184\n      jump\t// in\n    tag_183:\n      0x01\n    tag_182:\n        /* \"@openzeppelin/contracts/token/ERC721/utils/ERC721Utils.sol\":1199:1893  try IERC721Receiver(to).onERC721Received(operator, from, tokenId, data) returns (bytes4 retval) {... */\n      tag_185\n      jumpi\n      returndatasize\n      dup1\n      dup1\n      iszero\n      tag_190\n      jumpi\n      mload(0x40)\n      swap2\n      pop\n      and(add(returndatasize, 0x3f), not(0x1f))\n      dup3\n      add\n      0x40\n      mstore\n      returndatasize\n      dup3\n      mstore\n      returndatasize\n      0x00\n      0x20\n      dup5\n      add\n      returndatacopy\n      jump(tag_189)\n    tag_190:\n      0x60\n      swap2\n      pop\n    tag_189:\n      pop\n        /* \"@openzeppelin/contracts/token/ERC721/utils/ERC721Utils.sol\":1560:1566  reason */\n      dup1\n        /* \"@openzeppelin/contracts/token/ERC721/utils/ERC721Utils.sol\":1560:1573  reason.length */\n      mload\n        /* \"@openzeppelin/contracts/token/ERC721/utils/ERC721Utils.sol\":1577:1578  0 */\n      0x00\n        /* \"@openzeppelin/contracts/token/ERC721/utils/ERC721Utils.sol\":1560:1578  reason.length == 0 */\n      sub\n        /* \"@openzeppelin/contracts/token/ERC721/utils/ERC721Utils.sol\":1556:1879  if (reason.length == 0) {... */\n      tag_191\n      jumpi\n        /* \"@openzeppelin/contracts/token/ERC721/utils/ERC721Utils.sol\":1664:1703  IERC721Errors.ERC721InvalidReceiver(to) */\n      mload(0x40)\n      shl(0xe1, 0x32505749)\n      dup2\n      mstore\n      sub(shl(0xa0, 0x01), 0x01)\n        /* \"#utility.yul\":1697:1729   */\n      dup6\n      and\n        /* \"@openzeppelin/contracts/token/ERC721/utils/ERC721Utils.sol\":1664:1703  IERC721Errors.ERC721InvalidReceiver(to) */\n      0x04\n      dup3\n      add\n        /* \"#utility.yul\":1679:1730   */\n      mstore\n        /* \"#utility.yul\":1652:1670   */\n      0x24\n      add\n        /* \"@openzeppelin/contracts/token/ERC721/utils/ERC721Utils.sol\":1664:1703  IERC721Errors.ERC721InvalidReceiver(to) */\n      tag_112\n        /* \"#utility.yul\":1533:1736   */\n      jump\n        /* \"@openzeppelin/contracts/token/ERC721/utils/ERC721Utils.sol\":1556:1879  if (reason.length == 0) {... */\n    tag_191:\n        /* \"@openzeppelin/contracts/token/ERC721/utils/ERC721Utils.sol\":1831:1837  reason */\n      dup1\n        /* \"@openzeppelin/contracts/token/ERC721/utils/ERC721Utils.sol\":1825:1838  mload(reason) */\n      mload\n        /* \"@openzeppelin/contracts/token/ERC721/utils/ERC721Utils.sol\":1816:1822  reason */\n      dup2\n        /* \"@openzeppelin/contracts/token/ERC721/utils/ERC721Utils.sol\":1812:1814  32 */\n      0x20\n        /* \"@openzeppelin/contracts/token/ERC721/utils/ERC721Utils.sol\":1808:1823  add(32, reason) */\n      add\n        /* \"@openzeppelin/contracts/token/ERC721/utils/ERC721Utils.sol\":1801:1839  revert(add(32, reason), mload(reason)) */\n      revert\n        /* \"@openzeppelin/contracts/token/ERC721/utils/ERC721Utils.sol\":1199:1893  try IERC721Receiver(to).onERC721Received(operator, from, tokenId, data) returns (bytes4 retval) {... */\n    tag_185:\n      not(sub(shl(0xe0, 0x01), 0x01))\n        /* \"@openzeppelin/contracts/token/ERC721/utils/ERC721Utils.sol\":1317:1368  retval != IERC721Receiver.onERC721Received.selector */\n      dup2\n      and\n      shl(0xe1, 0x0a85bd01)\n      eq\n        /* \"@openzeppelin/contracts/token/ERC721/utils/ERC721Utils.sol\":1313:1495  if (retval != IERC721Receiver.onERC721Received.selector) {... */\n      tag_195\n      jumpi\n        /* \"@openzeppelin/contracts/token/ERC721/utils/ERC721Utils.sol\":1437:1476  IERC721Errors.ERC721InvalidReceiver(to) */\n      mload(0x40)\n      shl(0xe1, 0x32505749)\n      dup2\n      mstore\n      sub(shl(0xa0, 0x01), 0x01)\n        /* \"#utility.yul\":1697:1729   */\n      dup6\n      and\n        /* \"@openzeppelin/contracts/token/ERC721/utils/ERC721Utils.sol\":1437:1476  IERC721Errors.ERC721InvalidReceiver(to) */\n      0x04\n      dup3\n      add\n        /* \"#utility.yul\":1679:1730   */\n      mstore\n        /* \"#utility.yul\":1652:1670   */\n      0x24\n      add\n        /* \"@openzeppelin/contracts/token/ERC721/utils/ERC721Utils.sol\":1437:1476  IERC721Errors.ERC721InvalidReceiver(to) */\n      tag_112\n        /* \"#utility.yul\":1533:1736   */\n      jump\n        /* \"@openzeppelin/contracts/token/ERC721/utils/ERC721Utils.sol\":1313:1495  if (retval != IERC721Receiver.onERC721Received.selector) {... */\n    tag_195:\n        /* \"@openzeppelin/contracts/token/ERC721/utils/ERC721Utils.sol\":1271:1509  returns (bytes4 retval) {... */\n      pop\n        /* \"@openzeppelin/contracts/token/ERC721/utils/ERC721Utils.sol\":1199:1893  try IERC721Receiver(to).onERC721Received(operator, from, tokenId, data) returns (bytes4 retval) {... */\n    tag_194:\n        /* \"@openzeppelin/contracts/token/ERC721/utils/ERC721Utils.sol\":985:1909  function checkOnERC721Received(... */\n      pop\n      pop\n      pop\n      pop\n      pop\n      jump\t// out\n        /* \"@openzeppelin/contracts/utils/Strings.sol\":987:1619  function toString(uint256 value) internal pure returns (string memory) {... */\n    tag_148:\n        /* \"@openzeppelin/contracts/utils/Strings.sol\":1043:1056  string memory */\n      0x60\n        /* \"@openzeppelin/contracts/utils/Strings.sol\":1092:1106  uint256 length */\n      0x00\n        /* \"@openzeppelin/contracts/utils/Strings.sol\":1109:1126  Math.log10(value) */\n      tag_199\n        /* \"@openzeppelin/contracts/utils/Strings.sol\":1120:1125  value */\n      dup4\n        /* \"@openzeppelin/contracts/utils/Strings.sol\":1109:1119  Math.log10 */\n      tag_200\n        /* \"@openzeppelin/contracts/utils/Strings.sol\":1109:1126  Math.log10(value) */\n      jump\t// in\n    tag_199:\n        /* \"@openzeppelin/contracts/utils/Strings.sol\":1129:1130  1 */\n      0x01\n        /* \"@openzeppelin/contracts/utils/Strings.sol\":1109:1130  Math.log10(value) + 1 */\n      add\n        /* \"@openzeppelin/contracts/utils/Strings.sol\":1092:1130  uint256 length = Math.log10(value) + 1 */\n      swap1\n      pop\n        /* \"@openzeppelin/contracts/utils/Strings.sol\":1144:1164  string memory buffer */\n      0x00\n        /* \"@openzeppelin/contracts/utils/Strings.sol\":1178:1184  length */\n      dup2\n        /* \"@openzeppelin/contracts/utils/Strings.sol\":1167:1185  new string(length) */\n      0xffffffffffffffff\n      dup2\n      gt\n      iszero\n      tag_202\n      jumpi\n      tag_202\n      tag_203\n      jump\t// in\n    tag_202:\n      mload(0x40)\n      swap1\n      dup1\n      dup3\n      mstore\n      dup1\n      0x1f\n      add\n      not(0x1f)\n      and\n      0x20\n      add\n      dup3\n      add\n      0x40\n      mstore\n      dup1\n      iszero\n      tag_204\n      jumpi\n      0x20\n      dup3\n      add\n      dup2\n      dup1\n      calldatasize\n      dup4\n      calldatacopy\n      add\n      swap1\n      pop\n    tag_204:\n      pop\n        /* \"@openzeppelin/contracts/utils/Strings.sol\":1144:1185  string memory buffer = new string(length) */\n      swap1\n      pop\n        /* \"@openzeppelin/contracts/utils/Strings.sol\":1274:1302  add(buffer, add(32, length)) */\n      dup2\n      dup2\n      add\n        /* \"@openzeppelin/contracts/utils/Strings.sol\":1290:1292  32 */\n      0x20\n        /* \"@openzeppelin/contracts/utils/Strings.sol\":1274:1302  add(buffer, add(32, length)) */\n      add\n        /* \"@openzeppelin/contracts/utils/Strings.sol\":1329:1576  while (true) {... */\n    tag_205:\n      not(0x00)\n        /* \"@openzeppelin/contracts/utils/Strings.sol\":1360:1365  ptr-- */\n      add\n      shl(0x81, 0x181899199a1a9b1b9c1cb0b131b232b3)\n        /* \"@openzeppelin/contracts/utils/Strings.sol\":1459:1461  10 */\n      0x0a\n        /* \"@openzeppelin/contracts/utils/Strings.sol\":1448:1462  mod(value, 10) */\n      dup7\n      mod\n        /* \"@openzeppelin/contracts/utils/Strings.sol\":1443:1475  byte(mod(value, 10), HEX_DIGITS) */\n      byte\n        /* \"@openzeppelin/contracts/utils/Strings.sol\":1360:1365  ptr-- */\n      dup2\n        /* \"@openzeppelin/contracts/utils/Strings.sol\":1430:1476  mstore8(ptr, byte(mod(value, 10), HEX_DIGITS)) */\n      mstore8\n        /* \"@openzeppelin/contracts/utils/Strings.sol\":1520:1522  10 */\n      0x0a\n        /* \"@openzeppelin/contracts/utils/Strings.sol\":1511:1522  value /= 10 */\n      dup6\n      div\n      swap5\n      pop\n        /* \"@openzeppelin/contracts/utils/Strings.sol\":1540:1561  if (value == 0) break */\n      dup5\n        /* \"@openzeppelin/contracts/utils/Strings.sol\":1329:1576  while (true) {... */\n      tag_205\n        /* \"@openzeppelin/contracts/utils/Strings.sol\":1540:1561  if (value == 0) break */\n      jumpi\n      pop\n        /* \"@openzeppelin/contracts/utils/Strings.sol\":1596:1602  buffer */\n      swap4\n        /* \"@openzeppelin/contracts/utils/Strings.sol\":987:1619  function toString(uint256 value) internal pure returns (string memory) {... */\n      swap3\n      pop\n      pop\n      pop\n      jump\t// out\n        /* \"@openzeppelin/contracts/token/ERC721/ERC721.sol\":14794:15456  function _approve(address to, uint256 tokenId, address auth, bool emitEvent) internal virtual {... */\n    tag_162:\n        /* \"@openzeppelin/contracts/token/ERC721/ERC721.sol\":14954:14963  emitEvent */\n      dup1\n        /* \"@openzeppelin/contracts/token/ERC721/ERC721.sol\":14954:14985  emitEvent || auth != address(0) */\n      dup1\n      tag_213\n      jumpi\n      pop\n      sub(shl(0xa0, 0x01), 0x01)\n        /* \"@openzeppelin/contracts/token/ERC721/ERC721.sol\":14967:14985  auth != address(0) */\n      dup3\n      and\n      iszero\n      iszero\n        /* \"@openzeppelin/contracts/token/ERC721/ERC721.sol\":14954:14985  emitEvent || auth != address(0) */\n    tag_213:\n        /* \"@openzeppelin/contracts/token/ERC721/ERC721.sol\":14950:15410  if (emitEvent || auth != address(0)) {... */\n      iszero\n      tag_214\n      jumpi\n        /* \"@openzeppelin/contracts/token/ERC721/ERC721.sol\":15001:15014  address owner */\n      0x00\n        /* \"@openzeppelin/contracts/token/ERC721/ERC721.sol\":15017:15039  _requireOwned(tokenId) */\n      tag_215\n        /* \"@openzeppelin/contracts/token/ERC721/ERC721.sol\":15031:15038  tokenId */\n      dup5\n        /* \"@openzeppelin/contracts/token/ERC721/ERC721.sol\":15017:15030  _requireOwned */\n      tag_97\n        /* \"@openzeppelin/contracts/token/ERC721/ERC721.sol\":15017:15039  _requireOwned(tokenId) */\n      jump\t// in\n    tag_215:\n        /* \"@openzeppelin/contracts/token/ERC721/ERC721.sol\":15001:15039  address owner = _requireOwned(tokenId) */\n      swap1\n      pop\n      sub(shl(0xa0, 0x01), 0x01)\n        /* \"@openzeppelin/contracts/token/ERC721/ERC721.sol\":15167:15185  auth != address(0) */\n      dup4\n      and\n      iszero\n      dup1\n      iszero\n      swap1\n        /* \"@openzeppelin/contracts/token/ERC721/ERC721.sol\":15167:15202  auth != address(0) && owner != auth */\n      tag_216\n      jumpi\n      pop\n        /* \"@openzeppelin/contracts/token/ERC721/ERC721.sol\":15198:15202  auth */\n      dup3\n      sub(shl(0xa0, 0x01), 0x01)\n        /* \"@openzeppelin/contracts/token/ERC721/ERC721.sol\":15189:15202  owner != auth */\n      and\n        /* \"@openzeppelin/contracts/token/ERC721/ERC721.sol\":15189:15194  owner */\n      dup2\n      sub(shl(0xa0, 0x01), 0x01)\n        /* \"@openzeppelin/contracts/token/ERC721/ERC721.sol\":15189:15202  owner != auth */\n      and\n      eq\n      iszero\n        /* \"@openzeppelin/contracts/token/ERC721/ERC721.sol\":15167:15202  auth != address(0) && owner != auth */\n    tag_216:\n        /* \"@openzeppelin/contracts/token/ERC721/ERC721.sol\":15167:15236  auth != address(0) && owner != auth && !isApprovedForAll(owner, auth) */\n      dup1\n      iszero\n      tag_217\n      jumpi\n      pop\n        /* \"@openzeppelin/contracts/token/ERC721/ERC721.sol\":15207:15236  isApprovedForAll(owner, auth) */\n      tag_218\n        /* \"@openzeppelin/contracts/token/ERC721/ERC721.sol\":15224:15229  owner */\n      dup2\n        /* \"@openzeppelin/contracts/token/ERC721/ERC721.sol\":15231:15235  auth */\n      dup5\n        /* \"@openzeppelin/contracts/token/ERC721/ERC721.sol\":15207:15223  isApprovedForAll */\n      tag_81\n        /* \"@openzeppelin/contracts/token/ERC721/ERC721.sol\":15207:15236  isApprovedForAll(owner, auth) */\n      jump\t// in\n    tag_218:\n        /* \"@openzeppelin/contracts/token/ERC721/ERC721.sol\":15206:15236  !isApprovedForAll(owner, auth) */\n      iszero\n        /* \"@openzeppelin/contracts/token/ERC721/ERC721.sol\":15167:15236  auth != address(0) && owner != auth && !isApprovedForAll(owner, auth) */\n    tag_217:\n        /* \"@openzeppelin/contracts/token/ERC721/ERC721.sol\":15163:15305  if (auth != address(0) && owner != auth && !isApprovedForAll(owner, auth)) {... */\n      iszero\n      tag_219\n      jumpi\n        /* \"@openzeppelin/contracts/token/ERC721/ERC721.sol\":15263:15290  ERC721InvalidApprover(auth) */\n      mload(0x40)\n      shl(0xe0, 0xa9fbf51f)\n      dup2\n      mstore\n      sub(shl(0xa0, 0x01), 0x01)\n        /* \"#utility.yul\":1697:1729   */\n      dup5\n      and\n        /* \"@openzeppelin/contracts/token/ERC721/ERC721.sol\":15263:15290  ERC721InvalidApprover(auth) */\n      0x04\n      dup3\n      add\n        /* \"#utility.yul\":1679:1730   */\n      mstore\n        /* \"#utility.yul\":1652:1670   */\n      0x24\n      add\n        /* \"@openzeppelin/contracts/token/ERC721/ERC721.sol\":15263:15290  ERC721InvalidApprover(auth) */\n      tag_112\n        /* \"#utility.yul\":1533:1736   */\n      jump\n        /* \"@openzeppelin/contracts/token/ERC721/ERC721.sol\":15163:15305  if (auth != address(0) && owner != auth && !isApprovedForAll(owner, auth)) {... */\n    tag_219:\n        /* \"@openzeppelin/contracts/token/ERC721/ERC721.sol\":15323:15332  emitEvent */\n      dup2\n        /* \"@openzeppelin/contracts/token/ERC721/ERC721.sol\":15319:15400  if (emitEvent) {... */\n      iszero\n      tag_221\n      jumpi\n        /* \"@openzeppelin/contracts/token/ERC721/ERC721.sol\":15377:15384  tokenId */\n      dup4\n        /* \"@openzeppelin/contracts/token/ERC721/ERC721.sol\":15373:15375  to */\n      dup6\n      sub(shl(0xa0, 0x01), 0x01)\n        /* \"@openzeppelin/contracts/token/ERC721/ERC721.sol\":15357:15385  Approval(owner, to, tokenId) */\n      and\n        /* \"@openzeppelin/contracts/token/ERC721/ERC721.sol\":15366:15371  owner */\n      dup3\n      sub(shl(0xa0, 0x01), 0x01)\n        /* \"@openzeppelin/contracts/token/ERC721/ERC721.sol\":15357:15385  Approval(owner, to, tokenId) */\n      and\n      0x8c5be1e5ebec7d5bd14f71427d1e84f3dd0314c0f7b2291e5b200ac8c7c3b925\n      mload(0x40)\n      mload(0x40)\n      dup1\n      swap2\n      sub\n      swap1\n      log4\n        /* \"@openzeppelin/contracts/token/ERC721/ERC721.sol\":15319:15400  if (emitEvent) {... */\n    tag_221:\n        /* \"@openzeppelin/contracts/token/ERC721/ERC721.sol\":14987:15410  {... */\n      pop\n        /* \"@openzeppelin/contracts/token/ERC721/ERC721.sol\":14950:15410  if (emitEvent || auth != address(0)) {... */\n    tag_214:\n      pop\n      pop\n        /* \"@openzeppelin/contracts/token/ERC721/ERC721.sol\":15420:15444  _tokenApprovals[tokenId] */\n      0x00\n      swap1\n      dup2\n      mstore\n        /* \"@openzeppelin/contracts/token/ERC721/ERC721.sol\":15420:15435  _tokenApprovals */\n      0x04\n        /* \"@openzeppelin/contracts/token/ERC721/ERC721.sol\":15420:15444  _tokenApprovals[tokenId] */\n      0x20\n      mstore\n      0x40\n      swap1\n      keccak256\n        /* \"@openzeppelin/contracts/token/ERC721/ERC721.sol\":15420:15449  _tokenApprovals[tokenId] = to */\n      dup1\n      sload\n      not(sub(shl(0xa0, 0x01), 0x01))\n      and\n      sub(shl(0xa0, 0x01), 0x01)\n      swap3\n      swap1\n      swap3\n      and\n      swap2\n      swap1\n      swap2\n      or\n      swap1\n      sstore\n        /* \"@openzeppelin/contracts/token/ERC721/ERC721.sol\":14794:15456  function _approve(address to, uint256 tokenId, address auth, bool emitEvent) internal virtual {... */\n      jump\t// out\n        /* \"@openzeppelin/contracts/token/ERC721/ERC721.sol\":10977:11184  function _safeMint(address to, uint256 tokenId, bytes memory data) internal virtual {... */\n    tag_165:\n        /* \"@openzeppelin/contracts/token/ERC721/ERC721.sol\":11071:11089  _mint(to, tokenId) */\n      tag_223\n        /* \"@openzeppelin/contracts/token/ERC721/ERC721.sol\":11077:11079  to */\n      dup4\n        /* \"@openzeppelin/contracts/token/ERC721/ERC721.sol\":11081:11088  tokenId */\n      dup4\n        /* \"@openzeppelin/contracts/token/ERC721/ERC721.sol\":11071:11076  _mint */\n      tag_224\n        /* \"@openzeppelin/contracts/token/ERC721/ERC721.sol\":11071:11089  _mint(to, tokenId) */\n      jump\t// in\n    tag_223:\n        /* \"@openzeppelin/contracts/token/ERC721/ERC721.sol\":11099:11177  ERC721Utils.checkOnERC721Received(_msgSender(), address(0), to, tokenId, data) */\n      tag_120\n        /* \"@openzeppelin/contracts/utils/Context.sol\":735:745  msg.sender */\n      caller\n        /* \"@openzeppelin/contracts/token/ERC721/ERC721.sol\":11155:11156  0 */\n      0x00\n        /* \"@openzeppelin/contracts/token/ERC721/ERC721.sol\":11159:11161  to */\n      dup6\n        /* \"@openzeppelin/contracts/token/ERC721/ERC721.sol\":11163:11170  tokenId */\n      dup6\n        /* \"@openzeppelin/contracts/token/ERC721/ERC721.sol\":11172:11176  data */\n      dup6\n        /* \"@openzeppelin/contracts/token/ERC721/ERC721.sol\":11099:11132  ERC721Utils.checkOnERC721Received */\n      tag_140\n        /* \"@openzeppelin/contracts/token/ERC721/ERC721.sol\":11099:11177  ERC721Utils.checkOnERC721Received(_msgSender(), address(0), to, tokenId, data) */\n      jump\t// in\n        /* \"@openzeppelin/contracts/token/ERC721/ERC721.sol\":7105:7473  function _checkAuthorized(address owner, address spender, uint256 tokenId) internal view virtual {... */\n    tag_170:\n        /* \"@openzeppelin/contracts/token/ERC721/ERC721.sol\":7217:7255  _isAuthorized(owner, spender, tokenId) */\n      tag_228\n        /* \"@openzeppelin/contracts/token/ERC721/ERC721.sol\":7231:7236  owner */\n      dup4\n        /* \"@openzeppelin/contracts/token/ERC721/ERC721.sol\":7238:7245  spender */\n      dup4\n        /* \"@openzeppelin/contracts/token/ERC721/ERC721.sol\":7247:7254  tokenId */\n      dup4\n        /* \"@openzeppelin/contracts/token/ERC721/ERC721.sol\":7217:7230  _isAuthorized */\n      tag_229\n        /* \"@openzeppelin/contracts/token/ERC721/ERC721.sol\":7217:7255  _isAuthorized(owner, spender, tokenId) */\n      jump\t// in\n    tag_228:\n        /* \"@openzeppelin/contracts/token/ERC721/ERC721.sol\":7212:7467  if (!_isAuthorized(owner, spender, tokenId)) {... */\n      tag_120\n      jumpi\n      sub(shl(0xa0, 0x01), 0x01)\n        /* \"@openzeppelin/contracts/token/ERC721/ERC721.sol\":7275:7294  owner == address(0) */\n      dup4\n      and\n        /* \"@openzeppelin/contracts/token/ERC721/ERC721.sol\":7271:7457  if (owner == address(0)) {... */\n      tag_231\n      jumpi\n        /* \"@openzeppelin/contracts/token/ERC721/ERC721.sol\":7321:7352  ERC721NonexistentToken(tokenId) */\n      mload(0x40)\n      shl(0xe0, 0x7e273289)\n      dup2\n      mstore\n      0x04\n      dup2\n      add\n        /* \"#utility.yul\":2848:2873   */\n      dup3\n      swap1\n      mstore\n        /* \"#utility.yul\":2821:2839   */\n      0x24\n      add\n        /* \"@openzeppelin/contracts/token/ERC721/ERC721.sol\":7321:7352  ERC721NonexistentToken(tokenId) */\n      tag_112\n        /* \"#utility.yul\":2702:2879   */\n      jump\n        /* \"@openzeppelin/contracts/token/ERC721/ERC721.sol\":7271:7457  if (owner == address(0)) {... */\n    tag_231:\n        /* \"@openzeppelin/contracts/token/ERC721/ERC721.sol\":7398:7442  ERC721InsufficientApproval(spender, tokenId) */\n      mload(0x40)\n      shl(0xe0, 0x177e802f)\n      dup2\n      mstore\n      sub(shl(0xa0, 0x01), 0x01)\n        /* \"#utility.yul\":7351:7383   */\n      dup4\n      and\n        /* \"@openzeppelin/contracts/token/ERC721/ERC721.sol\":7398:7442  ERC721InsufficientApproval(spender, tokenId) */\n      0x04\n      dup3\n      add\n        /* \"#utility.yul\":7333:7384   */\n      mstore\n        /* \"#utility.yul\":7400:7418   */\n      0x24\n      dup2\n      add\n        /* \"#utility.yul\":7393:7427   */\n      dup3\n      swap1\n      mstore\n        /* \"#utility.yul\":7306:7324   */\n      0x44\n      add\n        /* \"@openzeppelin/contracts/token/ERC721/ERC721.sol\":7398:7442  ERC721InsufficientApproval(spender, tokenId) */\n      tag_112\n        /* \"#utility.yul\":7159:7433   */\n      jump\n        /* \"@openzeppelin/contracts/utils/math/Math.sol\":25316:26232  function log10(uint256 value) internal pure returns (uint256) {... */\n    tag_200:\n        /* \"@openzeppelin/contracts/utils/math/Math.sol\":25369:25376  uint256 */\n      0x00\n      dup1\n      shl(0x40, 0x184f03e93ff9f4daa797ed6e38ed64bf6a1f01)\n        /* \"@openzeppelin/contracts/utils/math/Math.sol\":25444:25461  value >= 10 ** 64 */\n      dup4\n      lt\n        /* \"@openzeppelin/contracts/utils/math/Math.sol\":25440:25543  if (value >= 10 ** 64) {... */\n      tag_237\n      jumpi\n      shl(0x40, 0x184f03e93ff9f4daa797ed6e38ed64bf6a1f01)\n        /* \"@openzeppelin/contracts/utils/math/Math.sol\":25481:25498  value /= 10 ** 64 */\n      dup4\n      div\n      swap3\n      pop\n        /* \"@openzeppelin/contracts/utils/math/Math.sol\":25526:25528  64 */\n      0x40\n        /* \"@openzeppelin/contracts/utils/math/Math.sol\":25516:25528  result += 64 */\n      add\n        /* \"@openzeppelin/contracts/utils/math/Math.sol\":25440:25543  if (value >= 10 ** 64) {... */\n    tag_237:\n        /* \"@openzeppelin/contracts/utils/math/Math.sol\":25569:25577  10 ** 32 */\n      0x04ee2d6d415b85acef8100000000\n        /* \"@openzeppelin/contracts/utils/math/Math.sol\":25560:25565  value */\n      dup4\n        /* \"@openzeppelin/contracts/utils/math/Math.sol\":25560:25577  value >= 10 ** 32 */\n      lt\n        /* \"@openzeppelin/contracts/utils/math/Math.sol\":25556:25659  if (value >= 10 ** 32) {... */\n      tag_240\n      jumpi\n        /* \"@openzeppelin/contracts/utils/math/Math.sol\":25606:25614  10 ** 32 */\n      0x04ee2d6d415b85acef8100000000\n        /* \"@openzeppelin/contracts/utils/math/Math.sol\":25597:25614  value /= 10 ** 32 */\n      dup4\n      div\n      swap3\n      pop\n        /* \"@openzeppelin/contracts/utils/math/Math.sol\":25642:25644  32 */\n      0x20\n        /* \"@openzeppelin/contracts/utils/math/Math.sol\":25632:25644  result += 32 */\n      add\n        /* \"@openzeppelin/contracts/utils/math/Math.sol\":25556:25659  if (value >= 10 ** 32) {... */\n    tag_240:\n        /* \"@openzeppelin/contracts/utils/math/Math.sol\":25685:25693  10 ** 16 */\n      0x2386f26fc10000\n        /* \"@openzeppelin/contracts/utils/math/Math.sol\":25676:25681  value */\n      dup4\n        /* \"@openzeppelin/contracts/utils/math/Math.sol\":25676:25693  value >= 10 ** 16 */\n      lt\n        /* \"@openzeppelin/contracts/utils/math/Math.sol\":25672:25775  if (value >= 10 ** 16) {... */\n      tag_243\n      jumpi\n        /* \"@openzeppelin/contracts/utils/math/Math.sol\":25722:25730  10 ** 16 */\n      0x2386f26fc10000\n        /* \"@openzeppelin/contracts/utils/math/Math.sol\":25713:25730  value /= 10 ** 16 */\n      dup4\n      div\n      swap3\n      pop\n        /* \"@openzeppelin/contracts/utils/math/Math.sol\":25758:25760  16 */\n      0x10\n        /* \"@openzeppelin/contracts/utils/math/Math.sol\":25748:25760  result += 16 */\n      add\n        /* \"@openzeppelin/contracts/utils/math/Math.sol\":25672:25775  if (value >= 10 ** 16) {... */\n    tag_243:\n        /* \"@openzeppelin/contracts/utils/math/Math.sol\":25801:25808  10 ** 8 */\n      0x05f5e100\n        /* \"@openzeppelin/contracts/utils/math/Math.sol\":25792:25797  value */\n      dup4\n        /* \"@openzeppelin/contracts/utils/math/Math.sol\":25792:25808  value >= 10 ** 8 */\n      lt\n        /* \"@openzeppelin/contracts/utils/math/Math.sol\":25788:25888  if (value >= 10 ** 8) {... */\n      tag_246\n      jumpi\n        /* \"@openzeppelin/contracts/utils/math/Math.sol\":25837:25844  10 ** 8 */\n      0x05f5e100\n        /* \"@openzeppelin/contracts/utils/math/Math.sol\":25828:25844  value /= 10 ** 8 */\n      dup4\n      div\n      swap3\n      pop\n        /* \"@openzeppelin/contracts/utils/math/Math.sol\":25872:25873  8 */\n      0x08\n        /* \"@openzeppelin/contracts/utils/math/Math.sol\":25862:25873  result += 8 */\n      add\n        /* \"@openzeppelin/contracts/utils/math/Math.sol\":25788:25888  if (value >= 10 ** 8) {... */\n    tag_246:\n        /* \"@openzeppelin/contracts/utils/math/Math.sol\":25914:25921  10 ** 4 */\n      0x2710\n        /* \"@openzeppelin/contracts/utils/math/Math.sol\":25905:25910  value */\n      dup4\n        /* \"@openzeppelin/contracts/utils/math/Math.sol\":25905:25921  value >= 10 ** 4 */\n      lt\n        /* \"@openzeppelin/contracts/utils/math/Math.sol\":25901:26001  if (value >= 10 ** 4) {... */\n      tag_249\n      jumpi\n        /* \"@openzeppelin/contracts/utils/math/Math.sol\":25950:25957  10 ** 4 */\n      0x2710\n        /* \"@openzeppelin/contracts/utils/math/Math.sol\":25941:25957  value /= 10 ** 4 */\n      dup4\n      div\n      swap3\n      pop\n        /* \"@openzeppelin/contracts/utils/math/Math.sol\":25985:25986  4 */\n      0x04\n        /* \"@openzeppelin/contracts/utils/math/Math.sol\":25975:25986  result += 4 */\n      add\n        /* \"@openzeppelin/contracts/utils/math/Math.sol\":25901:26001  if (value >= 10 ** 4) {... */\n    tag_249:\n        /* \"@openzeppelin/contracts/utils/math/Math.sol\":26027:26034  10 ** 2 */\n      0x64\n        /* \"@openzeppelin/contracts/utils/math/Math.sol\":26018:26023  value */\n      dup4\n        /* \"@openzeppelin/contracts/utils/math/Math.sol\":26018:26034  value >= 10 ** 2 */\n      lt\n        /* \"@openzeppelin/contracts/utils/math/Math.sol\":26014:26114  if (value >= 10 ** 2) {... */\n      tag_252\n      jumpi\n        /* \"@openzeppelin/contracts/utils/math/Math.sol\":26063:26070  10 ** 2 */\n      0x64\n        /* \"@openzeppelin/contracts/utils/math/Math.sol\":26054:26070  value /= 10 ** 2 */\n      dup4\n      div\n      swap3\n      pop\n        /* \"@openzeppelin/contracts/utils/math/Math.sol\":26098:26099  2 */\n      0x02\n        /* \"@openzeppelin/contracts/utils/math/Math.sol\":26088:26099  result += 2 */\n      add\n        /* \"@openzeppelin/contracts/utils/math/Math.sol\":26014:26114  if (value >= 10 ** 2) {... */\n    tag_252:\n        /* \"@openzeppelin/contracts/utils/math/Math.sol\":26140:26147  10 ** 1 */\n      0x0a\n        /* \"@openzeppelin/contracts/utils/math/Math.sol\":26131:26136  value */\n      dup4\n        /* \"@openzeppelin/contracts/utils/math/Math.sol\":26131:26147  value >= 10 ** 1 */\n      lt\n        /* \"@openzeppelin/contracts/utils/math/Math.sol\":26127:26193  if (value >= 10 ** 1) {... */\n      tag_86\n      jumpi\n        /* \"@openzeppelin/contracts/utils/math/Math.sol\":26177:26178  1 */\n      0x01\n        /* \"@openzeppelin/contracts/utils/math/Math.sol\":26167:26178  result += 1 */\n      add\n        /* \"@openzeppelin/contracts/utils/math/Math.sol\":26219:26225  result */\n      swap3\n        /* \"@openzeppelin/contracts/utils/math/Math.sol\":25316:26232  function log10(uint256 value) internal pure returns (uint256) {... */\n      swap2\n      pop\n      pop\n      jump\t// out\n        /* \"@openzeppelin/contracts/token/ERC721/ERC721.sol\":9978:10305  function _mint(address to, uint256 tokenId) internal {... */\n    tag_224:\n      sub(shl(0xa0, 0x01), 0x01)\n        /* \"@openzeppelin/contracts/token/ERC721/ERC721.sol\":10045:10061  to == address(0) */\n      dup3\n      and\n        /* \"@openzeppelin/contracts/token/ERC721/ERC721.sol\":10041:10128  if (to == address(0)) {... */\n      tag_257\n      jumpi\n        /* \"@openzeppelin/contracts/token/ERC721/ERC721.sol\":10084:10117  ERC721InvalidReceiver(address(0)) */\n      mload(0x40)\n      shl(0xe1, 0x32505749)\n      dup2\n      mstore\n        /* \"@openzeppelin/contracts/token/ERC721/ERC721.sol\":10114:10115  0 */\n      0x00\n        /* \"@openzeppelin/contracts/token/ERC721/ERC721.sol\":10084:10117  ERC721InvalidReceiver(address(0)) */\n      0x04\n      dup3\n      add\n        /* \"#utility.yul\":1679:1730   */\n      mstore\n        /* \"#utility.yul\":1652:1670   */\n      0x24\n      add\n        /* \"@openzeppelin/contracts/token/ERC721/ERC721.sol\":10084:10117  ERC721InvalidReceiver(address(0)) */\n      tag_112\n        /* \"#utility.yul\":1533:1736   */\n      jump\n        /* \"@openzeppelin/contracts/token/ERC721/ERC721.sol\":10041:10128  if (to == address(0)) {... */\n    tag_257:\n        /* \"@openzeppelin/contracts/token/ERC721/ERC721.sol\":10137:10158  address previousOwner */\n      0x00\n        /* \"@openzeppelin/contracts/token/ERC721/ERC721.sol\":10161:10193  _update(to, tokenId, address(0)) */\n      tag_259\n        /* \"@openzeppelin/contracts/token/ERC721/ERC721.sol\":10169:10171  to */\n      dup4\n        /* \"@openzeppelin/contracts/token/ERC721/ERC721.sol\":10173:10180  tokenId */\n      dup4\n        /* \"@openzeppelin/contracts/token/ERC721/ERC721.sol\":10190:10191  0 */\n      0x00\n        /* \"@openzeppelin/contracts/token/ERC721/ERC721.sol\":10161:10168  _update */\n      tag_115\n        /* \"@openzeppelin/contracts/token/ERC721/ERC721.sol\":10161:10193  _update(to, tokenId, address(0)) */\n      jump\t// in\n    tag_259:\n        /* \"@openzeppelin/contracts/token/ERC721/ERC721.sol\":10137:10193  address previousOwner = _update(to, tokenId, address(0)) */\n      swap1\n      pop\n      sub(shl(0xa0, 0x01), 0x01)\n        /* \"@openzeppelin/contracts/token/ERC721/ERC721.sol\":10207:10234  previousOwner != address(0) */\n      dup2\n      and\n      iszero\n        /* \"@openzeppelin/contracts/token/ERC721/ERC721.sol\":10203:10299  if (previousOwner != address(0)) {... */\n      tag_120\n      jumpi\n        /* \"@openzeppelin/contracts/token/ERC721/ERC721.sol\":10257:10288  ERC721InvalidSender(address(0)) */\n      mload(0x40)\n      shl(0xe1, 0x39e35637)\n      dup2\n      mstore\n        /* \"@openzeppelin/contracts/token/ERC721/ERC721.sol\":10285:10286  0 */\n      0x00\n        /* \"@openzeppelin/contracts/token/ERC721/ERC721.sol\":10257:10288  ERC721InvalidSender(address(0)) */\n      0x04\n      dup3\n      add\n        /* \"#utility.yul\":1679:1730   */\n      mstore\n        /* \"#utility.yul\":1652:1670   */\n      0x24\n      add\n        /* \"@openzeppelin/contracts/token/ERC721/ERC721.sol\":10257:10288  ERC721InvalidSender(address(0)) */\n      tag_112\n        /* \"#utility.yul\":1533:1736   */\n      jump\n        /* \"@openzeppelin/contracts/token/ERC721/ERC721.sol\":6401:6673  function _isAuthorized(address owner, address spender, uint256 tokenId) internal view virtual returns (bool) {... */\n    tag_229:\n        /* \"@openzeppelin/contracts/token/ERC721/ERC721.sol\":6504:6508  bool */\n      0x00\n      sub(shl(0xa0, 0x01), 0x01)\n        /* \"@openzeppelin/contracts/token/ERC721/ERC721.sol\":6539:6560  spender != address(0) */\n      dup4\n      and\n      iszero\n      dup1\n      iszero\n      swap1\n        /* \"@openzeppelin/contracts/token/ERC721/ERC721.sol\":6539:6666  spender != address(0) &&... */\n      tag_266\n      jumpi\n      pop\n        /* \"@openzeppelin/contracts/token/ERC721/ERC721.sol\":6586:6593  spender */\n      dup3\n      sub(shl(0xa0, 0x01), 0x01)\n        /* \"@openzeppelin/contracts/token/ERC721/ERC721.sol\":6577:6593  owner == spender */\n      and\n        /* \"@openzeppelin/contracts/token/ERC721/ERC721.sol\":6577:6582  owner */\n      dup5\n      sub(shl(0xa0, 0x01), 0x01)\n        /* \"@openzeppelin/contracts/token/ERC721/ERC721.sol\":6577:6593  owner == spender */\n      and\n      eq\n        /* \"@openzeppelin/contracts/token/ERC721/ERC721.sol\":6577:6629  owner == spender || isApprovedForAll(owner, spender) */\n      dup1\n      tag_265\n      jumpi\n      pop\n        /* \"@openzeppelin/contracts/token/ERC721/ERC721.sol\":6597:6629  isApprovedForAll(owner, spender) */\n      tag_265\n        /* \"@openzeppelin/contracts/token/ERC721/ERC721.sol\":6614:6619  owner */\n      dup5\n        /* \"@openzeppelin/contracts/token/ERC721/ERC721.sol\":6621:6628  spender */\n      dup5\n        /* \"@openzeppelin/contracts/token/ERC721/ERC721.sol\":6597:6613  isApprovedForAll */\n      tag_81\n        /* \"@openzeppelin/contracts/token/ERC721/ERC721.sol\":6597:6629  isApprovedForAll(owner, spender) */\n      jump\t// in\n    tag_265:\n        /* \"@openzeppelin/contracts/token/ERC721/ERC721.sol\":6577:6665  owner == spender || isApprovedForAll(owner, spender) || _getApproved(tokenId) == spender */\n      dup1\n      tag_266\n      jumpi\n      pop\n        /* \"@openzeppelin/contracts/token/ERC721/ERC721.sol\":6033:6040  address */\n      0x00\n        /* \"@openzeppelin/contracts/token/ERC721/ERC721.sol\":6059:6083  _tokenApprovals[tokenId] */\n      dup3\n      dup2\n      mstore\n        /* \"@openzeppelin/contracts/token/ERC721/ERC721.sol\":6059:6074  _tokenApprovals */\n      0x04\n        /* \"@openzeppelin/contracts/token/ERC721/ERC721.sol\":6059:6083  _tokenApprovals[tokenId] */\n      0x20\n      mstore\n      0x40\n      swap1\n      keccak256\n      sload\n      sub(shl(0xa0, 0x01), 0x01)\n        /* \"@openzeppelin/contracts/token/ERC721/ERC721.sol\":6633:6665  _getApproved(tokenId) == spender */\n      dup5\n      dup2\n      and\n        /* \"@openzeppelin/contracts/token/ERC721/ERC721.sol\":6059:6083  _tokenApprovals[tokenId] */\n      swap2\n      and\n        /* \"@openzeppelin/contracts/token/ERC721/ERC721.sol\":6633:6665  _getApproved(tokenId) == spender */\n      eq\n        /* \"@openzeppelin/contracts/token/ERC721/ERC721.sol\":6577:6665  owner == spender || isApprovedForAll(owner, spender) || _getApproved(tokenId) == spender */\n    tag_266:\n        /* \"@openzeppelin/contracts/token/ERC721/ERC721.sol\":6520:6666  return... */\n      swap5\n        /* \"@openzeppelin/contracts/token/ERC721/ERC721.sol\":6401:6673  function _isAuthorized(address owner, address spender, uint256 tokenId) internal view virtual returns (bool) {... */\n      swap4\n      pop\n      pop\n      pop\n      pop\n      jump\t// out\n        /* \"#utility.yul\":14:145   */\n    tag_268:\n      not(sub(shl(0xe0, 0x01), 0x01))\n        /* \"#utility.yul\":88:120   */\n      dup2\n      and\n        /* \"#utility.yul\":78:121   */\n      dup2\n      eq\n        /* \"#utility.yul\":68:139   */\n      tag_274\n      jumpi\n        /* \"#utility.yul\":135:136   */\n      0x00\n        /* \"#utility.yul\":132:133   */\n      dup1\n        /* \"#utility.yul\":125:137   */\n      revert\n        /* \"#utility.yul\":68:139   */\n    tag_274:\n        /* \"#utility.yul\":14:145   */\n      pop\n      jump\t// out\n        /* \"#utility.yul\":150:395   */\n    tag_23:\n        /* \"#utility.yul\":208:214   */\n      0x00\n        /* \"#utility.yul\":261:263   */\n      0x20\n        /* \"#utility.yul\":249:258   */\n      dup3\n        /* \"#utility.yul\":240:247   */\n      dup5\n        /* \"#utility.yul\":236:259   */\n      sub\n        /* \"#utility.yul\":232:264   */\n      slt\n        /* \"#utility.yul\":229:281   */\n      iszero\n      tag_276\n      jumpi\n        /* \"#utility.yul\":277:278   */\n      0x00\n        /* \"#utility.yul\":274:275   */\n      dup1\n        /* \"#utility.yul\":267:279   */\n      revert\n        /* \"#utility.yul\":229:281   */\n    tag_276:\n        /* \"#utility.yul\":316:325   */\n      dup2\n        /* \"#utility.yul\":303:326   */\n      calldataload\n        /* \"#utility.yul\":335:365   */\n      tag_146\n        /* \"#utility.yul\":359:364   */\n      dup2\n        /* \"#utility.yul\":335:365   */\n      tag_268\n      jump\t// in\n        /* \"#utility.yul\":592:842   */\n    tag_269:\n        /* \"#utility.yul\":677:678   */\n      0x00\n        /* \"#utility.yul\":687:800   */\n    tag_280:\n        /* \"#utility.yul\":701:707   */\n      dup4\n        /* \"#utility.yul\":698:699   */\n      dup2\n        /* \"#utility.yul\":695:708   */\n      lt\n        /* \"#utility.yul\":687:800   */\n      iszero\n      tag_282\n      jumpi\n        /* \"#utility.yul\":777:788   */\n      dup2\n      dup2\n      add\n        /* \"#utility.yul\":771:789   */\n      mload\n        /* \"#utility.yul\":758:769   */\n      dup4\n      dup3\n      add\n        /* \"#utility.yul\":751:790   */\n      mstore\n        /* \"#utility.yul\":723:725   */\n      0x20\n        /* \"#utility.yul\":716:726   */\n      add\n        /* \"#utility.yul\":687:800   */\n      jump(tag_280)\n    tag_282:\n      pop\n      pop\n        /* \"#utility.yul\":834:835   */\n      0x00\n        /* \"#utility.yul\":816:832   */\n      swap2\n      add\n        /* \"#utility.yul\":809:836   */\n      mstore\n        /* \"#utility.yul\":592:842   */\n      jump\t// out\n        /* \"#utility.yul\":847:1118   */\n    tag_270:\n        /* \"#utility.yul\":889:892   */\n      0x00\n        /* \"#utility.yul\":927:932   */\n      dup2\n        /* \"#utility.yul\":921:933   */\n      mload\n        /* \"#utility.yul\":954:960   */\n      dup1\n        /* \"#utility.yul\":949:952   */\n      dup5\n        /* \"#utility.yul\":942:961   */\n      mstore\n        /* \"#utility.yul\":970:1046   */\n      tag_284\n        /* \"#utility.yul\":1039:1045   */\n      dup2\n        /* \"#utility.yul\":1032:1036   */\n      0x20\n        /* \"#utility.yul\":1027:1030   */\n      dup7\n        /* \"#utility.yul\":1023:1037   */\n      add\n        /* \"#utility.yul\":1016:1020   */\n      0x20\n        /* \"#utility.yul\":1009:1014   */\n      dup7\n        /* \"#utility.yul\":1005:1021   */\n      add\n        /* \"#utility.yul\":970:1046   */\n      tag_269\n      jump\t// in\n    tag_284:\n        /* \"#utility.yul\":1100:1102   */\n      0x1f\n        /* \"#utility.yul\":1079:1094   */\n      add\n      not(0x1f)\n        /* \"#utility.yul\":1075:1104   */\n      and\n        /* \"#utility.yul\":1066:1105   */\n      swap3\n      swap1\n      swap3\n      add\n        /* \"#utility.yul\":1107:1111   */\n      0x20\n        /* \"#utility.yul\":1062:1112   */\n      add\n      swap3\n        /* \"#utility.yul\":847:1118   */\n      swap2\n      pop\n      pop\n      jump\t// out\n        /* \"#utility.yul\":1123:1343   */\n    tag_30:\n        /* \"#utility.yul\":1272:1274   */\n      0x20\n        /* \"#utility.yul\":1261:1270   */\n      dup2\n        /* \"#utility.yul\":1254:1275   */\n      mstore\n        /* \"#utility.yul\":1235:1239   */\n      0x00\n        /* \"#utility.yul\":1292:1337   */\n      tag_146\n        /* \"#utility.yul\":1333:1335   */\n      0x20\n        /* \"#utility.yul\":1322:1331   */\n      dup4\n        /* \"#utility.yul\":1318:1336   */\n      add\n        /* \"#utility.yul\":1310:1316   */\n      dup5\n        /* \"#utility.yul\":1292:1337   */\n      tag_270\n      jump\t// in\n        /* \"#utility.yul\":1348:1528   */\n    tag_33:\n        /* \"#utility.yul\":1407:1413   */\n      0x00\n        /* \"#utility.yul\":1460:1462   */\n      0x20\n        /* \"#utility.yul\":1448:1457   */\n      dup3\n        /* \"#utility.yul\":1439:1446   */\n      dup5\n        /* \"#utility.yul\":1435:1458   */\n      sub\n        /* \"#utility.yul\":1431:1463   */\n      slt\n        /* \"#utility.yul\":1428:1480   */\n      iszero\n      tag_288\n      jumpi\n        /* \"#utility.yul\":1476:1477   */\n      0x00\n        /* \"#utility.yul\":1473:1474   */\n      dup1\n        /* \"#utility.yul\":1466:1478   */\n      revert\n        /* \"#utility.yul\":1428:1480   */\n    tag_288:\n      pop\n        /* \"#utility.yul\":1499:1522   */\n      calldataload\n      swap2\n        /* \"#utility.yul\":1348:1528   */\n      swap1\n      pop\n      jump\t// out\n        /* \"#utility.yul\":1741:1914   */\n    tag_271:\n        /* \"#utility.yul\":1809:1829   */\n      dup1\n      calldataload\n      sub(shl(0xa0, 0x01), 0x01)\n        /* \"#utility.yul\":1858:1889   */\n      dup2\n      and\n        /* \"#utility.yul\":1848:1890   */\n      dup2\n      eq\n        /* \"#utility.yul\":1838:1908   */\n      tag_291\n      jumpi\n        /* \"#utility.yul\":1904:1905   */\n      0x00\n        /* \"#utility.yul\":1901:1902   */\n      dup1\n        /* \"#utility.yul\":1894:1906   */\n      revert\n        /* \"#utility.yul\":1838:1908   */\n    tag_291:\n        /* \"#utility.yul\":1741:1914   */\n      swap2\n      swap1\n      pop\n      jump\t// out\n        /* \"#utility.yul\":1919:2173   */\n    tag_39:\n        /* \"#utility.yul\":1987:1993   */\n      0x00\n        /* \"#utility.yul\":1995:2001   */\n      dup1\n        /* \"#utility.yul\":2048:2050   */\n      0x40\n        /* \"#utility.yul\":2036:2045   */\n      dup4\n        /* \"#utility.yul\":2027:2034   */\n      dup6\n        /* \"#utility.yul\":2023:2046   */\n      sub\n        /* \"#utility.yul\":2019:2051   */\n      slt\n        /* \"#utility.yul\":2016:2068   */\n      iszero\n      tag_293\n      jumpi\n        /* \"#utility.yul\":2064:2065   */\n      0x00\n        /* \"#utility.yul\":2061:2062   */\n      dup1\n        /* \"#utility.yul\":2054:2066   */\n      revert\n        /* \"#utility.yul\":2016:2068   */\n    tag_293:\n        /* \"#utility.yul\":2087:2116   */\n      tag_294\n        /* \"#utility.yul\":2106:2115   */\n      dup4\n        /* \"#utility.yul\":2087:2116   */\n      tag_271\n      jump\t// in\n    tag_294:\n        /* \"#utility.yul\":2077:2116   */\n      swap5\n        /* \"#utility.yul\":2163:2165   */\n      0x20\n        /* \"#utility.yul\":2148:2166   */\n      swap4\n      swap1\n      swap4\n      add\n        /* \"#utility.yul\":2135:2167   */\n      calldataload\n      swap4\n      pop\n      pop\n      pop\n        /* \"#utility.yul\":1919:2173   */\n      jump\t// out\n        /* \"#utility.yul\":2178:2506   */\n    tag_45:\n        /* \"#utility.yul\":2255:2261   */\n      0x00\n        /* \"#utility.yul\":2263:2269   */\n      dup1\n        /* \"#utility.yul\":2271:2277   */\n      0x00\n        /* \"#utility.yul\":2324:2326   */\n      0x60\n        /* \"#utility.yul\":2312:2321   */\n      dup5\n        /* \"#utility.yul\":2303:2310   */\n      dup7\n        /* \"#utility.yul\":2299:2322   */\n      sub\n        /* \"#utility.yul\":2295:2327   */\n      slt\n        /* \"#utility.yul\":2292:2344   */\n      iszero\n      tag_296\n      jumpi\n        /* \"#utility.yul\":2340:2341   */\n      0x00\n        /* \"#utility.yul\":2337:2338   */\n      dup1\n        /* \"#utility.yul\":2330:2342   */\n      revert\n        /* \"#utility.yul\":2292:2344   */\n    tag_296:\n        /* \"#utility.yul\":2363:2392   */\n      tag_297\n        /* \"#utility.yul\":2382:2391   */\n      dup5\n        /* \"#utility.yul\":2363:2392   */\n      tag_271\n      jump\t// in\n    tag_297:\n        /* \"#utility.yul\":2353:2392   */\n      swap3\n      pop\n        /* \"#utility.yul\":2411:2449   */\n      tag_298\n        /* \"#utility.yul\":2445:2447   */\n      0x20\n        /* \"#utility.yul\":2434:2443   */\n      dup6\n        /* \"#utility.yul\":2430:2448   */\n      add\n        /* \"#utility.yul\":2411:2449   */\n      tag_271\n      jump\t// in\n    tag_298:\n        /* \"#utility.yul\":2401:2449   */\n      swap2\n      pop\n        /* \"#utility.yul\":2496:2498   */\n      0x40\n        /* \"#utility.yul\":2485:2494   */\n      dup5\n        /* \"#utility.yul\":2481:2499   */\n      add\n        /* \"#utility.yul\":2468:2500   */\n      calldataload\n        /* \"#utility.yul\":2458:2500   */\n      swap1\n      pop\n        /* \"#utility.yul\":2178:2506   */\n      swap3\n      pop\n      swap3\n      pop\n      swap3\n      jump\t// out\n        /* \"#utility.yul\":2511:2697   */\n    tag_56:\n        /* \"#utility.yul\":2570:2576   */\n      0x00\n        /* \"#utility.yul\":2623:2625   */\n      0x20\n        /* \"#utility.yul\":2611:2620   */\n      dup3\n        /* \"#utility.yul\":2602:2609   */\n      dup5\n        /* \"#utility.yul\":2598:2621   */\n      sub\n        /* \"#utility.yul\":2594:2626   */\n      slt\n        /* \"#utility.yul\":2591:2643   */\n      iszero\n      tag_300\n      jumpi\n        /* \"#utility.yul\":2639:2640   */\n      0x00\n        /* \"#utility.yul\":2636:2637   */\n      dup1\n        /* \"#utility.yul\":2629:2641   */\n      revert\n        /* \"#utility.yul\":2591:2643   */\n    tag_300:\n        /* \"#utility.yul\":2662:2691   */\n      tag_146\n        /* \"#utility.yul\":2681:2690   */\n      dup3\n        /* \"#utility.yul\":2662:2691   */\n      tag_271\n      jump\t// in\n        /* \"#utility.yul\":2884:3231   */\n    tag_68:\n        /* \"#utility.yul\":2949:2955   */\n      0x00\n        /* \"#utility.yul\":2957:2963   */\n      dup1\n        /* \"#utility.yul\":3010:3012   */\n      0x40\n        /* \"#utility.yul\":2998:3007   */\n      dup4\n        /* \"#utility.yul\":2989:2996   */\n      dup6\n        /* \"#utility.yul\":2985:3008   */\n      sub\n        /* \"#utility.yul\":2981:3013   */\n      slt\n        /* \"#utility.yul\":2978:3030   */\n      iszero\n      tag_304\n      jumpi\n        /* \"#utility.yul\":3026:3027   */\n      0x00\n        /* \"#utility.yul\":3023:3024   */\n      dup1\n        /* \"#utility.yul\":3016:3028   */\n      revert\n        /* \"#utility.yul\":2978:3030   */\n    tag_304:\n        /* \"#utility.yul\":3049:3078   */\n      tag_305\n        /* \"#utility.yul\":3068:3077   */\n      dup4\n        /* \"#utility.yul\":3049:3078   */\n      tag_271\n      jump\t// in\n    tag_305:\n        /* \"#utility.yul\":3039:3078   */\n      swap2\n      pop\n        /* \"#utility.yul\":3128:3130   */\n      0x20\n        /* \"#utility.yul\":3117:3126   */\n      dup4\n        /* \"#utility.yul\":3113:3131   */\n      add\n        /* \"#utility.yul\":3100:3132   */\n      calldataload\n        /* \"#utility.yul\":3175:3180   */\n      dup1\n        /* \"#utility.yul\":3168:3181   */\n      iszero\n        /* \"#utility.yul\":3161:3182   */\n      iszero\n        /* \"#utility.yul\":3154:3159   */\n      dup2\n        /* \"#utility.yul\":3151:3183   */\n      eq\n        /* \"#utility.yul\":3141:3201   */\n      tag_306\n      jumpi\n        /* \"#utility.yul\":3197:3198   */\n      0x00\n        /* \"#utility.yul\":3194:3195   */\n      dup1\n        /* \"#utility.yul\":3187:3199   */\n      revert\n        /* \"#utility.yul\":3141:3201   */\n    tag_306:\n        /* \"#utility.yul\":3220:3225   */\n      dup1\n        /* \"#utility.yul\":3210:3225   */\n      swap2\n      pop\n      pop\n        /* \"#utility.yul\":2884:3231   */\n      swap3\n      pop\n      swap3\n      swap1\n      pop\n      jump\t// out\n        /* \"#utility.yul\":3236:3363   */\n    tag_203:\n        /* \"#utility.yul\":3297:3307   */\n      0x4e487b71\n        /* \"#utility.yul\":3292:3295   */\n      0xe0\n        /* \"#utility.yul\":3288:3308   */\n      shl\n        /* \"#utility.yul\":3285:3286   */\n      0x00\n        /* \"#utility.yul\":3278:3309   */\n      mstore\n        /* \"#utility.yul\":3328:3332   */\n      0x41\n        /* \"#utility.yul\":3325:3326   */\n      0x04\n        /* \"#utility.yul\":3318:3333   */\n      mstore\n        /* \"#utility.yul\":3352:3356   */\n      0x24\n        /* \"#utility.yul\":3349:3350   */\n      0x00\n        /* \"#utility.yul\":3342:3357   */\n      revert\n        /* \"#utility.yul\":3368:4506   */\n    tag_72:\n        /* \"#utility.yul\":3463:3469   */\n      0x00\n        /* \"#utility.yul\":3471:3477   */\n      dup1\n        /* \"#utility.yul\":3479:3485   */\n      0x00\n        /* \"#utility.yul\":3487:3493   */\n      dup1\n        /* \"#utility.yul\":3540:3543   */\n      0x80\n        /* \"#utility.yul\":3528:3537   */\n      dup6\n        /* \"#utility.yul\":3519:3526   */\n      dup8\n        /* \"#utility.yul\":3515:3538   */\n      sub\n        /* \"#utility.yul\":3511:3544   */\n      slt\n        /* \"#utility.yul\":3508:3561   */\n      iszero\n      tag_309\n      jumpi\n        /* \"#utility.yul\":3557:3558   */\n      0x00\n        /* \"#utility.yul\":3554:3555   */\n      dup1\n        /* \"#utility.yul\":3547:3559   */\n      revert\n        /* \"#utility.yul\":3508:3561   */\n    tag_309:\n        /* \"#utility.yul\":3580:3609   */\n      tag_310\n        /* \"#utility.yul\":3599:3608   */\n      dup6\n        /* \"#utility.yul\":3580:3609   */\n      tag_271\n      jump\t// in\n    tag_310:\n        /* \"#utility.yul\":3570:3609   */\n      swap4\n      pop\n        /* \"#utility.yul\":3628:3666   */\n      tag_311\n        /* \"#utility.yul\":3662:3664   */\n      0x20\n        /* \"#utility.yul\":3651:3660   */\n      dup7\n        /* \"#utility.yul\":3647:3665   */\n      add\n        /* \"#utility.yul\":3628:3666   */\n      tag_271\n      jump\t// in\n    tag_311:\n        /* \"#utility.yul\":3618:3666   */\n      swap3\n      pop\n        /* \"#utility.yul\":3713:3715   */\n      0x40\n        /* \"#utility.yul\":3702:3711   */\n      dup6\n        /* \"#utility.yul\":3698:3716   */\n      add\n        /* \"#utility.yul\":3685:3717   */\n      calldataload\n        /* \"#utility.yul\":3675:3717   */\n      swap2\n      pop\n        /* \"#utility.yul\":3768:3770   */\n      0x60\n        /* \"#utility.yul\":3757:3766   */\n      dup6\n        /* \"#utility.yul\":3753:3771   */\n      add\n        /* \"#utility.yul\":3740:3772   */\n      calldataload\n        /* \"#utility.yul\":3791:3809   */\n      0xffffffffffffffff\n        /* \"#utility.yul\":3832:3834   */\n      dup1\n        /* \"#utility.yul\":3824:3830   */\n      dup3\n        /* \"#utility.yul\":3821:3835   */\n      gt\n        /* \"#utility.yul\":3818:3852   */\n      iszero\n      tag_312\n      jumpi\n        /* \"#utility.yul\":3848:3849   */\n      0x00\n        /* \"#utility.yul\":3845:3846   */\n      dup1\n        /* \"#utility.yul\":3838:3850   */\n      revert\n        /* \"#utility.yul\":3818:3852   */\n    tag_312:\n        /* \"#utility.yul\":3886:3892   */\n      dup2\n        /* \"#utility.yul\":3875:3884   */\n      dup8\n        /* \"#utility.yul\":3871:3893   */\n      add\n        /* \"#utility.yul\":3861:3893   */\n      swap2\n      pop\n        /* \"#utility.yul\":3931:3938   */\n      dup8\n        /* \"#utility.yul\":3924:3928   */\n      0x1f\n        /* \"#utility.yul\":3920:3922   */\n      dup4\n        /* \"#utility.yul\":3916:3929   */\n      add\n        /* \"#utility.yul\":3912:3939   */\n      slt\n        /* \"#utility.yul\":3902:3957   */\n      tag_313\n      jumpi\n        /* \"#utility.yul\":3953:3954   */\n      0x00\n        /* \"#utility.yul\":3950:3951   */\n      dup1\n        /* \"#utility.yul\":3943:3955   */\n      revert\n        /* \"#utility.yul\":3902:3957   */\n    tag_313:\n        /* \"#utility.yul\":3989:3991   */\n      dup2\n        /* \"#utility.yul\":3976:3992   */\n      calldataload\n        /* \"#utility.yul\":4011:4013   */\n      dup2\n        /* \"#utility.yul\":4007:4009   */\n      dup2\n        /* \"#utility.yul\":4004:4014   */\n      gt\n        /* \"#utility.yul\":4001:4037   */\n      iszero\n      tag_315\n      jumpi\n        /* \"#utility.yul\":4017:4035   */\n      tag_315\n      tag_203\n      jump\t// in\n    tag_315:\n        /* \"#utility.yul\":4092:4094   */\n      0x40\n        /* \"#utility.yul\":4086:4095   */\n      mload\n        /* \"#utility.yul\":4060:4062   */\n      0x1f\n        /* \"#utility.yul\":4146:4159   */\n      dup3\n      add\n      not(0x1f)\n        /* \"#utility.yul\":4142:4164   */\n      swap1\n      dup2\n      and\n        /* \"#utility.yul\":4166:4168   */\n      0x3f\n        /* \"#utility.yul\":4138:4169   */\n      add\n        /* \"#utility.yul\":4134:4174   */\n      and\n        /* \"#utility.yul\":4122:4175   */\n      dup2\n      add\n      swap1\n        /* \"#utility.yul\":4190:4208   */\n      dup4\n      dup3\n      gt\n        /* \"#utility.yul\":4210:4232   */\n      dup2\n      dup4\n      lt\n        /* \"#utility.yul\":4187:4233   */\n      or\n        /* \"#utility.yul\":4184:4256   */\n      iszero\n      tag_317\n      jumpi\n        /* \"#utility.yul\":4236:4254   */\n      tag_317\n      tag_203\n      jump\t// in\n    tag_317:\n        /* \"#utility.yul\":4276:4286   */\n      dup2\n        /* \"#utility.yul\":4272:4274   */\n      0x40\n        /* \"#utility.yul\":4265:4287   */\n      mstore\n        /* \"#utility.yul\":4311:4313   */\n      dup3\n        /* \"#utility.yul\":4303:4309   */\n      dup2\n        /* \"#utility.yul\":4296:4314   */\n      mstore\n        /* \"#utility.yul\":4351:4358   */\n      dup11\n        /* \"#utility.yul\":4346:4348   */\n      0x20\n        /* \"#utility.yul\":4341:4343   */\n      dup5\n        /* \"#utility.yul\":4337:4339   */\n      dup8\n        /* \"#utility.yul\":4333:4344   */\n      add\n        /* \"#utility.yul\":4329:4349   */\n      add\n        /* \"#utility.yul\":4326:4359   */\n      gt\n        /* \"#utility.yul\":4323:4376   */\n      iszero\n      tag_318\n      jumpi\n        /* \"#utility.yul\":4372:4373   */\n      0x00\n        /* \"#utility.yul\":4369:4370   */\n      dup1\n        /* \"#utility.yul\":4362:4374   */\n      revert\n        /* \"#utility.yul\":4323:4376   */\n    tag_318:\n        /* \"#utility.yul\":4428:4430   */\n      dup3\n        /* \"#utility.yul\":4423:4425   */\n      0x20\n        /* \"#utility.yul\":4419:4421   */\n      dup7\n        /* \"#utility.yul\":4415:4426   */\n      add\n        /* \"#utility.yul\":4410:4412   */\n      0x20\n        /* \"#utility.yul\":4402:4408   */\n      dup4\n        /* \"#utility.yul\":4398:4413   */\n      add\n        /* \"#utility.yul\":4385:4431   */\n      calldatacopy\n        /* \"#utility.yul\":4473:4474   */\n      0x00\n        /* \"#utility.yul\":4468:4470   */\n      0x20\n        /* \"#utility.yul\":4463:4465   */\n      dup5\n        /* \"#utility.yul\":4455:4461   */\n      dup4\n        /* \"#utility.yul\":4451:4466   */\n      add\n        /* \"#utility.yul\":4447:4471   */\n      add\n        /* \"#utility.yul\":4440:4475   */\n      mstore\n        /* \"#utility.yul\":4494:4500   */\n      dup1\n        /* \"#utility.yul\":4484:4500   */\n      swap6\n      pop\n      pop\n      pop\n      pop\n      pop\n      pop\n        /* \"#utility.yul\":3368:4506   */\n      swap3\n      swap6\n      swap2\n      swap5\n      pop\n      swap3\n      pop\n      jump\t// out\n        /* \"#utility.yul\":4511:4771   */\n    tag_80:\n        /* \"#utility.yul\":4579:4585   */\n      0x00\n        /* \"#utility.yul\":4587:4593   */\n      dup1\n        /* \"#utility.yul\":4640:4642   */\n      0x40\n        /* \"#utility.yul\":4628:4637   */\n      dup4\n        /* \"#utility.yul\":4619:4626   */\n      dup6\n        /* \"#utility.yul\":4615:4638   */\n      sub\n        /* \"#utility.yul\":4611:4643   */\n      slt\n        /* \"#utility.yul\":4608:4660   */\n      iszero\n      tag_320\n      jumpi\n        /* \"#utility.yul\":4656:4657   */\n      0x00\n        /* \"#utility.yul\":4653:4654   */\n      dup1\n        /* \"#utility.yul\":4646:4658   */\n      revert\n        /* \"#utility.yul\":4608:4660   */\n    tag_320:\n        /* \"#utility.yul\":4679:4708   */\n      tag_321\n        /* \"#utility.yul\":4698:4707   */\n      dup4\n        /* \"#utility.yul\":4679:4708   */\n      tag_271\n      jump\t// in\n    tag_321:\n        /* \"#utility.yul\":4669:4708   */\n      swap2\n      pop\n        /* \"#utility.yul\":4727:4765   */\n      tag_322\n        /* \"#utility.yul\":4761:4763   */\n      0x20\n        /* \"#utility.yul\":4750:4759   */\n      dup5\n        /* \"#utility.yul\":4746:4764   */\n      add\n        /* \"#utility.yul\":4727:4765   */\n      tag_271\n      jump\t// in\n    tag_322:\n        /* \"#utility.yul\":4717:4765   */\n      swap1\n      pop\n        /* \"#utility.yul\":4511:4771   */\n      swap3\n      pop\n      swap3\n      swap1\n      pop\n      jump\t// out\n        /* \"#utility.yul\":4776:5156   */\n    tag_90:\n        /* \"#utility.yul\":4855:4856   */\n      0x01\n        /* \"#utility.yul\":4851:4863   */\n      dup2\n      dup2\n      shr\n      swap1\n        /* \"#utility.yul\":4898:4910   */\n      dup3\n      and\n      dup1\n        /* \"#utility.yul\":4919:4980   */\n      tag_324\n      jumpi\n        /* \"#utility.yul\":4973:4977   */\n      0x7f\n        /* \"#utility.yul\":4965:4971   */\n      dup3\n        /* \"#utility.yul\":4961:4978   */\n      and\n        /* \"#utility.yul\":4951:4978   */\n      swap2\n      pop\n        /* \"#utility.yul\":4919:4980   */\n    tag_324:\n        /* \"#utility.yul\":5026:5028   */\n      0x20\n        /* \"#utility.yul\":5018:5024   */\n      dup3\n        /* \"#utility.yul\":5015:5029   */\n      lt\n        /* \"#utility.yul\":4995:5013   */\n      dup2\n        /* \"#utility.yul\":4992:5030   */\n      sub\n        /* \"#utility.yul\":4989:5150   */\n      tag_325\n      jumpi\n        /* \"#utility.yul\":5072:5082   */\n      0x4e487b71\n        /* \"#utility.yul\":5067:5070   */\n      0xe0\n        /* \"#utility.yul\":5063:5083   */\n      shl\n        /* \"#utility.yul\":5060:5061   */\n      0x00\n        /* \"#utility.yul\":5053:5084   */\n      mstore\n        /* \"#utility.yul\":5107:5111   */\n      0x22\n        /* \"#utility.yul\":5104:5105   */\n      0x04\n        /* \"#utility.yul\":5097:5112   */\n      mstore\n        /* \"#utility.yul\":5135:5139   */\n      0x24\n        /* \"#utility.yul\":5132:5133   */\n      0x00\n        /* \"#utility.yul\":5125:5140   */\n      revert\n        /* \"#utility.yul\":4989:5150   */\n    tag_325:\n      pop\n        /* \"#utility.yul\":4776:5156   */\n      swap2\n      swap1\n      pop\n      jump\t// out\n        /* \"#utility.yul\":5161:5393   */\n    tag_109:\n        /* \"#utility.yul\":5200:5203   */\n      0x00\n        /* \"#utility.yul\":5221:5238   */\n      0x01\n      dup3\n      add\n        /* \"#utility.yul\":5218:5358   */\n      tag_327\n      jumpi\n        /* \"#utility.yul\":5280:5290   */\n      0x4e487b71\n        /* \"#utility.yul\":5275:5278   */\n      0xe0\n        /* \"#utility.yul\":5271:5291   */\n      shl\n        /* \"#utility.yul\":5268:5269   */\n      0x00\n        /* \"#utility.yul\":5261:5292   */\n      mstore\n        /* \"#utility.yul\":5315:5319   */\n      0x11\n        /* \"#utility.yul\":5312:5313   */\n      0x04\n        /* \"#utility.yul\":5305:5320   */\n      mstore\n        /* \"#utility.yul\":5343:5347   */\n      0x24\n        /* \"#utility.yul\":5340:5341   */\n      0x00\n        /* \"#utility.yul\":5333:5348   */\n      revert\n        /* \"#utility.yul\":5218:5358   */\n    tag_327:\n      pop\n        /* \"#utility.yul\":5385:5386   */\n      0x01\n        /* \"#utility.yul\":5374:5387   */\n      add\n      swap1\n        /* \"#utility.yul\":5161:5393   */\n      jump\t// out\n        /* \"#utility.yul\":5778:6274   */\n    tag_150:\n        /* \"#utility.yul\":5957:5960   */\n      0x00\n        /* \"#utility.yul\":5995:6001   */\n      dup4\n        /* \"#utility.yul\":5989:6002   */\n      mload\n        /* \"#utility.yul\":6011:6077   */\n      tag_330\n        /* \"#utility.yul\":6070:6076   */\n      dup2\n        /* \"#utility.yul\":6065:6068   */\n      dup5\n        /* \"#utility.yul\":6058:6062   */\n      0x20\n        /* \"#utility.yul\":6050:6056   */\n      dup9\n        /* \"#utility.yul\":6046:6063   */\n      add\n        /* \"#utility.yul\":6011:6077   */\n      tag_269\n      jump\t// in\n    tag_330:\n        /* \"#utility.yul\":6140:6153   */\n      dup4\n      mload\n        /* \"#utility.yul\":6099:6115   */\n      swap1\n      dup4\n      add\n      swap1\n        /* \"#utility.yul\":6162:6232   */\n      tag_331\n        /* \"#utility.yul\":6140:6153   */\n      dup2\n        /* \"#utility.yul\":6099:6115   */\n      dup4\n        /* \"#utility.yul\":6209:6213   */\n      0x20\n        /* \"#utility.yul\":6197:6214   */\n      dup9\n      add\n        /* \"#utility.yul\":6162:6232   */\n      tag_269\n      jump\t// in\n    tag_331:\n        /* \"#utility.yul\":6248:6268   */\n      add\n      swap5\n        /* \"#utility.yul\":5778:6274   */\n      swap4\n      pop\n      pop\n      pop\n      pop\n      jump\t// out\n        /* \"#utility.yul\":6279:6768   */\n    tag_181:\n      sub(shl(0xa0, 0x01), 0x01)\n        /* \"#utility.yul\":6548:6563   */\n      dup6\n      dup2\n      and\n        /* \"#utility.yul\":6530:6564   */\n      dup3\n      mstore\n        /* \"#utility.yul\":6600:6615   */\n      dup5\n      and\n        /* \"#utility.yul\":6595:6597   */\n      0x20\n        /* \"#utility.yul\":6580:6598   */\n      dup3\n      add\n        /* \"#utility.yul\":6573:6616   */\n      mstore\n        /* \"#utility.yul\":6647:6649   */\n      0x40\n        /* \"#utility.yul\":6632:6650   */\n      dup2\n      add\n        /* \"#utility.yul\":6625:6659   */\n      dup4\n      swap1\n      mstore\n        /* \"#utility.yul\":6695:6698   */\n      0x80\n        /* \"#utility.yul\":6690:6692   */\n      0x60\n        /* \"#utility.yul\":6675:6693   */\n      dup3\n      add\n        /* \"#utility.yul\":6668:6699   */\n      dup2\n      swap1\n      mstore\n        /* \"#utility.yul\":6473:6477   */\n      0x00\n      swap1\n        /* \"#utility.yul\":6716:6762   */\n      tag_333\n      swap1\n        /* \"#utility.yul\":6742:6761   */\n      dup4\n      add\n        /* \"#utility.yul\":6734:6740   */\n      dup5\n        /* \"#utility.yul\":6716:6762   */\n      tag_270\n      jump\t// in\n    tag_333:\n        /* \"#utility.yul\":6708:6762   */\n      swap7\n        /* \"#utility.yul\":6279:6768   */\n      swap6\n      pop\n      pop\n      pop\n      pop\n      pop\n      pop\n      jump\t// out\n        /* \"#utility.yul\":6773:7022   */\n    tag_184:\n        /* \"#utility.yul\":6842:6848   */\n      0x00\n        /* \"#utility.yul\":6895:6897   */\n      0x20\n        /* \"#utility.yul\":6883:6892   */\n      dup3\n        /* \"#utility.yul\":6874:6881   */\n      dup5\n        /* \"#utility.yul\":6870:6893   */\n      sub\n        /* \"#utility.yul\":6866:6898   */\n      slt\n        /* \"#utility.yul\":6863:6915   */\n      iszero\n      tag_335\n      jumpi\n        /* \"#utility.yul\":6911:6912   */\n      0x00\n        /* \"#utility.yul\":6908:6909   */\n      dup1\n        /* \"#utility.yul\":6901:6913   */\n      revert\n        /* \"#utility.yul\":6863:6915   */\n    tag_335:\n        /* \"#utility.yul\":6943:6952   */\n      dup2\n        /* \"#utility.yul\":6937:6953   */\n      mload\n        /* \"#utility.yul\":6962:6992   */\n      tag_146\n        /* \"#utility.yul\":6986:6991   */\n      dup2\n        /* \"#utility.yul\":6962:6992   */\n      tag_268\n      jump\t// in\n\n    auxdata: 0xa264697066735822122056ad02a84722e23956578fbcacec8a88d4100bd67318866634a81a25ee46b56d64736f6c63430008140033\n}\n",
				"bytecode": {
					"linkReferences": {},
					"object": "608060405234801562000010575f80fd5b506040518060400160405280600f81526020016e5374616e646172642045524337323160881b815250604051806040016040528060078152602001665345524337323160c81b815250815f908162000069919062000121565b50600162000078828262000121565b505050620001e9565b634e487b7160e01b5f52604160045260245ffd5b600181811c90821680620000aa57607f821691505b602082108103620000c957634e487b7160e01b5f52602260045260245ffd5b50919050565b601f8211156200011c575f81815260208120601f850160051c81016020861015620000f75750805b601f850160051c820191505b81811015620001185782815560010162000103565b5050505b505050565b81516001600160401b038111156200013d576200013d62000081565b62000155816200014e845462000095565b84620000cf565b602080601f8311600181146200018b575f8415620001735750858301515b5f19600386901b1c1916600185901b17855562000118565b5f85815260208120601f198616915b82811015620001bb578886015182559484019460019091019084016200019a565b5085821015620001d957878501515f19600388901b60f8161c191681555b5050505050600190811b01905550565b610f9d80620001f75f395ff3fe608060405234801561000f575f80fd5b50600436106100f0575f3560e01c80636352211e11610093578063a22cb46511610063578063a22cb465146101e4578063b88d4fde146101f7578063c87b56dd1461020a578063e985e9c51461021d575f80fd5b80636352211e1461019f57806370a08231146101b257806375794a3c146101d357806395d89b41146101dc575f80fd5b8063095ea7b3116100ce578063095ea7b31461015c5780631249c58b1461017157806323b872dd1461017957806342842e0e1461018c575f80fd5b806301ffc9a7146100f457806306fdde031461011c578063081812fc14610131575b5f80fd5b610107610102366004610c0d565b610230565b60405190151581526020015b60405180910390f35b610124610281565b6040516101139190610c75565b61014461013f366004610c87565b610310565b6040516001600160a01b039091168152602001610113565b61016f61016a366004610cb9565b610337565b005b61016f610346565b61016f610187366004610ce1565b610368565b61016f61019a366004610ce1565b6103f6565b6101446101ad366004610c87565b610415565b6101c56101c0366004610d1a565b61041f565b604051908152602001610113565b6101c560065481565b610124610464565b61016f6101f2366004610d33565b610473565b61016f610205366004610d80565b61047e565b610124610218366004610c87565b610496565b61010761022b366004610e55565b610507565b5f6001600160e01b031982166380ac58cd60e01b148061026057506001600160e01b03198216635b5e139f60e01b145b8061027b57506301ffc9a760e01b6001600160e01b03198316145b92915050565b60605f805461028f90610e86565b80601f01602080910402602001604051908101604052809291908181526020018280546102bb90610e86565b80156103065780601f106102dd57610100808354040283529160200191610306565b820191905f5260205f20905b8154815290600101906020018083116102e957829003601f168201915b5050505050905090565b5f61031a82610534565b505f828152600460205260409020546001600160a01b031661027b565b61034282823361056c565b5050565b61035233600654610579565b60068054905f61036183610ebe565b9190505550565b6001600160a01b03821661039657604051633250574960e11b81525f60048201526024015b60405180910390fd5b5f6103a2838333610592565b9050836001600160a01b0316816001600160a01b0316146103f0576040516364283d7b60e01b81526001600160a01b038086166004830152602482018490528216604482015260640161038d565b50505050565b61041083838360405180602001604052805f81525061047e565b505050565b5f61027b82610534565b5f6001600160a01b038216610449576040516322718ad960e21b81525f600482015260240161038d565b506001600160a01b03165f9081526003602052604090205490565b60606001805461028f90610e86565b610342338383610684565b610489848484610368565b6103f03385858585610722565b60606104a182610534565b505f6104b760408051602081019091525f815290565b90505f8151116104d55760405180602001604052805f815250610500565b806104df8461084a565b6040516020016104f0929190610ee2565b6040516020818303038152906040525b9392505050565b6001600160a01b039182165f90815260056020908152604080832093909416825291909152205460ff1690565b5f818152600260205260408120546001600160a01b03168061027b57604051637e27328960e01b81526004810184905260240161038d565b61041083838360016108da565b610342828260405180602001604052805f8152506109de565b5f828152600260205260408120546001600160a01b03908116908316156105be576105be8184866109f5565b6001600160a01b038116156105f8576105d95f855f806108da565b6001600160a01b0381165f90815260036020526040902080545f190190555b6001600160a01b03851615610626576001600160a01b0385165f908152600360205260409020805460010190555b5f8481526002602052604080822080546001600160a01b0319166001600160a01b0389811691821790925591518793918516917fddf252ad1be2c89b69c2b068fc378daa952ba7f163c4a11628f55a4df523b3ef91a4949350505050565b6001600160a01b0382166106b657604051630b61174360e31b81526001600160a01b038316600482015260240161038d565b6001600160a01b038381165f81815260056020908152604080832094871680845294825291829020805460ff191686151590811790915591519182527f17307eab39ab6107e8899845ad3d59bd9653f200f220920489ca2b5937696c31910160405180910390a3505050565b6001600160a01b0383163b1561084357604051630a85bd0160e11b81526001600160a01b0384169063150b7a0290610764908890889087908790600401610f10565b6020604051808303815f875af192505050801561079e575060408051601f3d908101601f1916820190925261079b91810190610f4c565b60015b610805573d8080156107cb576040519150601f19603f3d011682016040523d82523d5f602084013e6107d0565b606091505b5080515f036107fd57604051633250574960e11b81526001600160a01b038516600482015260240161038d565b805181602001fd5b6001600160e01b03198116630a85bd0160e11b1461084157604051633250574960e11b81526001600160a01b038516600482015260240161038d565b505b5050505050565b60605f61085683610a59565b60010190505f8167ffffffffffffffff81111561087557610875610d6c565b6040519080825280601f01601f19166020018201604052801561089f576020820181803683370190505b5090508181016020015b5f19016f181899199a1a9b1b9c1cb0b131b232b360811b600a86061a8153600a85049450846108a957509392505050565b80806108ee57506001600160a01b03821615155b156109af575f6108fd84610534565b90506001600160a01b038316158015906109295750826001600160a01b0316816001600160a01b031614155b801561093c575061093a8184610507565b155b156109655760405163a9fbf51f60e01b81526001600160a01b038416600482015260240161038d565b81156109ad5783856001600160a01b0316826001600160a01b03167f8c5be1e5ebec7d5bd14f71427d1e84f3dd0314c0f7b2291e5b200ac8c7c3b92560405160405180910390a45b505b50505f90815260046020526040902080546001600160a01b0319166001600160a01b0392909216919091179055565b6109e88383610b30565b610410335f858585610722565b610a00838383610b91565b610410576001600160a01b038316610a2e57604051637e27328960e01b81526004810182905260240161038d565b60405163177e802f60e01b81526001600160a01b03831660048201526024810182905260440161038d565b5f8072184f03e93ff9f4daa797ed6e38ed64bf6a1f0160401b8310610a975772184f03e93ff9f4daa797ed6e38ed64bf6a1f0160401b830492506040015b6d04ee2d6d415b85acef81000000008310610ac3576d04ee2d6d415b85acef8100000000830492506020015b662386f26fc100008310610ae157662386f26fc10000830492506010015b6305f5e1008310610af9576305f5e100830492506008015b6127108310610b0d57612710830492506004015b60648310610b1f576064830492506002015b600a831061027b5760010192915050565b6001600160a01b038216610b5957604051633250574960e11b81525f600482015260240161038d565b5f610b6583835f610592565b90506001600160a01b03811615610410576040516339e3563760e11b81525f600482015260240161038d565b5f6001600160a01b03831615801590610bed5750826001600160a01b0316846001600160a01b03161480610bca5750610bca8484610507565b80610bed57505f828152600460205260409020546001600160a01b038481169116145b949350505050565b6001600160e01b031981168114610c0a575f80fd5b50565b5f60208284031215610c1d575f80fd5b813561050081610bf5565b5f5b83811015610c42578181015183820152602001610c2a565b50505f910152565b5f8151808452610c61816020860160208601610c28565b601f01601f19169290920160200192915050565b602081525f6105006020830184610c4a565b5f60208284031215610c97575f80fd5b5035919050565b80356001600160a01b0381168114610cb4575f80fd5b919050565b5f8060408385031215610cca575f80fd5b610cd383610c9e565b946020939093013593505050565b5f805f60608486031215610cf3575f80fd5b610cfc84610c9e565b9250610d0a60208501610c9e565b9150604084013590509250925092565b5f60208284031215610d2a575f80fd5b61050082610c9e565b5f8060408385031215610d44575f80fd5b610d4d83610c9e565b915060208301358015158114610d61575f80fd5b809150509250929050565b634e487b7160e01b5f52604160045260245ffd5b5f805f8060808587031215610d93575f80fd5b610d9c85610c9e565b9350610daa60208601610c9e565b925060408501359150606085013567ffffffffffffffff80821115610dcd575f80fd5b818701915087601f830112610de0575f80fd5b813581811115610df257610df2610d6c565b604051601f8201601f19908116603f01168101908382118183101715610e1a57610e1a610d6c565b816040528281528a6020848701011115610e32575f80fd5b826020860160208301375f60208483010152809550505050505092959194509250565b5f8060408385031215610e66575f80fd5b610e6f83610c9e565b9150610e7d60208401610c9e565b90509250929050565b600181811c90821680610e9a57607f821691505b602082108103610eb857634e487b7160e01b5f52602260045260245ffd5b50919050565b5f60018201610edb57634e487b7160e01b5f52601160045260245ffd5b5060010190565b5f8351610ef3818460208801610c28565b835190830190610f07818360208801610c28565b01949350505050565b6001600160a01b03858116825284166020820152604081018390526080606082018190525f90610f4290830184610c4a565b9695505050505050565b5f60208284031215610f5c575f80fd5b815161050081610bf556fea264697066735822122056ad02a84722e23956578fbcacec8a88d4100bd67318866634a81a25ee46b56d64736f6c63430008140033",
					"opcodes": "PUSH1 0x80 PUSH1 0x40 MSTORE CALLVALUE DUP1 ISZERO PUSH3 0x10 JUMPI PUSH0 DUP1 REVERT JUMPDEST POP PUSH1 0x40 MLOAD DUP1 PUSH1 0x40 ADD PUSH1 0x40 MSTORE DUP1 PUSH1 0xF DUP2 MSTORE PUSH1 0x20 ADD PUSH15 0x5374616E6461726420455243373231 PUSH1 0x88 SHL DUP2 MSTORE POP PUSH1 0x40 MLOAD DUP1 PUSH1 0x40 ADD PUSH1 0x40 MSTORE DUP1 PUSH1 0x7 DUP2 MSTORE PUSH1 0x20 ADD PUSH7 0x53455243373231 PUSH1 0xC8 SHL DUP2 MSTORE POP DUP2 PUSH0 SWAP1 DUP2 PUSH3 0x69 SWAP2 SWAP1 PUSH3 0x121 JUMP JUMPDEST POP PUSH1 0x1 PUSH3 0x78 DUP3 DUP3 PUSH3 0x121 JUMP JUMPDEST POP POP POP PUSH3 0x1E9 JUMP JUMPDEST PUSH4 0x4E487B71 PUSH1 0xE0 SHL PUSH0 MSTORE PUSH1 0x41 PUSH1 0x4 MSTORE PUSH1 0x24 PUSH0 REVERT JUMPDEST PUSH1 0x1 DUP2 DUP2 SHR SWAP1 DUP3 AND DUP1 PUSH3 0xAA JUMPI PUSH1 0x7F DUP3 AND SWAP2 POP JUMPDEST PUSH1 0x20 DUP3 LT DUP2 SUB PUSH3 0xC9 JUMPI PUSH4 0x4E487B71 PUSH1 0xE0 SHL PUSH0 MSTORE PUSH1 0x22 PUSH1 0x4 MSTORE PUSH1 0x24 PUSH0 REVERT JUMPDEST POP SWAP2 SWAP1 POP JUMP JUMPDEST PUSH1 0x1F DUP3 GT ISZERO PUSH3 0x11C JUMPI PUSH0 DUP2 DUP2 MSTORE PUSH1 0x20 DUP2 KECCAK256 PUSH1 0x1F DUP6 ADD PUSH1 0x5 SHR DUP2 ADD PUSH1 0x20 DUP7 LT ISZERO PUSH3 0xF7 JUMPI POP DUP1 JUMPDEST PUSH1 0x1F DUP6 ADD PUSH1 0x5 SHR DUP3 ADD SWAP2 POP JUMPDEST DUP2 DUP2 LT ISZERO PUSH3 0x118 JUMPI DUP3 DUP2 SSTORE PUSH1 0x1 ADD PUSH3 0x103 JUMP JUMPDEST POP POP POP JUMPDEST POP POP POP JUMP JUMPDEST DUP2 MLOAD PUSH1 0x1 PUSH1 0x1 PUSH1 0x40 SHL SUB DUP2 GT ISZERO PUSH3 0x13D JUMPI PUSH3 0x13D PUSH3 0x81 JUMP JUMPDEST PUSH3 0x155 DUP2 PUSH3 0x14E DUP5 SLOAD PUSH3 0x95 JUMP JUMPDEST DUP5 PUSH3 0xCF JUMP JUMPDEST PUSH1 0x20 DUP1 PUSH1 0x1F DUP4 GT PUSH1 0x1 DUP2 EQ PUSH3 0x18B JUMPI PUSH0 DUP5 ISZERO PUSH3 0x173 JUMPI POP DUP6 DUP4 ADD MLOAD JUMPDEST PUSH0 NOT PUSH1 0x3 DUP7 SWAP1 SHL SHR NOT AND PUSH1 0x1 DUP6 SWAP1 SHL OR DUP6 SSTORE PUSH3 0x118 JUMP JUMPDEST PUSH0 DUP6 DUP2 MSTORE PUSH1 0x20 DUP2 KECCAK256 PUSH1 0x1F NOT DUP7 AND SWAP2 JUMPDEST DUP3 DUP2 LT ISZERO PUSH3 0x1BB JUMPI DUP9 DUP7 ADD MLOAD DUP3 SSTORE SWAP5 DUP5 ADD SWAP5 PUSH1 0x1 SWAP1 SWAP2 ADD SWAP1 DUP5 ADD PUSH3 0x19A JUMP JUMPDEST POP DUP6 DUP3 LT ISZERO PUSH3 0x1D9 JUMPI DUP8 DUP6 ADD MLOAD PUSH0 NOT PUSH1 0x3 DUP9 SWAP1 SHL PUSH1 0xF8 AND SHR NOT AND DUP2 SSTORE JUMPDEST POP POP POP POP POP PUSH1 0x1 SWAP1 DUP2 SHL ADD SWAP1 SSTORE POP JUMP JUMPDEST PUSH2 0xF9D DUP1 PUSH3 0x1F7 PUSH0 CODECOPY PUSH0 RETURN INVALID PUSH1 0x80 PUSH1 0x40 MSTORE CALLVALUE DUP1 ISZERO PUSH2 0xF JUMPI PUSH0 DUP1 REVERT JUMPDEST POP PUSH1 0x4 CALLDATASIZE LT PUSH2 0xF0 JUMPI PUSH0 CALLDATALOAD PUSH1 0xE0 SHR DUP1 PUSH4 0x6352211E GT PUSH2 0x93 JUMPI DUP1 PUSH4 0xA22CB465 GT PUSH2 0x63 JUMPI DUP1 PUSH4 0xA22CB465 EQ PUSH2 0x1E4 JUMPI DUP1 PUSH4 0xB88D4FDE EQ PUSH2 0x1F7 JUMPI DUP1 PUSH4 0xC87B56DD EQ PUSH2 0x20A JUMPI DUP1 PUSH4 0xE985E9C5 EQ PUSH2 0x21D JUMPI PUSH0 DUP1 REVERT JUMPDEST DUP1 PUSH4 0x6352211E EQ PUSH2 0x19F JUMPI DUP1 PUSH4 0x70A08231 EQ PUSH2 0x1B2 JUMPI DUP1 PUSH4 0x75794A3C EQ PUSH2 0x1D3 JUMPI DUP1 PUSH4 0x95D89B41 EQ PUSH2 0x1DC JUMPI PUSH0 DUP1 REVERT JUMPDEST DUP1 PUSH4 0x95EA7B3 GT PUSH2 0xCE JUMPI DUP1 PUSH4 0x95EA7B3 EQ PUSH2 0x15C JUMPI DUP1 PUSH4 0x1249C58B EQ PUSH2 0x171 JUMPI DUP1 PUSH4 0x23B872DD EQ PUSH2 0x179 JUMPI DUP1 PUSH4 0x42842E0E EQ PUSH2 0x18C JUMPI PUSH0 DUP1 REVERT JUMPDEST DUP1 PUSH4 0x1FFC9A7 EQ PUSH2 0xF4 JUMPI DUP1 PUSH4 0x6FDDE03 EQ PUSH2 0x11C JUMPI DUP1 PUSH4 0x81812FC EQ PUSH2 0x131 JUMPI JUMPDEST PUSH0 DUP1 REVERT JUMPDEST PUSH2 0x107 PUSH2 0x102 CALLDATASIZE PUSH1 0x4 PUSH2 0xC0D JUMP JUMPDEST PUSH2 0x230 JUMP JUMPDEST PUSH1 0x40 MLOAD SWAP1 ISZERO ISZERO DUP2 MSTORE PUSH1 0x20 ADD JUMPDEST PUSH1 0x40 MLOAD DUP1 SWAP2 SUB SWAP1 RETURN JUMPDEST PUSH2 0x124 PUSH2 0x281 JUMP JUMPDEST PUSH1 0x40 MLOAD PUSH2 0x113 SWAP2 SWAP1 PUSH2 0xC75 JUMP JUMPDEST PUSH2 0x144 PUSH2 0x13F CALLDATASIZE PUSH1 0x4 PUSH2 0xC87 JUMP JUMPDEST PUSH2 0x310 JUMP JUMPDEST PUSH1 0x40 MLOAD PUSH1 0x1 PUSH1 0x1 PUSH1 0xA0 SHL SUB SWAP1 SWAP2 AND DUP2 MSTORE PUSH1 0x20 ADD PUSH2 0x113 JUMP JUMPDEST PUSH2 0x16F PUSH2 0x16A CALLDATASIZE PUSH1 0x4 PUSH2 0xCB9 JUMP JUMPDEST PUSH2 0x337 JUMP JUMPDEST STOP JUMPDEST PUSH2 0x16F PUSH2 0x346 JUMP JUMPDEST PUSH2 0x16F PUSH2 0x187 CALLDATASIZE PUSH1 0x4 PUSH2 0xCE1 JUMP JUMPDEST PUSH2 0x368 JUMP JUMPDEST PUSH2 0x16F PUSH2 0x19A CALLDATASIZE PUSH1 0x4 PUSH2 0xCE1 JUMP JUMPDEST PUSH2 0x3F6 JUMP JUMPDEST PUSH2 0x144 PUSH2 0x1AD CALLDATASIZE PUSH1 0x4 PUSH2 0xC87 JUMP JUMPDEST PUSH2 0x415 JUMP JUMPDEST PUSH2 0x1C5 PUSH2 0x1C0 CALLDATASIZE PUSH1 0x4 PUSH2 0xD1A JUMP JUMPDEST PUSH2 0x41F JUMP JUMPDEST PUSH1 0x40 MLOAD SWAP1 DUP2 MSTORE PUSH1 0x20 ADD PUSH2 0x113 JUMP JUMPDEST PUSH2 0x1C5 PUSH1 0x6 SLOAD DUP2 JUMP JUMPDEST PUSH2 0x124 PUSH2 0x464 JUMP JUMPDEST PUSH2 0x16F PUSH2 0x1F2 CALLDATASIZE PUSH1 0x4 PUSH2 0xD33 JUMP JUMPDEST PUSH2 0x473 JUMP JUMPDEST PUSH2 0x16F PUSH2 0x205 CALLDATASIZE PUSH1 0x4 PUSH2 0xD80 JUMP JUMPDEST PUSH2 0x47E JUMP JUMPDEST PUSH2 0x124 PUSH2 0x218 CALLDATASIZE PUSH1 0x4 PUSH2 0xC87 JUMP JUMPDEST PUSH2 0x496 JUMP JUMPDEST PUSH2 0x107 PUSH2 0x22B CALLDATASIZE PUSH1 0x4 PUSH2 0xE55 JUMP JUMPDEST PUSH2 0x507 JUMP JUMPDEST PUSH0 PUSH1 0x1 PUSH1 0x1 PUSH1 0xE0 SHL SUB NOT DUP3 AND PUSH4 0x80AC58CD PUSH1 0xE0 SHL EQ DUP1 PUSH2 0x260 JUMPI POP PUSH1 0x1 PUSH1 0x1 PUSH1 0xE0 SHL SUB NOT DUP3 AND PUSH4 0x5B5E139F PUSH1 0xE0 SHL EQ JUMPDEST DUP1 PUSH2 0x27B JUMPI POP PUSH4 0x1FFC9A7 PUSH1 0xE0 SHL PUSH1 0x1 PUSH1 0x1 PUSH1 0xE0 SHL SUB NOT DUP4 AND EQ JUMPDEST SWAP3 SWAP2 POP POP JUMP JUMPDEST PUSH1 0x60 PUSH0 DUP1 SLOAD PUSH2 0x28F SWAP1 PUSH2 0xE86 JUMP JUMPDEST DUP1 PUSH1 0x1F ADD PUSH1 0x20 DUP1 SWAP2 DIV MUL PUSH1 0x20 ADD PUSH1 0x40 MLOAD SWAP1 DUP2 ADD PUSH1 0x40 MSTORE DUP1 SWAP3 SWAP2 SWAP1 DUP2 DUP2 MSTORE PUSH1 0x20 ADD DUP3 DUP1 SLOAD PUSH2 0x2BB SWAP1 PUSH2 0xE86 JUMP JUMPDEST DUP1 ISZERO PUSH2 0x306 JUMPI DUP1 PUSH1 0x1F LT PUSH2 0x2DD JUMPI PUSH2 0x100 DUP1 DUP4 SLOAD DIV MUL DUP4 MSTORE SWAP2 PUSH1 0x20 ADD SWAP2 PUSH2 0x306 JUMP JUMPDEST DUP3 ADD SWAP2 SWAP1 PUSH0 MSTORE PUSH1 0x20 PUSH0 KECCAK256 SWAP1 JUMPDEST DUP2 SLOAD DUP2 MSTORE SWAP1 PUSH1 0x1 ADD SWAP1 PUSH1 0x20 ADD DUP1 DUP4 GT PUSH2 0x2E9 JUMPI DUP3 SWAP1 SUB PUSH1 0x1F AND DUP3 ADD SWAP2 JUMPDEST POP POP POP POP POP SWAP1 POP SWAP1 JUMP JUMPDEST PUSH0 PUSH2 0x31A DUP3 PUSH2 0x534 JUMP JUMPDEST POP PUSH0 DUP3 DUP2 MSTORE PUSH1 0x4 PUSH1 0x20 MSTORE PUSH1 0x40 SWAP1 KECCAK256 SLOAD PUSH1 0x1 PUSH1 0x1 PUSH1 0xA0 SHL SUB AND PUSH2 0x27B JUMP JUMPDEST PUSH2 0x342 DUP3 DUP3 CALLER PUSH2 0x56C JUMP JUMPDEST POP POP JUMP JUMPDEST PUSH2 0x352 CALLER PUSH1 0x6 SLOAD PUSH2 0x579 JUMP JUMPDEST PUSH1 0x6 DUP1 SLOAD SWAP1 PUSH0 PUSH2 0x361 DUP4 PUSH2 0xEBE JUMP JUMPDEST SWAP2 SWAP1 POP SSTORE POP JUMP JUMPDEST PUSH1 0x1 PUSH1 0x1 PUSH1 0xA0 SHL SUB DUP3 AND PUSH2 0x396 JUMPI PUSH1 0x40 MLOAD PUSH4 0x32505749 PUSH1 0xE1 SHL DUP2 MSTORE PUSH0 PUSH1 0x4 DUP3 ADD MSTORE PUSH1 0x24 ADD JUMPDEST PUSH1 0x40 MLOAD DUP1 SWAP2 SUB SWAP1 REVERT JUMPDEST PUSH0 PUSH2 0x3A2 DUP4 DUP4 CALLER PUSH2 0x592 JUMP JUMPDEST SWAP1 POP DUP4 PUSH1 0x1 PUSH1 0x1 PUSH1 0xA0 SHL SUB AND DUP2 PUSH1 0x1 PUSH1 0x1 PUSH1 0xA0 SHL SUB AND EQ PUSH2 0x3F0 JUMPI PUSH1 0x40 MLOAD PUSH4 0x64283D7B PUSH1 0xE0 SHL DUP2 MSTORE PUSH1 0x1 PUSH1 0x1 PUSH1 0xA0 SHL SUB DUP1 DUP7 AND PUSH1 0x4 DUP4 ADD MSTORE PUSH1 0x24 DUP3 ADD DUP5 SWAP1 MSTORE DUP3 AND PUSH1 0x44 DUP3 ADD MSTORE PUSH1 0x64 ADD PUSH2 0x38D JUMP JUMPDEST POP POP POP POP JUMP JUMPDEST PUSH2 0x410 DUP4 DUP4 DUP4 PUSH1 0x40 MLOAD DUP1 PUSH1 0x20 ADD PUSH1 0x40 MSTORE DUP1 PUSH0 DUP2 MSTORE POP PUSH2 0x47E JUMP JUMPDEST POP POP POP JUMP JUMPDEST PUSH0 PUSH2 0x27B DUP3 PUSH2 0x534 JUMP JUMPDEST PUSH0 PUSH1 0x1 PUSH1 0x1 PUSH1 0xA0 SHL SUB DUP3 AND PUSH2 0x449 JUMPI PUSH1 0x40 MLOAD PUSH4 0x22718AD9 PUSH1 0xE2 SHL DUP2 MSTORE PUSH0 PUSH1 0x4 DUP3 ADD MSTORE PUSH1 0x24 ADD PUSH2 0x38D JUMP JUMPDEST POP PUSH1 0x1 PUSH1 0x1 PUSH1 0xA0 SHL SUB AND PUSH0 SWAP1 DUP2 MSTORE PUSH1 0x3 PUSH1 0x20 MSTORE PUSH1 0x40 SWAP1 KECCAK256 SLOAD SWAP1 JUMP JUMPDEST PUSH1 0x60 PUSH1 0x1 DUP1 SLOAD PUSH2 0x28F SWAP1 PUSH2 0xE86 JUMP JUMPDEST PUSH2 0x342 CALLER DUP4 DUP4 PUSH2 0x684 JUMP JUMPDEST PUSH2 0x489 DUP5 DUP5 DUP5 PUSH2 0x368 JUMP JUMPDEST PUSH2 0x3F0 CALLER DUP6 DUP6 DUP6 DUP6 PUSH2 0x722 JUMP JUMPDEST PUSH1 0x60 PUSH2 0x4A1 DUP3 PUSH2 0x534 JUMP JUMPDEST POP PUSH0 PUSH2 0x4B7 PUSH1 0x40 DUP1 MLOAD PUSH1 0x20 DUP2 ADD SWAP1 SWAP2 MSTORE PUSH0 DUP2 MSTORE SWAP1 JUMP JUMPDEST SWAP1 POP PUSH0 DUP2 MLOAD GT PUSH2 0x4D5 JUMPI PUSH1 0x40 MLOAD DUP1 PUSH1 0x20 ADD PUSH1 0x40 MSTORE DUP1 PUSH0 DUP2 MSTORE POP PUSH2 0x500 JUMP JUMPDEST DUP1 PUSH2 0x4DF DUP5 PUSH2 0x84A JUMP JUMPDEST PUSH1 0x40 MLOAD PUSH1 0x20 ADD PUSH2 0x4F0 SWAP3 SWAP2 SWAP1 PUSH2 0xEE2 JUMP JUMPDEST PUSH1 0x40 MLOAD PUSH1 0x20 DUP2 DUP4 SUB SUB DUP2 MSTORE SWAP1 PUSH1 0x40 MSTORE JUMPDEST SWAP4 SWAP3 POP POP POP JUMP JUMPDEST PUSH1 0x1 PUSH1 0x1 PUSH1 0xA0 SHL SUB SWAP2 DUP3 AND PUSH0 SWAP1 DUP2 MSTORE PUSH1 0x5 PUSH1 0x20 SWAP1 DUP2 MSTORE PUSH1 0x40 DUP1 DUP4 KECCAK256 SWAP4 SWAP1 SWAP5 AND DUP3 MSTORE SWAP2 SWAP1 SWAP2 MSTORE KECCAK256 SLOAD PUSH1 0xFF AND SWAP1 JUMP JUMPDEST PUSH0 DUP2 DUP2 MSTORE PUSH1 0x2 PUSH1 0x20 MSTORE PUSH1 0x40 DUP2 KECCAK256 SLOAD PUSH1 0x1 PUSH1 0x1 PUSH1 0xA0 SHL SUB AND DUP1 PUSH2 0x27B JUMPI PUSH1 0x40 MLOAD PUSH4 0x7E273289 PUSH1 0xE0 SHL DUP2 MSTORE PUSH1 0x4 DUP2 ADD DUP5 SWAP1 MSTORE PUSH1 0x24 ADD PUSH2 0x38D JUMP JUMPDEST PUSH2 0x410 DUP4 DUP4 DUP4 PUSH1 0x1 PUSH2 0x8DA JUMP JUMPDEST PUSH2 0x342 DUP3 DUP3 PUSH1 0x40 MLOAD DUP1 PUSH1 0x20 ADD PUSH1 0x40 MSTORE DUP1 PUSH0 DUP2 MSTORE POP PUSH2 0x9DE JUMP JUMPDEST PUSH0 DUP3 DUP2 MSTORE PUSH1 0x2 PUSH1 0x20 MSTORE PUSH1 0x40 DUP2 KECCAK256 SLOAD PUSH1 0x1 PUSH1 0x1 PUSH1 0xA0 SHL SUB SWAP1 DUP2 AND SWAP1 DUP4 AND ISZERO PUSH2 0x5BE JUMPI PUSH2 0x5BE DUP2 DUP5 DUP7 PUSH2 0x9F5 JUMP JUMPDEST PUSH1 0x1 PUSH1 0x1 PUSH1 0xA0 SHL SUB DUP2 AND ISZERO PUSH2 0x5F8 JUMPI PUSH2 0x5D9 PUSH0 DUP6 PUSH0 DUP1 PUSH2 0x8DA JUMP JUMPDEST PUSH1 0x1 PUSH1 0x1 PUSH1 0xA0 SHL SUB DUP2 AND PUSH0 SWAP1 DUP2 MSTORE PUSH1 0x3 PUSH1 0x20 MSTORE PUSH1 0x40 SWAP1 KECCAK256 DUP1 SLOAD PUSH0 NOT ADD SWAP1 SSTORE JUMPDEST PUSH1 0x1 PUSH1 0x1 PUSH1 0xA0 SHL SUB DUP6 AND ISZERO PUSH2 0x626 JUMPI PUSH1 0x1 PUSH1 0x1 PUSH1 0xA0 SHL SUB DUP6 AND PUSH0 SWAP1 DUP2 MSTORE PUSH1 0x3 PUSH1 0x20 MSTORE PUSH1 0x40 SWAP1 KECCAK256 DUP1 SLOAD PUSH1 0x1 ADD SWAP1 SSTORE JUMPDEST PUSH0 DUP5 DUP2 MSTORE PUSH1 0x2 PUSH1 0x20 MSTORE PUSH1 0x40 DUP1 DUP3 KECCAK256 DUP1 SLOAD PUSH1 0x1 PUSH1 0x1 PUSH1 0xA0 SHL SUB NOT AND PUSH1 0x1 PUSH1 0x1 PUSH1 0xA0 SHL SUB DUP10 DUP2 AND SWAP2 DUP3 OR SWAP1 SWAP3 SSTORE SWAP2 MLOAD DUP8 SWAP4 SWAP2 DUP6 AND SWAP2 PUSH32 0xDDF252AD1BE2C89B69C2B068FC378DAA952BA7F163C4A11628F55A4DF523B3EF SWAP2 LOG4 SWAP5 SWAP4 POP POP POP POP JUMP JUMPDEST PUSH1 0x1 PUSH1 0x1 PUSH1 0xA0 SHL SUB DUP3 AND PUSH2 0x6B6 JUMPI PUSH1 0x40 MLOAD PUSH4 0xB611743 PUSH1 0xE3 SHL DUP2 MSTORE PUSH1 0x1 PUSH1 0x1 PUSH1 0xA0 SHL SUB DUP4 AND PUSH1 0x4 DUP3 ADD MSTORE PUSH1 0x24 ADD PUSH2 0x38D JUMP JUMPDEST PUSH1 0x1 PUSH1 0x1 PUSH1 0xA0 SHL SUB DUP4 DUP2 AND PUSH0 DUP2 DUP2 MSTORE PUSH1 0x5 PUSH1 0x20 SWAP1 DUP2 MSTORE PUSH1 0x40 DUP1 DUP4 KECCAK256 SWAP5 DUP8 AND DUP1 DUP5 MSTORE SWAP5 DUP3 MSTORE SWAP2 DUP3 SWAP1 KECCAK256 DUP1 SLOAD PUSH1 0xFF NOT AND DUP7 ISZERO ISZERO SWAP1 DUP2 OR SWAP1 SWAP2 SSTORE SWAP2 MLOAD SWAP2 DUP3 MSTORE PUSH32 0x17307EAB39AB6107E8899845AD3D59BD9653F200F220920489CA2B5937696C31 SWAP2 ADD PUSH1 0x40 MLOAD DUP1 SWAP2 SUB SWAP1 LOG3 POP POP POP JUMP JUMPDEST PUSH1 0x1 PUSH1 0x1 PUSH1 0xA0 SHL SUB DUP4 AND EXTCODESIZE ISZERO PUSH2 0x843 JUMPI PUSH1 0x40 MLOAD PUSH4 0xA85BD01 PUSH1 0xE1 SHL DUP2 MSTORE PUSH1 0x1 PUSH1 0x1 PUSH1 0xA0 SHL SUB DUP5 AND SWAP1 PUSH4 0x150B7A02 SWAP1 PUSH2 0x764 SWAP1 DUP9 SWAP1 DUP9 SWAP1 DUP8 SWAP1 DUP8 SWAP1 PUSH1 0x4 ADD PUSH2 0xF10 JUMP JUMPDEST PUSH1 0x20 PUSH1 0x40 MLOAD DUP1 DUP4 SUB DUP2 PUSH0 DUP8 GAS CALL SWAP3 POP POP POP DUP1 ISZERO PUSH2 0x79E JUMPI POP PUSH1 0x40 DUP1 MLOAD PUSH1 0x1F RETURNDATASIZE SWAP1 DUP2 ADD PUSH1 0x1F NOT AND DUP3 ADD SWAP1 SWAP3 MSTORE PUSH2 0x79B SWAP2 DUP2 ADD SWAP1 PUSH2 0xF4C JUMP JUMPDEST PUSH1 0x1 JUMPDEST PUSH2 0x805 JUMPI RETURNDATASIZE DUP1 DUP1 ISZERO PUSH2 0x7CB JUMPI PUSH1 0x40 MLOAD SWAP2 POP PUSH1 0x1F NOT PUSH1 0x3F RETURNDATASIZE ADD AND DUP3 ADD PUSH1 0x40 MSTORE RETURNDATASIZE DUP3 MSTORE RETURNDATASIZE PUSH0 PUSH1 0x20 DUP5 ADD RETURNDATACOPY PUSH2 0x7D0 JUMP JUMPDEST PUSH1 0x60 SWAP2 POP JUMPDEST POP DUP1 MLOAD PUSH0 SUB PUSH2 0x7FD JUMPI PUSH1 0x40 MLOAD PUSH4 0x32505749 PUSH1 0xE1 SHL DUP2 MSTORE PUSH1 0x1 PUSH1 0x1 PUSH1 0xA0 SHL SUB DUP6 AND PUSH1 0x4 DUP3 ADD MSTORE PUSH1 0x24 ADD PUSH2 0x38D JUMP JUMPDEST DUP1 MLOAD DUP2 PUSH1 0x20 ADD REVERT JUMPDEST PUSH1 0x1 PUSH1 0x1 PUSH1 0xE0 SHL SUB NOT DUP2 AND PUSH4 0xA85BD01 PUSH1 0xE1 SHL EQ PUSH2 0x841 JUMPI PUSH1 0x40 MLOAD PUSH4 0x32505749 PUSH1 0xE1 SHL DUP2 MSTORE PUSH1 0x1 PUSH1 0x1 PUSH1 0xA0 SHL SUB DUP6 AND PUSH1 0x4 DUP3 ADD MSTORE PUSH1 0x24 ADD PUSH2 0x38D JUMP JUMPDEST POP JUMPDEST POP POP POP POP POP JUMP JUMPDEST PUSH1 0x60 PUSH0 PUSH2 0x856 DUP4 PUSH2 0xA59 JUMP JUMPDEST PUSH1 0x1 ADD SWAP1 POP PUSH0 DUP2 PUSH8 0xFFFFFFFFFFFFFFFF DUP2 GT ISZERO PUSH2 0x875 JUMPI PUSH2 0x875 PUSH2 0xD6C JUMP JUMPDEST PUSH1 0x40 MLOAD SWAP1 DUP1 DUP3 MSTORE DUP1 PUSH1 0x1F ADD PUSH1 0x1F NOT AND PUSH1 0x20 ADD DUP3 ADD PUSH1 0x40 MSTORE DUP1 ISZERO PUSH2 0x89F JUMPI PUSH1 0x20 DUP3 ADD DUP2 DUP1 CALLDATASIZE DUP4 CALLDATACOPY ADD SWAP1 POP JUMPDEST POP SWAP1 POP DUP2 DUP2 ADD PUSH1 0x20 ADD JUMPDEST PUSH0 NOT ADD PUSH16 0x181899199A1A9B1B9C1CB0B131B232B3 PUSH1 0x81 SHL PUSH1 0xA DUP7 MOD BYTE DUP2 MSTORE8 PUSH1 0xA DUP6 DIV SWAP5 POP DUP5 PUSH2 0x8A9 JUMPI POP SWAP4 SWAP3 POP POP POP JUMP JUMPDEST DUP1 DUP1 PUSH2 0x8EE JUMPI POP PUSH1 0x1 PUSH1 0x1 PUSH1 0xA0 SHL SUB DUP3 AND ISZERO ISZERO JUMPDEST ISZERO PUSH2 0x9AF JUMPI PUSH0 PUSH2 0x8FD DUP5 PUSH2 0x534 JUMP JUMPDEST SWAP1 POP PUSH1 0x1 PUSH1 0x1 PUSH1 0xA0 SHL SUB DUP4 AND ISZERO DUP1 ISZERO SWAP1 PUSH2 0x929 JUMPI POP DUP3 PUSH1 0x1 PUSH1 0x1 PUSH1 0xA0 SHL SUB AND DUP2 PUSH1 0x1 PUSH1 0x1 PUSH1 0xA0 SHL SUB AND EQ ISZERO JUMPDEST DUP1 ISZERO PUSH2 0x93C JUMPI POP PUSH2 0x93A DUP2 DUP5 PUSH2 0x507 JUMP JUMPDEST ISZERO JUMPDEST ISZERO PUSH2 0x965 JUMPI PUSH1 0x40 MLOAD PUSH4 0xA9FBF51F PUSH1 0xE0 SHL DUP2 MSTORE PUSH1 0x1 PUSH1 0x1 PUSH1 0xA0 SHL SUB DUP5 AND PUSH1 0x4 DUP3 ADD MSTORE PUSH1 0x24 ADD PUSH2 0x38D JUMP JUMPDEST DUP2 ISZERO PUSH2 0x9AD JUMPI DUP4 DUP6 PUSH1 0x1 PUSH1 0x1 PUSH1 0xA0 SHL SUB AND DUP3 PUSH1 0x1 PUSH1 0x1 PUSH1 0xA0 SHL SUB AND PUSH32 0x8C5BE1E5EBEC7D5BD14F71427D1E84F3DD0314C0F7B2291E5B200AC8C7C3B925 PUSH1 0x40 MLOAD PUSH1 0x40 MLOAD DUP1 SWAP2 SUB SWAP1 LOG4 JUMPDEST POP JUMPDEST POP POP PUSH0 SWAP1 DUP2 MSTORE PUSH1 0x4 PUSH1 0x20 MSTORE PUSH1 0x40 SWAP1 KECCAK256 DUP1 SLOAD PUSH1 0x1 PUSH1 0x1 PUSH1 0xA0 SHL SUB NOT AND PUSH1 0x1 PUSH1 0x1 PUSH1 0xA0 SHL SUB SWAP3 SWAP1 SWAP3 AND SWAP2 SWAP1 SWAP2 OR SWAP1 SSTORE JUMP JUMPDEST PUSH2 0x9E8 DUP4 DUP4 PUSH2 0xB30 JUMP JUMPDEST PUSH2 0x410 CALLER PUSH0 DUP6 DUP6 DUP6 PUSH2 0x722 JUMP JUMPDEST PUSH2 0xA00 DUP4 DUP4 DUP4 PUSH2 0xB91 JUMP JUMPDEST PUSH2 0x410 JUMPI PUSH1 0x1 PUSH1 0x1 PUSH1 0xA0 SHL SUB DUP4 AND PUSH2 0xA2E JUMPI PUSH1 0x40 MLOAD PUSH4 0x7E273289 PUSH1 0xE0 SHL DUP2 MSTORE PUSH1 0x4 DUP2 ADD DUP3 SWAP1 MSTORE PUSH1 0x24 ADD PUSH2 0x38D JUMP JUMPDEST PUSH1 0x40 MLOAD PUSH4 0x177E802F PUSH1 0xE0 SHL DUP2 MSTORE PUSH1 0x1 PUSH1 0x1 PUSH1 0xA0 SHL SUB DUP4 AND PUSH1 0x4 DUP3 ADD MSTORE PUSH1 0x24 DUP2 ADD DUP3 SWAP1 MSTORE PUSH1 0x44 ADD PUSH2 0x38D JUMP JUMPDEST PUSH0 DUP1 PUSH19 0x184F03E93FF9F4DAA797ED6E38ED64BF6A1F01 PUSH1 0x40 SHL DUP4 LT PUSH2 0xA97 JUMPI PUSH19 0x184F03E93FF9F4DAA797ED6E38ED64BF6A1F01 PUSH1 0x40 SHL DUP4 DIV SWAP3 POP PUSH1 0x40 ADD JUMPDEST PUSH14 0x4EE2D6D415B85ACEF8100000000 DUP4 LT PUSH2 0xAC3 JUMPI PUSH14 0x4EE2D6D415B85ACEF8100000000 DUP4 DIV SWAP3 POP PUSH1 0x20 ADD JUMPDEST PUSH7 0x2386F26FC10000 DUP4 LT PUSH2 0xAE1 JUMPI PUSH7 0x2386F26FC10000 DUP4 DIV SWAP3 POP PUSH1 0x10 ADD JUMPDEST PUSH4 0x5F5E100 DUP4 LT PUSH2 0xAF9 JUMPI PUSH4 0x5F5E100 DUP4 DIV SWAP3 POP PUSH1 0x8 ADD JUMPDEST PUSH2 0x2710 DUP4 LT PUSH2 0xB0D JUMPI PUSH2 0x2710 DUP4 DIV SWAP3 POP PUSH1 0x4 ADD JUMPDEST PUSH1 0x64 DUP4 LT PUSH2 0xB1F JUMPI PUSH1 0x64 DUP4 DIV SWAP3 POP PUSH1 0x2 ADD JUMPDEST PUSH1 0xA DUP4 LT PUSH2 0x27B JUMPI PUSH1 0x1 ADD SWAP3 SWAP2 POP POP JUMP JUMPDEST PUSH1 0x1 PUSH1 0x1 PUSH1 0xA0 SHL SUB DUP3 AND PUSH2 0xB59 JUMPI PUSH1 0x40 MLOAD PUSH4 0x32505749 PUSH1 0xE1 SHL DUP2 MSTORE PUSH0 PUSH1 0x4 DUP3 ADD MSTORE PUSH1 0x24 ADD PUSH2 0x38D JUMP JUMPDEST PUSH0 PUSH2 0xB65 DUP4 DUP4 PUSH0 PUSH2 0x592 JUMP JUMPDEST SWAP1 POP PUSH1 0x1 PUSH1 0x1 PUSH1 0xA0 SHL SUB DUP2 AND ISZERO PUSH2 0x410 JUMPI PUSH1 0x40 MLOAD PUSH4 0x39E35637 PUSH1 0xE1 SHL DUP2 MSTORE PUSH0 PUSH1 0x4 DUP3 ADD MSTORE PUSH1 0x24 ADD PUSH2 0x38D JUMP JUMPDEST PUSH0 PUSH1 0x1 PUSH1 0x1 PUSH1 0xA0 SHL SUB DUP4 AND ISZERO DUP1 ISZERO SWAP1 PUSH2 0xBED JUMPI POP DUP3 PUSH1 0x1 PUSH1 0x1 PUSH1 0xA0 SHL SUB AND DUP5 PUSH1 0x1 PUSH1 0x1 PUSH1 0xA0 SHL SUB AND EQ DUP1 PUSH2 0xBCA JUMPI POP PUSH2 0xBCA DUP5 DUP5 PUSH2 0x507 JUMP JUMPDEST DUP1 PUSH2 0xBED JUMPI POP PUSH0 DUP3 DUP2 MSTORE PUSH1 0x4 PUSH1 0x20 MSTORE PUSH1 0x40 SWAP1 KECCAK256 SLOAD PUSH1 0x1 PUSH1 0x1 PUSH1 0xA0 SHL SUB DUP5 DUP2 AND SWAP2 AND EQ JUMPDEST SWAP5 SWAP4 POP POP POP POP JUMP JUMPDEST PUSH1 0x1 PUSH1 0x1 PUSH1 0xE0 SHL SUB NOT DUP2 AND DUP2 EQ PUSH2 0xC0A JUMPI PUSH0 DUP1 REVERT JUMPDEST POP JUMP JUMPDEST PUSH0 PUSH1 0x20 DUP3 DUP5 SUB SLT ISZERO PUSH2 0xC1D JUMPI PUSH0 DUP1 REVERT JUMPDEST DUP2 CALLDATALOAD PUSH2 0x500 DUP2 PUSH2 0xBF5 JUMP JUMPDEST PUSH0 JUMPDEST DUP4 DUP2 LT ISZERO PUSH2 0xC42 JUMPI DUP2 DUP2 ADD MLOAD DUP4 DUP3 ADD MSTORE PUSH1 0x20 ADD PUSH2 0xC2A JUMP JUMPDEST POP POP PUSH0 SWAP2 ADD MSTORE JUMP JUMPDEST PUSH0 DUP2 MLOAD DUP1 DUP5 MSTORE PUSH2 0xC61 DUP2 PUSH1 0x20 DUP7 ADD PUSH1 0x20 DUP7 ADD PUSH2 0xC28 JUMP JUMPDEST PUSH1 0x1F ADD PUSH1 0x1F NOT AND SWAP3 SWAP1 SWAP3 ADD PUSH1 0x20 ADD SWAP3 SWAP2 POP POP JUMP JUMPDEST PUSH1 0x20 DUP2 MSTORE PUSH0 PUSH2 0x500 PUSH1 0x20 DUP4 ADD DUP5 PUSH2 0xC4A JUMP JUMPDEST PUSH0 PUSH1 0x20 DUP3 DUP5 SUB SLT ISZERO PUSH2 0xC97 JUMPI PUSH0 DUP1 REVERT JUMPDEST POP CALLDATALOAD SWAP2 SWAP1 POP JUMP JUMPDEST DUP1 CALLDATALOAD PUSH1 0x1 PUSH1 0x1 PUSH1 0xA0 SHL SUB DUP2 AND DUP2 EQ PUSH2 0xCB4 JUMPI PUSH0 DUP1 REVERT JUMPDEST SWAP2 SWAP1 POP JUMP JUMPDEST PUSH0 DUP1 PUSH1 0x40 DUP4 DUP6 SUB SLT ISZERO PUSH2 0xCCA JUMPI PUSH0 DUP1 REVERT JUMPDEST PUSH2 0xCD3 DUP4 PUSH2 0xC9E JUMP JUMPDEST SWAP5 PUSH1 0x20 SWAP4 SWAP1 SWAP4 ADD CALLDATALOAD SWAP4 POP POP POP JUMP JUMPDEST PUSH0 DUP1 PUSH0 PUSH1 0x60 DUP5 DUP7 SUB SLT ISZERO PUSH2 0xCF3 JUMPI PUSH0 DUP1 REVERT JUMPDEST PUSH2 0xCFC DUP5 PUSH2 0xC9E JUMP JUMPDEST SWAP3 POP PUSH2 0xD0A PUSH1 0x20 DUP6 ADD PUSH2 0xC9E JUMP JUMPDEST SWAP2 POP PUSH1 0x40 DUP5 ADD CALLDATALOAD SWAP1 POP SWAP3 POP SWAP3 POP SWAP3 JUMP JUMPDEST PUSH0 PUSH1 0x20 DUP3 DUP5 SUB SLT ISZERO PUSH2 0xD2A JUMPI PUSH0 DUP1 REVERT JUMPDEST PUSH2 0x500 DUP3 PUSH2 0xC9E JUMP JUMPDEST PUSH0 DUP1 PUSH1 0x40 DUP4 DUP6 SUB SLT ISZERO PUSH2 0xD44 JUMPI PUSH0 DUP1 REVERT JUMPDEST PUSH2 0xD4D DUP4 PUSH2 0xC9E JUMP JUMPDEST SWAP2 POP PUSH1 0x20 DUP4 ADD CALLDATALOAD DUP1 ISZERO ISZERO DUP2 EQ PUSH2 0xD61 JUMPI PUSH0 DUP1 REVERT JUMPDEST DUP1 SWAP2 POP POP SWAP3 POP SWAP3 SWAP1 POP JUMP JUMPDEST PUSH4 0x4E487B71 PUSH1 0xE0 SHL PUSH0 MSTORE PUSH1 0x41 PUSH1 0x4 MSTORE PUSH1 0x24 PUSH0 REVERT JUMPDEST PUSH0 DUP1 PUSH0 DUP1 PUSH1 0x80 DUP6 DUP8 SUB SLT ISZERO PUSH2 0xD93 JUMPI PUSH0 DUP1 REVERT JUMPDEST PUSH2 0xD9C DUP6 PUSH2 0xC9E JUMP JUMPDEST SWAP4 POP PUSH2 0xDAA PUSH1 0x20 DUP7 ADD PUSH2 0xC9E JUMP JUMPDEST SWAP3 POP PUSH1 0x40 DUP6 ADD CALLDATALOAD SWAP2 POP PUSH1 0x60 DUP6 ADD CALLDATALOAD PUSH8 0xFFFFFFFFFFFFFFFF DUP1 DUP3 GT ISZERO PUSH2 0xDCD JUMPI PUSH0 DUP1 REVERT JUMPDEST DUP2 DUP8 ADD SWAP2 POP DUP8 PUSH1 0x1F DUP4 ADD SLT PUSH2 0xDE0 JUMPI PUSH0 DUP1 REVERT JUMPDEST DUP2 CALLDATALOAD DUP2 DUP2 GT ISZERO PUSH2 0xDF2 JUMPI PUSH2 0xDF2 PUSH2 0xD6C JUMP JUMPDEST PUSH1 0x40 MLOAD PUSH1 0x1F DUP3 ADD PUSH1 0x1F NOT SWAP1 DUP2 AND PUSH1 0x3F ADD AND DUP2 ADD SWAP1 DUP4 DUP3 GT DUP2 DUP4 LT OR ISZERO PUSH2 0xE1A JUMPI PUSH2 0xE1A PUSH2 0xD6C JUMP JUMPDEST DUP2 PUSH1 0x40 MSTORE DUP3 DUP2 MSTORE DUP11 PUSH1 0x20 DUP5 DUP8 ADD ADD GT ISZERO PUSH2 0xE32 JUMPI PUSH0 DUP1 REVERT JUMPDEST DUP3 PUSH1 0x20 DUP7 ADD PUSH1 0x20 DUP4 ADD CALLDATACOPY PUSH0 PUSH1 0x20 DUP5 DUP4 ADD ADD MSTORE DUP1 SWAP6 POP POP POP POP POP POP SWAP3 SWAP6 SWAP2 SWAP5 POP SWAP3 POP JUMP JUMPDEST PUSH0 DUP1 PUSH1 0x40 DUP4 DUP6 SUB SLT ISZERO PUSH2 0xE66 JUMPI PUSH0 DUP1 REVERT JUMPDEST PUSH2 0xE6F DUP4 PUSH2 0xC9E JUMP JUMPDEST SWAP2 POP PUSH2 0xE7D PUSH1 0x20 DUP5 ADD PUSH2 0xC9E JUMP JUMPDEST SWAP1 POP SWAP3 POP SWAP3 SWAP1 POP JUMP JUMPDEST PUSH1 0x1 DUP2 DUP2 SHR SWAP1 DUP3 AND DUP1 PUSH2 0xE9A JUMPI PUSH1 0x7F DUP3 AND SWAP2 POP JUMPDEST PUSH1 0x20 DUP3 LT DUP2 SUB PUSH2 0xEB8 JUMPI PUSH4 0x4E487B71 PUSH1 0xE0 SHL PUSH0 MSTORE PUSH1 0x22 PUSH1 0x4 MSTORE PUSH1 0x24 PUSH0 REVERT JUMPDEST POP SWAP2 SWAP1 POP JUMP JUMPDEST PUSH0 PUSH1 0x1 DUP3 ADD PUSH2 0xEDB JUMPI PUSH4 0x4E487B71 PUSH1 0xE0 SHL PUSH0 MSTORE PUSH1 0x11 PUSH1 0x4 MSTORE PUSH1 0x24 PUSH0 REVERT JUMPDEST POP PUSH1 0x1 ADD SWAP1 JUMP JUMPDEST PUSH0 DUP4 MLOAD PUSH2 0xEF3 DUP2 DUP5 PUSH1 0x20 DUP9 ADD PUSH2 0xC28 JUMP JUMPDEST DUP4 MLOAD SWAP1 DUP4 ADD SWAP1 PUSH2 0xF07 DUP2 DUP4 PUSH1 0x20 DUP9 ADD PUSH2 0xC28 JUMP JUMPDEST ADD SWAP5 SWAP4 POP POP POP POP JUMP JUMPDEST PUSH1 0x1 PUSH1 0x1 PUSH1 0xA0 SHL SUB DUP6 DUP2 AND DUP3 MSTORE DUP5 AND PUSH1 0x20 DUP3 ADD MSTORE PUSH1 0x40 DUP2 ADD DUP4 SWAP1 MSTORE PUSH1 0x80 PUSH1 0x60 DUP3 ADD DUP2 SWAP1 MSTORE PUSH0 SWAP1 PUSH2 0xF42 SWAP1 DUP4 ADD DUP5 PUSH2 0xC4A JUMP JUMPDEST SWAP7 SWAP6 POP POP POP POP POP POP JUMP JUMPDEST PUSH0 PUSH1 0x20 DUP3 DUP5 SUB SLT ISZERO PUSH2 0xF5C JUMPI PUSH0 DUP1 REVERT JUMPDEST DUP2 MLOAD PUSH2 0x500 DUP2 PUSH2 0xBF5 JUMP INVALID LOG2 PUSH5 0x6970667358 0x22 SLT KECCAK256 JUMP 0xAD MUL 0xA8 SELFBALANCE 0x22 0xE2 CODECOPY JUMP JUMPI DUP16 0xBC 0xAC 0xEC DUP11 DUP9 0xD4 LT SIGNEXTEND 0xD6 PUSH20 0x18866634A81A25EE46B56D64736F6C6343000814 STOP CALLER "
				},
				"gasEstimates": {
					"creation": {
						"codeDepositCost": "799400",
						"executionCost": "infinite",
						"totalCost": "infinite"
					},
					"external": {
						"approve(address,uint256)": "31464",
						"balanceOf(address)": "2630",
						"getApproved(uint256)": "infinite",
						"isApprovedForAll(address,address)": "infinite",
						"mint()": "infinite",
						"name()": "infinite",
						"nextTokenId()": "2361",
						"ownerOf(uint256)": "infinite",
						"safeTransferFrom(address,address,uint256)": "infinite",
						"safeTransferFrom(address,address,uint256,bytes)": "infinite",
						"setApprovalForAll(address,bool)": "26678",
						"supportsInterface(bytes4)": "531",
						"symbol()": "infinite",
						"tokenURI(uint256)": "infinite",
						"transferFrom(address,address,uint256)": "infinite"
					}
				},
				"methodIdentifiers": {
					"approve(address,uint256)": "095ea7b3",
					"balanceOf(address)": "70a08231",
					"getApproved(uint256)": "081812fc",
					"isApprovedForAll(address,address)": "e985e9c5",
					"mint()": "1249c58b",
					"name()": "06fdde03",
					"nextTokenId()": "75794a3c",
					"ownerOf(uint256)": "6352211e",
					"safeTransferFrom(address,address,uint256)": "42842e0e",
					"safeTransferFrom(address,address,uint256,bytes)": "b88d4fde",
					"setApprovalForAll(address,bool)": "a22cb465",
					"supportsInterface(bytes4)": "01ffc9a7",
					"symbol()": "95d89b41",
					"tokenURI(uint256)": "c87b56dd",
					"transferFrom(address,address,uint256)": "23b872dd"
				}
			},
			"storageLayout": {
				"storage": [
					{
						"astId": 169,
						"contract": "Standard_ERC721.sol:Standard_ERC721",
						"label": "_name",
						"offset": 0,
						"slot": "0",
						"type": "t_string_storage"
					},
					{
						"astId": 171,
						"contract": "Standard_ERC721.sol:Standard_ERC721",
						"label": "_symbol",
						"offset": 0,
						"slot": "1",
						"type": "t_string_storage"
					},
					{
						"astId": 175,
						"contract": "Standard_ERC721.sol:Standard_ERC721",
						"label": "_owners",
						"offset": 0,
						"slot": "2",
						"type": "t_mapping(t_uint256,t_address)"
					},
					{
						"astId": 179,
						"contract": "Standard_ERC721.sol:Standard_ERC721",
						"label": "_balances",
						"offset": 0,
						"slot": "3",
						"type": "t_mapping(t_address,t_uint256)"
					},
					{
						"astId": 183,
						"contract": "Standard_ERC721.sol:Standard_ERC721",
						"label": "_tokenApprovals",
						"offset": 0,
						"slot": "4",
						"type": "t_mapping(t_uint256,t_address)"
					},
					{
						"astId": 189,
						"contract": "Standard_ERC721.sol:Standard_ERC721",
						"label": "_operatorApprovals",
						"offset": 0,
						"slot": "5",
						"type": "t_mapping(t_address,t_mapping(t_address,t_bool))"
					},
					{
						"astId": 6173,
						"contract": "Standard_ERC721.sol:Standard_ERC721",
						"label": "nextTokenId",
						"offset": 0,
						"slot": "6",
						"type": "t_uint256"
					}
				],
				"types": {
					"t_address": {
						"encoding": "inplace",
						"label": "address",
						"numberOfBytes": "20"
					},
					"t_bool": {
						"encoding": "inplace",
						"label": "bool",
						"numberOfBytes": "1"
					},
					"t_mapping(t_address,t_bool)": {
						"encoding": "mapping",
						"key": "t_address",
						"label": "mapping(address => bool)",
						"numberOfBytes": "32",
						"value": "t_bool"
					},
					"t_mapping(t_address,t_mapping(t_address,t_bool))": {
						"encoding": "mapping",
						"key": "t_address",
						"label": "mapping(address => mapping(address => bool))",
						"numberOfBytes": "32",
						"value": "t_mapping(t_address,t_bool)"
					},
					"t_mapping(t_address,t_uint256)": {
						"encoding": "mapping",
						"key": "t_address",
						"label": "mapping(address => uint256)",
						"numberOfBytes": "32",
						"value": "t_uint256"
					},
					"t_mapping(t_uint256,t_address)": {
						"encoding": "mapping",
						"key": "t_uint256",
						"label": "mapping(uint256 => address)",
						"numberOfBytes": "32",
						"value": "t_address"
					},
					"t_string_storage": {
						"encoding": "bytes",
						"label": "string",
						"numberOfBytes": "32"
					},
					"t_uint256": {
						"encoding": "inplace",
						"label": "uint256",
						"numberOfBytes": "32"
					}
				}
			},
			"userdoc": {
				"kind": "user",
				"methods": {},
				"version": 1
			}
		}
	}
}