{
	"data": {
		"bytecode": {
			"linkReferences": {},
			"object": "608060405234801562000010575f80fd5b5060405162005e3338038062005e3383398181016040528101906200003691906200036e565b8062000048816200006d60201b60201c565b506001600481905550620000655f801b336200008260201b60201c565b5050620006d8565b80600290816200007e9190620005f4565b5050565b5f6200009583836200017e60201b60201c565b6200017457600160035f8581526020019081526020015f205f015f8473ffffffffffffffffffffffffffffffffffffffff1673ffffffffffffffffffffffffffffffffffffffff1681526020019081526020015f205f6101000a81548160ff02191690831515021790555062000110620001e260201b60201c565b73ffffffffffffffffffffffffffffffffffffffff168273ffffffffffffffffffffffffffffffffffffffff16847f2f8788117e7eff1d82e926ec794901d17c78024a50270940304540a733656f0d60405160405180910390a46001905062000178565b5f90505b92915050565b5f60035f8481526020019081526020015f205f015f8373ffffffffffffffffffffffffffffffffffffffff1673ffffffffffffffffffffffffffffffffffffffff1681526020019081526020015f205f9054906101000a900460ff16905092915050565b5f33905090565b5f604051905090565b5f80fd5b5f80fd5b5f80fd5b5f80fd5b5f601f19601f8301169050919050565b7f4e487b71000000000000000000000000000000000000000000000000000000005f52604160045260245ffd5b6200024a8262000202565b810181811067ffffffffffffffff821117156200026c576200026b62000212565b5b80604052505050565b5f62000280620001e9565b90506200028e82826200023f565b919050565b5f67ffffffffffffffff821115620002b057620002af62000212565b5b620002bb8262000202565b9050602081019050919050565b5f5b83811015620002e7578082015181840152602081019050620002ca565b5f8484015250505050565b5f62000308620003028462000293565b62000275565b905082815260208101848484011115620003275762000326620001fe565b5b62000334848285620002c8565b509392505050565b5f82601f830112620003535762000352620001fa565b5b815162000365848260208601620002f2565b91505092915050565b5f60208284031215620003865762000385620001f2565b5b5f82015167ffffffffffffffff811115620003a657620003a5620001f6565b5b620003b4848285016200033c565b91505092915050565b5f81519050919050565b7f4e487b71000000000000000000000000000000000000000000000000000000005f52602260045260245ffd5b5f60028204905060018216806200040c57607f821691505b602082108103620004225762000421620003c7565b5b50919050565b5f819050815f5260205f209050919050565b5f6020601f8301049050919050565b5f82821b905092915050565b5f60088302620004867fffffffffffffffffffffffffffffffffffffffffffffffffffffffffffffffff8262000449565b62000492868362000449565b95508019841693508086168417925050509392505050565b5f819050919050565b5f819050919050565b5f620004dc620004d6620004d084620004aa565b620004b3565b620004aa565b9050919050565b5f819050919050565b620004f783620004bc565b6200050f6200050682620004e3565b84845462000455565b825550505050565b5f90565b6200052562000517565b62000532818484620004ec565b505050565b5b8181101562000559576200054d5f826200051b565b60018101905062000538565b5050565b601f821115620005a857620005728162000428565b6200057d846200043a565b810160208510156200058d578190505b620005a56200059c856200043a565b83018262000537565b50505b505050565b5f82821c905092915050565b5f620005ca5f1984600802620005ad565b1980831691505092915050565b5f620005e48383620005b9565b9150826002028217905092915050565b620005ff82620003bd565b67ffffffffffffffff8111156200061b576200061a62000212565b5b620006278254620003f4565b620006348282856200055d565b5f60209050601f8311600181146200066a575f841562000655578287015190505b620006618582620005d7565b865550620006d0565b601f1984166200067a8662000428565b5f5b82811015620006a3578489015182556001820191506020850194506020810190506200067c565b86831015620006c35784890151620006bf601f891682620005b9565b8355505b6001600288020188555050505b505050505050565b61574d80620006e65f395ff3fe608060405234801561000f575f80fd5b506004361061022f575f3560e01c806395b7dde01161012e578063b89571c7116100b6578063e8dbb9c51161007a578063e8dbb9c5146106e8578063e985e9c514610706578063f1f201e814610736578063f23a6e6114610766578063f242432a146107965761022f565b8063b89571c714610634578063bc197c8114610650578063d547741f14610680578063da47635d1461069c578063e82f4062146106cc5761022f565b8063a217fddf116100fd578063a217fddf1461057c578063a22cb4651461059a578063a3d6f9a9146105b6578063a966a0df146105e6578063ac76e521146106045761022f565b806395b7dde014610508578063992642e5146105245780639cea0787146105425780639e56f275146105605761022f565b80633a14af65116101bc5780634bc9db85116101805780634bc9db851461043d5780634e1273f4146104705780637365e8ec146104a0578063848b295c146104bc57806391d14854146104d85761022f565b80633a14af65146103955780633b920580146103b35780633cdd2c1f146103cf57806344879b3b146103eb5780634b602673146104075761022f565b8063237f150911610203578063237f1509146102e1578063248a9ca3146103115780632eb2c2d6146103415780632f2ff15d1461035d57806336568abe146103795761022f565b8062fdd58e1461023357806301ffc9a7146102635780630e89341c1461029357806318b6dcbc146102c3575b5f80fd5b61024d60048036038101906102489190613cbe565b6107b2565b60405161025a9190613d0b565b60405180910390f35b61027d60048036038101906102789190613d79565b610807565b60405161028a9190613dbe565b60405180910390f35b6102ad60048036038101906102a89190613dd7565b610818565b6040516102ba9190613e8c565b60405180910390f35b6102cb6108aa565b6040516102d89190613d0b565b60405180910390f35b6102fb60048036038101906102f69190613fd8565b6108b0565b6040516103089190613d0b565b60405180910390f35b61032b600480360381019061032691906140a7565b610a4a565b60405161033891906140e1565b60405180910390f35b61035b6004803603810190610356919061425c565b610a67565b005b61037760048036038101906103729190614327565b610b0e565b005b610393600480360381019061038e9190614327565b610b30565b005b61039d610bab565b6040516103aa9190613d0b565b60405180910390f35b6103cd60048036038101906103c89190613dd7565b610bb1565b005b6103e960048036038101906103e49190613dd7565b610caa565b005b61040560048036038101906104009190614365565b610da4565b005b610421600480360381019061041c9190613dd7565b610e2b565b604051610434979695949392919061439f565b60405180910390f35b6104576004803603810190610452919061441a565b610f94565b60405161046794939291906144cb565b60405180910390f35b61048a600480360381019061048591906145ce565b611005565b60405161049791906146fb565b60405180910390f35b6104ba60048036038101906104b5919061441a565b611112565b005b6104d660048036038101906104d19190613dd7565b61151e565b005b6104f260048036038101906104ed9190614327565b611628565b6040516104ff9190613dbe565b60405180910390f35b610522600480360381019061051d9190613dd7565b61168c565b005b61052c611806565b6040516105399190614776565b60405180910390f35b61054a61182b565b60405161055791906140e1565b60405180910390f35b61057a600480360381019061057591906147b9565b61184f565b005b610584611d35565b60405161059191906140e1565b60405180910390f35b6105b460048036038101906105af9190614809565b611d3b565b005b6105d060048036038101906105cb9190614365565b611d51565b6040516105dd9190614899565b60405180910390f35b6105ee611dec565b6040516105fb91906140e1565b60405180910390f35b61061e60048036038101906106199190614365565b611e10565b60405161062b9190613d0b565b60405180910390f35b61064e600480360381019061064991906147b9565b611e25565b005b61066a6004803603810190610665919061425c565b612222565b60405161067791906148c8565b60405180910390f35b61069a60048036038101906106959190614327565b612236565b005b6106b660048036038101906106b1919061441a565b612258565b6040516106c39190614952565b60405180910390f35b6106e660048036038101906106e19190613dd7565b61239a565b005b6106f061270d565b6040516106fd9190613d0b565b60405180910390f35b610720600480360381019061071b919061496b565b612711565b60405161072d9190613dbe565b60405180910390f35b610750600480360381019061074b9190613dd7565b61279f565b60405161075d9190614a91565b60405180910390f35b610780600480360381019061077b9190614ab1565b612966565b60405161078d91906148c8565b60405180910390f35b6107b060048036038101906107ab9190614ab1565b61297a565b005b5f805f8381526020019081526020015f205f8473ffffffffffffffffffffffffffffffffffffffff1673ffffffffffffffffffffffffffffffffffffffff1681526020019081526020015f2054905092915050565b5f61081182612a21565b9050919050565b60606002805461082790614b71565b80601f016020809104026020016040519081016040528092919081815260200182805461085390614b71565b801561089e5780601f106108755761010080835404028352916020019161089e565b820191905f5260205f20905b81548152906001019060200180831161088157829003601f168201915b50505050509050919050565b60055481565b5f7f877a78dc988c0ec5f58453b44888a55eb39755c3d5ed8d8ea990912aa3ef29c66108db81612a9a565b60055f8154809291906108ed90614bce565b91905055505f60055490506040518060e001604052808281526020018881526020018781526020018681526020015f81526020018581526020013373ffffffffffffffffffffffffffffffffffffffff1681525060085f8381526020019081526020015f205f820151815f0155602082015181600101908161096f9190614da9565b5060408201518160020190816109859190614da9565b50606082015181600301556080820151816004015560a0820151816005015560c0820151816006015f6101000a81548173ffffffffffffffffffffffffffffffffffffffff021916908373ffffffffffffffffffffffffffffffffffffffff1602179055509050503373ffffffffffffffffffffffffffffffffffffffff16817ef3538cb5abe2e9bc54f73939e4d165fce3752d27fe21a5e88b2a9f6da20c638688604051610a35929190614e78565b60405180910390a38092505050949350505050565b5f60035f8381526020019081526020015f20600101549050919050565b5f610a70612aae565b90508073ffffffffffffffffffffffffffffffffffffffff168673ffffffffffffffffffffffffffffffffffffffff1614158015610ab55750610ab38682612711565b155b15610af95780866040517fe237d922000000000000000000000000000000000000000000000000000000008152600401610af0929190614e9f565b60405180910390fd5b610b068686868686612ab5565b505050505050565b610b1782610a4a565b610b2081612a9a565b610b2a8383612ba9565b50505050565b610b38612aae565b73ffffffffffffffffffffffffffffffffffffffff168173ffffffffffffffffffffffffffffffffffffffff1614610b9c576040517f6697b23200000000000000000000000000000000000000000000000000000000815260040160405180910390fd5b610ba68282612c93565b505050565b61025881565b610bb9612d7d565b610bc4335f83612dcc565b60065f9054906101000a900473ffffffffffffffffffffffffffffffffffffffff1673ffffffffffffffffffffffffffffffffffffffff1663a9059cbb33836040518363ffffffff1660e01b8152600401610c20929190614ec6565b6020604051808303815f875af1158015610c3c573d5f803e3d5ffd5b505050506040513d601f19601f82011682018060405250810190610c609190614f01565b610c9f576040517f08c379a0000000000000000000000000000000000000000000000000000000008152600401610c9690614f76565b60405180910390fd5b610ca7612e6e565b50565b610cb2612d7d565b7f877a78dc988c0ec5f58453b44888a55eb39755c3d5ed8d8ea990912aa3ef29c6610cdc81612a9a565b610cf733305f8560405180602001604052805f81525061297a565b81600a5f3373ffffffffffffffffffffffffffffffffffffffff1673ffffffffffffffffffffffffffffffffffffffff1681526020019081526020015f205f828254610d439190614f94565b925050819055503373ffffffffffffffffffffffffffffffffffffffff167f0eb3cbaac08f9c4d8299747ba33f496b63ed34797e25a84d343790d9f901947a83604051610d909190613d0b565b60405180910390a250610da1612e6e565b50565b5f801b610db081612a9a565b8160065f6101000a81548173ffffffffffffffffffffffffffffffffffffffff021916908373ffffffffffffffffffffffffffffffffffffffff1602179055507f8b3e443d01c14c05684786a0273fdb48381417285bd830b7e71354d3ce60166682604051610e1f9190614fc7565b60405180910390a15050565b6008602052805f5260405f205f91509050805f015490806001018054610e5090614b71565b80601f0160208091040260200160405190810160405280929190818152602001828054610e7c90614b71565b8015610ec75780601f10610e9e57610100808354040283529160200191610ec7565b820191905f5260205f20905b815481529060010190602001808311610eaa57829003601f168201915b505050505090806002018054610edc90614b71565b80601f0160208091040260200160405190810160405280929190818152602001828054610f0890614b71565b8015610f535780601f10610f2a57610100808354040283529160200191610f53565b820191905f5260205f20905b815481529060010190602001808311610f3657829003601f168201915b505050505090806003015490806004015490806005015490806006015f9054906101000a900473ffffffffffffffffffffffffffffffffffffffff16905087565b6009602052815f5260405f208181548110610fad575f80fd5b905f5260205f2090600302015f9150915050805f015f9054906101000a900473ffffffffffffffffffffffffffffffffffffffff1690805f0160149054906101000a900460ff16908060010154908060020154905084565b6060815183511461105157815183516040517f5b059991000000000000000000000000000000000000000000000000000000008152600401611048929190614e78565b60405180910390fd5b5f835167ffffffffffffffff81111561106d5761106c613eb4565b5b60405190808252806020026020018201604052801561109b5781602001602082028036833780820191505090505b5090505f5b8451811015611107576110d76110bf8287612e7890919063ffffffff16565b6110d28387612e8b90919063ffffffff16565b6107b2565b8282815181106110ea576110e9614fe0565b5b6020026020010181815250508061110090614bce565b90506110a0565b508091505092915050565b61111a612d7d565b5f60085f8481526020019081526020015f209050806006015f9054906101000a900473ffffffffffffffffffffffffffffffffffffffff1673ffffffffffffffffffffffffffffffffffffffff163373ffffffffffffffffffffffffffffffffffffffff16146111bf576040517f08c379a00000000000000000000000000000000000000000000000000000000081526004016111b69061507d565b60405180910390fd5b60095f8481526020019081526020015f20805490508210611215576040517f08c379a000000000000000000000000000000000000000000000000000000000815260040161120c906150e5565b60405180910390fd5b5f60095f8581526020019081526020015f20838154811061123957611238614fe0565b5b905f5260205f20906003020190505f600381111561125a57611259614458565b5b815f0160149054906101000a900460ff16600381111561127d5761127c614458565b5b146112bd576040517f08c379a00000000000000000000000000000000000000000000000000000000081526004016112b49061514d565b60405180910390fd5b61025881600201546112cf9190614f94565b421015611311576040517f08c379a0000000000000000000000000000000000000000000000000000000008152600401611308906151b5565b60405180910390fd5b61135230825f015f9054906101000a900473ffffffffffffffffffffffffffffffffffffffff165f856005015460405180602001604052805f815250612e9e565b816005015481600101546113669190614f94565b600a5f846006015f9054906101000a900473ffffffffffffffffffffffffffffffffffffffff1673ffffffffffffffffffffffffffffffffffffffff1673ffffffffffffffffffffffffffffffffffffffff1681526020019081526020015f205f8282546113d49190614f94565b925050819055505f81600101819055506002815f0160146101000a81548160ff0219169083600381111561140b5761140a614458565b5b0217905550805f015f9054906101000a900473ffffffffffffffffffffffffffffffffffffffff1673ffffffffffffffffffffffffffffffffffffffff16826006015f9054906101000a900473ffffffffffffffffffffffffffffffffffffffff1673ffffffffffffffffffffffffffffffffffffffff16857f8a638e11b0c22c045787cdeb797b7660a82a4f82305ca40e86a115ae07b3ee288686600501546040516114b9929190614e78565b60405180910390a43373ffffffffffffffffffffffffffffffffffffffff16847f86f9d82fe70f334564dfb5d0f47619293510546518af6f46b21209f3cfd6d3e7856040516115089190613d0b565b60405180910390a3505061151a612e6e565b5050565b611526612d7d565b60065f9054906101000a900473ffffffffffffffffffffffffffffffffffffffff1673ffffffffffffffffffffffffffffffffffffffff166323b872dd3330846040518463ffffffff1660e01b8152600401611584939291906151d3565b6020604051808303815f875af11580156115a0573d5f803e3d5ffd5b505050506040513d601f19601f820116820180604052508101906115c49190614f01565b611603576040517f08c379a00000000000000000000000000000000000000000000000000000000081526004016115fa90615252565b60405180910390fd5b61161d335f8360405180602001604052805f815250612fa4565b611625612e6e565b50565b5f60035f8481526020019081526020015f205f015f8373ffffffffffffffffffffffffffffffffffffffff1673ffffffffffffffffffffffffffffffffffffffff1681526020019081526020015f205f9054906101000a900460ff16905092915050565b611694612d7d565b7f877a78dc988c0ec5f58453b44888a55eb39755c3d5ed8d8ea990912aa3ef29c66116be81612a9a565b81600a5f3373ffffffffffffffffffffffffffffffffffffffff1673ffffffffffffffffffffffffffffffffffffffff1681526020019081526020015f2054101561173e576040517f08c379a0000000000000000000000000000000000000000000000000000000008152600401611735906152ba565b60405180910390fd5b81600a5f3373ffffffffffffffffffffffffffffffffffffffff1673ffffffffffffffffffffffffffffffffffffffff1681526020019081526020015f205f82825461178a91906152d8565b925050819055506117ac30335f8560405180602001604052805f815250612e9e565b3373ffffffffffffffffffffffffffffffffffffffff167fade5f54ca481b46662e37b9087bec2a1919dcfc57c6388290b50b3b4c8d84749836040516117f29190613d0b565b60405180910390a250611803612e6e565b50565b60065f9054906101000a900473ffffffffffffffffffffffffffffffffffffffff1681565b7f16ceee8289685dd2a02b9c8ae81d2df373176ce53519e6284e2a2950d6546ffa81565b611857612d7d565b7f16ceee8289685dd2a02b9c8ae81d2df373176ce53519e6284e2a2950d6546ffa61188181612a9a565b60095f8581526020019081526020015f208054905083106118d7576040517f08c379a00000000000000000000000000000000000000000000000000000000081526004016118ce906150e5565b60405180910390fd5b5f60095f8681526020019081526020015f2084815481106118fb576118fa614fe0565b5b905f5260205f20906003020190506001600381111561191d5761191c614458565b5b815f0160149054906101000a900460ff1660038111156119405761193f614458565b5b14611980576040517f08c379a000000000000000000000000000000000000000000000000000000000815260040161197790615355565b60405180910390fd5b5f60085f8781526020019081526020015f2090508315611b4f576119db30835f015f9054906101000a900473ffffffffffffffffffffffffffffffffffffffff165f846005015460405180602001604052805f815250612e9e565b806005015482600101546119ef9190614f94565b600a5f836006015f9054906101000a900473ffffffffffffffffffffffffffffffffffffffff1673ffffffffffffffffffffffffffffffffffffffff1673ffffffffffffffffffffffffffffffffffffffff1681526020019081526020015f205f828254611a5d9190614f94565b925050819055505f82600101819055506002825f0160146101000a81548160ff02191690836003811115611a9457611a93614458565b5b0217905550815f015f9054906101000a900473ffffffffffffffffffffffffffffffffffffffff1673ffffffffffffffffffffffffffffffffffffffff16816006015f9054906101000a900473ffffffffffffffffffffffffffffffffffffffff1673ffffffffffffffffffffffffffffffffffffffff16877f8a638e11b0c22c045787cdeb797b7660a82a4f82305ca40e86a115ae07b3ee28888560050154604051611b42929190614e78565b60405180910390a4611ceb565b611b9c30835f015f9054906101000a900473ffffffffffffffffffffffffffffffffffffffff165f60028560050154611b889190615373565b60405180602001604052805f815250612e9e565b8160010154600a5f836006015f9054906101000a900473ffffffffffffffffffffffffffffffffffffffff1673ffffffffffffffffffffffffffffffffffffffff1673ffffffffffffffffffffffffffffffffffffffff1681526020019081526020015f205f828254611c0f9190614f94565b925050819055505f82600101819055506003825f0160146101000a81548160ff02191690836003811115611c4657611c45614458565b5b0217905550611c79825f015f9054906101000a900473ffffffffffffffffffffffffffffffffffffffff16876001612dcc565b815f015f9054906101000a900473ffffffffffffffffffffffffffffffffffffffff1673ffffffffffffffffffffffffffffffffffffffff16867f9e07dce46977ec95e7805c93ce75a606c8828e2f4a3e5554bfeb839d5089509987604051611ce29190613d0b565b60405180910390a35b857fd4390d9b1eae30d53d6e598d7eba50e60f3ea18310ca83e7919e3df177bb05ca8686604051611d1d9291906153b4565b60405180910390a2505050611d30612e6e565b505050565b5f801b81565b611d4d611d46612aae565b8383613039565b5050565b6007602052805f5260405f205f915090508054611d6d90614b71565b80601f0160208091040260200160405190810160405280929190818152602001828054611d9990614b71565b8015611de45780601f10611dbb57610100808354040283529160200191611de4565b820191905f5260205f20905b815481529060010190602001808311611dc757829003601f168201915b505050505081565b7f877a78dc988c0ec5f58453b44888a55eb39755c3d5ed8d8ea990912aa3ef29c681565b600a602052805f5260405f205f915090505481565b611e2d612d7d565b60095f8481526020019081526020015f20805490508210611e83576040517f08c379a0000000000000000000000000000000000000000000000000000000008152600401611e7a906150e5565b60405180910390fd5b5f60095f8581526020019081526020015f208381548110611ea757611ea6614fe0565b5b905f5260205f20906003020190503373ffffffffffffffffffffffffffffffffffffffff16815f015f9054906101000a900473ffffffffffffffffffffffffffffffffffffffff1673ffffffffffffffffffffffffffffffffffffffff1614611f45576040517f08c379a0000000000000000000000000000000000000000000000000000000008152600401611f3c90615425565b60405180910390fd5b5f6003811115611f5857611f57614458565b5b815f0160149054906101000a900460ff166003811115611f7b57611f7a614458565b5b14611fbb576040517f08c379a0000000000000000000000000000000000000000000000000000000008152600401611fb29061514d565b60405180910390fd5b5f60085f8681526020019081526020015f2090503373ffffffffffffffffffffffffffffffffffffffff16857fdfcfa307bd7ff3b7df976aea65a8df73deb67f2649e10e389ae208b2a5c667af86866040516120189291906153b4565b60405180910390a382156121975761204530335f846005015460405180602001604052805f815250612e9e565b806005015482600101546120599190614f94565b600a5f836006015f9054906101000a900473ffffffffffffffffffffffffffffffffffffffff1673ffffffffffffffffffffffffffffffffffffffff1673ffffffffffffffffffffffffffffffffffffffff1681526020019081526020015f205f8282546120c79190614f94565b925050819055505f82600101819055506002825f0160146101000a81548160ff021916908360038111156120fe576120fd614458565b5b02179055503373ffffffffffffffffffffffffffffffffffffffff16816006015f9054906101000a900473ffffffffffffffffffffffffffffffffffffffff1673ffffffffffffffffffffffffffffffffffffffff16867f8a638e11b0c22c045787cdeb797b7660a82a4f82305ca40e86a115ae07b3ee2887856005015460405161218a929190614e78565b60405180910390a4612213565b6001825f0160146101000a81548160ff021916908360038111156121be576121bd614458565b5b02179055503373ffffffffffffffffffffffffffffffffffffffff16857fc6fb55a2bd2838e444163cece1945a661c371c5ec8c1a4ea5d697aefc76905478660405161220a9190613d0b565b60405180910390a35b505061221d612e6e565b505050565b5f63bc197c8160e01b905095945050505050565b61223f82610a4a565b61224881612a9a565b6122528383612c93565b50505050565b612260613b86565b60095f8481526020019081526020015f208054905082106122b6576040517f08c379a00000000000000000000000000000000000000000000000000000000081526004016122ad906150e5565b60405180910390fd5b60095f8481526020019081526020015f2082815481106122d9576122d8614fe0565b5b905f5260205f2090600302016040518060800160405290815f82015f9054906101000a900473ffffffffffffffffffffffffffffffffffffffff1673ffffffffffffffffffffffffffffffffffffffff1673ffffffffffffffffffffffffffffffffffffffff1681526020015f820160149054906101000a900460ff16600381111561236857612367614458565b5b600381111561237a57612379614458565b5b815260200160018201548152602001600282015481525050905092915050565b6123a2612d7d565b5f60085f8381526020019081526020015f2090508060030154816004015410612400576040517f08c379a00000000000000000000000000000000000000000000000000000000081526004016123f79061548d565b60405180910390fd5b5f600282600501546124129190615373565b905061242f33305f8460405180602001604052805f81525061297a565b80600a5f846006015f9054906101000a900473ffffffffffffffffffffffffffffffffffffffff1673ffffffffffffffffffffffffffffffffffffffff1673ffffffffffffffffffffffffffffffffffffffff1681526020019081526020015f205410156124d2576040517f08c379a00000000000000000000000000000000000000000000000000000000081526004016124c9906154f5565b60405180910390fd5b80600a5f846006015f9054906101000a900473ffffffffffffffffffffffffffffffffffffffff1673ffffffffffffffffffffffffffffffffffffffff1673ffffffffffffffffffffffffffffffffffffffff1681526020019081526020015f205f82825461254191906152d8565b925050819055505f60405180608001604052803373ffffffffffffffffffffffffffffffffffffffff1681526020015f600381111561258357612582614458565b5b815260200183815260200142815250905060095f8581526020019081526020015f2081908060018154018082558091505060019003905f5260205f2090600302015f909190919091505f820151815f015f6101000a81548173ffffffffffffffffffffffffffffffffffffffff021916908373ffffffffffffffffffffffffffffffffffffffff1602179055506020820151815f0160146101000a81548160ff0219169083600381111561263a57612639614458565b5b0217905550604082015181600101556060820151816002015550505f600160095f8781526020019081526020015f208054905061267791906152d8565b90506001846004015f82825461268d9190614f94565b925050819055506126af3386600160405180602001604052805f815250612fa4565b3373ffffffffffffffffffffffffffffffffffffffff16857f0c66714ac82c6b49d1baf73a23208093f244fc265e1ce7e1412598a9ff1da164836040516126f69190613d0b565b60405180910390a35050505061270a612e6e565b50565b5f81565b5f60015f8473ffffffffffffffffffffffffffffffffffffffff1673ffffffffffffffffffffffffffffffffffffffff1681526020019081526020015f205f8373ffffffffffffffffffffffffffffffffffffffff1673ffffffffffffffffffffffffffffffffffffffff1681526020019081526020015f205f9054906101000a900460ff16905092915050565b6127a7613bd2565b60085f8381526020019081526020015f206040518060e00160405290815f82015481526020016001820180546127dc90614b71565b80601f016020809104026020016040519081016040528092919081815260200182805461280890614b71565b80156128535780601f1061282a57610100808354040283529160200191612853565b820191905f5260205f20905b81548152906001019060200180831161283657829003601f168201915b5050505050815260200160028201805461286c90614b71565b80601f016020809104026020016040519081016040528092919081815260200182805461289890614b71565b80156128e35780601f106128ba576101008083540402835291602001916128e3565b820191905f5260205f20905b8154815290600101906020018083116128c657829003601f168201915b50505050508152602001600382015481526020016004820154815260200160058201548152602001600682015f9054906101000a900473ffffffffffffffffffffffffffffffffffffffff1673ffffffffffffffffffffffffffffffffffffffff1673ffffffffffffffffffffffffffffffffffffffff16815250509050919050565b5f63f23a6e6160e01b905095945050505050565b5f612983612aae565b90508073ffffffffffffffffffffffffffffffffffffffff168673ffffffffffffffffffffffffffffffffffffffff16141580156129c857506129c68682612711565b155b15612a0c5780866040517fe237d922000000000000000000000000000000000000000000000000000000008152600401612a03929190614e9f565b60405180910390fd5b612a198686868686612e9e565b505050505050565b5f7f7965db0b000000000000000000000000000000000000000000000000000000007bffffffffffffffffffffffffffffffffffffffffffffffffffffffff1916827bffffffffffffffffffffffffffffffffffffffffffffffffffffffff19161480612a935750612a92826131a2565b5b9050919050565b612aab81612aa6612aae565b61321b565b50565b5f33905090565b5f73ffffffffffffffffffffffffffffffffffffffff168473ffffffffffffffffffffffffffffffffffffffff1603612b25575f6040517f57f447ce000000000000000000000000000000000000000000000000000000008152600401612b1c9190614fc7565b60405180910390fd5b5f73ffffffffffffffffffffffffffffffffffffffff168573ffffffffffffffffffffffffffffffffffffffff1603612b95575f6040517f01a83514000000000000000000000000000000000000000000000000000000008152600401612b8c9190614fc7565b60405180910390fd5b612ba2858585858561326c565b5050505050565b5f612bb48383611628565b612c8957600160035f8581526020019081526020015f205f015f8473ffffffffffffffffffffffffffffffffffffffff1673ffffffffffffffffffffffffffffffffffffffff1681526020019081526020015f205f6101000a81548160ff021916908315150217905550612c26612aae565b73ffffffffffffffffffffffffffffffffffffffff168273ffffffffffffffffffffffffffffffffffffffff16847f2f8788117e7eff1d82e926ec794901d17c78024a50270940304540a733656f0d60405160405180910390a460019050612c8d565b5f90505b92915050565b5f612c9e8383611628565b15612d73575f60035f8581526020019081526020015f205f015f8473ffffffffffffffffffffffffffffffffffffffff1673ffffffffffffffffffffffffffffffffffffffff1681526020019081526020015f205f6101000a81548160ff021916908315150217905550612d10612aae565b73ffffffffffffffffffffffffffffffffffffffff168273ffffffffffffffffffffffffffffffffffffffff16847ff6391f5c32d9c69d2a47ea670b442974b53935d1edc7fd64eb21e047a839171b60405160405180910390a460019050612d77565b5f90505b92915050565b600260045403612dc2576040517f08c379a0000000000000000000000000000000000000000000000000000000008152600401612db99061555d565b60405180910390fd5b6002600481905550565b5f73ffffffffffffffffffffffffffffffffffffffff168373ffffffffffffffffffffffffffffffffffffffff1603612e3c575f6040517f01a83514000000000000000000000000000000000000000000000000000000008152600401612e339190614fc7565b60405180910390fd5b5f80612e488484613318565b91509150612e67855f848460405180602001604052805f81525061326c565b5050505050565b6001600481905550565b5f60208202602084010151905092915050565b5f60208202602084010151905092915050565b5f73ffffffffffffffffffffffffffffffffffffffff168473ffffffffffffffffffffffffffffffffffffffff1603612f0e575f6040517f57f447ce000000000000000000000000000000000000000000000000000000008152600401612f059190614fc7565b60405180910390fd5b5f73ffffffffffffffffffffffffffffffffffffffff168573ffffffffffffffffffffffffffffffffffffffff1603612f7e575f6040517f01a83514000000000000000000000000000000000000000000000000000000008152600401612f759190614fc7565b60405180910390fd5b5f80612f8a8585613318565b91509150612f9b878784848761326c565b50505050505050565b5f73ffffffffffffffffffffffffffffffffffffffff168473ffffffffffffffffffffffffffffffffffffffff1603613014575f6040517f57f447ce00000000000000000000000000000000000000000000000000000000815260040161300b9190614fc7565b60405180910390fd5b5f806130208585613318565b915091506130315f8784848761326c565b505050505050565b5f73ffffffffffffffffffffffffffffffffffffffff168273ffffffffffffffffffffffffffffffffffffffff16036130a9575f6040517fced3e1000000000000000000000000000000000000000000000000000000000081526004016130a09190614fc7565b60405180910390fd5b8060015f8573ffffffffffffffffffffffffffffffffffffffff1673ffffffffffffffffffffffffffffffffffffffff1681526020019081526020015f205f8473ffffffffffffffffffffffffffffffffffffffff1673ffffffffffffffffffffffffffffffffffffffff1681526020019081526020015f205f6101000a81548160ff0219169083151502179055508173ffffffffffffffffffffffffffffffffffffffff168373ffffffffffffffffffffffffffffffffffffffff167f17307eab39ab6107e8899845ad3d59bd9653f200f220920489ca2b5937696c31836040516131959190613dbe565b60405180910390a3505050565b5f7f4e2312e0000000000000000000000000000000000000000000000000000000007bffffffffffffffffffffffffffffffffffffffffffffffffffffffff1916827bffffffffffffffffffffffffffffffffffffffffffffffffffffffff19161480613214575061321382613348565b5b9050919050565b6132258282611628565b6132685780826040517fe2517d3f00000000000000000000000000000000000000000000000000000000815260040161325f92919061557b565b60405180910390fd5b5050565b61327885858585613429565b5f73ffffffffffffffffffffffffffffffffffffffff168473ffffffffffffffffffffffffffffffffffffffff1614613311575f6132b4612aae565b90506001845103613300575f6132d35f86612e8b90919063ffffffff16565b90505f6132e95f86612e8b90919063ffffffff16565b90506132f98389898585896137bf565b505061330f565b61330e81878787878761396e565b5b505b5050505050565b60608060405191506001825283602083015260408201905060018152826020820152604081016040529250929050565b5f7fd9b67a26000000000000000000000000000000000000000000000000000000007bffffffffffffffffffffffffffffffffffffffffffffffffffffffff1916827bffffffffffffffffffffffffffffffffffffffffffffffffffffffff1916148061341257507f0e89341c000000000000000000000000000000000000000000000000000000007bffffffffffffffffffffffffffffffffffffffffffffffffffffffff1916827bffffffffffffffffffffffffffffffffffffffffffffffffffffffff1916145b80613422575061342182613b1d565b5b9050919050565b805182511461347357815181516040517f5b05999100000000000000000000000000000000000000000000000000000000815260040161346a929190614e78565b60405180910390fd5b5f61347c612aae565b90505f5b835181101561367e575f61349d8286612e8b90919063ffffffff16565b90505f6134b38386612e8b90919063ffffffff16565b90505f73ffffffffffffffffffffffffffffffffffffffff168873ffffffffffffffffffffffffffffffffffffffff16146135d6575f805f8481526020019081526020015f205f8a73ffffffffffffffffffffffffffffffffffffffff1673ffffffffffffffffffffffffffffffffffffffff1681526020019081526020015f205490508181101561358257888183856040517f03dee4c500000000000000000000000000000000000000000000000000000000815260040161357994939291906155a2565b60405180910390fd5b8181035f808581526020019081526020015f205f8b73ffffffffffffffffffffffffffffffffffffffff1673ffffffffffffffffffffffffffffffffffffffff1681526020019081526020015f2081905550505b5f73ffffffffffffffffffffffffffffffffffffffff168773ffffffffffffffffffffffffffffffffffffffff161461366b57805f808481526020019081526020015f205f8973ffffffffffffffffffffffffffffffffffffffff1673ffffffffffffffffffffffffffffffffffffffff1681526020019081526020015f205f8282546136639190614f94565b925050819055505b50508061367790614bce565b9050613480565b506001835103613739575f61369c5f85612e8b90919063ffffffff16565b90505f6136b25f85612e8b90919063ffffffff16565b90508573ffffffffffffffffffffffffffffffffffffffff168773ffffffffffffffffffffffffffffffffffffffff168473ffffffffffffffffffffffffffffffffffffffff167fc3d58168c5ae7397731d063d5bbf3d657854427343f4c083240f7aacaa2d0f62858560405161372a929190614e78565b60405180910390a450506137b8565b8373ffffffffffffffffffffffffffffffffffffffff168573ffffffffffffffffffffffffffffffffffffffff168273ffffffffffffffffffffffffffffffffffffffff167f4a39dc06d4c0dbc64b70af90fd698a233a518aa5d07e595d983b8c0526c8f7fb86866040516137af9291906155e5565b60405180910390a45b5050505050565b5f8473ffffffffffffffffffffffffffffffffffffffff163b1115613966578373ffffffffffffffffffffffffffffffffffffffff1663f23a6e6187878686866040518663ffffffff1660e01b815260040161381f95949392919061561a565b6020604051808303815f875af192505050801561385a57506040513d601f19601f820116820180604052508101906138579190615686565b60015b6138db573d805f8114613888576040519150601f19603f3d011682016040523d82523d5f602084013e61388d565b606091505b505f8151036138d357846040517f57f447ce0000000000000000000000000000000000000000000000000000000081526004016138ca9190614fc7565b60405180910390fd5b805181602001fd5b63f23a6e6160e01b7bffffffffffffffffffffffffffffffffffffffffffffffffffffffff1916817bffffffffffffffffffffffffffffffffffffffffffffffffffffffff19161461396457846040517f57f447ce00000000000000000000000000000000000000000000000000000000815260040161395b9190614fc7565b60405180910390fd5b505b505050505050565b5f8473ffffffffffffffffffffffffffffffffffffffff163b1115613b15578373ffffffffffffffffffffffffffffffffffffffff1663bc197c8187878686866040518663ffffffff1660e01b81526004016139ce9594939291906156b1565b6020604051808303815f875af1925050508015613a0957506040513d601f19601f82011682018060405250810190613a069190615686565b60015b613a8a573d805f8114613a37576040519150601f19603f3d011682016040523d82523d5f602084013e613a3c565b606091505b505f815103613a8257846040517f57f447ce000000000000000000000000000000000000000000000000000000008152600401613a799190614fc7565b60405180910390fd5b805181602001fd5b63bc197c8160e01b7bffffffffffffffffffffffffffffffffffffffffffffffffffffffff1916817bffffffffffffffffffffffffffffffffffffffffffffffffffffffff191614613b1357846040517f57f447ce000000000000000000000000000000000000000000000000000000008152600401613b0a9190614fc7565b60405180910390fd5b505b505050505050565b5f7f01ffc9a7000000000000000000000000000000000000000000000000000000007bffffffffffffffffffffffffffffffffffffffffffffffffffffffff1916827bffffffffffffffffffffffffffffffffffffffffffffffffffffffff1916149050919050565b60405180608001604052805f73ffffffffffffffffffffffffffffffffffffffff1681526020015f6003811115613bc057613bbf614458565b5b81526020015f81526020015f81525090565b6040518060e001604052805f815260200160608152602001606081526020015f81526020015f81526020015f81526020015f73ffffffffffffffffffffffffffffffffffffffff1681525090565b5f604051905090565b5f80fd5b5f80fd5b5f73ffffffffffffffffffffffffffffffffffffffff82169050919050565b5f613c5a82613c31565b9050919050565b613c6a81613c50565b8114613c74575f80fd5b50565b5f81359050613c8581613c61565b92915050565b5f819050919050565b613c9d81613c8b565b8114613ca7575f80fd5b50565b5f81359050613cb881613c94565b92915050565b5f8060408385031215613cd457613cd3613c29565b5b5f613ce185828601613c77565b9250506020613cf285828601613caa565b9150509250929050565b613d0581613c8b565b82525050565b5f602082019050613d1e5f830184613cfc565b92915050565b5f7fffffffff0000000000000000000000000000000000000000000000000000000082169050919050565b613d5881613d24565b8114613d62575f80fd5b50565b5f81359050613d7381613d4f565b92915050565b5f60208284031215613d8e57613d8d613c29565b5b5f613d9b84828501613d65565b91505092915050565b5f8115159050919050565b613db881613da4565b82525050565b5f602082019050613dd15f830184613daf565b92915050565b5f60208284031215613dec57613deb613c29565b5b5f613df984828501613caa565b91505092915050565b5f81519050919050565b5f82825260208201905092915050565b5f5b83811015613e39578082015181840152602081019050613e1e565b5f8484015250505050565b5f601f19601f8301169050919050565b5f613e5e82613e02565b613e688185613e0c565b9350613e78818560208601613e1c565b613e8181613e44565b840191505092915050565b5f6020820190508181035f830152613ea48184613e54565b905092915050565b5f80fd5b5f80fd5b7f4e487b71000000000000000000000000000000000000000000000000000000005f52604160045260245ffd5b613eea82613e44565b810181811067ffffffffffffffff82111715613f0957613f08613eb4565b5b80604052505050565b5f613f1b613c20565b9050613f278282613ee1565b919050565b5f67ffffffffffffffff821115613f4657613f45613eb4565b5b613f4f82613e44565b9050602081019050919050565b828183375f83830152505050565b5f613f7c613f7784613f2c565b613f12565b905082815260208101848484011115613f9857613f97613eb0565b5b613fa3848285613f5c565b509392505050565b5f82601f830112613fbf57613fbe613eac565b5b8135613fcf848260208601613f6a565b91505092915050565b5f805f8060808587031215613ff057613fef613c29565b5b5f85013567ffffffffffffffff81111561400d5761400c613c2d565b5b61401987828801613fab565b945050602085013567ffffffffffffffff81111561403a57614039613c2d565b5b61404687828801613fab565b935050604061405787828801613caa565b925050606061406887828801613caa565b91505092959194509250565b5f819050919050565b61408681614074565b8114614090575f80fd5b50565b5f813590506140a18161407d565b92915050565b5f602082840312156140bc576140bb613c29565b5b5f6140c984828501614093565b91505092915050565b6140db81614074565b82525050565b5f6020820190506140f45f8301846140d2565b92915050565b5f67ffffffffffffffff82111561411457614113613eb4565b5b602082029050602081019050919050565b5f80fd5b5f61413b614136846140fa565b613f12565b9050808382526020820190506020840283018581111561415e5761415d614125565b5b835b8181101561418757806141738882613caa565b845260208401935050602081019050614160565b5050509392505050565b5f82601f8301126141a5576141a4613eac565b5b81356141b5848260208601614129565b91505092915050565b5f67ffffffffffffffff8211156141d8576141d7613eb4565b5b6141e182613e44565b9050602081019050919050565b5f6142006141fb846141be565b613f12565b90508281526020810184848401111561421c5761421b613eb0565b5b614227848285613f5c565b509392505050565b5f82601f83011261424357614242613eac565b5b81356142538482602086016141ee565b91505092915050565b5f805f805f60a0868803121561427557614274613c29565b5b5f61428288828901613c77565b955050602061429388828901613c77565b945050604086013567ffffffffffffffff8111156142b4576142b3613c2d565b5b6142c088828901614191565b935050606086013567ffffffffffffffff8111156142e1576142e0613c2d565b5b6142ed88828901614191565b925050608086013567ffffffffffffffff81111561430e5761430d613c2d565b5b61431a8882890161422f565b9150509295509295909350565b5f806040838503121561433d5761433c613c29565b5b5f61434a85828601614093565b925050602061435b85828601613c77565b9150509250929050565b5f6020828403121561437a57614379613c29565b5b5f61438784828501613c77565b91505092915050565b61439981613c50565b82525050565b5f60e0820190506143b25f83018a613cfc565b81810360208301526143c48189613e54565b905081810360408301526143d88188613e54565b90506143e76060830187613cfc565b6143f46080830186613cfc565b61440160a0830185613cfc565b61440e60c0830184614390565b98975050505050505050565b5f80604083850312156144305761442f613c29565b5b5f61443d85828601613caa565b925050602061444e85828601613caa565b9150509250929050565b7f4e487b71000000000000000000000000000000000000000000000000000000005f52602160045260245ffd5b6004811061449657614495614458565b5b50565b5f8190506144a682614485565b919050565b5f6144b582614499565b9050919050565b6144c5816144ab565b82525050565b5f6080820190506144de5f830187614390565b6144eb60208301866144bc565b6144f86040830185613cfc565b6145056060830184613cfc565b95945050505050565b5f67ffffffffffffffff82111561452857614527613eb4565b5b602082029050602081019050919050565b5f61454b6145468461450e565b613f12565b9050808382526020820190506020840283018581111561456e5761456d614125565b5b835b8181101561459757806145838882613c77565b845260208401935050602081019050614570565b5050509392505050565b5f82601f8301126145b5576145b4613eac565b5b81356145c5848260208601614539565b91505092915050565b5f80604083850312156145e4576145e3613c29565b5b5f83013567ffffffffffffffff81111561460157614600613c2d565b5b61460d858286016145a1565b925050602083013567ffffffffffffffff81111561462e5761462d613c2d565b5b61463a85828601614191565b9150509250929050565b5f81519050919050565b5f82825260208201905092915050565b5f819050602082019050919050565b61467681613c8b565b82525050565b5f614687838361466d565b60208301905092915050565b5f602082019050919050565b5f6146a982614644565b6146b3818561464e565b93506146be8361465e565b805f5b838110156146ee5781516146d5888261467c565b97506146e083614693565b9250506001810190506146c1565b5085935050505092915050565b5f6020820190508181035f830152614713818461469f565b905092915050565b5f819050919050565b5f61473e61473961473484613c31565b61471b565b613c31565b9050919050565b5f61474f82614724565b9050919050565b5f61476082614745565b9050919050565b61477081614756565b82525050565b5f6020820190506147895f830184614767565b92915050565b61479881613da4565b81146147a2575f80fd5b50565b5f813590506147b38161478f565b92915050565b5f805f606084860312156147d0576147cf613c29565b5b5f6147dd86828701613caa565b93505060206147ee86828701613caa565b92505060406147ff868287016147a5565b9150509250925092565b5f806040838503121561481f5761481e613c29565b5b5f61482c85828601613c77565b925050602061483d858286016147a5565b9150509250929050565b5f81519050919050565b5f82825260208201905092915050565b5f61486b82614847565b6148758185614851565b9350614885818560208601613e1c565b61488e81613e44565b840191505092915050565b5f6020820190508181035f8301526148b18184614861565b905092915050565b6148c281613d24565b82525050565b5f6020820190506148db5f8301846148b9565b92915050565b6148ea81613c50565b82525050565b6148f9816144ab565b82525050565b608082015f8201516149135f8501826148e1565b50602082015161492660208501826148f0565b506040820151614939604085018261466d565b50606082015161494c606085018261466d565b50505050565b5f6080820190506149655f8301846148ff565b92915050565b5f806040838503121561498157614980613c29565b5b5f61498e85828601613c77565b925050602061499f85828601613c77565b9150509250929050565b5f82825260208201905092915050565b5f6149c382613e02565b6149cd81856149a9565b93506149dd818560208601613e1c565b6149e681613e44565b840191505092915050565b5f60e083015f830151614a065f86018261466d565b5060208301518482036020860152614a1e82826149b9565b91505060408301518482036040860152614a3882826149b9565b9150506060830151614a4d606086018261466d565b506080830151614a60608086018261466d565b5060a0830151614a7360a086018261466d565b5060c0830151614a8660c08601826148e1565b508091505092915050565b5f6020820190508181035f830152614aa981846149f1565b905092915050565b5f805f805f60a08688031215614aca57614ac9613c29565b5b5f614ad788828901613c77565b9550506020614ae888828901613c77565b9450506040614af988828901613caa565b9350506060614b0a88828901613caa565b925050608086013567ffffffffffffffff811115614b2b57614b2a613c2d565b5b614b378882890161422f565b9150509295509295909350565b7f4e487b71000000000000000000000000000000000000000000000000000000005f52602260045260245ffd5b5f6002820490506001821680614b8857607f821691505b602082108103614b9b57614b9a614b44565b5b50919050565b7f4e487b71000000000000000000000000000000000000000000000000000000005f52601160045260245ffd5b5f614bd882613c8b565b91507fffffffffffffffffffffffffffffffffffffffffffffffffffffffffffffffff8203614c0a57614c09614ba1565b5b600182019050919050565b5f819050815f5260205f209050919050565b5f6020601f8301049050919050565b5f82821b905092915050565b5f60088302614c717fffffffffffffffffffffffffffffffffffffffffffffffffffffffffffffffff82614c36565b614c7b8683614c36565b95508019841693508086168417925050509392505050565b5f614cad614ca8614ca384613c8b565b61471b565b613c8b565b9050919050565b5f819050919050565b614cc683614c93565b614cda614cd282614cb4565b848454614c42565b825550505050565b5f90565b614cee614ce2565b614cf9818484614cbd565b505050565b5b81811015614d1c57614d115f82614ce6565b600181019050614cff565b5050565b601f821115614d6157614d3281614c15565b614d3b84614c27565b81016020851015614d4a578190505b614d5e614d5685614c27565b830182614cfe565b50505b505050565b5f82821c905092915050565b5f614d815f1984600802614d66565b1980831691505092915050565b5f614d998383614d72565b9150826002028217905092915050565b614db282613e02565b67ffffffffffffffff811115614dcb57614dca613eb4565b5b614dd58254614b71565b614de0828285614d20565b5f60209050601f831160018114614e11575f8415614dff578287015190505b614e098582614d8e565b865550614e70565b601f198416614e1f86614c15565b5f5b82811015614e4657848901518255600182019150602085019450602081019050614e21565b86831015614e635784890151614e5f601f891682614d72565b8355505b6001600288020188555050505b505050505050565b5f604082019050614e8b5f830185613cfc565b614e986020830184613cfc565b9392505050565b5f604082019050614eb25f830185614390565b614ebf6020830184614390565b9392505050565b5f604082019050614ed95f830185614390565b614ee66020830184613cfc565b9392505050565b5f81519050614efb8161478f565b92915050565b5f60208284031215614f1657614f15613c29565b5b5f614f2384828501614eed565b91505092915050565b7f537461626c6520636f696e20726566756e64206661696c6564000000000000005f82015250565b5f614f60601983613e0c565b9150614f6b82614f2c565b602082019050919050565b5f6020820190508181035f830152614f8d81614f54565b9050919050565b5f614f9e82613c8b565b9150614fa983613c8b565b9250828201905080821115614fc157614fc0614ba1565b5b92915050565b5f602082019050614fda5f830184614390565b92915050565b7f4e487b71000000000000000000000000000000000000000000000000000000005f52603260045260245ffd5b7f4f6e6c7920746865206172746973742063616e20666f72636520636f6e6669725f8201527f6d00000000000000000000000000000000000000000000000000000000000000602082015250565b5f615067602183613e0c565b91506150728261500d565b604082019050919050565b5f6020820190508181035f8301526150948161505b565b9050919050565b7f496e76616c696420707572636861736520696e646578000000000000000000005f82015250565b5f6150cf601683613e0c565b91506150da8261509b565b602082019050919050565b5f6020820190508181035f8301526150fc816150c3565b9050919050565b7f5075726368617365206e6f7420616374697665000000000000000000000000005f82015250565b5f615137601383613e0c565b915061514282615103565b602082019050919050565b5f6020820190508181035f8301526151648161512b565b9050919050565b7f436f6e6669726d6174696f6e2074696d656f7574206e6f7420726561636865645f82015250565b5f61519f602083613e0c565b91506151aa8261516b565b602082019050919050565b5f6020820190508181035f8301526151cc81615193565b9050919050565b5f6060820190506151e65f830186614390565b6151f36020830185614390565b6152006040830184613cfc565b949350505050565b7f537461626c6520636f696e207472616e73666572206661696c656400000000005f82015250565b5f61523c601b83613e0c565b915061524782615208565b602082019050919050565b5f6020820190508181035f83015261526981615230565b9050919050565b7f496e73756666696369656e74206465706f7369740000000000000000000000005f82015250565b5f6152a4601483613e0c565b91506152af82615270565b602082019050919050565b5f6020820190508181035f8301526152d181615298565b9050919050565b5f6152e282613c8b565b91506152ed83613c8b565b925082820390508181111561530557615304614ba1565b5b92915050565b7f5075726368617365206e6f7420696e20646973707574650000000000000000005f82015250565b5f61533f601783613e0c565b915061534a8261530b565b602082019050919050565b5f6020820190508181035f83015261536c81615333565b9050919050565b5f61537d82613c8b565b915061538883613c8b565b925082820261539681613c8b565b915082820484148315176153ad576153ac614ba1565b5b5092915050565b5f6040820190506153c75f830185613cfc565b6153d46020830184613daf565b9392505050565b7f43616c6c6572206973206e6f74207468652062757965720000000000000000005f82015250565b5f61540f601783613e0c565b915061541a826153db565b602082019050919050565b5f6020820190508181035f83015261543c81615403565b9050919050565b7f416c6c204e465473206d696e74656400000000000000000000000000000000005f82015250565b5f615477600f83613e0c565b915061548282615443565b602082019050919050565b5f6020820190508181035f8301526154a48161546b565b9050919050565b7f417274697374206465706f73697420696e73756666696369656e7400000000005f82015250565b5f6154df601b83613e0c565b91506154ea826154ab565b602082019050919050565b5f6020820190508181035f83015261550c816154d3565b9050919050565b7f5265656e7472616e637947756172643a207265656e7472616e742063616c6c005f82015250565b5f615547601f83613e0c565b915061555282615513565b602082019050919050565b5f6020820190508181035f8301526155748161553b565b9050919050565b5f60408201905061558e5f830185614390565b61559b60208301846140d2565b9392505050565b5f6080820190506155b55f830187614390565b6155c26020830186613cfc565b6155cf6040830185613cfc565b6155dc6060830184613cfc565b95945050505050565b5f6040820190508181035f8301526155fd818561469f565b90508181036020830152615611818461469f565b90509392505050565b5f60a08201905061562d5f830188614390565b61563a6020830187614390565b6156476040830186613cfc565b6156546060830185613cfc565b81810360808301526156668184614861565b90509695505050505050565b5f8151905061568081613d4f565b92915050565b5f6020828403121561569b5761569a613c29565b5b5f6156a884828501615672565b91505092915050565b5f60a0820190506156c45f830188614390565b6156d16020830187614390565b81810360408301526156e3818661469f565b905081810360608301526156f7818561469f565b9050818103608083015261570b8184614861565b9050969550505050505056fea2646970667358221220b2efcaf97f24b4e0cd620cacc965799a32d39e8b11aab5c6628f02b7563bafbe64736f6c63430008140033",
			"opcodes": "PUSH1 0x80 PUSH1 0x40 MSTORE CALLVALUE DUP1 ISZERO PUSH3 0x10 JUMPI PUSH0 DUP1 REVERT JUMPDEST POP PUSH1 0x40 MLOAD PUSH3 0x5E33 CODESIZE SUB DUP1 PUSH3 0x5E33 DUP4 CODECOPY DUP2 DUP2 ADD PUSH1 0x40 MSTORE DUP2 ADD SWAP1 PUSH3 0x36 SWAP2 SWAP1 PUSH3 0x36E JUMP JUMPDEST DUP1 PUSH3 0x48 DUP2 PUSH3 0x6D PUSH1 0x20 SHL PUSH1 0x20 SHR JUMP JUMPDEST POP PUSH1 0x1 PUSH1 0x4 DUP2 SWAP1 SSTORE POP PUSH3 0x65 PUSH0 DUP1 SHL CALLER PUSH3 0x82 PUSH1 0x20 SHL PUSH1 0x20 SHR JUMP JUMPDEST POP POP PUSH3 0x6D8 JUMP JUMPDEST DUP1 PUSH1 0x2 SWAP1 DUP2 PUSH3 0x7E SWAP2 SWAP1 PUSH3 0x5F4 JUMP JUMPDEST POP POP JUMP JUMPDEST PUSH0 PUSH3 0x95 DUP4 DUP4 PUSH3 0x17E PUSH1 0x20 SHL PUSH1 0x20 SHR JUMP JUMPDEST PUSH3 0x174 JUMPI PUSH1 0x1 PUSH1 0x3 PUSH0 DUP6 DUP2 MSTORE PUSH1 0x20 ADD SWAP1 DUP2 MSTORE PUSH1 0x20 ADD PUSH0 KECCAK256 PUSH0 ADD PUSH0 DUP5 PUSH20 0xFFFFFFFFFFFFFFFFFFFFFFFFFFFFFFFFFFFFFFFF AND PUSH20 0xFFFFFFFFFFFFFFFFFFFFFFFFFFFFFFFFFFFFFFFF AND DUP2 MSTORE PUSH1 0x20 ADD SWAP1 DUP2 MSTORE PUSH1 0x20 ADD PUSH0 KECCAK256 PUSH0 PUSH2 0x100 EXP DUP2 SLOAD DUP2 PUSH1 0xFF MUL NOT AND SWAP1 DUP4 ISZERO ISZERO MUL OR SWAP1 SSTORE POP PUSH3 0x110 PUSH3 0x1E2 PUSH1 0x20 SHL PUSH1 0x20 SHR JUMP JUMPDEST PUSH20 0xFFFFFFFFFFFFFFFFFFFFFFFFFFFFFFFFFFFFFFFF AND DUP3 PUSH20 0xFFFFFFFFFFFFFFFFFFFFFFFFFFFFFFFFFFFFFFFF AND DUP5 PUSH32 0x2F8788117E7EFF1D82E926EC794901D17C78024A50270940304540A733656F0D PUSH1 0x40 MLOAD PUSH1 0x40 MLOAD DUP1 SWAP2 SUB SWAP1 LOG4 PUSH1 0x1 SWAP1 POP PUSH3 0x178 JUMP JUMPDEST PUSH0 SWAP1 POP JUMPDEST SWAP3 SWAP2 POP POP JUMP JUMPDEST PUSH0 PUSH1 0x3 PUSH0 DUP5 DUP2 MSTORE PUSH1 0x20 ADD SWAP1 DUP2 MSTORE PUSH1 0x20 ADD PUSH0 KECCAK256 PUSH0 ADD PUSH0 DUP4 PUSH20 0xFFFFFFFFFFFFFFFFFFFFFFFFFFFFFFFFFFFFFFFF AND PUSH20 0xFFFFFFFFFFFFFFFFFFFFFFFFFFFFFFFFFFFFFFFF AND DUP2 MSTORE PUSH1 0x20 ADD SWAP1 DUP2 MSTORE PUSH1 0x20 ADD PUSH0 KECCAK256 PUSH0 SWAP1 SLOAD SWAP1 PUSH2 0x100 EXP SWAP1 DIV PUSH1 0xFF AND SWAP1 POP SWAP3 SWAP2 POP POP JUMP JUMPDEST PUSH0 CALLER SWAP1 POP SWAP1 JUMP JUMPDEST PUSH0 PUSH1 0x40 MLOAD SWAP1 POP SWAP1 JUMP JUMPDEST PUSH0 DUP1 REVERT JUMPDEST PUSH0 DUP1 REVERT JUMPDEST PUSH0 DUP1 REVERT JUMPDEST PUSH0 DUP1 REVERT JUMPDEST PUSH0 PUSH1 0x1F NOT PUSH1 0x1F DUP4 ADD AND SWAP1 POP SWAP2 SWAP1 POP JUMP JUMPDEST PUSH32 0x4E487B7100000000000000000000000000000000000000000000000000000000 PUSH0 MSTORE PUSH1 0x41 PUSH1 0x4 MSTORE PUSH1 0x24 PUSH0 REVERT JUMPDEST PUSH3 0x24A DUP3 PUSH3 0x202 JUMP JUMPDEST DUP2 ADD DUP2 DUP2 LT PUSH8 0xFFFFFFFFFFFFFFFF DUP3 GT OR ISZERO PUSH3 0x26C JUMPI PUSH3 0x26B PUSH3 0x212 JUMP JUMPDEST JUMPDEST DUP1 PUSH1 0x40 MSTORE POP POP POP JUMP JUMPDEST PUSH0 PUSH3 0x280 PUSH3 0x1E9 JUMP JUMPDEST SWAP1 POP PUSH3 0x28E DUP3 DUP3 PUSH3 0x23F JUMP JUMPDEST SWAP2 SWAP1 POP JUMP JUMPDEST PUSH0 PUSH8 0xFFFFFFFFFFFFFFFF DUP3 GT ISZERO PUSH3 0x2B0 JUMPI PUSH3 0x2AF PUSH3 0x212 JUMP JUMPDEST JUMPDEST PUSH3 0x2BB DUP3 PUSH3 0x202 JUMP JUMPDEST SWAP1 POP PUSH1 0x20 DUP2 ADD SWAP1 POP SWAP2 SWAP1 POP JUMP JUMPDEST PUSH0 JUMPDEST DUP4 DUP2 LT ISZERO PUSH3 0x2E7 JUMPI DUP1 DUP3 ADD MLOAD DUP2 DUP5 ADD MSTORE PUSH1 0x20 DUP2 ADD SWAP1 POP PUSH3 0x2CA JUMP JUMPDEST PUSH0 DUP5 DUP5 ADD MSTORE POP POP POP POP JUMP JUMPDEST PUSH0 PUSH3 0x308 PUSH3 0x302 DUP5 PUSH3 0x293 JUMP JUMPDEST PUSH3 0x275 JUMP JUMPDEST SWAP1 POP DUP3 DUP2 MSTORE PUSH1 0x20 DUP2 ADD DUP5 DUP5 DUP5 ADD GT ISZERO PUSH3 0x327 JUMPI PUSH3 0x326 PUSH3 0x1FE JUMP JUMPDEST JUMPDEST PUSH3 0x334 DUP5 DUP3 DUP6 PUSH3 0x2C8 JUMP JUMPDEST POP SWAP4 SWAP3 POP POP POP JUMP JUMPDEST PUSH0 DUP3 PUSH1 0x1F DUP4 ADD SLT PUSH3 0x353 JUMPI PUSH3 0x352 PUSH3 0x1FA JUMP JUMPDEST JUMPDEST DUP2 MLOAD PUSH3 0x365 DUP5 DUP3 PUSH1 0x20 DUP7 ADD PUSH3 0x2F2 JUMP JUMPDEST SWAP2 POP POP SWAP3 SWAP2 POP POP JUMP JUMPDEST PUSH0 PUSH1 0x20 DUP3 DUP5 SUB SLT ISZERO PUSH3 0x386 JUMPI PUSH3 0x385 PUSH3 0x1F2 JUMP JUMPDEST JUMPDEST PUSH0 DUP3 ADD MLOAD PUSH8 0xFFFFFFFFFFFFFFFF DUP2 GT ISZERO PUSH3 0x3A6 JUMPI PUSH3 0x3A5 PUSH3 0x1F6 JUMP JUMPDEST JUMPDEST PUSH3 0x3B4 DUP5 DUP3 DUP6 ADD PUSH3 0x33C JUMP JUMPDEST SWAP2 POP POP SWAP3 SWAP2 POP POP JUMP JUMPDEST PUSH0 DUP2 MLOAD SWAP1 POP SWAP2 SWAP1 POP JUMP JUMPDEST PUSH32 0x4E487B7100000000000000000000000000000000000000000000000000000000 PUSH0 MSTORE PUSH1 0x22 PUSH1 0x4 MSTORE PUSH1 0x24 PUSH0 REVERT JUMPDEST PUSH0 PUSH1 0x2 DUP3 DIV SWAP1 POP PUSH1 0x1 DUP3 AND DUP1 PUSH3 0x40C JUMPI PUSH1 0x7F DUP3 AND SWAP2 POP JUMPDEST PUSH1 0x20 DUP3 LT DUP2 SUB PUSH3 0x422 JUMPI PUSH3 0x421 PUSH3 0x3C7 JUMP JUMPDEST JUMPDEST POP SWAP2 SWAP1 POP JUMP JUMPDEST PUSH0 DUP2 SWAP1 POP DUP2 PUSH0 MSTORE PUSH1 0x20 PUSH0 KECCAK256 SWAP1 POP SWAP2 SWAP1 POP JUMP JUMPDEST PUSH0 PUSH1 0x20 PUSH1 0x1F DUP4 ADD DIV SWAP1 POP SWAP2 SWAP1 POP JUMP JUMPDEST PUSH0 DUP3 DUP3 SHL SWAP1 POP SWAP3 SWAP2 POP POP JUMP JUMPDEST PUSH0 PUSH1 0x8 DUP4 MUL PUSH3 0x486 PUSH32 0xFFFFFFFFFFFFFFFFFFFFFFFFFFFFFFFFFFFFFFFFFFFFFFFFFFFFFFFFFFFFFFFF DUP3 PUSH3 0x449 JUMP JUMPDEST PUSH3 0x492 DUP7 DUP4 PUSH3 0x449 JUMP JUMPDEST SWAP6 POP DUP1 NOT DUP5 AND SWAP4 POP DUP1 DUP7 AND DUP5 OR SWAP3 POP POP POP SWAP4 SWAP3 POP POP POP JUMP JUMPDEST PUSH0 DUP2 SWAP1 POP SWAP2 SWAP1 POP JUMP JUMPDEST PUSH0 DUP2 SWAP1 POP SWAP2 SWAP1 POP JUMP JUMPDEST PUSH0 PUSH3 0x4DC PUSH3 0x4D6 PUSH3 0x4D0 DUP5 PUSH3 0x4AA JUMP JUMPDEST PUSH3 0x4B3 JUMP JUMPDEST PUSH3 0x4AA JUMP JUMPDEST SWAP1 POP SWAP2 SWAP1 POP JUMP JUMPDEST PUSH0 DUP2 SWAP1 POP SWAP2 SWAP1 POP JUMP JUMPDEST PUSH3 0x4F7 DUP4 PUSH3 0x4BC JUMP JUMPDEST PUSH3 0x50F PUSH3 0x506 DUP3 PUSH3 0x4E3 JUMP JUMPDEST DUP5 DUP5 SLOAD PUSH3 0x455 JUMP JUMPDEST DUP3 SSTORE POP POP POP POP JUMP JUMPDEST PUSH0 SWAP1 JUMP JUMPDEST PUSH3 0x525 PUSH3 0x517 JUMP JUMPDEST PUSH3 0x532 DUP2 DUP5 DUP5 PUSH3 0x4EC JUMP JUMPDEST POP POP POP JUMP JUMPDEST JUMPDEST DUP2 DUP2 LT ISZERO PUSH3 0x559 JUMPI PUSH3 0x54D PUSH0 DUP3 PUSH3 0x51B JUMP JUMPDEST PUSH1 0x1 DUP2 ADD SWAP1 POP PUSH3 0x538 JUMP JUMPDEST POP POP JUMP JUMPDEST PUSH1 0x1F DUP3 GT ISZERO PUSH3 0x5A8 JUMPI PUSH3 0x572 DUP2 PUSH3 0x428 JUMP JUMPDEST PUSH3 0x57D DUP5 PUSH3 0x43A JUMP JUMPDEST DUP2 ADD PUSH1 0x20 DUP6 LT ISZERO PUSH3 0x58D JUMPI DUP2 SWAP1 POP JUMPDEST PUSH3 0x5A5 PUSH3 0x59C DUP6 PUSH3 0x43A JUMP JUMPDEST DUP4 ADD DUP3 PUSH3 0x537 JUMP JUMPDEST POP POP JUMPDEST POP POP POP JUMP JUMPDEST PUSH0 DUP3 DUP3 SHR SWAP1 POP SWAP3 SWAP2 POP POP JUMP JUMPDEST PUSH0 PUSH3 0x5CA PUSH0 NOT DUP5 PUSH1 0x8 MUL PUSH3 0x5AD JUMP JUMPDEST NOT DUP1 DUP4 AND SWAP2 POP POP SWAP3 SWAP2 POP POP JUMP JUMPDEST PUSH0 PUSH3 0x5E4 DUP4 DUP4 PUSH3 0x5B9 JUMP JUMPDEST SWAP2 POP DUP3 PUSH1 0x2 MUL DUP3 OR SWAP1 POP SWAP3 SWAP2 POP POP JUMP JUMPDEST PUSH3 0x5FF DUP3 PUSH3 0x3BD JUMP JUMPDEST PUSH8 0xFFFFFFFFFFFFFFFF DUP2 GT ISZERO PUSH3 0x61B JUMPI PUSH3 0x61A PUSH3 0x212 JUMP JUMPDEST JUMPDEST PUSH3 0x627 DUP3 SLOAD PUSH3 0x3F4 JUMP JUMPDEST PUSH3 0x634 DUP3 DUP3 DUP6 PUSH3 0x55D JUMP JUMPDEST PUSH0 PUSH1 0x20 SWAP1 POP PUSH1 0x1F DUP4 GT PUSH1 0x1 DUP2 EQ PUSH3 0x66A JUMPI PUSH0 DUP5 ISZERO PUSH3 0x655 JUMPI DUP3 DUP8 ADD MLOAD SWAP1 POP JUMPDEST PUSH3 0x661 DUP6 DUP3 PUSH3 0x5D7 JUMP JUMPDEST DUP7 SSTORE POP PUSH3 0x6D0 JUMP JUMPDEST PUSH1 0x1F NOT DUP5 AND PUSH3 0x67A DUP7 PUSH3 0x428 JUMP JUMPDEST PUSH0 JUMPDEST DUP3 DUP2 LT ISZERO PUSH3 0x6A3 JUMPI DUP5 DUP10 ADD MLOAD DUP3 SSTORE PUSH1 0x1 DUP3 ADD SWAP2 POP PUSH1 0x20 DUP6 ADD SWAP5 POP PUSH1 0x20 DUP2 ADD SWAP1 POP PUSH3 0x67C JUMP JUMPDEST DUP7 DUP4 LT ISZERO PUSH3 0x6C3 JUMPI DUP5 DUP10 ADD MLOAD PUSH3 0x6BF PUSH1 0x1F DUP10 AND DUP3 PUSH3 0x5B9 JUMP JUMPDEST DUP4 SSTORE POP JUMPDEST PUSH1 0x1 PUSH1 0x2 DUP9 MUL ADD DUP9 SSTORE POP POP POP JUMPDEST POP POP POP POP POP POP JUMP JUMPDEST PUSH2 0x574D DUP1 PUSH3 0x6E6 PUSH0 CODECOPY PUSH0 RETURN INVALID PUSH1 0x80 PUSH1 0x40 MSTORE CALLVALUE DUP1 ISZERO PUSH2 0xF JUMPI PUSH0 DUP1 REVERT JUMPDEST POP PUSH1 0x4 CALLDATASIZE LT PUSH2 0x22F JUMPI PUSH0 CALLDATALOAD PUSH1 0xE0 SHR DUP1 PUSH4 0x95B7DDE0 GT PUSH2 0x12E JUMPI DUP1 PUSH4 0xB89571C7 GT PUSH2 0xB6 JUMPI DUP1 PUSH4 0xE8DBB9C5 GT PUSH2 0x7A JUMPI DUP1 PUSH4 0xE8DBB9C5 EQ PUSH2 0x6E8 JUMPI DUP1 PUSH4 0xE985E9C5 EQ PUSH2 0x706 JUMPI DUP1 PUSH4 0xF1F201E8 EQ PUSH2 0x736 JUMPI DUP1 PUSH4 0xF23A6E61 EQ PUSH2 0x766 JUMPI DUP1 PUSH4 0xF242432A EQ PUSH2 0x796 JUMPI PUSH2 0x22F JUMP JUMPDEST DUP1 PUSH4 0xB89571C7 EQ PUSH2 0x634 JUMPI DUP1 PUSH4 0xBC197C81 EQ PUSH2 0x650 JUMPI DUP1 PUSH4 0xD547741F EQ PUSH2 0x680 JUMPI DUP1 PUSH4 0xDA47635D EQ PUSH2 0x69C JUMPI DUP1 PUSH4 0xE82F4062 EQ PUSH2 0x6CC JUMPI PUSH2 0x22F JUMP JUMPDEST DUP1 PUSH4 0xA217FDDF GT PUSH2 0xFD JUMPI DUP1 PUSH4 0xA217FDDF EQ PUSH2 0x57C JUMPI DUP1 PUSH4 0xA22CB465 EQ PUSH2 0x59A JUMPI DUP1 PUSH4 0xA3D6F9A9 EQ PUSH2 0x5B6 JUMPI DUP1 PUSH4 0xA966A0DF EQ PUSH2 0x5E6 JUMPI DUP1 PUSH4 0xAC76E521 EQ PUSH2 0x604 JUMPI PUSH2 0x22F JUMP JUMPDEST DUP1 PUSH4 0x95B7DDE0 EQ PUSH2 0x508 JUMPI DUP1 PUSH4 0x992642E5 EQ PUSH2 0x524 JUMPI DUP1 PUSH4 0x9CEA0787 EQ PUSH2 0x542 JUMPI DUP1 PUSH4 0x9E56F275 EQ PUSH2 0x560 JUMPI PUSH2 0x22F JUMP JUMPDEST DUP1 PUSH4 0x3A14AF65 GT PUSH2 0x1BC JUMPI DUP1 PUSH4 0x4BC9DB85 GT PUSH2 0x180 JUMPI DUP1 PUSH4 0x4BC9DB85 EQ PUSH2 0x43D JUMPI DUP1 PUSH4 0x4E1273F4 EQ PUSH2 0x470 JUMPI DUP1 PUSH4 0x7365E8EC EQ PUSH2 0x4A0 JUMPI DUP1 PUSH4 0x848B295C EQ PUSH2 0x4BC JUMPI DUP1 PUSH4 0x91D14854 EQ PUSH2 0x4D8 JUMPI PUSH2 0x22F JUMP JUMPDEST DUP1 PUSH4 0x3A14AF65 EQ PUSH2 0x395 JUMPI DUP1 PUSH4 0x3B920580 EQ PUSH2 0x3B3 JUMPI DUP1 PUSH4 0x3CDD2C1F EQ PUSH2 0x3CF JUMPI DUP1 PUSH4 0x44879B3B EQ PUSH2 0x3EB JUMPI DUP1 PUSH4 0x4B602673 EQ PUSH2 0x407 JUMPI PUSH2 0x22F JUMP JUMPDEST DUP1 PUSH4 0x237F1509 GT PUSH2 0x203 JUMPI DUP1 PUSH4 0x237F1509 EQ PUSH2 0x2E1 JUMPI DUP1 PUSH4 0x248A9CA3 EQ PUSH2 0x311 JUMPI DUP1 PUSH4 0x2EB2C2D6 EQ PUSH2 0x341 JUMPI DUP1 PUSH4 0x2F2FF15D EQ PUSH2 0x35D JUMPI DUP1 PUSH4 0x36568ABE EQ PUSH2 0x379 JUMPI PUSH2 0x22F JUMP JUMPDEST DUP1 PUSH3 0xFDD58E EQ PUSH2 0x233 JUMPI DUP1 PUSH4 0x1FFC9A7 EQ PUSH2 0x263 JUMPI DUP1 PUSH4 0xE89341C EQ PUSH2 0x293 JUMPI DUP1 PUSH4 0x18B6DCBC EQ PUSH2 0x2C3 JUMPI JUMPDEST PUSH0 DUP1 REVERT JUMPDEST PUSH2 0x24D PUSH1 0x4 DUP1 CALLDATASIZE SUB DUP2 ADD SWAP1 PUSH2 0x248 SWAP2 SWAP1 PUSH2 0x3CBE JUMP JUMPDEST PUSH2 0x7B2 JUMP JUMPDEST PUSH1 0x40 MLOAD PUSH2 0x25A SWAP2 SWAP1 PUSH2 0x3D0B JUMP JUMPDEST PUSH1 0x40 MLOAD DUP1 SWAP2 SUB SWAP1 RETURN JUMPDEST PUSH2 0x27D PUSH1 0x4 DUP1 CALLDATASIZE SUB DUP2 ADD SWAP1 PUSH2 0x278 SWAP2 SWAP1 PUSH2 0x3D79 JUMP JUMPDEST PUSH2 0x807 JUMP JUMPDEST PUSH1 0x40 MLOAD PUSH2 0x28A SWAP2 SWAP1 PUSH2 0x3DBE JUMP JUMPDEST PUSH1 0x40 MLOAD DUP1 SWAP2 SUB SWAP1 RETURN JUMPDEST PUSH2 0x2AD PUSH1 0x4 DUP1 CALLDATASIZE SUB DUP2 ADD SWAP1 PUSH2 0x2A8 SWAP2 SWAP1 PUSH2 0x3DD7 JUMP JUMPDEST PUSH2 0x818 JUMP JUMPDEST PUSH1 0x40 MLOAD PUSH2 0x2BA SWAP2 SWAP1 PUSH2 0x3E8C JUMP JUMPDEST PUSH1 0x40 MLOAD DUP1 SWAP2 SUB SWAP1 RETURN JUMPDEST PUSH2 0x2CB PUSH2 0x8AA JUMP JUMPDEST PUSH1 0x40 MLOAD PUSH2 0x2D8 SWAP2 SWAP1 PUSH2 0x3D0B JUMP JUMPDEST PUSH1 0x40 MLOAD DUP1 SWAP2 SUB SWAP1 RETURN JUMPDEST PUSH2 0x2FB PUSH1 0x4 DUP1 CALLDATASIZE SUB DUP2 ADD SWAP1 PUSH2 0x2F6 SWAP2 SWAP1 PUSH2 0x3FD8 JUMP JUMPDEST PUSH2 0x8B0 JUMP JUMPDEST PUSH1 0x40 MLOAD PUSH2 0x308 SWAP2 SWAP1 PUSH2 0x3D0B JUMP JUMPDEST PUSH1 0x40 MLOAD DUP1 SWAP2 SUB SWAP1 RETURN JUMPDEST PUSH2 0x32B PUSH1 0x4 DUP1 CALLDATASIZE SUB DUP2 ADD SWAP1 PUSH2 0x326 SWAP2 SWAP1 PUSH2 0x40A7 JUMP JUMPDEST PUSH2 0xA4A JUMP JUMPDEST PUSH1 0x40 MLOAD PUSH2 0x338 SWAP2 SWAP1 PUSH2 0x40E1 JUMP JUMPDEST PUSH1 0x40 MLOAD DUP1 SWAP2 SUB SWAP1 RETURN JUMPDEST PUSH2 0x35B PUSH1 0x4 DUP1 CALLDATASIZE SUB DUP2 ADD SWAP1 PUSH2 0x356 SWAP2 SWAP1 PUSH2 0x425C JUMP JUMPDEST PUSH2 0xA67 JUMP JUMPDEST STOP JUMPDEST PUSH2 0x377 PUSH1 0x4 DUP1 CALLDATASIZE SUB DUP2 ADD SWAP1 PUSH2 0x372 SWAP2 SWAP1 PUSH2 0x4327 JUMP JUMPDEST PUSH2 0xB0E JUMP JUMPDEST STOP JUMPDEST PUSH2 0x393 PUSH1 0x4 DUP1 CALLDATASIZE SUB DUP2 ADD SWAP1 PUSH2 0x38E SWAP2 SWAP1 PUSH2 0x4327 JUMP JUMPDEST PUSH2 0xB30 JUMP JUMPDEST STOP JUMPDEST PUSH2 0x39D PUSH2 0xBAB JUMP JUMPDEST PUSH1 0x40 MLOAD PUSH2 0x3AA SWAP2 SWAP1 PUSH2 0x3D0B JUMP JUMPDEST PUSH1 0x40 MLOAD DUP1 SWAP2 SUB SWAP1 RETURN JUMPDEST PUSH2 0x3CD PUSH1 0x4 DUP1 CALLDATASIZE SUB DUP2 ADD SWAP1 PUSH2 0x3C8 SWAP2 SWAP1 PUSH2 0x3DD7 JUMP JUMPDEST PUSH2 0xBB1 JUMP JUMPDEST STOP JUMPDEST PUSH2 0x3E9 PUSH1 0x4 DUP1 CALLDATASIZE SUB DUP2 ADD SWAP1 PUSH2 0x3E4 SWAP2 SWAP1 PUSH2 0x3DD7 JUMP JUMPDEST PUSH2 0xCAA JUMP JUMPDEST STOP JUMPDEST PUSH2 0x405 PUSH1 0x4 DUP1 CALLDATASIZE SUB DUP2 ADD SWAP1 PUSH2 0x400 SWAP2 SWAP1 PUSH2 0x4365 JUMP JUMPDEST PUSH2 0xDA4 JUMP JUMPDEST STOP JUMPDEST PUSH2 0x421 PUSH1 0x4 DUP1 CALLDATASIZE SUB DUP2 ADD SWAP1 PUSH2 0x41C SWAP2 SWAP1 PUSH2 0x3DD7 JUMP JUMPDEST PUSH2 0xE2B JUMP JUMPDEST PUSH1 0x40 MLOAD PUSH2 0x434 SWAP8 SWAP7 SWAP6 SWAP5 SWAP4 SWAP3 SWAP2 SWAP1 PUSH2 0x439F JUMP JUMPDEST PUSH1 0x40 MLOAD DUP1 SWAP2 SUB SWAP1 RETURN JUMPDEST PUSH2 0x457 PUSH1 0x4 DUP1 CALLDATASIZE SUB DUP2 ADD SWAP1 PUSH2 0x452 SWAP2 SWAP1 PUSH2 0x441A JUMP JUMPDEST PUSH2 0xF94 JUMP JUMPDEST PUSH1 0x40 MLOAD PUSH2 0x467 SWAP5 SWAP4 SWAP3 SWAP2 SWAP1 PUSH2 0x44CB JUMP JUMPDEST PUSH1 0x40 MLOAD DUP1 SWAP2 SUB SWAP1 RETURN JUMPDEST PUSH2 0x48A PUSH1 0x4 DUP1 CALLDATASIZE SUB DUP2 ADD SWAP1 PUSH2 0x485 SWAP2 SWAP1 PUSH2 0x45CE JUMP JUMPDEST PUSH2 0x1005 JUMP JUMPDEST PUSH1 0x40 MLOAD PUSH2 0x497 SWAP2 SWAP1 PUSH2 0x46FB JUMP JUMPDEST PUSH1 0x40 MLOAD DUP1 SWAP2 SUB SWAP1 RETURN JUMPDEST PUSH2 0x4BA PUSH1 0x4 DUP1 CALLDATASIZE SUB DUP2 ADD SWAP1 PUSH2 0x4B5 SWAP2 SWAP1 PUSH2 0x441A JUMP JUMPDEST PUSH2 0x1112 JUMP JUMPDEST STOP JUMPDEST PUSH2 0x4D6 PUSH1 0x4 DUP1 CALLDATASIZE SUB DUP2 ADD SWAP1 PUSH2 0x4D1 SWAP2 SWAP1 PUSH2 0x3DD7 JUMP JUMPDEST PUSH2 0x151E JUMP JUMPDEST STOP JUMPDEST PUSH2 0x4F2 PUSH1 0x4 DUP1 CALLDATASIZE SUB DUP2 ADD SWAP1 PUSH2 0x4ED SWAP2 SWAP1 PUSH2 0x4327 JUMP JUMPDEST PUSH2 0x1628 JUMP JUMPDEST PUSH1 0x40 MLOAD PUSH2 0x4FF SWAP2 SWAP1 PUSH2 0x3DBE JUMP JUMPDEST PUSH1 0x40 MLOAD DUP1 SWAP2 SUB SWAP1 RETURN JUMPDEST PUSH2 0x522 PUSH1 0x4 DUP1 CALLDATASIZE SUB DUP2 ADD SWAP1 PUSH2 0x51D SWAP2 SWAP1 PUSH2 0x3DD7 JUMP JUMPDEST PUSH2 0x168C JUMP JUMPDEST STOP JUMPDEST PUSH2 0x52C PUSH2 0x1806 JUMP JUMPDEST PUSH1 0x40 MLOAD PUSH2 0x539 SWAP2 SWAP1 PUSH2 0x4776 JUMP JUMPDEST PUSH1 0x40 MLOAD DUP1 SWAP2 SUB SWAP1 RETURN JUMPDEST PUSH2 0x54A PUSH2 0x182B JUMP JUMPDEST PUSH1 0x40 MLOAD PUSH2 0x557 SWAP2 SWAP1 PUSH2 0x40E1 JUMP JUMPDEST PUSH1 0x40 MLOAD DUP1 SWAP2 SUB SWAP1 RETURN JUMPDEST PUSH2 0x57A PUSH1 0x4 DUP1 CALLDATASIZE SUB DUP2 ADD SWAP1 PUSH2 0x575 SWAP2 SWAP1 PUSH2 0x47B9 JUMP JUMPDEST PUSH2 0x184F JUMP JUMPDEST STOP JUMPDEST PUSH2 0x584 PUSH2 0x1D35 JUMP JUMPDEST PUSH1 0x40 MLOAD PUSH2 0x591 SWAP2 SWAP1 PUSH2 0x40E1 JUMP JUMPDEST PUSH1 0x40 MLOAD DUP1 SWAP2 SUB SWAP1 RETURN JUMPDEST PUSH2 0x5B4 PUSH1 0x4 DUP1 CALLDATASIZE SUB DUP2 ADD SWAP1 PUSH2 0x5AF SWAP2 SWAP1 PUSH2 0x4809 JUMP JUMPDEST PUSH2 0x1D3B JUMP JUMPDEST STOP JUMPDEST PUSH2 0x5D0 PUSH1 0x4 DUP1 CALLDATASIZE SUB DUP2 ADD SWAP1 PUSH2 0x5CB SWAP2 SWAP1 PUSH2 0x4365 JUMP JUMPDEST PUSH2 0x1D51 JUMP JUMPDEST PUSH1 0x40 MLOAD PUSH2 0x5DD SWAP2 SWAP1 PUSH2 0x4899 JUMP JUMPDEST PUSH1 0x40 MLOAD DUP1 SWAP2 SUB SWAP1 RETURN JUMPDEST PUSH2 0x5EE PUSH2 0x1DEC JUMP JUMPDEST PUSH1 0x40 MLOAD PUSH2 0x5FB SWAP2 SWAP1 PUSH2 0x40E1 JUMP JUMPDEST PUSH1 0x40 MLOAD DUP1 SWAP2 SUB SWAP1 RETURN JUMPDEST PUSH2 0x61E PUSH1 0x4 DUP1 CALLDATASIZE SUB DUP2 ADD SWAP1 PUSH2 0x619 SWAP2 SWAP1 PUSH2 0x4365 JUMP JUMPDEST PUSH2 0x1E10 JUMP JUMPDEST PUSH1 0x40 MLOAD PUSH2 0x62B SWAP2 SWAP1 PUSH2 0x3D0B JUMP JUMPDEST PUSH1 0x40 MLOAD DUP1 SWAP2 SUB SWAP1 RETURN JUMPDEST PUSH2 0x64E PUSH1 0x4 DUP1 CALLDATASIZE SUB DUP2 ADD SWAP1 PUSH2 0x649 SWAP2 SWAP1 PUSH2 0x47B9 JUMP JUMPDEST PUSH2 0x1E25 JUMP JUMPDEST STOP JUMPDEST PUSH2 0x66A PUSH1 0x4 DUP1 CALLDATASIZE SUB DUP2 ADD SWAP1 PUSH2 0x665 SWAP2 SWAP1 PUSH2 0x425C JUMP JUMPDEST PUSH2 0x2222 JUMP JUMPDEST PUSH1 0x40 MLOAD PUSH2 0x677 SWAP2 SWAP1 PUSH2 0x48C8 JUMP JUMPDEST PUSH1 0x40 MLOAD DUP1 SWAP2 SUB SWAP1 RETURN JUMPDEST PUSH2 0x69A PUSH1 0x4 DUP1 CALLDATASIZE SUB DUP2 ADD SWAP1 PUSH2 0x695 SWAP2 SWAP1 PUSH2 0x4327 JUMP JUMPDEST PUSH2 0x2236 JUMP JUMPDEST STOP JUMPDEST PUSH2 0x6B6 PUSH1 0x4 DUP1 CALLDATASIZE SUB DUP2 ADD SWAP1 PUSH2 0x6B1 SWAP2 SWAP1 PUSH2 0x441A JUMP JUMPDEST PUSH2 0x2258 JUMP JUMPDEST PUSH1 0x40 MLOAD PUSH2 0x6C3 SWAP2 SWAP1 PUSH2 0x4952 JUMP JUMPDEST PUSH1 0x40 MLOAD DUP1 SWAP2 SUB SWAP1 RETURN JUMPDEST PUSH2 0x6E6 PUSH1 0x4 DUP1 CALLDATASIZE SUB DUP2 ADD SWAP1 PUSH2 0x6E1 SWAP2 SWAP1 PUSH2 0x3DD7 JUMP JUMPDEST PUSH2 0x239A JUMP JUMPDEST STOP JUMPDEST PUSH2 0x6F0 PUSH2 0x270D JUMP JUMPDEST PUSH1 0x40 MLOAD PUSH2 0x6FD SWAP2 SWAP1 PUSH2 0x3D0B JUMP JUMPDEST PUSH1 0x40 MLOAD DUP1 SWAP2 SUB SWAP1 RETURN JUMPDEST PUSH2 0x720 PUSH1 0x4 DUP1 CALLDATASIZE SUB DUP2 ADD SWAP1 PUSH2 0x71B SWAP2 SWAP1 PUSH2 0x496B JUMP JUMPDEST PUSH2 0x2711 JUMP JUMPDEST PUSH1 0x40 MLOAD PUSH2 0x72D SWAP2 SWAP1 PUSH2 0x3DBE JUMP JUMPDEST PUSH1 0x40 MLOAD DUP1 SWAP2 SUB SWAP1 RETURN JUMPDEST PUSH2 0x750 PUSH1 0x4 DUP1 CALLDATASIZE SUB DUP2 ADD SWAP1 PUSH2 0x74B SWAP2 SWAP1 PUSH2 0x3DD7 JUMP JUMPDEST PUSH2 0x279F JUMP JUMPDEST PUSH1 0x40 MLOAD PUSH2 0x75D SWAP2 SWAP1 PUSH2 0x4A91 JUMP JUMPDEST PUSH1 0x40 MLOAD DUP1 SWAP2 SUB SWAP1 RETURN JUMPDEST PUSH2 0x780 PUSH1 0x4 DUP1 CALLDATASIZE SUB DUP2 ADD SWAP1 PUSH2 0x77B SWAP2 SWAP1 PUSH2 0x4AB1 JUMP JUMPDEST PUSH2 0x2966 JUMP JUMPDEST PUSH1 0x40 MLOAD PUSH2 0x78D SWAP2 SWAP1 PUSH2 0x48C8 JUMP JUMPDEST PUSH1 0x40 MLOAD DUP1 SWAP2 SUB SWAP1 RETURN JUMPDEST PUSH2 0x7B0 PUSH1 0x4 DUP1 CALLDATASIZE SUB DUP2 ADD SWAP1 PUSH2 0x7AB SWAP2 SWAP1 PUSH2 0x4AB1 JUMP JUMPDEST PUSH2 0x297A JUMP JUMPDEST STOP JUMPDEST PUSH0 DUP1 PUSH0 DUP4 DUP2 MSTORE PUSH1 0x20 ADD SWAP1 DUP2 MSTORE PUSH1 0x20 ADD PUSH0 KECCAK256 PUSH0 DUP5 PUSH20 0xFFFFFFFFFFFFFFFFFFFFFFFFFFFFFFFFFFFFFFFF AND PUSH20 0xFFFFFFFFFFFFFFFFFFFFFFFFFFFFFFFFFFFFFFFF AND DUP2 MSTORE PUSH1 0x20 ADD SWAP1 DUP2 MSTORE PUSH1 0x20 ADD PUSH0 KECCAK256 SLOAD SWAP1 POP SWAP3 SWAP2 POP POP JUMP JUMPDEST PUSH0 PUSH2 0x811 DUP3 PUSH2 0x2A21 JUMP JUMPDEST SWAP1 POP SWAP2 SWAP1 POP JUMP JUMPDEST PUSH1 0x60 PUSH1 0x2 DUP1 SLOAD PUSH2 0x827 SWAP1 PUSH2 0x4B71 JUMP JUMPDEST DUP1 PUSH1 0x1F ADD PUSH1 0x20 DUP1 SWAP2 DIV MUL PUSH1 0x20 ADD PUSH1 0x40 MLOAD SWAP1 DUP2 ADD PUSH1 0x40 MSTORE DUP1 SWAP3 SWAP2 SWAP1 DUP2 DUP2 MSTORE PUSH1 0x20 ADD DUP3 DUP1 SLOAD PUSH2 0x853 SWAP1 PUSH2 0x4B71 JUMP JUMPDEST DUP1 ISZERO PUSH2 0x89E JUMPI DUP1 PUSH1 0x1F LT PUSH2 0x875 JUMPI PUSH2 0x100 DUP1 DUP4 SLOAD DIV MUL DUP4 MSTORE SWAP2 PUSH1 0x20 ADD SWAP2 PUSH2 0x89E JUMP JUMPDEST DUP3 ADD SWAP2 SWAP1 PUSH0 MSTORE PUSH1 0x20 PUSH0 KECCAK256 SWAP1 JUMPDEST DUP2 SLOAD DUP2 MSTORE SWAP1 PUSH1 0x1 ADD SWAP1 PUSH1 0x20 ADD DUP1 DUP4 GT PUSH2 0x881 JUMPI DUP3 SWAP1 SUB PUSH1 0x1F AND DUP3 ADD SWAP2 JUMPDEST POP POP POP POP POP SWAP1 POP SWAP2 SWAP1 POP JUMP JUMPDEST PUSH1 0x5 SLOAD DUP2 JUMP JUMPDEST PUSH0 PUSH32 0x877A78DC988C0EC5F58453B44888A55EB39755C3D5ED8D8EA990912AA3EF29C6 PUSH2 0x8DB DUP2 PUSH2 0x2A9A JUMP JUMPDEST PUSH1 0x5 PUSH0 DUP2 SLOAD DUP1 SWAP3 SWAP2 SWAP1 PUSH2 0x8ED SWAP1 PUSH2 0x4BCE JUMP JUMPDEST SWAP2 SWAP1 POP SSTORE POP PUSH0 PUSH1 0x5 SLOAD SWAP1 POP PUSH1 0x40 MLOAD DUP1 PUSH1 0xE0 ADD PUSH1 0x40 MSTORE DUP1 DUP3 DUP2 MSTORE PUSH1 0x20 ADD DUP9 DUP2 MSTORE PUSH1 0x20 ADD DUP8 DUP2 MSTORE PUSH1 0x20 ADD DUP7 DUP2 MSTORE PUSH1 0x20 ADD PUSH0 DUP2 MSTORE PUSH1 0x20 ADD DUP6 DUP2 MSTORE PUSH1 0x20 ADD CALLER PUSH20 0xFFFFFFFFFFFFFFFFFFFFFFFFFFFFFFFFFFFFFFFF AND DUP2 MSTORE POP PUSH1 0x8 PUSH0 DUP4 DUP2 MSTORE PUSH1 0x20 ADD SWAP1 DUP2 MSTORE PUSH1 0x20 ADD PUSH0 KECCAK256 PUSH0 DUP3 ADD MLOAD DUP2 PUSH0 ADD SSTORE PUSH1 0x20 DUP3 ADD MLOAD DUP2 PUSH1 0x1 ADD SWAP1 DUP2 PUSH2 0x96F SWAP2 SWAP1 PUSH2 0x4DA9 JUMP JUMPDEST POP PUSH1 0x40 DUP3 ADD MLOAD DUP2 PUSH1 0x2 ADD SWAP1 DUP2 PUSH2 0x985 SWAP2 SWAP1 PUSH2 0x4DA9 JUMP JUMPDEST POP PUSH1 0x60 DUP3 ADD MLOAD DUP2 PUSH1 0x3 ADD SSTORE PUSH1 0x80 DUP3 ADD MLOAD DUP2 PUSH1 0x4 ADD SSTORE PUSH1 0xA0 DUP3 ADD MLOAD DUP2 PUSH1 0x5 ADD SSTORE PUSH1 0xC0 DUP3 ADD MLOAD DUP2 PUSH1 0x6 ADD PUSH0 PUSH2 0x100 EXP DUP2 SLOAD DUP2 PUSH20 0xFFFFFFFFFFFFFFFFFFFFFFFFFFFFFFFFFFFFFFFF MUL NOT AND SWAP1 DUP4 PUSH20 0xFFFFFFFFFFFFFFFFFFFFFFFFFFFFFFFFFFFFFFFF AND MUL OR SWAP1 SSTORE POP SWAP1 POP POP CALLER PUSH20 0xFFFFFFFFFFFFFFFFFFFFFFFFFFFFFFFFFFFFFFFF AND DUP2 PUSH31 0xF3538CB5ABE2E9BC54F73939E4D165FCE3752D27FE21A5E88B2A9F6DA20C63 DUP7 DUP9 PUSH1 0x40 MLOAD PUSH2 0xA35 SWAP3 SWAP2 SWAP1 PUSH2 0x4E78 JUMP JUMPDEST PUSH1 0x40 MLOAD DUP1 SWAP2 SUB SWAP1 LOG3 DUP1 SWAP3 POP POP POP SWAP5 SWAP4 POP POP POP POP JUMP JUMPDEST PUSH0 PUSH1 0x3 PUSH0 DUP4 DUP2 MSTORE PUSH1 0x20 ADD SWAP1 DUP2 MSTORE PUSH1 0x20 ADD PUSH0 KECCAK256 PUSH1 0x1 ADD SLOAD SWAP1 POP SWAP2 SWAP1 POP JUMP JUMPDEST PUSH0 PUSH2 0xA70 PUSH2 0x2AAE JUMP JUMPDEST SWAP1 POP DUP1 PUSH20 0xFFFFFFFFFFFFFFFFFFFFFFFFFFFFFFFFFFFFFFFF AND DUP7 PUSH20 0xFFFFFFFFFFFFFFFFFFFFFFFFFFFFFFFFFFFFFFFF AND EQ ISZERO DUP1 ISZERO PUSH2 0xAB5 JUMPI POP PUSH2 0xAB3 DUP7 DUP3 PUSH2 0x2711 JUMP JUMPDEST ISZERO JUMPDEST ISZERO PUSH2 0xAF9 JUMPI DUP1 DUP7 PUSH1 0x40 MLOAD PUSH32 0xE237D92200000000000000000000000000000000000000000000000000000000 DUP2 MSTORE PUSH1 0x4 ADD PUSH2 0xAF0 SWAP3 SWAP2 SWAP1 PUSH2 0x4E9F JUMP JUMPDEST PUSH1 0x40 MLOAD DUP1 SWAP2 SUB SWAP1 REVERT JUMPDEST PUSH2 0xB06 DUP7 DUP7 DUP7 DUP7 DUP7 PUSH2 0x2AB5 JUMP JUMPDEST POP POP POP POP POP POP JUMP JUMPDEST PUSH2 0xB17 DUP3 PUSH2 0xA4A JUMP JUMPDEST PUSH2 0xB20 DUP2 PUSH2 0x2A9A JUMP JUMPDEST PUSH2 0xB2A DUP4 DUP4 PUSH2 0x2BA9 JUMP JUMPDEST POP POP POP POP JUMP JUMPDEST PUSH2 0xB38 PUSH2 0x2AAE JUMP JUMPDEST PUSH20 0xFFFFFFFFFFFFFFFFFFFFFFFFFFFFFFFFFFFFFFFF AND DUP2 PUSH20 0xFFFFFFFFFFFFFFFFFFFFFFFFFFFFFFFFFFFFFFFF AND EQ PUSH2 0xB9C JUMPI PUSH1 0x40 MLOAD PUSH32 0x6697B23200000000000000000000000000000000000000000000000000000000 DUP2 MSTORE PUSH1 0x4 ADD PUSH1 0x40 MLOAD DUP1 SWAP2 SUB SWAP1 REVERT JUMPDEST PUSH2 0xBA6 DUP3 DUP3 PUSH2 0x2C93 JUMP JUMPDEST POP POP POP JUMP JUMPDEST PUSH2 0x258 DUP2 JUMP JUMPDEST PUSH2 0xBB9 PUSH2 0x2D7D JUMP JUMPDEST PUSH2 0xBC4 CALLER PUSH0 DUP4 PUSH2 0x2DCC JUMP JUMPDEST PUSH1 0x6 PUSH0 SWAP1 SLOAD SWAP1 PUSH2 0x100 EXP SWAP1 DIV PUSH20 0xFFFFFFFFFFFFFFFFFFFFFFFFFFFFFFFFFFFFFFFF AND PUSH20 0xFFFFFFFFFFFFFFFFFFFFFFFFFFFFFFFFFFFFFFFF AND PUSH4 0xA9059CBB CALLER DUP4 PUSH1 0x40 MLOAD DUP4 PUSH4 0xFFFFFFFF AND PUSH1 0xE0 SHL DUP2 MSTORE PUSH1 0x4 ADD PUSH2 0xC20 SWAP3 SWAP2 SWAP1 PUSH2 0x4EC6 JUMP JUMPDEST PUSH1 0x20 PUSH1 0x40 MLOAD DUP1 DUP4 SUB DUP2 PUSH0 DUP8 GAS CALL ISZERO DUP1 ISZERO PUSH2 0xC3C JUMPI RETURNDATASIZE PUSH0 DUP1 RETURNDATACOPY RETURNDATASIZE PUSH0 REVERT JUMPDEST POP POP POP POP PUSH1 0x40 MLOAD RETURNDATASIZE PUSH1 0x1F NOT PUSH1 0x1F DUP3 ADD AND DUP3 ADD DUP1 PUSH1 0x40 MSTORE POP DUP2 ADD SWAP1 PUSH2 0xC60 SWAP2 SWAP1 PUSH2 0x4F01 JUMP JUMPDEST PUSH2 0xC9F JUMPI PUSH1 0x40 MLOAD PUSH32 0x8C379A000000000000000000000000000000000000000000000000000000000 DUP2 MSTORE PUSH1 0x4 ADD PUSH2 0xC96 SWAP1 PUSH2 0x4F76 JUMP JUMPDEST PUSH1 0x40 MLOAD DUP1 SWAP2 SUB SWAP1 REVERT JUMPDEST PUSH2 0xCA7 PUSH2 0x2E6E JUMP JUMPDEST POP JUMP JUMPDEST PUSH2 0xCB2 PUSH2 0x2D7D JUMP JUMPDEST PUSH32 0x877A78DC988C0EC5F58453B44888A55EB39755C3D5ED8D8EA990912AA3EF29C6 PUSH2 0xCDC DUP2 PUSH2 0x2A9A JUMP JUMPDEST PUSH2 0xCF7 CALLER ADDRESS PUSH0 DUP6 PUSH1 0x40 MLOAD DUP1 PUSH1 0x20 ADD PUSH1 0x40 MSTORE DUP1 PUSH0 DUP2 MSTORE POP PUSH2 0x297A JUMP JUMPDEST DUP2 PUSH1 0xA PUSH0 CALLER PUSH20 0xFFFFFFFFFFFFFFFFFFFFFFFFFFFFFFFFFFFFFFFF AND PUSH20 0xFFFFFFFFFFFFFFFFFFFFFFFFFFFFFFFFFFFFFFFF AND DUP2 MSTORE PUSH1 0x20 ADD SWAP1 DUP2 MSTORE PUSH1 0x20 ADD PUSH0 KECCAK256 PUSH0 DUP3 DUP3 SLOAD PUSH2 0xD43 SWAP2 SWAP1 PUSH2 0x4F94 JUMP JUMPDEST SWAP3 POP POP DUP2 SWAP1 SSTORE POP CALLER PUSH20 0xFFFFFFFFFFFFFFFFFFFFFFFFFFFFFFFFFFFFFFFF AND PUSH32 0xEB3CBAAC08F9C4D8299747BA33F496B63ED34797E25A84D343790D9F901947A DUP4 PUSH1 0x40 MLOAD PUSH2 0xD90 SWAP2 SWAP1 PUSH2 0x3D0B JUMP JUMPDEST PUSH1 0x40 MLOAD DUP1 SWAP2 SUB SWAP1 LOG2 POP PUSH2 0xDA1 PUSH2 0x2E6E JUMP JUMPDEST POP JUMP JUMPDEST PUSH0 DUP1 SHL PUSH2 0xDB0 DUP2 PUSH2 0x2A9A JUMP JUMPDEST DUP2 PUSH1 0x6 PUSH0 PUSH2 0x100 EXP DUP2 SLOAD DUP2 PUSH20 0xFFFFFFFFFFFFFFFFFFFFFFFFFFFFFFFFFFFFFFFF MUL NOT AND SWAP1 DUP4 PUSH20 0xFFFFFFFFFFFFFFFFFFFFFFFFFFFFFFFFFFFFFFFF AND MUL OR SWAP1 SSTORE POP PUSH32 0x8B3E443D01C14C05684786A0273FDB48381417285BD830B7E71354D3CE601666 DUP3 PUSH1 0x40 MLOAD PUSH2 0xE1F SWAP2 SWAP1 PUSH2 0x4FC7 JUMP JUMPDEST PUSH1 0x40 MLOAD DUP1 SWAP2 SUB SWAP1 LOG1 POP POP JUMP JUMPDEST PUSH1 0x8 PUSH1 0x20 MSTORE DUP1 PUSH0 MSTORE PUSH1 0x40 PUSH0 KECCAK256 PUSH0 SWAP2 POP SWAP1 POP DUP1 PUSH0 ADD SLOAD SWAP1 DUP1 PUSH1 0x1 ADD DUP1 SLOAD PUSH2 0xE50 SWAP1 PUSH2 0x4B71 JUMP JUMPDEST DUP1 PUSH1 0x1F ADD PUSH1 0x20 DUP1 SWAP2 DIV MUL PUSH1 0x20 ADD PUSH1 0x40 MLOAD SWAP1 DUP2 ADD PUSH1 0x40 MSTORE DUP1 SWAP3 SWAP2 SWAP1 DUP2 DUP2 MSTORE PUSH1 0x20 ADD DUP3 DUP1 SLOAD PUSH2 0xE7C SWAP1 PUSH2 0x4B71 JUMP JUMPDEST DUP1 ISZERO PUSH2 0xEC7 JUMPI DUP1 PUSH1 0x1F LT PUSH2 0xE9E JUMPI PUSH2 0x100 DUP1 DUP4 SLOAD DIV MUL DUP4 MSTORE SWAP2 PUSH1 0x20 ADD SWAP2 PUSH2 0xEC7 JUMP JUMPDEST DUP3 ADD SWAP2 SWAP1 PUSH0 MSTORE PUSH1 0x20 PUSH0 KECCAK256 SWAP1 JUMPDEST DUP2 SLOAD DUP2 MSTORE SWAP1 PUSH1 0x1 ADD SWAP1 PUSH1 0x20 ADD DUP1 DUP4 GT PUSH2 0xEAA JUMPI DUP3 SWAP1 SUB PUSH1 0x1F AND DUP3 ADD SWAP2 JUMPDEST POP POP POP POP POP SWAP1 DUP1 PUSH1 0x2 ADD DUP1 SLOAD PUSH2 0xEDC SWAP1 PUSH2 0x4B71 JUMP JUMPDEST DUP1 PUSH1 0x1F ADD PUSH1 0x20 DUP1 SWAP2 DIV MUL PUSH1 0x20 ADD PUSH1 0x40 MLOAD SWAP1 DUP2 ADD PUSH1 0x40 MSTORE DUP1 SWAP3 SWAP2 SWAP1 DUP2 DUP2 MSTORE PUSH1 0x20 ADD DUP3 DUP1 SLOAD PUSH2 0xF08 SWAP1 PUSH2 0x4B71 JUMP JUMPDEST DUP1 ISZERO PUSH2 0xF53 JUMPI DUP1 PUSH1 0x1F LT PUSH2 0xF2A JUMPI PUSH2 0x100 DUP1 DUP4 SLOAD DIV MUL DUP4 MSTORE SWAP2 PUSH1 0x20 ADD SWAP2 PUSH2 0xF53 JUMP JUMPDEST DUP3 ADD SWAP2 SWAP1 PUSH0 MSTORE PUSH1 0x20 PUSH0 KECCAK256 SWAP1 JUMPDEST DUP2 SLOAD DUP2 MSTORE SWAP1 PUSH1 0x1 ADD SWAP1 PUSH1 0x20 ADD DUP1 DUP4 GT PUSH2 0xF36 JUMPI DUP3 SWAP1 SUB PUSH1 0x1F AND DUP3 ADD SWAP2 JUMPDEST POP POP POP POP POP SWAP1 DUP1 PUSH1 0x3 ADD SLOAD SWAP1 DUP1 PUSH1 0x4 ADD SLOAD SWAP1 DUP1 PUSH1 0x5 ADD SLOAD SWAP1 DUP1 PUSH1 0x6 ADD PUSH0 SWAP1 SLOAD SWAP1 PUSH2 0x100 EXP SWAP1 DIV PUSH20 0xFFFFFFFFFFFFFFFFFFFFFFFFFFFFFFFFFFFFFFFF AND SWAP1 POP DUP8 JUMP JUMPDEST PUSH1 0x9 PUSH1 0x20 MSTORE DUP2 PUSH0 MSTORE PUSH1 0x40 PUSH0 KECCAK256 DUP2 DUP2 SLOAD DUP2 LT PUSH2 0xFAD JUMPI PUSH0 DUP1 REVERT JUMPDEST SWAP1 PUSH0 MSTORE PUSH1 0x20 PUSH0 KECCAK256 SWAP1 PUSH1 0x3 MUL ADD PUSH0 SWAP2 POP SWAP2 POP POP DUP1 PUSH0 ADD PUSH0 SWAP1 SLOAD SWAP1 PUSH2 0x100 EXP SWAP1 DIV PUSH20 0xFFFFFFFFFFFFFFFFFFFFFFFFFFFFFFFFFFFFFFFF AND SWAP1 DUP1 PUSH0 ADD PUSH1 0x14 SWAP1 SLOAD SWAP1 PUSH2 0x100 EXP SWAP1 DIV PUSH1 0xFF AND SWAP1 DUP1 PUSH1 0x1 ADD SLOAD SWAP1 DUP1 PUSH1 0x2 ADD SLOAD SWAP1 POP DUP5 JUMP JUMPDEST PUSH1 0x60 DUP2 MLOAD DUP4 MLOAD EQ PUSH2 0x1051 JUMPI DUP2 MLOAD DUP4 MLOAD PUSH1 0x40 MLOAD PUSH32 0x5B05999100000000000000000000000000000000000000000000000000000000 DUP2 MSTORE PUSH1 0x4 ADD PUSH2 0x1048 SWAP3 SWAP2 SWAP1 PUSH2 0x4E78 JUMP JUMPDEST PUSH1 0x40 MLOAD DUP1 SWAP2 SUB SWAP1 REVERT JUMPDEST PUSH0 DUP4 MLOAD PUSH8 0xFFFFFFFFFFFFFFFF DUP2 GT ISZERO PUSH2 0x106D JUMPI PUSH2 0x106C PUSH2 0x3EB4 JUMP JUMPDEST JUMPDEST PUSH1 0x40 MLOAD SWAP1 DUP1 DUP3 MSTORE DUP1 PUSH1 0x20 MUL PUSH1 0x20 ADD DUP3 ADD PUSH1 0x40 MSTORE DUP1 ISZERO PUSH2 0x109B JUMPI DUP2 PUSH1 0x20 ADD PUSH1 0x20 DUP3 MUL DUP1 CALLDATASIZE DUP4 CALLDATACOPY DUP1 DUP3 ADD SWAP2 POP POP SWAP1 POP JUMPDEST POP SWAP1 POP PUSH0 JUMPDEST DUP5 MLOAD DUP2 LT ISZERO PUSH2 0x1107 JUMPI PUSH2 0x10D7 PUSH2 0x10BF DUP3 DUP8 PUSH2 0x2E78 SWAP1 SWAP2 SWAP1 PUSH4 0xFFFFFFFF AND JUMP JUMPDEST PUSH2 0x10D2 DUP4 DUP8 PUSH2 0x2E8B SWAP1 SWAP2 SWAP1 PUSH4 0xFFFFFFFF AND JUMP JUMPDEST PUSH2 0x7B2 JUMP JUMPDEST DUP3 DUP3 DUP2 MLOAD DUP2 LT PUSH2 0x10EA JUMPI PUSH2 0x10E9 PUSH2 0x4FE0 JUMP JUMPDEST JUMPDEST PUSH1 0x20 MUL PUSH1 0x20 ADD ADD DUP2 DUP2 MSTORE POP POP DUP1 PUSH2 0x1100 SWAP1 PUSH2 0x4BCE JUMP JUMPDEST SWAP1 POP PUSH2 0x10A0 JUMP JUMPDEST POP DUP1 SWAP2 POP POP SWAP3 SWAP2 POP POP JUMP JUMPDEST PUSH2 0x111A PUSH2 0x2D7D JUMP JUMPDEST PUSH0 PUSH1 0x8 PUSH0 DUP5 DUP2 MSTORE PUSH1 0x20 ADD SWAP1 DUP2 MSTORE PUSH1 0x20 ADD PUSH0 KECCAK256 SWAP1 POP DUP1 PUSH1 0x6 ADD PUSH0 SWAP1 SLOAD SWAP1 PUSH2 0x100 EXP SWAP1 DIV PUSH20 0xFFFFFFFFFFFFFFFFFFFFFFFFFFFFFFFFFFFFFFFF AND PUSH20 0xFFFFFFFFFFFFFFFFFFFFFFFFFFFFFFFFFFFFFFFF AND CALLER PUSH20 0xFFFFFFFFFFFFFFFFFFFFFFFFFFFFFFFFFFFFFFFF AND EQ PUSH2 0x11BF JUMPI PUSH1 0x40 MLOAD PUSH32 0x8C379A000000000000000000000000000000000000000000000000000000000 DUP2 MSTORE PUSH1 0x4 ADD PUSH2 0x11B6 SWAP1 PUSH2 0x507D JUMP JUMPDEST PUSH1 0x40 MLOAD DUP1 SWAP2 SUB SWAP1 REVERT JUMPDEST PUSH1 0x9 PUSH0 DUP5 DUP2 MSTORE PUSH1 0x20 ADD SWAP1 DUP2 MSTORE PUSH1 0x20 ADD PUSH0 KECCAK256 DUP1 SLOAD SWAP1 POP DUP3 LT PUSH2 0x1215 JUMPI PUSH1 0x40 MLOAD PUSH32 0x8C379A000000000000000000000000000000000000000000000000000000000 DUP2 MSTORE PUSH1 0x4 ADD PUSH2 0x120C SWAP1 PUSH2 0x50E5 JUMP JUMPDEST PUSH1 0x40 MLOAD DUP1 SWAP2 SUB SWAP1 REVERT JUMPDEST PUSH0 PUSH1 0x9 PUSH0 DUP6 DUP2 MSTORE PUSH1 0x20 ADD SWAP1 DUP2 MSTORE PUSH1 0x20 ADD PUSH0 KECCAK256 DUP4 DUP2 SLOAD DUP2 LT PUSH2 0x1239 JUMPI PUSH2 0x1238 PUSH2 0x4FE0 JUMP JUMPDEST JUMPDEST SWAP1 PUSH0 MSTORE PUSH1 0x20 PUSH0 KECCAK256 SWAP1 PUSH1 0x3 MUL ADD SWAP1 POP PUSH0 PUSH1 0x3 DUP2 GT ISZERO PUSH2 0x125A JUMPI PUSH2 0x1259 PUSH2 0x4458 JUMP JUMPDEST JUMPDEST DUP2 PUSH0 ADD PUSH1 0x14 SWAP1 SLOAD SWAP1 PUSH2 0x100 EXP SWAP1 DIV PUSH1 0xFF AND PUSH1 0x3 DUP2 GT ISZERO PUSH2 0x127D JUMPI PUSH2 0x127C PUSH2 0x4458 JUMP JUMPDEST JUMPDEST EQ PUSH2 0x12BD JUMPI PUSH1 0x40 MLOAD PUSH32 0x8C379A000000000000000000000000000000000000000000000000000000000 DUP2 MSTORE PUSH1 0x4 ADD PUSH2 0x12B4 SWAP1 PUSH2 0x514D JUMP JUMPDEST PUSH1 0x40 MLOAD DUP1 SWAP2 SUB SWAP1 REVERT JUMPDEST PUSH2 0x258 DUP2 PUSH1 0x2 ADD SLOAD PUSH2 0x12CF SWAP2 SWAP1 PUSH2 0x4F94 JUMP JUMPDEST TIMESTAMP LT ISZERO PUSH2 0x1311 JUMPI PUSH1 0x40 MLOAD PUSH32 0x8C379A000000000000000000000000000000000000000000000000000000000 DUP2 MSTORE PUSH1 0x4 ADD PUSH2 0x1308 SWAP1 PUSH2 0x51B5 JUMP JUMPDEST PUSH1 0x40 MLOAD DUP1 SWAP2 SUB SWAP1 REVERT JUMPDEST PUSH2 0x1352 ADDRESS DUP3 PUSH0 ADD PUSH0 SWAP1 SLOAD SWAP1 PUSH2 0x100 EXP SWAP1 DIV PUSH20 0xFFFFFFFFFFFFFFFFFFFFFFFFFFFFFFFFFFFFFFFF AND PUSH0 DUP6 PUSH1 0x5 ADD SLOAD PUSH1 0x40 MLOAD DUP1 PUSH1 0x20 ADD PUSH1 0x40 MSTORE DUP1 PUSH0 DUP2 MSTORE POP PUSH2 0x2E9E JUMP JUMPDEST DUP2 PUSH1 0x5 ADD SLOAD DUP2 PUSH1 0x1 ADD SLOAD PUSH2 0x1366 SWAP2 SWAP1 PUSH2 0x4F94 JUMP JUMPDEST PUSH1 0xA PUSH0 DUP5 PUSH1 0x6 ADD PUSH0 SWAP1 SLOAD SWAP1 PUSH2 0x100 EXP SWAP1 DIV PUSH20 0xFFFFFFFFFFFFFFFFFFFFFFFFFFFFFFFFFFFFFFFF AND PUSH20 0xFFFFFFFFFFFFFFFFFFFFFFFFFFFFFFFFFFFFFFFF AND PUSH20 0xFFFFFFFFFFFFFFFFFFFFFFFFFFFFFFFFFFFFFFFF AND DUP2 MSTORE PUSH1 0x20 ADD SWAP1 DUP2 MSTORE PUSH1 0x20 ADD PUSH0 KECCAK256 PUSH0 DUP3 DUP3 SLOAD PUSH2 0x13D4 SWAP2 SWAP1 PUSH2 0x4F94 JUMP JUMPDEST SWAP3 POP POP DUP2 SWAP1 SSTORE POP PUSH0 DUP2 PUSH1 0x1 ADD DUP2 SWAP1 SSTORE POP PUSH1 0x2 DUP2 PUSH0 ADD PUSH1 0x14 PUSH2 0x100 EXP DUP2 SLOAD DUP2 PUSH1 0xFF MUL NOT AND SWAP1 DUP4 PUSH1 0x3 DUP2 GT ISZERO PUSH2 0x140B JUMPI PUSH2 0x140A PUSH2 0x4458 JUMP JUMPDEST JUMPDEST MUL OR SWAP1 SSTORE POP DUP1 PUSH0 ADD PUSH0 SWAP1 SLOAD SWAP1 PUSH2 0x100 EXP SWAP1 DIV PUSH20 0xFFFFFFFFFFFFFFFFFFFFFFFFFFFFFFFFFFFFFFFF AND PUSH20 0xFFFFFFFFFFFFFFFFFFFFFFFFFFFFFFFFFFFFFFFF AND DUP3 PUSH1 0x6 ADD PUSH0 SWAP1 SLOAD SWAP1 PUSH2 0x100 EXP SWAP1 DIV PUSH20 0xFFFFFFFFFFFFFFFFFFFFFFFFFFFFFFFFFFFFFFFF AND PUSH20 0xFFFFFFFFFFFFFFFFFFFFFFFFFFFFFFFFFFFFFFFF AND DUP6 PUSH32 0x8A638E11B0C22C045787CDEB797B7660A82A4F82305CA40E86A115AE07B3EE28 DUP7 DUP7 PUSH1 0x5 ADD SLOAD PUSH1 0x40 MLOAD PUSH2 0x14B9 SWAP3 SWAP2 SWAP1 PUSH2 0x4E78 JUMP JUMPDEST PUSH1 0x40 MLOAD DUP1 SWAP2 SUB SWAP1 LOG4 CALLER PUSH20 0xFFFFFFFFFFFFFFFFFFFFFFFFFFFFFFFFFFFFFFFF AND DUP5 PUSH32 0x86F9D82FE70F334564DFB5D0F47619293510546518AF6F46B21209F3CFD6D3E7 DUP6 PUSH1 0x40 MLOAD PUSH2 0x1508 SWAP2 SWAP1 PUSH2 0x3D0B JUMP JUMPDEST PUSH1 0x40 MLOAD DUP1 SWAP2 SUB SWAP1 LOG3 POP POP PUSH2 0x151A PUSH2 0x2E6E JUMP JUMPDEST POP POP JUMP JUMPDEST PUSH2 0x1526 PUSH2 0x2D7D JUMP JUMPDEST PUSH1 0x6 PUSH0 SWAP1 SLOAD SWAP1 PUSH2 0x100 EXP SWAP1 DIV PUSH20 0xFFFFFFFFFFFFFFFFFFFFFFFFFFFFFFFFFFFFFFFF AND PUSH20 0xFFFFFFFFFFFFFFFFFFFFFFFFFFFFFFFFFFFFFFFF AND PUSH4 0x23B872DD CALLER ADDRESS DUP5 PUSH1 0x40 MLOAD DUP5 PUSH4 0xFFFFFFFF AND PUSH1 0xE0 SHL DUP2 MSTORE PUSH1 0x4 ADD PUSH2 0x1584 SWAP4 SWAP3 SWAP2 SWAP1 PUSH2 0x51D3 JUMP JUMPDEST PUSH1 0x20 PUSH1 0x40 MLOAD DUP1 DUP4 SUB DUP2 PUSH0 DUP8 GAS CALL ISZERO DUP1 ISZERO PUSH2 0x15A0 JUMPI RETURNDATASIZE PUSH0 DUP1 RETURNDATACOPY RETURNDATASIZE PUSH0 REVERT JUMPDEST POP POP POP POP PUSH1 0x40 MLOAD RETURNDATASIZE PUSH1 0x1F NOT PUSH1 0x1F DUP3 ADD AND DUP3 ADD DUP1 PUSH1 0x40 MSTORE POP DUP2 ADD SWAP1 PUSH2 0x15C4 SWAP2 SWAP1 PUSH2 0x4F01 JUMP JUMPDEST PUSH2 0x1603 JUMPI PUSH1 0x40 MLOAD PUSH32 0x8C379A000000000000000000000000000000000000000000000000000000000 DUP2 MSTORE PUSH1 0x4 ADD PUSH2 0x15FA SWAP1 PUSH2 0x5252 JUMP JUMPDEST PUSH1 0x40 MLOAD DUP1 SWAP2 SUB SWAP1 REVERT JUMPDEST PUSH2 0x161D CALLER PUSH0 DUP4 PUSH1 0x40 MLOAD DUP1 PUSH1 0x20 ADD PUSH1 0x40 MSTORE DUP1 PUSH0 DUP2 MSTORE POP PUSH2 0x2FA4 JUMP JUMPDEST PUSH2 0x1625 PUSH2 0x2E6E JUMP JUMPDEST POP JUMP JUMPDEST PUSH0 PUSH1 0x3 PUSH0 DUP5 DUP2 MSTORE PUSH1 0x20 ADD SWAP1 DUP2 MSTORE PUSH1 0x20 ADD PUSH0 KECCAK256 PUSH0 ADD PUSH0 DUP4 PUSH20 0xFFFFFFFFFFFFFFFFFFFFFFFFFFFFFFFFFFFFFFFF AND PUSH20 0xFFFFFFFFFFFFFFFFFFFFFFFFFFFFFFFFFFFFFFFF AND DUP2 MSTORE PUSH1 0x20 ADD SWAP1 DUP2 MSTORE PUSH1 0x20 ADD PUSH0 KECCAK256 PUSH0 SWAP1 SLOAD SWAP1 PUSH2 0x100 EXP SWAP1 DIV PUSH1 0xFF AND SWAP1 POP SWAP3 SWAP2 POP POP JUMP JUMPDEST PUSH2 0x1694 PUSH2 0x2D7D JUMP JUMPDEST PUSH32 0x877A78DC988C0EC5F58453B44888A55EB39755C3D5ED8D8EA990912AA3EF29C6 PUSH2 0x16BE DUP2 PUSH2 0x2A9A JUMP JUMPDEST DUP2 PUSH1 0xA PUSH0 CALLER PUSH20 0xFFFFFFFFFFFFFFFFFFFFFFFFFFFFFFFFFFFFFFFF AND PUSH20 0xFFFFFFFFFFFFFFFFFFFFFFFFFFFFFFFFFFFFFFFF AND DUP2 MSTORE PUSH1 0x20 ADD SWAP1 DUP2 MSTORE PUSH1 0x20 ADD PUSH0 KECCAK256 SLOAD LT ISZERO PUSH2 0x173E JUMPI PUSH1 0x40 MLOAD PUSH32 0x8C379A000000000000000000000000000000000000000000000000000000000 DUP2 MSTORE PUSH1 0x4 ADD PUSH2 0x1735 SWAP1 PUSH2 0x52BA JUMP JUMPDEST PUSH1 0x40 MLOAD DUP1 SWAP2 SUB SWAP1 REVERT JUMPDEST DUP2 PUSH1 0xA PUSH0 CALLER PUSH20 0xFFFFFFFFFFFFFFFFFFFFFFFFFFFFFFFFFFFFFFFF AND PUSH20 0xFFFFFFFFFFFFFFFFFFFFFFFFFFFFFFFFFFFFFFFF AND DUP2 MSTORE PUSH1 0x20 ADD SWAP1 DUP2 MSTORE PUSH1 0x20 ADD PUSH0 KECCAK256 PUSH0 DUP3 DUP3 SLOAD PUSH2 0x178A SWAP2 SWAP1 PUSH2 0x52D8 JUMP JUMPDEST SWAP3 POP POP DUP2 SWAP1 SSTORE POP PUSH2 0x17AC ADDRESS CALLER PUSH0 DUP6 PUSH1 0x40 MLOAD DUP1 PUSH1 0x20 ADD PUSH1 0x40 MSTORE DUP1 PUSH0 DUP2 MSTORE POP PUSH2 0x2E9E JUMP JUMPDEST CALLER PUSH20 0xFFFFFFFFFFFFFFFFFFFFFFFFFFFFFFFFFFFFFFFF AND PUSH32 0xADE5F54CA481B46662E37B9087BEC2A1919DCFC57C6388290B50B3B4C8D84749 DUP4 PUSH1 0x40 MLOAD PUSH2 0x17F2 SWAP2 SWAP1 PUSH2 0x3D0B JUMP JUMPDEST PUSH1 0x40 MLOAD DUP1 SWAP2 SUB SWAP1 LOG2 POP PUSH2 0x1803 PUSH2 0x2E6E JUMP JUMPDEST POP JUMP JUMPDEST PUSH1 0x6 PUSH0 SWAP1 SLOAD SWAP1 PUSH2 0x100 EXP SWAP1 DIV PUSH20 0xFFFFFFFFFFFFFFFFFFFFFFFFFFFFFFFFFFFFFFFF AND DUP2 JUMP JUMPDEST PUSH32 0x16CEEE8289685DD2A02B9C8AE81D2DF373176CE53519E6284E2A2950D6546FFA DUP2 JUMP JUMPDEST PUSH2 0x1857 PUSH2 0x2D7D JUMP JUMPDEST PUSH32 0x16CEEE8289685DD2A02B9C8AE81D2DF373176CE53519E6284E2A2950D6546FFA PUSH2 0x1881 DUP2 PUSH2 0x2A9A JUMP JUMPDEST PUSH1 0x9 PUSH0 DUP6 DUP2 MSTORE PUSH1 0x20 ADD SWAP1 DUP2 MSTORE PUSH1 0x20 ADD PUSH0 KECCAK256 DUP1 SLOAD SWAP1 POP DUP4 LT PUSH2 0x18D7 JUMPI PUSH1 0x40 MLOAD PUSH32 0x8C379A000000000000000000000000000000000000000000000000000000000 DUP2 MSTORE PUSH1 0x4 ADD PUSH2 0x18CE SWAP1 PUSH2 0x50E5 JUMP JUMPDEST PUSH1 0x40 MLOAD DUP1 SWAP2 SUB SWAP1 REVERT JUMPDEST PUSH0 PUSH1 0x9 PUSH0 DUP7 DUP2 MSTORE PUSH1 0x20 ADD SWAP1 DUP2 MSTORE PUSH1 0x20 ADD PUSH0 KECCAK256 DUP5 DUP2 SLOAD DUP2 LT PUSH2 0x18FB JUMPI PUSH2 0x18FA PUSH2 0x4FE0 JUMP JUMPDEST JUMPDEST SWAP1 PUSH0 MSTORE PUSH1 0x20 PUSH0 KECCAK256 SWAP1 PUSH1 0x3 MUL ADD SWAP1 POP PUSH1 0x1 PUSH1 0x3 DUP2 GT ISZERO PUSH2 0x191D JUMPI PUSH2 0x191C PUSH2 0x4458 JUMP JUMPDEST JUMPDEST DUP2 PUSH0 ADD PUSH1 0x14 SWAP1 SLOAD SWAP1 PUSH2 0x100 EXP SWAP1 DIV PUSH1 0xFF AND PUSH1 0x3 DUP2 GT ISZERO PUSH2 0x1940 JUMPI PUSH2 0x193F PUSH2 0x4458 JUMP JUMPDEST JUMPDEST EQ PUSH2 0x1980 JUMPI PUSH1 0x40 MLOAD PUSH32 0x8C379A000000000000000000000000000000000000000000000000000000000 DUP2 MSTORE PUSH1 0x4 ADD PUSH2 0x1977 SWAP1 PUSH2 0x5355 JUMP JUMPDEST PUSH1 0x40 MLOAD DUP1 SWAP2 SUB SWAP1 REVERT JUMPDEST PUSH0 PUSH1 0x8 PUSH0 DUP8 DUP2 MSTORE PUSH1 0x20 ADD SWAP1 DUP2 MSTORE PUSH1 0x20 ADD PUSH0 KECCAK256 SWAP1 POP DUP4 ISZERO PUSH2 0x1B4F JUMPI PUSH2 0x19DB ADDRESS DUP4 PUSH0 ADD PUSH0 SWAP1 SLOAD SWAP1 PUSH2 0x100 EXP SWAP1 DIV PUSH20 0xFFFFFFFFFFFFFFFFFFFFFFFFFFFFFFFFFFFFFFFF AND PUSH0 DUP5 PUSH1 0x5 ADD SLOAD PUSH1 0x40 MLOAD DUP1 PUSH1 0x20 ADD PUSH1 0x40 MSTORE DUP1 PUSH0 DUP2 MSTORE POP PUSH2 0x2E9E JUMP JUMPDEST DUP1 PUSH1 0x5 ADD SLOAD DUP3 PUSH1 0x1 ADD SLOAD PUSH2 0x19EF SWAP2 SWAP1 PUSH2 0x4F94 JUMP JUMPDEST PUSH1 0xA PUSH0 DUP4 PUSH1 0x6 ADD PUSH0 SWAP1 SLOAD SWAP1 PUSH2 0x100 EXP SWAP1 DIV PUSH20 0xFFFFFFFFFFFFFFFFFFFFFFFFFFFFFFFFFFFFFFFF AND PUSH20 0xFFFFFFFFFFFFFFFFFFFFFFFFFFFFFFFFFFFFFFFF AND PUSH20 0xFFFFFFFFFFFFFFFFFFFFFFFFFFFFFFFFFFFFFFFF AND DUP2 MSTORE PUSH1 0x20 ADD SWAP1 DUP2 MSTORE PUSH1 0x20 ADD PUSH0 KECCAK256 PUSH0 DUP3 DUP3 SLOAD PUSH2 0x1A5D SWAP2 SWAP1 PUSH2 0x4F94 JUMP JUMPDEST SWAP3 POP POP DUP2 SWAP1 SSTORE POP PUSH0 DUP3 PUSH1 0x1 ADD DUP2 SWAP1 SSTORE POP PUSH1 0x2 DUP3 PUSH0 ADD PUSH1 0x14 PUSH2 0x100 EXP DUP2 SLOAD DUP2 PUSH1 0xFF MUL NOT AND SWAP1 DUP4 PUSH1 0x3 DUP2 GT ISZERO PUSH2 0x1A94 JUMPI PUSH2 0x1A93 PUSH2 0x4458 JUMP JUMPDEST JUMPDEST MUL OR SWAP1 SSTORE POP DUP2 PUSH0 ADD PUSH0 SWAP1 SLOAD SWAP1 PUSH2 0x100 EXP SWAP1 DIV PUSH20 0xFFFFFFFFFFFFFFFFFFFFFFFFFFFFFFFFFFFFFFFF AND PUSH20 0xFFFFFFFFFFFFFFFFFFFFFFFFFFFFFFFFFFFFFFFF AND DUP2 PUSH1 0x6 ADD PUSH0 SWAP1 SLOAD SWAP1 PUSH2 0x100 EXP SWAP1 DIV PUSH20 0xFFFFFFFFFFFFFFFFFFFFFFFFFFFFFFFFFFFFFFFF AND PUSH20 0xFFFFFFFFFFFFFFFFFFFFFFFFFFFFFFFFFFFFFFFF AND DUP8 PUSH32 0x8A638E11B0C22C045787CDEB797B7660A82A4F82305CA40E86A115AE07B3EE28 DUP9 DUP6 PUSH1 0x5 ADD SLOAD PUSH1 0x40 MLOAD PUSH2 0x1B42 SWAP3 SWAP2 SWAP1 PUSH2 0x4E78 JUMP JUMPDEST PUSH1 0x40 MLOAD DUP1 SWAP2 SUB SWAP1 LOG4 PUSH2 0x1CEB JUMP JUMPDEST PUSH2 0x1B9C ADDRESS DUP4 PUSH0 ADD PUSH0 SWAP1 SLOAD SWAP1 PUSH2 0x100 EXP SWAP1 DIV PUSH20 0xFFFFFFFFFFFFFFFFFFFFFFFFFFFFFFFFFFFFFFFF AND PUSH0 PUSH1 0x2 DUP6 PUSH1 0x5 ADD SLOAD PUSH2 0x1B88 SWAP2 SWAP1 PUSH2 0x5373 JUMP JUMPDEST PUSH1 0x40 MLOAD DUP1 PUSH1 0x20 ADD PUSH1 0x40 MSTORE DUP1 PUSH0 DUP2 MSTORE POP PUSH2 0x2E9E JUMP JUMPDEST DUP2 PUSH1 0x1 ADD SLOAD PUSH1 0xA PUSH0 DUP4 PUSH1 0x6 ADD PUSH0 SWAP1 SLOAD SWAP1 PUSH2 0x100 EXP SWAP1 DIV PUSH20 0xFFFFFFFFFFFFFFFFFFFFFFFFFFFFFFFFFFFFFFFF AND PUSH20 0xFFFFFFFFFFFFFFFFFFFFFFFFFFFFFFFFFFFFFFFF AND PUSH20 0xFFFFFFFFFFFFFFFFFFFFFFFFFFFFFFFFFFFFFFFF AND DUP2 MSTORE PUSH1 0x20 ADD SWAP1 DUP2 MSTORE PUSH1 0x20 ADD PUSH0 KECCAK256 PUSH0 DUP3 DUP3 SLOAD PUSH2 0x1C0F SWAP2 SWAP1 PUSH2 0x4F94 JUMP JUMPDEST SWAP3 POP POP DUP2 SWAP1 SSTORE POP PUSH0 DUP3 PUSH1 0x1 ADD DUP2 SWAP1 SSTORE POP PUSH1 0x3 DUP3 PUSH0 ADD PUSH1 0x14 PUSH2 0x100 EXP DUP2 SLOAD DUP2 PUSH1 0xFF MUL NOT AND SWAP1 DUP4 PUSH1 0x3 DUP2 GT ISZERO PUSH2 0x1C46 JUMPI PUSH2 0x1C45 PUSH2 0x4458 JUMP JUMPDEST JUMPDEST MUL OR SWAP1 SSTORE POP PUSH2 0x1C79 DUP3 PUSH0 ADD PUSH0 SWAP1 SLOAD SWAP1 PUSH2 0x100 EXP SWAP1 DIV PUSH20 0xFFFFFFFFFFFFFFFFFFFFFFFFFFFFFFFFFFFFFFFF AND DUP8 PUSH1 0x1 PUSH2 0x2DCC JUMP JUMPDEST DUP2 PUSH0 ADD PUSH0 SWAP1 SLOAD SWAP1 PUSH2 0x100 EXP SWAP1 DIV PUSH20 0xFFFFFFFFFFFFFFFFFFFFFFFFFFFFFFFFFFFFFFFF AND PUSH20 0xFFFFFFFFFFFFFFFFFFFFFFFFFFFFFFFFFFFFFFFF AND DUP7 PUSH32 0x9E07DCE46977EC95E7805C93CE75A606C8828E2F4A3E5554BFEB839D50895099 DUP8 PUSH1 0x40 MLOAD PUSH2 0x1CE2 SWAP2 SWAP1 PUSH2 0x3D0B JUMP JUMPDEST PUSH1 0x40 MLOAD DUP1 SWAP2 SUB SWAP1 LOG3 JUMPDEST DUP6 PUSH32 0xD4390D9B1EAE30D53D6E598D7EBA50E60F3EA18310CA83E7919E3DF177BB05CA DUP7 DUP7 PUSH1 0x40 MLOAD PUSH2 0x1D1D SWAP3 SWAP2 SWAP1 PUSH2 0x53B4 JUMP JUMPDEST PUSH1 0x40 MLOAD DUP1 SWAP2 SUB SWAP1 LOG2 POP POP POP PUSH2 0x1D30 PUSH2 0x2E6E JUMP JUMPDEST POP POP POP JUMP JUMPDEST PUSH0 DUP1 SHL DUP2 JUMP JUMPDEST PUSH2 0x1D4D PUSH2 0x1D46 PUSH2 0x2AAE JUMP JUMPDEST DUP4 DUP4 PUSH2 0x3039 JUMP JUMPDEST POP POP JUMP JUMPDEST PUSH1 0x7 PUSH1 0x20 MSTORE DUP1 PUSH0 MSTORE PUSH1 0x40 PUSH0 KECCAK256 PUSH0 SWAP2 POP SWAP1 POP DUP1 SLOAD PUSH2 0x1D6D SWAP1 PUSH2 0x4B71 JUMP JUMPDEST DUP1 PUSH1 0x1F ADD PUSH1 0x20 DUP1 SWAP2 DIV MUL PUSH1 0x20 ADD PUSH1 0x40 MLOAD SWAP1 DUP2 ADD PUSH1 0x40 MSTORE DUP1 SWAP3 SWAP2 SWAP1 DUP2 DUP2 MSTORE PUSH1 0x20 ADD DUP3 DUP1 SLOAD PUSH2 0x1D99 SWAP1 PUSH2 0x4B71 JUMP JUMPDEST DUP1 ISZERO PUSH2 0x1DE4 JUMPI DUP1 PUSH1 0x1F LT PUSH2 0x1DBB JUMPI PUSH2 0x100 DUP1 DUP4 SLOAD DIV MUL DUP4 MSTORE SWAP2 PUSH1 0x20 ADD SWAP2 PUSH2 0x1DE4 JUMP JUMPDEST DUP3 ADD SWAP2 SWAP1 PUSH0 MSTORE PUSH1 0x20 PUSH0 KECCAK256 SWAP1 JUMPDEST DUP2 SLOAD DUP2 MSTORE SWAP1 PUSH1 0x1 ADD SWAP1 PUSH1 0x20 ADD DUP1 DUP4 GT PUSH2 0x1DC7 JUMPI DUP3 SWAP1 SUB PUSH1 0x1F AND DUP3 ADD SWAP2 JUMPDEST POP POP POP POP POP DUP2 JUMP JUMPDEST PUSH32 0x877A78DC988C0EC5F58453B44888A55EB39755C3D5ED8D8EA990912AA3EF29C6 DUP2 JUMP JUMPDEST PUSH1 0xA PUSH1 0x20 MSTORE DUP1 PUSH0 MSTORE PUSH1 0x40 PUSH0 KECCAK256 PUSH0 SWAP2 POP SWAP1 POP SLOAD DUP2 JUMP JUMPDEST PUSH2 0x1E2D PUSH2 0x2D7D JUMP JUMPDEST PUSH1 0x9 PUSH0 DUP5 DUP2 MSTORE PUSH1 0x20 ADD SWAP1 DUP2 MSTORE PUSH1 0x20 ADD PUSH0 KECCAK256 DUP1 SLOAD SWAP1 POP DUP3 LT PUSH2 0x1E83 JUMPI PUSH1 0x40 MLOAD PUSH32 0x8C379A000000000000000000000000000000000000000000000000000000000 DUP2 MSTORE PUSH1 0x4 ADD PUSH2 0x1E7A SWAP1 PUSH2 0x50E5 JUMP JUMPDEST PUSH1 0x40 MLOAD DUP1 SWAP2 SUB SWAP1 REVERT JUMPDEST PUSH0 PUSH1 0x9 PUSH0 DUP6 DUP2 MSTORE PUSH1 0x20 ADD SWAP1 DUP2 MSTORE PUSH1 0x20 ADD PUSH0 KECCAK256 DUP4 DUP2 SLOAD DUP2 LT PUSH2 0x1EA7 JUMPI PUSH2 0x1EA6 PUSH2 0x4FE0 JUMP JUMPDEST JUMPDEST SWAP1 PUSH0 MSTORE PUSH1 0x20 PUSH0 KECCAK256 SWAP1 PUSH1 0x3 MUL ADD SWAP1 POP CALLER PUSH20 0xFFFFFFFFFFFFFFFFFFFFFFFFFFFFFFFFFFFFFFFF AND DUP2 PUSH0 ADD PUSH0 SWAP1 SLOAD SWAP1 PUSH2 0x100 EXP SWAP1 DIV PUSH20 0xFFFFFFFFFFFFFFFFFFFFFFFFFFFFFFFFFFFFFFFF AND PUSH20 0xFFFFFFFFFFFFFFFFFFFFFFFFFFFFFFFFFFFFFFFF AND EQ PUSH2 0x1F45 JUMPI PUSH1 0x40 MLOAD PUSH32 0x8C379A000000000000000000000000000000000000000000000000000000000 DUP2 MSTORE PUSH1 0x4 ADD PUSH2 0x1F3C SWAP1 PUSH2 0x5425 JUMP JUMPDEST PUSH1 0x40 MLOAD DUP1 SWAP2 SUB SWAP1 REVERT JUMPDEST PUSH0 PUSH1 0x3 DUP2 GT ISZERO PUSH2 0x1F58 JUMPI PUSH2 0x1F57 PUSH2 0x4458 JUMP JUMPDEST JUMPDEST DUP2 PUSH0 ADD PUSH1 0x14 SWAP1 SLOAD SWAP1 PUSH2 0x100 EXP SWAP1 DIV PUSH1 0xFF AND PUSH1 0x3 DUP2 GT ISZERO PUSH2 0x1F7B JUMPI PUSH2 0x1F7A PUSH2 0x4458 JUMP JUMPDEST JUMPDEST EQ PUSH2 0x1FBB JUMPI PUSH1 0x40 MLOAD PUSH32 0x8C379A000000000000000000000000000000000000000000000000000000000 DUP2 MSTORE PUSH1 0x4 ADD PUSH2 0x1FB2 SWAP1 PUSH2 0x514D JUMP JUMPDEST PUSH1 0x40 MLOAD DUP1 SWAP2 SUB SWAP1 REVERT JUMPDEST PUSH0 PUSH1 0x8 PUSH0 DUP7 DUP2 MSTORE PUSH1 0x20 ADD SWAP1 DUP2 MSTORE PUSH1 0x20 ADD PUSH0 KECCAK256 SWAP1 POP CALLER PUSH20 0xFFFFFFFFFFFFFFFFFFFFFFFFFFFFFFFFFFFFFFFF AND DUP6 PUSH32 0xDFCFA307BD7FF3B7DF976AEA65A8DF73DEB67F2649E10E389AE208B2A5C667AF DUP7 DUP7 PUSH1 0x40 MLOAD PUSH2 0x2018 SWAP3 SWAP2 SWAP1 PUSH2 0x53B4 JUMP JUMPDEST PUSH1 0x40 MLOAD DUP1 SWAP2 SUB SWAP1 LOG3 DUP3 ISZERO PUSH2 0x2197 JUMPI PUSH2 0x2045 ADDRESS CALLER PUSH0 DUP5 PUSH1 0x5 ADD SLOAD PUSH1 0x40 MLOAD DUP1 PUSH1 0x20 ADD PUSH1 0x40 MSTORE DUP1 PUSH0 DUP2 MSTORE POP PUSH2 0x2E9E JUMP JUMPDEST DUP1 PUSH1 0x5 ADD SLOAD DUP3 PUSH1 0x1 ADD SLOAD PUSH2 0x2059 SWAP2 SWAP1 PUSH2 0x4F94 JUMP JUMPDEST PUSH1 0xA PUSH0 DUP4 PUSH1 0x6 ADD PUSH0 SWAP1 SLOAD SWAP1 PUSH2 0x100 EXP SWAP1 DIV PUSH20 0xFFFFFFFFFFFFFFFFFFFFFFFFFFFFFFFFFFFFFFFF AND PUSH20 0xFFFFFFFFFFFFFFFFFFFFFFFFFFFFFFFFFFFFFFFF AND PUSH20 0xFFFFFFFFFFFFFFFFFFFFFFFFFFFFFFFFFFFFFFFF AND DUP2 MSTORE PUSH1 0x20 ADD SWAP1 DUP2 MSTORE PUSH1 0x20 ADD PUSH0 KECCAK256 PUSH0 DUP3 DUP3 SLOAD PUSH2 0x20C7 SWAP2 SWAP1 PUSH2 0x4F94 JUMP JUMPDEST SWAP3 POP POP DUP2 SWAP1 SSTORE POP PUSH0 DUP3 PUSH1 0x1 ADD DUP2 SWAP1 SSTORE POP PUSH1 0x2 DUP3 PUSH0 ADD PUSH1 0x14 PUSH2 0x100 EXP DUP2 SLOAD DUP2 PUSH1 0xFF MUL NOT AND SWAP1 DUP4 PUSH1 0x3 DUP2 GT ISZERO PUSH2 0x20FE JUMPI PUSH2 0x20FD PUSH2 0x4458 JUMP JUMPDEST JUMPDEST MUL OR SWAP1 SSTORE POP CALLER PUSH20 0xFFFFFFFFFFFFFFFFFFFFFFFFFFFFFFFFFFFFFFFF AND DUP2 PUSH1 0x6 ADD PUSH0 SWAP1 SLOAD SWAP1 PUSH2 0x100 EXP SWAP1 DIV PUSH20 0xFFFFFFFFFFFFFFFFFFFFFFFFFFFFFFFFFFFFFFFF AND PUSH20 0xFFFFFFFFFFFFFFFFFFFFFFFFFFFFFFFFFFFFFFFF AND DUP7 PUSH32 0x8A638E11B0C22C045787CDEB797B7660A82A4F82305CA40E86A115AE07B3EE28 DUP8 DUP6 PUSH1 0x5 ADD SLOAD PUSH1 0x40 MLOAD PUSH2 0x218A SWAP3 SWAP2 SWAP1 PUSH2 0x4E78 JUMP JUMPDEST PUSH1 0x40 MLOAD DUP1 SWAP2 SUB SWAP1 LOG4 PUSH2 0x2213 JUMP JUMPDEST PUSH1 0x1 DUP3 PUSH0 ADD PUSH1 0x14 PUSH2 0x100 EXP DUP2 SLOAD DUP2 PUSH1 0xFF MUL NOT AND SWAP1 DUP4 PUSH1 0x3 DUP2 GT ISZERO PUSH2 0x21BE JUMPI PUSH2 0x21BD PUSH2 0x4458 JUMP JUMPDEST JUMPDEST MUL OR SWAP1 SSTORE POP CALLER PUSH20 0xFFFFFFFFFFFFFFFFFFFFFFFFFFFFFFFFFFFFFFFF AND DUP6 PUSH32 0xC6FB55A2BD2838E444163CECE1945A661C371C5EC8C1A4EA5D697AEFC7690547 DUP7 PUSH1 0x40 MLOAD PUSH2 0x220A SWAP2 SWAP1 PUSH2 0x3D0B JUMP JUMPDEST PUSH1 0x40 MLOAD DUP1 SWAP2 SUB SWAP1 LOG3 JUMPDEST POP POP PUSH2 0x221D PUSH2 0x2E6E JUMP JUMPDEST POP POP POP JUMP JUMPDEST PUSH0 PUSH4 0xBC197C81 PUSH1 0xE0 SHL SWAP1 POP SWAP6 SWAP5 POP POP POP POP POP JUMP JUMPDEST PUSH2 0x223F DUP3 PUSH2 0xA4A JUMP JUMPDEST PUSH2 0x2248 DUP2 PUSH2 0x2A9A JUMP JUMPDEST PUSH2 0x2252 DUP4 DUP4 PUSH2 0x2C93 JUMP JUMPDEST POP POP POP POP JUMP JUMPDEST PUSH2 0x2260 PUSH2 0x3B86 JUMP JUMPDEST PUSH1 0x9 PUSH0 DUP5 DUP2 MSTORE PUSH1 0x20 ADD SWAP1 DUP2 MSTORE PUSH1 0x20 ADD PUSH0 KECCAK256 DUP1 SLOAD SWAP1 POP DUP3 LT PUSH2 0x22B6 JUMPI PUSH1 0x40 MLOAD PUSH32 0x8C379A000000000000000000000000000000000000000000000000000000000 DUP2 MSTORE PUSH1 0x4 ADD PUSH2 0x22AD SWAP1 PUSH2 0x50E5 JUMP JUMPDEST PUSH1 0x40 MLOAD DUP1 SWAP2 SUB SWAP1 REVERT JUMPDEST PUSH1 0x9 PUSH0 DUP5 DUP2 MSTORE PUSH1 0x20 ADD SWAP1 DUP2 MSTORE PUSH1 0x20 ADD PUSH0 KECCAK256 DUP3 DUP2 SLOAD DUP2 LT PUSH2 0x22D9 JUMPI PUSH2 0x22D8 PUSH2 0x4FE0 JUMP JUMPDEST JUMPDEST SWAP1 PUSH0 MSTORE PUSH1 0x20 PUSH0 KECCAK256 SWAP1 PUSH1 0x3 MUL ADD PUSH1 0x40 MLOAD DUP1 PUSH1 0x80 ADD PUSH1 0x40 MSTORE SWAP1 DUP2 PUSH0 DUP3 ADD PUSH0 SWAP1 SLOAD SWAP1 PUSH2 0x100 EXP SWAP1 DIV PUSH20 0xFFFFFFFFFFFFFFFFFFFFFFFFFFFFFFFFFFFFFFFF AND PUSH20 0xFFFFFFFFFFFFFFFFFFFFFFFFFFFFFFFFFFFFFFFF AND PUSH20 0xFFFFFFFFFFFFFFFFFFFFFFFFFFFFFFFFFFFFFFFF AND DUP2 MSTORE PUSH1 0x20 ADD PUSH0 DUP3 ADD PUSH1 0x14 SWAP1 SLOAD SWAP1 PUSH2 0x100 EXP SWAP1 DIV PUSH1 0xFF AND PUSH1 0x3 DUP2 GT ISZERO PUSH2 0x2368 JUMPI PUSH2 0x2367 PUSH2 0x4458 JUMP JUMPDEST JUMPDEST PUSH1 0x3 DUP2 GT ISZERO PUSH2 0x237A JUMPI PUSH2 0x2379 PUSH2 0x4458 JUMP JUMPDEST JUMPDEST DUP2 MSTORE PUSH1 0x20 ADD PUSH1 0x1 DUP3 ADD SLOAD DUP2 MSTORE PUSH1 0x20 ADD PUSH1 0x2 DUP3 ADD SLOAD DUP2 MSTORE POP POP SWAP1 POP SWAP3 SWAP2 POP POP JUMP JUMPDEST PUSH2 0x23A2 PUSH2 0x2D7D JUMP JUMPDEST PUSH0 PUSH1 0x8 PUSH0 DUP4 DUP2 MSTORE PUSH1 0x20 ADD SWAP1 DUP2 MSTORE PUSH1 0x20 ADD PUSH0 KECCAK256 SWAP1 POP DUP1 PUSH1 0x3 ADD SLOAD DUP2 PUSH1 0x4 ADD SLOAD LT PUSH2 0x2400 JUMPI PUSH1 0x40 MLOAD PUSH32 0x8C379A000000000000000000000000000000000000000000000000000000000 DUP2 MSTORE PUSH1 0x4 ADD PUSH2 0x23F7 SWAP1 PUSH2 0x548D JUMP JUMPDEST PUSH1 0x40 MLOAD DUP1 SWAP2 SUB SWAP1 REVERT JUMPDEST PUSH0 PUSH1 0x2 DUP3 PUSH1 0x5 ADD SLOAD PUSH2 0x2412 SWAP2 SWAP1 PUSH2 0x5373 JUMP JUMPDEST SWAP1 POP PUSH2 0x242F CALLER ADDRESS PUSH0 DUP5 PUSH1 0x40 MLOAD DUP1 PUSH1 0x20 ADD PUSH1 0x40 MSTORE DUP1 PUSH0 DUP2 MSTORE POP PUSH2 0x297A JUMP JUMPDEST DUP1 PUSH1 0xA PUSH0 DUP5 PUSH1 0x6 ADD PUSH0 SWAP1 SLOAD SWAP1 PUSH2 0x100 EXP SWAP1 DIV PUSH20 0xFFFFFFFFFFFFFFFFFFFFFFFFFFFFFFFFFFFFFFFF AND PUSH20 0xFFFFFFFFFFFFFFFFFFFFFFFFFFFFFFFFFFFFFFFF AND PUSH20 0xFFFFFFFFFFFFFFFFFFFFFFFFFFFFFFFFFFFFFFFF AND DUP2 MSTORE PUSH1 0x20 ADD SWAP1 DUP2 MSTORE PUSH1 0x20 ADD PUSH0 KECCAK256 SLOAD LT ISZERO PUSH2 0x24D2 JUMPI PUSH1 0x40 MLOAD PUSH32 0x8C379A000000000000000000000000000000000000000000000000000000000 DUP2 MSTORE PUSH1 0x4 ADD PUSH2 0x24C9 SWAP1 PUSH2 0x54F5 JUMP JUMPDEST PUSH1 0x40 MLOAD DUP1 SWAP2 SUB SWAP1 REVERT JUMPDEST DUP1 PUSH1 0xA PUSH0 DUP5 PUSH1 0x6 ADD PUSH0 SWAP1 SLOAD SWAP1 PUSH2 0x100 EXP SWAP1 DIV PUSH20 0xFFFFFFFFFFFFFFFFFFFFFFFFFFFFFFFFFFFFFFFF AND PUSH20 0xFFFFFFFFFFFFFFFFFFFFFFFFFFFFFFFFFFFFFFFF AND PUSH20 0xFFFFFFFFFFFFFFFFFFFFFFFFFFFFFFFFFFFFFFFF AND DUP2 MSTORE PUSH1 0x20 ADD SWAP1 DUP2 MSTORE PUSH1 0x20 ADD PUSH0 KECCAK256 PUSH0 DUP3 DUP3 SLOAD PUSH2 0x2541 SWAP2 SWAP1 PUSH2 0x52D8 JUMP JUMPDEST SWAP3 POP POP DUP2 SWAP1 SSTORE POP PUSH0 PUSH1 0x40 MLOAD DUP1 PUSH1 0x80 ADD PUSH1 0x40 MSTORE DUP1 CALLER PUSH20 0xFFFFFFFFFFFFFFFFFFFFFFFFFFFFFFFFFFFFFFFF AND DUP2 MSTORE PUSH1 0x20 ADD PUSH0 PUSH1 0x3 DUP2 GT ISZERO PUSH2 0x2583 JUMPI PUSH2 0x2582 PUSH2 0x4458 JUMP JUMPDEST JUMPDEST DUP2 MSTORE PUSH1 0x20 ADD DUP4 DUP2 MSTORE PUSH1 0x20 ADD TIMESTAMP DUP2 MSTORE POP SWAP1 POP PUSH1 0x9 PUSH0 DUP6 DUP2 MSTORE PUSH1 0x20 ADD SWAP1 DUP2 MSTORE PUSH1 0x20 ADD PUSH0 KECCAK256 DUP2 SWAP1 DUP1 PUSH1 0x1 DUP2 SLOAD ADD DUP1 DUP3 SSTORE DUP1 SWAP2 POP POP PUSH1 0x1 SWAP1 SUB SWAP1 PUSH0 MSTORE PUSH1 0x20 PUSH0 KECCAK256 SWAP1 PUSH1 0x3 MUL ADD PUSH0 SWAP1 SWAP2 SWAP1 SWAP2 SWAP1 SWAP2 POP PUSH0 DUP3 ADD MLOAD DUP2 PUSH0 ADD PUSH0 PUSH2 0x100 EXP DUP2 SLOAD DUP2 PUSH20 0xFFFFFFFFFFFFFFFFFFFFFFFFFFFFFFFFFFFFFFFF MUL NOT AND SWAP1 DUP4 PUSH20 0xFFFFFFFFFFFFFFFFFFFFFFFFFFFFFFFFFFFFFFFF AND MUL OR SWAP1 SSTORE POP PUSH1 0x20 DUP3 ADD MLOAD DUP2 PUSH0 ADD PUSH1 0x14 PUSH2 0x100 EXP DUP2 SLOAD DUP2 PUSH1 0xFF MUL NOT AND SWAP1 DUP4 PUSH1 0x3 DUP2 GT ISZERO PUSH2 0x263A JUMPI PUSH2 0x2639 PUSH2 0x4458 JUMP JUMPDEST JUMPDEST MUL OR SWAP1 SSTORE POP PUSH1 0x40 DUP3 ADD MLOAD DUP2 PUSH1 0x1 ADD SSTORE PUSH1 0x60 DUP3 ADD MLOAD DUP2 PUSH1 0x2 ADD SSTORE POP POP PUSH0 PUSH1 0x1 PUSH1 0x9 PUSH0 DUP8 DUP2 MSTORE PUSH1 0x20 ADD SWAP1 DUP2 MSTORE PUSH1 0x20 ADD PUSH0 KECCAK256 DUP1 SLOAD SWAP1 POP PUSH2 0x2677 SWAP2 SWAP1 PUSH2 0x52D8 JUMP JUMPDEST SWAP1 POP PUSH1 0x1 DUP5 PUSH1 0x4 ADD PUSH0 DUP3 DUP3 SLOAD PUSH2 0x268D SWAP2 SWAP1 PUSH2 0x4F94 JUMP JUMPDEST SWAP3 POP POP DUP2 SWAP1 SSTORE POP PUSH2 0x26AF CALLER DUP7 PUSH1 0x1 PUSH1 0x40 MLOAD DUP1 PUSH1 0x20 ADD PUSH1 0x40 MSTORE DUP1 PUSH0 DUP2 MSTORE POP PUSH2 0x2FA4 JUMP JUMPDEST CALLER PUSH20 0xFFFFFFFFFFFFFFFFFFFFFFFFFFFFFFFFFFFFFFFF AND DUP6 PUSH32 0xC66714AC82C6B49D1BAF73A23208093F244FC265E1CE7E1412598A9FF1DA164 DUP4 PUSH1 0x40 MLOAD PUSH2 0x26F6 SWAP2 SWAP1 PUSH2 0x3D0B JUMP JUMPDEST PUSH1 0x40 MLOAD DUP1 SWAP2 SUB SWAP1 LOG3 POP POP POP POP PUSH2 0x270A PUSH2 0x2E6E JUMP JUMPDEST POP JUMP JUMPDEST PUSH0 DUP2 JUMP JUMPDEST PUSH0 PUSH1 0x1 PUSH0 DUP5 PUSH20 0xFFFFFFFFFFFFFFFFFFFFFFFFFFFFFFFFFFFFFFFF AND PUSH20 0xFFFFFFFFFFFFFFFFFFFFFFFFFFFFFFFFFFFFFFFF AND DUP2 MSTORE PUSH1 0x20 ADD SWAP1 DUP2 MSTORE PUSH1 0x20 ADD PUSH0 KECCAK256 PUSH0 DUP4 PUSH20 0xFFFFFFFFFFFFFFFFFFFFFFFFFFFFFFFFFFFFFFFF AND PUSH20 0xFFFFFFFFFFFFFFFFFFFFFFFFFFFFFFFFFFFFFFFF AND DUP2 MSTORE PUSH1 0x20 ADD SWAP1 DUP2 MSTORE PUSH1 0x20 ADD PUSH0 KECCAK256 PUSH0 SWAP1 SLOAD SWAP1 PUSH2 0x100 EXP SWAP1 DIV PUSH1 0xFF AND SWAP1 POP SWAP3 SWAP2 POP POP JUMP JUMPDEST PUSH2 0x27A7 PUSH2 0x3BD2 JUMP JUMPDEST PUSH1 0x8 PUSH0 DUP4 DUP2 MSTORE PUSH1 0x20 ADD SWAP1 DUP2 MSTORE PUSH1 0x20 ADD PUSH0 KECCAK256 PUSH1 0x40 MLOAD DUP1 PUSH1 0xE0 ADD PUSH1 0x40 MSTORE SWAP1 DUP2 PUSH0 DUP3 ADD SLOAD DUP2 MSTORE PUSH1 0x20 ADD PUSH1 0x1 DUP3 ADD DUP1 SLOAD PUSH2 0x27DC SWAP1 PUSH2 0x4B71 JUMP JUMPDEST DUP1 PUSH1 0x1F ADD PUSH1 0x20 DUP1 SWAP2 DIV MUL PUSH1 0x20 ADD PUSH1 0x40 MLOAD SWAP1 DUP2 ADD PUSH1 0x40 MSTORE DUP1 SWAP3 SWAP2 SWAP1 DUP2 DUP2 MSTORE PUSH1 0x20 ADD DUP3 DUP1 SLOAD PUSH2 0x2808 SWAP1 PUSH2 0x4B71 JUMP JUMPDEST DUP1 ISZERO PUSH2 0x2853 JUMPI DUP1 PUSH1 0x1F LT PUSH2 0x282A JUMPI PUSH2 0x100 DUP1 DUP4 SLOAD DIV MUL DUP4 MSTORE SWAP2 PUSH1 0x20 ADD SWAP2 PUSH2 0x2853 JUMP JUMPDEST DUP3 ADD SWAP2 SWAP1 PUSH0 MSTORE PUSH1 0x20 PUSH0 KECCAK256 SWAP1 JUMPDEST DUP2 SLOAD DUP2 MSTORE SWAP1 PUSH1 0x1 ADD SWAP1 PUSH1 0x20 ADD DUP1 DUP4 GT PUSH2 0x2836 JUMPI DUP3 SWAP1 SUB PUSH1 0x1F AND DUP3 ADD SWAP2 JUMPDEST POP POP POP POP POP DUP2 MSTORE PUSH1 0x20 ADD PUSH1 0x2 DUP3 ADD DUP1 SLOAD PUSH2 0x286C SWAP1 PUSH2 0x4B71 JUMP JUMPDEST DUP1 PUSH1 0x1F ADD PUSH1 0x20 DUP1 SWAP2 DIV MUL PUSH1 0x20 ADD PUSH1 0x40 MLOAD SWAP1 DUP2 ADD PUSH1 0x40 MSTORE DUP1 SWAP3 SWAP2 SWAP1 DUP2 DUP2 MSTORE PUSH1 0x20 ADD DUP3 DUP1 SLOAD PUSH2 0x2898 SWAP1 PUSH2 0x4B71 JUMP JUMPDEST DUP1 ISZERO PUSH2 0x28E3 JUMPI DUP1 PUSH1 0x1F LT PUSH2 0x28BA JUMPI PUSH2 0x100 DUP1 DUP4 SLOAD DIV MUL DUP4 MSTORE SWAP2 PUSH1 0x20 ADD SWAP2 PUSH2 0x28E3 JUMP JUMPDEST DUP3 ADD SWAP2 SWAP1 PUSH0 MSTORE PUSH1 0x20 PUSH0 KECCAK256 SWAP1 JUMPDEST DUP2 SLOAD DUP2 MSTORE SWAP1 PUSH1 0x1 ADD SWAP1 PUSH1 0x20 ADD DUP1 DUP4 GT PUSH2 0x28C6 JUMPI DUP3 SWAP1 SUB PUSH1 0x1F AND DUP3 ADD SWAP2 JUMPDEST POP POP POP POP POP DUP2 MSTORE PUSH1 0x20 ADD PUSH1 0x3 DUP3 ADD SLOAD DUP2 MSTORE PUSH1 0x20 ADD PUSH1 0x4 DUP3 ADD SLOAD DUP2 MSTORE PUSH1 0x20 ADD PUSH1 0x5 DUP3 ADD SLOAD DUP2 MSTORE PUSH1 0x20 ADD PUSH1 0x6 DUP3 ADD PUSH0 SWAP1 SLOAD SWAP1 PUSH2 0x100 EXP SWAP1 DIV PUSH20 0xFFFFFFFFFFFFFFFFFFFFFFFFFFFFFFFFFFFFFFFF AND PUSH20 0xFFFFFFFFFFFFFFFFFFFFFFFFFFFFFFFFFFFFFFFF AND PUSH20 0xFFFFFFFFFFFFFFFFFFFFFFFFFFFFFFFFFFFFFFFF AND DUP2 MSTORE POP POP SWAP1 POP SWAP2 SWAP1 POP JUMP JUMPDEST PUSH0 PUSH4 0xF23A6E61 PUSH1 0xE0 SHL SWAP1 POP SWAP6 SWAP5 POP POP POP POP POP JUMP JUMPDEST PUSH0 PUSH2 0x2983 PUSH2 0x2AAE JUMP JUMPDEST SWAP1 POP DUP1 PUSH20 0xFFFFFFFFFFFFFFFFFFFFFFFFFFFFFFFFFFFFFFFF AND DUP7 PUSH20 0xFFFFFFFFFFFFFFFFFFFFFFFFFFFFFFFFFFFFFFFF AND EQ ISZERO DUP1 ISZERO PUSH2 0x29C8 JUMPI POP PUSH2 0x29C6 DUP7 DUP3 PUSH2 0x2711 JUMP JUMPDEST ISZERO JUMPDEST ISZERO PUSH2 0x2A0C JUMPI DUP1 DUP7 PUSH1 0x40 MLOAD PUSH32 0xE237D92200000000000000000000000000000000000000000000000000000000 DUP2 MSTORE PUSH1 0x4 ADD PUSH2 0x2A03 SWAP3 SWAP2 SWAP1 PUSH2 0x4E9F JUMP JUMPDEST PUSH1 0x40 MLOAD DUP1 SWAP2 SUB SWAP1 REVERT JUMPDEST PUSH2 0x2A19 DUP7 DUP7 DUP7 DUP7 DUP7 PUSH2 0x2E9E JUMP JUMPDEST POP POP POP POP POP POP JUMP JUMPDEST PUSH0 PUSH32 0x7965DB0B00000000000000000000000000000000000000000000000000000000 PUSH28 0xFFFFFFFFFFFFFFFFFFFFFFFFFFFFFFFFFFFFFFFFFFFFFFFFFFFFFFFF NOT AND DUP3 PUSH28 0xFFFFFFFFFFFFFFFFFFFFFFFFFFFFFFFFFFFFFFFFFFFFFFFFFFFFFFFF NOT AND EQ DUP1 PUSH2 0x2A93 JUMPI POP PUSH2 0x2A92 DUP3 PUSH2 0x31A2 JUMP JUMPDEST JUMPDEST SWAP1 POP SWAP2 SWAP1 POP JUMP JUMPDEST PUSH2 0x2AAB DUP2 PUSH2 0x2AA6 PUSH2 0x2AAE JUMP JUMPDEST PUSH2 0x321B JUMP JUMPDEST POP JUMP JUMPDEST PUSH0 CALLER SWAP1 POP SWAP1 JUMP JUMPDEST PUSH0 PUSH20 0xFFFFFFFFFFFFFFFFFFFFFFFFFFFFFFFFFFFFFFFF AND DUP5 PUSH20 0xFFFFFFFFFFFFFFFFFFFFFFFFFFFFFFFFFFFFFFFF AND SUB PUSH2 0x2B25 JUMPI PUSH0 PUSH1 0x40 MLOAD PUSH32 0x57F447CE00000000000000000000000000000000000000000000000000000000 DUP2 MSTORE PUSH1 0x4 ADD PUSH2 0x2B1C SWAP2 SWAP1 PUSH2 0x4FC7 JUMP JUMPDEST PUSH1 0x40 MLOAD DUP1 SWAP2 SUB SWAP1 REVERT JUMPDEST PUSH0 PUSH20 0xFFFFFFFFFFFFFFFFFFFFFFFFFFFFFFFFFFFFFFFF AND DUP6 PUSH20 0xFFFFFFFFFFFFFFFFFFFFFFFFFFFFFFFFFFFFFFFF AND SUB PUSH2 0x2B95 JUMPI PUSH0 PUSH1 0x40 MLOAD PUSH32 0x1A8351400000000000000000000000000000000000000000000000000000000 DUP2 MSTORE PUSH1 0x4 ADD PUSH2 0x2B8C SWAP2 SWAP1 PUSH2 0x4FC7 JUMP JUMPDEST PUSH1 0x40 MLOAD DUP1 SWAP2 SUB SWAP1 REVERT JUMPDEST PUSH2 0x2BA2 DUP6 DUP6 DUP6 DUP6 DUP6 PUSH2 0x326C JUMP JUMPDEST POP POP POP POP POP JUMP JUMPDEST PUSH0 PUSH2 0x2BB4 DUP4 DUP4 PUSH2 0x1628 JUMP JUMPDEST PUSH2 0x2C89 JUMPI PUSH1 0x1 PUSH1 0x3 PUSH0 DUP6 DUP2 MSTORE PUSH1 0x20 ADD SWAP1 DUP2 MSTORE PUSH1 0x20 ADD PUSH0 KECCAK256 PUSH0 ADD PUSH0 DUP5 PUSH20 0xFFFFFFFFFFFFFFFFFFFFFFFFFFFFFFFFFFFFFFFF AND PUSH20 0xFFFFFFFFFFFFFFFFFFFFFFFFFFFFFFFFFFFFFFFF AND DUP2 MSTORE PUSH1 0x20 ADD SWAP1 DUP2 MSTORE PUSH1 0x20 ADD PUSH0 KECCAK256 PUSH0 PUSH2 0x100 EXP DUP2 SLOAD DUP2 PUSH1 0xFF MUL NOT AND SWAP1 DUP4 ISZERO ISZERO MUL OR SWAP1 SSTORE POP PUSH2 0x2C26 PUSH2 0x2AAE JUMP JUMPDEST PUSH20 0xFFFFFFFFFFFFFFFFFFFFFFFFFFFFFFFFFFFFFFFF AND DUP3 PUSH20 0xFFFFFFFFFFFFFFFFFFFFFFFFFFFFFFFFFFFFFFFF AND DUP5 PUSH32 0x2F8788117E7EFF1D82E926EC794901D17C78024A50270940304540A733656F0D PUSH1 0x40 MLOAD PUSH1 0x40 MLOAD DUP1 SWAP2 SUB SWAP1 LOG4 PUSH1 0x1 SWAP1 POP PUSH2 0x2C8D JUMP JUMPDEST PUSH0 SWAP1 POP JUMPDEST SWAP3 SWAP2 POP POP JUMP JUMPDEST PUSH0 PUSH2 0x2C9E DUP4 DUP4 PUSH2 0x1628 JUMP JUMPDEST ISZERO PUSH2 0x2D73 JUMPI PUSH0 PUSH1 0x3 PUSH0 DUP6 DUP2 MSTORE PUSH1 0x20 ADD SWAP1 DUP2 MSTORE PUSH1 0x20 ADD PUSH0 KECCAK256 PUSH0 ADD PUSH0 DUP5 PUSH20 0xFFFFFFFFFFFFFFFFFFFFFFFFFFFFFFFFFFFFFFFF AND PUSH20 0xFFFFFFFFFFFFFFFFFFFFFFFFFFFFFFFFFFFFFFFF AND DUP2 MSTORE PUSH1 0x20 ADD SWAP1 DUP2 MSTORE PUSH1 0x20 ADD PUSH0 KECCAK256 PUSH0 PUSH2 0x100 EXP DUP2 SLOAD DUP2 PUSH1 0xFF MUL NOT AND SWAP1 DUP4 ISZERO ISZERO MUL OR SWAP1 SSTORE POP PUSH2 0x2D10 PUSH2 0x2AAE JUMP JUMPDEST PUSH20 0xFFFFFFFFFFFFFFFFFFFFFFFFFFFFFFFFFFFFFFFF AND DUP3 PUSH20 0xFFFFFFFFFFFFFFFFFFFFFFFFFFFFFFFFFFFFFFFF AND DUP5 PUSH32 0xF6391F5C32D9C69D2A47EA670B442974B53935D1EDC7FD64EB21E047A839171B PUSH1 0x40 MLOAD PUSH1 0x40 MLOAD DUP1 SWAP2 SUB SWAP1 LOG4 PUSH1 0x1 SWAP1 POP PUSH2 0x2D77 JUMP JUMPDEST PUSH0 SWAP1 POP JUMPDEST SWAP3 SWAP2 POP POP JUMP JUMPDEST PUSH1 0x2 PUSH1 0x4 SLOAD SUB PUSH2 0x2DC2 JUMPI PUSH1 0x40 MLOAD PUSH32 0x8C379A000000000000000000000000000000000000000000000000000000000 DUP2 MSTORE PUSH1 0x4 ADD PUSH2 0x2DB9 SWAP1 PUSH2 0x555D JUMP JUMPDEST PUSH1 0x40 MLOAD DUP1 SWAP2 SUB SWAP1 REVERT JUMPDEST PUSH1 0x2 PUSH1 0x4 DUP2 SWAP1 SSTORE POP JUMP JUMPDEST PUSH0 PUSH20 0xFFFFFFFFFFFFFFFFFFFFFFFFFFFFFFFFFFFFFFFF AND DUP4 PUSH20 0xFFFFFFFFFFFFFFFFFFFFFFFFFFFFFFFFFFFFFFFF AND SUB PUSH2 0x2E3C JUMPI PUSH0 PUSH1 0x40 MLOAD PUSH32 0x1A8351400000000000000000000000000000000000000000000000000000000 DUP2 MSTORE PUSH1 0x4 ADD PUSH2 0x2E33 SWAP2 SWAP1 PUSH2 0x4FC7 JUMP JUMPDEST PUSH1 0x40 MLOAD DUP1 SWAP2 SUB SWAP1 REVERT JUMPDEST PUSH0 DUP1 PUSH2 0x2E48 DUP5 DUP5 PUSH2 0x3318 JUMP JUMPDEST SWAP2 POP SWAP2 POP PUSH2 0x2E67 DUP6 PUSH0 DUP5 DUP5 PUSH1 0x40 MLOAD DUP1 PUSH1 0x20 ADD PUSH1 0x40 MSTORE DUP1 PUSH0 DUP2 MSTORE POP PUSH2 0x326C JUMP JUMPDEST POP POP POP POP POP JUMP JUMPDEST PUSH1 0x1 PUSH1 0x4 DUP2 SWAP1 SSTORE POP JUMP JUMPDEST PUSH0 PUSH1 0x20 DUP3 MUL PUSH1 0x20 DUP5 ADD ADD MLOAD SWAP1 POP SWAP3 SWAP2 POP POP JUMP JUMPDEST PUSH0 PUSH1 0x20 DUP3 MUL PUSH1 0x20 DUP5 ADD ADD MLOAD SWAP1 POP SWAP3 SWAP2 POP POP JUMP JUMPDEST PUSH0 PUSH20 0xFFFFFFFFFFFFFFFFFFFFFFFFFFFFFFFFFFFFFFFF AND DUP5 PUSH20 0xFFFFFFFFFFFFFFFFFFFFFFFFFFFFFFFFFFFFFFFF AND SUB PUSH2 0x2F0E JUMPI PUSH0 PUSH1 0x40 MLOAD PUSH32 0x57F447CE00000000000000000000000000000000000000000000000000000000 DUP2 MSTORE PUSH1 0x4 ADD PUSH2 0x2F05 SWAP2 SWAP1 PUSH2 0x4FC7 JUMP JUMPDEST PUSH1 0x40 MLOAD DUP1 SWAP2 SUB SWAP1 REVERT JUMPDEST PUSH0 PUSH20 0xFFFFFFFFFFFFFFFFFFFFFFFFFFFFFFFFFFFFFFFF AND DUP6 PUSH20 0xFFFFFFFFFFFFFFFFFFFFFFFFFFFFFFFFFFFFFFFF AND SUB PUSH2 0x2F7E JUMPI PUSH0 PUSH1 0x40 MLOAD PUSH32 0x1A8351400000000000000000000000000000000000000000000000000000000 DUP2 MSTORE PUSH1 0x4 ADD PUSH2 0x2F75 SWAP2 SWAP1 PUSH2 0x4FC7 JUMP JUMPDEST PUSH1 0x40 MLOAD DUP1 SWAP2 SUB SWAP1 REVERT JUMPDEST PUSH0 DUP1 PUSH2 0x2F8A DUP6 DUP6 PUSH2 0x3318 JUMP JUMPDEST SWAP2 POP SWAP2 POP PUSH2 0x2F9B DUP8 DUP8 DUP5 DUP5 DUP8 PUSH2 0x326C JUMP JUMPDEST POP POP POP POP POP POP POP JUMP JUMPDEST PUSH0 PUSH20 0xFFFFFFFFFFFFFFFFFFFFFFFFFFFFFFFFFFFFFFFF AND DUP5 PUSH20 0xFFFFFFFFFFFFFFFFFFFFFFFFFFFFFFFFFFFFFFFF AND SUB PUSH2 0x3014 JUMPI PUSH0 PUSH1 0x40 MLOAD PUSH32 0x57F447CE00000000000000000000000000000000000000000000000000000000 DUP2 MSTORE PUSH1 0x4 ADD PUSH2 0x300B SWAP2 SWAP1 PUSH2 0x4FC7 JUMP JUMPDEST PUSH1 0x40 MLOAD DUP1 SWAP2 SUB SWAP1 REVERT JUMPDEST PUSH0 DUP1 PUSH2 0x3020 DUP6 DUP6 PUSH2 0x3318 JUMP JUMPDEST SWAP2 POP SWAP2 POP PUSH2 0x3031 PUSH0 DUP8 DUP5 DUP5 DUP8 PUSH2 0x326C JUMP JUMPDEST POP POP POP POP POP POP JUMP JUMPDEST PUSH0 PUSH20 0xFFFFFFFFFFFFFFFFFFFFFFFFFFFFFFFFFFFFFFFF AND DUP3 PUSH20 0xFFFFFFFFFFFFFFFFFFFFFFFFFFFFFFFFFFFFFFFF AND SUB PUSH2 0x30A9 JUMPI PUSH0 PUSH1 0x40 MLOAD PUSH32 0xCED3E10000000000000000000000000000000000000000000000000000000000 DUP2 MSTORE PUSH1 0x4 ADD PUSH2 0x30A0 SWAP2 SWAP1 PUSH2 0x4FC7 JUMP JUMPDEST PUSH1 0x40 MLOAD DUP1 SWAP2 SUB SWAP1 REVERT JUMPDEST DUP1 PUSH1 0x1 PUSH0 DUP6 PUSH20 0xFFFFFFFFFFFFFFFFFFFFFFFFFFFFFFFFFFFFFFFF AND PUSH20 0xFFFFFFFFFFFFFFFFFFFFFFFFFFFFFFFFFFFFFFFF AND DUP2 MSTORE PUSH1 0x20 ADD SWAP1 DUP2 MSTORE PUSH1 0x20 ADD PUSH0 KECCAK256 PUSH0 DUP5 PUSH20 0xFFFFFFFFFFFFFFFFFFFFFFFFFFFFFFFFFFFFFFFF AND PUSH20 0xFFFFFFFFFFFFFFFFFFFFFFFFFFFFFFFFFFFFFFFF AND DUP2 MSTORE PUSH1 0x20 ADD SWAP1 DUP2 MSTORE PUSH1 0x20 ADD PUSH0 KECCAK256 PUSH0 PUSH2 0x100 EXP DUP2 SLOAD DUP2 PUSH1 0xFF MUL NOT AND SWAP1 DUP4 ISZERO ISZERO MUL OR SWAP1 SSTORE POP DUP2 PUSH20 0xFFFFFFFFFFFFFFFFFFFFFFFFFFFFFFFFFFFFFFFF AND DUP4 PUSH20 0xFFFFFFFFFFFFFFFFFFFFFFFFFFFFFFFFFFFFFFFF AND PUSH32 0x17307EAB39AB6107E8899845AD3D59BD9653F200F220920489CA2B5937696C31 DUP4 PUSH1 0x40 MLOAD PUSH2 0x3195 SWAP2 SWAP1 PUSH2 0x3DBE JUMP JUMPDEST PUSH1 0x40 MLOAD DUP1 SWAP2 SUB SWAP1 LOG3 POP POP POP JUMP JUMPDEST PUSH0 PUSH32 0x4E2312E000000000000000000000000000000000000000000000000000000000 PUSH28 0xFFFFFFFFFFFFFFFFFFFFFFFFFFFFFFFFFFFFFFFFFFFFFFFFFFFFFFFF NOT AND DUP3 PUSH28 0xFFFFFFFFFFFFFFFFFFFFFFFFFFFFFFFFFFFFFFFFFFFFFFFFFFFFFFFF NOT AND EQ DUP1 PUSH2 0x3214 JUMPI POP PUSH2 0x3213 DUP3 PUSH2 0x3348 JUMP JUMPDEST JUMPDEST SWAP1 POP SWAP2 SWAP1 POP JUMP JUMPDEST PUSH2 0x3225 DUP3 DUP3 PUSH2 0x1628 JUMP JUMPDEST PUSH2 0x3268 JUMPI DUP1 DUP3 PUSH1 0x40 MLOAD PUSH32 0xE2517D3F00000000000000000000000000000000000000000000000000000000 DUP2 MSTORE PUSH1 0x4 ADD PUSH2 0x325F SWAP3 SWAP2 SWAP1 PUSH2 0x557B JUMP JUMPDEST PUSH1 0x40 MLOAD DUP1 SWAP2 SUB SWAP1 REVERT JUMPDEST POP POP JUMP JUMPDEST PUSH2 0x3278 DUP6 DUP6 DUP6 DUP6 PUSH2 0x3429 JUMP JUMPDEST PUSH0 PUSH20 0xFFFFFFFFFFFFFFFFFFFFFFFFFFFFFFFFFFFFFFFF AND DUP5 PUSH20 0xFFFFFFFFFFFFFFFFFFFFFFFFFFFFFFFFFFFFFFFF AND EQ PUSH2 0x3311 JUMPI PUSH0 PUSH2 0x32B4 PUSH2 0x2AAE JUMP JUMPDEST SWAP1 POP PUSH1 0x1 DUP5 MLOAD SUB PUSH2 0x3300 JUMPI PUSH0 PUSH2 0x32D3 PUSH0 DUP7 PUSH2 0x2E8B SWAP1 SWAP2 SWAP1 PUSH4 0xFFFFFFFF AND JUMP JUMPDEST SWAP1 POP PUSH0 PUSH2 0x32E9 PUSH0 DUP7 PUSH2 0x2E8B SWAP1 SWAP2 SWAP1 PUSH4 0xFFFFFFFF AND JUMP JUMPDEST SWAP1 POP PUSH2 0x32F9 DUP4 DUP10 DUP10 DUP6 DUP6 DUP10 PUSH2 0x37BF JUMP JUMPDEST POP POP PUSH2 0x330F JUMP JUMPDEST PUSH2 0x330E DUP2 DUP8 DUP8 DUP8 DUP8 DUP8 PUSH2 0x396E JUMP JUMPDEST JUMPDEST POP JUMPDEST POP POP POP POP POP JUMP JUMPDEST PUSH1 0x60 DUP1 PUSH1 0x40 MLOAD SWAP2 POP PUSH1 0x1 DUP3 MSTORE DUP4 PUSH1 0x20 DUP4 ADD MSTORE PUSH1 0x40 DUP3 ADD SWAP1 POP PUSH1 0x1 DUP2 MSTORE DUP3 PUSH1 0x20 DUP3 ADD MSTORE PUSH1 0x40 DUP2 ADD PUSH1 0x40 MSTORE SWAP3 POP SWAP3 SWAP1 POP JUMP JUMPDEST PUSH0 PUSH32 0xD9B67A2600000000000000000000000000000000000000000000000000000000 PUSH28 0xFFFFFFFFFFFFFFFFFFFFFFFFFFFFFFFFFFFFFFFFFFFFFFFFFFFFFFFF NOT AND DUP3 PUSH28 0xFFFFFFFFFFFFFFFFFFFFFFFFFFFFFFFFFFFFFFFFFFFFFFFFFFFFFFFF NOT AND EQ DUP1 PUSH2 0x3412 JUMPI POP PUSH32 0xE89341C00000000000000000000000000000000000000000000000000000000 PUSH28 0xFFFFFFFFFFFFFFFFFFFFFFFFFFFFFFFFFFFFFFFFFFFFFFFFFFFFFFFF NOT AND DUP3 PUSH28 0xFFFFFFFFFFFFFFFFFFFFFFFFFFFFFFFFFFFFFFFFFFFFFFFFFFFFFFFF NOT AND EQ JUMPDEST DUP1 PUSH2 0x3422 JUMPI POP PUSH2 0x3421 DUP3 PUSH2 0x3B1D JUMP JUMPDEST JUMPDEST SWAP1 POP SWAP2 SWAP1 POP JUMP JUMPDEST DUP1 MLOAD DUP3 MLOAD EQ PUSH2 0x3473 JUMPI DUP2 MLOAD DUP2 MLOAD PUSH1 0x40 MLOAD PUSH32 0x5B05999100000000000000000000000000000000000000000000000000000000 DUP2 MSTORE PUSH1 0x4 ADD PUSH2 0x346A SWAP3 SWAP2 SWAP1 PUSH2 0x4E78 JUMP JUMPDEST PUSH1 0x40 MLOAD DUP1 SWAP2 SUB SWAP1 REVERT JUMPDEST PUSH0 PUSH2 0x347C PUSH2 0x2AAE JUMP JUMPDEST SWAP1 POP PUSH0 JUMPDEST DUP4 MLOAD DUP2 LT ISZERO PUSH2 0x367E JUMPI PUSH0 PUSH2 0x349D DUP3 DUP7 PUSH2 0x2E8B SWAP1 SWAP2 SWAP1 PUSH4 0xFFFFFFFF AND JUMP JUMPDEST SWAP1 POP PUSH0 PUSH2 0x34B3 DUP4 DUP7 PUSH2 0x2E8B SWAP1 SWAP2 SWAP1 PUSH4 0xFFFFFFFF AND JUMP JUMPDEST SWAP1 POP PUSH0 PUSH20 0xFFFFFFFFFFFFFFFFFFFFFFFFFFFFFFFFFFFFFFFF AND DUP9 PUSH20 0xFFFFFFFFFFFFFFFFFFFFFFFFFFFFFFFFFFFFFFFF AND EQ PUSH2 0x35D6 JUMPI PUSH0 DUP1 PUSH0 DUP5 DUP2 MSTORE PUSH1 0x20 ADD SWAP1 DUP2 MSTORE PUSH1 0x20 ADD PUSH0 KECCAK256 PUSH0 DUP11 PUSH20 0xFFFFFFFFFFFFFFFFFFFFFFFFFFFFFFFFFFFFFFFF AND PUSH20 0xFFFFFFFFFFFFFFFFFFFFFFFFFFFFFFFFFFFFFFFF AND DUP2 MSTORE PUSH1 0x20 ADD SWAP1 DUP2 MSTORE PUSH1 0x20 ADD PUSH0 KECCAK256 SLOAD SWAP1 POP DUP2 DUP2 LT ISZERO PUSH2 0x3582 JUMPI DUP9 DUP2 DUP4 DUP6 PUSH1 0x40 MLOAD PUSH32 0x3DEE4C500000000000000000000000000000000000000000000000000000000 DUP2 MSTORE PUSH1 0x4 ADD PUSH2 0x3579 SWAP5 SWAP4 SWAP3 SWAP2 SWAP1 PUSH2 0x55A2 JUMP JUMPDEST PUSH1 0x40 MLOAD DUP1 SWAP2 SUB SWAP1 REVERT JUMPDEST DUP2 DUP2 SUB PUSH0 DUP1 DUP6 DUP2 MSTORE PUSH1 0x20 ADD SWAP1 DUP2 MSTORE PUSH1 0x20 ADD PUSH0 KECCAK256 PUSH0 DUP12 PUSH20 0xFFFFFFFFFFFFFFFFFFFFFFFFFFFFFFFFFFFFFFFF AND PUSH20 0xFFFFFFFFFFFFFFFFFFFFFFFFFFFFFFFFFFFFFFFF AND DUP2 MSTORE PUSH1 0x20 ADD SWAP1 DUP2 MSTORE PUSH1 0x20 ADD PUSH0 KECCAK256 DUP2 SWAP1 SSTORE POP POP JUMPDEST PUSH0 PUSH20 0xFFFFFFFFFFFFFFFFFFFFFFFFFFFFFFFFFFFFFFFF AND DUP8 PUSH20 0xFFFFFFFFFFFFFFFFFFFFFFFFFFFFFFFFFFFFFFFF AND EQ PUSH2 0x366B JUMPI DUP1 PUSH0 DUP1 DUP5 DUP2 MSTORE PUSH1 0x20 ADD SWAP1 DUP2 MSTORE PUSH1 0x20 ADD PUSH0 KECCAK256 PUSH0 DUP10 PUSH20 0xFFFFFFFFFFFFFFFFFFFFFFFFFFFFFFFFFFFFFFFF AND PUSH20 0xFFFFFFFFFFFFFFFFFFFFFFFFFFFFFFFFFFFFFFFF AND DUP2 MSTORE PUSH1 0x20 ADD SWAP1 DUP2 MSTORE PUSH1 0x20 ADD PUSH0 KECCAK256 PUSH0 DUP3 DUP3 SLOAD PUSH2 0x3663 SWAP2 SWAP1 PUSH2 0x4F94 JUMP JUMPDEST SWAP3 POP POP DUP2 SWAP1 SSTORE POP JUMPDEST POP POP DUP1 PUSH2 0x3677 SWAP1 PUSH2 0x4BCE JUMP JUMPDEST SWAP1 POP PUSH2 0x3480 JUMP JUMPDEST POP PUSH1 0x1 DUP4 MLOAD SUB PUSH2 0x3739 JUMPI PUSH0 PUSH2 0x369C PUSH0 DUP6 PUSH2 0x2E8B SWAP1 SWAP2 SWAP1 PUSH4 0xFFFFFFFF AND JUMP JUMPDEST SWAP1 POP PUSH0 PUSH2 0x36B2 PUSH0 DUP6 PUSH2 0x2E8B SWAP1 SWAP2 SWAP1 PUSH4 0xFFFFFFFF AND JUMP JUMPDEST SWAP1 POP DUP6 PUSH20 0xFFFFFFFFFFFFFFFFFFFFFFFFFFFFFFFFFFFFFFFF AND DUP8 PUSH20 0xFFFFFFFFFFFFFFFFFFFFFFFFFFFFFFFFFFFFFFFF AND DUP5 PUSH20 0xFFFFFFFFFFFFFFFFFFFFFFFFFFFFFFFFFFFFFFFF AND PUSH32 0xC3D58168C5AE7397731D063D5BBF3D657854427343F4C083240F7AACAA2D0F62 DUP6 DUP6 PUSH1 0x40 MLOAD PUSH2 0x372A SWAP3 SWAP2 SWAP1 PUSH2 0x4E78 JUMP JUMPDEST PUSH1 0x40 MLOAD DUP1 SWAP2 SUB SWAP1 LOG4 POP POP PUSH2 0x37B8 JUMP JUMPDEST DUP4 PUSH20 0xFFFFFFFFFFFFFFFFFFFFFFFFFFFFFFFFFFFFFFFF AND DUP6 PUSH20 0xFFFFFFFFFFFFFFFFFFFFFFFFFFFFFFFFFFFFFFFF AND DUP3 PUSH20 0xFFFFFFFFFFFFFFFFFFFFFFFFFFFFFFFFFFFFFFFF AND PUSH32 0x4A39DC06D4C0DBC64B70AF90FD698A233A518AA5D07E595D983B8C0526C8F7FB DUP7 DUP7 PUSH1 0x40 MLOAD PUSH2 0x37AF SWAP3 SWAP2 SWAP1 PUSH2 0x55E5 JUMP JUMPDEST PUSH1 0x40 MLOAD DUP1 SWAP2 SUB SWAP1 LOG4 JUMPDEST POP POP POP POP POP JUMP JUMPDEST PUSH0 DUP5 PUSH20 0xFFFFFFFFFFFFFFFFFFFFFFFFFFFFFFFFFFFFFFFF AND EXTCODESIZE GT ISZERO PUSH2 0x3966 JUMPI DUP4 PUSH20 0xFFFFFFFFFFFFFFFFFFFFFFFFFFFFFFFFFFFFFFFF AND PUSH4 0xF23A6E61 DUP8 DUP8 DUP7 DUP7 DUP7 PUSH1 0x40 MLOAD DUP7 PUSH4 0xFFFFFFFF AND PUSH1 0xE0 SHL DUP2 MSTORE PUSH1 0x4 ADD PUSH2 0x381F SWAP6 SWAP5 SWAP4 SWAP3 SWAP2 SWAP1 PUSH2 0x561A JUMP JUMPDEST PUSH1 0x20 PUSH1 0x40 MLOAD DUP1 DUP4 SUB DUP2 PUSH0 DUP8 GAS CALL SWAP3 POP POP POP DUP1 ISZERO PUSH2 0x385A JUMPI POP PUSH1 0x40 MLOAD RETURNDATASIZE PUSH1 0x1F NOT PUSH1 0x1F DUP3 ADD AND DUP3 ADD DUP1 PUSH1 0x40 MSTORE POP DUP2 ADD SWAP1 PUSH2 0x3857 SWAP2 SWAP1 PUSH2 0x5686 JUMP JUMPDEST PUSH1 0x1 JUMPDEST PUSH2 0x38DB JUMPI RETURNDATASIZE DUP1 PUSH0 DUP2 EQ PUSH2 0x3888 JUMPI PUSH1 0x40 MLOAD SWAP2 POP PUSH1 0x1F NOT PUSH1 0x3F RETURNDATASIZE ADD AND DUP3 ADD PUSH1 0x40 MSTORE RETURNDATASIZE DUP3 MSTORE RETURNDATASIZE PUSH0 PUSH1 0x20 DUP5 ADD RETURNDATACOPY PUSH2 0x388D JUMP JUMPDEST PUSH1 0x60 SWAP2 POP JUMPDEST POP PUSH0 DUP2 MLOAD SUB PUSH2 0x38D3 JUMPI DUP5 PUSH1 0x40 MLOAD PUSH32 0x57F447CE00000000000000000000000000000000000000000000000000000000 DUP2 MSTORE PUSH1 0x4 ADD PUSH2 0x38CA SWAP2 SWAP1 PUSH2 0x4FC7 JUMP JUMPDEST PUSH1 0x40 MLOAD DUP1 SWAP2 SUB SWAP1 REVERT JUMPDEST DUP1 MLOAD DUP2 PUSH1 0x20 ADD REVERT JUMPDEST PUSH4 0xF23A6E61 PUSH1 0xE0 SHL PUSH28 0xFFFFFFFFFFFFFFFFFFFFFFFFFFFFFFFFFFFFFFFFFFFFFFFFFFFFFFFF NOT AND DUP2 PUSH28 0xFFFFFFFFFFFFFFFFFFFFFFFFFFFFFFFFFFFFFFFFFFFFFFFFFFFFFFFF NOT AND EQ PUSH2 0x3964 JUMPI DUP5 PUSH1 0x40 MLOAD PUSH32 0x57F447CE00000000000000000000000000000000000000000000000000000000 DUP2 MSTORE PUSH1 0x4 ADD PUSH2 0x395B SWAP2 SWAP1 PUSH2 0x4FC7 JUMP JUMPDEST PUSH1 0x40 MLOAD DUP1 SWAP2 SUB SWAP1 REVERT JUMPDEST POP JUMPDEST POP POP POP POP POP POP JUMP JUMPDEST PUSH0 DUP5 PUSH20 0xFFFFFFFFFFFFFFFFFFFFFFFFFFFFFFFFFFFFFFFF AND EXTCODESIZE GT ISZERO PUSH2 0x3B15 JUMPI DUP4 PUSH20 0xFFFFFFFFFFFFFFFFFFFFFFFFFFFFFFFFFFFFFFFF AND PUSH4 0xBC197C81 DUP8 DUP8 DUP7 DUP7 DUP7 PUSH1 0x40 MLOAD DUP7 PUSH4 0xFFFFFFFF AND PUSH1 0xE0 SHL DUP2 MSTORE PUSH1 0x4 ADD PUSH2 0x39CE SWAP6 SWAP5 SWAP4 SWAP3 SWAP2 SWAP1 PUSH2 0x56B1 JUMP JUMPDEST PUSH1 0x20 PUSH1 0x40 MLOAD DUP1 DUP4 SUB DUP2 PUSH0 DUP8 GAS CALL SWAP3 POP POP POP DUP1 ISZERO PUSH2 0x3A09 JUMPI POP PUSH1 0x40 MLOAD RETURNDATASIZE PUSH1 0x1F NOT PUSH1 0x1F DUP3 ADD AND DUP3 ADD DUP1 PUSH1 0x40 MSTORE POP DUP2 ADD SWAP1 PUSH2 0x3A06 SWAP2 SWAP1 PUSH2 0x5686 JUMP JUMPDEST PUSH1 0x1 JUMPDEST PUSH2 0x3A8A JUMPI RETURNDATASIZE DUP1 PUSH0 DUP2 EQ PUSH2 0x3A37 JUMPI PUSH1 0x40 MLOAD SWAP2 POP PUSH1 0x1F NOT PUSH1 0x3F RETURNDATASIZE ADD AND DUP3 ADD PUSH1 0x40 MSTORE RETURNDATASIZE DUP3 MSTORE RETURNDATASIZE PUSH0 PUSH1 0x20 DUP5 ADD RETURNDATACOPY PUSH2 0x3A3C JUMP JUMPDEST PUSH1 0x60 SWAP2 POP JUMPDEST POP PUSH0 DUP2 MLOAD SUB PUSH2 0x3A82 JUMPI DUP5 PUSH1 0x40 MLOAD PUSH32 0x57F447CE00000000000000000000000000000000000000000000000000000000 DUP2 MSTORE PUSH1 0x4 ADD PUSH2 0x3A79 SWAP2 SWAP1 PUSH2 0x4FC7 JUMP JUMPDEST PUSH1 0x40 MLOAD DUP1 SWAP2 SUB SWAP1 REVERT JUMPDEST DUP1 MLOAD DUP2 PUSH1 0x20 ADD REVERT JUMPDEST PUSH4 0xBC197C81 PUSH1 0xE0 SHL PUSH28 0xFFFFFFFFFFFFFFFFFFFFFFFFFFFFFFFFFFFFFFFFFFFFFFFFFFFFFFFF NOT AND DUP2 PUSH28 0xFFFFFFFFFFFFFFFFFFFFFFFFFFFFFFFFFFFFFFFFFFFFFFFFFFFFFFFF NOT AND EQ PUSH2 0x3B13 JUMPI DUP5 PUSH1 0x40 MLOAD PUSH32 0x57F447CE00000000000000000000000000000000000000000000000000000000 DUP2 MSTORE PUSH1 0x4 ADD PUSH2 0x3B0A SWAP2 SWAP1 PUSH2 0x4FC7 JUMP JUMPDEST PUSH1 0x40 MLOAD DUP1 SWAP2 SUB SWAP1 REVERT JUMPDEST POP JUMPDEST POP POP POP POP POP POP JUMP JUMPDEST PUSH0 PUSH32 0x1FFC9A700000000000000000000000000000000000000000000000000000000 PUSH28 0xFFFFFFFFFFFFFFFFFFFFFFFFFFFFFFFFFFFFFFFFFFFFFFFFFFFFFFFF NOT AND DUP3 PUSH28 0xFFFFFFFFFFFFFFFFFFFFFFFFFFFFFFFFFFFFFFFFFFFFFFFFFFFFFFFF NOT AND EQ SWAP1 POP SWAP2 SWAP1 POP JUMP JUMPDEST PUSH1 0x40 MLOAD DUP1 PUSH1 0x80 ADD PUSH1 0x40 MSTORE DUP1 PUSH0 PUSH20 0xFFFFFFFFFFFFFFFFFFFFFFFFFFFFFFFFFFFFFFFF AND DUP2 MSTORE PUSH1 0x20 ADD PUSH0 PUSH1 0x3 DUP2 GT ISZERO PUSH2 0x3BC0 JUMPI PUSH2 0x3BBF PUSH2 0x4458 JUMP JUMPDEST JUMPDEST DUP2 MSTORE PUSH1 0x20 ADD PUSH0 DUP2 MSTORE PUSH1 0x20 ADD PUSH0 DUP2 MSTORE POP SWAP1 JUMP JUMPDEST PUSH1 0x40 MLOAD DUP1 PUSH1 0xE0 ADD PUSH1 0x40 MSTORE DUP1 PUSH0 DUP2 MSTORE PUSH1 0x20 ADD PUSH1 0x60 DUP2 MSTORE PUSH1 0x20 ADD PUSH1 0x60 DUP2 MSTORE PUSH1 0x20 ADD PUSH0 DUP2 MSTORE PUSH1 0x20 ADD PUSH0 DUP2 MSTORE PUSH1 0x20 ADD PUSH0 DUP2 MSTORE PUSH1 0x20 ADD PUSH0 PUSH20 0xFFFFFFFFFFFFFFFFFFFFFFFFFFFFFFFFFFFFFFFF AND DUP2 MSTORE POP SWAP1 JUMP JUMPDEST PUSH0 PUSH1 0x40 MLOAD SWAP1 POP SWAP1 JUMP JUMPDEST PUSH0 DUP1 REVERT JUMPDEST PUSH0 DUP1 REVERT JUMPDEST PUSH0 PUSH20 0xFFFFFFFFFFFFFFFFFFFFFFFFFFFFFFFFFFFFFFFF DUP3 AND SWAP1 POP SWAP2 SWAP1 POP JUMP JUMPDEST PUSH0 PUSH2 0x3C5A DUP3 PUSH2 0x3C31 JUMP JUMPDEST SWAP1 POP SWAP2 SWAP1 POP JUMP JUMPDEST PUSH2 0x3C6A DUP2 PUSH2 0x3C50 JUMP JUMPDEST DUP2 EQ PUSH2 0x3C74 JUMPI PUSH0 DUP1 REVERT JUMPDEST POP JUMP JUMPDEST PUSH0 DUP2 CALLDATALOAD SWAP1 POP PUSH2 0x3C85 DUP2 PUSH2 0x3C61 JUMP JUMPDEST SWAP3 SWAP2 POP POP JUMP JUMPDEST PUSH0 DUP2 SWAP1 POP SWAP2 SWAP1 POP JUMP JUMPDEST PUSH2 0x3C9D DUP2 PUSH2 0x3C8B JUMP JUMPDEST DUP2 EQ PUSH2 0x3CA7 JUMPI PUSH0 DUP1 REVERT JUMPDEST POP JUMP JUMPDEST PUSH0 DUP2 CALLDATALOAD SWAP1 POP PUSH2 0x3CB8 DUP2 PUSH2 0x3C94 JUMP JUMPDEST SWAP3 SWAP2 POP POP JUMP JUMPDEST PUSH0 DUP1 PUSH1 0x40 DUP4 DUP6 SUB SLT ISZERO PUSH2 0x3CD4 JUMPI PUSH2 0x3CD3 PUSH2 0x3C29 JUMP JUMPDEST JUMPDEST PUSH0 PUSH2 0x3CE1 DUP6 DUP3 DUP7 ADD PUSH2 0x3C77 JUMP JUMPDEST SWAP3 POP POP PUSH1 0x20 PUSH2 0x3CF2 DUP6 DUP3 DUP7 ADD PUSH2 0x3CAA JUMP JUMPDEST SWAP2 POP POP SWAP3 POP SWAP3 SWAP1 POP JUMP JUMPDEST PUSH2 0x3D05 DUP2 PUSH2 0x3C8B JUMP JUMPDEST DUP3 MSTORE POP POP JUMP JUMPDEST PUSH0 PUSH1 0x20 DUP3 ADD SWAP1 POP PUSH2 0x3D1E PUSH0 DUP4 ADD DUP5 PUSH2 0x3CFC JUMP JUMPDEST SWAP3 SWAP2 POP POP JUMP JUMPDEST PUSH0 PUSH32 0xFFFFFFFF00000000000000000000000000000000000000000000000000000000 DUP3 AND SWAP1 POP SWAP2 SWAP1 POP JUMP JUMPDEST PUSH2 0x3D58 DUP2 PUSH2 0x3D24 JUMP JUMPDEST DUP2 EQ PUSH2 0x3D62 JUMPI PUSH0 DUP1 REVERT JUMPDEST POP JUMP JUMPDEST PUSH0 DUP2 CALLDATALOAD SWAP1 POP PUSH2 0x3D73 DUP2 PUSH2 0x3D4F JUMP JUMPDEST SWAP3 SWAP2 POP POP JUMP JUMPDEST PUSH0 PUSH1 0x20 DUP3 DUP5 SUB SLT ISZERO PUSH2 0x3D8E JUMPI PUSH2 0x3D8D PUSH2 0x3C29 JUMP JUMPDEST JUMPDEST PUSH0 PUSH2 0x3D9B DUP5 DUP3 DUP6 ADD PUSH2 0x3D65 JUMP JUMPDEST SWAP2 POP POP SWAP3 SWAP2 POP POP JUMP JUMPDEST PUSH0 DUP2 ISZERO ISZERO SWAP1 POP SWAP2 SWAP1 POP JUMP JUMPDEST PUSH2 0x3DB8 DUP2 PUSH2 0x3DA4 JUMP JUMPDEST DUP3 MSTORE POP POP JUMP JUMPDEST PUSH0 PUSH1 0x20 DUP3 ADD SWAP1 POP PUSH2 0x3DD1 PUSH0 DUP4 ADD DUP5 PUSH2 0x3DAF JUMP JUMPDEST SWAP3 SWAP2 POP POP JUMP JUMPDEST PUSH0 PUSH1 0x20 DUP3 DUP5 SUB SLT ISZERO PUSH2 0x3DEC JUMPI PUSH2 0x3DEB PUSH2 0x3C29 JUMP JUMPDEST JUMPDEST PUSH0 PUSH2 0x3DF9 DUP5 DUP3 DUP6 ADD PUSH2 0x3CAA JUMP JUMPDEST SWAP2 POP POP SWAP3 SWAP2 POP POP JUMP JUMPDEST PUSH0 DUP2 MLOAD SWAP1 POP SWAP2 SWAP1 POP JUMP JUMPDEST PUSH0 DUP3 DUP3 MSTORE PUSH1 0x20 DUP3 ADD SWAP1 POP SWAP3 SWAP2 POP POP JUMP JUMPDEST PUSH0 JUMPDEST DUP4 DUP2 LT ISZERO PUSH2 0x3E39 JUMPI DUP1 DUP3 ADD MLOAD DUP2 DUP5 ADD MSTORE PUSH1 0x20 DUP2 ADD SWAP1 POP PUSH2 0x3E1E JUMP JUMPDEST PUSH0 DUP5 DUP5 ADD MSTORE POP POP POP POP JUMP JUMPDEST PUSH0 PUSH1 0x1F NOT PUSH1 0x1F DUP4 ADD AND SWAP1 POP SWAP2 SWAP1 POP JUMP JUMPDEST PUSH0 PUSH2 0x3E5E DUP3 PUSH2 0x3E02 JUMP JUMPDEST PUSH2 0x3E68 DUP2 DUP6 PUSH2 0x3E0C JUMP JUMPDEST SWAP4 POP PUSH2 0x3E78 DUP2 DUP6 PUSH1 0x20 DUP7 ADD PUSH2 0x3E1C JUMP JUMPDEST PUSH2 0x3E81 DUP2 PUSH2 0x3E44 JUMP JUMPDEST DUP5 ADD SWAP2 POP POP SWAP3 SWAP2 POP POP JUMP JUMPDEST PUSH0 PUSH1 0x20 DUP3 ADD SWAP1 POP DUP2 DUP2 SUB PUSH0 DUP4 ADD MSTORE PUSH2 0x3EA4 DUP2 DUP5 PUSH2 0x3E54 JUMP JUMPDEST SWAP1 POP SWAP3 SWAP2 POP POP JUMP JUMPDEST PUSH0 DUP1 REVERT JUMPDEST PUSH0 DUP1 REVERT JUMPDEST PUSH32 0x4E487B7100000000000000000000000000000000000000000000000000000000 PUSH0 MSTORE PUSH1 0x41 PUSH1 0x4 MSTORE PUSH1 0x24 PUSH0 REVERT JUMPDEST PUSH2 0x3EEA DUP3 PUSH2 0x3E44 JUMP JUMPDEST DUP2 ADD DUP2 DUP2 LT PUSH8 0xFFFFFFFFFFFFFFFF DUP3 GT OR ISZERO PUSH2 0x3F09 JUMPI PUSH2 0x3F08 PUSH2 0x3EB4 JUMP JUMPDEST JUMPDEST DUP1 PUSH1 0x40 MSTORE POP POP POP JUMP JUMPDEST PUSH0 PUSH2 0x3F1B PUSH2 0x3C20 JUMP JUMPDEST SWAP1 POP PUSH2 0x3F27 DUP3 DUP3 PUSH2 0x3EE1 JUMP JUMPDEST SWAP2 SWAP1 POP JUMP JUMPDEST PUSH0 PUSH8 0xFFFFFFFFFFFFFFFF DUP3 GT ISZERO PUSH2 0x3F46 JUMPI PUSH2 0x3F45 PUSH2 0x3EB4 JUMP JUMPDEST JUMPDEST PUSH2 0x3F4F DUP3 PUSH2 0x3E44 JUMP JUMPDEST SWAP1 POP PUSH1 0x20 DUP2 ADD SWAP1 POP SWAP2 SWAP1 POP JUMP JUMPDEST DUP3 DUP2 DUP4 CALLDATACOPY PUSH0 DUP4 DUP4 ADD MSTORE POP POP POP JUMP JUMPDEST PUSH0 PUSH2 0x3F7C PUSH2 0x3F77 DUP5 PUSH2 0x3F2C JUMP JUMPDEST PUSH2 0x3F12 JUMP JUMPDEST SWAP1 POP DUP3 DUP2 MSTORE PUSH1 0x20 DUP2 ADD DUP5 DUP5 DUP5 ADD GT ISZERO PUSH2 0x3F98 JUMPI PUSH2 0x3F97 PUSH2 0x3EB0 JUMP JUMPDEST JUMPDEST PUSH2 0x3FA3 DUP5 DUP3 DUP6 PUSH2 0x3F5C JUMP JUMPDEST POP SWAP4 SWAP3 POP POP POP JUMP JUMPDEST PUSH0 DUP3 PUSH1 0x1F DUP4 ADD SLT PUSH2 0x3FBF JUMPI PUSH2 0x3FBE PUSH2 0x3EAC JUMP JUMPDEST JUMPDEST DUP2 CALLDATALOAD PUSH2 0x3FCF DUP5 DUP3 PUSH1 0x20 DUP7 ADD PUSH2 0x3F6A JUMP JUMPDEST SWAP2 POP POP SWAP3 SWAP2 POP POP JUMP JUMPDEST PUSH0 DUP1 PUSH0 DUP1 PUSH1 0x80 DUP6 DUP8 SUB SLT ISZERO PUSH2 0x3FF0 JUMPI PUSH2 0x3FEF PUSH2 0x3C29 JUMP JUMPDEST JUMPDEST PUSH0 DUP6 ADD CALLDATALOAD PUSH8 0xFFFFFFFFFFFFFFFF DUP2 GT ISZERO PUSH2 0x400D JUMPI PUSH2 0x400C PUSH2 0x3C2D JUMP JUMPDEST JUMPDEST PUSH2 0x4019 DUP8 DUP3 DUP9 ADD PUSH2 0x3FAB JUMP JUMPDEST SWAP5 POP POP PUSH1 0x20 DUP6 ADD CALLDATALOAD PUSH8 0xFFFFFFFFFFFFFFFF DUP2 GT ISZERO PUSH2 0x403A JUMPI PUSH2 0x4039 PUSH2 0x3C2D JUMP JUMPDEST JUMPDEST PUSH2 0x4046 DUP8 DUP3 DUP9 ADD PUSH2 0x3FAB JUMP JUMPDEST SWAP4 POP POP PUSH1 0x40 PUSH2 0x4057 DUP8 DUP3 DUP9 ADD PUSH2 0x3CAA JUMP JUMPDEST SWAP3 POP POP PUSH1 0x60 PUSH2 0x4068 DUP8 DUP3 DUP9 ADD PUSH2 0x3CAA JUMP JUMPDEST SWAP2 POP POP SWAP3 SWAP6 SWAP2 SWAP5 POP SWAP3 POP JUMP JUMPDEST PUSH0 DUP2 SWAP1 POP SWAP2 SWAP1 POP JUMP JUMPDEST PUSH2 0x4086 DUP2 PUSH2 0x4074 JUMP JUMPDEST DUP2 EQ PUSH2 0x4090 JUMPI PUSH0 DUP1 REVERT JUMPDEST POP JUMP JUMPDEST PUSH0 DUP2 CALLDATALOAD SWAP1 POP PUSH2 0x40A1 DUP2 PUSH2 0x407D JUMP JUMPDEST SWAP3 SWAP2 POP POP JUMP JUMPDEST PUSH0 PUSH1 0x20 DUP3 DUP5 SUB SLT ISZERO PUSH2 0x40BC JUMPI PUSH2 0x40BB PUSH2 0x3C29 JUMP JUMPDEST JUMPDEST PUSH0 PUSH2 0x40C9 DUP5 DUP3 DUP6 ADD PUSH2 0x4093 JUMP JUMPDEST SWAP2 POP POP SWAP3 SWAP2 POP POP JUMP JUMPDEST PUSH2 0x40DB DUP2 PUSH2 0x4074 JUMP JUMPDEST DUP3 MSTORE POP POP JUMP JUMPDEST PUSH0 PUSH1 0x20 DUP3 ADD SWAP1 POP PUSH2 0x40F4 PUSH0 DUP4 ADD DUP5 PUSH2 0x40D2 JUMP JUMPDEST SWAP3 SWAP2 POP POP JUMP JUMPDEST PUSH0 PUSH8 0xFFFFFFFFFFFFFFFF DUP3 GT ISZERO PUSH2 0x4114 JUMPI PUSH2 0x4113 PUSH2 0x3EB4 JUMP JUMPDEST JUMPDEST PUSH1 0x20 DUP3 MUL SWAP1 POP PUSH1 0x20 DUP2 ADD SWAP1 POP SWAP2 SWAP1 POP JUMP JUMPDEST PUSH0 DUP1 REVERT JUMPDEST PUSH0 PUSH2 0x413B PUSH2 0x4136 DUP5 PUSH2 0x40FA JUMP JUMPDEST PUSH2 0x3F12 JUMP JUMPDEST SWAP1 POP DUP1 DUP4 DUP3 MSTORE PUSH1 0x20 DUP3 ADD SWAP1 POP PUSH1 0x20 DUP5 MUL DUP4 ADD DUP6 DUP2 GT ISZERO PUSH2 0x415E JUMPI PUSH2 0x415D PUSH2 0x4125 JUMP JUMPDEST JUMPDEST DUP4 JUMPDEST DUP2 DUP2 LT ISZERO PUSH2 0x4187 JUMPI DUP1 PUSH2 0x4173 DUP9 DUP3 PUSH2 0x3CAA JUMP JUMPDEST DUP5 MSTORE PUSH1 0x20 DUP5 ADD SWAP4 POP POP PUSH1 0x20 DUP2 ADD SWAP1 POP PUSH2 0x4160 JUMP JUMPDEST POP POP POP SWAP4 SWAP3 POP POP POP JUMP JUMPDEST PUSH0 DUP3 PUSH1 0x1F DUP4 ADD SLT PUSH2 0x41A5 JUMPI PUSH2 0x41A4 PUSH2 0x3EAC JUMP JUMPDEST JUMPDEST DUP2 CALLDATALOAD PUSH2 0x41B5 DUP5 DUP3 PUSH1 0x20 DUP7 ADD PUSH2 0x4129 JUMP JUMPDEST SWAP2 POP POP SWAP3 SWAP2 POP POP JUMP JUMPDEST PUSH0 PUSH8 0xFFFFFFFFFFFFFFFF DUP3 GT ISZERO PUSH2 0x41D8 JUMPI PUSH2 0x41D7 PUSH2 0x3EB4 JUMP JUMPDEST JUMPDEST PUSH2 0x41E1 DUP3 PUSH2 0x3E44 JUMP JUMPDEST SWAP1 POP PUSH1 0x20 DUP2 ADD SWAP1 POP SWAP2 SWAP1 POP JUMP JUMPDEST PUSH0 PUSH2 0x4200 PUSH2 0x41FB DUP5 PUSH2 0x41BE JUMP JUMPDEST PUSH2 0x3F12 JUMP JUMPDEST SWAP1 POP DUP3 DUP2 MSTORE PUSH1 0x20 DUP2 ADD DUP5 DUP5 DUP5 ADD GT ISZERO PUSH2 0x421C JUMPI PUSH2 0x421B PUSH2 0x3EB0 JUMP JUMPDEST JUMPDEST PUSH2 0x4227 DUP5 DUP3 DUP6 PUSH2 0x3F5C JUMP JUMPDEST POP SWAP4 SWAP3 POP POP POP JUMP JUMPDEST PUSH0 DUP3 PUSH1 0x1F DUP4 ADD SLT PUSH2 0x4243 JUMPI PUSH2 0x4242 PUSH2 0x3EAC JUMP JUMPDEST JUMPDEST DUP2 CALLDATALOAD PUSH2 0x4253 DUP5 DUP3 PUSH1 0x20 DUP7 ADD PUSH2 0x41EE JUMP JUMPDEST SWAP2 POP POP SWAP3 SWAP2 POP POP JUMP JUMPDEST PUSH0 DUP1 PUSH0 DUP1 PUSH0 PUSH1 0xA0 DUP7 DUP9 SUB SLT ISZERO PUSH2 0x4275 JUMPI PUSH2 0x4274 PUSH2 0x3C29 JUMP JUMPDEST JUMPDEST PUSH0 PUSH2 0x4282 DUP9 DUP3 DUP10 ADD PUSH2 0x3C77 JUMP JUMPDEST SWAP6 POP POP PUSH1 0x20 PUSH2 0x4293 DUP9 DUP3 DUP10 ADD PUSH2 0x3C77 JUMP JUMPDEST SWAP5 POP POP PUSH1 0x40 DUP7 ADD CALLDATALOAD PUSH8 0xFFFFFFFFFFFFFFFF DUP2 GT ISZERO PUSH2 0x42B4 JUMPI PUSH2 0x42B3 PUSH2 0x3C2D JUMP JUMPDEST JUMPDEST PUSH2 0x42C0 DUP9 DUP3 DUP10 ADD PUSH2 0x4191 JUMP JUMPDEST SWAP4 POP POP PUSH1 0x60 DUP7 ADD CALLDATALOAD PUSH8 0xFFFFFFFFFFFFFFFF DUP2 GT ISZERO PUSH2 0x42E1 JUMPI PUSH2 0x42E0 PUSH2 0x3C2D JUMP JUMPDEST JUMPDEST PUSH2 0x42ED DUP9 DUP3 DUP10 ADD PUSH2 0x4191 JUMP JUMPDEST SWAP3 POP POP PUSH1 0x80 DUP7 ADD CALLDATALOAD PUSH8 0xFFFFFFFFFFFFFFFF DUP2 GT ISZERO PUSH2 0x430E JUMPI PUSH2 0x430D PUSH2 0x3C2D JUMP JUMPDEST JUMPDEST PUSH2 0x431A DUP9 DUP3 DUP10 ADD PUSH2 0x422F JUMP JUMPDEST SWAP2 POP POP SWAP3 SWAP6 POP SWAP3 SWAP6 SWAP1 SWAP4 POP JUMP JUMPDEST PUSH0 DUP1 PUSH1 0x40 DUP4 DUP6 SUB SLT ISZERO PUSH2 0x433D JUMPI PUSH2 0x433C PUSH2 0x3C29 JUMP JUMPDEST JUMPDEST PUSH0 PUSH2 0x434A DUP6 DUP3 DUP7 ADD PUSH2 0x4093 JUMP JUMPDEST SWAP3 POP POP PUSH1 0x20 PUSH2 0x435B DUP6 DUP3 DUP7 ADD PUSH2 0x3C77 JUMP JUMPDEST SWAP2 POP POP SWAP3 POP SWAP3 SWAP1 POP JUMP JUMPDEST PUSH0 PUSH1 0x20 DUP3 DUP5 SUB SLT ISZERO PUSH2 0x437A JUMPI PUSH2 0x4379 PUSH2 0x3C29 JUMP JUMPDEST JUMPDEST PUSH0 PUSH2 0x4387 DUP5 DUP3 DUP6 ADD PUSH2 0x3C77 JUMP JUMPDEST SWAP2 POP POP SWAP3 SWAP2 POP POP JUMP JUMPDEST PUSH2 0x4399 DUP2 PUSH2 0x3C50 JUMP JUMPDEST DUP3 MSTORE POP POP JUMP JUMPDEST PUSH0 PUSH1 0xE0 DUP3 ADD SWAP1 POP PUSH2 0x43B2 PUSH0 DUP4 ADD DUP11 PUSH2 0x3CFC JUMP JUMPDEST DUP2 DUP2 SUB PUSH1 0x20 DUP4 ADD MSTORE PUSH2 0x43C4 DUP2 DUP10 PUSH2 0x3E54 JUMP JUMPDEST SWAP1 POP DUP2 DUP2 SUB PUSH1 0x40 DUP4 ADD MSTORE PUSH2 0x43D8 DUP2 DUP9 PUSH2 0x3E54 JUMP JUMPDEST SWAP1 POP PUSH2 0x43E7 PUSH1 0x60 DUP4 ADD DUP8 PUSH2 0x3CFC JUMP JUMPDEST PUSH2 0x43F4 PUSH1 0x80 DUP4 ADD DUP7 PUSH2 0x3CFC JUMP JUMPDEST PUSH2 0x4401 PUSH1 0xA0 DUP4 ADD DUP6 PUSH2 0x3CFC JUMP JUMPDEST PUSH2 0x440E PUSH1 0xC0 DUP4 ADD DUP5 PUSH2 0x4390 JUMP JUMPDEST SWAP9 SWAP8 POP POP POP POP POP POP POP POP JUMP JUMPDEST PUSH0 DUP1 PUSH1 0x40 DUP4 DUP6 SUB SLT ISZERO PUSH2 0x4430 JUMPI PUSH2 0x442F PUSH2 0x3C29 JUMP JUMPDEST JUMPDEST PUSH0 PUSH2 0x443D DUP6 DUP3 DUP7 ADD PUSH2 0x3CAA JUMP JUMPDEST SWAP3 POP POP PUSH1 0x20 PUSH2 0x444E DUP6 DUP3 DUP7 ADD PUSH2 0x3CAA JUMP JUMPDEST SWAP2 POP POP SWAP3 POP SWAP3 SWAP1 POP JUMP JUMPDEST PUSH32 0x4E487B7100000000000000000000000000000000000000000000000000000000 PUSH0 MSTORE PUSH1 0x21 PUSH1 0x4 MSTORE PUSH1 0x24 PUSH0 REVERT JUMPDEST PUSH1 0x4 DUP2 LT PUSH2 0x4496 JUMPI PUSH2 0x4495 PUSH2 0x4458 JUMP JUMPDEST JUMPDEST POP JUMP JUMPDEST PUSH0 DUP2 SWAP1 POP PUSH2 0x44A6 DUP3 PUSH2 0x4485 JUMP JUMPDEST SWAP2 SWAP1 POP JUMP JUMPDEST PUSH0 PUSH2 0x44B5 DUP3 PUSH2 0x4499 JUMP JUMPDEST SWAP1 POP SWAP2 SWAP1 POP JUMP JUMPDEST PUSH2 0x44C5 DUP2 PUSH2 0x44AB JUMP JUMPDEST DUP3 MSTORE POP POP JUMP JUMPDEST PUSH0 PUSH1 0x80 DUP3 ADD SWAP1 POP PUSH2 0x44DE PUSH0 DUP4 ADD DUP8 PUSH2 0x4390 JUMP JUMPDEST PUSH2 0x44EB PUSH1 0x20 DUP4 ADD DUP7 PUSH2 0x44BC JUMP JUMPDEST PUSH2 0x44F8 PUSH1 0x40 DUP4 ADD DUP6 PUSH2 0x3CFC JUMP JUMPDEST PUSH2 0x4505 PUSH1 0x60 DUP4 ADD DUP5 PUSH2 0x3CFC JUMP JUMPDEST SWAP6 SWAP5 POP POP POP POP POP JUMP JUMPDEST PUSH0 PUSH8 0xFFFFFFFFFFFFFFFF DUP3 GT ISZERO PUSH2 0x4528 JUMPI PUSH2 0x4527 PUSH2 0x3EB4 JUMP JUMPDEST JUMPDEST PUSH1 0x20 DUP3 MUL SWAP1 POP PUSH1 0x20 DUP2 ADD SWAP1 POP SWAP2 SWAP1 POP JUMP JUMPDEST PUSH0 PUSH2 0x454B PUSH2 0x4546 DUP5 PUSH2 0x450E JUMP JUMPDEST PUSH2 0x3F12 JUMP JUMPDEST SWAP1 POP DUP1 DUP4 DUP3 MSTORE PUSH1 0x20 DUP3 ADD SWAP1 POP PUSH1 0x20 DUP5 MUL DUP4 ADD DUP6 DUP2 GT ISZERO PUSH2 0x456E JUMPI PUSH2 0x456D PUSH2 0x4125 JUMP JUMPDEST JUMPDEST DUP4 JUMPDEST DUP2 DUP2 LT ISZERO PUSH2 0x4597 JUMPI DUP1 PUSH2 0x4583 DUP9 DUP3 PUSH2 0x3C77 JUMP JUMPDEST DUP5 MSTORE PUSH1 0x20 DUP5 ADD SWAP4 POP POP PUSH1 0x20 DUP2 ADD SWAP1 POP PUSH2 0x4570 JUMP JUMPDEST POP POP POP SWAP4 SWAP3 POP POP POP JUMP JUMPDEST PUSH0 DUP3 PUSH1 0x1F DUP4 ADD SLT PUSH2 0x45B5 JUMPI PUSH2 0x45B4 PUSH2 0x3EAC JUMP JUMPDEST JUMPDEST DUP2 CALLDATALOAD PUSH2 0x45C5 DUP5 DUP3 PUSH1 0x20 DUP7 ADD PUSH2 0x4539 JUMP JUMPDEST SWAP2 POP POP SWAP3 SWAP2 POP POP JUMP JUMPDEST PUSH0 DUP1 PUSH1 0x40 DUP4 DUP6 SUB SLT ISZERO PUSH2 0x45E4 JUMPI PUSH2 0x45E3 PUSH2 0x3C29 JUMP JUMPDEST JUMPDEST PUSH0 DUP4 ADD CALLDATALOAD PUSH8 0xFFFFFFFFFFFFFFFF DUP2 GT ISZERO PUSH2 0x4601 JUMPI PUSH2 0x4600 PUSH2 0x3C2D JUMP JUMPDEST JUMPDEST PUSH2 0x460D DUP6 DUP3 DUP7 ADD PUSH2 0x45A1 JUMP JUMPDEST SWAP3 POP POP PUSH1 0x20 DUP4 ADD CALLDATALOAD PUSH8 0xFFFFFFFFFFFFFFFF DUP2 GT ISZERO PUSH2 0x462E JUMPI PUSH2 0x462D PUSH2 0x3C2D JUMP JUMPDEST JUMPDEST PUSH2 0x463A DUP6 DUP3 DUP7 ADD PUSH2 0x4191 JUMP JUMPDEST SWAP2 POP POP SWAP3 POP SWAP3 SWAP1 POP JUMP JUMPDEST PUSH0 DUP2 MLOAD SWAP1 POP SWAP2 SWAP1 POP JUMP JUMPDEST PUSH0 DUP3 DUP3 MSTORE PUSH1 0x20 DUP3 ADD SWAP1 POP SWAP3 SWAP2 POP POP JUMP JUMPDEST PUSH0 DUP2 SWAP1 POP PUSH1 0x20 DUP3 ADD SWAP1 POP SWAP2 SWAP1 POP JUMP JUMPDEST PUSH2 0x4676 DUP2 PUSH2 0x3C8B JUMP JUMPDEST DUP3 MSTORE POP POP JUMP JUMPDEST PUSH0 PUSH2 0x4687 DUP4 DUP4 PUSH2 0x466D JUMP JUMPDEST PUSH1 0x20 DUP4 ADD SWAP1 POP SWAP3 SWAP2 POP POP JUMP JUMPDEST PUSH0 PUSH1 0x20 DUP3 ADD SWAP1 POP SWAP2 SWAP1 POP JUMP JUMPDEST PUSH0 PUSH2 0x46A9 DUP3 PUSH2 0x4644 JUMP JUMPDEST PUSH2 0x46B3 DUP2 DUP6 PUSH2 0x464E JUMP JUMPDEST SWAP4 POP PUSH2 0x46BE DUP4 PUSH2 0x465E JUMP JUMPDEST DUP1 PUSH0 JUMPDEST DUP4 DUP2 LT ISZERO PUSH2 0x46EE JUMPI DUP2 MLOAD PUSH2 0x46D5 DUP9 DUP3 PUSH2 0x467C JUMP JUMPDEST SWAP8 POP PUSH2 0x46E0 DUP4 PUSH2 0x4693 JUMP JUMPDEST SWAP3 POP POP PUSH1 0x1 DUP2 ADD SWAP1 POP PUSH2 0x46C1 JUMP JUMPDEST POP DUP6 SWAP4 POP POP POP POP SWAP3 SWAP2 POP POP JUMP JUMPDEST PUSH0 PUSH1 0x20 DUP3 ADD SWAP1 POP DUP2 DUP2 SUB PUSH0 DUP4 ADD MSTORE PUSH2 0x4713 DUP2 DUP5 PUSH2 0x469F JUMP JUMPDEST SWAP1 POP SWAP3 SWAP2 POP POP JUMP JUMPDEST PUSH0 DUP2 SWAP1 POP SWAP2 SWAP1 POP JUMP JUMPDEST PUSH0 PUSH2 0x473E PUSH2 0x4739 PUSH2 0x4734 DUP5 PUSH2 0x3C31 JUMP JUMPDEST PUSH2 0x471B JUMP JUMPDEST PUSH2 0x3C31 JUMP JUMPDEST SWAP1 POP SWAP2 SWAP1 POP JUMP JUMPDEST PUSH0 PUSH2 0x474F DUP3 PUSH2 0x4724 JUMP JUMPDEST SWAP1 POP SWAP2 SWAP1 POP JUMP JUMPDEST PUSH0 PUSH2 0x4760 DUP3 PUSH2 0x4745 JUMP JUMPDEST SWAP1 POP SWAP2 SWAP1 POP JUMP JUMPDEST PUSH2 0x4770 DUP2 PUSH2 0x4756 JUMP JUMPDEST DUP3 MSTORE POP POP JUMP JUMPDEST PUSH0 PUSH1 0x20 DUP3 ADD SWAP1 POP PUSH2 0x4789 PUSH0 DUP4 ADD DUP5 PUSH2 0x4767 JUMP JUMPDEST SWAP3 SWAP2 POP POP JUMP JUMPDEST PUSH2 0x4798 DUP2 PUSH2 0x3DA4 JUMP JUMPDEST DUP2 EQ PUSH2 0x47A2 JUMPI PUSH0 DUP1 REVERT JUMPDEST POP JUMP JUMPDEST PUSH0 DUP2 CALLDATALOAD SWAP1 POP PUSH2 0x47B3 DUP2 PUSH2 0x478F JUMP JUMPDEST SWAP3 SWAP2 POP POP JUMP JUMPDEST PUSH0 DUP1 PUSH0 PUSH1 0x60 DUP5 DUP7 SUB SLT ISZERO PUSH2 0x47D0 JUMPI PUSH2 0x47CF PUSH2 0x3C29 JUMP JUMPDEST JUMPDEST PUSH0 PUSH2 0x47DD DUP7 DUP3 DUP8 ADD PUSH2 0x3CAA JUMP JUMPDEST SWAP4 POP POP PUSH1 0x20 PUSH2 0x47EE DUP7 DUP3 DUP8 ADD PUSH2 0x3CAA JUMP JUMPDEST SWAP3 POP POP PUSH1 0x40 PUSH2 0x47FF DUP7 DUP3 DUP8 ADD PUSH2 0x47A5 JUMP JUMPDEST SWAP2 POP POP SWAP3 POP SWAP3 POP SWAP3 JUMP JUMPDEST PUSH0 DUP1 PUSH1 0x40 DUP4 DUP6 SUB SLT ISZERO PUSH2 0x481F JUMPI PUSH2 0x481E PUSH2 0x3C29 JUMP JUMPDEST JUMPDEST PUSH0 PUSH2 0x482C DUP6 DUP3 DUP7 ADD PUSH2 0x3C77 JUMP JUMPDEST SWAP3 POP POP PUSH1 0x20 PUSH2 0x483D DUP6 DUP3 DUP7 ADD PUSH2 0x47A5 JUMP JUMPDEST SWAP2 POP POP SWAP3 POP SWAP3 SWAP1 POP JUMP JUMPDEST PUSH0 DUP2 MLOAD SWAP1 POP SWAP2 SWAP1 POP JUMP JUMPDEST PUSH0 DUP3 DUP3 MSTORE PUSH1 0x20 DUP3 ADD SWAP1 POP SWAP3 SWAP2 POP POP JUMP JUMPDEST PUSH0 PUSH2 0x486B DUP3 PUSH2 0x4847 JUMP JUMPDEST PUSH2 0x4875 DUP2 DUP6 PUSH2 0x4851 JUMP JUMPDEST SWAP4 POP PUSH2 0x4885 DUP2 DUP6 PUSH1 0x20 DUP7 ADD PUSH2 0x3E1C JUMP JUMPDEST PUSH2 0x488E DUP2 PUSH2 0x3E44 JUMP JUMPDEST DUP5 ADD SWAP2 POP POP SWAP3 SWAP2 POP POP JUMP JUMPDEST PUSH0 PUSH1 0x20 DUP3 ADD SWAP1 POP DUP2 DUP2 SUB PUSH0 DUP4 ADD MSTORE PUSH2 0x48B1 DUP2 DUP5 PUSH2 0x4861 JUMP JUMPDEST SWAP1 POP SWAP3 SWAP2 POP POP JUMP JUMPDEST PUSH2 0x48C2 DUP2 PUSH2 0x3D24 JUMP JUMPDEST DUP3 MSTORE POP POP JUMP JUMPDEST PUSH0 PUSH1 0x20 DUP3 ADD SWAP1 POP PUSH2 0x48DB PUSH0 DUP4 ADD DUP5 PUSH2 0x48B9 JUMP JUMPDEST SWAP3 SWAP2 POP POP JUMP JUMPDEST PUSH2 0x48EA DUP2 PUSH2 0x3C50 JUMP JUMPDEST DUP3 MSTORE POP POP JUMP JUMPDEST PUSH2 0x48F9 DUP2 PUSH2 0x44AB JUMP JUMPDEST DUP3 MSTORE POP POP JUMP JUMPDEST PUSH1 0x80 DUP3 ADD PUSH0 DUP3 ADD MLOAD PUSH2 0x4913 PUSH0 DUP6 ADD DUP3 PUSH2 0x48E1 JUMP JUMPDEST POP PUSH1 0x20 DUP3 ADD MLOAD PUSH2 0x4926 PUSH1 0x20 DUP6 ADD DUP3 PUSH2 0x48F0 JUMP JUMPDEST POP PUSH1 0x40 DUP3 ADD MLOAD PUSH2 0x4939 PUSH1 0x40 DUP6 ADD DUP3 PUSH2 0x466D JUMP JUMPDEST POP PUSH1 0x60 DUP3 ADD MLOAD PUSH2 0x494C PUSH1 0x60 DUP6 ADD DUP3 PUSH2 0x466D JUMP JUMPDEST POP POP POP POP JUMP JUMPDEST PUSH0 PUSH1 0x80 DUP3 ADD SWAP1 POP PUSH2 0x4965 PUSH0 DUP4 ADD DUP5 PUSH2 0x48FF JUMP JUMPDEST SWAP3 SWAP2 POP POP JUMP JUMPDEST PUSH0 DUP1 PUSH1 0x40 DUP4 DUP6 SUB SLT ISZERO PUSH2 0x4981 JUMPI PUSH2 0x4980 PUSH2 0x3C29 JUMP JUMPDEST JUMPDEST PUSH0 PUSH2 0x498E DUP6 DUP3 DUP7 ADD PUSH2 0x3C77 JUMP JUMPDEST SWAP3 POP POP PUSH1 0x20 PUSH2 0x499F DUP6 DUP3 DUP7 ADD PUSH2 0x3C77 JUMP JUMPDEST SWAP2 POP POP SWAP3 POP SWAP3 SWAP1 POP JUMP JUMPDEST PUSH0 DUP3 DUP3 MSTORE PUSH1 0x20 DUP3 ADD SWAP1 POP SWAP3 SWAP2 POP POP JUMP JUMPDEST PUSH0 PUSH2 0x49C3 DUP3 PUSH2 0x3E02 JUMP JUMPDEST PUSH2 0x49CD DUP2 DUP6 PUSH2 0x49A9 JUMP JUMPDEST SWAP4 POP PUSH2 0x49DD DUP2 DUP6 PUSH1 0x20 DUP7 ADD PUSH2 0x3E1C JUMP JUMPDEST PUSH2 0x49E6 DUP2 PUSH2 0x3E44 JUMP JUMPDEST DUP5 ADD SWAP2 POP POP SWAP3 SWAP2 POP POP JUMP JUMPDEST PUSH0 PUSH1 0xE0 DUP4 ADD PUSH0 DUP4 ADD MLOAD PUSH2 0x4A06 PUSH0 DUP7 ADD DUP3 PUSH2 0x466D JUMP JUMPDEST POP PUSH1 0x20 DUP4 ADD MLOAD DUP5 DUP3 SUB PUSH1 0x20 DUP7 ADD MSTORE PUSH2 0x4A1E DUP3 DUP3 PUSH2 0x49B9 JUMP JUMPDEST SWAP2 POP POP PUSH1 0x40 DUP4 ADD MLOAD DUP5 DUP3 SUB PUSH1 0x40 DUP7 ADD MSTORE PUSH2 0x4A38 DUP3 DUP3 PUSH2 0x49B9 JUMP JUMPDEST SWAP2 POP POP PUSH1 0x60 DUP4 ADD MLOAD PUSH2 0x4A4D PUSH1 0x60 DUP7 ADD DUP3 PUSH2 0x466D JUMP JUMPDEST POP PUSH1 0x80 DUP4 ADD MLOAD PUSH2 0x4A60 PUSH1 0x80 DUP7 ADD DUP3 PUSH2 0x466D JUMP JUMPDEST POP PUSH1 0xA0 DUP4 ADD MLOAD PUSH2 0x4A73 PUSH1 0xA0 DUP7 ADD DUP3 PUSH2 0x466D JUMP JUMPDEST POP PUSH1 0xC0 DUP4 ADD MLOAD PUSH2 0x4A86 PUSH1 0xC0 DUP7 ADD DUP3 PUSH2 0x48E1 JUMP JUMPDEST POP DUP1 SWAP2 POP POP SWAP3 SWAP2 POP POP JUMP JUMPDEST PUSH0 PUSH1 0x20 DUP3 ADD SWAP1 POP DUP2 DUP2 SUB PUSH0 DUP4 ADD MSTORE PUSH2 0x4AA9 DUP2 DUP5 PUSH2 0x49F1 JUMP JUMPDEST SWAP1 POP SWAP3 SWAP2 POP POP JUMP JUMPDEST PUSH0 DUP1 PUSH0 DUP1 PUSH0 PUSH1 0xA0 DUP7 DUP9 SUB SLT ISZERO PUSH2 0x4ACA JUMPI PUSH2 0x4AC9 PUSH2 0x3C29 JUMP JUMPDEST JUMPDEST PUSH0 PUSH2 0x4AD7 DUP9 DUP3 DUP10 ADD PUSH2 0x3C77 JUMP JUMPDEST SWAP6 POP POP PUSH1 0x20 PUSH2 0x4AE8 DUP9 DUP3 DUP10 ADD PUSH2 0x3C77 JUMP JUMPDEST SWAP5 POP POP PUSH1 0x40 PUSH2 0x4AF9 DUP9 DUP3 DUP10 ADD PUSH2 0x3CAA JUMP JUMPDEST SWAP4 POP POP PUSH1 0x60 PUSH2 0x4B0A DUP9 DUP3 DUP10 ADD PUSH2 0x3CAA JUMP JUMPDEST SWAP3 POP POP PUSH1 0x80 DUP7 ADD CALLDATALOAD PUSH8 0xFFFFFFFFFFFFFFFF DUP2 GT ISZERO PUSH2 0x4B2B JUMPI PUSH2 0x4B2A PUSH2 0x3C2D JUMP JUMPDEST JUMPDEST PUSH2 0x4B37 DUP9 DUP3 DUP10 ADD PUSH2 0x422F JUMP JUMPDEST SWAP2 POP POP SWAP3 SWAP6 POP SWAP3 SWAP6 SWAP1 SWAP4 POP JUMP JUMPDEST PUSH32 0x4E487B7100000000000000000000000000000000000000000000000000000000 PUSH0 MSTORE PUSH1 0x22 PUSH1 0x4 MSTORE PUSH1 0x24 PUSH0 REVERT JUMPDEST PUSH0 PUSH1 0x2 DUP3 DIV SWAP1 POP PUSH1 0x1 DUP3 AND DUP1 PUSH2 0x4B88 JUMPI PUSH1 0x7F DUP3 AND SWAP2 POP JUMPDEST PUSH1 0x20 DUP3 LT DUP2 SUB PUSH2 0x4B9B JUMPI PUSH2 0x4B9A PUSH2 0x4B44 JUMP JUMPDEST JUMPDEST POP SWAP2 SWAP1 POP JUMP JUMPDEST PUSH32 0x4E487B7100000000000000000000000000000000000000000000000000000000 PUSH0 MSTORE PUSH1 0x11 PUSH1 0x4 MSTORE PUSH1 0x24 PUSH0 REVERT JUMPDEST PUSH0 PUSH2 0x4BD8 DUP3 PUSH2 0x3C8B JUMP JUMPDEST SWAP2 POP PUSH32 0xFFFFFFFFFFFFFFFFFFFFFFFFFFFFFFFFFFFFFFFFFFFFFFFFFFFFFFFFFFFFFFFF DUP3 SUB PUSH2 0x4C0A JUMPI PUSH2 0x4C09 PUSH2 0x4BA1 JUMP JUMPDEST JUMPDEST PUSH1 0x1 DUP3 ADD SWAP1 POP SWAP2 SWAP1 POP JUMP JUMPDEST PUSH0 DUP2 SWAP1 POP DUP2 PUSH0 MSTORE PUSH1 0x20 PUSH0 KECCAK256 SWAP1 POP SWAP2 SWAP1 POP JUMP JUMPDEST PUSH0 PUSH1 0x20 PUSH1 0x1F DUP4 ADD DIV SWAP1 POP SWAP2 SWAP1 POP JUMP JUMPDEST PUSH0 DUP3 DUP3 SHL SWAP1 POP SWAP3 SWAP2 POP POP JUMP JUMPDEST PUSH0 PUSH1 0x8 DUP4 MUL PUSH2 0x4C71 PUSH32 0xFFFFFFFFFFFFFFFFFFFFFFFFFFFFFFFFFFFFFFFFFFFFFFFFFFFFFFFFFFFFFFFF DUP3 PUSH2 0x4C36 JUMP JUMPDEST PUSH2 0x4C7B DUP7 DUP4 PUSH2 0x4C36 JUMP JUMPDEST SWAP6 POP DUP1 NOT DUP5 AND SWAP4 POP DUP1 DUP7 AND DUP5 OR SWAP3 POP POP POP SWAP4 SWAP3 POP POP POP JUMP JUMPDEST PUSH0 PUSH2 0x4CAD PUSH2 0x4CA8 PUSH2 0x4CA3 DUP5 PUSH2 0x3C8B JUMP JUMPDEST PUSH2 0x471B JUMP JUMPDEST PUSH2 0x3C8B JUMP JUMPDEST SWAP1 POP SWAP2 SWAP1 POP JUMP JUMPDEST PUSH0 DUP2 SWAP1 POP SWAP2 SWAP1 POP JUMP JUMPDEST PUSH2 0x4CC6 DUP4 PUSH2 0x4C93 JUMP JUMPDEST PUSH2 0x4CDA PUSH2 0x4CD2 DUP3 PUSH2 0x4CB4 JUMP JUMPDEST DUP5 DUP5 SLOAD PUSH2 0x4C42 JUMP JUMPDEST DUP3 SSTORE POP POP POP POP JUMP JUMPDEST PUSH0 SWAP1 JUMP JUMPDEST PUSH2 0x4CEE PUSH2 0x4CE2 JUMP JUMPDEST PUSH2 0x4CF9 DUP2 DUP5 DUP5 PUSH2 0x4CBD JUMP JUMPDEST POP POP POP JUMP JUMPDEST JUMPDEST DUP2 DUP2 LT ISZERO PUSH2 0x4D1C JUMPI PUSH2 0x4D11 PUSH0 DUP3 PUSH2 0x4CE6 JUMP JUMPDEST PUSH1 0x1 DUP2 ADD SWAP1 POP PUSH2 0x4CFF JUMP JUMPDEST POP POP JUMP JUMPDEST PUSH1 0x1F DUP3 GT ISZERO PUSH2 0x4D61 JUMPI PUSH2 0x4D32 DUP2 PUSH2 0x4C15 JUMP JUMPDEST PUSH2 0x4D3B DUP5 PUSH2 0x4C27 JUMP JUMPDEST DUP2 ADD PUSH1 0x20 DUP6 LT ISZERO PUSH2 0x4D4A JUMPI DUP2 SWAP1 POP JUMPDEST PUSH2 0x4D5E PUSH2 0x4D56 DUP6 PUSH2 0x4C27 JUMP JUMPDEST DUP4 ADD DUP3 PUSH2 0x4CFE JUMP JUMPDEST POP POP JUMPDEST POP POP POP JUMP JUMPDEST PUSH0 DUP3 DUP3 SHR SWAP1 POP SWAP3 SWAP2 POP POP JUMP JUMPDEST PUSH0 PUSH2 0x4D81 PUSH0 NOT DUP5 PUSH1 0x8 MUL PUSH2 0x4D66 JUMP JUMPDEST NOT DUP1 DUP4 AND SWAP2 POP POP SWAP3 SWAP2 POP POP JUMP JUMPDEST PUSH0 PUSH2 0x4D99 DUP4 DUP4 PUSH2 0x4D72 JUMP JUMPDEST SWAP2 POP DUP3 PUSH1 0x2 MUL DUP3 OR SWAP1 POP SWAP3 SWAP2 POP POP JUMP JUMPDEST PUSH2 0x4DB2 DUP3 PUSH2 0x3E02 JUMP JUMPDEST PUSH8 0xFFFFFFFFFFFFFFFF DUP2 GT ISZERO PUSH2 0x4DCB JUMPI PUSH2 0x4DCA PUSH2 0x3EB4 JUMP JUMPDEST JUMPDEST PUSH2 0x4DD5 DUP3 SLOAD PUSH2 0x4B71 JUMP JUMPDEST PUSH2 0x4DE0 DUP3 DUP3 DUP6 PUSH2 0x4D20 JUMP JUMPDEST PUSH0 PUSH1 0x20 SWAP1 POP PUSH1 0x1F DUP4 GT PUSH1 0x1 DUP2 EQ PUSH2 0x4E11 JUMPI PUSH0 DUP5 ISZERO PUSH2 0x4DFF JUMPI DUP3 DUP8 ADD MLOAD SWAP1 POP JUMPDEST PUSH2 0x4E09 DUP6 DUP3 PUSH2 0x4D8E JUMP JUMPDEST DUP7 SSTORE POP PUSH2 0x4E70 JUMP JUMPDEST PUSH1 0x1F NOT DUP5 AND PUSH2 0x4E1F DUP7 PUSH2 0x4C15 JUMP JUMPDEST PUSH0 JUMPDEST DUP3 DUP2 LT ISZERO PUSH2 0x4E46 JUMPI DUP5 DUP10 ADD MLOAD DUP3 SSTORE PUSH1 0x1 DUP3 ADD SWAP2 POP PUSH1 0x20 DUP6 ADD SWAP5 POP PUSH1 0x20 DUP2 ADD SWAP1 POP PUSH2 0x4E21 JUMP JUMPDEST DUP7 DUP4 LT ISZERO PUSH2 0x4E63 JUMPI DUP5 DUP10 ADD MLOAD PUSH2 0x4E5F PUSH1 0x1F DUP10 AND DUP3 PUSH2 0x4D72 JUMP JUMPDEST DUP4 SSTORE POP JUMPDEST PUSH1 0x1 PUSH1 0x2 DUP9 MUL ADD DUP9 SSTORE POP POP POP JUMPDEST POP POP POP POP POP POP JUMP JUMPDEST PUSH0 PUSH1 0x40 DUP3 ADD SWAP1 POP PUSH2 0x4E8B PUSH0 DUP4 ADD DUP6 PUSH2 0x3CFC JUMP JUMPDEST PUSH2 0x4E98 PUSH1 0x20 DUP4 ADD DUP5 PUSH2 0x3CFC JUMP JUMPDEST SWAP4 SWAP3 POP POP POP JUMP JUMPDEST PUSH0 PUSH1 0x40 DUP3 ADD SWAP1 POP PUSH2 0x4EB2 PUSH0 DUP4 ADD DUP6 PUSH2 0x4390 JUMP JUMPDEST PUSH2 0x4EBF PUSH1 0x20 DUP4 ADD DUP5 PUSH2 0x4390 JUMP JUMPDEST SWAP4 SWAP3 POP POP POP JUMP JUMPDEST PUSH0 PUSH1 0x40 DUP3 ADD SWAP1 POP PUSH2 0x4ED9 PUSH0 DUP4 ADD DUP6 PUSH2 0x4390 JUMP JUMPDEST PUSH2 0x4EE6 PUSH1 0x20 DUP4 ADD DUP5 PUSH2 0x3CFC JUMP JUMPDEST SWAP4 SWAP3 POP POP POP JUMP JUMPDEST PUSH0 DUP2 MLOAD SWAP1 POP PUSH2 0x4EFB DUP2 PUSH2 0x478F JUMP JUMPDEST SWAP3 SWAP2 POP POP JUMP JUMPDEST PUSH0 PUSH1 0x20 DUP3 DUP5 SUB SLT ISZERO PUSH2 0x4F16 JUMPI PUSH2 0x4F15 PUSH2 0x3C29 JUMP JUMPDEST JUMPDEST PUSH0 PUSH2 0x4F23 DUP5 DUP3 DUP6 ADD PUSH2 0x4EED JUMP JUMPDEST SWAP2 POP POP SWAP3 SWAP2 POP POP JUMP JUMPDEST PUSH32 0x537461626C6520636F696E20726566756E64206661696C656400000000000000 PUSH0 DUP3 ADD MSTORE POP JUMP JUMPDEST PUSH0 PUSH2 0x4F60 PUSH1 0x19 DUP4 PUSH2 0x3E0C JUMP JUMPDEST SWAP2 POP PUSH2 0x4F6B DUP3 PUSH2 0x4F2C JUMP JUMPDEST PUSH1 0x20 DUP3 ADD SWAP1 POP SWAP2 SWAP1 POP JUMP JUMPDEST PUSH0 PUSH1 0x20 DUP3 ADD SWAP1 POP DUP2 DUP2 SUB PUSH0 DUP4 ADD MSTORE PUSH2 0x4F8D DUP2 PUSH2 0x4F54 JUMP JUMPDEST SWAP1 POP SWAP2 SWAP1 POP JUMP JUMPDEST PUSH0 PUSH2 0x4F9E DUP3 PUSH2 0x3C8B JUMP JUMPDEST SWAP2 POP PUSH2 0x4FA9 DUP4 PUSH2 0x3C8B JUMP JUMPDEST SWAP3 POP DUP3 DUP3 ADD SWAP1 POP DUP1 DUP3 GT ISZERO PUSH2 0x4FC1 JUMPI PUSH2 0x4FC0 PUSH2 0x4BA1 JUMP JUMPDEST JUMPDEST SWAP3 SWAP2 POP POP JUMP JUMPDEST PUSH0 PUSH1 0x20 DUP3 ADD SWAP1 POP PUSH2 0x4FDA PUSH0 DUP4 ADD DUP5 PUSH2 0x4390 JUMP JUMPDEST SWAP3 SWAP2 POP POP JUMP JUMPDEST PUSH32 0x4E487B7100000000000000000000000000000000000000000000000000000000 PUSH0 MSTORE PUSH1 0x32 PUSH1 0x4 MSTORE PUSH1 0x24 PUSH0 REVERT JUMPDEST PUSH32 0x4F6E6C7920746865206172746973742063616E20666F72636520636F6E666972 PUSH0 DUP3 ADD MSTORE PUSH32 0x6D00000000000000000000000000000000000000000000000000000000000000 PUSH1 0x20 DUP3 ADD MSTORE POP JUMP JUMPDEST PUSH0 PUSH2 0x5067 PUSH1 0x21 DUP4 PUSH2 0x3E0C JUMP JUMPDEST SWAP2 POP PUSH2 0x5072 DUP3 PUSH2 0x500D JUMP JUMPDEST PUSH1 0x40 DUP3 ADD SWAP1 POP SWAP2 SWAP1 POP JUMP JUMPDEST PUSH0 PUSH1 0x20 DUP3 ADD SWAP1 POP DUP2 DUP2 SUB PUSH0 DUP4 ADD MSTORE PUSH2 0x5094 DUP2 PUSH2 0x505B JUMP JUMPDEST SWAP1 POP SWAP2 SWAP1 POP JUMP JUMPDEST PUSH32 0x496E76616C696420707572636861736520696E64657800000000000000000000 PUSH0 DUP3 ADD MSTORE POP JUMP JUMPDEST PUSH0 PUSH2 0x50CF PUSH1 0x16 DUP4 PUSH2 0x3E0C JUMP JUMPDEST SWAP2 POP PUSH2 0x50DA DUP3 PUSH2 0x509B JUMP JUMPDEST PUSH1 0x20 DUP3 ADD SWAP1 POP SWAP2 SWAP1 POP JUMP JUMPDEST PUSH0 PUSH1 0x20 DUP3 ADD SWAP1 POP DUP2 DUP2 SUB PUSH0 DUP4 ADD MSTORE PUSH2 0x50FC DUP2 PUSH2 0x50C3 JUMP JUMPDEST SWAP1 POP SWAP2 SWAP1 POP JUMP JUMPDEST PUSH32 0x5075726368617365206E6F742061637469766500000000000000000000000000 PUSH0 DUP3 ADD MSTORE POP JUMP JUMPDEST PUSH0 PUSH2 0x5137 PUSH1 0x13 DUP4 PUSH2 0x3E0C JUMP JUMPDEST SWAP2 POP PUSH2 0x5142 DUP3 PUSH2 0x5103 JUMP JUMPDEST PUSH1 0x20 DUP3 ADD SWAP1 POP SWAP2 SWAP1 POP JUMP JUMPDEST PUSH0 PUSH1 0x20 DUP3 ADD SWAP1 POP DUP2 DUP2 SUB PUSH0 DUP4 ADD MSTORE PUSH2 0x5164 DUP2 PUSH2 0x512B JUMP JUMPDEST SWAP1 POP SWAP2 SWAP1 POP JUMP JUMPDEST PUSH32 0x436F6E6669726D6174696F6E2074696D656F7574206E6F742072656163686564 PUSH0 DUP3 ADD MSTORE POP JUMP JUMPDEST PUSH0 PUSH2 0x519F PUSH1 0x20 DUP4 PUSH2 0x3E0C JUMP JUMPDEST SWAP2 POP PUSH2 0x51AA DUP3 PUSH2 0x516B JUMP JUMPDEST PUSH1 0x20 DUP3 ADD SWAP1 POP SWAP2 SWAP1 POP JUMP JUMPDEST PUSH0 PUSH1 0x20 DUP3 ADD SWAP1 POP DUP2 DUP2 SUB PUSH0 DUP4 ADD MSTORE PUSH2 0x51CC DUP2 PUSH2 0x5193 JUMP JUMPDEST SWAP1 POP SWAP2 SWAP1 POP JUMP JUMPDEST PUSH0 PUSH1 0x60 DUP3 ADD SWAP1 POP PUSH2 0x51E6 PUSH0 DUP4 ADD DUP7 PUSH2 0x4390 JUMP JUMPDEST PUSH2 0x51F3 PUSH1 0x20 DUP4 ADD DUP6 PUSH2 0x4390 JUMP JUMPDEST PUSH2 0x5200 PUSH1 0x40 DUP4 ADD DUP5 PUSH2 0x3CFC JUMP JUMPDEST SWAP5 SWAP4 POP POP POP POP JUMP JUMPDEST PUSH32 0x537461626C6520636F696E207472616E73666572206661696C65640000000000 PUSH0 DUP3 ADD MSTORE POP JUMP JUMPDEST PUSH0 PUSH2 0x523C PUSH1 0x1B DUP4 PUSH2 0x3E0C JUMP JUMPDEST SWAP2 POP PUSH2 0x5247 DUP3 PUSH2 0x5208 JUMP JUMPDEST PUSH1 0x20 DUP3 ADD SWAP1 POP SWAP2 SWAP1 POP JUMP JUMPDEST PUSH0 PUSH1 0x20 DUP3 ADD SWAP1 POP DUP2 DUP2 SUB PUSH0 DUP4 ADD MSTORE PUSH2 0x5269 DUP2 PUSH2 0x5230 JUMP JUMPDEST SWAP1 POP SWAP2 SWAP1 POP JUMP JUMPDEST PUSH32 0x496E73756666696369656E74206465706F736974000000000000000000000000 PUSH0 DUP3 ADD MSTORE POP JUMP JUMPDEST PUSH0 PUSH2 0x52A4 PUSH1 0x14 DUP4 PUSH2 0x3E0C JUMP JUMPDEST SWAP2 POP PUSH2 0x52AF DUP3 PUSH2 0x5270 JUMP JUMPDEST PUSH1 0x20 DUP3 ADD SWAP1 POP SWAP2 SWAP1 POP JUMP JUMPDEST PUSH0 PUSH1 0x20 DUP3 ADD SWAP1 POP DUP2 DUP2 SUB PUSH0 DUP4 ADD MSTORE PUSH2 0x52D1 DUP2 PUSH2 0x5298 JUMP JUMPDEST SWAP1 POP SWAP2 SWAP1 POP JUMP JUMPDEST PUSH0 PUSH2 0x52E2 DUP3 PUSH2 0x3C8B JUMP JUMPDEST SWAP2 POP PUSH2 0x52ED DUP4 PUSH2 0x3C8B JUMP JUMPDEST SWAP3 POP DUP3 DUP3 SUB SWAP1 POP DUP2 DUP2 GT ISZERO PUSH2 0x5305 JUMPI PUSH2 0x5304 PUSH2 0x4BA1 JUMP JUMPDEST JUMPDEST SWAP3 SWAP2 POP POP JUMP JUMPDEST PUSH32 0x5075726368617365206E6F7420696E2064697370757465000000000000000000 PUSH0 DUP3 ADD MSTORE POP JUMP JUMPDEST PUSH0 PUSH2 0x533F PUSH1 0x17 DUP4 PUSH2 0x3E0C JUMP JUMPDEST SWAP2 POP PUSH2 0x534A DUP3 PUSH2 0x530B JUMP JUMPDEST PUSH1 0x20 DUP3 ADD SWAP1 POP SWAP2 SWAP1 POP JUMP JUMPDEST PUSH0 PUSH1 0x20 DUP3 ADD SWAP1 POP DUP2 DUP2 SUB PUSH0 DUP4 ADD MSTORE PUSH2 0x536C DUP2 PUSH2 0x5333 JUMP JUMPDEST SWAP1 POP SWAP2 SWAP1 POP JUMP JUMPDEST PUSH0 PUSH2 0x537D DUP3 PUSH2 0x3C8B JUMP JUMPDEST SWAP2 POP PUSH2 0x5388 DUP4 PUSH2 0x3C8B JUMP JUMPDEST SWAP3 POP DUP3 DUP3 MUL PUSH2 0x5396 DUP2 PUSH2 0x3C8B JUMP JUMPDEST SWAP2 POP DUP3 DUP3 DIV DUP5 EQ DUP4 ISZERO OR PUSH2 0x53AD JUMPI PUSH2 0x53AC PUSH2 0x4BA1 JUMP JUMPDEST JUMPDEST POP SWAP3 SWAP2 POP POP JUMP JUMPDEST PUSH0 PUSH1 0x40 DUP3 ADD SWAP1 POP PUSH2 0x53C7 PUSH0 DUP4 ADD DUP6 PUSH2 0x3CFC JUMP JUMPDEST PUSH2 0x53D4 PUSH1 0x20 DUP4 ADD DUP5 PUSH2 0x3DAF JUMP JUMPDEST SWAP4 SWAP3 POP POP POP JUMP JUMPDEST PUSH32 0x43616C6C6572206973206E6F7420746865206275796572000000000000000000 PUSH0 DUP3 ADD MSTORE POP JUMP JUMPDEST PUSH0 PUSH2 0x540F PUSH1 0x17 DUP4 PUSH2 0x3E0C JUMP JUMPDEST SWAP2 POP PUSH2 0x541A DUP3 PUSH2 0x53DB JUMP JUMPDEST PUSH1 0x20 DUP3 ADD SWAP1 POP SWAP2 SWAP1 POP JUMP JUMPDEST PUSH0 PUSH1 0x20 DUP3 ADD SWAP1 POP DUP2 DUP2 SUB PUSH0 DUP4 ADD MSTORE PUSH2 0x543C DUP2 PUSH2 0x5403 JUMP JUMPDEST SWAP1 POP SWAP2 SWAP1 POP JUMP JUMPDEST PUSH32 0x416C6C204E465473206D696E7465640000000000000000000000000000000000 PUSH0 DUP3 ADD MSTORE POP JUMP JUMPDEST PUSH0 PUSH2 0x5477 PUSH1 0xF DUP4 PUSH2 0x3E0C JUMP JUMPDEST SWAP2 POP PUSH2 0x5482 DUP3 PUSH2 0x5443 JUMP JUMPDEST PUSH1 0x20 DUP3 ADD SWAP1 POP SWAP2 SWAP1 POP JUMP JUMPDEST PUSH0 PUSH1 0x20 DUP3 ADD SWAP1 POP DUP2 DUP2 SUB PUSH0 DUP4 ADD MSTORE PUSH2 0x54A4 DUP2 PUSH2 0x546B JUMP JUMPDEST SWAP1 POP SWAP2 SWAP1 POP JUMP JUMPDEST PUSH32 0x417274697374206465706F73697420696E73756666696369656E740000000000 PUSH0 DUP3 ADD MSTORE POP JUMP JUMPDEST PUSH0 PUSH2 0x54DF PUSH1 0x1B DUP4 PUSH2 0x3E0C JUMP JUMPDEST SWAP2 POP PUSH2 0x54EA DUP3 PUSH2 0x54AB JUMP JUMPDEST PUSH1 0x20 DUP3 ADD SWAP1 POP SWAP2 SWAP1 POP JUMP JUMPDEST PUSH0 PUSH1 0x20 DUP3 ADD SWAP1 POP DUP2 DUP2 SUB PUSH0 DUP4 ADD MSTORE PUSH2 0x550C DUP2 PUSH2 0x54D3 JUMP JUMPDEST SWAP1 POP SWAP2 SWAP1 POP JUMP JUMPDEST PUSH32 0x5265656E7472616E637947756172643A207265656E7472616E742063616C6C00 PUSH0 DUP3 ADD MSTORE POP JUMP JUMPDEST PUSH0 PUSH2 0x5547 PUSH1 0x1F DUP4 PUSH2 0x3E0C JUMP JUMPDEST SWAP2 POP PUSH2 0x5552 DUP3 PUSH2 0x5513 JUMP JUMPDEST PUSH1 0x20 DUP3 ADD SWAP1 POP SWAP2 SWAP1 POP JUMP JUMPDEST PUSH0 PUSH1 0x20 DUP3 ADD SWAP1 POP DUP2 DUP2 SUB PUSH0 DUP4 ADD MSTORE PUSH2 0x5574 DUP2 PUSH2 0x553B JUMP JUMPDEST SWAP1 POP SWAP2 SWAP1 POP JUMP JUMPDEST PUSH0 PUSH1 0x40 DUP3 ADD SWAP1 POP PUSH2 0x558E PUSH0 DUP4 ADD DUP6 PUSH2 0x4390 JUMP JUMPDEST PUSH2 0x559B PUSH1 0x20 DUP4 ADD DUP5 PUSH2 0x40D2 JUMP JUMPDEST SWAP4 SWAP3 POP POP POP JUMP JUMPDEST PUSH0 PUSH1 0x80 DUP3 ADD SWAP1 POP PUSH2 0x55B5 PUSH0 DUP4 ADD DUP8 PUSH2 0x4390 JUMP JUMPDEST PUSH2 0x55C2 PUSH1 0x20 DUP4 ADD DUP7 PUSH2 0x3CFC JUMP JUMPDEST PUSH2 0x55CF PUSH1 0x40 DUP4 ADD DUP6 PUSH2 0x3CFC JUMP JUMPDEST PUSH2 0x55DC PUSH1 0x60 DUP4 ADD DUP5 PUSH2 0x3CFC JUMP JUMPDEST SWAP6 SWAP5 POP POP POP POP POP JUMP JUMPDEST PUSH0 PUSH1 0x40 DUP3 ADD SWAP1 POP DUP2 DUP2 SUB PUSH0 DUP4 ADD MSTORE PUSH2 0x55FD DUP2 DUP6 PUSH2 0x469F JUMP JUMPDEST SWAP1 POP DUP2 DUP2 SUB PUSH1 0x20 DUP4 ADD MSTORE PUSH2 0x5611 DUP2 DUP5 PUSH2 0x469F JUMP JUMPDEST SWAP1 POP SWAP4 SWAP3 POP POP POP JUMP JUMPDEST PUSH0 PUSH1 0xA0 DUP3 ADD SWAP1 POP PUSH2 0x562D PUSH0 DUP4 ADD DUP9 PUSH2 0x4390 JUMP JUMPDEST PUSH2 0x563A PUSH1 0x20 DUP4 ADD DUP8 PUSH2 0x4390 JUMP JUMPDEST PUSH2 0x5647 PUSH1 0x40 DUP4 ADD DUP7 PUSH2 0x3CFC JUMP JUMPDEST PUSH2 0x5654 PUSH1 0x60 DUP4 ADD DUP6 PUSH2 0x3CFC JUMP JUMPDEST DUP2 DUP2 SUB PUSH1 0x80 DUP4 ADD MSTORE PUSH2 0x5666 DUP2 DUP5 PUSH2 0x4861 JUMP JUMPDEST SWAP1 POP SWAP7 SWAP6 POP POP POP POP POP POP JUMP JUMPDEST PUSH0 DUP2 MLOAD SWAP1 POP PUSH2 0x5680 DUP2 PUSH2 0x3D4F JUMP JUMPDEST SWAP3 SWAP2 POP POP JUMP JUMPDEST PUSH0 PUSH1 0x20 DUP3 DUP5 SUB SLT ISZERO PUSH2 0x569B JUMPI PUSH2 0x569A PUSH2 0x3C29 JUMP JUMPDEST JUMPDEST PUSH0 PUSH2 0x56A8 DUP5 DUP3 DUP6 ADD PUSH2 0x5672 JUMP JUMPDEST SWAP2 POP POP SWAP3 SWAP2 POP POP JUMP JUMPDEST PUSH0 PUSH1 0xA0 DUP3 ADD SWAP1 POP PUSH2 0x56C4 PUSH0 DUP4 ADD DUP9 PUSH2 0x4390 JUMP JUMPDEST PUSH2 0x56D1 PUSH1 0x20 DUP4 ADD DUP8 PUSH2 0x4390 JUMP JUMPDEST DUP2 DUP2 SUB PUSH1 0x40 DUP4 ADD MSTORE PUSH2 0x56E3 DUP2 DUP7 PUSH2 0x469F JUMP JUMPDEST SWAP1 POP DUP2 DUP2 SUB PUSH1 0x60 DUP4 ADD MSTORE PUSH2 0x56F7 DUP2 DUP6 PUSH2 0x469F JUMP JUMPDEST SWAP1 POP DUP2 DUP2 SUB PUSH1 0x80 DUP4 ADD MSTORE PUSH2 0x570B DUP2 DUP5 PUSH2 0x4861 JUMP JUMPDEST SWAP1 POP SWAP7 SWAP6 POP POP POP POP POP POP JUMP INVALID LOG2 PUSH5 0x6970667358 0x22 SLT KECCAK256 0xB2 0xEF 0xCA 0xF9 PUSH32 0x24B4E0CD620CACC965799A32D39E8B11AAB5C6628F02B7563BAFBE64736F6C63 NUMBER STOP ADDMOD EQ STOP CALLER "
		},
		"gasEstimates": {
			"creation": {
				"codeDepositCost": "4469800",
				"executionCost": "infinite",
				"totalCost": "infinite"
			},
			"external": {
				"ARBITRATOR_ROLE()": "415",
				"ARTCOIN_ID()": "368",
				"ARTIST_ROLE()": "436",
				"CONFIRMATION_TIMEOUT()": "371",
				"DEFAULT_ADMIN_ROLE()": "375",
				"artistDeposits(address)": "2935",
				"artworkPurchases(uint256,uint256)": "infinite",
				"artworks(uint256)": "infinite",
				"balanceOf(address,uint256)": "infinite",
				"balanceOfBatch(address[],uint256[])": "infinite",
				"burnARTcoin(uint256)": "infinite",
				"createArtwork(string,string,uint256,uint256)": "infinite",
				"currentArtworkId()": "2538",
				"depositArtcoin(uint256)": "infinite",
				"forceConfirmPurchase(uint256,uint256)": "infinite",
				"getArtworkInfo(uint256)": "infinite",
				"getPurchaseInfo(uint256,uint256)": "infinite",
				"getRoleAdmin(bytes32)": "infinite",
				"grantRole(bytes32,address)": "infinite",
				"hasRole(bytes32,address)": "3255",
				"isApprovedForAll(address,address)": "infinite",
				"mintARTcoin(uint256)": "infinite",
				"mintArtwork(uint256)": "infinite",
				"onERC1155BatchReceived(address,address,uint256[],uint256[],bytes)": "infinite",
				"onERC1155Received(address,address,uint256,uint256,bytes)": "infinite",
				"publicKeys(address)": "infinite",
				"renounceRole(bytes32,address)": "infinite",
				"revokeRole(bytes32,address)": "infinite",
				"safeBatchTransferFrom(address,address,uint256[],uint256[],bytes)": "infinite",
				"safeTransferFrom(address,address,uint256,uint256,bytes)": "infinite",
				"setApprovalForAll(address,bool)": "infinite",
				"setStableCoinAddress(address)": "infinite",
				"settlePurchaseDispute(uint256,uint256,bool)": "infinite",
				"stableCoin()": "infinite",
				"supportsInterface(bytes4)": "1050",
				"uri(uint256)": "infinite",
				"verifyPurchase(uint256,uint256,bool)": "infinite",
				"withdrawArtcoin(uint256)": "infinite"
			}
		},
		"methodIdentifiers": {
			"ARBITRATOR_ROLE()": "9cea0787",
			"ARTCOIN_ID()": "e8dbb9c5",
			"ARTIST_ROLE()": "a966a0df",
			"CONFIRMATION_TIMEOUT()": "3a14af65",
			"DEFAULT_ADMIN_ROLE()": "a217fddf",
			"artistDeposits(address)": "ac76e521",
			"artworkPurchases(uint256,uint256)": "4bc9db85",
			"artworks(uint256)": "4b602673",
			"balanceOf(address,uint256)": "00fdd58e",
			"balanceOfBatch(address[],uint256[])": "4e1273f4",
			"burnARTcoin(uint256)": "3b920580",
			"createArtwork(string,string,uint256,uint256)": "237f1509",
			"currentArtworkId()": "18b6dcbc",
			"depositArtcoin(uint256)": "3cdd2c1f",
			"forceConfirmPurchase(uint256,uint256)": "7365e8ec",
			"getArtworkInfo(uint256)": "f1f201e8",
			"getPurchaseInfo(uint256,uint256)": "da47635d",
			"getRoleAdmin(bytes32)": "248a9ca3",
			"grantRole(bytes32,address)": "2f2ff15d",
			"hasRole(bytes32,address)": "91d14854",
			"isApprovedForAll(address,address)": "e985e9c5",
			"mintARTcoin(uint256)": "848b295c",
			"mintArtwork(uint256)": "e82f4062",
			"onERC1155BatchReceived(address,address,uint256[],uint256[],bytes)": "bc197c81",
			"onERC1155Received(address,address,uint256,uint256,bytes)": "f23a6e61",
			"publicKeys(address)": "a3d6f9a9",
			"renounceRole(bytes32,address)": "36568abe",
			"revokeRole(bytes32,address)": "d547741f",
			"safeBatchTransferFrom(address,address,uint256[],uint256[],bytes)": "2eb2c2d6",
			"safeTransferFrom(address,address,uint256,uint256,bytes)": "f242432a",
			"setApprovalForAll(address,bool)": "a22cb465",
			"setStableCoinAddress(address)": "44879b3b",
			"settlePurchaseDispute(uint256,uint256,bool)": "9e56f275",
			"stableCoin()": "992642e5",
			"supportsInterface(bytes4)": "01ffc9a7",
			"uri(uint256)": "0e89341c",
			"verifyPurchase(uint256,uint256,bool)": "b89571c7",
			"withdrawArtcoin(uint256)": "95b7dde0"
		}
	},
	"abi": [
		{
			"inputs": [
				{
					"internalType": "string",
					"name": "uri",
					"type": "string"
				}
			],
			"stateMutability": "nonpayable",
			"type": "constructor"
		},
		{
			"inputs": [],
			"name": "AccessControlBadConfirmation",
			"type": "error"
		},
		{
			"inputs": [
				{
					"internalType": "address",
					"name": "account",
					"type": "address"
				},
				{
					"internalType": "bytes32",
					"name": "neededRole",
					"type": "bytes32"
				}
			],
			"name": "AccessControlUnauthorizedAccount",
			"type": "error"
		},
		{
			"inputs": [
				{
					"internalType": "address",
					"name": "sender",
					"type": "address"
				},
				{
					"internalType": "uint256",
					"name": "balance",
					"type": "uint256"
				},
				{
					"internalType": "uint256",
					"name": "needed",
					"type": "uint256"
				},
				{
					"internalType": "uint256",
					"name": "tokenId",
					"type": "uint256"
				}
			],
			"name": "ERC1155InsufficientBalance",
			"type": "error"
		},
		{
			"inputs": [
				{
					"internalType": "address",
					"name": "approver",
					"type": "address"
				}
			],
			"name": "ERC1155InvalidApprover",
			"type": "error"
		},
		{
			"inputs": [
				{
					"internalType": "uint256",
					"name": "idsLength",
					"type": "uint256"
				},
				{
					"internalType": "uint256",
					"name": "valuesLength",
					"type": "uint256"
				}
			],
			"name": "ERC1155InvalidArrayLength",
			"type": "error"
		},
		{
			"inputs": [
				{
					"internalType": "address",
					"name": "operator",
					"type": "address"
				}
			],
			"name": "ERC1155InvalidOperator",
			"type": "error"
		},
		{
			"inputs": [
				{
					"internalType": "address",
					"name": "receiver",
					"type": "address"
				}
			],
			"name": "ERC1155InvalidReceiver",
			"type": "error"
		},
		{
			"inputs": [
				{
					"internalType": "address",
					"name": "sender",
					"type": "address"
				}
			],
			"name": "ERC1155InvalidSender",
			"type": "error"
		},
		{
			"inputs": [
				{
					"internalType": "address",
					"name": "operator",
					"type": "address"
				},
				{
					"internalType": "address",
					"name": "owner",
					"type": "address"
				}
			],
			"name": "ERC1155MissingApprovalForAll",
			"type": "error"
		},
		{
			"anonymous": false,
			"inputs": [
				{
					"indexed": true,
					"internalType": "address",
					"name": "account",
					"type": "address"
				},
				{
					"indexed": true,
					"internalType": "address",
					"name": "operator",
					"type": "address"
				},
				{
					"indexed": false,
					"internalType": "bool",
					"name": "approved",
					"type": "bool"
				}
			],
			"name": "ApprovalForAll",
			"type": "event"
		},
		{
			"anonymous": false,
			"inputs": [
				{
					"indexed": true,
					"internalType": "uint256",
					"name": "tokenId",
					"type": "uint256"
				},
				{
					"indexed": true,
					"internalType": "address",
					"name": "artist",
					"type": "address"
				},
				{
					"indexed": false,
					"internalType": "uint256",
					"name": "price",
					"type": "uint256"
				},
				{
					"indexed": false,
					"internalType": "uint256",
					"name": "supplyLimit",
					"type": "uint256"
				}
			],
			"name": "ArtworkCreated",
			"type": "event"
		},
		{
			"anonymous": false,
			"inputs": [
				{
					"indexed": true,
					"internalType": "uint256",
					"name": "tokenId",
					"type": "uint256"
				},
				{
					"indexed": false,
					"internalType": "uint256",
					"name": "purchaseIndex",
					"type": "uint256"
				},
				{
					"indexed": true,
					"internalType": "address",
					"name": "buyer",
					"type": "address"
				}
			],
			"name": "ArtworkMinted",
			"type": "event"
		},
		{
			"anonymous": false,
			"inputs": [
				{
					"indexed": true,
					"internalType": "address",
					"name": "artist",
					"type": "address"
				},
				{
					"indexed": false,
					"internalType": "uint256",
					"name": "amount",
					"type": "uint256"
				}
			],
			"name": "DepositArtcoin",
			"type": "event"
		},
		{
			"anonymous": false,
			"inputs": [
				{
					"indexed": true,
					"internalType": "uint256",
					"name": "tokenId",
					"type": "uint256"
				},
				{
					"indexed": false,
					"internalType": "uint256",
					"name": "purchaseIndex",
					"type": "uint256"
				},
				{
					"indexed": true,
					"internalType": "address",
					"name": "artist",
					"type": "address"
				}
			],
			"name": "DisputeForced",
			"type": "event"
		},
		{
			"anonymous": false,
			"inputs": [
				{
					"indexed": true,
					"internalType": "uint256",
					"name": "tokenId",
					"type": "uint256"
				},
				{
					"indexed": false,
					"internalType": "uint256",
					"name": "purchaseIndex",
					"type": "uint256"
				},
				{
					"indexed": true,
					"internalType": "address",
					"name": "buyer",
					"type": "address"
				}
			],
			"name": "DisputeOpened",
			"type": "event"
		},
		{
			"anonymous": false,
			"inputs": [
				{
					"indexed": true,
					"internalType": "uint256",
					"name": "tokenId",
					"type": "uint256"
				},
				{
					"indexed": false,
					"internalType": "uint256",
					"name": "purchaseIndex",
					"type": "uint256"
				},
				{
					"indexed": false,
					"internalType": "bool",
					"name": "disputeResult",
					"type": "bool"
				}
			],
			"name": "DisputeSettled",
			"type": "event"
		},
		{
			"anonymous": false,
			"inputs": [
				{
					"indexed": true,
					"internalType": "uint256",
					"name": "tokenId",
					"type": "uint256"
				},
				{
					"indexed": false,
					"internalType": "uint256",
					"name": "purchaseIndex",
					"type": "uint256"
				},
				{
					"indexed": true,
					"internalType": "address",
					"name": "artist",
					"type": "address"
				},
				{
					"indexed": true,
					"internalType": "address",
					"name": "buyer",
					"type": "address"
				},
				{
					"indexed": false,
					"internalType": "uint256",
					"name": "saleNet",
					"type": "uint256"
				}
			],
			"name": "FundsDistributed",
			"type": "event"
		},
		{
			"anonymous": false,
			"inputs": [
				{
					"indexed": true,
					"internalType": "uint256",
					"name": "tokenId",
					"type": "uint256"
				},
				{
					"indexed": false,
					"internalType": "uint256",
					"name": "purchaseIndex",
					"type": "uint256"
				},
				{
					"indexed": true,
					"internalType": "address",
					"name": "buyer",
					"type": "address"
				}
			],
			"name": "NFTBurned",
			"type": "event"
		},
		{
			"anonymous": false,
			"inputs": [
				{
					"indexed": true,
					"internalType": "address",
					"name": "account",
					"type": "address"
				},
				{
					"indexed": false,
					"internalType": "bytes",
					"name": "publicKey",
					"type": "bytes"
				}
			],
			"name": "PublicKeyUpdated",
			"type": "event"
		},
		{
			"anonymous": false,
			"inputs": [
				{
					"indexed": true,
					"internalType": "bytes32",
					"name": "role",
					"type": "bytes32"
				},
				{
					"indexed": true,
					"internalType": "bytes32",
					"name": "previousAdminRole",
					"type": "bytes32"
				},
				{
					"indexed": true,
					"internalType": "bytes32",
					"name": "newAdminRole",
					"type": "bytes32"
				}
			],
			"name": "RoleAdminChanged",
			"type": "event"
		},
		{
			"anonymous": false,
			"inputs": [
				{
					"indexed": true,
					"internalType": "bytes32",
					"name": "role",
					"type": "bytes32"
				},
				{
					"indexed": true,
					"internalType": "address",
					"name": "account",
					"type": "address"
				},
				{
					"indexed": true,
					"internalType": "address",
					"name": "sender",
					"type": "address"
				}
			],
			"name": "RoleGranted",
			"type": "event"
		},
		{
			"anonymous": false,
			"inputs": [
				{
					"indexed": true,
					"internalType": "bytes32",
					"name": "role",
					"type": "bytes32"
				},
				{
					"indexed": true,
					"internalType": "address",
					"name": "account",
					"type": "address"
				},
				{
					"indexed": true,
					"internalType": "address",
					"name": "sender",
					"type": "address"
				}
			],
			"name": "RoleRevoked",
			"type": "event"
		},
		{
			"anonymous": false,
			"inputs": [
				{
					"indexed": false,
					"internalType": "address",
					"name": "stableCoinAddress",
					"type": "address"
				}
			],
			"name": "StableCoinAddressSet",
			"type": "event"
		},
		{
			"anonymous": false,
			"inputs": [
				{
					"indexed": true,
					"internalType": "address",
					"name": "operator",
					"type": "address"
				},
				{
					"indexed": true,
					"internalType": "address",
					"name": "from",
					"type": "address"
				},
				{
					"indexed": true,
					"internalType": "address",
					"name": "to",
					"type": "address"
				},
				{
					"indexed": false,
					"internalType": "uint256[]",
					"name": "ids",
					"type": "uint256[]"
				},
				{
					"indexed": false,
					"internalType": "uint256[]",
					"name": "values",
					"type": "uint256[]"
				}
			],
			"name": "TransferBatch",
			"type": "event"
		},
		{
			"anonymous": false,
			"inputs": [
				{
					"indexed": true,
					"internalType": "address",
					"name": "operator",
					"type": "address"
				},
				{
					"indexed": true,
					"internalType": "address",
					"name": "from",
					"type": "address"
				},
				{
					"indexed": true,
					"internalType": "address",
					"name": "to",
					"type": "address"
				},
				{
					"indexed": false,
					"internalType": "uint256",
					"name": "id",
					"type": "uint256"
				},
				{
					"indexed": false,
					"internalType": "uint256",
					"name": "value",
					"type": "uint256"
				}
			],
			"name": "TransferSingle",
			"type": "event"
		},
		{
			"anonymous": false,
			"inputs": [
				{
					"indexed": false,
					"internalType": "string",
					"name": "value",
					"type": "string"
				},
				{
					"indexed": true,
					"internalType": "uint256",
					"name": "id",
					"type": "uint256"
				}
			],
			"name": "URI",
			"type": "event"
		},
		{
			"anonymous": false,
			"inputs": [
				{
					"indexed": true,
					"internalType": "uint256",
					"name": "tokenId",
					"type": "uint256"
				},
				{
					"indexed": false,
					"internalType": "uint256",
					"name": "purchaseIndex",
					"type": "uint256"
				},
				{
					"indexed": true,
					"internalType": "address",
					"name": "buyer",
					"type": "address"
				},
				{
					"indexed": false,
					"internalType": "bool",
					"name": "result",
					"type": "bool"
				}
			],
			"name": "VerificationResult",
			"type": "event"
		},
		{
			"anonymous": false,
			"inputs": [
				{
					"indexed": true,
					"internalType": "address",
					"name": "artist",
					"type": "address"
				},
				{
					"indexed": false,
					"internalType": "uint256",
					"name": "amount",
					"type": "uint256"
				}
			],
			"name": "WithdrawArtcoin",
			"type": "event"
		},
		{
			"inputs": [],
			"name": "ARBITRATOR_ROLE",
			"outputs": [
				{
					"internalType": "bytes32",
					"name": "",
					"type": "bytes32"
				}
			],
			"stateMutability": "view",
			"type": "function"
		},
		{
			"inputs": [],
			"name": "ARTCOIN_ID",
			"outputs": [
				{
					"internalType": "uint256",
					"name": "",
					"type": "uint256"
				}
			],
			"stateMutability": "view",
			"type": "function"
		},
		{
			"inputs": [],
			"name": "ARTIST_ROLE",
			"outputs": [
				{
					"internalType": "bytes32",
					"name": "",
					"type": "bytes32"
				}
			],
			"stateMutability": "view",
			"type": "function"
		},
		{
			"inputs": [],
			"name": "CONFIRMATION_TIMEOUT",
			"outputs": [
				{
					"internalType": "uint256",
					"name": "",
					"type": "uint256"
				}
			],
			"stateMutability": "view",
			"type": "function"
		},
		{
			"inputs": [],
			"name": "DEFAULT_ADMIN_ROLE",
			"outputs": [
				{
					"internalType": "bytes32",
					"name": "",
					"type": "bytes32"
				}
			],
			"stateMutability": "view",
			"type": "function"
		},
		{
			"inputs": [
				{
					"internalType": "address",
					"name": "",
					"type": "address"
				}
			],
			"name": "artistDeposits",
			"outputs": [
				{
					"internalType": "uint256",
					"name": "",
					"type": "uint256"
				}
			],
			"stateMutability": "view",
			"type": "function"
		},
		{
			"inputs": [
				{
					"internalType": "uint256",
					"name": "",
					"type": "uint256"
				},
				{
					"internalType": "uint256",
					"name": "",
					"type": "uint256"
				}
			],
			"name": "artworkPurchases",
			"outputs": [
				{
					"internalType": "address",
					"name": "buyer",
					"type": "address"
				},
				{
					"internalType": "enum DigitalArtwork.PurchaseState",
					"name": "state",
					"type": "uint8"
				},
				{
					"internalType": "uint256",
					"name": "lockedDeposit",
					"type": "uint256"
				},
				{
					"internalType": "uint256",
					"name": "purchaseTime",
					"type": "uint256"
				}
			],
			"stateMutability": "view",
			"type": "function"
		},
		{
			"inputs": [
				{
					"internalType": "uint256",
					"name": "",
					"type": "uint256"
				}
			],
			"name": "artworks",
			"outputs": [
				{
					"internalType": "uint256",
					"name": "tokenId",
					"type": "uint256"
				},
				{
					"internalType": "string",
					"name": "name",
					"type": "string"
				},
				{
					"internalType": "string",
					"name": "hash_json",
					"type": "string"
				},
				{
					"internalType": "uint256",
					"name": "supplyLimit",
					"type": "uint256"
				},
				{
					"internalType": "uint256",
					"name": "minted",
					"type": "uint256"
				},
				{
					"internalType": "uint256",
					"name": "price",
					"type": "uint256"
				},
				{
					"internalType": "address",
					"name": "artist",
					"type": "address"
				}
			],
			"stateMutability": "view",
			"type": "function"
		},
		{
			"inputs": [
				{
					"internalType": "address",
					"name": "account",
					"type": "address"
				},
				{
					"internalType": "uint256",
					"name": "id",
					"type": "uint256"
				}
			],
			"name": "balanceOf",
			"outputs": [
				{
					"internalType": "uint256",
					"name": "",
					"type": "uint256"
				}
			],
			"stateMutability": "view",
			"type": "function"
		},
		{
			"inputs": [
				{
					"internalType": "address[]",
					"name": "accounts",
					"type": "address[]"
				},
				{
					"internalType": "uint256[]",
					"name": "ids",
					"type": "uint256[]"
				}
			],
			"name": "balanceOfBatch",
			"outputs": [
				{
					"internalType": "uint256[]",
					"name": "",
					"type": "uint256[]"
				}
			],
			"stateMutability": "view",
			"type": "function"
		},
		{
			"inputs": [
				{
					"internalType": "uint256",
					"name": "amount",
					"type": "uint256"
				}
			],
			"name": "burnARTcoin",
			"outputs": [],
			"stateMutability": "nonpayable",
			"type": "function"
		},
		{
			"inputs": [
				{
					"internalType": "string",
					"name": "_name",
					"type": "string"
				},
				{
					"internalType": "string",
					"name": "_hash_json",
					"type": "string"
				},
				{
					"internalType": "uint256",
					"name": "_supplyLimit",
					"type": "uint256"
				},
				{
					"internalType": "uint256",
					"name": "_price",
					"type": "uint256"
				}
			],
			"name": "createArtwork",
			"outputs": [
				{
					"internalType": "uint256",
					"name": "",
					"type": "uint256"
				}
			],
			"stateMutability": "nonpayable",
			"type": "function"
		},
		{
			"inputs": [],
			"name": "currentArtworkId",
			"outputs": [
				{
					"internalType": "uint256",
					"name": "",
					"type": "uint256"
				}
			],
			"stateMutability": "view",
			"type": "function"
		},
		{
			"inputs": [
				{
					"internalType": "uint256",
					"name": "amount",
					"type": "uint256"
				}
			],
			"name": "depositArtcoin",
			"outputs": [],
			"stateMutability": "nonpayable",
			"type": "function"
		},
		{
			"inputs": [
				{
					"internalType": "uint256",
					"name": "_tokenId",
					"type": "uint256"
				},
				{
					"internalType": "uint256",
					"name": "purchaseIndex",
					"type": "uint256"
				}
			],
			"name": "forceConfirmPurchase",
			"outputs": [],
			"stateMutability": "nonpayable",
			"type": "function"
		},
		{
			"inputs": [
				{
					"internalType": "uint256",
					"name": "_tokenId",
					"type": "uint256"
				}
			],
			"name": "getArtworkInfo",
			"outputs": [
				{
					"components": [
						{
							"internalType": "uint256",
							"name": "tokenId",
							"type": "uint256"
						},
						{
							"internalType": "string",
							"name": "name",
							"type": "string"
						},
						{
							"internalType": "string",
							"name": "hash_json",
							"type": "string"
						},
						{
							"internalType": "uint256",
							"name": "supplyLimit",
							"type": "uint256"
						},
						{
							"internalType": "uint256",
							"name": "minted",
							"type": "uint256"
						},
						{
							"internalType": "uint256",
							"name": "price",
							"type": "uint256"
						},
						{
							"internalType": "address",
							"name": "artist",
							"type": "address"
						}
					],
					"internalType": "struct DigitalArtwork.Artwork",
					"name": "",
					"type": "tuple"
				}
			],
			"stateMutability": "view",
			"type": "function"
		},
		{
			"inputs": [
				{
					"internalType": "uint256",
					"name": "_tokenId",
					"type": "uint256"
				},
				{
					"internalType": "uint256",
					"name": "purchaseIndex",
					"type": "uint256"
				}
			],
			"name": "getPurchaseInfo",
			"outputs": [
				{
					"components": [
						{
							"internalType": "address",
							"name": "buyer",
							"type": "address"
						},
						{
							"internalType": "enum DigitalArtwork.PurchaseState",
							"name": "state",
							"type": "uint8"
						},
						{
							"internalType": "uint256",
							"name": "lockedDeposit",
							"type": "uint256"
						},
						{
							"internalType": "uint256",
							"name": "purchaseTime",
							"type": "uint256"
						}
					],
					"internalType": "struct DigitalArtwork.Purchase",
					"name": "",
					"type": "tuple"
				}
			],
			"stateMutability": "view",
			"type": "function"
		},
		{
			"inputs": [
				{
					"internalType": "bytes32",
					"name": "role",
					"type": "bytes32"
				}
			],
			"name": "getRoleAdmin",
			"outputs": [
				{
					"internalType": "bytes32",
					"name": "",
					"type": "bytes32"
				}
			],
			"stateMutability": "view",
			"type": "function"
		},
		{
			"inputs": [
				{
					"internalType": "bytes32",
					"name": "role",
					"type": "bytes32"
				},
				{
					"internalType": "address",
					"name": "account",
					"type": "address"
				}
			],
			"name": "grantRole",
			"outputs": [],
			"stateMutability": "nonpayable",
			"type": "function"
		},
		{
			"inputs": [
				{
					"internalType": "bytes32",
					"name": "role",
					"type": "bytes32"
				},
				{
					"internalType": "address",
					"name": "account",
					"type": "address"
				}
			],
			"name": "hasRole",
			"outputs": [
				{
					"internalType": "bool",
					"name": "",
					"type": "bool"
				}
			],
			"stateMutability": "view",
			"type": "function"
		},
		{
			"inputs": [
				{
					"internalType": "address",
					"name": "account",
					"type": "address"
				},
				{
					"internalType": "address",
					"name": "operator",
					"type": "address"
				}
			],
			"name": "isApprovedForAll",
			"outputs": [
				{
					"internalType": "bool",
					"name": "",
					"type": "bool"
				}
			],
			"stateMutability": "view",
			"type": "function"
		},
		{
			"inputs": [
				{
					"internalType": "uint256",
					"name": "amount",
					"type": "uint256"
				}
			],
			"name": "mintARTcoin",
			"outputs": [],
			"stateMutability": "nonpayable",
			"type": "function"
		},
		{
			"inputs": [
				{
					"internalType": "uint256",
					"name": "_tokenId",
					"type": "uint256"
				}
			],
			"name": "mintArtwork",
			"outputs": [],
			"stateMutability": "nonpayable",
			"type": "function"
		},
		{
			"inputs": [
				{
					"internalType": "address",
					"name": "",
					"type": "address"
				},
				{
					"internalType": "address",
					"name": "",
					"type": "address"
				},
				{
					"internalType": "uint256[]",
					"name": "",
					"type": "uint256[]"
				},
				{
					"internalType": "uint256[]",
					"name": "",
					"type": "uint256[]"
				},
				{
					"internalType": "bytes",
					"name": "",
					"type": "bytes"
				}
			],
			"name": "onERC1155BatchReceived",
			"outputs": [
				{
					"internalType": "bytes4",
					"name": "",
					"type": "bytes4"
				}
			],
			"stateMutability": "nonpayable",
			"type": "function"
		},
		{
			"inputs": [
				{
					"internalType": "address",
					"name": "",
					"type": "address"
				},
				{
					"internalType": "address",
					"name": "",
					"type": "address"
				},
				{
					"internalType": "uint256",
					"name": "",
					"type": "uint256"
				},
				{
					"internalType": "uint256",
					"name": "",
					"type": "uint256"
				},
				{
					"internalType": "bytes",
					"name": "",
					"type": "bytes"
				}
			],
			"name": "onERC1155Received",
			"outputs": [
				{
					"internalType": "bytes4",
					"name": "",
					"type": "bytes4"
				}
			],
			"stateMutability": "nonpayable",
			"type": "function"
		},
		{
			"inputs": [
				{
					"internalType": "address",
					"name": "",
					"type": "address"
				}
			],
			"name": "publicKeys",
			"outputs": [
				{
					"internalType": "bytes",
					"name": "",
					"type": "bytes"
				}
			],
			"stateMutability": "view",
			"type": "function"
		},
		{
			"inputs": [
				{
					"internalType": "bytes32",
					"name": "role",
					"type": "bytes32"
				},
				{
					"internalType": "address",
					"name": "callerConfirmation",
					"type": "address"
				}
			],
			"name": "renounceRole",
			"outputs": [],
			"stateMutability": "nonpayable",
			"type": "function"
		},
		{
			"inputs": [
				{
					"internalType": "bytes32",
					"name": "role",
					"type": "bytes32"
				},
				{
					"internalType": "address",
					"name": "account",
					"type": "address"
				}
			],
			"name": "revokeRole",
			"outputs": [],
			"stateMutability": "nonpayable",
			"type": "function"
		},
		{
			"inputs": [
				{
					"internalType": "address",
					"name": "from",
					"type": "address"
				},
				{
					"internalType": "address",
					"name": "to",
					"type": "address"
				},
				{
					"internalType": "uint256[]",
					"name": "ids",
					"type": "uint256[]"
				},
				{
					"internalType": "uint256[]",
					"name": "values",
					"type": "uint256[]"
				},
				{
					"internalType": "bytes",
					"name": "data",
					"type": "bytes"
				}
			],
			"name": "safeBatchTransferFrom",
			"outputs": [],
			"stateMutability": "nonpayable",
			"type": "function"
		},
		{
			"inputs": [
				{
					"internalType": "address",
					"name": "from",
					"type": "address"
				},
				{
					"internalType": "address",
					"name": "to",
					"type": "address"
				},
				{
					"internalType": "uint256",
					"name": "id",
					"type": "uint256"
				},
				{
					"internalType": "uint256",
					"name": "value",
					"type": "uint256"
				},
				{
					"internalType": "bytes",
					"name": "data",
					"type": "bytes"
				}
			],
			"name": "safeTransferFrom",
			"outputs": [],
			"stateMutability": "nonpayable",
			"type": "function"
		},
		{
			"inputs": [
				{
					"internalType": "address",
					"name": "operator",
					"type": "address"
				},
				{
					"internalType": "bool",
					"name": "approved",
					"type": "bool"
				}
			],
			"name": "setApprovalForAll",
			"outputs": [],
			"stateMutability": "nonpayable",
			"type": "function"
		},
		{
			"inputs": [
				{
					"internalType": "address",
					"name": "_stableCoinAddress",
					"type": "address"
				}
			],
			"name": "setStableCoinAddress",
			"outputs": [],
			"stateMutability": "nonpayable",
			"type": "function"
		},
		{
			"inputs": [
				{
					"internalType": "uint256",
					"name": "_tokenId",
					"type": "uint256"
				},
				{
					"internalType": "uint256",
					"name": "purchaseIndex",
					"type": "uint256"
				},
				{
					"internalType": "bool",
					"name": "disputeResult",
					"type": "bool"
				}
			],
			"name": "settlePurchaseDispute",
			"outputs": [],
			"stateMutability": "nonpayable",
			"type": "function"
		},
		{
			"inputs": [],
			"name": "stableCoin",
			"outputs": [
				{
					"internalType": "contract IERC20",
					"name": "",
					"type": "address"
				}
			],
			"stateMutability": "view",
			"type": "function"
		},
		{
			"inputs": [
				{
					"internalType": "bytes4",
					"name": "interfaceId",
					"type": "bytes4"
				}
			],
			"name": "supportsInterface",
			"outputs": [
				{
					"internalType": "bool",
					"name": "",
					"type": "bool"
				}
			],
			"stateMutability": "view",
			"type": "function"
		},
		{
			"inputs": [
				{
					"internalType": "uint256",
					"name": "",
					"type": "uint256"
				}
			],
			"name": "uri",
			"outputs": [
				{
					"internalType": "string",
					"name": "",
					"type": "string"
				}
			],
			"stateMutability": "view",
			"type": "function"
		},
		{
			"inputs": [
				{
					"internalType": "uint256",
					"name": "_tokenId",
					"type": "uint256"
				},
				{
					"internalType": "uint256",
					"name": "purchaseIndex",
					"type": "uint256"
				},
				{
					"internalType": "bool",
					"name": "verificationResult",
					"type": "bool"
				}
			],
			"name": "verifyPurchase",
			"outputs": [],
			"stateMutability": "nonpayable",
			"type": "function"
		},
		{
			"inputs": [
				{
					"internalType": "uint256",
					"name": "amount",
					"type": "uint256"
				}
			],
			"name": "withdrawArtcoin",
			"outputs": [],
			"stateMutability": "nonpayable",
			"type": "function"
		}
	]
}