{
	"data": {
		"bytecode": {
			"linkReferences": {},
			"object": "608060405234801562000010575f80fd5b50604051620062f4380380620062f48339818101604052810190620000369190620003ae565b806200004881620000ad60201b60201c565b506001600481905550620000655f801b33620000c260201b60201c565b503360055f6101000a81548173ffffffffffffffffffffffffffffffffffffffff021916908373ffffffffffffffffffffffffffffffffffffffff1602179055505062000718565b8060029081620000be919062000634565b5050565b5f620000d58383620001be60201b60201c565b620001b457600160035f8581526020019081526020015f205f015f8473ffffffffffffffffffffffffffffffffffffffff1673ffffffffffffffffffffffffffffffffffffffff1681526020019081526020015f205f6101000a81548160ff021916908315150217905550620001506200022260201b60201c565b73ffffffffffffffffffffffffffffffffffffffff168273ffffffffffffffffffffffffffffffffffffffff16847f2f8788117e7eff1d82e926ec794901d17c78024a50270940304540a733656f0d60405160405180910390a460019050620001b8565b5f90505b92915050565b5f60035f8481526020019081526020015f205f015f8373ffffffffffffffffffffffffffffffffffffffff1673ffffffffffffffffffffffffffffffffffffffff1681526020019081526020015f205f9054906101000a900460ff16905092915050565b5f33905090565b5f604051905090565b5f80fd5b5f80fd5b5f80fd5b5f80fd5b5f601f19601f8301169050919050565b7f4e487b71000000000000000000000000000000000000000000000000000000005f52604160045260245ffd5b6200028a8262000242565b810181811067ffffffffffffffff82111715620002ac57620002ab62000252565b5b80604052505050565b5f620002c062000229565b9050620002ce82826200027f565b919050565b5f67ffffffffffffffff821115620002f057620002ef62000252565b5b620002fb8262000242565b9050602081019050919050565b5f5b83811015620003275780820151818401526020810190506200030a565b5f8484015250505050565b5f620003486200034284620002d3565b620002b5565b9050828152602081018484840111156200036757620003666200023e565b5b6200037484828562000308565b509392505050565b5f82601f8301126200039357620003926200023a565b5b8151620003a584826020860162000332565b91505092915050565b5f60208284031215620003c657620003c562000232565b5b5f82015167ffffffffffffffff811115620003e657620003e562000236565b5b620003f4848285016200037c565b91505092915050565b5f81519050919050565b7f4e487b71000000000000000000000000000000000000000000000000000000005f52602260045260245ffd5b5f60028204905060018216806200044c57607f821691505b60208210810362000462576200046162000407565b5b50919050565b5f819050815f5260205f209050919050565b5f6020601f8301049050919050565b5f82821b905092915050565b5f60088302620004c67fffffffffffffffffffffffffffffffffffffffffffffffffffffffffffffffff8262000489565b620004d2868362000489565b95508019841693508086168417925050509392505050565b5f819050919050565b5f819050919050565b5f6200051c620005166200051084620004ea565b620004f3565b620004ea565b9050919050565b5f819050919050565b6200053783620004fc565b6200054f620005468262000523565b84845462000495565b825550505050565b5f90565b6200056562000557565b620005728184846200052c565b505050565b5b8181101562000599576200058d5f826200055b565b60018101905062000578565b5050565b601f821115620005e857620005b28162000468565b620005bd846200047a565b81016020851015620005cd578190505b620005e5620005dc856200047a565b83018262000577565b50505b505050565b5f82821c905092915050565b5f6200060a5f1984600802620005ed565b1980831691505092915050565b5f620006248383620005f9565b9150826002028217905092915050565b6200063f82620003fd565b67ffffffffffffffff8111156200065b576200065a62000252565b5b62000667825462000434565b620006748282856200059d565b5f60209050601f831160018114620006aa575f841562000695578287015190505b620006a1858262000617565b86555062000710565b601f198416620006ba8662000468565b5f5b82811015620006e357848901518255600182019150602085019450602081019050620006bc565b86831015620007035784890151620006ff601f891682620005f9565b8355505b6001600288020188555050505b505050505050565b615bce80620007265f395ff3fe6080604052600436106101fb575f3560e01c80639cea07871161010c578063bc197c811161009f578063f0d93b9a1161006e578063f0d93b9a14610799578063f14210a6146107c1578063f23a6e61146107e9578063f242432a14610825578063f6326fb31461084d57610202565b8063bc197c81146106dd578063d547741f14610719578063e82f406214610741578063e985e9c51461075d57610202565b8063a966a0df116100db578063a966a0df14610625578063ac76e5211461064f578063b69b6d661461068b578063b89571c7146106b557610202565b80639cea0787146105815780639e56f275146105ab578063a217fddf146105d3578063a22cb465146105fd57610202565b806336568abe1161018f5780634e1273f41161015e5780634e1273f41461047d578063595af66f146104b95780637365e8ec146104e1578063815176aa1461050957806391d148541461054557610202565b806336568abe146103aa5780633a14af65146103d25780634b602673146103fc5780634bc9db851461043e57610202565b8063237f1509116101cb578063237f1509146102e2578063248a9ca31461031e5780632eb2c2d61461035a5780632f2ff15d1461038257610202565b8062fdd58e1461020457806301ffc9a7146102405780630e89341c1461027c57806318b6dcbc146102b857610202565b3661020257005b005b34801561020f575f80fd5b5061022a600480360381019061022591906140a4565b610857565b60405161023791906140f1565b60405180910390f35b34801561024b575f80fd5b506102666004803603810190610261919061415f565b6108ac565b60405161027391906141a4565b60405180910390f35b348015610287575f80fd5b506102a2600480360381019061029d91906141bd565b6108bd565b6040516102af9190614272565b60405180910390f35b3480156102c3575f80fd5b506102cc61094f565b6040516102d991906140f1565b60405180910390f35b3480156102ed575f80fd5b50610308600480360381019061030391906143be565b610955565b60405161031591906140f1565b60405180910390f35b348015610329575f80fd5b50610344600480360381019061033f919061448d565b610b3d565b60405161035191906144c7565b60405180910390f35b348015610365575f80fd5b50610380600480360381019061037b9190614642565b610b5a565b005b34801561038d575f80fd5b506103a860048036038101906103a3919061470d565b610c01565b005b3480156103b5575f80fd5b506103d060048036038101906103cb919061470d565b610c23565b005b3480156103dd575f80fd5b506103e6610c9e565b6040516103f391906140f1565b60405180910390f35b348015610407575f80fd5b50610422600480360381019061041d91906141bd565b610ca4565b604051610435979695949392919061475a565b60405180910390f35b348015610449575f80fd5b50610464600480360381019061045f91906147d5565b610e0d565b6040516104749493929190614886565b60405180910390f35b348015610488575f80fd5b506104a3600480360381019061049e9190614989565b610e7e565b6040516104b09190614ab6565b60405180910390f35b3480156104c4575f80fd5b506104df60048036038101906104da9190614ad6565b610f8b565b005b3480156104ec575f80fd5b50610507600480360381019061050291906147d5565b61101e565b005b348015610514575f80fd5b5061052f600480360381019061052a9190614ad6565b6115a7565b60405161053c9190614272565b60405180910390f35b348015610550575f80fd5b5061056b6004803603810190610566919061470d565b611642565b60405161057891906141a4565b60405180910390f35b34801561058c575f80fd5b506105956116a6565b6040516105a291906144c7565b60405180910390f35b3480156105b6575f80fd5b506105d160048036038101906105cc9190614b2b565b6116ca565b005b3480156105de575f80fd5b506105e7611f8b565b6040516105f491906144c7565b60405180910390f35b348015610608575f80fd5b50610623600480360381019061061e9190614b7b565b611f91565b005b348015610630575f80fd5b50610639611fa7565b60405161064691906144c7565b60405180910390f35b34801561065a575f80fd5b5061067560048036038101906106709190614ad6565b611fcb565b60405161068291906140f1565b60405180910390f35b348015610696575f80fd5b5061069f611fe0565b6040516106ac9190614bb9565b60405180910390f35b3480156106c0575f80fd5b506106db60048036038101906106d69190614b2b565b612005565b005b3480156106e8575f80fd5b5061070360048036038101906106fe9190614642565b6125a1565b6040516107109190614be1565b60405180910390f35b348015610724575f80fd5b5061073f600480360381019061073a919061470d565b6125b5565b005b61075b600480360381019061075691906141bd565b6125d7565b005b348015610768575f80fd5b50610783600480360381019061077e9190614bfa565b612994565b60405161079091906141a4565b60405180910390f35b3480156107a4575f80fd5b506107bf60048036038101906107ba9190614c38565b612a22565b005b3480156107cc575f80fd5b506107e760048036038101906107e291906141bd565b612abe565b005b3480156107f4575f80fd5b5061080f600480360381019061080a9190614c7f565b612cc6565b60405161081c9190614be1565b60405180910390f35b348015610830575f80fd5b5061084b60048036038101906108469190614c7f565b612cda565b005b610855612d81565b005b5f805f8381526020019081526020015f205f8473ffffffffffffffffffffffffffffffffffffffff1673ffffffffffffffffffffffffffffffffffffffff1681526020019081526020015f2054905092915050565b5f6108b682612ea1565b9050919050565b6060600280546108cc90614d3f565b80601f01602080910402602001604051908101604052809291908181526020018280546108f890614d3f565b80156109435780601f1061091a57610100808354040283529160200191610943565b820191905f5260205f20905b81548152906001019060200180831161092657829003601f168201915b50505050509050919050565b60065481565b5f7f877a78dc988c0ec5f58453b44888a55eb39755c3d5ed8d8ea990912aa3ef29c661098081612f1a565b5f600a8461098e9190614d9c565b146109ce576040517f08c379a00000000000000000000000000000000000000000000000000000000081526004016109c590614e16565b60405180910390fd5b60065f8154809291906109e090614e61565b91905055505f60065490506040518060e001604052808281526020018881526020018781526020018681526020015f81526020018581526020013373ffffffffffffffffffffffffffffffffffffffff1681525060085f8381526020019081526020015f205f820151815f01556020820151816001019081610a629190615045565b506040820151816002019081610a789190615045565b50606082015181600301556080820151816004015560a0820151816005015560c0820151816006015f6101000a81548173ffffffffffffffffffffffffffffffffffffffff021916908373ffffffffffffffffffffffffffffffffffffffff1602179055509050503373ffffffffffffffffffffffffffffffffffffffff16817ef3538cb5abe2e9bc54f73939e4d165fce3752d27fe21a5e88b2a9f6da20c638688604051610b28929190615114565b60405180910390a38092505050949350505050565b5f60035f8381526020019081526020015f20600101549050919050565b5f610b63612f2e565b90508073ffffffffffffffffffffffffffffffffffffffff168673ffffffffffffffffffffffffffffffffffffffff1614158015610ba85750610ba68682612994565b155b15610bec5780866040517fe237d922000000000000000000000000000000000000000000000000000000008152600401610be392919061513b565b60405180910390fd5b610bf98686868686612f35565b505050505050565b610c0a82610b3d565b610c1381612f1a565b610c1d8383613029565b50505050565b610c2b612f2e565b73ffffffffffffffffffffffffffffffffffffffff168173ffffffffffffffffffffffffffffffffffffffff1614610c8f576040517f6697b23200000000000000000000000000000000000000000000000000000000815260040160405180910390fd5b610c998282613113565b505050565b61025881565b6008602052805f5260405f205f91509050805f015490806001018054610cc990614d3f565b80601f0160208091040260200160405190810160405280929190818152602001828054610cf590614d3f565b8015610d405780601f10610d1757610100808354040283529160200191610d40565b820191905f5260205f20905b815481529060010190602001808311610d2357829003601f168201915b505050505090806002018054610d5590614d3f565b80601f0160208091040260200160405190810160405280929190818152602001828054610d8190614d3f565b8015610dcc5780601f10610da357610100808354040283529160200191610dcc565b820191905f5260205f20905b815481529060010190602001808311610daf57829003601f168201915b505050505090806003015490806004015490806005015490806006015f9054906101000a900473ffffffffffffffffffffffffffffffffffffffff16905087565b6009602052815f5260405f208181548110610e26575f80fd5b905f5260205f2090600302015f9150915050805f015f9054906101000a900473ffffffffffffffffffffffffffffffffffffffff1690805f0160149054906101000a900460ff16908060010154908060020154905084565b60608151835114610eca57815183516040517f5b059991000000000000000000000000000000000000000000000000000000008152600401610ec1929190615114565b60405180910390fd5b5f835167ffffffffffffffff811115610ee657610ee561429a565b5b604051908082528060200260200182016040528015610f145781602001602082028036833780820191505090505b5090505f5b8451811015610f8057610f50610f3882876131fd90919063ffffffff16565b610f4b838761321090919063ffffffff16565b610857565b828281518110610f6357610f62615162565b5b60200260200101818152505080610f7990614e61565b9050610f19565b508091505092915050565b5f801b610f9781612f1a565b8160055f6101000a81548173ffffffffffffffffffffffffffffffffffffffff021916908373ffffffffffffffffffffffffffffffffffffffff1602179055508173ffffffffffffffffffffffffffffffffffffffff167f98f4876a4b909335180eb57863fa803d83b3b76b2f8fc4a7f640f810f16be75360405160405180910390a25050565b611026613223565b5f60085f8481526020019081526020015f209050806006015f9054906101000a900473ffffffffffffffffffffffffffffffffffffffff1673ffffffffffffffffffffffffffffffffffffffff163373ffffffffffffffffffffffffffffffffffffffff16146110cb576040517f08c379a00000000000000000000000000000000000000000000000000000000081526004016110c2906151d9565b60405180910390fd5b60095f8481526020019081526020015f20805490508210611121576040517f08c379a000000000000000000000000000000000000000000000000000000000815260040161111890615241565b60405180910390fd5b5f60095f8581526020019081526020015f20838154811061114557611144615162565b5b905f5260205f20906003020190505f600381111561116657611165614813565b5b815f0160149054906101000a900460ff16600381111561118957611188614813565b5b146111c9576040517f08c379a00000000000000000000000000000000000000000000000000000000081526004016111c0906152a9565b60405180910390fd5b61025881600201546111db91906152c7565b42101561121d576040517f08c379a000000000000000000000000000000000000000000000000000000000815260040161121490615344565b60405180910390fd5b5f600a600284600501546112319190615362565b61123b91906153a3565b90505f600a846005015461124f91906153a3565b90505f835f015f9054906101000a900473ffffffffffffffffffffffffffffffffffffffff1673ffffffffffffffffffffffffffffffffffffffff16828461129791906153d3565b6040516112a390615433565b5f6040518083038185875af1925050503d805f81146112dd576040519150601f19603f3d011682016040523d82523d5f602084013e6112e2565b606091505b5050905080611326576040517f08c379a000000000000000000000000000000000000000000000000000000000815260040161131d90615491565b60405180910390fd5b5f60055f9054906101000a900473ffffffffffffffffffffffffffffffffffffffff1673ffffffffffffffffffffffffffffffffffffffff168360405161136c90615433565b5f6040518083038185875af1925050503d805f81146113a6576040519150601f19603f3d011682016040523d82523d5f602084013e6113ab565b606091505b50509050806113ef576040517f08c379a00000000000000000000000000000000000000000000000000000000081526004016113e690615491565b60405180910390fd5b8560050154856001015461140391906152c7565b600a5f886006015f9054906101000a900473ffffffffffffffffffffffffffffffffffffffff1673ffffffffffffffffffffffffffffffffffffffff1673ffffffffffffffffffffffffffffffffffffffff1681526020019081526020015f205f82825461147191906152c7565b925050819055505f85600101819055506002855f0160146101000a81548160ff021916908360038111156114a8576114a7614813565b5b0217905550856006015f9054906101000a900473ffffffffffffffffffffffffffffffffffffffff1673ffffffffffffffffffffffffffffffffffffffff1687897f264565e1ff1c54ef5f2bc263d3b7f062af7172daf399273b0c92ffc4fd8d4a4d33878961151791906153d3565b885f8d600501548d6001015461152d91906152c7565b60405161153e9594939291906154e8565b60405180910390a43373ffffffffffffffffffffffffffffffffffffffff16887f86f9d82fe70f334564dfb5d0f47619293510546518af6f46b21209f3cfd6d3e78960405161158d91906140f1565b60405180910390a35050505050506115a3613272565b5050565b6007602052805f5260405f205f9150905080546115c390614d3f565b80601f01602080910402602001604051908101604052809291908181526020018280546115ef90614d3f565b801561163a5780601f106116115761010080835404028352916020019161163a565b820191905f5260205f20905b81548152906001019060200180831161161d57829003601f168201915b505050505081565b5f60035f8481526020019081526020015f205f015f8373ffffffffffffffffffffffffffffffffffffffff1673ffffffffffffffffffffffffffffffffffffffff1681526020019081526020015f205f9054906101000a900460ff16905092915050565b7f16ceee8289685dd2a02b9c8ae81d2df373176ce53519e6284e2a2950d6546ffa81565b6116d2613223565b7f16ceee8289685dd2a02b9c8ae81d2df373176ce53519e6284e2a2950d6546ffa6116fc81612f1a565b60095f8581526020019081526020015f20805490508310611752576040517f08c379a000000000000000000000000000000000000000000000000000000000815260040161174990615241565b60405180910390fd5b5f60095f8681526020019081526020015f20848154811061177657611775615162565b5b905f5260205f20906003020190506001600381111561179857611797614813565b5b815f0160149054906101000a900460ff1660038111156117bb576117ba614813565b5b146117fb576040517f08c379a00000000000000000000000000000000000000000000000000000000081526004016117f290615583565b60405180910390fd5b5f60085f8781526020019081526020015f2090505f600a600283600501546118239190615362565b61182d91906153a3565b90505f600a836005015461184191906153a3565b90508515611b50575f60055f9054906101000a900473ffffffffffffffffffffffffffffffffffffffff1673ffffffffffffffffffffffffffffffffffffffff168260405161188f90615433565b5f6040518083038185875af1925050503d805f81146118c9576040519150601f19603f3d011682016040523d82523d5f602084013e6118ce565b606091505b5050905080611912576040517f08c379a000000000000000000000000000000000000000000000000000000000815260040161190990615491565b60405180910390fd5b5f60055f9054906101000a900473ffffffffffffffffffffffffffffffffffffffff1673ffffffffffffffffffffffffffffffffffffffff168360405161195890615433565b5f6040518083038185875af1925050503d805f8114611992576040519150601f19603f3d011682016040523d82523d5f602084013e611997565b606091505b50509050806119db576040517f08c379a00000000000000000000000000000000000000000000000000000000081526004016119d290615491565b60405180910390fd5b846005015486600101546119ef91906152c7565b600a5f876006015f9054906101000a900473ffffffffffffffffffffffffffffffffffffffff1673ffffffffffffffffffffffffffffffffffffffff1673ffffffffffffffffffffffffffffffffffffffff1681526020019081526020015f205f828254611a5d91906152c7565b925050819055505f86600101819055506002865f0160146101000a81548160ff02191690836003811115611a9457611a93614813565b5b0217905550846006015f9054906101000a900473ffffffffffffffffffffffffffffffffffffffff1673ffffffffffffffffffffffffffffffffffffffff16898b7f264565e1ff1c54ef5f2bc263d3b7f062af7172daf399273b0c92ffc4fd8d4a4d895f015f9054906101000a900473ffffffffffffffffffffffffffffffffffffffff165f88898c600501548e60010154611b3091906152c7565b604051611b419594939291906155a1565b60405180910390a45050611f3f565b5f845f015f9054906101000a900473ffffffffffffffffffffffffffffffffffffffff1673ffffffffffffffffffffffffffffffffffffffff16838560050154611b9a91906152c7565b604051611ba690615433565b5f6040518083038185875af1925050503d805f8114611be0576040519150601f19603f3d011682016040523d82523d5f602084013e611be5565b606091505b5050905080611c29576040517f08c379a0000000000000000000000000000000000000000000000000000000008152600401611c2090615491565b60405180910390fd5b5f60055f9054906101000a900473ffffffffffffffffffffffffffffffffffffffff1673ffffffffffffffffffffffffffffffffffffffff1683604051611c6f90615433565b5f6040518083038185875af1925050503d805f8114611ca9576040519150601f19603f3d011682016040523d82523d5f602084013e611cae565b606091505b5050905080611cf2576040517f08c379a0000000000000000000000000000000000000000000000000000000008152600401611ce990615491565b60405180910390fd5b5f60055f9054906101000a900473ffffffffffffffffffffffffffffffffffffffff1673ffffffffffffffffffffffffffffffffffffffff1684604051611d3890615433565b5f6040518083038185875af1925050503d805f8114611d72576040519150601f19603f3d011682016040523d82523d5f602084013e611d77565b606091505b5050905080611dbb576040517f08c379a0000000000000000000000000000000000000000000000000000000008152600401611db290615491565b60405180910390fd5b5f87600101819055506003875f0160146101000a81548160ff02191690836003811115611deb57611dea614813565b5b0217905550611e1e875f015f9054906101000a900473ffffffffffffffffffffffffffffffffffffffff168c600161327c565b856006015f9054906101000a900473ffffffffffffffffffffffffffffffffffffffff1673ffffffffffffffffffffffffffffffffffffffff168a8c7f264565e1ff1c54ef5f2bc263d3b7f062af7172daf399273b0c92ffc4fd8d4a4d8a5f015f9054906101000a900473ffffffffffffffffffffffffffffffffffffffff16898b60050154611eae91906152c7565b898a5f604051611ec29594939291906155f2565b60405180910390a4865f015f9054906101000a900473ffffffffffffffffffffffffffffffffffffffff1673ffffffffffffffffffffffffffffffffffffffff168b7f9e07dce46977ec95e7805c93ce75a606c8828e2f4a3e5554bfeb839d508950998c604051611f3391906140f1565b60405180910390a35050505b877fd4390d9b1eae30d53d6e598d7eba50e60f3ea18310ca83e7919e3df177bb05ca8888604051611f71929190615643565b60405180910390a25050505050611f86613272565b505050565b5f801b81565b611fa3611f9c612f2e565b838361331e565b5050565b7f877a78dc988c0ec5f58453b44888a55eb39755c3d5ed8d8ea990912aa3ef29c681565b600a602052805f5260405f205f915090505481565b60055f9054906101000a900473ffffffffffffffffffffffffffffffffffffffff1681565b61200d613223565b60095f8481526020019081526020015f20805490508210612063576040517f08c379a000000000000000000000000000000000000000000000000000000000815260040161205a90615241565b60405180910390fd5b5f60095f8581526020019081526020015f20838154811061208757612086615162565b5b905f5260205f20906003020190503373ffffffffffffffffffffffffffffffffffffffff16815f015f9054906101000a900473ffffffffffffffffffffffffffffffffffffffff1673ffffffffffffffffffffffffffffffffffffffff1614612125576040517f08c379a000000000000000000000000000000000000000000000000000000000815260040161211c906156b4565b60405180910390fd5b5f600381111561213857612137614813565b5b815f0160149054906101000a900460ff16600381111561215b5761215a614813565b5b1461219b576040517f08c379a0000000000000000000000000000000000000000000000000000000008152600401612192906152a9565b60405180910390fd5b5f60085f8681526020019081526020015f2090503373ffffffffffffffffffffffffffffffffffffffff16857fdfcfa307bd7ff3b7df976aea65a8df73deb67f2649e10e389ae208b2a5c667af86866040516121f8929190615643565b60405180910390a38215612516575f600a6002836005015461221a9190615362565b61222491906153a3565b90505f600a836005015461223891906153a3565b90505f3373ffffffffffffffffffffffffffffffffffffffff168360405161225f90615433565b5f6040518083038185875af1925050503d805f8114612299576040519150601f19603f3d011682016040523d82523d5f602084013e61229e565b606091505b50509050806122e2576040517f08c379a00000000000000000000000000000000000000000000000000000000081526004016122d990615491565b60405180910390fd5b5f60055f9054906101000a900473ffffffffffffffffffffffffffffffffffffffff1673ffffffffffffffffffffffffffffffffffffffff168360405161232890615433565b5f6040518083038185875af1925050503d805f8114612362576040519150601f19603f3d011682016040523d82523d5f602084013e612367565b606091505b50509050806123ab576040517f08c379a00000000000000000000000000000000000000000000000000000000081526004016123a290615491565b60405180910390fd5b82856005015487600101546123c091906152c7565b6123ca91906153d3565b600a5f876006015f9054906101000a900473ffffffffffffffffffffffffffffffffffffffff1673ffffffffffffffffffffffffffffffffffffffff1673ffffffffffffffffffffffffffffffffffffffff1681526020019081526020015f205f82825461243891906152c7565b925050819055505f86600101819055506002865f0160146101000a81548160ff0219169083600381111561246f5761246e614813565b5b0217905550846006015f9054906101000a900473ffffffffffffffffffffffffffffffffffffffff1673ffffffffffffffffffffffffffffffffffffffff16888a7f264565e1ff1c54ef5f2bc263d3b7f062af7172daf399273b0c92ffc4fd8d4a4d3388885f8a8d600501548f600101546124ea91906152c7565b6124f491906153d3565b6040516125059594939291906154e8565b60405180910390a450505050612592565b6001825f0160146101000a81548160ff0219169083600381111561253d5761253c614813565b5b02179055503373ffffffffffffffffffffffffffffffffffffffff16857fc6fb55a2bd2838e444163cece1945a661c371c5ec8c1a4ea5d697aefc76905478660405161258991906140f1565b60405180910390a35b505061259c613272565b505050565b5f63bc197c8160e01b905095945050505050565b6125be82610b3d565b6125c781612f1a565b6125d18383613113565b50505050565b6125df613223565b5f60085f8381526020019081526020015f209050806003015481600401541061263d576040517f08c379a00000000000000000000000000000000000000000000000000000000081526004016126349061571c565b60405180910390fd5b5f600a600283600501546126519190615362565b61265b91906153a3565b90505f81836005015461266e91906152c7565b90508034146126b2576040517f08c379a00000000000000000000000000000000000000000000000000000000081526004016126a990615784565b60405180910390fd5b81600a5f856006015f9054906101000a900473ffffffffffffffffffffffffffffffffffffffff1673ffffffffffffffffffffffffffffffffffffffff1673ffffffffffffffffffffffffffffffffffffffff1681526020019081526020015f20541015612755576040517f08c379a000000000000000000000000000000000000000000000000000000000815260040161274c906157ec565b60405180910390fd5b81600a5f856006015f9054906101000a900473ffffffffffffffffffffffffffffffffffffffff1673ffffffffffffffffffffffffffffffffffffffff1673ffffffffffffffffffffffffffffffffffffffff1681526020019081526020015f205f8282546127c491906153d3565b925050819055505f60405180608001604052803373ffffffffffffffffffffffffffffffffffffffff1681526020015f600381111561280657612805614813565b5b815260200184815260200142815250905060095f8681526020019081526020015f2081908060018154018082558091505060019003905f5260205f2090600302015f909190919091505f820151815f015f6101000a81548173ffffffffffffffffffffffffffffffffffffffff021916908373ffffffffffffffffffffffffffffffffffffffff1602179055506020820151815f0160146101000a81548160ff021916908360038111156128bd576128bc614813565b5b0217905550604082015181600101556060820151816002015550505f600160095f8881526020019081526020015f20805490506128fa91906153d3565b90506001856004015f82825461291091906152c7565b925050819055506129323387600160405180602001604052805f815250613487565b3373ffffffffffffffffffffffffffffffffffffffff1681877f0118b73186f00b652a3aaf789aa1ac1434f0800d84c3fe5b17a57aa550eb9725868860405161297c929190615114565b60405180910390a45050505050612991613272565b50565b5f60015f8473ffffffffffffffffffffffffffffffffffffffff1673ffffffffffffffffffffffffffffffffffffffff1681526020019081526020015f205f8373ffffffffffffffffffffffffffffffffffffffff1673ffffffffffffffffffffffffffffffffffffffff1681526020019081526020015f205f9054906101000a900460ff16905092915050565b8060075f3373ffffffffffffffffffffffffffffffffffffffff1673ffffffffffffffffffffffffffffffffffffffff1681526020019081526020015f209081612a6c9190615045565b503373ffffffffffffffffffffffffffffffffffffffff167fafed4f1a2c223cb1517e4013192d43a5074e18a142bf3f39fe8791187f634c2082604051612ab39190614272565b60405180910390a250565b612ac6613223565b7f877a78dc988c0ec5f58453b44888a55eb39755c3d5ed8d8ea990912aa3ef29c6612af081612f1a565b81600a5f3373ffffffffffffffffffffffffffffffffffffffff1673ffffffffffffffffffffffffffffffffffffffff1681526020019081526020015f20541015612b70576040517f08c379a0000000000000000000000000000000000000000000000000000000008152600401612b6790615854565b60405180910390fd5b81600a5f3373ffffffffffffffffffffffffffffffffffffffff1673ffffffffffffffffffffffffffffffffffffffff1681526020019081526020015f205f828254612bbc91906153d3565b925050819055505f3373ffffffffffffffffffffffffffffffffffffffff1683604051612be890615433565b5f6040518083038185875af1925050503d805f8114612c22576040519150601f19603f3d011682016040523d82523d5f602084013e612c27565b606091505b5050905080612c6b576040517f08c379a0000000000000000000000000000000000000000000000000000000008152600401612c62906158bc565b60405180910390fd5b3373ffffffffffffffffffffffffffffffffffffffff167f566e45b1c8057e725bf62796a7f1d37ae294393cab069725a09daddd1af98b7984604051612cb191906140f1565b60405180910390a25050612cc3613272565b50565b5f63f23a6e6160e01b905095945050505050565b5f612ce3612f2e565b90508073ffffffffffffffffffffffffffffffffffffffff168673ffffffffffffffffffffffffffffffffffffffff1614158015612d285750612d268682612994565b155b15612d6c5780866040517fe237d922000000000000000000000000000000000000000000000000000000008152600401612d6392919061513b565b60405180910390fd5b612d79868686868661351c565b505050505050565b612d89613223565b7f877a78dc988c0ec5f58453b44888a55eb39755c3d5ed8d8ea990912aa3ef29c6612db381612f1a565b5f3411612df5576040517f08c379a0000000000000000000000000000000000000000000000000000000008152600401612dec90615924565b60405180910390fd5b34600a5f3373ffffffffffffffffffffffffffffffffffffffff1673ffffffffffffffffffffffffffffffffffffffff1681526020019081526020015f205f828254612e4191906152c7565b925050819055503373ffffffffffffffffffffffffffffffffffffffff167fced5d8bf10823804603bba066e4f53aa6e8f6f4be68bf0114cf7a0e52183e4e934604051612e8e91906140f1565b60405180910390a250612e9f613272565b565b5f7f7965db0b000000000000000000000000000000000000000000000000000000007bffffffffffffffffffffffffffffffffffffffffffffffffffffffff1916827bffffffffffffffffffffffffffffffffffffffffffffffffffffffff19161480612f135750612f1282613622565b5b9050919050565b612f2b81612f26612f2e565b61369b565b50565b5f33905090565b5f73ffffffffffffffffffffffffffffffffffffffff168473ffffffffffffffffffffffffffffffffffffffff1603612fa5575f6040517f57f447ce000000000000000000000000000000000000000000000000000000008152600401612f9c9190614bb9565b60405180910390fd5b5f73ffffffffffffffffffffffffffffffffffffffff168573ffffffffffffffffffffffffffffffffffffffff1603613015575f6040517f01a8351400000000000000000000000000000000000000000000000000000000815260040161300c9190614bb9565b60405180910390fd5b61302285858585856136ec565b5050505050565b5f6130348383611642565b61310957600160035f8581526020019081526020015f205f015f8473ffffffffffffffffffffffffffffffffffffffff1673ffffffffffffffffffffffffffffffffffffffff1681526020019081526020015f205f6101000a81548160ff0219169083151502179055506130a6612f2e565b73ffffffffffffffffffffffffffffffffffffffff168273ffffffffffffffffffffffffffffffffffffffff16847f2f8788117e7eff1d82e926ec794901d17c78024a50270940304540a733656f0d60405160405180910390a46001905061310d565b5f90505b92915050565b5f61311e8383611642565b156131f3575f60035f8581526020019081526020015f205f015f8473ffffffffffffffffffffffffffffffffffffffff1673ffffffffffffffffffffffffffffffffffffffff1681526020019081526020015f205f6101000a81548160ff021916908315150217905550613190612f2e565b73ffffffffffffffffffffffffffffffffffffffff168273ffffffffffffffffffffffffffffffffffffffff16847ff6391f5c32d9c69d2a47ea670b442974b53935d1edc7fd64eb21e047a839171b60405160405180910390a4600190506131f7565b5f90505b92915050565b5f60208202602084010151905092915050565b5f60208202602084010151905092915050565b600260045403613268576040517f08c379a000000000000000000000000000000000000000000000000000000000815260040161325f9061598c565b60405180910390fd5b6002600481905550565b6001600481905550565b5f73ffffffffffffffffffffffffffffffffffffffff168373ffffffffffffffffffffffffffffffffffffffff16036132ec575f6040517f01a835140000000000000000000000000000000000000000000000000000000081526004016132e39190614bb9565b60405180910390fd5b5f806132f88484613798565b91509150613317855f848460405180602001604052805f8152506136ec565b5050505050565b5f73ffffffffffffffffffffffffffffffffffffffff168273ffffffffffffffffffffffffffffffffffffffff160361338e575f6040517fced3e1000000000000000000000000000000000000000000000000000000000081526004016133859190614bb9565b60405180910390fd5b8060015f8573ffffffffffffffffffffffffffffffffffffffff1673ffffffffffffffffffffffffffffffffffffffff1681526020019081526020015f205f8473ffffffffffffffffffffffffffffffffffffffff1673ffffffffffffffffffffffffffffffffffffffff1681526020019081526020015f205f6101000a81548160ff0219169083151502179055508173ffffffffffffffffffffffffffffffffffffffff168373ffffffffffffffffffffffffffffffffffffffff167f17307eab39ab6107e8899845ad3d59bd9653f200f220920489ca2b5937696c318360405161347a91906141a4565b60405180910390a3505050565b5f73ffffffffffffffffffffffffffffffffffffffff168473ffffffffffffffffffffffffffffffffffffffff16036134f7575f6040517f57f447ce0000000000000000000000000000000000000000000000000000000081526004016134ee9190614bb9565b60405180910390fd5b5f806135038585613798565b915091506135145f878484876136ec565b505050505050565b5f73ffffffffffffffffffffffffffffffffffffffff168473ffffffffffffffffffffffffffffffffffffffff160361358c575f6040517f57f447ce0000000000000000000000000000000000000000000000000000000081526004016135839190614bb9565b60405180910390fd5b5f73ffffffffffffffffffffffffffffffffffffffff168573ffffffffffffffffffffffffffffffffffffffff16036135fc575f6040517f01a835140000000000000000000000000000000000000000000000000000000081526004016135f39190614bb9565b60405180910390fd5b5f806136088585613798565b9150915061361987878484876136ec565b50505050505050565b5f7f4e2312e0000000000000000000000000000000000000000000000000000000007bffffffffffffffffffffffffffffffffffffffffffffffffffffffff1916827bffffffffffffffffffffffffffffffffffffffffffffffffffffffff191614806136945750613693826137c8565b5b9050919050565b6136a58282611642565b6136e85780826040517fe2517d3f0000000000000000000000000000000000000000000000000000000081526004016136df9291906159aa565b60405180910390fd5b5050565b6136f8858585856138a9565b5f73ffffffffffffffffffffffffffffffffffffffff168473ffffffffffffffffffffffffffffffffffffffff1614613791575f613734612f2e565b90506001845103613780575f6137535f8661321090919063ffffffff16565b90505f6137695f8661321090919063ffffffff16565b9050613779838989858589613c3f565b505061378f565b61378e818787878787613dee565b5b505b5050505050565b60608060405191506001825283602083015260408201905060018152826020820152604081016040529250929050565b5f7fd9b67a26000000000000000000000000000000000000000000000000000000007bffffffffffffffffffffffffffffffffffffffffffffffffffffffff1916827bffffffffffffffffffffffffffffffffffffffffffffffffffffffff1916148061389257507f0e89341c000000000000000000000000000000000000000000000000000000007bffffffffffffffffffffffffffffffffffffffffffffffffffffffff1916827bffffffffffffffffffffffffffffffffffffffffffffffffffffffff1916145b806138a257506138a182613f9d565b5b9050919050565b80518251146138f357815181516040517f5b0599910000000000000000000000000000000000000000000000000000000081526004016138ea929190615114565b60405180910390fd5b5f6138fc612f2e565b90505f5b8351811015613afe575f61391d828661321090919063ffffffff16565b90505f613933838661321090919063ffffffff16565b90505f73ffffffffffffffffffffffffffffffffffffffff168873ffffffffffffffffffffffffffffffffffffffff1614613a56575f805f8481526020019081526020015f205f8a73ffffffffffffffffffffffffffffffffffffffff1673ffffffffffffffffffffffffffffffffffffffff1681526020019081526020015f2054905081811015613a0257888183856040517f03dee4c50000000000000000000000000000000000000000000000000000000081526004016139f994939291906159d1565b60405180910390fd5b8181035f808581526020019081526020015f205f8b73ffffffffffffffffffffffffffffffffffffffff1673ffffffffffffffffffffffffffffffffffffffff1681526020019081526020015f2081905550505b5f73ffffffffffffffffffffffffffffffffffffffff168773ffffffffffffffffffffffffffffffffffffffff1614613aeb57805f808481526020019081526020015f205f8973ffffffffffffffffffffffffffffffffffffffff1673ffffffffffffffffffffffffffffffffffffffff1681526020019081526020015f205f828254613ae391906152c7565b925050819055505b505080613af790614e61565b9050613900565b506001835103613bb9575f613b1c5f8561321090919063ffffffff16565b90505f613b325f8561321090919063ffffffff16565b90508573ffffffffffffffffffffffffffffffffffffffff168773ffffffffffffffffffffffffffffffffffffffff168473ffffffffffffffffffffffffffffffffffffffff167fc3d58168c5ae7397731d063d5bbf3d657854427343f4c083240f7aacaa2d0f628585604051613baa929190615114565b60405180910390a45050613c38565b8373ffffffffffffffffffffffffffffffffffffffff168573ffffffffffffffffffffffffffffffffffffffff168273ffffffffffffffffffffffffffffffffffffffff167f4a39dc06d4c0dbc64b70af90fd698a233a518aa5d07e595d983b8c0526c8f7fb8686604051613c2f929190615a14565b60405180910390a45b5050505050565b5f8473ffffffffffffffffffffffffffffffffffffffff163b1115613de6578373ffffffffffffffffffffffffffffffffffffffff1663f23a6e6187878686866040518663ffffffff1660e01b8152600401613c9f959493929190615a9b565b6020604051808303815f875af1925050508015613cda57506040513d601f19601f82011682018060405250810190613cd79190615b07565b60015b613d5b573d805f8114613d08576040519150601f19603f3d011682016040523d82523d5f602084013e613d0d565b606091505b505f815103613d5357846040517f57f447ce000000000000000000000000000000000000000000000000000000008152600401613d4a9190614bb9565b60405180910390fd5b805181602001fd5b63f23a6e6160e01b7bffffffffffffffffffffffffffffffffffffffffffffffffffffffff1916817bffffffffffffffffffffffffffffffffffffffffffffffffffffffff191614613de457846040517f57f447ce000000000000000000000000000000000000000000000000000000008152600401613ddb9190614bb9565b60405180910390fd5b505b505050505050565b5f8473ffffffffffffffffffffffffffffffffffffffff163b1115613f95578373ffffffffffffffffffffffffffffffffffffffff1663bc197c8187878686866040518663ffffffff1660e01b8152600401613e4e959493929190615b32565b6020604051808303815f875af1925050508015613e8957506040513d601f19601f82011682018060405250810190613e869190615b07565b60015b613f0a573d805f8114613eb7576040519150601f19603f3d011682016040523d82523d5f602084013e613ebc565b606091505b505f815103613f0257846040517f57f447ce000000000000000000000000000000000000000000000000000000008152600401613ef99190614bb9565b60405180910390fd5b805181602001fd5b63bc197c8160e01b7bffffffffffffffffffffffffffffffffffffffffffffffffffffffff1916817bffffffffffffffffffffffffffffffffffffffffffffffffffffffff191614613f9357846040517f57f447ce000000000000000000000000000000000000000000000000000000008152600401613f8a9190614bb9565b60405180910390fd5b505b505050505050565b5f7f01ffc9a7000000000000000000000000000000000000000000000000000000007bffffffffffffffffffffffffffffffffffffffffffffffffffffffff1916827bffffffffffffffffffffffffffffffffffffffffffffffffffffffff1916149050919050565b5f604051905090565b5f80fd5b5f80fd5b5f73ffffffffffffffffffffffffffffffffffffffff82169050919050565b5f61404082614017565b9050919050565b61405081614036565b811461405a575f80fd5b50565b5f8135905061406b81614047565b92915050565b5f819050919050565b61408381614071565b811461408d575f80fd5b50565b5f8135905061409e8161407a565b92915050565b5f80604083850312156140ba576140b961400f565b5b5f6140c78582860161405d565b92505060206140d885828601614090565b9150509250929050565b6140eb81614071565b82525050565b5f6020820190506141045f8301846140e2565b92915050565b5f7fffffffff0000000000000000000000000000000000000000000000000000000082169050919050565b61413e8161410a565b8114614148575f80fd5b50565b5f8135905061415981614135565b92915050565b5f602082840312156141745761417361400f565b5b5f6141818482850161414b565b91505092915050565b5f8115159050919050565b61419e8161418a565b82525050565b5f6020820190506141b75f830184614195565b92915050565b5f602082840312156141d2576141d161400f565b5b5f6141df84828501614090565b91505092915050565b5f81519050919050565b5f82825260208201905092915050565b5f5b8381101561421f578082015181840152602081019050614204565b5f8484015250505050565b5f601f19601f8301169050919050565b5f614244826141e8565b61424e81856141f2565b935061425e818560208601614202565b6142678161422a565b840191505092915050565b5f6020820190508181035f83015261428a818461423a565b905092915050565b5f80fd5b5f80fd5b7f4e487b71000000000000000000000000000000000000000000000000000000005f52604160045260245ffd5b6142d08261422a565b810181811067ffffffffffffffff821117156142ef576142ee61429a565b5b80604052505050565b5f614301614006565b905061430d82826142c7565b919050565b5f67ffffffffffffffff82111561432c5761432b61429a565b5b6143358261422a565b9050602081019050919050565b828183375f83830152505050565b5f61436261435d84614312565b6142f8565b90508281526020810184848401111561437e5761437d614296565b5b614389848285614342565b509392505050565b5f82601f8301126143a5576143a4614292565b5b81356143b5848260208601614350565b91505092915050565b5f805f80608085870312156143d6576143d561400f565b5b5f85013567ffffffffffffffff8111156143f3576143f2614013565b5b6143ff87828801614391565b945050602085013567ffffffffffffffff8111156144205761441f614013565b5b61442c87828801614391565b935050604061443d87828801614090565b925050606061444e87828801614090565b91505092959194509250565b5f819050919050565b61446c8161445a565b8114614476575f80fd5b50565b5f8135905061448781614463565b92915050565b5f602082840312156144a2576144a161400f565b5b5f6144af84828501614479565b91505092915050565b6144c18161445a565b82525050565b5f6020820190506144da5f8301846144b8565b92915050565b5f67ffffffffffffffff8211156144fa576144f961429a565b5b602082029050602081019050919050565b5f80fd5b5f61452161451c846144e0565b6142f8565b905080838252602082019050602084028301858111156145445761454361450b565b5b835b8181101561456d57806145598882614090565b845260208401935050602081019050614546565b5050509392505050565b5f82601f83011261458b5761458a614292565b5b813561459b84826020860161450f565b91505092915050565b5f67ffffffffffffffff8211156145be576145bd61429a565b5b6145c78261422a565b9050602081019050919050565b5f6145e66145e1846145a4565b6142f8565b90508281526020810184848401111561460257614601614296565b5b61460d848285614342565b509392505050565b5f82601f83011261462957614628614292565b5b81356146398482602086016145d4565b91505092915050565b5f805f805f60a0868803121561465b5761465a61400f565b5b5f6146688882890161405d565b95505060206146798882890161405d565b945050604086013567ffffffffffffffff81111561469a57614699614013565b5b6146a688828901614577565b935050606086013567ffffffffffffffff8111156146c7576146c6614013565b5b6146d388828901614577565b925050608086013567ffffffffffffffff8111156146f4576146f3614013565b5b61470088828901614615565b9150509295509295909350565b5f80604083850312156147235761472261400f565b5b5f61473085828601614479565b92505060206147418582860161405d565b9150509250929050565b61475481614036565b82525050565b5f60e08201905061476d5f83018a6140e2565b818103602083015261477f818961423a565b90508181036040830152614793818861423a565b90506147a260608301876140e2565b6147af60808301866140e2565b6147bc60a08301856140e2565b6147c960c083018461474b565b98975050505050505050565b5f80604083850312156147eb576147ea61400f565b5b5f6147f885828601614090565b925050602061480985828601614090565b9150509250929050565b7f4e487b71000000000000000000000000000000000000000000000000000000005f52602160045260245ffd5b6004811061485157614850614813565b5b50565b5f81905061486182614840565b919050565b5f61487082614854565b9050919050565b61488081614866565b82525050565b5f6080820190506148995f83018761474b565b6148a66020830186614877565b6148b360408301856140e2565b6148c060608301846140e2565b95945050505050565b5f67ffffffffffffffff8211156148e3576148e261429a565b5b602082029050602081019050919050565b5f614906614901846148c9565b6142f8565b905080838252602082019050602084028301858111156149295761492861450b565b5b835b81811015614952578061493e888261405d565b84526020840193505060208101905061492b565b5050509392505050565b5f82601f8301126149705761496f614292565b5b81356149808482602086016148f4565b91505092915050565b5f806040838503121561499f5761499e61400f565b5b5f83013567ffffffffffffffff8111156149bc576149bb614013565b5b6149c88582860161495c565b925050602083013567ffffffffffffffff8111156149e9576149e8614013565b5b6149f585828601614577565b9150509250929050565b5f81519050919050565b5f82825260208201905092915050565b5f819050602082019050919050565b614a3181614071565b82525050565b5f614a428383614a28565b60208301905092915050565b5f602082019050919050565b5f614a64826149ff565b614a6e8185614a09565b9350614a7983614a19565b805f5b83811015614aa9578151614a908882614a37565b9750614a9b83614a4e565b925050600181019050614a7c565b5085935050505092915050565b5f6020820190508181035f830152614ace8184614a5a565b905092915050565b5f60208284031215614aeb57614aea61400f565b5b5f614af88482850161405d565b91505092915050565b614b0a8161418a565b8114614b14575f80fd5b50565b5f81359050614b2581614b01565b92915050565b5f805f60608486031215614b4257614b4161400f565b5b5f614b4f86828701614090565b9350506020614b6086828701614090565b9250506040614b7186828701614b17565b9150509250925092565b5f8060408385031215614b9157614b9061400f565b5b5f614b9e8582860161405d565b9250506020614baf85828601614b17565b9150509250929050565b5f602082019050614bcc5f83018461474b565b92915050565b614bdb8161410a565b82525050565b5f602082019050614bf45f830184614bd2565b92915050565b5f8060408385031215614c1057614c0f61400f565b5b5f614c1d8582860161405d565b9250506020614c2e8582860161405d565b9150509250929050565b5f60208284031215614c4d57614c4c61400f565b5b5f82013567ffffffffffffffff811115614c6a57614c69614013565b5b614c7684828501614391565b91505092915050565b5f805f805f60a08688031215614c9857614c9761400f565b5b5f614ca58882890161405d565b9550506020614cb68882890161405d565b9450506040614cc788828901614090565b9350506060614cd888828901614090565b925050608086013567ffffffffffffffff811115614cf957614cf8614013565b5b614d0588828901614615565b9150509295509295909350565b7f4e487b71000000000000000000000000000000000000000000000000000000005f52602260045260245ffd5b5f6002820490506001821680614d5657607f821691505b602082108103614d6957614d68614d12565b5b50919050565b7f4e487b71000000000000000000000000000000000000000000000000000000005f52601260045260245ffd5b5f614da682614071565b9150614db183614071565b925082614dc157614dc0614d6f565b5b828206905092915050565b7f5072696365206d75737420626520646976697369626c652062792031300000005f82015250565b5f614e00601d836141f2565b9150614e0b82614dcc565b602082019050919050565b5f6020820190508181035f830152614e2d81614df4565b9050919050565b7f4e487b71000000000000000000000000000000000000000000000000000000005f52601160045260245ffd5b5f614e6b82614071565b91507fffffffffffffffffffffffffffffffffffffffffffffffffffffffffffffffff8203614e9d57614e9c614e34565b5b600182019050919050565b5f819050815f5260205f209050919050565b5f6020601f8301049050919050565b5f82821b905092915050565b5f60088302614f047fffffffffffffffffffffffffffffffffffffffffffffffffffffffffffffffff82614ec9565b614f0e8683614ec9565b95508019841693508086168417925050509392505050565b5f819050919050565b5f614f49614f44614f3f84614071565b614f26565b614071565b9050919050565b5f819050919050565b614f6283614f2f565b614f76614f6e82614f50565b848454614ed5565b825550505050565b5f90565b614f8a614f7e565b614f95818484614f59565b505050565b5b81811015614fb857614fad5f82614f82565b600181019050614f9b565b5050565b601f821115614ffd57614fce81614ea8565b614fd784614eba565b81016020851015614fe6578190505b614ffa614ff285614eba565b830182614f9a565b50505b505050565b5f82821c905092915050565b5f61501d5f1984600802615002565b1980831691505092915050565b5f615035838361500e565b9150826002028217905092915050565b61504e826141e8565b67ffffffffffffffff8111156150675761506661429a565b5b6150718254614d3f565b61507c828285614fbc565b5f60209050601f8311600181146150ad575f841561509b578287015190505b6150a5858261502a565b86555061510c565b601f1984166150bb86614ea8565b5f5b828110156150e2578489015182556001820191506020850194506020810190506150bd565b868310156150ff57848901516150fb601f89168261500e565b8355505b6001600288020188555050505b505050505050565b5f6040820190506151275f8301856140e2565b61513460208301846140e2565b9392505050565b5f60408201905061514e5f83018561474b565b61515b602083018461474b565b9392505050565b7f4e487b71000000000000000000000000000000000000000000000000000000005f52603260045260245ffd5b7f4f6e6c79206172746973742063616e20666f72636520636f6e6669726d0000005f82015250565b5f6151c3601d836141f2565b91506151ce8261518f565b602082019050919050565b5f6020820190508181035f8301526151f0816151b7565b9050919050565b7f496e76616c696420707572636861736520696e646578000000000000000000005f82015250565b5f61522b6016836141f2565b9150615236826151f7565b602082019050919050565b5f6020820190508181035f8301526152588161521f565b9050919050565b7f5075726368617365206e6f7420616374697665000000000000000000000000005f82015250565b5f6152936013836141f2565b915061529e8261525f565b602082019050919050565b5f6020820190508181035f8301526152c081615287565b9050919050565b5f6152d182614071565b91506152dc83614071565b92508282019050808211156152f4576152f3614e34565b5b92915050565b7f54696d656f7574206e6f742072656163686564000000000000000000000000005f82015250565b5f61532e6013836141f2565b9150615339826152fa565b602082019050919050565b5f6020820190508181035f83015261535b81615322565b9050919050565b5f61536c82614071565b915061537783614071565b925082820261538581614071565b9150828204841483151761539c5761539b614e34565b5b5092915050565b5f6153ad82614071565b91506153b883614071565b9250826153c8576153c7614d6f565b5b828204905092915050565b5f6153dd82614071565b91506153e883614071565b9250828203905081811115615400576153ff614e34565b5b92915050565b5f81905092915050565b50565b5f61541e5f83615406565b915061542982615410565b5f82019050919050565b5f61543d82615413565b9150819050919050565b7f526566756e64206661696c6564000000000000000000000000000000000000005f82015250565b5f61547b600d836141f2565b915061548682615447565b602082019050919050565b5f6020820190508181035f8301526154a88161546f565b9050919050565b5f819050919050565b5f6154d26154cd6154c8846154af565b614f26565b614071565b9050919050565b6154e2816154b8565b82525050565b5f60a0820190506154fb5f83018861474b565b61550860208301876140e2565b61551560408301866140e2565b61552260608301856154d9565b61552f60808301846140e2565b9695505050505050565b7f5075726368617365206e6f7420696e20646973707574650000000000000000005f82015250565b5f61556d6017836141f2565b915061557882615539565b602082019050919050565b5f6020820190508181035f83015261559a81615561565b9050919050565b5f60a0820190506155b45f83018861474b565b6155c160208301876154d9565b6155ce60408301866140e2565b6155db60608301856140e2565b6155e860808301846140e2565b9695505050505050565b5f60a0820190506156055f83018861474b565b61561260208301876140e2565b61561f60408301866140e2565b61562c60608301856140e2565b61563960808301846154d9565b9695505050505050565b5f6040820190506156565f8301856140e2565b6156636020830184614195565b9392505050565b7f43616c6c6572206973206e6f74207468652062757965720000000000000000005f82015250565b5f61569e6017836141f2565b91506156a98261566a565b602082019050919050565b5f6020820190508181035f8301526156cb81615692565b9050919050565b7f416c6c204e465473206d696e74656400000000000000000000000000000000005f82015250565b5f615706600f836141f2565b9150615711826156d2565b602082019050919050565b5f6020820190508181035f830152615733816156fa565b9050919050565b7f496e636f72726563742045544820616d6f756e742073656e74000000000000005f82015250565b5f61576e6019836141f2565b91506157798261573a565b602082019050919050565b5f6020820190508181035f83015261579b81615762565b9050919050565b7f417274697374206465706f73697420696e73756666696369656e7400000000005f82015250565b5f6157d6601b836141f2565b91506157e1826157a2565b602082019050919050565b5f6020820190508181035f830152615803816157ca565b9050919050565b7f496e73756666696369656e74206465706f7369740000000000000000000000005f82015250565b5f61583e6014836141f2565b91506158498261580a565b602082019050919050565b5f6020820190508181035f83015261586b81615832565b9050919050565b7f5769746864726177616c206661696c65640000000000000000000000000000005f82015250565b5f6158a66011836141f2565b91506158b182615872565b602082019050919050565b5f6020820190508181035f8301526158d38161589a565b9050919050565b7f4d757374206465706f73697420706f73697469766520455448000000000000005f82015250565b5f61590e6019836141f2565b9150615919826158da565b602082019050919050565b5f6020820190508181035f83015261593b81615902565b9050919050565b7f5265656e7472616e637947756172643a207265656e7472616e742063616c6c005f82015250565b5f615976601f836141f2565b915061598182615942565b602082019050919050565b5f6020820190508181035f8301526159a38161596a565b9050919050565b5f6040820190506159bd5f83018561474b565b6159ca60208301846144b8565b9392505050565b5f6080820190506159e45f83018761474b565b6159f160208301866140e2565b6159fe60408301856140e2565b615a0b60608301846140e2565b95945050505050565b5f6040820190508181035f830152615a2c8185614a5a565b90508181036020830152615a408184614a5a565b90509392505050565b5f81519050919050565b5f82825260208201905092915050565b5f615a6d82615a49565b615a778185615a53565b9350615a87818560208601614202565b615a908161422a565b840191505092915050565b5f60a082019050615aae5f83018861474b565b615abb602083018761474b565b615ac860408301866140e2565b615ad560608301856140e2565b8181036080830152615ae78184615a63565b90509695505050505050565b5f81519050615b0181614135565b92915050565b5f60208284031215615b1c57615b1b61400f565b5b5f615b2984828501615af3565b91505092915050565b5f60a082019050615b455f83018861474b565b615b52602083018761474b565b8181036040830152615b648186614a5a565b90508181036060830152615b788185614a5a565b90508181036080830152615b8c8184615a63565b9050969550505050505056fea26469706673582212207a4d4d4a31ecf05c5f1986219d11c0a8cd0382ba57416bb4f3b328b31f9d723364736f6c63430008140033",
			"opcodes": "PUSH1 0x80 PUSH1 0x40 MSTORE CALLVALUE DUP1 ISZERO PUSH3 0x10 JUMPI PUSH0 DUP1 REVERT JUMPDEST POP PUSH1 0x40 MLOAD PUSH3 0x62F4 CODESIZE SUB DUP1 PUSH3 0x62F4 DUP4 CODECOPY DUP2 DUP2 ADD PUSH1 0x40 MSTORE DUP2 ADD SWAP1 PUSH3 0x36 SWAP2 SWAP1 PUSH3 0x3AE JUMP JUMPDEST DUP1 PUSH3 0x48 DUP2 PUSH3 0xAD PUSH1 0x20 SHL PUSH1 0x20 SHR JUMP JUMPDEST POP PUSH1 0x1 PUSH1 0x4 DUP2 SWAP1 SSTORE POP PUSH3 0x65 PUSH0 DUP1 SHL CALLER PUSH3 0xC2 PUSH1 0x20 SHL PUSH1 0x20 SHR JUMP JUMPDEST POP CALLER PUSH1 0x5 PUSH0 PUSH2 0x100 EXP DUP2 SLOAD DUP2 PUSH20 0xFFFFFFFFFFFFFFFFFFFFFFFFFFFFFFFFFFFFFFFF MUL NOT AND SWAP1 DUP4 PUSH20 0xFFFFFFFFFFFFFFFFFFFFFFFFFFFFFFFFFFFFFFFF AND MUL OR SWAP1 SSTORE POP POP PUSH3 0x718 JUMP JUMPDEST DUP1 PUSH1 0x2 SWAP1 DUP2 PUSH3 0xBE SWAP2 SWAP1 PUSH3 0x634 JUMP JUMPDEST POP POP JUMP JUMPDEST PUSH0 PUSH3 0xD5 DUP4 DUP4 PUSH3 0x1BE PUSH1 0x20 SHL PUSH1 0x20 SHR JUMP JUMPDEST PUSH3 0x1B4 JUMPI PUSH1 0x1 PUSH1 0x3 PUSH0 DUP6 DUP2 MSTORE PUSH1 0x20 ADD SWAP1 DUP2 MSTORE PUSH1 0x20 ADD PUSH0 KECCAK256 PUSH0 ADD PUSH0 DUP5 PUSH20 0xFFFFFFFFFFFFFFFFFFFFFFFFFFFFFFFFFFFFFFFF AND PUSH20 0xFFFFFFFFFFFFFFFFFFFFFFFFFFFFFFFFFFFFFFFF AND DUP2 MSTORE PUSH1 0x20 ADD SWAP1 DUP2 MSTORE PUSH1 0x20 ADD PUSH0 KECCAK256 PUSH0 PUSH2 0x100 EXP DUP2 SLOAD DUP2 PUSH1 0xFF MUL NOT AND SWAP1 DUP4 ISZERO ISZERO MUL OR SWAP1 SSTORE POP PUSH3 0x150 PUSH3 0x222 PUSH1 0x20 SHL PUSH1 0x20 SHR JUMP JUMPDEST PUSH20 0xFFFFFFFFFFFFFFFFFFFFFFFFFFFFFFFFFFFFFFFF AND DUP3 PUSH20 0xFFFFFFFFFFFFFFFFFFFFFFFFFFFFFFFFFFFFFFFF AND DUP5 PUSH32 0x2F8788117E7EFF1D82E926EC794901D17C78024A50270940304540A733656F0D PUSH1 0x40 MLOAD PUSH1 0x40 MLOAD DUP1 SWAP2 SUB SWAP1 LOG4 PUSH1 0x1 SWAP1 POP PUSH3 0x1B8 JUMP JUMPDEST PUSH0 SWAP1 POP JUMPDEST SWAP3 SWAP2 POP POP JUMP JUMPDEST PUSH0 PUSH1 0x3 PUSH0 DUP5 DUP2 MSTORE PUSH1 0x20 ADD SWAP1 DUP2 MSTORE PUSH1 0x20 ADD PUSH0 KECCAK256 PUSH0 ADD PUSH0 DUP4 PUSH20 0xFFFFFFFFFFFFFFFFFFFFFFFFFFFFFFFFFFFFFFFF AND PUSH20 0xFFFFFFFFFFFFFFFFFFFFFFFFFFFFFFFFFFFFFFFF AND DUP2 MSTORE PUSH1 0x20 ADD SWAP1 DUP2 MSTORE PUSH1 0x20 ADD PUSH0 KECCAK256 PUSH0 SWAP1 SLOAD SWAP1 PUSH2 0x100 EXP SWAP1 DIV PUSH1 0xFF AND SWAP1 POP SWAP3 SWAP2 POP POP JUMP JUMPDEST PUSH0 CALLER SWAP1 POP SWAP1 JUMP JUMPDEST PUSH0 PUSH1 0x40 MLOAD SWAP1 POP SWAP1 JUMP JUMPDEST PUSH0 DUP1 REVERT JUMPDEST PUSH0 DUP1 REVERT JUMPDEST PUSH0 DUP1 REVERT JUMPDEST PUSH0 DUP1 REVERT JUMPDEST PUSH0 PUSH1 0x1F NOT PUSH1 0x1F DUP4 ADD AND SWAP1 POP SWAP2 SWAP1 POP JUMP JUMPDEST PUSH32 0x4E487B7100000000000000000000000000000000000000000000000000000000 PUSH0 MSTORE PUSH1 0x41 PUSH1 0x4 MSTORE PUSH1 0x24 PUSH0 REVERT JUMPDEST PUSH3 0x28A DUP3 PUSH3 0x242 JUMP JUMPDEST DUP2 ADD DUP2 DUP2 LT PUSH8 0xFFFFFFFFFFFFFFFF DUP3 GT OR ISZERO PUSH3 0x2AC JUMPI PUSH3 0x2AB PUSH3 0x252 JUMP JUMPDEST JUMPDEST DUP1 PUSH1 0x40 MSTORE POP POP POP JUMP JUMPDEST PUSH0 PUSH3 0x2C0 PUSH3 0x229 JUMP JUMPDEST SWAP1 POP PUSH3 0x2CE DUP3 DUP3 PUSH3 0x27F JUMP JUMPDEST SWAP2 SWAP1 POP JUMP JUMPDEST PUSH0 PUSH8 0xFFFFFFFFFFFFFFFF DUP3 GT ISZERO PUSH3 0x2F0 JUMPI PUSH3 0x2EF PUSH3 0x252 JUMP JUMPDEST JUMPDEST PUSH3 0x2FB DUP3 PUSH3 0x242 JUMP JUMPDEST SWAP1 POP PUSH1 0x20 DUP2 ADD SWAP1 POP SWAP2 SWAP1 POP JUMP JUMPDEST PUSH0 JUMPDEST DUP4 DUP2 LT ISZERO PUSH3 0x327 JUMPI DUP1 DUP3 ADD MLOAD DUP2 DUP5 ADD MSTORE PUSH1 0x20 DUP2 ADD SWAP1 POP PUSH3 0x30A JUMP JUMPDEST PUSH0 DUP5 DUP5 ADD MSTORE POP POP POP POP JUMP JUMPDEST PUSH0 PUSH3 0x348 PUSH3 0x342 DUP5 PUSH3 0x2D3 JUMP JUMPDEST PUSH3 0x2B5 JUMP JUMPDEST SWAP1 POP DUP3 DUP2 MSTORE PUSH1 0x20 DUP2 ADD DUP5 DUP5 DUP5 ADD GT ISZERO PUSH3 0x367 JUMPI PUSH3 0x366 PUSH3 0x23E JUMP JUMPDEST JUMPDEST PUSH3 0x374 DUP5 DUP3 DUP6 PUSH3 0x308 JUMP JUMPDEST POP SWAP4 SWAP3 POP POP POP JUMP JUMPDEST PUSH0 DUP3 PUSH1 0x1F DUP4 ADD SLT PUSH3 0x393 JUMPI PUSH3 0x392 PUSH3 0x23A JUMP JUMPDEST JUMPDEST DUP2 MLOAD PUSH3 0x3A5 DUP5 DUP3 PUSH1 0x20 DUP7 ADD PUSH3 0x332 JUMP JUMPDEST SWAP2 POP POP SWAP3 SWAP2 POP POP JUMP JUMPDEST PUSH0 PUSH1 0x20 DUP3 DUP5 SUB SLT ISZERO PUSH3 0x3C6 JUMPI PUSH3 0x3C5 PUSH3 0x232 JUMP JUMPDEST JUMPDEST PUSH0 DUP3 ADD MLOAD PUSH8 0xFFFFFFFFFFFFFFFF DUP2 GT ISZERO PUSH3 0x3E6 JUMPI PUSH3 0x3E5 PUSH3 0x236 JUMP JUMPDEST JUMPDEST PUSH3 0x3F4 DUP5 DUP3 DUP6 ADD PUSH3 0x37C JUMP JUMPDEST SWAP2 POP POP SWAP3 SWAP2 POP POP JUMP JUMPDEST PUSH0 DUP2 MLOAD SWAP1 POP SWAP2 SWAP1 POP JUMP JUMPDEST PUSH32 0x4E487B7100000000000000000000000000000000000000000000000000000000 PUSH0 MSTORE PUSH1 0x22 PUSH1 0x4 MSTORE PUSH1 0x24 PUSH0 REVERT JUMPDEST PUSH0 PUSH1 0x2 DUP3 DIV SWAP1 POP PUSH1 0x1 DUP3 AND DUP1 PUSH3 0x44C JUMPI PUSH1 0x7F DUP3 AND SWAP2 POP JUMPDEST PUSH1 0x20 DUP3 LT DUP2 SUB PUSH3 0x462 JUMPI PUSH3 0x461 PUSH3 0x407 JUMP JUMPDEST JUMPDEST POP SWAP2 SWAP1 POP JUMP JUMPDEST PUSH0 DUP2 SWAP1 POP DUP2 PUSH0 MSTORE PUSH1 0x20 PUSH0 KECCAK256 SWAP1 POP SWAP2 SWAP1 POP JUMP JUMPDEST PUSH0 PUSH1 0x20 PUSH1 0x1F DUP4 ADD DIV SWAP1 POP SWAP2 SWAP1 POP JUMP JUMPDEST PUSH0 DUP3 DUP3 SHL SWAP1 POP SWAP3 SWAP2 POP POP JUMP JUMPDEST PUSH0 PUSH1 0x8 DUP4 MUL PUSH3 0x4C6 PUSH32 0xFFFFFFFFFFFFFFFFFFFFFFFFFFFFFFFFFFFFFFFFFFFFFFFFFFFFFFFFFFFFFFFF DUP3 PUSH3 0x489 JUMP JUMPDEST PUSH3 0x4D2 DUP7 DUP4 PUSH3 0x489 JUMP JUMPDEST SWAP6 POP DUP1 NOT DUP5 AND SWAP4 POP DUP1 DUP7 AND DUP5 OR SWAP3 POP POP POP SWAP4 SWAP3 POP POP POP JUMP JUMPDEST PUSH0 DUP2 SWAP1 POP SWAP2 SWAP1 POP JUMP JUMPDEST PUSH0 DUP2 SWAP1 POP SWAP2 SWAP1 POP JUMP JUMPDEST PUSH0 PUSH3 0x51C PUSH3 0x516 PUSH3 0x510 DUP5 PUSH3 0x4EA JUMP JUMPDEST PUSH3 0x4F3 JUMP JUMPDEST PUSH3 0x4EA JUMP JUMPDEST SWAP1 POP SWAP2 SWAP1 POP JUMP JUMPDEST PUSH0 DUP2 SWAP1 POP SWAP2 SWAP1 POP JUMP JUMPDEST PUSH3 0x537 DUP4 PUSH3 0x4FC JUMP JUMPDEST PUSH3 0x54F PUSH3 0x546 DUP3 PUSH3 0x523 JUMP JUMPDEST DUP5 DUP5 SLOAD PUSH3 0x495 JUMP JUMPDEST DUP3 SSTORE POP POP POP POP JUMP JUMPDEST PUSH0 SWAP1 JUMP JUMPDEST PUSH3 0x565 PUSH3 0x557 JUMP JUMPDEST PUSH3 0x572 DUP2 DUP5 DUP5 PUSH3 0x52C JUMP JUMPDEST POP POP POP JUMP JUMPDEST JUMPDEST DUP2 DUP2 LT ISZERO PUSH3 0x599 JUMPI PUSH3 0x58D PUSH0 DUP3 PUSH3 0x55B JUMP JUMPDEST PUSH1 0x1 DUP2 ADD SWAP1 POP PUSH3 0x578 JUMP JUMPDEST POP POP JUMP JUMPDEST PUSH1 0x1F DUP3 GT ISZERO PUSH3 0x5E8 JUMPI PUSH3 0x5B2 DUP2 PUSH3 0x468 JUMP JUMPDEST PUSH3 0x5BD DUP5 PUSH3 0x47A JUMP JUMPDEST DUP2 ADD PUSH1 0x20 DUP6 LT ISZERO PUSH3 0x5CD JUMPI DUP2 SWAP1 POP JUMPDEST PUSH3 0x5E5 PUSH3 0x5DC DUP6 PUSH3 0x47A JUMP JUMPDEST DUP4 ADD DUP3 PUSH3 0x577 JUMP JUMPDEST POP POP JUMPDEST POP POP POP JUMP JUMPDEST PUSH0 DUP3 DUP3 SHR SWAP1 POP SWAP3 SWAP2 POP POP JUMP JUMPDEST PUSH0 PUSH3 0x60A PUSH0 NOT DUP5 PUSH1 0x8 MUL PUSH3 0x5ED JUMP JUMPDEST NOT DUP1 DUP4 AND SWAP2 POP POP SWAP3 SWAP2 POP POP JUMP JUMPDEST PUSH0 PUSH3 0x624 DUP4 DUP4 PUSH3 0x5F9 JUMP JUMPDEST SWAP2 POP DUP3 PUSH1 0x2 MUL DUP3 OR SWAP1 POP SWAP3 SWAP2 POP POP JUMP JUMPDEST PUSH3 0x63F DUP3 PUSH3 0x3FD JUMP JUMPDEST PUSH8 0xFFFFFFFFFFFFFFFF DUP2 GT ISZERO PUSH3 0x65B JUMPI PUSH3 0x65A PUSH3 0x252 JUMP JUMPDEST JUMPDEST PUSH3 0x667 DUP3 SLOAD PUSH3 0x434 JUMP JUMPDEST PUSH3 0x674 DUP3 DUP3 DUP6 PUSH3 0x59D JUMP JUMPDEST PUSH0 PUSH1 0x20 SWAP1 POP PUSH1 0x1F DUP4 GT PUSH1 0x1 DUP2 EQ PUSH3 0x6AA JUMPI PUSH0 DUP5 ISZERO PUSH3 0x695 JUMPI DUP3 DUP8 ADD MLOAD SWAP1 POP JUMPDEST PUSH3 0x6A1 DUP6 DUP3 PUSH3 0x617 JUMP JUMPDEST DUP7 SSTORE POP PUSH3 0x710 JUMP JUMPDEST PUSH1 0x1F NOT DUP5 AND PUSH3 0x6BA DUP7 PUSH3 0x468 JUMP JUMPDEST PUSH0 JUMPDEST DUP3 DUP2 LT ISZERO PUSH3 0x6E3 JUMPI DUP5 DUP10 ADD MLOAD DUP3 SSTORE PUSH1 0x1 DUP3 ADD SWAP2 POP PUSH1 0x20 DUP6 ADD SWAP5 POP PUSH1 0x20 DUP2 ADD SWAP1 POP PUSH3 0x6BC JUMP JUMPDEST DUP7 DUP4 LT ISZERO PUSH3 0x703 JUMPI DUP5 DUP10 ADD MLOAD PUSH3 0x6FF PUSH1 0x1F DUP10 AND DUP3 PUSH3 0x5F9 JUMP JUMPDEST DUP4 SSTORE POP JUMPDEST PUSH1 0x1 PUSH1 0x2 DUP9 MUL ADD DUP9 SSTORE POP POP POP JUMPDEST POP POP POP POP POP POP JUMP JUMPDEST PUSH2 0x5BCE DUP1 PUSH3 0x726 PUSH0 CODECOPY PUSH0 RETURN INVALID PUSH1 0x80 PUSH1 0x40 MSTORE PUSH1 0x4 CALLDATASIZE LT PUSH2 0x1FB JUMPI PUSH0 CALLDATALOAD PUSH1 0xE0 SHR DUP1 PUSH4 0x9CEA0787 GT PUSH2 0x10C JUMPI DUP1 PUSH4 0xBC197C81 GT PUSH2 0x9F JUMPI DUP1 PUSH4 0xF0D93B9A GT PUSH2 0x6E JUMPI DUP1 PUSH4 0xF0D93B9A EQ PUSH2 0x799 JUMPI DUP1 PUSH4 0xF14210A6 EQ PUSH2 0x7C1 JUMPI DUP1 PUSH4 0xF23A6E61 EQ PUSH2 0x7E9 JUMPI DUP1 PUSH4 0xF242432A EQ PUSH2 0x825 JUMPI DUP1 PUSH4 0xF6326FB3 EQ PUSH2 0x84D JUMPI PUSH2 0x202 JUMP JUMPDEST DUP1 PUSH4 0xBC197C81 EQ PUSH2 0x6DD JUMPI DUP1 PUSH4 0xD547741F EQ PUSH2 0x719 JUMPI DUP1 PUSH4 0xE82F4062 EQ PUSH2 0x741 JUMPI DUP1 PUSH4 0xE985E9C5 EQ PUSH2 0x75D JUMPI PUSH2 0x202 JUMP JUMPDEST DUP1 PUSH4 0xA966A0DF GT PUSH2 0xDB JUMPI DUP1 PUSH4 0xA966A0DF EQ PUSH2 0x625 JUMPI DUP1 PUSH4 0xAC76E521 EQ PUSH2 0x64F JUMPI DUP1 PUSH4 0xB69B6D66 EQ PUSH2 0x68B JUMPI DUP1 PUSH4 0xB89571C7 EQ PUSH2 0x6B5 JUMPI PUSH2 0x202 JUMP JUMPDEST DUP1 PUSH4 0x9CEA0787 EQ PUSH2 0x581 JUMPI DUP1 PUSH4 0x9E56F275 EQ PUSH2 0x5AB JUMPI DUP1 PUSH4 0xA217FDDF EQ PUSH2 0x5D3 JUMPI DUP1 PUSH4 0xA22CB465 EQ PUSH2 0x5FD JUMPI PUSH2 0x202 JUMP JUMPDEST DUP1 PUSH4 0x36568ABE GT PUSH2 0x18F JUMPI DUP1 PUSH4 0x4E1273F4 GT PUSH2 0x15E JUMPI DUP1 PUSH4 0x4E1273F4 EQ PUSH2 0x47D JUMPI DUP1 PUSH4 0x595AF66F EQ PUSH2 0x4B9 JUMPI DUP1 PUSH4 0x7365E8EC EQ PUSH2 0x4E1 JUMPI DUP1 PUSH4 0x815176AA EQ PUSH2 0x509 JUMPI DUP1 PUSH4 0x91D14854 EQ PUSH2 0x545 JUMPI PUSH2 0x202 JUMP JUMPDEST DUP1 PUSH4 0x36568ABE EQ PUSH2 0x3AA JUMPI DUP1 PUSH4 0x3A14AF65 EQ PUSH2 0x3D2 JUMPI DUP1 PUSH4 0x4B602673 EQ PUSH2 0x3FC JUMPI DUP1 PUSH4 0x4BC9DB85 EQ PUSH2 0x43E JUMPI PUSH2 0x202 JUMP JUMPDEST DUP1 PUSH4 0x237F1509 GT PUSH2 0x1CB JUMPI DUP1 PUSH4 0x237F1509 EQ PUSH2 0x2E2 JUMPI DUP1 PUSH4 0x248A9CA3 EQ PUSH2 0x31E JUMPI DUP1 PUSH4 0x2EB2C2D6 EQ PUSH2 0x35A JUMPI DUP1 PUSH4 0x2F2FF15D EQ PUSH2 0x382 JUMPI PUSH2 0x202 JUMP JUMPDEST DUP1 PUSH3 0xFDD58E EQ PUSH2 0x204 JUMPI DUP1 PUSH4 0x1FFC9A7 EQ PUSH2 0x240 JUMPI DUP1 PUSH4 0xE89341C EQ PUSH2 0x27C JUMPI DUP1 PUSH4 0x18B6DCBC EQ PUSH2 0x2B8 JUMPI PUSH2 0x202 JUMP JUMPDEST CALLDATASIZE PUSH2 0x202 JUMPI STOP JUMPDEST STOP JUMPDEST CALLVALUE DUP1 ISZERO PUSH2 0x20F JUMPI PUSH0 DUP1 REVERT JUMPDEST POP PUSH2 0x22A PUSH1 0x4 DUP1 CALLDATASIZE SUB DUP2 ADD SWAP1 PUSH2 0x225 SWAP2 SWAP1 PUSH2 0x40A4 JUMP JUMPDEST PUSH2 0x857 JUMP JUMPDEST PUSH1 0x40 MLOAD PUSH2 0x237 SWAP2 SWAP1 PUSH2 0x40F1 JUMP JUMPDEST PUSH1 0x40 MLOAD DUP1 SWAP2 SUB SWAP1 RETURN JUMPDEST CALLVALUE DUP1 ISZERO PUSH2 0x24B JUMPI PUSH0 DUP1 REVERT JUMPDEST POP PUSH2 0x266 PUSH1 0x4 DUP1 CALLDATASIZE SUB DUP2 ADD SWAP1 PUSH2 0x261 SWAP2 SWAP1 PUSH2 0x415F JUMP JUMPDEST PUSH2 0x8AC JUMP JUMPDEST PUSH1 0x40 MLOAD PUSH2 0x273 SWAP2 SWAP1 PUSH2 0x41A4 JUMP JUMPDEST PUSH1 0x40 MLOAD DUP1 SWAP2 SUB SWAP1 RETURN JUMPDEST CALLVALUE DUP1 ISZERO PUSH2 0x287 JUMPI PUSH0 DUP1 REVERT JUMPDEST POP PUSH2 0x2A2 PUSH1 0x4 DUP1 CALLDATASIZE SUB DUP2 ADD SWAP1 PUSH2 0x29D SWAP2 SWAP1 PUSH2 0x41BD JUMP JUMPDEST PUSH2 0x8BD JUMP JUMPDEST PUSH1 0x40 MLOAD PUSH2 0x2AF SWAP2 SWAP1 PUSH2 0x4272 JUMP JUMPDEST PUSH1 0x40 MLOAD DUP1 SWAP2 SUB SWAP1 RETURN JUMPDEST CALLVALUE DUP1 ISZERO PUSH2 0x2C3 JUMPI PUSH0 DUP1 REVERT JUMPDEST POP PUSH2 0x2CC PUSH2 0x94F JUMP JUMPDEST PUSH1 0x40 MLOAD PUSH2 0x2D9 SWAP2 SWAP1 PUSH2 0x40F1 JUMP JUMPDEST PUSH1 0x40 MLOAD DUP1 SWAP2 SUB SWAP1 RETURN JUMPDEST CALLVALUE DUP1 ISZERO PUSH2 0x2ED JUMPI PUSH0 DUP1 REVERT JUMPDEST POP PUSH2 0x308 PUSH1 0x4 DUP1 CALLDATASIZE SUB DUP2 ADD SWAP1 PUSH2 0x303 SWAP2 SWAP1 PUSH2 0x43BE JUMP JUMPDEST PUSH2 0x955 JUMP JUMPDEST PUSH1 0x40 MLOAD PUSH2 0x315 SWAP2 SWAP1 PUSH2 0x40F1 JUMP JUMPDEST PUSH1 0x40 MLOAD DUP1 SWAP2 SUB SWAP1 RETURN JUMPDEST CALLVALUE DUP1 ISZERO PUSH2 0x329 JUMPI PUSH0 DUP1 REVERT JUMPDEST POP PUSH2 0x344 PUSH1 0x4 DUP1 CALLDATASIZE SUB DUP2 ADD SWAP1 PUSH2 0x33F SWAP2 SWAP1 PUSH2 0x448D JUMP JUMPDEST PUSH2 0xB3D JUMP JUMPDEST PUSH1 0x40 MLOAD PUSH2 0x351 SWAP2 SWAP1 PUSH2 0x44C7 JUMP JUMPDEST PUSH1 0x40 MLOAD DUP1 SWAP2 SUB SWAP1 RETURN JUMPDEST CALLVALUE DUP1 ISZERO PUSH2 0x365 JUMPI PUSH0 DUP1 REVERT JUMPDEST POP PUSH2 0x380 PUSH1 0x4 DUP1 CALLDATASIZE SUB DUP2 ADD SWAP1 PUSH2 0x37B SWAP2 SWAP1 PUSH2 0x4642 JUMP JUMPDEST PUSH2 0xB5A JUMP JUMPDEST STOP JUMPDEST CALLVALUE DUP1 ISZERO PUSH2 0x38D JUMPI PUSH0 DUP1 REVERT JUMPDEST POP PUSH2 0x3A8 PUSH1 0x4 DUP1 CALLDATASIZE SUB DUP2 ADD SWAP1 PUSH2 0x3A3 SWAP2 SWAP1 PUSH2 0x470D JUMP JUMPDEST PUSH2 0xC01 JUMP JUMPDEST STOP JUMPDEST CALLVALUE DUP1 ISZERO PUSH2 0x3B5 JUMPI PUSH0 DUP1 REVERT JUMPDEST POP PUSH2 0x3D0 PUSH1 0x4 DUP1 CALLDATASIZE SUB DUP2 ADD SWAP1 PUSH2 0x3CB SWAP2 SWAP1 PUSH2 0x470D JUMP JUMPDEST PUSH2 0xC23 JUMP JUMPDEST STOP JUMPDEST CALLVALUE DUP1 ISZERO PUSH2 0x3DD JUMPI PUSH0 DUP1 REVERT JUMPDEST POP PUSH2 0x3E6 PUSH2 0xC9E JUMP JUMPDEST PUSH1 0x40 MLOAD PUSH2 0x3F3 SWAP2 SWAP1 PUSH2 0x40F1 JUMP JUMPDEST PUSH1 0x40 MLOAD DUP1 SWAP2 SUB SWAP1 RETURN JUMPDEST CALLVALUE DUP1 ISZERO PUSH2 0x407 JUMPI PUSH0 DUP1 REVERT JUMPDEST POP PUSH2 0x422 PUSH1 0x4 DUP1 CALLDATASIZE SUB DUP2 ADD SWAP1 PUSH2 0x41D SWAP2 SWAP1 PUSH2 0x41BD JUMP JUMPDEST PUSH2 0xCA4 JUMP JUMPDEST PUSH1 0x40 MLOAD PUSH2 0x435 SWAP8 SWAP7 SWAP6 SWAP5 SWAP4 SWAP3 SWAP2 SWAP1 PUSH2 0x475A JUMP JUMPDEST PUSH1 0x40 MLOAD DUP1 SWAP2 SUB SWAP1 RETURN JUMPDEST CALLVALUE DUP1 ISZERO PUSH2 0x449 JUMPI PUSH0 DUP1 REVERT JUMPDEST POP PUSH2 0x464 PUSH1 0x4 DUP1 CALLDATASIZE SUB DUP2 ADD SWAP1 PUSH2 0x45F SWAP2 SWAP1 PUSH2 0x47D5 JUMP JUMPDEST PUSH2 0xE0D JUMP JUMPDEST PUSH1 0x40 MLOAD PUSH2 0x474 SWAP5 SWAP4 SWAP3 SWAP2 SWAP1 PUSH2 0x4886 JUMP JUMPDEST PUSH1 0x40 MLOAD DUP1 SWAP2 SUB SWAP1 RETURN JUMPDEST CALLVALUE DUP1 ISZERO PUSH2 0x488 JUMPI PUSH0 DUP1 REVERT JUMPDEST POP PUSH2 0x4A3 PUSH1 0x4 DUP1 CALLDATASIZE SUB DUP2 ADD SWAP1 PUSH2 0x49E SWAP2 SWAP1 PUSH2 0x4989 JUMP JUMPDEST PUSH2 0xE7E JUMP JUMPDEST PUSH1 0x40 MLOAD PUSH2 0x4B0 SWAP2 SWAP1 PUSH2 0x4AB6 JUMP JUMPDEST PUSH1 0x40 MLOAD DUP1 SWAP2 SUB SWAP1 RETURN JUMPDEST CALLVALUE DUP1 ISZERO PUSH2 0x4C4 JUMPI PUSH0 DUP1 REVERT JUMPDEST POP PUSH2 0x4DF PUSH1 0x4 DUP1 CALLDATASIZE SUB DUP2 ADD SWAP1 PUSH2 0x4DA SWAP2 SWAP1 PUSH2 0x4AD6 JUMP JUMPDEST PUSH2 0xF8B JUMP JUMPDEST STOP JUMPDEST CALLVALUE DUP1 ISZERO PUSH2 0x4EC JUMPI PUSH0 DUP1 REVERT JUMPDEST POP PUSH2 0x507 PUSH1 0x4 DUP1 CALLDATASIZE SUB DUP2 ADD SWAP1 PUSH2 0x502 SWAP2 SWAP1 PUSH2 0x47D5 JUMP JUMPDEST PUSH2 0x101E JUMP JUMPDEST STOP JUMPDEST CALLVALUE DUP1 ISZERO PUSH2 0x514 JUMPI PUSH0 DUP1 REVERT JUMPDEST POP PUSH2 0x52F PUSH1 0x4 DUP1 CALLDATASIZE SUB DUP2 ADD SWAP1 PUSH2 0x52A SWAP2 SWAP1 PUSH2 0x4AD6 JUMP JUMPDEST PUSH2 0x15A7 JUMP JUMPDEST PUSH1 0x40 MLOAD PUSH2 0x53C SWAP2 SWAP1 PUSH2 0x4272 JUMP JUMPDEST PUSH1 0x40 MLOAD DUP1 SWAP2 SUB SWAP1 RETURN JUMPDEST CALLVALUE DUP1 ISZERO PUSH2 0x550 JUMPI PUSH0 DUP1 REVERT JUMPDEST POP PUSH2 0x56B PUSH1 0x4 DUP1 CALLDATASIZE SUB DUP2 ADD SWAP1 PUSH2 0x566 SWAP2 SWAP1 PUSH2 0x470D JUMP JUMPDEST PUSH2 0x1642 JUMP JUMPDEST PUSH1 0x40 MLOAD PUSH2 0x578 SWAP2 SWAP1 PUSH2 0x41A4 JUMP JUMPDEST PUSH1 0x40 MLOAD DUP1 SWAP2 SUB SWAP1 RETURN JUMPDEST CALLVALUE DUP1 ISZERO PUSH2 0x58C JUMPI PUSH0 DUP1 REVERT JUMPDEST POP PUSH2 0x595 PUSH2 0x16A6 JUMP JUMPDEST PUSH1 0x40 MLOAD PUSH2 0x5A2 SWAP2 SWAP1 PUSH2 0x44C7 JUMP JUMPDEST PUSH1 0x40 MLOAD DUP1 SWAP2 SUB SWAP1 RETURN JUMPDEST CALLVALUE DUP1 ISZERO PUSH2 0x5B6 JUMPI PUSH0 DUP1 REVERT JUMPDEST POP PUSH2 0x5D1 PUSH1 0x4 DUP1 CALLDATASIZE SUB DUP2 ADD SWAP1 PUSH2 0x5CC SWAP2 SWAP1 PUSH2 0x4B2B JUMP JUMPDEST PUSH2 0x16CA JUMP JUMPDEST STOP JUMPDEST CALLVALUE DUP1 ISZERO PUSH2 0x5DE JUMPI PUSH0 DUP1 REVERT JUMPDEST POP PUSH2 0x5E7 PUSH2 0x1F8B JUMP JUMPDEST PUSH1 0x40 MLOAD PUSH2 0x5F4 SWAP2 SWAP1 PUSH2 0x44C7 JUMP JUMPDEST PUSH1 0x40 MLOAD DUP1 SWAP2 SUB SWAP1 RETURN JUMPDEST CALLVALUE DUP1 ISZERO PUSH2 0x608 JUMPI PUSH0 DUP1 REVERT JUMPDEST POP PUSH2 0x623 PUSH1 0x4 DUP1 CALLDATASIZE SUB DUP2 ADD SWAP1 PUSH2 0x61E SWAP2 SWAP1 PUSH2 0x4B7B JUMP JUMPDEST PUSH2 0x1F91 JUMP JUMPDEST STOP JUMPDEST CALLVALUE DUP1 ISZERO PUSH2 0x630 JUMPI PUSH0 DUP1 REVERT JUMPDEST POP PUSH2 0x639 PUSH2 0x1FA7 JUMP JUMPDEST PUSH1 0x40 MLOAD PUSH2 0x646 SWAP2 SWAP1 PUSH2 0x44C7 JUMP JUMPDEST PUSH1 0x40 MLOAD DUP1 SWAP2 SUB SWAP1 RETURN JUMPDEST CALLVALUE DUP1 ISZERO PUSH2 0x65A JUMPI PUSH0 DUP1 REVERT JUMPDEST POP PUSH2 0x675 PUSH1 0x4 DUP1 CALLDATASIZE SUB DUP2 ADD SWAP1 PUSH2 0x670 SWAP2 SWAP1 PUSH2 0x4AD6 JUMP JUMPDEST PUSH2 0x1FCB JUMP JUMPDEST PUSH1 0x40 MLOAD PUSH2 0x682 SWAP2 SWAP1 PUSH2 0x40F1 JUMP JUMPDEST PUSH1 0x40 MLOAD DUP1 SWAP2 SUB SWAP1 RETURN JUMPDEST CALLVALUE DUP1 ISZERO PUSH2 0x696 JUMPI PUSH0 DUP1 REVERT JUMPDEST POP PUSH2 0x69F PUSH2 0x1FE0 JUMP JUMPDEST PUSH1 0x40 MLOAD PUSH2 0x6AC SWAP2 SWAP1 PUSH2 0x4BB9 JUMP JUMPDEST PUSH1 0x40 MLOAD DUP1 SWAP2 SUB SWAP1 RETURN JUMPDEST CALLVALUE DUP1 ISZERO PUSH2 0x6C0 JUMPI PUSH0 DUP1 REVERT JUMPDEST POP PUSH2 0x6DB PUSH1 0x4 DUP1 CALLDATASIZE SUB DUP2 ADD SWAP1 PUSH2 0x6D6 SWAP2 SWAP1 PUSH2 0x4B2B JUMP JUMPDEST PUSH2 0x2005 JUMP JUMPDEST STOP JUMPDEST CALLVALUE DUP1 ISZERO PUSH2 0x6E8 JUMPI PUSH0 DUP1 REVERT JUMPDEST POP PUSH2 0x703 PUSH1 0x4 DUP1 CALLDATASIZE SUB DUP2 ADD SWAP1 PUSH2 0x6FE SWAP2 SWAP1 PUSH2 0x4642 JUMP JUMPDEST PUSH2 0x25A1 JUMP JUMPDEST PUSH1 0x40 MLOAD PUSH2 0x710 SWAP2 SWAP1 PUSH2 0x4BE1 JUMP JUMPDEST PUSH1 0x40 MLOAD DUP1 SWAP2 SUB SWAP1 RETURN JUMPDEST CALLVALUE DUP1 ISZERO PUSH2 0x724 JUMPI PUSH0 DUP1 REVERT JUMPDEST POP PUSH2 0x73F PUSH1 0x4 DUP1 CALLDATASIZE SUB DUP2 ADD SWAP1 PUSH2 0x73A SWAP2 SWAP1 PUSH2 0x470D JUMP JUMPDEST PUSH2 0x25B5 JUMP JUMPDEST STOP JUMPDEST PUSH2 0x75B PUSH1 0x4 DUP1 CALLDATASIZE SUB DUP2 ADD SWAP1 PUSH2 0x756 SWAP2 SWAP1 PUSH2 0x41BD JUMP JUMPDEST PUSH2 0x25D7 JUMP JUMPDEST STOP JUMPDEST CALLVALUE DUP1 ISZERO PUSH2 0x768 JUMPI PUSH0 DUP1 REVERT JUMPDEST POP PUSH2 0x783 PUSH1 0x4 DUP1 CALLDATASIZE SUB DUP2 ADD SWAP1 PUSH2 0x77E SWAP2 SWAP1 PUSH2 0x4BFA JUMP JUMPDEST PUSH2 0x2994 JUMP JUMPDEST PUSH1 0x40 MLOAD PUSH2 0x790 SWAP2 SWAP1 PUSH2 0x41A4 JUMP JUMPDEST PUSH1 0x40 MLOAD DUP1 SWAP2 SUB SWAP1 RETURN JUMPDEST CALLVALUE DUP1 ISZERO PUSH2 0x7A4 JUMPI PUSH0 DUP1 REVERT JUMPDEST POP PUSH2 0x7BF PUSH1 0x4 DUP1 CALLDATASIZE SUB DUP2 ADD SWAP1 PUSH2 0x7BA SWAP2 SWAP1 PUSH2 0x4C38 JUMP JUMPDEST PUSH2 0x2A22 JUMP JUMPDEST STOP JUMPDEST CALLVALUE DUP1 ISZERO PUSH2 0x7CC JUMPI PUSH0 DUP1 REVERT JUMPDEST POP PUSH2 0x7E7 PUSH1 0x4 DUP1 CALLDATASIZE SUB DUP2 ADD SWAP1 PUSH2 0x7E2 SWAP2 SWAP1 PUSH2 0x41BD JUMP JUMPDEST PUSH2 0x2ABE JUMP JUMPDEST STOP JUMPDEST CALLVALUE DUP1 ISZERO PUSH2 0x7F4 JUMPI PUSH0 DUP1 REVERT JUMPDEST POP PUSH2 0x80F PUSH1 0x4 DUP1 CALLDATASIZE SUB DUP2 ADD SWAP1 PUSH2 0x80A SWAP2 SWAP1 PUSH2 0x4C7F JUMP JUMPDEST PUSH2 0x2CC6 JUMP JUMPDEST PUSH1 0x40 MLOAD PUSH2 0x81C SWAP2 SWAP1 PUSH2 0x4BE1 JUMP JUMPDEST PUSH1 0x40 MLOAD DUP1 SWAP2 SUB SWAP1 RETURN JUMPDEST CALLVALUE DUP1 ISZERO PUSH2 0x830 JUMPI PUSH0 DUP1 REVERT JUMPDEST POP PUSH2 0x84B PUSH1 0x4 DUP1 CALLDATASIZE SUB DUP2 ADD SWAP1 PUSH2 0x846 SWAP2 SWAP1 PUSH2 0x4C7F JUMP JUMPDEST PUSH2 0x2CDA JUMP JUMPDEST STOP JUMPDEST PUSH2 0x855 PUSH2 0x2D81 JUMP JUMPDEST STOP JUMPDEST PUSH0 DUP1 PUSH0 DUP4 DUP2 MSTORE PUSH1 0x20 ADD SWAP1 DUP2 MSTORE PUSH1 0x20 ADD PUSH0 KECCAK256 PUSH0 DUP5 PUSH20 0xFFFFFFFFFFFFFFFFFFFFFFFFFFFFFFFFFFFFFFFF AND PUSH20 0xFFFFFFFFFFFFFFFFFFFFFFFFFFFFFFFFFFFFFFFF AND DUP2 MSTORE PUSH1 0x20 ADD SWAP1 DUP2 MSTORE PUSH1 0x20 ADD PUSH0 KECCAK256 SLOAD SWAP1 POP SWAP3 SWAP2 POP POP JUMP JUMPDEST PUSH0 PUSH2 0x8B6 DUP3 PUSH2 0x2EA1 JUMP JUMPDEST SWAP1 POP SWAP2 SWAP1 POP JUMP JUMPDEST PUSH1 0x60 PUSH1 0x2 DUP1 SLOAD PUSH2 0x8CC SWAP1 PUSH2 0x4D3F JUMP JUMPDEST DUP1 PUSH1 0x1F ADD PUSH1 0x20 DUP1 SWAP2 DIV MUL PUSH1 0x20 ADD PUSH1 0x40 MLOAD SWAP1 DUP2 ADD PUSH1 0x40 MSTORE DUP1 SWAP3 SWAP2 SWAP1 DUP2 DUP2 MSTORE PUSH1 0x20 ADD DUP3 DUP1 SLOAD PUSH2 0x8F8 SWAP1 PUSH2 0x4D3F JUMP JUMPDEST DUP1 ISZERO PUSH2 0x943 JUMPI DUP1 PUSH1 0x1F LT PUSH2 0x91A JUMPI PUSH2 0x100 DUP1 DUP4 SLOAD DIV MUL DUP4 MSTORE SWAP2 PUSH1 0x20 ADD SWAP2 PUSH2 0x943 JUMP JUMPDEST DUP3 ADD SWAP2 SWAP1 PUSH0 MSTORE PUSH1 0x20 PUSH0 KECCAK256 SWAP1 JUMPDEST DUP2 SLOAD DUP2 MSTORE SWAP1 PUSH1 0x1 ADD SWAP1 PUSH1 0x20 ADD DUP1 DUP4 GT PUSH2 0x926 JUMPI DUP3 SWAP1 SUB PUSH1 0x1F AND DUP3 ADD SWAP2 JUMPDEST POP POP POP POP POP SWAP1 POP SWAP2 SWAP1 POP JUMP JUMPDEST PUSH1 0x6 SLOAD DUP2 JUMP JUMPDEST PUSH0 PUSH32 0x877A78DC988C0EC5F58453B44888A55EB39755C3D5ED8D8EA990912AA3EF29C6 PUSH2 0x980 DUP2 PUSH2 0x2F1A JUMP JUMPDEST PUSH0 PUSH1 0xA DUP5 PUSH2 0x98E SWAP2 SWAP1 PUSH2 0x4D9C JUMP JUMPDEST EQ PUSH2 0x9CE JUMPI PUSH1 0x40 MLOAD PUSH32 0x8C379A000000000000000000000000000000000000000000000000000000000 DUP2 MSTORE PUSH1 0x4 ADD PUSH2 0x9C5 SWAP1 PUSH2 0x4E16 JUMP JUMPDEST PUSH1 0x40 MLOAD DUP1 SWAP2 SUB SWAP1 REVERT JUMPDEST PUSH1 0x6 PUSH0 DUP2 SLOAD DUP1 SWAP3 SWAP2 SWAP1 PUSH2 0x9E0 SWAP1 PUSH2 0x4E61 JUMP JUMPDEST SWAP2 SWAP1 POP SSTORE POP PUSH0 PUSH1 0x6 SLOAD SWAP1 POP PUSH1 0x40 MLOAD DUP1 PUSH1 0xE0 ADD PUSH1 0x40 MSTORE DUP1 DUP3 DUP2 MSTORE PUSH1 0x20 ADD DUP9 DUP2 MSTORE PUSH1 0x20 ADD DUP8 DUP2 MSTORE PUSH1 0x20 ADD DUP7 DUP2 MSTORE PUSH1 0x20 ADD PUSH0 DUP2 MSTORE PUSH1 0x20 ADD DUP6 DUP2 MSTORE PUSH1 0x20 ADD CALLER PUSH20 0xFFFFFFFFFFFFFFFFFFFFFFFFFFFFFFFFFFFFFFFF AND DUP2 MSTORE POP PUSH1 0x8 PUSH0 DUP4 DUP2 MSTORE PUSH1 0x20 ADD SWAP1 DUP2 MSTORE PUSH1 0x20 ADD PUSH0 KECCAK256 PUSH0 DUP3 ADD MLOAD DUP2 PUSH0 ADD SSTORE PUSH1 0x20 DUP3 ADD MLOAD DUP2 PUSH1 0x1 ADD SWAP1 DUP2 PUSH2 0xA62 SWAP2 SWAP1 PUSH2 0x5045 JUMP JUMPDEST POP PUSH1 0x40 DUP3 ADD MLOAD DUP2 PUSH1 0x2 ADD SWAP1 DUP2 PUSH2 0xA78 SWAP2 SWAP1 PUSH2 0x5045 JUMP JUMPDEST POP PUSH1 0x60 DUP3 ADD MLOAD DUP2 PUSH1 0x3 ADD SSTORE PUSH1 0x80 DUP3 ADD MLOAD DUP2 PUSH1 0x4 ADD SSTORE PUSH1 0xA0 DUP3 ADD MLOAD DUP2 PUSH1 0x5 ADD SSTORE PUSH1 0xC0 DUP3 ADD MLOAD DUP2 PUSH1 0x6 ADD PUSH0 PUSH2 0x100 EXP DUP2 SLOAD DUP2 PUSH20 0xFFFFFFFFFFFFFFFFFFFFFFFFFFFFFFFFFFFFFFFF MUL NOT AND SWAP1 DUP4 PUSH20 0xFFFFFFFFFFFFFFFFFFFFFFFFFFFFFFFFFFFFFFFF AND MUL OR SWAP1 SSTORE POP SWAP1 POP POP CALLER PUSH20 0xFFFFFFFFFFFFFFFFFFFFFFFFFFFFFFFFFFFFFFFF AND DUP2 PUSH31 0xF3538CB5ABE2E9BC54F73939E4D165FCE3752D27FE21A5E88B2A9F6DA20C63 DUP7 DUP9 PUSH1 0x40 MLOAD PUSH2 0xB28 SWAP3 SWAP2 SWAP1 PUSH2 0x5114 JUMP JUMPDEST PUSH1 0x40 MLOAD DUP1 SWAP2 SUB SWAP1 LOG3 DUP1 SWAP3 POP POP POP SWAP5 SWAP4 POP POP POP POP JUMP JUMPDEST PUSH0 PUSH1 0x3 PUSH0 DUP4 DUP2 MSTORE PUSH1 0x20 ADD SWAP1 DUP2 MSTORE PUSH1 0x20 ADD PUSH0 KECCAK256 PUSH1 0x1 ADD SLOAD SWAP1 POP SWAP2 SWAP1 POP JUMP JUMPDEST PUSH0 PUSH2 0xB63 PUSH2 0x2F2E JUMP JUMPDEST SWAP1 POP DUP1 PUSH20 0xFFFFFFFFFFFFFFFFFFFFFFFFFFFFFFFFFFFFFFFF AND DUP7 PUSH20 0xFFFFFFFFFFFFFFFFFFFFFFFFFFFFFFFFFFFFFFFF AND EQ ISZERO DUP1 ISZERO PUSH2 0xBA8 JUMPI POP PUSH2 0xBA6 DUP7 DUP3 PUSH2 0x2994 JUMP JUMPDEST ISZERO JUMPDEST ISZERO PUSH2 0xBEC JUMPI DUP1 DUP7 PUSH1 0x40 MLOAD PUSH32 0xE237D92200000000000000000000000000000000000000000000000000000000 DUP2 MSTORE PUSH1 0x4 ADD PUSH2 0xBE3 SWAP3 SWAP2 SWAP1 PUSH2 0x513B JUMP JUMPDEST PUSH1 0x40 MLOAD DUP1 SWAP2 SUB SWAP1 REVERT JUMPDEST PUSH2 0xBF9 DUP7 DUP7 DUP7 DUP7 DUP7 PUSH2 0x2F35 JUMP JUMPDEST POP POP POP POP POP POP JUMP JUMPDEST PUSH2 0xC0A DUP3 PUSH2 0xB3D JUMP JUMPDEST PUSH2 0xC13 DUP2 PUSH2 0x2F1A JUMP JUMPDEST PUSH2 0xC1D DUP4 DUP4 PUSH2 0x3029 JUMP JUMPDEST POP POP POP POP JUMP JUMPDEST PUSH2 0xC2B PUSH2 0x2F2E JUMP JUMPDEST PUSH20 0xFFFFFFFFFFFFFFFFFFFFFFFFFFFFFFFFFFFFFFFF AND DUP2 PUSH20 0xFFFFFFFFFFFFFFFFFFFFFFFFFFFFFFFFFFFFFFFF AND EQ PUSH2 0xC8F JUMPI PUSH1 0x40 MLOAD PUSH32 0x6697B23200000000000000000000000000000000000000000000000000000000 DUP2 MSTORE PUSH1 0x4 ADD PUSH1 0x40 MLOAD DUP1 SWAP2 SUB SWAP1 REVERT JUMPDEST PUSH2 0xC99 DUP3 DUP3 PUSH2 0x3113 JUMP JUMPDEST POP POP POP JUMP JUMPDEST PUSH2 0x258 DUP2 JUMP JUMPDEST PUSH1 0x8 PUSH1 0x20 MSTORE DUP1 PUSH0 MSTORE PUSH1 0x40 PUSH0 KECCAK256 PUSH0 SWAP2 POP SWAP1 POP DUP1 PUSH0 ADD SLOAD SWAP1 DUP1 PUSH1 0x1 ADD DUP1 SLOAD PUSH2 0xCC9 SWAP1 PUSH2 0x4D3F JUMP JUMPDEST DUP1 PUSH1 0x1F ADD PUSH1 0x20 DUP1 SWAP2 DIV MUL PUSH1 0x20 ADD PUSH1 0x40 MLOAD SWAP1 DUP2 ADD PUSH1 0x40 MSTORE DUP1 SWAP3 SWAP2 SWAP1 DUP2 DUP2 MSTORE PUSH1 0x20 ADD DUP3 DUP1 SLOAD PUSH2 0xCF5 SWAP1 PUSH2 0x4D3F JUMP JUMPDEST DUP1 ISZERO PUSH2 0xD40 JUMPI DUP1 PUSH1 0x1F LT PUSH2 0xD17 JUMPI PUSH2 0x100 DUP1 DUP4 SLOAD DIV MUL DUP4 MSTORE SWAP2 PUSH1 0x20 ADD SWAP2 PUSH2 0xD40 JUMP JUMPDEST DUP3 ADD SWAP2 SWAP1 PUSH0 MSTORE PUSH1 0x20 PUSH0 KECCAK256 SWAP1 JUMPDEST DUP2 SLOAD DUP2 MSTORE SWAP1 PUSH1 0x1 ADD SWAP1 PUSH1 0x20 ADD DUP1 DUP4 GT PUSH2 0xD23 JUMPI DUP3 SWAP1 SUB PUSH1 0x1F AND DUP3 ADD SWAP2 JUMPDEST POP POP POP POP POP SWAP1 DUP1 PUSH1 0x2 ADD DUP1 SLOAD PUSH2 0xD55 SWAP1 PUSH2 0x4D3F JUMP JUMPDEST DUP1 PUSH1 0x1F ADD PUSH1 0x20 DUP1 SWAP2 DIV MUL PUSH1 0x20 ADD PUSH1 0x40 MLOAD SWAP1 DUP2 ADD PUSH1 0x40 MSTORE DUP1 SWAP3 SWAP2 SWAP1 DUP2 DUP2 MSTORE PUSH1 0x20 ADD DUP3 DUP1 SLOAD PUSH2 0xD81 SWAP1 PUSH2 0x4D3F JUMP JUMPDEST DUP1 ISZERO PUSH2 0xDCC JUMPI DUP1 PUSH1 0x1F LT PUSH2 0xDA3 JUMPI PUSH2 0x100 DUP1 DUP4 SLOAD DIV MUL DUP4 MSTORE SWAP2 PUSH1 0x20 ADD SWAP2 PUSH2 0xDCC JUMP JUMPDEST DUP3 ADD SWAP2 SWAP1 PUSH0 MSTORE PUSH1 0x20 PUSH0 KECCAK256 SWAP1 JUMPDEST DUP2 SLOAD DUP2 MSTORE SWAP1 PUSH1 0x1 ADD SWAP1 PUSH1 0x20 ADD DUP1 DUP4 GT PUSH2 0xDAF JUMPI DUP3 SWAP1 SUB PUSH1 0x1F AND DUP3 ADD SWAP2 JUMPDEST POP POP POP POP POP SWAP1 DUP1 PUSH1 0x3 ADD SLOAD SWAP1 DUP1 PUSH1 0x4 ADD SLOAD SWAP1 DUP1 PUSH1 0x5 ADD SLOAD SWAP1 DUP1 PUSH1 0x6 ADD PUSH0 SWAP1 SLOAD SWAP1 PUSH2 0x100 EXP SWAP1 DIV PUSH20 0xFFFFFFFFFFFFFFFFFFFFFFFFFFFFFFFFFFFFFFFF AND SWAP1 POP DUP8 JUMP JUMPDEST PUSH1 0x9 PUSH1 0x20 MSTORE DUP2 PUSH0 MSTORE PUSH1 0x40 PUSH0 KECCAK256 DUP2 DUP2 SLOAD DUP2 LT PUSH2 0xE26 JUMPI PUSH0 DUP1 REVERT JUMPDEST SWAP1 PUSH0 MSTORE PUSH1 0x20 PUSH0 KECCAK256 SWAP1 PUSH1 0x3 MUL ADD PUSH0 SWAP2 POP SWAP2 POP POP DUP1 PUSH0 ADD PUSH0 SWAP1 SLOAD SWAP1 PUSH2 0x100 EXP SWAP1 DIV PUSH20 0xFFFFFFFFFFFFFFFFFFFFFFFFFFFFFFFFFFFFFFFF AND SWAP1 DUP1 PUSH0 ADD PUSH1 0x14 SWAP1 SLOAD SWAP1 PUSH2 0x100 EXP SWAP1 DIV PUSH1 0xFF AND SWAP1 DUP1 PUSH1 0x1 ADD SLOAD SWAP1 DUP1 PUSH1 0x2 ADD SLOAD SWAP1 POP DUP5 JUMP JUMPDEST PUSH1 0x60 DUP2 MLOAD DUP4 MLOAD EQ PUSH2 0xECA JUMPI DUP2 MLOAD DUP4 MLOAD PUSH1 0x40 MLOAD PUSH32 0x5B05999100000000000000000000000000000000000000000000000000000000 DUP2 MSTORE PUSH1 0x4 ADD PUSH2 0xEC1 SWAP3 SWAP2 SWAP1 PUSH2 0x5114 JUMP JUMPDEST PUSH1 0x40 MLOAD DUP1 SWAP2 SUB SWAP1 REVERT JUMPDEST PUSH0 DUP4 MLOAD PUSH8 0xFFFFFFFFFFFFFFFF DUP2 GT ISZERO PUSH2 0xEE6 JUMPI PUSH2 0xEE5 PUSH2 0x429A JUMP JUMPDEST JUMPDEST PUSH1 0x40 MLOAD SWAP1 DUP1 DUP3 MSTORE DUP1 PUSH1 0x20 MUL PUSH1 0x20 ADD DUP3 ADD PUSH1 0x40 MSTORE DUP1 ISZERO PUSH2 0xF14 JUMPI DUP2 PUSH1 0x20 ADD PUSH1 0x20 DUP3 MUL DUP1 CALLDATASIZE DUP4 CALLDATACOPY DUP1 DUP3 ADD SWAP2 POP POP SWAP1 POP JUMPDEST POP SWAP1 POP PUSH0 JUMPDEST DUP5 MLOAD DUP2 LT ISZERO PUSH2 0xF80 JUMPI PUSH2 0xF50 PUSH2 0xF38 DUP3 DUP8 PUSH2 0x31FD SWAP1 SWAP2 SWAP1 PUSH4 0xFFFFFFFF AND JUMP JUMPDEST PUSH2 0xF4B DUP4 DUP8 PUSH2 0x3210 SWAP1 SWAP2 SWAP1 PUSH4 0xFFFFFFFF AND JUMP JUMPDEST PUSH2 0x857 JUMP JUMPDEST DUP3 DUP3 DUP2 MLOAD DUP2 LT PUSH2 0xF63 JUMPI PUSH2 0xF62 PUSH2 0x5162 JUMP JUMPDEST JUMPDEST PUSH1 0x20 MUL PUSH1 0x20 ADD ADD DUP2 DUP2 MSTORE POP POP DUP1 PUSH2 0xF79 SWAP1 PUSH2 0x4E61 JUMP JUMPDEST SWAP1 POP PUSH2 0xF19 JUMP JUMPDEST POP DUP1 SWAP2 POP POP SWAP3 SWAP2 POP POP JUMP JUMPDEST PUSH0 DUP1 SHL PUSH2 0xF97 DUP2 PUSH2 0x2F1A JUMP JUMPDEST DUP2 PUSH1 0x5 PUSH0 PUSH2 0x100 EXP DUP2 SLOAD DUP2 PUSH20 0xFFFFFFFFFFFFFFFFFFFFFFFFFFFFFFFFFFFFFFFF MUL NOT AND SWAP1 DUP4 PUSH20 0xFFFFFFFFFFFFFFFFFFFFFFFFFFFFFFFFFFFFFFFF AND MUL OR SWAP1 SSTORE POP DUP2 PUSH20 0xFFFFFFFFFFFFFFFFFFFFFFFFFFFFFFFFFFFFFFFF AND PUSH32 0x98F4876A4B909335180EB57863FA803D83B3B76B2F8FC4A7F640F810F16BE753 PUSH1 0x40 MLOAD PUSH1 0x40 MLOAD DUP1 SWAP2 SUB SWAP1 LOG2 POP POP JUMP JUMPDEST PUSH2 0x1026 PUSH2 0x3223 JUMP JUMPDEST PUSH0 PUSH1 0x8 PUSH0 DUP5 DUP2 MSTORE PUSH1 0x20 ADD SWAP1 DUP2 MSTORE PUSH1 0x20 ADD PUSH0 KECCAK256 SWAP1 POP DUP1 PUSH1 0x6 ADD PUSH0 SWAP1 SLOAD SWAP1 PUSH2 0x100 EXP SWAP1 DIV PUSH20 0xFFFFFFFFFFFFFFFFFFFFFFFFFFFFFFFFFFFFFFFF AND PUSH20 0xFFFFFFFFFFFFFFFFFFFFFFFFFFFFFFFFFFFFFFFF AND CALLER PUSH20 0xFFFFFFFFFFFFFFFFFFFFFFFFFFFFFFFFFFFFFFFF AND EQ PUSH2 0x10CB JUMPI PUSH1 0x40 MLOAD PUSH32 0x8C379A000000000000000000000000000000000000000000000000000000000 DUP2 MSTORE PUSH1 0x4 ADD PUSH2 0x10C2 SWAP1 PUSH2 0x51D9 JUMP JUMPDEST PUSH1 0x40 MLOAD DUP1 SWAP2 SUB SWAP1 REVERT JUMPDEST PUSH1 0x9 PUSH0 DUP5 DUP2 MSTORE PUSH1 0x20 ADD SWAP1 DUP2 MSTORE PUSH1 0x20 ADD PUSH0 KECCAK256 DUP1 SLOAD SWAP1 POP DUP3 LT PUSH2 0x1121 JUMPI PUSH1 0x40 MLOAD PUSH32 0x8C379A000000000000000000000000000000000000000000000000000000000 DUP2 MSTORE PUSH1 0x4 ADD PUSH2 0x1118 SWAP1 PUSH2 0x5241 JUMP JUMPDEST PUSH1 0x40 MLOAD DUP1 SWAP2 SUB SWAP1 REVERT JUMPDEST PUSH0 PUSH1 0x9 PUSH0 DUP6 DUP2 MSTORE PUSH1 0x20 ADD SWAP1 DUP2 MSTORE PUSH1 0x20 ADD PUSH0 KECCAK256 DUP4 DUP2 SLOAD DUP2 LT PUSH2 0x1145 JUMPI PUSH2 0x1144 PUSH2 0x5162 JUMP JUMPDEST JUMPDEST SWAP1 PUSH0 MSTORE PUSH1 0x20 PUSH0 KECCAK256 SWAP1 PUSH1 0x3 MUL ADD SWAP1 POP PUSH0 PUSH1 0x3 DUP2 GT ISZERO PUSH2 0x1166 JUMPI PUSH2 0x1165 PUSH2 0x4813 JUMP JUMPDEST JUMPDEST DUP2 PUSH0 ADD PUSH1 0x14 SWAP1 SLOAD SWAP1 PUSH2 0x100 EXP SWAP1 DIV PUSH1 0xFF AND PUSH1 0x3 DUP2 GT ISZERO PUSH2 0x1189 JUMPI PUSH2 0x1188 PUSH2 0x4813 JUMP JUMPDEST JUMPDEST EQ PUSH2 0x11C9 JUMPI PUSH1 0x40 MLOAD PUSH32 0x8C379A000000000000000000000000000000000000000000000000000000000 DUP2 MSTORE PUSH1 0x4 ADD PUSH2 0x11C0 SWAP1 PUSH2 0x52A9 JUMP JUMPDEST PUSH1 0x40 MLOAD DUP1 SWAP2 SUB SWAP1 REVERT JUMPDEST PUSH2 0x258 DUP2 PUSH1 0x2 ADD SLOAD PUSH2 0x11DB SWAP2 SWAP1 PUSH2 0x52C7 JUMP JUMPDEST TIMESTAMP LT ISZERO PUSH2 0x121D JUMPI PUSH1 0x40 MLOAD PUSH32 0x8C379A000000000000000000000000000000000000000000000000000000000 DUP2 MSTORE PUSH1 0x4 ADD PUSH2 0x1214 SWAP1 PUSH2 0x5344 JUMP JUMPDEST PUSH1 0x40 MLOAD DUP1 SWAP2 SUB SWAP1 REVERT JUMPDEST PUSH0 PUSH1 0xA PUSH1 0x2 DUP5 PUSH1 0x5 ADD SLOAD PUSH2 0x1231 SWAP2 SWAP1 PUSH2 0x5362 JUMP JUMPDEST PUSH2 0x123B SWAP2 SWAP1 PUSH2 0x53A3 JUMP JUMPDEST SWAP1 POP PUSH0 PUSH1 0xA DUP5 PUSH1 0x5 ADD SLOAD PUSH2 0x124F SWAP2 SWAP1 PUSH2 0x53A3 JUMP JUMPDEST SWAP1 POP PUSH0 DUP4 PUSH0 ADD PUSH0 SWAP1 SLOAD SWAP1 PUSH2 0x100 EXP SWAP1 DIV PUSH20 0xFFFFFFFFFFFFFFFFFFFFFFFFFFFFFFFFFFFFFFFF AND PUSH20 0xFFFFFFFFFFFFFFFFFFFFFFFFFFFFFFFFFFFFFFFF AND DUP3 DUP5 PUSH2 0x1297 SWAP2 SWAP1 PUSH2 0x53D3 JUMP JUMPDEST PUSH1 0x40 MLOAD PUSH2 0x12A3 SWAP1 PUSH2 0x5433 JUMP JUMPDEST PUSH0 PUSH1 0x40 MLOAD DUP1 DUP4 SUB DUP2 DUP6 DUP8 GAS CALL SWAP3 POP POP POP RETURNDATASIZE DUP1 PUSH0 DUP2 EQ PUSH2 0x12DD JUMPI PUSH1 0x40 MLOAD SWAP2 POP PUSH1 0x1F NOT PUSH1 0x3F RETURNDATASIZE ADD AND DUP3 ADD PUSH1 0x40 MSTORE RETURNDATASIZE DUP3 MSTORE RETURNDATASIZE PUSH0 PUSH1 0x20 DUP5 ADD RETURNDATACOPY PUSH2 0x12E2 JUMP JUMPDEST PUSH1 0x60 SWAP2 POP JUMPDEST POP POP SWAP1 POP DUP1 PUSH2 0x1326 JUMPI PUSH1 0x40 MLOAD PUSH32 0x8C379A000000000000000000000000000000000000000000000000000000000 DUP2 MSTORE PUSH1 0x4 ADD PUSH2 0x131D SWAP1 PUSH2 0x5491 JUMP JUMPDEST PUSH1 0x40 MLOAD DUP1 SWAP2 SUB SWAP1 REVERT JUMPDEST PUSH0 PUSH1 0x5 PUSH0 SWAP1 SLOAD SWAP1 PUSH2 0x100 EXP SWAP1 DIV PUSH20 0xFFFFFFFFFFFFFFFFFFFFFFFFFFFFFFFFFFFFFFFF AND PUSH20 0xFFFFFFFFFFFFFFFFFFFFFFFFFFFFFFFFFFFFFFFF AND DUP4 PUSH1 0x40 MLOAD PUSH2 0x136C SWAP1 PUSH2 0x5433 JUMP JUMPDEST PUSH0 PUSH1 0x40 MLOAD DUP1 DUP4 SUB DUP2 DUP6 DUP8 GAS CALL SWAP3 POP POP POP RETURNDATASIZE DUP1 PUSH0 DUP2 EQ PUSH2 0x13A6 JUMPI PUSH1 0x40 MLOAD SWAP2 POP PUSH1 0x1F NOT PUSH1 0x3F RETURNDATASIZE ADD AND DUP3 ADD PUSH1 0x40 MSTORE RETURNDATASIZE DUP3 MSTORE RETURNDATASIZE PUSH0 PUSH1 0x20 DUP5 ADD RETURNDATACOPY PUSH2 0x13AB JUMP JUMPDEST PUSH1 0x60 SWAP2 POP JUMPDEST POP POP SWAP1 POP DUP1 PUSH2 0x13EF JUMPI PUSH1 0x40 MLOAD PUSH32 0x8C379A000000000000000000000000000000000000000000000000000000000 DUP2 MSTORE PUSH1 0x4 ADD PUSH2 0x13E6 SWAP1 PUSH2 0x5491 JUMP JUMPDEST PUSH1 0x40 MLOAD DUP1 SWAP2 SUB SWAP1 REVERT JUMPDEST DUP6 PUSH1 0x5 ADD SLOAD DUP6 PUSH1 0x1 ADD SLOAD PUSH2 0x1403 SWAP2 SWAP1 PUSH2 0x52C7 JUMP JUMPDEST PUSH1 0xA PUSH0 DUP9 PUSH1 0x6 ADD PUSH0 SWAP1 SLOAD SWAP1 PUSH2 0x100 EXP SWAP1 DIV PUSH20 0xFFFFFFFFFFFFFFFFFFFFFFFFFFFFFFFFFFFFFFFF AND PUSH20 0xFFFFFFFFFFFFFFFFFFFFFFFFFFFFFFFFFFFFFFFF AND PUSH20 0xFFFFFFFFFFFFFFFFFFFFFFFFFFFFFFFFFFFFFFFF AND DUP2 MSTORE PUSH1 0x20 ADD SWAP1 DUP2 MSTORE PUSH1 0x20 ADD PUSH0 KECCAK256 PUSH0 DUP3 DUP3 SLOAD PUSH2 0x1471 SWAP2 SWAP1 PUSH2 0x52C7 JUMP JUMPDEST SWAP3 POP POP DUP2 SWAP1 SSTORE POP PUSH0 DUP6 PUSH1 0x1 ADD DUP2 SWAP1 SSTORE POP PUSH1 0x2 DUP6 PUSH0 ADD PUSH1 0x14 PUSH2 0x100 EXP DUP2 SLOAD DUP2 PUSH1 0xFF MUL NOT AND SWAP1 DUP4 PUSH1 0x3 DUP2 GT ISZERO PUSH2 0x14A8 JUMPI PUSH2 0x14A7 PUSH2 0x4813 JUMP JUMPDEST JUMPDEST MUL OR SWAP1 SSTORE POP DUP6 PUSH1 0x6 ADD PUSH0 SWAP1 SLOAD SWAP1 PUSH2 0x100 EXP SWAP1 DIV PUSH20 0xFFFFFFFFFFFFFFFFFFFFFFFFFFFFFFFFFFFFFFFF AND PUSH20 0xFFFFFFFFFFFFFFFFFFFFFFFFFFFFFFFFFFFFFFFF AND DUP8 DUP10 PUSH32 0x264565E1FF1C54EF5F2BC263D3B7F062AF7172DAF399273B0C92FFC4FD8D4A4D CALLER DUP8 DUP10 PUSH2 0x1517 SWAP2 SWAP1 PUSH2 0x53D3 JUMP JUMPDEST DUP9 PUSH0 DUP14 PUSH1 0x5 ADD SLOAD DUP14 PUSH1 0x1 ADD SLOAD PUSH2 0x152D SWAP2 SWAP1 PUSH2 0x52C7 JUMP JUMPDEST PUSH1 0x40 MLOAD PUSH2 0x153E SWAP6 SWAP5 SWAP4 SWAP3 SWAP2 SWAP1 PUSH2 0x54E8 JUMP JUMPDEST PUSH1 0x40 MLOAD DUP1 SWAP2 SUB SWAP1 LOG4 CALLER PUSH20 0xFFFFFFFFFFFFFFFFFFFFFFFFFFFFFFFFFFFFFFFF AND DUP9 PUSH32 0x86F9D82FE70F334564DFB5D0F47619293510546518AF6F46B21209F3CFD6D3E7 DUP10 PUSH1 0x40 MLOAD PUSH2 0x158D SWAP2 SWAP1 PUSH2 0x40F1 JUMP JUMPDEST PUSH1 0x40 MLOAD DUP1 SWAP2 SUB SWAP1 LOG3 POP POP POP POP POP POP PUSH2 0x15A3 PUSH2 0x3272 JUMP JUMPDEST POP POP JUMP JUMPDEST PUSH1 0x7 PUSH1 0x20 MSTORE DUP1 PUSH0 MSTORE PUSH1 0x40 PUSH0 KECCAK256 PUSH0 SWAP2 POP SWAP1 POP DUP1 SLOAD PUSH2 0x15C3 SWAP1 PUSH2 0x4D3F JUMP JUMPDEST DUP1 PUSH1 0x1F ADD PUSH1 0x20 DUP1 SWAP2 DIV MUL PUSH1 0x20 ADD PUSH1 0x40 MLOAD SWAP1 DUP2 ADD PUSH1 0x40 MSTORE DUP1 SWAP3 SWAP2 SWAP1 DUP2 DUP2 MSTORE PUSH1 0x20 ADD DUP3 DUP1 SLOAD PUSH2 0x15EF SWAP1 PUSH2 0x4D3F JUMP JUMPDEST DUP1 ISZERO PUSH2 0x163A JUMPI DUP1 PUSH1 0x1F LT PUSH2 0x1611 JUMPI PUSH2 0x100 DUP1 DUP4 SLOAD DIV MUL DUP4 MSTORE SWAP2 PUSH1 0x20 ADD SWAP2 PUSH2 0x163A JUMP JUMPDEST DUP3 ADD SWAP2 SWAP1 PUSH0 MSTORE PUSH1 0x20 PUSH0 KECCAK256 SWAP1 JUMPDEST DUP2 SLOAD DUP2 MSTORE SWAP1 PUSH1 0x1 ADD SWAP1 PUSH1 0x20 ADD DUP1 DUP4 GT PUSH2 0x161D JUMPI DUP3 SWAP1 SUB PUSH1 0x1F AND DUP3 ADD SWAP2 JUMPDEST POP POP POP POP POP DUP2 JUMP JUMPDEST PUSH0 PUSH1 0x3 PUSH0 DUP5 DUP2 MSTORE PUSH1 0x20 ADD SWAP1 DUP2 MSTORE PUSH1 0x20 ADD PUSH0 KECCAK256 PUSH0 ADD PUSH0 DUP4 PUSH20 0xFFFFFFFFFFFFFFFFFFFFFFFFFFFFFFFFFFFFFFFF AND PUSH20 0xFFFFFFFFFFFFFFFFFFFFFFFFFFFFFFFFFFFFFFFF AND DUP2 MSTORE PUSH1 0x20 ADD SWAP1 DUP2 MSTORE PUSH1 0x20 ADD PUSH0 KECCAK256 PUSH0 SWAP1 SLOAD SWAP1 PUSH2 0x100 EXP SWAP1 DIV PUSH1 0xFF AND SWAP1 POP SWAP3 SWAP2 POP POP JUMP JUMPDEST PUSH32 0x16CEEE8289685DD2A02B9C8AE81D2DF373176CE53519E6284E2A2950D6546FFA DUP2 JUMP JUMPDEST PUSH2 0x16D2 PUSH2 0x3223 JUMP JUMPDEST PUSH32 0x16CEEE8289685DD2A02B9C8AE81D2DF373176CE53519E6284E2A2950D6546FFA PUSH2 0x16FC DUP2 PUSH2 0x2F1A JUMP JUMPDEST PUSH1 0x9 PUSH0 DUP6 DUP2 MSTORE PUSH1 0x20 ADD SWAP1 DUP2 MSTORE PUSH1 0x20 ADD PUSH0 KECCAK256 DUP1 SLOAD SWAP1 POP DUP4 LT PUSH2 0x1752 JUMPI PUSH1 0x40 MLOAD PUSH32 0x8C379A000000000000000000000000000000000000000000000000000000000 DUP2 MSTORE PUSH1 0x4 ADD PUSH2 0x1749 SWAP1 PUSH2 0x5241 JUMP JUMPDEST PUSH1 0x40 MLOAD DUP1 SWAP2 SUB SWAP1 REVERT JUMPDEST PUSH0 PUSH1 0x9 PUSH0 DUP7 DUP2 MSTORE PUSH1 0x20 ADD SWAP1 DUP2 MSTORE PUSH1 0x20 ADD PUSH0 KECCAK256 DUP5 DUP2 SLOAD DUP2 LT PUSH2 0x1776 JUMPI PUSH2 0x1775 PUSH2 0x5162 JUMP JUMPDEST JUMPDEST SWAP1 PUSH0 MSTORE PUSH1 0x20 PUSH0 KECCAK256 SWAP1 PUSH1 0x3 MUL ADD SWAP1 POP PUSH1 0x1 PUSH1 0x3 DUP2 GT ISZERO PUSH2 0x1798 JUMPI PUSH2 0x1797 PUSH2 0x4813 JUMP JUMPDEST JUMPDEST DUP2 PUSH0 ADD PUSH1 0x14 SWAP1 SLOAD SWAP1 PUSH2 0x100 EXP SWAP1 DIV PUSH1 0xFF AND PUSH1 0x3 DUP2 GT ISZERO PUSH2 0x17BB JUMPI PUSH2 0x17BA PUSH2 0x4813 JUMP JUMPDEST JUMPDEST EQ PUSH2 0x17FB JUMPI PUSH1 0x40 MLOAD PUSH32 0x8C379A000000000000000000000000000000000000000000000000000000000 DUP2 MSTORE PUSH1 0x4 ADD PUSH2 0x17F2 SWAP1 PUSH2 0x5583 JUMP JUMPDEST PUSH1 0x40 MLOAD DUP1 SWAP2 SUB SWAP1 REVERT JUMPDEST PUSH0 PUSH1 0x8 PUSH0 DUP8 DUP2 MSTORE PUSH1 0x20 ADD SWAP1 DUP2 MSTORE PUSH1 0x20 ADD PUSH0 KECCAK256 SWAP1 POP PUSH0 PUSH1 0xA PUSH1 0x2 DUP4 PUSH1 0x5 ADD SLOAD PUSH2 0x1823 SWAP2 SWAP1 PUSH2 0x5362 JUMP JUMPDEST PUSH2 0x182D SWAP2 SWAP1 PUSH2 0x53A3 JUMP JUMPDEST SWAP1 POP PUSH0 PUSH1 0xA DUP4 PUSH1 0x5 ADD SLOAD PUSH2 0x1841 SWAP2 SWAP1 PUSH2 0x53A3 JUMP JUMPDEST SWAP1 POP DUP6 ISZERO PUSH2 0x1B50 JUMPI PUSH0 PUSH1 0x5 PUSH0 SWAP1 SLOAD SWAP1 PUSH2 0x100 EXP SWAP1 DIV PUSH20 0xFFFFFFFFFFFFFFFFFFFFFFFFFFFFFFFFFFFFFFFF AND PUSH20 0xFFFFFFFFFFFFFFFFFFFFFFFFFFFFFFFFFFFFFFFF AND DUP3 PUSH1 0x40 MLOAD PUSH2 0x188F SWAP1 PUSH2 0x5433 JUMP JUMPDEST PUSH0 PUSH1 0x40 MLOAD DUP1 DUP4 SUB DUP2 DUP6 DUP8 GAS CALL SWAP3 POP POP POP RETURNDATASIZE DUP1 PUSH0 DUP2 EQ PUSH2 0x18C9 JUMPI PUSH1 0x40 MLOAD SWAP2 POP PUSH1 0x1F NOT PUSH1 0x3F RETURNDATASIZE ADD AND DUP3 ADD PUSH1 0x40 MSTORE RETURNDATASIZE DUP3 MSTORE RETURNDATASIZE PUSH0 PUSH1 0x20 DUP5 ADD RETURNDATACOPY PUSH2 0x18CE JUMP JUMPDEST PUSH1 0x60 SWAP2 POP JUMPDEST POP POP SWAP1 POP DUP1 PUSH2 0x1912 JUMPI PUSH1 0x40 MLOAD PUSH32 0x8C379A000000000000000000000000000000000000000000000000000000000 DUP2 MSTORE PUSH1 0x4 ADD PUSH2 0x1909 SWAP1 PUSH2 0x5491 JUMP JUMPDEST PUSH1 0x40 MLOAD DUP1 SWAP2 SUB SWAP1 REVERT JUMPDEST PUSH0 PUSH1 0x5 PUSH0 SWAP1 SLOAD SWAP1 PUSH2 0x100 EXP SWAP1 DIV PUSH20 0xFFFFFFFFFFFFFFFFFFFFFFFFFFFFFFFFFFFFFFFF AND PUSH20 0xFFFFFFFFFFFFFFFFFFFFFFFFFFFFFFFFFFFFFFFF AND DUP4 PUSH1 0x40 MLOAD PUSH2 0x1958 SWAP1 PUSH2 0x5433 JUMP JUMPDEST PUSH0 PUSH1 0x40 MLOAD DUP1 DUP4 SUB DUP2 DUP6 DUP8 GAS CALL SWAP3 POP POP POP RETURNDATASIZE DUP1 PUSH0 DUP2 EQ PUSH2 0x1992 JUMPI PUSH1 0x40 MLOAD SWAP2 POP PUSH1 0x1F NOT PUSH1 0x3F RETURNDATASIZE ADD AND DUP3 ADD PUSH1 0x40 MSTORE RETURNDATASIZE DUP3 MSTORE RETURNDATASIZE PUSH0 PUSH1 0x20 DUP5 ADD RETURNDATACOPY PUSH2 0x1997 JUMP JUMPDEST PUSH1 0x60 SWAP2 POP JUMPDEST POP POP SWAP1 POP DUP1 PUSH2 0x19DB JUMPI PUSH1 0x40 MLOAD PUSH32 0x8C379A000000000000000000000000000000000000000000000000000000000 DUP2 MSTORE PUSH1 0x4 ADD PUSH2 0x19D2 SWAP1 PUSH2 0x5491 JUMP JUMPDEST PUSH1 0x40 MLOAD DUP1 SWAP2 SUB SWAP1 REVERT JUMPDEST DUP5 PUSH1 0x5 ADD SLOAD DUP7 PUSH1 0x1 ADD SLOAD PUSH2 0x19EF SWAP2 SWAP1 PUSH2 0x52C7 JUMP JUMPDEST PUSH1 0xA PUSH0 DUP8 PUSH1 0x6 ADD PUSH0 SWAP1 SLOAD SWAP1 PUSH2 0x100 EXP SWAP1 DIV PUSH20 0xFFFFFFFFFFFFFFFFFFFFFFFFFFFFFFFFFFFFFFFF AND PUSH20 0xFFFFFFFFFFFFFFFFFFFFFFFFFFFFFFFFFFFFFFFF AND PUSH20 0xFFFFFFFFFFFFFFFFFFFFFFFFFFFFFFFFFFFFFFFF AND DUP2 MSTORE PUSH1 0x20 ADD SWAP1 DUP2 MSTORE PUSH1 0x20 ADD PUSH0 KECCAK256 PUSH0 DUP3 DUP3 SLOAD PUSH2 0x1A5D SWAP2 SWAP1 PUSH2 0x52C7 JUMP JUMPDEST SWAP3 POP POP DUP2 SWAP1 SSTORE POP PUSH0 DUP7 PUSH1 0x1 ADD DUP2 SWAP1 SSTORE POP PUSH1 0x2 DUP7 PUSH0 ADD PUSH1 0x14 PUSH2 0x100 EXP DUP2 SLOAD DUP2 PUSH1 0xFF MUL NOT AND SWAP1 DUP4 PUSH1 0x3 DUP2 GT ISZERO PUSH2 0x1A94 JUMPI PUSH2 0x1A93 PUSH2 0x4813 JUMP JUMPDEST JUMPDEST MUL OR SWAP1 SSTORE POP DUP5 PUSH1 0x6 ADD PUSH0 SWAP1 SLOAD SWAP1 PUSH2 0x100 EXP SWAP1 DIV PUSH20 0xFFFFFFFFFFFFFFFFFFFFFFFFFFFFFFFFFFFFFFFF AND PUSH20 0xFFFFFFFFFFFFFFFFFFFFFFFFFFFFFFFFFFFFFFFF AND DUP10 DUP12 PUSH32 0x264565E1FF1C54EF5F2BC263D3B7F062AF7172DAF399273B0C92FFC4FD8D4A4D DUP10 PUSH0 ADD PUSH0 SWAP1 SLOAD SWAP1 PUSH2 0x100 EXP SWAP1 DIV PUSH20 0xFFFFFFFFFFFFFFFFFFFFFFFFFFFFFFFFFFFFFFFF AND PUSH0 DUP9 DUP10 DUP13 PUSH1 0x5 ADD SLOAD DUP15 PUSH1 0x1 ADD SLOAD PUSH2 0x1B30 SWAP2 SWAP1 PUSH2 0x52C7 JUMP JUMPDEST PUSH1 0x40 MLOAD PUSH2 0x1B41 SWAP6 SWAP5 SWAP4 SWAP3 SWAP2 SWAP1 PUSH2 0x55A1 JUMP JUMPDEST PUSH1 0x40 MLOAD DUP1 SWAP2 SUB SWAP1 LOG4 POP POP PUSH2 0x1F3F JUMP JUMPDEST PUSH0 DUP5 PUSH0 ADD PUSH0 SWAP1 SLOAD SWAP1 PUSH2 0x100 EXP SWAP1 DIV PUSH20 0xFFFFFFFFFFFFFFFFFFFFFFFFFFFFFFFFFFFFFFFF AND PUSH20 0xFFFFFFFFFFFFFFFFFFFFFFFFFFFFFFFFFFFFFFFF AND DUP4 DUP6 PUSH1 0x5 ADD SLOAD PUSH2 0x1B9A SWAP2 SWAP1 PUSH2 0x52C7 JUMP JUMPDEST PUSH1 0x40 MLOAD PUSH2 0x1BA6 SWAP1 PUSH2 0x5433 JUMP JUMPDEST PUSH0 PUSH1 0x40 MLOAD DUP1 DUP4 SUB DUP2 DUP6 DUP8 GAS CALL SWAP3 POP POP POP RETURNDATASIZE DUP1 PUSH0 DUP2 EQ PUSH2 0x1BE0 JUMPI PUSH1 0x40 MLOAD SWAP2 POP PUSH1 0x1F NOT PUSH1 0x3F RETURNDATASIZE ADD AND DUP3 ADD PUSH1 0x40 MSTORE RETURNDATASIZE DUP3 MSTORE RETURNDATASIZE PUSH0 PUSH1 0x20 DUP5 ADD RETURNDATACOPY PUSH2 0x1BE5 JUMP JUMPDEST PUSH1 0x60 SWAP2 POP JUMPDEST POP POP SWAP1 POP DUP1 PUSH2 0x1C29 JUMPI PUSH1 0x40 MLOAD PUSH32 0x8C379A000000000000000000000000000000000000000000000000000000000 DUP2 MSTORE PUSH1 0x4 ADD PUSH2 0x1C20 SWAP1 PUSH2 0x5491 JUMP JUMPDEST PUSH1 0x40 MLOAD DUP1 SWAP2 SUB SWAP1 REVERT JUMPDEST PUSH0 PUSH1 0x5 PUSH0 SWAP1 SLOAD SWAP1 PUSH2 0x100 EXP SWAP1 DIV PUSH20 0xFFFFFFFFFFFFFFFFFFFFFFFFFFFFFFFFFFFFFFFF AND PUSH20 0xFFFFFFFFFFFFFFFFFFFFFFFFFFFFFFFFFFFFFFFF AND DUP4 PUSH1 0x40 MLOAD PUSH2 0x1C6F SWAP1 PUSH2 0x5433 JUMP JUMPDEST PUSH0 PUSH1 0x40 MLOAD DUP1 DUP4 SUB DUP2 DUP6 DUP8 GAS CALL SWAP3 POP POP POP RETURNDATASIZE DUP1 PUSH0 DUP2 EQ PUSH2 0x1CA9 JUMPI PUSH1 0x40 MLOAD SWAP2 POP PUSH1 0x1F NOT PUSH1 0x3F RETURNDATASIZE ADD AND DUP3 ADD PUSH1 0x40 MSTORE RETURNDATASIZE DUP3 MSTORE RETURNDATASIZE PUSH0 PUSH1 0x20 DUP5 ADD RETURNDATACOPY PUSH2 0x1CAE JUMP JUMPDEST PUSH1 0x60 SWAP2 POP JUMPDEST POP POP SWAP1 POP DUP1 PUSH2 0x1CF2 JUMPI PUSH1 0x40 MLOAD PUSH32 0x8C379A000000000000000000000000000000000000000000000000000000000 DUP2 MSTORE PUSH1 0x4 ADD PUSH2 0x1CE9 SWAP1 PUSH2 0x5491 JUMP JUMPDEST PUSH1 0x40 MLOAD DUP1 SWAP2 SUB SWAP1 REVERT JUMPDEST PUSH0 PUSH1 0x5 PUSH0 SWAP1 SLOAD SWAP1 PUSH2 0x100 EXP SWAP1 DIV PUSH20 0xFFFFFFFFFFFFFFFFFFFFFFFFFFFFFFFFFFFFFFFF AND PUSH20 0xFFFFFFFFFFFFFFFFFFFFFFFFFFFFFFFFFFFFFFFF AND DUP5 PUSH1 0x40 MLOAD PUSH2 0x1D38 SWAP1 PUSH2 0x5433 JUMP JUMPDEST PUSH0 PUSH1 0x40 MLOAD DUP1 DUP4 SUB DUP2 DUP6 DUP8 GAS CALL SWAP3 POP POP POP RETURNDATASIZE DUP1 PUSH0 DUP2 EQ PUSH2 0x1D72 JUMPI PUSH1 0x40 MLOAD SWAP2 POP PUSH1 0x1F NOT PUSH1 0x3F RETURNDATASIZE ADD AND DUP3 ADD PUSH1 0x40 MSTORE RETURNDATASIZE DUP3 MSTORE RETURNDATASIZE PUSH0 PUSH1 0x20 DUP5 ADD RETURNDATACOPY PUSH2 0x1D77 JUMP JUMPDEST PUSH1 0x60 SWAP2 POP JUMPDEST POP POP SWAP1 POP DUP1 PUSH2 0x1DBB JUMPI PUSH1 0x40 MLOAD PUSH32 0x8C379A000000000000000000000000000000000000000000000000000000000 DUP2 MSTORE PUSH1 0x4 ADD PUSH2 0x1DB2 SWAP1 PUSH2 0x5491 JUMP JUMPDEST PUSH1 0x40 MLOAD DUP1 SWAP2 SUB SWAP1 REVERT JUMPDEST PUSH0 DUP8 PUSH1 0x1 ADD DUP2 SWAP1 SSTORE POP PUSH1 0x3 DUP8 PUSH0 ADD PUSH1 0x14 PUSH2 0x100 EXP DUP2 SLOAD DUP2 PUSH1 0xFF MUL NOT AND SWAP1 DUP4 PUSH1 0x3 DUP2 GT ISZERO PUSH2 0x1DEB JUMPI PUSH2 0x1DEA PUSH2 0x4813 JUMP JUMPDEST JUMPDEST MUL OR SWAP1 SSTORE POP PUSH2 0x1E1E DUP8 PUSH0 ADD PUSH0 SWAP1 SLOAD SWAP1 PUSH2 0x100 EXP SWAP1 DIV PUSH20 0xFFFFFFFFFFFFFFFFFFFFFFFFFFFFFFFFFFFFFFFF AND DUP13 PUSH1 0x1 PUSH2 0x327C JUMP JUMPDEST DUP6 PUSH1 0x6 ADD PUSH0 SWAP1 SLOAD SWAP1 PUSH2 0x100 EXP SWAP1 DIV PUSH20 0xFFFFFFFFFFFFFFFFFFFFFFFFFFFFFFFFFFFFFFFF AND PUSH20 0xFFFFFFFFFFFFFFFFFFFFFFFFFFFFFFFFFFFFFFFF AND DUP11 DUP13 PUSH32 0x264565E1FF1C54EF5F2BC263D3B7F062AF7172DAF399273B0C92FFC4FD8D4A4D DUP11 PUSH0 ADD PUSH0 SWAP1 SLOAD SWAP1 PUSH2 0x100 EXP SWAP1 DIV PUSH20 0xFFFFFFFFFFFFFFFFFFFFFFFFFFFFFFFFFFFFFFFF AND DUP10 DUP12 PUSH1 0x5 ADD SLOAD PUSH2 0x1EAE SWAP2 SWAP1 PUSH2 0x52C7 JUMP JUMPDEST DUP10 DUP11 PUSH0 PUSH1 0x40 MLOAD PUSH2 0x1EC2 SWAP6 SWAP5 SWAP4 SWAP3 SWAP2 SWAP1 PUSH2 0x55F2 JUMP JUMPDEST PUSH1 0x40 MLOAD DUP1 SWAP2 SUB SWAP1 LOG4 DUP7 PUSH0 ADD PUSH0 SWAP1 SLOAD SWAP1 PUSH2 0x100 EXP SWAP1 DIV PUSH20 0xFFFFFFFFFFFFFFFFFFFFFFFFFFFFFFFFFFFFFFFF AND PUSH20 0xFFFFFFFFFFFFFFFFFFFFFFFFFFFFFFFFFFFFFFFF AND DUP12 PUSH32 0x9E07DCE46977EC95E7805C93CE75A606C8828E2F4A3E5554BFEB839D50895099 DUP13 PUSH1 0x40 MLOAD PUSH2 0x1F33 SWAP2 SWAP1 PUSH2 0x40F1 JUMP JUMPDEST PUSH1 0x40 MLOAD DUP1 SWAP2 SUB SWAP1 LOG3 POP POP POP JUMPDEST DUP8 PUSH32 0xD4390D9B1EAE30D53D6E598D7EBA50E60F3EA18310CA83E7919E3DF177BB05CA DUP9 DUP9 PUSH1 0x40 MLOAD PUSH2 0x1F71 SWAP3 SWAP2 SWAP1 PUSH2 0x5643 JUMP JUMPDEST PUSH1 0x40 MLOAD DUP1 SWAP2 SUB SWAP1 LOG2 POP POP POP POP POP PUSH2 0x1F86 PUSH2 0x3272 JUMP JUMPDEST POP POP POP JUMP JUMPDEST PUSH0 DUP1 SHL DUP2 JUMP JUMPDEST PUSH2 0x1FA3 PUSH2 0x1F9C PUSH2 0x2F2E JUMP JUMPDEST DUP4 DUP4 PUSH2 0x331E JUMP JUMPDEST POP POP JUMP JUMPDEST PUSH32 0x877A78DC988C0EC5F58453B44888A55EB39755C3D5ED8D8EA990912AA3EF29C6 DUP2 JUMP JUMPDEST PUSH1 0xA PUSH1 0x20 MSTORE DUP1 PUSH0 MSTORE PUSH1 0x40 PUSH0 KECCAK256 PUSH0 SWAP2 POP SWAP1 POP SLOAD DUP2 JUMP JUMPDEST PUSH1 0x5 PUSH0 SWAP1 SLOAD SWAP1 PUSH2 0x100 EXP SWAP1 DIV PUSH20 0xFFFFFFFFFFFFFFFFFFFFFFFFFFFFFFFFFFFFFFFF AND DUP2 JUMP JUMPDEST PUSH2 0x200D PUSH2 0x3223 JUMP JUMPDEST PUSH1 0x9 PUSH0 DUP5 DUP2 MSTORE PUSH1 0x20 ADD SWAP1 DUP2 MSTORE PUSH1 0x20 ADD PUSH0 KECCAK256 DUP1 SLOAD SWAP1 POP DUP3 LT PUSH2 0x2063 JUMPI PUSH1 0x40 MLOAD PUSH32 0x8C379A000000000000000000000000000000000000000000000000000000000 DUP2 MSTORE PUSH1 0x4 ADD PUSH2 0x205A SWAP1 PUSH2 0x5241 JUMP JUMPDEST PUSH1 0x40 MLOAD DUP1 SWAP2 SUB SWAP1 REVERT JUMPDEST PUSH0 PUSH1 0x9 PUSH0 DUP6 DUP2 MSTORE PUSH1 0x20 ADD SWAP1 DUP2 MSTORE PUSH1 0x20 ADD PUSH0 KECCAK256 DUP4 DUP2 SLOAD DUP2 LT PUSH2 0x2087 JUMPI PUSH2 0x2086 PUSH2 0x5162 JUMP JUMPDEST JUMPDEST SWAP1 PUSH0 MSTORE PUSH1 0x20 PUSH0 KECCAK256 SWAP1 PUSH1 0x3 MUL ADD SWAP1 POP CALLER PUSH20 0xFFFFFFFFFFFFFFFFFFFFFFFFFFFFFFFFFFFFFFFF AND DUP2 PUSH0 ADD PUSH0 SWAP1 SLOAD SWAP1 PUSH2 0x100 EXP SWAP1 DIV PUSH20 0xFFFFFFFFFFFFFFFFFFFFFFFFFFFFFFFFFFFFFFFF AND PUSH20 0xFFFFFFFFFFFFFFFFFFFFFFFFFFFFFFFFFFFFFFFF AND EQ PUSH2 0x2125 JUMPI PUSH1 0x40 MLOAD PUSH32 0x8C379A000000000000000000000000000000000000000000000000000000000 DUP2 MSTORE PUSH1 0x4 ADD PUSH2 0x211C SWAP1 PUSH2 0x56B4 JUMP JUMPDEST PUSH1 0x40 MLOAD DUP1 SWAP2 SUB SWAP1 REVERT JUMPDEST PUSH0 PUSH1 0x3 DUP2 GT ISZERO PUSH2 0x2138 JUMPI PUSH2 0x2137 PUSH2 0x4813 JUMP JUMPDEST JUMPDEST DUP2 PUSH0 ADD PUSH1 0x14 SWAP1 SLOAD SWAP1 PUSH2 0x100 EXP SWAP1 DIV PUSH1 0xFF AND PUSH1 0x3 DUP2 GT ISZERO PUSH2 0x215B JUMPI PUSH2 0x215A PUSH2 0x4813 JUMP JUMPDEST JUMPDEST EQ PUSH2 0x219B JUMPI PUSH1 0x40 MLOAD PUSH32 0x8C379A000000000000000000000000000000000000000000000000000000000 DUP2 MSTORE PUSH1 0x4 ADD PUSH2 0x2192 SWAP1 PUSH2 0x52A9 JUMP JUMPDEST PUSH1 0x40 MLOAD DUP1 SWAP2 SUB SWAP1 REVERT JUMPDEST PUSH0 PUSH1 0x8 PUSH0 DUP7 DUP2 MSTORE PUSH1 0x20 ADD SWAP1 DUP2 MSTORE PUSH1 0x20 ADD PUSH0 KECCAK256 SWAP1 POP CALLER PUSH20 0xFFFFFFFFFFFFFFFFFFFFFFFFFFFFFFFFFFFFFFFF AND DUP6 PUSH32 0xDFCFA307BD7FF3B7DF976AEA65A8DF73DEB67F2649E10E389AE208B2A5C667AF DUP7 DUP7 PUSH1 0x40 MLOAD PUSH2 0x21F8 SWAP3 SWAP2 SWAP1 PUSH2 0x5643 JUMP JUMPDEST PUSH1 0x40 MLOAD DUP1 SWAP2 SUB SWAP1 LOG3 DUP3 ISZERO PUSH2 0x2516 JUMPI PUSH0 PUSH1 0xA PUSH1 0x2 DUP4 PUSH1 0x5 ADD SLOAD PUSH2 0x221A SWAP2 SWAP1 PUSH2 0x5362 JUMP JUMPDEST PUSH2 0x2224 SWAP2 SWAP1 PUSH2 0x53A3 JUMP JUMPDEST SWAP1 POP PUSH0 PUSH1 0xA DUP4 PUSH1 0x5 ADD SLOAD PUSH2 0x2238 SWAP2 SWAP1 PUSH2 0x53A3 JUMP JUMPDEST SWAP1 POP PUSH0 CALLER PUSH20 0xFFFFFFFFFFFFFFFFFFFFFFFFFFFFFFFFFFFFFFFF AND DUP4 PUSH1 0x40 MLOAD PUSH2 0x225F SWAP1 PUSH2 0x5433 JUMP JUMPDEST PUSH0 PUSH1 0x40 MLOAD DUP1 DUP4 SUB DUP2 DUP6 DUP8 GAS CALL SWAP3 POP POP POP RETURNDATASIZE DUP1 PUSH0 DUP2 EQ PUSH2 0x2299 JUMPI PUSH1 0x40 MLOAD SWAP2 POP PUSH1 0x1F NOT PUSH1 0x3F RETURNDATASIZE ADD AND DUP3 ADD PUSH1 0x40 MSTORE RETURNDATASIZE DUP3 MSTORE RETURNDATASIZE PUSH0 PUSH1 0x20 DUP5 ADD RETURNDATACOPY PUSH2 0x229E JUMP JUMPDEST PUSH1 0x60 SWAP2 POP JUMPDEST POP POP SWAP1 POP DUP1 PUSH2 0x22E2 JUMPI PUSH1 0x40 MLOAD PUSH32 0x8C379A000000000000000000000000000000000000000000000000000000000 DUP2 MSTORE PUSH1 0x4 ADD PUSH2 0x22D9 SWAP1 PUSH2 0x5491 JUMP JUMPDEST PUSH1 0x40 MLOAD DUP1 SWAP2 SUB SWAP1 REVERT JUMPDEST PUSH0 PUSH1 0x5 PUSH0 SWAP1 SLOAD SWAP1 PUSH2 0x100 EXP SWAP1 DIV PUSH20 0xFFFFFFFFFFFFFFFFFFFFFFFFFFFFFFFFFFFFFFFF AND PUSH20 0xFFFFFFFFFFFFFFFFFFFFFFFFFFFFFFFFFFFFFFFF AND DUP4 PUSH1 0x40 MLOAD PUSH2 0x2328 SWAP1 PUSH2 0x5433 JUMP JUMPDEST PUSH0 PUSH1 0x40 MLOAD DUP1 DUP4 SUB DUP2 DUP6 DUP8 GAS CALL SWAP3 POP POP POP RETURNDATASIZE DUP1 PUSH0 DUP2 EQ PUSH2 0x2362 JUMPI PUSH1 0x40 MLOAD SWAP2 POP PUSH1 0x1F NOT PUSH1 0x3F RETURNDATASIZE ADD AND DUP3 ADD PUSH1 0x40 MSTORE RETURNDATASIZE DUP3 MSTORE RETURNDATASIZE PUSH0 PUSH1 0x20 DUP5 ADD RETURNDATACOPY PUSH2 0x2367 JUMP JUMPDEST PUSH1 0x60 SWAP2 POP JUMPDEST POP POP SWAP1 POP DUP1 PUSH2 0x23AB JUMPI PUSH1 0x40 MLOAD PUSH32 0x8C379A000000000000000000000000000000000000000000000000000000000 DUP2 MSTORE PUSH1 0x4 ADD PUSH2 0x23A2 SWAP1 PUSH2 0x5491 JUMP JUMPDEST PUSH1 0x40 MLOAD DUP1 SWAP2 SUB SWAP1 REVERT JUMPDEST DUP3 DUP6 PUSH1 0x5 ADD SLOAD DUP8 PUSH1 0x1 ADD SLOAD PUSH2 0x23C0 SWAP2 SWAP1 PUSH2 0x52C7 JUMP JUMPDEST PUSH2 0x23CA SWAP2 SWAP1 PUSH2 0x53D3 JUMP JUMPDEST PUSH1 0xA PUSH0 DUP8 PUSH1 0x6 ADD PUSH0 SWAP1 SLOAD SWAP1 PUSH2 0x100 EXP SWAP1 DIV PUSH20 0xFFFFFFFFFFFFFFFFFFFFFFFFFFFFFFFFFFFFFFFF AND PUSH20 0xFFFFFFFFFFFFFFFFFFFFFFFFFFFFFFFFFFFFFFFF AND PUSH20 0xFFFFFFFFFFFFFFFFFFFFFFFFFFFFFFFFFFFFFFFF AND DUP2 MSTORE PUSH1 0x20 ADD SWAP1 DUP2 MSTORE PUSH1 0x20 ADD PUSH0 KECCAK256 PUSH0 DUP3 DUP3 SLOAD PUSH2 0x2438 SWAP2 SWAP1 PUSH2 0x52C7 JUMP JUMPDEST SWAP3 POP POP DUP2 SWAP1 SSTORE POP PUSH0 DUP7 PUSH1 0x1 ADD DUP2 SWAP1 SSTORE POP PUSH1 0x2 DUP7 PUSH0 ADD PUSH1 0x14 PUSH2 0x100 EXP DUP2 SLOAD DUP2 PUSH1 0xFF MUL NOT AND SWAP1 DUP4 PUSH1 0x3 DUP2 GT ISZERO PUSH2 0x246F JUMPI PUSH2 0x246E PUSH2 0x4813 JUMP JUMPDEST JUMPDEST MUL OR SWAP1 SSTORE POP DUP5 PUSH1 0x6 ADD PUSH0 SWAP1 SLOAD SWAP1 PUSH2 0x100 EXP SWAP1 DIV PUSH20 0xFFFFFFFFFFFFFFFFFFFFFFFFFFFFFFFFFFFFFFFF AND PUSH20 0xFFFFFFFFFFFFFFFFFFFFFFFFFFFFFFFFFFFFFFFF AND DUP9 DUP11 PUSH32 0x264565E1FF1C54EF5F2BC263D3B7F062AF7172DAF399273B0C92FFC4FD8D4A4D CALLER DUP9 DUP9 PUSH0 DUP11 DUP14 PUSH1 0x5 ADD SLOAD DUP16 PUSH1 0x1 ADD SLOAD PUSH2 0x24EA SWAP2 SWAP1 PUSH2 0x52C7 JUMP JUMPDEST PUSH2 0x24F4 SWAP2 SWAP1 PUSH2 0x53D3 JUMP JUMPDEST PUSH1 0x40 MLOAD PUSH2 0x2505 SWAP6 SWAP5 SWAP4 SWAP3 SWAP2 SWAP1 PUSH2 0x54E8 JUMP JUMPDEST PUSH1 0x40 MLOAD DUP1 SWAP2 SUB SWAP1 LOG4 POP POP POP POP PUSH2 0x2592 JUMP JUMPDEST PUSH1 0x1 DUP3 PUSH0 ADD PUSH1 0x14 PUSH2 0x100 EXP DUP2 SLOAD DUP2 PUSH1 0xFF MUL NOT AND SWAP1 DUP4 PUSH1 0x3 DUP2 GT ISZERO PUSH2 0x253D JUMPI PUSH2 0x253C PUSH2 0x4813 JUMP JUMPDEST JUMPDEST MUL OR SWAP1 SSTORE POP CALLER PUSH20 0xFFFFFFFFFFFFFFFFFFFFFFFFFFFFFFFFFFFFFFFF AND DUP6 PUSH32 0xC6FB55A2BD2838E444163CECE1945A661C371C5EC8C1A4EA5D697AEFC7690547 DUP7 PUSH1 0x40 MLOAD PUSH2 0x2589 SWAP2 SWAP1 PUSH2 0x40F1 JUMP JUMPDEST PUSH1 0x40 MLOAD DUP1 SWAP2 SUB SWAP1 LOG3 JUMPDEST POP POP PUSH2 0x259C PUSH2 0x3272 JUMP JUMPDEST POP POP POP JUMP JUMPDEST PUSH0 PUSH4 0xBC197C81 PUSH1 0xE0 SHL SWAP1 POP SWAP6 SWAP5 POP POP POP POP POP JUMP JUMPDEST PUSH2 0x25BE DUP3 PUSH2 0xB3D JUMP JUMPDEST PUSH2 0x25C7 DUP2 PUSH2 0x2F1A JUMP JUMPDEST PUSH2 0x25D1 DUP4 DUP4 PUSH2 0x3113 JUMP JUMPDEST POP POP POP POP JUMP JUMPDEST PUSH2 0x25DF PUSH2 0x3223 JUMP JUMPDEST PUSH0 PUSH1 0x8 PUSH0 DUP4 DUP2 MSTORE PUSH1 0x20 ADD SWAP1 DUP2 MSTORE PUSH1 0x20 ADD PUSH0 KECCAK256 SWAP1 POP DUP1 PUSH1 0x3 ADD SLOAD DUP2 PUSH1 0x4 ADD SLOAD LT PUSH2 0x263D JUMPI PUSH1 0x40 MLOAD PUSH32 0x8C379A000000000000000000000000000000000000000000000000000000000 DUP2 MSTORE PUSH1 0x4 ADD PUSH2 0x2634 SWAP1 PUSH2 0x571C JUMP JUMPDEST PUSH1 0x40 MLOAD DUP1 SWAP2 SUB SWAP1 REVERT JUMPDEST PUSH0 PUSH1 0xA PUSH1 0x2 DUP4 PUSH1 0x5 ADD SLOAD PUSH2 0x2651 SWAP2 SWAP1 PUSH2 0x5362 JUMP JUMPDEST PUSH2 0x265B SWAP2 SWAP1 PUSH2 0x53A3 JUMP JUMPDEST SWAP1 POP PUSH0 DUP2 DUP4 PUSH1 0x5 ADD SLOAD PUSH2 0x266E SWAP2 SWAP1 PUSH2 0x52C7 JUMP JUMPDEST SWAP1 POP DUP1 CALLVALUE EQ PUSH2 0x26B2 JUMPI PUSH1 0x40 MLOAD PUSH32 0x8C379A000000000000000000000000000000000000000000000000000000000 DUP2 MSTORE PUSH1 0x4 ADD PUSH2 0x26A9 SWAP1 PUSH2 0x5784 JUMP JUMPDEST PUSH1 0x40 MLOAD DUP1 SWAP2 SUB SWAP1 REVERT JUMPDEST DUP2 PUSH1 0xA PUSH0 DUP6 PUSH1 0x6 ADD PUSH0 SWAP1 SLOAD SWAP1 PUSH2 0x100 EXP SWAP1 DIV PUSH20 0xFFFFFFFFFFFFFFFFFFFFFFFFFFFFFFFFFFFFFFFF AND PUSH20 0xFFFFFFFFFFFFFFFFFFFFFFFFFFFFFFFFFFFFFFFF AND PUSH20 0xFFFFFFFFFFFFFFFFFFFFFFFFFFFFFFFFFFFFFFFF AND DUP2 MSTORE PUSH1 0x20 ADD SWAP1 DUP2 MSTORE PUSH1 0x20 ADD PUSH0 KECCAK256 SLOAD LT ISZERO PUSH2 0x2755 JUMPI PUSH1 0x40 MLOAD PUSH32 0x8C379A000000000000000000000000000000000000000000000000000000000 DUP2 MSTORE PUSH1 0x4 ADD PUSH2 0x274C SWAP1 PUSH2 0x57EC JUMP JUMPDEST PUSH1 0x40 MLOAD DUP1 SWAP2 SUB SWAP1 REVERT JUMPDEST DUP2 PUSH1 0xA PUSH0 DUP6 PUSH1 0x6 ADD PUSH0 SWAP1 SLOAD SWAP1 PUSH2 0x100 EXP SWAP1 DIV PUSH20 0xFFFFFFFFFFFFFFFFFFFFFFFFFFFFFFFFFFFFFFFF AND PUSH20 0xFFFFFFFFFFFFFFFFFFFFFFFFFFFFFFFFFFFFFFFF AND PUSH20 0xFFFFFFFFFFFFFFFFFFFFFFFFFFFFFFFFFFFFFFFF AND DUP2 MSTORE PUSH1 0x20 ADD SWAP1 DUP2 MSTORE PUSH1 0x20 ADD PUSH0 KECCAK256 PUSH0 DUP3 DUP3 SLOAD PUSH2 0x27C4 SWAP2 SWAP1 PUSH2 0x53D3 JUMP JUMPDEST SWAP3 POP POP DUP2 SWAP1 SSTORE POP PUSH0 PUSH1 0x40 MLOAD DUP1 PUSH1 0x80 ADD PUSH1 0x40 MSTORE DUP1 CALLER PUSH20 0xFFFFFFFFFFFFFFFFFFFFFFFFFFFFFFFFFFFFFFFF AND DUP2 MSTORE PUSH1 0x20 ADD PUSH0 PUSH1 0x3 DUP2 GT ISZERO PUSH2 0x2806 JUMPI PUSH2 0x2805 PUSH2 0x4813 JUMP JUMPDEST JUMPDEST DUP2 MSTORE PUSH1 0x20 ADD DUP5 DUP2 MSTORE PUSH1 0x20 ADD TIMESTAMP DUP2 MSTORE POP SWAP1 POP PUSH1 0x9 PUSH0 DUP7 DUP2 MSTORE PUSH1 0x20 ADD SWAP1 DUP2 MSTORE PUSH1 0x20 ADD PUSH0 KECCAK256 DUP2 SWAP1 DUP1 PUSH1 0x1 DUP2 SLOAD ADD DUP1 DUP3 SSTORE DUP1 SWAP2 POP POP PUSH1 0x1 SWAP1 SUB SWAP1 PUSH0 MSTORE PUSH1 0x20 PUSH0 KECCAK256 SWAP1 PUSH1 0x3 MUL ADD PUSH0 SWAP1 SWAP2 SWAP1 SWAP2 SWAP1 SWAP2 POP PUSH0 DUP3 ADD MLOAD DUP2 PUSH0 ADD PUSH0 PUSH2 0x100 EXP DUP2 SLOAD DUP2 PUSH20 0xFFFFFFFFFFFFFFFFFFFFFFFFFFFFFFFFFFFFFFFF MUL NOT AND SWAP1 DUP4 PUSH20 0xFFFFFFFFFFFFFFFFFFFFFFFFFFFFFFFFFFFFFFFF AND MUL OR SWAP1 SSTORE POP PUSH1 0x20 DUP3 ADD MLOAD DUP2 PUSH0 ADD PUSH1 0x14 PUSH2 0x100 EXP DUP2 SLOAD DUP2 PUSH1 0xFF MUL NOT AND SWAP1 DUP4 PUSH1 0x3 DUP2 GT ISZERO PUSH2 0x28BD JUMPI PUSH2 0x28BC PUSH2 0x4813 JUMP JUMPDEST JUMPDEST MUL OR SWAP1 SSTORE POP PUSH1 0x40 DUP3 ADD MLOAD DUP2 PUSH1 0x1 ADD SSTORE PUSH1 0x60 DUP3 ADD MLOAD DUP2 PUSH1 0x2 ADD SSTORE POP POP PUSH0 PUSH1 0x1 PUSH1 0x9 PUSH0 DUP9 DUP2 MSTORE PUSH1 0x20 ADD SWAP1 DUP2 MSTORE PUSH1 0x20 ADD PUSH0 KECCAK256 DUP1 SLOAD SWAP1 POP PUSH2 0x28FA SWAP2 SWAP1 PUSH2 0x53D3 JUMP JUMPDEST SWAP1 POP PUSH1 0x1 DUP6 PUSH1 0x4 ADD PUSH0 DUP3 DUP3 SLOAD PUSH2 0x2910 SWAP2 SWAP1 PUSH2 0x52C7 JUMP JUMPDEST SWAP3 POP POP DUP2 SWAP1 SSTORE POP PUSH2 0x2932 CALLER DUP8 PUSH1 0x1 PUSH1 0x40 MLOAD DUP1 PUSH1 0x20 ADD PUSH1 0x40 MSTORE DUP1 PUSH0 DUP2 MSTORE POP PUSH2 0x3487 JUMP JUMPDEST CALLER PUSH20 0xFFFFFFFFFFFFFFFFFFFFFFFFFFFFFFFFFFFFFFFF AND DUP2 DUP8 PUSH32 0x118B73186F00B652A3AAF789AA1AC1434F0800D84C3FE5B17A57AA550EB9725 DUP7 DUP9 PUSH1 0x40 MLOAD PUSH2 0x297C SWAP3 SWAP2 SWAP1 PUSH2 0x5114 JUMP JUMPDEST PUSH1 0x40 MLOAD DUP1 SWAP2 SUB SWAP1 LOG4 POP POP POP POP POP PUSH2 0x2991 PUSH2 0x3272 JUMP JUMPDEST POP JUMP JUMPDEST PUSH0 PUSH1 0x1 PUSH0 DUP5 PUSH20 0xFFFFFFFFFFFFFFFFFFFFFFFFFFFFFFFFFFFFFFFF AND PUSH20 0xFFFFFFFFFFFFFFFFFFFFFFFFFFFFFFFFFFFFFFFF AND DUP2 MSTORE PUSH1 0x20 ADD SWAP1 DUP2 MSTORE PUSH1 0x20 ADD PUSH0 KECCAK256 PUSH0 DUP4 PUSH20 0xFFFFFFFFFFFFFFFFFFFFFFFFFFFFFFFFFFFFFFFF AND PUSH20 0xFFFFFFFFFFFFFFFFFFFFFFFFFFFFFFFFFFFFFFFF AND DUP2 MSTORE PUSH1 0x20 ADD SWAP1 DUP2 MSTORE PUSH1 0x20 ADD PUSH0 KECCAK256 PUSH0 SWAP1 SLOAD SWAP1 PUSH2 0x100 EXP SWAP1 DIV PUSH1 0xFF AND SWAP1 POP SWAP3 SWAP2 POP POP JUMP JUMPDEST DUP1 PUSH1 0x7 PUSH0 CALLER PUSH20 0xFFFFFFFFFFFFFFFFFFFFFFFFFFFFFFFFFFFFFFFF AND PUSH20 0xFFFFFFFFFFFFFFFFFFFFFFFFFFFFFFFFFFFFFFFF AND DUP2 MSTORE PUSH1 0x20 ADD SWAP1 DUP2 MSTORE PUSH1 0x20 ADD PUSH0 KECCAK256 SWAP1 DUP2 PUSH2 0x2A6C SWAP2 SWAP1 PUSH2 0x5045 JUMP JUMPDEST POP CALLER PUSH20 0xFFFFFFFFFFFFFFFFFFFFFFFFFFFFFFFFFFFFFFFF AND PUSH32 0xAFED4F1A2C223CB1517E4013192D43A5074E18A142BF3F39FE8791187F634C20 DUP3 PUSH1 0x40 MLOAD PUSH2 0x2AB3 SWAP2 SWAP1 PUSH2 0x4272 JUMP JUMPDEST PUSH1 0x40 MLOAD DUP1 SWAP2 SUB SWAP1 LOG2 POP JUMP JUMPDEST PUSH2 0x2AC6 PUSH2 0x3223 JUMP JUMPDEST PUSH32 0x877A78DC988C0EC5F58453B44888A55EB39755C3D5ED8D8EA990912AA3EF29C6 PUSH2 0x2AF0 DUP2 PUSH2 0x2F1A JUMP JUMPDEST DUP2 PUSH1 0xA PUSH0 CALLER PUSH20 0xFFFFFFFFFFFFFFFFFFFFFFFFFFFFFFFFFFFFFFFF AND PUSH20 0xFFFFFFFFFFFFFFFFFFFFFFFFFFFFFFFFFFFFFFFF AND DUP2 MSTORE PUSH1 0x20 ADD SWAP1 DUP2 MSTORE PUSH1 0x20 ADD PUSH0 KECCAK256 SLOAD LT ISZERO PUSH2 0x2B70 JUMPI PUSH1 0x40 MLOAD PUSH32 0x8C379A000000000000000000000000000000000000000000000000000000000 DUP2 MSTORE PUSH1 0x4 ADD PUSH2 0x2B67 SWAP1 PUSH2 0x5854 JUMP JUMPDEST PUSH1 0x40 MLOAD DUP1 SWAP2 SUB SWAP1 REVERT JUMPDEST DUP2 PUSH1 0xA PUSH0 CALLER PUSH20 0xFFFFFFFFFFFFFFFFFFFFFFFFFFFFFFFFFFFFFFFF AND PUSH20 0xFFFFFFFFFFFFFFFFFFFFFFFFFFFFFFFFFFFFFFFF AND DUP2 MSTORE PUSH1 0x20 ADD SWAP1 DUP2 MSTORE PUSH1 0x20 ADD PUSH0 KECCAK256 PUSH0 DUP3 DUP3 SLOAD PUSH2 0x2BBC SWAP2 SWAP1 PUSH2 0x53D3 JUMP JUMPDEST SWAP3 POP POP DUP2 SWAP1 SSTORE POP PUSH0 CALLER PUSH20 0xFFFFFFFFFFFFFFFFFFFFFFFFFFFFFFFFFFFFFFFF AND DUP4 PUSH1 0x40 MLOAD PUSH2 0x2BE8 SWAP1 PUSH2 0x5433 JUMP JUMPDEST PUSH0 PUSH1 0x40 MLOAD DUP1 DUP4 SUB DUP2 DUP6 DUP8 GAS CALL SWAP3 POP POP POP RETURNDATASIZE DUP1 PUSH0 DUP2 EQ PUSH2 0x2C22 JUMPI PUSH1 0x40 MLOAD SWAP2 POP PUSH1 0x1F NOT PUSH1 0x3F RETURNDATASIZE ADD AND DUP3 ADD PUSH1 0x40 MSTORE RETURNDATASIZE DUP3 MSTORE RETURNDATASIZE PUSH0 PUSH1 0x20 DUP5 ADD RETURNDATACOPY PUSH2 0x2C27 JUMP JUMPDEST PUSH1 0x60 SWAP2 POP JUMPDEST POP POP SWAP1 POP DUP1 PUSH2 0x2C6B JUMPI PUSH1 0x40 MLOAD PUSH32 0x8C379A000000000000000000000000000000000000000000000000000000000 DUP2 MSTORE PUSH1 0x4 ADD PUSH2 0x2C62 SWAP1 PUSH2 0x58BC JUMP JUMPDEST PUSH1 0x40 MLOAD DUP1 SWAP2 SUB SWAP1 REVERT JUMPDEST CALLER PUSH20 0xFFFFFFFFFFFFFFFFFFFFFFFFFFFFFFFFFFFFFFFF AND PUSH32 0x566E45B1C8057E725BF62796A7F1D37AE294393CAB069725A09DADDD1AF98B79 DUP5 PUSH1 0x40 MLOAD PUSH2 0x2CB1 SWAP2 SWAP1 PUSH2 0x40F1 JUMP JUMPDEST PUSH1 0x40 MLOAD DUP1 SWAP2 SUB SWAP1 LOG2 POP POP PUSH2 0x2CC3 PUSH2 0x3272 JUMP JUMPDEST POP JUMP JUMPDEST PUSH0 PUSH4 0xF23A6E61 PUSH1 0xE0 SHL SWAP1 POP SWAP6 SWAP5 POP POP POP POP POP JUMP JUMPDEST PUSH0 PUSH2 0x2CE3 PUSH2 0x2F2E JUMP JUMPDEST SWAP1 POP DUP1 PUSH20 0xFFFFFFFFFFFFFFFFFFFFFFFFFFFFFFFFFFFFFFFF AND DUP7 PUSH20 0xFFFFFFFFFFFFFFFFFFFFFFFFFFFFFFFFFFFFFFFF AND EQ ISZERO DUP1 ISZERO PUSH2 0x2D28 JUMPI POP PUSH2 0x2D26 DUP7 DUP3 PUSH2 0x2994 JUMP JUMPDEST ISZERO JUMPDEST ISZERO PUSH2 0x2D6C JUMPI DUP1 DUP7 PUSH1 0x40 MLOAD PUSH32 0xE237D92200000000000000000000000000000000000000000000000000000000 DUP2 MSTORE PUSH1 0x4 ADD PUSH2 0x2D63 SWAP3 SWAP2 SWAP1 PUSH2 0x513B JUMP JUMPDEST PUSH1 0x40 MLOAD DUP1 SWAP2 SUB SWAP1 REVERT JUMPDEST PUSH2 0x2D79 DUP7 DUP7 DUP7 DUP7 DUP7 PUSH2 0x351C JUMP JUMPDEST POP POP POP POP POP POP JUMP JUMPDEST PUSH2 0x2D89 PUSH2 0x3223 JUMP JUMPDEST PUSH32 0x877A78DC988C0EC5F58453B44888A55EB39755C3D5ED8D8EA990912AA3EF29C6 PUSH2 0x2DB3 DUP2 PUSH2 0x2F1A JUMP JUMPDEST PUSH0 CALLVALUE GT PUSH2 0x2DF5 JUMPI PUSH1 0x40 MLOAD PUSH32 0x8C379A000000000000000000000000000000000000000000000000000000000 DUP2 MSTORE PUSH1 0x4 ADD PUSH2 0x2DEC SWAP1 PUSH2 0x5924 JUMP JUMPDEST PUSH1 0x40 MLOAD DUP1 SWAP2 SUB SWAP1 REVERT JUMPDEST CALLVALUE PUSH1 0xA PUSH0 CALLER PUSH20 0xFFFFFFFFFFFFFFFFFFFFFFFFFFFFFFFFFFFFFFFF AND PUSH20 0xFFFFFFFFFFFFFFFFFFFFFFFFFFFFFFFFFFFFFFFF AND DUP2 MSTORE PUSH1 0x20 ADD SWAP1 DUP2 MSTORE PUSH1 0x20 ADD PUSH0 KECCAK256 PUSH0 DUP3 DUP3 SLOAD PUSH2 0x2E41 SWAP2 SWAP1 PUSH2 0x52C7 JUMP JUMPDEST SWAP3 POP POP DUP2 SWAP1 SSTORE POP CALLER PUSH20 0xFFFFFFFFFFFFFFFFFFFFFFFFFFFFFFFFFFFFFFFF AND PUSH32 0xCED5D8BF10823804603BBA066E4F53AA6E8F6F4BE68BF0114CF7A0E52183E4E9 CALLVALUE PUSH1 0x40 MLOAD PUSH2 0x2E8E SWAP2 SWAP1 PUSH2 0x40F1 JUMP JUMPDEST PUSH1 0x40 MLOAD DUP1 SWAP2 SUB SWAP1 LOG2 POP PUSH2 0x2E9F PUSH2 0x3272 JUMP JUMPDEST JUMP JUMPDEST PUSH0 PUSH32 0x7965DB0B00000000000000000000000000000000000000000000000000000000 PUSH28 0xFFFFFFFFFFFFFFFFFFFFFFFFFFFFFFFFFFFFFFFFFFFFFFFFFFFFFFFF NOT AND DUP3 PUSH28 0xFFFFFFFFFFFFFFFFFFFFFFFFFFFFFFFFFFFFFFFFFFFFFFFFFFFFFFFF NOT AND EQ DUP1 PUSH2 0x2F13 JUMPI POP PUSH2 0x2F12 DUP3 PUSH2 0x3622 JUMP JUMPDEST JUMPDEST SWAP1 POP SWAP2 SWAP1 POP JUMP JUMPDEST PUSH2 0x2F2B DUP2 PUSH2 0x2F26 PUSH2 0x2F2E JUMP JUMPDEST PUSH2 0x369B JUMP JUMPDEST POP JUMP JUMPDEST PUSH0 CALLER SWAP1 POP SWAP1 JUMP JUMPDEST PUSH0 PUSH20 0xFFFFFFFFFFFFFFFFFFFFFFFFFFFFFFFFFFFFFFFF AND DUP5 PUSH20 0xFFFFFFFFFFFFFFFFFFFFFFFFFFFFFFFFFFFFFFFF AND SUB PUSH2 0x2FA5 JUMPI PUSH0 PUSH1 0x40 MLOAD PUSH32 0x57F447CE00000000000000000000000000000000000000000000000000000000 DUP2 MSTORE PUSH1 0x4 ADD PUSH2 0x2F9C SWAP2 SWAP1 PUSH2 0x4BB9 JUMP JUMPDEST PUSH1 0x40 MLOAD DUP1 SWAP2 SUB SWAP1 REVERT JUMPDEST PUSH0 PUSH20 0xFFFFFFFFFFFFFFFFFFFFFFFFFFFFFFFFFFFFFFFF AND DUP6 PUSH20 0xFFFFFFFFFFFFFFFFFFFFFFFFFFFFFFFFFFFFFFFF AND SUB PUSH2 0x3015 JUMPI PUSH0 PUSH1 0x40 MLOAD PUSH32 0x1A8351400000000000000000000000000000000000000000000000000000000 DUP2 MSTORE PUSH1 0x4 ADD PUSH2 0x300C SWAP2 SWAP1 PUSH2 0x4BB9 JUMP JUMPDEST PUSH1 0x40 MLOAD DUP1 SWAP2 SUB SWAP1 REVERT JUMPDEST PUSH2 0x3022 DUP6 DUP6 DUP6 DUP6 DUP6 PUSH2 0x36EC JUMP JUMPDEST POP POP POP POP POP JUMP JUMPDEST PUSH0 PUSH2 0x3034 DUP4 DUP4 PUSH2 0x1642 JUMP JUMPDEST PUSH2 0x3109 JUMPI PUSH1 0x1 PUSH1 0x3 PUSH0 DUP6 DUP2 MSTORE PUSH1 0x20 ADD SWAP1 DUP2 MSTORE PUSH1 0x20 ADD PUSH0 KECCAK256 PUSH0 ADD PUSH0 DUP5 PUSH20 0xFFFFFFFFFFFFFFFFFFFFFFFFFFFFFFFFFFFFFFFF AND PUSH20 0xFFFFFFFFFFFFFFFFFFFFFFFFFFFFFFFFFFFFFFFF AND DUP2 MSTORE PUSH1 0x20 ADD SWAP1 DUP2 MSTORE PUSH1 0x20 ADD PUSH0 KECCAK256 PUSH0 PUSH2 0x100 EXP DUP2 SLOAD DUP2 PUSH1 0xFF MUL NOT AND SWAP1 DUP4 ISZERO ISZERO MUL OR SWAP1 SSTORE POP PUSH2 0x30A6 PUSH2 0x2F2E JUMP JUMPDEST PUSH20 0xFFFFFFFFFFFFFFFFFFFFFFFFFFFFFFFFFFFFFFFF AND DUP3 PUSH20 0xFFFFFFFFFFFFFFFFFFFFFFFFFFFFFFFFFFFFFFFF AND DUP5 PUSH32 0x2F8788117E7EFF1D82E926EC794901D17C78024A50270940304540A733656F0D PUSH1 0x40 MLOAD PUSH1 0x40 MLOAD DUP1 SWAP2 SUB SWAP1 LOG4 PUSH1 0x1 SWAP1 POP PUSH2 0x310D JUMP JUMPDEST PUSH0 SWAP1 POP JUMPDEST SWAP3 SWAP2 POP POP JUMP JUMPDEST PUSH0 PUSH2 0x311E DUP4 DUP4 PUSH2 0x1642 JUMP JUMPDEST ISZERO PUSH2 0x31F3 JUMPI PUSH0 PUSH1 0x3 PUSH0 DUP6 DUP2 MSTORE PUSH1 0x20 ADD SWAP1 DUP2 MSTORE PUSH1 0x20 ADD PUSH0 KECCAK256 PUSH0 ADD PUSH0 DUP5 PUSH20 0xFFFFFFFFFFFFFFFFFFFFFFFFFFFFFFFFFFFFFFFF AND PUSH20 0xFFFFFFFFFFFFFFFFFFFFFFFFFFFFFFFFFFFFFFFF AND DUP2 MSTORE PUSH1 0x20 ADD SWAP1 DUP2 MSTORE PUSH1 0x20 ADD PUSH0 KECCAK256 PUSH0 PUSH2 0x100 EXP DUP2 SLOAD DUP2 PUSH1 0xFF MUL NOT AND SWAP1 DUP4 ISZERO ISZERO MUL OR SWAP1 SSTORE POP PUSH2 0x3190 PUSH2 0x2F2E JUMP JUMPDEST PUSH20 0xFFFFFFFFFFFFFFFFFFFFFFFFFFFFFFFFFFFFFFFF AND DUP3 PUSH20 0xFFFFFFFFFFFFFFFFFFFFFFFFFFFFFFFFFFFFFFFF AND DUP5 PUSH32 0xF6391F5C32D9C69D2A47EA670B442974B53935D1EDC7FD64EB21E047A839171B PUSH1 0x40 MLOAD PUSH1 0x40 MLOAD DUP1 SWAP2 SUB SWAP1 LOG4 PUSH1 0x1 SWAP1 POP PUSH2 0x31F7 JUMP JUMPDEST PUSH0 SWAP1 POP JUMPDEST SWAP3 SWAP2 POP POP JUMP JUMPDEST PUSH0 PUSH1 0x20 DUP3 MUL PUSH1 0x20 DUP5 ADD ADD MLOAD SWAP1 POP SWAP3 SWAP2 POP POP JUMP JUMPDEST PUSH0 PUSH1 0x20 DUP3 MUL PUSH1 0x20 DUP5 ADD ADD MLOAD SWAP1 POP SWAP3 SWAP2 POP POP JUMP JUMPDEST PUSH1 0x2 PUSH1 0x4 SLOAD SUB PUSH2 0x3268 JUMPI PUSH1 0x40 MLOAD PUSH32 0x8C379A000000000000000000000000000000000000000000000000000000000 DUP2 MSTORE PUSH1 0x4 ADD PUSH2 0x325F SWAP1 PUSH2 0x598C JUMP JUMPDEST PUSH1 0x40 MLOAD DUP1 SWAP2 SUB SWAP1 REVERT JUMPDEST PUSH1 0x2 PUSH1 0x4 DUP2 SWAP1 SSTORE POP JUMP JUMPDEST PUSH1 0x1 PUSH1 0x4 DUP2 SWAP1 SSTORE POP JUMP JUMPDEST PUSH0 PUSH20 0xFFFFFFFFFFFFFFFFFFFFFFFFFFFFFFFFFFFFFFFF AND DUP4 PUSH20 0xFFFFFFFFFFFFFFFFFFFFFFFFFFFFFFFFFFFFFFFF AND SUB PUSH2 0x32EC JUMPI PUSH0 PUSH1 0x40 MLOAD PUSH32 0x1A8351400000000000000000000000000000000000000000000000000000000 DUP2 MSTORE PUSH1 0x4 ADD PUSH2 0x32E3 SWAP2 SWAP1 PUSH2 0x4BB9 JUMP JUMPDEST PUSH1 0x40 MLOAD DUP1 SWAP2 SUB SWAP1 REVERT JUMPDEST PUSH0 DUP1 PUSH2 0x32F8 DUP5 DUP5 PUSH2 0x3798 JUMP JUMPDEST SWAP2 POP SWAP2 POP PUSH2 0x3317 DUP6 PUSH0 DUP5 DUP5 PUSH1 0x40 MLOAD DUP1 PUSH1 0x20 ADD PUSH1 0x40 MSTORE DUP1 PUSH0 DUP2 MSTORE POP PUSH2 0x36EC JUMP JUMPDEST POP POP POP POP POP JUMP JUMPDEST PUSH0 PUSH20 0xFFFFFFFFFFFFFFFFFFFFFFFFFFFFFFFFFFFFFFFF AND DUP3 PUSH20 0xFFFFFFFFFFFFFFFFFFFFFFFFFFFFFFFFFFFFFFFF AND SUB PUSH2 0x338E JUMPI PUSH0 PUSH1 0x40 MLOAD PUSH32 0xCED3E10000000000000000000000000000000000000000000000000000000000 DUP2 MSTORE PUSH1 0x4 ADD PUSH2 0x3385 SWAP2 SWAP1 PUSH2 0x4BB9 JUMP JUMPDEST PUSH1 0x40 MLOAD DUP1 SWAP2 SUB SWAP1 REVERT JUMPDEST DUP1 PUSH1 0x1 PUSH0 DUP6 PUSH20 0xFFFFFFFFFFFFFFFFFFFFFFFFFFFFFFFFFFFFFFFF AND PUSH20 0xFFFFFFFFFFFFFFFFFFFFFFFFFFFFFFFFFFFFFFFF AND DUP2 MSTORE PUSH1 0x20 ADD SWAP1 DUP2 MSTORE PUSH1 0x20 ADD PUSH0 KECCAK256 PUSH0 DUP5 PUSH20 0xFFFFFFFFFFFFFFFFFFFFFFFFFFFFFFFFFFFFFFFF AND PUSH20 0xFFFFFFFFFFFFFFFFFFFFFFFFFFFFFFFFFFFFFFFF AND DUP2 MSTORE PUSH1 0x20 ADD SWAP1 DUP2 MSTORE PUSH1 0x20 ADD PUSH0 KECCAK256 PUSH0 PUSH2 0x100 EXP DUP2 SLOAD DUP2 PUSH1 0xFF MUL NOT AND SWAP1 DUP4 ISZERO ISZERO MUL OR SWAP1 SSTORE POP DUP2 PUSH20 0xFFFFFFFFFFFFFFFFFFFFFFFFFFFFFFFFFFFFFFFF AND DUP4 PUSH20 0xFFFFFFFFFFFFFFFFFFFFFFFFFFFFFFFFFFFFFFFF AND PUSH32 0x17307EAB39AB6107E8899845AD3D59BD9653F200F220920489CA2B5937696C31 DUP4 PUSH1 0x40 MLOAD PUSH2 0x347A SWAP2 SWAP1 PUSH2 0x41A4 JUMP JUMPDEST PUSH1 0x40 MLOAD DUP1 SWAP2 SUB SWAP1 LOG3 POP POP POP JUMP JUMPDEST PUSH0 PUSH20 0xFFFFFFFFFFFFFFFFFFFFFFFFFFFFFFFFFFFFFFFF AND DUP5 PUSH20 0xFFFFFFFFFFFFFFFFFFFFFFFFFFFFFFFFFFFFFFFF AND SUB PUSH2 0x34F7 JUMPI PUSH0 PUSH1 0x40 MLOAD PUSH32 0x57F447CE00000000000000000000000000000000000000000000000000000000 DUP2 MSTORE PUSH1 0x4 ADD PUSH2 0x34EE SWAP2 SWAP1 PUSH2 0x4BB9 JUMP JUMPDEST PUSH1 0x40 MLOAD DUP1 SWAP2 SUB SWAP1 REVERT JUMPDEST PUSH0 DUP1 PUSH2 0x3503 DUP6 DUP6 PUSH2 0x3798 JUMP JUMPDEST SWAP2 POP SWAP2 POP PUSH2 0x3514 PUSH0 DUP8 DUP5 DUP5 DUP8 PUSH2 0x36EC JUMP JUMPDEST POP POP POP POP POP POP JUMP JUMPDEST PUSH0 PUSH20 0xFFFFFFFFFFFFFFFFFFFFFFFFFFFFFFFFFFFFFFFF AND DUP5 PUSH20 0xFFFFFFFFFFFFFFFFFFFFFFFFFFFFFFFFFFFFFFFF AND SUB PUSH2 0x358C JUMPI PUSH0 PUSH1 0x40 MLOAD PUSH32 0x57F447CE00000000000000000000000000000000000000000000000000000000 DUP2 MSTORE PUSH1 0x4 ADD PUSH2 0x3583 SWAP2 SWAP1 PUSH2 0x4BB9 JUMP JUMPDEST PUSH1 0x40 MLOAD DUP1 SWAP2 SUB SWAP1 REVERT JUMPDEST PUSH0 PUSH20 0xFFFFFFFFFFFFFFFFFFFFFFFFFFFFFFFFFFFFFFFF AND DUP6 PUSH20 0xFFFFFFFFFFFFFFFFFFFFFFFFFFFFFFFFFFFFFFFF AND SUB PUSH2 0x35FC JUMPI PUSH0 PUSH1 0x40 MLOAD PUSH32 0x1A8351400000000000000000000000000000000000000000000000000000000 DUP2 MSTORE PUSH1 0x4 ADD PUSH2 0x35F3 SWAP2 SWAP1 PUSH2 0x4BB9 JUMP JUMPDEST PUSH1 0x40 MLOAD DUP1 SWAP2 SUB SWAP1 REVERT JUMPDEST PUSH0 DUP1 PUSH2 0x3608 DUP6 DUP6 PUSH2 0x3798 JUMP JUMPDEST SWAP2 POP SWAP2 POP PUSH2 0x3619 DUP8 DUP8 DUP5 DUP5 DUP8 PUSH2 0x36EC JUMP JUMPDEST POP POP POP POP POP POP POP JUMP JUMPDEST PUSH0 PUSH32 0x4E2312E000000000000000000000000000000000000000000000000000000000 PUSH28 0xFFFFFFFFFFFFFFFFFFFFFFFFFFFFFFFFFFFFFFFFFFFFFFFFFFFFFFFF NOT AND DUP3 PUSH28 0xFFFFFFFFFFFFFFFFFFFFFFFFFFFFFFFFFFFFFFFFFFFFFFFFFFFFFFFF NOT AND EQ DUP1 PUSH2 0x3694 JUMPI POP PUSH2 0x3693 DUP3 PUSH2 0x37C8 JUMP JUMPDEST JUMPDEST SWAP1 POP SWAP2 SWAP1 POP JUMP JUMPDEST PUSH2 0x36A5 DUP3 DUP3 PUSH2 0x1642 JUMP JUMPDEST PUSH2 0x36E8 JUMPI DUP1 DUP3 PUSH1 0x40 MLOAD PUSH32 0xE2517D3F00000000000000000000000000000000000000000000000000000000 DUP2 MSTORE PUSH1 0x4 ADD PUSH2 0x36DF SWAP3 SWAP2 SWAP1 PUSH2 0x59AA JUMP JUMPDEST PUSH1 0x40 MLOAD DUP1 SWAP2 SUB SWAP1 REVERT JUMPDEST POP POP JUMP JUMPDEST PUSH2 0x36F8 DUP6 DUP6 DUP6 DUP6 PUSH2 0x38A9 JUMP JUMPDEST PUSH0 PUSH20 0xFFFFFFFFFFFFFFFFFFFFFFFFFFFFFFFFFFFFFFFF AND DUP5 PUSH20 0xFFFFFFFFFFFFFFFFFFFFFFFFFFFFFFFFFFFFFFFF AND EQ PUSH2 0x3791 JUMPI PUSH0 PUSH2 0x3734 PUSH2 0x2F2E JUMP JUMPDEST SWAP1 POP PUSH1 0x1 DUP5 MLOAD SUB PUSH2 0x3780 JUMPI PUSH0 PUSH2 0x3753 PUSH0 DUP7 PUSH2 0x3210 SWAP1 SWAP2 SWAP1 PUSH4 0xFFFFFFFF AND JUMP JUMPDEST SWAP1 POP PUSH0 PUSH2 0x3769 PUSH0 DUP7 PUSH2 0x3210 SWAP1 SWAP2 SWAP1 PUSH4 0xFFFFFFFF AND JUMP JUMPDEST SWAP1 POP PUSH2 0x3779 DUP4 DUP10 DUP10 DUP6 DUP6 DUP10 PUSH2 0x3C3F JUMP JUMPDEST POP POP PUSH2 0x378F JUMP JUMPDEST PUSH2 0x378E DUP2 DUP8 DUP8 DUP8 DUP8 DUP8 PUSH2 0x3DEE JUMP JUMPDEST JUMPDEST POP JUMPDEST POP POP POP POP POP JUMP JUMPDEST PUSH1 0x60 DUP1 PUSH1 0x40 MLOAD SWAP2 POP PUSH1 0x1 DUP3 MSTORE DUP4 PUSH1 0x20 DUP4 ADD MSTORE PUSH1 0x40 DUP3 ADD SWAP1 POP PUSH1 0x1 DUP2 MSTORE DUP3 PUSH1 0x20 DUP3 ADD MSTORE PUSH1 0x40 DUP2 ADD PUSH1 0x40 MSTORE SWAP3 POP SWAP3 SWAP1 POP JUMP JUMPDEST PUSH0 PUSH32 0xD9B67A2600000000000000000000000000000000000000000000000000000000 PUSH28 0xFFFFFFFFFFFFFFFFFFFFFFFFFFFFFFFFFFFFFFFFFFFFFFFFFFFFFFFF NOT AND DUP3 PUSH28 0xFFFFFFFFFFFFFFFFFFFFFFFFFFFFFFFFFFFFFFFFFFFFFFFFFFFFFFFF NOT AND EQ DUP1 PUSH2 0x3892 JUMPI POP PUSH32 0xE89341C00000000000000000000000000000000000000000000000000000000 PUSH28 0xFFFFFFFFFFFFFFFFFFFFFFFFFFFFFFFFFFFFFFFFFFFFFFFFFFFFFFFF NOT AND DUP3 PUSH28 0xFFFFFFFFFFFFFFFFFFFFFFFFFFFFFFFFFFFFFFFFFFFFFFFFFFFFFFFF NOT AND EQ JUMPDEST DUP1 PUSH2 0x38A2 JUMPI POP PUSH2 0x38A1 DUP3 PUSH2 0x3F9D JUMP JUMPDEST JUMPDEST SWAP1 POP SWAP2 SWAP1 POP JUMP JUMPDEST DUP1 MLOAD DUP3 MLOAD EQ PUSH2 0x38F3 JUMPI DUP2 MLOAD DUP2 MLOAD PUSH1 0x40 MLOAD PUSH32 0x5B05999100000000000000000000000000000000000000000000000000000000 DUP2 MSTORE PUSH1 0x4 ADD PUSH2 0x38EA SWAP3 SWAP2 SWAP1 PUSH2 0x5114 JUMP JUMPDEST PUSH1 0x40 MLOAD DUP1 SWAP2 SUB SWAP1 REVERT JUMPDEST PUSH0 PUSH2 0x38FC PUSH2 0x2F2E JUMP JUMPDEST SWAP1 POP PUSH0 JUMPDEST DUP4 MLOAD DUP2 LT ISZERO PUSH2 0x3AFE JUMPI PUSH0 PUSH2 0x391D DUP3 DUP7 PUSH2 0x3210 SWAP1 SWAP2 SWAP1 PUSH4 0xFFFFFFFF AND JUMP JUMPDEST SWAP1 POP PUSH0 PUSH2 0x3933 DUP4 DUP7 PUSH2 0x3210 SWAP1 SWAP2 SWAP1 PUSH4 0xFFFFFFFF AND JUMP JUMPDEST SWAP1 POP PUSH0 PUSH20 0xFFFFFFFFFFFFFFFFFFFFFFFFFFFFFFFFFFFFFFFF AND DUP9 PUSH20 0xFFFFFFFFFFFFFFFFFFFFFFFFFFFFFFFFFFFFFFFF AND EQ PUSH2 0x3A56 JUMPI PUSH0 DUP1 PUSH0 DUP5 DUP2 MSTORE PUSH1 0x20 ADD SWAP1 DUP2 MSTORE PUSH1 0x20 ADD PUSH0 KECCAK256 PUSH0 DUP11 PUSH20 0xFFFFFFFFFFFFFFFFFFFFFFFFFFFFFFFFFFFFFFFF AND PUSH20 0xFFFFFFFFFFFFFFFFFFFFFFFFFFFFFFFFFFFFFFFF AND DUP2 MSTORE PUSH1 0x20 ADD SWAP1 DUP2 MSTORE PUSH1 0x20 ADD PUSH0 KECCAK256 SLOAD SWAP1 POP DUP2 DUP2 LT ISZERO PUSH2 0x3A02 JUMPI DUP9 DUP2 DUP4 DUP6 PUSH1 0x40 MLOAD PUSH32 0x3DEE4C500000000000000000000000000000000000000000000000000000000 DUP2 MSTORE PUSH1 0x4 ADD PUSH2 0x39F9 SWAP5 SWAP4 SWAP3 SWAP2 SWAP1 PUSH2 0x59D1 JUMP JUMPDEST PUSH1 0x40 MLOAD DUP1 SWAP2 SUB SWAP1 REVERT JUMPDEST DUP2 DUP2 SUB PUSH0 DUP1 DUP6 DUP2 MSTORE PUSH1 0x20 ADD SWAP1 DUP2 MSTORE PUSH1 0x20 ADD PUSH0 KECCAK256 PUSH0 DUP12 PUSH20 0xFFFFFFFFFFFFFFFFFFFFFFFFFFFFFFFFFFFFFFFF AND PUSH20 0xFFFFFFFFFFFFFFFFFFFFFFFFFFFFFFFFFFFFFFFF AND DUP2 MSTORE PUSH1 0x20 ADD SWAP1 DUP2 MSTORE PUSH1 0x20 ADD PUSH0 KECCAK256 DUP2 SWAP1 SSTORE POP POP JUMPDEST PUSH0 PUSH20 0xFFFFFFFFFFFFFFFFFFFFFFFFFFFFFFFFFFFFFFFF AND DUP8 PUSH20 0xFFFFFFFFFFFFFFFFFFFFFFFFFFFFFFFFFFFFFFFF AND EQ PUSH2 0x3AEB JUMPI DUP1 PUSH0 DUP1 DUP5 DUP2 MSTORE PUSH1 0x20 ADD SWAP1 DUP2 MSTORE PUSH1 0x20 ADD PUSH0 KECCAK256 PUSH0 DUP10 PUSH20 0xFFFFFFFFFFFFFFFFFFFFFFFFFFFFFFFFFFFFFFFF AND PUSH20 0xFFFFFFFFFFFFFFFFFFFFFFFFFFFFFFFFFFFFFFFF AND DUP2 MSTORE PUSH1 0x20 ADD SWAP1 DUP2 MSTORE PUSH1 0x20 ADD PUSH0 KECCAK256 PUSH0 DUP3 DUP3 SLOAD PUSH2 0x3AE3 SWAP2 SWAP1 PUSH2 0x52C7 JUMP JUMPDEST SWAP3 POP POP DUP2 SWAP1 SSTORE POP JUMPDEST POP POP DUP1 PUSH2 0x3AF7 SWAP1 PUSH2 0x4E61 JUMP JUMPDEST SWAP1 POP PUSH2 0x3900 JUMP JUMPDEST POP PUSH1 0x1 DUP4 MLOAD SUB PUSH2 0x3BB9 JUMPI PUSH0 PUSH2 0x3B1C PUSH0 DUP6 PUSH2 0x3210 SWAP1 SWAP2 SWAP1 PUSH4 0xFFFFFFFF AND JUMP JUMPDEST SWAP1 POP PUSH0 PUSH2 0x3B32 PUSH0 DUP6 PUSH2 0x3210 SWAP1 SWAP2 SWAP1 PUSH4 0xFFFFFFFF AND JUMP JUMPDEST SWAP1 POP DUP6 PUSH20 0xFFFFFFFFFFFFFFFFFFFFFFFFFFFFFFFFFFFFFFFF AND DUP8 PUSH20 0xFFFFFFFFFFFFFFFFFFFFFFFFFFFFFFFFFFFFFFFF AND DUP5 PUSH20 0xFFFFFFFFFFFFFFFFFFFFFFFFFFFFFFFFFFFFFFFF AND PUSH32 0xC3D58168C5AE7397731D063D5BBF3D657854427343F4C083240F7AACAA2D0F62 DUP6 DUP6 PUSH1 0x40 MLOAD PUSH2 0x3BAA SWAP3 SWAP2 SWAP1 PUSH2 0x5114 JUMP JUMPDEST PUSH1 0x40 MLOAD DUP1 SWAP2 SUB SWAP1 LOG4 POP POP PUSH2 0x3C38 JUMP JUMPDEST DUP4 PUSH20 0xFFFFFFFFFFFFFFFFFFFFFFFFFFFFFFFFFFFFFFFF AND DUP6 PUSH20 0xFFFFFFFFFFFFFFFFFFFFFFFFFFFFFFFFFFFFFFFF AND DUP3 PUSH20 0xFFFFFFFFFFFFFFFFFFFFFFFFFFFFFFFFFFFFFFFF AND PUSH32 0x4A39DC06D4C0DBC64B70AF90FD698A233A518AA5D07E595D983B8C0526C8F7FB DUP7 DUP7 PUSH1 0x40 MLOAD PUSH2 0x3C2F SWAP3 SWAP2 SWAP1 PUSH2 0x5A14 JUMP JUMPDEST PUSH1 0x40 MLOAD DUP1 SWAP2 SUB SWAP1 LOG4 JUMPDEST POP POP POP POP POP JUMP JUMPDEST PUSH0 DUP5 PUSH20 0xFFFFFFFFFFFFFFFFFFFFFFFFFFFFFFFFFFFFFFFF AND EXTCODESIZE GT ISZERO PUSH2 0x3DE6 JUMPI DUP4 PUSH20 0xFFFFFFFFFFFFFFFFFFFFFFFFFFFFFFFFFFFFFFFF AND PUSH4 0xF23A6E61 DUP8 DUP8 DUP7 DUP7 DUP7 PUSH1 0x40 MLOAD DUP7 PUSH4 0xFFFFFFFF AND PUSH1 0xE0 SHL DUP2 MSTORE PUSH1 0x4 ADD PUSH2 0x3C9F SWAP6 SWAP5 SWAP4 SWAP3 SWAP2 SWAP1 PUSH2 0x5A9B JUMP JUMPDEST PUSH1 0x20 PUSH1 0x40 MLOAD DUP1 DUP4 SUB DUP2 PUSH0 DUP8 GAS CALL SWAP3 POP POP POP DUP1 ISZERO PUSH2 0x3CDA JUMPI POP PUSH1 0x40 MLOAD RETURNDATASIZE PUSH1 0x1F NOT PUSH1 0x1F DUP3 ADD AND DUP3 ADD DUP1 PUSH1 0x40 MSTORE POP DUP2 ADD SWAP1 PUSH2 0x3CD7 SWAP2 SWAP1 PUSH2 0x5B07 JUMP JUMPDEST PUSH1 0x1 JUMPDEST PUSH2 0x3D5B JUMPI RETURNDATASIZE DUP1 PUSH0 DUP2 EQ PUSH2 0x3D08 JUMPI PUSH1 0x40 MLOAD SWAP2 POP PUSH1 0x1F NOT PUSH1 0x3F RETURNDATASIZE ADD AND DUP3 ADD PUSH1 0x40 MSTORE RETURNDATASIZE DUP3 MSTORE RETURNDATASIZE PUSH0 PUSH1 0x20 DUP5 ADD RETURNDATACOPY PUSH2 0x3D0D JUMP JUMPDEST PUSH1 0x60 SWAP2 POP JUMPDEST POP PUSH0 DUP2 MLOAD SUB PUSH2 0x3D53 JUMPI DUP5 PUSH1 0x40 MLOAD PUSH32 0x57F447CE00000000000000000000000000000000000000000000000000000000 DUP2 MSTORE PUSH1 0x4 ADD PUSH2 0x3D4A SWAP2 SWAP1 PUSH2 0x4BB9 JUMP JUMPDEST PUSH1 0x40 MLOAD DUP1 SWAP2 SUB SWAP1 REVERT JUMPDEST DUP1 MLOAD DUP2 PUSH1 0x20 ADD REVERT JUMPDEST PUSH4 0xF23A6E61 PUSH1 0xE0 SHL PUSH28 0xFFFFFFFFFFFFFFFFFFFFFFFFFFFFFFFFFFFFFFFFFFFFFFFFFFFFFFFF NOT AND DUP2 PUSH28 0xFFFFFFFFFFFFFFFFFFFFFFFFFFFFFFFFFFFFFFFFFFFFFFFFFFFFFFFF NOT AND EQ PUSH2 0x3DE4 JUMPI DUP5 PUSH1 0x40 MLOAD PUSH32 0x57F447CE00000000000000000000000000000000000000000000000000000000 DUP2 MSTORE PUSH1 0x4 ADD PUSH2 0x3DDB SWAP2 SWAP1 PUSH2 0x4BB9 JUMP JUMPDEST PUSH1 0x40 MLOAD DUP1 SWAP2 SUB SWAP1 REVERT JUMPDEST POP JUMPDEST POP POP POP POP POP POP JUMP JUMPDEST PUSH0 DUP5 PUSH20 0xFFFFFFFFFFFFFFFFFFFFFFFFFFFFFFFFFFFFFFFF AND EXTCODESIZE GT ISZERO PUSH2 0x3F95 JUMPI DUP4 PUSH20 0xFFFFFFFFFFFFFFFFFFFFFFFFFFFFFFFFFFFFFFFF AND PUSH4 0xBC197C81 DUP8 DUP8 DUP7 DUP7 DUP7 PUSH1 0x40 MLOAD DUP7 PUSH4 0xFFFFFFFF AND PUSH1 0xE0 SHL DUP2 MSTORE PUSH1 0x4 ADD PUSH2 0x3E4E SWAP6 SWAP5 SWAP4 SWAP3 SWAP2 SWAP1 PUSH2 0x5B32 JUMP JUMPDEST PUSH1 0x20 PUSH1 0x40 MLOAD DUP1 DUP4 SUB DUP2 PUSH0 DUP8 GAS CALL SWAP3 POP POP POP DUP1 ISZERO PUSH2 0x3E89 JUMPI POP PUSH1 0x40 MLOAD RETURNDATASIZE PUSH1 0x1F NOT PUSH1 0x1F DUP3 ADD AND DUP3 ADD DUP1 PUSH1 0x40 MSTORE POP DUP2 ADD SWAP1 PUSH2 0x3E86 SWAP2 SWAP1 PUSH2 0x5B07 JUMP JUMPDEST PUSH1 0x1 JUMPDEST PUSH2 0x3F0A JUMPI RETURNDATASIZE DUP1 PUSH0 DUP2 EQ PUSH2 0x3EB7 JUMPI PUSH1 0x40 MLOAD SWAP2 POP PUSH1 0x1F NOT PUSH1 0x3F RETURNDATASIZE ADD AND DUP3 ADD PUSH1 0x40 MSTORE RETURNDATASIZE DUP3 MSTORE RETURNDATASIZE PUSH0 PUSH1 0x20 DUP5 ADD RETURNDATACOPY PUSH2 0x3EBC JUMP JUMPDEST PUSH1 0x60 SWAP2 POP JUMPDEST POP PUSH0 DUP2 MLOAD SUB PUSH2 0x3F02 JUMPI DUP5 PUSH1 0x40 MLOAD PUSH32 0x57F447CE00000000000000000000000000000000000000000000000000000000 DUP2 MSTORE PUSH1 0x4 ADD PUSH2 0x3EF9 SWAP2 SWAP1 PUSH2 0x4BB9 JUMP JUMPDEST PUSH1 0x40 MLOAD DUP1 SWAP2 SUB SWAP1 REVERT JUMPDEST DUP1 MLOAD DUP2 PUSH1 0x20 ADD REVERT JUMPDEST PUSH4 0xBC197C81 PUSH1 0xE0 SHL PUSH28 0xFFFFFFFFFFFFFFFFFFFFFFFFFFFFFFFFFFFFFFFFFFFFFFFFFFFFFFFF NOT AND DUP2 PUSH28 0xFFFFFFFFFFFFFFFFFFFFFFFFFFFFFFFFFFFFFFFFFFFFFFFFFFFFFFFF NOT AND EQ PUSH2 0x3F93 JUMPI DUP5 PUSH1 0x40 MLOAD PUSH32 0x57F447CE00000000000000000000000000000000000000000000000000000000 DUP2 MSTORE PUSH1 0x4 ADD PUSH2 0x3F8A SWAP2 SWAP1 PUSH2 0x4BB9 JUMP JUMPDEST PUSH1 0x40 MLOAD DUP1 SWAP2 SUB SWAP1 REVERT JUMPDEST POP JUMPDEST POP POP POP POP POP POP JUMP JUMPDEST PUSH0 PUSH32 0x1FFC9A700000000000000000000000000000000000000000000000000000000 PUSH28 0xFFFFFFFFFFFFFFFFFFFFFFFFFFFFFFFFFFFFFFFFFFFFFFFFFFFFFFFF NOT AND DUP3 PUSH28 0xFFFFFFFFFFFFFFFFFFFFFFFFFFFFFFFFFFFFFFFFFFFFFFFFFFFFFFFF NOT AND EQ SWAP1 POP SWAP2 SWAP1 POP JUMP JUMPDEST PUSH0 PUSH1 0x40 MLOAD SWAP1 POP SWAP1 JUMP JUMPDEST PUSH0 DUP1 REVERT JUMPDEST PUSH0 DUP1 REVERT JUMPDEST PUSH0 PUSH20 0xFFFFFFFFFFFFFFFFFFFFFFFFFFFFFFFFFFFFFFFF DUP3 AND SWAP1 POP SWAP2 SWAP1 POP JUMP JUMPDEST PUSH0 PUSH2 0x4040 DUP3 PUSH2 0x4017 JUMP JUMPDEST SWAP1 POP SWAP2 SWAP1 POP JUMP JUMPDEST PUSH2 0x4050 DUP2 PUSH2 0x4036 JUMP JUMPDEST DUP2 EQ PUSH2 0x405A JUMPI PUSH0 DUP1 REVERT JUMPDEST POP JUMP JUMPDEST PUSH0 DUP2 CALLDATALOAD SWAP1 POP PUSH2 0x406B DUP2 PUSH2 0x4047 JUMP JUMPDEST SWAP3 SWAP2 POP POP JUMP JUMPDEST PUSH0 DUP2 SWAP1 POP SWAP2 SWAP1 POP JUMP JUMPDEST PUSH2 0x4083 DUP2 PUSH2 0x4071 JUMP JUMPDEST DUP2 EQ PUSH2 0x408D JUMPI PUSH0 DUP1 REVERT JUMPDEST POP JUMP JUMPDEST PUSH0 DUP2 CALLDATALOAD SWAP1 POP PUSH2 0x409E DUP2 PUSH2 0x407A JUMP JUMPDEST SWAP3 SWAP2 POP POP JUMP JUMPDEST PUSH0 DUP1 PUSH1 0x40 DUP4 DUP6 SUB SLT ISZERO PUSH2 0x40BA JUMPI PUSH2 0x40B9 PUSH2 0x400F JUMP JUMPDEST JUMPDEST PUSH0 PUSH2 0x40C7 DUP6 DUP3 DUP7 ADD PUSH2 0x405D JUMP JUMPDEST SWAP3 POP POP PUSH1 0x20 PUSH2 0x40D8 DUP6 DUP3 DUP7 ADD PUSH2 0x4090 JUMP JUMPDEST SWAP2 POP POP SWAP3 POP SWAP3 SWAP1 POP JUMP JUMPDEST PUSH2 0x40EB DUP2 PUSH2 0x4071 JUMP JUMPDEST DUP3 MSTORE POP POP JUMP JUMPDEST PUSH0 PUSH1 0x20 DUP3 ADD SWAP1 POP PUSH2 0x4104 PUSH0 DUP4 ADD DUP5 PUSH2 0x40E2 JUMP JUMPDEST SWAP3 SWAP2 POP POP JUMP JUMPDEST PUSH0 PUSH32 0xFFFFFFFF00000000000000000000000000000000000000000000000000000000 DUP3 AND SWAP1 POP SWAP2 SWAP1 POP JUMP JUMPDEST PUSH2 0x413E DUP2 PUSH2 0x410A JUMP JUMPDEST DUP2 EQ PUSH2 0x4148 JUMPI PUSH0 DUP1 REVERT JUMPDEST POP JUMP JUMPDEST PUSH0 DUP2 CALLDATALOAD SWAP1 POP PUSH2 0x4159 DUP2 PUSH2 0x4135 JUMP JUMPDEST SWAP3 SWAP2 POP POP JUMP JUMPDEST PUSH0 PUSH1 0x20 DUP3 DUP5 SUB SLT ISZERO PUSH2 0x4174 JUMPI PUSH2 0x4173 PUSH2 0x400F JUMP JUMPDEST JUMPDEST PUSH0 PUSH2 0x4181 DUP5 DUP3 DUP6 ADD PUSH2 0x414B JUMP JUMPDEST SWAP2 POP POP SWAP3 SWAP2 POP POP JUMP JUMPDEST PUSH0 DUP2 ISZERO ISZERO SWAP1 POP SWAP2 SWAP1 POP JUMP JUMPDEST PUSH2 0x419E DUP2 PUSH2 0x418A JUMP JUMPDEST DUP3 MSTORE POP POP JUMP JUMPDEST PUSH0 PUSH1 0x20 DUP3 ADD SWAP1 POP PUSH2 0x41B7 PUSH0 DUP4 ADD DUP5 PUSH2 0x4195 JUMP JUMPDEST SWAP3 SWAP2 POP POP JUMP JUMPDEST PUSH0 PUSH1 0x20 DUP3 DUP5 SUB SLT ISZERO PUSH2 0x41D2 JUMPI PUSH2 0x41D1 PUSH2 0x400F JUMP JUMPDEST JUMPDEST PUSH0 PUSH2 0x41DF DUP5 DUP3 DUP6 ADD PUSH2 0x4090 JUMP JUMPDEST SWAP2 POP POP SWAP3 SWAP2 POP POP JUMP JUMPDEST PUSH0 DUP2 MLOAD SWAP1 POP SWAP2 SWAP1 POP JUMP JUMPDEST PUSH0 DUP3 DUP3 MSTORE PUSH1 0x20 DUP3 ADD SWAP1 POP SWAP3 SWAP2 POP POP JUMP JUMPDEST PUSH0 JUMPDEST DUP4 DUP2 LT ISZERO PUSH2 0x421F JUMPI DUP1 DUP3 ADD MLOAD DUP2 DUP5 ADD MSTORE PUSH1 0x20 DUP2 ADD SWAP1 POP PUSH2 0x4204 JUMP JUMPDEST PUSH0 DUP5 DUP5 ADD MSTORE POP POP POP POP JUMP JUMPDEST PUSH0 PUSH1 0x1F NOT PUSH1 0x1F DUP4 ADD AND SWAP1 POP SWAP2 SWAP1 POP JUMP JUMPDEST PUSH0 PUSH2 0x4244 DUP3 PUSH2 0x41E8 JUMP JUMPDEST PUSH2 0x424E DUP2 DUP6 PUSH2 0x41F2 JUMP JUMPDEST SWAP4 POP PUSH2 0x425E DUP2 DUP6 PUSH1 0x20 DUP7 ADD PUSH2 0x4202 JUMP JUMPDEST PUSH2 0x4267 DUP2 PUSH2 0x422A JUMP JUMPDEST DUP5 ADD SWAP2 POP POP SWAP3 SWAP2 POP POP JUMP JUMPDEST PUSH0 PUSH1 0x20 DUP3 ADD SWAP1 POP DUP2 DUP2 SUB PUSH0 DUP4 ADD MSTORE PUSH2 0x428A DUP2 DUP5 PUSH2 0x423A JUMP JUMPDEST SWAP1 POP SWAP3 SWAP2 POP POP JUMP JUMPDEST PUSH0 DUP1 REVERT JUMPDEST PUSH0 DUP1 REVERT JUMPDEST PUSH32 0x4E487B7100000000000000000000000000000000000000000000000000000000 PUSH0 MSTORE PUSH1 0x41 PUSH1 0x4 MSTORE PUSH1 0x24 PUSH0 REVERT JUMPDEST PUSH2 0x42D0 DUP3 PUSH2 0x422A JUMP JUMPDEST DUP2 ADD DUP2 DUP2 LT PUSH8 0xFFFFFFFFFFFFFFFF DUP3 GT OR ISZERO PUSH2 0x42EF JUMPI PUSH2 0x42EE PUSH2 0x429A JUMP JUMPDEST JUMPDEST DUP1 PUSH1 0x40 MSTORE POP POP POP JUMP JUMPDEST PUSH0 PUSH2 0x4301 PUSH2 0x4006 JUMP JUMPDEST SWAP1 POP PUSH2 0x430D DUP3 DUP3 PUSH2 0x42C7 JUMP JUMPDEST SWAP2 SWAP1 POP JUMP JUMPDEST PUSH0 PUSH8 0xFFFFFFFFFFFFFFFF DUP3 GT ISZERO PUSH2 0x432C JUMPI PUSH2 0x432B PUSH2 0x429A JUMP JUMPDEST JUMPDEST PUSH2 0x4335 DUP3 PUSH2 0x422A JUMP JUMPDEST SWAP1 POP PUSH1 0x20 DUP2 ADD SWAP1 POP SWAP2 SWAP1 POP JUMP JUMPDEST DUP3 DUP2 DUP4 CALLDATACOPY PUSH0 DUP4 DUP4 ADD MSTORE POP POP POP JUMP JUMPDEST PUSH0 PUSH2 0x4362 PUSH2 0x435D DUP5 PUSH2 0x4312 JUMP JUMPDEST PUSH2 0x42F8 JUMP JUMPDEST SWAP1 POP DUP3 DUP2 MSTORE PUSH1 0x20 DUP2 ADD DUP5 DUP5 DUP5 ADD GT ISZERO PUSH2 0x437E JUMPI PUSH2 0x437D PUSH2 0x4296 JUMP JUMPDEST JUMPDEST PUSH2 0x4389 DUP5 DUP3 DUP6 PUSH2 0x4342 JUMP JUMPDEST POP SWAP4 SWAP3 POP POP POP JUMP JUMPDEST PUSH0 DUP3 PUSH1 0x1F DUP4 ADD SLT PUSH2 0x43A5 JUMPI PUSH2 0x43A4 PUSH2 0x4292 JUMP JUMPDEST JUMPDEST DUP2 CALLDATALOAD PUSH2 0x43B5 DUP5 DUP3 PUSH1 0x20 DUP7 ADD PUSH2 0x4350 JUMP JUMPDEST SWAP2 POP POP SWAP3 SWAP2 POP POP JUMP JUMPDEST PUSH0 DUP1 PUSH0 DUP1 PUSH1 0x80 DUP6 DUP8 SUB SLT ISZERO PUSH2 0x43D6 JUMPI PUSH2 0x43D5 PUSH2 0x400F JUMP JUMPDEST JUMPDEST PUSH0 DUP6 ADD CALLDATALOAD PUSH8 0xFFFFFFFFFFFFFFFF DUP2 GT ISZERO PUSH2 0x43F3 JUMPI PUSH2 0x43F2 PUSH2 0x4013 JUMP JUMPDEST JUMPDEST PUSH2 0x43FF DUP8 DUP3 DUP9 ADD PUSH2 0x4391 JUMP JUMPDEST SWAP5 POP POP PUSH1 0x20 DUP6 ADD CALLDATALOAD PUSH8 0xFFFFFFFFFFFFFFFF DUP2 GT ISZERO PUSH2 0x4420 JUMPI PUSH2 0x441F PUSH2 0x4013 JUMP JUMPDEST JUMPDEST PUSH2 0x442C DUP8 DUP3 DUP9 ADD PUSH2 0x4391 JUMP JUMPDEST SWAP4 POP POP PUSH1 0x40 PUSH2 0x443D DUP8 DUP3 DUP9 ADD PUSH2 0x4090 JUMP JUMPDEST SWAP3 POP POP PUSH1 0x60 PUSH2 0x444E DUP8 DUP3 DUP9 ADD PUSH2 0x4090 JUMP JUMPDEST SWAP2 POP POP SWAP3 SWAP6 SWAP2 SWAP5 POP SWAP3 POP JUMP JUMPDEST PUSH0 DUP2 SWAP1 POP SWAP2 SWAP1 POP JUMP JUMPDEST PUSH2 0x446C DUP2 PUSH2 0x445A JUMP JUMPDEST DUP2 EQ PUSH2 0x4476 JUMPI PUSH0 DUP1 REVERT JUMPDEST POP JUMP JUMPDEST PUSH0 DUP2 CALLDATALOAD SWAP1 POP PUSH2 0x4487 DUP2 PUSH2 0x4463 JUMP JUMPDEST SWAP3 SWAP2 POP POP JUMP JUMPDEST PUSH0 PUSH1 0x20 DUP3 DUP5 SUB SLT ISZERO PUSH2 0x44A2 JUMPI PUSH2 0x44A1 PUSH2 0x400F JUMP JUMPDEST JUMPDEST PUSH0 PUSH2 0x44AF DUP5 DUP3 DUP6 ADD PUSH2 0x4479 JUMP JUMPDEST SWAP2 POP POP SWAP3 SWAP2 POP POP JUMP JUMPDEST PUSH2 0x44C1 DUP2 PUSH2 0x445A JUMP JUMPDEST DUP3 MSTORE POP POP JUMP JUMPDEST PUSH0 PUSH1 0x20 DUP3 ADD SWAP1 POP PUSH2 0x44DA PUSH0 DUP4 ADD DUP5 PUSH2 0x44B8 JUMP JUMPDEST SWAP3 SWAP2 POP POP JUMP JUMPDEST PUSH0 PUSH8 0xFFFFFFFFFFFFFFFF DUP3 GT ISZERO PUSH2 0x44FA JUMPI PUSH2 0x44F9 PUSH2 0x429A JUMP JUMPDEST JUMPDEST PUSH1 0x20 DUP3 MUL SWAP1 POP PUSH1 0x20 DUP2 ADD SWAP1 POP SWAP2 SWAP1 POP JUMP JUMPDEST PUSH0 DUP1 REVERT JUMPDEST PUSH0 PUSH2 0x4521 PUSH2 0x451C DUP5 PUSH2 0x44E0 JUMP JUMPDEST PUSH2 0x42F8 JUMP JUMPDEST SWAP1 POP DUP1 DUP4 DUP3 MSTORE PUSH1 0x20 DUP3 ADD SWAP1 POP PUSH1 0x20 DUP5 MUL DUP4 ADD DUP6 DUP2 GT ISZERO PUSH2 0x4544 JUMPI PUSH2 0x4543 PUSH2 0x450B JUMP JUMPDEST JUMPDEST DUP4 JUMPDEST DUP2 DUP2 LT ISZERO PUSH2 0x456D JUMPI DUP1 PUSH2 0x4559 DUP9 DUP3 PUSH2 0x4090 JUMP JUMPDEST DUP5 MSTORE PUSH1 0x20 DUP5 ADD SWAP4 POP POP PUSH1 0x20 DUP2 ADD SWAP1 POP PUSH2 0x4546 JUMP JUMPDEST POP POP POP SWAP4 SWAP3 POP POP POP JUMP JUMPDEST PUSH0 DUP3 PUSH1 0x1F DUP4 ADD SLT PUSH2 0x458B JUMPI PUSH2 0x458A PUSH2 0x4292 JUMP JUMPDEST JUMPDEST DUP2 CALLDATALOAD PUSH2 0x459B DUP5 DUP3 PUSH1 0x20 DUP7 ADD PUSH2 0x450F JUMP JUMPDEST SWAP2 POP POP SWAP3 SWAP2 POP POP JUMP JUMPDEST PUSH0 PUSH8 0xFFFFFFFFFFFFFFFF DUP3 GT ISZERO PUSH2 0x45BE JUMPI PUSH2 0x45BD PUSH2 0x429A JUMP JUMPDEST JUMPDEST PUSH2 0x45C7 DUP3 PUSH2 0x422A JUMP JUMPDEST SWAP1 POP PUSH1 0x20 DUP2 ADD SWAP1 POP SWAP2 SWAP1 POP JUMP JUMPDEST PUSH0 PUSH2 0x45E6 PUSH2 0x45E1 DUP5 PUSH2 0x45A4 JUMP JUMPDEST PUSH2 0x42F8 JUMP JUMPDEST SWAP1 POP DUP3 DUP2 MSTORE PUSH1 0x20 DUP2 ADD DUP5 DUP5 DUP5 ADD GT ISZERO PUSH2 0x4602 JUMPI PUSH2 0x4601 PUSH2 0x4296 JUMP JUMPDEST JUMPDEST PUSH2 0x460D DUP5 DUP3 DUP6 PUSH2 0x4342 JUMP JUMPDEST POP SWAP4 SWAP3 POP POP POP JUMP JUMPDEST PUSH0 DUP3 PUSH1 0x1F DUP4 ADD SLT PUSH2 0x4629 JUMPI PUSH2 0x4628 PUSH2 0x4292 JUMP JUMPDEST JUMPDEST DUP2 CALLDATALOAD PUSH2 0x4639 DUP5 DUP3 PUSH1 0x20 DUP7 ADD PUSH2 0x45D4 JUMP JUMPDEST SWAP2 POP POP SWAP3 SWAP2 POP POP JUMP JUMPDEST PUSH0 DUP1 PUSH0 DUP1 PUSH0 PUSH1 0xA0 DUP7 DUP9 SUB SLT ISZERO PUSH2 0x465B JUMPI PUSH2 0x465A PUSH2 0x400F JUMP JUMPDEST JUMPDEST PUSH0 PUSH2 0x4668 DUP9 DUP3 DUP10 ADD PUSH2 0x405D JUMP JUMPDEST SWAP6 POP POP PUSH1 0x20 PUSH2 0x4679 DUP9 DUP3 DUP10 ADD PUSH2 0x405D JUMP JUMPDEST SWAP5 POP POP PUSH1 0x40 DUP7 ADD CALLDATALOAD PUSH8 0xFFFFFFFFFFFFFFFF DUP2 GT ISZERO PUSH2 0x469A JUMPI PUSH2 0x4699 PUSH2 0x4013 JUMP JUMPDEST JUMPDEST PUSH2 0x46A6 DUP9 DUP3 DUP10 ADD PUSH2 0x4577 JUMP JUMPDEST SWAP4 POP POP PUSH1 0x60 DUP7 ADD CALLDATALOAD PUSH8 0xFFFFFFFFFFFFFFFF DUP2 GT ISZERO PUSH2 0x46C7 JUMPI PUSH2 0x46C6 PUSH2 0x4013 JUMP JUMPDEST JUMPDEST PUSH2 0x46D3 DUP9 DUP3 DUP10 ADD PUSH2 0x4577 JUMP JUMPDEST SWAP3 POP POP PUSH1 0x80 DUP7 ADD CALLDATALOAD PUSH8 0xFFFFFFFFFFFFFFFF DUP2 GT ISZERO PUSH2 0x46F4 JUMPI PUSH2 0x46F3 PUSH2 0x4013 JUMP JUMPDEST JUMPDEST PUSH2 0x4700 DUP9 DUP3 DUP10 ADD PUSH2 0x4615 JUMP JUMPDEST SWAP2 POP POP SWAP3 SWAP6 POP SWAP3 SWAP6 SWAP1 SWAP4 POP JUMP JUMPDEST PUSH0 DUP1 PUSH1 0x40 DUP4 DUP6 SUB SLT ISZERO PUSH2 0x4723 JUMPI PUSH2 0x4722 PUSH2 0x400F JUMP JUMPDEST JUMPDEST PUSH0 PUSH2 0x4730 DUP6 DUP3 DUP7 ADD PUSH2 0x4479 JUMP JUMPDEST SWAP3 POP POP PUSH1 0x20 PUSH2 0x4741 DUP6 DUP3 DUP7 ADD PUSH2 0x405D JUMP JUMPDEST SWAP2 POP POP SWAP3 POP SWAP3 SWAP1 POP JUMP JUMPDEST PUSH2 0x4754 DUP2 PUSH2 0x4036 JUMP JUMPDEST DUP3 MSTORE POP POP JUMP JUMPDEST PUSH0 PUSH1 0xE0 DUP3 ADD SWAP1 POP PUSH2 0x476D PUSH0 DUP4 ADD DUP11 PUSH2 0x40E2 JUMP JUMPDEST DUP2 DUP2 SUB PUSH1 0x20 DUP4 ADD MSTORE PUSH2 0x477F DUP2 DUP10 PUSH2 0x423A JUMP JUMPDEST SWAP1 POP DUP2 DUP2 SUB PUSH1 0x40 DUP4 ADD MSTORE PUSH2 0x4793 DUP2 DUP9 PUSH2 0x423A JUMP JUMPDEST SWAP1 POP PUSH2 0x47A2 PUSH1 0x60 DUP4 ADD DUP8 PUSH2 0x40E2 JUMP JUMPDEST PUSH2 0x47AF PUSH1 0x80 DUP4 ADD DUP7 PUSH2 0x40E2 JUMP JUMPDEST PUSH2 0x47BC PUSH1 0xA0 DUP4 ADD DUP6 PUSH2 0x40E2 JUMP JUMPDEST PUSH2 0x47C9 PUSH1 0xC0 DUP4 ADD DUP5 PUSH2 0x474B JUMP JUMPDEST SWAP9 SWAP8 POP POP POP POP POP POP POP POP JUMP JUMPDEST PUSH0 DUP1 PUSH1 0x40 DUP4 DUP6 SUB SLT ISZERO PUSH2 0x47EB JUMPI PUSH2 0x47EA PUSH2 0x400F JUMP JUMPDEST JUMPDEST PUSH0 PUSH2 0x47F8 DUP6 DUP3 DUP7 ADD PUSH2 0x4090 JUMP JUMPDEST SWAP3 POP POP PUSH1 0x20 PUSH2 0x4809 DUP6 DUP3 DUP7 ADD PUSH2 0x4090 JUMP JUMPDEST SWAP2 POP POP SWAP3 POP SWAP3 SWAP1 POP JUMP JUMPDEST PUSH32 0x4E487B7100000000000000000000000000000000000000000000000000000000 PUSH0 MSTORE PUSH1 0x21 PUSH1 0x4 MSTORE PUSH1 0x24 PUSH0 REVERT JUMPDEST PUSH1 0x4 DUP2 LT PUSH2 0x4851 JUMPI PUSH2 0x4850 PUSH2 0x4813 JUMP JUMPDEST JUMPDEST POP JUMP JUMPDEST PUSH0 DUP2 SWAP1 POP PUSH2 0x4861 DUP3 PUSH2 0x4840 JUMP JUMPDEST SWAP2 SWAP1 POP JUMP JUMPDEST PUSH0 PUSH2 0x4870 DUP3 PUSH2 0x4854 JUMP JUMPDEST SWAP1 POP SWAP2 SWAP1 POP JUMP JUMPDEST PUSH2 0x4880 DUP2 PUSH2 0x4866 JUMP JUMPDEST DUP3 MSTORE POP POP JUMP JUMPDEST PUSH0 PUSH1 0x80 DUP3 ADD SWAP1 POP PUSH2 0x4899 PUSH0 DUP4 ADD DUP8 PUSH2 0x474B JUMP JUMPDEST PUSH2 0x48A6 PUSH1 0x20 DUP4 ADD DUP7 PUSH2 0x4877 JUMP JUMPDEST PUSH2 0x48B3 PUSH1 0x40 DUP4 ADD DUP6 PUSH2 0x40E2 JUMP JUMPDEST PUSH2 0x48C0 PUSH1 0x60 DUP4 ADD DUP5 PUSH2 0x40E2 JUMP JUMPDEST SWAP6 SWAP5 POP POP POP POP POP JUMP JUMPDEST PUSH0 PUSH8 0xFFFFFFFFFFFFFFFF DUP3 GT ISZERO PUSH2 0x48E3 JUMPI PUSH2 0x48E2 PUSH2 0x429A JUMP JUMPDEST JUMPDEST PUSH1 0x20 DUP3 MUL SWAP1 POP PUSH1 0x20 DUP2 ADD SWAP1 POP SWAP2 SWAP1 POP JUMP JUMPDEST PUSH0 PUSH2 0x4906 PUSH2 0x4901 DUP5 PUSH2 0x48C9 JUMP JUMPDEST PUSH2 0x42F8 JUMP JUMPDEST SWAP1 POP DUP1 DUP4 DUP3 MSTORE PUSH1 0x20 DUP3 ADD SWAP1 POP PUSH1 0x20 DUP5 MUL DUP4 ADD DUP6 DUP2 GT ISZERO PUSH2 0x4929 JUMPI PUSH2 0x4928 PUSH2 0x450B JUMP JUMPDEST JUMPDEST DUP4 JUMPDEST DUP2 DUP2 LT ISZERO PUSH2 0x4952 JUMPI DUP1 PUSH2 0x493E DUP9 DUP3 PUSH2 0x405D JUMP JUMPDEST DUP5 MSTORE PUSH1 0x20 DUP5 ADD SWAP4 POP POP PUSH1 0x20 DUP2 ADD SWAP1 POP PUSH2 0x492B JUMP JUMPDEST POP POP POP SWAP4 SWAP3 POP POP POP JUMP JUMPDEST PUSH0 DUP3 PUSH1 0x1F DUP4 ADD SLT PUSH2 0x4970 JUMPI PUSH2 0x496F PUSH2 0x4292 JUMP JUMPDEST JUMPDEST DUP2 CALLDATALOAD PUSH2 0x4980 DUP5 DUP3 PUSH1 0x20 DUP7 ADD PUSH2 0x48F4 JUMP JUMPDEST SWAP2 POP POP SWAP3 SWAP2 POP POP JUMP JUMPDEST PUSH0 DUP1 PUSH1 0x40 DUP4 DUP6 SUB SLT ISZERO PUSH2 0x499F JUMPI PUSH2 0x499E PUSH2 0x400F JUMP JUMPDEST JUMPDEST PUSH0 DUP4 ADD CALLDATALOAD PUSH8 0xFFFFFFFFFFFFFFFF DUP2 GT ISZERO PUSH2 0x49BC JUMPI PUSH2 0x49BB PUSH2 0x4013 JUMP JUMPDEST JUMPDEST PUSH2 0x49C8 DUP6 DUP3 DUP7 ADD PUSH2 0x495C JUMP JUMPDEST SWAP3 POP POP PUSH1 0x20 DUP4 ADD CALLDATALOAD PUSH8 0xFFFFFFFFFFFFFFFF DUP2 GT ISZERO PUSH2 0x49E9 JUMPI PUSH2 0x49E8 PUSH2 0x4013 JUMP JUMPDEST JUMPDEST PUSH2 0x49F5 DUP6 DUP3 DUP7 ADD PUSH2 0x4577 JUMP JUMPDEST SWAP2 POP POP SWAP3 POP SWAP3 SWAP1 POP JUMP JUMPDEST PUSH0 DUP2 MLOAD SWAP1 POP SWAP2 SWAP1 POP JUMP JUMPDEST PUSH0 DUP3 DUP3 MSTORE PUSH1 0x20 DUP3 ADD SWAP1 POP SWAP3 SWAP2 POP POP JUMP JUMPDEST PUSH0 DUP2 SWAP1 POP PUSH1 0x20 DUP3 ADD SWAP1 POP SWAP2 SWAP1 POP JUMP JUMPDEST PUSH2 0x4A31 DUP2 PUSH2 0x4071 JUMP JUMPDEST DUP3 MSTORE POP POP JUMP JUMPDEST PUSH0 PUSH2 0x4A42 DUP4 DUP4 PUSH2 0x4A28 JUMP JUMPDEST PUSH1 0x20 DUP4 ADD SWAP1 POP SWAP3 SWAP2 POP POP JUMP JUMPDEST PUSH0 PUSH1 0x20 DUP3 ADD SWAP1 POP SWAP2 SWAP1 POP JUMP JUMPDEST PUSH0 PUSH2 0x4A64 DUP3 PUSH2 0x49FF JUMP JUMPDEST PUSH2 0x4A6E DUP2 DUP6 PUSH2 0x4A09 JUMP JUMPDEST SWAP4 POP PUSH2 0x4A79 DUP4 PUSH2 0x4A19 JUMP JUMPDEST DUP1 PUSH0 JUMPDEST DUP4 DUP2 LT ISZERO PUSH2 0x4AA9 JUMPI DUP2 MLOAD PUSH2 0x4A90 DUP9 DUP3 PUSH2 0x4A37 JUMP JUMPDEST SWAP8 POP PUSH2 0x4A9B DUP4 PUSH2 0x4A4E JUMP JUMPDEST SWAP3 POP POP PUSH1 0x1 DUP2 ADD SWAP1 POP PUSH2 0x4A7C JUMP JUMPDEST POP DUP6 SWAP4 POP POP POP POP SWAP3 SWAP2 POP POP JUMP JUMPDEST PUSH0 PUSH1 0x20 DUP3 ADD SWAP1 POP DUP2 DUP2 SUB PUSH0 DUP4 ADD MSTORE PUSH2 0x4ACE DUP2 DUP5 PUSH2 0x4A5A JUMP JUMPDEST SWAP1 POP SWAP3 SWAP2 POP POP JUMP JUMPDEST PUSH0 PUSH1 0x20 DUP3 DUP5 SUB SLT ISZERO PUSH2 0x4AEB JUMPI PUSH2 0x4AEA PUSH2 0x400F JUMP JUMPDEST JUMPDEST PUSH0 PUSH2 0x4AF8 DUP5 DUP3 DUP6 ADD PUSH2 0x405D JUMP JUMPDEST SWAP2 POP POP SWAP3 SWAP2 POP POP JUMP JUMPDEST PUSH2 0x4B0A DUP2 PUSH2 0x418A JUMP JUMPDEST DUP2 EQ PUSH2 0x4B14 JUMPI PUSH0 DUP1 REVERT JUMPDEST POP JUMP JUMPDEST PUSH0 DUP2 CALLDATALOAD SWAP1 POP PUSH2 0x4B25 DUP2 PUSH2 0x4B01 JUMP JUMPDEST SWAP3 SWAP2 POP POP JUMP JUMPDEST PUSH0 DUP1 PUSH0 PUSH1 0x60 DUP5 DUP7 SUB SLT ISZERO PUSH2 0x4B42 JUMPI PUSH2 0x4B41 PUSH2 0x400F JUMP JUMPDEST JUMPDEST PUSH0 PUSH2 0x4B4F DUP7 DUP3 DUP8 ADD PUSH2 0x4090 JUMP JUMPDEST SWAP4 POP POP PUSH1 0x20 PUSH2 0x4B60 DUP7 DUP3 DUP8 ADD PUSH2 0x4090 JUMP JUMPDEST SWAP3 POP POP PUSH1 0x40 PUSH2 0x4B71 DUP7 DUP3 DUP8 ADD PUSH2 0x4B17 JUMP JUMPDEST SWAP2 POP POP SWAP3 POP SWAP3 POP SWAP3 JUMP JUMPDEST PUSH0 DUP1 PUSH1 0x40 DUP4 DUP6 SUB SLT ISZERO PUSH2 0x4B91 JUMPI PUSH2 0x4B90 PUSH2 0x400F JUMP JUMPDEST JUMPDEST PUSH0 PUSH2 0x4B9E DUP6 DUP3 DUP7 ADD PUSH2 0x405D JUMP JUMPDEST SWAP3 POP POP PUSH1 0x20 PUSH2 0x4BAF DUP6 DUP3 DUP7 ADD PUSH2 0x4B17 JUMP JUMPDEST SWAP2 POP POP SWAP3 POP SWAP3 SWAP1 POP JUMP JUMPDEST PUSH0 PUSH1 0x20 DUP3 ADD SWAP1 POP PUSH2 0x4BCC PUSH0 DUP4 ADD DUP5 PUSH2 0x474B JUMP JUMPDEST SWAP3 SWAP2 POP POP JUMP JUMPDEST PUSH2 0x4BDB DUP2 PUSH2 0x410A JUMP JUMPDEST DUP3 MSTORE POP POP JUMP JUMPDEST PUSH0 PUSH1 0x20 DUP3 ADD SWAP1 POP PUSH2 0x4BF4 PUSH0 DUP4 ADD DUP5 PUSH2 0x4BD2 JUMP JUMPDEST SWAP3 SWAP2 POP POP JUMP JUMPDEST PUSH0 DUP1 PUSH1 0x40 DUP4 DUP6 SUB SLT ISZERO PUSH2 0x4C10 JUMPI PUSH2 0x4C0F PUSH2 0x400F JUMP JUMPDEST JUMPDEST PUSH0 PUSH2 0x4C1D DUP6 DUP3 DUP7 ADD PUSH2 0x405D JUMP JUMPDEST SWAP3 POP POP PUSH1 0x20 PUSH2 0x4C2E DUP6 DUP3 DUP7 ADD PUSH2 0x405D JUMP JUMPDEST SWAP2 POP POP SWAP3 POP SWAP3 SWAP1 POP JUMP JUMPDEST PUSH0 PUSH1 0x20 DUP3 DUP5 SUB SLT ISZERO PUSH2 0x4C4D JUMPI PUSH2 0x4C4C PUSH2 0x400F JUMP JUMPDEST JUMPDEST PUSH0 DUP3 ADD CALLDATALOAD PUSH8 0xFFFFFFFFFFFFFFFF DUP2 GT ISZERO PUSH2 0x4C6A JUMPI PUSH2 0x4C69 PUSH2 0x4013 JUMP JUMPDEST JUMPDEST PUSH2 0x4C76 DUP5 DUP3 DUP6 ADD PUSH2 0x4391 JUMP JUMPDEST SWAP2 POP POP SWAP3 SWAP2 POP POP JUMP JUMPDEST PUSH0 DUP1 PUSH0 DUP1 PUSH0 PUSH1 0xA0 DUP7 DUP9 SUB SLT ISZERO PUSH2 0x4C98 JUMPI PUSH2 0x4C97 PUSH2 0x400F JUMP JUMPDEST JUMPDEST PUSH0 PUSH2 0x4CA5 DUP9 DUP3 DUP10 ADD PUSH2 0x405D JUMP JUMPDEST SWAP6 POP POP PUSH1 0x20 PUSH2 0x4CB6 DUP9 DUP3 DUP10 ADD PUSH2 0x405D JUMP JUMPDEST SWAP5 POP POP PUSH1 0x40 PUSH2 0x4CC7 DUP9 DUP3 DUP10 ADD PUSH2 0x4090 JUMP JUMPDEST SWAP4 POP POP PUSH1 0x60 PUSH2 0x4CD8 DUP9 DUP3 DUP10 ADD PUSH2 0x4090 JUMP JUMPDEST SWAP3 POP POP PUSH1 0x80 DUP7 ADD CALLDATALOAD PUSH8 0xFFFFFFFFFFFFFFFF DUP2 GT ISZERO PUSH2 0x4CF9 JUMPI PUSH2 0x4CF8 PUSH2 0x4013 JUMP JUMPDEST JUMPDEST PUSH2 0x4D05 DUP9 DUP3 DUP10 ADD PUSH2 0x4615 JUMP JUMPDEST SWAP2 POP POP SWAP3 SWAP6 POP SWAP3 SWAP6 SWAP1 SWAP4 POP JUMP JUMPDEST PUSH32 0x4E487B7100000000000000000000000000000000000000000000000000000000 PUSH0 MSTORE PUSH1 0x22 PUSH1 0x4 MSTORE PUSH1 0x24 PUSH0 REVERT JUMPDEST PUSH0 PUSH1 0x2 DUP3 DIV SWAP1 POP PUSH1 0x1 DUP3 AND DUP1 PUSH2 0x4D56 JUMPI PUSH1 0x7F DUP3 AND SWAP2 POP JUMPDEST PUSH1 0x20 DUP3 LT DUP2 SUB PUSH2 0x4D69 JUMPI PUSH2 0x4D68 PUSH2 0x4D12 JUMP JUMPDEST JUMPDEST POP SWAP2 SWAP1 POP JUMP JUMPDEST PUSH32 0x4E487B7100000000000000000000000000000000000000000000000000000000 PUSH0 MSTORE PUSH1 0x12 PUSH1 0x4 MSTORE PUSH1 0x24 PUSH0 REVERT JUMPDEST PUSH0 PUSH2 0x4DA6 DUP3 PUSH2 0x4071 JUMP JUMPDEST SWAP2 POP PUSH2 0x4DB1 DUP4 PUSH2 0x4071 JUMP JUMPDEST SWAP3 POP DUP3 PUSH2 0x4DC1 JUMPI PUSH2 0x4DC0 PUSH2 0x4D6F JUMP JUMPDEST JUMPDEST DUP3 DUP3 MOD SWAP1 POP SWAP3 SWAP2 POP POP JUMP JUMPDEST PUSH32 0x5072696365206D75737420626520646976697369626C65206279203130000000 PUSH0 DUP3 ADD MSTORE POP JUMP JUMPDEST PUSH0 PUSH2 0x4E00 PUSH1 0x1D DUP4 PUSH2 0x41F2 JUMP JUMPDEST SWAP2 POP PUSH2 0x4E0B DUP3 PUSH2 0x4DCC JUMP JUMPDEST PUSH1 0x20 DUP3 ADD SWAP1 POP SWAP2 SWAP1 POP JUMP JUMPDEST PUSH0 PUSH1 0x20 DUP3 ADD SWAP1 POP DUP2 DUP2 SUB PUSH0 DUP4 ADD MSTORE PUSH2 0x4E2D DUP2 PUSH2 0x4DF4 JUMP JUMPDEST SWAP1 POP SWAP2 SWAP1 POP JUMP JUMPDEST PUSH32 0x4E487B7100000000000000000000000000000000000000000000000000000000 PUSH0 MSTORE PUSH1 0x11 PUSH1 0x4 MSTORE PUSH1 0x24 PUSH0 REVERT JUMPDEST PUSH0 PUSH2 0x4E6B DUP3 PUSH2 0x4071 JUMP JUMPDEST SWAP2 POP PUSH32 0xFFFFFFFFFFFFFFFFFFFFFFFFFFFFFFFFFFFFFFFFFFFFFFFFFFFFFFFFFFFFFFFF DUP3 SUB PUSH2 0x4E9D JUMPI PUSH2 0x4E9C PUSH2 0x4E34 JUMP JUMPDEST JUMPDEST PUSH1 0x1 DUP3 ADD SWAP1 POP SWAP2 SWAP1 POP JUMP JUMPDEST PUSH0 DUP2 SWAP1 POP DUP2 PUSH0 MSTORE PUSH1 0x20 PUSH0 KECCAK256 SWAP1 POP SWAP2 SWAP1 POP JUMP JUMPDEST PUSH0 PUSH1 0x20 PUSH1 0x1F DUP4 ADD DIV SWAP1 POP SWAP2 SWAP1 POP JUMP JUMPDEST PUSH0 DUP3 DUP3 SHL SWAP1 POP SWAP3 SWAP2 POP POP JUMP JUMPDEST PUSH0 PUSH1 0x8 DUP4 MUL PUSH2 0x4F04 PUSH32 0xFFFFFFFFFFFFFFFFFFFFFFFFFFFFFFFFFFFFFFFFFFFFFFFFFFFFFFFFFFFFFFFF DUP3 PUSH2 0x4EC9 JUMP JUMPDEST PUSH2 0x4F0E DUP7 DUP4 PUSH2 0x4EC9 JUMP JUMPDEST SWAP6 POP DUP1 NOT DUP5 AND SWAP4 POP DUP1 DUP7 AND DUP5 OR SWAP3 POP POP POP SWAP4 SWAP3 POP POP POP JUMP JUMPDEST PUSH0 DUP2 SWAP1 POP SWAP2 SWAP1 POP JUMP JUMPDEST PUSH0 PUSH2 0x4F49 PUSH2 0x4F44 PUSH2 0x4F3F DUP5 PUSH2 0x4071 JUMP JUMPDEST PUSH2 0x4F26 JUMP JUMPDEST PUSH2 0x4071 JUMP JUMPDEST SWAP1 POP SWAP2 SWAP1 POP JUMP JUMPDEST PUSH0 DUP2 SWAP1 POP SWAP2 SWAP1 POP JUMP JUMPDEST PUSH2 0x4F62 DUP4 PUSH2 0x4F2F JUMP JUMPDEST PUSH2 0x4F76 PUSH2 0x4F6E DUP3 PUSH2 0x4F50 JUMP JUMPDEST DUP5 DUP5 SLOAD PUSH2 0x4ED5 JUMP JUMPDEST DUP3 SSTORE POP POP POP POP JUMP JUMPDEST PUSH0 SWAP1 JUMP JUMPDEST PUSH2 0x4F8A PUSH2 0x4F7E JUMP JUMPDEST PUSH2 0x4F95 DUP2 DUP5 DUP5 PUSH2 0x4F59 JUMP JUMPDEST POP POP POP JUMP JUMPDEST JUMPDEST DUP2 DUP2 LT ISZERO PUSH2 0x4FB8 JUMPI PUSH2 0x4FAD PUSH0 DUP3 PUSH2 0x4F82 JUMP JUMPDEST PUSH1 0x1 DUP2 ADD SWAP1 POP PUSH2 0x4F9B JUMP JUMPDEST POP POP JUMP JUMPDEST PUSH1 0x1F DUP3 GT ISZERO PUSH2 0x4FFD JUMPI PUSH2 0x4FCE DUP2 PUSH2 0x4EA8 JUMP JUMPDEST PUSH2 0x4FD7 DUP5 PUSH2 0x4EBA JUMP JUMPDEST DUP2 ADD PUSH1 0x20 DUP6 LT ISZERO PUSH2 0x4FE6 JUMPI DUP2 SWAP1 POP JUMPDEST PUSH2 0x4FFA PUSH2 0x4FF2 DUP6 PUSH2 0x4EBA JUMP JUMPDEST DUP4 ADD DUP3 PUSH2 0x4F9A JUMP JUMPDEST POP POP JUMPDEST POP POP POP JUMP JUMPDEST PUSH0 DUP3 DUP3 SHR SWAP1 POP SWAP3 SWAP2 POP POP JUMP JUMPDEST PUSH0 PUSH2 0x501D PUSH0 NOT DUP5 PUSH1 0x8 MUL PUSH2 0x5002 JUMP JUMPDEST NOT DUP1 DUP4 AND SWAP2 POP POP SWAP3 SWAP2 POP POP JUMP JUMPDEST PUSH0 PUSH2 0x5035 DUP4 DUP4 PUSH2 0x500E JUMP JUMPDEST SWAP2 POP DUP3 PUSH1 0x2 MUL DUP3 OR SWAP1 POP SWAP3 SWAP2 POP POP JUMP JUMPDEST PUSH2 0x504E DUP3 PUSH2 0x41E8 JUMP JUMPDEST PUSH8 0xFFFFFFFFFFFFFFFF DUP2 GT ISZERO PUSH2 0x5067 JUMPI PUSH2 0x5066 PUSH2 0x429A JUMP JUMPDEST JUMPDEST PUSH2 0x5071 DUP3 SLOAD PUSH2 0x4D3F JUMP JUMPDEST PUSH2 0x507C DUP3 DUP3 DUP6 PUSH2 0x4FBC JUMP JUMPDEST PUSH0 PUSH1 0x20 SWAP1 POP PUSH1 0x1F DUP4 GT PUSH1 0x1 DUP2 EQ PUSH2 0x50AD JUMPI PUSH0 DUP5 ISZERO PUSH2 0x509B JUMPI DUP3 DUP8 ADD MLOAD SWAP1 POP JUMPDEST PUSH2 0x50A5 DUP6 DUP3 PUSH2 0x502A JUMP JUMPDEST DUP7 SSTORE POP PUSH2 0x510C JUMP JUMPDEST PUSH1 0x1F NOT DUP5 AND PUSH2 0x50BB DUP7 PUSH2 0x4EA8 JUMP JUMPDEST PUSH0 JUMPDEST DUP3 DUP2 LT ISZERO PUSH2 0x50E2 JUMPI DUP5 DUP10 ADD MLOAD DUP3 SSTORE PUSH1 0x1 DUP3 ADD SWAP2 POP PUSH1 0x20 DUP6 ADD SWAP5 POP PUSH1 0x20 DUP2 ADD SWAP1 POP PUSH2 0x50BD JUMP JUMPDEST DUP7 DUP4 LT ISZERO PUSH2 0x50FF JUMPI DUP5 DUP10 ADD MLOAD PUSH2 0x50FB PUSH1 0x1F DUP10 AND DUP3 PUSH2 0x500E JUMP JUMPDEST DUP4 SSTORE POP JUMPDEST PUSH1 0x1 PUSH1 0x2 DUP9 MUL ADD DUP9 SSTORE POP POP POP JUMPDEST POP POP POP POP POP POP JUMP JUMPDEST PUSH0 PUSH1 0x40 DUP3 ADD SWAP1 POP PUSH2 0x5127 PUSH0 DUP4 ADD DUP6 PUSH2 0x40E2 JUMP JUMPDEST PUSH2 0x5134 PUSH1 0x20 DUP4 ADD DUP5 PUSH2 0x40E2 JUMP JUMPDEST SWAP4 SWAP3 POP POP POP JUMP JUMPDEST PUSH0 PUSH1 0x40 DUP3 ADD SWAP1 POP PUSH2 0x514E PUSH0 DUP4 ADD DUP6 PUSH2 0x474B JUMP JUMPDEST PUSH2 0x515B PUSH1 0x20 DUP4 ADD DUP5 PUSH2 0x474B JUMP JUMPDEST SWAP4 SWAP3 POP POP POP JUMP JUMPDEST PUSH32 0x4E487B7100000000000000000000000000000000000000000000000000000000 PUSH0 MSTORE PUSH1 0x32 PUSH1 0x4 MSTORE PUSH1 0x24 PUSH0 REVERT JUMPDEST PUSH32 0x4F6E6C79206172746973742063616E20666F72636520636F6E6669726D000000 PUSH0 DUP3 ADD MSTORE POP JUMP JUMPDEST PUSH0 PUSH2 0x51C3 PUSH1 0x1D DUP4 PUSH2 0x41F2 JUMP JUMPDEST SWAP2 POP PUSH2 0x51CE DUP3 PUSH2 0x518F JUMP JUMPDEST PUSH1 0x20 DUP3 ADD SWAP1 POP SWAP2 SWAP1 POP JUMP JUMPDEST PUSH0 PUSH1 0x20 DUP3 ADD SWAP1 POP DUP2 DUP2 SUB PUSH0 DUP4 ADD MSTORE PUSH2 0x51F0 DUP2 PUSH2 0x51B7 JUMP JUMPDEST SWAP1 POP SWAP2 SWAP1 POP JUMP JUMPDEST PUSH32 0x496E76616C696420707572636861736520696E64657800000000000000000000 PUSH0 DUP3 ADD MSTORE POP JUMP JUMPDEST PUSH0 PUSH2 0x522B PUSH1 0x16 DUP4 PUSH2 0x41F2 JUMP JUMPDEST SWAP2 POP PUSH2 0x5236 DUP3 PUSH2 0x51F7 JUMP JUMPDEST PUSH1 0x20 DUP3 ADD SWAP1 POP SWAP2 SWAP1 POP JUMP JUMPDEST PUSH0 PUSH1 0x20 DUP3 ADD SWAP1 POP DUP2 DUP2 SUB PUSH0 DUP4 ADD MSTORE PUSH2 0x5258 DUP2 PUSH2 0x521F JUMP JUMPDEST SWAP1 POP SWAP2 SWAP1 POP JUMP JUMPDEST PUSH32 0x5075726368617365206E6F742061637469766500000000000000000000000000 PUSH0 DUP3 ADD MSTORE POP JUMP JUMPDEST PUSH0 PUSH2 0x5293 PUSH1 0x13 DUP4 PUSH2 0x41F2 JUMP JUMPDEST SWAP2 POP PUSH2 0x529E DUP3 PUSH2 0x525F JUMP JUMPDEST PUSH1 0x20 DUP3 ADD SWAP1 POP SWAP2 SWAP1 POP JUMP JUMPDEST PUSH0 PUSH1 0x20 DUP3 ADD SWAP1 POP DUP2 DUP2 SUB PUSH0 DUP4 ADD MSTORE PUSH2 0x52C0 DUP2 PUSH2 0x5287 JUMP JUMPDEST SWAP1 POP SWAP2 SWAP1 POP JUMP JUMPDEST PUSH0 PUSH2 0x52D1 DUP3 PUSH2 0x4071 JUMP JUMPDEST SWAP2 POP PUSH2 0x52DC DUP4 PUSH2 0x4071 JUMP JUMPDEST SWAP3 POP DUP3 DUP3 ADD SWAP1 POP DUP1 DUP3 GT ISZERO PUSH2 0x52F4 JUMPI PUSH2 0x52F3 PUSH2 0x4E34 JUMP JUMPDEST JUMPDEST SWAP3 SWAP2 POP POP JUMP JUMPDEST PUSH32 0x54696D656F7574206E6F74207265616368656400000000000000000000000000 PUSH0 DUP3 ADD MSTORE POP JUMP JUMPDEST PUSH0 PUSH2 0x532E PUSH1 0x13 DUP4 PUSH2 0x41F2 JUMP JUMPDEST SWAP2 POP PUSH2 0x5339 DUP3 PUSH2 0x52FA JUMP JUMPDEST PUSH1 0x20 DUP3 ADD SWAP1 POP SWAP2 SWAP1 POP JUMP JUMPDEST PUSH0 PUSH1 0x20 DUP3 ADD SWAP1 POP DUP2 DUP2 SUB PUSH0 DUP4 ADD MSTORE PUSH2 0x535B DUP2 PUSH2 0x5322 JUMP JUMPDEST SWAP1 POP SWAP2 SWAP1 POP JUMP JUMPDEST PUSH0 PUSH2 0x536C DUP3 PUSH2 0x4071 JUMP JUMPDEST SWAP2 POP PUSH2 0x5377 DUP4 PUSH2 0x4071 JUMP JUMPDEST SWAP3 POP DUP3 DUP3 MUL PUSH2 0x5385 DUP2 PUSH2 0x4071 JUMP JUMPDEST SWAP2 POP DUP3 DUP3 DIV DUP5 EQ DUP4 ISZERO OR PUSH2 0x539C JUMPI PUSH2 0x539B PUSH2 0x4E34 JUMP JUMPDEST JUMPDEST POP SWAP3 SWAP2 POP POP JUMP JUMPDEST PUSH0 PUSH2 0x53AD DUP3 PUSH2 0x4071 JUMP JUMPDEST SWAP2 POP PUSH2 0x53B8 DUP4 PUSH2 0x4071 JUMP JUMPDEST SWAP3 POP DUP3 PUSH2 0x53C8 JUMPI PUSH2 0x53C7 PUSH2 0x4D6F JUMP JUMPDEST JUMPDEST DUP3 DUP3 DIV SWAP1 POP SWAP3 SWAP2 POP POP JUMP JUMPDEST PUSH0 PUSH2 0x53DD DUP3 PUSH2 0x4071 JUMP JUMPDEST SWAP2 POP PUSH2 0x53E8 DUP4 PUSH2 0x4071 JUMP JUMPDEST SWAP3 POP DUP3 DUP3 SUB SWAP1 POP DUP2 DUP2 GT ISZERO PUSH2 0x5400 JUMPI PUSH2 0x53FF PUSH2 0x4E34 JUMP JUMPDEST JUMPDEST SWAP3 SWAP2 POP POP JUMP JUMPDEST PUSH0 DUP2 SWAP1 POP SWAP3 SWAP2 POP POP JUMP JUMPDEST POP JUMP JUMPDEST PUSH0 PUSH2 0x541E PUSH0 DUP4 PUSH2 0x5406 JUMP JUMPDEST SWAP2 POP PUSH2 0x5429 DUP3 PUSH2 0x5410 JUMP JUMPDEST PUSH0 DUP3 ADD SWAP1 POP SWAP2 SWAP1 POP JUMP JUMPDEST PUSH0 PUSH2 0x543D DUP3 PUSH2 0x5413 JUMP JUMPDEST SWAP2 POP DUP2 SWAP1 POP SWAP2 SWAP1 POP JUMP JUMPDEST PUSH32 0x526566756E64206661696C656400000000000000000000000000000000000000 PUSH0 DUP3 ADD MSTORE POP JUMP JUMPDEST PUSH0 PUSH2 0x547B PUSH1 0xD DUP4 PUSH2 0x41F2 JUMP JUMPDEST SWAP2 POP PUSH2 0x5486 DUP3 PUSH2 0x5447 JUMP JUMPDEST PUSH1 0x20 DUP3 ADD SWAP1 POP SWAP2 SWAP1 POP JUMP JUMPDEST PUSH0 PUSH1 0x20 DUP3 ADD SWAP1 POP DUP2 DUP2 SUB PUSH0 DUP4 ADD MSTORE PUSH2 0x54A8 DUP2 PUSH2 0x546F JUMP JUMPDEST SWAP1 POP SWAP2 SWAP1 POP JUMP JUMPDEST PUSH0 DUP2 SWAP1 POP SWAP2 SWAP1 POP JUMP JUMPDEST PUSH0 PUSH2 0x54D2 PUSH2 0x54CD PUSH2 0x54C8 DUP5 PUSH2 0x54AF JUMP JUMPDEST PUSH2 0x4F26 JUMP JUMPDEST PUSH2 0x4071 JUMP JUMPDEST SWAP1 POP SWAP2 SWAP1 POP JUMP JUMPDEST PUSH2 0x54E2 DUP2 PUSH2 0x54B8 JUMP JUMPDEST DUP3 MSTORE POP POP JUMP JUMPDEST PUSH0 PUSH1 0xA0 DUP3 ADD SWAP1 POP PUSH2 0x54FB PUSH0 DUP4 ADD DUP9 PUSH2 0x474B JUMP JUMPDEST PUSH2 0x5508 PUSH1 0x20 DUP4 ADD DUP8 PUSH2 0x40E2 JUMP JUMPDEST PUSH2 0x5515 PUSH1 0x40 DUP4 ADD DUP7 PUSH2 0x40E2 JUMP JUMPDEST PUSH2 0x5522 PUSH1 0x60 DUP4 ADD DUP6 PUSH2 0x54D9 JUMP JUMPDEST PUSH2 0x552F PUSH1 0x80 DUP4 ADD DUP5 PUSH2 0x40E2 JUMP JUMPDEST SWAP7 SWAP6 POP POP POP POP POP POP JUMP JUMPDEST PUSH32 0x5075726368617365206E6F7420696E2064697370757465000000000000000000 PUSH0 DUP3 ADD MSTORE POP JUMP JUMPDEST PUSH0 PUSH2 0x556D PUSH1 0x17 DUP4 PUSH2 0x41F2 JUMP JUMPDEST SWAP2 POP PUSH2 0x5578 DUP3 PUSH2 0x5539 JUMP JUMPDEST PUSH1 0x20 DUP3 ADD SWAP1 POP SWAP2 SWAP1 POP JUMP JUMPDEST PUSH0 PUSH1 0x20 DUP3 ADD SWAP1 POP DUP2 DUP2 SUB PUSH0 DUP4 ADD MSTORE PUSH2 0x559A DUP2 PUSH2 0x5561 JUMP JUMPDEST SWAP1 POP SWAP2 SWAP1 POP JUMP JUMPDEST PUSH0 PUSH1 0xA0 DUP3 ADD SWAP1 POP PUSH2 0x55B4 PUSH0 DUP4 ADD DUP9 PUSH2 0x474B JUMP JUMPDEST PUSH2 0x55C1 PUSH1 0x20 DUP4 ADD DUP8 PUSH2 0x54D9 JUMP JUMPDEST PUSH2 0x55CE PUSH1 0x40 DUP4 ADD DUP7 PUSH2 0x40E2 JUMP JUMPDEST PUSH2 0x55DB PUSH1 0x60 DUP4 ADD DUP6 PUSH2 0x40E2 JUMP JUMPDEST PUSH2 0x55E8 PUSH1 0x80 DUP4 ADD DUP5 PUSH2 0x40E2 JUMP JUMPDEST SWAP7 SWAP6 POP POP POP POP POP POP JUMP JUMPDEST PUSH0 PUSH1 0xA0 DUP3 ADD SWAP1 POP PUSH2 0x5605 PUSH0 DUP4 ADD DUP9 PUSH2 0x474B JUMP JUMPDEST PUSH2 0x5612 PUSH1 0x20 DUP4 ADD DUP8 PUSH2 0x40E2 JUMP JUMPDEST PUSH2 0x561F PUSH1 0x40 DUP4 ADD DUP7 PUSH2 0x40E2 JUMP JUMPDEST PUSH2 0x562C PUSH1 0x60 DUP4 ADD DUP6 PUSH2 0x40E2 JUMP JUMPDEST PUSH2 0x5639 PUSH1 0x80 DUP4 ADD DUP5 PUSH2 0x54D9 JUMP JUMPDEST SWAP7 SWAP6 POP POP POP POP POP POP JUMP JUMPDEST PUSH0 PUSH1 0x40 DUP3 ADD SWAP1 POP PUSH2 0x5656 PUSH0 DUP4 ADD DUP6 PUSH2 0x40E2 JUMP JUMPDEST PUSH2 0x5663 PUSH1 0x20 DUP4 ADD DUP5 PUSH2 0x4195 JUMP JUMPDEST SWAP4 SWAP3 POP POP POP JUMP JUMPDEST PUSH32 0x43616C6C6572206973206E6F7420746865206275796572000000000000000000 PUSH0 DUP3 ADD MSTORE POP JUMP JUMPDEST PUSH0 PUSH2 0x569E PUSH1 0x17 DUP4 PUSH2 0x41F2 JUMP JUMPDEST SWAP2 POP PUSH2 0x56A9 DUP3 PUSH2 0x566A JUMP JUMPDEST PUSH1 0x20 DUP3 ADD SWAP1 POP SWAP2 SWAP1 POP JUMP JUMPDEST PUSH0 PUSH1 0x20 DUP3 ADD SWAP1 POP DUP2 DUP2 SUB PUSH0 DUP4 ADD MSTORE PUSH2 0x56CB DUP2 PUSH2 0x5692 JUMP JUMPDEST SWAP1 POP SWAP2 SWAP1 POP JUMP JUMPDEST PUSH32 0x416C6C204E465473206D696E7465640000000000000000000000000000000000 PUSH0 DUP3 ADD MSTORE POP JUMP JUMPDEST PUSH0 PUSH2 0x5706 PUSH1 0xF DUP4 PUSH2 0x41F2 JUMP JUMPDEST SWAP2 POP PUSH2 0x5711 DUP3 PUSH2 0x56D2 JUMP JUMPDEST PUSH1 0x20 DUP3 ADD SWAP1 POP SWAP2 SWAP1 POP JUMP JUMPDEST PUSH0 PUSH1 0x20 DUP3 ADD SWAP1 POP DUP2 DUP2 SUB PUSH0 DUP4 ADD MSTORE PUSH2 0x5733 DUP2 PUSH2 0x56FA JUMP JUMPDEST SWAP1 POP SWAP2 SWAP1 POP JUMP JUMPDEST PUSH32 0x496E636F72726563742045544820616D6F756E742073656E7400000000000000 PUSH0 DUP3 ADD MSTORE POP JUMP JUMPDEST PUSH0 PUSH2 0x576E PUSH1 0x19 DUP4 PUSH2 0x41F2 JUMP JUMPDEST SWAP2 POP PUSH2 0x5779 DUP3 PUSH2 0x573A JUMP JUMPDEST PUSH1 0x20 DUP3 ADD SWAP1 POP SWAP2 SWAP1 POP JUMP JUMPDEST PUSH0 PUSH1 0x20 DUP3 ADD SWAP1 POP DUP2 DUP2 SUB PUSH0 DUP4 ADD MSTORE PUSH2 0x579B DUP2 PUSH2 0x5762 JUMP JUMPDEST SWAP1 POP SWAP2 SWAP1 POP JUMP JUMPDEST PUSH32 0x417274697374206465706F73697420696E73756666696369656E740000000000 PUSH0 DUP3 ADD MSTORE POP JUMP JUMPDEST PUSH0 PUSH2 0x57D6 PUSH1 0x1B DUP4 PUSH2 0x41F2 JUMP JUMPDEST SWAP2 POP PUSH2 0x57E1 DUP3 PUSH2 0x57A2 JUMP JUMPDEST PUSH1 0x20 DUP3 ADD SWAP1 POP SWAP2 SWAP1 POP JUMP JUMPDEST PUSH0 PUSH1 0x20 DUP3 ADD SWAP1 POP DUP2 DUP2 SUB PUSH0 DUP4 ADD MSTORE PUSH2 0x5803 DUP2 PUSH2 0x57CA JUMP JUMPDEST SWAP1 POP SWAP2 SWAP1 POP JUMP JUMPDEST PUSH32 0x496E73756666696369656E74206465706F736974000000000000000000000000 PUSH0 DUP3 ADD MSTORE POP JUMP JUMPDEST PUSH0 PUSH2 0x583E PUSH1 0x14 DUP4 PUSH2 0x41F2 JUMP JUMPDEST SWAP2 POP PUSH2 0x5849 DUP3 PUSH2 0x580A JUMP JUMPDEST PUSH1 0x20 DUP3 ADD SWAP1 POP SWAP2 SWAP1 POP JUMP JUMPDEST PUSH0 PUSH1 0x20 DUP3 ADD SWAP1 POP DUP2 DUP2 SUB PUSH0 DUP4 ADD MSTORE PUSH2 0x586B DUP2 PUSH2 0x5832 JUMP JUMPDEST SWAP1 POP SWAP2 SWAP1 POP JUMP JUMPDEST PUSH32 0x5769746864726177616C206661696C6564000000000000000000000000000000 PUSH0 DUP3 ADD MSTORE POP JUMP JUMPDEST PUSH0 PUSH2 0x58A6 PUSH1 0x11 DUP4 PUSH2 0x41F2 JUMP JUMPDEST SWAP2 POP PUSH2 0x58B1 DUP3 PUSH2 0x5872 JUMP JUMPDEST PUSH1 0x20 DUP3 ADD SWAP1 POP SWAP2 SWAP1 POP JUMP JUMPDEST PUSH0 PUSH1 0x20 DUP3 ADD SWAP1 POP DUP2 DUP2 SUB PUSH0 DUP4 ADD MSTORE PUSH2 0x58D3 DUP2 PUSH2 0x589A JUMP JUMPDEST SWAP1 POP SWAP2 SWAP1 POP JUMP JUMPDEST PUSH32 0x4D757374206465706F73697420706F7369746976652045544800000000000000 PUSH0 DUP3 ADD MSTORE POP JUMP JUMPDEST PUSH0 PUSH2 0x590E PUSH1 0x19 DUP4 PUSH2 0x41F2 JUMP JUMPDEST SWAP2 POP PUSH2 0x5919 DUP3 PUSH2 0x58DA JUMP JUMPDEST PUSH1 0x20 DUP3 ADD SWAP1 POP SWAP2 SWAP1 POP JUMP JUMPDEST PUSH0 PUSH1 0x20 DUP3 ADD SWAP1 POP DUP2 DUP2 SUB PUSH0 DUP4 ADD MSTORE PUSH2 0x593B DUP2 PUSH2 0x5902 JUMP JUMPDEST SWAP1 POP SWAP2 SWAP1 POP JUMP JUMPDEST PUSH32 0x5265656E7472616E637947756172643A207265656E7472616E742063616C6C00 PUSH0 DUP3 ADD MSTORE POP JUMP JUMPDEST PUSH0 PUSH2 0x5976 PUSH1 0x1F DUP4 PUSH2 0x41F2 JUMP JUMPDEST SWAP2 POP PUSH2 0x5981 DUP3 PUSH2 0x5942 JUMP JUMPDEST PUSH1 0x20 DUP3 ADD SWAP1 POP SWAP2 SWAP1 POP JUMP JUMPDEST PUSH0 PUSH1 0x20 DUP3 ADD SWAP1 POP DUP2 DUP2 SUB PUSH0 DUP4 ADD MSTORE PUSH2 0x59A3 DUP2 PUSH2 0x596A JUMP JUMPDEST SWAP1 POP SWAP2 SWAP1 POP JUMP JUMPDEST PUSH0 PUSH1 0x40 DUP3 ADD SWAP1 POP PUSH2 0x59BD PUSH0 DUP4 ADD DUP6 PUSH2 0x474B JUMP JUMPDEST PUSH2 0x59CA PUSH1 0x20 DUP4 ADD DUP5 PUSH2 0x44B8 JUMP JUMPDEST SWAP4 SWAP3 POP POP POP JUMP JUMPDEST PUSH0 PUSH1 0x80 DUP3 ADD SWAP1 POP PUSH2 0x59E4 PUSH0 DUP4 ADD DUP8 PUSH2 0x474B JUMP JUMPDEST PUSH2 0x59F1 PUSH1 0x20 DUP4 ADD DUP7 PUSH2 0x40E2 JUMP JUMPDEST PUSH2 0x59FE PUSH1 0x40 DUP4 ADD DUP6 PUSH2 0x40E2 JUMP JUMPDEST PUSH2 0x5A0B PUSH1 0x60 DUP4 ADD DUP5 PUSH2 0x40E2 JUMP JUMPDEST SWAP6 SWAP5 POP POP POP POP POP JUMP JUMPDEST PUSH0 PUSH1 0x40 DUP3 ADD SWAP1 POP DUP2 DUP2 SUB PUSH0 DUP4 ADD MSTORE PUSH2 0x5A2C DUP2 DUP6 PUSH2 0x4A5A JUMP JUMPDEST SWAP1 POP DUP2 DUP2 SUB PUSH1 0x20 DUP4 ADD MSTORE PUSH2 0x5A40 DUP2 DUP5 PUSH2 0x4A5A JUMP JUMPDEST SWAP1 POP SWAP4 SWAP3 POP POP POP JUMP JUMPDEST PUSH0 DUP2 MLOAD SWAP1 POP SWAP2 SWAP1 POP JUMP JUMPDEST PUSH0 DUP3 DUP3 MSTORE PUSH1 0x20 DUP3 ADD SWAP1 POP SWAP3 SWAP2 POP POP JUMP JUMPDEST PUSH0 PUSH2 0x5A6D DUP3 PUSH2 0x5A49 JUMP JUMPDEST PUSH2 0x5A77 DUP2 DUP6 PUSH2 0x5A53 JUMP JUMPDEST SWAP4 POP PUSH2 0x5A87 DUP2 DUP6 PUSH1 0x20 DUP7 ADD PUSH2 0x4202 JUMP JUMPDEST PUSH2 0x5A90 DUP2 PUSH2 0x422A JUMP JUMPDEST DUP5 ADD SWAP2 POP POP SWAP3 SWAP2 POP POP JUMP JUMPDEST PUSH0 PUSH1 0xA0 DUP3 ADD SWAP1 POP PUSH2 0x5AAE PUSH0 DUP4 ADD DUP9 PUSH2 0x474B JUMP JUMPDEST PUSH2 0x5ABB PUSH1 0x20 DUP4 ADD DUP8 PUSH2 0x474B JUMP JUMPDEST PUSH2 0x5AC8 PUSH1 0x40 DUP4 ADD DUP7 PUSH2 0x40E2 JUMP JUMPDEST PUSH2 0x5AD5 PUSH1 0x60 DUP4 ADD DUP6 PUSH2 0x40E2 JUMP JUMPDEST DUP2 DUP2 SUB PUSH1 0x80 DUP4 ADD MSTORE PUSH2 0x5AE7 DUP2 DUP5 PUSH2 0x5A63 JUMP JUMPDEST SWAP1 POP SWAP7 SWAP6 POP POP POP POP POP POP JUMP JUMPDEST PUSH0 DUP2 MLOAD SWAP1 POP PUSH2 0x5B01 DUP2 PUSH2 0x4135 JUMP JUMPDEST SWAP3 SWAP2 POP POP JUMP JUMPDEST PUSH0 PUSH1 0x20 DUP3 DUP5 SUB SLT ISZERO PUSH2 0x5B1C JUMPI PUSH2 0x5B1B PUSH2 0x400F JUMP JUMPDEST JUMPDEST PUSH0 PUSH2 0x5B29 DUP5 DUP3 DUP6 ADD PUSH2 0x5AF3 JUMP JUMPDEST SWAP2 POP POP SWAP3 SWAP2 POP POP JUMP JUMPDEST PUSH0 PUSH1 0xA0 DUP3 ADD SWAP1 POP PUSH2 0x5B45 PUSH0 DUP4 ADD DUP9 PUSH2 0x474B JUMP JUMPDEST PUSH2 0x5B52 PUSH1 0x20 DUP4 ADD DUP8 PUSH2 0x474B JUMP JUMPDEST DUP2 DUP2 SUB PUSH1 0x40 DUP4 ADD MSTORE PUSH2 0x5B64 DUP2 DUP7 PUSH2 0x4A5A JUMP JUMPDEST SWAP1 POP DUP2 DUP2 SUB PUSH1 0x60 DUP4 ADD MSTORE PUSH2 0x5B78 DUP2 DUP6 PUSH2 0x4A5A JUMP JUMPDEST SWAP1 POP DUP2 DUP2 SUB PUSH1 0x80 DUP4 ADD MSTORE PUSH2 0x5B8C DUP2 DUP5 PUSH2 0x5A63 JUMP JUMPDEST SWAP1 POP SWAP7 SWAP6 POP POP POP POP POP POP JUMP INVALID LOG2 PUSH5 0x6970667358 0x22 SLT KECCAK256 PUSH27 0x4D4D4A31ECF05C5F1986219D11C0A8CD0382BA57416BB4F3B328B3 0x1F SWAP14 PUSH19 0x3364736F6C6343000814003300000000000000 "
		},
		"gasEstimates": {
			"creation": {
				"codeDepositCost": "4700400",
				"executionCost": "infinite",
				"totalCost": "infinite"
			},
			"external": {
				"": "219",
				"ARBITRATOR_ROLE()": "371",
				"ARTIST_ROLE()": "370",
				"CONFIRMATION_TIMEOUT()": "393",
				"DEFAULT_ADMIN_ROLE()": "420",
				"artistDeposits(address)": "2869",
				"artworkPurchases(uint256,uint256)": "infinite",
				"artworks(uint256)": "infinite",
				"balanceOf(address,uint256)": "infinite",
				"balanceOfBatch(address[],uint256[])": "infinite",
				"createArtwork(string,string,uint256,uint256)": "infinite",
				"currentArtworkId()": "2538",
				"depositETH()": "infinite",
				"forceConfirmPurchase(uint256,uint256)": "infinite",
				"getRoleAdmin(bytes32)": "infinite",
				"grantRole(bytes32,address)": "infinite",
				"hasRole(bytes32,address)": "3255",
				"isApprovedForAll(address,address)": "infinite",
				"keyServer()": "2597",
				"mintArtwork(uint256)": "infinite",
				"onERC1155BatchReceived(address,address,uint256[],uint256[],bytes)": "infinite",
				"onERC1155Received(address,address,uint256,uint256,bytes)": "infinite",
				"publicKeyURI(address)": "infinite",
				"renounceRole(bytes32,address)": "infinite",
				"revokeRole(bytes32,address)": "infinite",
				"safeBatchTransferFrom(address,address,uint256[],uint256[],bytes)": "infinite",
				"safeTransferFrom(address,address,uint256,uint256,bytes)": "infinite",
				"setApprovalForAll(address,bool)": "infinite",
				"setKeyServer(address)": "infinite",
				"setPublicKeyURI(string)": "infinite",
				"settlePurchaseDispute(uint256,uint256,bool)": "infinite",
				"supportsInterface(bytes4)": "1050",
				"uri(uint256)": "infinite",
				"verifyPurchase(uint256,uint256,bool)": "infinite",
				"withdrawETH(uint256)": "infinite"
			}
		},
		"methodIdentifiers": {
			"ARBITRATOR_ROLE()": "9cea0787",
			"ARTIST_ROLE()": "a966a0df",
			"CONFIRMATION_TIMEOUT()": "3a14af65",
			"DEFAULT_ADMIN_ROLE()": "a217fddf",
			"artistDeposits(address)": "ac76e521",
			"artworkPurchases(uint256,uint256)": "4bc9db85",
			"artworks(uint256)": "4b602673",
			"balanceOf(address,uint256)": "00fdd58e",
			"balanceOfBatch(address[],uint256[])": "4e1273f4",
			"createArtwork(string,string,uint256,uint256)": "237f1509",
			"currentArtworkId()": "18b6dcbc",
			"depositETH()": "f6326fb3",
			"forceConfirmPurchase(uint256,uint256)": "7365e8ec",
			"getRoleAdmin(bytes32)": "248a9ca3",
			"grantRole(bytes32,address)": "2f2ff15d",
			"hasRole(bytes32,address)": "91d14854",
			"isApprovedForAll(address,address)": "e985e9c5",
			"keyServer()": "b69b6d66",
			"mintArtwork(uint256)": "e82f4062",
			"onERC1155BatchReceived(address,address,uint256[],uint256[],bytes)": "bc197c81",
			"onERC1155Received(address,address,uint256,uint256,bytes)": "f23a6e61",
			"publicKeyURI(address)": "815176aa",
			"renounceRole(bytes32,address)": "36568abe",
			"revokeRole(bytes32,address)": "d547741f",
			"safeBatchTransferFrom(address,address,uint256[],uint256[],bytes)": "2eb2c2d6",
			"safeTransferFrom(address,address,uint256,uint256,bytes)": "f242432a",
			"setApprovalForAll(address,bool)": "a22cb465",
			"setKeyServer(address)": "595af66f",
			"setPublicKeyURI(string)": "f0d93b9a",
			"settlePurchaseDispute(uint256,uint256,bool)": "9e56f275",
			"supportsInterface(bytes4)": "01ffc9a7",
			"uri(uint256)": "0e89341c",
			"verifyPurchase(uint256,uint256,bool)": "b89571c7",
			"withdrawETH(uint256)": "f14210a6"
		}
	},
	"abi": [
		{
			"inputs": [
				{
					"internalType": "string",
					"name": "uri",
					"type": "string"
				}
			],
			"stateMutability": "nonpayable",
			"type": "constructor"
		},
		{
			"inputs": [],
			"name": "AccessControlBadConfirmation",
			"type": "error"
		},
		{
			"inputs": [
				{
					"internalType": "address",
					"name": "account",
					"type": "address"
				},
				{
					"internalType": "bytes32",
					"name": "neededRole",
					"type": "bytes32"
				}
			],
			"name": "AccessControlUnauthorizedAccount",
			"type": "error"
		},
		{
			"inputs": [
				{
					"internalType": "address",
					"name": "sender",
					"type": "address"
				},
				{
					"internalType": "uint256",
					"name": "balance",
					"type": "uint256"
				},
				{
					"internalType": "uint256",
					"name": "needed",
					"type": "uint256"
				},
				{
					"internalType": "uint256",
					"name": "tokenId",
					"type": "uint256"
				}
			],
			"name": "ERC1155InsufficientBalance",
			"type": "error"
		},
		{
			"inputs": [
				{
					"internalType": "address",
					"name": "approver",
					"type": "address"
				}
			],
			"name": "ERC1155InvalidApprover",
			"type": "error"
		},
		{
			"inputs": [
				{
					"internalType": "uint256",
					"name": "idsLength",
					"type": "uint256"
				},
				{
					"internalType": "uint256",
					"name": "valuesLength",
					"type": "uint256"
				}
			],
			"name": "ERC1155InvalidArrayLength",
			"type": "error"
		},
		{
			"inputs": [
				{
					"internalType": "address",
					"name": "operator",
					"type": "address"
				}
			],
			"name": "ERC1155InvalidOperator",
			"type": "error"
		},
		{
			"inputs": [
				{
					"internalType": "address",
					"name": "receiver",
					"type": "address"
				}
			],
			"name": "ERC1155InvalidReceiver",
			"type": "error"
		},
		{
			"inputs": [
				{
					"internalType": "address",
					"name": "sender",
					"type": "address"
				}
			],
			"name": "ERC1155InvalidSender",
			"type": "error"
		},
		{
			"inputs": [
				{
					"internalType": "address",
					"name": "operator",
					"type": "address"
				},
				{
					"internalType": "address",
					"name": "owner",
					"type": "address"
				}
			],
			"name": "ERC1155MissingApprovalForAll",
			"type": "error"
		},
		{
			"anonymous": false,
			"inputs": [
				{
					"indexed": true,
					"internalType": "address",
					"name": "account",
					"type": "address"
				},
				{
					"indexed": true,
					"internalType": "address",
					"name": "operator",
					"type": "address"
				},
				{
					"indexed": false,
					"internalType": "bool",
					"name": "approved",
					"type": "bool"
				}
			],
			"name": "ApprovalForAll",
			"type": "event"
		},
		{
			"anonymous": false,
			"inputs": [
				{
					"indexed": true,
					"internalType": "uint256",
					"name": "tokenId",
					"type": "uint256"
				},
				{
					"indexed": true,
					"internalType": "address",
					"name": "artist",
					"type": "address"
				},
				{
					"indexed": false,
					"internalType": "uint256",
					"name": "price",
					"type": "uint256"
				},
				{
					"indexed": false,
					"internalType": "uint256",
					"name": "supplyLimit",
					"type": "uint256"
				}
			],
			"name": "ArtworkCreated",
			"type": "event"
		},
		{
			"anonymous": false,
			"inputs": [
				{
					"indexed": true,
					"internalType": "uint256",
					"name": "tokenId",
					"type": "uint256"
				},
				{
					"indexed": true,
					"internalType": "uint256",
					"name": "purchaseIndex",
					"type": "uint256"
				},
				{
					"indexed": true,
					"internalType": "address",
					"name": "buyer",
					"type": "address"
				},
				{
					"indexed": false,
					"internalType": "uint256",
					"name": "purchaseAmount",
					"type": "uint256"
				},
				{
					"indexed": false,
					"internalType": "uint256",
					"name": "depositLocked",
					"type": "uint256"
				}
			],
			"name": "ArtworkMinted",
			"type": "event"
		},
		{
			"anonymous": false,
			"inputs": [
				{
					"indexed": true,
					"internalType": "address",
					"name": "artist",
					"type": "address"
				},
				{
					"indexed": false,
					"internalType": "uint256",
					"name": "amount",
					"type": "uint256"
				}
			],
			"name": "DepositETH",
			"type": "event"
		},
		{
			"anonymous": false,
			"inputs": [
				{
					"indexed": true,
					"internalType": "uint256",
					"name": "tokenId",
					"type": "uint256"
				},
				{
					"indexed": false,
					"internalType": "uint256",
					"name": "purchaseIndex",
					"type": "uint256"
				},
				{
					"indexed": true,
					"internalType": "address",
					"name": "artist",
					"type": "address"
				}
			],
			"name": "DisputeForced",
			"type": "event"
		},
		{
			"anonymous": false,
			"inputs": [
				{
					"indexed": true,
					"internalType": "uint256",
					"name": "tokenId",
					"type": "uint256"
				},
				{
					"indexed": false,
					"internalType": "uint256",
					"name": "purchaseIndex",
					"type": "uint256"
				},
				{
					"indexed": true,
					"internalType": "address",
					"name": "buyer",
					"type": "address"
				}
			],
			"name": "DisputeOpened",
			"type": "event"
		},
		{
			"anonymous": false,
			"inputs": [
				{
					"indexed": true,
					"internalType": "uint256",
					"name": "tokenId",
					"type": "uint256"
				},
				{
					"indexed": false,
					"internalType": "uint256",
					"name": "purchaseIndex",
					"type": "uint256"
				},
				{
					"indexed": false,
					"internalType": "bool",
					"name": "disputeResult",
					"type": "bool"
				}
			],
			"name": "DisputeSettled",
			"type": "event"
		},
		{
			"anonymous": false,
			"inputs": [
				{
					"indexed": true,
					"internalType": "uint256",
					"name": "tokenId",
					"type": "uint256"
				},
				{
					"indexed": true,
					"internalType": "uint256",
					"name": "purchaseIndex",
					"type": "uint256"
				},
				{
					"indexed": true,
					"internalType": "address",
					"name": "artist",
					"type": "address"
				},
				{
					"indexed": false,
					"internalType": "address",
					"name": "buyer",
					"type": "address"
				},
				{
					"indexed": false,
					"internalType": "uint256",
					"name": "buyerRefund",
					"type": "uint256"
				},
				{
					"indexed": false,
					"internalType": "uint256",
					"name": "keyServerFee",
					"type": "uint256"
				},
				{
					"indexed": false,
					"internalType": "uint256",
					"name": "arbitratorFee",
					"type": "uint256"
				},
				{
					"indexed": false,
					"internalType": "uint256",
					"name": "artistCredit",
					"type": "uint256"
				}
			],
			"name": "FundsDistributed",
			"type": "event"
		},
		{
			"anonymous": false,
			"inputs": [
				{
					"indexed": true,
					"internalType": "address",
					"name": "keyServer",
					"type": "address"
				}
			],
			"name": "KeyServerSet",
			"type": "event"
		},
		{
			"anonymous": false,
			"inputs": [
				{
					"indexed": true,
					"internalType": "uint256",
					"name": "tokenId",
					"type": "uint256"
				},
				{
					"indexed": false,
					"internalType": "uint256",
					"name": "purchaseIndex",
					"type": "uint256"
				},
				{
					"indexed": true,
					"internalType": "address",
					"name": "buyer",
					"type": "address"
				}
			],
			"name": "NFTBurned",
			"type": "event"
		},
		{
			"anonymous": false,
			"inputs": [
				{
					"indexed": true,
					"internalType": "address",
					"name": "account",
					"type": "address"
				},
				{
					"indexed": false,
					"internalType": "string",
					"name": "keyURI",
					"type": "string"
				}
			],
			"name": "PublicKeyURISet",
			"type": "event"
		},
		{
			"anonymous": false,
			"inputs": [
				{
					"indexed": true,
					"internalType": "address",
					"name": "account",
					"type": "address"
				},
				{
					"indexed": false,
					"internalType": "bytes",
					"name": "publicKey",
					"type": "bytes"
				}
			],
			"name": "PublicKeyUpdated",
			"type": "event"
		},
		{
			"anonymous": false,
			"inputs": [
				{
					"indexed": true,
					"internalType": "bytes32",
					"name": "role",
					"type": "bytes32"
				},
				{
					"indexed": true,
					"internalType": "bytes32",
					"name": "previousAdminRole",
					"type": "bytes32"
				},
				{
					"indexed": true,
					"internalType": "bytes32",
					"name": "newAdminRole",
					"type": "bytes32"
				}
			],
			"name": "RoleAdminChanged",
			"type": "event"
		},
		{
			"anonymous": false,
			"inputs": [
				{
					"indexed": true,
					"internalType": "bytes32",
					"name": "role",
					"type": "bytes32"
				},
				{
					"indexed": true,
					"internalType": "address",
					"name": "account",
					"type": "address"
				},
				{
					"indexed": true,
					"internalType": "address",
					"name": "sender",
					"type": "address"
				}
			],
			"name": "RoleGranted",
			"type": "event"
		},
		{
			"anonymous": false,
			"inputs": [
				{
					"indexed": true,
					"internalType": "bytes32",
					"name": "role",
					"type": "bytes32"
				},
				{
					"indexed": true,
					"internalType": "address",
					"name": "account",
					"type": "address"
				},
				{
					"indexed": true,
					"internalType": "address",
					"name": "sender",
					"type": "address"
				}
			],
			"name": "RoleRevoked",
			"type": "event"
		},
		{
			"anonymous": false,
			"inputs": [
				{
					"indexed": true,
					"internalType": "address",
					"name": "operator",
					"type": "address"
				},
				{
					"indexed": true,
					"internalType": "address",
					"name": "from",
					"type": "address"
				},
				{
					"indexed": true,
					"internalType": "address",
					"name": "to",
					"type": "address"
				},
				{
					"indexed": false,
					"internalType": "uint256[]",
					"name": "ids",
					"type": "uint256[]"
				},
				{
					"indexed": false,
					"internalType": "uint256[]",
					"name": "values",
					"type": "uint256[]"
				}
			],
			"name": "TransferBatch",
			"type": "event"
		},
		{
			"anonymous": false,
			"inputs": [
				{
					"indexed": true,
					"internalType": "address",
					"name": "operator",
					"type": "address"
				},
				{
					"indexed": true,
					"internalType": "address",
					"name": "from",
					"type": "address"
				},
				{
					"indexed": true,
					"internalType": "address",
					"name": "to",
					"type": "address"
				},
				{
					"indexed": false,
					"internalType": "uint256",
					"name": "id",
					"type": "uint256"
				},
				{
					"indexed": false,
					"internalType": "uint256",
					"name": "value",
					"type": "uint256"
				}
			],
			"name": "TransferSingle",
			"type": "event"
		},
		{
			"anonymous": false,
			"inputs": [
				{
					"indexed": false,
					"internalType": "string",
					"name": "value",
					"type": "string"
				},
				{
					"indexed": true,
					"internalType": "uint256",
					"name": "id",
					"type": "uint256"
				}
			],
			"name": "URI",
			"type": "event"
		},
		{
			"anonymous": false,
			"inputs": [
				{
					"indexed": true,
					"internalType": "uint256",
					"name": "tokenId",
					"type": "uint256"
				},
				{
					"indexed": false,
					"internalType": "uint256",
					"name": "purchaseIndex",
					"type": "uint256"
				},
				{
					"indexed": true,
					"internalType": "address",
					"name": "buyer",
					"type": "address"
				},
				{
					"indexed": false,
					"internalType": "bool",
					"name": "result",
					"type": "bool"
				}
			],
			"name": "VerificationResult",
			"type": "event"
		},
		{
			"anonymous": false,
			"inputs": [
				{
					"indexed": true,
					"internalType": "address",
					"name": "artist",
					"type": "address"
				},
				{
					"indexed": false,
					"internalType": "uint256",
					"name": "amount",
					"type": "uint256"
				}
			],
			"name": "WithdrawETH",
			"type": "event"
		},
		{
			"stateMutability": "payable",
			"type": "fallback"
		},
		{
			"inputs": [],
			"name": "ARBITRATOR_ROLE",
			"outputs": [
				{
					"internalType": "bytes32",
					"name": "",
					"type": "bytes32"
				}
			],
			"stateMutability": "view",
			"type": "function"
		},
		{
			"inputs": [],
			"name": "ARTIST_ROLE",
			"outputs": [
				{
					"internalType": "bytes32",
					"name": "",
					"type": "bytes32"
				}
			],
			"stateMutability": "view",
			"type": "function"
		},
		{
			"inputs": [],
			"name": "CONFIRMATION_TIMEOUT",
			"outputs": [
				{
					"internalType": "uint256",
					"name": "",
					"type": "uint256"
				}
			],
			"stateMutability": "view",
			"type": "function"
		},
		{
			"inputs": [],
			"name": "DEFAULT_ADMIN_ROLE",
			"outputs": [
				{
					"internalType": "bytes32",
					"name": "",
					"type": "bytes32"
				}
			],
			"stateMutability": "view",
			"type": "function"
		},
		{
			"inputs": [
				{
					"internalType": "address",
					"name": "",
					"type": "address"
				}
			],
			"name": "artistDeposits",
			"outputs": [
				{
					"internalType": "uint256",
					"name": "",
					"type": "uint256"
				}
			],
			"stateMutability": "view",
			"type": "function"
		},
		{
			"inputs": [
				{
					"internalType": "uint256",
					"name": "",
					"type": "uint256"
				},
				{
					"internalType": "uint256",
					"name": "",
					"type": "uint256"
				}
			],
			"name": "artworkPurchases",
			"outputs": [
				{
					"internalType": "address",
					"name": "buyer",
					"type": "address"
				},
				{
					"internalType": "enum DigitalArtwork_ERC1155_ETH.PurchaseState",
					"name": "state",
					"type": "uint8"
				},
				{
					"internalType": "uint256",
					"name": "lockedDeposit",
					"type": "uint256"
				},
				{
					"internalType": "uint256",
					"name": "purchaseTime",
					"type": "uint256"
				}
			],
			"stateMutability": "view",
			"type": "function"
		},
		{
			"inputs": [
				{
					"internalType": "uint256",
					"name": "",
					"type": "uint256"
				}
			],
			"name": "artworks",
			"outputs": [
				{
					"internalType": "uint256",
					"name": "tokenId",
					"type": "uint256"
				},
				{
					"internalType": "string",
					"name": "name",
					"type": "string"
				},
				{
					"internalType": "string",
					"name": "hash_json",
					"type": "string"
				},
				{
					"internalType": "uint256",
					"name": "supplyLimit",
					"type": "uint256"
				},
				{
					"internalType": "uint256",
					"name": "minted",
					"type": "uint256"
				},
				{
					"internalType": "uint256",
					"name": "price",
					"type": "uint256"
				},
				{
					"internalType": "address",
					"name": "artist",
					"type": "address"
				}
			],
			"stateMutability": "view",
			"type": "function"
		},
		{
			"inputs": [
				{
					"internalType": "address",
					"name": "account",
					"type": "address"
				},
				{
					"internalType": "uint256",
					"name": "id",
					"type": "uint256"
				}
			],
			"name": "balanceOf",
			"outputs": [
				{
					"internalType": "uint256",
					"name": "",
					"type": "uint256"
				}
			],
			"stateMutability": "view",
			"type": "function"
		},
		{
			"inputs": [
				{
					"internalType": "address[]",
					"name": "accounts",
					"type": "address[]"
				},
				{
					"internalType": "uint256[]",
					"name": "ids",
					"type": "uint256[]"
				}
			],
			"name": "balanceOfBatch",
			"outputs": [
				{
					"internalType": "uint256[]",
					"name": "",
					"type": "uint256[]"
				}
			],
			"stateMutability": "view",
			"type": "function"
		},
		{
			"inputs": [
				{
					"internalType": "string",
					"name": "_name",
					"type": "string"
				},
				{
					"internalType": "string",
					"name": "_hash_json",
					"type": "string"
				},
				{
					"internalType": "uint256",
					"name": "_supplyLimit",
					"type": "uint256"
				},
				{
					"internalType": "uint256",
					"name": "_price",
					"type": "uint256"
				}
			],
			"name": "createArtwork",
			"outputs": [
				{
					"internalType": "uint256",
					"name": "",
					"type": "uint256"
				}
			],
			"stateMutability": "nonpayable",
			"type": "function"
		},
		{
			"inputs": [],
			"name": "currentArtworkId",
			"outputs": [
				{
					"internalType": "uint256",
					"name": "",
					"type": "uint256"
				}
			],
			"stateMutability": "view",
			"type": "function"
		},
		{
			"inputs": [],
			"name": "depositETH",
			"outputs": [],
			"stateMutability": "payable",
			"type": "function"
		},
		{
			"inputs": [
				{
					"internalType": "uint256",
					"name": "_tokenId",
					"type": "uint256"
				},
				{
					"internalType": "uint256",
					"name": "purchaseIndex",
					"type": "uint256"
				}
			],
			"name": "forceConfirmPurchase",
			"outputs": [],
			"stateMutability": "nonpayable",
			"type": "function"
		},
		{
			"inputs": [
				{
					"internalType": "bytes32",
					"name": "role",
					"type": "bytes32"
				}
			],
			"name": "getRoleAdmin",
			"outputs": [
				{
					"internalType": "bytes32",
					"name": "",
					"type": "bytes32"
				}
			],
			"stateMutability": "view",
			"type": "function"
		},
		{
			"inputs": [
				{
					"internalType": "bytes32",
					"name": "role",
					"type": "bytes32"
				},
				{
					"internalType": "address",
					"name": "account",
					"type": "address"
				}
			],
			"name": "grantRole",
			"outputs": [],
			"stateMutability": "nonpayable",
			"type": "function"
		},
		{
			"inputs": [
				{
					"internalType": "bytes32",
					"name": "role",
					"type": "bytes32"
				},
				{
					"internalType": "address",
					"name": "account",
					"type": "address"
				}
			],
			"name": "hasRole",
			"outputs": [
				{
					"internalType": "bool",
					"name": "",
					"type": "bool"
				}
			],
			"stateMutability": "view",
			"type": "function"
		},
		{
			"inputs": [
				{
					"internalType": "address",
					"name": "account",
					"type": "address"
				},
				{
					"internalType": "address",
					"name": "operator",
					"type": "address"
				}
			],
			"name": "isApprovedForAll",
			"outputs": [
				{
					"internalType": "bool",
					"name": "",
					"type": "bool"
				}
			],
			"stateMutability": "view",
			"type": "function"
		},
		{
			"inputs": [],
			"name": "keyServer",
			"outputs": [
				{
					"internalType": "address",
					"name": "",
					"type": "address"
				}
			],
			"stateMutability": "view",
			"type": "function"
		},
		{
			"inputs": [
				{
					"internalType": "uint256",
					"name": "_tokenId",
					"type": "uint256"
				}
			],
			"name": "mintArtwork",
			"outputs": [],
			"stateMutability": "payable",
			"type": "function"
		},
		{
			"inputs": [
				{
					"internalType": "address",
					"name": "",
					"type": "address"
				},
				{
					"internalType": "address",
					"name": "",
					"type": "address"
				},
				{
					"internalType": "uint256[]",
					"name": "",
					"type": "uint256[]"
				},
				{
					"internalType": "uint256[]",
					"name": "",
					"type": "uint256[]"
				},
				{
					"internalType": "bytes",
					"name": "",
					"type": "bytes"
				}
			],
			"name": "onERC1155BatchReceived",
			"outputs": [
				{
					"internalType": "bytes4",
					"name": "",
					"type": "bytes4"
				}
			],
			"stateMutability": "nonpayable",
			"type": "function"
		},
		{
			"inputs": [
				{
					"internalType": "address",
					"name": "",
					"type": "address"
				},
				{
					"internalType": "address",
					"name": "",
					"type": "address"
				},
				{
					"internalType": "uint256",
					"name": "",
					"type": "uint256"
				},
				{
					"internalType": "uint256",
					"name": "",
					"type": "uint256"
				},
				{
					"internalType": "bytes",
					"name": "",
					"type": "bytes"
				}
			],
			"name": "onERC1155Received",
			"outputs": [
				{
					"internalType": "bytes4",
					"name": "",
					"type": "bytes4"
				}
			],
			"stateMutability": "nonpayable",
			"type": "function"
		},
		{
			"inputs": [
				{
					"internalType": "address",
					"name": "",
					"type": "address"
				}
			],
			"name": "publicKeyURI",
			"outputs": [
				{
					"internalType": "string",
					"name": "",
					"type": "string"
				}
			],
			"stateMutability": "view",
			"type": "function"
		},
		{
			"inputs": [
				{
					"internalType": "bytes32",
					"name": "role",
					"type": "bytes32"
				},
				{
					"internalType": "address",
					"name": "callerConfirmation",
					"type": "address"
				}
			],
			"name": "renounceRole",
			"outputs": [],
			"stateMutability": "nonpayable",
			"type": "function"
		},
		{
			"inputs": [
				{
					"internalType": "bytes32",
					"name": "role",
					"type": "bytes32"
				},
				{
					"internalType": "address",
					"name": "account",
					"type": "address"
				}
			],
			"name": "revokeRole",
			"outputs": [],
			"stateMutability": "nonpayable",
			"type": "function"
		},
		{
			"inputs": [
				{
					"internalType": "address",
					"name": "from",
					"type": "address"
				},
				{
					"internalType": "address",
					"name": "to",
					"type": "address"
				},
				{
					"internalType": "uint256[]",
					"name": "ids",
					"type": "uint256[]"
				},
				{
					"internalType": "uint256[]",
					"name": "values",
					"type": "uint256[]"
				},
				{
					"internalType": "bytes",
					"name": "data",
					"type": "bytes"
				}
			],
			"name": "safeBatchTransferFrom",
			"outputs": [],
			"stateMutability": "nonpayable",
			"type": "function"
		},
		{
			"inputs": [
				{
					"internalType": "address",
					"name": "from",
					"type": "address"
				},
				{
					"internalType": "address",
					"name": "to",
					"type": "address"
				},
				{
					"internalType": "uint256",
					"name": "id",
					"type": "uint256"
				},
				{
					"internalType": "uint256",
					"name": "value",
					"type": "uint256"
				},
				{
					"internalType": "bytes",
					"name": "data",
					"type": "bytes"
				}
			],
			"name": "safeTransferFrom",
			"outputs": [],
			"stateMutability": "nonpayable",
			"type": "function"
		},
		{
			"inputs": [
				{
					"internalType": "address",
					"name": "operator",
					"type": "address"
				},
				{
					"internalType": "bool",
					"name": "approved",
					"type": "bool"
				}
			],
			"name": "setApprovalForAll",
			"outputs": [],
			"stateMutability": "nonpayable",
			"type": "function"
		},
		{
			"inputs": [
				{
					"internalType": "address",
					"name": "_keyServer",
					"type": "address"
				}
			],
			"name": "setKeyServer",
			"outputs": [],
			"stateMutability": "nonpayable",
			"type": "function"
		},
		{
			"inputs": [
				{
					"internalType": "string",
					"name": "keyURI",
					"type": "string"
				}
			],
			"name": "setPublicKeyURI",
			"outputs": [],
			"stateMutability": "nonpayable",
			"type": "function"
		},
		{
			"inputs": [
				{
					"internalType": "uint256",
					"name": "_tokenId",
					"type": "uint256"
				},
				{
					"internalType": "uint256",
					"name": "purchaseIndex",
					"type": "uint256"
				},
				{
					"internalType": "bool",
					"name": "disputeResult",
					"type": "bool"
				}
			],
			"name": "settlePurchaseDispute",
			"outputs": [],
			"stateMutability": "nonpayable",
			"type": "function"
		},
		{
			"inputs": [
				{
					"internalType": "bytes4",
					"name": "interfaceId",
					"type": "bytes4"
				}
			],
			"name": "supportsInterface",
			"outputs": [
				{
					"internalType": "bool",
					"name": "",
					"type": "bool"
				}
			],
			"stateMutability": "view",
			"type": "function"
		},
		{
			"inputs": [
				{
					"internalType": "uint256",
					"name": "",
					"type": "uint256"
				}
			],
			"name": "uri",
			"outputs": [
				{
					"internalType": "string",
					"name": "",
					"type": "string"
				}
			],
			"stateMutability": "view",
			"type": "function"
		},
		{
			"inputs": [
				{
					"internalType": "uint256",
					"name": "_tokenId",
					"type": "uint256"
				},
				{
					"internalType": "uint256",
					"name": "purchaseIndex",
					"type": "uint256"
				},
				{
					"internalType": "bool",
					"name": "verificationResult",
					"type": "bool"
				}
			],
			"name": "verifyPurchase",
			"outputs": [],
			"stateMutability": "nonpayable",
			"type": "function"
		},
		{
			"inputs": [
				{
					"internalType": "uint256",
					"name": "amount",
					"type": "uint256"
				}
			],
			"name": "withdrawETH",
			"outputs": [],
			"stateMutability": "nonpayable",
			"type": "function"
		},
		{
			"stateMutability": "payable",
			"type": "receive"
		}
	]
}