{
	"data": {
		"bytecode": {
			"linkReferences": {},
			"object": "608060405234801561000f575f80fd5b506040516150ad3803806150ad83398181016040528101906100319190610324565b806100418161006360201b60201c565b50600160048190555061005c5f801b3361007660201b60201c565b5050610647565b80600290816100729190610578565b5050565b5f610087838361016c60201b60201c565b61016257600160035f8581526020019081526020015f205f015f8473ffffffffffffffffffffffffffffffffffffffff1673ffffffffffffffffffffffffffffffffffffffff1681526020019081526020015f205f6101000a81548160ff0219169083151502179055506100ff6101d060201b60201c565b73ffffffffffffffffffffffffffffffffffffffff168273ffffffffffffffffffffffffffffffffffffffff16847f2f8788117e7eff1d82e926ec794901d17c78024a50270940304540a733656f0d60405160405180910390a460019050610166565b5f90505b92915050565b5f60035f8481526020019081526020015f205f015f8373ffffffffffffffffffffffffffffffffffffffff1673ffffffffffffffffffffffffffffffffffffffff1681526020019081526020015f205f9054906101000a900460ff16905092915050565b5f33905090565b5f604051905090565b5f80fd5b5f80fd5b5f80fd5b5f80fd5b5f601f19601f8301169050919050565b7f4e487b71000000000000000000000000000000000000000000000000000000005f52604160045260245ffd5b610236826101f0565b810181811067ffffffffffffffff8211171561025557610254610200565b5b80604052505050565b5f6102676101d7565b9050610273828261022d565b919050565b5f67ffffffffffffffff82111561029257610291610200565b5b61029b826101f0565b9050602081019050919050565b8281835e5f83830152505050565b5f6102c86102c384610278565b61025e565b9050828152602081018484840111156102e4576102e36101ec565b5b6102ef8482856102a8565b509392505050565b5f82601f83011261030b5761030a6101e8565b5b815161031b8482602086016102b6565b91505092915050565b5f60208284031215610339576103386101e0565b5b5f82015167ffffffffffffffff811115610356576103556101e4565b5b610362848285016102f7565b91505092915050565b5f81519050919050565b7f4e487b71000000000000000000000000000000000000000000000000000000005f52602260045260245ffd5b5f60028204905060018216806103b957607f821691505b6020821081036103cc576103cb610375565b5b50919050565b5f819050815f5260205f209050919050565b5f6020601f8301049050919050565b5f82821b905092915050565b5f6008830261042e7fffffffffffffffffffffffffffffffffffffffffffffffffffffffffffffffff826103f3565b61043886836103f3565b95508019841693508086168417925050509392505050565b5f819050919050565b5f819050919050565b5f61047c61047761047284610450565b610459565b610450565b9050919050565b5f819050919050565b61049583610462565b6104a96104a182610483565b8484546103ff565b825550505050565b5f90565b6104bd6104b1565b6104c881848461048c565b505050565b5b818110156104eb576104e05f826104b5565b6001810190506104ce565b5050565b601f82111561053057610501816103d2565b61050a846103e4565b81016020851015610519578190505b61052d610525856103e4565b8301826104cd565b50505b505050565b5f82821c905092915050565b5f6105505f1984600802610535565b1980831691505092915050565b5f6105688383610541565b9150826002028217905092915050565b6105818261036b565b67ffffffffffffffff81111561059a57610599610200565b5b6105a482546103a2565b6105af8282856104ef565b5f60209050601f8311600181146105e0575f84156105ce578287015190505b6105d8858261055d565b86555061063f565b601f1984166105ee866103d2565b5f5b82811015610615578489015182556001820191506020850194506020810190506105f0565b86831015610632578489015161062e601f891682610541565b8355505b6001600288020188555050505b505050505050565b614a59806106545f395ff3fe608060405234801561000f575f80fd5b50600436106101c1575f3560e01c806391d14854116100f7578063d547741f11610095578063e985e9c51161006f578063e985e9c51461052e578063f1b66bec1461055e578063f1f201e81461057a578063f242432a146105aa576101c1565b8063d547741f146104d8578063e82f4062146104f4578063e8dbb9c514610510576101c1565b8063a217fddf116100d1578063a217fddf14610450578063a22cb4651461046e578063a3d6f9a91461048a578063a966a0df146104ba576101c1565b806391d14854146103e657806392305435146104165780639cea078714610432576101c1565b806336568abe116101645780634e1273f41161013e5780634e1273f41461034e578063640933061461037e57806366367b771461039a5780637ea6c533146103b6576101c1565b806336568abe146102db5780634b602673146102f75780634db30e3114610332576101c1565b806318b6dcbc116101a057806318b6dcbc14610255578063248a9ca3146102735780632eb2c2d6146102a35780632f2ff15d146102bf576101c1565b8062fdd58e146101c557806301ffc9a7146101f55780630e89341c14610225575b5f80fd5b6101df60048036038101906101da91906131df565b6105c6565b6040516101ec919061322c565b60405180910390f35b61020f600480360381019061020a919061329a565b61061b565b60405161021c91906132df565b60405180910390f35b61023f600480360381019061023a91906132f8565b61062c565b60405161024c9190613393565b60405180910390f35b61025d6106be565b60405161026a919061322c565b60405180910390f35b61028d600480360381019061028891906133e6565b6106c4565b60405161029a9190613420565b60405180910390f35b6102bd60048036038101906102b89190613629565b6106e1565b005b6102d960048036038101906102d491906136f4565b610788565b005b6102f560048036038101906102f091906136f4565b6107aa565b005b610311600480360381019061030c91906132f8565b610825565b6040516103299c9b9a999897969594939291906137b4565b60405180910390f35b61034c60048036038101906103479190613881565b610a5e565b005b6103686004803603810190610363919061397f565b610b9c565b6040516103759190613aac565b60405180910390f35b61039860048036038101906103939190613881565b610ca3565b005b6103b460048036038101906103af91906131df565b610e28565b005b6103d060048036038101906103cb9190613b6a565b610e53565b6040516103dd919061322c565b60405180910390f35b61040060048036038101906103fb91906136f4565b6110da565b60405161040d91906132df565b60405180910390f35b610430600480360381019061042b9190613c71565b61113e565b005b61043a6114de565b6040516104479190613420565b60405180910390f35b610458611502565b6040516104659190613420565b60405180910390f35b61048860048036038101906104839190613caf565b611508565b005b6104a4600480360381019061049f9190613ced565b61151e565b6040516104b19190613d6a565b60405180910390f35b6104c26115b9565b6040516104cf9190613420565b60405180910390f35b6104f260048036038101906104ed91906136f4565b6115dd565b005b61050e600480360381019061050991906132f8565b6115ff565b005b610518611898565b604051610525919061322c565b60405180910390f35b61054860048036038101906105439190613d8a565b61189c565b60405161055591906132df565b60405180910390f35b61057860048036038101906105739190613c71565b61192a565b005b610594600480360381019061058f91906132f8565b611c1f565b6040516105a19190613f4c565b60405180910390f35b6105c460048036038101906105bf9190613f6c565b611f1b565b005b5f805f8381526020019081526020015f205f8473ffffffffffffffffffffffffffffffffffffffff1673ffffffffffffffffffffffffffffffffffffffff1681526020019081526020015f2054905092915050565b5f61062582611fc2565b9050919050565b60606002805461063b9061402c565b80601f01602080910402602001604051908101604052809291908181526020018280546106679061402c565b80156106b25780601f10610689576101008083540402835291602001916106b2565b820191905f5260205f20905b81548152906001019060200180831161069557829003601f168201915b50505050509050919050565b60055481565b5f60035f8381526020019081526020015f20600101549050919050565b5f6106ea61203b565b90508073ffffffffffffffffffffffffffffffffffffffff168673ffffffffffffffffffffffffffffffffffffffff161415801561072f575061072d868261189c565b155b156107735780866040517fe237d92200000000000000000000000000000000000000000000000000000000815260040161076a92919061405c565b60405180910390fd5b6107808686868686612042565b505050505050565b610791826106c4565b61079a81612136565b6107a4838361214a565b50505050565b6107b261203b565b73ffffffffffffffffffffffffffffffffffffffff168173ffffffffffffffffffffffffffffffffffffffff1614610816576040517f6697b23200000000000000000000000000000000000000000000000000000000815260040160405180910390fd5b6108208282612234565b505050565b6007602052805f5260405f205f91509050805f01549080600101805461084a9061402c565b80601f01602080910402602001604051908101604052809291908181526020018280546108769061402c565b80156108c15780601f10610898576101008083540402835291602001916108c1565b820191905f5260205f20905b8154815290600101906020018083116108a457829003601f168201915b5050505050908060020154908060030180546108dc9061402c565b80601f01602080910402602001604051908101604052809291908181526020018280546109089061402c565b80156109535780601f1061092a57610100808354040283529160200191610953565b820191905f5260205f20905b81548152906001019060200180831161093657829003601f168201915b5050505050908060040180546109689061402c565b80601f01602080910402602001604051908101604052809291908181526020018280546109949061402c565b80156109df5780601f106109b6576101008083540402835291602001916109df565b820191905f5260205f20905b8154815290600101906020018083116109c257829003601f168201915b505050505090806005015490806006015490806007015490806008015490806009015f9054906101000a900473ffffffffffffffffffffffffffffffffffffffff169080600a015f9054906101000a900473ffffffffffffffffffffffffffffffffffffffff169080600a0160149054906101000a900460ff1690508c565b610a6661231e565b5f60075f8481526020019081526020015f209050806009015f9054906101000a900473ffffffffffffffffffffffffffffffffffffffff1673ffffffffffffffffffffffffffffffffffffffff163373ffffffffffffffffffffffffffffffffffffffff1614610b0b576040517f08c379a0000000000000000000000000000000000000000000000000000000008152600401610b02906140cd565b60405180910390fd5b610b2633305f8560405180602001604052805f815250611f1b565b81816008015f828254610b399190614118565b925050819055503373ffffffffffffffffffffffffffffffffffffffff16837f377ef0adce1eae318afaad309c3b0f6c378fa1a294064deccda8d15ad28858eb84604051610b87919061322c565b60405180910390a350610b9861236d565b5050565b60608151835114610be857815183516040517f5b059991000000000000000000000000000000000000000000000000000000008152600401610bdf92919061414b565b60405180910390fd5b5f835167ffffffffffffffff811115610c0457610c0361343d565b5b604051908082528060200260200182016040528015610c325781602001602082028036833780820191505090505b5090505f5b8451811015610c9857610c6e610c56828761237790919063ffffffff16565b610c69838761238a90919063ffffffff16565b6105c6565b828281518110610c8157610c80614172565b5b602002602001018181525050806001019050610c37565b508091505092915050565b610cab61231e565b5f60075f8481526020019081526020015f209050806009015f9054906101000a900473ffffffffffffffffffffffffffffffffffffffff1673ffffffffffffffffffffffffffffffffffffffff163373ffffffffffffffffffffffffffffffffffffffff1614610d50576040517f08c379a0000000000000000000000000000000000000000000000000000000008152600401610d47906141e9565b60405180910390fd5b8181600801541015610d97576040517f08c379a0000000000000000000000000000000000000000000000000000000008152600401610d8e90614251565b60405180910390fd5b81816008015f828254610daa919061426f565b92505081905550610dcc30335f8560405180602001604052805f81525061239d565b3373ffffffffffffffffffffffffffffffffffffffff16837fae1f357660ab777dcfd38c0ab6357834684ec26289ecfa07ec65dbf6c3c6431284604051610e13919061322c565b60405180910390a350610e2461236d565b5050565b5f801b610e3481612136565b610e4e835f8460405180602001604052805f8152506124a3565b505050565b5f7f877a78dc988c0ec5f58453b44888a55eb39755c3d5ed8d8ea990912aa3ef29c6610e7e81612136565b60055f815480929190610e90906142a2565b91905055505f60055490506040518061018001604052808281526020018a81526020018981526020018881526020018781526020018681526020015f81526020018581526020015f81526020013373ffffffffffffffffffffffffffffffffffffffff1681526020015f73ffffffffffffffffffffffffffffffffffffffff1681526020015f6004811115610f2857610f27613741565b5b81525060075f8381526020019081526020015f205f820151815f01556020820151816001019081610f599190614486565b50604082015181600201556060820151816003019081610f799190614486565b506080820151816004019081610f8f9190614486565b5060a0820151816005015560c0820151816006015560e082015181600701556101008201518160080155610120820151816009015f6101000a81548173ffffffffffffffffffffffffffffffffffffffff021916908373ffffffffffffffffffffffffffffffffffffffff16021790555061014082015181600a015f6101000a81548173ffffffffffffffffffffffffffffffffffffffff021916908373ffffffffffffffffffffffffffffffffffffffff16021790555061016082015181600a0160146101000a81548160ff0219169083600481111561107357611072613741565b5b02179055509050503373ffffffffffffffffffffffffffffffffffffffff16817ef3538cb5abe2e9bc54f73939e4d165fce3752d27fe21a5e88b2a9f6da20c6386886040516110c392919061414b565b60405180910390a380925050509695505050505050565b5f60035f8481526020019081526020015f205f015f8373ffffffffffffffffffffffffffffffffffffffff1673ffffffffffffffffffffffffffffffffffffffff1681526020019081526020015f205f9054906101000a900460ff16905092915050565b61114661231e565b7f16ceee8289685dd2a02b9c8ae81d2df373176ce53519e6284e2a2950d6546ffa61117081612136565b5f60075f8581526020019081526020015f2090506002600481111561119857611197613741565b5b81600a0160149054906101000a900460ff1660048111156111bc576111bb613741565b5b146111fc576040517f08c379a00000000000000000000000000000000000000000000000000000000081526004016111f39061459f565b60405180910390fd5b8215611344576112443082600a015f9054906101000a900473ffffffffffffffffffffffffffffffffffffffff165f846007015460405180602001604052805f81525061239d565b8060070154816008015f82825461125b9190614118565b92505081905550600381600a0160146101000a81548160ff0219169083600481111561128a57611289613741565b5b021790555080600a015f9054906101000a900473ffffffffffffffffffffffffffffffffffffffff1673ffffffffffffffffffffffffffffffffffffffff16816009015f9054906101000a900473ffffffffffffffffffffffffffffffffffffffff1673ffffffffffffffffffffffffffffffffffffffff16857f0e4de261861b87bb7f315e0221741ed941ce8d6d7fef4ae848ed1cb7fe4f341f8460070154604051611337919061322c565b60405180910390a4611498565b6113923082600a015f9054906101000a900473ffffffffffffffffffffffffffffffffffffffff165f6002856007015461137e91906145bd565b60405180602001604052805f81525061239d565b6113d430826009015f9054906101000a900473ffffffffffffffffffffffffffffffffffffffff165f846008015460405180602001604052805f81525061239d565b61140381600a015f9054906101000a900473ffffffffffffffffffffffffffffffffffffffff16856001612538565b600481600a0160146101000a81548160ff0219169083600481111561142b5761142a613741565b5b021790555080600a015f9054906101000a900473ffffffffffffffffffffffffffffffffffffffff1673ffffffffffffffffffffffffffffffffffffffff16847f8f0a80450bfbfadc6d05658c9dc494e43beb79be53b44adbb146c6d5040f877060405160405180910390a35b837faa76612075dcf5624c76b21b3b0f6babbeee4e6b6197fb4fb4a2a5654724812a846040516114c891906132df565b60405180910390a250506114da61236d565b5050565b7f16ceee8289685dd2a02b9c8ae81d2df373176ce53519e6284e2a2950d6546ffa81565b5f801b81565b61151a61151361203b565b83836125da565b5050565b6006602052805f5260405f205f91509050805461153a9061402c565b80601f01602080910402602001604051908101604052809291908181526020018280546115669061402c565b80156115b15780601f10611588576101008083540402835291602001916115b1565b820191905f5260205f20905b81548152906001019060200180831161159457829003601f168201915b505050505081565b7f877a78dc988c0ec5f58453b44888a55eb39755c3d5ed8d8ea990912aa3ef29c681565b6115e6826106c4565b6115ef81612136565b6115f98383612234565b50505050565b61160761231e565b5f60075f8381526020019081526020015f2090505f600481111561162e5761162d613741565b5b81600a0160149054906101000a900460ff16600481111561165257611651613741565b5b148061169357506001600481111561166d5761166c613741565b5b81600a0160149054906101000a900460ff16600481111561169157611690613741565b5b145b6116d2576040517f08c379a00000000000000000000000000000000000000000000000000000000081526004016116c990614648565b60405180910390fd5b806005015481600601541061171c576040517f08c379a0000000000000000000000000000000000000000000000000000000008152600401611713906146b0565b60405180910390fd5b5f6002826007015461172e91906145bd565b905061174b33305f8460405180602001604052805f815250611f1b565b6002826007015461175c91906145bd565b826008015410156117a2576040517f08c379a000000000000000000000000000000000000000000000000000000000815260040161179990614718565b60405180910390fd5b6001826006015f8282546117b69190614118565b925050819055503382600a015f6101000a81548173ffffffffffffffffffffffffffffffffffffffff021916908373ffffffffffffffffffffffffffffffffffffffff16021790555061181a3384600160405180602001604052805f8152506124a3565b600182600a0160146101000a81548160ff0219169083600481111561184257611841613741565b5b02179055503373ffffffffffffffffffffffffffffffffffffffff16837fac5e7cdffb9f94eb582c47d5d6548e89ec9f1d35f8baafa7c181a3778b419bd860405160405180910390a3505061189561236d565b50565b5f81565b5f60015f8473ffffffffffffffffffffffffffffffffffffffff1673ffffffffffffffffffffffffffffffffffffffff1681526020019081526020015f205f8373ffffffffffffffffffffffffffffffffffffffff1673ffffffffffffffffffffffffffffffffffffffff1681526020019081526020015f205f9054906101000a900460ff16905092915050565b61193261231e565b5f60075f8481526020019081526020015f2090503373ffffffffffffffffffffffffffffffffffffffff1681600a015f9054906101000a900473ffffffffffffffffffffffffffffffffffffffff1673ffffffffffffffffffffffffffffffffffffffff16146119d7576040517f08c379a00000000000000000000000000000000000000000000000000000000081526004016119ce90614780565b60405180910390fd5b600160048111156119eb576119ea613741565b5b81600a0160149054906101000a900460ff166004811115611a0f57611a0e613741565b5b14611a4f576040517f08c379a0000000000000000000000000000000000000000000000000000000008152600401611a46906147e8565b60405180910390fd5b3373ffffffffffffffffffffffffffffffffffffffff16837fa60716b4c43cc2200ad347e752976d47d5acb1504d35d0287c92d4a2c78b75f584604051611a9691906132df565b60405180910390a38115611ba057611ac330335f846007015460405180602001604052805f81525061239d565b8060070154816008015f828254611ada9190614118565b92505081905550600381600a0160146101000a81548160ff02191690836004811115611b0957611b08613741565b5b02179055503373ffffffffffffffffffffffffffffffffffffffff16816009015f9054906101000a900473ffffffffffffffffffffffffffffffffffffffff1673ffffffffffffffffffffffffffffffffffffffff16847f0e4de261861b87bb7f315e0221741ed941ce8d6d7fef4ae848ed1cb7fe4f341f8460070154604051611b93919061322c565b60405180910390a4611c12565b600281600a0160146101000a81548160ff02191690836004811115611bc857611bc7613741565b5b02179055503373ffffffffffffffffffffffffffffffffffffffff16837f44f3c3ed15c708331582bc379d28659a58f183a563abe41aa4c8889db469f71c60405160405180910390a35b50611c1b61236d565b5050565b611c276130a8565b60075f8381526020019081526020015f20604051806101800160405290815f8201548152602001600182018054611c5d9061402c565b80601f0160208091040260200160405190810160405280929190818152602001828054611c899061402c565b8015611cd45780601f10611cab57610100808354040283529160200191611cd4565b820191905f5260205f20905b815481529060010190602001808311611cb757829003601f168201915b5050505050815260200160028201548152602001600382018054611cf79061402c565b80601f0160208091040260200160405190810160405280929190818152602001828054611d239061402c565b8015611d6e5780601f10611d4557610100808354040283529160200191611d6e565b820191905f5260205f20905b815481529060010190602001808311611d5157829003601f168201915b50505050508152602001600482018054611d879061402c565b80601f0160208091040260200160405190810160405280929190818152602001828054611db39061402c565b8015611dfe5780601f10611dd557610100808354040283529160200191611dfe565b820191905f5260205f20905b815481529060010190602001808311611de157829003601f168201915b5050505050815260200160058201548152602001600682015481526020016007820154815260200160088201548152602001600982015f9054906101000a900473ffffffffffffffffffffffffffffffffffffffff1673ffffffffffffffffffffffffffffffffffffffff1673ffffffffffffffffffffffffffffffffffffffff168152602001600a82015f9054906101000a900473ffffffffffffffffffffffffffffffffffffffff1673ffffffffffffffffffffffffffffffffffffffff1673ffffffffffffffffffffffffffffffffffffffff168152602001600a820160149054906101000a900460ff166004811115611efe57611efd613741565b5b6004811115611f1057611f0f613741565b5b815250509050919050565b5f611f2461203b565b90508073ffffffffffffffffffffffffffffffffffffffff168673ffffffffffffffffffffffffffffffffffffffff1614158015611f695750611f67868261189c565b155b15611fad5780866040517fe237d922000000000000000000000000000000000000000000000000000000008152600401611fa492919061405c565b60405180910390fd5b611fba868686868661239d565b505050505050565b5f7f7965db0b000000000000000000000000000000000000000000000000000000007bffffffffffffffffffffffffffffffffffffffffffffffffffffffff1916827bffffffffffffffffffffffffffffffffffffffffffffffffffffffff19161480612034575061203382612743565b5b9050919050565b5f33905090565b5f73ffffffffffffffffffffffffffffffffffffffff168473ffffffffffffffffffffffffffffffffffffffff16036120b2575f6040517f57f447ce0000000000000000000000000000000000000000000000000000000081526004016120a99190614806565b60405180910390fd5b5f73ffffffffffffffffffffffffffffffffffffffff168573ffffffffffffffffffffffffffffffffffffffff1603612122575f6040517f01a835140000000000000000000000000000000000000000000000000000000081526004016121199190614806565b60405180910390fd5b61212f8585858585612824565b5050505050565b6121478161214261203b565b6128d0565b50565b5f61215583836110da565b61222a57600160035f8581526020019081526020015f205f015f8473ffffffffffffffffffffffffffffffffffffffff1673ffffffffffffffffffffffffffffffffffffffff1681526020019081526020015f205f6101000a81548160ff0219169083151502179055506121c761203b565b73ffffffffffffffffffffffffffffffffffffffff168273ffffffffffffffffffffffffffffffffffffffff16847f2f8788117e7eff1d82e926ec794901d17c78024a50270940304540a733656f0d60405160405180910390a46001905061222e565b5f90505b92915050565b5f61223f83836110da565b15612314575f60035f8581526020019081526020015f205f015f8473ffffffffffffffffffffffffffffffffffffffff1673ffffffffffffffffffffffffffffffffffffffff1681526020019081526020015f205f6101000a81548160ff0219169083151502179055506122b161203b565b73ffffffffffffffffffffffffffffffffffffffff168273ffffffffffffffffffffffffffffffffffffffff16847ff6391f5c32d9c69d2a47ea670b442974b53935d1edc7fd64eb21e047a839171b60405160405180910390a460019050612318565b5f90505b92915050565b600260045403612363576040517f08c379a000000000000000000000000000000000000000000000000000000000815260040161235a90614869565b60405180910390fd5b6002600481905550565b6001600481905550565b5f60208202602084010151905092915050565b5f60208202602084010151905092915050565b5f73ffffffffffffffffffffffffffffffffffffffff168473ffffffffffffffffffffffffffffffffffffffff160361240d575f6040517f57f447ce0000000000000000000000000000000000000000000000000000000081526004016124049190614806565b60405180910390fd5b5f73ffffffffffffffffffffffffffffffffffffffff168573ffffffffffffffffffffffffffffffffffffffff160361247d575f6040517f01a835140000000000000000000000000000000000000000000000000000000081526004016124749190614806565b60405180910390fd5b5f806124898585612921565b9150915061249a8787848487612824565b50505050505050565b5f73ffffffffffffffffffffffffffffffffffffffff168473ffffffffffffffffffffffffffffffffffffffff1603612513575f6040517f57f447ce00000000000000000000000000000000000000000000000000000000815260040161250a9190614806565b60405180910390fd5b5f8061251f8585612921565b915091506125305f87848487612824565b505050505050565b5f73ffffffffffffffffffffffffffffffffffffffff168373ffffffffffffffffffffffffffffffffffffffff16036125a8575f6040517f01a8351400000000000000000000000000000000000000000000000000000000815260040161259f9190614806565b60405180910390fd5b5f806125b48484612921565b915091506125d3855f848460405180602001604052805f815250612824565b5050505050565b5f73ffffffffffffffffffffffffffffffffffffffff168273ffffffffffffffffffffffffffffffffffffffff160361264a575f6040517fced3e1000000000000000000000000000000000000000000000000000000000081526004016126419190614806565b60405180910390fd5b8060015f8573ffffffffffffffffffffffffffffffffffffffff1673ffffffffffffffffffffffffffffffffffffffff1681526020019081526020015f205f8473ffffffffffffffffffffffffffffffffffffffff1673ffffffffffffffffffffffffffffffffffffffff1681526020019081526020015f205f6101000a81548160ff0219169083151502179055508173ffffffffffffffffffffffffffffffffffffffff168373ffffffffffffffffffffffffffffffffffffffff167f17307eab39ab6107e8899845ad3d59bd9653f200f220920489ca2b5937696c318360405161273691906132df565b60405180910390a3505050565b5f7fd9b67a26000000000000000000000000000000000000000000000000000000007bffffffffffffffffffffffffffffffffffffffffffffffffffffffff1916827bffffffffffffffffffffffffffffffffffffffffffffffffffffffff1916148061280d57507f0e89341c000000000000000000000000000000000000000000000000000000007bffffffffffffffffffffffffffffffffffffffffffffffffffffffff1916827bffffffffffffffffffffffffffffffffffffffffffffffffffffffff1916145b8061281d575061281c82612951565b5b9050919050565b612830858585856129ba565b5f73ffffffffffffffffffffffffffffffffffffffff168473ffffffffffffffffffffffffffffffffffffffff16146128c9575f61286c61203b565b905060018451036128b8575f61288b5f8661238a90919063ffffffff16565b90505f6128a15f8661238a90919063ffffffff16565b90506128b1838989858589612d4a565b50506128c7565b6128c6818787878787612ef9565b5b505b5050505050565b6128da82826110da565b61291d5780826040517fe2517d3f000000000000000000000000000000000000000000000000000000008152600401612914929190614887565b60405180910390fd5b5050565b60608060405191506001825283602083015260408201905060018152826020820152604081016040529250929050565b5f7f01ffc9a7000000000000000000000000000000000000000000000000000000007bffffffffffffffffffffffffffffffffffffffffffffffffffffffff1916827bffffffffffffffffffffffffffffffffffffffffffffffffffffffff1916149050919050565b8051825114612a0457815181516040517f5b0599910000000000000000000000000000000000000000000000000000000081526004016129fb92919061414b565b60405180910390fd5b5f612a0d61203b565b90505f5b8351811015612c09575f612a2e828661238a90919063ffffffff16565b90505f612a44838661238a90919063ffffffff16565b90505f73ffffffffffffffffffffffffffffffffffffffff168873ffffffffffffffffffffffffffffffffffffffff1614612b67575f805f8481526020019081526020015f205f8a73ffffffffffffffffffffffffffffffffffffffff1673ffffffffffffffffffffffffffffffffffffffff1681526020019081526020015f2054905081811015612b1357888183856040517f03dee4c5000000000000000000000000000000000000000000000000000000008152600401612b0a94939291906148ae565b60405180910390fd5b8181035f808581526020019081526020015f205f8b73ffffffffffffffffffffffffffffffffffffffff1673ffffffffffffffffffffffffffffffffffffffff1681526020019081526020015f2081905550505b5f73ffffffffffffffffffffffffffffffffffffffff168773ffffffffffffffffffffffffffffffffffffffff1614612bfc57805f808481526020019081526020015f205f8973ffffffffffffffffffffffffffffffffffffffff1673ffffffffffffffffffffffffffffffffffffffff1681526020019081526020015f205f828254612bf49190614118565b925050819055505b5050806001019050612a11565b506001835103612cc4575f612c275f8561238a90919063ffffffff16565b90505f612c3d5f8561238a90919063ffffffff16565b90508573ffffffffffffffffffffffffffffffffffffffff168773ffffffffffffffffffffffffffffffffffffffff168473ffffffffffffffffffffffffffffffffffffffff167fc3d58168c5ae7397731d063d5bbf3d657854427343f4c083240f7aacaa2d0f628585604051612cb592919061414b565b60405180910390a45050612d43565b8373ffffffffffffffffffffffffffffffffffffffff168573ffffffffffffffffffffffffffffffffffffffff168273ffffffffffffffffffffffffffffffffffffffff167f4a39dc06d4c0dbc64b70af90fd698a233a518aa5d07e595d983b8c0526c8f7fb8686604051612d3a9291906148f1565b60405180910390a45b5050505050565b5f8473ffffffffffffffffffffffffffffffffffffffff163b1115612ef1578373ffffffffffffffffffffffffffffffffffffffff1663f23a6e6187878686866040518663ffffffff1660e01b8152600401612daa959493929190614926565b6020604051808303815f875af1925050508015612de557506040513d601f19601f82011682018060405250810190612de29190614992565b60015b612e66573d805f8114612e13576040519150601f19603f3d011682016040523d82523d5f602084013e612e18565b606091505b505f815103612e5e57846040517f57f447ce000000000000000000000000000000000000000000000000000000008152600401612e559190614806565b60405180910390fd5b805181602001fd5b63f23a6e6160e01b7bffffffffffffffffffffffffffffffffffffffffffffffffffffffff1916817bffffffffffffffffffffffffffffffffffffffffffffffffffffffff191614612eef57846040517f57f447ce000000000000000000000000000000000000000000000000000000008152600401612ee69190614806565b60405180910390fd5b505b505050505050565b5f8473ffffffffffffffffffffffffffffffffffffffff163b11156130a0578373ffffffffffffffffffffffffffffffffffffffff1663bc197c8187878686866040518663ffffffff1660e01b8152600401612f599594939291906149bd565b6020604051808303815f875af1925050508015612f9457506040513d601f19601f82011682018060405250810190612f919190614992565b60015b613015573d805f8114612fc2576040519150601f19603f3d011682016040523d82523d5f602084013e612fc7565b606091505b505f81510361300d57846040517f57f447ce0000000000000000000000000000000000000000000000000000000081526004016130049190614806565b60405180910390fd5b805181602001fd5b63bc197c8160e01b7bffffffffffffffffffffffffffffffffffffffffffffffffffffffff1916817bffffffffffffffffffffffffffffffffffffffffffffffffffffffff19161461309e57846040517f57f447ce0000000000000000000000000000000000000000000000000000000081526004016130959190614806565b60405180910390fd5b505b505050505050565b6040518061018001604052805f8152602001606081526020015f801916815260200160608152602001606081526020015f81526020015f81526020015f81526020015f81526020015f73ffffffffffffffffffffffffffffffffffffffff1681526020015f73ffffffffffffffffffffffffffffffffffffffff1681526020015f600481111561313b5761313a613741565b5b81525090565b5f604051905090565b5f80fd5b5f80fd5b5f73ffffffffffffffffffffffffffffffffffffffff82169050919050565b5f61317b82613152565b9050919050565b61318b81613171565b8114613195575f80fd5b50565b5f813590506131a681613182565b92915050565b5f819050919050565b6131be816131ac565b81146131c8575f80fd5b50565b5f813590506131d9816131b5565b92915050565b5f80604083850312156131f5576131f461314a565b5b5f61320285828601613198565b9250506020613213858286016131cb565b9150509250929050565b613226816131ac565b82525050565b5f60208201905061323f5f83018461321d565b92915050565b5f7fffffffff0000000000000000000000000000000000000000000000000000000082169050919050565b61327981613245565b8114613283575f80fd5b50565b5f8135905061329481613270565b92915050565b5f602082840312156132af576132ae61314a565b5b5f6132bc84828501613286565b91505092915050565b5f8115159050919050565b6132d9816132c5565b82525050565b5f6020820190506132f25f8301846132d0565b92915050565b5f6020828403121561330d5761330c61314a565b5b5f61331a848285016131cb565b91505092915050565b5f81519050919050565b5f82825260208201905092915050565b8281835e5f83830152505050565b5f601f19601f8301169050919050565b5f61336582613323565b61336f818561332d565b935061337f81856020860161333d565b6133888161334b565b840191505092915050565b5f6020820190508181035f8301526133ab818461335b565b905092915050565b5f819050919050565b6133c5816133b3565b81146133cf575f80fd5b50565b5f813590506133e0816133bc565b92915050565b5f602082840312156133fb576133fa61314a565b5b5f613408848285016133d2565b91505092915050565b61341a816133b3565b82525050565b5f6020820190506134335f830184613411565b92915050565b5f80fd5b7f4e487b71000000000000000000000000000000000000000000000000000000005f52604160045260245ffd5b6134738261334b565b810181811067ffffffffffffffff821117156134925761349161343d565b5b80604052505050565b5f6134a4613141565b90506134b0828261346a565b919050565b5f67ffffffffffffffff8211156134cf576134ce61343d565b5b602082029050602081019050919050565b5f80fd5b5f6134f66134f1846134b5565b61349b565b90508083825260208201905060208402830185811115613519576135186134e0565b5b835b81811015613542578061352e88826131cb565b84526020840193505060208101905061351b565b5050509392505050565b5f82601f8301126135605761355f613439565b5b81356135708482602086016134e4565b91505092915050565b5f80fd5b5f67ffffffffffffffff8211156135975761359661343d565b5b6135a08261334b565b9050602081019050919050565b828183375f83830152505050565b5f6135cd6135c88461357d565b61349b565b9050828152602081018484840111156135e9576135e8613579565b5b6135f48482856135ad565b509392505050565b5f82601f8301126136105761360f613439565b5b81356136208482602086016135bb565b91505092915050565b5f805f805f60a086880312156136425761364161314a565b5b5f61364f88828901613198565b955050602061366088828901613198565b945050604086013567ffffffffffffffff8111156136815761368061314e565b5b61368d8882890161354c565b935050606086013567ffffffffffffffff8111156136ae576136ad61314e565b5b6136ba8882890161354c565b925050608086013567ffffffffffffffff8111156136db576136da61314e565b5b6136e7888289016135fc565b9150509295509295909350565b5f806040838503121561370a5761370961314a565b5b5f613717858286016133d2565b925050602061372885828601613198565b9150509250929050565b61373b81613171565b82525050565b7f4e487b71000000000000000000000000000000000000000000000000000000005f52602160045260245ffd5b6005811061377f5761377e613741565b5b50565b5f81905061378f8261376e565b919050565b5f61379e82613782565b9050919050565b6137ae81613794565b82525050565b5f610180820190506137c85f83018f61321d565b81810360208301526137da818e61335b565b90506137e9604083018d613411565b81810360608301526137fb818c61335b565b9050818103608083015261380f818b61335b565b905061381e60a083018a61321d565b61382b60c083018961321d565b61383860e083018861321d565b61384661010083018761321d565b613854610120830186613732565b613862610140830185613732565b6138706101608301846137a5565b9d9c50505050505050505050505050565b5f80604083850312156138975761389661314a565b5b5f6138a4858286016131cb565b92505060206138b5858286016131cb565b9150509250929050565b5f67ffffffffffffffff8211156138d9576138d861343d565b5b602082029050602081019050919050565b5f6138fc6138f7846138bf565b61349b565b9050808382526020820190506020840283018581111561391f5761391e6134e0565b5b835b8181101561394857806139348882613198565b845260208401935050602081019050613921565b5050509392505050565b5f82601f83011261396657613965613439565b5b81356139768482602086016138ea565b91505092915050565b5f80604083850312156139955761399461314a565b5b5f83013567ffffffffffffffff8111156139b2576139b161314e565b5b6139be85828601613952565b925050602083013567ffffffffffffffff8111156139df576139de61314e565b5b6139eb8582860161354c565b9150509250929050565b5f81519050919050565b5f82825260208201905092915050565b5f819050602082019050919050565b613a27816131ac565b82525050565b5f613a388383613a1e565b60208301905092915050565b5f602082019050919050565b5f613a5a826139f5565b613a6481856139ff565b9350613a6f83613a0f565b805f5b83811015613a9f578151613a868882613a2d565b9750613a9183613a44565b925050600181019050613a72565b5085935050505092915050565b5f6020820190508181035f830152613ac48184613a50565b905092915050565b5f67ffffffffffffffff821115613ae657613ae561343d565b5b613aef8261334b565b9050602081019050919050565b5f613b0e613b0984613acc565b61349b565b905082815260208101848484011115613b2a57613b29613579565b5b613b358482856135ad565b509392505050565b5f82601f830112613b5157613b50613439565b5b8135613b61848260208601613afc565b91505092915050565b5f805f805f8060c08789031215613b8457613b8361314a565b5b5f87013567ffffffffffffffff811115613ba157613ba061314e565b5b613bad89828a01613b3d565b9650506020613bbe89828a016133d2565b955050604087013567ffffffffffffffff811115613bdf57613bde61314e565b5b613beb89828a01613b3d565b945050606087013567ffffffffffffffff811115613c0c57613c0b61314e565b5b613c1889828a01613b3d565b9350506080613c2989828a016131cb565b92505060a0613c3a89828a016131cb565b9150509295509295509295565b613c50816132c5565b8114613c5a575f80fd5b50565b5f81359050613c6b81613c47565b92915050565b5f8060408385031215613c8757613c8661314a565b5b5f613c94858286016131cb565b9250506020613ca585828601613c5d565b9150509250929050565b5f8060408385031215613cc557613cc461314a565b5b5f613cd285828601613198565b9250506020613ce385828601613c5d565b9150509250929050565b5f60208284031215613d0257613d0161314a565b5b5f613d0f84828501613198565b91505092915050565b5f81519050919050565b5f82825260208201905092915050565b5f613d3c82613d18565b613d468185613d22565b9350613d5681856020860161333d565b613d5f8161334b565b840191505092915050565b5f6020820190508181035f830152613d828184613d32565b905092915050565b5f8060408385031215613da057613d9f61314a565b5b5f613dad85828601613198565b9250506020613dbe85828601613198565b9150509250929050565b5f82825260208201905092915050565b5f613de282613323565b613dec8185613dc8565b9350613dfc81856020860161333d565b613e058161334b565b840191505092915050565b613e19816133b3565b82525050565b613e2881613171565b82525050565b613e3781613794565b82525050565b5f61018083015f830151613e535f860182613a1e565b5060208301518482036020860152613e6b8282613dd8565b9150506040830151613e806040860182613e10565b5060608301518482036060860152613e988282613dd8565b91505060808301518482036080860152613eb28282613dd8565b91505060a0830151613ec760a0860182613a1e565b5060c0830151613eda60c0860182613a1e565b5060e0830151613eed60e0860182613a1e565b50610100830151613f02610100860182613a1e565b50610120830151613f17610120860182613e1f565b50610140830151613f2c610140860182613e1f565b50610160830151613f41610160860182613e2e565b508091505092915050565b5f6020820190508181035f830152613f648184613e3d565b905092915050565b5f805f805f60a08688031215613f8557613f8461314a565b5b5f613f9288828901613198565b9550506020613fa388828901613198565b9450506040613fb4888289016131cb565b9350506060613fc5888289016131cb565b925050608086013567ffffffffffffffff811115613fe657613fe561314e565b5b613ff2888289016135fc565b9150509295509295909350565b7f4e487b71000000000000000000000000000000000000000000000000000000005f52602260045260245ffd5b5f600282049050600182168061404357607f821691505b60208210810361405657614055613fff565b5b50919050565b5f60408201905061406f5f830185613732565b61407c6020830184613732565b9392505050565b7f4f6e6c79206172746973742063616e206465706f7369740000000000000000005f82015250565b5f6140b760178361332d565b91506140c282614083565b602082019050919050565b5f6020820190508181035f8301526140e4816140ab565b9050919050565b7f4e487b71000000000000000000000000000000000000000000000000000000005f52601160045260245ffd5b5f614122826131ac565b915061412d836131ac565b9250828201905080821115614145576141446140eb565b5b92915050565b5f60408201905061415e5f83018561321d565b61416b602083018461321d565b9392505050565b7f4e487b71000000000000000000000000000000000000000000000000000000005f52603260045260245ffd5b7f4f6e6c79206172746973742063616e20776974686472617700000000000000005f82015250565b5f6141d360188361332d565b91506141de8261419f565b602082019050919050565b5f6020820190508181035f830152614200816141c7565b9050919050565b7f496e73756666696369656e74206465706f7369740000000000000000000000005f82015250565b5f61423b60148361332d565b915061424682614207565b602082019050919050565b5f6020820190508181035f8301526142688161422f565b9050919050565b5f614279826131ac565b9150614284836131ac565b925082820390508181111561429c5761429b6140eb565b5b92915050565b5f6142ac826131ac565b91507fffffffffffffffffffffffffffffffffffffffffffffffffffffffffffffffff82036142de576142dd6140eb565b5b600182019050919050565b5f819050815f5260205f209050919050565b5f6020601f8301049050919050565b5f82821b905092915050565b5f600883026143457fffffffffffffffffffffffffffffffffffffffffffffffffffffffffffffffff8261430a565b61434f868361430a565b95508019841693508086168417925050509392505050565b5f819050919050565b5f61438a614385614380846131ac565b614367565b6131ac565b9050919050565b5f819050919050565b6143a383614370565b6143b76143af82614391565b848454614316565b825550505050565b5f90565b6143cb6143bf565b6143d681848461439a565b505050565b5b818110156143f9576143ee5f826143c3565b6001810190506143dc565b5050565b601f82111561443e5761440f816142e9565b614418846142fb565b81016020851015614427578190505b61443b614433856142fb565b8301826143db565b50505b505050565b5f82821c905092915050565b5f61445e5f1984600802614443565b1980831691505092915050565b5f614476838361444f565b9150826002028217905092915050565b61448f82613323565b67ffffffffffffffff8111156144a8576144a761343d565b5b6144b2825461402c565b6144bd8282856143fd565b5f60209050601f8311600181146144ee575f84156144dc578287015190505b6144e6858261446b565b86555061454d565b601f1984166144fc866142e9565b5f5b82811015614523578489015182556001820191506020850194506020810190506144fe565b86831015614540578489015161453c601f89168261444f565b8355505b6001600288020188555050505b505050505050565b7f417274776f726b206e6f7420696e2064697370757465000000000000000000005f82015250565b5f61458960168361332d565b915061459482614555565b602082019050919050565b5f6020820190508181035f8301526145b68161457d565b9050919050565b5f6145c7826131ac565b91506145d2836131ac565b92508282026145e0816131ac565b915082820484148315176145f7576145f66140eb565b5b5092915050565b7f417274776f726b206e6f7420617661696c61626c6500000000000000000000005f82015250565b5f61463260158361332d565b915061463d826145fe565b602082019050919050565b5f6020820190508181035f83015261465f81614626565b9050919050565b7f416c6c204e465473206d696e74656400000000000000000000000000000000005f82015250565b5f61469a600f8361332d565b91506146a582614666565b602082019050919050565b5f6020820190508181035f8301526146c78161468e565b9050919050565b7f417274697374206465706f73697420696e73756666696369656e7400000000005f82015250565b5f614702601b8361332d565b915061470d826146ce565b602082019050919050565b5f6020820190508181035f83015261472f816146f6565b9050919050565b7f43616c6c6572206973206e6f74207468652062757965720000000000000000005f82015250565b5f61476a60178361332d565b915061477582614736565b602082019050919050565b5f6020820190508181035f8301526147978161475e565b9050919050565b7f417274776f726b206e6f742061637469766500000000000000000000000000005f82015250565b5f6147d260128361332d565b91506147dd8261479e565b602082019050919050565b5f6020820190508181035f8301526147ff816147c6565b9050919050565b5f6020820190506148195f830184613732565b92915050565b7f5265656e7472616e637947756172643a207265656e7472616e742063616c6c005f82015250565b5f614853601f8361332d565b915061485e8261481f565b602082019050919050565b5f6020820190508181035f83015261488081614847565b9050919050565b5f60408201905061489a5f830185613732565b6148a76020830184613411565b9392505050565b5f6080820190506148c15f830187613732565b6148ce602083018661321d565b6148db604083018561321d565b6148e8606083018461321d565b95945050505050565b5f6040820190508181035f8301526149098185613a50565b9050818103602083015261491d8184613a50565b90509392505050565b5f60a0820190506149395f830188613732565b6149466020830187613732565b614953604083018661321d565b614960606083018561321d565b81810360808301526149728184613d32565b90509695505050505050565b5f8151905061498c81613270565b92915050565b5f602082840312156149a7576149a661314a565b5b5f6149b48482850161497e565b91505092915050565b5f60a0820190506149d05f830188613732565b6149dd6020830187613732565b81810360408301526149ef8186613a50565b90508181036060830152614a038185613a50565b90508181036080830152614a178184613d32565b9050969550505050505056fea26469706673582212207c0b7e0bce647d77320fe311e3d3b7506e830ab8d0911c5ed5e08ad89b3e754a64736f6c634300081a0033",
			"opcodes": "PUSH1 0x80 PUSH1 0x40 MSTORE CALLVALUE DUP1 ISZERO PUSH2 0xF JUMPI PUSH0 DUP1 REVERT JUMPDEST POP PUSH1 0x40 MLOAD PUSH2 0x50AD CODESIZE SUB DUP1 PUSH2 0x50AD DUP4 CODECOPY DUP2 DUP2 ADD PUSH1 0x40 MSTORE DUP2 ADD SWAP1 PUSH2 0x31 SWAP2 SWAP1 PUSH2 0x324 JUMP JUMPDEST DUP1 PUSH2 0x41 DUP2 PUSH2 0x63 PUSH1 0x20 SHL PUSH1 0x20 SHR JUMP JUMPDEST POP PUSH1 0x1 PUSH1 0x4 DUP2 SWAP1 SSTORE POP PUSH2 0x5C PUSH0 DUP1 SHL CALLER PUSH2 0x76 PUSH1 0x20 SHL PUSH1 0x20 SHR JUMP JUMPDEST POP POP PUSH2 0x647 JUMP JUMPDEST DUP1 PUSH1 0x2 SWAP1 DUP2 PUSH2 0x72 SWAP2 SWAP1 PUSH2 0x578 JUMP JUMPDEST POP POP JUMP JUMPDEST PUSH0 PUSH2 0x87 DUP4 DUP4 PUSH2 0x16C PUSH1 0x20 SHL PUSH1 0x20 SHR JUMP JUMPDEST PUSH2 0x162 JUMPI PUSH1 0x1 PUSH1 0x3 PUSH0 DUP6 DUP2 MSTORE PUSH1 0x20 ADD SWAP1 DUP2 MSTORE PUSH1 0x20 ADD PUSH0 KECCAK256 PUSH0 ADD PUSH0 DUP5 PUSH20 0xFFFFFFFFFFFFFFFFFFFFFFFFFFFFFFFFFFFFFFFF AND PUSH20 0xFFFFFFFFFFFFFFFFFFFFFFFFFFFFFFFFFFFFFFFF AND DUP2 MSTORE PUSH1 0x20 ADD SWAP1 DUP2 MSTORE PUSH1 0x20 ADD PUSH0 KECCAK256 PUSH0 PUSH2 0x100 EXP DUP2 SLOAD DUP2 PUSH1 0xFF MUL NOT AND SWAP1 DUP4 ISZERO ISZERO MUL OR SWAP1 SSTORE POP PUSH2 0xFF PUSH2 0x1D0 PUSH1 0x20 SHL PUSH1 0x20 SHR JUMP JUMPDEST PUSH20 0xFFFFFFFFFFFFFFFFFFFFFFFFFFFFFFFFFFFFFFFF AND DUP3 PUSH20 0xFFFFFFFFFFFFFFFFFFFFFFFFFFFFFFFFFFFFFFFF AND DUP5 PUSH32 0x2F8788117E7EFF1D82E926EC794901D17C78024A50270940304540A733656F0D PUSH1 0x40 MLOAD PUSH1 0x40 MLOAD DUP1 SWAP2 SUB SWAP1 LOG4 PUSH1 0x1 SWAP1 POP PUSH2 0x166 JUMP JUMPDEST PUSH0 SWAP1 POP JUMPDEST SWAP3 SWAP2 POP POP JUMP JUMPDEST PUSH0 PUSH1 0x3 PUSH0 DUP5 DUP2 MSTORE PUSH1 0x20 ADD SWAP1 DUP2 MSTORE PUSH1 0x20 ADD PUSH0 KECCAK256 PUSH0 ADD PUSH0 DUP4 PUSH20 0xFFFFFFFFFFFFFFFFFFFFFFFFFFFFFFFFFFFFFFFF AND PUSH20 0xFFFFFFFFFFFFFFFFFFFFFFFFFFFFFFFFFFFFFFFF AND DUP2 MSTORE PUSH1 0x20 ADD SWAP1 DUP2 MSTORE PUSH1 0x20 ADD PUSH0 KECCAK256 PUSH0 SWAP1 SLOAD SWAP1 PUSH2 0x100 EXP SWAP1 DIV PUSH1 0xFF AND SWAP1 POP SWAP3 SWAP2 POP POP JUMP JUMPDEST PUSH0 CALLER SWAP1 POP SWAP1 JUMP JUMPDEST PUSH0 PUSH1 0x40 MLOAD SWAP1 POP SWAP1 JUMP JUMPDEST PUSH0 DUP1 REVERT JUMPDEST PUSH0 DUP1 REVERT JUMPDEST PUSH0 DUP1 REVERT JUMPDEST PUSH0 DUP1 REVERT JUMPDEST PUSH0 PUSH1 0x1F NOT PUSH1 0x1F DUP4 ADD AND SWAP1 POP SWAP2 SWAP1 POP JUMP JUMPDEST PUSH32 0x4E487B7100000000000000000000000000000000000000000000000000000000 PUSH0 MSTORE PUSH1 0x41 PUSH1 0x4 MSTORE PUSH1 0x24 PUSH0 REVERT JUMPDEST PUSH2 0x236 DUP3 PUSH2 0x1F0 JUMP JUMPDEST DUP2 ADD DUP2 DUP2 LT PUSH8 0xFFFFFFFFFFFFFFFF DUP3 GT OR ISZERO PUSH2 0x255 JUMPI PUSH2 0x254 PUSH2 0x200 JUMP JUMPDEST JUMPDEST DUP1 PUSH1 0x40 MSTORE POP POP POP JUMP JUMPDEST PUSH0 PUSH2 0x267 PUSH2 0x1D7 JUMP JUMPDEST SWAP1 POP PUSH2 0x273 DUP3 DUP3 PUSH2 0x22D JUMP JUMPDEST SWAP2 SWAP1 POP JUMP JUMPDEST PUSH0 PUSH8 0xFFFFFFFFFFFFFFFF DUP3 GT ISZERO PUSH2 0x292 JUMPI PUSH2 0x291 PUSH2 0x200 JUMP JUMPDEST JUMPDEST PUSH2 0x29B DUP3 PUSH2 0x1F0 JUMP JUMPDEST SWAP1 POP PUSH1 0x20 DUP2 ADD SWAP1 POP SWAP2 SWAP1 POP JUMP JUMPDEST DUP3 DUP2 DUP4 MCOPY PUSH0 DUP4 DUP4 ADD MSTORE POP POP POP JUMP JUMPDEST PUSH0 PUSH2 0x2C8 PUSH2 0x2C3 DUP5 PUSH2 0x278 JUMP JUMPDEST PUSH2 0x25E JUMP JUMPDEST SWAP1 POP DUP3 DUP2 MSTORE PUSH1 0x20 DUP2 ADD DUP5 DUP5 DUP5 ADD GT ISZERO PUSH2 0x2E4 JUMPI PUSH2 0x2E3 PUSH2 0x1EC JUMP JUMPDEST JUMPDEST PUSH2 0x2EF DUP5 DUP3 DUP6 PUSH2 0x2A8 JUMP JUMPDEST POP SWAP4 SWAP3 POP POP POP JUMP JUMPDEST PUSH0 DUP3 PUSH1 0x1F DUP4 ADD SLT PUSH2 0x30B JUMPI PUSH2 0x30A PUSH2 0x1E8 JUMP JUMPDEST JUMPDEST DUP2 MLOAD PUSH2 0x31B DUP5 DUP3 PUSH1 0x20 DUP7 ADD PUSH2 0x2B6 JUMP JUMPDEST SWAP2 POP POP SWAP3 SWAP2 POP POP JUMP JUMPDEST PUSH0 PUSH1 0x20 DUP3 DUP5 SUB SLT ISZERO PUSH2 0x339 JUMPI PUSH2 0x338 PUSH2 0x1E0 JUMP JUMPDEST JUMPDEST PUSH0 DUP3 ADD MLOAD PUSH8 0xFFFFFFFFFFFFFFFF DUP2 GT ISZERO PUSH2 0x356 JUMPI PUSH2 0x355 PUSH2 0x1E4 JUMP JUMPDEST JUMPDEST PUSH2 0x362 DUP5 DUP3 DUP6 ADD PUSH2 0x2F7 JUMP JUMPDEST SWAP2 POP POP SWAP3 SWAP2 POP POP JUMP JUMPDEST PUSH0 DUP2 MLOAD SWAP1 POP SWAP2 SWAP1 POP JUMP JUMPDEST PUSH32 0x4E487B7100000000000000000000000000000000000000000000000000000000 PUSH0 MSTORE PUSH1 0x22 PUSH1 0x4 MSTORE PUSH1 0x24 PUSH0 REVERT JUMPDEST PUSH0 PUSH1 0x2 DUP3 DIV SWAP1 POP PUSH1 0x1 DUP3 AND DUP1 PUSH2 0x3B9 JUMPI PUSH1 0x7F DUP3 AND SWAP2 POP JUMPDEST PUSH1 0x20 DUP3 LT DUP2 SUB PUSH2 0x3CC JUMPI PUSH2 0x3CB PUSH2 0x375 JUMP JUMPDEST JUMPDEST POP SWAP2 SWAP1 POP JUMP JUMPDEST PUSH0 DUP2 SWAP1 POP DUP2 PUSH0 MSTORE PUSH1 0x20 PUSH0 KECCAK256 SWAP1 POP SWAP2 SWAP1 POP JUMP JUMPDEST PUSH0 PUSH1 0x20 PUSH1 0x1F DUP4 ADD DIV SWAP1 POP SWAP2 SWAP1 POP JUMP JUMPDEST PUSH0 DUP3 DUP3 SHL SWAP1 POP SWAP3 SWAP2 POP POP JUMP JUMPDEST PUSH0 PUSH1 0x8 DUP4 MUL PUSH2 0x42E PUSH32 0xFFFFFFFFFFFFFFFFFFFFFFFFFFFFFFFFFFFFFFFFFFFFFFFFFFFFFFFFFFFFFFFF DUP3 PUSH2 0x3F3 JUMP JUMPDEST PUSH2 0x438 DUP7 DUP4 PUSH2 0x3F3 JUMP JUMPDEST SWAP6 POP DUP1 NOT DUP5 AND SWAP4 POP DUP1 DUP7 AND DUP5 OR SWAP3 POP POP POP SWAP4 SWAP3 POP POP POP JUMP JUMPDEST PUSH0 DUP2 SWAP1 POP SWAP2 SWAP1 POP JUMP JUMPDEST PUSH0 DUP2 SWAP1 POP SWAP2 SWAP1 POP JUMP JUMPDEST PUSH0 PUSH2 0x47C PUSH2 0x477 PUSH2 0x472 DUP5 PUSH2 0x450 JUMP JUMPDEST PUSH2 0x459 JUMP JUMPDEST PUSH2 0x450 JUMP JUMPDEST SWAP1 POP SWAP2 SWAP1 POP JUMP JUMPDEST PUSH0 DUP2 SWAP1 POP SWAP2 SWAP1 POP JUMP JUMPDEST PUSH2 0x495 DUP4 PUSH2 0x462 JUMP JUMPDEST PUSH2 0x4A9 PUSH2 0x4A1 DUP3 PUSH2 0x483 JUMP JUMPDEST DUP5 DUP5 SLOAD PUSH2 0x3FF JUMP JUMPDEST DUP3 SSTORE POP POP POP POP JUMP JUMPDEST PUSH0 SWAP1 JUMP JUMPDEST PUSH2 0x4BD PUSH2 0x4B1 JUMP JUMPDEST PUSH2 0x4C8 DUP2 DUP5 DUP5 PUSH2 0x48C JUMP JUMPDEST POP POP POP JUMP JUMPDEST JUMPDEST DUP2 DUP2 LT ISZERO PUSH2 0x4EB JUMPI PUSH2 0x4E0 PUSH0 DUP3 PUSH2 0x4B5 JUMP JUMPDEST PUSH1 0x1 DUP2 ADD SWAP1 POP PUSH2 0x4CE JUMP JUMPDEST POP POP JUMP JUMPDEST PUSH1 0x1F DUP3 GT ISZERO PUSH2 0x530 JUMPI PUSH2 0x501 DUP2 PUSH2 0x3D2 JUMP JUMPDEST PUSH2 0x50A DUP5 PUSH2 0x3E4 JUMP JUMPDEST DUP2 ADD PUSH1 0x20 DUP6 LT ISZERO PUSH2 0x519 JUMPI DUP2 SWAP1 POP JUMPDEST PUSH2 0x52D PUSH2 0x525 DUP6 PUSH2 0x3E4 JUMP JUMPDEST DUP4 ADD DUP3 PUSH2 0x4CD JUMP JUMPDEST POP POP JUMPDEST POP POP POP JUMP JUMPDEST PUSH0 DUP3 DUP3 SHR SWAP1 POP SWAP3 SWAP2 POP POP JUMP JUMPDEST PUSH0 PUSH2 0x550 PUSH0 NOT DUP5 PUSH1 0x8 MUL PUSH2 0x535 JUMP JUMPDEST NOT DUP1 DUP4 AND SWAP2 POP POP SWAP3 SWAP2 POP POP JUMP JUMPDEST PUSH0 PUSH2 0x568 DUP4 DUP4 PUSH2 0x541 JUMP JUMPDEST SWAP2 POP DUP3 PUSH1 0x2 MUL DUP3 OR SWAP1 POP SWAP3 SWAP2 POP POP JUMP JUMPDEST PUSH2 0x581 DUP3 PUSH2 0x36B JUMP JUMPDEST PUSH8 0xFFFFFFFFFFFFFFFF DUP2 GT ISZERO PUSH2 0x59A JUMPI PUSH2 0x599 PUSH2 0x200 JUMP JUMPDEST JUMPDEST PUSH2 0x5A4 DUP3 SLOAD PUSH2 0x3A2 JUMP JUMPDEST PUSH2 0x5AF DUP3 DUP3 DUP6 PUSH2 0x4EF JUMP JUMPDEST PUSH0 PUSH1 0x20 SWAP1 POP PUSH1 0x1F DUP4 GT PUSH1 0x1 DUP2 EQ PUSH2 0x5E0 JUMPI PUSH0 DUP5 ISZERO PUSH2 0x5CE JUMPI DUP3 DUP8 ADD MLOAD SWAP1 POP JUMPDEST PUSH2 0x5D8 DUP6 DUP3 PUSH2 0x55D JUMP JUMPDEST DUP7 SSTORE POP PUSH2 0x63F JUMP JUMPDEST PUSH1 0x1F NOT DUP5 AND PUSH2 0x5EE DUP7 PUSH2 0x3D2 JUMP JUMPDEST PUSH0 JUMPDEST DUP3 DUP2 LT ISZERO PUSH2 0x615 JUMPI DUP5 DUP10 ADD MLOAD DUP3 SSTORE PUSH1 0x1 DUP3 ADD SWAP2 POP PUSH1 0x20 DUP6 ADD SWAP5 POP PUSH1 0x20 DUP2 ADD SWAP1 POP PUSH2 0x5F0 JUMP JUMPDEST DUP7 DUP4 LT ISZERO PUSH2 0x632 JUMPI DUP5 DUP10 ADD MLOAD PUSH2 0x62E PUSH1 0x1F DUP10 AND DUP3 PUSH2 0x541 JUMP JUMPDEST DUP4 SSTORE POP JUMPDEST PUSH1 0x1 PUSH1 0x2 DUP9 MUL ADD DUP9 SSTORE POP POP POP JUMPDEST POP POP POP POP POP POP JUMP JUMPDEST PUSH2 0x4A59 DUP1 PUSH2 0x654 PUSH0 CODECOPY PUSH0 RETURN INVALID PUSH1 0x80 PUSH1 0x40 MSTORE CALLVALUE DUP1 ISZERO PUSH2 0xF JUMPI PUSH0 DUP1 REVERT JUMPDEST POP PUSH1 0x4 CALLDATASIZE LT PUSH2 0x1C1 JUMPI PUSH0 CALLDATALOAD PUSH1 0xE0 SHR DUP1 PUSH4 0x91D14854 GT PUSH2 0xF7 JUMPI DUP1 PUSH4 0xD547741F GT PUSH2 0x95 JUMPI DUP1 PUSH4 0xE985E9C5 GT PUSH2 0x6F JUMPI DUP1 PUSH4 0xE985E9C5 EQ PUSH2 0x52E JUMPI DUP1 PUSH4 0xF1B66BEC EQ PUSH2 0x55E JUMPI DUP1 PUSH4 0xF1F201E8 EQ PUSH2 0x57A JUMPI DUP1 PUSH4 0xF242432A EQ PUSH2 0x5AA JUMPI PUSH2 0x1C1 JUMP JUMPDEST DUP1 PUSH4 0xD547741F EQ PUSH2 0x4D8 JUMPI DUP1 PUSH4 0xE82F4062 EQ PUSH2 0x4F4 JUMPI DUP1 PUSH4 0xE8DBB9C5 EQ PUSH2 0x510 JUMPI PUSH2 0x1C1 JUMP JUMPDEST DUP1 PUSH4 0xA217FDDF GT PUSH2 0xD1 JUMPI DUP1 PUSH4 0xA217FDDF EQ PUSH2 0x450 JUMPI DUP1 PUSH4 0xA22CB465 EQ PUSH2 0x46E JUMPI DUP1 PUSH4 0xA3D6F9A9 EQ PUSH2 0x48A JUMPI DUP1 PUSH4 0xA966A0DF EQ PUSH2 0x4BA JUMPI PUSH2 0x1C1 JUMP JUMPDEST DUP1 PUSH4 0x91D14854 EQ PUSH2 0x3E6 JUMPI DUP1 PUSH4 0x92305435 EQ PUSH2 0x416 JUMPI DUP1 PUSH4 0x9CEA0787 EQ PUSH2 0x432 JUMPI PUSH2 0x1C1 JUMP JUMPDEST DUP1 PUSH4 0x36568ABE GT PUSH2 0x164 JUMPI DUP1 PUSH4 0x4E1273F4 GT PUSH2 0x13E JUMPI DUP1 PUSH4 0x4E1273F4 EQ PUSH2 0x34E JUMPI DUP1 PUSH4 0x64093306 EQ PUSH2 0x37E JUMPI DUP1 PUSH4 0x66367B77 EQ PUSH2 0x39A JUMPI DUP1 PUSH4 0x7EA6C533 EQ PUSH2 0x3B6 JUMPI PUSH2 0x1C1 JUMP JUMPDEST DUP1 PUSH4 0x36568ABE EQ PUSH2 0x2DB JUMPI DUP1 PUSH4 0x4B602673 EQ PUSH2 0x2F7 JUMPI DUP1 PUSH4 0x4DB30E31 EQ PUSH2 0x332 JUMPI PUSH2 0x1C1 JUMP JUMPDEST DUP1 PUSH4 0x18B6DCBC GT PUSH2 0x1A0 JUMPI DUP1 PUSH4 0x18B6DCBC EQ PUSH2 0x255 JUMPI DUP1 PUSH4 0x248A9CA3 EQ PUSH2 0x273 JUMPI DUP1 PUSH4 0x2EB2C2D6 EQ PUSH2 0x2A3 JUMPI DUP1 PUSH4 0x2F2FF15D EQ PUSH2 0x2BF JUMPI PUSH2 0x1C1 JUMP JUMPDEST DUP1 PUSH3 0xFDD58E EQ PUSH2 0x1C5 JUMPI DUP1 PUSH4 0x1FFC9A7 EQ PUSH2 0x1F5 JUMPI DUP1 PUSH4 0xE89341C EQ PUSH2 0x225 JUMPI JUMPDEST PUSH0 DUP1 REVERT JUMPDEST PUSH2 0x1DF PUSH1 0x4 DUP1 CALLDATASIZE SUB DUP2 ADD SWAP1 PUSH2 0x1DA SWAP2 SWAP1 PUSH2 0x31DF JUMP JUMPDEST PUSH2 0x5C6 JUMP JUMPDEST PUSH1 0x40 MLOAD PUSH2 0x1EC SWAP2 SWAP1 PUSH2 0x322C JUMP JUMPDEST PUSH1 0x40 MLOAD DUP1 SWAP2 SUB SWAP1 RETURN JUMPDEST PUSH2 0x20F PUSH1 0x4 DUP1 CALLDATASIZE SUB DUP2 ADD SWAP1 PUSH2 0x20A SWAP2 SWAP1 PUSH2 0x329A JUMP JUMPDEST PUSH2 0x61B JUMP JUMPDEST PUSH1 0x40 MLOAD PUSH2 0x21C SWAP2 SWAP1 PUSH2 0x32DF JUMP JUMPDEST PUSH1 0x40 MLOAD DUP1 SWAP2 SUB SWAP1 RETURN JUMPDEST PUSH2 0x23F PUSH1 0x4 DUP1 CALLDATASIZE SUB DUP2 ADD SWAP1 PUSH2 0x23A SWAP2 SWAP1 PUSH2 0x32F8 JUMP JUMPDEST PUSH2 0x62C JUMP JUMPDEST PUSH1 0x40 MLOAD PUSH2 0x24C SWAP2 SWAP1 PUSH2 0x3393 JUMP JUMPDEST PUSH1 0x40 MLOAD DUP1 SWAP2 SUB SWAP1 RETURN JUMPDEST PUSH2 0x25D PUSH2 0x6BE JUMP JUMPDEST PUSH1 0x40 MLOAD PUSH2 0x26A SWAP2 SWAP1 PUSH2 0x322C JUMP JUMPDEST PUSH1 0x40 MLOAD DUP1 SWAP2 SUB SWAP1 RETURN JUMPDEST PUSH2 0x28D PUSH1 0x4 DUP1 CALLDATASIZE SUB DUP2 ADD SWAP1 PUSH2 0x288 SWAP2 SWAP1 PUSH2 0x33E6 JUMP JUMPDEST PUSH2 0x6C4 JUMP JUMPDEST PUSH1 0x40 MLOAD PUSH2 0x29A SWAP2 SWAP1 PUSH2 0x3420 JUMP JUMPDEST PUSH1 0x40 MLOAD DUP1 SWAP2 SUB SWAP1 RETURN JUMPDEST PUSH2 0x2BD PUSH1 0x4 DUP1 CALLDATASIZE SUB DUP2 ADD SWAP1 PUSH2 0x2B8 SWAP2 SWAP1 PUSH2 0x3629 JUMP JUMPDEST PUSH2 0x6E1 JUMP JUMPDEST STOP JUMPDEST PUSH2 0x2D9 PUSH1 0x4 DUP1 CALLDATASIZE SUB DUP2 ADD SWAP1 PUSH2 0x2D4 SWAP2 SWAP1 PUSH2 0x36F4 JUMP JUMPDEST PUSH2 0x788 JUMP JUMPDEST STOP JUMPDEST PUSH2 0x2F5 PUSH1 0x4 DUP1 CALLDATASIZE SUB DUP2 ADD SWAP1 PUSH2 0x2F0 SWAP2 SWAP1 PUSH2 0x36F4 JUMP JUMPDEST PUSH2 0x7AA JUMP JUMPDEST STOP JUMPDEST PUSH2 0x311 PUSH1 0x4 DUP1 CALLDATASIZE SUB DUP2 ADD SWAP1 PUSH2 0x30C SWAP2 SWAP1 PUSH2 0x32F8 JUMP JUMPDEST PUSH2 0x825 JUMP JUMPDEST PUSH1 0x40 MLOAD PUSH2 0x329 SWAP13 SWAP12 SWAP11 SWAP10 SWAP9 SWAP8 SWAP7 SWAP6 SWAP5 SWAP4 SWAP3 SWAP2 SWAP1 PUSH2 0x37B4 JUMP JUMPDEST PUSH1 0x40 MLOAD DUP1 SWAP2 SUB SWAP1 RETURN JUMPDEST PUSH2 0x34C PUSH1 0x4 DUP1 CALLDATASIZE SUB DUP2 ADD SWAP1 PUSH2 0x347 SWAP2 SWAP1 PUSH2 0x3881 JUMP JUMPDEST PUSH2 0xA5E JUMP JUMPDEST STOP JUMPDEST PUSH2 0x368 PUSH1 0x4 DUP1 CALLDATASIZE SUB DUP2 ADD SWAP1 PUSH2 0x363 SWAP2 SWAP1 PUSH2 0x397F JUMP JUMPDEST PUSH2 0xB9C JUMP JUMPDEST PUSH1 0x40 MLOAD PUSH2 0x375 SWAP2 SWAP1 PUSH2 0x3AAC JUMP JUMPDEST PUSH1 0x40 MLOAD DUP1 SWAP2 SUB SWAP1 RETURN JUMPDEST PUSH2 0x398 PUSH1 0x4 DUP1 CALLDATASIZE SUB DUP2 ADD SWAP1 PUSH2 0x393 SWAP2 SWAP1 PUSH2 0x3881 JUMP JUMPDEST PUSH2 0xCA3 JUMP JUMPDEST STOP JUMPDEST PUSH2 0x3B4 PUSH1 0x4 DUP1 CALLDATASIZE SUB DUP2 ADD SWAP1 PUSH2 0x3AF SWAP2 SWAP1 PUSH2 0x31DF JUMP JUMPDEST PUSH2 0xE28 JUMP JUMPDEST STOP JUMPDEST PUSH2 0x3D0 PUSH1 0x4 DUP1 CALLDATASIZE SUB DUP2 ADD SWAP1 PUSH2 0x3CB SWAP2 SWAP1 PUSH2 0x3B6A JUMP JUMPDEST PUSH2 0xE53 JUMP JUMPDEST PUSH1 0x40 MLOAD PUSH2 0x3DD SWAP2 SWAP1 PUSH2 0x322C JUMP JUMPDEST PUSH1 0x40 MLOAD DUP1 SWAP2 SUB SWAP1 RETURN JUMPDEST PUSH2 0x400 PUSH1 0x4 DUP1 CALLDATASIZE SUB DUP2 ADD SWAP1 PUSH2 0x3FB SWAP2 SWAP1 PUSH2 0x36F4 JUMP JUMPDEST PUSH2 0x10DA JUMP JUMPDEST PUSH1 0x40 MLOAD PUSH2 0x40D SWAP2 SWAP1 PUSH2 0x32DF JUMP JUMPDEST PUSH1 0x40 MLOAD DUP1 SWAP2 SUB SWAP1 RETURN JUMPDEST PUSH2 0x430 PUSH1 0x4 DUP1 CALLDATASIZE SUB DUP2 ADD SWAP1 PUSH2 0x42B SWAP2 SWAP1 PUSH2 0x3C71 JUMP JUMPDEST PUSH2 0x113E JUMP JUMPDEST STOP JUMPDEST PUSH2 0x43A PUSH2 0x14DE JUMP JUMPDEST PUSH1 0x40 MLOAD PUSH2 0x447 SWAP2 SWAP1 PUSH2 0x3420 JUMP JUMPDEST PUSH1 0x40 MLOAD DUP1 SWAP2 SUB SWAP1 RETURN JUMPDEST PUSH2 0x458 PUSH2 0x1502 JUMP JUMPDEST PUSH1 0x40 MLOAD PUSH2 0x465 SWAP2 SWAP1 PUSH2 0x3420 JUMP JUMPDEST PUSH1 0x40 MLOAD DUP1 SWAP2 SUB SWAP1 RETURN JUMPDEST PUSH2 0x488 PUSH1 0x4 DUP1 CALLDATASIZE SUB DUP2 ADD SWAP1 PUSH2 0x483 SWAP2 SWAP1 PUSH2 0x3CAF JUMP JUMPDEST PUSH2 0x1508 JUMP JUMPDEST STOP JUMPDEST PUSH2 0x4A4 PUSH1 0x4 DUP1 CALLDATASIZE SUB DUP2 ADD SWAP1 PUSH2 0x49F SWAP2 SWAP1 PUSH2 0x3CED JUMP JUMPDEST PUSH2 0x151E JUMP JUMPDEST PUSH1 0x40 MLOAD PUSH2 0x4B1 SWAP2 SWAP1 PUSH2 0x3D6A JUMP JUMPDEST PUSH1 0x40 MLOAD DUP1 SWAP2 SUB SWAP1 RETURN JUMPDEST PUSH2 0x4C2 PUSH2 0x15B9 JUMP JUMPDEST PUSH1 0x40 MLOAD PUSH2 0x4CF SWAP2 SWAP1 PUSH2 0x3420 JUMP JUMPDEST PUSH1 0x40 MLOAD DUP1 SWAP2 SUB SWAP1 RETURN JUMPDEST PUSH2 0x4F2 PUSH1 0x4 DUP1 CALLDATASIZE SUB DUP2 ADD SWAP1 PUSH2 0x4ED SWAP2 SWAP1 PUSH2 0x36F4 JUMP JUMPDEST PUSH2 0x15DD JUMP JUMPDEST STOP JUMPDEST PUSH2 0x50E PUSH1 0x4 DUP1 CALLDATASIZE SUB DUP2 ADD SWAP1 PUSH2 0x509 SWAP2 SWAP1 PUSH2 0x32F8 JUMP JUMPDEST PUSH2 0x15FF JUMP JUMPDEST STOP JUMPDEST PUSH2 0x518 PUSH2 0x1898 JUMP JUMPDEST PUSH1 0x40 MLOAD PUSH2 0x525 SWAP2 SWAP1 PUSH2 0x322C JUMP JUMPDEST PUSH1 0x40 MLOAD DUP1 SWAP2 SUB SWAP1 RETURN JUMPDEST PUSH2 0x548 PUSH1 0x4 DUP1 CALLDATASIZE SUB DUP2 ADD SWAP1 PUSH2 0x543 SWAP2 SWAP1 PUSH2 0x3D8A JUMP JUMPDEST PUSH2 0x189C JUMP JUMPDEST PUSH1 0x40 MLOAD PUSH2 0x555 SWAP2 SWAP1 PUSH2 0x32DF JUMP JUMPDEST PUSH1 0x40 MLOAD DUP1 SWAP2 SUB SWAP1 RETURN JUMPDEST PUSH2 0x578 PUSH1 0x4 DUP1 CALLDATASIZE SUB DUP2 ADD SWAP1 PUSH2 0x573 SWAP2 SWAP1 PUSH2 0x3C71 JUMP JUMPDEST PUSH2 0x192A JUMP JUMPDEST STOP JUMPDEST PUSH2 0x594 PUSH1 0x4 DUP1 CALLDATASIZE SUB DUP2 ADD SWAP1 PUSH2 0x58F SWAP2 SWAP1 PUSH2 0x32F8 JUMP JUMPDEST PUSH2 0x1C1F JUMP JUMPDEST PUSH1 0x40 MLOAD PUSH2 0x5A1 SWAP2 SWAP1 PUSH2 0x3F4C JUMP JUMPDEST PUSH1 0x40 MLOAD DUP1 SWAP2 SUB SWAP1 RETURN JUMPDEST PUSH2 0x5C4 PUSH1 0x4 DUP1 CALLDATASIZE SUB DUP2 ADD SWAP1 PUSH2 0x5BF SWAP2 SWAP1 PUSH2 0x3F6C JUMP JUMPDEST PUSH2 0x1F1B JUMP JUMPDEST STOP JUMPDEST PUSH0 DUP1 PUSH0 DUP4 DUP2 MSTORE PUSH1 0x20 ADD SWAP1 DUP2 MSTORE PUSH1 0x20 ADD PUSH0 KECCAK256 PUSH0 DUP5 PUSH20 0xFFFFFFFFFFFFFFFFFFFFFFFFFFFFFFFFFFFFFFFF AND PUSH20 0xFFFFFFFFFFFFFFFFFFFFFFFFFFFFFFFFFFFFFFFF AND DUP2 MSTORE PUSH1 0x20 ADD SWAP1 DUP2 MSTORE PUSH1 0x20 ADD PUSH0 KECCAK256 SLOAD SWAP1 POP SWAP3 SWAP2 POP POP JUMP JUMPDEST PUSH0 PUSH2 0x625 DUP3 PUSH2 0x1FC2 JUMP JUMPDEST SWAP1 POP SWAP2 SWAP1 POP JUMP JUMPDEST PUSH1 0x60 PUSH1 0x2 DUP1 SLOAD PUSH2 0x63B SWAP1 PUSH2 0x402C JUMP JUMPDEST DUP1 PUSH1 0x1F ADD PUSH1 0x20 DUP1 SWAP2 DIV MUL PUSH1 0x20 ADD PUSH1 0x40 MLOAD SWAP1 DUP2 ADD PUSH1 0x40 MSTORE DUP1 SWAP3 SWAP2 SWAP1 DUP2 DUP2 MSTORE PUSH1 0x20 ADD DUP3 DUP1 SLOAD PUSH2 0x667 SWAP1 PUSH2 0x402C JUMP JUMPDEST DUP1 ISZERO PUSH2 0x6B2 JUMPI DUP1 PUSH1 0x1F LT PUSH2 0x689 JUMPI PUSH2 0x100 DUP1 DUP4 SLOAD DIV MUL DUP4 MSTORE SWAP2 PUSH1 0x20 ADD SWAP2 PUSH2 0x6B2 JUMP JUMPDEST DUP3 ADD SWAP2 SWAP1 PUSH0 MSTORE PUSH1 0x20 PUSH0 KECCAK256 SWAP1 JUMPDEST DUP2 SLOAD DUP2 MSTORE SWAP1 PUSH1 0x1 ADD SWAP1 PUSH1 0x20 ADD DUP1 DUP4 GT PUSH2 0x695 JUMPI DUP3 SWAP1 SUB PUSH1 0x1F AND DUP3 ADD SWAP2 JUMPDEST POP POP POP POP POP SWAP1 POP SWAP2 SWAP1 POP JUMP JUMPDEST PUSH1 0x5 SLOAD DUP2 JUMP JUMPDEST PUSH0 PUSH1 0x3 PUSH0 DUP4 DUP2 MSTORE PUSH1 0x20 ADD SWAP1 DUP2 MSTORE PUSH1 0x20 ADD PUSH0 KECCAK256 PUSH1 0x1 ADD SLOAD SWAP1 POP SWAP2 SWAP1 POP JUMP JUMPDEST PUSH0 PUSH2 0x6EA PUSH2 0x203B JUMP JUMPDEST SWAP1 POP DUP1 PUSH20 0xFFFFFFFFFFFFFFFFFFFFFFFFFFFFFFFFFFFFFFFF AND DUP7 PUSH20 0xFFFFFFFFFFFFFFFFFFFFFFFFFFFFFFFFFFFFFFFF AND EQ ISZERO DUP1 ISZERO PUSH2 0x72F JUMPI POP PUSH2 0x72D DUP7 DUP3 PUSH2 0x189C JUMP JUMPDEST ISZERO JUMPDEST ISZERO PUSH2 0x773 JUMPI DUP1 DUP7 PUSH1 0x40 MLOAD PUSH32 0xE237D92200000000000000000000000000000000000000000000000000000000 DUP2 MSTORE PUSH1 0x4 ADD PUSH2 0x76A SWAP3 SWAP2 SWAP1 PUSH2 0x405C JUMP JUMPDEST PUSH1 0x40 MLOAD DUP1 SWAP2 SUB SWAP1 REVERT JUMPDEST PUSH2 0x780 DUP7 DUP7 DUP7 DUP7 DUP7 PUSH2 0x2042 JUMP JUMPDEST POP POP POP POP POP POP JUMP JUMPDEST PUSH2 0x791 DUP3 PUSH2 0x6C4 JUMP JUMPDEST PUSH2 0x79A DUP2 PUSH2 0x2136 JUMP JUMPDEST PUSH2 0x7A4 DUP4 DUP4 PUSH2 0x214A JUMP JUMPDEST POP POP POP POP JUMP JUMPDEST PUSH2 0x7B2 PUSH2 0x203B JUMP JUMPDEST PUSH20 0xFFFFFFFFFFFFFFFFFFFFFFFFFFFFFFFFFFFFFFFF AND DUP2 PUSH20 0xFFFFFFFFFFFFFFFFFFFFFFFFFFFFFFFFFFFFFFFF AND EQ PUSH2 0x816 JUMPI PUSH1 0x40 MLOAD PUSH32 0x6697B23200000000000000000000000000000000000000000000000000000000 DUP2 MSTORE PUSH1 0x4 ADD PUSH1 0x40 MLOAD DUP1 SWAP2 SUB SWAP1 REVERT JUMPDEST PUSH2 0x820 DUP3 DUP3 PUSH2 0x2234 JUMP JUMPDEST POP POP POP JUMP JUMPDEST PUSH1 0x7 PUSH1 0x20 MSTORE DUP1 PUSH0 MSTORE PUSH1 0x40 PUSH0 KECCAK256 PUSH0 SWAP2 POP SWAP1 POP DUP1 PUSH0 ADD SLOAD SWAP1 DUP1 PUSH1 0x1 ADD DUP1 SLOAD PUSH2 0x84A SWAP1 PUSH2 0x402C JUMP JUMPDEST DUP1 PUSH1 0x1F ADD PUSH1 0x20 DUP1 SWAP2 DIV MUL PUSH1 0x20 ADD PUSH1 0x40 MLOAD SWAP1 DUP2 ADD PUSH1 0x40 MSTORE DUP1 SWAP3 SWAP2 SWAP1 DUP2 DUP2 MSTORE PUSH1 0x20 ADD DUP3 DUP1 SLOAD PUSH2 0x876 SWAP1 PUSH2 0x402C JUMP JUMPDEST DUP1 ISZERO PUSH2 0x8C1 JUMPI DUP1 PUSH1 0x1F LT PUSH2 0x898 JUMPI PUSH2 0x100 DUP1 DUP4 SLOAD DIV MUL DUP4 MSTORE SWAP2 PUSH1 0x20 ADD SWAP2 PUSH2 0x8C1 JUMP JUMPDEST DUP3 ADD SWAP2 SWAP1 PUSH0 MSTORE PUSH1 0x20 PUSH0 KECCAK256 SWAP1 JUMPDEST DUP2 SLOAD DUP2 MSTORE SWAP1 PUSH1 0x1 ADD SWAP1 PUSH1 0x20 ADD DUP1 DUP4 GT PUSH2 0x8A4 JUMPI DUP3 SWAP1 SUB PUSH1 0x1F AND DUP3 ADD SWAP2 JUMPDEST POP POP POP POP POP SWAP1 DUP1 PUSH1 0x2 ADD SLOAD SWAP1 DUP1 PUSH1 0x3 ADD DUP1 SLOAD PUSH2 0x8DC SWAP1 PUSH2 0x402C JUMP JUMPDEST DUP1 PUSH1 0x1F ADD PUSH1 0x20 DUP1 SWAP2 DIV MUL PUSH1 0x20 ADD PUSH1 0x40 MLOAD SWAP1 DUP2 ADD PUSH1 0x40 MSTORE DUP1 SWAP3 SWAP2 SWAP1 DUP2 DUP2 MSTORE PUSH1 0x20 ADD DUP3 DUP1 SLOAD PUSH2 0x908 SWAP1 PUSH2 0x402C JUMP JUMPDEST DUP1 ISZERO PUSH2 0x953 JUMPI DUP1 PUSH1 0x1F LT PUSH2 0x92A JUMPI PUSH2 0x100 DUP1 DUP4 SLOAD DIV MUL DUP4 MSTORE SWAP2 PUSH1 0x20 ADD SWAP2 PUSH2 0x953 JUMP JUMPDEST DUP3 ADD SWAP2 SWAP1 PUSH0 MSTORE PUSH1 0x20 PUSH0 KECCAK256 SWAP1 JUMPDEST DUP2 SLOAD DUP2 MSTORE SWAP1 PUSH1 0x1 ADD SWAP1 PUSH1 0x20 ADD DUP1 DUP4 GT PUSH2 0x936 JUMPI DUP3 SWAP1 SUB PUSH1 0x1F AND DUP3 ADD SWAP2 JUMPDEST POP POP POP POP POP SWAP1 DUP1 PUSH1 0x4 ADD DUP1 SLOAD PUSH2 0x968 SWAP1 PUSH2 0x402C JUMP JUMPDEST DUP1 PUSH1 0x1F ADD PUSH1 0x20 DUP1 SWAP2 DIV MUL PUSH1 0x20 ADD PUSH1 0x40 MLOAD SWAP1 DUP2 ADD PUSH1 0x40 MSTORE DUP1 SWAP3 SWAP2 SWAP1 DUP2 DUP2 MSTORE PUSH1 0x20 ADD DUP3 DUP1 SLOAD PUSH2 0x994 SWAP1 PUSH2 0x402C JUMP JUMPDEST DUP1 ISZERO PUSH2 0x9DF JUMPI DUP1 PUSH1 0x1F LT PUSH2 0x9B6 JUMPI PUSH2 0x100 DUP1 DUP4 SLOAD DIV MUL DUP4 MSTORE SWAP2 PUSH1 0x20 ADD SWAP2 PUSH2 0x9DF JUMP JUMPDEST DUP3 ADD SWAP2 SWAP1 PUSH0 MSTORE PUSH1 0x20 PUSH0 KECCAK256 SWAP1 JUMPDEST DUP2 SLOAD DUP2 MSTORE SWAP1 PUSH1 0x1 ADD SWAP1 PUSH1 0x20 ADD DUP1 DUP4 GT PUSH2 0x9C2 JUMPI DUP3 SWAP1 SUB PUSH1 0x1F AND DUP3 ADD SWAP2 JUMPDEST POP POP POP POP POP SWAP1 DUP1 PUSH1 0x5 ADD SLOAD SWAP1 DUP1 PUSH1 0x6 ADD SLOAD SWAP1 DUP1 PUSH1 0x7 ADD SLOAD SWAP1 DUP1 PUSH1 0x8 ADD SLOAD SWAP1 DUP1 PUSH1 0x9 ADD PUSH0 SWAP1 SLOAD SWAP1 PUSH2 0x100 EXP SWAP1 DIV PUSH20 0xFFFFFFFFFFFFFFFFFFFFFFFFFFFFFFFFFFFFFFFF AND SWAP1 DUP1 PUSH1 0xA ADD PUSH0 SWAP1 SLOAD SWAP1 PUSH2 0x100 EXP SWAP1 DIV PUSH20 0xFFFFFFFFFFFFFFFFFFFFFFFFFFFFFFFFFFFFFFFF AND SWAP1 DUP1 PUSH1 0xA ADD PUSH1 0x14 SWAP1 SLOAD SWAP1 PUSH2 0x100 EXP SWAP1 DIV PUSH1 0xFF AND SWAP1 POP DUP13 JUMP JUMPDEST PUSH2 0xA66 PUSH2 0x231E JUMP JUMPDEST PUSH0 PUSH1 0x7 PUSH0 DUP5 DUP2 MSTORE PUSH1 0x20 ADD SWAP1 DUP2 MSTORE PUSH1 0x20 ADD PUSH0 KECCAK256 SWAP1 POP DUP1 PUSH1 0x9 ADD PUSH0 SWAP1 SLOAD SWAP1 PUSH2 0x100 EXP SWAP1 DIV PUSH20 0xFFFFFFFFFFFFFFFFFFFFFFFFFFFFFFFFFFFFFFFF AND PUSH20 0xFFFFFFFFFFFFFFFFFFFFFFFFFFFFFFFFFFFFFFFF AND CALLER PUSH20 0xFFFFFFFFFFFFFFFFFFFFFFFFFFFFFFFFFFFFFFFF AND EQ PUSH2 0xB0B JUMPI PUSH1 0x40 MLOAD PUSH32 0x8C379A000000000000000000000000000000000000000000000000000000000 DUP2 MSTORE PUSH1 0x4 ADD PUSH2 0xB02 SWAP1 PUSH2 0x40CD JUMP JUMPDEST PUSH1 0x40 MLOAD DUP1 SWAP2 SUB SWAP1 REVERT JUMPDEST PUSH2 0xB26 CALLER ADDRESS PUSH0 DUP6 PUSH1 0x40 MLOAD DUP1 PUSH1 0x20 ADD PUSH1 0x40 MSTORE DUP1 PUSH0 DUP2 MSTORE POP PUSH2 0x1F1B JUMP JUMPDEST DUP2 DUP2 PUSH1 0x8 ADD PUSH0 DUP3 DUP3 SLOAD PUSH2 0xB39 SWAP2 SWAP1 PUSH2 0x4118 JUMP JUMPDEST SWAP3 POP POP DUP2 SWAP1 SSTORE POP CALLER PUSH20 0xFFFFFFFFFFFFFFFFFFFFFFFFFFFFFFFFFFFFFFFF AND DUP4 PUSH32 0x377EF0ADCE1EAE318AFAAD309C3B0F6C378FA1A294064DECCDA8D15AD28858EB DUP5 PUSH1 0x40 MLOAD PUSH2 0xB87 SWAP2 SWAP1 PUSH2 0x322C JUMP JUMPDEST PUSH1 0x40 MLOAD DUP1 SWAP2 SUB SWAP1 LOG3 POP PUSH2 0xB98 PUSH2 0x236D JUMP JUMPDEST POP POP JUMP JUMPDEST PUSH1 0x60 DUP2 MLOAD DUP4 MLOAD EQ PUSH2 0xBE8 JUMPI DUP2 MLOAD DUP4 MLOAD PUSH1 0x40 MLOAD PUSH32 0x5B05999100000000000000000000000000000000000000000000000000000000 DUP2 MSTORE PUSH1 0x4 ADD PUSH2 0xBDF SWAP3 SWAP2 SWAP1 PUSH2 0x414B JUMP JUMPDEST PUSH1 0x40 MLOAD DUP1 SWAP2 SUB SWAP1 REVERT JUMPDEST PUSH0 DUP4 MLOAD PUSH8 0xFFFFFFFFFFFFFFFF DUP2 GT ISZERO PUSH2 0xC04 JUMPI PUSH2 0xC03 PUSH2 0x343D JUMP JUMPDEST JUMPDEST PUSH1 0x40 MLOAD SWAP1 DUP1 DUP3 MSTORE DUP1 PUSH1 0x20 MUL PUSH1 0x20 ADD DUP3 ADD PUSH1 0x40 MSTORE DUP1 ISZERO PUSH2 0xC32 JUMPI DUP2 PUSH1 0x20 ADD PUSH1 0x20 DUP3 MUL DUP1 CALLDATASIZE DUP4 CALLDATACOPY DUP1 DUP3 ADD SWAP2 POP POP SWAP1 POP JUMPDEST POP SWAP1 POP PUSH0 JUMPDEST DUP5 MLOAD DUP2 LT ISZERO PUSH2 0xC98 JUMPI PUSH2 0xC6E PUSH2 0xC56 DUP3 DUP8 PUSH2 0x2377 SWAP1 SWAP2 SWAP1 PUSH4 0xFFFFFFFF AND JUMP JUMPDEST PUSH2 0xC69 DUP4 DUP8 PUSH2 0x238A SWAP1 SWAP2 SWAP1 PUSH4 0xFFFFFFFF AND JUMP JUMPDEST PUSH2 0x5C6 JUMP JUMPDEST DUP3 DUP3 DUP2 MLOAD DUP2 LT PUSH2 0xC81 JUMPI PUSH2 0xC80 PUSH2 0x4172 JUMP JUMPDEST JUMPDEST PUSH1 0x20 MUL PUSH1 0x20 ADD ADD DUP2 DUP2 MSTORE POP POP DUP1 PUSH1 0x1 ADD SWAP1 POP PUSH2 0xC37 JUMP JUMPDEST POP DUP1 SWAP2 POP POP SWAP3 SWAP2 POP POP JUMP JUMPDEST PUSH2 0xCAB PUSH2 0x231E JUMP JUMPDEST PUSH0 PUSH1 0x7 PUSH0 DUP5 DUP2 MSTORE PUSH1 0x20 ADD SWAP1 DUP2 MSTORE PUSH1 0x20 ADD PUSH0 KECCAK256 SWAP1 POP DUP1 PUSH1 0x9 ADD PUSH0 SWAP1 SLOAD SWAP1 PUSH2 0x100 EXP SWAP1 DIV PUSH20 0xFFFFFFFFFFFFFFFFFFFFFFFFFFFFFFFFFFFFFFFF AND PUSH20 0xFFFFFFFFFFFFFFFFFFFFFFFFFFFFFFFFFFFFFFFF AND CALLER PUSH20 0xFFFFFFFFFFFFFFFFFFFFFFFFFFFFFFFFFFFFFFFF AND EQ PUSH2 0xD50 JUMPI PUSH1 0x40 MLOAD PUSH32 0x8C379A000000000000000000000000000000000000000000000000000000000 DUP2 MSTORE PUSH1 0x4 ADD PUSH2 0xD47 SWAP1 PUSH2 0x41E9 JUMP JUMPDEST PUSH1 0x40 MLOAD DUP1 SWAP2 SUB SWAP1 REVERT JUMPDEST DUP2 DUP2 PUSH1 0x8 ADD SLOAD LT ISZERO PUSH2 0xD97 JUMPI PUSH1 0x40 MLOAD PUSH32 0x8C379A000000000000000000000000000000000000000000000000000000000 DUP2 MSTORE PUSH1 0x4 ADD PUSH2 0xD8E SWAP1 PUSH2 0x4251 JUMP JUMPDEST PUSH1 0x40 MLOAD DUP1 SWAP2 SUB SWAP1 REVERT JUMPDEST DUP2 DUP2 PUSH1 0x8 ADD PUSH0 DUP3 DUP3 SLOAD PUSH2 0xDAA SWAP2 SWAP1 PUSH2 0x426F JUMP JUMPDEST SWAP3 POP POP DUP2 SWAP1 SSTORE POP PUSH2 0xDCC ADDRESS CALLER PUSH0 DUP6 PUSH1 0x40 MLOAD DUP1 PUSH1 0x20 ADD PUSH1 0x40 MSTORE DUP1 PUSH0 DUP2 MSTORE POP PUSH2 0x239D JUMP JUMPDEST CALLER PUSH20 0xFFFFFFFFFFFFFFFFFFFFFFFFFFFFFFFFFFFFFFFF AND DUP4 PUSH32 0xAE1F357660AB777DCFD38C0AB6357834684EC26289ECFA07EC65DBF6C3C64312 DUP5 PUSH1 0x40 MLOAD PUSH2 0xE13 SWAP2 SWAP1 PUSH2 0x322C JUMP JUMPDEST PUSH1 0x40 MLOAD DUP1 SWAP2 SUB SWAP1 LOG3 POP PUSH2 0xE24 PUSH2 0x236D JUMP JUMPDEST POP POP JUMP JUMPDEST PUSH0 DUP1 SHL PUSH2 0xE34 DUP2 PUSH2 0x2136 JUMP JUMPDEST PUSH2 0xE4E DUP4 PUSH0 DUP5 PUSH1 0x40 MLOAD DUP1 PUSH1 0x20 ADD PUSH1 0x40 MSTORE DUP1 PUSH0 DUP2 MSTORE POP PUSH2 0x24A3 JUMP JUMPDEST POP POP POP JUMP JUMPDEST PUSH0 PUSH32 0x877A78DC988C0EC5F58453B44888A55EB39755C3D5ED8D8EA990912AA3EF29C6 PUSH2 0xE7E DUP2 PUSH2 0x2136 JUMP JUMPDEST PUSH1 0x5 PUSH0 DUP2 SLOAD DUP1 SWAP3 SWAP2 SWAP1 PUSH2 0xE90 SWAP1 PUSH2 0x42A2 JUMP JUMPDEST SWAP2 SWAP1 POP SSTORE POP PUSH0 PUSH1 0x5 SLOAD SWAP1 POP PUSH1 0x40 MLOAD DUP1 PUSH2 0x180 ADD PUSH1 0x40 MSTORE DUP1 DUP3 DUP2 MSTORE PUSH1 0x20 ADD DUP11 DUP2 MSTORE PUSH1 0x20 ADD DUP10 DUP2 MSTORE PUSH1 0x20 ADD DUP9 DUP2 MSTORE PUSH1 0x20 ADD DUP8 DUP2 MSTORE PUSH1 0x20 ADD DUP7 DUP2 MSTORE PUSH1 0x20 ADD PUSH0 DUP2 MSTORE PUSH1 0x20 ADD DUP6 DUP2 MSTORE PUSH1 0x20 ADD PUSH0 DUP2 MSTORE PUSH1 0x20 ADD CALLER PUSH20 0xFFFFFFFFFFFFFFFFFFFFFFFFFFFFFFFFFFFFFFFF AND DUP2 MSTORE PUSH1 0x20 ADD PUSH0 PUSH20 0xFFFFFFFFFFFFFFFFFFFFFFFFFFFFFFFFFFFFFFFF AND DUP2 MSTORE PUSH1 0x20 ADD PUSH0 PUSH1 0x4 DUP2 GT ISZERO PUSH2 0xF28 JUMPI PUSH2 0xF27 PUSH2 0x3741 JUMP JUMPDEST JUMPDEST DUP2 MSTORE POP PUSH1 0x7 PUSH0 DUP4 DUP2 MSTORE PUSH1 0x20 ADD SWAP1 DUP2 MSTORE PUSH1 0x20 ADD PUSH0 KECCAK256 PUSH0 DUP3 ADD MLOAD DUP2 PUSH0 ADD SSTORE PUSH1 0x20 DUP3 ADD MLOAD DUP2 PUSH1 0x1 ADD SWAP1 DUP2 PUSH2 0xF59 SWAP2 SWAP1 PUSH2 0x4486 JUMP JUMPDEST POP PUSH1 0x40 DUP3 ADD MLOAD DUP2 PUSH1 0x2 ADD SSTORE PUSH1 0x60 DUP3 ADD MLOAD DUP2 PUSH1 0x3 ADD SWAP1 DUP2 PUSH2 0xF79 SWAP2 SWAP1 PUSH2 0x4486 JUMP JUMPDEST POP PUSH1 0x80 DUP3 ADD MLOAD DUP2 PUSH1 0x4 ADD SWAP1 DUP2 PUSH2 0xF8F SWAP2 SWAP1 PUSH2 0x4486 JUMP JUMPDEST POP PUSH1 0xA0 DUP3 ADD MLOAD DUP2 PUSH1 0x5 ADD SSTORE PUSH1 0xC0 DUP3 ADD MLOAD DUP2 PUSH1 0x6 ADD SSTORE PUSH1 0xE0 DUP3 ADD MLOAD DUP2 PUSH1 0x7 ADD SSTORE PUSH2 0x100 DUP3 ADD MLOAD DUP2 PUSH1 0x8 ADD SSTORE PUSH2 0x120 DUP3 ADD MLOAD DUP2 PUSH1 0x9 ADD PUSH0 PUSH2 0x100 EXP DUP2 SLOAD DUP2 PUSH20 0xFFFFFFFFFFFFFFFFFFFFFFFFFFFFFFFFFFFFFFFF MUL NOT AND SWAP1 DUP4 PUSH20 0xFFFFFFFFFFFFFFFFFFFFFFFFFFFFFFFFFFFFFFFF AND MUL OR SWAP1 SSTORE POP PUSH2 0x140 DUP3 ADD MLOAD DUP2 PUSH1 0xA ADD PUSH0 PUSH2 0x100 EXP DUP2 SLOAD DUP2 PUSH20 0xFFFFFFFFFFFFFFFFFFFFFFFFFFFFFFFFFFFFFFFF MUL NOT AND SWAP1 DUP4 PUSH20 0xFFFFFFFFFFFFFFFFFFFFFFFFFFFFFFFFFFFFFFFF AND MUL OR SWAP1 SSTORE POP PUSH2 0x160 DUP3 ADD MLOAD DUP2 PUSH1 0xA ADD PUSH1 0x14 PUSH2 0x100 EXP DUP2 SLOAD DUP2 PUSH1 0xFF MUL NOT AND SWAP1 DUP4 PUSH1 0x4 DUP2 GT ISZERO PUSH2 0x1073 JUMPI PUSH2 0x1072 PUSH2 0x3741 JUMP JUMPDEST JUMPDEST MUL OR SWAP1 SSTORE POP SWAP1 POP POP CALLER PUSH20 0xFFFFFFFFFFFFFFFFFFFFFFFFFFFFFFFFFFFFFFFF AND DUP2 PUSH31 0xF3538CB5ABE2E9BC54F73939E4D165FCE3752D27FE21A5E88B2A9F6DA20C63 DUP7 DUP9 PUSH1 0x40 MLOAD PUSH2 0x10C3 SWAP3 SWAP2 SWAP1 PUSH2 0x414B JUMP JUMPDEST PUSH1 0x40 MLOAD DUP1 SWAP2 SUB SWAP1 LOG3 DUP1 SWAP3 POP POP POP SWAP7 SWAP6 POP POP POP POP POP POP JUMP JUMPDEST PUSH0 PUSH1 0x3 PUSH0 DUP5 DUP2 MSTORE PUSH1 0x20 ADD SWAP1 DUP2 MSTORE PUSH1 0x20 ADD PUSH0 KECCAK256 PUSH0 ADD PUSH0 DUP4 PUSH20 0xFFFFFFFFFFFFFFFFFFFFFFFFFFFFFFFFFFFFFFFF AND PUSH20 0xFFFFFFFFFFFFFFFFFFFFFFFFFFFFFFFFFFFFFFFF AND DUP2 MSTORE PUSH1 0x20 ADD SWAP1 DUP2 MSTORE PUSH1 0x20 ADD PUSH0 KECCAK256 PUSH0 SWAP1 SLOAD SWAP1 PUSH2 0x100 EXP SWAP1 DIV PUSH1 0xFF AND SWAP1 POP SWAP3 SWAP2 POP POP JUMP JUMPDEST PUSH2 0x1146 PUSH2 0x231E JUMP JUMPDEST PUSH32 0x16CEEE8289685DD2A02B9C8AE81D2DF373176CE53519E6284E2A2950D6546FFA PUSH2 0x1170 DUP2 PUSH2 0x2136 JUMP JUMPDEST PUSH0 PUSH1 0x7 PUSH0 DUP6 DUP2 MSTORE PUSH1 0x20 ADD SWAP1 DUP2 MSTORE PUSH1 0x20 ADD PUSH0 KECCAK256 SWAP1 POP PUSH1 0x2 PUSH1 0x4 DUP2 GT ISZERO PUSH2 0x1198 JUMPI PUSH2 0x1197 PUSH2 0x3741 JUMP JUMPDEST JUMPDEST DUP2 PUSH1 0xA ADD PUSH1 0x14 SWAP1 SLOAD SWAP1 PUSH2 0x100 EXP SWAP1 DIV PUSH1 0xFF AND PUSH1 0x4 DUP2 GT ISZERO PUSH2 0x11BC JUMPI PUSH2 0x11BB PUSH2 0x3741 JUMP JUMPDEST JUMPDEST EQ PUSH2 0x11FC JUMPI PUSH1 0x40 MLOAD PUSH32 0x8C379A000000000000000000000000000000000000000000000000000000000 DUP2 MSTORE PUSH1 0x4 ADD PUSH2 0x11F3 SWAP1 PUSH2 0x459F JUMP JUMPDEST PUSH1 0x40 MLOAD DUP1 SWAP2 SUB SWAP1 REVERT JUMPDEST DUP3 ISZERO PUSH2 0x1344 JUMPI PUSH2 0x1244 ADDRESS DUP3 PUSH1 0xA ADD PUSH0 SWAP1 SLOAD SWAP1 PUSH2 0x100 EXP SWAP1 DIV PUSH20 0xFFFFFFFFFFFFFFFFFFFFFFFFFFFFFFFFFFFFFFFF AND PUSH0 DUP5 PUSH1 0x7 ADD SLOAD PUSH1 0x40 MLOAD DUP1 PUSH1 0x20 ADD PUSH1 0x40 MSTORE DUP1 PUSH0 DUP2 MSTORE POP PUSH2 0x239D JUMP JUMPDEST DUP1 PUSH1 0x7 ADD SLOAD DUP2 PUSH1 0x8 ADD PUSH0 DUP3 DUP3 SLOAD PUSH2 0x125B SWAP2 SWAP1 PUSH2 0x4118 JUMP JUMPDEST SWAP3 POP POP DUP2 SWAP1 SSTORE POP PUSH1 0x3 DUP2 PUSH1 0xA ADD PUSH1 0x14 PUSH2 0x100 EXP DUP2 SLOAD DUP2 PUSH1 0xFF MUL NOT AND SWAP1 DUP4 PUSH1 0x4 DUP2 GT ISZERO PUSH2 0x128A JUMPI PUSH2 0x1289 PUSH2 0x3741 JUMP JUMPDEST JUMPDEST MUL OR SWAP1 SSTORE POP DUP1 PUSH1 0xA ADD PUSH0 SWAP1 SLOAD SWAP1 PUSH2 0x100 EXP SWAP1 DIV PUSH20 0xFFFFFFFFFFFFFFFFFFFFFFFFFFFFFFFFFFFFFFFF AND PUSH20 0xFFFFFFFFFFFFFFFFFFFFFFFFFFFFFFFFFFFFFFFF AND DUP2 PUSH1 0x9 ADD PUSH0 SWAP1 SLOAD SWAP1 PUSH2 0x100 EXP SWAP1 DIV PUSH20 0xFFFFFFFFFFFFFFFFFFFFFFFFFFFFFFFFFFFFFFFF AND PUSH20 0xFFFFFFFFFFFFFFFFFFFFFFFFFFFFFFFFFFFFFFFF AND DUP6 PUSH32 0xE4DE261861B87BB7F315E0221741ED941CE8D6D7FEF4AE848ED1CB7FE4F341F DUP5 PUSH1 0x7 ADD SLOAD PUSH1 0x40 MLOAD PUSH2 0x1337 SWAP2 SWAP1 PUSH2 0x322C JUMP JUMPDEST PUSH1 0x40 MLOAD DUP1 SWAP2 SUB SWAP1 LOG4 PUSH2 0x1498 JUMP JUMPDEST PUSH2 0x1392 ADDRESS DUP3 PUSH1 0xA ADD PUSH0 SWAP1 SLOAD SWAP1 PUSH2 0x100 EXP SWAP1 DIV PUSH20 0xFFFFFFFFFFFFFFFFFFFFFFFFFFFFFFFFFFFFFFFF AND PUSH0 PUSH1 0x2 DUP6 PUSH1 0x7 ADD SLOAD PUSH2 0x137E SWAP2 SWAP1 PUSH2 0x45BD JUMP JUMPDEST PUSH1 0x40 MLOAD DUP1 PUSH1 0x20 ADD PUSH1 0x40 MSTORE DUP1 PUSH0 DUP2 MSTORE POP PUSH2 0x239D JUMP JUMPDEST PUSH2 0x13D4 ADDRESS DUP3 PUSH1 0x9 ADD PUSH0 SWAP1 SLOAD SWAP1 PUSH2 0x100 EXP SWAP1 DIV PUSH20 0xFFFFFFFFFFFFFFFFFFFFFFFFFFFFFFFFFFFFFFFF AND PUSH0 DUP5 PUSH1 0x8 ADD SLOAD PUSH1 0x40 MLOAD DUP1 PUSH1 0x20 ADD PUSH1 0x40 MSTORE DUP1 PUSH0 DUP2 MSTORE POP PUSH2 0x239D JUMP JUMPDEST PUSH2 0x1403 DUP2 PUSH1 0xA ADD PUSH0 SWAP1 SLOAD SWAP1 PUSH2 0x100 EXP SWAP1 DIV PUSH20 0xFFFFFFFFFFFFFFFFFFFFFFFFFFFFFFFFFFFFFFFF AND DUP6 PUSH1 0x1 PUSH2 0x2538 JUMP JUMPDEST PUSH1 0x4 DUP2 PUSH1 0xA ADD PUSH1 0x14 PUSH2 0x100 EXP DUP2 SLOAD DUP2 PUSH1 0xFF MUL NOT AND SWAP1 DUP4 PUSH1 0x4 DUP2 GT ISZERO PUSH2 0x142B JUMPI PUSH2 0x142A PUSH2 0x3741 JUMP JUMPDEST JUMPDEST MUL OR SWAP1 SSTORE POP DUP1 PUSH1 0xA ADD PUSH0 SWAP1 SLOAD SWAP1 PUSH2 0x100 EXP SWAP1 DIV PUSH20 0xFFFFFFFFFFFFFFFFFFFFFFFFFFFFFFFFFFFFFFFF AND PUSH20 0xFFFFFFFFFFFFFFFFFFFFFFFFFFFFFFFFFFFFFFFF AND DUP5 PUSH32 0x8F0A80450BFBFADC6D05658C9DC494E43BEB79BE53B44ADBB146C6D5040F8770 PUSH1 0x40 MLOAD PUSH1 0x40 MLOAD DUP1 SWAP2 SUB SWAP1 LOG3 JUMPDEST DUP4 PUSH32 0xAA76612075DCF5624C76B21B3B0F6BABBEEE4E6B6197FB4FB4A2A5654724812A DUP5 PUSH1 0x40 MLOAD PUSH2 0x14C8 SWAP2 SWAP1 PUSH2 0x32DF JUMP JUMPDEST PUSH1 0x40 MLOAD DUP1 SWAP2 SUB SWAP1 LOG2 POP POP PUSH2 0x14DA PUSH2 0x236D JUMP JUMPDEST POP POP JUMP JUMPDEST PUSH32 0x16CEEE8289685DD2A02B9C8AE81D2DF373176CE53519E6284E2A2950D6546FFA DUP2 JUMP JUMPDEST PUSH0 DUP1 SHL DUP2 JUMP JUMPDEST PUSH2 0x151A PUSH2 0x1513 PUSH2 0x203B JUMP JUMPDEST DUP4 DUP4 PUSH2 0x25DA JUMP JUMPDEST POP POP JUMP JUMPDEST PUSH1 0x6 PUSH1 0x20 MSTORE DUP1 PUSH0 MSTORE PUSH1 0x40 PUSH0 KECCAK256 PUSH0 SWAP2 POP SWAP1 POP DUP1 SLOAD PUSH2 0x153A SWAP1 PUSH2 0x402C JUMP JUMPDEST DUP1 PUSH1 0x1F ADD PUSH1 0x20 DUP1 SWAP2 DIV MUL PUSH1 0x20 ADD PUSH1 0x40 MLOAD SWAP1 DUP2 ADD PUSH1 0x40 MSTORE DUP1 SWAP3 SWAP2 SWAP1 DUP2 DUP2 MSTORE PUSH1 0x20 ADD DUP3 DUP1 SLOAD PUSH2 0x1566 SWAP1 PUSH2 0x402C JUMP JUMPDEST DUP1 ISZERO PUSH2 0x15B1 JUMPI DUP1 PUSH1 0x1F LT PUSH2 0x1588 JUMPI PUSH2 0x100 DUP1 DUP4 SLOAD DIV MUL DUP4 MSTORE SWAP2 PUSH1 0x20 ADD SWAP2 PUSH2 0x15B1 JUMP JUMPDEST DUP3 ADD SWAP2 SWAP1 PUSH0 MSTORE PUSH1 0x20 PUSH0 KECCAK256 SWAP1 JUMPDEST DUP2 SLOAD DUP2 MSTORE SWAP1 PUSH1 0x1 ADD SWAP1 PUSH1 0x20 ADD DUP1 DUP4 GT PUSH2 0x1594 JUMPI DUP3 SWAP1 SUB PUSH1 0x1F AND DUP3 ADD SWAP2 JUMPDEST POP POP POP POP POP DUP2 JUMP JUMPDEST PUSH32 0x877A78DC988C0EC5F58453B44888A55EB39755C3D5ED8D8EA990912AA3EF29C6 DUP2 JUMP JUMPDEST PUSH2 0x15E6 DUP3 PUSH2 0x6C4 JUMP JUMPDEST PUSH2 0x15EF DUP2 PUSH2 0x2136 JUMP JUMPDEST PUSH2 0x15F9 DUP4 DUP4 PUSH2 0x2234 JUMP JUMPDEST POP POP POP POP JUMP JUMPDEST PUSH2 0x1607 PUSH2 0x231E JUMP JUMPDEST PUSH0 PUSH1 0x7 PUSH0 DUP4 DUP2 MSTORE PUSH1 0x20 ADD SWAP1 DUP2 MSTORE PUSH1 0x20 ADD PUSH0 KECCAK256 SWAP1 POP PUSH0 PUSH1 0x4 DUP2 GT ISZERO PUSH2 0x162E JUMPI PUSH2 0x162D PUSH2 0x3741 JUMP JUMPDEST JUMPDEST DUP2 PUSH1 0xA ADD PUSH1 0x14 SWAP1 SLOAD SWAP1 PUSH2 0x100 EXP SWAP1 DIV PUSH1 0xFF AND PUSH1 0x4 DUP2 GT ISZERO PUSH2 0x1652 JUMPI PUSH2 0x1651 PUSH2 0x3741 JUMP JUMPDEST JUMPDEST EQ DUP1 PUSH2 0x1693 JUMPI POP PUSH1 0x1 PUSH1 0x4 DUP2 GT ISZERO PUSH2 0x166D JUMPI PUSH2 0x166C PUSH2 0x3741 JUMP JUMPDEST JUMPDEST DUP2 PUSH1 0xA ADD PUSH1 0x14 SWAP1 SLOAD SWAP1 PUSH2 0x100 EXP SWAP1 DIV PUSH1 0xFF AND PUSH1 0x4 DUP2 GT ISZERO PUSH2 0x1691 JUMPI PUSH2 0x1690 PUSH2 0x3741 JUMP JUMPDEST JUMPDEST EQ JUMPDEST PUSH2 0x16D2 JUMPI PUSH1 0x40 MLOAD PUSH32 0x8C379A000000000000000000000000000000000000000000000000000000000 DUP2 MSTORE PUSH1 0x4 ADD PUSH2 0x16C9 SWAP1 PUSH2 0x4648 JUMP JUMPDEST PUSH1 0x40 MLOAD DUP1 SWAP2 SUB SWAP1 REVERT JUMPDEST DUP1 PUSH1 0x5 ADD SLOAD DUP2 PUSH1 0x6 ADD SLOAD LT PUSH2 0x171C JUMPI PUSH1 0x40 MLOAD PUSH32 0x8C379A000000000000000000000000000000000000000000000000000000000 DUP2 MSTORE PUSH1 0x4 ADD PUSH2 0x1713 SWAP1 PUSH2 0x46B0 JUMP JUMPDEST PUSH1 0x40 MLOAD DUP1 SWAP2 SUB SWAP1 REVERT JUMPDEST PUSH0 PUSH1 0x2 DUP3 PUSH1 0x7 ADD SLOAD PUSH2 0x172E SWAP2 SWAP1 PUSH2 0x45BD JUMP JUMPDEST SWAP1 POP PUSH2 0x174B CALLER ADDRESS PUSH0 DUP5 PUSH1 0x40 MLOAD DUP1 PUSH1 0x20 ADD PUSH1 0x40 MSTORE DUP1 PUSH0 DUP2 MSTORE POP PUSH2 0x1F1B JUMP JUMPDEST PUSH1 0x2 DUP3 PUSH1 0x7 ADD SLOAD PUSH2 0x175C SWAP2 SWAP1 PUSH2 0x45BD JUMP JUMPDEST DUP3 PUSH1 0x8 ADD SLOAD LT ISZERO PUSH2 0x17A2 JUMPI PUSH1 0x40 MLOAD PUSH32 0x8C379A000000000000000000000000000000000000000000000000000000000 DUP2 MSTORE PUSH1 0x4 ADD PUSH2 0x1799 SWAP1 PUSH2 0x4718 JUMP JUMPDEST PUSH1 0x40 MLOAD DUP1 SWAP2 SUB SWAP1 REVERT JUMPDEST PUSH1 0x1 DUP3 PUSH1 0x6 ADD PUSH0 DUP3 DUP3 SLOAD PUSH2 0x17B6 SWAP2 SWAP1 PUSH2 0x4118 JUMP JUMPDEST SWAP3 POP POP DUP2 SWAP1 SSTORE POP CALLER DUP3 PUSH1 0xA ADD PUSH0 PUSH2 0x100 EXP DUP2 SLOAD DUP2 PUSH20 0xFFFFFFFFFFFFFFFFFFFFFFFFFFFFFFFFFFFFFFFF MUL NOT AND SWAP1 DUP4 PUSH20 0xFFFFFFFFFFFFFFFFFFFFFFFFFFFFFFFFFFFFFFFF AND MUL OR SWAP1 SSTORE POP PUSH2 0x181A CALLER DUP5 PUSH1 0x1 PUSH1 0x40 MLOAD DUP1 PUSH1 0x20 ADD PUSH1 0x40 MSTORE DUP1 PUSH0 DUP2 MSTORE POP PUSH2 0x24A3 JUMP JUMPDEST PUSH1 0x1 DUP3 PUSH1 0xA ADD PUSH1 0x14 PUSH2 0x100 EXP DUP2 SLOAD DUP2 PUSH1 0xFF MUL NOT AND SWAP1 DUP4 PUSH1 0x4 DUP2 GT ISZERO PUSH2 0x1842 JUMPI PUSH2 0x1841 PUSH2 0x3741 JUMP JUMPDEST JUMPDEST MUL OR SWAP1 SSTORE POP CALLER PUSH20 0xFFFFFFFFFFFFFFFFFFFFFFFFFFFFFFFFFFFFFFFF AND DUP4 PUSH32 0xAC5E7CDFFB9F94EB582C47D5D6548E89EC9F1D35F8BAAFA7C181A3778B419BD8 PUSH1 0x40 MLOAD PUSH1 0x40 MLOAD DUP1 SWAP2 SUB SWAP1 LOG3 POP POP PUSH2 0x1895 PUSH2 0x236D JUMP JUMPDEST POP JUMP JUMPDEST PUSH0 DUP2 JUMP JUMPDEST PUSH0 PUSH1 0x1 PUSH0 DUP5 PUSH20 0xFFFFFFFFFFFFFFFFFFFFFFFFFFFFFFFFFFFFFFFF AND PUSH20 0xFFFFFFFFFFFFFFFFFFFFFFFFFFFFFFFFFFFFFFFF AND DUP2 MSTORE PUSH1 0x20 ADD SWAP1 DUP2 MSTORE PUSH1 0x20 ADD PUSH0 KECCAK256 PUSH0 DUP4 PUSH20 0xFFFFFFFFFFFFFFFFFFFFFFFFFFFFFFFFFFFFFFFF AND PUSH20 0xFFFFFFFFFFFFFFFFFFFFFFFFFFFFFFFFFFFFFFFF AND DUP2 MSTORE PUSH1 0x20 ADD SWAP1 DUP2 MSTORE PUSH1 0x20 ADD PUSH0 KECCAK256 PUSH0 SWAP1 SLOAD SWAP1 PUSH2 0x100 EXP SWAP1 DIV PUSH1 0xFF AND SWAP1 POP SWAP3 SWAP2 POP POP JUMP JUMPDEST PUSH2 0x1932 PUSH2 0x231E JUMP JUMPDEST PUSH0 PUSH1 0x7 PUSH0 DUP5 DUP2 MSTORE PUSH1 0x20 ADD SWAP1 DUP2 MSTORE PUSH1 0x20 ADD PUSH0 KECCAK256 SWAP1 POP CALLER PUSH20 0xFFFFFFFFFFFFFFFFFFFFFFFFFFFFFFFFFFFFFFFF AND DUP2 PUSH1 0xA ADD PUSH0 SWAP1 SLOAD SWAP1 PUSH2 0x100 EXP SWAP1 DIV PUSH20 0xFFFFFFFFFFFFFFFFFFFFFFFFFFFFFFFFFFFFFFFF AND PUSH20 0xFFFFFFFFFFFFFFFFFFFFFFFFFFFFFFFFFFFFFFFF AND EQ PUSH2 0x19D7 JUMPI PUSH1 0x40 MLOAD PUSH32 0x8C379A000000000000000000000000000000000000000000000000000000000 DUP2 MSTORE PUSH1 0x4 ADD PUSH2 0x19CE SWAP1 PUSH2 0x4780 JUMP JUMPDEST PUSH1 0x40 MLOAD DUP1 SWAP2 SUB SWAP1 REVERT JUMPDEST PUSH1 0x1 PUSH1 0x4 DUP2 GT ISZERO PUSH2 0x19EB JUMPI PUSH2 0x19EA PUSH2 0x3741 JUMP JUMPDEST JUMPDEST DUP2 PUSH1 0xA ADD PUSH1 0x14 SWAP1 SLOAD SWAP1 PUSH2 0x100 EXP SWAP1 DIV PUSH1 0xFF AND PUSH1 0x4 DUP2 GT ISZERO PUSH2 0x1A0F JUMPI PUSH2 0x1A0E PUSH2 0x3741 JUMP JUMPDEST JUMPDEST EQ PUSH2 0x1A4F JUMPI PUSH1 0x40 MLOAD PUSH32 0x8C379A000000000000000000000000000000000000000000000000000000000 DUP2 MSTORE PUSH1 0x4 ADD PUSH2 0x1A46 SWAP1 PUSH2 0x47E8 JUMP JUMPDEST PUSH1 0x40 MLOAD DUP1 SWAP2 SUB SWAP1 REVERT JUMPDEST CALLER PUSH20 0xFFFFFFFFFFFFFFFFFFFFFFFFFFFFFFFFFFFFFFFF AND DUP4 PUSH32 0xA60716B4C43CC2200AD347E752976D47D5ACB1504D35D0287C92D4A2C78B75F5 DUP5 PUSH1 0x40 MLOAD PUSH2 0x1A96 SWAP2 SWAP1 PUSH2 0x32DF JUMP JUMPDEST PUSH1 0x40 MLOAD DUP1 SWAP2 SUB SWAP1 LOG3 DUP2 ISZERO PUSH2 0x1BA0 JUMPI PUSH2 0x1AC3 ADDRESS CALLER PUSH0 DUP5 PUSH1 0x7 ADD SLOAD PUSH1 0x40 MLOAD DUP1 PUSH1 0x20 ADD PUSH1 0x40 MSTORE DUP1 PUSH0 DUP2 MSTORE POP PUSH2 0x239D JUMP JUMPDEST DUP1 PUSH1 0x7 ADD SLOAD DUP2 PUSH1 0x8 ADD PUSH0 DUP3 DUP3 SLOAD PUSH2 0x1ADA SWAP2 SWAP1 PUSH2 0x4118 JUMP JUMPDEST SWAP3 POP POP DUP2 SWAP1 SSTORE POP PUSH1 0x3 DUP2 PUSH1 0xA ADD PUSH1 0x14 PUSH2 0x100 EXP DUP2 SLOAD DUP2 PUSH1 0xFF MUL NOT AND SWAP1 DUP4 PUSH1 0x4 DUP2 GT ISZERO PUSH2 0x1B09 JUMPI PUSH2 0x1B08 PUSH2 0x3741 JUMP JUMPDEST JUMPDEST MUL OR SWAP1 SSTORE POP CALLER PUSH20 0xFFFFFFFFFFFFFFFFFFFFFFFFFFFFFFFFFFFFFFFF AND DUP2 PUSH1 0x9 ADD PUSH0 SWAP1 SLOAD SWAP1 PUSH2 0x100 EXP SWAP1 DIV PUSH20 0xFFFFFFFFFFFFFFFFFFFFFFFFFFFFFFFFFFFFFFFF AND PUSH20 0xFFFFFFFFFFFFFFFFFFFFFFFFFFFFFFFFFFFFFFFF AND DUP5 PUSH32 0xE4DE261861B87BB7F315E0221741ED941CE8D6D7FEF4AE848ED1CB7FE4F341F DUP5 PUSH1 0x7 ADD SLOAD PUSH1 0x40 MLOAD PUSH2 0x1B93 SWAP2 SWAP1 PUSH2 0x322C JUMP JUMPDEST PUSH1 0x40 MLOAD DUP1 SWAP2 SUB SWAP1 LOG4 PUSH2 0x1C12 JUMP JUMPDEST PUSH1 0x2 DUP2 PUSH1 0xA ADD PUSH1 0x14 PUSH2 0x100 EXP DUP2 SLOAD DUP2 PUSH1 0xFF MUL NOT AND SWAP1 DUP4 PUSH1 0x4 DUP2 GT ISZERO PUSH2 0x1BC8 JUMPI PUSH2 0x1BC7 PUSH2 0x3741 JUMP JUMPDEST JUMPDEST MUL OR SWAP1 SSTORE POP CALLER PUSH20 0xFFFFFFFFFFFFFFFFFFFFFFFFFFFFFFFFFFFFFFFF AND DUP4 PUSH32 0x44F3C3ED15C708331582BC379D28659A58F183A563ABE41AA4C8889DB469F71C PUSH1 0x40 MLOAD PUSH1 0x40 MLOAD DUP1 SWAP2 SUB SWAP1 LOG3 JUMPDEST POP PUSH2 0x1C1B PUSH2 0x236D JUMP JUMPDEST POP POP JUMP JUMPDEST PUSH2 0x1C27 PUSH2 0x30A8 JUMP JUMPDEST PUSH1 0x7 PUSH0 DUP4 DUP2 MSTORE PUSH1 0x20 ADD SWAP1 DUP2 MSTORE PUSH1 0x20 ADD PUSH0 KECCAK256 PUSH1 0x40 MLOAD DUP1 PUSH2 0x180 ADD PUSH1 0x40 MSTORE SWAP1 DUP2 PUSH0 DUP3 ADD SLOAD DUP2 MSTORE PUSH1 0x20 ADD PUSH1 0x1 DUP3 ADD DUP1 SLOAD PUSH2 0x1C5D SWAP1 PUSH2 0x402C JUMP JUMPDEST DUP1 PUSH1 0x1F ADD PUSH1 0x20 DUP1 SWAP2 DIV MUL PUSH1 0x20 ADD PUSH1 0x40 MLOAD SWAP1 DUP2 ADD PUSH1 0x40 MSTORE DUP1 SWAP3 SWAP2 SWAP1 DUP2 DUP2 MSTORE PUSH1 0x20 ADD DUP3 DUP1 SLOAD PUSH2 0x1C89 SWAP1 PUSH2 0x402C JUMP JUMPDEST DUP1 ISZERO PUSH2 0x1CD4 JUMPI DUP1 PUSH1 0x1F LT PUSH2 0x1CAB JUMPI PUSH2 0x100 DUP1 DUP4 SLOAD DIV MUL DUP4 MSTORE SWAP2 PUSH1 0x20 ADD SWAP2 PUSH2 0x1CD4 JUMP JUMPDEST DUP3 ADD SWAP2 SWAP1 PUSH0 MSTORE PUSH1 0x20 PUSH0 KECCAK256 SWAP1 JUMPDEST DUP2 SLOAD DUP2 MSTORE SWAP1 PUSH1 0x1 ADD SWAP1 PUSH1 0x20 ADD DUP1 DUP4 GT PUSH2 0x1CB7 JUMPI DUP3 SWAP1 SUB PUSH1 0x1F AND DUP3 ADD SWAP2 JUMPDEST POP POP POP POP POP DUP2 MSTORE PUSH1 0x20 ADD PUSH1 0x2 DUP3 ADD SLOAD DUP2 MSTORE PUSH1 0x20 ADD PUSH1 0x3 DUP3 ADD DUP1 SLOAD PUSH2 0x1CF7 SWAP1 PUSH2 0x402C JUMP JUMPDEST DUP1 PUSH1 0x1F ADD PUSH1 0x20 DUP1 SWAP2 DIV MUL PUSH1 0x20 ADD PUSH1 0x40 MLOAD SWAP1 DUP2 ADD PUSH1 0x40 MSTORE DUP1 SWAP3 SWAP2 SWAP1 DUP2 DUP2 MSTORE PUSH1 0x20 ADD DUP3 DUP1 SLOAD PUSH2 0x1D23 SWAP1 PUSH2 0x402C JUMP JUMPDEST DUP1 ISZERO PUSH2 0x1D6E JUMPI DUP1 PUSH1 0x1F LT PUSH2 0x1D45 JUMPI PUSH2 0x100 DUP1 DUP4 SLOAD DIV MUL DUP4 MSTORE SWAP2 PUSH1 0x20 ADD SWAP2 PUSH2 0x1D6E JUMP JUMPDEST DUP3 ADD SWAP2 SWAP1 PUSH0 MSTORE PUSH1 0x20 PUSH0 KECCAK256 SWAP1 JUMPDEST DUP2 SLOAD DUP2 MSTORE SWAP1 PUSH1 0x1 ADD SWAP1 PUSH1 0x20 ADD DUP1 DUP4 GT PUSH2 0x1D51 JUMPI DUP3 SWAP1 SUB PUSH1 0x1F AND DUP3 ADD SWAP2 JUMPDEST POP POP POP POP POP DUP2 MSTORE PUSH1 0x20 ADD PUSH1 0x4 DUP3 ADD DUP1 SLOAD PUSH2 0x1D87 SWAP1 PUSH2 0x402C JUMP JUMPDEST DUP1 PUSH1 0x1F ADD PUSH1 0x20 DUP1 SWAP2 DIV MUL PUSH1 0x20 ADD PUSH1 0x40 MLOAD SWAP1 DUP2 ADD PUSH1 0x40 MSTORE DUP1 SWAP3 SWAP2 SWAP1 DUP2 DUP2 MSTORE PUSH1 0x20 ADD DUP3 DUP1 SLOAD PUSH2 0x1DB3 SWAP1 PUSH2 0x402C JUMP JUMPDEST DUP1 ISZERO PUSH2 0x1DFE JUMPI DUP1 PUSH1 0x1F LT PUSH2 0x1DD5 JUMPI PUSH2 0x100 DUP1 DUP4 SLOAD DIV MUL DUP4 MSTORE SWAP2 PUSH1 0x20 ADD SWAP2 PUSH2 0x1DFE JUMP JUMPDEST DUP3 ADD SWAP2 SWAP1 PUSH0 MSTORE PUSH1 0x20 PUSH0 KECCAK256 SWAP1 JUMPDEST DUP2 SLOAD DUP2 MSTORE SWAP1 PUSH1 0x1 ADD SWAP1 PUSH1 0x20 ADD DUP1 DUP4 GT PUSH2 0x1DE1 JUMPI DUP3 SWAP1 SUB PUSH1 0x1F AND DUP3 ADD SWAP2 JUMPDEST POP POP POP POP POP DUP2 MSTORE PUSH1 0x20 ADD PUSH1 0x5 DUP3 ADD SLOAD DUP2 MSTORE PUSH1 0x20 ADD PUSH1 0x6 DUP3 ADD SLOAD DUP2 MSTORE PUSH1 0x20 ADD PUSH1 0x7 DUP3 ADD SLOAD DUP2 MSTORE PUSH1 0x20 ADD PUSH1 0x8 DUP3 ADD SLOAD DUP2 MSTORE PUSH1 0x20 ADD PUSH1 0x9 DUP3 ADD PUSH0 SWAP1 SLOAD SWAP1 PUSH2 0x100 EXP SWAP1 DIV PUSH20 0xFFFFFFFFFFFFFFFFFFFFFFFFFFFFFFFFFFFFFFFF AND PUSH20 0xFFFFFFFFFFFFFFFFFFFFFFFFFFFFFFFFFFFFFFFF AND PUSH20 0xFFFFFFFFFFFFFFFFFFFFFFFFFFFFFFFFFFFFFFFF AND DUP2 MSTORE PUSH1 0x20 ADD PUSH1 0xA DUP3 ADD PUSH0 SWAP1 SLOAD SWAP1 PUSH2 0x100 EXP SWAP1 DIV PUSH20 0xFFFFFFFFFFFFFFFFFFFFFFFFFFFFFFFFFFFFFFFF AND PUSH20 0xFFFFFFFFFFFFFFFFFFFFFFFFFFFFFFFFFFFFFFFF AND PUSH20 0xFFFFFFFFFFFFFFFFFFFFFFFFFFFFFFFFFFFFFFFF AND DUP2 MSTORE PUSH1 0x20 ADD PUSH1 0xA DUP3 ADD PUSH1 0x14 SWAP1 SLOAD SWAP1 PUSH2 0x100 EXP SWAP1 DIV PUSH1 0xFF AND PUSH1 0x4 DUP2 GT ISZERO PUSH2 0x1EFE JUMPI PUSH2 0x1EFD PUSH2 0x3741 JUMP JUMPDEST JUMPDEST PUSH1 0x4 DUP2 GT ISZERO PUSH2 0x1F10 JUMPI PUSH2 0x1F0F PUSH2 0x3741 JUMP JUMPDEST JUMPDEST DUP2 MSTORE POP POP SWAP1 POP SWAP2 SWAP1 POP JUMP JUMPDEST PUSH0 PUSH2 0x1F24 PUSH2 0x203B JUMP JUMPDEST SWAP1 POP DUP1 PUSH20 0xFFFFFFFFFFFFFFFFFFFFFFFFFFFFFFFFFFFFFFFF AND DUP7 PUSH20 0xFFFFFFFFFFFFFFFFFFFFFFFFFFFFFFFFFFFFFFFF AND EQ ISZERO DUP1 ISZERO PUSH2 0x1F69 JUMPI POP PUSH2 0x1F67 DUP7 DUP3 PUSH2 0x189C JUMP JUMPDEST ISZERO JUMPDEST ISZERO PUSH2 0x1FAD JUMPI DUP1 DUP7 PUSH1 0x40 MLOAD PUSH32 0xE237D92200000000000000000000000000000000000000000000000000000000 DUP2 MSTORE PUSH1 0x4 ADD PUSH2 0x1FA4 SWAP3 SWAP2 SWAP1 PUSH2 0x405C JUMP JUMPDEST PUSH1 0x40 MLOAD DUP1 SWAP2 SUB SWAP1 REVERT JUMPDEST PUSH2 0x1FBA DUP7 DUP7 DUP7 DUP7 DUP7 PUSH2 0x239D JUMP JUMPDEST POP POP POP POP POP POP JUMP JUMPDEST PUSH0 PUSH32 0x7965DB0B00000000000000000000000000000000000000000000000000000000 PUSH28 0xFFFFFFFFFFFFFFFFFFFFFFFFFFFFFFFFFFFFFFFFFFFFFFFFFFFFFFFF NOT AND DUP3 PUSH28 0xFFFFFFFFFFFFFFFFFFFFFFFFFFFFFFFFFFFFFFFFFFFFFFFFFFFFFFFF NOT AND EQ DUP1 PUSH2 0x2034 JUMPI POP PUSH2 0x2033 DUP3 PUSH2 0x2743 JUMP JUMPDEST JUMPDEST SWAP1 POP SWAP2 SWAP1 POP JUMP JUMPDEST PUSH0 CALLER SWAP1 POP SWAP1 JUMP JUMPDEST PUSH0 PUSH20 0xFFFFFFFFFFFFFFFFFFFFFFFFFFFFFFFFFFFFFFFF AND DUP5 PUSH20 0xFFFFFFFFFFFFFFFFFFFFFFFFFFFFFFFFFFFFFFFF AND SUB PUSH2 0x20B2 JUMPI PUSH0 PUSH1 0x40 MLOAD PUSH32 0x57F447CE00000000000000000000000000000000000000000000000000000000 DUP2 MSTORE PUSH1 0x4 ADD PUSH2 0x20A9 SWAP2 SWAP1 PUSH2 0x4806 JUMP JUMPDEST PUSH1 0x40 MLOAD DUP1 SWAP2 SUB SWAP1 REVERT JUMPDEST PUSH0 PUSH20 0xFFFFFFFFFFFFFFFFFFFFFFFFFFFFFFFFFFFFFFFF AND DUP6 PUSH20 0xFFFFFFFFFFFFFFFFFFFFFFFFFFFFFFFFFFFFFFFF AND SUB PUSH2 0x2122 JUMPI PUSH0 PUSH1 0x40 MLOAD PUSH32 0x1A8351400000000000000000000000000000000000000000000000000000000 DUP2 MSTORE PUSH1 0x4 ADD PUSH2 0x2119 SWAP2 SWAP1 PUSH2 0x4806 JUMP JUMPDEST PUSH1 0x40 MLOAD DUP1 SWAP2 SUB SWAP1 REVERT JUMPDEST PUSH2 0x212F DUP6 DUP6 DUP6 DUP6 DUP6 PUSH2 0x2824 JUMP JUMPDEST POP POP POP POP POP JUMP JUMPDEST PUSH2 0x2147 DUP2 PUSH2 0x2142 PUSH2 0x203B JUMP JUMPDEST PUSH2 0x28D0 JUMP JUMPDEST POP JUMP JUMPDEST PUSH0 PUSH2 0x2155 DUP4 DUP4 PUSH2 0x10DA JUMP JUMPDEST PUSH2 0x222A JUMPI PUSH1 0x1 PUSH1 0x3 PUSH0 DUP6 DUP2 MSTORE PUSH1 0x20 ADD SWAP1 DUP2 MSTORE PUSH1 0x20 ADD PUSH0 KECCAK256 PUSH0 ADD PUSH0 DUP5 PUSH20 0xFFFFFFFFFFFFFFFFFFFFFFFFFFFFFFFFFFFFFFFF AND PUSH20 0xFFFFFFFFFFFFFFFFFFFFFFFFFFFFFFFFFFFFFFFF AND DUP2 MSTORE PUSH1 0x20 ADD SWAP1 DUP2 MSTORE PUSH1 0x20 ADD PUSH0 KECCAK256 PUSH0 PUSH2 0x100 EXP DUP2 SLOAD DUP2 PUSH1 0xFF MUL NOT AND SWAP1 DUP4 ISZERO ISZERO MUL OR SWAP1 SSTORE POP PUSH2 0x21C7 PUSH2 0x203B JUMP JUMPDEST PUSH20 0xFFFFFFFFFFFFFFFFFFFFFFFFFFFFFFFFFFFFFFFF AND DUP3 PUSH20 0xFFFFFFFFFFFFFFFFFFFFFFFFFFFFFFFFFFFFFFFF AND DUP5 PUSH32 0x2F8788117E7EFF1D82E926EC794901D17C78024A50270940304540A733656F0D PUSH1 0x40 MLOAD PUSH1 0x40 MLOAD DUP1 SWAP2 SUB SWAP1 LOG4 PUSH1 0x1 SWAP1 POP PUSH2 0x222E JUMP JUMPDEST PUSH0 SWAP1 POP JUMPDEST SWAP3 SWAP2 POP POP JUMP JUMPDEST PUSH0 PUSH2 0x223F DUP4 DUP4 PUSH2 0x10DA JUMP JUMPDEST ISZERO PUSH2 0x2314 JUMPI PUSH0 PUSH1 0x3 PUSH0 DUP6 DUP2 MSTORE PUSH1 0x20 ADD SWAP1 DUP2 MSTORE PUSH1 0x20 ADD PUSH0 KECCAK256 PUSH0 ADD PUSH0 DUP5 PUSH20 0xFFFFFFFFFFFFFFFFFFFFFFFFFFFFFFFFFFFFFFFF AND PUSH20 0xFFFFFFFFFFFFFFFFFFFFFFFFFFFFFFFFFFFFFFFF AND DUP2 MSTORE PUSH1 0x20 ADD SWAP1 DUP2 MSTORE PUSH1 0x20 ADD PUSH0 KECCAK256 PUSH0 PUSH2 0x100 EXP DUP2 SLOAD DUP2 PUSH1 0xFF MUL NOT AND SWAP1 DUP4 ISZERO ISZERO MUL OR SWAP1 SSTORE POP PUSH2 0x22B1 PUSH2 0x203B JUMP JUMPDEST PUSH20 0xFFFFFFFFFFFFFFFFFFFFFFFFFFFFFFFFFFFFFFFF AND DUP3 PUSH20 0xFFFFFFFFFFFFFFFFFFFFFFFFFFFFFFFFFFFFFFFF AND DUP5 PUSH32 0xF6391F5C32D9C69D2A47EA670B442974B53935D1EDC7FD64EB21E047A839171B PUSH1 0x40 MLOAD PUSH1 0x40 MLOAD DUP1 SWAP2 SUB SWAP1 LOG4 PUSH1 0x1 SWAP1 POP PUSH2 0x2318 JUMP JUMPDEST PUSH0 SWAP1 POP JUMPDEST SWAP3 SWAP2 POP POP JUMP JUMPDEST PUSH1 0x2 PUSH1 0x4 SLOAD SUB PUSH2 0x2363 JUMPI PUSH1 0x40 MLOAD PUSH32 0x8C379A000000000000000000000000000000000000000000000000000000000 DUP2 MSTORE PUSH1 0x4 ADD PUSH2 0x235A SWAP1 PUSH2 0x4869 JUMP JUMPDEST PUSH1 0x40 MLOAD DUP1 SWAP2 SUB SWAP1 REVERT JUMPDEST PUSH1 0x2 PUSH1 0x4 DUP2 SWAP1 SSTORE POP JUMP JUMPDEST PUSH1 0x1 PUSH1 0x4 DUP2 SWAP1 SSTORE POP JUMP JUMPDEST PUSH0 PUSH1 0x20 DUP3 MUL PUSH1 0x20 DUP5 ADD ADD MLOAD SWAP1 POP SWAP3 SWAP2 POP POP JUMP JUMPDEST PUSH0 PUSH1 0x20 DUP3 MUL PUSH1 0x20 DUP5 ADD ADD MLOAD SWAP1 POP SWAP3 SWAP2 POP POP JUMP JUMPDEST PUSH0 PUSH20 0xFFFFFFFFFFFFFFFFFFFFFFFFFFFFFFFFFFFFFFFF AND DUP5 PUSH20 0xFFFFFFFFFFFFFFFFFFFFFFFFFFFFFFFFFFFFFFFF AND SUB PUSH2 0x240D JUMPI PUSH0 PUSH1 0x40 MLOAD PUSH32 0x57F447CE00000000000000000000000000000000000000000000000000000000 DUP2 MSTORE PUSH1 0x4 ADD PUSH2 0x2404 SWAP2 SWAP1 PUSH2 0x4806 JUMP JUMPDEST PUSH1 0x40 MLOAD DUP1 SWAP2 SUB SWAP1 REVERT JUMPDEST PUSH0 PUSH20 0xFFFFFFFFFFFFFFFFFFFFFFFFFFFFFFFFFFFFFFFF AND DUP6 PUSH20 0xFFFFFFFFFFFFFFFFFFFFFFFFFFFFFFFFFFFFFFFF AND SUB PUSH2 0x247D JUMPI PUSH0 PUSH1 0x40 MLOAD PUSH32 0x1A8351400000000000000000000000000000000000000000000000000000000 DUP2 MSTORE PUSH1 0x4 ADD PUSH2 0x2474 SWAP2 SWAP1 PUSH2 0x4806 JUMP JUMPDEST PUSH1 0x40 MLOAD DUP1 SWAP2 SUB SWAP1 REVERT JUMPDEST PUSH0 DUP1 PUSH2 0x2489 DUP6 DUP6 PUSH2 0x2921 JUMP JUMPDEST SWAP2 POP SWAP2 POP PUSH2 0x249A DUP8 DUP8 DUP5 DUP5 DUP8 PUSH2 0x2824 JUMP JUMPDEST POP POP POP POP POP POP POP JUMP JUMPDEST PUSH0 PUSH20 0xFFFFFFFFFFFFFFFFFFFFFFFFFFFFFFFFFFFFFFFF AND DUP5 PUSH20 0xFFFFFFFFFFFFFFFFFFFFFFFFFFFFFFFFFFFFFFFF AND SUB PUSH2 0x2513 JUMPI PUSH0 PUSH1 0x40 MLOAD PUSH32 0x57F447CE00000000000000000000000000000000000000000000000000000000 DUP2 MSTORE PUSH1 0x4 ADD PUSH2 0x250A SWAP2 SWAP1 PUSH2 0x4806 JUMP JUMPDEST PUSH1 0x40 MLOAD DUP1 SWAP2 SUB SWAP1 REVERT JUMPDEST PUSH0 DUP1 PUSH2 0x251F DUP6 DUP6 PUSH2 0x2921 JUMP JUMPDEST SWAP2 POP SWAP2 POP PUSH2 0x2530 PUSH0 DUP8 DUP5 DUP5 DUP8 PUSH2 0x2824 JUMP JUMPDEST POP POP POP POP POP POP JUMP JUMPDEST PUSH0 PUSH20 0xFFFFFFFFFFFFFFFFFFFFFFFFFFFFFFFFFFFFFFFF AND DUP4 PUSH20 0xFFFFFFFFFFFFFFFFFFFFFFFFFFFFFFFFFFFFFFFF AND SUB PUSH2 0x25A8 JUMPI PUSH0 PUSH1 0x40 MLOAD PUSH32 0x1A8351400000000000000000000000000000000000000000000000000000000 DUP2 MSTORE PUSH1 0x4 ADD PUSH2 0x259F SWAP2 SWAP1 PUSH2 0x4806 JUMP JUMPDEST PUSH1 0x40 MLOAD DUP1 SWAP2 SUB SWAP1 REVERT JUMPDEST PUSH0 DUP1 PUSH2 0x25B4 DUP5 DUP5 PUSH2 0x2921 JUMP JUMPDEST SWAP2 POP SWAP2 POP PUSH2 0x25D3 DUP6 PUSH0 DUP5 DUP5 PUSH1 0x40 MLOAD DUP1 PUSH1 0x20 ADD PUSH1 0x40 MSTORE DUP1 PUSH0 DUP2 MSTORE POP PUSH2 0x2824 JUMP JUMPDEST POP POP POP POP POP JUMP JUMPDEST PUSH0 PUSH20 0xFFFFFFFFFFFFFFFFFFFFFFFFFFFFFFFFFFFFFFFF AND DUP3 PUSH20 0xFFFFFFFFFFFFFFFFFFFFFFFFFFFFFFFFFFFFFFFF AND SUB PUSH2 0x264A JUMPI PUSH0 PUSH1 0x40 MLOAD PUSH32 0xCED3E10000000000000000000000000000000000000000000000000000000000 DUP2 MSTORE PUSH1 0x4 ADD PUSH2 0x2641 SWAP2 SWAP1 PUSH2 0x4806 JUMP JUMPDEST PUSH1 0x40 MLOAD DUP1 SWAP2 SUB SWAP1 REVERT JUMPDEST DUP1 PUSH1 0x1 PUSH0 DUP6 PUSH20 0xFFFFFFFFFFFFFFFFFFFFFFFFFFFFFFFFFFFFFFFF AND PUSH20 0xFFFFFFFFFFFFFFFFFFFFFFFFFFFFFFFFFFFFFFFF AND DUP2 MSTORE PUSH1 0x20 ADD SWAP1 DUP2 MSTORE PUSH1 0x20 ADD PUSH0 KECCAK256 PUSH0 DUP5 PUSH20 0xFFFFFFFFFFFFFFFFFFFFFFFFFFFFFFFFFFFFFFFF AND PUSH20 0xFFFFFFFFFFFFFFFFFFFFFFFFFFFFFFFFFFFFFFFF AND DUP2 MSTORE PUSH1 0x20 ADD SWAP1 DUP2 MSTORE PUSH1 0x20 ADD PUSH0 KECCAK256 PUSH0 PUSH2 0x100 EXP DUP2 SLOAD DUP2 PUSH1 0xFF MUL NOT AND SWAP1 DUP4 ISZERO ISZERO MUL OR SWAP1 SSTORE POP DUP2 PUSH20 0xFFFFFFFFFFFFFFFFFFFFFFFFFFFFFFFFFFFFFFFF AND DUP4 PUSH20 0xFFFFFFFFFFFFFFFFFFFFFFFFFFFFFFFFFFFFFFFF AND PUSH32 0x17307EAB39AB6107E8899845AD3D59BD9653F200F220920489CA2B5937696C31 DUP4 PUSH1 0x40 MLOAD PUSH2 0x2736 SWAP2 SWAP1 PUSH2 0x32DF JUMP JUMPDEST PUSH1 0x40 MLOAD DUP1 SWAP2 SUB SWAP1 LOG3 POP POP POP JUMP JUMPDEST PUSH0 PUSH32 0xD9B67A2600000000000000000000000000000000000000000000000000000000 PUSH28 0xFFFFFFFFFFFFFFFFFFFFFFFFFFFFFFFFFFFFFFFFFFFFFFFFFFFFFFFF NOT AND DUP3 PUSH28 0xFFFFFFFFFFFFFFFFFFFFFFFFFFFFFFFFFFFFFFFFFFFFFFFFFFFFFFFF NOT AND EQ DUP1 PUSH2 0x280D JUMPI POP PUSH32 0xE89341C00000000000000000000000000000000000000000000000000000000 PUSH28 0xFFFFFFFFFFFFFFFFFFFFFFFFFFFFFFFFFFFFFFFFFFFFFFFFFFFFFFFF NOT AND DUP3 PUSH28 0xFFFFFFFFFFFFFFFFFFFFFFFFFFFFFFFFFFFFFFFFFFFFFFFFFFFFFFFF NOT AND EQ JUMPDEST DUP1 PUSH2 0x281D JUMPI POP PUSH2 0x281C DUP3 PUSH2 0x2951 JUMP JUMPDEST JUMPDEST SWAP1 POP SWAP2 SWAP1 POP JUMP JUMPDEST PUSH2 0x2830 DUP6 DUP6 DUP6 DUP6 PUSH2 0x29BA JUMP JUMPDEST PUSH0 PUSH20 0xFFFFFFFFFFFFFFFFFFFFFFFFFFFFFFFFFFFFFFFF AND DUP5 PUSH20 0xFFFFFFFFFFFFFFFFFFFFFFFFFFFFFFFFFFFFFFFF AND EQ PUSH2 0x28C9 JUMPI PUSH0 PUSH2 0x286C PUSH2 0x203B JUMP JUMPDEST SWAP1 POP PUSH1 0x1 DUP5 MLOAD SUB PUSH2 0x28B8 JUMPI PUSH0 PUSH2 0x288B PUSH0 DUP7 PUSH2 0x238A SWAP1 SWAP2 SWAP1 PUSH4 0xFFFFFFFF AND JUMP JUMPDEST SWAP1 POP PUSH0 PUSH2 0x28A1 PUSH0 DUP7 PUSH2 0x238A SWAP1 SWAP2 SWAP1 PUSH4 0xFFFFFFFF AND JUMP JUMPDEST SWAP1 POP PUSH2 0x28B1 DUP4 DUP10 DUP10 DUP6 DUP6 DUP10 PUSH2 0x2D4A JUMP JUMPDEST POP POP PUSH2 0x28C7 JUMP JUMPDEST PUSH2 0x28C6 DUP2 DUP8 DUP8 DUP8 DUP8 DUP8 PUSH2 0x2EF9 JUMP JUMPDEST JUMPDEST POP JUMPDEST POP POP POP POP POP JUMP JUMPDEST PUSH2 0x28DA DUP3 DUP3 PUSH2 0x10DA JUMP JUMPDEST PUSH2 0x291D JUMPI DUP1 DUP3 PUSH1 0x40 MLOAD PUSH32 0xE2517D3F00000000000000000000000000000000000000000000000000000000 DUP2 MSTORE PUSH1 0x4 ADD PUSH2 0x2914 SWAP3 SWAP2 SWAP1 PUSH2 0x4887 JUMP JUMPDEST PUSH1 0x40 MLOAD DUP1 SWAP2 SUB SWAP1 REVERT JUMPDEST POP POP JUMP JUMPDEST PUSH1 0x60 DUP1 PUSH1 0x40 MLOAD SWAP2 POP PUSH1 0x1 DUP3 MSTORE DUP4 PUSH1 0x20 DUP4 ADD MSTORE PUSH1 0x40 DUP3 ADD SWAP1 POP PUSH1 0x1 DUP2 MSTORE DUP3 PUSH1 0x20 DUP3 ADD MSTORE PUSH1 0x40 DUP2 ADD PUSH1 0x40 MSTORE SWAP3 POP SWAP3 SWAP1 POP JUMP JUMPDEST PUSH0 PUSH32 0x1FFC9A700000000000000000000000000000000000000000000000000000000 PUSH28 0xFFFFFFFFFFFFFFFFFFFFFFFFFFFFFFFFFFFFFFFFFFFFFFFFFFFFFFFF NOT AND DUP3 PUSH28 0xFFFFFFFFFFFFFFFFFFFFFFFFFFFFFFFFFFFFFFFFFFFFFFFFFFFFFFFF NOT AND EQ SWAP1 POP SWAP2 SWAP1 POP JUMP JUMPDEST DUP1 MLOAD DUP3 MLOAD EQ PUSH2 0x2A04 JUMPI DUP2 MLOAD DUP2 MLOAD PUSH1 0x40 MLOAD PUSH32 0x5B05999100000000000000000000000000000000000000000000000000000000 DUP2 MSTORE PUSH1 0x4 ADD PUSH2 0x29FB SWAP3 SWAP2 SWAP1 PUSH2 0x414B JUMP JUMPDEST PUSH1 0x40 MLOAD DUP1 SWAP2 SUB SWAP1 REVERT JUMPDEST PUSH0 PUSH2 0x2A0D PUSH2 0x203B JUMP JUMPDEST SWAP1 POP PUSH0 JUMPDEST DUP4 MLOAD DUP2 LT ISZERO PUSH2 0x2C09 JUMPI PUSH0 PUSH2 0x2A2E DUP3 DUP7 PUSH2 0x238A SWAP1 SWAP2 SWAP1 PUSH4 0xFFFFFFFF AND JUMP JUMPDEST SWAP1 POP PUSH0 PUSH2 0x2A44 DUP4 DUP7 PUSH2 0x238A SWAP1 SWAP2 SWAP1 PUSH4 0xFFFFFFFF AND JUMP JUMPDEST SWAP1 POP PUSH0 PUSH20 0xFFFFFFFFFFFFFFFFFFFFFFFFFFFFFFFFFFFFFFFF AND DUP9 PUSH20 0xFFFFFFFFFFFFFFFFFFFFFFFFFFFFFFFFFFFFFFFF AND EQ PUSH2 0x2B67 JUMPI PUSH0 DUP1 PUSH0 DUP5 DUP2 MSTORE PUSH1 0x20 ADD SWAP1 DUP2 MSTORE PUSH1 0x20 ADD PUSH0 KECCAK256 PUSH0 DUP11 PUSH20 0xFFFFFFFFFFFFFFFFFFFFFFFFFFFFFFFFFFFFFFFF AND PUSH20 0xFFFFFFFFFFFFFFFFFFFFFFFFFFFFFFFFFFFFFFFF AND DUP2 MSTORE PUSH1 0x20 ADD SWAP1 DUP2 MSTORE PUSH1 0x20 ADD PUSH0 KECCAK256 SLOAD SWAP1 POP DUP2 DUP2 LT ISZERO PUSH2 0x2B13 JUMPI DUP9 DUP2 DUP4 DUP6 PUSH1 0x40 MLOAD PUSH32 0x3DEE4C500000000000000000000000000000000000000000000000000000000 DUP2 MSTORE PUSH1 0x4 ADD PUSH2 0x2B0A SWAP5 SWAP4 SWAP3 SWAP2 SWAP1 PUSH2 0x48AE JUMP JUMPDEST PUSH1 0x40 MLOAD DUP1 SWAP2 SUB SWAP1 REVERT JUMPDEST DUP2 DUP2 SUB PUSH0 DUP1 DUP6 DUP2 MSTORE PUSH1 0x20 ADD SWAP1 DUP2 MSTORE PUSH1 0x20 ADD PUSH0 KECCAK256 PUSH0 DUP12 PUSH20 0xFFFFFFFFFFFFFFFFFFFFFFFFFFFFFFFFFFFFFFFF AND PUSH20 0xFFFFFFFFFFFFFFFFFFFFFFFFFFFFFFFFFFFFFFFF AND DUP2 MSTORE PUSH1 0x20 ADD SWAP1 DUP2 MSTORE PUSH1 0x20 ADD PUSH0 KECCAK256 DUP2 SWAP1 SSTORE POP POP JUMPDEST PUSH0 PUSH20 0xFFFFFFFFFFFFFFFFFFFFFFFFFFFFFFFFFFFFFFFF AND DUP8 PUSH20 0xFFFFFFFFFFFFFFFFFFFFFFFFFFFFFFFFFFFFFFFF AND EQ PUSH2 0x2BFC JUMPI DUP1 PUSH0 DUP1 DUP5 DUP2 MSTORE PUSH1 0x20 ADD SWAP1 DUP2 MSTORE PUSH1 0x20 ADD PUSH0 KECCAK256 PUSH0 DUP10 PUSH20 0xFFFFFFFFFFFFFFFFFFFFFFFFFFFFFFFFFFFFFFFF AND PUSH20 0xFFFFFFFFFFFFFFFFFFFFFFFFFFFFFFFFFFFFFFFF AND DUP2 MSTORE PUSH1 0x20 ADD SWAP1 DUP2 MSTORE PUSH1 0x20 ADD PUSH0 KECCAK256 PUSH0 DUP3 DUP3 SLOAD PUSH2 0x2BF4 SWAP2 SWAP1 PUSH2 0x4118 JUMP JUMPDEST SWAP3 POP POP DUP2 SWAP1 SSTORE POP JUMPDEST POP POP DUP1 PUSH1 0x1 ADD SWAP1 POP PUSH2 0x2A11 JUMP JUMPDEST POP PUSH1 0x1 DUP4 MLOAD SUB PUSH2 0x2CC4 JUMPI PUSH0 PUSH2 0x2C27 PUSH0 DUP6 PUSH2 0x238A SWAP1 SWAP2 SWAP1 PUSH4 0xFFFFFFFF AND JUMP JUMPDEST SWAP1 POP PUSH0 PUSH2 0x2C3D PUSH0 DUP6 PUSH2 0x238A SWAP1 SWAP2 SWAP1 PUSH4 0xFFFFFFFF AND JUMP JUMPDEST SWAP1 POP DUP6 PUSH20 0xFFFFFFFFFFFFFFFFFFFFFFFFFFFFFFFFFFFFFFFF AND DUP8 PUSH20 0xFFFFFFFFFFFFFFFFFFFFFFFFFFFFFFFFFFFFFFFF AND DUP5 PUSH20 0xFFFFFFFFFFFFFFFFFFFFFFFFFFFFFFFFFFFFFFFF AND PUSH32 0xC3D58168C5AE7397731D063D5BBF3D657854427343F4C083240F7AACAA2D0F62 DUP6 DUP6 PUSH1 0x40 MLOAD PUSH2 0x2CB5 SWAP3 SWAP2 SWAP1 PUSH2 0x414B JUMP JUMPDEST PUSH1 0x40 MLOAD DUP1 SWAP2 SUB SWAP1 LOG4 POP POP PUSH2 0x2D43 JUMP JUMPDEST DUP4 PUSH20 0xFFFFFFFFFFFFFFFFFFFFFFFFFFFFFFFFFFFFFFFF AND DUP6 PUSH20 0xFFFFFFFFFFFFFFFFFFFFFFFFFFFFFFFFFFFFFFFF AND DUP3 PUSH20 0xFFFFFFFFFFFFFFFFFFFFFFFFFFFFFFFFFFFFFFFF AND PUSH32 0x4A39DC06D4C0DBC64B70AF90FD698A233A518AA5D07E595D983B8C0526C8F7FB DUP7 DUP7 PUSH1 0x40 MLOAD PUSH2 0x2D3A SWAP3 SWAP2 SWAP1 PUSH2 0x48F1 JUMP JUMPDEST PUSH1 0x40 MLOAD DUP1 SWAP2 SUB SWAP1 LOG4 JUMPDEST POP POP POP POP POP JUMP JUMPDEST PUSH0 DUP5 PUSH20 0xFFFFFFFFFFFFFFFFFFFFFFFFFFFFFFFFFFFFFFFF AND EXTCODESIZE GT ISZERO PUSH2 0x2EF1 JUMPI DUP4 PUSH20 0xFFFFFFFFFFFFFFFFFFFFFFFFFFFFFFFFFFFFFFFF AND PUSH4 0xF23A6E61 DUP8 DUP8 DUP7 DUP7 DUP7 PUSH1 0x40 MLOAD DUP7 PUSH4 0xFFFFFFFF AND PUSH1 0xE0 SHL DUP2 MSTORE PUSH1 0x4 ADD PUSH2 0x2DAA SWAP6 SWAP5 SWAP4 SWAP3 SWAP2 SWAP1 PUSH2 0x4926 JUMP JUMPDEST PUSH1 0x20 PUSH1 0x40 MLOAD DUP1 DUP4 SUB DUP2 PUSH0 DUP8 GAS CALL SWAP3 POP POP POP DUP1 ISZERO PUSH2 0x2DE5 JUMPI POP PUSH1 0x40 MLOAD RETURNDATASIZE PUSH1 0x1F NOT PUSH1 0x1F DUP3 ADD AND DUP3 ADD DUP1 PUSH1 0x40 MSTORE POP DUP2 ADD SWAP1 PUSH2 0x2DE2 SWAP2 SWAP1 PUSH2 0x4992 JUMP JUMPDEST PUSH1 0x1 JUMPDEST PUSH2 0x2E66 JUMPI RETURNDATASIZE DUP1 PUSH0 DUP2 EQ PUSH2 0x2E13 JUMPI PUSH1 0x40 MLOAD SWAP2 POP PUSH1 0x1F NOT PUSH1 0x3F RETURNDATASIZE ADD AND DUP3 ADD PUSH1 0x40 MSTORE RETURNDATASIZE DUP3 MSTORE RETURNDATASIZE PUSH0 PUSH1 0x20 DUP5 ADD RETURNDATACOPY PUSH2 0x2E18 JUMP JUMPDEST PUSH1 0x60 SWAP2 POP JUMPDEST POP PUSH0 DUP2 MLOAD SUB PUSH2 0x2E5E JUMPI DUP5 PUSH1 0x40 MLOAD PUSH32 0x57F447CE00000000000000000000000000000000000000000000000000000000 DUP2 MSTORE PUSH1 0x4 ADD PUSH2 0x2E55 SWAP2 SWAP1 PUSH2 0x4806 JUMP JUMPDEST PUSH1 0x40 MLOAD DUP1 SWAP2 SUB SWAP1 REVERT JUMPDEST DUP1 MLOAD DUP2 PUSH1 0x20 ADD REVERT JUMPDEST PUSH4 0xF23A6E61 PUSH1 0xE0 SHL PUSH28 0xFFFFFFFFFFFFFFFFFFFFFFFFFFFFFFFFFFFFFFFFFFFFFFFFFFFFFFFF NOT AND DUP2 PUSH28 0xFFFFFFFFFFFFFFFFFFFFFFFFFFFFFFFFFFFFFFFFFFFFFFFFFFFFFFFF NOT AND EQ PUSH2 0x2EEF JUMPI DUP5 PUSH1 0x40 MLOAD PUSH32 0x57F447CE00000000000000000000000000000000000000000000000000000000 DUP2 MSTORE PUSH1 0x4 ADD PUSH2 0x2EE6 SWAP2 SWAP1 PUSH2 0x4806 JUMP JUMPDEST PUSH1 0x40 MLOAD DUP1 SWAP2 SUB SWAP1 REVERT JUMPDEST POP JUMPDEST POP POP POP POP POP POP JUMP JUMPDEST PUSH0 DUP5 PUSH20 0xFFFFFFFFFFFFFFFFFFFFFFFFFFFFFFFFFFFFFFFF AND EXTCODESIZE GT ISZERO PUSH2 0x30A0 JUMPI DUP4 PUSH20 0xFFFFFFFFFFFFFFFFFFFFFFFFFFFFFFFFFFFFFFFF AND PUSH4 0xBC197C81 DUP8 DUP8 DUP7 DUP7 DUP7 PUSH1 0x40 MLOAD DUP7 PUSH4 0xFFFFFFFF AND PUSH1 0xE0 SHL DUP2 MSTORE PUSH1 0x4 ADD PUSH2 0x2F59 SWAP6 SWAP5 SWAP4 SWAP3 SWAP2 SWAP1 PUSH2 0x49BD JUMP JUMPDEST PUSH1 0x20 PUSH1 0x40 MLOAD DUP1 DUP4 SUB DUP2 PUSH0 DUP8 GAS CALL SWAP3 POP POP POP DUP1 ISZERO PUSH2 0x2F94 JUMPI POP PUSH1 0x40 MLOAD RETURNDATASIZE PUSH1 0x1F NOT PUSH1 0x1F DUP3 ADD AND DUP3 ADD DUP1 PUSH1 0x40 MSTORE POP DUP2 ADD SWAP1 PUSH2 0x2F91 SWAP2 SWAP1 PUSH2 0x4992 JUMP JUMPDEST PUSH1 0x1 JUMPDEST PUSH2 0x3015 JUMPI RETURNDATASIZE DUP1 PUSH0 DUP2 EQ PUSH2 0x2FC2 JUMPI PUSH1 0x40 MLOAD SWAP2 POP PUSH1 0x1F NOT PUSH1 0x3F RETURNDATASIZE ADD AND DUP3 ADD PUSH1 0x40 MSTORE RETURNDATASIZE DUP3 MSTORE RETURNDATASIZE PUSH0 PUSH1 0x20 DUP5 ADD RETURNDATACOPY PUSH2 0x2FC7 JUMP JUMPDEST PUSH1 0x60 SWAP2 POP JUMPDEST POP PUSH0 DUP2 MLOAD SUB PUSH2 0x300D JUMPI DUP5 PUSH1 0x40 MLOAD PUSH32 0x57F447CE00000000000000000000000000000000000000000000000000000000 DUP2 MSTORE PUSH1 0x4 ADD PUSH2 0x3004 SWAP2 SWAP1 PUSH2 0x4806 JUMP JUMPDEST PUSH1 0x40 MLOAD DUP1 SWAP2 SUB SWAP1 REVERT JUMPDEST DUP1 MLOAD DUP2 PUSH1 0x20 ADD REVERT JUMPDEST PUSH4 0xBC197C81 PUSH1 0xE0 SHL PUSH28 0xFFFFFFFFFFFFFFFFFFFFFFFFFFFFFFFFFFFFFFFFFFFFFFFFFFFFFFFF NOT AND DUP2 PUSH28 0xFFFFFFFFFFFFFFFFFFFFFFFFFFFFFFFFFFFFFFFFFFFFFFFFFFFFFFFF NOT AND EQ PUSH2 0x309E JUMPI DUP5 PUSH1 0x40 MLOAD PUSH32 0x57F447CE00000000000000000000000000000000000000000000000000000000 DUP2 MSTORE PUSH1 0x4 ADD PUSH2 0x3095 SWAP2 SWAP1 PUSH2 0x4806 JUMP JUMPDEST PUSH1 0x40 MLOAD DUP1 SWAP2 SUB SWAP1 REVERT JUMPDEST POP JUMPDEST POP POP POP POP POP POP JUMP JUMPDEST PUSH1 0x40 MLOAD DUP1 PUSH2 0x180 ADD PUSH1 0x40 MSTORE DUP1 PUSH0 DUP2 MSTORE PUSH1 0x20 ADD PUSH1 0x60 DUP2 MSTORE PUSH1 0x20 ADD PUSH0 DUP1 NOT AND DUP2 MSTORE PUSH1 0x20 ADD PUSH1 0x60 DUP2 MSTORE PUSH1 0x20 ADD PUSH1 0x60 DUP2 MSTORE PUSH1 0x20 ADD PUSH0 DUP2 MSTORE PUSH1 0x20 ADD PUSH0 DUP2 MSTORE PUSH1 0x20 ADD PUSH0 DUP2 MSTORE PUSH1 0x20 ADD PUSH0 DUP2 MSTORE PUSH1 0x20 ADD PUSH0 PUSH20 0xFFFFFFFFFFFFFFFFFFFFFFFFFFFFFFFFFFFFFFFF AND DUP2 MSTORE PUSH1 0x20 ADD PUSH0 PUSH20 0xFFFFFFFFFFFFFFFFFFFFFFFFFFFFFFFFFFFFFFFF AND DUP2 MSTORE PUSH1 0x20 ADD PUSH0 PUSH1 0x4 DUP2 GT ISZERO PUSH2 0x313B JUMPI PUSH2 0x313A PUSH2 0x3741 JUMP JUMPDEST JUMPDEST DUP2 MSTORE POP SWAP1 JUMP JUMPDEST PUSH0 PUSH1 0x40 MLOAD SWAP1 POP SWAP1 JUMP JUMPDEST PUSH0 DUP1 REVERT JUMPDEST PUSH0 DUP1 REVERT JUMPDEST PUSH0 PUSH20 0xFFFFFFFFFFFFFFFFFFFFFFFFFFFFFFFFFFFFFFFF DUP3 AND SWAP1 POP SWAP2 SWAP1 POP JUMP JUMPDEST PUSH0 PUSH2 0x317B DUP3 PUSH2 0x3152 JUMP JUMPDEST SWAP1 POP SWAP2 SWAP1 POP JUMP JUMPDEST PUSH2 0x318B DUP2 PUSH2 0x3171 JUMP JUMPDEST DUP2 EQ PUSH2 0x3195 JUMPI PUSH0 DUP1 REVERT JUMPDEST POP JUMP JUMPDEST PUSH0 DUP2 CALLDATALOAD SWAP1 POP PUSH2 0x31A6 DUP2 PUSH2 0x3182 JUMP JUMPDEST SWAP3 SWAP2 POP POP JUMP JUMPDEST PUSH0 DUP2 SWAP1 POP SWAP2 SWAP1 POP JUMP JUMPDEST PUSH2 0x31BE DUP2 PUSH2 0x31AC JUMP JUMPDEST DUP2 EQ PUSH2 0x31C8 JUMPI PUSH0 DUP1 REVERT JUMPDEST POP JUMP JUMPDEST PUSH0 DUP2 CALLDATALOAD SWAP1 POP PUSH2 0x31D9 DUP2 PUSH2 0x31B5 JUMP JUMPDEST SWAP3 SWAP2 POP POP JUMP JUMPDEST PUSH0 DUP1 PUSH1 0x40 DUP4 DUP6 SUB SLT ISZERO PUSH2 0x31F5 JUMPI PUSH2 0x31F4 PUSH2 0x314A JUMP JUMPDEST JUMPDEST PUSH0 PUSH2 0x3202 DUP6 DUP3 DUP7 ADD PUSH2 0x3198 JUMP JUMPDEST SWAP3 POP POP PUSH1 0x20 PUSH2 0x3213 DUP6 DUP3 DUP7 ADD PUSH2 0x31CB JUMP JUMPDEST SWAP2 POP POP SWAP3 POP SWAP3 SWAP1 POP JUMP JUMPDEST PUSH2 0x3226 DUP2 PUSH2 0x31AC JUMP JUMPDEST DUP3 MSTORE POP POP JUMP JUMPDEST PUSH0 PUSH1 0x20 DUP3 ADD SWAP1 POP PUSH2 0x323F PUSH0 DUP4 ADD DUP5 PUSH2 0x321D JUMP JUMPDEST SWAP3 SWAP2 POP POP JUMP JUMPDEST PUSH0 PUSH32 0xFFFFFFFF00000000000000000000000000000000000000000000000000000000 DUP3 AND SWAP1 POP SWAP2 SWAP1 POP JUMP JUMPDEST PUSH2 0x3279 DUP2 PUSH2 0x3245 JUMP JUMPDEST DUP2 EQ PUSH2 0x3283 JUMPI PUSH0 DUP1 REVERT JUMPDEST POP JUMP JUMPDEST PUSH0 DUP2 CALLDATALOAD SWAP1 POP PUSH2 0x3294 DUP2 PUSH2 0x3270 JUMP JUMPDEST SWAP3 SWAP2 POP POP JUMP JUMPDEST PUSH0 PUSH1 0x20 DUP3 DUP5 SUB SLT ISZERO PUSH2 0x32AF JUMPI PUSH2 0x32AE PUSH2 0x314A JUMP JUMPDEST JUMPDEST PUSH0 PUSH2 0x32BC DUP5 DUP3 DUP6 ADD PUSH2 0x3286 JUMP JUMPDEST SWAP2 POP POP SWAP3 SWAP2 POP POP JUMP JUMPDEST PUSH0 DUP2 ISZERO ISZERO SWAP1 POP SWAP2 SWAP1 POP JUMP JUMPDEST PUSH2 0x32D9 DUP2 PUSH2 0x32C5 JUMP JUMPDEST DUP3 MSTORE POP POP JUMP JUMPDEST PUSH0 PUSH1 0x20 DUP3 ADD SWAP1 POP PUSH2 0x32F2 PUSH0 DUP4 ADD DUP5 PUSH2 0x32D0 JUMP JUMPDEST SWAP3 SWAP2 POP POP JUMP JUMPDEST PUSH0 PUSH1 0x20 DUP3 DUP5 SUB SLT ISZERO PUSH2 0x330D JUMPI PUSH2 0x330C PUSH2 0x314A JUMP JUMPDEST JUMPDEST PUSH0 PUSH2 0x331A DUP5 DUP3 DUP6 ADD PUSH2 0x31CB JUMP JUMPDEST SWAP2 POP POP SWAP3 SWAP2 POP POP JUMP JUMPDEST PUSH0 DUP2 MLOAD SWAP1 POP SWAP2 SWAP1 POP JUMP JUMPDEST PUSH0 DUP3 DUP3 MSTORE PUSH1 0x20 DUP3 ADD SWAP1 POP SWAP3 SWAP2 POP POP JUMP JUMPDEST DUP3 DUP2 DUP4 MCOPY PUSH0 DUP4 DUP4 ADD MSTORE POP POP POP JUMP JUMPDEST PUSH0 PUSH1 0x1F NOT PUSH1 0x1F DUP4 ADD AND SWAP1 POP SWAP2 SWAP1 POP JUMP JUMPDEST PUSH0 PUSH2 0x3365 DUP3 PUSH2 0x3323 JUMP JUMPDEST PUSH2 0x336F DUP2 DUP6 PUSH2 0x332D JUMP JUMPDEST SWAP4 POP PUSH2 0x337F DUP2 DUP6 PUSH1 0x20 DUP7 ADD PUSH2 0x333D JUMP JUMPDEST PUSH2 0x3388 DUP2 PUSH2 0x334B JUMP JUMPDEST DUP5 ADD SWAP2 POP POP SWAP3 SWAP2 POP POP JUMP JUMPDEST PUSH0 PUSH1 0x20 DUP3 ADD SWAP1 POP DUP2 DUP2 SUB PUSH0 DUP4 ADD MSTORE PUSH2 0x33AB DUP2 DUP5 PUSH2 0x335B JUMP JUMPDEST SWAP1 POP SWAP3 SWAP2 POP POP JUMP JUMPDEST PUSH0 DUP2 SWAP1 POP SWAP2 SWAP1 POP JUMP JUMPDEST PUSH2 0x33C5 DUP2 PUSH2 0x33B3 JUMP JUMPDEST DUP2 EQ PUSH2 0x33CF JUMPI PUSH0 DUP1 REVERT JUMPDEST POP JUMP JUMPDEST PUSH0 DUP2 CALLDATALOAD SWAP1 POP PUSH2 0x33E0 DUP2 PUSH2 0x33BC JUMP JUMPDEST SWAP3 SWAP2 POP POP JUMP JUMPDEST PUSH0 PUSH1 0x20 DUP3 DUP5 SUB SLT ISZERO PUSH2 0x33FB JUMPI PUSH2 0x33FA PUSH2 0x314A JUMP JUMPDEST JUMPDEST PUSH0 PUSH2 0x3408 DUP5 DUP3 DUP6 ADD PUSH2 0x33D2 JUMP JUMPDEST SWAP2 POP POP SWAP3 SWAP2 POP POP JUMP JUMPDEST PUSH2 0x341A DUP2 PUSH2 0x33B3 JUMP JUMPDEST DUP3 MSTORE POP POP JUMP JUMPDEST PUSH0 PUSH1 0x20 DUP3 ADD SWAP1 POP PUSH2 0x3433 PUSH0 DUP4 ADD DUP5 PUSH2 0x3411 JUMP JUMPDEST SWAP3 SWAP2 POP POP JUMP JUMPDEST PUSH0 DUP1 REVERT JUMPDEST PUSH32 0x4E487B7100000000000000000000000000000000000000000000000000000000 PUSH0 MSTORE PUSH1 0x41 PUSH1 0x4 MSTORE PUSH1 0x24 PUSH0 REVERT JUMPDEST PUSH2 0x3473 DUP3 PUSH2 0x334B JUMP JUMPDEST DUP2 ADD DUP2 DUP2 LT PUSH8 0xFFFFFFFFFFFFFFFF DUP3 GT OR ISZERO PUSH2 0x3492 JUMPI PUSH2 0x3491 PUSH2 0x343D JUMP JUMPDEST JUMPDEST DUP1 PUSH1 0x40 MSTORE POP POP POP JUMP JUMPDEST PUSH0 PUSH2 0x34A4 PUSH2 0x3141 JUMP JUMPDEST SWAP1 POP PUSH2 0x34B0 DUP3 DUP3 PUSH2 0x346A JUMP JUMPDEST SWAP2 SWAP1 POP JUMP JUMPDEST PUSH0 PUSH8 0xFFFFFFFFFFFFFFFF DUP3 GT ISZERO PUSH2 0x34CF JUMPI PUSH2 0x34CE PUSH2 0x343D JUMP JUMPDEST JUMPDEST PUSH1 0x20 DUP3 MUL SWAP1 POP PUSH1 0x20 DUP2 ADD SWAP1 POP SWAP2 SWAP1 POP JUMP JUMPDEST PUSH0 DUP1 REVERT JUMPDEST PUSH0 PUSH2 0x34F6 PUSH2 0x34F1 DUP5 PUSH2 0x34B5 JUMP JUMPDEST PUSH2 0x349B JUMP JUMPDEST SWAP1 POP DUP1 DUP4 DUP3 MSTORE PUSH1 0x20 DUP3 ADD SWAP1 POP PUSH1 0x20 DUP5 MUL DUP4 ADD DUP6 DUP2 GT ISZERO PUSH2 0x3519 JUMPI PUSH2 0x3518 PUSH2 0x34E0 JUMP JUMPDEST JUMPDEST DUP4 JUMPDEST DUP2 DUP2 LT ISZERO PUSH2 0x3542 JUMPI DUP1 PUSH2 0x352E DUP9 DUP3 PUSH2 0x31CB JUMP JUMPDEST DUP5 MSTORE PUSH1 0x20 DUP5 ADD SWAP4 POP POP PUSH1 0x20 DUP2 ADD SWAP1 POP PUSH2 0x351B JUMP JUMPDEST POP POP POP SWAP4 SWAP3 POP POP POP JUMP JUMPDEST PUSH0 DUP3 PUSH1 0x1F DUP4 ADD SLT PUSH2 0x3560 JUMPI PUSH2 0x355F PUSH2 0x3439 JUMP JUMPDEST JUMPDEST DUP2 CALLDATALOAD PUSH2 0x3570 DUP5 DUP3 PUSH1 0x20 DUP7 ADD PUSH2 0x34E4 JUMP JUMPDEST SWAP2 POP POP SWAP3 SWAP2 POP POP JUMP JUMPDEST PUSH0 DUP1 REVERT JUMPDEST PUSH0 PUSH8 0xFFFFFFFFFFFFFFFF DUP3 GT ISZERO PUSH2 0x3597 JUMPI PUSH2 0x3596 PUSH2 0x343D JUMP JUMPDEST JUMPDEST PUSH2 0x35A0 DUP3 PUSH2 0x334B JUMP JUMPDEST SWAP1 POP PUSH1 0x20 DUP2 ADD SWAP1 POP SWAP2 SWAP1 POP JUMP JUMPDEST DUP3 DUP2 DUP4 CALLDATACOPY PUSH0 DUP4 DUP4 ADD MSTORE POP POP POP JUMP JUMPDEST PUSH0 PUSH2 0x35CD PUSH2 0x35C8 DUP5 PUSH2 0x357D JUMP JUMPDEST PUSH2 0x349B JUMP JUMPDEST SWAP1 POP DUP3 DUP2 MSTORE PUSH1 0x20 DUP2 ADD DUP5 DUP5 DUP5 ADD GT ISZERO PUSH2 0x35E9 JUMPI PUSH2 0x35E8 PUSH2 0x3579 JUMP JUMPDEST JUMPDEST PUSH2 0x35F4 DUP5 DUP3 DUP6 PUSH2 0x35AD JUMP JUMPDEST POP SWAP4 SWAP3 POP POP POP JUMP JUMPDEST PUSH0 DUP3 PUSH1 0x1F DUP4 ADD SLT PUSH2 0x3610 JUMPI PUSH2 0x360F PUSH2 0x3439 JUMP JUMPDEST JUMPDEST DUP2 CALLDATALOAD PUSH2 0x3620 DUP5 DUP3 PUSH1 0x20 DUP7 ADD PUSH2 0x35BB JUMP JUMPDEST SWAP2 POP POP SWAP3 SWAP2 POP POP JUMP JUMPDEST PUSH0 DUP1 PUSH0 DUP1 PUSH0 PUSH1 0xA0 DUP7 DUP9 SUB SLT ISZERO PUSH2 0x3642 JUMPI PUSH2 0x3641 PUSH2 0x314A JUMP JUMPDEST JUMPDEST PUSH0 PUSH2 0x364F DUP9 DUP3 DUP10 ADD PUSH2 0x3198 JUMP JUMPDEST SWAP6 POP POP PUSH1 0x20 PUSH2 0x3660 DUP9 DUP3 DUP10 ADD PUSH2 0x3198 JUMP JUMPDEST SWAP5 POP POP PUSH1 0x40 DUP7 ADD CALLDATALOAD PUSH8 0xFFFFFFFFFFFFFFFF DUP2 GT ISZERO PUSH2 0x3681 JUMPI PUSH2 0x3680 PUSH2 0x314E JUMP JUMPDEST JUMPDEST PUSH2 0x368D DUP9 DUP3 DUP10 ADD PUSH2 0x354C JUMP JUMPDEST SWAP4 POP POP PUSH1 0x60 DUP7 ADD CALLDATALOAD PUSH8 0xFFFFFFFFFFFFFFFF DUP2 GT ISZERO PUSH2 0x36AE JUMPI PUSH2 0x36AD PUSH2 0x314E JUMP JUMPDEST JUMPDEST PUSH2 0x36BA DUP9 DUP3 DUP10 ADD PUSH2 0x354C JUMP JUMPDEST SWAP3 POP POP PUSH1 0x80 DUP7 ADD CALLDATALOAD PUSH8 0xFFFFFFFFFFFFFFFF DUP2 GT ISZERO PUSH2 0x36DB JUMPI PUSH2 0x36DA PUSH2 0x314E JUMP JUMPDEST JUMPDEST PUSH2 0x36E7 DUP9 DUP3 DUP10 ADD PUSH2 0x35FC JUMP JUMPDEST SWAP2 POP POP SWAP3 SWAP6 POP SWAP3 SWAP6 SWAP1 SWAP4 POP JUMP JUMPDEST PUSH0 DUP1 PUSH1 0x40 DUP4 DUP6 SUB SLT ISZERO PUSH2 0x370A JUMPI PUSH2 0x3709 PUSH2 0x314A JUMP JUMPDEST JUMPDEST PUSH0 PUSH2 0x3717 DUP6 DUP3 DUP7 ADD PUSH2 0x33D2 JUMP JUMPDEST SWAP3 POP POP PUSH1 0x20 PUSH2 0x3728 DUP6 DUP3 DUP7 ADD PUSH2 0x3198 JUMP JUMPDEST SWAP2 POP POP SWAP3 POP SWAP3 SWAP1 POP JUMP JUMPDEST PUSH2 0x373B DUP2 PUSH2 0x3171 JUMP JUMPDEST DUP3 MSTORE POP POP JUMP JUMPDEST PUSH32 0x4E487B7100000000000000000000000000000000000000000000000000000000 PUSH0 MSTORE PUSH1 0x21 PUSH1 0x4 MSTORE PUSH1 0x24 PUSH0 REVERT JUMPDEST PUSH1 0x5 DUP2 LT PUSH2 0x377F JUMPI PUSH2 0x377E PUSH2 0x3741 JUMP JUMPDEST JUMPDEST POP JUMP JUMPDEST PUSH0 DUP2 SWAP1 POP PUSH2 0x378F DUP3 PUSH2 0x376E JUMP JUMPDEST SWAP2 SWAP1 POP JUMP JUMPDEST PUSH0 PUSH2 0x379E DUP3 PUSH2 0x3782 JUMP JUMPDEST SWAP1 POP SWAP2 SWAP1 POP JUMP JUMPDEST PUSH2 0x37AE DUP2 PUSH2 0x3794 JUMP JUMPDEST DUP3 MSTORE POP POP JUMP JUMPDEST PUSH0 PUSH2 0x180 DUP3 ADD SWAP1 POP PUSH2 0x37C8 PUSH0 DUP4 ADD DUP16 PUSH2 0x321D JUMP JUMPDEST DUP2 DUP2 SUB PUSH1 0x20 DUP4 ADD MSTORE PUSH2 0x37DA DUP2 DUP15 PUSH2 0x335B JUMP JUMPDEST SWAP1 POP PUSH2 0x37E9 PUSH1 0x40 DUP4 ADD DUP14 PUSH2 0x3411 JUMP JUMPDEST DUP2 DUP2 SUB PUSH1 0x60 DUP4 ADD MSTORE PUSH2 0x37FB DUP2 DUP13 PUSH2 0x335B JUMP JUMPDEST SWAP1 POP DUP2 DUP2 SUB PUSH1 0x80 DUP4 ADD MSTORE PUSH2 0x380F DUP2 DUP12 PUSH2 0x335B JUMP JUMPDEST SWAP1 POP PUSH2 0x381E PUSH1 0xA0 DUP4 ADD DUP11 PUSH2 0x321D JUMP JUMPDEST PUSH2 0x382B PUSH1 0xC0 DUP4 ADD DUP10 PUSH2 0x321D JUMP JUMPDEST PUSH2 0x3838 PUSH1 0xE0 DUP4 ADD DUP9 PUSH2 0x321D JUMP JUMPDEST PUSH2 0x3846 PUSH2 0x100 DUP4 ADD DUP8 PUSH2 0x321D JUMP JUMPDEST PUSH2 0x3854 PUSH2 0x120 DUP4 ADD DUP7 PUSH2 0x3732 JUMP JUMPDEST PUSH2 0x3862 PUSH2 0x140 DUP4 ADD DUP6 PUSH2 0x3732 JUMP JUMPDEST PUSH2 0x3870 PUSH2 0x160 DUP4 ADD DUP5 PUSH2 0x37A5 JUMP JUMPDEST SWAP14 SWAP13 POP POP POP POP POP POP POP POP POP POP POP POP POP JUMP JUMPDEST PUSH0 DUP1 PUSH1 0x40 DUP4 DUP6 SUB SLT ISZERO PUSH2 0x3897 JUMPI PUSH2 0x3896 PUSH2 0x314A JUMP JUMPDEST JUMPDEST PUSH0 PUSH2 0x38A4 DUP6 DUP3 DUP7 ADD PUSH2 0x31CB JUMP JUMPDEST SWAP3 POP POP PUSH1 0x20 PUSH2 0x38B5 DUP6 DUP3 DUP7 ADD PUSH2 0x31CB JUMP JUMPDEST SWAP2 POP POP SWAP3 POP SWAP3 SWAP1 POP JUMP JUMPDEST PUSH0 PUSH8 0xFFFFFFFFFFFFFFFF DUP3 GT ISZERO PUSH2 0x38D9 JUMPI PUSH2 0x38D8 PUSH2 0x343D JUMP JUMPDEST JUMPDEST PUSH1 0x20 DUP3 MUL SWAP1 POP PUSH1 0x20 DUP2 ADD SWAP1 POP SWAP2 SWAP1 POP JUMP JUMPDEST PUSH0 PUSH2 0x38FC PUSH2 0x38F7 DUP5 PUSH2 0x38BF JUMP JUMPDEST PUSH2 0x349B JUMP JUMPDEST SWAP1 POP DUP1 DUP4 DUP3 MSTORE PUSH1 0x20 DUP3 ADD SWAP1 POP PUSH1 0x20 DUP5 MUL DUP4 ADD DUP6 DUP2 GT ISZERO PUSH2 0x391F JUMPI PUSH2 0x391E PUSH2 0x34E0 JUMP JUMPDEST JUMPDEST DUP4 JUMPDEST DUP2 DUP2 LT ISZERO PUSH2 0x3948 JUMPI DUP1 PUSH2 0x3934 DUP9 DUP3 PUSH2 0x3198 JUMP JUMPDEST DUP5 MSTORE PUSH1 0x20 DUP5 ADD SWAP4 POP POP PUSH1 0x20 DUP2 ADD SWAP1 POP PUSH2 0x3921 JUMP JUMPDEST POP POP POP SWAP4 SWAP3 POP POP POP JUMP JUMPDEST PUSH0 DUP3 PUSH1 0x1F DUP4 ADD SLT PUSH2 0x3966 JUMPI PUSH2 0x3965 PUSH2 0x3439 JUMP JUMPDEST JUMPDEST DUP2 CALLDATALOAD PUSH2 0x3976 DUP5 DUP3 PUSH1 0x20 DUP7 ADD PUSH2 0x38EA JUMP JUMPDEST SWAP2 POP POP SWAP3 SWAP2 POP POP JUMP JUMPDEST PUSH0 DUP1 PUSH1 0x40 DUP4 DUP6 SUB SLT ISZERO PUSH2 0x3995 JUMPI PUSH2 0x3994 PUSH2 0x314A JUMP JUMPDEST JUMPDEST PUSH0 DUP4 ADD CALLDATALOAD PUSH8 0xFFFFFFFFFFFFFFFF DUP2 GT ISZERO PUSH2 0x39B2 JUMPI PUSH2 0x39B1 PUSH2 0x314E JUMP JUMPDEST JUMPDEST PUSH2 0x39BE DUP6 DUP3 DUP7 ADD PUSH2 0x3952 JUMP JUMPDEST SWAP3 POP POP PUSH1 0x20 DUP4 ADD CALLDATALOAD PUSH8 0xFFFFFFFFFFFFFFFF DUP2 GT ISZERO PUSH2 0x39DF JUMPI PUSH2 0x39DE PUSH2 0x314E JUMP JUMPDEST JUMPDEST PUSH2 0x39EB DUP6 DUP3 DUP7 ADD PUSH2 0x354C JUMP JUMPDEST SWAP2 POP POP SWAP3 POP SWAP3 SWAP1 POP JUMP JUMPDEST PUSH0 DUP2 MLOAD SWAP1 POP SWAP2 SWAP1 POP JUMP JUMPDEST PUSH0 DUP3 DUP3 MSTORE PUSH1 0x20 DUP3 ADD SWAP1 POP SWAP3 SWAP2 POP POP JUMP JUMPDEST PUSH0 DUP2 SWAP1 POP PUSH1 0x20 DUP3 ADD SWAP1 POP SWAP2 SWAP1 POP JUMP JUMPDEST PUSH2 0x3A27 DUP2 PUSH2 0x31AC JUMP JUMPDEST DUP3 MSTORE POP POP JUMP JUMPDEST PUSH0 PUSH2 0x3A38 DUP4 DUP4 PUSH2 0x3A1E JUMP JUMPDEST PUSH1 0x20 DUP4 ADD SWAP1 POP SWAP3 SWAP2 POP POP JUMP JUMPDEST PUSH0 PUSH1 0x20 DUP3 ADD SWAP1 POP SWAP2 SWAP1 POP JUMP JUMPDEST PUSH0 PUSH2 0x3A5A DUP3 PUSH2 0x39F5 JUMP JUMPDEST PUSH2 0x3A64 DUP2 DUP6 PUSH2 0x39FF JUMP JUMPDEST SWAP4 POP PUSH2 0x3A6F DUP4 PUSH2 0x3A0F JUMP JUMPDEST DUP1 PUSH0 JUMPDEST DUP4 DUP2 LT ISZERO PUSH2 0x3A9F JUMPI DUP2 MLOAD PUSH2 0x3A86 DUP9 DUP3 PUSH2 0x3A2D JUMP JUMPDEST SWAP8 POP PUSH2 0x3A91 DUP4 PUSH2 0x3A44 JUMP JUMPDEST SWAP3 POP POP PUSH1 0x1 DUP2 ADD SWAP1 POP PUSH2 0x3A72 JUMP JUMPDEST POP DUP6 SWAP4 POP POP POP POP SWAP3 SWAP2 POP POP JUMP JUMPDEST PUSH0 PUSH1 0x20 DUP3 ADD SWAP1 POP DUP2 DUP2 SUB PUSH0 DUP4 ADD MSTORE PUSH2 0x3AC4 DUP2 DUP5 PUSH2 0x3A50 JUMP JUMPDEST SWAP1 POP SWAP3 SWAP2 POP POP JUMP JUMPDEST PUSH0 PUSH8 0xFFFFFFFFFFFFFFFF DUP3 GT ISZERO PUSH2 0x3AE6 JUMPI PUSH2 0x3AE5 PUSH2 0x343D JUMP JUMPDEST JUMPDEST PUSH2 0x3AEF DUP3 PUSH2 0x334B JUMP JUMPDEST SWAP1 POP PUSH1 0x20 DUP2 ADD SWAP1 POP SWAP2 SWAP1 POP JUMP JUMPDEST PUSH0 PUSH2 0x3B0E PUSH2 0x3B09 DUP5 PUSH2 0x3ACC JUMP JUMPDEST PUSH2 0x349B JUMP JUMPDEST SWAP1 POP DUP3 DUP2 MSTORE PUSH1 0x20 DUP2 ADD DUP5 DUP5 DUP5 ADD GT ISZERO PUSH2 0x3B2A JUMPI PUSH2 0x3B29 PUSH2 0x3579 JUMP JUMPDEST JUMPDEST PUSH2 0x3B35 DUP5 DUP3 DUP6 PUSH2 0x35AD JUMP JUMPDEST POP SWAP4 SWAP3 POP POP POP JUMP JUMPDEST PUSH0 DUP3 PUSH1 0x1F DUP4 ADD SLT PUSH2 0x3B51 JUMPI PUSH2 0x3B50 PUSH2 0x3439 JUMP JUMPDEST JUMPDEST DUP2 CALLDATALOAD PUSH2 0x3B61 DUP5 DUP3 PUSH1 0x20 DUP7 ADD PUSH2 0x3AFC JUMP JUMPDEST SWAP2 POP POP SWAP3 SWAP2 POP POP JUMP JUMPDEST PUSH0 DUP1 PUSH0 DUP1 PUSH0 DUP1 PUSH1 0xC0 DUP8 DUP10 SUB SLT ISZERO PUSH2 0x3B84 JUMPI PUSH2 0x3B83 PUSH2 0x314A JUMP JUMPDEST JUMPDEST PUSH0 DUP8 ADD CALLDATALOAD PUSH8 0xFFFFFFFFFFFFFFFF DUP2 GT ISZERO PUSH2 0x3BA1 JUMPI PUSH2 0x3BA0 PUSH2 0x314E JUMP JUMPDEST JUMPDEST PUSH2 0x3BAD DUP10 DUP3 DUP11 ADD PUSH2 0x3B3D JUMP JUMPDEST SWAP7 POP POP PUSH1 0x20 PUSH2 0x3BBE DUP10 DUP3 DUP11 ADD PUSH2 0x33D2 JUMP JUMPDEST SWAP6 POP POP PUSH1 0x40 DUP8 ADD CALLDATALOAD PUSH8 0xFFFFFFFFFFFFFFFF DUP2 GT ISZERO PUSH2 0x3BDF JUMPI PUSH2 0x3BDE PUSH2 0x314E JUMP JUMPDEST JUMPDEST PUSH2 0x3BEB DUP10 DUP3 DUP11 ADD PUSH2 0x3B3D JUMP JUMPDEST SWAP5 POP POP PUSH1 0x60 DUP8 ADD CALLDATALOAD PUSH8 0xFFFFFFFFFFFFFFFF DUP2 GT ISZERO PUSH2 0x3C0C JUMPI PUSH2 0x3C0B PUSH2 0x314E JUMP JUMPDEST JUMPDEST PUSH2 0x3C18 DUP10 DUP3 DUP11 ADD PUSH2 0x3B3D JUMP JUMPDEST SWAP4 POP POP PUSH1 0x80 PUSH2 0x3C29 DUP10 DUP3 DUP11 ADD PUSH2 0x31CB JUMP JUMPDEST SWAP3 POP POP PUSH1 0xA0 PUSH2 0x3C3A DUP10 DUP3 DUP11 ADD PUSH2 0x31CB JUMP JUMPDEST SWAP2 POP POP SWAP3 SWAP6 POP SWAP3 SWAP6 POP SWAP3 SWAP6 JUMP JUMPDEST PUSH2 0x3C50 DUP2 PUSH2 0x32C5 JUMP JUMPDEST DUP2 EQ PUSH2 0x3C5A JUMPI PUSH0 DUP1 REVERT JUMPDEST POP JUMP JUMPDEST PUSH0 DUP2 CALLDATALOAD SWAP1 POP PUSH2 0x3C6B DUP2 PUSH2 0x3C47 JUMP JUMPDEST SWAP3 SWAP2 POP POP JUMP JUMPDEST PUSH0 DUP1 PUSH1 0x40 DUP4 DUP6 SUB SLT ISZERO PUSH2 0x3C87 JUMPI PUSH2 0x3C86 PUSH2 0x314A JUMP JUMPDEST JUMPDEST PUSH0 PUSH2 0x3C94 DUP6 DUP3 DUP7 ADD PUSH2 0x31CB JUMP JUMPDEST SWAP3 POP POP PUSH1 0x20 PUSH2 0x3CA5 DUP6 DUP3 DUP7 ADD PUSH2 0x3C5D JUMP JUMPDEST SWAP2 POP POP SWAP3 POP SWAP3 SWAP1 POP JUMP JUMPDEST PUSH0 DUP1 PUSH1 0x40 DUP4 DUP6 SUB SLT ISZERO PUSH2 0x3CC5 JUMPI PUSH2 0x3CC4 PUSH2 0x314A JUMP JUMPDEST JUMPDEST PUSH0 PUSH2 0x3CD2 DUP6 DUP3 DUP7 ADD PUSH2 0x3198 JUMP JUMPDEST SWAP3 POP POP PUSH1 0x20 PUSH2 0x3CE3 DUP6 DUP3 DUP7 ADD PUSH2 0x3C5D JUMP JUMPDEST SWAP2 POP POP SWAP3 POP SWAP3 SWAP1 POP JUMP JUMPDEST PUSH0 PUSH1 0x20 DUP3 DUP5 SUB SLT ISZERO PUSH2 0x3D02 JUMPI PUSH2 0x3D01 PUSH2 0x314A JUMP JUMPDEST JUMPDEST PUSH0 PUSH2 0x3D0F DUP5 DUP3 DUP6 ADD PUSH2 0x3198 JUMP JUMPDEST SWAP2 POP POP SWAP3 SWAP2 POP POP JUMP JUMPDEST PUSH0 DUP2 MLOAD SWAP1 POP SWAP2 SWAP1 POP JUMP JUMPDEST PUSH0 DUP3 DUP3 MSTORE PUSH1 0x20 DUP3 ADD SWAP1 POP SWAP3 SWAP2 POP POP JUMP JUMPDEST PUSH0 PUSH2 0x3D3C DUP3 PUSH2 0x3D18 JUMP JUMPDEST PUSH2 0x3D46 DUP2 DUP6 PUSH2 0x3D22 JUMP JUMPDEST SWAP4 POP PUSH2 0x3D56 DUP2 DUP6 PUSH1 0x20 DUP7 ADD PUSH2 0x333D JUMP JUMPDEST PUSH2 0x3D5F DUP2 PUSH2 0x334B JUMP JUMPDEST DUP5 ADD SWAP2 POP POP SWAP3 SWAP2 POP POP JUMP JUMPDEST PUSH0 PUSH1 0x20 DUP3 ADD SWAP1 POP DUP2 DUP2 SUB PUSH0 DUP4 ADD MSTORE PUSH2 0x3D82 DUP2 DUP5 PUSH2 0x3D32 JUMP JUMPDEST SWAP1 POP SWAP3 SWAP2 POP POP JUMP JUMPDEST PUSH0 DUP1 PUSH1 0x40 DUP4 DUP6 SUB SLT ISZERO PUSH2 0x3DA0 JUMPI PUSH2 0x3D9F PUSH2 0x314A JUMP JUMPDEST JUMPDEST PUSH0 PUSH2 0x3DAD DUP6 DUP3 DUP7 ADD PUSH2 0x3198 JUMP JUMPDEST SWAP3 POP POP PUSH1 0x20 PUSH2 0x3DBE DUP6 DUP3 DUP7 ADD PUSH2 0x3198 JUMP JUMPDEST SWAP2 POP POP SWAP3 POP SWAP3 SWAP1 POP JUMP JUMPDEST PUSH0 DUP3 DUP3 MSTORE PUSH1 0x20 DUP3 ADD SWAP1 POP SWAP3 SWAP2 POP POP JUMP JUMPDEST PUSH0 PUSH2 0x3DE2 DUP3 PUSH2 0x3323 JUMP JUMPDEST PUSH2 0x3DEC DUP2 DUP6 PUSH2 0x3DC8 JUMP JUMPDEST SWAP4 POP PUSH2 0x3DFC DUP2 DUP6 PUSH1 0x20 DUP7 ADD PUSH2 0x333D JUMP JUMPDEST PUSH2 0x3E05 DUP2 PUSH2 0x334B JUMP JUMPDEST DUP5 ADD SWAP2 POP POP SWAP3 SWAP2 POP POP JUMP JUMPDEST PUSH2 0x3E19 DUP2 PUSH2 0x33B3 JUMP JUMPDEST DUP3 MSTORE POP POP JUMP JUMPDEST PUSH2 0x3E28 DUP2 PUSH2 0x3171 JUMP JUMPDEST DUP3 MSTORE POP POP JUMP JUMPDEST PUSH2 0x3E37 DUP2 PUSH2 0x3794 JUMP JUMPDEST DUP3 MSTORE POP POP JUMP JUMPDEST PUSH0 PUSH2 0x180 DUP4 ADD PUSH0 DUP4 ADD MLOAD PUSH2 0x3E53 PUSH0 DUP7 ADD DUP3 PUSH2 0x3A1E JUMP JUMPDEST POP PUSH1 0x20 DUP4 ADD MLOAD DUP5 DUP3 SUB PUSH1 0x20 DUP7 ADD MSTORE PUSH2 0x3E6B DUP3 DUP3 PUSH2 0x3DD8 JUMP JUMPDEST SWAP2 POP POP PUSH1 0x40 DUP4 ADD MLOAD PUSH2 0x3E80 PUSH1 0x40 DUP7 ADD DUP3 PUSH2 0x3E10 JUMP JUMPDEST POP PUSH1 0x60 DUP4 ADD MLOAD DUP5 DUP3 SUB PUSH1 0x60 DUP7 ADD MSTORE PUSH2 0x3E98 DUP3 DUP3 PUSH2 0x3DD8 JUMP JUMPDEST SWAP2 POP POP PUSH1 0x80 DUP4 ADD MLOAD DUP5 DUP3 SUB PUSH1 0x80 DUP7 ADD MSTORE PUSH2 0x3EB2 DUP3 DUP3 PUSH2 0x3DD8 JUMP JUMPDEST SWAP2 POP POP PUSH1 0xA0 DUP4 ADD MLOAD PUSH2 0x3EC7 PUSH1 0xA0 DUP7 ADD DUP3 PUSH2 0x3A1E JUMP JUMPDEST POP PUSH1 0xC0 DUP4 ADD MLOAD PUSH2 0x3EDA PUSH1 0xC0 DUP7 ADD DUP3 PUSH2 0x3A1E JUMP JUMPDEST POP PUSH1 0xE0 DUP4 ADD MLOAD PUSH2 0x3EED PUSH1 0xE0 DUP7 ADD DUP3 PUSH2 0x3A1E JUMP JUMPDEST POP PUSH2 0x100 DUP4 ADD MLOAD PUSH2 0x3F02 PUSH2 0x100 DUP7 ADD DUP3 PUSH2 0x3A1E JUMP JUMPDEST POP PUSH2 0x120 DUP4 ADD MLOAD PUSH2 0x3F17 PUSH2 0x120 DUP7 ADD DUP3 PUSH2 0x3E1F JUMP JUMPDEST POP PUSH2 0x140 DUP4 ADD MLOAD PUSH2 0x3F2C PUSH2 0x140 DUP7 ADD DUP3 PUSH2 0x3E1F JUMP JUMPDEST POP PUSH2 0x160 DUP4 ADD MLOAD PUSH2 0x3F41 PUSH2 0x160 DUP7 ADD DUP3 PUSH2 0x3E2E JUMP JUMPDEST POP DUP1 SWAP2 POP POP SWAP3 SWAP2 POP POP JUMP JUMPDEST PUSH0 PUSH1 0x20 DUP3 ADD SWAP1 POP DUP2 DUP2 SUB PUSH0 DUP4 ADD MSTORE PUSH2 0x3F64 DUP2 DUP5 PUSH2 0x3E3D JUMP JUMPDEST SWAP1 POP SWAP3 SWAP2 POP POP JUMP JUMPDEST PUSH0 DUP1 PUSH0 DUP1 PUSH0 PUSH1 0xA0 DUP7 DUP9 SUB SLT ISZERO PUSH2 0x3F85 JUMPI PUSH2 0x3F84 PUSH2 0x314A JUMP JUMPDEST JUMPDEST PUSH0 PUSH2 0x3F92 DUP9 DUP3 DUP10 ADD PUSH2 0x3198 JUMP JUMPDEST SWAP6 POP POP PUSH1 0x20 PUSH2 0x3FA3 DUP9 DUP3 DUP10 ADD PUSH2 0x3198 JUMP JUMPDEST SWAP5 POP POP PUSH1 0x40 PUSH2 0x3FB4 DUP9 DUP3 DUP10 ADD PUSH2 0x31CB JUMP JUMPDEST SWAP4 POP POP PUSH1 0x60 PUSH2 0x3FC5 DUP9 DUP3 DUP10 ADD PUSH2 0x31CB JUMP JUMPDEST SWAP3 POP POP PUSH1 0x80 DUP7 ADD CALLDATALOAD PUSH8 0xFFFFFFFFFFFFFFFF DUP2 GT ISZERO PUSH2 0x3FE6 JUMPI PUSH2 0x3FE5 PUSH2 0x314E JUMP JUMPDEST JUMPDEST PUSH2 0x3FF2 DUP9 DUP3 DUP10 ADD PUSH2 0x35FC JUMP JUMPDEST SWAP2 POP POP SWAP3 SWAP6 POP SWAP3 SWAP6 SWAP1 SWAP4 POP JUMP JUMPDEST PUSH32 0x4E487B7100000000000000000000000000000000000000000000000000000000 PUSH0 MSTORE PUSH1 0x22 PUSH1 0x4 MSTORE PUSH1 0x24 PUSH0 REVERT JUMPDEST PUSH0 PUSH1 0x2 DUP3 DIV SWAP1 POP PUSH1 0x1 DUP3 AND DUP1 PUSH2 0x4043 JUMPI PUSH1 0x7F DUP3 AND SWAP2 POP JUMPDEST PUSH1 0x20 DUP3 LT DUP2 SUB PUSH2 0x4056 JUMPI PUSH2 0x4055 PUSH2 0x3FFF JUMP JUMPDEST JUMPDEST POP SWAP2 SWAP1 POP JUMP JUMPDEST PUSH0 PUSH1 0x40 DUP3 ADD SWAP1 POP PUSH2 0x406F PUSH0 DUP4 ADD DUP6 PUSH2 0x3732 JUMP JUMPDEST PUSH2 0x407C PUSH1 0x20 DUP4 ADD DUP5 PUSH2 0x3732 JUMP JUMPDEST SWAP4 SWAP3 POP POP POP JUMP JUMPDEST PUSH32 0x4F6E6C79206172746973742063616E206465706F736974000000000000000000 PUSH0 DUP3 ADD MSTORE POP JUMP JUMPDEST PUSH0 PUSH2 0x40B7 PUSH1 0x17 DUP4 PUSH2 0x332D JUMP JUMPDEST SWAP2 POP PUSH2 0x40C2 DUP3 PUSH2 0x4083 JUMP JUMPDEST PUSH1 0x20 DUP3 ADD SWAP1 POP SWAP2 SWAP1 POP JUMP JUMPDEST PUSH0 PUSH1 0x20 DUP3 ADD SWAP1 POP DUP2 DUP2 SUB PUSH0 DUP4 ADD MSTORE PUSH2 0x40E4 DUP2 PUSH2 0x40AB JUMP JUMPDEST SWAP1 POP SWAP2 SWAP1 POP JUMP JUMPDEST PUSH32 0x4E487B7100000000000000000000000000000000000000000000000000000000 PUSH0 MSTORE PUSH1 0x11 PUSH1 0x4 MSTORE PUSH1 0x24 PUSH0 REVERT JUMPDEST PUSH0 PUSH2 0x4122 DUP3 PUSH2 0x31AC JUMP JUMPDEST SWAP2 POP PUSH2 0x412D DUP4 PUSH2 0x31AC JUMP JUMPDEST SWAP3 POP DUP3 DUP3 ADD SWAP1 POP DUP1 DUP3 GT ISZERO PUSH2 0x4145 JUMPI PUSH2 0x4144 PUSH2 0x40EB JUMP JUMPDEST JUMPDEST SWAP3 SWAP2 POP POP JUMP JUMPDEST PUSH0 PUSH1 0x40 DUP3 ADD SWAP1 POP PUSH2 0x415E PUSH0 DUP4 ADD DUP6 PUSH2 0x321D JUMP JUMPDEST PUSH2 0x416B PUSH1 0x20 DUP4 ADD DUP5 PUSH2 0x321D JUMP JUMPDEST SWAP4 SWAP3 POP POP POP JUMP JUMPDEST PUSH32 0x4E487B7100000000000000000000000000000000000000000000000000000000 PUSH0 MSTORE PUSH1 0x32 PUSH1 0x4 MSTORE PUSH1 0x24 PUSH0 REVERT JUMPDEST PUSH32 0x4F6E6C79206172746973742063616E2077697468647261770000000000000000 PUSH0 DUP3 ADD MSTORE POP JUMP JUMPDEST PUSH0 PUSH2 0x41D3 PUSH1 0x18 DUP4 PUSH2 0x332D JUMP JUMPDEST SWAP2 POP PUSH2 0x41DE DUP3 PUSH2 0x419F JUMP JUMPDEST PUSH1 0x20 DUP3 ADD SWAP1 POP SWAP2 SWAP1 POP JUMP JUMPDEST PUSH0 PUSH1 0x20 DUP3 ADD SWAP1 POP DUP2 DUP2 SUB PUSH0 DUP4 ADD MSTORE PUSH2 0x4200 DUP2 PUSH2 0x41C7 JUMP JUMPDEST SWAP1 POP SWAP2 SWAP1 POP JUMP JUMPDEST PUSH32 0x496E73756666696369656E74206465706F736974000000000000000000000000 PUSH0 DUP3 ADD MSTORE POP JUMP JUMPDEST PUSH0 PUSH2 0x423B PUSH1 0x14 DUP4 PUSH2 0x332D JUMP JUMPDEST SWAP2 POP PUSH2 0x4246 DUP3 PUSH2 0x4207 JUMP JUMPDEST PUSH1 0x20 DUP3 ADD SWAP1 POP SWAP2 SWAP1 POP JUMP JUMPDEST PUSH0 PUSH1 0x20 DUP3 ADD SWAP1 POP DUP2 DUP2 SUB PUSH0 DUP4 ADD MSTORE PUSH2 0x4268 DUP2 PUSH2 0x422F JUMP JUMPDEST SWAP1 POP SWAP2 SWAP1 POP JUMP JUMPDEST PUSH0 PUSH2 0x4279 DUP3 PUSH2 0x31AC JUMP JUMPDEST SWAP2 POP PUSH2 0x4284 DUP4 PUSH2 0x31AC JUMP JUMPDEST SWAP3 POP DUP3 DUP3 SUB SWAP1 POP DUP2 DUP2 GT ISZERO PUSH2 0x429C JUMPI PUSH2 0x429B PUSH2 0x40EB JUMP JUMPDEST JUMPDEST SWAP3 SWAP2 POP POP JUMP JUMPDEST PUSH0 PUSH2 0x42AC DUP3 PUSH2 0x31AC JUMP JUMPDEST SWAP2 POP PUSH32 0xFFFFFFFFFFFFFFFFFFFFFFFFFFFFFFFFFFFFFFFFFFFFFFFFFFFFFFFFFFFFFFFF DUP3 SUB PUSH2 0x42DE JUMPI PUSH2 0x42DD PUSH2 0x40EB JUMP JUMPDEST JUMPDEST PUSH1 0x1 DUP3 ADD SWAP1 POP SWAP2 SWAP1 POP JUMP JUMPDEST PUSH0 DUP2 SWAP1 POP DUP2 PUSH0 MSTORE PUSH1 0x20 PUSH0 KECCAK256 SWAP1 POP SWAP2 SWAP1 POP JUMP JUMPDEST PUSH0 PUSH1 0x20 PUSH1 0x1F DUP4 ADD DIV SWAP1 POP SWAP2 SWAP1 POP JUMP JUMPDEST PUSH0 DUP3 DUP3 SHL SWAP1 POP SWAP3 SWAP2 POP POP JUMP JUMPDEST PUSH0 PUSH1 0x8 DUP4 MUL PUSH2 0x4345 PUSH32 0xFFFFFFFFFFFFFFFFFFFFFFFFFFFFFFFFFFFFFFFFFFFFFFFFFFFFFFFFFFFFFFFF DUP3 PUSH2 0x430A JUMP JUMPDEST PUSH2 0x434F DUP7 DUP4 PUSH2 0x430A JUMP JUMPDEST SWAP6 POP DUP1 NOT DUP5 AND SWAP4 POP DUP1 DUP7 AND DUP5 OR SWAP3 POP POP POP SWAP4 SWAP3 POP POP POP JUMP JUMPDEST PUSH0 DUP2 SWAP1 POP SWAP2 SWAP1 POP JUMP JUMPDEST PUSH0 PUSH2 0x438A PUSH2 0x4385 PUSH2 0x4380 DUP5 PUSH2 0x31AC JUMP JUMPDEST PUSH2 0x4367 JUMP JUMPDEST PUSH2 0x31AC JUMP JUMPDEST SWAP1 POP SWAP2 SWAP1 POP JUMP JUMPDEST PUSH0 DUP2 SWAP1 POP SWAP2 SWAP1 POP JUMP JUMPDEST PUSH2 0x43A3 DUP4 PUSH2 0x4370 JUMP JUMPDEST PUSH2 0x43B7 PUSH2 0x43AF DUP3 PUSH2 0x4391 JUMP JUMPDEST DUP5 DUP5 SLOAD PUSH2 0x4316 JUMP JUMPDEST DUP3 SSTORE POP POP POP POP JUMP JUMPDEST PUSH0 SWAP1 JUMP JUMPDEST PUSH2 0x43CB PUSH2 0x43BF JUMP JUMPDEST PUSH2 0x43D6 DUP2 DUP5 DUP5 PUSH2 0x439A JUMP JUMPDEST POP POP POP JUMP JUMPDEST JUMPDEST DUP2 DUP2 LT ISZERO PUSH2 0x43F9 JUMPI PUSH2 0x43EE PUSH0 DUP3 PUSH2 0x43C3 JUMP JUMPDEST PUSH1 0x1 DUP2 ADD SWAP1 POP PUSH2 0x43DC JUMP JUMPDEST POP POP JUMP JUMPDEST PUSH1 0x1F DUP3 GT ISZERO PUSH2 0x443E JUMPI PUSH2 0x440F DUP2 PUSH2 0x42E9 JUMP JUMPDEST PUSH2 0x4418 DUP5 PUSH2 0x42FB JUMP JUMPDEST DUP2 ADD PUSH1 0x20 DUP6 LT ISZERO PUSH2 0x4427 JUMPI DUP2 SWAP1 POP JUMPDEST PUSH2 0x443B PUSH2 0x4433 DUP6 PUSH2 0x42FB JUMP JUMPDEST DUP4 ADD DUP3 PUSH2 0x43DB JUMP JUMPDEST POP POP JUMPDEST POP POP POP JUMP JUMPDEST PUSH0 DUP3 DUP3 SHR SWAP1 POP SWAP3 SWAP2 POP POP JUMP JUMPDEST PUSH0 PUSH2 0x445E PUSH0 NOT DUP5 PUSH1 0x8 MUL PUSH2 0x4443 JUMP JUMPDEST NOT DUP1 DUP4 AND SWAP2 POP POP SWAP3 SWAP2 POP POP JUMP JUMPDEST PUSH0 PUSH2 0x4476 DUP4 DUP4 PUSH2 0x444F JUMP JUMPDEST SWAP2 POP DUP3 PUSH1 0x2 MUL DUP3 OR SWAP1 POP SWAP3 SWAP2 POP POP JUMP JUMPDEST PUSH2 0x448F DUP3 PUSH2 0x3323 JUMP JUMPDEST PUSH8 0xFFFFFFFFFFFFFFFF DUP2 GT ISZERO PUSH2 0x44A8 JUMPI PUSH2 0x44A7 PUSH2 0x343D JUMP JUMPDEST JUMPDEST PUSH2 0x44B2 DUP3 SLOAD PUSH2 0x402C JUMP JUMPDEST PUSH2 0x44BD DUP3 DUP3 DUP6 PUSH2 0x43FD JUMP JUMPDEST PUSH0 PUSH1 0x20 SWAP1 POP PUSH1 0x1F DUP4 GT PUSH1 0x1 DUP2 EQ PUSH2 0x44EE JUMPI PUSH0 DUP5 ISZERO PUSH2 0x44DC JUMPI DUP3 DUP8 ADD MLOAD SWAP1 POP JUMPDEST PUSH2 0x44E6 DUP6 DUP3 PUSH2 0x446B JUMP JUMPDEST DUP7 SSTORE POP PUSH2 0x454D JUMP JUMPDEST PUSH1 0x1F NOT DUP5 AND PUSH2 0x44FC DUP7 PUSH2 0x42E9 JUMP JUMPDEST PUSH0 JUMPDEST DUP3 DUP2 LT ISZERO PUSH2 0x4523 JUMPI DUP5 DUP10 ADD MLOAD DUP3 SSTORE PUSH1 0x1 DUP3 ADD SWAP2 POP PUSH1 0x20 DUP6 ADD SWAP5 POP PUSH1 0x20 DUP2 ADD SWAP1 POP PUSH2 0x44FE JUMP JUMPDEST DUP7 DUP4 LT ISZERO PUSH2 0x4540 JUMPI DUP5 DUP10 ADD MLOAD PUSH2 0x453C PUSH1 0x1F DUP10 AND DUP3 PUSH2 0x444F JUMP JUMPDEST DUP4 SSTORE POP JUMPDEST PUSH1 0x1 PUSH1 0x2 DUP9 MUL ADD DUP9 SSTORE POP POP POP JUMPDEST POP POP POP POP POP POP JUMP JUMPDEST PUSH32 0x417274776F726B206E6F7420696E206469737075746500000000000000000000 PUSH0 DUP3 ADD MSTORE POP JUMP JUMPDEST PUSH0 PUSH2 0x4589 PUSH1 0x16 DUP4 PUSH2 0x332D JUMP JUMPDEST SWAP2 POP PUSH2 0x4594 DUP3 PUSH2 0x4555 JUMP JUMPDEST PUSH1 0x20 DUP3 ADD SWAP1 POP SWAP2 SWAP1 POP JUMP JUMPDEST PUSH0 PUSH1 0x20 DUP3 ADD SWAP1 POP DUP2 DUP2 SUB PUSH0 DUP4 ADD MSTORE PUSH2 0x45B6 DUP2 PUSH2 0x457D JUMP JUMPDEST SWAP1 POP SWAP2 SWAP1 POP JUMP JUMPDEST PUSH0 PUSH2 0x45C7 DUP3 PUSH2 0x31AC JUMP JUMPDEST SWAP2 POP PUSH2 0x45D2 DUP4 PUSH2 0x31AC JUMP JUMPDEST SWAP3 POP DUP3 DUP3 MUL PUSH2 0x45E0 DUP2 PUSH2 0x31AC JUMP JUMPDEST SWAP2 POP DUP3 DUP3 DIV DUP5 EQ DUP4 ISZERO OR PUSH2 0x45F7 JUMPI PUSH2 0x45F6 PUSH2 0x40EB JUMP JUMPDEST JUMPDEST POP SWAP3 SWAP2 POP POP JUMP JUMPDEST PUSH32 0x417274776F726B206E6F7420617661696C61626C650000000000000000000000 PUSH0 DUP3 ADD MSTORE POP JUMP JUMPDEST PUSH0 PUSH2 0x4632 PUSH1 0x15 DUP4 PUSH2 0x332D JUMP JUMPDEST SWAP2 POP PUSH2 0x463D DUP3 PUSH2 0x45FE JUMP JUMPDEST PUSH1 0x20 DUP3 ADD SWAP1 POP SWAP2 SWAP1 POP JUMP JUMPDEST PUSH0 PUSH1 0x20 DUP3 ADD SWAP1 POP DUP2 DUP2 SUB PUSH0 DUP4 ADD MSTORE PUSH2 0x465F DUP2 PUSH2 0x4626 JUMP JUMPDEST SWAP1 POP SWAP2 SWAP1 POP JUMP JUMPDEST PUSH32 0x416C6C204E465473206D696E7465640000000000000000000000000000000000 PUSH0 DUP3 ADD MSTORE POP JUMP JUMPDEST PUSH0 PUSH2 0x469A PUSH1 0xF DUP4 PUSH2 0x332D JUMP JUMPDEST SWAP2 POP PUSH2 0x46A5 DUP3 PUSH2 0x4666 JUMP JUMPDEST PUSH1 0x20 DUP3 ADD SWAP1 POP SWAP2 SWAP1 POP JUMP JUMPDEST PUSH0 PUSH1 0x20 DUP3 ADD SWAP1 POP DUP2 DUP2 SUB PUSH0 DUP4 ADD MSTORE PUSH2 0x46C7 DUP2 PUSH2 0x468E JUMP JUMPDEST SWAP1 POP SWAP2 SWAP1 POP JUMP JUMPDEST PUSH32 0x417274697374206465706F73697420696E73756666696369656E740000000000 PUSH0 DUP3 ADD MSTORE POP JUMP JUMPDEST PUSH0 PUSH2 0x4702 PUSH1 0x1B DUP4 PUSH2 0x332D JUMP JUMPDEST SWAP2 POP PUSH2 0x470D DUP3 PUSH2 0x46CE JUMP JUMPDEST PUSH1 0x20 DUP3 ADD SWAP1 POP SWAP2 SWAP1 POP JUMP JUMPDEST PUSH0 PUSH1 0x20 DUP3 ADD SWAP1 POP DUP2 DUP2 SUB PUSH0 DUP4 ADD MSTORE PUSH2 0x472F DUP2 PUSH2 0x46F6 JUMP JUMPDEST SWAP1 POP SWAP2 SWAP1 POP JUMP JUMPDEST PUSH32 0x43616C6C6572206973206E6F7420746865206275796572000000000000000000 PUSH0 DUP3 ADD MSTORE POP JUMP JUMPDEST PUSH0 PUSH2 0x476A PUSH1 0x17 DUP4 PUSH2 0x332D JUMP JUMPDEST SWAP2 POP PUSH2 0x4775 DUP3 PUSH2 0x4736 JUMP JUMPDEST PUSH1 0x20 DUP3 ADD SWAP1 POP SWAP2 SWAP1 POP JUMP JUMPDEST PUSH0 PUSH1 0x20 DUP3 ADD SWAP1 POP DUP2 DUP2 SUB PUSH0 DUP4 ADD MSTORE PUSH2 0x4797 DUP2 PUSH2 0x475E JUMP JUMPDEST SWAP1 POP SWAP2 SWAP1 POP JUMP JUMPDEST PUSH32 0x417274776F726B206E6F74206163746976650000000000000000000000000000 PUSH0 DUP3 ADD MSTORE POP JUMP JUMPDEST PUSH0 PUSH2 0x47D2 PUSH1 0x12 DUP4 PUSH2 0x332D JUMP JUMPDEST SWAP2 POP PUSH2 0x47DD DUP3 PUSH2 0x479E JUMP JUMPDEST PUSH1 0x20 DUP3 ADD SWAP1 POP SWAP2 SWAP1 POP JUMP JUMPDEST PUSH0 PUSH1 0x20 DUP3 ADD SWAP1 POP DUP2 DUP2 SUB PUSH0 DUP4 ADD MSTORE PUSH2 0x47FF DUP2 PUSH2 0x47C6 JUMP JUMPDEST SWAP1 POP SWAP2 SWAP1 POP JUMP JUMPDEST PUSH0 PUSH1 0x20 DUP3 ADD SWAP1 POP PUSH2 0x4819 PUSH0 DUP4 ADD DUP5 PUSH2 0x3732 JUMP JUMPDEST SWAP3 SWAP2 POP POP JUMP JUMPDEST PUSH32 0x5265656E7472616E637947756172643A207265656E7472616E742063616C6C00 PUSH0 DUP3 ADD MSTORE POP JUMP JUMPDEST PUSH0 PUSH2 0x4853 PUSH1 0x1F DUP4 PUSH2 0x332D JUMP JUMPDEST SWAP2 POP PUSH2 0x485E DUP3 PUSH2 0x481F JUMP JUMPDEST PUSH1 0x20 DUP3 ADD SWAP1 POP SWAP2 SWAP1 POP JUMP JUMPDEST PUSH0 PUSH1 0x20 DUP3 ADD SWAP1 POP DUP2 DUP2 SUB PUSH0 DUP4 ADD MSTORE PUSH2 0x4880 DUP2 PUSH2 0x4847 JUMP JUMPDEST SWAP1 POP SWAP2 SWAP1 POP JUMP JUMPDEST PUSH0 PUSH1 0x40 DUP3 ADD SWAP1 POP PUSH2 0x489A PUSH0 DUP4 ADD DUP6 PUSH2 0x3732 JUMP JUMPDEST PUSH2 0x48A7 PUSH1 0x20 DUP4 ADD DUP5 PUSH2 0x3411 JUMP JUMPDEST SWAP4 SWAP3 POP POP POP JUMP JUMPDEST PUSH0 PUSH1 0x80 DUP3 ADD SWAP1 POP PUSH2 0x48C1 PUSH0 DUP4 ADD DUP8 PUSH2 0x3732 JUMP JUMPDEST PUSH2 0x48CE PUSH1 0x20 DUP4 ADD DUP7 PUSH2 0x321D JUMP JUMPDEST PUSH2 0x48DB PUSH1 0x40 DUP4 ADD DUP6 PUSH2 0x321D JUMP JUMPDEST PUSH2 0x48E8 PUSH1 0x60 DUP4 ADD DUP5 PUSH2 0x321D JUMP JUMPDEST SWAP6 SWAP5 POP POP POP POP POP JUMP JUMPDEST PUSH0 PUSH1 0x40 DUP3 ADD SWAP1 POP DUP2 DUP2 SUB PUSH0 DUP4 ADD MSTORE PUSH2 0x4909 DUP2 DUP6 PUSH2 0x3A50 JUMP JUMPDEST SWAP1 POP DUP2 DUP2 SUB PUSH1 0x20 DUP4 ADD MSTORE PUSH2 0x491D DUP2 DUP5 PUSH2 0x3A50 JUMP JUMPDEST SWAP1 POP SWAP4 SWAP3 POP POP POP JUMP JUMPDEST PUSH0 PUSH1 0xA0 DUP3 ADD SWAP1 POP PUSH2 0x4939 PUSH0 DUP4 ADD DUP9 PUSH2 0x3732 JUMP JUMPDEST PUSH2 0x4946 PUSH1 0x20 DUP4 ADD DUP8 PUSH2 0x3732 JUMP JUMPDEST PUSH2 0x4953 PUSH1 0x40 DUP4 ADD DUP7 PUSH2 0x321D JUMP JUMPDEST PUSH2 0x4960 PUSH1 0x60 DUP4 ADD DUP6 PUSH2 0x321D JUMP JUMPDEST DUP2 DUP2 SUB PUSH1 0x80 DUP4 ADD MSTORE PUSH2 0x4972 DUP2 DUP5 PUSH2 0x3D32 JUMP JUMPDEST SWAP1 POP SWAP7 SWAP6 POP POP POP POP POP POP JUMP JUMPDEST PUSH0 DUP2 MLOAD SWAP1 POP PUSH2 0x498C DUP2 PUSH2 0x3270 JUMP JUMPDEST SWAP3 SWAP2 POP POP JUMP JUMPDEST PUSH0 PUSH1 0x20 DUP3 DUP5 SUB SLT ISZERO PUSH2 0x49A7 JUMPI PUSH2 0x49A6 PUSH2 0x314A JUMP JUMPDEST JUMPDEST PUSH0 PUSH2 0x49B4 DUP5 DUP3 DUP6 ADD PUSH2 0x497E JUMP JUMPDEST SWAP2 POP POP SWAP3 SWAP2 POP POP JUMP JUMPDEST PUSH0 PUSH1 0xA0 DUP3 ADD SWAP1 POP PUSH2 0x49D0 PUSH0 DUP4 ADD DUP9 PUSH2 0x3732 JUMP JUMPDEST PUSH2 0x49DD PUSH1 0x20 DUP4 ADD DUP8 PUSH2 0x3732 JUMP JUMPDEST DUP2 DUP2 SUB PUSH1 0x40 DUP4 ADD MSTORE PUSH2 0x49EF DUP2 DUP7 PUSH2 0x3A50 JUMP JUMPDEST SWAP1 POP DUP2 DUP2 SUB PUSH1 0x60 DUP4 ADD MSTORE PUSH2 0x4A03 DUP2 DUP6 PUSH2 0x3A50 JUMP JUMPDEST SWAP1 POP DUP2 DUP2 SUB PUSH1 0x80 DUP4 ADD MSTORE PUSH2 0x4A17 DUP2 DUP5 PUSH2 0x3D32 JUMP JUMPDEST SWAP1 POP SWAP7 SWAP6 POP POP POP POP POP POP JUMP INVALID LOG2 PUSH5 0x6970667358 0x22 SLT KECCAK256 PUSH29 0xB7E0BCE647D77320FE311E3D3B7506E830AB8D0911C5ED5E08AD89B3E PUSH22 0x4A64736F6C634300081A003300000000000000000000 "
		},
		"gasEstimates": {
			"creation": {
				"codeDepositCost": "3806600",
				"executionCost": "infinite",
				"totalCost": "infinite"
			},
			"external": {
				"ARBITRATOR_ROLE()": "415",
				"ARTCOIN_ID()": "413",
				"ARTIST_ROLE()": "436",
				"DEFAULT_ADMIN_ROLE()": "375",
				"artworks(uint256)": "infinite",
				"balanceOf(address,uint256)": "infinite",
				"balanceOfBatch(address[],uint256[])": "infinite",
				"createArtwork(string,bytes32,string,string,uint256,uint256)": "infinite",
				"currentArtworkId()": "2471",
				"depositForArtwork(uint256,uint256)": "infinite",
				"getArtworkInfo(uint256)": "infinite",
				"getRoleAdmin(bytes32)": "infinite",
				"grantRole(bytes32,address)": "infinite",
				"hasRole(bytes32,address)": "3168",
				"isApprovedForAll(address,address)": "infinite",
				"mintARTcoin(address,uint256)": "infinite",
				"mintArtwork(uint256)": "infinite",
				"publicKeys(address)": "infinite",
				"renounceRole(bytes32,address)": "infinite",
				"revokeRole(bytes32,address)": "infinite",
				"safeBatchTransferFrom(address,address,uint256[],uint256[],bytes)": "infinite",
				"safeTransferFrom(address,address,uint256,uint256,bytes)": "infinite",
				"setApprovalForAll(address,bool)": "infinite",
				"settleDispute(uint256,bool)": "infinite",
				"supportsInterface(bytes4)": "962",
				"uri(uint256)": "infinite",
				"verifyHash(uint256,bool)": "infinite",
				"withdrawForArtwork(uint256,uint256)": "infinite"
			}
		},
		"methodIdentifiers": {
			"ARBITRATOR_ROLE()": "9cea0787",
			"ARTCOIN_ID()": "e8dbb9c5",
			"ARTIST_ROLE()": "a966a0df",
			"DEFAULT_ADMIN_ROLE()": "a217fddf",
			"artworks(uint256)": "4b602673",
			"balanceOf(address,uint256)": "00fdd58e",
			"balanceOfBatch(address[],uint256[])": "4e1273f4",
			"createArtwork(string,bytes32,string,string,uint256,uint256)": "7ea6c533",
			"currentArtworkId()": "18b6dcbc",
			"depositForArtwork(uint256,uint256)": "4db30e31",
			"getArtworkInfo(uint256)": "f1f201e8",
			"getRoleAdmin(bytes32)": "248a9ca3",
			"grantRole(bytes32,address)": "2f2ff15d",
			"hasRole(bytes32,address)": "91d14854",
			"isApprovedForAll(address,address)": "e985e9c5",
			"mintARTcoin(address,uint256)": "66367b77",
			"mintArtwork(uint256)": "e82f4062",
			"publicKeys(address)": "a3d6f9a9",
			"renounceRole(bytes32,address)": "36568abe",
			"revokeRole(bytes32,address)": "d547741f",
			"safeBatchTransferFrom(address,address,uint256[],uint256[],bytes)": "2eb2c2d6",
			"safeTransferFrom(address,address,uint256,uint256,bytes)": "f242432a",
			"setApprovalForAll(address,bool)": "a22cb465",
			"settleDispute(uint256,bool)": "92305435",
			"supportsInterface(bytes4)": "01ffc9a7",
			"uri(uint256)": "0e89341c",
			"verifyHash(uint256,bool)": "f1b66bec",
			"withdrawForArtwork(uint256,uint256)": "64093306"
		}
	},
	"abi": [
		{
			"inputs": [
				{
					"internalType": "string",
					"name": "uri",
					"type": "string"
				}
			],
			"stateMutability": "nonpayable",
			"type": "constructor"
		},
		{
			"inputs": [],
			"name": "AccessControlBadConfirmation",
			"type": "error"
		},
		{
			"inputs": [
				{
					"internalType": "address",
					"name": "account",
					"type": "address"
				},
				{
					"internalType": "bytes32",
					"name": "neededRole",
					"type": "bytes32"
				}
			],
			"name": "AccessControlUnauthorizedAccount",
			"type": "error"
		},
		{
			"inputs": [
				{
					"internalType": "address",
					"name": "sender",
					"type": "address"
				},
				{
					"internalType": "uint256",
					"name": "balance",
					"type": "uint256"
				},
				{
					"internalType": "uint256",
					"name": "needed",
					"type": "uint256"
				},
				{
					"internalType": "uint256",
					"name": "tokenId",
					"type": "uint256"
				}
			],
			"name": "ERC1155InsufficientBalance",
			"type": "error"
		},
		{
			"inputs": [
				{
					"internalType": "address",
					"name": "approver",
					"type": "address"
				}
			],
			"name": "ERC1155InvalidApprover",
			"type": "error"
		},
		{
			"inputs": [
				{
					"internalType": "uint256",
					"name": "idsLength",
					"type": "uint256"
				},
				{
					"internalType": "uint256",
					"name": "valuesLength",
					"type": "uint256"
				}
			],
			"name": "ERC1155InvalidArrayLength",
			"type": "error"
		},
		{
			"inputs": [
				{
					"internalType": "address",
					"name": "operator",
					"type": "address"
				}
			],
			"name": "ERC1155InvalidOperator",
			"type": "error"
		},
		{
			"inputs": [
				{
					"internalType": "address",
					"name": "receiver",
					"type": "address"
				}
			],
			"name": "ERC1155InvalidReceiver",
			"type": "error"
		},
		{
			"inputs": [
				{
					"internalType": "address",
					"name": "sender",
					"type": "address"
				}
			],
			"name": "ERC1155InvalidSender",
			"type": "error"
		},
		{
			"inputs": [
				{
					"internalType": "address",
					"name": "operator",
					"type": "address"
				},
				{
					"internalType": "address",
					"name": "owner",
					"type": "address"
				}
			],
			"name": "ERC1155MissingApprovalForAll",
			"type": "error"
		},
		{
			"anonymous": false,
			"inputs": [
				{
					"indexed": true,
					"internalType": "address",
					"name": "account",
					"type": "address"
				},
				{
					"indexed": true,
					"internalType": "address",
					"name": "operator",
					"type": "address"
				},
				{
					"indexed": false,
					"internalType": "bool",
					"name": "approved",
					"type": "bool"
				}
			],
			"name": "ApprovalForAll",
			"type": "event"
		},
		{
			"anonymous": false,
			"inputs": [
				{
					"indexed": true,
					"internalType": "uint256",
					"name": "tokenId",
					"type": "uint256"
				},
				{
					"indexed": true,
					"internalType": "address",
					"name": "artist",
					"type": "address"
				},
				{
					"indexed": false,
					"internalType": "uint256",
					"name": "price",
					"type": "uint256"
				},
				{
					"indexed": false,
					"internalType": "uint256",
					"name": "supplyLimit",
					"type": "uint256"
				}
			],
			"name": "ArtworkCreated",
			"type": "event"
		},
		{
			"anonymous": false,
			"inputs": [
				{
					"indexed": true,
					"internalType": "uint256",
					"name": "tokenId",
					"type": "uint256"
				},
				{
					"indexed": true,
					"internalType": "address",
					"name": "buyer",
					"type": "address"
				}
			],
			"name": "ArtworkMinted",
			"type": "event"
		},
		{
			"anonymous": false,
			"inputs": [
				{
					"indexed": true,
					"internalType": "uint256",
					"name": "tokenId",
					"type": "uint256"
				},
				{
					"indexed": true,
					"internalType": "address",
					"name": "artist",
					"type": "address"
				},
				{
					"indexed": false,
					"internalType": "uint256",
					"name": "amount",
					"type": "uint256"
				}
			],
			"name": "DepositMade",
			"type": "event"
		},
		{
			"anonymous": false,
			"inputs": [
				{
					"indexed": true,
					"internalType": "uint256",
					"name": "tokenId",
					"type": "uint256"
				},
				{
					"indexed": true,
					"internalType": "address",
					"name": "artist",
					"type": "address"
				},
				{
					"indexed": false,
					"internalType": "uint256",
					"name": "amount",
					"type": "uint256"
				}
			],
			"name": "DepositWithdrawn",
			"type": "event"
		},
		{
			"anonymous": false,
			"inputs": [
				{
					"indexed": true,
					"internalType": "uint256",
					"name": "tokenId",
					"type": "uint256"
				},
				{
					"indexed": true,
					"internalType": "address",
					"name": "buyer",
					"type": "address"
				}
			],
			"name": "DisputeOpened",
			"type": "event"
		},
		{
			"anonymous": false,
			"inputs": [
				{
					"indexed": true,
					"internalType": "uint256",
					"name": "tokenId",
					"type": "uint256"
				},
				{
					"indexed": false,
					"internalType": "bool",
					"name": "disputeResult",
					"type": "bool"
				}
			],
			"name": "DisputeSettled",
			"type": "event"
		},
		{
			"anonymous": false,
			"inputs": [
				{
					"indexed": true,
					"internalType": "uint256",
					"name": "tokenId",
					"type": "uint256"
				},
				{
					"indexed": true,
					"internalType": "address",
					"name": "artist",
					"type": "address"
				},
				{
					"indexed": true,
					"internalType": "address",
					"name": "buyer",
					"type": "address"
				},
				{
					"indexed": false,
					"internalType": "uint256",
					"name": "amount",
					"type": "uint256"
				}
			],
			"name": "FundsDistributed",
			"type": "event"
		},
		{
			"anonymous": false,
			"inputs": [
				{
					"indexed": true,
					"internalType": "uint256",
					"name": "tokenId",
					"type": "uint256"
				},
				{
					"indexed": true,
					"internalType": "address",
					"name": "buyer",
					"type": "address"
				}
			],
			"name": "NFTBurned",
			"type": "event"
		},
		{
			"anonymous": false,
			"inputs": [
				{
					"indexed": true,
					"internalType": "address",
					"name": "account",
					"type": "address"
				},
				{
					"indexed": false,
					"internalType": "bytes",
					"name": "publicKey",
					"type": "bytes"
				}
			],
			"name": "PublicKeyUpdated",
			"type": "event"
		},
		{
			"anonymous": false,
			"inputs": [
				{
					"indexed": true,
					"internalType": "bytes32",
					"name": "role",
					"type": "bytes32"
				},
				{
					"indexed": true,
					"internalType": "bytes32",
					"name": "previousAdminRole",
					"type": "bytes32"
				},
				{
					"indexed": true,
					"internalType": "bytes32",
					"name": "newAdminRole",
					"type": "bytes32"
				}
			],
			"name": "RoleAdminChanged",
			"type": "event"
		},
		{
			"anonymous": false,
			"inputs": [
				{
					"indexed": true,
					"internalType": "bytes32",
					"name": "role",
					"type": "bytes32"
				},
				{
					"indexed": true,
					"internalType": "address",
					"name": "account",
					"type": "address"
				},
				{
					"indexed": true,
					"internalType": "address",
					"name": "sender",
					"type": "address"
				}
			],
			"name": "RoleGranted",
			"type": "event"
		},
		{
			"anonymous": false,
			"inputs": [
				{
					"indexed": true,
					"internalType": "bytes32",
					"name": "role",
					"type": "bytes32"
				},
				{
					"indexed": true,
					"internalType": "address",
					"name": "account",
					"type": "address"
				},
				{
					"indexed": true,
					"internalType": "address",
					"name": "sender",
					"type": "address"
				}
			],
			"name": "RoleRevoked",
			"type": "event"
		},
		{
			"anonymous": false,
			"inputs": [
				{
					"indexed": true,
					"internalType": "address",
					"name": "operator",
					"type": "address"
				},
				{
					"indexed": true,
					"internalType": "address",
					"name": "from",
					"type": "address"
				},
				{
					"indexed": true,
					"internalType": "address",
					"name": "to",
					"type": "address"
				},
				{
					"indexed": false,
					"internalType": "uint256[]",
					"name": "ids",
					"type": "uint256[]"
				},
				{
					"indexed": false,
					"internalType": "uint256[]",
					"name": "values",
					"type": "uint256[]"
				}
			],
			"name": "TransferBatch",
			"type": "event"
		},
		{
			"anonymous": false,
			"inputs": [
				{
					"indexed": true,
					"internalType": "address",
					"name": "operator",
					"type": "address"
				},
				{
					"indexed": true,
					"internalType": "address",
					"name": "from",
					"type": "address"
				},
				{
					"indexed": true,
					"internalType": "address",
					"name": "to",
					"type": "address"
				},
				{
					"indexed": false,
					"internalType": "uint256",
					"name": "id",
					"type": "uint256"
				},
				{
					"indexed": false,
					"internalType": "uint256",
					"name": "value",
					"type": "uint256"
				}
			],
			"name": "TransferSingle",
			"type": "event"
		},
		{
			"anonymous": false,
			"inputs": [
				{
					"indexed": false,
					"internalType": "string",
					"name": "value",
					"type": "string"
				},
				{
					"indexed": true,
					"internalType": "uint256",
					"name": "id",
					"type": "uint256"
				}
			],
			"name": "URI",
			"type": "event"
		},
		{
			"anonymous": false,
			"inputs": [
				{
					"indexed": true,
					"internalType": "uint256",
					"name": "tokenId",
					"type": "uint256"
				},
				{
					"indexed": true,
					"internalType": "address",
					"name": "buyer",
					"type": "address"
				},
				{
					"indexed": false,
					"internalType": "bool",
					"name": "result",
					"type": "bool"
				}
			],
			"name": "VerificationResult",
			"type": "event"
		},
		{
			"inputs": [],
			"name": "ARBITRATOR_ROLE",
			"outputs": [
				{
					"internalType": "bytes32",
					"name": "",
					"type": "bytes32"
				}
			],
			"stateMutability": "view",
			"type": "function"
		},
		{
			"inputs": [],
			"name": "ARTCOIN_ID",
			"outputs": [
				{
					"internalType": "uint256",
					"name": "",
					"type": "uint256"
				}
			],
			"stateMutability": "view",
			"type": "function"
		},
		{
			"inputs": [],
			"name": "ARTIST_ROLE",
			"outputs": [
				{
					"internalType": "bytes32",
					"name": "",
					"type": "bytes32"
				}
			],
			"stateMutability": "view",
			"type": "function"
		},
		{
			"inputs": [],
			"name": "DEFAULT_ADMIN_ROLE",
			"outputs": [
				{
					"internalType": "bytes32",
					"name": "",
					"type": "bytes32"
				}
			],
			"stateMutability": "view",
			"type": "function"
		},
		{
			"inputs": [
				{
					"internalType": "uint256",
					"name": "",
					"type": "uint256"
				}
			],
			"name": "artworks",
			"outputs": [
				{
					"internalType": "uint256",
					"name": "tokenId",
					"type": "uint256"
				},
				{
					"internalType": "string",
					"name": "name",
					"type": "string"
				},
				{
					"internalType": "bytes32",
					"name": "hash_artwork",
					"type": "bytes32"
				},
				{
					"internalType": "string",
					"name": "hash_thumb",
					"type": "string"
				},
				{
					"internalType": "string",
					"name": "hash_json",
					"type": "string"
				},
				{
					"internalType": "uint256",
					"name": "supplyLimit",
					"type": "uint256"
				},
				{
					"internalType": "uint256",
					"name": "minted",
					"type": "uint256"
				},
				{
					"internalType": "uint256",
					"name": "price",
					"type": "uint256"
				},
				{
					"internalType": "uint256",
					"name": "deposit",
					"type": "uint256"
				},
				{
					"internalType": "address",
					"name": "artist",
					"type": "address"
				},
				{
					"internalType": "address",
					"name": "buyer",
					"type": "address"
				},
				{
					"internalType": "enum DigitalArtwork.ArtworkState",
					"name": "state",
					"type": "uint8"
				}
			],
			"stateMutability": "view",
			"type": "function"
		},
		{
			"inputs": [
				{
					"internalType": "address",
					"name": "account",
					"type": "address"
				},
				{
					"internalType": "uint256",
					"name": "id",
					"type": "uint256"
				}
			],
			"name": "balanceOf",
			"outputs": [
				{
					"internalType": "uint256",
					"name": "",
					"type": "uint256"
				}
			],
			"stateMutability": "view",
			"type": "function"
		},
		{
			"inputs": [
				{
					"internalType": "address[]",
					"name": "accounts",
					"type": "address[]"
				},
				{
					"internalType": "uint256[]",
					"name": "ids",
					"type": "uint256[]"
				}
			],
			"name": "balanceOfBatch",
			"outputs": [
				{
					"internalType": "uint256[]",
					"name": "",
					"type": "uint256[]"
				}
			],
			"stateMutability": "view",
			"type": "function"
		},
		{
			"inputs": [
				{
					"internalType": "string",
					"name": "_name",
					"type": "string"
				},
				{
					"internalType": "bytes32",
					"name": "_hash_artwork",
					"type": "bytes32"
				},
				{
					"internalType": "string",
					"name": "_hash_thumb",
					"type": "string"
				},
				{
					"internalType": "string",
					"name": "_hash_json",
					"type": "string"
				},
				{
					"internalType": "uint256",
					"name": "_supplyLimit",
					"type": "uint256"
				},
				{
					"internalType": "uint256",
					"name": "_price",
					"type": "uint256"
				}
			],
			"name": "createArtwork",
			"outputs": [
				{
					"internalType": "uint256",
					"name": "",
					"type": "uint256"
				}
			],
			"stateMutability": "nonpayable",
			"type": "function"
		},
		{
			"inputs": [],
			"name": "currentArtworkId",
			"outputs": [
				{
					"internalType": "uint256",
					"name": "",
					"type": "uint256"
				}
			],
			"stateMutability": "view",
			"type": "function"
		},
		{
			"inputs": [
				{
					"internalType": "uint256",
					"name": "_tokenId",
					"type": "uint256"
				},
				{
					"internalType": "uint256",
					"name": "amount",
					"type": "uint256"
				}
			],
			"name": "depositForArtwork",
			"outputs": [],
			"stateMutability": "nonpayable",
			"type": "function"
		},
		{
			"inputs": [
				{
					"internalType": "uint256",
					"name": "_tokenId",
					"type": "uint256"
				}
			],
			"name": "getArtworkInfo",
			"outputs": [
				{
					"components": [
						{
							"internalType": "uint256",
							"name": "tokenId",
							"type": "uint256"
						},
						{
							"internalType": "string",
							"name": "name",
							"type": "string"
						},
						{
							"internalType": "bytes32",
							"name": "hash_artwork",
							"type": "bytes32"
						},
						{
							"internalType": "string",
							"name": "hash_thumb",
							"type": "string"
						},
						{
							"internalType": "string",
							"name": "hash_json",
							"type": "string"
						},
						{
							"internalType": "uint256",
							"name": "supplyLimit",
							"type": "uint256"
						},
						{
							"internalType": "uint256",
							"name": "minted",
							"type": "uint256"
						},
						{
							"internalType": "uint256",
							"name": "price",
							"type": "uint256"
						},
						{
							"internalType": "uint256",
							"name": "deposit",
							"type": "uint256"
						},
						{
							"internalType": "address",
							"name": "artist",
							"type": "address"
						},
						{
							"internalType": "address",
							"name": "buyer",
							"type": "address"
						},
						{
							"internalType": "enum DigitalArtwork.ArtworkState",
							"name": "state",
							"type": "uint8"
						}
					],
					"internalType": "struct DigitalArtwork.Artwork",
					"name": "",
					"type": "tuple"
				}
			],
			"stateMutability": "view",
			"type": "function"
		},
		{
			"inputs": [
				{
					"internalType": "bytes32",
					"name": "role",
					"type": "bytes32"
				}
			],
			"name": "getRoleAdmin",
			"outputs": [
				{
					"internalType": "bytes32",
					"name": "",
					"type": "bytes32"
				}
			],
			"stateMutability": "view",
			"type": "function"
		},
		{
			"inputs": [
				{
					"internalType": "bytes32",
					"name": "role",
					"type": "bytes32"
				},
				{
					"internalType": "address",
					"name": "account",
					"type": "address"
				}
			],
			"name": "grantRole",
			"outputs": [],
			"stateMutability": "nonpayable",
			"type": "function"
		},
		{
			"inputs": [
				{
					"internalType": "bytes32",
					"name": "role",
					"type": "bytes32"
				},
				{
					"internalType": "address",
					"name": "account",
					"type": "address"
				}
			],
			"name": "hasRole",
			"outputs": [
				{
					"internalType": "bool",
					"name": "",
					"type": "bool"
				}
			],
			"stateMutability": "view",
			"type": "function"
		},
		{
			"inputs": [
				{
					"internalType": "address",
					"name": "account",
					"type": "address"
				},
				{
					"internalType": "address",
					"name": "operator",
					"type": "address"
				}
			],
			"name": "isApprovedForAll",
			"outputs": [
				{
					"internalType": "bool",
					"name": "",
					"type": "bool"
				}
			],
			"stateMutability": "view",
			"type": "function"
		},
		{
			"inputs": [
				{
					"internalType": "address",
					"name": "to",
					"type": "address"
				},
				{
					"internalType": "uint256",
					"name": "amount",
					"type": "uint256"
				}
			],
			"name": "mintARTcoin",
			"outputs": [],
			"stateMutability": "nonpayable",
			"type": "function"
		},
		{
			"inputs": [
				{
					"internalType": "uint256",
					"name": "_tokenId",
					"type": "uint256"
				}
			],
			"name": "mintArtwork",
			"outputs": [],
			"stateMutability": "nonpayable",
			"type": "function"
		},
		{
			"inputs": [
				{
					"internalType": "address",
					"name": "",
					"type": "address"
				}
			],
			"name": "publicKeys",
			"outputs": [
				{
					"internalType": "bytes",
					"name": "",
					"type": "bytes"
				}
			],
			"stateMutability": "view",
			"type": "function"
		},
		{
			"inputs": [
				{
					"internalType": "bytes32",
					"name": "role",
					"type": "bytes32"
				},
				{
					"internalType": "address",
					"name": "callerConfirmation",
					"type": "address"
				}
			],
			"name": "renounceRole",
			"outputs": [],
			"stateMutability": "nonpayable",
			"type": "function"
		},
		{
			"inputs": [
				{
					"internalType": "bytes32",
					"name": "role",
					"type": "bytes32"
				},
				{
					"internalType": "address",
					"name": "account",
					"type": "address"
				}
			],
			"name": "revokeRole",
			"outputs": [],
			"stateMutability": "nonpayable",
			"type": "function"
		},
		{
			"inputs": [
				{
					"internalType": "address",
					"name": "from",
					"type": "address"
				},
				{
					"internalType": "address",
					"name": "to",
					"type": "address"
				},
				{
					"internalType": "uint256[]",
					"name": "ids",
					"type": "uint256[]"
				},
				{
					"internalType": "uint256[]",
					"name": "values",
					"type": "uint256[]"
				},
				{
					"internalType": "bytes",
					"name": "data",
					"type": "bytes"
				}
			],
			"name": "safeBatchTransferFrom",
			"outputs": [],
			"stateMutability": "nonpayable",
			"type": "function"
		},
		{
			"inputs": [
				{
					"internalType": "address",
					"name": "from",
					"type": "address"
				},
				{
					"internalType": "address",
					"name": "to",
					"type": "address"
				},
				{
					"internalType": "uint256",
					"name": "id",
					"type": "uint256"
				},
				{
					"internalType": "uint256",
					"name": "value",
					"type": "uint256"
				},
				{
					"internalType": "bytes",
					"name": "data",
					"type": "bytes"
				}
			],
			"name": "safeTransferFrom",
			"outputs": [],
			"stateMutability": "nonpayable",
			"type": "function"
		},
		{
			"inputs": [
				{
					"internalType": "address",
					"name": "operator",
					"type": "address"
				},
				{
					"internalType": "bool",
					"name": "approved",
					"type": "bool"
				}
			],
			"name": "setApprovalForAll",
			"outputs": [],
			"stateMutability": "nonpayable",
			"type": "function"
		},
		{
			"inputs": [
				{
					"internalType": "uint256",
					"name": "_tokenId",
					"type": "uint256"
				},
				{
					"internalType": "bool",
					"name": "disputeResult",
					"type": "bool"
				}
			],
			"name": "settleDispute",
			"outputs": [],
			"stateMutability": "nonpayable",
			"type": "function"
		},
		{
			"inputs": [
				{
					"internalType": "bytes4",
					"name": "interfaceId",
					"type": "bytes4"
				}
			],
			"name": "supportsInterface",
			"outputs": [
				{
					"internalType": "bool",
					"name": "",
					"type": "bool"
				}
			],
			"stateMutability": "view",
			"type": "function"
		},
		{
			"inputs": [
				{
					"internalType": "uint256",
					"name": "",
					"type": "uint256"
				}
			],
			"name": "uri",
			"outputs": [
				{
					"internalType": "string",
					"name": "",
					"type": "string"
				}
			],
			"stateMutability": "view",
			"type": "function"
		},
		{
			"inputs": [
				{
					"internalType": "uint256",
					"name": "_tokenId",
					"type": "uint256"
				},
				{
					"internalType": "bool",
					"name": "verificationResult",
					"type": "bool"
				}
			],
			"name": "verifyHash",
			"outputs": [],
			"stateMutability": "nonpayable",
			"type": "function"
		},
		{
			"inputs": [
				{
					"internalType": "uint256",
					"name": "_tokenId",
					"type": "uint256"
				},
				{
					"internalType": "uint256",
					"name": "amount",
					"type": "uint256"
				}
			],
			"name": "withdrawForArtwork",
			"outputs": [],
			"stateMutability": "nonpayable",
			"type": "function"
		}
	]
}