{
	"data": {
		"bytecode": {
			"linkReferences": {},
			"object": "608060405234801562000010575f80fd5b506040516200386738038062003867833981016040819052620000339162000141565b806200003f816200006b565b506001600455620000515f336200007d565b5050600580546001600160a01b0319163317905562000363565b60026200007982826200029b565b5050565b5f8281526003602090815260408083206001600160a01b038516845290915281205460ff1662000124575f8381526003602090815260408083206001600160a01b03861684529091529020805460ff19166001179055620000db3390565b6001600160a01b0316826001600160a01b0316847f2f8788117e7eff1d82e926ec794901d17c78024a50270940304540a733656f0d60405160405180910390a450600162000127565b505f5b92915050565b634e487b7160e01b5f52604160045260245ffd5b5f602080838503121562000153575f80fd5b82516001600160401b03808211156200016a575f80fd5b818501915085601f8301126200017e575f80fd5b8151818111156200019357620001936200012d565b604051601f8201601f19908116603f01168101908382118183101715620001be57620001be6200012d565b816040528281528886848701011115620001d6575f80fd5b5f93505b82841015620001f95784840186015181850187015292850192620001da565b5f86848301015280965050505050505092915050565b600181811c908216806200022457607f821691505b6020821081036200024357634e487b7160e01b5f52602260045260245ffd5b50919050565b601f82111562000296575f81815260208120601f850160051c81016020861015620002715750805b601f850160051c820191505b8181101562000292578281556001016200027d565b5050505b505050565b81516001600160401b03811115620002b757620002b76200012d565b620002cf81620002c884546200020f565b8462000249565b602080601f83116001811462000305575f8415620002ed5750858301515b5f19600386901b1c1916600185901b17855562000292565b5f85815260208120601f198616915b82811015620003355788860151825594840194600190910190840162000314565b50858210156200035357878501515f19600388901b60f8161c191681555b5050505050600190811b01905550565b6134f680620003715f395ff3fe608060405234801561000f575f80fd5b5060043610610228575f3560e01c8063870e974e1161012a578063b69b6d66116100b4578063e82f406211610079578063e82f406214610543578063e985e9c514610556578063f0d93b9a14610569578063f23a6e611461057c578063f242432a1461059b575f80fd5b8063b69b6d66146104bf578063b89571c7146104d2578063bc197c81146104e5578063d4aa56b11461051d578063d547741f14610530575f80fd5b80639e56f275116100fa5780639e56f2751461045f578063a217fddf14610472578063a22cb46514610479578063a966a0df1461048c578063ac76e521146104a0575f80fd5b8063870e974e146103e757806391d14854146103fa578063992642e51461040d5780639cea078714610438575f80fd5b806336568abe116101b65780634e1273f41161017b5780634e1273f41461037b578063595af66f1461039b57806359f99c53146103ae5780637365e8ec146103c1578063815176aa146103d4575f80fd5b806336568abe146103035780633a14af651461031657806344879b3b1461031f5780634b602673146103325780634bc9db8514610358575f80fd5b8063237f1509116101fc578063237f15091461029e578063248a9ca3146102b15780632eb2c2d6146102d35780632f2ff15d146102e8578063361d8c3a146102fb575f80fd5b8062fdd58e1461022c57806301ffc9a7146102525780630e89341c1461027557806318b6dcbc14610295575b5f80fd5b61023f61023a36600461293e565b6105ae565b6040519081526020015b60405180910390f35b61026561026036600461297b565b6105d5565b6040519015158152602001610249565b61028861028336600461299d565b6105df565b60405161024991906129f7565b61023f60075481565b61023f6102ac366004612aba565b610671565b61023f6102bf36600461299d565b5f9081526003602052604090206001015490565b6102e66102e1366004612bb4565b6107e8565b005b6102e66102f6366004612c57565b61084f565b610288610879565b6102e6610311366004612c57565b610905565b61023f61025881565b6102e661032d366004612c81565b61093d565b61034561034036600461299d565b61096a565b6040516102499796959493929190612c9a565b61036b610366366004612cf4565b610aba565b6040516102499493929190612d28565b61038e610389366004612d6f565b610b0b565b6040516102499190612e62565b6102e66103a9366004612c81565b610bde565b6102e66103bc36600461299d565b610c0b565b6102e66103cf366004612cf4565b610d34565b6102886103e2366004612c81565b6110fa565b6102e66103f536600461299d565b611112565b610265610408366004612c57565b611242565b600854610420906001600160a01b031681565b6040516001600160a01b039091168152602001610249565b61023f7f16ceee8289685dd2a02b9c8ae81d2df373176ce53519e6284e2a2950d6546ffa81565b6102e661046d366004612e81565b61126c565b61023f5f81565b6102e6610487366004612eb7565b61184e565b61023f5f8051602061348183398151915281565b61023f6104ae366004612c81565b600c6020525f908152604090205481565b600554610420906001600160a01b031681565b6102e66104e0366004612e81565b611859565b6105046104f3366004612bb4565b63bc197c8160e01b95945050505050565b6040516001600160e01b03199091168152602001610249565b6102e661052b366004612eec565b611c33565b6102e661053e366004612c57565b611c8a565b6102e661055136600461299d565b611cae565b610265610564366004612f58565b611fa5565b6102e6610577366004612f80565b611fd2565b61050461058a366004612fba565b63f23a6e6160e01b95945050505050565b6102e66105a9366004612fba565b611fea565b5f818152602081815260408083206001600160a01b03861684529091529020545b92915050565b5f6105cf82612049565b6060600280546105ee9061301a565b80601f016020809104026020016040519081016040528092919081815260200182805461061a9061301a565b80156106655780601f1061063c57610100808354040283529160200191610665565b820191905f5260205f20905b81548152906001019060200180831161064857829003601f168201915b50505050509050919050565b5f5f805160206134818339815191526106898161206d565b610694600a84613066565b156106d55760405162461bcd60e51b815260206004820152600c60248201526b496e76616c6964507269636560a01b60448201526064015b60405180910390fd5b60078054905f6106e48361308d565b90915550506007546040805160e08101825282815260208082018a81528284018a9052606083018990525f6080840181905260a084018990523360c0850152858152600a909252929020815181559151909190600182019061074690826130ea565b506040820151600282019061075b90826130ea565b50606082015160038201556080820151600482015560a0820151600582015560c090910151600690910180546001600160a01b0319166001600160a01b039092169190911790556040805185815260208101879052339183917ef3538cb5abe2e9bc54f73939e4d165fce3752d27fe21a5e88b2a9f6da20c63910160405180910390a39695505050505050565b336001600160a01b038616811480159061080957506108078682611fa5565b155b1561083a5760405163711bec9160e11b81526001600160a01b038083166004830152871660248201526044016106cc565b6108478686868686612077565b505050505050565b5f828152600360205260409020600101546108698161206d565b61087383836120dc565b50505050565b600680546108869061301a565b80601f01602080910402602001604051908101604052809291908181526020018280546108b29061301a565b80156108fd5780601f106108d4576101008083540402835291602001916108fd565b820191905f5260205f20905b8154815290600101906020018083116108e057829003601f168201915b505050505081565b6001600160a01b038116331461092e5760405163334bd91960e11b815260040160405180910390fd5b610938828261216d565b505050565b5f6109478161206d565b50600880546001600160a01b0319166001600160a01b0392909216919091179055565b600a6020525f90815260409020805460018201805491929161098b9061301a565b80601f01602080910402602001604051908101604052809291908181526020018280546109b79061301a565b8015610a025780601f106109d957610100808354040283529160200191610a02565b820191905f5260205f20905b8154815290600101906020018083116109e557829003601f168201915b505050505090806002018054610a179061301a565b80601f0160208091040260200160405190810160405280929190818152602001828054610a439061301a565b8015610a8e5780601f10610a6557610100808354040283529160200191610a8e565b820191905f5260205f20905b815481529060010190602001808311610a7157829003601f168201915b50505050600383015460048401546005850154600690950154939491939092506001600160a01b031687565b600b602052815f5260405f208181548110610ad3575f80fd5b5f9182526020909120600390910201805460018201546002909201546001600160a01b0382169450600160a01b90910460ff16925084565b60608151835114610b3c5781518351604051635b05999160e01b8152600481019290925260248201526044016106cc565b5f835167ffffffffffffffff811115610b5757610b57612a09565b604051908082528060200260200182016040528015610b80578160200160208202803683370190505b5090505f5b8451811015610bd657602080820286010151610ba9906020808402870101516105ae565b828281518110610bbb57610bbb6131a6565b6020908102919091010152610bcf8161308d565b9050610b85565b509392505050565b5f610be88161206d565b50600580546001600160a01b0319166001600160a01b0392909216919091179055565b610c136121d8565b5f80516020613481833981519152610c2a8161206d565b6008546001600160a01b0316610c715760405162461bcd60e51b815260206004820152600c60248201526b2737a9ba30b13632a1b7b4b760a11b60448201526064016106cc565b6008546040516323b872dd60e01b8152336004820152306024820152604481018490526001600160a01b03909116906323b872dd906064016020604051808303815f875af1158015610cc5573d5f803e3d5ffd5b505050506040513d601f19601f82011682018060405250810190610ce991906131ba565b610d055760405162461bcd60e51b81526004016106cc906131d5565b335f908152600c602052604081208054849290610d239084906131fb565b909155505060016004555050565b50565b610d3c6121d8565b5f828152600a6020526040902060068101546001600160a01b03163314610d925760405162461bcd60e51b815260206004820152600a60248201526913db9b1e505c9d1a5cdd60b21b60448201526064016106cc565b5f838152600b60205260409020548210610dbe5760405162461bcd60e51b81526004016106cc9061320e565b5f838152600b60205260408120805484908110610ddd57610ddd6131a6565b5f9182526020822060039091020191508154600160a01b900460ff166003811115610e0a57610e0a612d14565b14610e4a5760405162461bcd60e51b815260206004820152601060248201526f496e616374697665507572636861736560801b60448201526064016106cc565b6102588160020154610e5c91906131fb565b421015610e9c5760405162461bcd60e51b815260206004820152600e60248201526d54696d656f757450656e64696e6760901b60448201526064016106cc565b5f600a83600501546002610eb09190613234565b610eba919061324b565b90505f600a8460050154610ece919061324b565b60085484549192506001600160a01b039081169163a9059cbb9116610ef3848661325e565b6040518363ffffffff1660e01b8152600401610f10929190613271565b6020604051808303815f875af1158015610f2c573d5f803e3d5ffd5b505050506040513d601f19601f82011682018060405250810190610f5091906131ba565b610f6c5760405162461bcd60e51b81526004016106cc9061328a565b60085460055460405163a9059cbb60e01b81526001600160a01b039283169263a9059cbb92610fa2929116908590600401613271565b6020604051808303815f875af1158015610fbe573d5f803e3d5ffd5b505050506040513d601f19601f82011682018060405250810190610fe291906131ba565b610ffe5760405162461bcd60e51b81526004016106cc9061328a565b8360050154836001015461101291906131fb565b60068501546001600160a01b03165f908152600c60205260408120805490919061103d9084906131fb565b90915550505f6001840155825460ff60a01b1916600160a11b17835560068401546001600160a01b031685875f805160206134a183398151915233611082868861325e565b865f8b600501548b6001015461109891906131fb565b6040516110a99594939291906132ae565b60405180910390a4604051858152339087907f86f9d82fe70f334564dfb5d0f47619293510546518af6f46b21209f3cfd6d3e79060200160405180910390a3505050506110f66001600455565b5050565b60096020525f9081526040902080546108869061301a565b61111a6121d8565b5f805160206134818339815191526111318161206d565b335f908152600c60205260409020548211156111865760405162461bcd60e51b8152602060048201526014602482015273125b9cdd59999a58da595b9d0819195c1bdcda5d60621b60448201526064016106cc565b335f908152600c6020526040812080548492906111a490849061325e565b909155505060085460405163a9059cbb60e01b81526001600160a01b039091169063a9059cbb906111db9033908690600401613271565b6020604051808303815f875af11580156111f7573d5f803e3d5ffd5b505050506040513d601f19601f8201168201806040525081019061121b91906131ba565b6112375760405162461bcd60e51b81526004016106cc906131d5565b50610d316001600455565b5f9182526003602090815260408084206001600160a01b0393909316845291905290205460ff1690565b6112746121d8565b7f16ceee8289685dd2a02b9c8ae81d2df373176ce53519e6284e2a2950d6546ffa61129e8161206d565b5f848152600b602052604090205483106112ca5760405162461bcd60e51b81526004016106cc9061320e565b5f848152600b602052604081208054859081106112e9576112e96131a6565b5f9182526020909120600390910201905060018154600160a01b900460ff16600381111561131957611319612d14565b146113545760405162461bcd60e51b815260206004820152600b60248201526a139bdd111a5cdc1d5d195960aa1b60448201526064016106cc565b5f858152600a602081905260408220600581015490929190611377906002613234565b611381919061324b565b90505f600a8360050154611395919061324b565b905085156115745760085460055460405163a9059cbb60e01b81526001600160a01b039283169263a9059cbb926113d3929116908590600401613271565b6020604051808303815f875af11580156113ef573d5f803e3d5ffd5b505050506040513d601f19601f8201168201806040525081019061141391906131ba565b61142f5760405162461bcd60e51b81526004016106cc9061328a565b60085460405163a9059cbb60e01b81526001600160a01b039091169063a9059cbb906114619033908590600401613271565b6020604051808303815f875af115801561147d573d5f803e3d5ffd5b505050506040513d601f19601f820116820180604052508101906114a191906131ba565b6114bd5760405162461bcd60e51b81526004016106cc9061328a565b826005015484600101546114d191906131fb565b60068401546001600160a01b03165f908152600c6020526040812080549091906114fc9084906131fb565b90915550505f600185018190558454600160a11b60ff60a01b198216178655600685015460058601546001600160a01b03918216938b938d935f805160206134a183398151915293911691908790819061155690846131fb565b6040516115679594939291906132ae565b60405180910390a4611803565b600854845460058501546001600160a01b039283169263a9059cbb92169061159d9086906131fb565b6040518363ffffffff1660e01b81526004016115ba929190613271565b6020604051808303815f875af11580156115d6573d5f803e3d5ffd5b505050506040513d601f19601f820116820180604052508101906115fa91906131ba565b6116165760405162461bcd60e51b81526004016106cc9061328a565b60085460055460405163a9059cbb60e01b81526001600160a01b039283169263a9059cbb9261164c929116908590600401613271565b6020604051808303815f875af1158015611668573d5f803e3d5ffd5b505050506040513d601f19601f8201168201806040525081019061168c91906131ba565b6116a85760405162461bcd60e51b81526004016106cc9061328a565b60085460405163a9059cbb60e01b81526001600160a01b039091169063a9059cbb906116da9033908590600401613271565b6020604051808303815f875af11580156116f6573d5f803e3d5ffd5b505050506040513d601f19601f8201168201806040525081019061171a91906131ba565b6117365760405162461bcd60e51b81526004016106cc9061328a565b5f6001858101919091558454600360a01b60ff60a01b198216178655611769916001600160a01b03909116908a90612231565b6006830154845460058501546001600160a01b03928316928a928c925f805160206134a183398151915292909116906117a39088906131fb565b86875f6040516117b79594939291906132ae565b60405180910390a483546040518881526001600160a01b039091169089907f9e07dce46977ec95e7805c93ce75a606c8828e2f4a3e5554bfeb839d508950999060200160405180910390a35b60408051888152871515602082015289917fd4390d9b1eae30d53d6e598d7eba50e60f3ea18310ca83e7919e3df177bb05ca910160405180910390a250505050506109386001600455565b6110f6338383612297565b6118616121d8565b5f838152600b6020526040902054821061188d5760405162461bcd60e51b81526004016106cc9061320e565b5f838152600b602052604081208054849081106118ac576118ac6131a6565b5f918252602090912060039091020180549091506001600160a01b031633146119025760405162461bcd60e51b81526020600482015260086024820152672737ba213abcb2b960c11b60448201526064016106cc565b5f8154600160a01b900460ff16600381111561192057611920612d14565b146119605760405162461bcd60e51b815260206004820152601060248201526f496e616374697665507572636861736560801b60448201526064016106cc565b5f848152600a6020526040908190209051339086907fdfcfa307bd7ff3b7df976aea65a8df73deb67f2649e10e389ae208b2a5c667af906119af90889088909182521515602082015260400190565b60405180910390a38215611bde575f600a826005015460026119d19190613234565b6119db919061324b565b90505f600a83600501546119ef919061324b565b60085460405163a9059cbb60e01b81529192506001600160a01b03169063a9059cbb90611a229033908690600401613271565b6020604051808303815f875af1158015611a3e573d5f803e3d5ffd5b505050506040513d601f19601f82011682018060405250810190611a6291906131ba565b611a7e5760405162461bcd60e51b81526004016106cc9061328a565b60085460055460405163a9059cbb60e01b81526001600160a01b039283169263a9059cbb92611ab4929116908590600401613271565b6020604051808303815f875af1158015611ad0573d5f803e3d5ffd5b505050506040513d601f19601f82011682018060405250810190611af491906131ba565b611b105760405162461bcd60e51b81526004016106cc9061328a565b8083600501548560010154611b2591906131fb565b611b2f919061325e565b60068401546001600160a01b03165f908152600c602052604081208054909190611b5a9084906131fb565b90915550505f60018501819055845460ff60a01b1916600160a11b178555600684015460058501546001600160a01b039091169188918a915f805160206134a183398151915291339188918891908290611bb490836131fb565b611bbe919061325e565b604051611bcf9594939291906132ae565b60405180910390a45050611c27565b815460ff60a01b1916600160a01b178255604080518581529051339187917fc6fb55a2bd2838e444163cece1945a661c371c5ec8c1a4ea5d697aefc76905479181900360200190a35b50506109386001600455565b6005546001600160a01b03163314611c7d5760405162461bcd60e51b815260206004820152600d60248201526c27b7363ca5b2bca9b2b93b32b960991b60448201526064016106cc565b60066109388284836132dc565b5f82815260036020526040902060010154611ca48161206d565b610873838361216d565b611cb66121d8565b5f818152600a602052604090206003810154600482015410611d045760405162461bcd60e51b815260206004820152600760248201526614dbdb1913dd5d60ca1b60448201526064016106cc565b5f600a82600501546002611d189190613234565b611d22919061324b565b90505f818360050154611d3591906131fb565b6008546040516323b872dd60e01b8152336004820152306024820152604481018390529192506001600160a01b0316906323b872dd906064016020604051808303815f875af1158015611d8a573d5f803e3d5ffd5b505050506040513d601f19601f82011682018060405250810190611dae91906131ba565b611dca5760405162461bcd60e51b81526004016106cc906131d5565b60068301546001600160a01b03165f908152600c6020526040902054821115611e215760405162461bcd60e51b8152602060048201526009602482015268139bd1195c1bdcda5d60ba1b60448201526064016106cc565b60068301546001600160a01b03165f908152600c602052604081208054849290611e4c90849061325e565b9091555050604080516080810182523381525f6020808301828152838501879052426060850152888352600b8252938220805460018101825590835291208251600392830290910180546001600160a01b031981166001600160a01b0390931692831782559451939485949193919284926001600160a81b03199092161790600160a01b908490811115611ee257611ee2612d14565b0217905550604082015181600101556060820151816002015550505f6001600b5f8881526020019081526020015f2080549050611f1f919061325e565b90506001856004015f828254611f3591906131fb565b92505081905550611f573387600160405180602001604052805f81525061232b565b60408051848152602081018690523391839189917f0118b73186f00b652a3aaf789aa1ac1434f0800d84c3fe5b17a57aa550eb9725910160405180910390a45050505050610d316001600455565b6001600160a01b039182165f90815260016020908152604080832093909416825291909152205460ff1690565b335f9081526009602052604090206110f682826130ea565b336001600160a01b038616811480159061200b57506120098682611fa5565b155b1561203c5760405163711bec9160e11b81526001600160a01b038083166004830152871660248201526044016106cc565b6108478686868686612386565b5f6001600160e01b03198216637965db0b60e01b14806105cf57506105cf82612412565b610d318133612436565b6001600160a01b0384166120a057604051632bfa23e760e11b81525f60048201526024016106cc565b6001600160a01b0385166120c857604051626a0d4560e21b81525f60048201526024016106cc565b6120d58585858585612461565b5050505050565b5f6120e78383611242565b612166575f8381526003602090815260408083206001600160a01b03861684529091529020805460ff1916600117905561211e3390565b6001600160a01b0316826001600160a01b0316847f2f8788117e7eff1d82e926ec794901d17c78024a50270940304540a733656f0d60405160405180910390a45060016105cf565b505f6105cf565b5f6121788383611242565b15612166575f8381526003602090815260408083206001600160a01b0386168085529252808320805460ff1916905551339286917ff6391f5c32d9c69d2a47ea670b442974b53935d1edc7fd64eb21e047a839171b9190a45060016105cf565b60026004540361222a5760405162461bcd60e51b815260206004820152601f60248201527f5265656e7472616e637947756172643a207265656e7472616e742063616c6c0060448201526064016106cc565b6002600455565b6001600160a01b03831661225957604051626a0d4560e21b81525f60048201526024016106cc565b604080516001808252602082018590528183019081526060820184905260a082019092525f608082018181529192916120d591879185908590612461565b6001600160a01b0382166122bf5760405162ced3e160e81b81525f60048201526024016106cc565b6001600160a01b038381165f81815260016020908152604080832094871680845294825291829020805460ff191686151590811790915591519182527f17307eab39ab6107e8899845ad3d59bd9653f200f220920489ca2b5937696c31910160405180910390a3505050565b6001600160a01b03841661235457604051632bfa23e760e11b81525f60048201526024016106cc565b604080516001808252602082018690528183019081526060820185905260808201909252906108475f87848487612461565b6001600160a01b0384166123af57604051632bfa23e760e11b81525f60048201526024016106cc565b6001600160a01b0385166123d757604051626a0d4560e21b81525f60048201526024016106cc565b604080516001808252602082018690528183019081526060820185905260808201909252906124098787848487612461565b50505050505050565b5f6001600160e01b03198216630271189760e51b14806105cf57506105cf826124b4565b6124408282611242565b6110f657808260405163e2517d3f60e01b81526004016106cc929190613271565b61246d85858585612503565b6001600160a01b038416156120d557825133906001036124a6576020848101519084015161249f83898985858961271b565b5050610847565b61084781878787878761283c565b5f6001600160e01b03198216636cdb3d1360e11b14806124e457506001600160e01b031982166303a24d0760e21b145b806105cf57506301ffc9a760e01b6001600160e01b03198316146105cf565b80518251146125325781518151604051635b05999160e01b8152600481019290925260248201526044016106cc565b335f5b835181101561263d576020818102858101820151908501909101516001600160a01b038816156125e6575f828152602081815260408083206001600160a01b038c168452909152902054818110156125c0576040516303dee4c560e01b81526001600160a01b038a1660048201526024810182905260448101839052606481018490526084016106cc565b5f838152602081815260408083206001600160a01b038d16845290915290209082900390555b6001600160a01b0387161561262a575f828152602081815260408083206001600160a01b038b168452909152812080548392906126249084906131fb565b90915550505b5050806126369061308d565b9050612535565b5082516001036126bd5760208301515f906020840151909150856001600160a01b0316876001600160a01b0316846001600160a01b03167fc3d58168c5ae7397731d063d5bbf3d657854427343f4c083240f7aacaa2d0f6285856040516126ae929190918252602082015260400190565b60405180910390a450506120d5565b836001600160a01b0316856001600160a01b0316826001600160a01b03167f4a39dc06d4c0dbc64b70af90fd698a233a518aa5d07e595d983b8c0526c8f7fb868660405161270c929190613397565b60405180910390a45050505050565b6001600160a01b0384163b156108475760405163f23a6e6160e01b81526001600160a01b0385169063f23a6e619061275f90899089908890889088906004016133c4565b6020604051808303815f875af1925050508015612799575060408051601f3d908101601f1916820190925261279691810190613408565b60015b612800573d8080156127c6576040519150601f19603f3d011682016040523d82523d5f602084013e6127cb565b606091505b5080515f036127f857604051632bfa23e760e11b81526001600160a01b03861660048201526024016106cc565b805181602001fd5b6001600160e01b0319811663f23a6e6160e01b1461240957604051632bfa23e760e11b81526001600160a01b03861660048201526024016106cc565b6001600160a01b0384163b156108475760405163bc197c8160e01b81526001600160a01b0385169063bc197c81906128809089908990889088908890600401613423565b6020604051808303815f875af19250505080156128ba575060408051601f3d908101601f191682019092526128b791810190613408565b60015b6128e7573d8080156127c6576040519150601f19603f3d011682016040523d82523d5f602084013e6127cb565b6001600160e01b0319811663bc197c8160e01b1461240957604051632bfa23e760e11b81526001600160a01b03861660048201526024016106cc565b80356001600160a01b0381168114612939575f80fd5b919050565b5f806040838503121561294f575f80fd5b61295883612923565b946020939093013593505050565b6001600160e01b031981168114610d31575f80fd5b5f6020828403121561298b575f80fd5b813561299681612966565b9392505050565b5f602082840312156129ad575f80fd5b5035919050565b5f81518084525f5b818110156129d8576020818501810151868301820152016129bc565b505f602082860101526020601f19601f83011685010191505092915050565b602081525f61299660208301846129b4565b634e487b7160e01b5f52604160045260245ffd5b604051601f8201601f1916810167ffffffffffffffff81118282101715612a4657612a46612a09565b604052919050565b5f82601f830112612a5d575f80fd5b813567ffffffffffffffff811115612a7757612a77612a09565b612a8a601f8201601f1916602001612a1d565b818152846020838601011115612a9e575f80fd5b816020850160208301375f918101602001919091529392505050565b5f805f8060808587031215612acd575f80fd5b843567ffffffffffffffff80821115612ae4575f80fd5b612af088838901612a4e565b95506020870135915080821115612b05575f80fd5b50612b1287828801612a4e565b949794965050505060408301359260600135919050565b5f67ffffffffffffffff821115612b4257612b42612a09565b5060051b60200190565b5f82601f830112612b5b575f80fd5b81356020612b70612b6b83612b29565b612a1d565b82815260059290921b84018101918181019086841115612b8e575f80fd5b8286015b84811015612ba95780358352918301918301612b92565b509695505050505050565b5f805f805f60a08688031215612bc8575f80fd5b612bd186612923565b9450612bdf60208701612923565b9350604086013567ffffffffffffffff80821115612bfb575f80fd5b612c0789838a01612b4c565b94506060880135915080821115612c1c575f80fd5b612c2889838a01612b4c565b93506080880135915080821115612c3d575f80fd5b50612c4a88828901612a4e565b9150509295509295909350565b5f8060408385031215612c68575f80fd5b82359150612c7860208401612923565b90509250929050565b5f60208284031215612c91575f80fd5b61299682612923565b87815260e060208201525f612cb260e08301896129b4565b8281036040840152612cc481896129b4565b60608401979097525050608081019390935260a08301919091526001600160a01b031660c0909101529392505050565b5f8060408385031215612d05575f80fd5b50508035926020909101359150565b634e487b7160e01b5f52602160045260245ffd5b6001600160a01b03851681526080810160048510612d5457634e487b7160e01b5f52602160045260245ffd5b84602083015283604083015282606083015295945050505050565b5f8060408385031215612d80575f80fd5b823567ffffffffffffffff80821115612d97575f80fd5b818501915085601f830112612daa575f80fd5b81356020612dba612b6b83612b29565b82815260059290921b84018101918181019089841115612dd8575f80fd5b948201945b83861015612dfd57612dee86612923565b82529482019490820190612ddd565b96505086013592505080821115612e12575f80fd5b50612e1f85828601612b4c565b9150509250929050565b5f8151808452602080850194508084015f5b83811015612e5757815187529582019590820190600101612e3b565b509495945050505050565b602081525f6129966020830184612e29565b8015158114610d31575f80fd5b5f805f60608486031215612e93575f80fd5b83359250602084013591506040840135612eac81612e74565b809150509250925092565b5f8060408385031215612ec8575f80fd5b612ed183612923565b91506020830135612ee181612e74565b809150509250929050565b5f8060208385031215612efd575f80fd5b823567ffffffffffffffff80821115612f14575f80fd5b818501915085601f830112612f27575f80fd5b813581811115612f35575f80fd5b866020828501011115612f46575f80fd5b60209290920196919550909350505050565b5f8060408385031215612f69575f80fd5b612f7283612923565b9150612c7860208401612923565b5f60208284031215612f90575f80fd5b813567ffffffffffffffff811115612fa6575f80fd5b612fb284828501612a4e565b949350505050565b5f805f805f60a08688031215612fce575f80fd5b612fd786612923565b9450612fe560208701612923565b93506040860135925060608601359150608086013567ffffffffffffffff81111561300e575f80fd5b612c4a88828901612a4e565b600181811c9082168061302e57607f821691505b60208210810361304c57634e487b7160e01b5f52602260045260245ffd5b50919050565b634e487b7160e01b5f52601260045260245ffd5b5f8261307457613074613052565b500690565b634e487b7160e01b5f52601160045260245ffd5b5f6001820161309e5761309e613079565b5060010190565b601f821115610938575f81815260208120601f850160051c810160208610156130cb5750805b601f850160051c820191505b81811015610847578281556001016130d7565b815167ffffffffffffffff81111561310457613104612a09565b61311881613112845461301a565b846130a5565b602080601f83116001811461314b575f84156131345750858301515b5f19600386901b1c1916600185901b178555610847565b5f85815260208120601f198616915b828110156131795788860151825594840194600190910190840161315a565b508582101561319657878501515f19600388901b60f8161c191681555b5050505050600190811b01905550565b634e487b7160e01b5f52603260045260245ffd5b5f602082840312156131ca575f80fd5b815161299681612e74565b6020808252600c908201526b151c985b9cd9995c91985a5b60a21b604082015260600190565b808201808211156105cf576105cf613079565b6020808252600c908201526b092dcecc2d8d2c892dcc8caf60a31b604082015260600190565b80820281158282048414176105cf576105cf613079565b5f8261325957613259613052565b500490565b818103818111156105cf576105cf613079565b6001600160a01b03929092168252602082015260400190565b6020808252600a90820152691499599d5b9911985a5b60b21b604082015260600190565b6001600160a01b03959095168552602085019390935260408401919091526060830152608082015260a00190565b67ffffffffffffffff8311156132f4576132f4612a09565b61330883613302835461301a565b836130a5565b5f601f841160018114613339575f85156133225750838201355b5f19600387901b1c1916600186901b1783556120d5565b5f83815260209020601f19861690835b828110156133695786850135825560209485019460019092019101613349565b5086821015613385575f1960f88860031b161c19848701351681555b505060018560011b0183555050505050565b604081525f6133a96040830185612e29565b82810360208401526133bb8185612e29565b95945050505050565b6001600160a01b03868116825285166020820152604081018490526060810183905260a0608082018190525f906133fd908301846129b4565b979650505050505050565b5f60208284031215613418575f80fd5b815161299681612966565b6001600160a01b0386811682528516602082015260a0604082018190525f9061344e90830186612e29565b82810360608401526134608186612e29565b9050828103608084015261347481856129b4565b9897505050505050505056fe877a78dc988c0ec5f58453b44888a55eb39755c3d5ed8d8ea990912aa3ef29c6264565e1ff1c54ef5f2bc263d3b7f062af7172daf399273b0c92ffc4fd8d4a4da26469706673582212200daf9dc8e4e81f4dd201d2081d6ee8e2516acdfcb050ee749befc262ec55a5c464736f6c63430008140033",
			"opcodes": "PUSH1 0x80 PUSH1 0x40 MSTORE CALLVALUE DUP1 ISZERO PUSH3 0x10 JUMPI PUSH0 DUP1 REVERT JUMPDEST POP PUSH1 0x40 MLOAD PUSH3 0x3867 CODESIZE SUB DUP1 PUSH3 0x3867 DUP4 CODECOPY DUP2 ADD PUSH1 0x40 DUP2 SWAP1 MSTORE PUSH3 0x33 SWAP2 PUSH3 0x141 JUMP JUMPDEST DUP1 PUSH3 0x3F DUP2 PUSH3 0x6B JUMP JUMPDEST POP PUSH1 0x1 PUSH1 0x4 SSTORE PUSH3 0x51 PUSH0 CALLER PUSH3 0x7D JUMP JUMPDEST POP POP PUSH1 0x5 DUP1 SLOAD PUSH1 0x1 PUSH1 0x1 PUSH1 0xA0 SHL SUB NOT AND CALLER OR SWAP1 SSTORE PUSH3 0x363 JUMP JUMPDEST PUSH1 0x2 PUSH3 0x79 DUP3 DUP3 PUSH3 0x29B JUMP JUMPDEST POP POP JUMP JUMPDEST PUSH0 DUP3 DUP2 MSTORE PUSH1 0x3 PUSH1 0x20 SWAP1 DUP2 MSTORE PUSH1 0x40 DUP1 DUP4 KECCAK256 PUSH1 0x1 PUSH1 0x1 PUSH1 0xA0 SHL SUB DUP6 AND DUP5 MSTORE SWAP1 SWAP2 MSTORE DUP2 KECCAK256 SLOAD PUSH1 0xFF AND PUSH3 0x124 JUMPI PUSH0 DUP4 DUP2 MSTORE PUSH1 0x3 PUSH1 0x20 SWAP1 DUP2 MSTORE PUSH1 0x40 DUP1 DUP4 KECCAK256 PUSH1 0x1 PUSH1 0x1 PUSH1 0xA0 SHL SUB DUP7 AND DUP5 MSTORE SWAP1 SWAP2 MSTORE SWAP1 KECCAK256 DUP1 SLOAD PUSH1 0xFF NOT AND PUSH1 0x1 OR SWAP1 SSTORE PUSH3 0xDB CALLER SWAP1 JUMP JUMPDEST PUSH1 0x1 PUSH1 0x1 PUSH1 0xA0 SHL SUB AND DUP3 PUSH1 0x1 PUSH1 0x1 PUSH1 0xA0 SHL SUB AND DUP5 PUSH32 0x2F8788117E7EFF1D82E926EC794901D17C78024A50270940304540A733656F0D PUSH1 0x40 MLOAD PUSH1 0x40 MLOAD DUP1 SWAP2 SUB SWAP1 LOG4 POP PUSH1 0x1 PUSH3 0x127 JUMP JUMPDEST POP PUSH0 JUMPDEST SWAP3 SWAP2 POP POP JUMP JUMPDEST PUSH4 0x4E487B71 PUSH1 0xE0 SHL PUSH0 MSTORE PUSH1 0x41 PUSH1 0x4 MSTORE PUSH1 0x24 PUSH0 REVERT JUMPDEST PUSH0 PUSH1 0x20 DUP1 DUP4 DUP6 SUB SLT ISZERO PUSH3 0x153 JUMPI PUSH0 DUP1 REVERT JUMPDEST DUP3 MLOAD PUSH1 0x1 PUSH1 0x1 PUSH1 0x40 SHL SUB DUP1 DUP3 GT ISZERO PUSH3 0x16A JUMPI PUSH0 DUP1 REVERT JUMPDEST DUP2 DUP6 ADD SWAP2 POP DUP6 PUSH1 0x1F DUP4 ADD SLT PUSH3 0x17E JUMPI PUSH0 DUP1 REVERT JUMPDEST DUP2 MLOAD DUP2 DUP2 GT ISZERO PUSH3 0x193 JUMPI PUSH3 0x193 PUSH3 0x12D JUMP JUMPDEST PUSH1 0x40 MLOAD PUSH1 0x1F DUP3 ADD PUSH1 0x1F NOT SWAP1 DUP2 AND PUSH1 0x3F ADD AND DUP2 ADD SWAP1 DUP4 DUP3 GT DUP2 DUP4 LT OR ISZERO PUSH3 0x1BE JUMPI PUSH3 0x1BE PUSH3 0x12D JUMP JUMPDEST DUP2 PUSH1 0x40 MSTORE DUP3 DUP2 MSTORE DUP9 DUP7 DUP5 DUP8 ADD ADD GT ISZERO PUSH3 0x1D6 JUMPI PUSH0 DUP1 REVERT JUMPDEST PUSH0 SWAP4 POP JUMPDEST DUP3 DUP5 LT ISZERO PUSH3 0x1F9 JUMPI DUP5 DUP5 ADD DUP7 ADD MLOAD DUP2 DUP6 ADD DUP8 ADD MSTORE SWAP3 DUP6 ADD SWAP3 PUSH3 0x1DA JUMP JUMPDEST PUSH0 DUP7 DUP5 DUP4 ADD ADD MSTORE DUP1 SWAP7 POP POP POP POP POP POP POP SWAP3 SWAP2 POP POP JUMP JUMPDEST PUSH1 0x1 DUP2 DUP2 SHR SWAP1 DUP3 AND DUP1 PUSH3 0x224 JUMPI PUSH1 0x7F DUP3 AND SWAP2 POP JUMPDEST PUSH1 0x20 DUP3 LT DUP2 SUB PUSH3 0x243 JUMPI PUSH4 0x4E487B71 PUSH1 0xE0 SHL PUSH0 MSTORE PUSH1 0x22 PUSH1 0x4 MSTORE PUSH1 0x24 PUSH0 REVERT JUMPDEST POP SWAP2 SWAP1 POP JUMP JUMPDEST PUSH1 0x1F DUP3 GT ISZERO PUSH3 0x296 JUMPI PUSH0 DUP2 DUP2 MSTORE PUSH1 0x20 DUP2 KECCAK256 PUSH1 0x1F DUP6 ADD PUSH1 0x5 SHR DUP2 ADD PUSH1 0x20 DUP7 LT ISZERO PUSH3 0x271 JUMPI POP DUP1 JUMPDEST PUSH1 0x1F DUP6 ADD PUSH1 0x5 SHR DUP3 ADD SWAP2 POP JUMPDEST DUP2 DUP2 LT ISZERO PUSH3 0x292 JUMPI DUP3 DUP2 SSTORE PUSH1 0x1 ADD PUSH3 0x27D JUMP JUMPDEST POP POP POP JUMPDEST POP POP POP JUMP JUMPDEST DUP2 MLOAD PUSH1 0x1 PUSH1 0x1 PUSH1 0x40 SHL SUB DUP2 GT ISZERO PUSH3 0x2B7 JUMPI PUSH3 0x2B7 PUSH3 0x12D JUMP JUMPDEST PUSH3 0x2CF DUP2 PUSH3 0x2C8 DUP5 SLOAD PUSH3 0x20F JUMP JUMPDEST DUP5 PUSH3 0x249 JUMP JUMPDEST PUSH1 0x20 DUP1 PUSH1 0x1F DUP4 GT PUSH1 0x1 DUP2 EQ PUSH3 0x305 JUMPI PUSH0 DUP5 ISZERO PUSH3 0x2ED JUMPI POP DUP6 DUP4 ADD MLOAD JUMPDEST PUSH0 NOT PUSH1 0x3 DUP7 SWAP1 SHL SHR NOT AND PUSH1 0x1 DUP6 SWAP1 SHL OR DUP6 SSTORE PUSH3 0x292 JUMP JUMPDEST PUSH0 DUP6 DUP2 MSTORE PUSH1 0x20 DUP2 KECCAK256 PUSH1 0x1F NOT DUP7 AND SWAP2 JUMPDEST DUP3 DUP2 LT ISZERO PUSH3 0x335 JUMPI DUP9 DUP7 ADD MLOAD DUP3 SSTORE SWAP5 DUP5 ADD SWAP5 PUSH1 0x1 SWAP1 SWAP2 ADD SWAP1 DUP5 ADD PUSH3 0x314 JUMP JUMPDEST POP DUP6 DUP3 LT ISZERO PUSH3 0x353 JUMPI DUP8 DUP6 ADD MLOAD PUSH0 NOT PUSH1 0x3 DUP9 SWAP1 SHL PUSH1 0xF8 AND SHR NOT AND DUP2 SSTORE JUMPDEST POP POP POP POP POP PUSH1 0x1 SWAP1 DUP2 SHL ADD SWAP1 SSTORE POP JUMP JUMPDEST PUSH2 0x34F6 DUP1 PUSH3 0x371 PUSH0 CODECOPY PUSH0 RETURN INVALID PUSH1 0x80 PUSH1 0x40 MSTORE CALLVALUE DUP1 ISZERO PUSH2 0xF JUMPI PUSH0 DUP1 REVERT JUMPDEST POP PUSH1 0x4 CALLDATASIZE LT PUSH2 0x228 JUMPI PUSH0 CALLDATALOAD PUSH1 0xE0 SHR DUP1 PUSH4 0x870E974E GT PUSH2 0x12A JUMPI DUP1 PUSH4 0xB69B6D66 GT PUSH2 0xB4 JUMPI DUP1 PUSH4 0xE82F4062 GT PUSH2 0x79 JUMPI DUP1 PUSH4 0xE82F4062 EQ PUSH2 0x543 JUMPI DUP1 PUSH4 0xE985E9C5 EQ PUSH2 0x556 JUMPI DUP1 PUSH4 0xF0D93B9A EQ PUSH2 0x569 JUMPI DUP1 PUSH4 0xF23A6E61 EQ PUSH2 0x57C JUMPI DUP1 PUSH4 0xF242432A EQ PUSH2 0x59B JUMPI PUSH0 DUP1 REVERT JUMPDEST DUP1 PUSH4 0xB69B6D66 EQ PUSH2 0x4BF JUMPI DUP1 PUSH4 0xB89571C7 EQ PUSH2 0x4D2 JUMPI DUP1 PUSH4 0xBC197C81 EQ PUSH2 0x4E5 JUMPI DUP1 PUSH4 0xD4AA56B1 EQ PUSH2 0x51D JUMPI DUP1 PUSH4 0xD547741F EQ PUSH2 0x530 JUMPI PUSH0 DUP1 REVERT JUMPDEST DUP1 PUSH4 0x9E56F275 GT PUSH2 0xFA JUMPI DUP1 PUSH4 0x9E56F275 EQ PUSH2 0x45F JUMPI DUP1 PUSH4 0xA217FDDF EQ PUSH2 0x472 JUMPI DUP1 PUSH4 0xA22CB465 EQ PUSH2 0x479 JUMPI DUP1 PUSH4 0xA966A0DF EQ PUSH2 0x48C JUMPI DUP1 PUSH4 0xAC76E521 EQ PUSH2 0x4A0 JUMPI PUSH0 DUP1 REVERT JUMPDEST DUP1 PUSH4 0x870E974E EQ PUSH2 0x3E7 JUMPI DUP1 PUSH4 0x91D14854 EQ PUSH2 0x3FA JUMPI DUP1 PUSH4 0x992642E5 EQ PUSH2 0x40D JUMPI DUP1 PUSH4 0x9CEA0787 EQ PUSH2 0x438 JUMPI PUSH0 DUP1 REVERT JUMPDEST DUP1 PUSH4 0x36568ABE GT PUSH2 0x1B6 JUMPI DUP1 PUSH4 0x4E1273F4 GT PUSH2 0x17B JUMPI DUP1 PUSH4 0x4E1273F4 EQ PUSH2 0x37B JUMPI DUP1 PUSH4 0x595AF66F EQ PUSH2 0x39B JUMPI DUP1 PUSH4 0x59F99C53 EQ PUSH2 0x3AE JUMPI DUP1 PUSH4 0x7365E8EC EQ PUSH2 0x3C1 JUMPI DUP1 PUSH4 0x815176AA EQ PUSH2 0x3D4 JUMPI PUSH0 DUP1 REVERT JUMPDEST DUP1 PUSH4 0x36568ABE EQ PUSH2 0x303 JUMPI DUP1 PUSH4 0x3A14AF65 EQ PUSH2 0x316 JUMPI DUP1 PUSH4 0x44879B3B EQ PUSH2 0x31F JUMPI DUP1 PUSH4 0x4B602673 EQ PUSH2 0x332 JUMPI DUP1 PUSH4 0x4BC9DB85 EQ PUSH2 0x358 JUMPI PUSH0 DUP1 REVERT JUMPDEST DUP1 PUSH4 0x237F1509 GT PUSH2 0x1FC JUMPI DUP1 PUSH4 0x237F1509 EQ PUSH2 0x29E JUMPI DUP1 PUSH4 0x248A9CA3 EQ PUSH2 0x2B1 JUMPI DUP1 PUSH4 0x2EB2C2D6 EQ PUSH2 0x2D3 JUMPI DUP1 PUSH4 0x2F2FF15D EQ PUSH2 0x2E8 JUMPI DUP1 PUSH4 0x361D8C3A EQ PUSH2 0x2FB JUMPI PUSH0 DUP1 REVERT JUMPDEST DUP1 PUSH3 0xFDD58E EQ PUSH2 0x22C JUMPI DUP1 PUSH4 0x1FFC9A7 EQ PUSH2 0x252 JUMPI DUP1 PUSH4 0xE89341C EQ PUSH2 0x275 JUMPI DUP1 PUSH4 0x18B6DCBC EQ PUSH2 0x295 JUMPI JUMPDEST PUSH0 DUP1 REVERT JUMPDEST PUSH2 0x23F PUSH2 0x23A CALLDATASIZE PUSH1 0x4 PUSH2 0x293E JUMP JUMPDEST PUSH2 0x5AE JUMP JUMPDEST PUSH1 0x40 MLOAD SWAP1 DUP2 MSTORE PUSH1 0x20 ADD JUMPDEST PUSH1 0x40 MLOAD DUP1 SWAP2 SUB SWAP1 RETURN JUMPDEST PUSH2 0x265 PUSH2 0x260 CALLDATASIZE PUSH1 0x4 PUSH2 0x297B JUMP JUMPDEST PUSH2 0x5D5 JUMP JUMPDEST PUSH1 0x40 MLOAD SWAP1 ISZERO ISZERO DUP2 MSTORE PUSH1 0x20 ADD PUSH2 0x249 JUMP JUMPDEST PUSH2 0x288 PUSH2 0x283 CALLDATASIZE PUSH1 0x4 PUSH2 0x299D JUMP JUMPDEST PUSH2 0x5DF JUMP JUMPDEST PUSH1 0x40 MLOAD PUSH2 0x249 SWAP2 SWAP1 PUSH2 0x29F7 JUMP JUMPDEST PUSH2 0x23F PUSH1 0x7 SLOAD DUP2 JUMP JUMPDEST PUSH2 0x23F PUSH2 0x2AC CALLDATASIZE PUSH1 0x4 PUSH2 0x2ABA JUMP JUMPDEST PUSH2 0x671 JUMP JUMPDEST PUSH2 0x23F PUSH2 0x2BF CALLDATASIZE PUSH1 0x4 PUSH2 0x299D JUMP JUMPDEST PUSH0 SWAP1 DUP2 MSTORE PUSH1 0x3 PUSH1 0x20 MSTORE PUSH1 0x40 SWAP1 KECCAK256 PUSH1 0x1 ADD SLOAD SWAP1 JUMP JUMPDEST PUSH2 0x2E6 PUSH2 0x2E1 CALLDATASIZE PUSH1 0x4 PUSH2 0x2BB4 JUMP JUMPDEST PUSH2 0x7E8 JUMP JUMPDEST STOP JUMPDEST PUSH2 0x2E6 PUSH2 0x2F6 CALLDATASIZE PUSH1 0x4 PUSH2 0x2C57 JUMP JUMPDEST PUSH2 0x84F JUMP JUMPDEST PUSH2 0x288 PUSH2 0x879 JUMP JUMPDEST PUSH2 0x2E6 PUSH2 0x311 CALLDATASIZE PUSH1 0x4 PUSH2 0x2C57 JUMP JUMPDEST PUSH2 0x905 JUMP JUMPDEST PUSH2 0x23F PUSH2 0x258 DUP2 JUMP JUMPDEST PUSH2 0x2E6 PUSH2 0x32D CALLDATASIZE PUSH1 0x4 PUSH2 0x2C81 JUMP JUMPDEST PUSH2 0x93D JUMP JUMPDEST PUSH2 0x345 PUSH2 0x340 CALLDATASIZE PUSH1 0x4 PUSH2 0x299D JUMP JUMPDEST PUSH2 0x96A JUMP JUMPDEST PUSH1 0x40 MLOAD PUSH2 0x249 SWAP8 SWAP7 SWAP6 SWAP5 SWAP4 SWAP3 SWAP2 SWAP1 PUSH2 0x2C9A JUMP JUMPDEST PUSH2 0x36B PUSH2 0x366 CALLDATASIZE PUSH1 0x4 PUSH2 0x2CF4 JUMP JUMPDEST PUSH2 0xABA JUMP JUMPDEST PUSH1 0x40 MLOAD PUSH2 0x249 SWAP5 SWAP4 SWAP3 SWAP2 SWAP1 PUSH2 0x2D28 JUMP JUMPDEST PUSH2 0x38E PUSH2 0x389 CALLDATASIZE PUSH1 0x4 PUSH2 0x2D6F JUMP JUMPDEST PUSH2 0xB0B JUMP JUMPDEST PUSH1 0x40 MLOAD PUSH2 0x249 SWAP2 SWAP1 PUSH2 0x2E62 JUMP JUMPDEST PUSH2 0x2E6 PUSH2 0x3A9 CALLDATASIZE PUSH1 0x4 PUSH2 0x2C81 JUMP JUMPDEST PUSH2 0xBDE JUMP JUMPDEST PUSH2 0x2E6 PUSH2 0x3BC CALLDATASIZE PUSH1 0x4 PUSH2 0x299D JUMP JUMPDEST PUSH2 0xC0B JUMP JUMPDEST PUSH2 0x2E6 PUSH2 0x3CF CALLDATASIZE PUSH1 0x4 PUSH2 0x2CF4 JUMP JUMPDEST PUSH2 0xD34 JUMP JUMPDEST PUSH2 0x288 PUSH2 0x3E2 CALLDATASIZE PUSH1 0x4 PUSH2 0x2C81 JUMP JUMPDEST PUSH2 0x10FA JUMP JUMPDEST PUSH2 0x2E6 PUSH2 0x3F5 CALLDATASIZE PUSH1 0x4 PUSH2 0x299D JUMP JUMPDEST PUSH2 0x1112 JUMP JUMPDEST PUSH2 0x265 PUSH2 0x408 CALLDATASIZE PUSH1 0x4 PUSH2 0x2C57 JUMP JUMPDEST PUSH2 0x1242 JUMP JUMPDEST PUSH1 0x8 SLOAD PUSH2 0x420 SWAP1 PUSH1 0x1 PUSH1 0x1 PUSH1 0xA0 SHL SUB AND DUP2 JUMP JUMPDEST PUSH1 0x40 MLOAD PUSH1 0x1 PUSH1 0x1 PUSH1 0xA0 SHL SUB SWAP1 SWAP2 AND DUP2 MSTORE PUSH1 0x20 ADD PUSH2 0x249 JUMP JUMPDEST PUSH2 0x23F PUSH32 0x16CEEE8289685DD2A02B9C8AE81D2DF373176CE53519E6284E2A2950D6546FFA DUP2 JUMP JUMPDEST PUSH2 0x2E6 PUSH2 0x46D CALLDATASIZE PUSH1 0x4 PUSH2 0x2E81 JUMP JUMPDEST PUSH2 0x126C JUMP JUMPDEST PUSH2 0x23F PUSH0 DUP2 JUMP JUMPDEST PUSH2 0x2E6 PUSH2 0x487 CALLDATASIZE PUSH1 0x4 PUSH2 0x2EB7 JUMP JUMPDEST PUSH2 0x184E JUMP JUMPDEST PUSH2 0x23F PUSH0 DUP1 MLOAD PUSH1 0x20 PUSH2 0x3481 DUP4 CODECOPY DUP2 MLOAD SWAP2 MSTORE DUP2 JUMP JUMPDEST PUSH2 0x23F PUSH2 0x4AE CALLDATASIZE PUSH1 0x4 PUSH2 0x2C81 JUMP JUMPDEST PUSH1 0xC PUSH1 0x20 MSTORE PUSH0 SWAP1 DUP2 MSTORE PUSH1 0x40 SWAP1 KECCAK256 SLOAD DUP2 JUMP JUMPDEST PUSH1 0x5 SLOAD PUSH2 0x420 SWAP1 PUSH1 0x1 PUSH1 0x1 PUSH1 0xA0 SHL SUB AND DUP2 JUMP JUMPDEST PUSH2 0x2E6 PUSH2 0x4E0 CALLDATASIZE PUSH1 0x4 PUSH2 0x2E81 JUMP JUMPDEST PUSH2 0x1859 JUMP JUMPDEST PUSH2 0x504 PUSH2 0x4F3 CALLDATASIZE PUSH1 0x4 PUSH2 0x2BB4 JUMP JUMPDEST PUSH4 0xBC197C81 PUSH1 0xE0 SHL SWAP6 SWAP5 POP POP POP POP POP JUMP JUMPDEST PUSH1 0x40 MLOAD PUSH1 0x1 PUSH1 0x1 PUSH1 0xE0 SHL SUB NOT SWAP1 SWAP2 AND DUP2 MSTORE PUSH1 0x20 ADD PUSH2 0x249 JUMP JUMPDEST PUSH2 0x2E6 PUSH2 0x52B CALLDATASIZE PUSH1 0x4 PUSH2 0x2EEC JUMP JUMPDEST PUSH2 0x1C33 JUMP JUMPDEST PUSH2 0x2E6 PUSH2 0x53E CALLDATASIZE PUSH1 0x4 PUSH2 0x2C57 JUMP JUMPDEST PUSH2 0x1C8A JUMP JUMPDEST PUSH2 0x2E6 PUSH2 0x551 CALLDATASIZE PUSH1 0x4 PUSH2 0x299D JUMP JUMPDEST PUSH2 0x1CAE JUMP JUMPDEST PUSH2 0x265 PUSH2 0x564 CALLDATASIZE PUSH1 0x4 PUSH2 0x2F58 JUMP JUMPDEST PUSH2 0x1FA5 JUMP JUMPDEST PUSH2 0x2E6 PUSH2 0x577 CALLDATASIZE PUSH1 0x4 PUSH2 0x2F80 JUMP JUMPDEST PUSH2 0x1FD2 JUMP JUMPDEST PUSH2 0x504 PUSH2 0x58A CALLDATASIZE PUSH1 0x4 PUSH2 0x2FBA JUMP JUMPDEST PUSH4 0xF23A6E61 PUSH1 0xE0 SHL SWAP6 SWAP5 POP POP POP POP POP JUMP JUMPDEST PUSH2 0x2E6 PUSH2 0x5A9 CALLDATASIZE PUSH1 0x4 PUSH2 0x2FBA JUMP JUMPDEST PUSH2 0x1FEA JUMP JUMPDEST PUSH0 DUP2 DUP2 MSTORE PUSH1 0x20 DUP2 DUP2 MSTORE PUSH1 0x40 DUP1 DUP4 KECCAK256 PUSH1 0x1 PUSH1 0x1 PUSH1 0xA0 SHL SUB DUP7 AND DUP5 MSTORE SWAP1 SWAP2 MSTORE SWAP1 KECCAK256 SLOAD JUMPDEST SWAP3 SWAP2 POP POP JUMP JUMPDEST PUSH0 PUSH2 0x5CF DUP3 PUSH2 0x2049 JUMP JUMPDEST PUSH1 0x60 PUSH1 0x2 DUP1 SLOAD PUSH2 0x5EE SWAP1 PUSH2 0x301A JUMP JUMPDEST DUP1 PUSH1 0x1F ADD PUSH1 0x20 DUP1 SWAP2 DIV MUL PUSH1 0x20 ADD PUSH1 0x40 MLOAD SWAP1 DUP2 ADD PUSH1 0x40 MSTORE DUP1 SWAP3 SWAP2 SWAP1 DUP2 DUP2 MSTORE PUSH1 0x20 ADD DUP3 DUP1 SLOAD PUSH2 0x61A SWAP1 PUSH2 0x301A JUMP JUMPDEST DUP1 ISZERO PUSH2 0x665 JUMPI DUP1 PUSH1 0x1F LT PUSH2 0x63C JUMPI PUSH2 0x100 DUP1 DUP4 SLOAD DIV MUL DUP4 MSTORE SWAP2 PUSH1 0x20 ADD SWAP2 PUSH2 0x665 JUMP JUMPDEST DUP3 ADD SWAP2 SWAP1 PUSH0 MSTORE PUSH1 0x20 PUSH0 KECCAK256 SWAP1 JUMPDEST DUP2 SLOAD DUP2 MSTORE SWAP1 PUSH1 0x1 ADD SWAP1 PUSH1 0x20 ADD DUP1 DUP4 GT PUSH2 0x648 JUMPI DUP3 SWAP1 SUB PUSH1 0x1F AND DUP3 ADD SWAP2 JUMPDEST POP POP POP POP POP SWAP1 POP SWAP2 SWAP1 POP JUMP JUMPDEST PUSH0 PUSH0 DUP1 MLOAD PUSH1 0x20 PUSH2 0x3481 DUP4 CODECOPY DUP2 MLOAD SWAP2 MSTORE PUSH2 0x689 DUP2 PUSH2 0x206D JUMP JUMPDEST PUSH2 0x694 PUSH1 0xA DUP5 PUSH2 0x3066 JUMP JUMPDEST ISZERO PUSH2 0x6D5 JUMPI PUSH1 0x40 MLOAD PUSH3 0x461BCD PUSH1 0xE5 SHL DUP2 MSTORE PUSH1 0x20 PUSH1 0x4 DUP3 ADD MSTORE PUSH1 0xC PUSH1 0x24 DUP3 ADD MSTORE PUSH12 0x496E76616C69645072696365 PUSH1 0xA0 SHL PUSH1 0x44 DUP3 ADD MSTORE PUSH1 0x64 ADD JUMPDEST PUSH1 0x40 MLOAD DUP1 SWAP2 SUB SWAP1 REVERT JUMPDEST PUSH1 0x7 DUP1 SLOAD SWAP1 PUSH0 PUSH2 0x6E4 DUP4 PUSH2 0x308D JUMP JUMPDEST SWAP1 SWAP2 SSTORE POP POP PUSH1 0x7 SLOAD PUSH1 0x40 DUP1 MLOAD PUSH1 0xE0 DUP2 ADD DUP3 MSTORE DUP3 DUP2 MSTORE PUSH1 0x20 DUP1 DUP3 ADD DUP11 DUP2 MSTORE DUP3 DUP5 ADD DUP11 SWAP1 MSTORE PUSH1 0x60 DUP4 ADD DUP10 SWAP1 MSTORE PUSH0 PUSH1 0x80 DUP5 ADD DUP2 SWAP1 MSTORE PUSH1 0xA0 DUP5 ADD DUP10 SWAP1 MSTORE CALLER PUSH1 0xC0 DUP6 ADD MSTORE DUP6 DUP2 MSTORE PUSH1 0xA SWAP1 SWAP3 MSTORE SWAP3 SWAP1 KECCAK256 DUP2 MLOAD DUP2 SSTORE SWAP2 MLOAD SWAP1 SWAP2 SWAP1 PUSH1 0x1 DUP3 ADD SWAP1 PUSH2 0x746 SWAP1 DUP3 PUSH2 0x30EA JUMP JUMPDEST POP PUSH1 0x40 DUP3 ADD MLOAD PUSH1 0x2 DUP3 ADD SWAP1 PUSH2 0x75B SWAP1 DUP3 PUSH2 0x30EA JUMP JUMPDEST POP PUSH1 0x60 DUP3 ADD MLOAD PUSH1 0x3 DUP3 ADD SSTORE PUSH1 0x80 DUP3 ADD MLOAD PUSH1 0x4 DUP3 ADD SSTORE PUSH1 0xA0 DUP3 ADD MLOAD PUSH1 0x5 DUP3 ADD SSTORE PUSH1 0xC0 SWAP1 SWAP2 ADD MLOAD PUSH1 0x6 SWAP1 SWAP2 ADD DUP1 SLOAD PUSH1 0x1 PUSH1 0x1 PUSH1 0xA0 SHL SUB NOT AND PUSH1 0x1 PUSH1 0x1 PUSH1 0xA0 SHL SUB SWAP1 SWAP3 AND SWAP2 SWAP1 SWAP2 OR SWAP1 SSTORE PUSH1 0x40 DUP1 MLOAD DUP6 DUP2 MSTORE PUSH1 0x20 DUP2 ADD DUP8 SWAP1 MSTORE CALLER SWAP2 DUP4 SWAP2 PUSH31 0xF3538CB5ABE2E9BC54F73939E4D165FCE3752D27FE21A5E88B2A9F6DA20C63 SWAP2 ADD PUSH1 0x40 MLOAD DUP1 SWAP2 SUB SWAP1 LOG3 SWAP7 SWAP6 POP POP POP POP POP POP JUMP JUMPDEST CALLER PUSH1 0x1 PUSH1 0x1 PUSH1 0xA0 SHL SUB DUP7 AND DUP2 EQ DUP1 ISZERO SWAP1 PUSH2 0x809 JUMPI POP PUSH2 0x807 DUP7 DUP3 PUSH2 0x1FA5 JUMP JUMPDEST ISZERO JUMPDEST ISZERO PUSH2 0x83A JUMPI PUSH1 0x40 MLOAD PUSH4 0x711BEC91 PUSH1 0xE1 SHL DUP2 MSTORE PUSH1 0x1 PUSH1 0x1 PUSH1 0xA0 SHL SUB DUP1 DUP4 AND PUSH1 0x4 DUP4 ADD MSTORE DUP8 AND PUSH1 0x24 DUP3 ADD MSTORE PUSH1 0x44 ADD PUSH2 0x6CC JUMP JUMPDEST PUSH2 0x847 DUP7 DUP7 DUP7 DUP7 DUP7 PUSH2 0x2077 JUMP JUMPDEST POP POP POP POP POP POP JUMP JUMPDEST PUSH0 DUP3 DUP2 MSTORE PUSH1 0x3 PUSH1 0x20 MSTORE PUSH1 0x40 SWAP1 KECCAK256 PUSH1 0x1 ADD SLOAD PUSH2 0x869 DUP2 PUSH2 0x206D JUMP JUMPDEST PUSH2 0x873 DUP4 DUP4 PUSH2 0x20DC JUMP JUMPDEST POP POP POP POP JUMP JUMPDEST PUSH1 0x6 DUP1 SLOAD PUSH2 0x886 SWAP1 PUSH2 0x301A JUMP JUMPDEST DUP1 PUSH1 0x1F ADD PUSH1 0x20 DUP1 SWAP2 DIV MUL PUSH1 0x20 ADD PUSH1 0x40 MLOAD SWAP1 DUP2 ADD PUSH1 0x40 MSTORE DUP1 SWAP3 SWAP2 SWAP1 DUP2 DUP2 MSTORE PUSH1 0x20 ADD DUP3 DUP1 SLOAD PUSH2 0x8B2 SWAP1 PUSH2 0x301A JUMP JUMPDEST DUP1 ISZERO PUSH2 0x8FD JUMPI DUP1 PUSH1 0x1F LT PUSH2 0x8D4 JUMPI PUSH2 0x100 DUP1 DUP4 SLOAD DIV MUL DUP4 MSTORE SWAP2 PUSH1 0x20 ADD SWAP2 PUSH2 0x8FD JUMP JUMPDEST DUP3 ADD SWAP2 SWAP1 PUSH0 MSTORE PUSH1 0x20 PUSH0 KECCAK256 SWAP1 JUMPDEST DUP2 SLOAD DUP2 MSTORE SWAP1 PUSH1 0x1 ADD SWAP1 PUSH1 0x20 ADD DUP1 DUP4 GT PUSH2 0x8E0 JUMPI DUP3 SWAP1 SUB PUSH1 0x1F AND DUP3 ADD SWAP2 JUMPDEST POP POP POP POP POP DUP2 JUMP JUMPDEST PUSH1 0x1 PUSH1 0x1 PUSH1 0xA0 SHL SUB DUP2 AND CALLER EQ PUSH2 0x92E JUMPI PUSH1 0x40 MLOAD PUSH4 0x334BD919 PUSH1 0xE1 SHL DUP2 MSTORE PUSH1 0x4 ADD PUSH1 0x40 MLOAD DUP1 SWAP2 SUB SWAP1 REVERT JUMPDEST PUSH2 0x938 DUP3 DUP3 PUSH2 0x216D JUMP JUMPDEST POP POP POP JUMP JUMPDEST PUSH0 PUSH2 0x947 DUP2 PUSH2 0x206D JUMP JUMPDEST POP PUSH1 0x8 DUP1 SLOAD PUSH1 0x1 PUSH1 0x1 PUSH1 0xA0 SHL SUB NOT AND PUSH1 0x1 PUSH1 0x1 PUSH1 0xA0 SHL SUB SWAP3 SWAP1 SWAP3 AND SWAP2 SWAP1 SWAP2 OR SWAP1 SSTORE JUMP JUMPDEST PUSH1 0xA PUSH1 0x20 MSTORE PUSH0 SWAP1 DUP2 MSTORE PUSH1 0x40 SWAP1 KECCAK256 DUP1 SLOAD PUSH1 0x1 DUP3 ADD DUP1 SLOAD SWAP2 SWAP3 SWAP2 PUSH2 0x98B SWAP1 PUSH2 0x301A JUMP JUMPDEST DUP1 PUSH1 0x1F ADD PUSH1 0x20 DUP1 SWAP2 DIV MUL PUSH1 0x20 ADD PUSH1 0x40 MLOAD SWAP1 DUP2 ADD PUSH1 0x40 MSTORE DUP1 SWAP3 SWAP2 SWAP1 DUP2 DUP2 MSTORE PUSH1 0x20 ADD DUP3 DUP1 SLOAD PUSH2 0x9B7 SWAP1 PUSH2 0x301A JUMP JUMPDEST DUP1 ISZERO PUSH2 0xA02 JUMPI DUP1 PUSH1 0x1F LT PUSH2 0x9D9 JUMPI PUSH2 0x100 DUP1 DUP4 SLOAD DIV MUL DUP4 MSTORE SWAP2 PUSH1 0x20 ADD SWAP2 PUSH2 0xA02 JUMP JUMPDEST DUP3 ADD SWAP2 SWAP1 PUSH0 MSTORE PUSH1 0x20 PUSH0 KECCAK256 SWAP1 JUMPDEST DUP2 SLOAD DUP2 MSTORE SWAP1 PUSH1 0x1 ADD SWAP1 PUSH1 0x20 ADD DUP1 DUP4 GT PUSH2 0x9E5 JUMPI DUP3 SWAP1 SUB PUSH1 0x1F AND DUP3 ADD SWAP2 JUMPDEST POP POP POP POP POP SWAP1 DUP1 PUSH1 0x2 ADD DUP1 SLOAD PUSH2 0xA17 SWAP1 PUSH2 0x301A JUMP JUMPDEST DUP1 PUSH1 0x1F ADD PUSH1 0x20 DUP1 SWAP2 DIV MUL PUSH1 0x20 ADD PUSH1 0x40 MLOAD SWAP1 DUP2 ADD PUSH1 0x40 MSTORE DUP1 SWAP3 SWAP2 SWAP1 DUP2 DUP2 MSTORE PUSH1 0x20 ADD DUP3 DUP1 SLOAD PUSH2 0xA43 SWAP1 PUSH2 0x301A JUMP JUMPDEST DUP1 ISZERO PUSH2 0xA8E JUMPI DUP1 PUSH1 0x1F LT PUSH2 0xA65 JUMPI PUSH2 0x100 DUP1 DUP4 SLOAD DIV MUL DUP4 MSTORE SWAP2 PUSH1 0x20 ADD SWAP2 PUSH2 0xA8E JUMP JUMPDEST DUP3 ADD SWAP2 SWAP1 PUSH0 MSTORE PUSH1 0x20 PUSH0 KECCAK256 SWAP1 JUMPDEST DUP2 SLOAD DUP2 MSTORE SWAP1 PUSH1 0x1 ADD SWAP1 PUSH1 0x20 ADD DUP1 DUP4 GT PUSH2 0xA71 JUMPI DUP3 SWAP1 SUB PUSH1 0x1F AND DUP3 ADD SWAP2 JUMPDEST POP POP POP POP PUSH1 0x3 DUP4 ADD SLOAD PUSH1 0x4 DUP5 ADD SLOAD PUSH1 0x5 DUP6 ADD SLOAD PUSH1 0x6 SWAP1 SWAP6 ADD SLOAD SWAP4 SWAP5 SWAP2 SWAP4 SWAP1 SWAP3 POP PUSH1 0x1 PUSH1 0x1 PUSH1 0xA0 SHL SUB AND DUP8 JUMP JUMPDEST PUSH1 0xB PUSH1 0x20 MSTORE DUP2 PUSH0 MSTORE PUSH1 0x40 PUSH0 KECCAK256 DUP2 DUP2 SLOAD DUP2 LT PUSH2 0xAD3 JUMPI PUSH0 DUP1 REVERT JUMPDEST PUSH0 SWAP2 DUP3 MSTORE PUSH1 0x20 SWAP1 SWAP2 KECCAK256 PUSH1 0x3 SWAP1 SWAP2 MUL ADD DUP1 SLOAD PUSH1 0x1 DUP3 ADD SLOAD PUSH1 0x2 SWAP1 SWAP3 ADD SLOAD PUSH1 0x1 PUSH1 0x1 PUSH1 0xA0 SHL SUB DUP3 AND SWAP5 POP PUSH1 0x1 PUSH1 0xA0 SHL SWAP1 SWAP2 DIV PUSH1 0xFF AND SWAP3 POP DUP5 JUMP JUMPDEST PUSH1 0x60 DUP2 MLOAD DUP4 MLOAD EQ PUSH2 0xB3C JUMPI DUP2 MLOAD DUP4 MLOAD PUSH1 0x40 MLOAD PUSH4 0x5B059991 PUSH1 0xE0 SHL DUP2 MSTORE PUSH1 0x4 DUP2 ADD SWAP3 SWAP1 SWAP3 MSTORE PUSH1 0x24 DUP3 ADD MSTORE PUSH1 0x44 ADD PUSH2 0x6CC JUMP JUMPDEST PUSH0 DUP4 MLOAD PUSH8 0xFFFFFFFFFFFFFFFF DUP2 GT ISZERO PUSH2 0xB57 JUMPI PUSH2 0xB57 PUSH2 0x2A09 JUMP JUMPDEST PUSH1 0x40 MLOAD SWAP1 DUP1 DUP3 MSTORE DUP1 PUSH1 0x20 MUL PUSH1 0x20 ADD DUP3 ADD PUSH1 0x40 MSTORE DUP1 ISZERO PUSH2 0xB80 JUMPI DUP2 PUSH1 0x20 ADD PUSH1 0x20 DUP3 MUL DUP1 CALLDATASIZE DUP4 CALLDATACOPY ADD SWAP1 POP JUMPDEST POP SWAP1 POP PUSH0 JUMPDEST DUP5 MLOAD DUP2 LT ISZERO PUSH2 0xBD6 JUMPI PUSH1 0x20 DUP1 DUP3 MUL DUP7 ADD ADD MLOAD PUSH2 0xBA9 SWAP1 PUSH1 0x20 DUP1 DUP5 MUL DUP8 ADD ADD MLOAD PUSH2 0x5AE JUMP JUMPDEST DUP3 DUP3 DUP2 MLOAD DUP2 LT PUSH2 0xBBB JUMPI PUSH2 0xBBB PUSH2 0x31A6 JUMP JUMPDEST PUSH1 0x20 SWAP1 DUP2 MUL SWAP2 SWAP1 SWAP2 ADD ADD MSTORE PUSH2 0xBCF DUP2 PUSH2 0x308D JUMP JUMPDEST SWAP1 POP PUSH2 0xB85 JUMP JUMPDEST POP SWAP4 SWAP3 POP POP POP JUMP JUMPDEST PUSH0 PUSH2 0xBE8 DUP2 PUSH2 0x206D JUMP JUMPDEST POP PUSH1 0x5 DUP1 SLOAD PUSH1 0x1 PUSH1 0x1 PUSH1 0xA0 SHL SUB NOT AND PUSH1 0x1 PUSH1 0x1 PUSH1 0xA0 SHL SUB SWAP3 SWAP1 SWAP3 AND SWAP2 SWAP1 SWAP2 OR SWAP1 SSTORE JUMP JUMPDEST PUSH2 0xC13 PUSH2 0x21D8 JUMP JUMPDEST PUSH0 DUP1 MLOAD PUSH1 0x20 PUSH2 0x3481 DUP4 CODECOPY DUP2 MLOAD SWAP2 MSTORE PUSH2 0xC2A DUP2 PUSH2 0x206D JUMP JUMPDEST PUSH1 0x8 SLOAD PUSH1 0x1 PUSH1 0x1 PUSH1 0xA0 SHL SUB AND PUSH2 0xC71 JUMPI PUSH1 0x40 MLOAD PUSH3 0x461BCD PUSH1 0xE5 SHL DUP2 MSTORE PUSH1 0x20 PUSH1 0x4 DUP3 ADD MSTORE PUSH1 0xC PUSH1 0x24 DUP3 ADD MSTORE PUSH12 0x2737A9BA30B13632A1B7B4B7 PUSH1 0xA1 SHL PUSH1 0x44 DUP3 ADD MSTORE PUSH1 0x64 ADD PUSH2 0x6CC JUMP JUMPDEST PUSH1 0x8 SLOAD PUSH1 0x40 MLOAD PUSH4 0x23B872DD PUSH1 0xE0 SHL DUP2 MSTORE CALLER PUSH1 0x4 DUP3 ADD MSTORE ADDRESS PUSH1 0x24 DUP3 ADD MSTORE PUSH1 0x44 DUP2 ADD DUP5 SWAP1 MSTORE PUSH1 0x1 PUSH1 0x1 PUSH1 0xA0 SHL SUB SWAP1 SWAP2 AND SWAP1 PUSH4 0x23B872DD SWAP1 PUSH1 0x64 ADD PUSH1 0x20 PUSH1 0x40 MLOAD DUP1 DUP4 SUB DUP2 PUSH0 DUP8 GAS CALL ISZERO DUP1 ISZERO PUSH2 0xCC5 JUMPI RETURNDATASIZE PUSH0 DUP1 RETURNDATACOPY RETURNDATASIZE PUSH0 REVERT JUMPDEST POP POP POP POP PUSH1 0x40 MLOAD RETURNDATASIZE PUSH1 0x1F NOT PUSH1 0x1F DUP3 ADD AND DUP3 ADD DUP1 PUSH1 0x40 MSTORE POP DUP2 ADD SWAP1 PUSH2 0xCE9 SWAP2 SWAP1 PUSH2 0x31BA JUMP JUMPDEST PUSH2 0xD05 JUMPI PUSH1 0x40 MLOAD PUSH3 0x461BCD PUSH1 0xE5 SHL DUP2 MSTORE PUSH1 0x4 ADD PUSH2 0x6CC SWAP1 PUSH2 0x31D5 JUMP JUMPDEST CALLER PUSH0 SWAP1 DUP2 MSTORE PUSH1 0xC PUSH1 0x20 MSTORE PUSH1 0x40 DUP2 KECCAK256 DUP1 SLOAD DUP5 SWAP3 SWAP1 PUSH2 0xD23 SWAP1 DUP5 SWAP1 PUSH2 0x31FB JUMP JUMPDEST SWAP1 SWAP2 SSTORE POP POP PUSH1 0x1 PUSH1 0x4 SSTORE POP POP JUMP JUMPDEST POP JUMP JUMPDEST PUSH2 0xD3C PUSH2 0x21D8 JUMP JUMPDEST PUSH0 DUP3 DUP2 MSTORE PUSH1 0xA PUSH1 0x20 MSTORE PUSH1 0x40 SWAP1 KECCAK256 PUSH1 0x6 DUP2 ADD SLOAD PUSH1 0x1 PUSH1 0x1 PUSH1 0xA0 SHL SUB AND CALLER EQ PUSH2 0xD92 JUMPI PUSH1 0x40 MLOAD PUSH3 0x461BCD PUSH1 0xE5 SHL DUP2 MSTORE PUSH1 0x20 PUSH1 0x4 DUP3 ADD MSTORE PUSH1 0xA PUSH1 0x24 DUP3 ADD MSTORE PUSH10 0x13DB9B1E505C9D1A5CDD PUSH1 0xB2 SHL PUSH1 0x44 DUP3 ADD MSTORE PUSH1 0x64 ADD PUSH2 0x6CC JUMP JUMPDEST PUSH0 DUP4 DUP2 MSTORE PUSH1 0xB PUSH1 0x20 MSTORE PUSH1 0x40 SWAP1 KECCAK256 SLOAD DUP3 LT PUSH2 0xDBE JUMPI PUSH1 0x40 MLOAD PUSH3 0x461BCD PUSH1 0xE5 SHL DUP2 MSTORE PUSH1 0x4 ADD PUSH2 0x6CC SWAP1 PUSH2 0x320E JUMP JUMPDEST PUSH0 DUP4 DUP2 MSTORE PUSH1 0xB PUSH1 0x20 MSTORE PUSH1 0x40 DUP2 KECCAK256 DUP1 SLOAD DUP5 SWAP1 DUP2 LT PUSH2 0xDDD JUMPI PUSH2 0xDDD PUSH2 0x31A6 JUMP JUMPDEST PUSH0 SWAP2 DUP3 MSTORE PUSH1 0x20 DUP3 KECCAK256 PUSH1 0x3 SWAP1 SWAP2 MUL ADD SWAP2 POP DUP2 SLOAD PUSH1 0x1 PUSH1 0xA0 SHL SWAP1 DIV PUSH1 0xFF AND PUSH1 0x3 DUP2 GT ISZERO PUSH2 0xE0A JUMPI PUSH2 0xE0A PUSH2 0x2D14 JUMP JUMPDEST EQ PUSH2 0xE4A JUMPI PUSH1 0x40 MLOAD PUSH3 0x461BCD PUSH1 0xE5 SHL DUP2 MSTORE PUSH1 0x20 PUSH1 0x4 DUP3 ADD MSTORE PUSH1 0x10 PUSH1 0x24 DUP3 ADD MSTORE PUSH16 0x496E6163746976655075726368617365 PUSH1 0x80 SHL PUSH1 0x44 DUP3 ADD MSTORE PUSH1 0x64 ADD PUSH2 0x6CC JUMP JUMPDEST PUSH2 0x258 DUP2 PUSH1 0x2 ADD SLOAD PUSH2 0xE5C SWAP2 SWAP1 PUSH2 0x31FB JUMP JUMPDEST TIMESTAMP LT ISZERO PUSH2 0xE9C JUMPI PUSH1 0x40 MLOAD PUSH3 0x461BCD PUSH1 0xE5 SHL DUP2 MSTORE PUSH1 0x20 PUSH1 0x4 DUP3 ADD MSTORE PUSH1 0xE PUSH1 0x24 DUP3 ADD MSTORE PUSH14 0x54696D656F757450656E64696E67 PUSH1 0x90 SHL PUSH1 0x44 DUP3 ADD MSTORE PUSH1 0x64 ADD PUSH2 0x6CC JUMP JUMPDEST PUSH0 PUSH1 0xA DUP4 PUSH1 0x5 ADD SLOAD PUSH1 0x2 PUSH2 0xEB0 SWAP2 SWAP1 PUSH2 0x3234 JUMP JUMPDEST PUSH2 0xEBA SWAP2 SWAP1 PUSH2 0x324B JUMP JUMPDEST SWAP1 POP PUSH0 PUSH1 0xA DUP5 PUSH1 0x5 ADD SLOAD PUSH2 0xECE SWAP2 SWAP1 PUSH2 0x324B JUMP JUMPDEST PUSH1 0x8 SLOAD DUP5 SLOAD SWAP2 SWAP3 POP PUSH1 0x1 PUSH1 0x1 PUSH1 0xA0 SHL SUB SWAP1 DUP2 AND SWAP2 PUSH4 0xA9059CBB SWAP2 AND PUSH2 0xEF3 DUP5 DUP7 PUSH2 0x325E JUMP JUMPDEST PUSH1 0x40 MLOAD DUP4 PUSH4 0xFFFFFFFF AND PUSH1 0xE0 SHL DUP2 MSTORE PUSH1 0x4 ADD PUSH2 0xF10 SWAP3 SWAP2 SWAP1 PUSH2 0x3271 JUMP JUMPDEST PUSH1 0x20 PUSH1 0x40 MLOAD DUP1 DUP4 SUB DUP2 PUSH0 DUP8 GAS CALL ISZERO DUP1 ISZERO PUSH2 0xF2C JUMPI RETURNDATASIZE PUSH0 DUP1 RETURNDATACOPY RETURNDATASIZE PUSH0 REVERT JUMPDEST POP POP POP POP PUSH1 0x40 MLOAD RETURNDATASIZE PUSH1 0x1F NOT PUSH1 0x1F DUP3 ADD AND DUP3 ADD DUP1 PUSH1 0x40 MSTORE POP DUP2 ADD SWAP1 PUSH2 0xF50 SWAP2 SWAP1 PUSH2 0x31BA JUMP JUMPDEST PUSH2 0xF6C JUMPI PUSH1 0x40 MLOAD PUSH3 0x461BCD PUSH1 0xE5 SHL DUP2 MSTORE PUSH1 0x4 ADD PUSH2 0x6CC SWAP1 PUSH2 0x328A JUMP JUMPDEST PUSH1 0x8 SLOAD PUSH1 0x5 SLOAD PUSH1 0x40 MLOAD PUSH4 0xA9059CBB PUSH1 0xE0 SHL DUP2 MSTORE PUSH1 0x1 PUSH1 0x1 PUSH1 0xA0 SHL SUB SWAP3 DUP4 AND SWAP3 PUSH4 0xA9059CBB SWAP3 PUSH2 0xFA2 SWAP3 SWAP2 AND SWAP1 DUP6 SWAP1 PUSH1 0x4 ADD PUSH2 0x3271 JUMP JUMPDEST PUSH1 0x20 PUSH1 0x40 MLOAD DUP1 DUP4 SUB DUP2 PUSH0 DUP8 GAS CALL ISZERO DUP1 ISZERO PUSH2 0xFBE JUMPI RETURNDATASIZE PUSH0 DUP1 RETURNDATACOPY RETURNDATASIZE PUSH0 REVERT JUMPDEST POP POP POP POP PUSH1 0x40 MLOAD RETURNDATASIZE PUSH1 0x1F NOT PUSH1 0x1F DUP3 ADD AND DUP3 ADD DUP1 PUSH1 0x40 MSTORE POP DUP2 ADD SWAP1 PUSH2 0xFE2 SWAP2 SWAP1 PUSH2 0x31BA JUMP JUMPDEST PUSH2 0xFFE JUMPI PUSH1 0x40 MLOAD PUSH3 0x461BCD PUSH1 0xE5 SHL DUP2 MSTORE PUSH1 0x4 ADD PUSH2 0x6CC SWAP1 PUSH2 0x328A JUMP JUMPDEST DUP4 PUSH1 0x5 ADD SLOAD DUP4 PUSH1 0x1 ADD SLOAD PUSH2 0x1012 SWAP2 SWAP1 PUSH2 0x31FB JUMP JUMPDEST PUSH1 0x6 DUP6 ADD SLOAD PUSH1 0x1 PUSH1 0x1 PUSH1 0xA0 SHL SUB AND PUSH0 SWAP1 DUP2 MSTORE PUSH1 0xC PUSH1 0x20 MSTORE PUSH1 0x40 DUP2 KECCAK256 DUP1 SLOAD SWAP1 SWAP2 SWAP1 PUSH2 0x103D SWAP1 DUP5 SWAP1 PUSH2 0x31FB JUMP JUMPDEST SWAP1 SWAP2 SSTORE POP POP PUSH0 PUSH1 0x1 DUP5 ADD SSTORE DUP3 SLOAD PUSH1 0xFF PUSH1 0xA0 SHL NOT AND PUSH1 0x1 PUSH1 0xA1 SHL OR DUP4 SSTORE PUSH1 0x6 DUP5 ADD SLOAD PUSH1 0x1 PUSH1 0x1 PUSH1 0xA0 SHL SUB AND DUP6 DUP8 PUSH0 DUP1 MLOAD PUSH1 0x20 PUSH2 0x34A1 DUP4 CODECOPY DUP2 MLOAD SWAP2 MSTORE CALLER PUSH2 0x1082 DUP7 DUP9 PUSH2 0x325E JUMP JUMPDEST DUP7 PUSH0 DUP12 PUSH1 0x5 ADD SLOAD DUP12 PUSH1 0x1 ADD SLOAD PUSH2 0x1098 SWAP2 SWAP1 PUSH2 0x31FB JUMP JUMPDEST PUSH1 0x40 MLOAD PUSH2 0x10A9 SWAP6 SWAP5 SWAP4 SWAP3 SWAP2 SWAP1 PUSH2 0x32AE JUMP JUMPDEST PUSH1 0x40 MLOAD DUP1 SWAP2 SUB SWAP1 LOG4 PUSH1 0x40 MLOAD DUP6 DUP2 MSTORE CALLER SWAP1 DUP8 SWAP1 PUSH32 0x86F9D82FE70F334564DFB5D0F47619293510546518AF6F46B21209F3CFD6D3E7 SWAP1 PUSH1 0x20 ADD PUSH1 0x40 MLOAD DUP1 SWAP2 SUB SWAP1 LOG3 POP POP POP POP PUSH2 0x10F6 PUSH1 0x1 PUSH1 0x4 SSTORE JUMP JUMPDEST POP POP JUMP JUMPDEST PUSH1 0x9 PUSH1 0x20 MSTORE PUSH0 SWAP1 DUP2 MSTORE PUSH1 0x40 SWAP1 KECCAK256 DUP1 SLOAD PUSH2 0x886 SWAP1 PUSH2 0x301A JUMP JUMPDEST PUSH2 0x111A PUSH2 0x21D8 JUMP JUMPDEST PUSH0 DUP1 MLOAD PUSH1 0x20 PUSH2 0x3481 DUP4 CODECOPY DUP2 MLOAD SWAP2 MSTORE PUSH2 0x1131 DUP2 PUSH2 0x206D JUMP JUMPDEST CALLER PUSH0 SWAP1 DUP2 MSTORE PUSH1 0xC PUSH1 0x20 MSTORE PUSH1 0x40 SWAP1 KECCAK256 SLOAD DUP3 GT ISZERO PUSH2 0x1186 JUMPI PUSH1 0x40 MLOAD PUSH3 0x461BCD PUSH1 0xE5 SHL DUP2 MSTORE PUSH1 0x20 PUSH1 0x4 DUP3 ADD MSTORE PUSH1 0x14 PUSH1 0x24 DUP3 ADD MSTORE PUSH20 0x125B9CDD59999A58DA595B9D0819195C1BDCDA5D PUSH1 0x62 SHL PUSH1 0x44 DUP3 ADD MSTORE PUSH1 0x64 ADD PUSH2 0x6CC JUMP JUMPDEST CALLER PUSH0 SWAP1 DUP2 MSTORE PUSH1 0xC PUSH1 0x20 MSTORE PUSH1 0x40 DUP2 KECCAK256 DUP1 SLOAD DUP5 SWAP3 SWAP1 PUSH2 0x11A4 SWAP1 DUP5 SWAP1 PUSH2 0x325E JUMP JUMPDEST SWAP1 SWAP2 SSTORE POP POP PUSH1 0x8 SLOAD PUSH1 0x40 MLOAD PUSH4 0xA9059CBB PUSH1 0xE0 SHL DUP2 MSTORE PUSH1 0x1 PUSH1 0x1 PUSH1 0xA0 SHL SUB SWAP1 SWAP2 AND SWAP1 PUSH4 0xA9059CBB SWAP1 PUSH2 0x11DB SWAP1 CALLER SWAP1 DUP7 SWAP1 PUSH1 0x4 ADD PUSH2 0x3271 JUMP JUMPDEST PUSH1 0x20 PUSH1 0x40 MLOAD DUP1 DUP4 SUB DUP2 PUSH0 DUP8 GAS CALL ISZERO DUP1 ISZERO PUSH2 0x11F7 JUMPI RETURNDATASIZE PUSH0 DUP1 RETURNDATACOPY RETURNDATASIZE PUSH0 REVERT JUMPDEST POP POP POP POP PUSH1 0x40 MLOAD RETURNDATASIZE PUSH1 0x1F NOT PUSH1 0x1F DUP3 ADD AND DUP3 ADD DUP1 PUSH1 0x40 MSTORE POP DUP2 ADD SWAP1 PUSH2 0x121B SWAP2 SWAP1 PUSH2 0x31BA JUMP JUMPDEST PUSH2 0x1237 JUMPI PUSH1 0x40 MLOAD PUSH3 0x461BCD PUSH1 0xE5 SHL DUP2 MSTORE PUSH1 0x4 ADD PUSH2 0x6CC SWAP1 PUSH2 0x31D5 JUMP JUMPDEST POP PUSH2 0xD31 PUSH1 0x1 PUSH1 0x4 SSTORE JUMP JUMPDEST PUSH0 SWAP2 DUP3 MSTORE PUSH1 0x3 PUSH1 0x20 SWAP1 DUP2 MSTORE PUSH1 0x40 DUP1 DUP5 KECCAK256 PUSH1 0x1 PUSH1 0x1 PUSH1 0xA0 SHL SUB SWAP4 SWAP1 SWAP4 AND DUP5 MSTORE SWAP2 SWAP1 MSTORE SWAP1 KECCAK256 SLOAD PUSH1 0xFF AND SWAP1 JUMP JUMPDEST PUSH2 0x1274 PUSH2 0x21D8 JUMP JUMPDEST PUSH32 0x16CEEE8289685DD2A02B9C8AE81D2DF373176CE53519E6284E2A2950D6546FFA PUSH2 0x129E DUP2 PUSH2 0x206D JUMP JUMPDEST PUSH0 DUP5 DUP2 MSTORE PUSH1 0xB PUSH1 0x20 MSTORE PUSH1 0x40 SWAP1 KECCAK256 SLOAD DUP4 LT PUSH2 0x12CA JUMPI PUSH1 0x40 MLOAD PUSH3 0x461BCD PUSH1 0xE5 SHL DUP2 MSTORE PUSH1 0x4 ADD PUSH2 0x6CC SWAP1 PUSH2 0x320E JUMP JUMPDEST PUSH0 DUP5 DUP2 MSTORE PUSH1 0xB PUSH1 0x20 MSTORE PUSH1 0x40 DUP2 KECCAK256 DUP1 SLOAD DUP6 SWAP1 DUP2 LT PUSH2 0x12E9 JUMPI PUSH2 0x12E9 PUSH2 0x31A6 JUMP JUMPDEST PUSH0 SWAP2 DUP3 MSTORE PUSH1 0x20 SWAP1 SWAP2 KECCAK256 PUSH1 0x3 SWAP1 SWAP2 MUL ADD SWAP1 POP PUSH1 0x1 DUP2 SLOAD PUSH1 0x1 PUSH1 0xA0 SHL SWAP1 DIV PUSH1 0xFF AND PUSH1 0x3 DUP2 GT ISZERO PUSH2 0x1319 JUMPI PUSH2 0x1319 PUSH2 0x2D14 JUMP JUMPDEST EQ PUSH2 0x1354 JUMPI PUSH1 0x40 MLOAD PUSH3 0x461BCD PUSH1 0xE5 SHL DUP2 MSTORE PUSH1 0x20 PUSH1 0x4 DUP3 ADD MSTORE PUSH1 0xB PUSH1 0x24 DUP3 ADD MSTORE PUSH11 0x139BDD111A5CDC1D5D1959 PUSH1 0xAA SHL PUSH1 0x44 DUP3 ADD MSTORE PUSH1 0x64 ADD PUSH2 0x6CC JUMP JUMPDEST PUSH0 DUP6 DUP2 MSTORE PUSH1 0xA PUSH1 0x20 DUP2 SWAP1 MSTORE PUSH1 0x40 DUP3 KECCAK256 PUSH1 0x5 DUP2 ADD SLOAD SWAP1 SWAP3 SWAP2 SWAP1 PUSH2 0x1377 SWAP1 PUSH1 0x2 PUSH2 0x3234 JUMP JUMPDEST PUSH2 0x1381 SWAP2 SWAP1 PUSH2 0x324B JUMP JUMPDEST SWAP1 POP PUSH0 PUSH1 0xA DUP4 PUSH1 0x5 ADD SLOAD PUSH2 0x1395 SWAP2 SWAP1 PUSH2 0x324B JUMP JUMPDEST SWAP1 POP DUP6 ISZERO PUSH2 0x1574 JUMPI PUSH1 0x8 SLOAD PUSH1 0x5 SLOAD PUSH1 0x40 MLOAD PUSH4 0xA9059CBB PUSH1 0xE0 SHL DUP2 MSTORE PUSH1 0x1 PUSH1 0x1 PUSH1 0xA0 SHL SUB SWAP3 DUP4 AND SWAP3 PUSH4 0xA9059CBB SWAP3 PUSH2 0x13D3 SWAP3 SWAP2 AND SWAP1 DUP6 SWAP1 PUSH1 0x4 ADD PUSH2 0x3271 JUMP JUMPDEST PUSH1 0x20 PUSH1 0x40 MLOAD DUP1 DUP4 SUB DUP2 PUSH0 DUP8 GAS CALL ISZERO DUP1 ISZERO PUSH2 0x13EF JUMPI RETURNDATASIZE PUSH0 DUP1 RETURNDATACOPY RETURNDATASIZE PUSH0 REVERT JUMPDEST POP POP POP POP PUSH1 0x40 MLOAD RETURNDATASIZE PUSH1 0x1F NOT PUSH1 0x1F DUP3 ADD AND DUP3 ADD DUP1 PUSH1 0x40 MSTORE POP DUP2 ADD SWAP1 PUSH2 0x1413 SWAP2 SWAP1 PUSH2 0x31BA JUMP JUMPDEST PUSH2 0x142F JUMPI PUSH1 0x40 MLOAD PUSH3 0x461BCD PUSH1 0xE5 SHL DUP2 MSTORE PUSH1 0x4 ADD PUSH2 0x6CC SWAP1 PUSH2 0x328A JUMP JUMPDEST PUSH1 0x8 SLOAD PUSH1 0x40 MLOAD PUSH4 0xA9059CBB PUSH1 0xE0 SHL DUP2 MSTORE PUSH1 0x1 PUSH1 0x1 PUSH1 0xA0 SHL SUB SWAP1 SWAP2 AND SWAP1 PUSH4 0xA9059CBB SWAP1 PUSH2 0x1461 SWAP1 CALLER SWAP1 DUP6 SWAP1 PUSH1 0x4 ADD PUSH2 0x3271 JUMP JUMPDEST PUSH1 0x20 PUSH1 0x40 MLOAD DUP1 DUP4 SUB DUP2 PUSH0 DUP8 GAS CALL ISZERO DUP1 ISZERO PUSH2 0x147D JUMPI RETURNDATASIZE PUSH0 DUP1 RETURNDATACOPY RETURNDATASIZE PUSH0 REVERT JUMPDEST POP POP POP POP PUSH1 0x40 MLOAD RETURNDATASIZE PUSH1 0x1F NOT PUSH1 0x1F DUP3 ADD AND DUP3 ADD DUP1 PUSH1 0x40 MSTORE POP DUP2 ADD SWAP1 PUSH2 0x14A1 SWAP2 SWAP1 PUSH2 0x31BA JUMP JUMPDEST PUSH2 0x14BD JUMPI PUSH1 0x40 MLOAD PUSH3 0x461BCD PUSH1 0xE5 SHL DUP2 MSTORE PUSH1 0x4 ADD PUSH2 0x6CC SWAP1 PUSH2 0x328A JUMP JUMPDEST DUP3 PUSH1 0x5 ADD SLOAD DUP5 PUSH1 0x1 ADD SLOAD PUSH2 0x14D1 SWAP2 SWAP1 PUSH2 0x31FB JUMP JUMPDEST PUSH1 0x6 DUP5 ADD SLOAD PUSH1 0x1 PUSH1 0x1 PUSH1 0xA0 SHL SUB AND PUSH0 SWAP1 DUP2 MSTORE PUSH1 0xC PUSH1 0x20 MSTORE PUSH1 0x40 DUP2 KECCAK256 DUP1 SLOAD SWAP1 SWAP2 SWAP1 PUSH2 0x14FC SWAP1 DUP5 SWAP1 PUSH2 0x31FB JUMP JUMPDEST SWAP1 SWAP2 SSTORE POP POP PUSH0 PUSH1 0x1 DUP6 ADD DUP2 SWAP1 SSTORE DUP5 SLOAD PUSH1 0x1 PUSH1 0xA1 SHL PUSH1 0xFF PUSH1 0xA0 SHL NOT DUP3 AND OR DUP7 SSTORE PUSH1 0x6 DUP6 ADD SLOAD PUSH1 0x5 DUP7 ADD SLOAD PUSH1 0x1 PUSH1 0x1 PUSH1 0xA0 SHL SUB SWAP2 DUP3 AND SWAP4 DUP12 SWAP4 DUP14 SWAP4 PUSH0 DUP1 MLOAD PUSH1 0x20 PUSH2 0x34A1 DUP4 CODECOPY DUP2 MLOAD SWAP2 MSTORE SWAP4 SWAP2 AND SWAP2 SWAP1 DUP8 SWAP1 DUP2 SWAP1 PUSH2 0x1556 SWAP1 DUP5 PUSH2 0x31FB JUMP JUMPDEST PUSH1 0x40 MLOAD PUSH2 0x1567 SWAP6 SWAP5 SWAP4 SWAP3 SWAP2 SWAP1 PUSH2 0x32AE JUMP JUMPDEST PUSH1 0x40 MLOAD DUP1 SWAP2 SUB SWAP1 LOG4 PUSH2 0x1803 JUMP JUMPDEST PUSH1 0x8 SLOAD DUP5 SLOAD PUSH1 0x5 DUP6 ADD SLOAD PUSH1 0x1 PUSH1 0x1 PUSH1 0xA0 SHL SUB SWAP3 DUP4 AND SWAP3 PUSH4 0xA9059CBB SWAP3 AND SWAP1 PUSH2 0x159D SWAP1 DUP7 SWAP1 PUSH2 0x31FB JUMP JUMPDEST PUSH1 0x40 MLOAD DUP4 PUSH4 0xFFFFFFFF AND PUSH1 0xE0 SHL DUP2 MSTORE PUSH1 0x4 ADD PUSH2 0x15BA SWAP3 SWAP2 SWAP1 PUSH2 0x3271 JUMP JUMPDEST PUSH1 0x20 PUSH1 0x40 MLOAD DUP1 DUP4 SUB DUP2 PUSH0 DUP8 GAS CALL ISZERO DUP1 ISZERO PUSH2 0x15D6 JUMPI RETURNDATASIZE PUSH0 DUP1 RETURNDATACOPY RETURNDATASIZE PUSH0 REVERT JUMPDEST POP POP POP POP PUSH1 0x40 MLOAD RETURNDATASIZE PUSH1 0x1F NOT PUSH1 0x1F DUP3 ADD AND DUP3 ADD DUP1 PUSH1 0x40 MSTORE POP DUP2 ADD SWAP1 PUSH2 0x15FA SWAP2 SWAP1 PUSH2 0x31BA JUMP JUMPDEST PUSH2 0x1616 JUMPI PUSH1 0x40 MLOAD PUSH3 0x461BCD PUSH1 0xE5 SHL DUP2 MSTORE PUSH1 0x4 ADD PUSH2 0x6CC SWAP1 PUSH2 0x328A JUMP JUMPDEST PUSH1 0x8 SLOAD PUSH1 0x5 SLOAD PUSH1 0x40 MLOAD PUSH4 0xA9059CBB PUSH1 0xE0 SHL DUP2 MSTORE PUSH1 0x1 PUSH1 0x1 PUSH1 0xA0 SHL SUB SWAP3 DUP4 AND SWAP3 PUSH4 0xA9059CBB SWAP3 PUSH2 0x164C SWAP3 SWAP2 AND SWAP1 DUP6 SWAP1 PUSH1 0x4 ADD PUSH2 0x3271 JUMP JUMPDEST PUSH1 0x20 PUSH1 0x40 MLOAD DUP1 DUP4 SUB DUP2 PUSH0 DUP8 GAS CALL ISZERO DUP1 ISZERO PUSH2 0x1668 JUMPI RETURNDATASIZE PUSH0 DUP1 RETURNDATACOPY RETURNDATASIZE PUSH0 REVERT JUMPDEST POP POP POP POP PUSH1 0x40 MLOAD RETURNDATASIZE PUSH1 0x1F NOT PUSH1 0x1F DUP3 ADD AND DUP3 ADD DUP1 PUSH1 0x40 MSTORE POP DUP2 ADD SWAP1 PUSH2 0x168C SWAP2 SWAP1 PUSH2 0x31BA JUMP JUMPDEST PUSH2 0x16A8 JUMPI PUSH1 0x40 MLOAD PUSH3 0x461BCD PUSH1 0xE5 SHL DUP2 MSTORE PUSH1 0x4 ADD PUSH2 0x6CC SWAP1 PUSH2 0x328A JUMP JUMPDEST PUSH1 0x8 SLOAD PUSH1 0x40 MLOAD PUSH4 0xA9059CBB PUSH1 0xE0 SHL DUP2 MSTORE PUSH1 0x1 PUSH1 0x1 PUSH1 0xA0 SHL SUB SWAP1 SWAP2 AND SWAP1 PUSH4 0xA9059CBB SWAP1 PUSH2 0x16DA SWAP1 CALLER SWAP1 DUP6 SWAP1 PUSH1 0x4 ADD PUSH2 0x3271 JUMP JUMPDEST PUSH1 0x20 PUSH1 0x40 MLOAD DUP1 DUP4 SUB DUP2 PUSH0 DUP8 GAS CALL ISZERO DUP1 ISZERO PUSH2 0x16F6 JUMPI RETURNDATASIZE PUSH0 DUP1 RETURNDATACOPY RETURNDATASIZE PUSH0 REVERT JUMPDEST POP POP POP POP PUSH1 0x40 MLOAD RETURNDATASIZE PUSH1 0x1F NOT PUSH1 0x1F DUP3 ADD AND DUP3 ADD DUP1 PUSH1 0x40 MSTORE POP DUP2 ADD SWAP1 PUSH2 0x171A SWAP2 SWAP1 PUSH2 0x31BA JUMP JUMPDEST PUSH2 0x1736 JUMPI PUSH1 0x40 MLOAD PUSH3 0x461BCD PUSH1 0xE5 SHL DUP2 MSTORE PUSH1 0x4 ADD PUSH2 0x6CC SWAP1 PUSH2 0x328A JUMP JUMPDEST PUSH0 PUSH1 0x1 DUP6 DUP2 ADD SWAP2 SWAP1 SWAP2 SSTORE DUP5 SLOAD PUSH1 0x3 PUSH1 0xA0 SHL PUSH1 0xFF PUSH1 0xA0 SHL NOT DUP3 AND OR DUP7 SSTORE PUSH2 0x1769 SWAP2 PUSH1 0x1 PUSH1 0x1 PUSH1 0xA0 SHL SUB SWAP1 SWAP2 AND SWAP1 DUP11 SWAP1 PUSH2 0x2231 JUMP JUMPDEST PUSH1 0x6 DUP4 ADD SLOAD DUP5 SLOAD PUSH1 0x5 DUP6 ADD SLOAD PUSH1 0x1 PUSH1 0x1 PUSH1 0xA0 SHL SUB SWAP3 DUP4 AND SWAP3 DUP11 SWAP3 DUP13 SWAP3 PUSH0 DUP1 MLOAD PUSH1 0x20 PUSH2 0x34A1 DUP4 CODECOPY DUP2 MLOAD SWAP2 MSTORE SWAP3 SWAP1 SWAP2 AND SWAP1 PUSH2 0x17A3 SWAP1 DUP9 SWAP1 PUSH2 0x31FB JUMP JUMPDEST DUP7 DUP8 PUSH0 PUSH1 0x40 MLOAD PUSH2 0x17B7 SWAP6 SWAP5 SWAP4 SWAP3 SWAP2 SWAP1 PUSH2 0x32AE JUMP JUMPDEST PUSH1 0x40 MLOAD DUP1 SWAP2 SUB SWAP1 LOG4 DUP4 SLOAD PUSH1 0x40 MLOAD DUP9 DUP2 MSTORE PUSH1 0x1 PUSH1 0x1 PUSH1 0xA0 SHL SUB SWAP1 SWAP2 AND SWAP1 DUP10 SWAP1 PUSH32 0x9E07DCE46977EC95E7805C93CE75A606C8828E2F4A3E5554BFEB839D50895099 SWAP1 PUSH1 0x20 ADD PUSH1 0x40 MLOAD DUP1 SWAP2 SUB SWAP1 LOG3 JUMPDEST PUSH1 0x40 DUP1 MLOAD DUP9 DUP2 MSTORE DUP8 ISZERO ISZERO PUSH1 0x20 DUP3 ADD MSTORE DUP10 SWAP2 PUSH32 0xD4390D9B1EAE30D53D6E598D7EBA50E60F3EA18310CA83E7919E3DF177BB05CA SWAP2 ADD PUSH1 0x40 MLOAD DUP1 SWAP2 SUB SWAP1 LOG2 POP POP POP POP POP PUSH2 0x938 PUSH1 0x1 PUSH1 0x4 SSTORE JUMP JUMPDEST PUSH2 0x10F6 CALLER DUP4 DUP4 PUSH2 0x2297 JUMP JUMPDEST PUSH2 0x1861 PUSH2 0x21D8 JUMP JUMPDEST PUSH0 DUP4 DUP2 MSTORE PUSH1 0xB PUSH1 0x20 MSTORE PUSH1 0x40 SWAP1 KECCAK256 SLOAD DUP3 LT PUSH2 0x188D JUMPI PUSH1 0x40 MLOAD PUSH3 0x461BCD PUSH1 0xE5 SHL DUP2 MSTORE PUSH1 0x4 ADD PUSH2 0x6CC SWAP1 PUSH2 0x320E JUMP JUMPDEST PUSH0 DUP4 DUP2 MSTORE PUSH1 0xB PUSH1 0x20 MSTORE PUSH1 0x40 DUP2 KECCAK256 DUP1 SLOAD DUP5 SWAP1 DUP2 LT PUSH2 0x18AC JUMPI PUSH2 0x18AC PUSH2 0x31A6 JUMP JUMPDEST PUSH0 SWAP2 DUP3 MSTORE PUSH1 0x20 SWAP1 SWAP2 KECCAK256 PUSH1 0x3 SWAP1 SWAP2 MUL ADD DUP1 SLOAD SWAP1 SWAP2 POP PUSH1 0x1 PUSH1 0x1 PUSH1 0xA0 SHL SUB AND CALLER EQ PUSH2 0x1902 JUMPI PUSH1 0x40 MLOAD PUSH3 0x461BCD PUSH1 0xE5 SHL DUP2 MSTORE PUSH1 0x20 PUSH1 0x4 DUP3 ADD MSTORE PUSH1 0x8 PUSH1 0x24 DUP3 ADD MSTORE PUSH8 0x2737BA213ABCB2B9 PUSH1 0xC1 SHL PUSH1 0x44 DUP3 ADD MSTORE PUSH1 0x64 ADD PUSH2 0x6CC JUMP JUMPDEST PUSH0 DUP2 SLOAD PUSH1 0x1 PUSH1 0xA0 SHL SWAP1 DIV PUSH1 0xFF AND PUSH1 0x3 DUP2 GT ISZERO PUSH2 0x1920 JUMPI PUSH2 0x1920 PUSH2 0x2D14 JUMP JUMPDEST EQ PUSH2 0x1960 JUMPI PUSH1 0x40 MLOAD PUSH3 0x461BCD PUSH1 0xE5 SHL DUP2 MSTORE PUSH1 0x20 PUSH1 0x4 DUP3 ADD MSTORE PUSH1 0x10 PUSH1 0x24 DUP3 ADD MSTORE PUSH16 0x496E6163746976655075726368617365 PUSH1 0x80 SHL PUSH1 0x44 DUP3 ADD MSTORE PUSH1 0x64 ADD PUSH2 0x6CC JUMP JUMPDEST PUSH0 DUP5 DUP2 MSTORE PUSH1 0xA PUSH1 0x20 MSTORE PUSH1 0x40 SWAP1 DUP2 SWAP1 KECCAK256 SWAP1 MLOAD CALLER SWAP1 DUP7 SWAP1 PUSH32 0xDFCFA307BD7FF3B7DF976AEA65A8DF73DEB67F2649E10E389AE208B2A5C667AF SWAP1 PUSH2 0x19AF SWAP1 DUP9 SWAP1 DUP9 SWAP1 SWAP2 DUP3 MSTORE ISZERO ISZERO PUSH1 0x20 DUP3 ADD MSTORE PUSH1 0x40 ADD SWAP1 JUMP JUMPDEST PUSH1 0x40 MLOAD DUP1 SWAP2 SUB SWAP1 LOG3 DUP3 ISZERO PUSH2 0x1BDE JUMPI PUSH0 PUSH1 0xA DUP3 PUSH1 0x5 ADD SLOAD PUSH1 0x2 PUSH2 0x19D1 SWAP2 SWAP1 PUSH2 0x3234 JUMP JUMPDEST PUSH2 0x19DB SWAP2 SWAP1 PUSH2 0x324B JUMP JUMPDEST SWAP1 POP PUSH0 PUSH1 0xA DUP4 PUSH1 0x5 ADD SLOAD PUSH2 0x19EF SWAP2 SWAP1 PUSH2 0x324B JUMP JUMPDEST PUSH1 0x8 SLOAD PUSH1 0x40 MLOAD PUSH4 0xA9059CBB PUSH1 0xE0 SHL DUP2 MSTORE SWAP2 SWAP3 POP PUSH1 0x1 PUSH1 0x1 PUSH1 0xA0 SHL SUB AND SWAP1 PUSH4 0xA9059CBB SWAP1 PUSH2 0x1A22 SWAP1 CALLER SWAP1 DUP7 SWAP1 PUSH1 0x4 ADD PUSH2 0x3271 JUMP JUMPDEST PUSH1 0x20 PUSH1 0x40 MLOAD DUP1 DUP4 SUB DUP2 PUSH0 DUP8 GAS CALL ISZERO DUP1 ISZERO PUSH2 0x1A3E JUMPI RETURNDATASIZE PUSH0 DUP1 RETURNDATACOPY RETURNDATASIZE PUSH0 REVERT JUMPDEST POP POP POP POP PUSH1 0x40 MLOAD RETURNDATASIZE PUSH1 0x1F NOT PUSH1 0x1F DUP3 ADD AND DUP3 ADD DUP1 PUSH1 0x40 MSTORE POP DUP2 ADD SWAP1 PUSH2 0x1A62 SWAP2 SWAP1 PUSH2 0x31BA JUMP JUMPDEST PUSH2 0x1A7E JUMPI PUSH1 0x40 MLOAD PUSH3 0x461BCD PUSH1 0xE5 SHL DUP2 MSTORE PUSH1 0x4 ADD PUSH2 0x6CC SWAP1 PUSH2 0x328A JUMP JUMPDEST PUSH1 0x8 SLOAD PUSH1 0x5 SLOAD PUSH1 0x40 MLOAD PUSH4 0xA9059CBB PUSH1 0xE0 SHL DUP2 MSTORE PUSH1 0x1 PUSH1 0x1 PUSH1 0xA0 SHL SUB SWAP3 DUP4 AND SWAP3 PUSH4 0xA9059CBB SWAP3 PUSH2 0x1AB4 SWAP3 SWAP2 AND SWAP1 DUP6 SWAP1 PUSH1 0x4 ADD PUSH2 0x3271 JUMP JUMPDEST PUSH1 0x20 PUSH1 0x40 MLOAD DUP1 DUP4 SUB DUP2 PUSH0 DUP8 GAS CALL ISZERO DUP1 ISZERO PUSH2 0x1AD0 JUMPI RETURNDATASIZE PUSH0 DUP1 RETURNDATACOPY RETURNDATASIZE PUSH0 REVERT JUMPDEST POP POP POP POP PUSH1 0x40 MLOAD RETURNDATASIZE PUSH1 0x1F NOT PUSH1 0x1F DUP3 ADD AND DUP3 ADD DUP1 PUSH1 0x40 MSTORE POP DUP2 ADD SWAP1 PUSH2 0x1AF4 SWAP2 SWAP1 PUSH2 0x31BA JUMP JUMPDEST PUSH2 0x1B10 JUMPI PUSH1 0x40 MLOAD PUSH3 0x461BCD PUSH1 0xE5 SHL DUP2 MSTORE PUSH1 0x4 ADD PUSH2 0x6CC SWAP1 PUSH2 0x328A JUMP JUMPDEST DUP1 DUP4 PUSH1 0x5 ADD SLOAD DUP6 PUSH1 0x1 ADD SLOAD PUSH2 0x1B25 SWAP2 SWAP1 PUSH2 0x31FB JUMP JUMPDEST PUSH2 0x1B2F SWAP2 SWAP1 PUSH2 0x325E JUMP JUMPDEST PUSH1 0x6 DUP5 ADD SLOAD PUSH1 0x1 PUSH1 0x1 PUSH1 0xA0 SHL SUB AND PUSH0 SWAP1 DUP2 MSTORE PUSH1 0xC PUSH1 0x20 MSTORE PUSH1 0x40 DUP2 KECCAK256 DUP1 SLOAD SWAP1 SWAP2 SWAP1 PUSH2 0x1B5A SWAP1 DUP5 SWAP1 PUSH2 0x31FB JUMP JUMPDEST SWAP1 SWAP2 SSTORE POP POP PUSH0 PUSH1 0x1 DUP6 ADD DUP2 SWAP1 SSTORE DUP5 SLOAD PUSH1 0xFF PUSH1 0xA0 SHL NOT AND PUSH1 0x1 PUSH1 0xA1 SHL OR DUP6 SSTORE PUSH1 0x6 DUP5 ADD SLOAD PUSH1 0x5 DUP6 ADD SLOAD PUSH1 0x1 PUSH1 0x1 PUSH1 0xA0 SHL SUB SWAP1 SWAP2 AND SWAP2 DUP9 SWAP2 DUP11 SWAP2 PUSH0 DUP1 MLOAD PUSH1 0x20 PUSH2 0x34A1 DUP4 CODECOPY DUP2 MLOAD SWAP2 MSTORE SWAP2 CALLER SWAP2 DUP9 SWAP2 DUP9 SWAP2 SWAP1 DUP3 SWAP1 PUSH2 0x1BB4 SWAP1 DUP4 PUSH2 0x31FB JUMP JUMPDEST PUSH2 0x1BBE SWAP2 SWAP1 PUSH2 0x325E JUMP JUMPDEST PUSH1 0x40 MLOAD PUSH2 0x1BCF SWAP6 SWAP5 SWAP4 SWAP3 SWAP2 SWAP1 PUSH2 0x32AE JUMP JUMPDEST PUSH1 0x40 MLOAD DUP1 SWAP2 SUB SWAP1 LOG4 POP POP PUSH2 0x1C27 JUMP JUMPDEST DUP2 SLOAD PUSH1 0xFF PUSH1 0xA0 SHL NOT AND PUSH1 0x1 PUSH1 0xA0 SHL OR DUP3 SSTORE PUSH1 0x40 DUP1 MLOAD DUP6 DUP2 MSTORE SWAP1 MLOAD CALLER SWAP2 DUP8 SWAP2 PUSH32 0xC6FB55A2BD2838E444163CECE1945A661C371C5EC8C1A4EA5D697AEFC7690547 SWAP2 DUP2 SWAP1 SUB PUSH1 0x20 ADD SWAP1 LOG3 JUMPDEST POP POP PUSH2 0x938 PUSH1 0x1 PUSH1 0x4 SSTORE JUMP JUMPDEST PUSH1 0x5 SLOAD PUSH1 0x1 PUSH1 0x1 PUSH1 0xA0 SHL SUB AND CALLER EQ PUSH2 0x1C7D JUMPI PUSH1 0x40 MLOAD PUSH3 0x461BCD PUSH1 0xE5 SHL DUP2 MSTORE PUSH1 0x20 PUSH1 0x4 DUP3 ADD MSTORE PUSH1 0xD PUSH1 0x24 DUP3 ADD MSTORE PUSH13 0x27B7363CA5B2BCA9B2B93B32B9 PUSH1 0x99 SHL PUSH1 0x44 DUP3 ADD MSTORE PUSH1 0x64 ADD PUSH2 0x6CC JUMP JUMPDEST PUSH1 0x6 PUSH2 0x938 DUP3 DUP5 DUP4 PUSH2 0x32DC JUMP JUMPDEST PUSH0 DUP3 DUP2 MSTORE PUSH1 0x3 PUSH1 0x20 MSTORE PUSH1 0x40 SWAP1 KECCAK256 PUSH1 0x1 ADD SLOAD PUSH2 0x1CA4 DUP2 PUSH2 0x206D JUMP JUMPDEST PUSH2 0x873 DUP4 DUP4 PUSH2 0x216D JUMP JUMPDEST PUSH2 0x1CB6 PUSH2 0x21D8 JUMP JUMPDEST PUSH0 DUP2 DUP2 MSTORE PUSH1 0xA PUSH1 0x20 MSTORE PUSH1 0x40 SWAP1 KECCAK256 PUSH1 0x3 DUP2 ADD SLOAD PUSH1 0x4 DUP3 ADD SLOAD LT PUSH2 0x1D04 JUMPI PUSH1 0x40 MLOAD PUSH3 0x461BCD PUSH1 0xE5 SHL DUP2 MSTORE PUSH1 0x20 PUSH1 0x4 DUP3 ADD MSTORE PUSH1 0x7 PUSH1 0x24 DUP3 ADD MSTORE PUSH7 0x14DBDB1913DD5D PUSH1 0xCA SHL PUSH1 0x44 DUP3 ADD MSTORE PUSH1 0x64 ADD PUSH2 0x6CC JUMP JUMPDEST PUSH0 PUSH1 0xA DUP3 PUSH1 0x5 ADD SLOAD PUSH1 0x2 PUSH2 0x1D18 SWAP2 SWAP1 PUSH2 0x3234 JUMP JUMPDEST PUSH2 0x1D22 SWAP2 SWAP1 PUSH2 0x324B JUMP JUMPDEST SWAP1 POP PUSH0 DUP2 DUP4 PUSH1 0x5 ADD SLOAD PUSH2 0x1D35 SWAP2 SWAP1 PUSH2 0x31FB JUMP JUMPDEST PUSH1 0x8 SLOAD PUSH1 0x40 MLOAD PUSH4 0x23B872DD PUSH1 0xE0 SHL DUP2 MSTORE CALLER PUSH1 0x4 DUP3 ADD MSTORE ADDRESS PUSH1 0x24 DUP3 ADD MSTORE PUSH1 0x44 DUP2 ADD DUP4 SWAP1 MSTORE SWAP2 SWAP3 POP PUSH1 0x1 PUSH1 0x1 PUSH1 0xA0 SHL SUB AND SWAP1 PUSH4 0x23B872DD SWAP1 PUSH1 0x64 ADD PUSH1 0x20 PUSH1 0x40 MLOAD DUP1 DUP4 SUB DUP2 PUSH0 DUP8 GAS CALL ISZERO DUP1 ISZERO PUSH2 0x1D8A JUMPI RETURNDATASIZE PUSH0 DUP1 RETURNDATACOPY RETURNDATASIZE PUSH0 REVERT JUMPDEST POP POP POP POP PUSH1 0x40 MLOAD RETURNDATASIZE PUSH1 0x1F NOT PUSH1 0x1F DUP3 ADD AND DUP3 ADD DUP1 PUSH1 0x40 MSTORE POP DUP2 ADD SWAP1 PUSH2 0x1DAE SWAP2 SWAP1 PUSH2 0x31BA JUMP JUMPDEST PUSH2 0x1DCA JUMPI PUSH1 0x40 MLOAD PUSH3 0x461BCD PUSH1 0xE5 SHL DUP2 MSTORE PUSH1 0x4 ADD PUSH2 0x6CC SWAP1 PUSH2 0x31D5 JUMP JUMPDEST PUSH1 0x6 DUP4 ADD SLOAD PUSH1 0x1 PUSH1 0x1 PUSH1 0xA0 SHL SUB AND PUSH0 SWAP1 DUP2 MSTORE PUSH1 0xC PUSH1 0x20 MSTORE PUSH1 0x40 SWAP1 KECCAK256 SLOAD DUP3 GT ISZERO PUSH2 0x1E21 JUMPI PUSH1 0x40 MLOAD PUSH3 0x461BCD PUSH1 0xE5 SHL DUP2 MSTORE PUSH1 0x20 PUSH1 0x4 DUP3 ADD MSTORE PUSH1 0x9 PUSH1 0x24 DUP3 ADD MSTORE PUSH9 0x139BD1195C1BDCDA5D PUSH1 0xBA SHL PUSH1 0x44 DUP3 ADD MSTORE PUSH1 0x64 ADD PUSH2 0x6CC JUMP JUMPDEST PUSH1 0x6 DUP4 ADD SLOAD PUSH1 0x1 PUSH1 0x1 PUSH1 0xA0 SHL SUB AND PUSH0 SWAP1 DUP2 MSTORE PUSH1 0xC PUSH1 0x20 MSTORE PUSH1 0x40 DUP2 KECCAK256 DUP1 SLOAD DUP5 SWAP3 SWAP1 PUSH2 0x1E4C SWAP1 DUP5 SWAP1 PUSH2 0x325E JUMP JUMPDEST SWAP1 SWAP2 SSTORE POP POP PUSH1 0x40 DUP1 MLOAD PUSH1 0x80 DUP2 ADD DUP3 MSTORE CALLER DUP2 MSTORE PUSH0 PUSH1 0x20 DUP1 DUP4 ADD DUP3 DUP2 MSTORE DUP4 DUP6 ADD DUP8 SWAP1 MSTORE TIMESTAMP PUSH1 0x60 DUP6 ADD MSTORE DUP9 DUP4 MSTORE PUSH1 0xB DUP3 MSTORE SWAP4 DUP3 KECCAK256 DUP1 SLOAD PUSH1 0x1 DUP2 ADD DUP3 SSTORE SWAP1 DUP4 MSTORE SWAP2 KECCAK256 DUP3 MLOAD PUSH1 0x3 SWAP3 DUP4 MUL SWAP1 SWAP2 ADD DUP1 SLOAD PUSH1 0x1 PUSH1 0x1 PUSH1 0xA0 SHL SUB NOT DUP2 AND PUSH1 0x1 PUSH1 0x1 PUSH1 0xA0 SHL SUB SWAP1 SWAP4 AND SWAP3 DUP4 OR DUP3 SSTORE SWAP5 MLOAD SWAP4 SWAP5 DUP6 SWAP5 SWAP2 SWAP4 SWAP2 SWAP3 DUP5 SWAP3 PUSH1 0x1 PUSH1 0x1 PUSH1 0xA8 SHL SUB NOT SWAP1 SWAP3 AND OR SWAP1 PUSH1 0x1 PUSH1 0xA0 SHL SWAP1 DUP5 SWAP1 DUP2 GT ISZERO PUSH2 0x1EE2 JUMPI PUSH2 0x1EE2 PUSH2 0x2D14 JUMP JUMPDEST MUL OR SWAP1 SSTORE POP PUSH1 0x40 DUP3 ADD MLOAD DUP2 PUSH1 0x1 ADD SSTORE PUSH1 0x60 DUP3 ADD MLOAD DUP2 PUSH1 0x2 ADD SSTORE POP POP PUSH0 PUSH1 0x1 PUSH1 0xB PUSH0 DUP9 DUP2 MSTORE PUSH1 0x20 ADD SWAP1 DUP2 MSTORE PUSH1 0x20 ADD PUSH0 KECCAK256 DUP1 SLOAD SWAP1 POP PUSH2 0x1F1F SWAP2 SWAP1 PUSH2 0x325E JUMP JUMPDEST SWAP1 POP PUSH1 0x1 DUP6 PUSH1 0x4 ADD PUSH0 DUP3 DUP3 SLOAD PUSH2 0x1F35 SWAP2 SWAP1 PUSH2 0x31FB JUMP JUMPDEST SWAP3 POP POP DUP2 SWAP1 SSTORE POP PUSH2 0x1F57 CALLER DUP8 PUSH1 0x1 PUSH1 0x40 MLOAD DUP1 PUSH1 0x20 ADD PUSH1 0x40 MSTORE DUP1 PUSH0 DUP2 MSTORE POP PUSH2 0x232B JUMP JUMPDEST PUSH1 0x40 DUP1 MLOAD DUP5 DUP2 MSTORE PUSH1 0x20 DUP2 ADD DUP7 SWAP1 MSTORE CALLER SWAP2 DUP4 SWAP2 DUP10 SWAP2 PUSH32 0x118B73186F00B652A3AAF789AA1AC1434F0800D84C3FE5B17A57AA550EB9725 SWAP2 ADD PUSH1 0x40 MLOAD DUP1 SWAP2 SUB SWAP1 LOG4 POP POP POP POP POP PUSH2 0xD31 PUSH1 0x1 PUSH1 0x4 SSTORE JUMP JUMPDEST PUSH1 0x1 PUSH1 0x1 PUSH1 0xA0 SHL SUB SWAP2 DUP3 AND PUSH0 SWAP1 DUP2 MSTORE PUSH1 0x1 PUSH1 0x20 SWAP1 DUP2 MSTORE PUSH1 0x40 DUP1 DUP4 KECCAK256 SWAP4 SWAP1 SWAP5 AND DUP3 MSTORE SWAP2 SWAP1 SWAP2 MSTORE KECCAK256 SLOAD PUSH1 0xFF AND SWAP1 JUMP JUMPDEST CALLER PUSH0 SWAP1 DUP2 MSTORE PUSH1 0x9 PUSH1 0x20 MSTORE PUSH1 0x40 SWAP1 KECCAK256 PUSH2 0x10F6 DUP3 DUP3 PUSH2 0x30EA JUMP JUMPDEST CALLER PUSH1 0x1 PUSH1 0x1 PUSH1 0xA0 SHL SUB DUP7 AND DUP2 EQ DUP1 ISZERO SWAP1 PUSH2 0x200B JUMPI POP PUSH2 0x2009 DUP7 DUP3 PUSH2 0x1FA5 JUMP JUMPDEST ISZERO JUMPDEST ISZERO PUSH2 0x203C JUMPI PUSH1 0x40 MLOAD PUSH4 0x711BEC91 PUSH1 0xE1 SHL DUP2 MSTORE PUSH1 0x1 PUSH1 0x1 PUSH1 0xA0 SHL SUB DUP1 DUP4 AND PUSH1 0x4 DUP4 ADD MSTORE DUP8 AND PUSH1 0x24 DUP3 ADD MSTORE PUSH1 0x44 ADD PUSH2 0x6CC JUMP JUMPDEST PUSH2 0x847 DUP7 DUP7 DUP7 DUP7 DUP7 PUSH2 0x2386 JUMP JUMPDEST PUSH0 PUSH1 0x1 PUSH1 0x1 PUSH1 0xE0 SHL SUB NOT DUP3 AND PUSH4 0x7965DB0B PUSH1 0xE0 SHL EQ DUP1 PUSH2 0x5CF JUMPI POP PUSH2 0x5CF DUP3 PUSH2 0x2412 JUMP JUMPDEST PUSH2 0xD31 DUP2 CALLER PUSH2 0x2436 JUMP JUMPDEST PUSH1 0x1 PUSH1 0x1 PUSH1 0xA0 SHL SUB DUP5 AND PUSH2 0x20A0 JUMPI PUSH1 0x40 MLOAD PUSH4 0x2BFA23E7 PUSH1 0xE1 SHL DUP2 MSTORE PUSH0 PUSH1 0x4 DUP3 ADD MSTORE PUSH1 0x24 ADD PUSH2 0x6CC JUMP JUMPDEST PUSH1 0x1 PUSH1 0x1 PUSH1 0xA0 SHL SUB DUP6 AND PUSH2 0x20C8 JUMPI PUSH1 0x40 MLOAD PUSH3 0x6A0D45 PUSH1 0xE2 SHL DUP2 MSTORE PUSH0 PUSH1 0x4 DUP3 ADD MSTORE PUSH1 0x24 ADD PUSH2 0x6CC JUMP JUMPDEST PUSH2 0x20D5 DUP6 DUP6 DUP6 DUP6 DUP6 PUSH2 0x2461 JUMP JUMPDEST POP POP POP POP POP JUMP JUMPDEST PUSH0 PUSH2 0x20E7 DUP4 DUP4 PUSH2 0x1242 JUMP JUMPDEST PUSH2 0x2166 JUMPI PUSH0 DUP4 DUP2 MSTORE PUSH1 0x3 PUSH1 0x20 SWAP1 DUP2 MSTORE PUSH1 0x40 DUP1 DUP4 KECCAK256 PUSH1 0x1 PUSH1 0x1 PUSH1 0xA0 SHL SUB DUP7 AND DUP5 MSTORE SWAP1 SWAP2 MSTORE SWAP1 KECCAK256 DUP1 SLOAD PUSH1 0xFF NOT AND PUSH1 0x1 OR SWAP1 SSTORE PUSH2 0x211E CALLER SWAP1 JUMP JUMPDEST PUSH1 0x1 PUSH1 0x1 PUSH1 0xA0 SHL SUB AND DUP3 PUSH1 0x1 PUSH1 0x1 PUSH1 0xA0 SHL SUB AND DUP5 PUSH32 0x2F8788117E7EFF1D82E926EC794901D17C78024A50270940304540A733656F0D PUSH1 0x40 MLOAD PUSH1 0x40 MLOAD DUP1 SWAP2 SUB SWAP1 LOG4 POP PUSH1 0x1 PUSH2 0x5CF JUMP JUMPDEST POP PUSH0 PUSH2 0x5CF JUMP JUMPDEST PUSH0 PUSH2 0x2178 DUP4 DUP4 PUSH2 0x1242 JUMP JUMPDEST ISZERO PUSH2 0x2166 JUMPI PUSH0 DUP4 DUP2 MSTORE PUSH1 0x3 PUSH1 0x20 SWAP1 DUP2 MSTORE PUSH1 0x40 DUP1 DUP4 KECCAK256 PUSH1 0x1 PUSH1 0x1 PUSH1 0xA0 SHL SUB DUP7 AND DUP1 DUP6 MSTORE SWAP3 MSTORE DUP1 DUP4 KECCAK256 DUP1 SLOAD PUSH1 0xFF NOT AND SWAP1 SSTORE MLOAD CALLER SWAP3 DUP7 SWAP2 PUSH32 0xF6391F5C32D9C69D2A47EA670B442974B53935D1EDC7FD64EB21E047A839171B SWAP2 SWAP1 LOG4 POP PUSH1 0x1 PUSH2 0x5CF JUMP JUMPDEST PUSH1 0x2 PUSH1 0x4 SLOAD SUB PUSH2 0x222A JUMPI PUSH1 0x40 MLOAD PUSH3 0x461BCD PUSH1 0xE5 SHL DUP2 MSTORE PUSH1 0x20 PUSH1 0x4 DUP3 ADD MSTORE PUSH1 0x1F PUSH1 0x24 DUP3 ADD MSTORE PUSH32 0x5265656E7472616E637947756172643A207265656E7472616E742063616C6C00 PUSH1 0x44 DUP3 ADD MSTORE PUSH1 0x64 ADD PUSH2 0x6CC JUMP JUMPDEST PUSH1 0x2 PUSH1 0x4 SSTORE JUMP JUMPDEST PUSH1 0x1 PUSH1 0x1 PUSH1 0xA0 SHL SUB DUP4 AND PUSH2 0x2259 JUMPI PUSH1 0x40 MLOAD PUSH3 0x6A0D45 PUSH1 0xE2 SHL DUP2 MSTORE PUSH0 PUSH1 0x4 DUP3 ADD MSTORE PUSH1 0x24 ADD PUSH2 0x6CC JUMP JUMPDEST PUSH1 0x40 DUP1 MLOAD PUSH1 0x1 DUP1 DUP3 MSTORE PUSH1 0x20 DUP3 ADD DUP6 SWAP1 MSTORE DUP2 DUP4 ADD SWAP1 DUP2 MSTORE PUSH1 0x60 DUP3 ADD DUP5 SWAP1 MSTORE PUSH1 0xA0 DUP3 ADD SWAP1 SWAP3 MSTORE PUSH0 PUSH1 0x80 DUP3 ADD DUP2 DUP2 MSTORE SWAP2 SWAP3 SWAP2 PUSH2 0x20D5 SWAP2 DUP8 SWAP2 DUP6 SWAP1 DUP6 SWAP1 PUSH2 0x2461 JUMP JUMPDEST PUSH1 0x1 PUSH1 0x1 PUSH1 0xA0 SHL SUB DUP3 AND PUSH2 0x22BF JUMPI PUSH1 0x40 MLOAD PUSH3 0xCED3E1 PUSH1 0xE8 SHL DUP2 MSTORE PUSH0 PUSH1 0x4 DUP3 ADD MSTORE PUSH1 0x24 ADD PUSH2 0x6CC JUMP JUMPDEST PUSH1 0x1 PUSH1 0x1 PUSH1 0xA0 SHL SUB DUP4 DUP2 AND PUSH0 DUP2 DUP2 MSTORE PUSH1 0x1 PUSH1 0x20 SWAP1 DUP2 MSTORE PUSH1 0x40 DUP1 DUP4 KECCAK256 SWAP5 DUP8 AND DUP1 DUP5 MSTORE SWAP5 DUP3 MSTORE SWAP2 DUP3 SWAP1 KECCAK256 DUP1 SLOAD PUSH1 0xFF NOT AND DUP7 ISZERO ISZERO SWAP1 DUP2 OR SWAP1 SWAP2 SSTORE SWAP2 MLOAD SWAP2 DUP3 MSTORE PUSH32 0x17307EAB39AB6107E8899845AD3D59BD9653F200F220920489CA2B5937696C31 SWAP2 ADD PUSH1 0x40 MLOAD DUP1 SWAP2 SUB SWAP1 LOG3 POP POP POP JUMP JUMPDEST PUSH1 0x1 PUSH1 0x1 PUSH1 0xA0 SHL SUB DUP5 AND PUSH2 0x2354 JUMPI PUSH1 0x40 MLOAD PUSH4 0x2BFA23E7 PUSH1 0xE1 SHL DUP2 MSTORE PUSH0 PUSH1 0x4 DUP3 ADD MSTORE PUSH1 0x24 ADD PUSH2 0x6CC JUMP JUMPDEST PUSH1 0x40 DUP1 MLOAD PUSH1 0x1 DUP1 DUP3 MSTORE PUSH1 0x20 DUP3 ADD DUP7 SWAP1 MSTORE DUP2 DUP4 ADD SWAP1 DUP2 MSTORE PUSH1 0x60 DUP3 ADD DUP6 SWAP1 MSTORE PUSH1 0x80 DUP3 ADD SWAP1 SWAP3 MSTORE SWAP1 PUSH2 0x847 PUSH0 DUP8 DUP5 DUP5 DUP8 PUSH2 0x2461 JUMP JUMPDEST PUSH1 0x1 PUSH1 0x1 PUSH1 0xA0 SHL SUB DUP5 AND PUSH2 0x23AF JUMPI PUSH1 0x40 MLOAD PUSH4 0x2BFA23E7 PUSH1 0xE1 SHL DUP2 MSTORE PUSH0 PUSH1 0x4 DUP3 ADD MSTORE PUSH1 0x24 ADD PUSH2 0x6CC JUMP JUMPDEST PUSH1 0x1 PUSH1 0x1 PUSH1 0xA0 SHL SUB DUP6 AND PUSH2 0x23D7 JUMPI PUSH1 0x40 MLOAD PUSH3 0x6A0D45 PUSH1 0xE2 SHL DUP2 MSTORE PUSH0 PUSH1 0x4 DUP3 ADD MSTORE PUSH1 0x24 ADD PUSH2 0x6CC JUMP JUMPDEST PUSH1 0x40 DUP1 MLOAD PUSH1 0x1 DUP1 DUP3 MSTORE PUSH1 0x20 DUP3 ADD DUP7 SWAP1 MSTORE DUP2 DUP4 ADD SWAP1 DUP2 MSTORE PUSH1 0x60 DUP3 ADD DUP6 SWAP1 MSTORE PUSH1 0x80 DUP3 ADD SWAP1 SWAP3 MSTORE SWAP1 PUSH2 0x2409 DUP8 DUP8 DUP5 DUP5 DUP8 PUSH2 0x2461 JUMP JUMPDEST POP POP POP POP POP POP POP JUMP JUMPDEST PUSH0 PUSH1 0x1 PUSH1 0x1 PUSH1 0xE0 SHL SUB NOT DUP3 AND PUSH4 0x2711897 PUSH1 0xE5 SHL EQ DUP1 PUSH2 0x5CF JUMPI POP PUSH2 0x5CF DUP3 PUSH2 0x24B4 JUMP JUMPDEST PUSH2 0x2440 DUP3 DUP3 PUSH2 0x1242 JUMP JUMPDEST PUSH2 0x10F6 JUMPI DUP1 DUP3 PUSH1 0x40 MLOAD PUSH4 0xE2517D3F PUSH1 0xE0 SHL DUP2 MSTORE PUSH1 0x4 ADD PUSH2 0x6CC SWAP3 SWAP2 SWAP1 PUSH2 0x3271 JUMP JUMPDEST PUSH2 0x246D DUP6 DUP6 DUP6 DUP6 PUSH2 0x2503 JUMP JUMPDEST PUSH1 0x1 PUSH1 0x1 PUSH1 0xA0 SHL SUB DUP5 AND ISZERO PUSH2 0x20D5 JUMPI DUP3 MLOAD CALLER SWAP1 PUSH1 0x1 SUB PUSH2 0x24A6 JUMPI PUSH1 0x20 DUP5 DUP2 ADD MLOAD SWAP1 DUP5 ADD MLOAD PUSH2 0x249F DUP4 DUP10 DUP10 DUP6 DUP6 DUP10 PUSH2 0x271B JUMP JUMPDEST POP POP PUSH2 0x847 JUMP JUMPDEST PUSH2 0x847 DUP2 DUP8 DUP8 DUP8 DUP8 DUP8 PUSH2 0x283C JUMP JUMPDEST PUSH0 PUSH1 0x1 PUSH1 0x1 PUSH1 0xE0 SHL SUB NOT DUP3 AND PUSH4 0x6CDB3D13 PUSH1 0xE1 SHL EQ DUP1 PUSH2 0x24E4 JUMPI POP PUSH1 0x1 PUSH1 0x1 PUSH1 0xE0 SHL SUB NOT DUP3 AND PUSH4 0x3A24D07 PUSH1 0xE2 SHL EQ JUMPDEST DUP1 PUSH2 0x5CF JUMPI POP PUSH4 0x1FFC9A7 PUSH1 0xE0 SHL PUSH1 0x1 PUSH1 0x1 PUSH1 0xE0 SHL SUB NOT DUP4 AND EQ PUSH2 0x5CF JUMP JUMPDEST DUP1 MLOAD DUP3 MLOAD EQ PUSH2 0x2532 JUMPI DUP2 MLOAD DUP2 MLOAD PUSH1 0x40 MLOAD PUSH4 0x5B059991 PUSH1 0xE0 SHL DUP2 MSTORE PUSH1 0x4 DUP2 ADD SWAP3 SWAP1 SWAP3 MSTORE PUSH1 0x24 DUP3 ADD MSTORE PUSH1 0x44 ADD PUSH2 0x6CC JUMP JUMPDEST CALLER PUSH0 JUMPDEST DUP4 MLOAD DUP2 LT ISZERO PUSH2 0x263D JUMPI PUSH1 0x20 DUP2 DUP2 MUL DUP6 DUP2 ADD DUP3 ADD MLOAD SWAP1 DUP6 ADD SWAP1 SWAP2 ADD MLOAD PUSH1 0x1 PUSH1 0x1 PUSH1 0xA0 SHL SUB DUP9 AND ISZERO PUSH2 0x25E6 JUMPI PUSH0 DUP3 DUP2 MSTORE PUSH1 0x20 DUP2 DUP2 MSTORE PUSH1 0x40 DUP1 DUP4 KECCAK256 PUSH1 0x1 PUSH1 0x1 PUSH1 0xA0 SHL SUB DUP13 AND DUP5 MSTORE SWAP1 SWAP2 MSTORE SWAP1 KECCAK256 SLOAD DUP2 DUP2 LT ISZERO PUSH2 0x25C0 JUMPI PUSH1 0x40 MLOAD PUSH4 0x3DEE4C5 PUSH1 0xE0 SHL DUP2 MSTORE PUSH1 0x1 PUSH1 0x1 PUSH1 0xA0 SHL SUB DUP11 AND PUSH1 0x4 DUP3 ADD MSTORE PUSH1 0x24 DUP2 ADD DUP3 SWAP1 MSTORE PUSH1 0x44 DUP2 ADD DUP4 SWAP1 MSTORE PUSH1 0x64 DUP2 ADD DUP5 SWAP1 MSTORE PUSH1 0x84 ADD PUSH2 0x6CC JUMP JUMPDEST PUSH0 DUP4 DUP2 MSTORE PUSH1 0x20 DUP2 DUP2 MSTORE PUSH1 0x40 DUP1 DUP4 KECCAK256 PUSH1 0x1 PUSH1 0x1 PUSH1 0xA0 SHL SUB DUP14 AND DUP5 MSTORE SWAP1 SWAP2 MSTORE SWAP1 KECCAK256 SWAP1 DUP3 SWAP1 SUB SWAP1 SSTORE JUMPDEST PUSH1 0x1 PUSH1 0x1 PUSH1 0xA0 SHL SUB DUP8 AND ISZERO PUSH2 0x262A JUMPI PUSH0 DUP3 DUP2 MSTORE PUSH1 0x20 DUP2 DUP2 MSTORE PUSH1 0x40 DUP1 DUP4 KECCAK256 PUSH1 0x1 PUSH1 0x1 PUSH1 0xA0 SHL SUB DUP12 AND DUP5 MSTORE SWAP1 SWAP2 MSTORE DUP2 KECCAK256 DUP1 SLOAD DUP4 SWAP3 SWAP1 PUSH2 0x2624 SWAP1 DUP5 SWAP1 PUSH2 0x31FB JUMP JUMPDEST SWAP1 SWAP2 SSTORE POP POP JUMPDEST POP POP DUP1 PUSH2 0x2636 SWAP1 PUSH2 0x308D JUMP JUMPDEST SWAP1 POP PUSH2 0x2535 JUMP JUMPDEST POP DUP3 MLOAD PUSH1 0x1 SUB PUSH2 0x26BD JUMPI PUSH1 0x20 DUP4 ADD MLOAD PUSH0 SWAP1 PUSH1 0x20 DUP5 ADD MLOAD SWAP1 SWAP2 POP DUP6 PUSH1 0x1 PUSH1 0x1 PUSH1 0xA0 SHL SUB AND DUP8 PUSH1 0x1 PUSH1 0x1 PUSH1 0xA0 SHL SUB AND DUP5 PUSH1 0x1 PUSH1 0x1 PUSH1 0xA0 SHL SUB AND PUSH32 0xC3D58168C5AE7397731D063D5BBF3D657854427343F4C083240F7AACAA2D0F62 DUP6 DUP6 PUSH1 0x40 MLOAD PUSH2 0x26AE SWAP3 SWAP2 SWAP1 SWAP2 DUP3 MSTORE PUSH1 0x20 DUP3 ADD MSTORE PUSH1 0x40 ADD SWAP1 JUMP JUMPDEST PUSH1 0x40 MLOAD DUP1 SWAP2 SUB SWAP1 LOG4 POP POP PUSH2 0x20D5 JUMP JUMPDEST DUP4 PUSH1 0x1 PUSH1 0x1 PUSH1 0xA0 SHL SUB AND DUP6 PUSH1 0x1 PUSH1 0x1 PUSH1 0xA0 SHL SUB AND DUP3 PUSH1 0x1 PUSH1 0x1 PUSH1 0xA0 SHL SUB AND PUSH32 0x4A39DC06D4C0DBC64B70AF90FD698A233A518AA5D07E595D983B8C0526C8F7FB DUP7 DUP7 PUSH1 0x40 MLOAD PUSH2 0x270C SWAP3 SWAP2 SWAP1 PUSH2 0x3397 JUMP JUMPDEST PUSH1 0x40 MLOAD DUP1 SWAP2 SUB SWAP1 LOG4 POP POP POP POP POP JUMP JUMPDEST PUSH1 0x1 PUSH1 0x1 PUSH1 0xA0 SHL SUB DUP5 AND EXTCODESIZE ISZERO PUSH2 0x847 JUMPI PUSH1 0x40 MLOAD PUSH4 0xF23A6E61 PUSH1 0xE0 SHL DUP2 MSTORE PUSH1 0x1 PUSH1 0x1 PUSH1 0xA0 SHL SUB DUP6 AND SWAP1 PUSH4 0xF23A6E61 SWAP1 PUSH2 0x275F SWAP1 DUP10 SWAP1 DUP10 SWAP1 DUP9 SWAP1 DUP9 SWAP1 DUP9 SWAP1 PUSH1 0x4 ADD PUSH2 0x33C4 JUMP JUMPDEST PUSH1 0x20 PUSH1 0x40 MLOAD DUP1 DUP4 SUB DUP2 PUSH0 DUP8 GAS CALL SWAP3 POP POP POP DUP1 ISZERO PUSH2 0x2799 JUMPI POP PUSH1 0x40 DUP1 MLOAD PUSH1 0x1F RETURNDATASIZE SWAP1 DUP2 ADD PUSH1 0x1F NOT AND DUP3 ADD SWAP1 SWAP3 MSTORE PUSH2 0x2796 SWAP2 DUP2 ADD SWAP1 PUSH2 0x3408 JUMP JUMPDEST PUSH1 0x1 JUMPDEST PUSH2 0x2800 JUMPI RETURNDATASIZE DUP1 DUP1 ISZERO PUSH2 0x27C6 JUMPI PUSH1 0x40 MLOAD SWAP2 POP PUSH1 0x1F NOT PUSH1 0x3F RETURNDATASIZE ADD AND DUP3 ADD PUSH1 0x40 MSTORE RETURNDATASIZE DUP3 MSTORE RETURNDATASIZE PUSH0 PUSH1 0x20 DUP5 ADD RETURNDATACOPY PUSH2 0x27CB JUMP JUMPDEST PUSH1 0x60 SWAP2 POP JUMPDEST POP DUP1 MLOAD PUSH0 SUB PUSH2 0x27F8 JUMPI PUSH1 0x40 MLOAD PUSH4 0x2BFA23E7 PUSH1 0xE1 SHL DUP2 MSTORE PUSH1 0x1 PUSH1 0x1 PUSH1 0xA0 SHL SUB DUP7 AND PUSH1 0x4 DUP3 ADD MSTORE PUSH1 0x24 ADD PUSH2 0x6CC JUMP JUMPDEST DUP1 MLOAD DUP2 PUSH1 0x20 ADD REVERT JUMPDEST PUSH1 0x1 PUSH1 0x1 PUSH1 0xE0 SHL SUB NOT DUP2 AND PUSH4 0xF23A6E61 PUSH1 0xE0 SHL EQ PUSH2 0x2409 JUMPI PUSH1 0x40 MLOAD PUSH4 0x2BFA23E7 PUSH1 0xE1 SHL DUP2 MSTORE PUSH1 0x1 PUSH1 0x1 PUSH1 0xA0 SHL SUB DUP7 AND PUSH1 0x4 DUP3 ADD MSTORE PUSH1 0x24 ADD PUSH2 0x6CC JUMP JUMPDEST PUSH1 0x1 PUSH1 0x1 PUSH1 0xA0 SHL SUB DUP5 AND EXTCODESIZE ISZERO PUSH2 0x847 JUMPI PUSH1 0x40 MLOAD PUSH4 0xBC197C81 PUSH1 0xE0 SHL DUP2 MSTORE PUSH1 0x1 PUSH1 0x1 PUSH1 0xA0 SHL SUB DUP6 AND SWAP1 PUSH4 0xBC197C81 SWAP1 PUSH2 0x2880 SWAP1 DUP10 SWAP1 DUP10 SWAP1 DUP9 SWAP1 DUP9 SWAP1 DUP9 SWAP1 PUSH1 0x4 ADD PUSH2 0x3423 JUMP JUMPDEST PUSH1 0x20 PUSH1 0x40 MLOAD DUP1 DUP4 SUB DUP2 PUSH0 DUP8 GAS CALL SWAP3 POP POP POP DUP1 ISZERO PUSH2 0x28BA JUMPI POP PUSH1 0x40 DUP1 MLOAD PUSH1 0x1F RETURNDATASIZE SWAP1 DUP2 ADD PUSH1 0x1F NOT AND DUP3 ADD SWAP1 SWAP3 MSTORE PUSH2 0x28B7 SWAP2 DUP2 ADD SWAP1 PUSH2 0x3408 JUMP JUMPDEST PUSH1 0x1 JUMPDEST PUSH2 0x28E7 JUMPI RETURNDATASIZE DUP1 DUP1 ISZERO PUSH2 0x27C6 JUMPI PUSH1 0x40 MLOAD SWAP2 POP PUSH1 0x1F NOT PUSH1 0x3F RETURNDATASIZE ADD AND DUP3 ADD PUSH1 0x40 MSTORE RETURNDATASIZE DUP3 MSTORE RETURNDATASIZE PUSH0 PUSH1 0x20 DUP5 ADD RETURNDATACOPY PUSH2 0x27CB JUMP JUMPDEST PUSH1 0x1 PUSH1 0x1 PUSH1 0xE0 SHL SUB NOT DUP2 AND PUSH4 0xBC197C81 PUSH1 0xE0 SHL EQ PUSH2 0x2409 JUMPI PUSH1 0x40 MLOAD PUSH4 0x2BFA23E7 PUSH1 0xE1 SHL DUP2 MSTORE PUSH1 0x1 PUSH1 0x1 PUSH1 0xA0 SHL SUB DUP7 AND PUSH1 0x4 DUP3 ADD MSTORE PUSH1 0x24 ADD PUSH2 0x6CC JUMP JUMPDEST DUP1 CALLDATALOAD PUSH1 0x1 PUSH1 0x1 PUSH1 0xA0 SHL SUB DUP2 AND DUP2 EQ PUSH2 0x2939 JUMPI PUSH0 DUP1 REVERT JUMPDEST SWAP2 SWAP1 POP JUMP JUMPDEST PUSH0 DUP1 PUSH1 0x40 DUP4 DUP6 SUB SLT ISZERO PUSH2 0x294F JUMPI PUSH0 DUP1 REVERT JUMPDEST PUSH2 0x2958 DUP4 PUSH2 0x2923 JUMP JUMPDEST SWAP5 PUSH1 0x20 SWAP4 SWAP1 SWAP4 ADD CALLDATALOAD SWAP4 POP POP POP JUMP JUMPDEST PUSH1 0x1 PUSH1 0x1 PUSH1 0xE0 SHL SUB NOT DUP2 AND DUP2 EQ PUSH2 0xD31 JUMPI PUSH0 DUP1 REVERT JUMPDEST PUSH0 PUSH1 0x20 DUP3 DUP5 SUB SLT ISZERO PUSH2 0x298B JUMPI PUSH0 DUP1 REVERT JUMPDEST DUP2 CALLDATALOAD PUSH2 0x2996 DUP2 PUSH2 0x2966 JUMP JUMPDEST SWAP4 SWAP3 POP POP POP JUMP JUMPDEST PUSH0 PUSH1 0x20 DUP3 DUP5 SUB SLT ISZERO PUSH2 0x29AD JUMPI PUSH0 DUP1 REVERT JUMPDEST POP CALLDATALOAD SWAP2 SWAP1 POP JUMP JUMPDEST PUSH0 DUP2 MLOAD DUP1 DUP5 MSTORE PUSH0 JUMPDEST DUP2 DUP2 LT ISZERO PUSH2 0x29D8 JUMPI PUSH1 0x20 DUP2 DUP6 ADD DUP2 ADD MLOAD DUP7 DUP4 ADD DUP3 ADD MSTORE ADD PUSH2 0x29BC JUMP JUMPDEST POP PUSH0 PUSH1 0x20 DUP3 DUP7 ADD ADD MSTORE PUSH1 0x20 PUSH1 0x1F NOT PUSH1 0x1F DUP4 ADD AND DUP6 ADD ADD SWAP2 POP POP SWAP3 SWAP2 POP POP JUMP JUMPDEST PUSH1 0x20 DUP2 MSTORE PUSH0 PUSH2 0x2996 PUSH1 0x20 DUP4 ADD DUP5 PUSH2 0x29B4 JUMP JUMPDEST PUSH4 0x4E487B71 PUSH1 0xE0 SHL PUSH0 MSTORE PUSH1 0x41 PUSH1 0x4 MSTORE PUSH1 0x24 PUSH0 REVERT JUMPDEST PUSH1 0x40 MLOAD PUSH1 0x1F DUP3 ADD PUSH1 0x1F NOT AND DUP2 ADD PUSH8 0xFFFFFFFFFFFFFFFF DUP2 GT DUP3 DUP3 LT OR ISZERO PUSH2 0x2A46 JUMPI PUSH2 0x2A46 PUSH2 0x2A09 JUMP JUMPDEST PUSH1 0x40 MSTORE SWAP2 SWAP1 POP JUMP JUMPDEST PUSH0 DUP3 PUSH1 0x1F DUP4 ADD SLT PUSH2 0x2A5D JUMPI PUSH0 DUP1 REVERT JUMPDEST DUP2 CALLDATALOAD PUSH8 0xFFFFFFFFFFFFFFFF DUP2 GT ISZERO PUSH2 0x2A77 JUMPI PUSH2 0x2A77 PUSH2 0x2A09 JUMP JUMPDEST PUSH2 0x2A8A PUSH1 0x1F DUP3 ADD PUSH1 0x1F NOT AND PUSH1 0x20 ADD PUSH2 0x2A1D JUMP JUMPDEST DUP2 DUP2 MSTORE DUP5 PUSH1 0x20 DUP4 DUP7 ADD ADD GT ISZERO PUSH2 0x2A9E JUMPI PUSH0 DUP1 REVERT JUMPDEST DUP2 PUSH1 0x20 DUP6 ADD PUSH1 0x20 DUP4 ADD CALLDATACOPY PUSH0 SWAP2 DUP2 ADD PUSH1 0x20 ADD SWAP2 SWAP1 SWAP2 MSTORE SWAP4 SWAP3 POP POP POP JUMP JUMPDEST PUSH0 DUP1 PUSH0 DUP1 PUSH1 0x80 DUP6 DUP8 SUB SLT ISZERO PUSH2 0x2ACD JUMPI PUSH0 DUP1 REVERT JUMPDEST DUP5 CALLDATALOAD PUSH8 0xFFFFFFFFFFFFFFFF DUP1 DUP3 GT ISZERO PUSH2 0x2AE4 JUMPI PUSH0 DUP1 REVERT JUMPDEST PUSH2 0x2AF0 DUP9 DUP4 DUP10 ADD PUSH2 0x2A4E JUMP JUMPDEST SWAP6 POP PUSH1 0x20 DUP8 ADD CALLDATALOAD SWAP2 POP DUP1 DUP3 GT ISZERO PUSH2 0x2B05 JUMPI PUSH0 DUP1 REVERT JUMPDEST POP PUSH2 0x2B12 DUP8 DUP3 DUP9 ADD PUSH2 0x2A4E JUMP JUMPDEST SWAP5 SWAP8 SWAP5 SWAP7 POP POP POP POP PUSH1 0x40 DUP4 ADD CALLDATALOAD SWAP3 PUSH1 0x60 ADD CALLDATALOAD SWAP2 SWAP1 POP JUMP JUMPDEST PUSH0 PUSH8 0xFFFFFFFFFFFFFFFF DUP3 GT ISZERO PUSH2 0x2B42 JUMPI PUSH2 0x2B42 PUSH2 0x2A09 JUMP JUMPDEST POP PUSH1 0x5 SHL PUSH1 0x20 ADD SWAP1 JUMP JUMPDEST PUSH0 DUP3 PUSH1 0x1F DUP4 ADD SLT PUSH2 0x2B5B JUMPI PUSH0 DUP1 REVERT JUMPDEST DUP2 CALLDATALOAD PUSH1 0x20 PUSH2 0x2B70 PUSH2 0x2B6B DUP4 PUSH2 0x2B29 JUMP JUMPDEST PUSH2 0x2A1D JUMP JUMPDEST DUP3 DUP2 MSTORE PUSH1 0x5 SWAP3 SWAP1 SWAP3 SHL DUP5 ADD DUP2 ADD SWAP2 DUP2 DUP2 ADD SWAP1 DUP7 DUP5 GT ISZERO PUSH2 0x2B8E JUMPI PUSH0 DUP1 REVERT JUMPDEST DUP3 DUP7 ADD JUMPDEST DUP5 DUP2 LT ISZERO PUSH2 0x2BA9 JUMPI DUP1 CALLDATALOAD DUP4 MSTORE SWAP2 DUP4 ADD SWAP2 DUP4 ADD PUSH2 0x2B92 JUMP JUMPDEST POP SWAP7 SWAP6 POP POP POP POP POP POP JUMP JUMPDEST PUSH0 DUP1 PUSH0 DUP1 PUSH0 PUSH1 0xA0 DUP7 DUP9 SUB SLT ISZERO PUSH2 0x2BC8 JUMPI PUSH0 DUP1 REVERT JUMPDEST PUSH2 0x2BD1 DUP7 PUSH2 0x2923 JUMP JUMPDEST SWAP5 POP PUSH2 0x2BDF PUSH1 0x20 DUP8 ADD PUSH2 0x2923 JUMP JUMPDEST SWAP4 POP PUSH1 0x40 DUP7 ADD CALLDATALOAD PUSH8 0xFFFFFFFFFFFFFFFF DUP1 DUP3 GT ISZERO PUSH2 0x2BFB JUMPI PUSH0 DUP1 REVERT JUMPDEST PUSH2 0x2C07 DUP10 DUP4 DUP11 ADD PUSH2 0x2B4C JUMP JUMPDEST SWAP5 POP PUSH1 0x60 DUP9 ADD CALLDATALOAD SWAP2 POP DUP1 DUP3 GT ISZERO PUSH2 0x2C1C JUMPI PUSH0 DUP1 REVERT JUMPDEST PUSH2 0x2C28 DUP10 DUP4 DUP11 ADD PUSH2 0x2B4C JUMP JUMPDEST SWAP4 POP PUSH1 0x80 DUP9 ADD CALLDATALOAD SWAP2 POP DUP1 DUP3 GT ISZERO PUSH2 0x2C3D JUMPI PUSH0 DUP1 REVERT JUMPDEST POP PUSH2 0x2C4A DUP9 DUP3 DUP10 ADD PUSH2 0x2A4E JUMP JUMPDEST SWAP2 POP POP SWAP3 SWAP6 POP SWAP3 SWAP6 SWAP1 SWAP4 POP JUMP JUMPDEST PUSH0 DUP1 PUSH1 0x40 DUP4 DUP6 SUB SLT ISZERO PUSH2 0x2C68 JUMPI PUSH0 DUP1 REVERT JUMPDEST DUP3 CALLDATALOAD SWAP2 POP PUSH2 0x2C78 PUSH1 0x20 DUP5 ADD PUSH2 0x2923 JUMP JUMPDEST SWAP1 POP SWAP3 POP SWAP3 SWAP1 POP JUMP JUMPDEST PUSH0 PUSH1 0x20 DUP3 DUP5 SUB SLT ISZERO PUSH2 0x2C91 JUMPI PUSH0 DUP1 REVERT JUMPDEST PUSH2 0x2996 DUP3 PUSH2 0x2923 JUMP JUMPDEST DUP8 DUP2 MSTORE PUSH1 0xE0 PUSH1 0x20 DUP3 ADD MSTORE PUSH0 PUSH2 0x2CB2 PUSH1 0xE0 DUP4 ADD DUP10 PUSH2 0x29B4 JUMP JUMPDEST DUP3 DUP2 SUB PUSH1 0x40 DUP5 ADD MSTORE PUSH2 0x2CC4 DUP2 DUP10 PUSH2 0x29B4 JUMP JUMPDEST PUSH1 0x60 DUP5 ADD SWAP8 SWAP1 SWAP8 MSTORE POP POP PUSH1 0x80 DUP2 ADD SWAP4 SWAP1 SWAP4 MSTORE PUSH1 0xA0 DUP4 ADD SWAP2 SWAP1 SWAP2 MSTORE PUSH1 0x1 PUSH1 0x1 PUSH1 0xA0 SHL SUB AND PUSH1 0xC0 SWAP1 SWAP2 ADD MSTORE SWAP4 SWAP3 POP POP POP JUMP JUMPDEST PUSH0 DUP1 PUSH1 0x40 DUP4 DUP6 SUB SLT ISZERO PUSH2 0x2D05 JUMPI PUSH0 DUP1 REVERT JUMPDEST POP POP DUP1 CALLDATALOAD SWAP3 PUSH1 0x20 SWAP1 SWAP2 ADD CALLDATALOAD SWAP2 POP JUMP JUMPDEST PUSH4 0x4E487B71 PUSH1 0xE0 SHL PUSH0 MSTORE PUSH1 0x21 PUSH1 0x4 MSTORE PUSH1 0x24 PUSH0 REVERT JUMPDEST PUSH1 0x1 PUSH1 0x1 PUSH1 0xA0 SHL SUB DUP6 AND DUP2 MSTORE PUSH1 0x80 DUP2 ADD PUSH1 0x4 DUP6 LT PUSH2 0x2D54 JUMPI PUSH4 0x4E487B71 PUSH1 0xE0 SHL PUSH0 MSTORE PUSH1 0x21 PUSH1 0x4 MSTORE PUSH1 0x24 PUSH0 REVERT JUMPDEST DUP5 PUSH1 0x20 DUP4 ADD MSTORE DUP4 PUSH1 0x40 DUP4 ADD MSTORE DUP3 PUSH1 0x60 DUP4 ADD MSTORE SWAP6 SWAP5 POP POP POP POP POP JUMP JUMPDEST PUSH0 DUP1 PUSH1 0x40 DUP4 DUP6 SUB SLT ISZERO PUSH2 0x2D80 JUMPI PUSH0 DUP1 REVERT JUMPDEST DUP3 CALLDATALOAD PUSH8 0xFFFFFFFFFFFFFFFF DUP1 DUP3 GT ISZERO PUSH2 0x2D97 JUMPI PUSH0 DUP1 REVERT JUMPDEST DUP2 DUP6 ADD SWAP2 POP DUP6 PUSH1 0x1F DUP4 ADD SLT PUSH2 0x2DAA JUMPI PUSH0 DUP1 REVERT JUMPDEST DUP2 CALLDATALOAD PUSH1 0x20 PUSH2 0x2DBA PUSH2 0x2B6B DUP4 PUSH2 0x2B29 JUMP JUMPDEST DUP3 DUP2 MSTORE PUSH1 0x5 SWAP3 SWAP1 SWAP3 SHL DUP5 ADD DUP2 ADD SWAP2 DUP2 DUP2 ADD SWAP1 DUP10 DUP5 GT ISZERO PUSH2 0x2DD8 JUMPI PUSH0 DUP1 REVERT JUMPDEST SWAP5 DUP3 ADD SWAP5 JUMPDEST DUP4 DUP7 LT ISZERO PUSH2 0x2DFD JUMPI PUSH2 0x2DEE DUP7 PUSH2 0x2923 JUMP JUMPDEST DUP3 MSTORE SWAP5 DUP3 ADD SWAP5 SWAP1 DUP3 ADD SWAP1 PUSH2 0x2DDD JUMP JUMPDEST SWAP7 POP POP DUP7 ADD CALLDATALOAD SWAP3 POP POP DUP1 DUP3 GT ISZERO PUSH2 0x2E12 JUMPI PUSH0 DUP1 REVERT JUMPDEST POP PUSH2 0x2E1F DUP6 DUP3 DUP7 ADD PUSH2 0x2B4C JUMP JUMPDEST SWAP2 POP POP SWAP3 POP SWAP3 SWAP1 POP JUMP JUMPDEST PUSH0 DUP2 MLOAD DUP1 DUP5 MSTORE PUSH1 0x20 DUP1 DUP6 ADD SWAP5 POP DUP1 DUP5 ADD PUSH0 JUMPDEST DUP4 DUP2 LT ISZERO PUSH2 0x2E57 JUMPI DUP2 MLOAD DUP8 MSTORE SWAP6 DUP3 ADD SWAP6 SWAP1 DUP3 ADD SWAP1 PUSH1 0x1 ADD PUSH2 0x2E3B JUMP JUMPDEST POP SWAP5 SWAP6 SWAP5 POP POP POP POP POP JUMP JUMPDEST PUSH1 0x20 DUP2 MSTORE PUSH0 PUSH2 0x2996 PUSH1 0x20 DUP4 ADD DUP5 PUSH2 0x2E29 JUMP JUMPDEST DUP1 ISZERO ISZERO DUP2 EQ PUSH2 0xD31 JUMPI PUSH0 DUP1 REVERT JUMPDEST PUSH0 DUP1 PUSH0 PUSH1 0x60 DUP5 DUP7 SUB SLT ISZERO PUSH2 0x2E93 JUMPI PUSH0 DUP1 REVERT JUMPDEST DUP4 CALLDATALOAD SWAP3 POP PUSH1 0x20 DUP5 ADD CALLDATALOAD SWAP2 POP PUSH1 0x40 DUP5 ADD CALLDATALOAD PUSH2 0x2EAC DUP2 PUSH2 0x2E74 JUMP JUMPDEST DUP1 SWAP2 POP POP SWAP3 POP SWAP3 POP SWAP3 JUMP JUMPDEST PUSH0 DUP1 PUSH1 0x40 DUP4 DUP6 SUB SLT ISZERO PUSH2 0x2EC8 JUMPI PUSH0 DUP1 REVERT JUMPDEST PUSH2 0x2ED1 DUP4 PUSH2 0x2923 JUMP JUMPDEST SWAP2 POP PUSH1 0x20 DUP4 ADD CALLDATALOAD PUSH2 0x2EE1 DUP2 PUSH2 0x2E74 JUMP JUMPDEST DUP1 SWAP2 POP POP SWAP3 POP SWAP3 SWAP1 POP JUMP JUMPDEST PUSH0 DUP1 PUSH1 0x20 DUP4 DUP6 SUB SLT ISZERO PUSH2 0x2EFD JUMPI PUSH0 DUP1 REVERT JUMPDEST DUP3 CALLDATALOAD PUSH8 0xFFFFFFFFFFFFFFFF DUP1 DUP3 GT ISZERO PUSH2 0x2F14 JUMPI PUSH0 DUP1 REVERT JUMPDEST DUP2 DUP6 ADD SWAP2 POP DUP6 PUSH1 0x1F DUP4 ADD SLT PUSH2 0x2F27 JUMPI PUSH0 DUP1 REVERT JUMPDEST DUP2 CALLDATALOAD DUP2 DUP2 GT ISZERO PUSH2 0x2F35 JUMPI PUSH0 DUP1 REVERT JUMPDEST DUP7 PUSH1 0x20 DUP3 DUP6 ADD ADD GT ISZERO PUSH2 0x2F46 JUMPI PUSH0 DUP1 REVERT JUMPDEST PUSH1 0x20 SWAP3 SWAP1 SWAP3 ADD SWAP7 SWAP2 SWAP6 POP SWAP1 SWAP4 POP POP POP POP JUMP JUMPDEST PUSH0 DUP1 PUSH1 0x40 DUP4 DUP6 SUB SLT ISZERO PUSH2 0x2F69 JUMPI PUSH0 DUP1 REVERT JUMPDEST PUSH2 0x2F72 DUP4 PUSH2 0x2923 JUMP JUMPDEST SWAP2 POP PUSH2 0x2C78 PUSH1 0x20 DUP5 ADD PUSH2 0x2923 JUMP JUMPDEST PUSH0 PUSH1 0x20 DUP3 DUP5 SUB SLT ISZERO PUSH2 0x2F90 JUMPI PUSH0 DUP1 REVERT JUMPDEST DUP2 CALLDATALOAD PUSH8 0xFFFFFFFFFFFFFFFF DUP2 GT ISZERO PUSH2 0x2FA6 JUMPI PUSH0 DUP1 REVERT JUMPDEST PUSH2 0x2FB2 DUP5 DUP3 DUP6 ADD PUSH2 0x2A4E JUMP JUMPDEST SWAP5 SWAP4 POP POP POP POP JUMP JUMPDEST PUSH0 DUP1 PUSH0 DUP1 PUSH0 PUSH1 0xA0 DUP7 DUP9 SUB SLT ISZERO PUSH2 0x2FCE JUMPI PUSH0 DUP1 REVERT JUMPDEST PUSH2 0x2FD7 DUP7 PUSH2 0x2923 JUMP JUMPDEST SWAP5 POP PUSH2 0x2FE5 PUSH1 0x20 DUP8 ADD PUSH2 0x2923 JUMP JUMPDEST SWAP4 POP PUSH1 0x40 DUP7 ADD CALLDATALOAD SWAP3 POP PUSH1 0x60 DUP7 ADD CALLDATALOAD SWAP2 POP PUSH1 0x80 DUP7 ADD CALLDATALOAD PUSH8 0xFFFFFFFFFFFFFFFF DUP2 GT ISZERO PUSH2 0x300E JUMPI PUSH0 DUP1 REVERT JUMPDEST PUSH2 0x2C4A DUP9 DUP3 DUP10 ADD PUSH2 0x2A4E JUMP JUMPDEST PUSH1 0x1 DUP2 DUP2 SHR SWAP1 DUP3 AND DUP1 PUSH2 0x302E JUMPI PUSH1 0x7F DUP3 AND SWAP2 POP JUMPDEST PUSH1 0x20 DUP3 LT DUP2 SUB PUSH2 0x304C JUMPI PUSH4 0x4E487B71 PUSH1 0xE0 SHL PUSH0 MSTORE PUSH1 0x22 PUSH1 0x4 MSTORE PUSH1 0x24 PUSH0 REVERT JUMPDEST POP SWAP2 SWAP1 POP JUMP JUMPDEST PUSH4 0x4E487B71 PUSH1 0xE0 SHL PUSH0 MSTORE PUSH1 0x12 PUSH1 0x4 MSTORE PUSH1 0x24 PUSH0 REVERT JUMPDEST PUSH0 DUP3 PUSH2 0x3074 JUMPI PUSH2 0x3074 PUSH2 0x3052 JUMP JUMPDEST POP MOD SWAP1 JUMP JUMPDEST PUSH4 0x4E487B71 PUSH1 0xE0 SHL PUSH0 MSTORE PUSH1 0x11 PUSH1 0x4 MSTORE PUSH1 0x24 PUSH0 REVERT JUMPDEST PUSH0 PUSH1 0x1 DUP3 ADD PUSH2 0x309E JUMPI PUSH2 0x309E PUSH2 0x3079 JUMP JUMPDEST POP PUSH1 0x1 ADD SWAP1 JUMP JUMPDEST PUSH1 0x1F DUP3 GT ISZERO PUSH2 0x938 JUMPI PUSH0 DUP2 DUP2 MSTORE PUSH1 0x20 DUP2 KECCAK256 PUSH1 0x1F DUP6 ADD PUSH1 0x5 SHR DUP2 ADD PUSH1 0x20 DUP7 LT ISZERO PUSH2 0x30CB JUMPI POP DUP1 JUMPDEST PUSH1 0x1F DUP6 ADD PUSH1 0x5 SHR DUP3 ADD SWAP2 POP JUMPDEST DUP2 DUP2 LT ISZERO PUSH2 0x847 JUMPI DUP3 DUP2 SSTORE PUSH1 0x1 ADD PUSH2 0x30D7 JUMP JUMPDEST DUP2 MLOAD PUSH8 0xFFFFFFFFFFFFFFFF DUP2 GT ISZERO PUSH2 0x3104 JUMPI PUSH2 0x3104 PUSH2 0x2A09 JUMP JUMPDEST PUSH2 0x3118 DUP2 PUSH2 0x3112 DUP5 SLOAD PUSH2 0x301A JUMP JUMPDEST DUP5 PUSH2 0x30A5 JUMP JUMPDEST PUSH1 0x20 DUP1 PUSH1 0x1F DUP4 GT PUSH1 0x1 DUP2 EQ PUSH2 0x314B JUMPI PUSH0 DUP5 ISZERO PUSH2 0x3134 JUMPI POP DUP6 DUP4 ADD MLOAD JUMPDEST PUSH0 NOT PUSH1 0x3 DUP7 SWAP1 SHL SHR NOT AND PUSH1 0x1 DUP6 SWAP1 SHL OR DUP6 SSTORE PUSH2 0x847 JUMP JUMPDEST PUSH0 DUP6 DUP2 MSTORE PUSH1 0x20 DUP2 KECCAK256 PUSH1 0x1F NOT DUP7 AND SWAP2 JUMPDEST DUP3 DUP2 LT ISZERO PUSH2 0x3179 JUMPI DUP9 DUP7 ADD MLOAD DUP3 SSTORE SWAP5 DUP5 ADD SWAP5 PUSH1 0x1 SWAP1 SWAP2 ADD SWAP1 DUP5 ADD PUSH2 0x315A JUMP JUMPDEST POP DUP6 DUP3 LT ISZERO PUSH2 0x3196 JUMPI DUP8 DUP6 ADD MLOAD PUSH0 NOT PUSH1 0x3 DUP9 SWAP1 SHL PUSH1 0xF8 AND SHR NOT AND DUP2 SSTORE JUMPDEST POP POP POP POP POP PUSH1 0x1 SWAP1 DUP2 SHL ADD SWAP1 SSTORE POP JUMP JUMPDEST PUSH4 0x4E487B71 PUSH1 0xE0 SHL PUSH0 MSTORE PUSH1 0x32 PUSH1 0x4 MSTORE PUSH1 0x24 PUSH0 REVERT JUMPDEST PUSH0 PUSH1 0x20 DUP3 DUP5 SUB SLT ISZERO PUSH2 0x31CA JUMPI PUSH0 DUP1 REVERT JUMPDEST DUP2 MLOAD PUSH2 0x2996 DUP2 PUSH2 0x2E74 JUMP JUMPDEST PUSH1 0x20 DUP1 DUP3 MSTORE PUSH1 0xC SWAP1 DUP3 ADD MSTORE PUSH12 0x151C985B9CD9995C91985A5B PUSH1 0xA2 SHL PUSH1 0x40 DUP3 ADD MSTORE PUSH1 0x60 ADD SWAP1 JUMP JUMPDEST DUP1 DUP3 ADD DUP1 DUP3 GT ISZERO PUSH2 0x5CF JUMPI PUSH2 0x5CF PUSH2 0x3079 JUMP JUMPDEST PUSH1 0x20 DUP1 DUP3 MSTORE PUSH1 0xC SWAP1 DUP3 ADD MSTORE PUSH12 0x92DCECC2D8D2C892DCC8CAF PUSH1 0xA3 SHL PUSH1 0x40 DUP3 ADD MSTORE PUSH1 0x60 ADD SWAP1 JUMP JUMPDEST DUP1 DUP3 MUL DUP2 ISZERO DUP3 DUP3 DIV DUP5 EQ OR PUSH2 0x5CF JUMPI PUSH2 0x5CF PUSH2 0x3079 JUMP JUMPDEST PUSH0 DUP3 PUSH2 0x3259 JUMPI PUSH2 0x3259 PUSH2 0x3052 JUMP JUMPDEST POP DIV SWAP1 JUMP JUMPDEST DUP2 DUP2 SUB DUP2 DUP2 GT ISZERO PUSH2 0x5CF JUMPI PUSH2 0x5CF PUSH2 0x3079 JUMP JUMPDEST PUSH1 0x1 PUSH1 0x1 PUSH1 0xA0 SHL SUB SWAP3 SWAP1 SWAP3 AND DUP3 MSTORE PUSH1 0x20 DUP3 ADD MSTORE PUSH1 0x40 ADD SWAP1 JUMP JUMPDEST PUSH1 0x20 DUP1 DUP3 MSTORE PUSH1 0xA SWAP1 DUP3 ADD MSTORE PUSH10 0x1499599D5B9911985A5B PUSH1 0xB2 SHL PUSH1 0x40 DUP3 ADD MSTORE PUSH1 0x60 ADD SWAP1 JUMP JUMPDEST PUSH1 0x1 PUSH1 0x1 PUSH1 0xA0 SHL SUB SWAP6 SWAP1 SWAP6 AND DUP6 MSTORE PUSH1 0x20 DUP6 ADD SWAP4 SWAP1 SWAP4 MSTORE PUSH1 0x40 DUP5 ADD SWAP2 SWAP1 SWAP2 MSTORE PUSH1 0x60 DUP4 ADD MSTORE PUSH1 0x80 DUP3 ADD MSTORE PUSH1 0xA0 ADD SWAP1 JUMP JUMPDEST PUSH8 0xFFFFFFFFFFFFFFFF DUP4 GT ISZERO PUSH2 0x32F4 JUMPI PUSH2 0x32F4 PUSH2 0x2A09 JUMP JUMPDEST PUSH2 0x3308 DUP4 PUSH2 0x3302 DUP4 SLOAD PUSH2 0x301A JUMP JUMPDEST DUP4 PUSH2 0x30A5 JUMP JUMPDEST PUSH0 PUSH1 0x1F DUP5 GT PUSH1 0x1 DUP2 EQ PUSH2 0x3339 JUMPI PUSH0 DUP6 ISZERO PUSH2 0x3322 JUMPI POP DUP4 DUP3 ADD CALLDATALOAD JUMPDEST PUSH0 NOT PUSH1 0x3 DUP8 SWAP1 SHL SHR NOT AND PUSH1 0x1 DUP7 SWAP1 SHL OR DUP4 SSTORE PUSH2 0x20D5 JUMP JUMPDEST PUSH0 DUP4 DUP2 MSTORE PUSH1 0x20 SWAP1 KECCAK256 PUSH1 0x1F NOT DUP7 AND SWAP1 DUP4 JUMPDEST DUP3 DUP2 LT ISZERO PUSH2 0x3369 JUMPI DUP7 DUP6 ADD CALLDATALOAD DUP3 SSTORE PUSH1 0x20 SWAP5 DUP6 ADD SWAP5 PUSH1 0x1 SWAP1 SWAP3 ADD SWAP2 ADD PUSH2 0x3349 JUMP JUMPDEST POP DUP7 DUP3 LT ISZERO PUSH2 0x3385 JUMPI PUSH0 NOT PUSH1 0xF8 DUP9 PUSH1 0x3 SHL AND SHR NOT DUP5 DUP8 ADD CALLDATALOAD AND DUP2 SSTORE JUMPDEST POP POP PUSH1 0x1 DUP6 PUSH1 0x1 SHL ADD DUP4 SSTORE POP POP POP POP POP JUMP JUMPDEST PUSH1 0x40 DUP2 MSTORE PUSH0 PUSH2 0x33A9 PUSH1 0x40 DUP4 ADD DUP6 PUSH2 0x2E29 JUMP JUMPDEST DUP3 DUP2 SUB PUSH1 0x20 DUP5 ADD MSTORE PUSH2 0x33BB DUP2 DUP6 PUSH2 0x2E29 JUMP JUMPDEST SWAP6 SWAP5 POP POP POP POP POP JUMP JUMPDEST PUSH1 0x1 PUSH1 0x1 PUSH1 0xA0 SHL SUB DUP7 DUP2 AND DUP3 MSTORE DUP6 AND PUSH1 0x20 DUP3 ADD MSTORE PUSH1 0x40 DUP2 ADD DUP5 SWAP1 MSTORE PUSH1 0x60 DUP2 ADD DUP4 SWAP1 MSTORE PUSH1 0xA0 PUSH1 0x80 DUP3 ADD DUP2 SWAP1 MSTORE PUSH0 SWAP1 PUSH2 0x33FD SWAP1 DUP4 ADD DUP5 PUSH2 0x29B4 JUMP JUMPDEST SWAP8 SWAP7 POP POP POP POP POP POP POP JUMP JUMPDEST PUSH0 PUSH1 0x20 DUP3 DUP5 SUB SLT ISZERO PUSH2 0x3418 JUMPI PUSH0 DUP1 REVERT JUMPDEST DUP2 MLOAD PUSH2 0x2996 DUP2 PUSH2 0x2966 JUMP JUMPDEST PUSH1 0x1 PUSH1 0x1 PUSH1 0xA0 SHL SUB DUP7 DUP2 AND DUP3 MSTORE DUP6 AND PUSH1 0x20 DUP3 ADD MSTORE PUSH1 0xA0 PUSH1 0x40 DUP3 ADD DUP2 SWAP1 MSTORE PUSH0 SWAP1 PUSH2 0x344E SWAP1 DUP4 ADD DUP7 PUSH2 0x2E29 JUMP JUMPDEST DUP3 DUP2 SUB PUSH1 0x60 DUP5 ADD MSTORE PUSH2 0x3460 DUP2 DUP7 PUSH2 0x2E29 JUMP JUMPDEST SWAP1 POP DUP3 DUP2 SUB PUSH1 0x80 DUP5 ADD MSTORE PUSH2 0x3474 DUP2 DUP6 PUSH2 0x29B4 JUMP JUMPDEST SWAP9 SWAP8 POP POP POP POP POP POP POP POP JUMP INVALID DUP8 PUSH27 0x78DC988C0EC5F58453B44888A55EB39755C3D5ED8D8EA990912AA3 0xEF 0x29 0xC6 0x26 GASLIMIT PUSH6 0xE1FF1C54EF5F 0x2B 0xC2 PUSH4 0xD3B7F062 0xAF PUSH18 0x72DAF399273B0C92FFC4FD8D4A4DA2646970 PUSH7 0x73582212200DAF SWAP14 0xC8 0xE4 0xE8 0x1F 0x4D 0xD2 ADD 0xD2 ADDMOD SAR PUSH15 0xE8E2516ACDFCB050EE749BEFC262EC SSTORE 0xA5 0xC4 PUSH5 0x736F6C6343 STOP ADDMOD EQ STOP CALLER "
		},
		"gasEstimates": {
			"creation": {
				"codeDepositCost": "2711600",
				"executionCost": "infinite",
				"totalCost": "infinite"
			},
			"external": {
				"ARBITRATOR_ROLE()": "295",
				"ARTIST_ROLE()": "infinite",
				"CONFIRMATION_TIMEOUT()": "251",
				"DEFAULT_ADMIN_ROLE()": "249",
				"artistDeposits(address)": "2638",
				"artworkPurchases(uint256,uint256)": "9221",
				"artworks(uint256)": "infinite",
				"balanceOf(address,uint256)": "2680",
				"balanceOfBatch(address[],uint256[])": "infinite",
				"createArtwork(string,string,uint256,uint256)": "infinite",
				"currentArtworkId()": "2396",
				"depositStablecoin(uint256)": "infinite",
				"forceConfirmPurchase(uint256,uint256)": "infinite",
				"getRoleAdmin(bytes32)": "2498",
				"grantRole(bytes32,address)": "infinite",
				"hasRole(bytes32,address)": "2730",
				"isApprovedForAll(address,address)": "infinite",
				"keyServer()": "2381",
				"keyServerURL()": "infinite",
				"mintArtwork(uint256)": "infinite",
				"onERC1155BatchReceived(address,address,uint256[],uint256[],bytes)": "infinite",
				"onERC1155Received(address,address,uint256,uint256,bytes)": "infinite",
				"publicKeyURI(address)": "infinite",
				"renounceRole(bytes32,address)": "29070",
				"revokeRole(bytes32,address)": "infinite",
				"safeBatchTransferFrom(address,address,uint256[],uint256[],bytes)": "infinite",
				"safeTransferFrom(address,address,uint256,uint256,bytes)": "infinite",
				"setApprovalForAll(address,bool)": "26774",
				"setKeyServer(address)": "27019",
				"setKeyServerURL(string)": "infinite",
				"setPublicKeyURI(string)": "infinite",
				"setStableCoinAddress(address)": "27042",
				"settlePurchaseDispute(uint256,uint256,bool)": "infinite",
				"stableCoin()": "2426",
				"supportsInterface(bytes4)": "infinite",
				"uri(uint256)": "infinite",
				"verifyPurchase(uint256,uint256,bool)": "infinite",
				"withdrawStablecoin(uint256)": "infinite"
			}
		},
		"methodIdentifiers": {
			"ARBITRATOR_ROLE()": "9cea0787",
			"ARTIST_ROLE()": "a966a0df",
			"CONFIRMATION_TIMEOUT()": "3a14af65",
			"DEFAULT_ADMIN_ROLE()": "a217fddf",
			"artistDeposits(address)": "ac76e521",
			"artworkPurchases(uint256,uint256)": "4bc9db85",
			"artworks(uint256)": "4b602673",
			"balanceOf(address,uint256)": "00fdd58e",
			"balanceOfBatch(address[],uint256[])": "4e1273f4",
			"createArtwork(string,string,uint256,uint256)": "237f1509",
			"currentArtworkId()": "18b6dcbc",
			"depositStablecoin(uint256)": "59f99c53",
			"forceConfirmPurchase(uint256,uint256)": "7365e8ec",
			"getRoleAdmin(bytes32)": "248a9ca3",
			"grantRole(bytes32,address)": "2f2ff15d",
			"hasRole(bytes32,address)": "91d14854",
			"isApprovedForAll(address,address)": "e985e9c5",
			"keyServer()": "b69b6d66",
			"keyServerURL()": "361d8c3a",
			"mintArtwork(uint256)": "e82f4062",
			"onERC1155BatchReceived(address,address,uint256[],uint256[],bytes)": "bc197c81",
			"onERC1155Received(address,address,uint256,uint256,bytes)": "f23a6e61",
			"publicKeyURI(address)": "815176aa",
			"renounceRole(bytes32,address)": "36568abe",
			"revokeRole(bytes32,address)": "d547741f",
			"safeBatchTransferFrom(address,address,uint256[],uint256[],bytes)": "2eb2c2d6",
			"safeTransferFrom(address,address,uint256,uint256,bytes)": "f242432a",
			"setApprovalForAll(address,bool)": "a22cb465",
			"setKeyServer(address)": "595af66f",
			"setKeyServerURL(string)": "d4aa56b1",
			"setPublicKeyURI(string)": "f0d93b9a",
			"setStableCoinAddress(address)": "44879b3b",
			"settlePurchaseDispute(uint256,uint256,bool)": "9e56f275",
			"stableCoin()": "992642e5",
			"supportsInterface(bytes4)": "01ffc9a7",
			"uri(uint256)": "0e89341c",
			"verifyPurchase(uint256,uint256,bool)": "b89571c7",
			"withdrawStablecoin(uint256)": "870e974e"
		}
	},
	"abi": [
		{
			"inputs": [
				{
					"internalType": "string",
					"name": "uri",
					"type": "string"
				}
			],
			"stateMutability": "nonpayable",
			"type": "constructor"
		},
		{
			"inputs": [],
			"name": "AccessControlBadConfirmation",
			"type": "error"
		},
		{
			"inputs": [
				{
					"internalType": "address",
					"name": "account",
					"type": "address"
				},
				{
					"internalType": "bytes32",
					"name": "neededRole",
					"type": "bytes32"
				}
			],
			"name": "AccessControlUnauthorizedAccount",
			"type": "error"
		},
		{
			"inputs": [
				{
					"internalType": "address",
					"name": "sender",
					"type": "address"
				},
				{
					"internalType": "uint256",
					"name": "balance",
					"type": "uint256"
				},
				{
					"internalType": "uint256",
					"name": "needed",
					"type": "uint256"
				},
				{
					"internalType": "uint256",
					"name": "tokenId",
					"type": "uint256"
				}
			],
			"name": "ERC1155InsufficientBalance",
			"type": "error"
		},
		{
			"inputs": [
				{
					"internalType": "address",
					"name": "approver",
					"type": "address"
				}
			],
			"name": "ERC1155InvalidApprover",
			"type": "error"
		},
		{
			"inputs": [
				{
					"internalType": "uint256",
					"name": "idsLength",
					"type": "uint256"
				},
				{
					"internalType": "uint256",
					"name": "valuesLength",
					"type": "uint256"
				}
			],
			"name": "ERC1155InvalidArrayLength",
			"type": "error"
		},
		{
			"inputs": [
				{
					"internalType": "address",
					"name": "operator",
					"type": "address"
				}
			],
			"name": "ERC1155InvalidOperator",
			"type": "error"
		},
		{
			"inputs": [
				{
					"internalType": "address",
					"name": "receiver",
					"type": "address"
				}
			],
			"name": "ERC1155InvalidReceiver",
			"type": "error"
		},
		{
			"inputs": [
				{
					"internalType": "address",
					"name": "sender",
					"type": "address"
				}
			],
			"name": "ERC1155InvalidSender",
			"type": "error"
		},
		{
			"inputs": [
				{
					"internalType": "address",
					"name": "operator",
					"type": "address"
				},
				{
					"internalType": "address",
					"name": "owner",
					"type": "address"
				}
			],
			"name": "ERC1155MissingApprovalForAll",
			"type": "error"
		},
		{
			"anonymous": false,
			"inputs": [
				{
					"indexed": true,
					"internalType": "address",
					"name": "account",
					"type": "address"
				},
				{
					"indexed": true,
					"internalType": "address",
					"name": "operator",
					"type": "address"
				},
				{
					"indexed": false,
					"internalType": "bool",
					"name": "approved",
					"type": "bool"
				}
			],
			"name": "ApprovalForAll",
			"type": "event"
		},
		{
			"anonymous": false,
			"inputs": [
				{
					"indexed": true,
					"internalType": "uint256",
					"name": "tokenId",
					"type": "uint256"
				},
				{
					"indexed": true,
					"internalType": "address",
					"name": "artist",
					"type": "address"
				},
				{
					"indexed": false,
					"internalType": "uint256",
					"name": "price",
					"type": "uint256"
				},
				{
					"indexed": false,
					"internalType": "uint256",
					"name": "supplyLimit",
					"type": "uint256"
				}
			],
			"name": "ArtworkCreated",
			"type": "event"
		},
		{
			"anonymous": false,
			"inputs": [
				{
					"indexed": true,
					"internalType": "uint256",
					"name": "tokenId",
					"type": "uint256"
				},
				{
					"indexed": true,
					"internalType": "uint256",
					"name": "purchaseIndex",
					"type": "uint256"
				},
				{
					"indexed": true,
					"internalType": "address",
					"name": "buyer",
					"type": "address"
				},
				{
					"indexed": false,
					"internalType": "uint256",
					"name": "purchaseAmount",
					"type": "uint256"
				},
				{
					"indexed": false,
					"internalType": "uint256",
					"name": "depositLocked",
					"type": "uint256"
				}
			],
			"name": "ArtworkMinted",
			"type": "event"
		},
		{
			"anonymous": false,
			"inputs": [
				{
					"indexed": true,
					"internalType": "uint256",
					"name": "tokenId",
					"type": "uint256"
				},
				{
					"indexed": false,
					"internalType": "uint256",
					"name": "purchaseIndex",
					"type": "uint256"
				},
				{
					"indexed": true,
					"internalType": "address",
					"name": "artist",
					"type": "address"
				}
			],
			"name": "DisputeForced",
			"type": "event"
		},
		{
			"anonymous": false,
			"inputs": [
				{
					"indexed": true,
					"internalType": "uint256",
					"name": "tokenId",
					"type": "uint256"
				},
				{
					"indexed": false,
					"internalType": "uint256",
					"name": "purchaseIndex",
					"type": "uint256"
				},
				{
					"indexed": true,
					"internalType": "address",
					"name": "buyer",
					"type": "address"
				}
			],
			"name": "DisputeOpened",
			"type": "event"
		},
		{
			"anonymous": false,
			"inputs": [
				{
					"indexed": true,
					"internalType": "uint256",
					"name": "tokenId",
					"type": "uint256"
				},
				{
					"indexed": false,
					"internalType": "uint256",
					"name": "purchaseIndex",
					"type": "uint256"
				},
				{
					"indexed": false,
					"internalType": "bool",
					"name": "disputeResult",
					"type": "bool"
				}
			],
			"name": "DisputeSettled",
			"type": "event"
		},
		{
			"anonymous": false,
			"inputs": [
				{
					"indexed": true,
					"internalType": "uint256",
					"name": "tokenId",
					"type": "uint256"
				},
				{
					"indexed": true,
					"internalType": "uint256",
					"name": "purchaseIndex",
					"type": "uint256"
				},
				{
					"indexed": true,
					"internalType": "address",
					"name": "artist",
					"type": "address"
				},
				{
					"indexed": false,
					"internalType": "address",
					"name": "buyer",
					"type": "address"
				},
				{
					"indexed": false,
					"internalType": "uint256",
					"name": "buyerRefund",
					"type": "uint256"
				},
				{
					"indexed": false,
					"internalType": "uint256",
					"name": "keyServerFee",
					"type": "uint256"
				},
				{
					"indexed": false,
					"internalType": "uint256",
					"name": "arbitratorFee",
					"type": "uint256"
				},
				{
					"indexed": false,
					"internalType": "uint256",
					"name": "artistCredit",
					"type": "uint256"
				}
			],
			"name": "FundsDistributed",
			"type": "event"
		},
		{
			"anonymous": false,
			"inputs": [
				{
					"indexed": true,
					"internalType": "uint256",
					"name": "tokenId",
					"type": "uint256"
				},
				{
					"indexed": false,
					"internalType": "uint256",
					"name": "purchaseIndex",
					"type": "uint256"
				},
				{
					"indexed": true,
					"internalType": "address",
					"name": "buyer",
					"type": "address"
				}
			],
			"name": "NFTBurned",
			"type": "event"
		},
		{
			"anonymous": false,
			"inputs": [
				{
					"indexed": true,
					"internalType": "bytes32",
					"name": "role",
					"type": "bytes32"
				},
				{
					"indexed": true,
					"internalType": "bytes32",
					"name": "previousAdminRole",
					"type": "bytes32"
				},
				{
					"indexed": true,
					"internalType": "bytes32",
					"name": "newAdminRole",
					"type": "bytes32"
				}
			],
			"name": "RoleAdminChanged",
			"type": "event"
		},
		{
			"anonymous": false,
			"inputs": [
				{
					"indexed": true,
					"internalType": "bytes32",
					"name": "role",
					"type": "bytes32"
				},
				{
					"indexed": true,
					"internalType": "address",
					"name": "account",
					"type": "address"
				},
				{
					"indexed": true,
					"internalType": "address",
					"name": "sender",
					"type": "address"
				}
			],
			"name": "RoleGranted",
			"type": "event"
		},
		{
			"anonymous": false,
			"inputs": [
				{
					"indexed": true,
					"internalType": "bytes32",
					"name": "role",
					"type": "bytes32"
				},
				{
					"indexed": true,
					"internalType": "address",
					"name": "account",
					"type": "address"
				},
				{
					"indexed": true,
					"internalType": "address",
					"name": "sender",
					"type": "address"
				}
			],
			"name": "RoleRevoked",
			"type": "event"
		},
		{
			"anonymous": false,
			"inputs": [
				{
					"indexed": true,
					"internalType": "address",
					"name": "operator",
					"type": "address"
				},
				{
					"indexed": true,
					"internalType": "address",
					"name": "from",
					"type": "address"
				},
				{
					"indexed": true,
					"internalType": "address",
					"name": "to",
					"type": "address"
				},
				{
					"indexed": false,
					"internalType": "uint256[]",
					"name": "ids",
					"type": "uint256[]"
				},
				{
					"indexed": false,
					"internalType": "uint256[]",
					"name": "values",
					"type": "uint256[]"
				}
			],
			"name": "TransferBatch",
			"type": "event"
		},
		{
			"anonymous": false,
			"inputs": [
				{
					"indexed": true,
					"internalType": "address",
					"name": "operator",
					"type": "address"
				},
				{
					"indexed": true,
					"internalType": "address",
					"name": "from",
					"type": "address"
				},
				{
					"indexed": true,
					"internalType": "address",
					"name": "to",
					"type": "address"
				},
				{
					"indexed": false,
					"internalType": "uint256",
					"name": "id",
					"type": "uint256"
				},
				{
					"indexed": false,
					"internalType": "uint256",
					"name": "value",
					"type": "uint256"
				}
			],
			"name": "TransferSingle",
			"type": "event"
		},
		{
			"anonymous": false,
			"inputs": [
				{
					"indexed": false,
					"internalType": "string",
					"name": "value",
					"type": "string"
				},
				{
					"indexed": true,
					"internalType": "uint256",
					"name": "id",
					"type": "uint256"
				}
			],
			"name": "URI",
			"type": "event"
		},
		{
			"anonymous": false,
			"inputs": [
				{
					"indexed": true,
					"internalType": "uint256",
					"name": "tokenId",
					"type": "uint256"
				},
				{
					"indexed": false,
					"internalType": "uint256",
					"name": "purchaseIndex",
					"type": "uint256"
				},
				{
					"indexed": true,
					"internalType": "address",
					"name": "buyer",
					"type": "address"
				},
				{
					"indexed": false,
					"internalType": "bool",
					"name": "result",
					"type": "bool"
				}
			],
			"name": "VerificationResult",
			"type": "event"
		},
		{
			"inputs": [],
			"name": "ARBITRATOR_ROLE",
			"outputs": [
				{
					"internalType": "bytes32",
					"name": "",
					"type": "bytes32"
				}
			],
			"stateMutability": "view",
			"type": "function"
		},
		{
			"inputs": [],
			"name": "ARTIST_ROLE",
			"outputs": [
				{
					"internalType": "bytes32",
					"name": "",
					"type": "bytes32"
				}
			],
			"stateMutability": "view",
			"type": "function"
		},
		{
			"inputs": [],
			"name": "CONFIRMATION_TIMEOUT",
			"outputs": [
				{
					"internalType": "uint256",
					"name": "",
					"type": "uint256"
				}
			],
			"stateMutability": "view",
			"type": "function"
		},
		{
			"inputs": [],
			"name": "DEFAULT_ADMIN_ROLE",
			"outputs": [
				{
					"internalType": "bytes32",
					"name": "",
					"type": "bytes32"
				}
			],
			"stateMutability": "view",
			"type": "function"
		},
		{
			"inputs": [
				{
					"internalType": "address",
					"name": "",
					"type": "address"
				}
			],
			"name": "artistDeposits",
			"outputs": [
				{
					"internalType": "uint256",
					"name": "",
					"type": "uint256"
				}
			],
			"stateMutability": "view",
			"type": "function"
		},
		{
			"inputs": [
				{
					"internalType": "uint256",
					"name": "",
					"type": "uint256"
				},
				{
					"internalType": "uint256",
					"name": "",
					"type": "uint256"
				}
			],
			"name": "artworkPurchases",
			"outputs": [
				{
					"internalType": "address",
					"name": "buyer",
					"type": "address"
				},
				{
					"internalType": "enum DigitalArtwork_ERC1155_Stablecoin.PurchaseState",
					"name": "state",
					"type": "uint8"
				},
				{
					"internalType": "uint256",
					"name": "lockedDeposit",
					"type": "uint256"
				},
				{
					"internalType": "uint256",
					"name": "purchaseTime",
					"type": "uint256"
				}
			],
			"stateMutability": "view",
			"type": "function"
		},
		{
			"inputs": [
				{
					"internalType": "uint256",
					"name": "",
					"type": "uint256"
				}
			],
			"name": "artworks",
			"outputs": [
				{
					"internalType": "uint256",
					"name": "tokenId",
					"type": "uint256"
				},
				{
					"internalType": "string",
					"name": "name",
					"type": "string"
				},
				{
					"internalType": "string",
					"name": "hash_json",
					"type": "string"
				},
				{
					"internalType": "uint256",
					"name": "supplyLimit",
					"type": "uint256"
				},
				{
					"internalType": "uint256",
					"name": "minted",
					"type": "uint256"
				},
				{
					"internalType": "uint256",
					"name": "price",
					"type": "uint256"
				},
				{
					"internalType": "address",
					"name": "artist",
					"type": "address"
				}
			],
			"stateMutability": "view",
			"type": "function"
		},
		{
			"inputs": [
				{
					"internalType": "address",
					"name": "account",
					"type": "address"
				},
				{
					"internalType": "uint256",
					"name": "id",
					"type": "uint256"
				}
			],
			"name": "balanceOf",
			"outputs": [
				{
					"internalType": "uint256",
					"name": "",
					"type": "uint256"
				}
			],
			"stateMutability": "view",
			"type": "function"
		},
		{
			"inputs": [
				{
					"internalType": "address[]",
					"name": "accounts",
					"type": "address[]"
				},
				{
					"internalType": "uint256[]",
					"name": "ids",
					"type": "uint256[]"
				}
			],
			"name": "balanceOfBatch",
			"outputs": [
				{
					"internalType": "uint256[]",
					"name": "",
					"type": "uint256[]"
				}
			],
			"stateMutability": "view",
			"type": "function"
		},
		{
			"inputs": [
				{
					"internalType": "string",
					"name": "_name",
					"type": "string"
				},
				{
					"internalType": "string",
					"name": "_hash_json",
					"type": "string"
				},
				{
					"internalType": "uint256",
					"name": "_supplyLimit",
					"type": "uint256"
				},
				{
					"internalType": "uint256",
					"name": "_price",
					"type": "uint256"
				}
			],
			"name": "createArtwork",
			"outputs": [
				{
					"internalType": "uint256",
					"name": "",
					"type": "uint256"
				}
			],
			"stateMutability": "nonpayable",
			"type": "function"
		},
		{
			"inputs": [],
			"name": "currentArtworkId",
			"outputs": [
				{
					"internalType": "uint256",
					"name": "",
					"type": "uint256"
				}
			],
			"stateMutability": "view",
			"type": "function"
		},
		{
			"inputs": [
				{
					"internalType": "uint256",
					"name": "amount",
					"type": "uint256"
				}
			],
			"name": "depositStablecoin",
			"outputs": [],
			"stateMutability": "nonpayable",
			"type": "function"
		},
		{
			"inputs": [
				{
					"internalType": "uint256",
					"name": "_tokenId",
					"type": "uint256"
				},
				{
					"internalType": "uint256",
					"name": "purchaseIndex",
					"type": "uint256"
				}
			],
			"name": "forceConfirmPurchase",
			"outputs": [],
			"stateMutability": "nonpayable",
			"type": "function"
		},
		{
			"inputs": [
				{
					"internalType": "bytes32",
					"name": "role",
					"type": "bytes32"
				}
			],
			"name": "getRoleAdmin",
			"outputs": [
				{
					"internalType": "bytes32",
					"name": "",
					"type": "bytes32"
				}
			],
			"stateMutability": "view",
			"type": "function"
		},
		{
			"inputs": [
				{
					"internalType": "bytes32",
					"name": "role",
					"type": "bytes32"
				},
				{
					"internalType": "address",
					"name": "account",
					"type": "address"
				}
			],
			"name": "grantRole",
			"outputs": [],
			"stateMutability": "nonpayable",
			"type": "function"
		},
		{
			"inputs": [
				{
					"internalType": "bytes32",
					"name": "role",
					"type": "bytes32"
				},
				{
					"internalType": "address",
					"name": "account",
					"type": "address"
				}
			],
			"name": "hasRole",
			"outputs": [
				{
					"internalType": "bool",
					"name": "",
					"type": "bool"
				}
			],
			"stateMutability": "view",
			"type": "function"
		},
		{
			"inputs": [
				{
					"internalType": "address",
					"name": "account",
					"type": "address"
				},
				{
					"internalType": "address",
					"name": "operator",
					"type": "address"
				}
			],
			"name": "isApprovedForAll",
			"outputs": [
				{
					"internalType": "bool",
					"name": "",
					"type": "bool"
				}
			],
			"stateMutability": "view",
			"type": "function"
		},
		{
			"inputs": [],
			"name": "keyServer",
			"outputs": [
				{
					"internalType": "address",
					"name": "",
					"type": "address"
				}
			],
			"stateMutability": "view",
			"type": "function"
		},
		{
			"inputs": [],
			"name": "keyServerURL",
			"outputs": [
				{
					"internalType": "string",
					"name": "",
					"type": "string"
				}
			],
			"stateMutability": "view",
			"type": "function"
		},
		{
			"inputs": [
				{
					"internalType": "uint256",
					"name": "_tokenId",
					"type": "uint256"
				}
			],
			"name": "mintArtwork",
			"outputs": [],
			"stateMutability": "nonpayable",
			"type": "function"
		},
		{
			"inputs": [
				{
					"internalType": "address",
					"name": "",
					"type": "address"
				},
				{
					"internalType": "address",
					"name": "",
					"type": "address"
				},
				{
					"internalType": "uint256[]",
					"name": "",
					"type": "uint256[]"
				},
				{
					"internalType": "uint256[]",
					"name": "",
					"type": "uint256[]"
				},
				{
					"internalType": "bytes",
					"name": "",
					"type": "bytes"
				}
			],
			"name": "onERC1155BatchReceived",
			"outputs": [
				{
					"internalType": "bytes4",
					"name": "",
					"type": "bytes4"
				}
			],
			"stateMutability": "nonpayable",
			"type": "function"
		},
		{
			"inputs": [
				{
					"internalType": "address",
					"name": "",
					"type": "address"
				},
				{
					"internalType": "address",
					"name": "",
					"type": "address"
				},
				{
					"internalType": "uint256",
					"name": "",
					"type": "uint256"
				},
				{
					"internalType": "uint256",
					"name": "",
					"type": "uint256"
				},
				{
					"internalType": "bytes",
					"name": "",
					"type": "bytes"
				}
			],
			"name": "onERC1155Received",
			"outputs": [
				{
					"internalType": "bytes4",
					"name": "",
					"type": "bytes4"
				}
			],
			"stateMutability": "nonpayable",
			"type": "function"
		},
		{
			"inputs": [
				{
					"internalType": "address",
					"name": "",
					"type": "address"
				}
			],
			"name": "publicKeyURI",
			"outputs": [
				{
					"internalType": "string",
					"name": "",
					"type": "string"
				}
			],
			"stateMutability": "view",
			"type": "function"
		},
		{
			"inputs": [
				{
					"internalType": "bytes32",
					"name": "role",
					"type": "bytes32"
				},
				{
					"internalType": "address",
					"name": "callerConfirmation",
					"type": "address"
				}
			],
			"name": "renounceRole",
			"outputs": [],
			"stateMutability": "nonpayable",
			"type": "function"
		},
		{
			"inputs": [
				{
					"internalType": "bytes32",
					"name": "role",
					"type": "bytes32"
				},
				{
					"internalType": "address",
					"name": "account",
					"type": "address"
				}
			],
			"name": "revokeRole",
			"outputs": [],
			"stateMutability": "nonpayable",
			"type": "function"
		},
		{
			"inputs": [
				{
					"internalType": "address",
					"name": "from",
					"type": "address"
				},
				{
					"internalType": "address",
					"name": "to",
					"type": "address"
				},
				{
					"internalType": "uint256[]",
					"name": "ids",
					"type": "uint256[]"
				},
				{
					"internalType": "uint256[]",
					"name": "values",
					"type": "uint256[]"
				},
				{
					"internalType": "bytes",
					"name": "data",
					"type": "bytes"
				}
			],
			"name": "safeBatchTransferFrom",
			"outputs": [],
			"stateMutability": "nonpayable",
			"type": "function"
		},
		{
			"inputs": [
				{
					"internalType": "address",
					"name": "from",
					"type": "address"
				},
				{
					"internalType": "address",
					"name": "to",
					"type": "address"
				},
				{
					"internalType": "uint256",
					"name": "id",
					"type": "uint256"
				},
				{
					"internalType": "uint256",
					"name": "value",
					"type": "uint256"
				},
				{
					"internalType": "bytes",
					"name": "data",
					"type": "bytes"
				}
			],
			"name": "safeTransferFrom",
			"outputs": [],
			"stateMutability": "nonpayable",
			"type": "function"
		},
		{
			"inputs": [
				{
					"internalType": "address",
					"name": "operator",
					"type": "address"
				},
				{
					"internalType": "bool",
					"name": "approved",
					"type": "bool"
				}
			],
			"name": "setApprovalForAll",
			"outputs": [],
			"stateMutability": "nonpayable",
			"type": "function"
		},
		{
			"inputs": [
				{
					"internalType": "address",
					"name": "_keyServer",
					"type": "address"
				}
			],
			"name": "setKeyServer",
			"outputs": [],
			"stateMutability": "nonpayable",
			"type": "function"
		},
		{
			"inputs": [
				{
					"internalType": "string",
					"name": "newURL",
					"type": "string"
				}
			],
			"name": "setKeyServerURL",
			"outputs": [],
			"stateMutability": "nonpayable",
			"type": "function"
		},
		{
			"inputs": [
				{
					"internalType": "string",
					"name": "keyURI",
					"type": "string"
				}
			],
			"name": "setPublicKeyURI",
			"outputs": [],
			"stateMutability": "nonpayable",
			"type": "function"
		},
		{
			"inputs": [
				{
					"internalType": "address",
					"name": "_stableCoinAddress",
					"type": "address"
				}
			],
			"name": "setStableCoinAddress",
			"outputs": [],
			"stateMutability": "nonpayable",
			"type": "function"
		},
		{
			"inputs": [
				{
					"internalType": "uint256",
					"name": "_tokenId",
					"type": "uint256"
				},
				{
					"internalType": "uint256",
					"name": "purchaseIndex",
					"type": "uint256"
				},
				{
					"internalType": "bool",
					"name": "disputeResult",
					"type": "bool"
				}
			],
			"name": "settlePurchaseDispute",
			"outputs": [],
			"stateMutability": "nonpayable",
			"type": "function"
		},
		{
			"inputs": [],
			"name": "stableCoin",
			"outputs": [
				{
					"internalType": "contract IERC20",
					"name": "",
					"type": "address"
				}
			],
			"stateMutability": "view",
			"type": "function"
		},
		{
			"inputs": [
				{
					"internalType": "bytes4",
					"name": "interfaceId",
					"type": "bytes4"
				}
			],
			"name": "supportsInterface",
			"outputs": [
				{
					"internalType": "bool",
					"name": "",
					"type": "bool"
				}
			],
			"stateMutability": "view",
			"type": "function"
		},
		{
			"inputs": [
				{
					"internalType": "uint256",
					"name": "",
					"type": "uint256"
				}
			],
			"name": "uri",
			"outputs": [
				{
					"internalType": "string",
					"name": "",
					"type": "string"
				}
			],
			"stateMutability": "view",
			"type": "function"
		},
		{
			"inputs": [
				{
					"internalType": "uint256",
					"name": "_tokenId",
					"type": "uint256"
				},
				{
					"internalType": "uint256",
					"name": "purchaseIndex",
					"type": "uint256"
				},
				{
					"internalType": "bool",
					"name": "verificationResult",
					"type": "bool"
				}
			],
			"name": "verifyPurchase",
			"outputs": [],
			"stateMutability": "nonpayable",
			"type": "function"
		},
		{
			"inputs": [
				{
					"internalType": "uint256",
					"name": "amount",
					"type": "uint256"
				}
			],
			"name": "withdrawStablecoin",
			"outputs": [],
			"stateMutability": "nonpayable",
			"type": "function"
		}
	]
}