{
	"data": {
		"bytecode": {
			"linkReferences": {},
			"object": "608060405234801561000f575f80fd5b5060405161514538038061514583398181016040528101906100319190610324565b806100418161006360201b60201c565b50600160048190555061005c5f801b3361007660201b60201c565b5050610647565b80600290816100729190610578565b5050565b5f610087838361016c60201b60201c565b61016257600160035f8581526020019081526020015f205f015f8473ffffffffffffffffffffffffffffffffffffffff1673ffffffffffffffffffffffffffffffffffffffff1681526020019081526020015f205f6101000a81548160ff0219169083151502179055506100ff6101d060201b60201c565b73ffffffffffffffffffffffffffffffffffffffff168273ffffffffffffffffffffffffffffffffffffffff16847f2f8788117e7eff1d82e926ec794901d17c78024a50270940304540a733656f0d60405160405180910390a460019050610166565b5f90505b92915050565b5f60035f8481526020019081526020015f205f015f8373ffffffffffffffffffffffffffffffffffffffff1673ffffffffffffffffffffffffffffffffffffffff1681526020019081526020015f205f9054906101000a900460ff16905092915050565b5f33905090565b5f604051905090565b5f80fd5b5f80fd5b5f80fd5b5f80fd5b5f601f19601f8301169050919050565b7f4e487b71000000000000000000000000000000000000000000000000000000005f52604160045260245ffd5b610236826101f0565b810181811067ffffffffffffffff8211171561025557610254610200565b5b80604052505050565b5f6102676101d7565b9050610273828261022d565b919050565b5f67ffffffffffffffff82111561029257610291610200565b5b61029b826101f0565b9050602081019050919050565b8281835e5f83830152505050565b5f6102c86102c384610278565b61025e565b9050828152602081018484840111156102e4576102e36101ec565b5b6102ef8482856102a8565b509392505050565b5f82601f83011261030b5761030a6101e8565b5b815161031b8482602086016102b6565b91505092915050565b5f60208284031215610339576103386101e0565b5b5f82015167ffffffffffffffff811115610356576103556101e4565b5b610362848285016102f7565b91505092915050565b5f81519050919050565b7f4e487b71000000000000000000000000000000000000000000000000000000005f52602260045260245ffd5b5f60028204905060018216806103b957607f821691505b6020821081036103cc576103cb610375565b5b50919050565b5f819050815f5260205f209050919050565b5f6020601f8301049050919050565b5f82821b905092915050565b5f6008830261042e7fffffffffffffffffffffffffffffffffffffffffffffffffffffffffffffffff826103f3565b61043886836103f3565b95508019841693508086168417925050509392505050565b5f819050919050565b5f819050919050565b5f61047c61047761047284610450565b610459565b610450565b9050919050565b5f819050919050565b61049583610462565b6104a96104a182610483565b8484546103ff565b825550505050565b5f90565b6104bd6104b1565b6104c881848461048c565b505050565b5b818110156104eb576104e05f826104b5565b6001810190506104ce565b5050565b601f82111561053057610501816103d2565b61050a846103e4565b81016020851015610519578190505b61052d610525856103e4565b8301826104cd565b50505b505050565b5f82821c905092915050565b5f6105505f1984600802610535565b1980831691505092915050565b5f6105688383610541565b9150826002028217905092915050565b6105818261036b565b67ffffffffffffffff81111561059a57610599610200565b5b6105a482546103a2565b6105af8282856104ef565b5f60209050601f8311600181146105e0575f84156105ce578287015190505b6105d8858261055d565b86555061063f565b601f1984166105ee866103d2565b5f5b82811015610615578489015182556001820191506020850194506020810190506105f0565b86831015610632578489015161062e601f891682610541565b8355505b6001600288020188555050505b505050505050565b614af1806106545f395ff3fe608060405234801561000f575f80fd5b50600436106101e2575f3560e01c806395b7dde01161010d578063b89571c7116100a0578063e8dbb9c51161006f578063e8dbb9c5146105da578063e985e9c5146105f8578063f1f201e814610628578063f242432a14610658576101e2565b8063b89571c714610556578063d547741f14610572578063da47635d1461058e578063e82f4062146105be576101e2565b8063a22cb465116100dc578063a22cb465146104bc578063a3d6f9a9146104d8578063a966a0df14610508578063ac76e52114610526576101e2565b806395b7dde0146104485780639cea0787146104645780639e56f27514610482578063a217fddf1461049e576101e2565b80632f2ff15d116101855780634bc9db85116101545780634bc9db851461039a5780634e1273f4146103cc57806366367b77146103fc57806391d1485414610418576101e2565b80632f2ff15d1461031057806336568abe1461032c5780633cdd2c1f146103485780634b60267314610364576101e2565b806318b6dcbc116101c157806318b6dcbc14610276578063237f150914610294578063248a9ca3146102c45780632eb2c2d6146102f4576101e2565b8062fdd58e146101e657806301ffc9a7146102165780630e89341c14610246575b5f80fd5b61020060048036038101906101fb9190613391565b610674565b60405161020d91906133de565b60405180910390f35b610230600480360381019061022b919061344c565b6106c9565b60405161023d9190613491565b60405180910390f35b610260600480360381019061025b91906134aa565b6106da565b60405161026d9190613545565b60405180910390f35b61027e61076c565b60405161028b91906133de565b60405180910390f35b6102ae60048036038101906102a99190613691565b610772565b6040516102bb91906133de565b60405180910390f35b6102de60048036038101906102d99190613760565b61090c565b6040516102eb919061379a565b60405180910390f35b61030e60048036038101906103099190613915565b610929565b005b61032a600480360381019061032591906139e0565b6109d0565b005b610346600480360381019061034191906139e0565b6109f2565b005b610362600480360381019061035d91906134aa565b610a6d565b005b61037e600480360381019061037991906134aa565b610b3c565b6040516103919796959493929190613a2d565b60405180910390f35b6103b460048036038101906103af9190613aa8565b610ca5565b6040516103c393929190613b59565b60405180910390f35b6103e660048036038101906103e19190613c4e565b610d10565b6040516103f39190613d7b565b60405180910390f35b61041660048036038101906104119190613391565b610e17565b005b610432600480360381019061042d91906139e0565b610e42565b60405161043f9190613491565b60405180910390f35b610462600480360381019061045d91906134aa565b610ea6565b005b61046c610ff5565b604051610479919061379a565b60405180910390f35b61049c60048036038101906104979190613dc5565b611019565b005b6104a66114ff565b6040516104b3919061379a565b60405180910390f35b6104d660048036038101906104d19190613e15565b611505565b005b6104f260048036038101906104ed9190613e53565b61151b565b6040516104ff9190613ed0565b60405180910390f35b6105106115b6565b60405161051d919061379a565b60405180910390f35b610540600480360381019061053b9190613e53565b6115da565b60405161054d91906133de565b60405180910390f35b610570600480360381019061056b9190613dc5565b6115ef565b005b61058c600480360381019061058791906139e0565b6119ec565b005b6105a860048036038101906105a39190613aa8565b611a0e565b6040516105b59190613f4e565b60405180910390f35b6105d860048036038101906105d391906134aa565b611b46565b005b6105e2611e79565b6040516105ef91906133de565b60405180910390f35b610612600480360381019061060d9190613f67565b611e7d565b60405161061f9190613491565b60405180910390f35b610642600480360381019061063d91906134aa565b611f0b565b60405161064f919061408d565b60405180910390f35b610672600480360381019061066d91906140ad565b6120d2565b005b5f805f8381526020019081526020015f205f8473ffffffffffffffffffffffffffffffffffffffff1673ffffffffffffffffffffffffffffffffffffffff1681526020019081526020015f2054905092915050565b5f6106d382612179565b9050919050565b6060600280546106e99061416d565b80601f01602080910402602001604051908101604052809291908181526020018280546107159061416d565b80156107605780601f1061073757610100808354040283529160200191610760565b820191905f5260205f20905b81548152906001019060200180831161074357829003601f168201915b50505050509050919050565b60055481565b5f7f877a78dc988c0ec5f58453b44888a55eb39755c3d5ed8d8ea990912aa3ef29c661079d816121f2565b60055f8154809291906107af906141ca565b91905055505f60055490506040518060e001604052808281526020018881526020018781526020018681526020015f81526020018581526020013373ffffffffffffffffffffffffffffffffffffffff1681525060075f8381526020019081526020015f205f820151815f0155602082015181600101908161083191906143ae565b50604082015181600201908161084791906143ae565b50606082015181600301556080820151816004015560a0820151816005015560c0820151816006015f6101000a81548173ffffffffffffffffffffffffffffffffffffffff021916908373ffffffffffffffffffffffffffffffffffffffff1602179055509050503373ffffffffffffffffffffffffffffffffffffffff16817ef3538cb5abe2e9bc54f73939e4d165fce3752d27fe21a5e88b2a9f6da20c6386886040516108f792919061447d565b60405180910390a38092505050949350505050565b5f60035f8381526020019081526020015f20600101549050919050565b5f610932612206565b90508073ffffffffffffffffffffffffffffffffffffffff168673ffffffffffffffffffffffffffffffffffffffff161415801561097757506109758682611e7d565b155b156109bb5780866040517fe237d9220000000000000000000000000000000000000000000000000000000081526004016109b29291906144a4565b60405180910390fd5b6109c8868686868661220d565b505050505050565b6109d98261090c565b6109e2816121f2565b6109ec8383612301565b50505050565b6109fa612206565b73ffffffffffffffffffffffffffffffffffffffff168173ffffffffffffffffffffffffffffffffffffffff1614610a5e576040517f6697b23200000000000000000000000000000000000000000000000000000000815260040160405180910390fd5b610a6882826123eb565b505050565b610a756124d5565b610a9033305f8460405180602001604052805f8152506120d2565b8060095f3373ffffffffffffffffffffffffffffffffffffffff1673ffffffffffffffffffffffffffffffffffffffff1681526020019081526020015f205f828254610adc91906144cb565b925050819055503373ffffffffffffffffffffffffffffffffffffffff167f0eb3cbaac08f9c4d8299747ba33f496b63ed34797e25a84d343790d9f901947a82604051610b2991906133de565b60405180910390a2610b39612524565b50565b6007602052805f5260405f205f91509050805f015490806001018054610b619061416d565b80601f0160208091040260200160405190810160405280929190818152602001828054610b8d9061416d565b8015610bd85780601f10610baf57610100808354040283529160200191610bd8565b820191905f5260205f20905b815481529060010190602001808311610bbb57829003601f168201915b505050505090806002018054610bed9061416d565b80601f0160208091040260200160405190810160405280929190818152602001828054610c199061416d565b8015610c645780601f10610c3b57610100808354040283529160200191610c64565b820191905f5260205f20905b815481529060010190602001808311610c4757829003601f168201915b505050505090806003015490806004015490806005015490806006015f9054906101000a900473ffffffffffffffffffffffffffffffffffffffff16905087565b6008602052815f5260405f208181548110610cbe575f80fd5b905f5260205f2090600202015f9150915050805f015f9054906101000a900473ffffffffffffffffffffffffffffffffffffffff1690805f0160149054906101000a900460ff16908060010154905083565b60608151835114610d5c57815183516040517f5b059991000000000000000000000000000000000000000000000000000000008152600401610d5392919061447d565b60405180910390fd5b5f835167ffffffffffffffff811115610d7857610d7761356d565b5b604051908082528060200260200182016040528015610da65781602001602082028036833780820191505090505b5090505f5b8451811015610e0c57610de2610dca828761252e90919063ffffffff16565b610ddd838761254190919063ffffffff16565b610674565b828281518110610df557610df46144fe565b5b602002602001018181525050806001019050610dab565b508091505092915050565b5f801b610e23816121f2565b610e3d835f8460405180602001604052805f815250612554565b505050565b5f60035f8481526020019081526020015f205f015f8373ffffffffffffffffffffffffffffffffffffffff1673ffffffffffffffffffffffffffffffffffffffff1681526020019081526020015f205f9054906101000a900460ff16905092915050565b610eae6124d5565b8060095f3373ffffffffffffffffffffffffffffffffffffffff1673ffffffffffffffffffffffffffffffffffffffff1681526020019081526020015f20541015610f2e576040517f08c379a0000000000000000000000000000000000000000000000000000000008152600401610f2590614575565b60405180910390fd5b8060095f3373ffffffffffffffffffffffffffffffffffffffff1673ffffffffffffffffffffffffffffffffffffffff1681526020019081526020015f205f828254610f7a9190614593565b92505081905550610f9c30335f8460405180602001604052805f8152506125e9565b3373ffffffffffffffffffffffffffffffffffffffff167fade5f54ca481b46662e37b9087bec2a1919dcfc57c6388290b50b3b4c8d8474982604051610fe291906133de565b60405180910390a2610ff2612524565b50565b7f16ceee8289685dd2a02b9c8ae81d2df373176ce53519e6284e2a2950d6546ffa81565b6110216124d5565b7f16ceee8289685dd2a02b9c8ae81d2df373176ce53519e6284e2a2950d6546ffa61104b816121f2565b60085f8581526020019081526020015f208054905083106110a1576040517f08c379a000000000000000000000000000000000000000000000000000000000815260040161109890614610565b60405180910390fd5b5f60085f8681526020019081526020015f2084815481106110c5576110c46144fe565b5b905f5260205f2090600202019050600160038111156110e7576110e6613ae6565b5b815f0160149054906101000a900460ff16600381111561110a57611109613ae6565b5b1461114a576040517f08c379a000000000000000000000000000000000000000000000000000000000815260040161114190614678565b60405180910390fd5b5f60075f8781526020019081526020015f2090508315611319576111a530835f015f9054906101000a900473ffffffffffffffffffffffffffffffffffffffff165f846005015460405180602001604052805f8152506125e9565b806005015482600101546111b991906144cb565b60095f836006015f9054906101000a900473ffffffffffffffffffffffffffffffffffffffff1673ffffffffffffffffffffffffffffffffffffffff1673ffffffffffffffffffffffffffffffffffffffff1681526020019081526020015f205f82825461122791906144cb565b925050819055505f82600101819055506002825f0160146101000a81548160ff0219169083600381111561125e5761125d613ae6565b5b0217905550815f015f9054906101000a900473ffffffffffffffffffffffffffffffffffffffff1673ffffffffffffffffffffffffffffffffffffffff16816006015f9054906101000a900473ffffffffffffffffffffffffffffffffffffffff1673ffffffffffffffffffffffffffffffffffffffff16877f8a638e11b0c22c045787cdeb797b7660a82a4f82305ca40e86a115ae07b3ee2888856005015460405161130c92919061447d565b60405180910390a46114b5565b61136630835f015f9054906101000a900473ffffffffffffffffffffffffffffffffffffffff165f600285600501546113529190614696565b60405180602001604052805f8152506125e9565b816001015460095f836006015f9054906101000a900473ffffffffffffffffffffffffffffffffffffffff1673ffffffffffffffffffffffffffffffffffffffff1673ffffffffffffffffffffffffffffffffffffffff1681526020019081526020015f205f8282546113d991906144cb565b925050819055505f82600101819055506003825f0160146101000a81548160ff021916908360038111156114105761140f613ae6565b5b0217905550611443825f015f9054906101000a900473ffffffffffffffffffffffffffffffffffffffff168760016126ef565b815f015f9054906101000a900473ffffffffffffffffffffffffffffffffffffffff1673ffffffffffffffffffffffffffffffffffffffff16867f9e07dce46977ec95e7805c93ce75a606c8828e2f4a3e5554bfeb839d50895099876040516114ac91906133de565b60405180910390a35b857fd4390d9b1eae30d53d6e598d7eba50e60f3ea18310ca83e7919e3df177bb05ca86866040516114e79291906146d7565b60405180910390a25050506114fa612524565b505050565b5f801b81565b611517611510612206565b8383612791565b5050565b6006602052805f5260405f205f9150905080546115379061416d565b80601f01602080910402602001604051908101604052809291908181526020018280546115639061416d565b80156115ae5780601f10611585576101008083540402835291602001916115ae565b820191905f5260205f20905b81548152906001019060200180831161159157829003601f168201915b505050505081565b7f877a78dc988c0ec5f58453b44888a55eb39755c3d5ed8d8ea990912aa3ef29c681565b6009602052805f5260405f205f915090505481565b6115f76124d5565b60085f8481526020019081526020015f2080549050821061164d576040517f08c379a000000000000000000000000000000000000000000000000000000000815260040161164490614610565b60405180910390fd5b5f60085f8581526020019081526020015f208381548110611671576116706144fe565b5b905f5260205f20906002020190503373ffffffffffffffffffffffffffffffffffffffff16815f015f9054906101000a900473ffffffffffffffffffffffffffffffffffffffff1673ffffffffffffffffffffffffffffffffffffffff161461170f576040517f08c379a000000000000000000000000000000000000000000000000000000000815260040161170690614748565b60405180910390fd5b5f600381111561172257611721613ae6565b5b815f0160149054906101000a900460ff16600381111561174557611744613ae6565b5b14611785576040517f08c379a000000000000000000000000000000000000000000000000000000000815260040161177c906147b0565b60405180910390fd5b5f60075f8681526020019081526020015f2090503373ffffffffffffffffffffffffffffffffffffffff16857fdfcfa307bd7ff3b7df976aea65a8df73deb67f2649e10e389ae208b2a5c667af86866040516117e29291906146d7565b60405180910390a382156119615761180f30335f846005015460405180602001604052805f8152506125e9565b8060050154826001015461182391906144cb565b60095f836006015f9054906101000a900473ffffffffffffffffffffffffffffffffffffffff1673ffffffffffffffffffffffffffffffffffffffff1673ffffffffffffffffffffffffffffffffffffffff1681526020019081526020015f205f82825461189191906144cb565b925050819055505f82600101819055506002825f0160146101000a81548160ff021916908360038111156118c8576118c7613ae6565b5b02179055503373ffffffffffffffffffffffffffffffffffffffff16816006015f9054906101000a900473ffffffffffffffffffffffffffffffffffffffff1673ffffffffffffffffffffffffffffffffffffffff16867f8a638e11b0c22c045787cdeb797b7660a82a4f82305ca40e86a115ae07b3ee2887856005015460405161195492919061447d565b60405180910390a46119dd565b6001825f0160146101000a81548160ff0219169083600381111561198857611987613ae6565b5b02179055503373ffffffffffffffffffffffffffffffffffffffff16857fc6fb55a2bd2838e444163cece1945a661c371c5ec8c1a4ea5d697aefc7690547866040516119d491906133de565b60405180910390a35b50506119e7612524565b505050565b6119f58261090c565b6119fe816121f2565b611a0883836123eb565b50505050565b611a1661325f565b60085f8481526020019081526020015f20805490508210611a6c576040517f08c379a0000000000000000000000000000000000000000000000000000000008152600401611a6390614610565b60405180910390fd5b60085f8481526020019081526020015f208281548110611a8f57611a8e6144fe565b5b905f5260205f2090600202016040518060600160405290815f82015f9054906101000a900473ffffffffffffffffffffffffffffffffffffffff1673ffffffffffffffffffffffffffffffffffffffff1673ffffffffffffffffffffffffffffffffffffffff1681526020015f820160149054906101000a900460ff166003811115611b1e57611b1d613ae6565b5b6003811115611b3057611b2f613ae6565b5b8152602001600182015481525050905092915050565b611b4e6124d5565b5f60075f8381526020019081526020015f2090508060030154816004015410611bac576040517f08c379a0000000000000000000000000000000000000000000000000000000008152600401611ba390614818565b60405180910390fd5b5f60028260050154611bbe9190614696565b9050611bdb33305f8460405180602001604052805f8152506120d2565b8060095f846006015f9054906101000a900473ffffffffffffffffffffffffffffffffffffffff1673ffffffffffffffffffffffffffffffffffffffff1673ffffffffffffffffffffffffffffffffffffffff1681526020019081526020015f20541015611c7e576040517f08c379a0000000000000000000000000000000000000000000000000000000008152600401611c7590614880565b60405180910390fd5b8060095f846006015f9054906101000a900473ffffffffffffffffffffffffffffffffffffffff1673ffffffffffffffffffffffffffffffffffffffff1673ffffffffffffffffffffffffffffffffffffffff1681526020019081526020015f205f828254611ced9190614593565b925050819055505f60405180606001604052803373ffffffffffffffffffffffffffffffffffffffff1681526020015f6003811115611d2f57611d2e613ae6565b5b815260200183815250905060085f8581526020019081526020015f2081908060018154018082558091505060019003905f5260205f2090600202015f909190919091505f820151815f015f6101000a81548173ffffffffffffffffffffffffffffffffffffffff021916908373ffffffffffffffffffffffffffffffffffffffff1602179055506020820151815f0160146101000a81548160ff02191690836003811115611de057611ddf613ae6565b5b02179055506040820151816001015550506001836004015f828254611e0591906144cb565b92505081905550611e273385600160405180602001604052805f815250612554565b3373ffffffffffffffffffffffffffffffffffffffff16847fac5e7cdffb9f94eb582c47d5d6548e89ec9f1d35f8baafa7c181a3778b419bd860405160405180910390a3505050611e76612524565b50565b5f81565b5f60015f8473ffffffffffffffffffffffffffffffffffffffff1673ffffffffffffffffffffffffffffffffffffffff1681526020019081526020015f205f8373ffffffffffffffffffffffffffffffffffffffff1673ffffffffffffffffffffffffffffffffffffffff1681526020019081526020015f205f9054906101000a900460ff16905092915050565b611f136132a5565b60075f8381526020019081526020015f206040518060e00160405290815f8201548152602001600182018054611f489061416d565b80601f0160208091040260200160405190810160405280929190818152602001828054611f749061416d565b8015611fbf5780601f10611f9657610100808354040283529160200191611fbf565b820191905f5260205f20905b815481529060010190602001808311611fa257829003601f168201915b50505050508152602001600282018054611fd89061416d565b80601f01602080910402602001604051908101604052809291908181526020018280546120049061416d565b801561204f5780601f106120265761010080835404028352916020019161204f565b820191905f5260205f20905b81548152906001019060200180831161203257829003601f168201915b50505050508152602001600382015481526020016004820154815260200160058201548152602001600682015f9054906101000a900473ffffffffffffffffffffffffffffffffffffffff1673ffffffffffffffffffffffffffffffffffffffff1673ffffffffffffffffffffffffffffffffffffffff16815250509050919050565b5f6120db612206565b90508073ffffffffffffffffffffffffffffffffffffffff168673ffffffffffffffffffffffffffffffffffffffff1614158015612120575061211e8682611e7d565b155b156121645780866040517fe237d92200000000000000000000000000000000000000000000000000000000815260040161215b9291906144a4565b60405180910390fd5b61217186868686866125e9565b505050505050565b5f7f7965db0b000000000000000000000000000000000000000000000000000000007bffffffffffffffffffffffffffffffffffffffffffffffffffffffff1916827bffffffffffffffffffffffffffffffffffffffffffffffffffffffff191614806121eb57506121ea826128fa565b5b9050919050565b612203816121fe612206565b6129db565b50565b5f33905090565b5f73ffffffffffffffffffffffffffffffffffffffff168473ffffffffffffffffffffffffffffffffffffffff160361227d575f6040517f57f447ce000000000000000000000000000000000000000000000000000000008152600401612274919061489e565b60405180910390fd5b5f73ffffffffffffffffffffffffffffffffffffffff168573ffffffffffffffffffffffffffffffffffffffff16036122ed575f6040517f01a835140000000000000000000000000000000000000000000000000000000081526004016122e4919061489e565b60405180910390fd5b6122fa8585858585612a2c565b5050505050565b5f61230c8383610e42565b6123e157600160035f8581526020019081526020015f205f015f8473ffffffffffffffffffffffffffffffffffffffff1673ffffffffffffffffffffffffffffffffffffffff1681526020019081526020015f205f6101000a81548160ff02191690831515021790555061237e612206565b73ffffffffffffffffffffffffffffffffffffffff168273ffffffffffffffffffffffffffffffffffffffff16847f2f8788117e7eff1d82e926ec794901d17c78024a50270940304540a733656f0d60405160405180910390a4600190506123e5565b5f90505b92915050565b5f6123f68383610e42565b156124cb575f60035f8581526020019081526020015f205f015f8473ffffffffffffffffffffffffffffffffffffffff1673ffffffffffffffffffffffffffffffffffffffff1681526020019081526020015f205f6101000a81548160ff021916908315150217905550612468612206565b73ffffffffffffffffffffffffffffffffffffffff168273ffffffffffffffffffffffffffffffffffffffff16847ff6391f5c32d9c69d2a47ea670b442974b53935d1edc7fd64eb21e047a839171b60405160405180910390a4600190506124cf565b5f90505b92915050565b60026004540361251a576040517f08c379a000000000000000000000000000000000000000000000000000000000815260040161251190614901565b60405180910390fd5b6002600481905550565b6001600481905550565b5f60208202602084010151905092915050565b5f60208202602084010151905092915050565b5f73ffffffffffffffffffffffffffffffffffffffff168473ffffffffffffffffffffffffffffffffffffffff16036125c4575f6040517f57f447ce0000000000000000000000000000000000000000000000000000000081526004016125bb919061489e565b60405180910390fd5b5f806125d08585612ad8565b915091506125e15f87848487612a2c565b505050505050565b5f73ffffffffffffffffffffffffffffffffffffffff168473ffffffffffffffffffffffffffffffffffffffff1603612659575f6040517f57f447ce000000000000000000000000000000000000000000000000000000008152600401612650919061489e565b60405180910390fd5b5f73ffffffffffffffffffffffffffffffffffffffff168573ffffffffffffffffffffffffffffffffffffffff16036126c9575f6040517f01a835140000000000000000000000000000000000000000000000000000000081526004016126c0919061489e565b60405180910390fd5b5f806126d58585612ad8565b915091506126e68787848487612a2c565b50505050505050565b5f73ffffffffffffffffffffffffffffffffffffffff168373ffffffffffffffffffffffffffffffffffffffff160361275f575f6040517f01a83514000000000000000000000000000000000000000000000000000000008152600401612756919061489e565b60405180910390fd5b5f8061276b8484612ad8565b9150915061278a855f848460405180602001604052805f815250612a2c565b5050505050565b5f73ffffffffffffffffffffffffffffffffffffffff168273ffffffffffffffffffffffffffffffffffffffff1603612801575f6040517fced3e1000000000000000000000000000000000000000000000000000000000081526004016127f8919061489e565b60405180910390fd5b8060015f8573ffffffffffffffffffffffffffffffffffffffff1673ffffffffffffffffffffffffffffffffffffffff1681526020019081526020015f205f8473ffffffffffffffffffffffffffffffffffffffff1673ffffffffffffffffffffffffffffffffffffffff1681526020019081526020015f205f6101000a81548160ff0219169083151502179055508173ffffffffffffffffffffffffffffffffffffffff168373ffffffffffffffffffffffffffffffffffffffff167f17307eab39ab6107e8899845ad3d59bd9653f200f220920489ca2b5937696c31836040516128ed9190613491565b60405180910390a3505050565b5f7fd9b67a26000000000000000000000000000000000000000000000000000000007bffffffffffffffffffffffffffffffffffffffffffffffffffffffff1916827bffffffffffffffffffffffffffffffffffffffffffffffffffffffff191614806129c457507f0e89341c000000000000000000000000000000000000000000000000000000007bffffffffffffffffffffffffffffffffffffffffffffffffffffffff1916827bffffffffffffffffffffffffffffffffffffffffffffffffffffffff1916145b806129d457506129d382612b08565b5b9050919050565b6129e58282610e42565b612a285780826040517fe2517d3f000000000000000000000000000000000000000000000000000000008152600401612a1f92919061491f565b60405180910390fd5b5050565b612a3885858585612b71565b5f73ffffffffffffffffffffffffffffffffffffffff168473ffffffffffffffffffffffffffffffffffffffff1614612ad1575f612a74612206565b90506001845103612ac0575f612a935f8661254190919063ffffffff16565b90505f612aa95f8661254190919063ffffffff16565b9050612ab9838989858589612f01565b5050612acf565b612ace8187878787876130b0565b5b505b5050505050565b60608060405191506001825283602083015260408201905060018152826020820152604081016040529250929050565b5f7f01ffc9a7000000000000000000000000000000000000000000000000000000007bffffffffffffffffffffffffffffffffffffffffffffffffffffffff1916827bffffffffffffffffffffffffffffffffffffffffffffffffffffffff1916149050919050565b8051825114612bbb57815181516040517f5b059991000000000000000000000000000000000000000000000000000000008152600401612bb292919061447d565b60405180910390fd5b5f612bc4612206565b90505f5b8351811015612dc0575f612be5828661254190919063ffffffff16565b90505f612bfb838661254190919063ffffffff16565b90505f73ffffffffffffffffffffffffffffffffffffffff168873ffffffffffffffffffffffffffffffffffffffff1614612d1e575f805f8481526020019081526020015f205f8a73ffffffffffffffffffffffffffffffffffffffff1673ffffffffffffffffffffffffffffffffffffffff1681526020019081526020015f2054905081811015612cca57888183856040517f03dee4c5000000000000000000000000000000000000000000000000000000008152600401612cc19493929190614946565b60405180910390fd5b8181035f808581526020019081526020015f205f8b73ffffffffffffffffffffffffffffffffffffffff1673ffffffffffffffffffffffffffffffffffffffff1681526020019081526020015f2081905550505b5f73ffffffffffffffffffffffffffffffffffffffff168773ffffffffffffffffffffffffffffffffffffffff1614612db357805f808481526020019081526020015f205f8973ffffffffffffffffffffffffffffffffffffffff1673ffffffffffffffffffffffffffffffffffffffff1681526020019081526020015f205f828254612dab91906144cb565b925050819055505b5050806001019050612bc8565b506001835103612e7b575f612dde5f8561254190919063ffffffff16565b90505f612df45f8561254190919063ffffffff16565b90508573ffffffffffffffffffffffffffffffffffffffff168773ffffffffffffffffffffffffffffffffffffffff168473ffffffffffffffffffffffffffffffffffffffff167fc3d58168c5ae7397731d063d5bbf3d657854427343f4c083240f7aacaa2d0f628585604051612e6c92919061447d565b60405180910390a45050612efa565b8373ffffffffffffffffffffffffffffffffffffffff168573ffffffffffffffffffffffffffffffffffffffff168273ffffffffffffffffffffffffffffffffffffffff167f4a39dc06d4c0dbc64b70af90fd698a233a518aa5d07e595d983b8c0526c8f7fb8686604051612ef1929190614989565b60405180910390a45b5050505050565b5f8473ffffffffffffffffffffffffffffffffffffffff163b11156130a8578373ffffffffffffffffffffffffffffffffffffffff1663f23a6e6187878686866040518663ffffffff1660e01b8152600401612f619594939291906149be565b6020604051808303815f875af1925050508015612f9c57506040513d601f19601f82011682018060405250810190612f999190614a2a565b60015b61301d573d805f8114612fca576040519150601f19603f3d011682016040523d82523d5f602084013e612fcf565b606091505b505f81510361301557846040517f57f447ce00000000000000000000000000000000000000000000000000000000815260040161300c919061489e565b60405180910390fd5b805181602001fd5b63f23a6e6160e01b7bffffffffffffffffffffffffffffffffffffffffffffffffffffffff1916817bffffffffffffffffffffffffffffffffffffffffffffffffffffffff1916146130a657846040517f57f447ce00000000000000000000000000000000000000000000000000000000815260040161309d919061489e565b60405180910390fd5b505b505050505050565b5f8473ffffffffffffffffffffffffffffffffffffffff163b1115613257578373ffffffffffffffffffffffffffffffffffffffff1663bc197c8187878686866040518663ffffffff1660e01b8152600401613110959493929190614a55565b6020604051808303815f875af192505050801561314b57506040513d601f19601f820116820180604052508101906131489190614a2a565b60015b6131cc573d805f8114613179576040519150601f19603f3d011682016040523d82523d5f602084013e61317e565b606091505b505f8151036131c457846040517f57f447ce0000000000000000000000000000000000000000000000000000000081526004016131bb919061489e565b60405180910390fd5b805181602001fd5b63bc197c8160e01b7bffffffffffffffffffffffffffffffffffffffffffffffffffffffff1916817bffffffffffffffffffffffffffffffffffffffffffffffffffffffff19161461325557846040517f57f447ce00000000000000000000000000000000000000000000000000000000815260040161324c919061489e565b60405180910390fd5b505b505050505050565b60405180606001604052805f73ffffffffffffffffffffffffffffffffffffffff1681526020015f600381111561329957613298613ae6565b5b81526020015f81525090565b6040518060e001604052805f815260200160608152602001606081526020015f81526020015f81526020015f81526020015f73ffffffffffffffffffffffffffffffffffffffff1681525090565b5f604051905090565b5f80fd5b5f80fd5b5f73ffffffffffffffffffffffffffffffffffffffff82169050919050565b5f61332d82613304565b9050919050565b61333d81613323565b8114613347575f80fd5b50565b5f8135905061335881613334565b92915050565b5f819050919050565b6133708161335e565b811461337a575f80fd5b50565b5f8135905061338b81613367565b92915050565b5f80604083850312156133a7576133a66132fc565b5b5f6133b48582860161334a565b92505060206133c58582860161337d565b9150509250929050565b6133d88161335e565b82525050565b5f6020820190506133f15f8301846133cf565b92915050565b5f7fffffffff0000000000000000000000000000000000000000000000000000000082169050919050565b61342b816133f7565b8114613435575f80fd5b50565b5f8135905061344681613422565b92915050565b5f60208284031215613461576134606132fc565b5b5f61346e84828501613438565b91505092915050565b5f8115159050919050565b61348b81613477565b82525050565b5f6020820190506134a45f830184613482565b92915050565b5f602082840312156134bf576134be6132fc565b5b5f6134cc8482850161337d565b91505092915050565b5f81519050919050565b5f82825260208201905092915050565b8281835e5f83830152505050565b5f601f19601f8301169050919050565b5f613517826134d5565b61352181856134df565b93506135318185602086016134ef565b61353a816134fd565b840191505092915050565b5f6020820190508181035f83015261355d818461350d565b905092915050565b5f80fd5b5f80fd5b7f4e487b71000000000000000000000000000000000000000000000000000000005f52604160045260245ffd5b6135a3826134fd565b810181811067ffffffffffffffff821117156135c2576135c161356d565b5b80604052505050565b5f6135d46132f3565b90506135e0828261359a565b919050565b5f67ffffffffffffffff8211156135ff576135fe61356d565b5b613608826134fd565b9050602081019050919050565b828183375f83830152505050565b5f613635613630846135e5565b6135cb565b90508281526020810184848401111561365157613650613569565b5b61365c848285613615565b509392505050565b5f82601f83011261367857613677613565565b5b8135613688848260208601613623565b91505092915050565b5f805f80608085870312156136a9576136a86132fc565b5b5f85013567ffffffffffffffff8111156136c6576136c5613300565b5b6136d287828801613664565b945050602085013567ffffffffffffffff8111156136f3576136f2613300565b5b6136ff87828801613664565b93505060406137108782880161337d565b92505060606137218782880161337d565b91505092959194509250565b5f819050919050565b61373f8161372d565b8114613749575f80fd5b50565b5f8135905061375a81613736565b92915050565b5f60208284031215613775576137746132fc565b5b5f6137828482850161374c565b91505092915050565b6137948161372d565b82525050565b5f6020820190506137ad5f83018461378b565b92915050565b5f67ffffffffffffffff8211156137cd576137cc61356d565b5b602082029050602081019050919050565b5f80fd5b5f6137f46137ef846137b3565b6135cb565b90508083825260208201905060208402830185811115613817576138166137de565b5b835b81811015613840578061382c888261337d565b845260208401935050602081019050613819565b5050509392505050565b5f82601f83011261385e5761385d613565565b5b813561386e8482602086016137e2565b91505092915050565b5f67ffffffffffffffff8211156138915761389061356d565b5b61389a826134fd565b9050602081019050919050565b5f6138b96138b484613877565b6135cb565b9050828152602081018484840111156138d5576138d4613569565b5b6138e0848285613615565b509392505050565b5f82601f8301126138fc576138fb613565565b5b813561390c8482602086016138a7565b91505092915050565b5f805f805f60a0868803121561392e5761392d6132fc565b5b5f61393b8882890161334a565b955050602061394c8882890161334a565b945050604086013567ffffffffffffffff81111561396d5761396c613300565b5b6139798882890161384a565b935050606086013567ffffffffffffffff81111561399a57613999613300565b5b6139a68882890161384a565b925050608086013567ffffffffffffffff8111156139c7576139c6613300565b5b6139d3888289016138e8565b9150509295509295909350565b5f80604083850312156139f6576139f56132fc565b5b5f613a038582860161374c565b9250506020613a148582860161334a565b9150509250929050565b613a2781613323565b82525050565b5f60e082019050613a405f83018a6133cf565b8181036020830152613a52818961350d565b90508181036040830152613a66818861350d565b9050613a7560608301876133cf565b613a8260808301866133cf565b613a8f60a08301856133cf565b613a9c60c0830184613a1e565b98975050505050505050565b5f8060408385031215613abe57613abd6132fc565b5b5f613acb8582860161337d565b9250506020613adc8582860161337d565b9150509250929050565b7f4e487b71000000000000000000000000000000000000000000000000000000005f52602160045260245ffd5b60048110613b2457613b23613ae6565b5b50565b5f819050613b3482613b13565b919050565b5f613b4382613b27565b9050919050565b613b5381613b39565b82525050565b5f606082019050613b6c5f830186613a1e565b613b796020830185613b4a565b613b8660408301846133cf565b949350505050565b5f67ffffffffffffffff821115613ba857613ba761356d565b5b602082029050602081019050919050565b5f613bcb613bc684613b8e565b6135cb565b90508083825260208201905060208402830185811115613bee57613bed6137de565b5b835b81811015613c175780613c03888261334a565b845260208401935050602081019050613bf0565b5050509392505050565b5f82601f830112613c3557613c34613565565b5b8135613c45848260208601613bb9565b91505092915050565b5f8060408385031215613c6457613c636132fc565b5b5f83013567ffffffffffffffff811115613c8157613c80613300565b5b613c8d85828601613c21565b925050602083013567ffffffffffffffff811115613cae57613cad613300565b5b613cba8582860161384a565b9150509250929050565b5f81519050919050565b5f82825260208201905092915050565b5f819050602082019050919050565b613cf68161335e565b82525050565b5f613d078383613ced565b60208301905092915050565b5f602082019050919050565b5f613d2982613cc4565b613d338185613cce565b9350613d3e83613cde565b805f5b83811015613d6e578151613d558882613cfc565b9750613d6083613d13565b925050600181019050613d41565b5085935050505092915050565b5f6020820190508181035f830152613d938184613d1f565b905092915050565b613da481613477565b8114613dae575f80fd5b50565b5f81359050613dbf81613d9b565b92915050565b5f805f60608486031215613ddc57613ddb6132fc565b5b5f613de98682870161337d565b9350506020613dfa8682870161337d565b9250506040613e0b86828701613db1565b9150509250925092565b5f8060408385031215613e2b57613e2a6132fc565b5b5f613e388582860161334a565b9250506020613e4985828601613db1565b9150509250929050565b5f60208284031215613e6857613e676132fc565b5b5f613e758482850161334a565b91505092915050565b5f81519050919050565b5f82825260208201905092915050565b5f613ea282613e7e565b613eac8185613e88565b9350613ebc8185602086016134ef565b613ec5816134fd565b840191505092915050565b5f6020820190508181035f830152613ee88184613e98565b905092915050565b613ef981613323565b82525050565b613f0881613b39565b82525050565b606082015f820151613f225f850182613ef0565b506020820151613f356020850182613eff565b506040820151613f486040850182613ced565b50505050565b5f606082019050613f615f830184613f0e565b92915050565b5f8060408385031215613f7d57613f7c6132fc565b5b5f613f8a8582860161334a565b9250506020613f9b8582860161334a565b9150509250929050565b5f82825260208201905092915050565b5f613fbf826134d5565b613fc98185613fa5565b9350613fd98185602086016134ef565b613fe2816134fd565b840191505092915050565b5f60e083015f8301516140025f860182613ced565b506020830151848203602086015261401a8282613fb5565b915050604083015184820360408601526140348282613fb5565b91505060608301516140496060860182613ced565b50608083015161405c6080860182613ced565b5060a083015161406f60a0860182613ced565b5060c083015161408260c0860182613ef0565b508091505092915050565b5f6020820190508181035f8301526140a58184613fed565b905092915050565b5f805f805f60a086880312156140c6576140c56132fc565b5b5f6140d38882890161334a565b95505060206140e48882890161334a565b94505060406140f58882890161337d565b93505060606141068882890161337d565b925050608086013567ffffffffffffffff81111561412757614126613300565b5b614133888289016138e8565b9150509295509295909350565b7f4e487b71000000000000000000000000000000000000000000000000000000005f52602260045260245ffd5b5f600282049050600182168061418457607f821691505b60208210810361419757614196614140565b5b50919050565b7f4e487b71000000000000000000000000000000000000000000000000000000005f52601160045260245ffd5b5f6141d48261335e565b91507fffffffffffffffffffffffffffffffffffffffffffffffffffffffffffffffff82036142065761420561419d565b5b600182019050919050565b5f819050815f5260205f209050919050565b5f6020601f8301049050919050565b5f82821b905092915050565b5f6008830261426d7fffffffffffffffffffffffffffffffffffffffffffffffffffffffffffffffff82614232565b6142778683614232565b95508019841693508086168417925050509392505050565b5f819050919050565b5f6142b26142ad6142a88461335e565b61428f565b61335e565b9050919050565b5f819050919050565b6142cb83614298565b6142df6142d7826142b9565b84845461423e565b825550505050565b5f90565b6142f36142e7565b6142fe8184846142c2565b505050565b5b81811015614321576143165f826142eb565b600181019050614304565b5050565b601f8211156143665761433781614211565b61434084614223565b8101602085101561434f578190505b61436361435b85614223565b830182614303565b50505b505050565b5f82821c905092915050565b5f6143865f198460080261436b565b1980831691505092915050565b5f61439e8383614377565b9150826002028217905092915050565b6143b7826134d5565b67ffffffffffffffff8111156143d0576143cf61356d565b5b6143da825461416d565b6143e5828285614325565b5f60209050601f831160018114614416575f8415614404578287015190505b61440e8582614393565b865550614475565b601f19841661442486614211565b5f5b8281101561444b57848901518255600182019150602085019450602081019050614426565b868310156144685784890151614464601f891682614377565b8355505b6001600288020188555050505b505050505050565b5f6040820190506144905f8301856133cf565b61449d60208301846133cf565b9392505050565b5f6040820190506144b75f830185613a1e565b6144c46020830184613a1e565b9392505050565b5f6144d58261335e565b91506144e08361335e565b92508282019050808211156144f8576144f761419d565b5b92915050565b7f4e487b71000000000000000000000000000000000000000000000000000000005f52603260045260245ffd5b7f496e73756666696369656e74206465706f7369740000000000000000000000005f82015250565b5f61455f6014836134df565b915061456a8261452b565b602082019050919050565b5f6020820190508181035f83015261458c81614553565b9050919050565b5f61459d8261335e565b91506145a88361335e565b92508282039050818111156145c0576145bf61419d565b5b92915050565b7f496e76616c696420707572636861736520696e646578000000000000000000005f82015250565b5f6145fa6016836134df565b9150614605826145c6565b602082019050919050565b5f6020820190508181035f830152614627816145ee565b9050919050565b7f5075726368617365206e6f7420696e20646973707574650000000000000000005f82015250565b5f6146626017836134df565b915061466d8261462e565b602082019050919050565b5f6020820190508181035f83015261468f81614656565b9050919050565b5f6146a08261335e565b91506146ab8361335e565b92508282026146b98161335e565b915082820484148315176146d0576146cf61419d565b5b5092915050565b5f6040820190506146ea5f8301856133cf565b6146f76020830184613482565b9392505050565b7f43616c6c6572206973206e6f74207468652062757965720000000000000000005f82015250565b5f6147326017836134df565b915061473d826146fe565b602082019050919050565b5f6020820190508181035f83015261475f81614726565b9050919050565b7f5075726368617365206e6f7420616374697665000000000000000000000000005f82015250565b5f61479a6013836134df565b91506147a582614766565b602082019050919050565b5f6020820190508181035f8301526147c78161478e565b9050919050565b7f416c6c204e465473206d696e74656400000000000000000000000000000000005f82015250565b5f614802600f836134df565b915061480d826147ce565b602082019050919050565b5f6020820190508181035f83015261482f816147f6565b9050919050565b7f417274697374206465706f73697420696e73756666696369656e7400000000005f82015250565b5f61486a601b836134df565b915061487582614836565b602082019050919050565b5f6020820190508181035f8301526148978161485e565b9050919050565b5f6020820190506148b15f830184613a1e565b92915050565b7f5265656e7472616e637947756172643a207265656e7472616e742063616c6c005f82015250565b5f6148eb601f836134df565b91506148f6826148b7565b602082019050919050565b5f6020820190508181035f830152614918816148df565b9050919050565b5f6040820190506149325f830185613a1e565b61493f602083018461378b565b9392505050565b5f6080820190506149595f830187613a1e565b61496660208301866133cf565b61497360408301856133cf565b61498060608301846133cf565b95945050505050565b5f6040820190508181035f8301526149a18185613d1f565b905081810360208301526149b58184613d1f565b90509392505050565b5f60a0820190506149d15f830188613a1e565b6149de6020830187613a1e565b6149eb60408301866133cf565b6149f860608301856133cf565b8181036080830152614a0a8184613e98565b90509695505050505050565b5f81519050614a2481613422565b92915050565b5f60208284031215614a3f57614a3e6132fc565b5b5f614a4c84828501614a16565b91505092915050565b5f60a082019050614a685f830188613a1e565b614a756020830187613a1e565b8181036040830152614a878186613d1f565b90508181036060830152614a9b8185613d1f565b90508181036080830152614aaf8184613e98565b9050969550505050505056fea2646970667358221220ccb4b67d913e47a164e33f1a217f091c4ebdc0aee07fcf344fffd9ef8f42feee64736f6c634300081a0033",
			"opcodes": "PUSH1 0x80 PUSH1 0x40 MSTORE CALLVALUE DUP1 ISZERO PUSH2 0xF JUMPI PUSH0 DUP1 REVERT JUMPDEST POP PUSH1 0x40 MLOAD PUSH2 0x5145 CODESIZE SUB DUP1 PUSH2 0x5145 DUP4 CODECOPY DUP2 DUP2 ADD PUSH1 0x40 MSTORE DUP2 ADD SWAP1 PUSH2 0x31 SWAP2 SWAP1 PUSH2 0x324 JUMP JUMPDEST DUP1 PUSH2 0x41 DUP2 PUSH2 0x63 PUSH1 0x20 SHL PUSH1 0x20 SHR JUMP JUMPDEST POP PUSH1 0x1 PUSH1 0x4 DUP2 SWAP1 SSTORE POP PUSH2 0x5C PUSH0 DUP1 SHL CALLER PUSH2 0x76 PUSH1 0x20 SHL PUSH1 0x20 SHR JUMP JUMPDEST POP POP PUSH2 0x647 JUMP JUMPDEST DUP1 PUSH1 0x2 SWAP1 DUP2 PUSH2 0x72 SWAP2 SWAP1 PUSH2 0x578 JUMP JUMPDEST POP POP JUMP JUMPDEST PUSH0 PUSH2 0x87 DUP4 DUP4 PUSH2 0x16C PUSH1 0x20 SHL PUSH1 0x20 SHR JUMP JUMPDEST PUSH2 0x162 JUMPI PUSH1 0x1 PUSH1 0x3 PUSH0 DUP6 DUP2 MSTORE PUSH1 0x20 ADD SWAP1 DUP2 MSTORE PUSH1 0x20 ADD PUSH0 KECCAK256 PUSH0 ADD PUSH0 DUP5 PUSH20 0xFFFFFFFFFFFFFFFFFFFFFFFFFFFFFFFFFFFFFFFF AND PUSH20 0xFFFFFFFFFFFFFFFFFFFFFFFFFFFFFFFFFFFFFFFF AND DUP2 MSTORE PUSH1 0x20 ADD SWAP1 DUP2 MSTORE PUSH1 0x20 ADD PUSH0 KECCAK256 PUSH0 PUSH2 0x100 EXP DUP2 SLOAD DUP2 PUSH1 0xFF MUL NOT AND SWAP1 DUP4 ISZERO ISZERO MUL OR SWAP1 SSTORE POP PUSH2 0xFF PUSH2 0x1D0 PUSH1 0x20 SHL PUSH1 0x20 SHR JUMP JUMPDEST PUSH20 0xFFFFFFFFFFFFFFFFFFFFFFFFFFFFFFFFFFFFFFFF AND DUP3 PUSH20 0xFFFFFFFFFFFFFFFFFFFFFFFFFFFFFFFFFFFFFFFF AND DUP5 PUSH32 0x2F8788117E7EFF1D82E926EC794901D17C78024A50270940304540A733656F0D PUSH1 0x40 MLOAD PUSH1 0x40 MLOAD DUP1 SWAP2 SUB SWAP1 LOG4 PUSH1 0x1 SWAP1 POP PUSH2 0x166 JUMP JUMPDEST PUSH0 SWAP1 POP JUMPDEST SWAP3 SWAP2 POP POP JUMP JUMPDEST PUSH0 PUSH1 0x3 PUSH0 DUP5 DUP2 MSTORE PUSH1 0x20 ADD SWAP1 DUP2 MSTORE PUSH1 0x20 ADD PUSH0 KECCAK256 PUSH0 ADD PUSH0 DUP4 PUSH20 0xFFFFFFFFFFFFFFFFFFFFFFFFFFFFFFFFFFFFFFFF AND PUSH20 0xFFFFFFFFFFFFFFFFFFFFFFFFFFFFFFFFFFFFFFFF AND DUP2 MSTORE PUSH1 0x20 ADD SWAP1 DUP2 MSTORE PUSH1 0x20 ADD PUSH0 KECCAK256 PUSH0 SWAP1 SLOAD SWAP1 PUSH2 0x100 EXP SWAP1 DIV PUSH1 0xFF AND SWAP1 POP SWAP3 SWAP2 POP POP JUMP JUMPDEST PUSH0 CALLER SWAP1 POP SWAP1 JUMP JUMPDEST PUSH0 PUSH1 0x40 MLOAD SWAP1 POP SWAP1 JUMP JUMPDEST PUSH0 DUP1 REVERT JUMPDEST PUSH0 DUP1 REVERT JUMPDEST PUSH0 DUP1 REVERT JUMPDEST PUSH0 DUP1 REVERT JUMPDEST PUSH0 PUSH1 0x1F NOT PUSH1 0x1F DUP4 ADD AND SWAP1 POP SWAP2 SWAP1 POP JUMP JUMPDEST PUSH32 0x4E487B7100000000000000000000000000000000000000000000000000000000 PUSH0 MSTORE PUSH1 0x41 PUSH1 0x4 MSTORE PUSH1 0x24 PUSH0 REVERT JUMPDEST PUSH2 0x236 DUP3 PUSH2 0x1F0 JUMP JUMPDEST DUP2 ADD DUP2 DUP2 LT PUSH8 0xFFFFFFFFFFFFFFFF DUP3 GT OR ISZERO PUSH2 0x255 JUMPI PUSH2 0x254 PUSH2 0x200 JUMP JUMPDEST JUMPDEST DUP1 PUSH1 0x40 MSTORE POP POP POP JUMP JUMPDEST PUSH0 PUSH2 0x267 PUSH2 0x1D7 JUMP JUMPDEST SWAP1 POP PUSH2 0x273 DUP3 DUP3 PUSH2 0x22D JUMP JUMPDEST SWAP2 SWAP1 POP JUMP JUMPDEST PUSH0 PUSH8 0xFFFFFFFFFFFFFFFF DUP3 GT ISZERO PUSH2 0x292 JUMPI PUSH2 0x291 PUSH2 0x200 JUMP JUMPDEST JUMPDEST PUSH2 0x29B DUP3 PUSH2 0x1F0 JUMP JUMPDEST SWAP1 POP PUSH1 0x20 DUP2 ADD SWAP1 POP SWAP2 SWAP1 POP JUMP JUMPDEST DUP3 DUP2 DUP4 MCOPY PUSH0 DUP4 DUP4 ADD MSTORE POP POP POP JUMP JUMPDEST PUSH0 PUSH2 0x2C8 PUSH2 0x2C3 DUP5 PUSH2 0x278 JUMP JUMPDEST PUSH2 0x25E JUMP JUMPDEST SWAP1 POP DUP3 DUP2 MSTORE PUSH1 0x20 DUP2 ADD DUP5 DUP5 DUP5 ADD GT ISZERO PUSH2 0x2E4 JUMPI PUSH2 0x2E3 PUSH2 0x1EC JUMP JUMPDEST JUMPDEST PUSH2 0x2EF DUP5 DUP3 DUP6 PUSH2 0x2A8 JUMP JUMPDEST POP SWAP4 SWAP3 POP POP POP JUMP JUMPDEST PUSH0 DUP3 PUSH1 0x1F DUP4 ADD SLT PUSH2 0x30B JUMPI PUSH2 0x30A PUSH2 0x1E8 JUMP JUMPDEST JUMPDEST DUP2 MLOAD PUSH2 0x31B DUP5 DUP3 PUSH1 0x20 DUP7 ADD PUSH2 0x2B6 JUMP JUMPDEST SWAP2 POP POP SWAP3 SWAP2 POP POP JUMP JUMPDEST PUSH0 PUSH1 0x20 DUP3 DUP5 SUB SLT ISZERO PUSH2 0x339 JUMPI PUSH2 0x338 PUSH2 0x1E0 JUMP JUMPDEST JUMPDEST PUSH0 DUP3 ADD MLOAD PUSH8 0xFFFFFFFFFFFFFFFF DUP2 GT ISZERO PUSH2 0x356 JUMPI PUSH2 0x355 PUSH2 0x1E4 JUMP JUMPDEST JUMPDEST PUSH2 0x362 DUP5 DUP3 DUP6 ADD PUSH2 0x2F7 JUMP JUMPDEST SWAP2 POP POP SWAP3 SWAP2 POP POP JUMP JUMPDEST PUSH0 DUP2 MLOAD SWAP1 POP SWAP2 SWAP1 POP JUMP JUMPDEST PUSH32 0x4E487B7100000000000000000000000000000000000000000000000000000000 PUSH0 MSTORE PUSH1 0x22 PUSH1 0x4 MSTORE PUSH1 0x24 PUSH0 REVERT JUMPDEST PUSH0 PUSH1 0x2 DUP3 DIV SWAP1 POP PUSH1 0x1 DUP3 AND DUP1 PUSH2 0x3B9 JUMPI PUSH1 0x7F DUP3 AND SWAP2 POP JUMPDEST PUSH1 0x20 DUP3 LT DUP2 SUB PUSH2 0x3CC JUMPI PUSH2 0x3CB PUSH2 0x375 JUMP JUMPDEST JUMPDEST POP SWAP2 SWAP1 POP JUMP JUMPDEST PUSH0 DUP2 SWAP1 POP DUP2 PUSH0 MSTORE PUSH1 0x20 PUSH0 KECCAK256 SWAP1 POP SWAP2 SWAP1 POP JUMP JUMPDEST PUSH0 PUSH1 0x20 PUSH1 0x1F DUP4 ADD DIV SWAP1 POP SWAP2 SWAP1 POP JUMP JUMPDEST PUSH0 DUP3 DUP3 SHL SWAP1 POP SWAP3 SWAP2 POP POP JUMP JUMPDEST PUSH0 PUSH1 0x8 DUP4 MUL PUSH2 0x42E PUSH32 0xFFFFFFFFFFFFFFFFFFFFFFFFFFFFFFFFFFFFFFFFFFFFFFFFFFFFFFFFFFFFFFFF DUP3 PUSH2 0x3F3 JUMP JUMPDEST PUSH2 0x438 DUP7 DUP4 PUSH2 0x3F3 JUMP JUMPDEST SWAP6 POP DUP1 NOT DUP5 AND SWAP4 POP DUP1 DUP7 AND DUP5 OR SWAP3 POP POP POP SWAP4 SWAP3 POP POP POP JUMP JUMPDEST PUSH0 DUP2 SWAP1 POP SWAP2 SWAP1 POP JUMP JUMPDEST PUSH0 DUP2 SWAP1 POP SWAP2 SWAP1 POP JUMP JUMPDEST PUSH0 PUSH2 0x47C PUSH2 0x477 PUSH2 0x472 DUP5 PUSH2 0x450 JUMP JUMPDEST PUSH2 0x459 JUMP JUMPDEST PUSH2 0x450 JUMP JUMPDEST SWAP1 POP SWAP2 SWAP1 POP JUMP JUMPDEST PUSH0 DUP2 SWAP1 POP SWAP2 SWAP1 POP JUMP JUMPDEST PUSH2 0x495 DUP4 PUSH2 0x462 JUMP JUMPDEST PUSH2 0x4A9 PUSH2 0x4A1 DUP3 PUSH2 0x483 JUMP JUMPDEST DUP5 DUP5 SLOAD PUSH2 0x3FF JUMP JUMPDEST DUP3 SSTORE POP POP POP POP JUMP JUMPDEST PUSH0 SWAP1 JUMP JUMPDEST PUSH2 0x4BD PUSH2 0x4B1 JUMP JUMPDEST PUSH2 0x4C8 DUP2 DUP5 DUP5 PUSH2 0x48C JUMP JUMPDEST POP POP POP JUMP JUMPDEST JUMPDEST DUP2 DUP2 LT ISZERO PUSH2 0x4EB JUMPI PUSH2 0x4E0 PUSH0 DUP3 PUSH2 0x4B5 JUMP JUMPDEST PUSH1 0x1 DUP2 ADD SWAP1 POP PUSH2 0x4CE JUMP JUMPDEST POP POP JUMP JUMPDEST PUSH1 0x1F DUP3 GT ISZERO PUSH2 0x530 JUMPI PUSH2 0x501 DUP2 PUSH2 0x3D2 JUMP JUMPDEST PUSH2 0x50A DUP5 PUSH2 0x3E4 JUMP JUMPDEST DUP2 ADD PUSH1 0x20 DUP6 LT ISZERO PUSH2 0x519 JUMPI DUP2 SWAP1 POP JUMPDEST PUSH2 0x52D PUSH2 0x525 DUP6 PUSH2 0x3E4 JUMP JUMPDEST DUP4 ADD DUP3 PUSH2 0x4CD JUMP JUMPDEST POP POP JUMPDEST POP POP POP JUMP JUMPDEST PUSH0 DUP3 DUP3 SHR SWAP1 POP SWAP3 SWAP2 POP POP JUMP JUMPDEST PUSH0 PUSH2 0x550 PUSH0 NOT DUP5 PUSH1 0x8 MUL PUSH2 0x535 JUMP JUMPDEST NOT DUP1 DUP4 AND SWAP2 POP POP SWAP3 SWAP2 POP POP JUMP JUMPDEST PUSH0 PUSH2 0x568 DUP4 DUP4 PUSH2 0x541 JUMP JUMPDEST SWAP2 POP DUP3 PUSH1 0x2 MUL DUP3 OR SWAP1 POP SWAP3 SWAP2 POP POP JUMP JUMPDEST PUSH2 0x581 DUP3 PUSH2 0x36B JUMP JUMPDEST PUSH8 0xFFFFFFFFFFFFFFFF DUP2 GT ISZERO PUSH2 0x59A JUMPI PUSH2 0x599 PUSH2 0x200 JUMP JUMPDEST JUMPDEST PUSH2 0x5A4 DUP3 SLOAD PUSH2 0x3A2 JUMP JUMPDEST PUSH2 0x5AF DUP3 DUP3 DUP6 PUSH2 0x4EF JUMP JUMPDEST PUSH0 PUSH1 0x20 SWAP1 POP PUSH1 0x1F DUP4 GT PUSH1 0x1 DUP2 EQ PUSH2 0x5E0 JUMPI PUSH0 DUP5 ISZERO PUSH2 0x5CE JUMPI DUP3 DUP8 ADD MLOAD SWAP1 POP JUMPDEST PUSH2 0x5D8 DUP6 DUP3 PUSH2 0x55D JUMP JUMPDEST DUP7 SSTORE POP PUSH2 0x63F JUMP JUMPDEST PUSH1 0x1F NOT DUP5 AND PUSH2 0x5EE DUP7 PUSH2 0x3D2 JUMP JUMPDEST PUSH0 JUMPDEST DUP3 DUP2 LT ISZERO PUSH2 0x615 JUMPI DUP5 DUP10 ADD MLOAD DUP3 SSTORE PUSH1 0x1 DUP3 ADD SWAP2 POP PUSH1 0x20 DUP6 ADD SWAP5 POP PUSH1 0x20 DUP2 ADD SWAP1 POP PUSH2 0x5F0 JUMP JUMPDEST DUP7 DUP4 LT ISZERO PUSH2 0x632 JUMPI DUP5 DUP10 ADD MLOAD PUSH2 0x62E PUSH1 0x1F DUP10 AND DUP3 PUSH2 0x541 JUMP JUMPDEST DUP4 SSTORE POP JUMPDEST PUSH1 0x1 PUSH1 0x2 DUP9 MUL ADD DUP9 SSTORE POP POP POP JUMPDEST POP POP POP POP POP POP JUMP JUMPDEST PUSH2 0x4AF1 DUP1 PUSH2 0x654 PUSH0 CODECOPY PUSH0 RETURN INVALID PUSH1 0x80 PUSH1 0x40 MSTORE CALLVALUE DUP1 ISZERO PUSH2 0xF JUMPI PUSH0 DUP1 REVERT JUMPDEST POP PUSH1 0x4 CALLDATASIZE LT PUSH2 0x1E2 JUMPI PUSH0 CALLDATALOAD PUSH1 0xE0 SHR DUP1 PUSH4 0x95B7DDE0 GT PUSH2 0x10D JUMPI DUP1 PUSH4 0xB89571C7 GT PUSH2 0xA0 JUMPI DUP1 PUSH4 0xE8DBB9C5 GT PUSH2 0x6F JUMPI DUP1 PUSH4 0xE8DBB9C5 EQ PUSH2 0x5DA JUMPI DUP1 PUSH4 0xE985E9C5 EQ PUSH2 0x5F8 JUMPI DUP1 PUSH4 0xF1F201E8 EQ PUSH2 0x628 JUMPI DUP1 PUSH4 0xF242432A EQ PUSH2 0x658 JUMPI PUSH2 0x1E2 JUMP JUMPDEST DUP1 PUSH4 0xB89571C7 EQ PUSH2 0x556 JUMPI DUP1 PUSH4 0xD547741F EQ PUSH2 0x572 JUMPI DUP1 PUSH4 0xDA47635D EQ PUSH2 0x58E JUMPI DUP1 PUSH4 0xE82F4062 EQ PUSH2 0x5BE JUMPI PUSH2 0x1E2 JUMP JUMPDEST DUP1 PUSH4 0xA22CB465 GT PUSH2 0xDC JUMPI DUP1 PUSH4 0xA22CB465 EQ PUSH2 0x4BC JUMPI DUP1 PUSH4 0xA3D6F9A9 EQ PUSH2 0x4D8 JUMPI DUP1 PUSH4 0xA966A0DF EQ PUSH2 0x508 JUMPI DUP1 PUSH4 0xAC76E521 EQ PUSH2 0x526 JUMPI PUSH2 0x1E2 JUMP JUMPDEST DUP1 PUSH4 0x95B7DDE0 EQ PUSH2 0x448 JUMPI DUP1 PUSH4 0x9CEA0787 EQ PUSH2 0x464 JUMPI DUP1 PUSH4 0x9E56F275 EQ PUSH2 0x482 JUMPI DUP1 PUSH4 0xA217FDDF EQ PUSH2 0x49E JUMPI PUSH2 0x1E2 JUMP JUMPDEST DUP1 PUSH4 0x2F2FF15D GT PUSH2 0x185 JUMPI DUP1 PUSH4 0x4BC9DB85 GT PUSH2 0x154 JUMPI DUP1 PUSH4 0x4BC9DB85 EQ PUSH2 0x39A JUMPI DUP1 PUSH4 0x4E1273F4 EQ PUSH2 0x3CC JUMPI DUP1 PUSH4 0x66367B77 EQ PUSH2 0x3FC JUMPI DUP1 PUSH4 0x91D14854 EQ PUSH2 0x418 JUMPI PUSH2 0x1E2 JUMP JUMPDEST DUP1 PUSH4 0x2F2FF15D EQ PUSH2 0x310 JUMPI DUP1 PUSH4 0x36568ABE EQ PUSH2 0x32C JUMPI DUP1 PUSH4 0x3CDD2C1F EQ PUSH2 0x348 JUMPI DUP1 PUSH4 0x4B602673 EQ PUSH2 0x364 JUMPI PUSH2 0x1E2 JUMP JUMPDEST DUP1 PUSH4 0x18B6DCBC GT PUSH2 0x1C1 JUMPI DUP1 PUSH4 0x18B6DCBC EQ PUSH2 0x276 JUMPI DUP1 PUSH4 0x237F1509 EQ PUSH2 0x294 JUMPI DUP1 PUSH4 0x248A9CA3 EQ PUSH2 0x2C4 JUMPI DUP1 PUSH4 0x2EB2C2D6 EQ PUSH2 0x2F4 JUMPI PUSH2 0x1E2 JUMP JUMPDEST DUP1 PUSH3 0xFDD58E EQ PUSH2 0x1E6 JUMPI DUP1 PUSH4 0x1FFC9A7 EQ PUSH2 0x216 JUMPI DUP1 PUSH4 0xE89341C EQ PUSH2 0x246 JUMPI JUMPDEST PUSH0 DUP1 REVERT JUMPDEST PUSH2 0x200 PUSH1 0x4 DUP1 CALLDATASIZE SUB DUP2 ADD SWAP1 PUSH2 0x1FB SWAP2 SWAP1 PUSH2 0x3391 JUMP JUMPDEST PUSH2 0x674 JUMP JUMPDEST PUSH1 0x40 MLOAD PUSH2 0x20D SWAP2 SWAP1 PUSH2 0x33DE JUMP JUMPDEST PUSH1 0x40 MLOAD DUP1 SWAP2 SUB SWAP1 RETURN JUMPDEST PUSH2 0x230 PUSH1 0x4 DUP1 CALLDATASIZE SUB DUP2 ADD SWAP1 PUSH2 0x22B SWAP2 SWAP1 PUSH2 0x344C JUMP JUMPDEST PUSH2 0x6C9 JUMP JUMPDEST PUSH1 0x40 MLOAD PUSH2 0x23D SWAP2 SWAP1 PUSH2 0x3491 JUMP JUMPDEST PUSH1 0x40 MLOAD DUP1 SWAP2 SUB SWAP1 RETURN JUMPDEST PUSH2 0x260 PUSH1 0x4 DUP1 CALLDATASIZE SUB DUP2 ADD SWAP1 PUSH2 0x25B SWAP2 SWAP1 PUSH2 0x34AA JUMP JUMPDEST PUSH2 0x6DA JUMP JUMPDEST PUSH1 0x40 MLOAD PUSH2 0x26D SWAP2 SWAP1 PUSH2 0x3545 JUMP JUMPDEST PUSH1 0x40 MLOAD DUP1 SWAP2 SUB SWAP1 RETURN JUMPDEST PUSH2 0x27E PUSH2 0x76C JUMP JUMPDEST PUSH1 0x40 MLOAD PUSH2 0x28B SWAP2 SWAP1 PUSH2 0x33DE JUMP JUMPDEST PUSH1 0x40 MLOAD DUP1 SWAP2 SUB SWAP1 RETURN JUMPDEST PUSH2 0x2AE PUSH1 0x4 DUP1 CALLDATASIZE SUB DUP2 ADD SWAP1 PUSH2 0x2A9 SWAP2 SWAP1 PUSH2 0x3691 JUMP JUMPDEST PUSH2 0x772 JUMP JUMPDEST PUSH1 0x40 MLOAD PUSH2 0x2BB SWAP2 SWAP1 PUSH2 0x33DE JUMP JUMPDEST PUSH1 0x40 MLOAD DUP1 SWAP2 SUB SWAP1 RETURN JUMPDEST PUSH2 0x2DE PUSH1 0x4 DUP1 CALLDATASIZE SUB DUP2 ADD SWAP1 PUSH2 0x2D9 SWAP2 SWAP1 PUSH2 0x3760 JUMP JUMPDEST PUSH2 0x90C JUMP JUMPDEST PUSH1 0x40 MLOAD PUSH2 0x2EB SWAP2 SWAP1 PUSH2 0x379A JUMP JUMPDEST PUSH1 0x40 MLOAD DUP1 SWAP2 SUB SWAP1 RETURN JUMPDEST PUSH2 0x30E PUSH1 0x4 DUP1 CALLDATASIZE SUB DUP2 ADD SWAP1 PUSH2 0x309 SWAP2 SWAP1 PUSH2 0x3915 JUMP JUMPDEST PUSH2 0x929 JUMP JUMPDEST STOP JUMPDEST PUSH2 0x32A PUSH1 0x4 DUP1 CALLDATASIZE SUB DUP2 ADD SWAP1 PUSH2 0x325 SWAP2 SWAP1 PUSH2 0x39E0 JUMP JUMPDEST PUSH2 0x9D0 JUMP JUMPDEST STOP JUMPDEST PUSH2 0x346 PUSH1 0x4 DUP1 CALLDATASIZE SUB DUP2 ADD SWAP1 PUSH2 0x341 SWAP2 SWAP1 PUSH2 0x39E0 JUMP JUMPDEST PUSH2 0x9F2 JUMP JUMPDEST STOP JUMPDEST PUSH2 0x362 PUSH1 0x4 DUP1 CALLDATASIZE SUB DUP2 ADD SWAP1 PUSH2 0x35D SWAP2 SWAP1 PUSH2 0x34AA JUMP JUMPDEST PUSH2 0xA6D JUMP JUMPDEST STOP JUMPDEST PUSH2 0x37E PUSH1 0x4 DUP1 CALLDATASIZE SUB DUP2 ADD SWAP1 PUSH2 0x379 SWAP2 SWAP1 PUSH2 0x34AA JUMP JUMPDEST PUSH2 0xB3C JUMP JUMPDEST PUSH1 0x40 MLOAD PUSH2 0x391 SWAP8 SWAP7 SWAP6 SWAP5 SWAP4 SWAP3 SWAP2 SWAP1 PUSH2 0x3A2D JUMP JUMPDEST PUSH1 0x40 MLOAD DUP1 SWAP2 SUB SWAP1 RETURN JUMPDEST PUSH2 0x3B4 PUSH1 0x4 DUP1 CALLDATASIZE SUB DUP2 ADD SWAP1 PUSH2 0x3AF SWAP2 SWAP1 PUSH2 0x3AA8 JUMP JUMPDEST PUSH2 0xCA5 JUMP JUMPDEST PUSH1 0x40 MLOAD PUSH2 0x3C3 SWAP4 SWAP3 SWAP2 SWAP1 PUSH2 0x3B59 JUMP JUMPDEST PUSH1 0x40 MLOAD DUP1 SWAP2 SUB SWAP1 RETURN JUMPDEST PUSH2 0x3E6 PUSH1 0x4 DUP1 CALLDATASIZE SUB DUP2 ADD SWAP1 PUSH2 0x3E1 SWAP2 SWAP1 PUSH2 0x3C4E JUMP JUMPDEST PUSH2 0xD10 JUMP JUMPDEST PUSH1 0x40 MLOAD PUSH2 0x3F3 SWAP2 SWAP1 PUSH2 0x3D7B JUMP JUMPDEST PUSH1 0x40 MLOAD DUP1 SWAP2 SUB SWAP1 RETURN JUMPDEST PUSH2 0x416 PUSH1 0x4 DUP1 CALLDATASIZE SUB DUP2 ADD SWAP1 PUSH2 0x411 SWAP2 SWAP1 PUSH2 0x3391 JUMP JUMPDEST PUSH2 0xE17 JUMP JUMPDEST STOP JUMPDEST PUSH2 0x432 PUSH1 0x4 DUP1 CALLDATASIZE SUB DUP2 ADD SWAP1 PUSH2 0x42D SWAP2 SWAP1 PUSH2 0x39E0 JUMP JUMPDEST PUSH2 0xE42 JUMP JUMPDEST PUSH1 0x40 MLOAD PUSH2 0x43F SWAP2 SWAP1 PUSH2 0x3491 JUMP JUMPDEST PUSH1 0x40 MLOAD DUP1 SWAP2 SUB SWAP1 RETURN JUMPDEST PUSH2 0x462 PUSH1 0x4 DUP1 CALLDATASIZE SUB DUP2 ADD SWAP1 PUSH2 0x45D SWAP2 SWAP1 PUSH2 0x34AA JUMP JUMPDEST PUSH2 0xEA6 JUMP JUMPDEST STOP JUMPDEST PUSH2 0x46C PUSH2 0xFF5 JUMP JUMPDEST PUSH1 0x40 MLOAD PUSH2 0x479 SWAP2 SWAP1 PUSH2 0x379A JUMP JUMPDEST PUSH1 0x40 MLOAD DUP1 SWAP2 SUB SWAP1 RETURN JUMPDEST PUSH2 0x49C PUSH1 0x4 DUP1 CALLDATASIZE SUB DUP2 ADD SWAP1 PUSH2 0x497 SWAP2 SWAP1 PUSH2 0x3DC5 JUMP JUMPDEST PUSH2 0x1019 JUMP JUMPDEST STOP JUMPDEST PUSH2 0x4A6 PUSH2 0x14FF JUMP JUMPDEST PUSH1 0x40 MLOAD PUSH2 0x4B3 SWAP2 SWAP1 PUSH2 0x379A JUMP JUMPDEST PUSH1 0x40 MLOAD DUP1 SWAP2 SUB SWAP1 RETURN JUMPDEST PUSH2 0x4D6 PUSH1 0x4 DUP1 CALLDATASIZE SUB DUP2 ADD SWAP1 PUSH2 0x4D1 SWAP2 SWAP1 PUSH2 0x3E15 JUMP JUMPDEST PUSH2 0x1505 JUMP JUMPDEST STOP JUMPDEST PUSH2 0x4F2 PUSH1 0x4 DUP1 CALLDATASIZE SUB DUP2 ADD SWAP1 PUSH2 0x4ED SWAP2 SWAP1 PUSH2 0x3E53 JUMP JUMPDEST PUSH2 0x151B JUMP JUMPDEST PUSH1 0x40 MLOAD PUSH2 0x4FF SWAP2 SWAP1 PUSH2 0x3ED0 JUMP JUMPDEST PUSH1 0x40 MLOAD DUP1 SWAP2 SUB SWAP1 RETURN JUMPDEST PUSH2 0x510 PUSH2 0x15B6 JUMP JUMPDEST PUSH1 0x40 MLOAD PUSH2 0x51D SWAP2 SWAP1 PUSH2 0x379A JUMP JUMPDEST PUSH1 0x40 MLOAD DUP1 SWAP2 SUB SWAP1 RETURN JUMPDEST PUSH2 0x540 PUSH1 0x4 DUP1 CALLDATASIZE SUB DUP2 ADD SWAP1 PUSH2 0x53B SWAP2 SWAP1 PUSH2 0x3E53 JUMP JUMPDEST PUSH2 0x15DA JUMP JUMPDEST PUSH1 0x40 MLOAD PUSH2 0x54D SWAP2 SWAP1 PUSH2 0x33DE JUMP JUMPDEST PUSH1 0x40 MLOAD DUP1 SWAP2 SUB SWAP1 RETURN JUMPDEST PUSH2 0x570 PUSH1 0x4 DUP1 CALLDATASIZE SUB DUP2 ADD SWAP1 PUSH2 0x56B SWAP2 SWAP1 PUSH2 0x3DC5 JUMP JUMPDEST PUSH2 0x15EF JUMP JUMPDEST STOP JUMPDEST PUSH2 0x58C PUSH1 0x4 DUP1 CALLDATASIZE SUB DUP2 ADD SWAP1 PUSH2 0x587 SWAP2 SWAP1 PUSH2 0x39E0 JUMP JUMPDEST PUSH2 0x19EC JUMP JUMPDEST STOP JUMPDEST PUSH2 0x5A8 PUSH1 0x4 DUP1 CALLDATASIZE SUB DUP2 ADD SWAP1 PUSH2 0x5A3 SWAP2 SWAP1 PUSH2 0x3AA8 JUMP JUMPDEST PUSH2 0x1A0E JUMP JUMPDEST PUSH1 0x40 MLOAD PUSH2 0x5B5 SWAP2 SWAP1 PUSH2 0x3F4E JUMP JUMPDEST PUSH1 0x40 MLOAD DUP1 SWAP2 SUB SWAP1 RETURN JUMPDEST PUSH2 0x5D8 PUSH1 0x4 DUP1 CALLDATASIZE SUB DUP2 ADD SWAP1 PUSH2 0x5D3 SWAP2 SWAP1 PUSH2 0x34AA JUMP JUMPDEST PUSH2 0x1B46 JUMP JUMPDEST STOP JUMPDEST PUSH2 0x5E2 PUSH2 0x1E79 JUMP JUMPDEST PUSH1 0x40 MLOAD PUSH2 0x5EF SWAP2 SWAP1 PUSH2 0x33DE JUMP JUMPDEST PUSH1 0x40 MLOAD DUP1 SWAP2 SUB SWAP1 RETURN JUMPDEST PUSH2 0x612 PUSH1 0x4 DUP1 CALLDATASIZE SUB DUP2 ADD SWAP1 PUSH2 0x60D SWAP2 SWAP1 PUSH2 0x3F67 JUMP JUMPDEST PUSH2 0x1E7D JUMP JUMPDEST PUSH1 0x40 MLOAD PUSH2 0x61F SWAP2 SWAP1 PUSH2 0x3491 JUMP JUMPDEST PUSH1 0x40 MLOAD DUP1 SWAP2 SUB SWAP1 RETURN JUMPDEST PUSH2 0x642 PUSH1 0x4 DUP1 CALLDATASIZE SUB DUP2 ADD SWAP1 PUSH2 0x63D SWAP2 SWAP1 PUSH2 0x34AA JUMP JUMPDEST PUSH2 0x1F0B JUMP JUMPDEST PUSH1 0x40 MLOAD PUSH2 0x64F SWAP2 SWAP1 PUSH2 0x408D JUMP JUMPDEST PUSH1 0x40 MLOAD DUP1 SWAP2 SUB SWAP1 RETURN JUMPDEST PUSH2 0x672 PUSH1 0x4 DUP1 CALLDATASIZE SUB DUP2 ADD SWAP1 PUSH2 0x66D SWAP2 SWAP1 PUSH2 0x40AD JUMP JUMPDEST PUSH2 0x20D2 JUMP JUMPDEST STOP JUMPDEST PUSH0 DUP1 PUSH0 DUP4 DUP2 MSTORE PUSH1 0x20 ADD SWAP1 DUP2 MSTORE PUSH1 0x20 ADD PUSH0 KECCAK256 PUSH0 DUP5 PUSH20 0xFFFFFFFFFFFFFFFFFFFFFFFFFFFFFFFFFFFFFFFF AND PUSH20 0xFFFFFFFFFFFFFFFFFFFFFFFFFFFFFFFFFFFFFFFF AND DUP2 MSTORE PUSH1 0x20 ADD SWAP1 DUP2 MSTORE PUSH1 0x20 ADD PUSH0 KECCAK256 SLOAD SWAP1 POP SWAP3 SWAP2 POP POP JUMP JUMPDEST PUSH0 PUSH2 0x6D3 DUP3 PUSH2 0x2179 JUMP JUMPDEST SWAP1 POP SWAP2 SWAP1 POP JUMP JUMPDEST PUSH1 0x60 PUSH1 0x2 DUP1 SLOAD PUSH2 0x6E9 SWAP1 PUSH2 0x416D JUMP JUMPDEST DUP1 PUSH1 0x1F ADD PUSH1 0x20 DUP1 SWAP2 DIV MUL PUSH1 0x20 ADD PUSH1 0x40 MLOAD SWAP1 DUP2 ADD PUSH1 0x40 MSTORE DUP1 SWAP3 SWAP2 SWAP1 DUP2 DUP2 MSTORE PUSH1 0x20 ADD DUP3 DUP1 SLOAD PUSH2 0x715 SWAP1 PUSH2 0x416D JUMP JUMPDEST DUP1 ISZERO PUSH2 0x760 JUMPI DUP1 PUSH1 0x1F LT PUSH2 0x737 JUMPI PUSH2 0x100 DUP1 DUP4 SLOAD DIV MUL DUP4 MSTORE SWAP2 PUSH1 0x20 ADD SWAP2 PUSH2 0x760 JUMP JUMPDEST DUP3 ADD SWAP2 SWAP1 PUSH0 MSTORE PUSH1 0x20 PUSH0 KECCAK256 SWAP1 JUMPDEST DUP2 SLOAD DUP2 MSTORE SWAP1 PUSH1 0x1 ADD SWAP1 PUSH1 0x20 ADD DUP1 DUP4 GT PUSH2 0x743 JUMPI DUP3 SWAP1 SUB PUSH1 0x1F AND DUP3 ADD SWAP2 JUMPDEST POP POP POP POP POP SWAP1 POP SWAP2 SWAP1 POP JUMP JUMPDEST PUSH1 0x5 SLOAD DUP2 JUMP JUMPDEST PUSH0 PUSH32 0x877A78DC988C0EC5F58453B44888A55EB39755C3D5ED8D8EA990912AA3EF29C6 PUSH2 0x79D DUP2 PUSH2 0x21F2 JUMP JUMPDEST PUSH1 0x5 PUSH0 DUP2 SLOAD DUP1 SWAP3 SWAP2 SWAP1 PUSH2 0x7AF SWAP1 PUSH2 0x41CA JUMP JUMPDEST SWAP2 SWAP1 POP SSTORE POP PUSH0 PUSH1 0x5 SLOAD SWAP1 POP PUSH1 0x40 MLOAD DUP1 PUSH1 0xE0 ADD PUSH1 0x40 MSTORE DUP1 DUP3 DUP2 MSTORE PUSH1 0x20 ADD DUP9 DUP2 MSTORE PUSH1 0x20 ADD DUP8 DUP2 MSTORE PUSH1 0x20 ADD DUP7 DUP2 MSTORE PUSH1 0x20 ADD PUSH0 DUP2 MSTORE PUSH1 0x20 ADD DUP6 DUP2 MSTORE PUSH1 0x20 ADD CALLER PUSH20 0xFFFFFFFFFFFFFFFFFFFFFFFFFFFFFFFFFFFFFFFF AND DUP2 MSTORE POP PUSH1 0x7 PUSH0 DUP4 DUP2 MSTORE PUSH1 0x20 ADD SWAP1 DUP2 MSTORE PUSH1 0x20 ADD PUSH0 KECCAK256 PUSH0 DUP3 ADD MLOAD DUP2 PUSH0 ADD SSTORE PUSH1 0x20 DUP3 ADD MLOAD DUP2 PUSH1 0x1 ADD SWAP1 DUP2 PUSH2 0x831 SWAP2 SWAP1 PUSH2 0x43AE JUMP JUMPDEST POP PUSH1 0x40 DUP3 ADD MLOAD DUP2 PUSH1 0x2 ADD SWAP1 DUP2 PUSH2 0x847 SWAP2 SWAP1 PUSH2 0x43AE JUMP JUMPDEST POP PUSH1 0x60 DUP3 ADD MLOAD DUP2 PUSH1 0x3 ADD SSTORE PUSH1 0x80 DUP3 ADD MLOAD DUP2 PUSH1 0x4 ADD SSTORE PUSH1 0xA0 DUP3 ADD MLOAD DUP2 PUSH1 0x5 ADD SSTORE PUSH1 0xC0 DUP3 ADD MLOAD DUP2 PUSH1 0x6 ADD PUSH0 PUSH2 0x100 EXP DUP2 SLOAD DUP2 PUSH20 0xFFFFFFFFFFFFFFFFFFFFFFFFFFFFFFFFFFFFFFFF MUL NOT AND SWAP1 DUP4 PUSH20 0xFFFFFFFFFFFFFFFFFFFFFFFFFFFFFFFFFFFFFFFF AND MUL OR SWAP1 SSTORE POP SWAP1 POP POP CALLER PUSH20 0xFFFFFFFFFFFFFFFFFFFFFFFFFFFFFFFFFFFFFFFF AND DUP2 PUSH31 0xF3538CB5ABE2E9BC54F73939E4D165FCE3752D27FE21A5E88B2A9F6DA20C63 DUP7 DUP9 PUSH1 0x40 MLOAD PUSH2 0x8F7 SWAP3 SWAP2 SWAP1 PUSH2 0x447D JUMP JUMPDEST PUSH1 0x40 MLOAD DUP1 SWAP2 SUB SWAP1 LOG3 DUP1 SWAP3 POP POP POP SWAP5 SWAP4 POP POP POP POP JUMP JUMPDEST PUSH0 PUSH1 0x3 PUSH0 DUP4 DUP2 MSTORE PUSH1 0x20 ADD SWAP1 DUP2 MSTORE PUSH1 0x20 ADD PUSH0 KECCAK256 PUSH1 0x1 ADD SLOAD SWAP1 POP SWAP2 SWAP1 POP JUMP JUMPDEST PUSH0 PUSH2 0x932 PUSH2 0x2206 JUMP JUMPDEST SWAP1 POP DUP1 PUSH20 0xFFFFFFFFFFFFFFFFFFFFFFFFFFFFFFFFFFFFFFFF AND DUP7 PUSH20 0xFFFFFFFFFFFFFFFFFFFFFFFFFFFFFFFFFFFFFFFF AND EQ ISZERO DUP1 ISZERO PUSH2 0x977 JUMPI POP PUSH2 0x975 DUP7 DUP3 PUSH2 0x1E7D JUMP JUMPDEST ISZERO JUMPDEST ISZERO PUSH2 0x9BB JUMPI DUP1 DUP7 PUSH1 0x40 MLOAD PUSH32 0xE237D92200000000000000000000000000000000000000000000000000000000 DUP2 MSTORE PUSH1 0x4 ADD PUSH2 0x9B2 SWAP3 SWAP2 SWAP1 PUSH2 0x44A4 JUMP JUMPDEST PUSH1 0x40 MLOAD DUP1 SWAP2 SUB SWAP1 REVERT JUMPDEST PUSH2 0x9C8 DUP7 DUP7 DUP7 DUP7 DUP7 PUSH2 0x220D JUMP JUMPDEST POP POP POP POP POP POP JUMP JUMPDEST PUSH2 0x9D9 DUP3 PUSH2 0x90C JUMP JUMPDEST PUSH2 0x9E2 DUP2 PUSH2 0x21F2 JUMP JUMPDEST PUSH2 0x9EC DUP4 DUP4 PUSH2 0x2301 JUMP JUMPDEST POP POP POP POP JUMP JUMPDEST PUSH2 0x9FA PUSH2 0x2206 JUMP JUMPDEST PUSH20 0xFFFFFFFFFFFFFFFFFFFFFFFFFFFFFFFFFFFFFFFF AND DUP2 PUSH20 0xFFFFFFFFFFFFFFFFFFFFFFFFFFFFFFFFFFFFFFFF AND EQ PUSH2 0xA5E JUMPI PUSH1 0x40 MLOAD PUSH32 0x6697B23200000000000000000000000000000000000000000000000000000000 DUP2 MSTORE PUSH1 0x4 ADD PUSH1 0x40 MLOAD DUP1 SWAP2 SUB SWAP1 REVERT JUMPDEST PUSH2 0xA68 DUP3 DUP3 PUSH2 0x23EB JUMP JUMPDEST POP POP POP JUMP JUMPDEST PUSH2 0xA75 PUSH2 0x24D5 JUMP JUMPDEST PUSH2 0xA90 CALLER ADDRESS PUSH0 DUP5 PUSH1 0x40 MLOAD DUP1 PUSH1 0x20 ADD PUSH1 0x40 MSTORE DUP1 PUSH0 DUP2 MSTORE POP PUSH2 0x20D2 JUMP JUMPDEST DUP1 PUSH1 0x9 PUSH0 CALLER PUSH20 0xFFFFFFFFFFFFFFFFFFFFFFFFFFFFFFFFFFFFFFFF AND PUSH20 0xFFFFFFFFFFFFFFFFFFFFFFFFFFFFFFFFFFFFFFFF AND DUP2 MSTORE PUSH1 0x20 ADD SWAP1 DUP2 MSTORE PUSH1 0x20 ADD PUSH0 KECCAK256 PUSH0 DUP3 DUP3 SLOAD PUSH2 0xADC SWAP2 SWAP1 PUSH2 0x44CB JUMP JUMPDEST SWAP3 POP POP DUP2 SWAP1 SSTORE POP CALLER PUSH20 0xFFFFFFFFFFFFFFFFFFFFFFFFFFFFFFFFFFFFFFFF AND PUSH32 0xEB3CBAAC08F9C4D8299747BA33F496B63ED34797E25A84D343790D9F901947A DUP3 PUSH1 0x40 MLOAD PUSH2 0xB29 SWAP2 SWAP1 PUSH2 0x33DE JUMP JUMPDEST PUSH1 0x40 MLOAD DUP1 SWAP2 SUB SWAP1 LOG2 PUSH2 0xB39 PUSH2 0x2524 JUMP JUMPDEST POP JUMP JUMPDEST PUSH1 0x7 PUSH1 0x20 MSTORE DUP1 PUSH0 MSTORE PUSH1 0x40 PUSH0 KECCAK256 PUSH0 SWAP2 POP SWAP1 POP DUP1 PUSH0 ADD SLOAD SWAP1 DUP1 PUSH1 0x1 ADD DUP1 SLOAD PUSH2 0xB61 SWAP1 PUSH2 0x416D JUMP JUMPDEST DUP1 PUSH1 0x1F ADD PUSH1 0x20 DUP1 SWAP2 DIV MUL PUSH1 0x20 ADD PUSH1 0x40 MLOAD SWAP1 DUP2 ADD PUSH1 0x40 MSTORE DUP1 SWAP3 SWAP2 SWAP1 DUP2 DUP2 MSTORE PUSH1 0x20 ADD DUP3 DUP1 SLOAD PUSH2 0xB8D SWAP1 PUSH2 0x416D JUMP JUMPDEST DUP1 ISZERO PUSH2 0xBD8 JUMPI DUP1 PUSH1 0x1F LT PUSH2 0xBAF JUMPI PUSH2 0x100 DUP1 DUP4 SLOAD DIV MUL DUP4 MSTORE SWAP2 PUSH1 0x20 ADD SWAP2 PUSH2 0xBD8 JUMP JUMPDEST DUP3 ADD SWAP2 SWAP1 PUSH0 MSTORE PUSH1 0x20 PUSH0 KECCAK256 SWAP1 JUMPDEST DUP2 SLOAD DUP2 MSTORE SWAP1 PUSH1 0x1 ADD SWAP1 PUSH1 0x20 ADD DUP1 DUP4 GT PUSH2 0xBBB JUMPI DUP3 SWAP1 SUB PUSH1 0x1F AND DUP3 ADD SWAP2 JUMPDEST POP POP POP POP POP SWAP1 DUP1 PUSH1 0x2 ADD DUP1 SLOAD PUSH2 0xBED SWAP1 PUSH2 0x416D JUMP JUMPDEST DUP1 PUSH1 0x1F ADD PUSH1 0x20 DUP1 SWAP2 DIV MUL PUSH1 0x20 ADD PUSH1 0x40 MLOAD SWAP1 DUP2 ADD PUSH1 0x40 MSTORE DUP1 SWAP3 SWAP2 SWAP1 DUP2 DUP2 MSTORE PUSH1 0x20 ADD DUP3 DUP1 SLOAD PUSH2 0xC19 SWAP1 PUSH2 0x416D JUMP JUMPDEST DUP1 ISZERO PUSH2 0xC64 JUMPI DUP1 PUSH1 0x1F LT PUSH2 0xC3B JUMPI PUSH2 0x100 DUP1 DUP4 SLOAD DIV MUL DUP4 MSTORE SWAP2 PUSH1 0x20 ADD SWAP2 PUSH2 0xC64 JUMP JUMPDEST DUP3 ADD SWAP2 SWAP1 PUSH0 MSTORE PUSH1 0x20 PUSH0 KECCAK256 SWAP1 JUMPDEST DUP2 SLOAD DUP2 MSTORE SWAP1 PUSH1 0x1 ADD SWAP1 PUSH1 0x20 ADD DUP1 DUP4 GT PUSH2 0xC47 JUMPI DUP3 SWAP1 SUB PUSH1 0x1F AND DUP3 ADD SWAP2 JUMPDEST POP POP POP POP POP SWAP1 DUP1 PUSH1 0x3 ADD SLOAD SWAP1 DUP1 PUSH1 0x4 ADD SLOAD SWAP1 DUP1 PUSH1 0x5 ADD SLOAD SWAP1 DUP1 PUSH1 0x6 ADD PUSH0 SWAP1 SLOAD SWAP1 PUSH2 0x100 EXP SWAP1 DIV PUSH20 0xFFFFFFFFFFFFFFFFFFFFFFFFFFFFFFFFFFFFFFFF AND SWAP1 POP DUP8 JUMP JUMPDEST PUSH1 0x8 PUSH1 0x20 MSTORE DUP2 PUSH0 MSTORE PUSH1 0x40 PUSH0 KECCAK256 DUP2 DUP2 SLOAD DUP2 LT PUSH2 0xCBE JUMPI PUSH0 DUP1 REVERT JUMPDEST SWAP1 PUSH0 MSTORE PUSH1 0x20 PUSH0 KECCAK256 SWAP1 PUSH1 0x2 MUL ADD PUSH0 SWAP2 POP SWAP2 POP POP DUP1 PUSH0 ADD PUSH0 SWAP1 SLOAD SWAP1 PUSH2 0x100 EXP SWAP1 DIV PUSH20 0xFFFFFFFFFFFFFFFFFFFFFFFFFFFFFFFFFFFFFFFF AND SWAP1 DUP1 PUSH0 ADD PUSH1 0x14 SWAP1 SLOAD SWAP1 PUSH2 0x100 EXP SWAP1 DIV PUSH1 0xFF AND SWAP1 DUP1 PUSH1 0x1 ADD SLOAD SWAP1 POP DUP4 JUMP JUMPDEST PUSH1 0x60 DUP2 MLOAD DUP4 MLOAD EQ PUSH2 0xD5C JUMPI DUP2 MLOAD DUP4 MLOAD PUSH1 0x40 MLOAD PUSH32 0x5B05999100000000000000000000000000000000000000000000000000000000 DUP2 MSTORE PUSH1 0x4 ADD PUSH2 0xD53 SWAP3 SWAP2 SWAP1 PUSH2 0x447D JUMP JUMPDEST PUSH1 0x40 MLOAD DUP1 SWAP2 SUB SWAP1 REVERT JUMPDEST PUSH0 DUP4 MLOAD PUSH8 0xFFFFFFFFFFFFFFFF DUP2 GT ISZERO PUSH2 0xD78 JUMPI PUSH2 0xD77 PUSH2 0x356D JUMP JUMPDEST JUMPDEST PUSH1 0x40 MLOAD SWAP1 DUP1 DUP3 MSTORE DUP1 PUSH1 0x20 MUL PUSH1 0x20 ADD DUP3 ADD PUSH1 0x40 MSTORE DUP1 ISZERO PUSH2 0xDA6 JUMPI DUP2 PUSH1 0x20 ADD PUSH1 0x20 DUP3 MUL DUP1 CALLDATASIZE DUP4 CALLDATACOPY DUP1 DUP3 ADD SWAP2 POP POP SWAP1 POP JUMPDEST POP SWAP1 POP PUSH0 JUMPDEST DUP5 MLOAD DUP2 LT ISZERO PUSH2 0xE0C JUMPI PUSH2 0xDE2 PUSH2 0xDCA DUP3 DUP8 PUSH2 0x252E SWAP1 SWAP2 SWAP1 PUSH4 0xFFFFFFFF AND JUMP JUMPDEST PUSH2 0xDDD DUP4 DUP8 PUSH2 0x2541 SWAP1 SWAP2 SWAP1 PUSH4 0xFFFFFFFF AND JUMP JUMPDEST PUSH2 0x674 JUMP JUMPDEST DUP3 DUP3 DUP2 MLOAD DUP2 LT PUSH2 0xDF5 JUMPI PUSH2 0xDF4 PUSH2 0x44FE JUMP JUMPDEST JUMPDEST PUSH1 0x20 MUL PUSH1 0x20 ADD ADD DUP2 DUP2 MSTORE POP POP DUP1 PUSH1 0x1 ADD SWAP1 POP PUSH2 0xDAB JUMP JUMPDEST POP DUP1 SWAP2 POP POP SWAP3 SWAP2 POP POP JUMP JUMPDEST PUSH0 DUP1 SHL PUSH2 0xE23 DUP2 PUSH2 0x21F2 JUMP JUMPDEST PUSH2 0xE3D DUP4 PUSH0 DUP5 PUSH1 0x40 MLOAD DUP1 PUSH1 0x20 ADD PUSH1 0x40 MSTORE DUP1 PUSH0 DUP2 MSTORE POP PUSH2 0x2554 JUMP JUMPDEST POP POP POP JUMP JUMPDEST PUSH0 PUSH1 0x3 PUSH0 DUP5 DUP2 MSTORE PUSH1 0x20 ADD SWAP1 DUP2 MSTORE PUSH1 0x20 ADD PUSH0 KECCAK256 PUSH0 ADD PUSH0 DUP4 PUSH20 0xFFFFFFFFFFFFFFFFFFFFFFFFFFFFFFFFFFFFFFFF AND PUSH20 0xFFFFFFFFFFFFFFFFFFFFFFFFFFFFFFFFFFFFFFFF AND DUP2 MSTORE PUSH1 0x20 ADD SWAP1 DUP2 MSTORE PUSH1 0x20 ADD PUSH0 KECCAK256 PUSH0 SWAP1 SLOAD SWAP1 PUSH2 0x100 EXP SWAP1 DIV PUSH1 0xFF AND SWAP1 POP SWAP3 SWAP2 POP POP JUMP JUMPDEST PUSH2 0xEAE PUSH2 0x24D5 JUMP JUMPDEST DUP1 PUSH1 0x9 PUSH0 CALLER PUSH20 0xFFFFFFFFFFFFFFFFFFFFFFFFFFFFFFFFFFFFFFFF AND PUSH20 0xFFFFFFFFFFFFFFFFFFFFFFFFFFFFFFFFFFFFFFFF AND DUP2 MSTORE PUSH1 0x20 ADD SWAP1 DUP2 MSTORE PUSH1 0x20 ADD PUSH0 KECCAK256 SLOAD LT ISZERO PUSH2 0xF2E JUMPI PUSH1 0x40 MLOAD PUSH32 0x8C379A000000000000000000000000000000000000000000000000000000000 DUP2 MSTORE PUSH1 0x4 ADD PUSH2 0xF25 SWAP1 PUSH2 0x4575 JUMP JUMPDEST PUSH1 0x40 MLOAD DUP1 SWAP2 SUB SWAP1 REVERT JUMPDEST DUP1 PUSH1 0x9 PUSH0 CALLER PUSH20 0xFFFFFFFFFFFFFFFFFFFFFFFFFFFFFFFFFFFFFFFF AND PUSH20 0xFFFFFFFFFFFFFFFFFFFFFFFFFFFFFFFFFFFFFFFF AND DUP2 MSTORE PUSH1 0x20 ADD SWAP1 DUP2 MSTORE PUSH1 0x20 ADD PUSH0 KECCAK256 PUSH0 DUP3 DUP3 SLOAD PUSH2 0xF7A SWAP2 SWAP1 PUSH2 0x4593 JUMP JUMPDEST SWAP3 POP POP DUP2 SWAP1 SSTORE POP PUSH2 0xF9C ADDRESS CALLER PUSH0 DUP5 PUSH1 0x40 MLOAD DUP1 PUSH1 0x20 ADD PUSH1 0x40 MSTORE DUP1 PUSH0 DUP2 MSTORE POP PUSH2 0x25E9 JUMP JUMPDEST CALLER PUSH20 0xFFFFFFFFFFFFFFFFFFFFFFFFFFFFFFFFFFFFFFFF AND PUSH32 0xADE5F54CA481B46662E37B9087BEC2A1919DCFC57C6388290B50B3B4C8D84749 DUP3 PUSH1 0x40 MLOAD PUSH2 0xFE2 SWAP2 SWAP1 PUSH2 0x33DE JUMP JUMPDEST PUSH1 0x40 MLOAD DUP1 SWAP2 SUB SWAP1 LOG2 PUSH2 0xFF2 PUSH2 0x2524 JUMP JUMPDEST POP JUMP JUMPDEST PUSH32 0x16CEEE8289685DD2A02B9C8AE81D2DF373176CE53519E6284E2A2950D6546FFA DUP2 JUMP JUMPDEST PUSH2 0x1021 PUSH2 0x24D5 JUMP JUMPDEST PUSH32 0x16CEEE8289685DD2A02B9C8AE81D2DF373176CE53519E6284E2A2950D6546FFA PUSH2 0x104B DUP2 PUSH2 0x21F2 JUMP JUMPDEST PUSH1 0x8 PUSH0 DUP6 DUP2 MSTORE PUSH1 0x20 ADD SWAP1 DUP2 MSTORE PUSH1 0x20 ADD PUSH0 KECCAK256 DUP1 SLOAD SWAP1 POP DUP4 LT PUSH2 0x10A1 JUMPI PUSH1 0x40 MLOAD PUSH32 0x8C379A000000000000000000000000000000000000000000000000000000000 DUP2 MSTORE PUSH1 0x4 ADD PUSH2 0x1098 SWAP1 PUSH2 0x4610 JUMP JUMPDEST PUSH1 0x40 MLOAD DUP1 SWAP2 SUB SWAP1 REVERT JUMPDEST PUSH0 PUSH1 0x8 PUSH0 DUP7 DUP2 MSTORE PUSH1 0x20 ADD SWAP1 DUP2 MSTORE PUSH1 0x20 ADD PUSH0 KECCAK256 DUP5 DUP2 SLOAD DUP2 LT PUSH2 0x10C5 JUMPI PUSH2 0x10C4 PUSH2 0x44FE JUMP JUMPDEST JUMPDEST SWAP1 PUSH0 MSTORE PUSH1 0x20 PUSH0 KECCAK256 SWAP1 PUSH1 0x2 MUL ADD SWAP1 POP PUSH1 0x1 PUSH1 0x3 DUP2 GT ISZERO PUSH2 0x10E7 JUMPI PUSH2 0x10E6 PUSH2 0x3AE6 JUMP JUMPDEST JUMPDEST DUP2 PUSH0 ADD PUSH1 0x14 SWAP1 SLOAD SWAP1 PUSH2 0x100 EXP SWAP1 DIV PUSH1 0xFF AND PUSH1 0x3 DUP2 GT ISZERO PUSH2 0x110A JUMPI PUSH2 0x1109 PUSH2 0x3AE6 JUMP JUMPDEST JUMPDEST EQ PUSH2 0x114A JUMPI PUSH1 0x40 MLOAD PUSH32 0x8C379A000000000000000000000000000000000000000000000000000000000 DUP2 MSTORE PUSH1 0x4 ADD PUSH2 0x1141 SWAP1 PUSH2 0x4678 JUMP JUMPDEST PUSH1 0x40 MLOAD DUP1 SWAP2 SUB SWAP1 REVERT JUMPDEST PUSH0 PUSH1 0x7 PUSH0 DUP8 DUP2 MSTORE PUSH1 0x20 ADD SWAP1 DUP2 MSTORE PUSH1 0x20 ADD PUSH0 KECCAK256 SWAP1 POP DUP4 ISZERO PUSH2 0x1319 JUMPI PUSH2 0x11A5 ADDRESS DUP4 PUSH0 ADD PUSH0 SWAP1 SLOAD SWAP1 PUSH2 0x100 EXP SWAP1 DIV PUSH20 0xFFFFFFFFFFFFFFFFFFFFFFFFFFFFFFFFFFFFFFFF AND PUSH0 DUP5 PUSH1 0x5 ADD SLOAD PUSH1 0x40 MLOAD DUP1 PUSH1 0x20 ADD PUSH1 0x40 MSTORE DUP1 PUSH0 DUP2 MSTORE POP PUSH2 0x25E9 JUMP JUMPDEST DUP1 PUSH1 0x5 ADD SLOAD DUP3 PUSH1 0x1 ADD SLOAD PUSH2 0x11B9 SWAP2 SWAP1 PUSH2 0x44CB JUMP JUMPDEST PUSH1 0x9 PUSH0 DUP4 PUSH1 0x6 ADD PUSH0 SWAP1 SLOAD SWAP1 PUSH2 0x100 EXP SWAP1 DIV PUSH20 0xFFFFFFFFFFFFFFFFFFFFFFFFFFFFFFFFFFFFFFFF AND PUSH20 0xFFFFFFFFFFFFFFFFFFFFFFFFFFFFFFFFFFFFFFFF AND PUSH20 0xFFFFFFFFFFFFFFFFFFFFFFFFFFFFFFFFFFFFFFFF AND DUP2 MSTORE PUSH1 0x20 ADD SWAP1 DUP2 MSTORE PUSH1 0x20 ADD PUSH0 KECCAK256 PUSH0 DUP3 DUP3 SLOAD PUSH2 0x1227 SWAP2 SWAP1 PUSH2 0x44CB JUMP JUMPDEST SWAP3 POP POP DUP2 SWAP1 SSTORE POP PUSH0 DUP3 PUSH1 0x1 ADD DUP2 SWAP1 SSTORE POP PUSH1 0x2 DUP3 PUSH0 ADD PUSH1 0x14 PUSH2 0x100 EXP DUP2 SLOAD DUP2 PUSH1 0xFF MUL NOT AND SWAP1 DUP4 PUSH1 0x3 DUP2 GT ISZERO PUSH2 0x125E JUMPI PUSH2 0x125D PUSH2 0x3AE6 JUMP JUMPDEST JUMPDEST MUL OR SWAP1 SSTORE POP DUP2 PUSH0 ADD PUSH0 SWAP1 SLOAD SWAP1 PUSH2 0x100 EXP SWAP1 DIV PUSH20 0xFFFFFFFFFFFFFFFFFFFFFFFFFFFFFFFFFFFFFFFF AND PUSH20 0xFFFFFFFFFFFFFFFFFFFFFFFFFFFFFFFFFFFFFFFF AND DUP2 PUSH1 0x6 ADD PUSH0 SWAP1 SLOAD SWAP1 PUSH2 0x100 EXP SWAP1 DIV PUSH20 0xFFFFFFFFFFFFFFFFFFFFFFFFFFFFFFFFFFFFFFFF AND PUSH20 0xFFFFFFFFFFFFFFFFFFFFFFFFFFFFFFFFFFFFFFFF AND DUP8 PUSH32 0x8A638E11B0C22C045787CDEB797B7660A82A4F82305CA40E86A115AE07B3EE28 DUP9 DUP6 PUSH1 0x5 ADD SLOAD PUSH1 0x40 MLOAD PUSH2 0x130C SWAP3 SWAP2 SWAP1 PUSH2 0x447D JUMP JUMPDEST PUSH1 0x40 MLOAD DUP1 SWAP2 SUB SWAP1 LOG4 PUSH2 0x14B5 JUMP JUMPDEST PUSH2 0x1366 ADDRESS DUP4 PUSH0 ADD PUSH0 SWAP1 SLOAD SWAP1 PUSH2 0x100 EXP SWAP1 DIV PUSH20 0xFFFFFFFFFFFFFFFFFFFFFFFFFFFFFFFFFFFFFFFF AND PUSH0 PUSH1 0x2 DUP6 PUSH1 0x5 ADD SLOAD PUSH2 0x1352 SWAP2 SWAP1 PUSH2 0x4696 JUMP JUMPDEST PUSH1 0x40 MLOAD DUP1 PUSH1 0x20 ADD PUSH1 0x40 MSTORE DUP1 PUSH0 DUP2 MSTORE POP PUSH2 0x25E9 JUMP JUMPDEST DUP2 PUSH1 0x1 ADD SLOAD PUSH1 0x9 PUSH0 DUP4 PUSH1 0x6 ADD PUSH0 SWAP1 SLOAD SWAP1 PUSH2 0x100 EXP SWAP1 DIV PUSH20 0xFFFFFFFFFFFFFFFFFFFFFFFFFFFFFFFFFFFFFFFF AND PUSH20 0xFFFFFFFFFFFFFFFFFFFFFFFFFFFFFFFFFFFFFFFF AND PUSH20 0xFFFFFFFFFFFFFFFFFFFFFFFFFFFFFFFFFFFFFFFF AND DUP2 MSTORE PUSH1 0x20 ADD SWAP1 DUP2 MSTORE PUSH1 0x20 ADD PUSH0 KECCAK256 PUSH0 DUP3 DUP3 SLOAD PUSH2 0x13D9 SWAP2 SWAP1 PUSH2 0x44CB JUMP JUMPDEST SWAP3 POP POP DUP2 SWAP1 SSTORE POP PUSH0 DUP3 PUSH1 0x1 ADD DUP2 SWAP1 SSTORE POP PUSH1 0x3 DUP3 PUSH0 ADD PUSH1 0x14 PUSH2 0x100 EXP DUP2 SLOAD DUP2 PUSH1 0xFF MUL NOT AND SWAP1 DUP4 PUSH1 0x3 DUP2 GT ISZERO PUSH2 0x1410 JUMPI PUSH2 0x140F PUSH2 0x3AE6 JUMP JUMPDEST JUMPDEST MUL OR SWAP1 SSTORE POP PUSH2 0x1443 DUP3 PUSH0 ADD PUSH0 SWAP1 SLOAD SWAP1 PUSH2 0x100 EXP SWAP1 DIV PUSH20 0xFFFFFFFFFFFFFFFFFFFFFFFFFFFFFFFFFFFFFFFF AND DUP8 PUSH1 0x1 PUSH2 0x26EF JUMP JUMPDEST DUP2 PUSH0 ADD PUSH0 SWAP1 SLOAD SWAP1 PUSH2 0x100 EXP SWAP1 DIV PUSH20 0xFFFFFFFFFFFFFFFFFFFFFFFFFFFFFFFFFFFFFFFF AND PUSH20 0xFFFFFFFFFFFFFFFFFFFFFFFFFFFFFFFFFFFFFFFF AND DUP7 PUSH32 0x9E07DCE46977EC95E7805C93CE75A606C8828E2F4A3E5554BFEB839D50895099 DUP8 PUSH1 0x40 MLOAD PUSH2 0x14AC SWAP2 SWAP1 PUSH2 0x33DE JUMP JUMPDEST PUSH1 0x40 MLOAD DUP1 SWAP2 SUB SWAP1 LOG3 JUMPDEST DUP6 PUSH32 0xD4390D9B1EAE30D53D6E598D7EBA50E60F3EA18310CA83E7919E3DF177BB05CA DUP7 DUP7 PUSH1 0x40 MLOAD PUSH2 0x14E7 SWAP3 SWAP2 SWAP1 PUSH2 0x46D7 JUMP JUMPDEST PUSH1 0x40 MLOAD DUP1 SWAP2 SUB SWAP1 LOG2 POP POP POP PUSH2 0x14FA PUSH2 0x2524 JUMP JUMPDEST POP POP POP JUMP JUMPDEST PUSH0 DUP1 SHL DUP2 JUMP JUMPDEST PUSH2 0x1517 PUSH2 0x1510 PUSH2 0x2206 JUMP JUMPDEST DUP4 DUP4 PUSH2 0x2791 JUMP JUMPDEST POP POP JUMP JUMPDEST PUSH1 0x6 PUSH1 0x20 MSTORE DUP1 PUSH0 MSTORE PUSH1 0x40 PUSH0 KECCAK256 PUSH0 SWAP2 POP SWAP1 POP DUP1 SLOAD PUSH2 0x1537 SWAP1 PUSH2 0x416D JUMP JUMPDEST DUP1 PUSH1 0x1F ADD PUSH1 0x20 DUP1 SWAP2 DIV MUL PUSH1 0x20 ADD PUSH1 0x40 MLOAD SWAP1 DUP2 ADD PUSH1 0x40 MSTORE DUP1 SWAP3 SWAP2 SWAP1 DUP2 DUP2 MSTORE PUSH1 0x20 ADD DUP3 DUP1 SLOAD PUSH2 0x1563 SWAP1 PUSH2 0x416D JUMP JUMPDEST DUP1 ISZERO PUSH2 0x15AE JUMPI DUP1 PUSH1 0x1F LT PUSH2 0x1585 JUMPI PUSH2 0x100 DUP1 DUP4 SLOAD DIV MUL DUP4 MSTORE SWAP2 PUSH1 0x20 ADD SWAP2 PUSH2 0x15AE JUMP JUMPDEST DUP3 ADD SWAP2 SWAP1 PUSH0 MSTORE PUSH1 0x20 PUSH0 KECCAK256 SWAP1 JUMPDEST DUP2 SLOAD DUP2 MSTORE SWAP1 PUSH1 0x1 ADD SWAP1 PUSH1 0x20 ADD DUP1 DUP4 GT PUSH2 0x1591 JUMPI DUP3 SWAP1 SUB PUSH1 0x1F AND DUP3 ADD SWAP2 JUMPDEST POP POP POP POP POP DUP2 JUMP JUMPDEST PUSH32 0x877A78DC988C0EC5F58453B44888A55EB39755C3D5ED8D8EA990912AA3EF29C6 DUP2 JUMP JUMPDEST PUSH1 0x9 PUSH1 0x20 MSTORE DUP1 PUSH0 MSTORE PUSH1 0x40 PUSH0 KECCAK256 PUSH0 SWAP2 POP SWAP1 POP SLOAD DUP2 JUMP JUMPDEST PUSH2 0x15F7 PUSH2 0x24D5 JUMP JUMPDEST PUSH1 0x8 PUSH0 DUP5 DUP2 MSTORE PUSH1 0x20 ADD SWAP1 DUP2 MSTORE PUSH1 0x20 ADD PUSH0 KECCAK256 DUP1 SLOAD SWAP1 POP DUP3 LT PUSH2 0x164D JUMPI PUSH1 0x40 MLOAD PUSH32 0x8C379A000000000000000000000000000000000000000000000000000000000 DUP2 MSTORE PUSH1 0x4 ADD PUSH2 0x1644 SWAP1 PUSH2 0x4610 JUMP JUMPDEST PUSH1 0x40 MLOAD DUP1 SWAP2 SUB SWAP1 REVERT JUMPDEST PUSH0 PUSH1 0x8 PUSH0 DUP6 DUP2 MSTORE PUSH1 0x20 ADD SWAP1 DUP2 MSTORE PUSH1 0x20 ADD PUSH0 KECCAK256 DUP4 DUP2 SLOAD DUP2 LT PUSH2 0x1671 JUMPI PUSH2 0x1670 PUSH2 0x44FE JUMP JUMPDEST JUMPDEST SWAP1 PUSH0 MSTORE PUSH1 0x20 PUSH0 KECCAK256 SWAP1 PUSH1 0x2 MUL ADD SWAP1 POP CALLER PUSH20 0xFFFFFFFFFFFFFFFFFFFFFFFFFFFFFFFFFFFFFFFF AND DUP2 PUSH0 ADD PUSH0 SWAP1 SLOAD SWAP1 PUSH2 0x100 EXP SWAP1 DIV PUSH20 0xFFFFFFFFFFFFFFFFFFFFFFFFFFFFFFFFFFFFFFFF AND PUSH20 0xFFFFFFFFFFFFFFFFFFFFFFFFFFFFFFFFFFFFFFFF AND EQ PUSH2 0x170F JUMPI PUSH1 0x40 MLOAD PUSH32 0x8C379A000000000000000000000000000000000000000000000000000000000 DUP2 MSTORE PUSH1 0x4 ADD PUSH2 0x1706 SWAP1 PUSH2 0x4748 JUMP JUMPDEST PUSH1 0x40 MLOAD DUP1 SWAP2 SUB SWAP1 REVERT JUMPDEST PUSH0 PUSH1 0x3 DUP2 GT ISZERO PUSH2 0x1722 JUMPI PUSH2 0x1721 PUSH2 0x3AE6 JUMP JUMPDEST JUMPDEST DUP2 PUSH0 ADD PUSH1 0x14 SWAP1 SLOAD SWAP1 PUSH2 0x100 EXP SWAP1 DIV PUSH1 0xFF AND PUSH1 0x3 DUP2 GT ISZERO PUSH2 0x1745 JUMPI PUSH2 0x1744 PUSH2 0x3AE6 JUMP JUMPDEST JUMPDEST EQ PUSH2 0x1785 JUMPI PUSH1 0x40 MLOAD PUSH32 0x8C379A000000000000000000000000000000000000000000000000000000000 DUP2 MSTORE PUSH1 0x4 ADD PUSH2 0x177C SWAP1 PUSH2 0x47B0 JUMP JUMPDEST PUSH1 0x40 MLOAD DUP1 SWAP2 SUB SWAP1 REVERT JUMPDEST PUSH0 PUSH1 0x7 PUSH0 DUP7 DUP2 MSTORE PUSH1 0x20 ADD SWAP1 DUP2 MSTORE PUSH1 0x20 ADD PUSH0 KECCAK256 SWAP1 POP CALLER PUSH20 0xFFFFFFFFFFFFFFFFFFFFFFFFFFFFFFFFFFFFFFFF AND DUP6 PUSH32 0xDFCFA307BD7FF3B7DF976AEA65A8DF73DEB67F2649E10E389AE208B2A5C667AF DUP7 DUP7 PUSH1 0x40 MLOAD PUSH2 0x17E2 SWAP3 SWAP2 SWAP1 PUSH2 0x46D7 JUMP JUMPDEST PUSH1 0x40 MLOAD DUP1 SWAP2 SUB SWAP1 LOG3 DUP3 ISZERO PUSH2 0x1961 JUMPI PUSH2 0x180F ADDRESS CALLER PUSH0 DUP5 PUSH1 0x5 ADD SLOAD PUSH1 0x40 MLOAD DUP1 PUSH1 0x20 ADD PUSH1 0x40 MSTORE DUP1 PUSH0 DUP2 MSTORE POP PUSH2 0x25E9 JUMP JUMPDEST DUP1 PUSH1 0x5 ADD SLOAD DUP3 PUSH1 0x1 ADD SLOAD PUSH2 0x1823 SWAP2 SWAP1 PUSH2 0x44CB JUMP JUMPDEST PUSH1 0x9 PUSH0 DUP4 PUSH1 0x6 ADD PUSH0 SWAP1 SLOAD SWAP1 PUSH2 0x100 EXP SWAP1 DIV PUSH20 0xFFFFFFFFFFFFFFFFFFFFFFFFFFFFFFFFFFFFFFFF AND PUSH20 0xFFFFFFFFFFFFFFFFFFFFFFFFFFFFFFFFFFFFFFFF AND PUSH20 0xFFFFFFFFFFFFFFFFFFFFFFFFFFFFFFFFFFFFFFFF AND DUP2 MSTORE PUSH1 0x20 ADD SWAP1 DUP2 MSTORE PUSH1 0x20 ADD PUSH0 KECCAK256 PUSH0 DUP3 DUP3 SLOAD PUSH2 0x1891 SWAP2 SWAP1 PUSH2 0x44CB JUMP JUMPDEST SWAP3 POP POP DUP2 SWAP1 SSTORE POP PUSH0 DUP3 PUSH1 0x1 ADD DUP2 SWAP1 SSTORE POP PUSH1 0x2 DUP3 PUSH0 ADD PUSH1 0x14 PUSH2 0x100 EXP DUP2 SLOAD DUP2 PUSH1 0xFF MUL NOT AND SWAP1 DUP4 PUSH1 0x3 DUP2 GT ISZERO PUSH2 0x18C8 JUMPI PUSH2 0x18C7 PUSH2 0x3AE6 JUMP JUMPDEST JUMPDEST MUL OR SWAP1 SSTORE POP CALLER PUSH20 0xFFFFFFFFFFFFFFFFFFFFFFFFFFFFFFFFFFFFFFFF AND DUP2 PUSH1 0x6 ADD PUSH0 SWAP1 SLOAD SWAP1 PUSH2 0x100 EXP SWAP1 DIV PUSH20 0xFFFFFFFFFFFFFFFFFFFFFFFFFFFFFFFFFFFFFFFF AND PUSH20 0xFFFFFFFFFFFFFFFFFFFFFFFFFFFFFFFFFFFFFFFF AND DUP7 PUSH32 0x8A638E11B0C22C045787CDEB797B7660A82A4F82305CA40E86A115AE07B3EE28 DUP8 DUP6 PUSH1 0x5 ADD SLOAD PUSH1 0x40 MLOAD PUSH2 0x1954 SWAP3 SWAP2 SWAP1 PUSH2 0x447D JUMP JUMPDEST PUSH1 0x40 MLOAD DUP1 SWAP2 SUB SWAP1 LOG4 PUSH2 0x19DD JUMP JUMPDEST PUSH1 0x1 DUP3 PUSH0 ADD PUSH1 0x14 PUSH2 0x100 EXP DUP2 SLOAD DUP2 PUSH1 0xFF MUL NOT AND SWAP1 DUP4 PUSH1 0x3 DUP2 GT ISZERO PUSH2 0x1988 JUMPI PUSH2 0x1987 PUSH2 0x3AE6 JUMP JUMPDEST JUMPDEST MUL OR SWAP1 SSTORE POP CALLER PUSH20 0xFFFFFFFFFFFFFFFFFFFFFFFFFFFFFFFFFFFFFFFF AND DUP6 PUSH32 0xC6FB55A2BD2838E444163CECE1945A661C371C5EC8C1A4EA5D697AEFC7690547 DUP7 PUSH1 0x40 MLOAD PUSH2 0x19D4 SWAP2 SWAP1 PUSH2 0x33DE JUMP JUMPDEST PUSH1 0x40 MLOAD DUP1 SWAP2 SUB SWAP1 LOG3 JUMPDEST POP POP PUSH2 0x19E7 PUSH2 0x2524 JUMP JUMPDEST POP POP POP JUMP JUMPDEST PUSH2 0x19F5 DUP3 PUSH2 0x90C JUMP JUMPDEST PUSH2 0x19FE DUP2 PUSH2 0x21F2 JUMP JUMPDEST PUSH2 0x1A08 DUP4 DUP4 PUSH2 0x23EB JUMP JUMPDEST POP POP POP POP JUMP JUMPDEST PUSH2 0x1A16 PUSH2 0x325F JUMP JUMPDEST PUSH1 0x8 PUSH0 DUP5 DUP2 MSTORE PUSH1 0x20 ADD SWAP1 DUP2 MSTORE PUSH1 0x20 ADD PUSH0 KECCAK256 DUP1 SLOAD SWAP1 POP DUP3 LT PUSH2 0x1A6C JUMPI PUSH1 0x40 MLOAD PUSH32 0x8C379A000000000000000000000000000000000000000000000000000000000 DUP2 MSTORE PUSH1 0x4 ADD PUSH2 0x1A63 SWAP1 PUSH2 0x4610 JUMP JUMPDEST PUSH1 0x40 MLOAD DUP1 SWAP2 SUB SWAP1 REVERT JUMPDEST PUSH1 0x8 PUSH0 DUP5 DUP2 MSTORE PUSH1 0x20 ADD SWAP1 DUP2 MSTORE PUSH1 0x20 ADD PUSH0 KECCAK256 DUP3 DUP2 SLOAD DUP2 LT PUSH2 0x1A8F JUMPI PUSH2 0x1A8E PUSH2 0x44FE JUMP JUMPDEST JUMPDEST SWAP1 PUSH0 MSTORE PUSH1 0x20 PUSH0 KECCAK256 SWAP1 PUSH1 0x2 MUL ADD PUSH1 0x40 MLOAD DUP1 PUSH1 0x60 ADD PUSH1 0x40 MSTORE SWAP1 DUP2 PUSH0 DUP3 ADD PUSH0 SWAP1 SLOAD SWAP1 PUSH2 0x100 EXP SWAP1 DIV PUSH20 0xFFFFFFFFFFFFFFFFFFFFFFFFFFFFFFFFFFFFFFFF AND PUSH20 0xFFFFFFFFFFFFFFFFFFFFFFFFFFFFFFFFFFFFFFFF AND PUSH20 0xFFFFFFFFFFFFFFFFFFFFFFFFFFFFFFFFFFFFFFFF AND DUP2 MSTORE PUSH1 0x20 ADD PUSH0 DUP3 ADD PUSH1 0x14 SWAP1 SLOAD SWAP1 PUSH2 0x100 EXP SWAP1 DIV PUSH1 0xFF AND PUSH1 0x3 DUP2 GT ISZERO PUSH2 0x1B1E JUMPI PUSH2 0x1B1D PUSH2 0x3AE6 JUMP JUMPDEST JUMPDEST PUSH1 0x3 DUP2 GT ISZERO PUSH2 0x1B30 JUMPI PUSH2 0x1B2F PUSH2 0x3AE6 JUMP JUMPDEST JUMPDEST DUP2 MSTORE PUSH1 0x20 ADD PUSH1 0x1 DUP3 ADD SLOAD DUP2 MSTORE POP POP SWAP1 POP SWAP3 SWAP2 POP POP JUMP JUMPDEST PUSH2 0x1B4E PUSH2 0x24D5 JUMP JUMPDEST PUSH0 PUSH1 0x7 PUSH0 DUP4 DUP2 MSTORE PUSH1 0x20 ADD SWAP1 DUP2 MSTORE PUSH1 0x20 ADD PUSH0 KECCAK256 SWAP1 POP DUP1 PUSH1 0x3 ADD SLOAD DUP2 PUSH1 0x4 ADD SLOAD LT PUSH2 0x1BAC JUMPI PUSH1 0x40 MLOAD PUSH32 0x8C379A000000000000000000000000000000000000000000000000000000000 DUP2 MSTORE PUSH1 0x4 ADD PUSH2 0x1BA3 SWAP1 PUSH2 0x4818 JUMP JUMPDEST PUSH1 0x40 MLOAD DUP1 SWAP2 SUB SWAP1 REVERT JUMPDEST PUSH0 PUSH1 0x2 DUP3 PUSH1 0x5 ADD SLOAD PUSH2 0x1BBE SWAP2 SWAP1 PUSH2 0x4696 JUMP JUMPDEST SWAP1 POP PUSH2 0x1BDB CALLER ADDRESS PUSH0 DUP5 PUSH1 0x40 MLOAD DUP1 PUSH1 0x20 ADD PUSH1 0x40 MSTORE DUP1 PUSH0 DUP2 MSTORE POP PUSH2 0x20D2 JUMP JUMPDEST DUP1 PUSH1 0x9 PUSH0 DUP5 PUSH1 0x6 ADD PUSH0 SWAP1 SLOAD SWAP1 PUSH2 0x100 EXP SWAP1 DIV PUSH20 0xFFFFFFFFFFFFFFFFFFFFFFFFFFFFFFFFFFFFFFFF AND PUSH20 0xFFFFFFFFFFFFFFFFFFFFFFFFFFFFFFFFFFFFFFFF AND PUSH20 0xFFFFFFFFFFFFFFFFFFFFFFFFFFFFFFFFFFFFFFFF AND DUP2 MSTORE PUSH1 0x20 ADD SWAP1 DUP2 MSTORE PUSH1 0x20 ADD PUSH0 KECCAK256 SLOAD LT ISZERO PUSH2 0x1C7E JUMPI PUSH1 0x40 MLOAD PUSH32 0x8C379A000000000000000000000000000000000000000000000000000000000 DUP2 MSTORE PUSH1 0x4 ADD PUSH2 0x1C75 SWAP1 PUSH2 0x4880 JUMP JUMPDEST PUSH1 0x40 MLOAD DUP1 SWAP2 SUB SWAP1 REVERT JUMPDEST DUP1 PUSH1 0x9 PUSH0 DUP5 PUSH1 0x6 ADD PUSH0 SWAP1 SLOAD SWAP1 PUSH2 0x100 EXP SWAP1 DIV PUSH20 0xFFFFFFFFFFFFFFFFFFFFFFFFFFFFFFFFFFFFFFFF AND PUSH20 0xFFFFFFFFFFFFFFFFFFFFFFFFFFFFFFFFFFFFFFFF AND PUSH20 0xFFFFFFFFFFFFFFFFFFFFFFFFFFFFFFFFFFFFFFFF AND DUP2 MSTORE PUSH1 0x20 ADD SWAP1 DUP2 MSTORE PUSH1 0x20 ADD PUSH0 KECCAK256 PUSH0 DUP3 DUP3 SLOAD PUSH2 0x1CED SWAP2 SWAP1 PUSH2 0x4593 JUMP JUMPDEST SWAP3 POP POP DUP2 SWAP1 SSTORE POP PUSH0 PUSH1 0x40 MLOAD DUP1 PUSH1 0x60 ADD PUSH1 0x40 MSTORE DUP1 CALLER PUSH20 0xFFFFFFFFFFFFFFFFFFFFFFFFFFFFFFFFFFFFFFFF AND DUP2 MSTORE PUSH1 0x20 ADD PUSH0 PUSH1 0x3 DUP2 GT ISZERO PUSH2 0x1D2F JUMPI PUSH2 0x1D2E PUSH2 0x3AE6 JUMP JUMPDEST JUMPDEST DUP2 MSTORE PUSH1 0x20 ADD DUP4 DUP2 MSTORE POP SWAP1 POP PUSH1 0x8 PUSH0 DUP6 DUP2 MSTORE PUSH1 0x20 ADD SWAP1 DUP2 MSTORE PUSH1 0x20 ADD PUSH0 KECCAK256 DUP2 SWAP1 DUP1 PUSH1 0x1 DUP2 SLOAD ADD DUP1 DUP3 SSTORE DUP1 SWAP2 POP POP PUSH1 0x1 SWAP1 SUB SWAP1 PUSH0 MSTORE PUSH1 0x20 PUSH0 KECCAK256 SWAP1 PUSH1 0x2 MUL ADD PUSH0 SWAP1 SWAP2 SWAP1 SWAP2 SWAP1 SWAP2 POP PUSH0 DUP3 ADD MLOAD DUP2 PUSH0 ADD PUSH0 PUSH2 0x100 EXP DUP2 SLOAD DUP2 PUSH20 0xFFFFFFFFFFFFFFFFFFFFFFFFFFFFFFFFFFFFFFFF MUL NOT AND SWAP1 DUP4 PUSH20 0xFFFFFFFFFFFFFFFFFFFFFFFFFFFFFFFFFFFFFFFF AND MUL OR SWAP1 SSTORE POP PUSH1 0x20 DUP3 ADD MLOAD DUP2 PUSH0 ADD PUSH1 0x14 PUSH2 0x100 EXP DUP2 SLOAD DUP2 PUSH1 0xFF MUL NOT AND SWAP1 DUP4 PUSH1 0x3 DUP2 GT ISZERO PUSH2 0x1DE0 JUMPI PUSH2 0x1DDF PUSH2 0x3AE6 JUMP JUMPDEST JUMPDEST MUL OR SWAP1 SSTORE POP PUSH1 0x40 DUP3 ADD MLOAD DUP2 PUSH1 0x1 ADD SSTORE POP POP PUSH1 0x1 DUP4 PUSH1 0x4 ADD PUSH0 DUP3 DUP3 SLOAD PUSH2 0x1E05 SWAP2 SWAP1 PUSH2 0x44CB JUMP JUMPDEST SWAP3 POP POP DUP2 SWAP1 SSTORE POP PUSH2 0x1E27 CALLER DUP6 PUSH1 0x1 PUSH1 0x40 MLOAD DUP1 PUSH1 0x20 ADD PUSH1 0x40 MSTORE DUP1 PUSH0 DUP2 MSTORE POP PUSH2 0x2554 JUMP JUMPDEST CALLER PUSH20 0xFFFFFFFFFFFFFFFFFFFFFFFFFFFFFFFFFFFFFFFF AND DUP5 PUSH32 0xAC5E7CDFFB9F94EB582C47D5D6548E89EC9F1D35F8BAAFA7C181A3778B419BD8 PUSH1 0x40 MLOAD PUSH1 0x40 MLOAD DUP1 SWAP2 SUB SWAP1 LOG3 POP POP POP PUSH2 0x1E76 PUSH2 0x2524 JUMP JUMPDEST POP JUMP JUMPDEST PUSH0 DUP2 JUMP JUMPDEST PUSH0 PUSH1 0x1 PUSH0 DUP5 PUSH20 0xFFFFFFFFFFFFFFFFFFFFFFFFFFFFFFFFFFFFFFFF AND PUSH20 0xFFFFFFFFFFFFFFFFFFFFFFFFFFFFFFFFFFFFFFFF AND DUP2 MSTORE PUSH1 0x20 ADD SWAP1 DUP2 MSTORE PUSH1 0x20 ADD PUSH0 KECCAK256 PUSH0 DUP4 PUSH20 0xFFFFFFFFFFFFFFFFFFFFFFFFFFFFFFFFFFFFFFFF AND PUSH20 0xFFFFFFFFFFFFFFFFFFFFFFFFFFFFFFFFFFFFFFFF AND DUP2 MSTORE PUSH1 0x20 ADD SWAP1 DUP2 MSTORE PUSH1 0x20 ADD PUSH0 KECCAK256 PUSH0 SWAP1 SLOAD SWAP1 PUSH2 0x100 EXP SWAP1 DIV PUSH1 0xFF AND SWAP1 POP SWAP3 SWAP2 POP POP JUMP JUMPDEST PUSH2 0x1F13 PUSH2 0x32A5 JUMP JUMPDEST PUSH1 0x7 PUSH0 DUP4 DUP2 MSTORE PUSH1 0x20 ADD SWAP1 DUP2 MSTORE PUSH1 0x20 ADD PUSH0 KECCAK256 PUSH1 0x40 MLOAD DUP1 PUSH1 0xE0 ADD PUSH1 0x40 MSTORE SWAP1 DUP2 PUSH0 DUP3 ADD SLOAD DUP2 MSTORE PUSH1 0x20 ADD PUSH1 0x1 DUP3 ADD DUP1 SLOAD PUSH2 0x1F48 SWAP1 PUSH2 0x416D JUMP JUMPDEST DUP1 PUSH1 0x1F ADD PUSH1 0x20 DUP1 SWAP2 DIV MUL PUSH1 0x20 ADD PUSH1 0x40 MLOAD SWAP1 DUP2 ADD PUSH1 0x40 MSTORE DUP1 SWAP3 SWAP2 SWAP1 DUP2 DUP2 MSTORE PUSH1 0x20 ADD DUP3 DUP1 SLOAD PUSH2 0x1F74 SWAP1 PUSH2 0x416D JUMP JUMPDEST DUP1 ISZERO PUSH2 0x1FBF JUMPI DUP1 PUSH1 0x1F LT PUSH2 0x1F96 JUMPI PUSH2 0x100 DUP1 DUP4 SLOAD DIV MUL DUP4 MSTORE SWAP2 PUSH1 0x20 ADD SWAP2 PUSH2 0x1FBF JUMP JUMPDEST DUP3 ADD SWAP2 SWAP1 PUSH0 MSTORE PUSH1 0x20 PUSH0 KECCAK256 SWAP1 JUMPDEST DUP2 SLOAD DUP2 MSTORE SWAP1 PUSH1 0x1 ADD SWAP1 PUSH1 0x20 ADD DUP1 DUP4 GT PUSH2 0x1FA2 JUMPI DUP3 SWAP1 SUB PUSH1 0x1F AND DUP3 ADD SWAP2 JUMPDEST POP POP POP POP POP DUP2 MSTORE PUSH1 0x20 ADD PUSH1 0x2 DUP3 ADD DUP1 SLOAD PUSH2 0x1FD8 SWAP1 PUSH2 0x416D JUMP JUMPDEST DUP1 PUSH1 0x1F ADD PUSH1 0x20 DUP1 SWAP2 DIV MUL PUSH1 0x20 ADD PUSH1 0x40 MLOAD SWAP1 DUP2 ADD PUSH1 0x40 MSTORE DUP1 SWAP3 SWAP2 SWAP1 DUP2 DUP2 MSTORE PUSH1 0x20 ADD DUP3 DUP1 SLOAD PUSH2 0x2004 SWAP1 PUSH2 0x416D JUMP JUMPDEST DUP1 ISZERO PUSH2 0x204F JUMPI DUP1 PUSH1 0x1F LT PUSH2 0x2026 JUMPI PUSH2 0x100 DUP1 DUP4 SLOAD DIV MUL DUP4 MSTORE SWAP2 PUSH1 0x20 ADD SWAP2 PUSH2 0x204F JUMP JUMPDEST DUP3 ADD SWAP2 SWAP1 PUSH0 MSTORE PUSH1 0x20 PUSH0 KECCAK256 SWAP1 JUMPDEST DUP2 SLOAD DUP2 MSTORE SWAP1 PUSH1 0x1 ADD SWAP1 PUSH1 0x20 ADD DUP1 DUP4 GT PUSH2 0x2032 JUMPI DUP3 SWAP1 SUB PUSH1 0x1F AND DUP3 ADD SWAP2 JUMPDEST POP POP POP POP POP DUP2 MSTORE PUSH1 0x20 ADD PUSH1 0x3 DUP3 ADD SLOAD DUP2 MSTORE PUSH1 0x20 ADD PUSH1 0x4 DUP3 ADD SLOAD DUP2 MSTORE PUSH1 0x20 ADD PUSH1 0x5 DUP3 ADD SLOAD DUP2 MSTORE PUSH1 0x20 ADD PUSH1 0x6 DUP3 ADD PUSH0 SWAP1 SLOAD SWAP1 PUSH2 0x100 EXP SWAP1 DIV PUSH20 0xFFFFFFFFFFFFFFFFFFFFFFFFFFFFFFFFFFFFFFFF AND PUSH20 0xFFFFFFFFFFFFFFFFFFFFFFFFFFFFFFFFFFFFFFFF AND PUSH20 0xFFFFFFFFFFFFFFFFFFFFFFFFFFFFFFFFFFFFFFFF AND DUP2 MSTORE POP POP SWAP1 POP SWAP2 SWAP1 POP JUMP JUMPDEST PUSH0 PUSH2 0x20DB PUSH2 0x2206 JUMP JUMPDEST SWAP1 POP DUP1 PUSH20 0xFFFFFFFFFFFFFFFFFFFFFFFFFFFFFFFFFFFFFFFF AND DUP7 PUSH20 0xFFFFFFFFFFFFFFFFFFFFFFFFFFFFFFFFFFFFFFFF AND EQ ISZERO DUP1 ISZERO PUSH2 0x2120 JUMPI POP PUSH2 0x211E DUP7 DUP3 PUSH2 0x1E7D JUMP JUMPDEST ISZERO JUMPDEST ISZERO PUSH2 0x2164 JUMPI DUP1 DUP7 PUSH1 0x40 MLOAD PUSH32 0xE237D92200000000000000000000000000000000000000000000000000000000 DUP2 MSTORE PUSH1 0x4 ADD PUSH2 0x215B SWAP3 SWAP2 SWAP1 PUSH2 0x44A4 JUMP JUMPDEST PUSH1 0x40 MLOAD DUP1 SWAP2 SUB SWAP1 REVERT JUMPDEST PUSH2 0x2171 DUP7 DUP7 DUP7 DUP7 DUP7 PUSH2 0x25E9 JUMP JUMPDEST POP POP POP POP POP POP JUMP JUMPDEST PUSH0 PUSH32 0x7965DB0B00000000000000000000000000000000000000000000000000000000 PUSH28 0xFFFFFFFFFFFFFFFFFFFFFFFFFFFFFFFFFFFFFFFFFFFFFFFFFFFFFFFF NOT AND DUP3 PUSH28 0xFFFFFFFFFFFFFFFFFFFFFFFFFFFFFFFFFFFFFFFFFFFFFFFFFFFFFFFF NOT AND EQ DUP1 PUSH2 0x21EB JUMPI POP PUSH2 0x21EA DUP3 PUSH2 0x28FA JUMP JUMPDEST JUMPDEST SWAP1 POP SWAP2 SWAP1 POP JUMP JUMPDEST PUSH2 0x2203 DUP2 PUSH2 0x21FE PUSH2 0x2206 JUMP JUMPDEST PUSH2 0x29DB JUMP JUMPDEST POP JUMP JUMPDEST PUSH0 CALLER SWAP1 POP SWAP1 JUMP JUMPDEST PUSH0 PUSH20 0xFFFFFFFFFFFFFFFFFFFFFFFFFFFFFFFFFFFFFFFF AND DUP5 PUSH20 0xFFFFFFFFFFFFFFFFFFFFFFFFFFFFFFFFFFFFFFFF AND SUB PUSH2 0x227D JUMPI PUSH0 PUSH1 0x40 MLOAD PUSH32 0x57F447CE00000000000000000000000000000000000000000000000000000000 DUP2 MSTORE PUSH1 0x4 ADD PUSH2 0x2274 SWAP2 SWAP1 PUSH2 0x489E JUMP JUMPDEST PUSH1 0x40 MLOAD DUP1 SWAP2 SUB SWAP1 REVERT JUMPDEST PUSH0 PUSH20 0xFFFFFFFFFFFFFFFFFFFFFFFFFFFFFFFFFFFFFFFF AND DUP6 PUSH20 0xFFFFFFFFFFFFFFFFFFFFFFFFFFFFFFFFFFFFFFFF AND SUB PUSH2 0x22ED JUMPI PUSH0 PUSH1 0x40 MLOAD PUSH32 0x1A8351400000000000000000000000000000000000000000000000000000000 DUP2 MSTORE PUSH1 0x4 ADD PUSH2 0x22E4 SWAP2 SWAP1 PUSH2 0x489E JUMP JUMPDEST PUSH1 0x40 MLOAD DUP1 SWAP2 SUB SWAP1 REVERT JUMPDEST PUSH2 0x22FA DUP6 DUP6 DUP6 DUP6 DUP6 PUSH2 0x2A2C JUMP JUMPDEST POP POP POP POP POP JUMP JUMPDEST PUSH0 PUSH2 0x230C DUP4 DUP4 PUSH2 0xE42 JUMP JUMPDEST PUSH2 0x23E1 JUMPI PUSH1 0x1 PUSH1 0x3 PUSH0 DUP6 DUP2 MSTORE PUSH1 0x20 ADD SWAP1 DUP2 MSTORE PUSH1 0x20 ADD PUSH0 KECCAK256 PUSH0 ADD PUSH0 DUP5 PUSH20 0xFFFFFFFFFFFFFFFFFFFFFFFFFFFFFFFFFFFFFFFF AND PUSH20 0xFFFFFFFFFFFFFFFFFFFFFFFFFFFFFFFFFFFFFFFF AND DUP2 MSTORE PUSH1 0x20 ADD SWAP1 DUP2 MSTORE PUSH1 0x20 ADD PUSH0 KECCAK256 PUSH0 PUSH2 0x100 EXP DUP2 SLOAD DUP2 PUSH1 0xFF MUL NOT AND SWAP1 DUP4 ISZERO ISZERO MUL OR SWAP1 SSTORE POP PUSH2 0x237E PUSH2 0x2206 JUMP JUMPDEST PUSH20 0xFFFFFFFFFFFFFFFFFFFFFFFFFFFFFFFFFFFFFFFF AND DUP3 PUSH20 0xFFFFFFFFFFFFFFFFFFFFFFFFFFFFFFFFFFFFFFFF AND DUP5 PUSH32 0x2F8788117E7EFF1D82E926EC794901D17C78024A50270940304540A733656F0D PUSH1 0x40 MLOAD PUSH1 0x40 MLOAD DUP1 SWAP2 SUB SWAP1 LOG4 PUSH1 0x1 SWAP1 POP PUSH2 0x23E5 JUMP JUMPDEST PUSH0 SWAP1 POP JUMPDEST SWAP3 SWAP2 POP POP JUMP JUMPDEST PUSH0 PUSH2 0x23F6 DUP4 DUP4 PUSH2 0xE42 JUMP JUMPDEST ISZERO PUSH2 0x24CB JUMPI PUSH0 PUSH1 0x3 PUSH0 DUP6 DUP2 MSTORE PUSH1 0x20 ADD SWAP1 DUP2 MSTORE PUSH1 0x20 ADD PUSH0 KECCAK256 PUSH0 ADD PUSH0 DUP5 PUSH20 0xFFFFFFFFFFFFFFFFFFFFFFFFFFFFFFFFFFFFFFFF AND PUSH20 0xFFFFFFFFFFFFFFFFFFFFFFFFFFFFFFFFFFFFFFFF AND DUP2 MSTORE PUSH1 0x20 ADD SWAP1 DUP2 MSTORE PUSH1 0x20 ADD PUSH0 KECCAK256 PUSH0 PUSH2 0x100 EXP DUP2 SLOAD DUP2 PUSH1 0xFF MUL NOT AND SWAP1 DUP4 ISZERO ISZERO MUL OR SWAP1 SSTORE POP PUSH2 0x2468 PUSH2 0x2206 JUMP JUMPDEST PUSH20 0xFFFFFFFFFFFFFFFFFFFFFFFFFFFFFFFFFFFFFFFF AND DUP3 PUSH20 0xFFFFFFFFFFFFFFFFFFFFFFFFFFFFFFFFFFFFFFFF AND DUP5 PUSH32 0xF6391F5C32D9C69D2A47EA670B442974B53935D1EDC7FD64EB21E047A839171B PUSH1 0x40 MLOAD PUSH1 0x40 MLOAD DUP1 SWAP2 SUB SWAP1 LOG4 PUSH1 0x1 SWAP1 POP PUSH2 0x24CF JUMP JUMPDEST PUSH0 SWAP1 POP JUMPDEST SWAP3 SWAP2 POP POP JUMP JUMPDEST PUSH1 0x2 PUSH1 0x4 SLOAD SUB PUSH2 0x251A JUMPI PUSH1 0x40 MLOAD PUSH32 0x8C379A000000000000000000000000000000000000000000000000000000000 DUP2 MSTORE PUSH1 0x4 ADD PUSH2 0x2511 SWAP1 PUSH2 0x4901 JUMP JUMPDEST PUSH1 0x40 MLOAD DUP1 SWAP2 SUB SWAP1 REVERT JUMPDEST PUSH1 0x2 PUSH1 0x4 DUP2 SWAP1 SSTORE POP JUMP JUMPDEST PUSH1 0x1 PUSH1 0x4 DUP2 SWAP1 SSTORE POP JUMP JUMPDEST PUSH0 PUSH1 0x20 DUP3 MUL PUSH1 0x20 DUP5 ADD ADD MLOAD SWAP1 POP SWAP3 SWAP2 POP POP JUMP JUMPDEST PUSH0 PUSH1 0x20 DUP3 MUL PUSH1 0x20 DUP5 ADD ADD MLOAD SWAP1 POP SWAP3 SWAP2 POP POP JUMP JUMPDEST PUSH0 PUSH20 0xFFFFFFFFFFFFFFFFFFFFFFFFFFFFFFFFFFFFFFFF AND DUP5 PUSH20 0xFFFFFFFFFFFFFFFFFFFFFFFFFFFFFFFFFFFFFFFF AND SUB PUSH2 0x25C4 JUMPI PUSH0 PUSH1 0x40 MLOAD PUSH32 0x57F447CE00000000000000000000000000000000000000000000000000000000 DUP2 MSTORE PUSH1 0x4 ADD PUSH2 0x25BB SWAP2 SWAP1 PUSH2 0x489E JUMP JUMPDEST PUSH1 0x40 MLOAD DUP1 SWAP2 SUB SWAP1 REVERT JUMPDEST PUSH0 DUP1 PUSH2 0x25D0 DUP6 DUP6 PUSH2 0x2AD8 JUMP JUMPDEST SWAP2 POP SWAP2 POP PUSH2 0x25E1 PUSH0 DUP8 DUP5 DUP5 DUP8 PUSH2 0x2A2C JUMP JUMPDEST POP POP POP POP POP POP JUMP JUMPDEST PUSH0 PUSH20 0xFFFFFFFFFFFFFFFFFFFFFFFFFFFFFFFFFFFFFFFF AND DUP5 PUSH20 0xFFFFFFFFFFFFFFFFFFFFFFFFFFFFFFFFFFFFFFFF AND SUB PUSH2 0x2659 JUMPI PUSH0 PUSH1 0x40 MLOAD PUSH32 0x57F447CE00000000000000000000000000000000000000000000000000000000 DUP2 MSTORE PUSH1 0x4 ADD PUSH2 0x2650 SWAP2 SWAP1 PUSH2 0x489E JUMP JUMPDEST PUSH1 0x40 MLOAD DUP1 SWAP2 SUB SWAP1 REVERT JUMPDEST PUSH0 PUSH20 0xFFFFFFFFFFFFFFFFFFFFFFFFFFFFFFFFFFFFFFFF AND DUP6 PUSH20 0xFFFFFFFFFFFFFFFFFFFFFFFFFFFFFFFFFFFFFFFF AND SUB PUSH2 0x26C9 JUMPI PUSH0 PUSH1 0x40 MLOAD PUSH32 0x1A8351400000000000000000000000000000000000000000000000000000000 DUP2 MSTORE PUSH1 0x4 ADD PUSH2 0x26C0 SWAP2 SWAP1 PUSH2 0x489E JUMP JUMPDEST PUSH1 0x40 MLOAD DUP1 SWAP2 SUB SWAP1 REVERT JUMPDEST PUSH0 DUP1 PUSH2 0x26D5 DUP6 DUP6 PUSH2 0x2AD8 JUMP JUMPDEST SWAP2 POP SWAP2 POP PUSH2 0x26E6 DUP8 DUP8 DUP5 DUP5 DUP8 PUSH2 0x2A2C JUMP JUMPDEST POP POP POP POP POP POP POP JUMP JUMPDEST PUSH0 PUSH20 0xFFFFFFFFFFFFFFFFFFFFFFFFFFFFFFFFFFFFFFFF AND DUP4 PUSH20 0xFFFFFFFFFFFFFFFFFFFFFFFFFFFFFFFFFFFFFFFF AND SUB PUSH2 0x275F JUMPI PUSH0 PUSH1 0x40 MLOAD PUSH32 0x1A8351400000000000000000000000000000000000000000000000000000000 DUP2 MSTORE PUSH1 0x4 ADD PUSH2 0x2756 SWAP2 SWAP1 PUSH2 0x489E JUMP JUMPDEST PUSH1 0x40 MLOAD DUP1 SWAP2 SUB SWAP1 REVERT JUMPDEST PUSH0 DUP1 PUSH2 0x276B DUP5 DUP5 PUSH2 0x2AD8 JUMP JUMPDEST SWAP2 POP SWAP2 POP PUSH2 0x278A DUP6 PUSH0 DUP5 DUP5 PUSH1 0x40 MLOAD DUP1 PUSH1 0x20 ADD PUSH1 0x40 MSTORE DUP1 PUSH0 DUP2 MSTORE POP PUSH2 0x2A2C JUMP JUMPDEST POP POP POP POP POP JUMP JUMPDEST PUSH0 PUSH20 0xFFFFFFFFFFFFFFFFFFFFFFFFFFFFFFFFFFFFFFFF AND DUP3 PUSH20 0xFFFFFFFFFFFFFFFFFFFFFFFFFFFFFFFFFFFFFFFF AND SUB PUSH2 0x2801 JUMPI PUSH0 PUSH1 0x40 MLOAD PUSH32 0xCED3E10000000000000000000000000000000000000000000000000000000000 DUP2 MSTORE PUSH1 0x4 ADD PUSH2 0x27F8 SWAP2 SWAP1 PUSH2 0x489E JUMP JUMPDEST PUSH1 0x40 MLOAD DUP1 SWAP2 SUB SWAP1 REVERT JUMPDEST DUP1 PUSH1 0x1 PUSH0 DUP6 PUSH20 0xFFFFFFFFFFFFFFFFFFFFFFFFFFFFFFFFFFFFFFFF AND PUSH20 0xFFFFFFFFFFFFFFFFFFFFFFFFFFFFFFFFFFFFFFFF AND DUP2 MSTORE PUSH1 0x20 ADD SWAP1 DUP2 MSTORE PUSH1 0x20 ADD PUSH0 KECCAK256 PUSH0 DUP5 PUSH20 0xFFFFFFFFFFFFFFFFFFFFFFFFFFFFFFFFFFFFFFFF AND PUSH20 0xFFFFFFFFFFFFFFFFFFFFFFFFFFFFFFFFFFFFFFFF AND DUP2 MSTORE PUSH1 0x20 ADD SWAP1 DUP2 MSTORE PUSH1 0x20 ADD PUSH0 KECCAK256 PUSH0 PUSH2 0x100 EXP DUP2 SLOAD DUP2 PUSH1 0xFF MUL NOT AND SWAP1 DUP4 ISZERO ISZERO MUL OR SWAP1 SSTORE POP DUP2 PUSH20 0xFFFFFFFFFFFFFFFFFFFFFFFFFFFFFFFFFFFFFFFF AND DUP4 PUSH20 0xFFFFFFFFFFFFFFFFFFFFFFFFFFFFFFFFFFFFFFFF AND PUSH32 0x17307EAB39AB6107E8899845AD3D59BD9653F200F220920489CA2B5937696C31 DUP4 PUSH1 0x40 MLOAD PUSH2 0x28ED SWAP2 SWAP1 PUSH2 0x3491 JUMP JUMPDEST PUSH1 0x40 MLOAD DUP1 SWAP2 SUB SWAP1 LOG3 POP POP POP JUMP JUMPDEST PUSH0 PUSH32 0xD9B67A2600000000000000000000000000000000000000000000000000000000 PUSH28 0xFFFFFFFFFFFFFFFFFFFFFFFFFFFFFFFFFFFFFFFFFFFFFFFFFFFFFFFF NOT AND DUP3 PUSH28 0xFFFFFFFFFFFFFFFFFFFFFFFFFFFFFFFFFFFFFFFFFFFFFFFFFFFFFFFF NOT AND EQ DUP1 PUSH2 0x29C4 JUMPI POP PUSH32 0xE89341C00000000000000000000000000000000000000000000000000000000 PUSH28 0xFFFFFFFFFFFFFFFFFFFFFFFFFFFFFFFFFFFFFFFFFFFFFFFFFFFFFFFF NOT AND DUP3 PUSH28 0xFFFFFFFFFFFFFFFFFFFFFFFFFFFFFFFFFFFFFFFFFFFFFFFFFFFFFFFF NOT AND EQ JUMPDEST DUP1 PUSH2 0x29D4 JUMPI POP PUSH2 0x29D3 DUP3 PUSH2 0x2B08 JUMP JUMPDEST JUMPDEST SWAP1 POP SWAP2 SWAP1 POP JUMP JUMPDEST PUSH2 0x29E5 DUP3 DUP3 PUSH2 0xE42 JUMP JUMPDEST PUSH2 0x2A28 JUMPI DUP1 DUP3 PUSH1 0x40 MLOAD PUSH32 0xE2517D3F00000000000000000000000000000000000000000000000000000000 DUP2 MSTORE PUSH1 0x4 ADD PUSH2 0x2A1F SWAP3 SWAP2 SWAP1 PUSH2 0x491F JUMP JUMPDEST PUSH1 0x40 MLOAD DUP1 SWAP2 SUB SWAP1 REVERT JUMPDEST POP POP JUMP JUMPDEST PUSH2 0x2A38 DUP6 DUP6 DUP6 DUP6 PUSH2 0x2B71 JUMP JUMPDEST PUSH0 PUSH20 0xFFFFFFFFFFFFFFFFFFFFFFFFFFFFFFFFFFFFFFFF AND DUP5 PUSH20 0xFFFFFFFFFFFFFFFFFFFFFFFFFFFFFFFFFFFFFFFF AND EQ PUSH2 0x2AD1 JUMPI PUSH0 PUSH2 0x2A74 PUSH2 0x2206 JUMP JUMPDEST SWAP1 POP PUSH1 0x1 DUP5 MLOAD SUB PUSH2 0x2AC0 JUMPI PUSH0 PUSH2 0x2A93 PUSH0 DUP7 PUSH2 0x2541 SWAP1 SWAP2 SWAP1 PUSH4 0xFFFFFFFF AND JUMP JUMPDEST SWAP1 POP PUSH0 PUSH2 0x2AA9 PUSH0 DUP7 PUSH2 0x2541 SWAP1 SWAP2 SWAP1 PUSH4 0xFFFFFFFF AND JUMP JUMPDEST SWAP1 POP PUSH2 0x2AB9 DUP4 DUP10 DUP10 DUP6 DUP6 DUP10 PUSH2 0x2F01 JUMP JUMPDEST POP POP PUSH2 0x2ACF JUMP JUMPDEST PUSH2 0x2ACE DUP2 DUP8 DUP8 DUP8 DUP8 DUP8 PUSH2 0x30B0 JUMP JUMPDEST JUMPDEST POP JUMPDEST POP POP POP POP POP JUMP JUMPDEST PUSH1 0x60 DUP1 PUSH1 0x40 MLOAD SWAP2 POP PUSH1 0x1 DUP3 MSTORE DUP4 PUSH1 0x20 DUP4 ADD MSTORE PUSH1 0x40 DUP3 ADD SWAP1 POP PUSH1 0x1 DUP2 MSTORE DUP3 PUSH1 0x20 DUP3 ADD MSTORE PUSH1 0x40 DUP2 ADD PUSH1 0x40 MSTORE SWAP3 POP SWAP3 SWAP1 POP JUMP JUMPDEST PUSH0 PUSH32 0x1FFC9A700000000000000000000000000000000000000000000000000000000 PUSH28 0xFFFFFFFFFFFFFFFFFFFFFFFFFFFFFFFFFFFFFFFFFFFFFFFFFFFFFFFF NOT AND DUP3 PUSH28 0xFFFFFFFFFFFFFFFFFFFFFFFFFFFFFFFFFFFFFFFFFFFFFFFFFFFFFFFF NOT AND EQ SWAP1 POP SWAP2 SWAP1 POP JUMP JUMPDEST DUP1 MLOAD DUP3 MLOAD EQ PUSH2 0x2BBB JUMPI DUP2 MLOAD DUP2 MLOAD PUSH1 0x40 MLOAD PUSH32 0x5B05999100000000000000000000000000000000000000000000000000000000 DUP2 MSTORE PUSH1 0x4 ADD PUSH2 0x2BB2 SWAP3 SWAP2 SWAP1 PUSH2 0x447D JUMP JUMPDEST PUSH1 0x40 MLOAD DUP1 SWAP2 SUB SWAP1 REVERT JUMPDEST PUSH0 PUSH2 0x2BC4 PUSH2 0x2206 JUMP JUMPDEST SWAP1 POP PUSH0 JUMPDEST DUP4 MLOAD DUP2 LT ISZERO PUSH2 0x2DC0 JUMPI PUSH0 PUSH2 0x2BE5 DUP3 DUP7 PUSH2 0x2541 SWAP1 SWAP2 SWAP1 PUSH4 0xFFFFFFFF AND JUMP JUMPDEST SWAP1 POP PUSH0 PUSH2 0x2BFB DUP4 DUP7 PUSH2 0x2541 SWAP1 SWAP2 SWAP1 PUSH4 0xFFFFFFFF AND JUMP JUMPDEST SWAP1 POP PUSH0 PUSH20 0xFFFFFFFFFFFFFFFFFFFFFFFFFFFFFFFFFFFFFFFF AND DUP9 PUSH20 0xFFFFFFFFFFFFFFFFFFFFFFFFFFFFFFFFFFFFFFFF AND EQ PUSH2 0x2D1E JUMPI PUSH0 DUP1 PUSH0 DUP5 DUP2 MSTORE PUSH1 0x20 ADD SWAP1 DUP2 MSTORE PUSH1 0x20 ADD PUSH0 KECCAK256 PUSH0 DUP11 PUSH20 0xFFFFFFFFFFFFFFFFFFFFFFFFFFFFFFFFFFFFFFFF AND PUSH20 0xFFFFFFFFFFFFFFFFFFFFFFFFFFFFFFFFFFFFFFFF AND DUP2 MSTORE PUSH1 0x20 ADD SWAP1 DUP2 MSTORE PUSH1 0x20 ADD PUSH0 KECCAK256 SLOAD SWAP1 POP DUP2 DUP2 LT ISZERO PUSH2 0x2CCA JUMPI DUP9 DUP2 DUP4 DUP6 PUSH1 0x40 MLOAD PUSH32 0x3DEE4C500000000000000000000000000000000000000000000000000000000 DUP2 MSTORE PUSH1 0x4 ADD PUSH2 0x2CC1 SWAP5 SWAP4 SWAP3 SWAP2 SWAP1 PUSH2 0x4946 JUMP JUMPDEST PUSH1 0x40 MLOAD DUP1 SWAP2 SUB SWAP1 REVERT JUMPDEST DUP2 DUP2 SUB PUSH0 DUP1 DUP6 DUP2 MSTORE PUSH1 0x20 ADD SWAP1 DUP2 MSTORE PUSH1 0x20 ADD PUSH0 KECCAK256 PUSH0 DUP12 PUSH20 0xFFFFFFFFFFFFFFFFFFFFFFFFFFFFFFFFFFFFFFFF AND PUSH20 0xFFFFFFFFFFFFFFFFFFFFFFFFFFFFFFFFFFFFFFFF AND DUP2 MSTORE PUSH1 0x20 ADD SWAP1 DUP2 MSTORE PUSH1 0x20 ADD PUSH0 KECCAK256 DUP2 SWAP1 SSTORE POP POP JUMPDEST PUSH0 PUSH20 0xFFFFFFFFFFFFFFFFFFFFFFFFFFFFFFFFFFFFFFFF AND DUP8 PUSH20 0xFFFFFFFFFFFFFFFFFFFFFFFFFFFFFFFFFFFFFFFF AND EQ PUSH2 0x2DB3 JUMPI DUP1 PUSH0 DUP1 DUP5 DUP2 MSTORE PUSH1 0x20 ADD SWAP1 DUP2 MSTORE PUSH1 0x20 ADD PUSH0 KECCAK256 PUSH0 DUP10 PUSH20 0xFFFFFFFFFFFFFFFFFFFFFFFFFFFFFFFFFFFFFFFF AND PUSH20 0xFFFFFFFFFFFFFFFFFFFFFFFFFFFFFFFFFFFFFFFF AND DUP2 MSTORE PUSH1 0x20 ADD SWAP1 DUP2 MSTORE PUSH1 0x20 ADD PUSH0 KECCAK256 PUSH0 DUP3 DUP3 SLOAD PUSH2 0x2DAB SWAP2 SWAP1 PUSH2 0x44CB JUMP JUMPDEST SWAP3 POP POP DUP2 SWAP1 SSTORE POP JUMPDEST POP POP DUP1 PUSH1 0x1 ADD SWAP1 POP PUSH2 0x2BC8 JUMP JUMPDEST POP PUSH1 0x1 DUP4 MLOAD SUB PUSH2 0x2E7B JUMPI PUSH0 PUSH2 0x2DDE PUSH0 DUP6 PUSH2 0x2541 SWAP1 SWAP2 SWAP1 PUSH4 0xFFFFFFFF AND JUMP JUMPDEST SWAP1 POP PUSH0 PUSH2 0x2DF4 PUSH0 DUP6 PUSH2 0x2541 SWAP1 SWAP2 SWAP1 PUSH4 0xFFFFFFFF AND JUMP JUMPDEST SWAP1 POP DUP6 PUSH20 0xFFFFFFFFFFFFFFFFFFFFFFFFFFFFFFFFFFFFFFFF AND DUP8 PUSH20 0xFFFFFFFFFFFFFFFFFFFFFFFFFFFFFFFFFFFFFFFF AND DUP5 PUSH20 0xFFFFFFFFFFFFFFFFFFFFFFFFFFFFFFFFFFFFFFFF AND PUSH32 0xC3D58168C5AE7397731D063D5BBF3D657854427343F4C083240F7AACAA2D0F62 DUP6 DUP6 PUSH1 0x40 MLOAD PUSH2 0x2E6C SWAP3 SWAP2 SWAP1 PUSH2 0x447D JUMP JUMPDEST PUSH1 0x40 MLOAD DUP1 SWAP2 SUB SWAP1 LOG4 POP POP PUSH2 0x2EFA JUMP JUMPDEST DUP4 PUSH20 0xFFFFFFFFFFFFFFFFFFFFFFFFFFFFFFFFFFFFFFFF AND DUP6 PUSH20 0xFFFFFFFFFFFFFFFFFFFFFFFFFFFFFFFFFFFFFFFF AND DUP3 PUSH20 0xFFFFFFFFFFFFFFFFFFFFFFFFFFFFFFFFFFFFFFFF AND PUSH32 0x4A39DC06D4C0DBC64B70AF90FD698A233A518AA5D07E595D983B8C0526C8F7FB DUP7 DUP7 PUSH1 0x40 MLOAD PUSH2 0x2EF1 SWAP3 SWAP2 SWAP1 PUSH2 0x4989 JUMP JUMPDEST PUSH1 0x40 MLOAD DUP1 SWAP2 SUB SWAP1 LOG4 JUMPDEST POP POP POP POP POP JUMP JUMPDEST PUSH0 DUP5 PUSH20 0xFFFFFFFFFFFFFFFFFFFFFFFFFFFFFFFFFFFFFFFF AND EXTCODESIZE GT ISZERO PUSH2 0x30A8 JUMPI DUP4 PUSH20 0xFFFFFFFFFFFFFFFFFFFFFFFFFFFFFFFFFFFFFFFF AND PUSH4 0xF23A6E61 DUP8 DUP8 DUP7 DUP7 DUP7 PUSH1 0x40 MLOAD DUP7 PUSH4 0xFFFFFFFF AND PUSH1 0xE0 SHL DUP2 MSTORE PUSH1 0x4 ADD PUSH2 0x2F61 SWAP6 SWAP5 SWAP4 SWAP3 SWAP2 SWAP1 PUSH2 0x49BE JUMP JUMPDEST PUSH1 0x20 PUSH1 0x40 MLOAD DUP1 DUP4 SUB DUP2 PUSH0 DUP8 GAS CALL SWAP3 POP POP POP DUP1 ISZERO PUSH2 0x2F9C JUMPI POP PUSH1 0x40 MLOAD RETURNDATASIZE PUSH1 0x1F NOT PUSH1 0x1F DUP3 ADD AND DUP3 ADD DUP1 PUSH1 0x40 MSTORE POP DUP2 ADD SWAP1 PUSH2 0x2F99 SWAP2 SWAP1 PUSH2 0x4A2A JUMP JUMPDEST PUSH1 0x1 JUMPDEST PUSH2 0x301D JUMPI RETURNDATASIZE DUP1 PUSH0 DUP2 EQ PUSH2 0x2FCA JUMPI PUSH1 0x40 MLOAD SWAP2 POP PUSH1 0x1F NOT PUSH1 0x3F RETURNDATASIZE ADD AND DUP3 ADD PUSH1 0x40 MSTORE RETURNDATASIZE DUP3 MSTORE RETURNDATASIZE PUSH0 PUSH1 0x20 DUP5 ADD RETURNDATACOPY PUSH2 0x2FCF JUMP JUMPDEST PUSH1 0x60 SWAP2 POP JUMPDEST POP PUSH0 DUP2 MLOAD SUB PUSH2 0x3015 JUMPI DUP5 PUSH1 0x40 MLOAD PUSH32 0x57F447CE00000000000000000000000000000000000000000000000000000000 DUP2 MSTORE PUSH1 0x4 ADD PUSH2 0x300C SWAP2 SWAP1 PUSH2 0x489E JUMP JUMPDEST PUSH1 0x40 MLOAD DUP1 SWAP2 SUB SWAP1 REVERT JUMPDEST DUP1 MLOAD DUP2 PUSH1 0x20 ADD REVERT JUMPDEST PUSH4 0xF23A6E61 PUSH1 0xE0 SHL PUSH28 0xFFFFFFFFFFFFFFFFFFFFFFFFFFFFFFFFFFFFFFFFFFFFFFFFFFFFFFFF NOT AND DUP2 PUSH28 0xFFFFFFFFFFFFFFFFFFFFFFFFFFFFFFFFFFFFFFFFFFFFFFFFFFFFFFFF NOT AND EQ PUSH2 0x30A6 JUMPI DUP5 PUSH1 0x40 MLOAD PUSH32 0x57F447CE00000000000000000000000000000000000000000000000000000000 DUP2 MSTORE PUSH1 0x4 ADD PUSH2 0x309D SWAP2 SWAP1 PUSH2 0x489E JUMP JUMPDEST PUSH1 0x40 MLOAD DUP1 SWAP2 SUB SWAP1 REVERT JUMPDEST POP JUMPDEST POP POP POP POP POP POP JUMP JUMPDEST PUSH0 DUP5 PUSH20 0xFFFFFFFFFFFFFFFFFFFFFFFFFFFFFFFFFFFFFFFF AND EXTCODESIZE GT ISZERO PUSH2 0x3257 JUMPI DUP4 PUSH20 0xFFFFFFFFFFFFFFFFFFFFFFFFFFFFFFFFFFFFFFFF AND PUSH4 0xBC197C81 DUP8 DUP8 DUP7 DUP7 DUP7 PUSH1 0x40 MLOAD DUP7 PUSH4 0xFFFFFFFF AND PUSH1 0xE0 SHL DUP2 MSTORE PUSH1 0x4 ADD PUSH2 0x3110 SWAP6 SWAP5 SWAP4 SWAP3 SWAP2 SWAP1 PUSH2 0x4A55 JUMP JUMPDEST PUSH1 0x20 PUSH1 0x40 MLOAD DUP1 DUP4 SUB DUP2 PUSH0 DUP8 GAS CALL SWAP3 POP POP POP DUP1 ISZERO PUSH2 0x314B JUMPI POP PUSH1 0x40 MLOAD RETURNDATASIZE PUSH1 0x1F NOT PUSH1 0x1F DUP3 ADD AND DUP3 ADD DUP1 PUSH1 0x40 MSTORE POP DUP2 ADD SWAP1 PUSH2 0x3148 SWAP2 SWAP1 PUSH2 0x4A2A JUMP JUMPDEST PUSH1 0x1 JUMPDEST PUSH2 0x31CC JUMPI RETURNDATASIZE DUP1 PUSH0 DUP2 EQ PUSH2 0x3179 JUMPI PUSH1 0x40 MLOAD SWAP2 POP PUSH1 0x1F NOT PUSH1 0x3F RETURNDATASIZE ADD AND DUP3 ADD PUSH1 0x40 MSTORE RETURNDATASIZE DUP3 MSTORE RETURNDATASIZE PUSH0 PUSH1 0x20 DUP5 ADD RETURNDATACOPY PUSH2 0x317E JUMP JUMPDEST PUSH1 0x60 SWAP2 POP JUMPDEST POP PUSH0 DUP2 MLOAD SUB PUSH2 0x31C4 JUMPI DUP5 PUSH1 0x40 MLOAD PUSH32 0x57F447CE00000000000000000000000000000000000000000000000000000000 DUP2 MSTORE PUSH1 0x4 ADD PUSH2 0x31BB SWAP2 SWAP1 PUSH2 0x489E JUMP JUMPDEST PUSH1 0x40 MLOAD DUP1 SWAP2 SUB SWAP1 REVERT JUMPDEST DUP1 MLOAD DUP2 PUSH1 0x20 ADD REVERT JUMPDEST PUSH4 0xBC197C81 PUSH1 0xE0 SHL PUSH28 0xFFFFFFFFFFFFFFFFFFFFFFFFFFFFFFFFFFFFFFFFFFFFFFFFFFFFFFFF NOT AND DUP2 PUSH28 0xFFFFFFFFFFFFFFFFFFFFFFFFFFFFFFFFFFFFFFFFFFFFFFFFFFFFFFFF NOT AND EQ PUSH2 0x3255 JUMPI DUP5 PUSH1 0x40 MLOAD PUSH32 0x57F447CE00000000000000000000000000000000000000000000000000000000 DUP2 MSTORE PUSH1 0x4 ADD PUSH2 0x324C SWAP2 SWAP1 PUSH2 0x489E JUMP JUMPDEST PUSH1 0x40 MLOAD DUP1 SWAP2 SUB SWAP1 REVERT JUMPDEST POP JUMPDEST POP POP POP POP POP POP JUMP JUMPDEST PUSH1 0x40 MLOAD DUP1 PUSH1 0x60 ADD PUSH1 0x40 MSTORE DUP1 PUSH0 PUSH20 0xFFFFFFFFFFFFFFFFFFFFFFFFFFFFFFFFFFFFFFFF AND DUP2 MSTORE PUSH1 0x20 ADD PUSH0 PUSH1 0x3 DUP2 GT ISZERO PUSH2 0x3299 JUMPI PUSH2 0x3298 PUSH2 0x3AE6 JUMP JUMPDEST JUMPDEST DUP2 MSTORE PUSH1 0x20 ADD PUSH0 DUP2 MSTORE POP SWAP1 JUMP JUMPDEST PUSH1 0x40 MLOAD DUP1 PUSH1 0xE0 ADD PUSH1 0x40 MSTORE DUP1 PUSH0 DUP2 MSTORE PUSH1 0x20 ADD PUSH1 0x60 DUP2 MSTORE PUSH1 0x20 ADD PUSH1 0x60 DUP2 MSTORE PUSH1 0x20 ADD PUSH0 DUP2 MSTORE PUSH1 0x20 ADD PUSH0 DUP2 MSTORE PUSH1 0x20 ADD PUSH0 DUP2 MSTORE PUSH1 0x20 ADD PUSH0 PUSH20 0xFFFFFFFFFFFFFFFFFFFFFFFFFFFFFFFFFFFFFFFF AND DUP2 MSTORE POP SWAP1 JUMP JUMPDEST PUSH0 PUSH1 0x40 MLOAD SWAP1 POP SWAP1 JUMP JUMPDEST PUSH0 DUP1 REVERT JUMPDEST PUSH0 DUP1 REVERT JUMPDEST PUSH0 PUSH20 0xFFFFFFFFFFFFFFFFFFFFFFFFFFFFFFFFFFFFFFFF DUP3 AND SWAP1 POP SWAP2 SWAP1 POP JUMP JUMPDEST PUSH0 PUSH2 0x332D DUP3 PUSH2 0x3304 JUMP JUMPDEST SWAP1 POP SWAP2 SWAP1 POP JUMP JUMPDEST PUSH2 0x333D DUP2 PUSH2 0x3323 JUMP JUMPDEST DUP2 EQ PUSH2 0x3347 JUMPI PUSH0 DUP1 REVERT JUMPDEST POP JUMP JUMPDEST PUSH0 DUP2 CALLDATALOAD SWAP1 POP PUSH2 0x3358 DUP2 PUSH2 0x3334 JUMP JUMPDEST SWAP3 SWAP2 POP POP JUMP JUMPDEST PUSH0 DUP2 SWAP1 POP SWAP2 SWAP1 POP JUMP JUMPDEST PUSH2 0x3370 DUP2 PUSH2 0x335E JUMP JUMPDEST DUP2 EQ PUSH2 0x337A JUMPI PUSH0 DUP1 REVERT JUMPDEST POP JUMP JUMPDEST PUSH0 DUP2 CALLDATALOAD SWAP1 POP PUSH2 0x338B DUP2 PUSH2 0x3367 JUMP JUMPDEST SWAP3 SWAP2 POP POP JUMP JUMPDEST PUSH0 DUP1 PUSH1 0x40 DUP4 DUP6 SUB SLT ISZERO PUSH2 0x33A7 JUMPI PUSH2 0x33A6 PUSH2 0x32FC JUMP JUMPDEST JUMPDEST PUSH0 PUSH2 0x33B4 DUP6 DUP3 DUP7 ADD PUSH2 0x334A JUMP JUMPDEST SWAP3 POP POP PUSH1 0x20 PUSH2 0x33C5 DUP6 DUP3 DUP7 ADD PUSH2 0x337D JUMP JUMPDEST SWAP2 POP POP SWAP3 POP SWAP3 SWAP1 POP JUMP JUMPDEST PUSH2 0x33D8 DUP2 PUSH2 0x335E JUMP JUMPDEST DUP3 MSTORE POP POP JUMP JUMPDEST PUSH0 PUSH1 0x20 DUP3 ADD SWAP1 POP PUSH2 0x33F1 PUSH0 DUP4 ADD DUP5 PUSH2 0x33CF JUMP JUMPDEST SWAP3 SWAP2 POP POP JUMP JUMPDEST PUSH0 PUSH32 0xFFFFFFFF00000000000000000000000000000000000000000000000000000000 DUP3 AND SWAP1 POP SWAP2 SWAP1 POP JUMP JUMPDEST PUSH2 0x342B DUP2 PUSH2 0x33F7 JUMP JUMPDEST DUP2 EQ PUSH2 0x3435 JUMPI PUSH0 DUP1 REVERT JUMPDEST POP JUMP JUMPDEST PUSH0 DUP2 CALLDATALOAD SWAP1 POP PUSH2 0x3446 DUP2 PUSH2 0x3422 JUMP JUMPDEST SWAP3 SWAP2 POP POP JUMP JUMPDEST PUSH0 PUSH1 0x20 DUP3 DUP5 SUB SLT ISZERO PUSH2 0x3461 JUMPI PUSH2 0x3460 PUSH2 0x32FC JUMP JUMPDEST JUMPDEST PUSH0 PUSH2 0x346E DUP5 DUP3 DUP6 ADD PUSH2 0x3438 JUMP JUMPDEST SWAP2 POP POP SWAP3 SWAP2 POP POP JUMP JUMPDEST PUSH0 DUP2 ISZERO ISZERO SWAP1 POP SWAP2 SWAP1 POP JUMP JUMPDEST PUSH2 0x348B DUP2 PUSH2 0x3477 JUMP JUMPDEST DUP3 MSTORE POP POP JUMP JUMPDEST PUSH0 PUSH1 0x20 DUP3 ADD SWAP1 POP PUSH2 0x34A4 PUSH0 DUP4 ADD DUP5 PUSH2 0x3482 JUMP JUMPDEST SWAP3 SWAP2 POP POP JUMP JUMPDEST PUSH0 PUSH1 0x20 DUP3 DUP5 SUB SLT ISZERO PUSH2 0x34BF JUMPI PUSH2 0x34BE PUSH2 0x32FC JUMP JUMPDEST JUMPDEST PUSH0 PUSH2 0x34CC DUP5 DUP3 DUP6 ADD PUSH2 0x337D JUMP JUMPDEST SWAP2 POP POP SWAP3 SWAP2 POP POP JUMP JUMPDEST PUSH0 DUP2 MLOAD SWAP1 POP SWAP2 SWAP1 POP JUMP JUMPDEST PUSH0 DUP3 DUP3 MSTORE PUSH1 0x20 DUP3 ADD SWAP1 POP SWAP3 SWAP2 POP POP JUMP JUMPDEST DUP3 DUP2 DUP4 MCOPY PUSH0 DUP4 DUP4 ADD MSTORE POP POP POP JUMP JUMPDEST PUSH0 PUSH1 0x1F NOT PUSH1 0x1F DUP4 ADD AND SWAP1 POP SWAP2 SWAP1 POP JUMP JUMPDEST PUSH0 PUSH2 0x3517 DUP3 PUSH2 0x34D5 JUMP JUMPDEST PUSH2 0x3521 DUP2 DUP6 PUSH2 0x34DF JUMP JUMPDEST SWAP4 POP PUSH2 0x3531 DUP2 DUP6 PUSH1 0x20 DUP7 ADD PUSH2 0x34EF JUMP JUMPDEST PUSH2 0x353A DUP2 PUSH2 0x34FD JUMP JUMPDEST DUP5 ADD SWAP2 POP POP SWAP3 SWAP2 POP POP JUMP JUMPDEST PUSH0 PUSH1 0x20 DUP3 ADD SWAP1 POP DUP2 DUP2 SUB PUSH0 DUP4 ADD MSTORE PUSH2 0x355D DUP2 DUP5 PUSH2 0x350D JUMP JUMPDEST SWAP1 POP SWAP3 SWAP2 POP POP JUMP JUMPDEST PUSH0 DUP1 REVERT JUMPDEST PUSH0 DUP1 REVERT JUMPDEST PUSH32 0x4E487B7100000000000000000000000000000000000000000000000000000000 PUSH0 MSTORE PUSH1 0x41 PUSH1 0x4 MSTORE PUSH1 0x24 PUSH0 REVERT JUMPDEST PUSH2 0x35A3 DUP3 PUSH2 0x34FD JUMP JUMPDEST DUP2 ADD DUP2 DUP2 LT PUSH8 0xFFFFFFFFFFFFFFFF DUP3 GT OR ISZERO PUSH2 0x35C2 JUMPI PUSH2 0x35C1 PUSH2 0x356D JUMP JUMPDEST JUMPDEST DUP1 PUSH1 0x40 MSTORE POP POP POP JUMP JUMPDEST PUSH0 PUSH2 0x35D4 PUSH2 0x32F3 JUMP JUMPDEST SWAP1 POP PUSH2 0x35E0 DUP3 DUP3 PUSH2 0x359A JUMP JUMPDEST SWAP2 SWAP1 POP JUMP JUMPDEST PUSH0 PUSH8 0xFFFFFFFFFFFFFFFF DUP3 GT ISZERO PUSH2 0x35FF JUMPI PUSH2 0x35FE PUSH2 0x356D JUMP JUMPDEST JUMPDEST PUSH2 0x3608 DUP3 PUSH2 0x34FD JUMP JUMPDEST SWAP1 POP PUSH1 0x20 DUP2 ADD SWAP1 POP SWAP2 SWAP1 POP JUMP JUMPDEST DUP3 DUP2 DUP4 CALLDATACOPY PUSH0 DUP4 DUP4 ADD MSTORE POP POP POP JUMP JUMPDEST PUSH0 PUSH2 0x3635 PUSH2 0x3630 DUP5 PUSH2 0x35E5 JUMP JUMPDEST PUSH2 0x35CB JUMP JUMPDEST SWAP1 POP DUP3 DUP2 MSTORE PUSH1 0x20 DUP2 ADD DUP5 DUP5 DUP5 ADD GT ISZERO PUSH2 0x3651 JUMPI PUSH2 0x3650 PUSH2 0x3569 JUMP JUMPDEST JUMPDEST PUSH2 0x365C DUP5 DUP3 DUP6 PUSH2 0x3615 JUMP JUMPDEST POP SWAP4 SWAP3 POP POP POP JUMP JUMPDEST PUSH0 DUP3 PUSH1 0x1F DUP4 ADD SLT PUSH2 0x3678 JUMPI PUSH2 0x3677 PUSH2 0x3565 JUMP JUMPDEST JUMPDEST DUP2 CALLDATALOAD PUSH2 0x3688 DUP5 DUP3 PUSH1 0x20 DUP7 ADD PUSH2 0x3623 JUMP JUMPDEST SWAP2 POP POP SWAP3 SWAP2 POP POP JUMP JUMPDEST PUSH0 DUP1 PUSH0 DUP1 PUSH1 0x80 DUP6 DUP8 SUB SLT ISZERO PUSH2 0x36A9 JUMPI PUSH2 0x36A8 PUSH2 0x32FC JUMP JUMPDEST JUMPDEST PUSH0 DUP6 ADD CALLDATALOAD PUSH8 0xFFFFFFFFFFFFFFFF DUP2 GT ISZERO PUSH2 0x36C6 JUMPI PUSH2 0x36C5 PUSH2 0x3300 JUMP JUMPDEST JUMPDEST PUSH2 0x36D2 DUP8 DUP3 DUP9 ADD PUSH2 0x3664 JUMP JUMPDEST SWAP5 POP POP PUSH1 0x20 DUP6 ADD CALLDATALOAD PUSH8 0xFFFFFFFFFFFFFFFF DUP2 GT ISZERO PUSH2 0x36F3 JUMPI PUSH2 0x36F2 PUSH2 0x3300 JUMP JUMPDEST JUMPDEST PUSH2 0x36FF DUP8 DUP3 DUP9 ADD PUSH2 0x3664 JUMP JUMPDEST SWAP4 POP POP PUSH1 0x40 PUSH2 0x3710 DUP8 DUP3 DUP9 ADD PUSH2 0x337D JUMP JUMPDEST SWAP3 POP POP PUSH1 0x60 PUSH2 0x3721 DUP8 DUP3 DUP9 ADD PUSH2 0x337D JUMP JUMPDEST SWAP2 POP POP SWAP3 SWAP6 SWAP2 SWAP5 POP SWAP3 POP JUMP JUMPDEST PUSH0 DUP2 SWAP1 POP SWAP2 SWAP1 POP JUMP JUMPDEST PUSH2 0x373F DUP2 PUSH2 0x372D JUMP JUMPDEST DUP2 EQ PUSH2 0x3749 JUMPI PUSH0 DUP1 REVERT JUMPDEST POP JUMP JUMPDEST PUSH0 DUP2 CALLDATALOAD SWAP1 POP PUSH2 0x375A DUP2 PUSH2 0x3736 JUMP JUMPDEST SWAP3 SWAP2 POP POP JUMP JUMPDEST PUSH0 PUSH1 0x20 DUP3 DUP5 SUB SLT ISZERO PUSH2 0x3775 JUMPI PUSH2 0x3774 PUSH2 0x32FC JUMP JUMPDEST JUMPDEST PUSH0 PUSH2 0x3782 DUP5 DUP3 DUP6 ADD PUSH2 0x374C JUMP JUMPDEST SWAP2 POP POP SWAP3 SWAP2 POP POP JUMP JUMPDEST PUSH2 0x3794 DUP2 PUSH2 0x372D JUMP JUMPDEST DUP3 MSTORE POP POP JUMP JUMPDEST PUSH0 PUSH1 0x20 DUP3 ADD SWAP1 POP PUSH2 0x37AD PUSH0 DUP4 ADD DUP5 PUSH2 0x378B JUMP JUMPDEST SWAP3 SWAP2 POP POP JUMP JUMPDEST PUSH0 PUSH8 0xFFFFFFFFFFFFFFFF DUP3 GT ISZERO PUSH2 0x37CD JUMPI PUSH2 0x37CC PUSH2 0x356D JUMP JUMPDEST JUMPDEST PUSH1 0x20 DUP3 MUL SWAP1 POP PUSH1 0x20 DUP2 ADD SWAP1 POP SWAP2 SWAP1 POP JUMP JUMPDEST PUSH0 DUP1 REVERT JUMPDEST PUSH0 PUSH2 0x37F4 PUSH2 0x37EF DUP5 PUSH2 0x37B3 JUMP JUMPDEST PUSH2 0x35CB JUMP JUMPDEST SWAP1 POP DUP1 DUP4 DUP3 MSTORE PUSH1 0x20 DUP3 ADD SWAP1 POP PUSH1 0x20 DUP5 MUL DUP4 ADD DUP6 DUP2 GT ISZERO PUSH2 0x3817 JUMPI PUSH2 0x3816 PUSH2 0x37DE JUMP JUMPDEST JUMPDEST DUP4 JUMPDEST DUP2 DUP2 LT ISZERO PUSH2 0x3840 JUMPI DUP1 PUSH2 0x382C DUP9 DUP3 PUSH2 0x337D JUMP JUMPDEST DUP5 MSTORE PUSH1 0x20 DUP5 ADD SWAP4 POP POP PUSH1 0x20 DUP2 ADD SWAP1 POP PUSH2 0x3819 JUMP JUMPDEST POP POP POP SWAP4 SWAP3 POP POP POP JUMP JUMPDEST PUSH0 DUP3 PUSH1 0x1F DUP4 ADD SLT PUSH2 0x385E JUMPI PUSH2 0x385D PUSH2 0x3565 JUMP JUMPDEST JUMPDEST DUP2 CALLDATALOAD PUSH2 0x386E DUP5 DUP3 PUSH1 0x20 DUP7 ADD PUSH2 0x37E2 JUMP JUMPDEST SWAP2 POP POP SWAP3 SWAP2 POP POP JUMP JUMPDEST PUSH0 PUSH8 0xFFFFFFFFFFFFFFFF DUP3 GT ISZERO PUSH2 0x3891 JUMPI PUSH2 0x3890 PUSH2 0x356D JUMP JUMPDEST JUMPDEST PUSH2 0x389A DUP3 PUSH2 0x34FD JUMP JUMPDEST SWAP1 POP PUSH1 0x20 DUP2 ADD SWAP1 POP SWAP2 SWAP1 POP JUMP JUMPDEST PUSH0 PUSH2 0x38B9 PUSH2 0x38B4 DUP5 PUSH2 0x3877 JUMP JUMPDEST PUSH2 0x35CB JUMP JUMPDEST SWAP1 POP DUP3 DUP2 MSTORE PUSH1 0x20 DUP2 ADD DUP5 DUP5 DUP5 ADD GT ISZERO PUSH2 0x38D5 JUMPI PUSH2 0x38D4 PUSH2 0x3569 JUMP JUMPDEST JUMPDEST PUSH2 0x38E0 DUP5 DUP3 DUP6 PUSH2 0x3615 JUMP JUMPDEST POP SWAP4 SWAP3 POP POP POP JUMP JUMPDEST PUSH0 DUP3 PUSH1 0x1F DUP4 ADD SLT PUSH2 0x38FC JUMPI PUSH2 0x38FB PUSH2 0x3565 JUMP JUMPDEST JUMPDEST DUP2 CALLDATALOAD PUSH2 0x390C DUP5 DUP3 PUSH1 0x20 DUP7 ADD PUSH2 0x38A7 JUMP JUMPDEST SWAP2 POP POP SWAP3 SWAP2 POP POP JUMP JUMPDEST PUSH0 DUP1 PUSH0 DUP1 PUSH0 PUSH1 0xA0 DUP7 DUP9 SUB SLT ISZERO PUSH2 0x392E JUMPI PUSH2 0x392D PUSH2 0x32FC JUMP JUMPDEST JUMPDEST PUSH0 PUSH2 0x393B DUP9 DUP3 DUP10 ADD PUSH2 0x334A JUMP JUMPDEST SWAP6 POP POP PUSH1 0x20 PUSH2 0x394C DUP9 DUP3 DUP10 ADD PUSH2 0x334A JUMP JUMPDEST SWAP5 POP POP PUSH1 0x40 DUP7 ADD CALLDATALOAD PUSH8 0xFFFFFFFFFFFFFFFF DUP2 GT ISZERO PUSH2 0x396D JUMPI PUSH2 0x396C PUSH2 0x3300 JUMP JUMPDEST JUMPDEST PUSH2 0x3979 DUP9 DUP3 DUP10 ADD PUSH2 0x384A JUMP JUMPDEST SWAP4 POP POP PUSH1 0x60 DUP7 ADD CALLDATALOAD PUSH8 0xFFFFFFFFFFFFFFFF DUP2 GT ISZERO PUSH2 0x399A JUMPI PUSH2 0x3999 PUSH2 0x3300 JUMP JUMPDEST JUMPDEST PUSH2 0x39A6 DUP9 DUP3 DUP10 ADD PUSH2 0x384A JUMP JUMPDEST SWAP3 POP POP PUSH1 0x80 DUP7 ADD CALLDATALOAD PUSH8 0xFFFFFFFFFFFFFFFF DUP2 GT ISZERO PUSH2 0x39C7 JUMPI PUSH2 0x39C6 PUSH2 0x3300 JUMP JUMPDEST JUMPDEST PUSH2 0x39D3 DUP9 DUP3 DUP10 ADD PUSH2 0x38E8 JUMP JUMPDEST SWAP2 POP POP SWAP3 SWAP6 POP SWAP3 SWAP6 SWAP1 SWAP4 POP JUMP JUMPDEST PUSH0 DUP1 PUSH1 0x40 DUP4 DUP6 SUB SLT ISZERO PUSH2 0x39F6 JUMPI PUSH2 0x39F5 PUSH2 0x32FC JUMP JUMPDEST JUMPDEST PUSH0 PUSH2 0x3A03 DUP6 DUP3 DUP7 ADD PUSH2 0x374C JUMP JUMPDEST SWAP3 POP POP PUSH1 0x20 PUSH2 0x3A14 DUP6 DUP3 DUP7 ADD PUSH2 0x334A JUMP JUMPDEST SWAP2 POP POP SWAP3 POP SWAP3 SWAP1 POP JUMP JUMPDEST PUSH2 0x3A27 DUP2 PUSH2 0x3323 JUMP JUMPDEST DUP3 MSTORE POP POP JUMP JUMPDEST PUSH0 PUSH1 0xE0 DUP3 ADD SWAP1 POP PUSH2 0x3A40 PUSH0 DUP4 ADD DUP11 PUSH2 0x33CF JUMP JUMPDEST DUP2 DUP2 SUB PUSH1 0x20 DUP4 ADD MSTORE PUSH2 0x3A52 DUP2 DUP10 PUSH2 0x350D JUMP JUMPDEST SWAP1 POP DUP2 DUP2 SUB PUSH1 0x40 DUP4 ADD MSTORE PUSH2 0x3A66 DUP2 DUP9 PUSH2 0x350D JUMP JUMPDEST SWAP1 POP PUSH2 0x3A75 PUSH1 0x60 DUP4 ADD DUP8 PUSH2 0x33CF JUMP JUMPDEST PUSH2 0x3A82 PUSH1 0x80 DUP4 ADD DUP7 PUSH2 0x33CF JUMP JUMPDEST PUSH2 0x3A8F PUSH1 0xA0 DUP4 ADD DUP6 PUSH2 0x33CF JUMP JUMPDEST PUSH2 0x3A9C PUSH1 0xC0 DUP4 ADD DUP5 PUSH2 0x3A1E JUMP JUMPDEST SWAP9 SWAP8 POP POP POP POP POP POP POP POP JUMP JUMPDEST PUSH0 DUP1 PUSH1 0x40 DUP4 DUP6 SUB SLT ISZERO PUSH2 0x3ABE JUMPI PUSH2 0x3ABD PUSH2 0x32FC JUMP JUMPDEST JUMPDEST PUSH0 PUSH2 0x3ACB DUP6 DUP3 DUP7 ADD PUSH2 0x337D JUMP JUMPDEST SWAP3 POP POP PUSH1 0x20 PUSH2 0x3ADC DUP6 DUP3 DUP7 ADD PUSH2 0x337D JUMP JUMPDEST SWAP2 POP POP SWAP3 POP SWAP3 SWAP1 POP JUMP JUMPDEST PUSH32 0x4E487B7100000000000000000000000000000000000000000000000000000000 PUSH0 MSTORE PUSH1 0x21 PUSH1 0x4 MSTORE PUSH1 0x24 PUSH0 REVERT JUMPDEST PUSH1 0x4 DUP2 LT PUSH2 0x3B24 JUMPI PUSH2 0x3B23 PUSH2 0x3AE6 JUMP JUMPDEST JUMPDEST POP JUMP JUMPDEST PUSH0 DUP2 SWAP1 POP PUSH2 0x3B34 DUP3 PUSH2 0x3B13 JUMP JUMPDEST SWAP2 SWAP1 POP JUMP JUMPDEST PUSH0 PUSH2 0x3B43 DUP3 PUSH2 0x3B27 JUMP JUMPDEST SWAP1 POP SWAP2 SWAP1 POP JUMP JUMPDEST PUSH2 0x3B53 DUP2 PUSH2 0x3B39 JUMP JUMPDEST DUP3 MSTORE POP POP JUMP JUMPDEST PUSH0 PUSH1 0x60 DUP3 ADD SWAP1 POP PUSH2 0x3B6C PUSH0 DUP4 ADD DUP7 PUSH2 0x3A1E JUMP JUMPDEST PUSH2 0x3B79 PUSH1 0x20 DUP4 ADD DUP6 PUSH2 0x3B4A JUMP JUMPDEST PUSH2 0x3B86 PUSH1 0x40 DUP4 ADD DUP5 PUSH2 0x33CF JUMP JUMPDEST SWAP5 SWAP4 POP POP POP POP JUMP JUMPDEST PUSH0 PUSH8 0xFFFFFFFFFFFFFFFF DUP3 GT ISZERO PUSH2 0x3BA8 JUMPI PUSH2 0x3BA7 PUSH2 0x356D JUMP JUMPDEST JUMPDEST PUSH1 0x20 DUP3 MUL SWAP1 POP PUSH1 0x20 DUP2 ADD SWAP1 POP SWAP2 SWAP1 POP JUMP JUMPDEST PUSH0 PUSH2 0x3BCB PUSH2 0x3BC6 DUP5 PUSH2 0x3B8E JUMP JUMPDEST PUSH2 0x35CB JUMP JUMPDEST SWAP1 POP DUP1 DUP4 DUP3 MSTORE PUSH1 0x20 DUP3 ADD SWAP1 POP PUSH1 0x20 DUP5 MUL DUP4 ADD DUP6 DUP2 GT ISZERO PUSH2 0x3BEE JUMPI PUSH2 0x3BED PUSH2 0x37DE JUMP JUMPDEST JUMPDEST DUP4 JUMPDEST DUP2 DUP2 LT ISZERO PUSH2 0x3C17 JUMPI DUP1 PUSH2 0x3C03 DUP9 DUP3 PUSH2 0x334A JUMP JUMPDEST DUP5 MSTORE PUSH1 0x20 DUP5 ADD SWAP4 POP POP PUSH1 0x20 DUP2 ADD SWAP1 POP PUSH2 0x3BF0 JUMP JUMPDEST POP POP POP SWAP4 SWAP3 POP POP POP JUMP JUMPDEST PUSH0 DUP3 PUSH1 0x1F DUP4 ADD SLT PUSH2 0x3C35 JUMPI PUSH2 0x3C34 PUSH2 0x3565 JUMP JUMPDEST JUMPDEST DUP2 CALLDATALOAD PUSH2 0x3C45 DUP5 DUP3 PUSH1 0x20 DUP7 ADD PUSH2 0x3BB9 JUMP JUMPDEST SWAP2 POP POP SWAP3 SWAP2 POP POP JUMP JUMPDEST PUSH0 DUP1 PUSH1 0x40 DUP4 DUP6 SUB SLT ISZERO PUSH2 0x3C64 JUMPI PUSH2 0x3C63 PUSH2 0x32FC JUMP JUMPDEST JUMPDEST PUSH0 DUP4 ADD CALLDATALOAD PUSH8 0xFFFFFFFFFFFFFFFF DUP2 GT ISZERO PUSH2 0x3C81 JUMPI PUSH2 0x3C80 PUSH2 0x3300 JUMP JUMPDEST JUMPDEST PUSH2 0x3C8D DUP6 DUP3 DUP7 ADD PUSH2 0x3C21 JUMP JUMPDEST SWAP3 POP POP PUSH1 0x20 DUP4 ADD CALLDATALOAD PUSH8 0xFFFFFFFFFFFFFFFF DUP2 GT ISZERO PUSH2 0x3CAE JUMPI PUSH2 0x3CAD PUSH2 0x3300 JUMP JUMPDEST JUMPDEST PUSH2 0x3CBA DUP6 DUP3 DUP7 ADD PUSH2 0x384A JUMP JUMPDEST SWAP2 POP POP SWAP3 POP SWAP3 SWAP1 POP JUMP JUMPDEST PUSH0 DUP2 MLOAD SWAP1 POP SWAP2 SWAP1 POP JUMP JUMPDEST PUSH0 DUP3 DUP3 MSTORE PUSH1 0x20 DUP3 ADD SWAP1 POP SWAP3 SWAP2 POP POP JUMP JUMPDEST PUSH0 DUP2 SWAP1 POP PUSH1 0x20 DUP3 ADD SWAP1 POP SWAP2 SWAP1 POP JUMP JUMPDEST PUSH2 0x3CF6 DUP2 PUSH2 0x335E JUMP JUMPDEST DUP3 MSTORE POP POP JUMP JUMPDEST PUSH0 PUSH2 0x3D07 DUP4 DUP4 PUSH2 0x3CED JUMP JUMPDEST PUSH1 0x20 DUP4 ADD SWAP1 POP SWAP3 SWAP2 POP POP JUMP JUMPDEST PUSH0 PUSH1 0x20 DUP3 ADD SWAP1 POP SWAP2 SWAP1 POP JUMP JUMPDEST PUSH0 PUSH2 0x3D29 DUP3 PUSH2 0x3CC4 JUMP JUMPDEST PUSH2 0x3D33 DUP2 DUP6 PUSH2 0x3CCE JUMP JUMPDEST SWAP4 POP PUSH2 0x3D3E DUP4 PUSH2 0x3CDE JUMP JUMPDEST DUP1 PUSH0 JUMPDEST DUP4 DUP2 LT ISZERO PUSH2 0x3D6E JUMPI DUP2 MLOAD PUSH2 0x3D55 DUP9 DUP3 PUSH2 0x3CFC JUMP JUMPDEST SWAP8 POP PUSH2 0x3D60 DUP4 PUSH2 0x3D13 JUMP JUMPDEST SWAP3 POP POP PUSH1 0x1 DUP2 ADD SWAP1 POP PUSH2 0x3D41 JUMP JUMPDEST POP DUP6 SWAP4 POP POP POP POP SWAP3 SWAP2 POP POP JUMP JUMPDEST PUSH0 PUSH1 0x20 DUP3 ADD SWAP1 POP DUP2 DUP2 SUB PUSH0 DUP4 ADD MSTORE PUSH2 0x3D93 DUP2 DUP5 PUSH2 0x3D1F JUMP JUMPDEST SWAP1 POP SWAP3 SWAP2 POP POP JUMP JUMPDEST PUSH2 0x3DA4 DUP2 PUSH2 0x3477 JUMP JUMPDEST DUP2 EQ PUSH2 0x3DAE JUMPI PUSH0 DUP1 REVERT JUMPDEST POP JUMP JUMPDEST PUSH0 DUP2 CALLDATALOAD SWAP1 POP PUSH2 0x3DBF DUP2 PUSH2 0x3D9B JUMP JUMPDEST SWAP3 SWAP2 POP POP JUMP JUMPDEST PUSH0 DUP1 PUSH0 PUSH1 0x60 DUP5 DUP7 SUB SLT ISZERO PUSH2 0x3DDC JUMPI PUSH2 0x3DDB PUSH2 0x32FC JUMP JUMPDEST JUMPDEST PUSH0 PUSH2 0x3DE9 DUP7 DUP3 DUP8 ADD PUSH2 0x337D JUMP JUMPDEST SWAP4 POP POP PUSH1 0x20 PUSH2 0x3DFA DUP7 DUP3 DUP8 ADD PUSH2 0x337D JUMP JUMPDEST SWAP3 POP POP PUSH1 0x40 PUSH2 0x3E0B DUP7 DUP3 DUP8 ADD PUSH2 0x3DB1 JUMP JUMPDEST SWAP2 POP POP SWAP3 POP SWAP3 POP SWAP3 JUMP JUMPDEST PUSH0 DUP1 PUSH1 0x40 DUP4 DUP6 SUB SLT ISZERO PUSH2 0x3E2B JUMPI PUSH2 0x3E2A PUSH2 0x32FC JUMP JUMPDEST JUMPDEST PUSH0 PUSH2 0x3E38 DUP6 DUP3 DUP7 ADD PUSH2 0x334A JUMP JUMPDEST SWAP3 POP POP PUSH1 0x20 PUSH2 0x3E49 DUP6 DUP3 DUP7 ADD PUSH2 0x3DB1 JUMP JUMPDEST SWAP2 POP POP SWAP3 POP SWAP3 SWAP1 POP JUMP JUMPDEST PUSH0 PUSH1 0x20 DUP3 DUP5 SUB SLT ISZERO PUSH2 0x3E68 JUMPI PUSH2 0x3E67 PUSH2 0x32FC JUMP JUMPDEST JUMPDEST PUSH0 PUSH2 0x3E75 DUP5 DUP3 DUP6 ADD PUSH2 0x334A JUMP JUMPDEST SWAP2 POP POP SWAP3 SWAP2 POP POP JUMP JUMPDEST PUSH0 DUP2 MLOAD SWAP1 POP SWAP2 SWAP1 POP JUMP JUMPDEST PUSH0 DUP3 DUP3 MSTORE PUSH1 0x20 DUP3 ADD SWAP1 POP SWAP3 SWAP2 POP POP JUMP JUMPDEST PUSH0 PUSH2 0x3EA2 DUP3 PUSH2 0x3E7E JUMP JUMPDEST PUSH2 0x3EAC DUP2 DUP6 PUSH2 0x3E88 JUMP JUMPDEST SWAP4 POP PUSH2 0x3EBC DUP2 DUP6 PUSH1 0x20 DUP7 ADD PUSH2 0x34EF JUMP JUMPDEST PUSH2 0x3EC5 DUP2 PUSH2 0x34FD JUMP JUMPDEST DUP5 ADD SWAP2 POP POP SWAP3 SWAP2 POP POP JUMP JUMPDEST PUSH0 PUSH1 0x20 DUP3 ADD SWAP1 POP DUP2 DUP2 SUB PUSH0 DUP4 ADD MSTORE PUSH2 0x3EE8 DUP2 DUP5 PUSH2 0x3E98 JUMP JUMPDEST SWAP1 POP SWAP3 SWAP2 POP POP JUMP JUMPDEST PUSH2 0x3EF9 DUP2 PUSH2 0x3323 JUMP JUMPDEST DUP3 MSTORE POP POP JUMP JUMPDEST PUSH2 0x3F08 DUP2 PUSH2 0x3B39 JUMP JUMPDEST DUP3 MSTORE POP POP JUMP JUMPDEST PUSH1 0x60 DUP3 ADD PUSH0 DUP3 ADD MLOAD PUSH2 0x3F22 PUSH0 DUP6 ADD DUP3 PUSH2 0x3EF0 JUMP JUMPDEST POP PUSH1 0x20 DUP3 ADD MLOAD PUSH2 0x3F35 PUSH1 0x20 DUP6 ADD DUP3 PUSH2 0x3EFF JUMP JUMPDEST POP PUSH1 0x40 DUP3 ADD MLOAD PUSH2 0x3F48 PUSH1 0x40 DUP6 ADD DUP3 PUSH2 0x3CED JUMP JUMPDEST POP POP POP POP JUMP JUMPDEST PUSH0 PUSH1 0x60 DUP3 ADD SWAP1 POP PUSH2 0x3F61 PUSH0 DUP4 ADD DUP5 PUSH2 0x3F0E JUMP JUMPDEST SWAP3 SWAP2 POP POP JUMP JUMPDEST PUSH0 DUP1 PUSH1 0x40 DUP4 DUP6 SUB SLT ISZERO PUSH2 0x3F7D JUMPI PUSH2 0x3F7C PUSH2 0x32FC JUMP JUMPDEST JUMPDEST PUSH0 PUSH2 0x3F8A DUP6 DUP3 DUP7 ADD PUSH2 0x334A JUMP JUMPDEST SWAP3 POP POP PUSH1 0x20 PUSH2 0x3F9B DUP6 DUP3 DUP7 ADD PUSH2 0x334A JUMP JUMPDEST SWAP2 POP POP SWAP3 POP SWAP3 SWAP1 POP JUMP JUMPDEST PUSH0 DUP3 DUP3 MSTORE PUSH1 0x20 DUP3 ADD SWAP1 POP SWAP3 SWAP2 POP POP JUMP JUMPDEST PUSH0 PUSH2 0x3FBF DUP3 PUSH2 0x34D5 JUMP JUMPDEST PUSH2 0x3FC9 DUP2 DUP6 PUSH2 0x3FA5 JUMP JUMPDEST SWAP4 POP PUSH2 0x3FD9 DUP2 DUP6 PUSH1 0x20 DUP7 ADD PUSH2 0x34EF JUMP JUMPDEST PUSH2 0x3FE2 DUP2 PUSH2 0x34FD JUMP JUMPDEST DUP5 ADD SWAP2 POP POP SWAP3 SWAP2 POP POP JUMP JUMPDEST PUSH0 PUSH1 0xE0 DUP4 ADD PUSH0 DUP4 ADD MLOAD PUSH2 0x4002 PUSH0 DUP7 ADD DUP3 PUSH2 0x3CED JUMP JUMPDEST POP PUSH1 0x20 DUP4 ADD MLOAD DUP5 DUP3 SUB PUSH1 0x20 DUP7 ADD MSTORE PUSH2 0x401A DUP3 DUP3 PUSH2 0x3FB5 JUMP JUMPDEST SWAP2 POP POP PUSH1 0x40 DUP4 ADD MLOAD DUP5 DUP3 SUB PUSH1 0x40 DUP7 ADD MSTORE PUSH2 0x4034 DUP3 DUP3 PUSH2 0x3FB5 JUMP JUMPDEST SWAP2 POP POP PUSH1 0x60 DUP4 ADD MLOAD PUSH2 0x4049 PUSH1 0x60 DUP7 ADD DUP3 PUSH2 0x3CED JUMP JUMPDEST POP PUSH1 0x80 DUP4 ADD MLOAD PUSH2 0x405C PUSH1 0x80 DUP7 ADD DUP3 PUSH2 0x3CED JUMP JUMPDEST POP PUSH1 0xA0 DUP4 ADD MLOAD PUSH2 0x406F PUSH1 0xA0 DUP7 ADD DUP3 PUSH2 0x3CED JUMP JUMPDEST POP PUSH1 0xC0 DUP4 ADD MLOAD PUSH2 0x4082 PUSH1 0xC0 DUP7 ADD DUP3 PUSH2 0x3EF0 JUMP JUMPDEST POP DUP1 SWAP2 POP POP SWAP3 SWAP2 POP POP JUMP JUMPDEST PUSH0 PUSH1 0x20 DUP3 ADD SWAP1 POP DUP2 DUP2 SUB PUSH0 DUP4 ADD MSTORE PUSH2 0x40A5 DUP2 DUP5 PUSH2 0x3FED JUMP JUMPDEST SWAP1 POP SWAP3 SWAP2 POP POP JUMP JUMPDEST PUSH0 DUP1 PUSH0 DUP1 PUSH0 PUSH1 0xA0 DUP7 DUP9 SUB SLT ISZERO PUSH2 0x40C6 JUMPI PUSH2 0x40C5 PUSH2 0x32FC JUMP JUMPDEST JUMPDEST PUSH0 PUSH2 0x40D3 DUP9 DUP3 DUP10 ADD PUSH2 0x334A JUMP JUMPDEST SWAP6 POP POP PUSH1 0x20 PUSH2 0x40E4 DUP9 DUP3 DUP10 ADD PUSH2 0x334A JUMP JUMPDEST SWAP5 POP POP PUSH1 0x40 PUSH2 0x40F5 DUP9 DUP3 DUP10 ADD PUSH2 0x337D JUMP JUMPDEST SWAP4 POP POP PUSH1 0x60 PUSH2 0x4106 DUP9 DUP3 DUP10 ADD PUSH2 0x337D JUMP JUMPDEST SWAP3 POP POP PUSH1 0x80 DUP7 ADD CALLDATALOAD PUSH8 0xFFFFFFFFFFFFFFFF DUP2 GT ISZERO PUSH2 0x4127 JUMPI PUSH2 0x4126 PUSH2 0x3300 JUMP JUMPDEST JUMPDEST PUSH2 0x4133 DUP9 DUP3 DUP10 ADD PUSH2 0x38E8 JUMP JUMPDEST SWAP2 POP POP SWAP3 SWAP6 POP SWAP3 SWAP6 SWAP1 SWAP4 POP JUMP JUMPDEST PUSH32 0x4E487B7100000000000000000000000000000000000000000000000000000000 PUSH0 MSTORE PUSH1 0x22 PUSH1 0x4 MSTORE PUSH1 0x24 PUSH0 REVERT JUMPDEST PUSH0 PUSH1 0x2 DUP3 DIV SWAP1 POP PUSH1 0x1 DUP3 AND DUP1 PUSH2 0x4184 JUMPI PUSH1 0x7F DUP3 AND SWAP2 POP JUMPDEST PUSH1 0x20 DUP3 LT DUP2 SUB PUSH2 0x4197 JUMPI PUSH2 0x4196 PUSH2 0x4140 JUMP JUMPDEST JUMPDEST POP SWAP2 SWAP1 POP JUMP JUMPDEST PUSH32 0x4E487B7100000000000000000000000000000000000000000000000000000000 PUSH0 MSTORE PUSH1 0x11 PUSH1 0x4 MSTORE PUSH1 0x24 PUSH0 REVERT JUMPDEST PUSH0 PUSH2 0x41D4 DUP3 PUSH2 0x335E JUMP JUMPDEST SWAP2 POP PUSH32 0xFFFFFFFFFFFFFFFFFFFFFFFFFFFFFFFFFFFFFFFFFFFFFFFFFFFFFFFFFFFFFFFF DUP3 SUB PUSH2 0x4206 JUMPI PUSH2 0x4205 PUSH2 0x419D JUMP JUMPDEST JUMPDEST PUSH1 0x1 DUP3 ADD SWAP1 POP SWAP2 SWAP1 POP JUMP JUMPDEST PUSH0 DUP2 SWAP1 POP DUP2 PUSH0 MSTORE PUSH1 0x20 PUSH0 KECCAK256 SWAP1 POP SWAP2 SWAP1 POP JUMP JUMPDEST PUSH0 PUSH1 0x20 PUSH1 0x1F DUP4 ADD DIV SWAP1 POP SWAP2 SWAP1 POP JUMP JUMPDEST PUSH0 DUP3 DUP3 SHL SWAP1 POP SWAP3 SWAP2 POP POP JUMP JUMPDEST PUSH0 PUSH1 0x8 DUP4 MUL PUSH2 0x426D PUSH32 0xFFFFFFFFFFFFFFFFFFFFFFFFFFFFFFFFFFFFFFFFFFFFFFFFFFFFFFFFFFFFFFFF DUP3 PUSH2 0x4232 JUMP JUMPDEST PUSH2 0x4277 DUP7 DUP4 PUSH2 0x4232 JUMP JUMPDEST SWAP6 POP DUP1 NOT DUP5 AND SWAP4 POP DUP1 DUP7 AND DUP5 OR SWAP3 POP POP POP SWAP4 SWAP3 POP POP POP JUMP JUMPDEST PUSH0 DUP2 SWAP1 POP SWAP2 SWAP1 POP JUMP JUMPDEST PUSH0 PUSH2 0x42B2 PUSH2 0x42AD PUSH2 0x42A8 DUP5 PUSH2 0x335E JUMP JUMPDEST PUSH2 0x428F JUMP JUMPDEST PUSH2 0x335E JUMP JUMPDEST SWAP1 POP SWAP2 SWAP1 POP JUMP JUMPDEST PUSH0 DUP2 SWAP1 POP SWAP2 SWAP1 POP JUMP JUMPDEST PUSH2 0x42CB DUP4 PUSH2 0x4298 JUMP JUMPDEST PUSH2 0x42DF PUSH2 0x42D7 DUP3 PUSH2 0x42B9 JUMP JUMPDEST DUP5 DUP5 SLOAD PUSH2 0x423E JUMP JUMPDEST DUP3 SSTORE POP POP POP POP JUMP JUMPDEST PUSH0 SWAP1 JUMP JUMPDEST PUSH2 0x42F3 PUSH2 0x42E7 JUMP JUMPDEST PUSH2 0x42FE DUP2 DUP5 DUP5 PUSH2 0x42C2 JUMP JUMPDEST POP POP POP JUMP JUMPDEST JUMPDEST DUP2 DUP2 LT ISZERO PUSH2 0x4321 JUMPI PUSH2 0x4316 PUSH0 DUP3 PUSH2 0x42EB JUMP JUMPDEST PUSH1 0x1 DUP2 ADD SWAP1 POP PUSH2 0x4304 JUMP JUMPDEST POP POP JUMP JUMPDEST PUSH1 0x1F DUP3 GT ISZERO PUSH2 0x4366 JUMPI PUSH2 0x4337 DUP2 PUSH2 0x4211 JUMP JUMPDEST PUSH2 0x4340 DUP5 PUSH2 0x4223 JUMP JUMPDEST DUP2 ADD PUSH1 0x20 DUP6 LT ISZERO PUSH2 0x434F JUMPI DUP2 SWAP1 POP JUMPDEST PUSH2 0x4363 PUSH2 0x435B DUP6 PUSH2 0x4223 JUMP JUMPDEST DUP4 ADD DUP3 PUSH2 0x4303 JUMP JUMPDEST POP POP JUMPDEST POP POP POP JUMP JUMPDEST PUSH0 DUP3 DUP3 SHR SWAP1 POP SWAP3 SWAP2 POP POP JUMP JUMPDEST PUSH0 PUSH2 0x4386 PUSH0 NOT DUP5 PUSH1 0x8 MUL PUSH2 0x436B JUMP JUMPDEST NOT DUP1 DUP4 AND SWAP2 POP POP SWAP3 SWAP2 POP POP JUMP JUMPDEST PUSH0 PUSH2 0x439E DUP4 DUP4 PUSH2 0x4377 JUMP JUMPDEST SWAP2 POP DUP3 PUSH1 0x2 MUL DUP3 OR SWAP1 POP SWAP3 SWAP2 POP POP JUMP JUMPDEST PUSH2 0x43B7 DUP3 PUSH2 0x34D5 JUMP JUMPDEST PUSH8 0xFFFFFFFFFFFFFFFF DUP2 GT ISZERO PUSH2 0x43D0 JUMPI PUSH2 0x43CF PUSH2 0x356D JUMP JUMPDEST JUMPDEST PUSH2 0x43DA DUP3 SLOAD PUSH2 0x416D JUMP JUMPDEST PUSH2 0x43E5 DUP3 DUP3 DUP6 PUSH2 0x4325 JUMP JUMPDEST PUSH0 PUSH1 0x20 SWAP1 POP PUSH1 0x1F DUP4 GT PUSH1 0x1 DUP2 EQ PUSH2 0x4416 JUMPI PUSH0 DUP5 ISZERO PUSH2 0x4404 JUMPI DUP3 DUP8 ADD MLOAD SWAP1 POP JUMPDEST PUSH2 0x440E DUP6 DUP3 PUSH2 0x4393 JUMP JUMPDEST DUP7 SSTORE POP PUSH2 0x4475 JUMP JUMPDEST PUSH1 0x1F NOT DUP5 AND PUSH2 0x4424 DUP7 PUSH2 0x4211 JUMP JUMPDEST PUSH0 JUMPDEST DUP3 DUP2 LT ISZERO PUSH2 0x444B JUMPI DUP5 DUP10 ADD MLOAD DUP3 SSTORE PUSH1 0x1 DUP3 ADD SWAP2 POP PUSH1 0x20 DUP6 ADD SWAP5 POP PUSH1 0x20 DUP2 ADD SWAP1 POP PUSH2 0x4426 JUMP JUMPDEST DUP7 DUP4 LT ISZERO PUSH2 0x4468 JUMPI DUP5 DUP10 ADD MLOAD PUSH2 0x4464 PUSH1 0x1F DUP10 AND DUP3 PUSH2 0x4377 JUMP JUMPDEST DUP4 SSTORE POP JUMPDEST PUSH1 0x1 PUSH1 0x2 DUP9 MUL ADD DUP9 SSTORE POP POP POP JUMPDEST POP POP POP POP POP POP JUMP JUMPDEST PUSH0 PUSH1 0x40 DUP3 ADD SWAP1 POP PUSH2 0x4490 PUSH0 DUP4 ADD DUP6 PUSH2 0x33CF JUMP JUMPDEST PUSH2 0x449D PUSH1 0x20 DUP4 ADD DUP5 PUSH2 0x33CF JUMP JUMPDEST SWAP4 SWAP3 POP POP POP JUMP JUMPDEST PUSH0 PUSH1 0x40 DUP3 ADD SWAP1 POP PUSH2 0x44B7 PUSH0 DUP4 ADD DUP6 PUSH2 0x3A1E JUMP JUMPDEST PUSH2 0x44C4 PUSH1 0x20 DUP4 ADD DUP5 PUSH2 0x3A1E JUMP JUMPDEST SWAP4 SWAP3 POP POP POP JUMP JUMPDEST PUSH0 PUSH2 0x44D5 DUP3 PUSH2 0x335E JUMP JUMPDEST SWAP2 POP PUSH2 0x44E0 DUP4 PUSH2 0x335E JUMP JUMPDEST SWAP3 POP DUP3 DUP3 ADD SWAP1 POP DUP1 DUP3 GT ISZERO PUSH2 0x44F8 JUMPI PUSH2 0x44F7 PUSH2 0x419D JUMP JUMPDEST JUMPDEST SWAP3 SWAP2 POP POP JUMP JUMPDEST PUSH32 0x4E487B7100000000000000000000000000000000000000000000000000000000 PUSH0 MSTORE PUSH1 0x32 PUSH1 0x4 MSTORE PUSH1 0x24 PUSH0 REVERT JUMPDEST PUSH32 0x496E73756666696369656E74206465706F736974000000000000000000000000 PUSH0 DUP3 ADD MSTORE POP JUMP JUMPDEST PUSH0 PUSH2 0x455F PUSH1 0x14 DUP4 PUSH2 0x34DF JUMP JUMPDEST SWAP2 POP PUSH2 0x456A DUP3 PUSH2 0x452B JUMP JUMPDEST PUSH1 0x20 DUP3 ADD SWAP1 POP SWAP2 SWAP1 POP JUMP JUMPDEST PUSH0 PUSH1 0x20 DUP3 ADD SWAP1 POP DUP2 DUP2 SUB PUSH0 DUP4 ADD MSTORE PUSH2 0x458C DUP2 PUSH2 0x4553 JUMP JUMPDEST SWAP1 POP SWAP2 SWAP1 POP JUMP JUMPDEST PUSH0 PUSH2 0x459D DUP3 PUSH2 0x335E JUMP JUMPDEST SWAP2 POP PUSH2 0x45A8 DUP4 PUSH2 0x335E JUMP JUMPDEST SWAP3 POP DUP3 DUP3 SUB SWAP1 POP DUP2 DUP2 GT ISZERO PUSH2 0x45C0 JUMPI PUSH2 0x45BF PUSH2 0x419D JUMP JUMPDEST JUMPDEST SWAP3 SWAP2 POP POP JUMP JUMPDEST PUSH32 0x496E76616C696420707572636861736520696E64657800000000000000000000 PUSH0 DUP3 ADD MSTORE POP JUMP JUMPDEST PUSH0 PUSH2 0x45FA PUSH1 0x16 DUP4 PUSH2 0x34DF JUMP JUMPDEST SWAP2 POP PUSH2 0x4605 DUP3 PUSH2 0x45C6 JUMP JUMPDEST PUSH1 0x20 DUP3 ADD SWAP1 POP SWAP2 SWAP1 POP JUMP JUMPDEST PUSH0 PUSH1 0x20 DUP3 ADD SWAP1 POP DUP2 DUP2 SUB PUSH0 DUP4 ADD MSTORE PUSH2 0x4627 DUP2 PUSH2 0x45EE JUMP JUMPDEST SWAP1 POP SWAP2 SWAP1 POP JUMP JUMPDEST PUSH32 0x5075726368617365206E6F7420696E2064697370757465000000000000000000 PUSH0 DUP3 ADD MSTORE POP JUMP JUMPDEST PUSH0 PUSH2 0x4662 PUSH1 0x17 DUP4 PUSH2 0x34DF JUMP JUMPDEST SWAP2 POP PUSH2 0x466D DUP3 PUSH2 0x462E JUMP JUMPDEST PUSH1 0x20 DUP3 ADD SWAP1 POP SWAP2 SWAP1 POP JUMP JUMPDEST PUSH0 PUSH1 0x20 DUP3 ADD SWAP1 POP DUP2 DUP2 SUB PUSH0 DUP4 ADD MSTORE PUSH2 0x468F DUP2 PUSH2 0x4656 JUMP JUMPDEST SWAP1 POP SWAP2 SWAP1 POP JUMP JUMPDEST PUSH0 PUSH2 0x46A0 DUP3 PUSH2 0x335E JUMP JUMPDEST SWAP2 POP PUSH2 0x46AB DUP4 PUSH2 0x335E JUMP JUMPDEST SWAP3 POP DUP3 DUP3 MUL PUSH2 0x46B9 DUP2 PUSH2 0x335E JUMP JUMPDEST SWAP2 POP DUP3 DUP3 DIV DUP5 EQ DUP4 ISZERO OR PUSH2 0x46D0 JUMPI PUSH2 0x46CF PUSH2 0x419D JUMP JUMPDEST JUMPDEST POP SWAP3 SWAP2 POP POP JUMP JUMPDEST PUSH0 PUSH1 0x40 DUP3 ADD SWAP1 POP PUSH2 0x46EA PUSH0 DUP4 ADD DUP6 PUSH2 0x33CF JUMP JUMPDEST PUSH2 0x46F7 PUSH1 0x20 DUP4 ADD DUP5 PUSH2 0x3482 JUMP JUMPDEST SWAP4 SWAP3 POP POP POP JUMP JUMPDEST PUSH32 0x43616C6C6572206973206E6F7420746865206275796572000000000000000000 PUSH0 DUP3 ADD MSTORE POP JUMP JUMPDEST PUSH0 PUSH2 0x4732 PUSH1 0x17 DUP4 PUSH2 0x34DF JUMP JUMPDEST SWAP2 POP PUSH2 0x473D DUP3 PUSH2 0x46FE JUMP JUMPDEST PUSH1 0x20 DUP3 ADD SWAP1 POP SWAP2 SWAP1 POP JUMP JUMPDEST PUSH0 PUSH1 0x20 DUP3 ADD SWAP1 POP DUP2 DUP2 SUB PUSH0 DUP4 ADD MSTORE PUSH2 0x475F DUP2 PUSH2 0x4726 JUMP JUMPDEST SWAP1 POP SWAP2 SWAP1 POP JUMP JUMPDEST PUSH32 0x5075726368617365206E6F742061637469766500000000000000000000000000 PUSH0 DUP3 ADD MSTORE POP JUMP JUMPDEST PUSH0 PUSH2 0x479A PUSH1 0x13 DUP4 PUSH2 0x34DF JUMP JUMPDEST SWAP2 POP PUSH2 0x47A5 DUP3 PUSH2 0x4766 JUMP JUMPDEST PUSH1 0x20 DUP3 ADD SWAP1 POP SWAP2 SWAP1 POP JUMP JUMPDEST PUSH0 PUSH1 0x20 DUP3 ADD SWAP1 POP DUP2 DUP2 SUB PUSH0 DUP4 ADD MSTORE PUSH2 0x47C7 DUP2 PUSH2 0x478E JUMP JUMPDEST SWAP1 POP SWAP2 SWAP1 POP JUMP JUMPDEST PUSH32 0x416C6C204E465473206D696E7465640000000000000000000000000000000000 PUSH0 DUP3 ADD MSTORE POP JUMP JUMPDEST PUSH0 PUSH2 0x4802 PUSH1 0xF DUP4 PUSH2 0x34DF JUMP JUMPDEST SWAP2 POP PUSH2 0x480D DUP3 PUSH2 0x47CE JUMP JUMPDEST PUSH1 0x20 DUP3 ADD SWAP1 POP SWAP2 SWAP1 POP JUMP JUMPDEST PUSH0 PUSH1 0x20 DUP3 ADD SWAP1 POP DUP2 DUP2 SUB PUSH0 DUP4 ADD MSTORE PUSH2 0x482F DUP2 PUSH2 0x47F6 JUMP JUMPDEST SWAP1 POP SWAP2 SWAP1 POP JUMP JUMPDEST PUSH32 0x417274697374206465706F73697420696E73756666696369656E740000000000 PUSH0 DUP3 ADD MSTORE POP JUMP JUMPDEST PUSH0 PUSH2 0x486A PUSH1 0x1B DUP4 PUSH2 0x34DF JUMP JUMPDEST SWAP2 POP PUSH2 0x4875 DUP3 PUSH2 0x4836 JUMP JUMPDEST PUSH1 0x20 DUP3 ADD SWAP1 POP SWAP2 SWAP1 POP JUMP JUMPDEST PUSH0 PUSH1 0x20 DUP3 ADD SWAP1 POP DUP2 DUP2 SUB PUSH0 DUP4 ADD MSTORE PUSH2 0x4897 DUP2 PUSH2 0x485E JUMP JUMPDEST SWAP1 POP SWAP2 SWAP1 POP JUMP JUMPDEST PUSH0 PUSH1 0x20 DUP3 ADD SWAP1 POP PUSH2 0x48B1 PUSH0 DUP4 ADD DUP5 PUSH2 0x3A1E JUMP JUMPDEST SWAP3 SWAP2 POP POP JUMP JUMPDEST PUSH32 0x5265656E7472616E637947756172643A207265656E7472616E742063616C6C00 PUSH0 DUP3 ADD MSTORE POP JUMP JUMPDEST PUSH0 PUSH2 0x48EB PUSH1 0x1F DUP4 PUSH2 0x34DF JUMP JUMPDEST SWAP2 POP PUSH2 0x48F6 DUP3 PUSH2 0x48B7 JUMP JUMPDEST PUSH1 0x20 DUP3 ADD SWAP1 POP SWAP2 SWAP1 POP JUMP JUMPDEST PUSH0 PUSH1 0x20 DUP3 ADD SWAP1 POP DUP2 DUP2 SUB PUSH0 DUP4 ADD MSTORE PUSH2 0x4918 DUP2 PUSH2 0x48DF JUMP JUMPDEST SWAP1 POP SWAP2 SWAP1 POP JUMP JUMPDEST PUSH0 PUSH1 0x40 DUP3 ADD SWAP1 POP PUSH2 0x4932 PUSH0 DUP4 ADD DUP6 PUSH2 0x3A1E JUMP JUMPDEST PUSH2 0x493F PUSH1 0x20 DUP4 ADD DUP5 PUSH2 0x378B JUMP JUMPDEST SWAP4 SWAP3 POP POP POP JUMP JUMPDEST PUSH0 PUSH1 0x80 DUP3 ADD SWAP1 POP PUSH2 0x4959 PUSH0 DUP4 ADD DUP8 PUSH2 0x3A1E JUMP JUMPDEST PUSH2 0x4966 PUSH1 0x20 DUP4 ADD DUP7 PUSH2 0x33CF JUMP JUMPDEST PUSH2 0x4973 PUSH1 0x40 DUP4 ADD DUP6 PUSH2 0x33CF JUMP JUMPDEST PUSH2 0x4980 PUSH1 0x60 DUP4 ADD DUP5 PUSH2 0x33CF JUMP JUMPDEST SWAP6 SWAP5 POP POP POP POP POP JUMP JUMPDEST PUSH0 PUSH1 0x40 DUP3 ADD SWAP1 POP DUP2 DUP2 SUB PUSH0 DUP4 ADD MSTORE PUSH2 0x49A1 DUP2 DUP6 PUSH2 0x3D1F JUMP JUMPDEST SWAP1 POP DUP2 DUP2 SUB PUSH1 0x20 DUP4 ADD MSTORE PUSH2 0x49B5 DUP2 DUP5 PUSH2 0x3D1F JUMP JUMPDEST SWAP1 POP SWAP4 SWAP3 POP POP POP JUMP JUMPDEST PUSH0 PUSH1 0xA0 DUP3 ADD SWAP1 POP PUSH2 0x49D1 PUSH0 DUP4 ADD DUP9 PUSH2 0x3A1E JUMP JUMPDEST PUSH2 0x49DE PUSH1 0x20 DUP4 ADD DUP8 PUSH2 0x3A1E JUMP JUMPDEST PUSH2 0x49EB PUSH1 0x40 DUP4 ADD DUP7 PUSH2 0x33CF JUMP JUMPDEST PUSH2 0x49F8 PUSH1 0x60 DUP4 ADD DUP6 PUSH2 0x33CF JUMP JUMPDEST DUP2 DUP2 SUB PUSH1 0x80 DUP4 ADD MSTORE PUSH2 0x4A0A DUP2 DUP5 PUSH2 0x3E98 JUMP JUMPDEST SWAP1 POP SWAP7 SWAP6 POP POP POP POP POP POP JUMP JUMPDEST PUSH0 DUP2 MLOAD SWAP1 POP PUSH2 0x4A24 DUP2 PUSH2 0x3422 JUMP JUMPDEST SWAP3 SWAP2 POP POP JUMP JUMPDEST PUSH0 PUSH1 0x20 DUP3 DUP5 SUB SLT ISZERO PUSH2 0x4A3F JUMPI PUSH2 0x4A3E PUSH2 0x32FC JUMP JUMPDEST JUMPDEST PUSH0 PUSH2 0x4A4C DUP5 DUP3 DUP6 ADD PUSH2 0x4A16 JUMP JUMPDEST SWAP2 POP POP SWAP3 SWAP2 POP POP JUMP JUMPDEST PUSH0 PUSH1 0xA0 DUP3 ADD SWAP1 POP PUSH2 0x4A68 PUSH0 DUP4 ADD DUP9 PUSH2 0x3A1E JUMP JUMPDEST PUSH2 0x4A75 PUSH1 0x20 DUP4 ADD DUP8 PUSH2 0x3A1E JUMP JUMPDEST DUP2 DUP2 SUB PUSH1 0x40 DUP4 ADD MSTORE PUSH2 0x4A87 DUP2 DUP7 PUSH2 0x3D1F JUMP JUMPDEST SWAP1 POP DUP2 DUP2 SUB PUSH1 0x60 DUP4 ADD MSTORE PUSH2 0x4A9B DUP2 DUP6 PUSH2 0x3D1F JUMP JUMPDEST SWAP1 POP DUP2 DUP2 SUB PUSH1 0x80 DUP4 ADD MSTORE PUSH2 0x4AAF DUP2 DUP5 PUSH2 0x3E98 JUMP JUMPDEST SWAP1 POP SWAP7 SWAP6 POP POP POP POP POP POP JUMP INVALID LOG2 PUSH5 0x6970667358 0x22 SLT KECCAK256 0xCC 0xB4 0xB6 PUSH30 0x913E47A164E33F1A217F091C4EBDC0AEE07FCF344FFFD9EF8F42FEEE6473 PUSH16 0x6C634300081A00330000000000000000 "
		},
		"gasEstimates": {
			"creation": {
				"codeDepositCost": "3837000",
				"executionCost": "infinite",
				"totalCost": "infinite"
			},
			"external": {
				"ARBITRATOR_ROLE()": "393",
				"ARTCOIN_ID()": "368",
				"ARTIST_ROLE()": "414",
				"DEFAULT_ADMIN_ROLE()": "442",
				"artistDeposits(address)": "2913",
				"artworkPurchases(uint256,uint256)": "infinite",
				"artworks(uint256)": "infinite",
				"balanceOf(address,uint256)": "infinite",
				"balanceOfBatch(address[],uint256[])": "infinite",
				"createArtwork(string,string,uint256,uint256)": "infinite",
				"currentArtworkId()": "2471",
				"depositArtcoin(uint256)": "infinite",
				"getArtworkInfo(uint256)": "infinite",
				"getPurchaseInfo(uint256,uint256)": "infinite",
				"getRoleAdmin(bytes32)": "infinite",
				"grantRole(bytes32,address)": "infinite",
				"hasRole(bytes32,address)": "3233",
				"isApprovedForAll(address,address)": "infinite",
				"mintARTcoin(address,uint256)": "infinite",
				"mintArtwork(uint256)": "infinite",
				"publicKeys(address)": "infinite",
				"renounceRole(bytes32,address)": "infinite",
				"revokeRole(bytes32,address)": "infinite",
				"safeBatchTransferFrom(address,address,uint256[],uint256[],bytes)": "infinite",
				"safeTransferFrom(address,address,uint256,uint256,bytes)": "infinite",
				"setApprovalForAll(address,bool)": "infinite",
				"settlePurchaseDispute(uint256,uint256,bool)": "infinite",
				"supportsInterface(bytes4)": "962",
				"uri(uint256)": "infinite",
				"verifyPurchase(uint256,uint256,bool)": "infinite",
				"withdrawArtcoin(uint256)": "infinite"
			}
		},
		"methodIdentifiers": {
			"ARBITRATOR_ROLE()": "9cea0787",
			"ARTCOIN_ID()": "e8dbb9c5",
			"ARTIST_ROLE()": "a966a0df",
			"DEFAULT_ADMIN_ROLE()": "a217fddf",
			"artistDeposits(address)": "ac76e521",
			"artworkPurchases(uint256,uint256)": "4bc9db85",
			"artworks(uint256)": "4b602673",
			"balanceOf(address,uint256)": "00fdd58e",
			"balanceOfBatch(address[],uint256[])": "4e1273f4",
			"createArtwork(string,string,uint256,uint256)": "237f1509",
			"currentArtworkId()": "18b6dcbc",
			"depositArtcoin(uint256)": "3cdd2c1f",
			"getArtworkInfo(uint256)": "f1f201e8",
			"getPurchaseInfo(uint256,uint256)": "da47635d",
			"getRoleAdmin(bytes32)": "248a9ca3",
			"grantRole(bytes32,address)": "2f2ff15d",
			"hasRole(bytes32,address)": "91d14854",
			"isApprovedForAll(address,address)": "e985e9c5",
			"mintARTcoin(address,uint256)": "66367b77",
			"mintArtwork(uint256)": "e82f4062",
			"publicKeys(address)": "a3d6f9a9",
			"renounceRole(bytes32,address)": "36568abe",
			"revokeRole(bytes32,address)": "d547741f",
			"safeBatchTransferFrom(address,address,uint256[],uint256[],bytes)": "2eb2c2d6",
			"safeTransferFrom(address,address,uint256,uint256,bytes)": "f242432a",
			"setApprovalForAll(address,bool)": "a22cb465",
			"settlePurchaseDispute(uint256,uint256,bool)": "9e56f275",
			"supportsInterface(bytes4)": "01ffc9a7",
			"uri(uint256)": "0e89341c",
			"verifyPurchase(uint256,uint256,bool)": "b89571c7",
			"withdrawArtcoin(uint256)": "95b7dde0"
		}
	},
	"abi": [
		{
			"inputs": [
				{
					"internalType": "string",
					"name": "uri",
					"type": "string"
				}
			],
			"stateMutability": "nonpayable",
			"type": "constructor"
		},
		{
			"inputs": [],
			"name": "AccessControlBadConfirmation",
			"type": "error"
		},
		{
			"inputs": [
				{
					"internalType": "address",
					"name": "account",
					"type": "address"
				},
				{
					"internalType": "bytes32",
					"name": "neededRole",
					"type": "bytes32"
				}
			],
			"name": "AccessControlUnauthorizedAccount",
			"type": "error"
		},
		{
			"inputs": [
				{
					"internalType": "address",
					"name": "sender",
					"type": "address"
				},
				{
					"internalType": "uint256",
					"name": "balance",
					"type": "uint256"
				},
				{
					"internalType": "uint256",
					"name": "needed",
					"type": "uint256"
				},
				{
					"internalType": "uint256",
					"name": "tokenId",
					"type": "uint256"
				}
			],
			"name": "ERC1155InsufficientBalance",
			"type": "error"
		},
		{
			"inputs": [
				{
					"internalType": "address",
					"name": "approver",
					"type": "address"
				}
			],
			"name": "ERC1155InvalidApprover",
			"type": "error"
		},
		{
			"inputs": [
				{
					"internalType": "uint256",
					"name": "idsLength",
					"type": "uint256"
				},
				{
					"internalType": "uint256",
					"name": "valuesLength",
					"type": "uint256"
				}
			],
			"name": "ERC1155InvalidArrayLength",
			"type": "error"
		},
		{
			"inputs": [
				{
					"internalType": "address",
					"name": "operator",
					"type": "address"
				}
			],
			"name": "ERC1155InvalidOperator",
			"type": "error"
		},
		{
			"inputs": [
				{
					"internalType": "address",
					"name": "receiver",
					"type": "address"
				}
			],
			"name": "ERC1155InvalidReceiver",
			"type": "error"
		},
		{
			"inputs": [
				{
					"internalType": "address",
					"name": "sender",
					"type": "address"
				}
			],
			"name": "ERC1155InvalidSender",
			"type": "error"
		},
		{
			"inputs": [
				{
					"internalType": "address",
					"name": "operator",
					"type": "address"
				},
				{
					"internalType": "address",
					"name": "owner",
					"type": "address"
				}
			],
			"name": "ERC1155MissingApprovalForAll",
			"type": "error"
		},
		{
			"anonymous": false,
			"inputs": [
				{
					"indexed": true,
					"internalType": "address",
					"name": "account",
					"type": "address"
				},
				{
					"indexed": true,
					"internalType": "address",
					"name": "operator",
					"type": "address"
				},
				{
					"indexed": false,
					"internalType": "bool",
					"name": "approved",
					"type": "bool"
				}
			],
			"name": "ApprovalForAll",
			"type": "event"
		},
		{
			"anonymous": false,
			"inputs": [
				{
					"indexed": true,
					"internalType": "uint256",
					"name": "tokenId",
					"type": "uint256"
				},
				{
					"indexed": true,
					"internalType": "address",
					"name": "artist",
					"type": "address"
				},
				{
					"indexed": false,
					"internalType": "uint256",
					"name": "price",
					"type": "uint256"
				},
				{
					"indexed": false,
					"internalType": "uint256",
					"name": "supplyLimit",
					"type": "uint256"
				}
			],
			"name": "ArtworkCreated",
			"type": "event"
		},
		{
			"anonymous": false,
			"inputs": [
				{
					"indexed": true,
					"internalType": "uint256",
					"name": "tokenId",
					"type": "uint256"
				},
				{
					"indexed": true,
					"internalType": "address",
					"name": "buyer",
					"type": "address"
				}
			],
			"name": "ArtworkMinted",
			"type": "event"
		},
		{
			"anonymous": false,
			"inputs": [
				{
					"indexed": true,
					"internalType": "address",
					"name": "artist",
					"type": "address"
				},
				{
					"indexed": false,
					"internalType": "uint256",
					"name": "amount",
					"type": "uint256"
				}
			],
			"name": "DepositArtcoin",
			"type": "event"
		},
		{
			"anonymous": false,
			"inputs": [
				{
					"indexed": true,
					"internalType": "uint256",
					"name": "tokenId",
					"type": "uint256"
				},
				{
					"indexed": false,
					"internalType": "uint256",
					"name": "purchaseIndex",
					"type": "uint256"
				},
				{
					"indexed": true,
					"internalType": "address",
					"name": "buyer",
					"type": "address"
				}
			],
			"name": "DisputeOpened",
			"type": "event"
		},
		{
			"anonymous": false,
			"inputs": [
				{
					"indexed": true,
					"internalType": "uint256",
					"name": "tokenId",
					"type": "uint256"
				},
				{
					"indexed": false,
					"internalType": "uint256",
					"name": "purchaseIndex",
					"type": "uint256"
				},
				{
					"indexed": false,
					"internalType": "bool",
					"name": "disputeResult",
					"type": "bool"
				}
			],
			"name": "DisputeSettled",
			"type": "event"
		},
		{
			"anonymous": false,
			"inputs": [
				{
					"indexed": true,
					"internalType": "uint256",
					"name": "tokenId",
					"type": "uint256"
				},
				{
					"indexed": false,
					"internalType": "uint256",
					"name": "purchaseIndex",
					"type": "uint256"
				},
				{
					"indexed": true,
					"internalType": "address",
					"name": "artist",
					"type": "address"
				},
				{
					"indexed": true,
					"internalType": "address",
					"name": "buyer",
					"type": "address"
				},
				{
					"indexed": false,
					"internalType": "uint256",
					"name": "saleNet",
					"type": "uint256"
				}
			],
			"name": "FundsDistributed",
			"type": "event"
		},
		{
			"anonymous": false,
			"inputs": [
				{
					"indexed": true,
					"internalType": "uint256",
					"name": "tokenId",
					"type": "uint256"
				},
				{
					"indexed": false,
					"internalType": "uint256",
					"name": "purchaseIndex",
					"type": "uint256"
				},
				{
					"indexed": true,
					"internalType": "address",
					"name": "buyer",
					"type": "address"
				}
			],
			"name": "NFTBurned",
			"type": "event"
		},
		{
			"anonymous": false,
			"inputs": [
				{
					"indexed": true,
					"internalType": "address",
					"name": "account",
					"type": "address"
				},
				{
					"indexed": false,
					"internalType": "bytes",
					"name": "publicKey",
					"type": "bytes"
				}
			],
			"name": "PublicKeyUpdated",
			"type": "event"
		},
		{
			"anonymous": false,
			"inputs": [
				{
					"indexed": true,
					"internalType": "bytes32",
					"name": "role",
					"type": "bytes32"
				},
				{
					"indexed": true,
					"internalType": "bytes32",
					"name": "previousAdminRole",
					"type": "bytes32"
				},
				{
					"indexed": true,
					"internalType": "bytes32",
					"name": "newAdminRole",
					"type": "bytes32"
				}
			],
			"name": "RoleAdminChanged",
			"type": "event"
		},
		{
			"anonymous": false,
			"inputs": [
				{
					"indexed": true,
					"internalType": "bytes32",
					"name": "role",
					"type": "bytes32"
				},
				{
					"indexed": true,
					"internalType": "address",
					"name": "account",
					"type": "address"
				},
				{
					"indexed": true,
					"internalType": "address",
					"name": "sender",
					"type": "address"
				}
			],
			"name": "RoleGranted",
			"type": "event"
		},
		{
			"anonymous": false,
			"inputs": [
				{
					"indexed": true,
					"internalType": "bytes32",
					"name": "role",
					"type": "bytes32"
				},
				{
					"indexed": true,
					"internalType": "address",
					"name": "account",
					"type": "address"
				},
				{
					"indexed": true,
					"internalType": "address",
					"name": "sender",
					"type": "address"
				}
			],
			"name": "RoleRevoked",
			"type": "event"
		},
		{
			"anonymous": false,
			"inputs": [
				{
					"indexed": true,
					"internalType": "address",
					"name": "operator",
					"type": "address"
				},
				{
					"indexed": true,
					"internalType": "address",
					"name": "from",
					"type": "address"
				},
				{
					"indexed": true,
					"internalType": "address",
					"name": "to",
					"type": "address"
				},
				{
					"indexed": false,
					"internalType": "uint256[]",
					"name": "ids",
					"type": "uint256[]"
				},
				{
					"indexed": false,
					"internalType": "uint256[]",
					"name": "values",
					"type": "uint256[]"
				}
			],
			"name": "TransferBatch",
			"type": "event"
		},
		{
			"anonymous": false,
			"inputs": [
				{
					"indexed": true,
					"internalType": "address",
					"name": "operator",
					"type": "address"
				},
				{
					"indexed": true,
					"internalType": "address",
					"name": "from",
					"type": "address"
				},
				{
					"indexed": true,
					"internalType": "address",
					"name": "to",
					"type": "address"
				},
				{
					"indexed": false,
					"internalType": "uint256",
					"name": "id",
					"type": "uint256"
				},
				{
					"indexed": false,
					"internalType": "uint256",
					"name": "value",
					"type": "uint256"
				}
			],
			"name": "TransferSingle",
			"type": "event"
		},
		{
			"anonymous": false,
			"inputs": [
				{
					"indexed": false,
					"internalType": "string",
					"name": "value",
					"type": "string"
				},
				{
					"indexed": true,
					"internalType": "uint256",
					"name": "id",
					"type": "uint256"
				}
			],
			"name": "URI",
			"type": "event"
		},
		{
			"anonymous": false,
			"inputs": [
				{
					"indexed": true,
					"internalType": "uint256",
					"name": "tokenId",
					"type": "uint256"
				},
				{
					"indexed": false,
					"internalType": "uint256",
					"name": "purchaseIndex",
					"type": "uint256"
				},
				{
					"indexed": true,
					"internalType": "address",
					"name": "buyer",
					"type": "address"
				},
				{
					"indexed": false,
					"internalType": "bool",
					"name": "result",
					"type": "bool"
				}
			],
			"name": "VerificationResult",
			"type": "event"
		},
		{
			"anonymous": false,
			"inputs": [
				{
					"indexed": true,
					"internalType": "address",
					"name": "artist",
					"type": "address"
				},
				{
					"indexed": false,
					"internalType": "uint256",
					"name": "amount",
					"type": "uint256"
				}
			],
			"name": "WithdrawArtcoin",
			"type": "event"
		},
		{
			"inputs": [],
			"name": "ARBITRATOR_ROLE",
			"outputs": [
				{
					"internalType": "bytes32",
					"name": "",
					"type": "bytes32"
				}
			],
			"stateMutability": "view",
			"type": "function"
		},
		{
			"inputs": [],
			"name": "ARTCOIN_ID",
			"outputs": [
				{
					"internalType": "uint256",
					"name": "",
					"type": "uint256"
				}
			],
			"stateMutability": "view",
			"type": "function"
		},
		{
			"inputs": [],
			"name": "ARTIST_ROLE",
			"outputs": [
				{
					"internalType": "bytes32",
					"name": "",
					"type": "bytes32"
				}
			],
			"stateMutability": "view",
			"type": "function"
		},
		{
			"inputs": [],
			"name": "DEFAULT_ADMIN_ROLE",
			"outputs": [
				{
					"internalType": "bytes32",
					"name": "",
					"type": "bytes32"
				}
			],
			"stateMutability": "view",
			"type": "function"
		},
		{
			"inputs": [
				{
					"internalType": "address",
					"name": "",
					"type": "address"
				}
			],
			"name": "artistDeposits",
			"outputs": [
				{
					"internalType": "uint256",
					"name": "",
					"type": "uint256"
				}
			],
			"stateMutability": "view",
			"type": "function"
		},
		{
			"inputs": [
				{
					"internalType": "uint256",
					"name": "",
					"type": "uint256"
				},
				{
					"internalType": "uint256",
					"name": "",
					"type": "uint256"
				}
			],
			"name": "artworkPurchases",
			"outputs": [
				{
					"internalType": "address",
					"name": "buyer",
					"type": "address"
				},
				{
					"internalType": "enum DigitalArtwork.PurchaseState",
					"name": "state",
					"type": "uint8"
				},
				{
					"internalType": "uint256",
					"name": "lockedDeposit",
					"type": "uint256"
				}
			],
			"stateMutability": "view",
			"type": "function"
		},
		{
			"inputs": [
				{
					"internalType": "uint256",
					"name": "",
					"type": "uint256"
				}
			],
			"name": "artworks",
			"outputs": [
				{
					"internalType": "uint256",
					"name": "tokenId",
					"type": "uint256"
				},
				{
					"internalType": "string",
					"name": "name",
					"type": "string"
				},
				{
					"internalType": "string",
					"name": "hash_json",
					"type": "string"
				},
				{
					"internalType": "uint256",
					"name": "supplyLimit",
					"type": "uint256"
				},
				{
					"internalType": "uint256",
					"name": "minted",
					"type": "uint256"
				},
				{
					"internalType": "uint256",
					"name": "price",
					"type": "uint256"
				},
				{
					"internalType": "address",
					"name": "artist",
					"type": "address"
				}
			],
			"stateMutability": "view",
			"type": "function"
		},
		{
			"inputs": [
				{
					"internalType": "address",
					"name": "account",
					"type": "address"
				},
				{
					"internalType": "uint256",
					"name": "id",
					"type": "uint256"
				}
			],
			"name": "balanceOf",
			"outputs": [
				{
					"internalType": "uint256",
					"name": "",
					"type": "uint256"
				}
			],
			"stateMutability": "view",
			"type": "function"
		},
		{
			"inputs": [
				{
					"internalType": "address[]",
					"name": "accounts",
					"type": "address[]"
				},
				{
					"internalType": "uint256[]",
					"name": "ids",
					"type": "uint256[]"
				}
			],
			"name": "balanceOfBatch",
			"outputs": [
				{
					"internalType": "uint256[]",
					"name": "",
					"type": "uint256[]"
				}
			],
			"stateMutability": "view",
			"type": "function"
		},
		{
			"inputs": [
				{
					"internalType": "string",
					"name": "_name",
					"type": "string"
				},
				{
					"internalType": "string",
					"name": "_hash_json",
					"type": "string"
				},
				{
					"internalType": "uint256",
					"name": "_supplyLimit",
					"type": "uint256"
				},
				{
					"internalType": "uint256",
					"name": "_price",
					"type": "uint256"
				}
			],
			"name": "createArtwork",
			"outputs": [
				{
					"internalType": "uint256",
					"name": "",
					"type": "uint256"
				}
			],
			"stateMutability": "nonpayable",
			"type": "function"
		},
		{
			"inputs": [],
			"name": "currentArtworkId",
			"outputs": [
				{
					"internalType": "uint256",
					"name": "",
					"type": "uint256"
				}
			],
			"stateMutability": "view",
			"type": "function"
		},
		{
			"inputs": [
				{
					"internalType": "uint256",
					"name": "amount",
					"type": "uint256"
				}
			],
			"name": "depositArtcoin",
			"outputs": [],
			"stateMutability": "nonpayable",
			"type": "function"
		},
		{
			"inputs": [
				{
					"internalType": "uint256",
					"name": "_tokenId",
					"type": "uint256"
				}
			],
			"name": "getArtworkInfo",
			"outputs": [
				{
					"components": [
						{
							"internalType": "uint256",
							"name": "tokenId",
							"type": "uint256"
						},
						{
							"internalType": "string",
							"name": "name",
							"type": "string"
						},
						{
							"internalType": "string",
							"name": "hash_json",
							"type": "string"
						},
						{
							"internalType": "uint256",
							"name": "supplyLimit",
							"type": "uint256"
						},
						{
							"internalType": "uint256",
							"name": "minted",
							"type": "uint256"
						},
						{
							"internalType": "uint256",
							"name": "price",
							"type": "uint256"
						},
						{
							"internalType": "address",
							"name": "artist",
							"type": "address"
						}
					],
					"internalType": "struct DigitalArtwork.Artwork",
					"name": "",
					"type": "tuple"
				}
			],
			"stateMutability": "view",
			"type": "function"
		},
		{
			"inputs": [
				{
					"internalType": "uint256",
					"name": "_tokenId",
					"type": "uint256"
				},
				{
					"internalType": "uint256",
					"name": "purchaseIndex",
					"type": "uint256"
				}
			],
			"name": "getPurchaseInfo",
			"outputs": [
				{
					"components": [
						{
							"internalType": "address",
							"name": "buyer",
							"type": "address"
						},
						{
							"internalType": "enum DigitalArtwork.PurchaseState",
							"name": "state",
							"type": "uint8"
						},
						{
							"internalType": "uint256",
							"name": "lockedDeposit",
							"type": "uint256"
						}
					],
					"internalType": "struct DigitalArtwork.Purchase",
					"name": "",
					"type": "tuple"
				}
			],
			"stateMutability": "view",
			"type": "function"
		},
		{
			"inputs": [
				{
					"internalType": "bytes32",
					"name": "role",
					"type": "bytes32"
				}
			],
			"name": "getRoleAdmin",
			"outputs": [
				{
					"internalType": "bytes32",
					"name": "",
					"type": "bytes32"
				}
			],
			"stateMutability": "view",
			"type": "function"
		},
		{
			"inputs": [
				{
					"internalType": "bytes32",
					"name": "role",
					"type": "bytes32"
				},
				{
					"internalType": "address",
					"name": "account",
					"type": "address"
				}
			],
			"name": "grantRole",
			"outputs": [],
			"stateMutability": "nonpayable",
			"type": "function"
		},
		{
			"inputs": [
				{
					"internalType": "bytes32",
					"name": "role",
					"type": "bytes32"
				},
				{
					"internalType": "address",
					"name": "account",
					"type": "address"
				}
			],
			"name": "hasRole",
			"outputs": [
				{
					"internalType": "bool",
					"name": "",
					"type": "bool"
				}
			],
			"stateMutability": "view",
			"type": "function"
		},
		{
			"inputs": [
				{
					"internalType": "address",
					"name": "account",
					"type": "address"
				},
				{
					"internalType": "address",
					"name": "operator",
					"type": "address"
				}
			],
			"name": "isApprovedForAll",
			"outputs": [
				{
					"internalType": "bool",
					"name": "",
					"type": "bool"
				}
			],
			"stateMutability": "view",
			"type": "function"
		},
		{
			"inputs": [
				{
					"internalType": "address",
					"name": "to",
					"type": "address"
				},
				{
					"internalType": "uint256",
					"name": "amount",
					"type": "uint256"
				}
			],
			"name": "mintARTcoin",
			"outputs": [],
			"stateMutability": "nonpayable",
			"type": "function"
		},
		{
			"inputs": [
				{
					"internalType": "uint256",
					"name": "_tokenId",
					"type": "uint256"
				}
			],
			"name": "mintArtwork",
			"outputs": [],
			"stateMutability": "nonpayable",
			"type": "function"
		},
		{
			"inputs": [
				{
					"internalType": "address",
					"name": "",
					"type": "address"
				}
			],
			"name": "publicKeys",
			"outputs": [
				{
					"internalType": "bytes",
					"name": "",
					"type": "bytes"
				}
			],
			"stateMutability": "view",
			"type": "function"
		},
		{
			"inputs": [
				{
					"internalType": "bytes32",
					"name": "role",
					"type": "bytes32"
				},
				{
					"internalType": "address",
					"name": "callerConfirmation",
					"type": "address"
				}
			],
			"name": "renounceRole",
			"outputs": [],
			"stateMutability": "nonpayable",
			"type": "function"
		},
		{
			"inputs": [
				{
					"internalType": "bytes32",
					"name": "role",
					"type": "bytes32"
				},
				{
					"internalType": "address",
					"name": "account",
					"type": "address"
				}
			],
			"name": "revokeRole",
			"outputs": [],
			"stateMutability": "nonpayable",
			"type": "function"
		},
		{
			"inputs": [
				{
					"internalType": "address",
					"name": "from",
					"type": "address"
				},
				{
					"internalType": "address",
					"name": "to",
					"type": "address"
				},
				{
					"internalType": "uint256[]",
					"name": "ids",
					"type": "uint256[]"
				},
				{
					"internalType": "uint256[]",
					"name": "values",
					"type": "uint256[]"
				},
				{
					"internalType": "bytes",
					"name": "data",
					"type": "bytes"
				}
			],
			"name": "safeBatchTransferFrom",
			"outputs": [],
			"stateMutability": "nonpayable",
			"type": "function"
		},
		{
			"inputs": [
				{
					"internalType": "address",
					"name": "from",
					"type": "address"
				},
				{
					"internalType": "address",
					"name": "to",
					"type": "address"
				},
				{
					"internalType": "uint256",
					"name": "id",
					"type": "uint256"
				},
				{
					"internalType": "uint256",
					"name": "value",
					"type": "uint256"
				},
				{
					"internalType": "bytes",
					"name": "data",
					"type": "bytes"
				}
			],
			"name": "safeTransferFrom",
			"outputs": [],
			"stateMutability": "nonpayable",
			"type": "function"
		},
		{
			"inputs": [
				{
					"internalType": "address",
					"name": "operator",
					"type": "address"
				},
				{
					"internalType": "bool",
					"name": "approved",
					"type": "bool"
				}
			],
			"name": "setApprovalForAll",
			"outputs": [],
			"stateMutability": "nonpayable",
			"type": "function"
		},
		{
			"inputs": [
				{
					"internalType": "uint256",
					"name": "_tokenId",
					"type": "uint256"
				},
				{
					"internalType": "uint256",
					"name": "purchaseIndex",
					"type": "uint256"
				},
				{
					"internalType": "bool",
					"name": "disputeResult",
					"type": "bool"
				}
			],
			"name": "settlePurchaseDispute",
			"outputs": [],
			"stateMutability": "nonpayable",
			"type": "function"
		},
		{
			"inputs": [
				{
					"internalType": "bytes4",
					"name": "interfaceId",
					"type": "bytes4"
				}
			],
			"name": "supportsInterface",
			"outputs": [
				{
					"internalType": "bool",
					"name": "",
					"type": "bool"
				}
			],
			"stateMutability": "view",
			"type": "function"
		},
		{
			"inputs": [
				{
					"internalType": "uint256",
					"name": "",
					"type": "uint256"
				}
			],
			"name": "uri",
			"outputs": [
				{
					"internalType": "string",
					"name": "",
					"type": "string"
				}
			],
			"stateMutability": "view",
			"type": "function"
		},
		{
			"inputs": [
				{
					"internalType": "uint256",
					"name": "_tokenId",
					"type": "uint256"
				},
				{
					"internalType": "uint256",
					"name": "purchaseIndex",
					"type": "uint256"
				},
				{
					"internalType": "bool",
					"name": "verificationResult",
					"type": "bool"
				}
			],
			"name": "verifyPurchase",
			"outputs": [],
			"stateMutability": "nonpayable",
			"type": "function"
		},
		{
			"inputs": [
				{
					"internalType": "uint256",
					"name": "amount",
					"type": "uint256"
				}
			],
			"name": "withdrawArtcoin",
			"outputs": [],
			"stateMutability": "nonpayable",
			"type": "function"
		}
	]
}