{
	"data": {
		"bytecode": {
			"linkReferences": {},
			"object": "608060405234801562000010575f80fd5b50604051620060633803806200606383398181016040528101906200003691906200036e565b8062000048816200006d60201b60201c565b506001600481905550620000655f801b336200008260201b60201c565b5050620006d8565b80600290816200007e9190620005f4565b5050565b5f6200009583836200017e60201b60201c565b6200017457600160035f8581526020019081526020015f205f015f8473ffffffffffffffffffffffffffffffffffffffff1673ffffffffffffffffffffffffffffffffffffffff1681526020019081526020015f205f6101000a81548160ff02191690831515021790555062000110620001e260201b60201c565b73ffffffffffffffffffffffffffffffffffffffff168273ffffffffffffffffffffffffffffffffffffffff16847f2f8788117e7eff1d82e926ec794901d17c78024a50270940304540a733656f0d60405160405180910390a46001905062000178565b5f90505b92915050565b5f60035f8481526020019081526020015f205f015f8373ffffffffffffffffffffffffffffffffffffffff1673ffffffffffffffffffffffffffffffffffffffff1681526020019081526020015f205f9054906101000a900460ff16905092915050565b5f33905090565b5f604051905090565b5f80fd5b5f80fd5b5f80fd5b5f80fd5b5f601f19601f8301169050919050565b7f4e487b71000000000000000000000000000000000000000000000000000000005f52604160045260245ffd5b6200024a8262000202565b810181811067ffffffffffffffff821117156200026c576200026b62000212565b5b80604052505050565b5f62000280620001e9565b90506200028e82826200023f565b919050565b5f67ffffffffffffffff821115620002b057620002af62000212565b5b620002bb8262000202565b9050602081019050919050565b5f5b83811015620002e7578082015181840152602081019050620002ca565b5f8484015250505050565b5f62000308620003028462000293565b62000275565b905082815260208101848484011115620003275762000326620001fe565b5b62000334848285620002c8565b509392505050565b5f82601f830112620003535762000352620001fa565b5b815162000365848260208601620002f2565b91505092915050565b5f60208284031215620003865762000385620001f2565b5b5f82015167ffffffffffffffff811115620003a657620003a5620001f6565b5b620003b4848285016200033c565b91505092915050565b5f81519050919050565b7f4e487b71000000000000000000000000000000000000000000000000000000005f52602260045260245ffd5b5f60028204905060018216806200040c57607f821691505b602082108103620004225762000421620003c7565b5b50919050565b5f819050815f5260205f209050919050565b5f6020601f8301049050919050565b5f82821b905092915050565b5f60088302620004867fffffffffffffffffffffffffffffffffffffffffffffffffffffffffffffffff8262000449565b62000492868362000449565b95508019841693508086168417925050509392505050565b5f819050919050565b5f819050919050565b5f620004dc620004d6620004d084620004aa565b620004b3565b620004aa565b9050919050565b5f819050919050565b620004f783620004bc565b6200050f6200050682620004e3565b84845462000455565b825550505050565b5f90565b6200052562000517565b62000532818484620004ec565b505050565b5b8181101562000559576200054d5f826200051b565b60018101905062000538565b5050565b601f821115620005a857620005728162000428565b6200057d846200043a565b810160208510156200058d578190505b620005a56200059c856200043a565b83018262000537565b50505b505050565b5f82821c905092915050565b5f620005ca5f1984600802620005ad565b1980831691505092915050565b5f620005e48383620005b9565b9150826002028217905092915050565b620005ff82620003bd565b67ffffffffffffffff8111156200061b576200061a62000212565b5b620006278254620003f4565b620006348282856200055d565b5f60209050601f8311600181146200066a575f841562000655578287015190505b620006618582620005d7565b865550620006d0565b601f1984166200067a8662000428565b5f5b82811015620006a3578489015182556001820191506020850194506020810190506200067c565b86831015620006c35784890151620006bf601f891682620005b9565b8355505b6001600288020188555050505b505050505050565b61597d80620006e65f395ff3fe608060405234801561000f575f80fd5b5060043610610203575f3560e01c806391d1485411610118578063b89571c7116100ab578063e82f40621161007a578063e82f406214610638578063e985e9c514610654578063f1f201e814610684578063f23a6e61146106b4578063f242432a146106e457610203565b8063b89571c7146105a0578063bc197c81146105bc578063d547741f146105ec578063da47635d1461060857610203565b8063a217fddf116100e7578063a217fddf14610518578063a22cb46514610536578063a966a0df14610552578063ac76e5211461057057610203565b806391d1485414610490578063992642e5146104c05780639cea0787146104de5780639e56f275146104fc57610203565b806336568abe1161019b5780634bc9db851161016a5780634bc9db85146103d95780634e1273f41461040c57806359f99c531461043c5780637365e8ec14610458578063870e974e1461047457610203565b806336568abe1461034d5780633a14af651461036957806344879b3b146103875780634b602673146103a357610203565b8063237f1509116101d7578063237f1509146102b5578063248a9ca3146102e55780632eb2c2d6146103155780632f2ff15d1461033157610203565b8062fdd58e1461020757806301ffc9a7146102375780630e89341c1461026757806318b6dcbc14610297575b5f80fd5b610221600480360381019061021c9190613ecc565b610700565b60405161022e9190613f19565b60405180910390f35b610251600480360381019061024c9190613f87565b610755565b60405161025e9190613fcc565b60405180910390f35b610281600480360381019061027c9190613fe5565b610766565b60405161028e919061409a565b60405180910390f35b61029f6107f8565b6040516102ac9190613f19565b60405180910390f35b6102cf60048036038101906102ca91906141e6565b6107fe565b6040516102dc9190613f19565b60405180910390f35b6102ff60048036038101906102fa91906142b5565b610998565b60405161030c91906142ef565b60405180910390f35b61032f600480360381019061032a919061446a565b6109b5565b005b61034b60048036038101906103469190614535565b610a5c565b005b61036760048036038101906103629190614535565b610a7e565b005b610371610af9565b60405161037e9190613f19565b60405180910390f35b6103a1600480360381019061039c9190614573565b610aff565b005b6103bd60048036038101906103b89190613fe5565b610b86565b6040516103d097969594939291906145ad565b60405180910390f35b6103f360048036038101906103ee9190614628565b610cef565b60405161040394939291906146d9565b60405180910390f35b610426600480360381019061042191906147dc565b610d60565b6040516104339190614909565b60405180910390f35b61045660048036038101906104519190613fe5565b610e6d565b005b610472600480360381019061046d9190614628565b6110b8565b005b61048e60048036038101906104899190613fe5565b611584565b005b6104aa60048036038101906104a59190614535565b6117be565b6040516104b79190613fcc565b60405180910390f35b6104c8611822565b6040516104d59190614984565b60405180910390f35b6104e6611847565b6040516104f391906142ef565b60405180910390f35b610516600480360381019061051191906149c7565b61186b565b005b610520611e60565b60405161052d91906142ef565b60405180910390f35b610550600480360381019061054b9190614a17565b611e66565b005b61055a611e7c565b60405161056791906142ef565b60405180910390f35b61058a60048036038101906105859190614573565b611ea0565b6040516105979190613f19565b60405180910390f35b6105ba60048036038101906105b591906149c7565b611eb5565b005b6105d660048036038101906105d1919061446a565b612372565b6040516105e39190614a64565b60405180910390f35b61060660048036038101906106019190614535565b612386565b005b610622600480360381019061061d9190614628565b6123a8565b60405161062f9190614aee565b60405180910390f35b610652600480360381019061064d9190613fe5565b6124ea565b005b61066e60048036038101906106699190614b07565b61291f565b60405161067b9190613fcc565b60405180910390f35b61069e60048036038101906106999190613fe5565b6129ad565b6040516106ab9190614c2d565b60405180910390f35b6106ce60048036038101906106c99190614c4d565b612b74565b6040516106db9190614a64565b60405180910390f35b6106fe60048036038101906106f99190614c4d565b612b88565b005b5f805f8381526020019081526020015f205f8473ffffffffffffffffffffffffffffffffffffffff1673ffffffffffffffffffffffffffffffffffffffff1681526020019081526020015f2054905092915050565b5f61075f82612c2f565b9050919050565b60606002805461077590614d0d565b80601f01602080910402602001604051908101604052809291908181526020018280546107a190614d0d565b80156107ec5780601f106107c3576101008083540402835291602001916107ec565b820191905f5260205f20905b8154815290600101906020018083116107cf57829003601f168201915b50505050509050919050565b60055481565b5f7f877a78dc988c0ec5f58453b44888a55eb39755c3d5ed8d8ea990912aa3ef29c661082981612ca8565b60055f81548092919061083b90614d6a565b91905055505f60055490506040518060e001604052808281526020018881526020018781526020018681526020015f81526020018581526020013373ffffffffffffffffffffffffffffffffffffffff1681525060075f8381526020019081526020015f205f820151815f015560208201518160010190816108bd9190614f45565b5060408201518160020190816108d39190614f45565b50606082015181600301556080820151816004015560a0820151816005015560c0820151816006015f6101000a81548173ffffffffffffffffffffffffffffffffffffffff021916908373ffffffffffffffffffffffffffffffffffffffff1602179055509050503373ffffffffffffffffffffffffffffffffffffffff16817ef3538cb5abe2e9bc54f73939e4d165fce3752d27fe21a5e88b2a9f6da20c638688604051610983929190615014565b60405180910390a38092505050949350505050565b5f60035f8381526020019081526020015f20600101549050919050565b5f6109be612cbc565b90508073ffffffffffffffffffffffffffffffffffffffff168673ffffffffffffffffffffffffffffffffffffffff1614158015610a035750610a01868261291f565b155b15610a475780866040517fe237d922000000000000000000000000000000000000000000000000000000008152600401610a3e92919061503b565b60405180910390fd5b610a548686868686612cc3565b505050505050565b610a6582610998565b610a6e81612ca8565b610a788383612db7565b50505050565b610a86612cbc565b73ffffffffffffffffffffffffffffffffffffffff168173ffffffffffffffffffffffffffffffffffffffff1614610aea576040517f6697b23200000000000000000000000000000000000000000000000000000000815260040160405180910390fd5b610af48282612ea1565b505050565b61025881565b5f801b610b0b81612ca8565b8160065f6101000a81548173ffffffffffffffffffffffffffffffffffffffff021916908373ffffffffffffffffffffffffffffffffffffffff1602179055507f8b3e443d01c14c05684786a0273fdb48381417285bd830b7e71354d3ce60166682604051610b7a9190615062565b60405180910390a15050565b6007602052805f5260405f205f91509050805f015490806001018054610bab90614d0d565b80601f0160208091040260200160405190810160405280929190818152602001828054610bd790614d0d565b8015610c225780601f10610bf957610100808354040283529160200191610c22565b820191905f5260205f20905b815481529060010190602001808311610c0557829003601f168201915b505050505090806002018054610c3790614d0d565b80601f0160208091040260200160405190810160405280929190818152602001828054610c6390614d0d565b8015610cae5780601f10610c8557610100808354040283529160200191610cae565b820191905f5260205f20905b815481529060010190602001808311610c9157829003601f168201915b505050505090806003015490806004015490806005015490806006015f9054906101000a900473ffffffffffffffffffffffffffffffffffffffff16905087565b6008602052815f5260405f208181548110610d08575f80fd5b905f5260205f2090600302015f9150915050805f015f9054906101000a900473ffffffffffffffffffffffffffffffffffffffff1690805f0160149054906101000a900460ff16908060010154908060020154905084565b60608151835114610dac57815183516040517f5b059991000000000000000000000000000000000000000000000000000000008152600401610da3929190615014565b60405180910390fd5b5f835167ffffffffffffffff811115610dc857610dc76140c2565b5b604051908082528060200260200182016040528015610df65781602001602082028036833780820191505090505b5090505f5b8451811015610e6257610e32610e1a8287612f8b90919063ffffffff16565b610e2d8387612f9e90919063ffffffff16565b610700565b828281518110610e4557610e4461507b565b5b60200260200101818152505080610e5b90614d6a565b9050610dfb565b508091505092915050565b610e75612fb1565b7f877a78dc988c0ec5f58453b44888a55eb39755c3d5ed8d8ea990912aa3ef29c6610e9f81612ca8565b5f73ffffffffffffffffffffffffffffffffffffffff1660065f9054906101000a900473ffffffffffffffffffffffffffffffffffffffff1673ffffffffffffffffffffffffffffffffffffffff1603610f2e576040517f08c379a0000000000000000000000000000000000000000000000000000000008152600401610f25906150f2565b60405180910390fd5b60065f9054906101000a900473ffffffffffffffffffffffffffffffffffffffff1673ffffffffffffffffffffffffffffffffffffffff166323b872dd3330856040518463ffffffff1660e01b8152600401610f8c93929190615110565b6020604051808303815f875af1158015610fa8573d5f803e3d5ffd5b505050506040513d601f19601f82011682018060405250810190610fcc9190615159565b61100b576040517f08c379a0000000000000000000000000000000000000000000000000000000008152600401611002906151ce565b60405180910390fd5b8160095f3373ffffffffffffffffffffffffffffffffffffffff1673ffffffffffffffffffffffffffffffffffffffff1681526020019081526020015f205f82825461105791906151ec565b925050819055503373ffffffffffffffffffffffffffffffffffffffff167f53afa103a6c0b67688f65d816c5869e8a5bc46bd37aae6408ec773e45e2c3aa8836040516110a49190613f19565b60405180910390a2506110b5613000565b50565b6110c0612fb1565b5f60075f8481526020019081526020015f209050806006015f9054906101000a900473ffffffffffffffffffffffffffffffffffffffff1673ffffffffffffffffffffffffffffffffffffffff163373ffffffffffffffffffffffffffffffffffffffff1614611165576040517f08c379a000000000000000000000000000000000000000000000000000000000815260040161115c90615269565b60405180910390fd5b60085f8481526020019081526020015f208054905082106111bb576040517f08c379a00000000000000000000000000000000000000000000000000000000081526004016111b2906152d1565b60405180910390fd5b5f60085f8581526020019081526020015f2083815481106111df576111de61507b565b5b905f5260205f20906003020190505f6003811115611200576111ff614666565b5b815f0160149054906101000a900460ff16600381111561122357611222614666565b5b14611263576040517f08c379a000000000000000000000000000000000000000000000000000000000815260040161125a90615339565b60405180910390fd5b610258816002015461127591906151ec565b4210156112b7576040517f08c379a00000000000000000000000000000000000000000000000000000000081526004016112ae906153a1565b60405180910390fd5b60065f9054906101000a900473ffffffffffffffffffffffffffffffffffffffff1673ffffffffffffffffffffffffffffffffffffffff1663a9059cbb825f015f9054906101000a900473ffffffffffffffffffffffffffffffffffffffff1684600501546040518363ffffffff1660e01b81526004016113399291906153bf565b6020604051808303815f875af1158015611355573d5f803e3d5ffd5b505050506040513d601f19601f820116820180604052508101906113799190615159565b6113b8576040517f08c379a00000000000000000000000000000000000000000000000000000000081526004016113af90615430565b60405180910390fd5b816005015481600101546113cc91906151ec565b60095f846006015f9054906101000a900473ffffffffffffffffffffffffffffffffffffffff1673ffffffffffffffffffffffffffffffffffffffff1673ffffffffffffffffffffffffffffffffffffffff1681526020019081526020015f205f82825461143a91906151ec565b925050819055505f81600101819055506002815f0160146101000a81548160ff0219169083600381111561147157611470614666565b5b0217905550805f015f9054906101000a900473ffffffffffffffffffffffffffffffffffffffff1673ffffffffffffffffffffffffffffffffffffffff16826006015f9054906101000a900473ffffffffffffffffffffffffffffffffffffffff1673ffffffffffffffffffffffffffffffffffffffff16857f8a638e11b0c22c045787cdeb797b7660a82a4f82305ca40e86a115ae07b3ee2886866005015460405161151f929190615014565b60405180910390a43373ffffffffffffffffffffffffffffffffffffffff16847f86f9d82fe70f334564dfb5d0f47619293510546518af6f46b21209f3cfd6d3e78560405161156e9190613f19565b60405180910390a35050611580613000565b5050565b61158c612fb1565b7f877a78dc988c0ec5f58453b44888a55eb39755c3d5ed8d8ea990912aa3ef29c66115b681612ca8565b8160095f3373ffffffffffffffffffffffffffffffffffffffff1673ffffffffffffffffffffffffffffffffffffffff1681526020019081526020015f20541015611636576040517f08c379a000000000000000000000000000000000000000000000000000000000815260040161162d90615498565b60405180910390fd5b8160095f3373ffffffffffffffffffffffffffffffffffffffff1673ffffffffffffffffffffffffffffffffffffffff1681526020019081526020015f205f82825461168291906154b6565b9250508190555060065f9054906101000a900473ffffffffffffffffffffffffffffffffffffffff1673ffffffffffffffffffffffffffffffffffffffff1663a9059cbb33846040518363ffffffff1660e01b81526004016116e59291906153bf565b6020604051808303815f875af1158015611701573d5f803e3d5ffd5b505050506040513d601f19601f820116820180604052508101906117259190615159565b611764576040517f08c379a000000000000000000000000000000000000000000000000000000000815260040161175b906151ce565b60405180910390fd5b3373ffffffffffffffffffffffffffffffffffffffff167ff950065c052afd5c2ca44ff2a18cd37168ed2f720c947332bdea60cc300ac35c836040516117aa9190613f19565b60405180910390a2506117bb613000565b50565b5f60035f8481526020019081526020015f205f015f8373ffffffffffffffffffffffffffffffffffffffff1673ffffffffffffffffffffffffffffffffffffffff1681526020019081526020015f205f9054906101000a900460ff16905092915050565b60065f9054906101000a900473ffffffffffffffffffffffffffffffffffffffff1681565b7f16ceee8289685dd2a02b9c8ae81d2df373176ce53519e6284e2a2950d6546ffa81565b611873612fb1565b7f16ceee8289685dd2a02b9c8ae81d2df373176ce53519e6284e2a2950d6546ffa61189d81612ca8565b60085f8581526020019081526020015f208054905083106118f3576040517f08c379a00000000000000000000000000000000000000000000000000000000081526004016118ea906152d1565b60405180910390fd5b5f60085f8681526020019081526020015f2084815481106119175761191661507b565b5b905f5260205f20906003020190506001600381111561193957611938614666565b5b815f0160149054906101000a900460ff16600381111561195c5761195b614666565b5b1461199c576040517f08c379a000000000000000000000000000000000000000000000000000000000815260040161199390615533565b60405180910390fd5b5f60075f8781526020019081526020015f2090508315611c2b5760065f9054906101000a900473ffffffffffffffffffffffffffffffffffffffff1673ffffffffffffffffffffffffffffffffffffffff1663a9059cbb835f015f9054906101000a900473ffffffffffffffffffffffffffffffffffffffff1683600501546040518363ffffffff1660e01b8152600401611a389291906153bf565b6020604051808303815f875af1158015611a54573d5f803e3d5ffd5b505050506040513d601f19601f82011682018060405250810190611a789190615159565b611ab7576040517f08c379a0000000000000000000000000000000000000000000000000000000008152600401611aae90615430565b60405180910390fd5b80600501548260010154611acb91906151ec565b60095f836006015f9054906101000a900473ffffffffffffffffffffffffffffffffffffffff1673ffffffffffffffffffffffffffffffffffffffff1673ffffffffffffffffffffffffffffffffffffffff1681526020019081526020015f205f828254611b3991906151ec565b925050819055505f82600101819055506002825f0160146101000a81548160ff02191690836003811115611b7057611b6f614666565b5b0217905550815f015f9054906101000a900473ffffffffffffffffffffffffffffffffffffffff1673ffffffffffffffffffffffffffffffffffffffff16816006015f9054906101000a900473ffffffffffffffffffffffffffffffffffffffff1673ffffffffffffffffffffffffffffffffffffffff16877f8a638e11b0c22c045787cdeb797b7660a82a4f82305ca40e86a115ae07b3ee28888560050154604051611c1e929190615014565b60405180910390a4611e16565b60065f9054906101000a900473ffffffffffffffffffffffffffffffffffffffff1673ffffffffffffffffffffffffffffffffffffffff1663a9059cbb835f015f9054906101000a900473ffffffffffffffffffffffffffffffffffffffff1660028460050154611c9c9190615551565b6040518363ffffffff1660e01b8152600401611cb99291906153bf565b6020604051808303815f875af1158015611cd5573d5f803e3d5ffd5b505050506040513d601f19601f82011682018060405250810190611cf99190615159565b611d38576040517f08c379a0000000000000000000000000000000000000000000000000000000008152600401611d2f90615430565b60405180910390fd5b816001015460095f836006015f9054906101000a900473ffffffffffffffffffffffffffffffffffffffff1673ffffffffffffffffffffffffffffffffffffffff1673ffffffffffffffffffffffffffffffffffffffff1681526020019081526020015f205f828254611dab91906151ec565b925050819055505f82600101819055506003825f0160146101000a81548160ff02191690836003811115611de257611de1614666565b5b0217905550611e15825f015f9054906101000a900473ffffffffffffffffffffffffffffffffffffffff1687600161300a565b5b857fd4390d9b1eae30d53d6e598d7eba50e60f3ea18310ca83e7919e3df177bb05ca8686604051611e48929190615592565b60405180910390a2505050611e5b613000565b505050565b5f801b81565b611e78611e71612cbc565b83836130ac565b5050565b7f877a78dc988c0ec5f58453b44888a55eb39755c3d5ed8d8ea990912aa3ef29c681565b6009602052805f5260405f205f915090505481565b611ebd612fb1565b60085f8481526020019081526020015f20805490508210611f13576040517f08c379a0000000000000000000000000000000000000000000000000000000008152600401611f0a906152d1565b60405180910390fd5b5f60085f8581526020019081526020015f208381548110611f3757611f3661507b565b5b905f5260205f20906003020190503373ffffffffffffffffffffffffffffffffffffffff16815f015f9054906101000a900473ffffffffffffffffffffffffffffffffffffffff1673ffffffffffffffffffffffffffffffffffffffff1614611fd5576040517f08c379a0000000000000000000000000000000000000000000000000000000008152600401611fcc90615603565b60405180910390fd5b5f6003811115611fe857611fe7614666565b5b815f0160149054906101000a900460ff16600381111561200b5761200a614666565b5b1461204b576040517f08c379a000000000000000000000000000000000000000000000000000000000815260040161204290615339565b60405180910390fd5b5f60075f8681526020019081526020015f2090503373ffffffffffffffffffffffffffffffffffffffff16857fdfcfa307bd7ff3b7df976aea65a8df73deb67f2649e10e389ae208b2a5c667af86866040516120a8929190615592565b60405180910390a382156122e75760065f9054906101000a900473ffffffffffffffffffffffffffffffffffffffff1673ffffffffffffffffffffffffffffffffffffffff1663a9059cbb3383600501546040518363ffffffff1660e01b81526004016121169291906153bf565b6020604051808303815f875af1158015612132573d5f803e3d5ffd5b505050506040513d601f19601f820116820180604052508101906121569190615159565b612195576040517f08c379a000000000000000000000000000000000000000000000000000000000815260040161218c90615430565b60405180910390fd5b806005015482600101546121a991906151ec565b60095f836006015f9054906101000a900473ffffffffffffffffffffffffffffffffffffffff1673ffffffffffffffffffffffffffffffffffffffff1673ffffffffffffffffffffffffffffffffffffffff1681526020019081526020015f205f82825461221791906151ec565b925050819055505f82600101819055506002825f0160146101000a81548160ff0219169083600381111561224e5761224d614666565b5b02179055503373ffffffffffffffffffffffffffffffffffffffff16816006015f9054906101000a900473ffffffffffffffffffffffffffffffffffffffff1673ffffffffffffffffffffffffffffffffffffffff16867f8a638e11b0c22c045787cdeb797b7660a82a4f82305ca40e86a115ae07b3ee288785600501546040516122da929190615014565b60405180910390a4612363565b6001825f0160146101000a81548160ff0219169083600381111561230e5761230d614666565b5b02179055503373ffffffffffffffffffffffffffffffffffffffff16857fc6fb55a2bd2838e444163cece1945a661c371c5ec8c1a4ea5d697aefc76905478660405161235a9190613f19565b60405180910390a35b505061236d613000565b505050565b5f63bc197c8160e01b905095945050505050565b61238f82610998565b61239881612ca8565b6123a28383612ea1565b50505050565b6123b0613d94565b60085f8481526020019081526020015f20805490508210612406576040517f08c379a00000000000000000000000000000000000000000000000000000000081526004016123fd906152d1565b60405180910390fd5b60085f8481526020019081526020015f2082815481106124295761242861507b565b5b905f5260205f2090600302016040518060800160405290815f82015f9054906101000a900473ffffffffffffffffffffffffffffffffffffffff1673ffffffffffffffffffffffffffffffffffffffff1673ffffffffffffffffffffffffffffffffffffffff1681526020015f820160149054906101000a900460ff1660038111156124b8576124b7614666565b5b60038111156124ca576124c9614666565b5b815260200160018201548152602001600282015481525050905092915050565b6124f2612fb1565b5f60075f8381526020019081526020015f2090508060030154816004015410612550576040517f08c379a00000000000000000000000000000000000000000000000000000000081526004016125479061566b565b60405180910390fd5b5f600282600501546125629190615551565b905060065f9054906101000a900473ffffffffffffffffffffffffffffffffffffffff1673ffffffffffffffffffffffffffffffffffffffff166323b872dd3330846040518463ffffffff1660e01b81526004016125c293929190615110565b6020604051808303815f875af11580156125de573d5f803e3d5ffd5b505050506040513d601f19601f820116820180604052508101906126029190615159565b612641576040517f08c379a0000000000000000000000000000000000000000000000000000000008152600401612638906151ce565b60405180910390fd5b8060095f846006015f9054906101000a900473ffffffffffffffffffffffffffffffffffffffff1673ffffffffffffffffffffffffffffffffffffffff1673ffffffffffffffffffffffffffffffffffffffff1681526020019081526020015f205410156126e4576040517f08c379a00000000000000000000000000000000000000000000000000000000081526004016126db906156d3565b60405180910390fd5b8060095f846006015f9054906101000a900473ffffffffffffffffffffffffffffffffffffffff1673ffffffffffffffffffffffffffffffffffffffff1673ffffffffffffffffffffffffffffffffffffffff1681526020019081526020015f205f82825461275391906154b6565b925050819055505f60405180608001604052803373ffffffffffffffffffffffffffffffffffffffff1681526020015f600381111561279557612794614666565b5b815260200183815260200142815250905060085f8581526020019081526020015f2081908060018154018082558091505060019003905f5260205f2090600302015f909190919091505f820151815f015f6101000a81548173ffffffffffffffffffffffffffffffffffffffff021916908373ffffffffffffffffffffffffffffffffffffffff1602179055506020820151815f0160146101000a81548160ff0219169083600381111561284c5761284b614666565b5b0217905550604082015181600101556060820151816002015550505f600160085f8781526020019081526020015f208054905061288991906154b6565b90506001846004015f82825461289f91906151ec565b925050819055506128c13386600160405180602001604052805f815250613215565b3373ffffffffffffffffffffffffffffffffffffffff16857f0c66714ac82c6b49d1baf73a23208093f244fc265e1ce7e1412598a9ff1da164836040516129089190613f19565b60405180910390a35050505061291c613000565b50565b5f60015f8473ffffffffffffffffffffffffffffffffffffffff1673ffffffffffffffffffffffffffffffffffffffff1681526020019081526020015f205f8373ffffffffffffffffffffffffffffffffffffffff1673ffffffffffffffffffffffffffffffffffffffff1681526020019081526020015f205f9054906101000a900460ff16905092915050565b6129b5613de0565b60075f8381526020019081526020015f206040518060e00160405290815f82015481526020016001820180546129ea90614d0d565b80601f0160208091040260200160405190810160405280929190818152602001828054612a1690614d0d565b8015612a615780601f10612a3857610100808354040283529160200191612a61565b820191905f5260205f20905b815481529060010190602001808311612a4457829003601f168201915b50505050508152602001600282018054612a7a90614d0d565b80601f0160208091040260200160405190810160405280929190818152602001828054612aa690614d0d565b8015612af15780601f10612ac857610100808354040283529160200191612af1565b820191905f5260205f20905b815481529060010190602001808311612ad457829003601f168201915b50505050508152602001600382015481526020016004820154815260200160058201548152602001600682015f9054906101000a900473ffffffffffffffffffffffffffffffffffffffff1673ffffffffffffffffffffffffffffffffffffffff1673ffffffffffffffffffffffffffffffffffffffff16815250509050919050565b5f63f23a6e6160e01b905095945050505050565b5f612b91612cbc565b90508073ffffffffffffffffffffffffffffffffffffffff168673ffffffffffffffffffffffffffffffffffffffff1614158015612bd65750612bd4868261291f565b155b15612c1a5780866040517fe237d922000000000000000000000000000000000000000000000000000000008152600401612c1192919061503b565b60405180910390fd5b612c2786868686866132aa565b505050505050565b5f7f7965db0b000000000000000000000000000000000000000000000000000000007bffffffffffffffffffffffffffffffffffffffffffffffffffffffff1916827bffffffffffffffffffffffffffffffffffffffffffffffffffffffff19161480612ca15750612ca0826133b0565b5b9050919050565b612cb981612cb4612cbc565b613429565b50565b5f33905090565b5f73ffffffffffffffffffffffffffffffffffffffff168473ffffffffffffffffffffffffffffffffffffffff1603612d33575f6040517f57f447ce000000000000000000000000000000000000000000000000000000008152600401612d2a9190615062565b60405180910390fd5b5f73ffffffffffffffffffffffffffffffffffffffff168573ffffffffffffffffffffffffffffffffffffffff1603612da3575f6040517f01a83514000000000000000000000000000000000000000000000000000000008152600401612d9a9190615062565b60405180910390fd5b612db0858585858561347a565b5050505050565b5f612dc283836117be565b612e9757600160035f8581526020019081526020015f205f015f8473ffffffffffffffffffffffffffffffffffffffff1673ffffffffffffffffffffffffffffffffffffffff1681526020019081526020015f205f6101000a81548160ff021916908315150217905550612e34612cbc565b73ffffffffffffffffffffffffffffffffffffffff168273ffffffffffffffffffffffffffffffffffffffff16847f2f8788117e7eff1d82e926ec794901d17c78024a50270940304540a733656f0d60405160405180910390a460019050612e9b565b5f90505b92915050565b5f612eac83836117be565b15612f81575f60035f8581526020019081526020015f205f015f8473ffffffffffffffffffffffffffffffffffffffff1673ffffffffffffffffffffffffffffffffffffffff1681526020019081526020015f205f6101000a81548160ff021916908315150217905550612f1e612cbc565b73ffffffffffffffffffffffffffffffffffffffff168273ffffffffffffffffffffffffffffffffffffffff16847ff6391f5c32d9c69d2a47ea670b442974b53935d1edc7fd64eb21e047a839171b60405160405180910390a460019050612f85565b5f90505b92915050565b5f60208202602084010151905092915050565b5f60208202602084010151905092915050565b600260045403612ff6576040517f08c379a0000000000000000000000000000000000000000000000000000000008152600401612fed9061573b565b60405180910390fd5b6002600481905550565b6001600481905550565b5f73ffffffffffffffffffffffffffffffffffffffff168373ffffffffffffffffffffffffffffffffffffffff160361307a575f6040517f01a835140000000000000000000000000000000000000000000000000000000081526004016130719190615062565b60405180910390fd5b5f806130868484613526565b915091506130a5855f848460405180602001604052805f81525061347a565b5050505050565b5f73ffffffffffffffffffffffffffffffffffffffff168273ffffffffffffffffffffffffffffffffffffffff160361311c575f6040517fced3e1000000000000000000000000000000000000000000000000000000000081526004016131139190615062565b60405180910390fd5b8060015f8573ffffffffffffffffffffffffffffffffffffffff1673ffffffffffffffffffffffffffffffffffffffff1681526020019081526020015f205f8473ffffffffffffffffffffffffffffffffffffffff1673ffffffffffffffffffffffffffffffffffffffff1681526020019081526020015f205f6101000a81548160ff0219169083151502179055508173ffffffffffffffffffffffffffffffffffffffff168373ffffffffffffffffffffffffffffffffffffffff167f17307eab39ab6107e8899845ad3d59bd9653f200f220920489ca2b5937696c31836040516132089190613fcc565b60405180910390a3505050565b5f73ffffffffffffffffffffffffffffffffffffffff168473ffffffffffffffffffffffffffffffffffffffff1603613285575f6040517f57f447ce00000000000000000000000000000000000000000000000000000000815260040161327c9190615062565b60405180910390fd5b5f806132918585613526565b915091506132a25f8784848761347a565b505050505050565b5f73ffffffffffffffffffffffffffffffffffffffff168473ffffffffffffffffffffffffffffffffffffffff160361331a575f6040517f57f447ce0000000000000000000000000000000000000000000000000000000081526004016133119190615062565b60405180910390fd5b5f73ffffffffffffffffffffffffffffffffffffffff168573ffffffffffffffffffffffffffffffffffffffff160361338a575f6040517f01a835140000000000000000000000000000000000000000000000000000000081526004016133819190615062565b60405180910390fd5b5f806133968585613526565b915091506133a7878784848761347a565b50505050505050565b5f7f4e2312e0000000000000000000000000000000000000000000000000000000007bffffffffffffffffffffffffffffffffffffffffffffffffffffffff1916827bffffffffffffffffffffffffffffffffffffffffffffffffffffffff19161480613422575061342182613556565b5b9050919050565b61343382826117be565b6134765780826040517fe2517d3f00000000000000000000000000000000000000000000000000000000815260040161346d929190615759565b60405180910390fd5b5050565b61348685858585613637565b5f73ffffffffffffffffffffffffffffffffffffffff168473ffffffffffffffffffffffffffffffffffffffff161461351f575f6134c2612cbc565b9050600184510361350e575f6134e15f86612f9e90919063ffffffff16565b90505f6134f75f86612f9e90919063ffffffff16565b90506135078389898585896139cd565b505061351d565b61351c818787878787613b7c565b5b505b5050505050565b60608060405191506001825283602083015260408201905060018152826020820152604081016040529250929050565b5f7fd9b67a26000000000000000000000000000000000000000000000000000000007bffffffffffffffffffffffffffffffffffffffffffffffffffffffff1916827bffffffffffffffffffffffffffffffffffffffffffffffffffffffff1916148061362057507f0e89341c000000000000000000000000000000000000000000000000000000007bffffffffffffffffffffffffffffffffffffffffffffffffffffffff1916827bffffffffffffffffffffffffffffffffffffffffffffffffffffffff1916145b80613630575061362f82613d2b565b5b9050919050565b805182511461368157815181516040517f5b059991000000000000000000000000000000000000000000000000000000008152600401613678929190615014565b60405180910390fd5b5f61368a612cbc565b90505f5b835181101561388c575f6136ab8286612f9e90919063ffffffff16565b90505f6136c18386612f9e90919063ffffffff16565b90505f73ffffffffffffffffffffffffffffffffffffffff168873ffffffffffffffffffffffffffffffffffffffff16146137e4575f805f8481526020019081526020015f205f8a73ffffffffffffffffffffffffffffffffffffffff1673ffffffffffffffffffffffffffffffffffffffff1681526020019081526020015f205490508181101561379057888183856040517f03dee4c50000000000000000000000000000000000000000000000000000000081526004016137879493929190615780565b60405180910390fd5b8181035f808581526020019081526020015f205f8b73ffffffffffffffffffffffffffffffffffffffff1673ffffffffffffffffffffffffffffffffffffffff1681526020019081526020015f2081905550505b5f73ffffffffffffffffffffffffffffffffffffffff168773ffffffffffffffffffffffffffffffffffffffff161461387957805f808481526020019081526020015f205f8973ffffffffffffffffffffffffffffffffffffffff1673ffffffffffffffffffffffffffffffffffffffff1681526020019081526020015f205f82825461387191906151ec565b925050819055505b50508061388590614d6a565b905061368e565b506001835103613947575f6138aa5f85612f9e90919063ffffffff16565b90505f6138c05f85612f9e90919063ffffffff16565b90508573ffffffffffffffffffffffffffffffffffffffff168773ffffffffffffffffffffffffffffffffffffffff168473ffffffffffffffffffffffffffffffffffffffff167fc3d58168c5ae7397731d063d5bbf3d657854427343f4c083240f7aacaa2d0f628585604051613938929190615014565b60405180910390a450506139c6565b8373ffffffffffffffffffffffffffffffffffffffff168573ffffffffffffffffffffffffffffffffffffffff168273ffffffffffffffffffffffffffffffffffffffff167f4a39dc06d4c0dbc64b70af90fd698a233a518aa5d07e595d983b8c0526c8f7fb86866040516139bd9291906157c3565b60405180910390a45b5050505050565b5f8473ffffffffffffffffffffffffffffffffffffffff163b1115613b74578373ffffffffffffffffffffffffffffffffffffffff1663f23a6e6187878686866040518663ffffffff1660e01b8152600401613a2d95949392919061584a565b6020604051808303815f875af1925050508015613a6857506040513d601f19601f82011682018060405250810190613a6591906158b6565b60015b613ae9573d805f8114613a96576040519150601f19603f3d011682016040523d82523d5f602084013e613a9b565b606091505b505f815103613ae157846040517f57f447ce000000000000000000000000000000000000000000000000000000008152600401613ad89190615062565b60405180910390fd5b805181602001fd5b63f23a6e6160e01b7bffffffffffffffffffffffffffffffffffffffffffffffffffffffff1916817bffffffffffffffffffffffffffffffffffffffffffffffffffffffff191614613b7257846040517f57f447ce000000000000000000000000000000000000000000000000000000008152600401613b699190615062565b60405180910390fd5b505b505050505050565b5f8473ffffffffffffffffffffffffffffffffffffffff163b1115613d23578373ffffffffffffffffffffffffffffffffffffffff1663bc197c8187878686866040518663ffffffff1660e01b8152600401613bdc9594939291906158e1565b6020604051808303815f875af1925050508015613c1757506040513d601f19601f82011682018060405250810190613c1491906158b6565b60015b613c98573d805f8114613c45576040519150601f19603f3d011682016040523d82523d5f602084013e613c4a565b606091505b505f815103613c9057846040517f57f447ce000000000000000000000000000000000000000000000000000000008152600401613c879190615062565b60405180910390fd5b805181602001fd5b63bc197c8160e01b7bffffffffffffffffffffffffffffffffffffffffffffffffffffffff1916817bffffffffffffffffffffffffffffffffffffffffffffffffffffffff191614613d2157846040517f57f447ce000000000000000000000000000000000000000000000000000000008152600401613d189190615062565b60405180910390fd5b505b505050505050565b5f7f01ffc9a7000000000000000000000000000000000000000000000000000000007bffffffffffffffffffffffffffffffffffffffffffffffffffffffff1916827bffffffffffffffffffffffffffffffffffffffffffffffffffffffff1916149050919050565b60405180608001604052805f73ffffffffffffffffffffffffffffffffffffffff1681526020015f6003811115613dce57613dcd614666565b5b81526020015f81526020015f81525090565b6040518060e001604052805f815260200160608152602001606081526020015f81526020015f81526020015f81526020015f73ffffffffffffffffffffffffffffffffffffffff1681525090565b5f604051905090565b5f80fd5b5f80fd5b5f73ffffffffffffffffffffffffffffffffffffffff82169050919050565b5f613e6882613e3f565b9050919050565b613e7881613e5e565b8114613e82575f80fd5b50565b5f81359050613e9381613e6f565b92915050565b5f819050919050565b613eab81613e99565b8114613eb5575f80fd5b50565b5f81359050613ec681613ea2565b92915050565b5f8060408385031215613ee257613ee1613e37565b5b5f613eef85828601613e85565b9250506020613f0085828601613eb8565b9150509250929050565b613f1381613e99565b82525050565b5f602082019050613f2c5f830184613f0a565b92915050565b5f7fffffffff0000000000000000000000000000000000000000000000000000000082169050919050565b613f6681613f32565b8114613f70575f80fd5b50565b5f81359050613f8181613f5d565b92915050565b5f60208284031215613f9c57613f9b613e37565b5b5f613fa984828501613f73565b91505092915050565b5f8115159050919050565b613fc681613fb2565b82525050565b5f602082019050613fdf5f830184613fbd565b92915050565b5f60208284031215613ffa57613ff9613e37565b5b5f61400784828501613eb8565b91505092915050565b5f81519050919050565b5f82825260208201905092915050565b5f5b8381101561404757808201518184015260208101905061402c565b5f8484015250505050565b5f601f19601f8301169050919050565b5f61406c82614010565b614076818561401a565b935061408681856020860161402a565b61408f81614052565b840191505092915050565b5f6020820190508181035f8301526140b28184614062565b905092915050565b5f80fd5b5f80fd5b7f4e487b71000000000000000000000000000000000000000000000000000000005f52604160045260245ffd5b6140f882614052565b810181811067ffffffffffffffff82111715614117576141166140c2565b5b80604052505050565b5f614129613e2e565b905061413582826140ef565b919050565b5f67ffffffffffffffff821115614154576141536140c2565b5b61415d82614052565b9050602081019050919050565b828183375f83830152505050565b5f61418a6141858461413a565b614120565b9050828152602081018484840111156141a6576141a56140be565b5b6141b184828561416a565b509392505050565b5f82601f8301126141cd576141cc6140ba565b5b81356141dd848260208601614178565b91505092915050565b5f805f80608085870312156141fe576141fd613e37565b5b5f85013567ffffffffffffffff81111561421b5761421a613e3b565b5b614227878288016141b9565b945050602085013567ffffffffffffffff81111561424857614247613e3b565b5b614254878288016141b9565b935050604061426587828801613eb8565b925050606061427687828801613eb8565b91505092959194509250565b5f819050919050565b61429481614282565b811461429e575f80fd5b50565b5f813590506142af8161428b565b92915050565b5f602082840312156142ca576142c9613e37565b5b5f6142d7848285016142a1565b91505092915050565b6142e981614282565b82525050565b5f6020820190506143025f8301846142e0565b92915050565b5f67ffffffffffffffff821115614322576143216140c2565b5b602082029050602081019050919050565b5f80fd5b5f61434961434484614308565b614120565b9050808382526020820190506020840283018581111561436c5761436b614333565b5b835b8181101561439557806143818882613eb8565b84526020840193505060208101905061436e565b5050509392505050565b5f82601f8301126143b3576143b26140ba565b5b81356143c3848260208601614337565b91505092915050565b5f67ffffffffffffffff8211156143e6576143e56140c2565b5b6143ef82614052565b9050602081019050919050565b5f61440e614409846143cc565b614120565b90508281526020810184848401111561442a576144296140be565b5b61443584828561416a565b509392505050565b5f82601f830112614451576144506140ba565b5b81356144618482602086016143fc565b91505092915050565b5f805f805f60a0868803121561448357614482613e37565b5b5f61449088828901613e85565b95505060206144a188828901613e85565b945050604086013567ffffffffffffffff8111156144c2576144c1613e3b565b5b6144ce8882890161439f565b935050606086013567ffffffffffffffff8111156144ef576144ee613e3b565b5b6144fb8882890161439f565b925050608086013567ffffffffffffffff81111561451c5761451b613e3b565b5b6145288882890161443d565b9150509295509295909350565b5f806040838503121561454b5761454a613e37565b5b5f614558858286016142a1565b925050602061456985828601613e85565b9150509250929050565b5f6020828403121561458857614587613e37565b5b5f61459584828501613e85565b91505092915050565b6145a781613e5e565b82525050565b5f60e0820190506145c05f83018a613f0a565b81810360208301526145d28189614062565b905081810360408301526145e68188614062565b90506145f56060830187613f0a565b6146026080830186613f0a565b61460f60a0830185613f0a565b61461c60c083018461459e565b98975050505050505050565b5f806040838503121561463e5761463d613e37565b5b5f61464b85828601613eb8565b925050602061465c85828601613eb8565b9150509250929050565b7f4e487b71000000000000000000000000000000000000000000000000000000005f52602160045260245ffd5b600481106146a4576146a3614666565b5b50565b5f8190506146b482614693565b919050565b5f6146c3826146a7565b9050919050565b6146d3816146b9565b82525050565b5f6080820190506146ec5f83018761459e565b6146f960208301866146ca565b6147066040830185613f0a565b6147136060830184613f0a565b95945050505050565b5f67ffffffffffffffff821115614736576147356140c2565b5b602082029050602081019050919050565b5f6147596147548461471c565b614120565b9050808382526020820190506020840283018581111561477c5761477b614333565b5b835b818110156147a557806147918882613e85565b84526020840193505060208101905061477e565b5050509392505050565b5f82601f8301126147c3576147c26140ba565b5b81356147d3848260208601614747565b91505092915050565b5f80604083850312156147f2576147f1613e37565b5b5f83013567ffffffffffffffff81111561480f5761480e613e3b565b5b61481b858286016147af565b925050602083013567ffffffffffffffff81111561483c5761483b613e3b565b5b6148488582860161439f565b9150509250929050565b5f81519050919050565b5f82825260208201905092915050565b5f819050602082019050919050565b61488481613e99565b82525050565b5f614895838361487b565b60208301905092915050565b5f602082019050919050565b5f6148b782614852565b6148c1818561485c565b93506148cc8361486c565b805f5b838110156148fc5781516148e3888261488a565b97506148ee836148a1565b9250506001810190506148cf565b5085935050505092915050565b5f6020820190508181035f83015261492181846148ad565b905092915050565b5f819050919050565b5f61494c61494761494284613e3f565b614929565b613e3f565b9050919050565b5f61495d82614932565b9050919050565b5f61496e82614953565b9050919050565b61497e81614964565b82525050565b5f6020820190506149975f830184614975565b92915050565b6149a681613fb2565b81146149b0575f80fd5b50565b5f813590506149c18161499d565b92915050565b5f805f606084860312156149de576149dd613e37565b5b5f6149eb86828701613eb8565b93505060206149fc86828701613eb8565b9250506040614a0d868287016149b3565b9150509250925092565b5f8060408385031215614a2d57614a2c613e37565b5b5f614a3a85828601613e85565b9250506020614a4b858286016149b3565b9150509250929050565b614a5e81613f32565b82525050565b5f602082019050614a775f830184614a55565b92915050565b614a8681613e5e565b82525050565b614a95816146b9565b82525050565b608082015f820151614aaf5f850182614a7d565b506020820151614ac26020850182614a8c565b506040820151614ad5604085018261487b565b506060820151614ae8606085018261487b565b50505050565b5f608082019050614b015f830184614a9b565b92915050565b5f8060408385031215614b1d57614b1c613e37565b5b5f614b2a85828601613e85565b9250506020614b3b85828601613e85565b9150509250929050565b5f82825260208201905092915050565b5f614b5f82614010565b614b698185614b45565b9350614b7981856020860161402a565b614b8281614052565b840191505092915050565b5f60e083015f830151614ba25f86018261487b565b5060208301518482036020860152614bba8282614b55565b91505060408301518482036040860152614bd48282614b55565b9150506060830151614be9606086018261487b565b506080830151614bfc608086018261487b565b5060a0830151614c0f60a086018261487b565b5060c0830151614c2260c0860182614a7d565b508091505092915050565b5f6020820190508181035f830152614c458184614b8d565b905092915050565b5f805f805f60a08688031215614c6657614c65613e37565b5b5f614c7388828901613e85565b9550506020614c8488828901613e85565b9450506040614c9588828901613eb8565b9350506060614ca688828901613eb8565b925050608086013567ffffffffffffffff811115614cc757614cc6613e3b565b5b614cd38882890161443d565b9150509295509295909350565b7f4e487b71000000000000000000000000000000000000000000000000000000005f52602260045260245ffd5b5f6002820490506001821680614d2457607f821691505b602082108103614d3757614d36614ce0565b5b50919050565b7f4e487b71000000000000000000000000000000000000000000000000000000005f52601160045260245ffd5b5f614d7482613e99565b91507fffffffffffffffffffffffffffffffffffffffffffffffffffffffffffffffff8203614da657614da5614d3d565b5b600182019050919050565b5f819050815f5260205f209050919050565b5f6020601f8301049050919050565b5f82821b905092915050565b5f60088302614e0d7fffffffffffffffffffffffffffffffffffffffffffffffffffffffffffffffff82614dd2565b614e178683614dd2565b95508019841693508086168417925050509392505050565b5f614e49614e44614e3f84613e99565b614929565b613e99565b9050919050565b5f819050919050565b614e6283614e2f565b614e76614e6e82614e50565b848454614dde565b825550505050565b5f90565b614e8a614e7e565b614e95818484614e59565b505050565b5b81811015614eb857614ead5f82614e82565b600181019050614e9b565b5050565b601f821115614efd57614ece81614db1565b614ed784614dc3565b81016020851015614ee6578190505b614efa614ef285614dc3565b830182614e9a565b50505b505050565b5f82821c905092915050565b5f614f1d5f1984600802614f02565b1980831691505092915050565b5f614f358383614f0e565b9150826002028217905092915050565b614f4e82614010565b67ffffffffffffffff811115614f6757614f666140c2565b5b614f718254614d0d565b614f7c828285614ebc565b5f60209050601f831160018114614fad575f8415614f9b578287015190505b614fa58582614f2a565b86555061500c565b601f198416614fbb86614db1565b5f5b82811015614fe257848901518255600182019150602085019450602081019050614fbd565b86831015614fff5784890151614ffb601f891682614f0e565b8355505b6001600288020188555050505b505050505050565b5f6040820190506150275f830185613f0a565b6150346020830184613f0a565b9392505050565b5f60408201905061504e5f83018561459e565b61505b602083018461459e565b9392505050565b5f6020820190506150755f83018461459e565b92915050565b7f4e487b71000000000000000000000000000000000000000000000000000000005f52603260045260245ffd5b7f537461626c65436f696e206e6f742073657400000000000000000000000000005f82015250565b5f6150dc60128361401a565b91506150e7826150a8565b602082019050919050565b5f6020820190508181035f830152615109816150d0565b9050919050565b5f6060820190506151235f83018661459e565b615130602083018561459e565b61513d6040830184613f0a565b949350505050565b5f815190506151538161499d565b92915050565b5f6020828403121561516e5761516d613e37565b5b5f61517b84828501615145565b91505092915050565b7f537461626c65436f696e207472616e73666572206661696c65640000000000005f82015250565b5f6151b8601a8361401a565b91506151c382615184565b602082019050919050565b5f6020820190508181035f8301526151e5816151ac565b9050919050565b5f6151f682613e99565b915061520183613e99565b925082820190508082111561521957615218614d3d565b5b92915050565b7f4f6e6c79206172746973742063616e20666f72636520636f6e6669726d0000005f82015250565b5f615253601d8361401a565b915061525e8261521f565b602082019050919050565b5f6020820190508181035f83015261528081615247565b9050919050565b7f496e76616c696420707572636861736520696e646578000000000000000000005f82015250565b5f6152bb60168361401a565b91506152c682615287565b602082019050919050565b5f6020820190508181035f8301526152e8816152af565b9050919050565b7f5075726368617365206e6f7420616374697665000000000000000000000000005f82015250565b5f61532360138361401a565b915061532e826152ef565b602082019050919050565b5f6020820190508181035f83015261535081615317565b9050919050565b7f54696d656f7574206e6f742072656163686564000000000000000000000000005f82015250565b5f61538b60138361401a565b915061539682615357565b602082019050919050565b5f6020820190508181035f8301526153b88161537f565b9050919050565b5f6040820190506153d25f83018561459e565b6153df6020830184613f0a565b9392505050565b7f526566756e64206661696c6564000000000000000000000000000000000000005f82015250565b5f61541a600d8361401a565b9150615425826153e6565b602082019050919050565b5f6020820190508181035f8301526154478161540e565b9050919050565b7f496e73756666696369656e74206465706f7369740000000000000000000000005f82015250565b5f61548260148361401a565b915061548d8261544e565b602082019050919050565b5f6020820190508181035f8301526154af81615476565b9050919050565b5f6154c082613e99565b91506154cb83613e99565b92508282039050818111156154e3576154e2614d3d565b5b92915050565b7f5075726368617365206e6f7420696e20646973707574650000000000000000005f82015250565b5f61551d60178361401a565b9150615528826154e9565b602082019050919050565b5f6020820190508181035f83015261554a81615511565b9050919050565b5f61555b82613e99565b915061556683613e99565b925082820261557481613e99565b9150828204841483151761558b5761558a614d3d565b5b5092915050565b5f6040820190506155a55f830185613f0a565b6155b26020830184613fbd565b9392505050565b7f43616c6c6572206973206e6f74207468652062757965720000000000000000005f82015250565b5f6155ed60178361401a565b91506155f8826155b9565b602082019050919050565b5f6020820190508181035f83015261561a816155e1565b9050919050565b7f416c6c204e465473206d696e74656400000000000000000000000000000000005f82015250565b5f615655600f8361401a565b915061566082615621565b602082019050919050565b5f6020820190508181035f83015261568281615649565b9050919050565b7f417274697374206465706f73697420696e73756666696369656e7400000000005f82015250565b5f6156bd601b8361401a565b91506156c882615689565b602082019050919050565b5f6020820190508181035f8301526156ea816156b1565b9050919050565b7f5265656e7472616e637947756172643a207265656e7472616e742063616c6c005f82015250565b5f615725601f8361401a565b9150615730826156f1565b602082019050919050565b5f6020820190508181035f83015261575281615719565b9050919050565b5f60408201905061576c5f83018561459e565b61577960208301846142e0565b9392505050565b5f6080820190506157935f83018761459e565b6157a06020830186613f0a565b6157ad6040830185613f0a565b6157ba6060830184613f0a565b95945050505050565b5f6040820190508181035f8301526157db81856148ad565b905081810360208301526157ef81846148ad565b90509392505050565b5f81519050919050565b5f82825260208201905092915050565b5f61581c826157f8565b6158268185615802565b935061583681856020860161402a565b61583f81614052565b840191505092915050565b5f60a08201905061585d5f83018861459e565b61586a602083018761459e565b6158776040830186613f0a565b6158846060830185613f0a565b81810360808301526158968184615812565b90509695505050505050565b5f815190506158b081613f5d565b92915050565b5f602082840312156158cb576158ca613e37565b5b5f6158d8848285016158a2565b91505092915050565b5f60a0820190506158f45f83018861459e565b615901602083018761459e565b818103604083015261591381866148ad565b9050818103606083015261592781856148ad565b9050818103608083015261593b8184615812565b9050969550505050505056fea2646970667358221220fa0874339a18471b5677356ac8997299d930aa382cfbe627ffef7b4c5985981f64736f6c63430008140033",
			"opcodes": "PUSH1 0x80 PUSH1 0x40 MSTORE CALLVALUE DUP1 ISZERO PUSH3 0x10 JUMPI PUSH0 DUP1 REVERT JUMPDEST POP PUSH1 0x40 MLOAD PUSH3 0x6063 CODESIZE SUB DUP1 PUSH3 0x6063 DUP4 CODECOPY DUP2 DUP2 ADD PUSH1 0x40 MSTORE DUP2 ADD SWAP1 PUSH3 0x36 SWAP2 SWAP1 PUSH3 0x36E JUMP JUMPDEST DUP1 PUSH3 0x48 DUP2 PUSH3 0x6D PUSH1 0x20 SHL PUSH1 0x20 SHR JUMP JUMPDEST POP PUSH1 0x1 PUSH1 0x4 DUP2 SWAP1 SSTORE POP PUSH3 0x65 PUSH0 DUP1 SHL CALLER PUSH3 0x82 PUSH1 0x20 SHL PUSH1 0x20 SHR JUMP JUMPDEST POP POP PUSH3 0x6D8 JUMP JUMPDEST DUP1 PUSH1 0x2 SWAP1 DUP2 PUSH3 0x7E SWAP2 SWAP1 PUSH3 0x5F4 JUMP JUMPDEST POP POP JUMP JUMPDEST PUSH0 PUSH3 0x95 DUP4 DUP4 PUSH3 0x17E PUSH1 0x20 SHL PUSH1 0x20 SHR JUMP JUMPDEST PUSH3 0x174 JUMPI PUSH1 0x1 PUSH1 0x3 PUSH0 DUP6 DUP2 MSTORE PUSH1 0x20 ADD SWAP1 DUP2 MSTORE PUSH1 0x20 ADD PUSH0 KECCAK256 PUSH0 ADD PUSH0 DUP5 PUSH20 0xFFFFFFFFFFFFFFFFFFFFFFFFFFFFFFFFFFFFFFFF AND PUSH20 0xFFFFFFFFFFFFFFFFFFFFFFFFFFFFFFFFFFFFFFFF AND DUP2 MSTORE PUSH1 0x20 ADD SWAP1 DUP2 MSTORE PUSH1 0x20 ADD PUSH0 KECCAK256 PUSH0 PUSH2 0x100 EXP DUP2 SLOAD DUP2 PUSH1 0xFF MUL NOT AND SWAP1 DUP4 ISZERO ISZERO MUL OR SWAP1 SSTORE POP PUSH3 0x110 PUSH3 0x1E2 PUSH1 0x20 SHL PUSH1 0x20 SHR JUMP JUMPDEST PUSH20 0xFFFFFFFFFFFFFFFFFFFFFFFFFFFFFFFFFFFFFFFF AND DUP3 PUSH20 0xFFFFFFFFFFFFFFFFFFFFFFFFFFFFFFFFFFFFFFFF AND DUP5 PUSH32 0x2F8788117E7EFF1D82E926EC794901D17C78024A50270940304540A733656F0D PUSH1 0x40 MLOAD PUSH1 0x40 MLOAD DUP1 SWAP2 SUB SWAP1 LOG4 PUSH1 0x1 SWAP1 POP PUSH3 0x178 JUMP JUMPDEST PUSH0 SWAP1 POP JUMPDEST SWAP3 SWAP2 POP POP JUMP JUMPDEST PUSH0 PUSH1 0x3 PUSH0 DUP5 DUP2 MSTORE PUSH1 0x20 ADD SWAP1 DUP2 MSTORE PUSH1 0x20 ADD PUSH0 KECCAK256 PUSH0 ADD PUSH0 DUP4 PUSH20 0xFFFFFFFFFFFFFFFFFFFFFFFFFFFFFFFFFFFFFFFF AND PUSH20 0xFFFFFFFFFFFFFFFFFFFFFFFFFFFFFFFFFFFFFFFF AND DUP2 MSTORE PUSH1 0x20 ADD SWAP1 DUP2 MSTORE PUSH1 0x20 ADD PUSH0 KECCAK256 PUSH0 SWAP1 SLOAD SWAP1 PUSH2 0x100 EXP SWAP1 DIV PUSH1 0xFF AND SWAP1 POP SWAP3 SWAP2 POP POP JUMP JUMPDEST PUSH0 CALLER SWAP1 POP SWAP1 JUMP JUMPDEST PUSH0 PUSH1 0x40 MLOAD SWAP1 POP SWAP1 JUMP JUMPDEST PUSH0 DUP1 REVERT JUMPDEST PUSH0 DUP1 REVERT JUMPDEST PUSH0 DUP1 REVERT JUMPDEST PUSH0 DUP1 REVERT JUMPDEST PUSH0 PUSH1 0x1F NOT PUSH1 0x1F DUP4 ADD AND SWAP1 POP SWAP2 SWAP1 POP JUMP JUMPDEST PUSH32 0x4E487B7100000000000000000000000000000000000000000000000000000000 PUSH0 MSTORE PUSH1 0x41 PUSH1 0x4 MSTORE PUSH1 0x24 PUSH0 REVERT JUMPDEST PUSH3 0x24A DUP3 PUSH3 0x202 JUMP JUMPDEST DUP2 ADD DUP2 DUP2 LT PUSH8 0xFFFFFFFFFFFFFFFF DUP3 GT OR ISZERO PUSH3 0x26C JUMPI PUSH3 0x26B PUSH3 0x212 JUMP JUMPDEST JUMPDEST DUP1 PUSH1 0x40 MSTORE POP POP POP JUMP JUMPDEST PUSH0 PUSH3 0x280 PUSH3 0x1E9 JUMP JUMPDEST SWAP1 POP PUSH3 0x28E DUP3 DUP3 PUSH3 0x23F JUMP JUMPDEST SWAP2 SWAP1 POP JUMP JUMPDEST PUSH0 PUSH8 0xFFFFFFFFFFFFFFFF DUP3 GT ISZERO PUSH3 0x2B0 JUMPI PUSH3 0x2AF PUSH3 0x212 JUMP JUMPDEST JUMPDEST PUSH3 0x2BB DUP3 PUSH3 0x202 JUMP JUMPDEST SWAP1 POP PUSH1 0x20 DUP2 ADD SWAP1 POP SWAP2 SWAP1 POP JUMP JUMPDEST PUSH0 JUMPDEST DUP4 DUP2 LT ISZERO PUSH3 0x2E7 JUMPI DUP1 DUP3 ADD MLOAD DUP2 DUP5 ADD MSTORE PUSH1 0x20 DUP2 ADD SWAP1 POP PUSH3 0x2CA JUMP JUMPDEST PUSH0 DUP5 DUP5 ADD MSTORE POP POP POP POP JUMP JUMPDEST PUSH0 PUSH3 0x308 PUSH3 0x302 DUP5 PUSH3 0x293 JUMP JUMPDEST PUSH3 0x275 JUMP JUMPDEST SWAP1 POP DUP3 DUP2 MSTORE PUSH1 0x20 DUP2 ADD DUP5 DUP5 DUP5 ADD GT ISZERO PUSH3 0x327 JUMPI PUSH3 0x326 PUSH3 0x1FE JUMP JUMPDEST JUMPDEST PUSH3 0x334 DUP5 DUP3 DUP6 PUSH3 0x2C8 JUMP JUMPDEST POP SWAP4 SWAP3 POP POP POP JUMP JUMPDEST PUSH0 DUP3 PUSH1 0x1F DUP4 ADD SLT PUSH3 0x353 JUMPI PUSH3 0x352 PUSH3 0x1FA JUMP JUMPDEST JUMPDEST DUP2 MLOAD PUSH3 0x365 DUP5 DUP3 PUSH1 0x20 DUP7 ADD PUSH3 0x2F2 JUMP JUMPDEST SWAP2 POP POP SWAP3 SWAP2 POP POP JUMP JUMPDEST PUSH0 PUSH1 0x20 DUP3 DUP5 SUB SLT ISZERO PUSH3 0x386 JUMPI PUSH3 0x385 PUSH3 0x1F2 JUMP JUMPDEST JUMPDEST PUSH0 DUP3 ADD MLOAD PUSH8 0xFFFFFFFFFFFFFFFF DUP2 GT ISZERO PUSH3 0x3A6 JUMPI PUSH3 0x3A5 PUSH3 0x1F6 JUMP JUMPDEST JUMPDEST PUSH3 0x3B4 DUP5 DUP3 DUP6 ADD PUSH3 0x33C JUMP JUMPDEST SWAP2 POP POP SWAP3 SWAP2 POP POP JUMP JUMPDEST PUSH0 DUP2 MLOAD SWAP1 POP SWAP2 SWAP1 POP JUMP JUMPDEST PUSH32 0x4E487B7100000000000000000000000000000000000000000000000000000000 PUSH0 MSTORE PUSH1 0x22 PUSH1 0x4 MSTORE PUSH1 0x24 PUSH0 REVERT JUMPDEST PUSH0 PUSH1 0x2 DUP3 DIV SWAP1 POP PUSH1 0x1 DUP3 AND DUP1 PUSH3 0x40C JUMPI PUSH1 0x7F DUP3 AND SWAP2 POP JUMPDEST PUSH1 0x20 DUP3 LT DUP2 SUB PUSH3 0x422 JUMPI PUSH3 0x421 PUSH3 0x3C7 JUMP JUMPDEST JUMPDEST POP SWAP2 SWAP1 POP JUMP JUMPDEST PUSH0 DUP2 SWAP1 POP DUP2 PUSH0 MSTORE PUSH1 0x20 PUSH0 KECCAK256 SWAP1 POP SWAP2 SWAP1 POP JUMP JUMPDEST PUSH0 PUSH1 0x20 PUSH1 0x1F DUP4 ADD DIV SWAP1 POP SWAP2 SWAP1 POP JUMP JUMPDEST PUSH0 DUP3 DUP3 SHL SWAP1 POP SWAP3 SWAP2 POP POP JUMP JUMPDEST PUSH0 PUSH1 0x8 DUP4 MUL PUSH3 0x486 PUSH32 0xFFFFFFFFFFFFFFFFFFFFFFFFFFFFFFFFFFFFFFFFFFFFFFFFFFFFFFFFFFFFFFFF DUP3 PUSH3 0x449 JUMP JUMPDEST PUSH3 0x492 DUP7 DUP4 PUSH3 0x449 JUMP JUMPDEST SWAP6 POP DUP1 NOT DUP5 AND SWAP4 POP DUP1 DUP7 AND DUP5 OR SWAP3 POP POP POP SWAP4 SWAP3 POP POP POP JUMP JUMPDEST PUSH0 DUP2 SWAP1 POP SWAP2 SWAP1 POP JUMP JUMPDEST PUSH0 DUP2 SWAP1 POP SWAP2 SWAP1 POP JUMP JUMPDEST PUSH0 PUSH3 0x4DC PUSH3 0x4D6 PUSH3 0x4D0 DUP5 PUSH3 0x4AA JUMP JUMPDEST PUSH3 0x4B3 JUMP JUMPDEST PUSH3 0x4AA JUMP JUMPDEST SWAP1 POP SWAP2 SWAP1 POP JUMP JUMPDEST PUSH0 DUP2 SWAP1 POP SWAP2 SWAP1 POP JUMP JUMPDEST PUSH3 0x4F7 DUP4 PUSH3 0x4BC JUMP JUMPDEST PUSH3 0x50F PUSH3 0x506 DUP3 PUSH3 0x4E3 JUMP JUMPDEST DUP5 DUP5 SLOAD PUSH3 0x455 JUMP JUMPDEST DUP3 SSTORE POP POP POP POP JUMP JUMPDEST PUSH0 SWAP1 JUMP JUMPDEST PUSH3 0x525 PUSH3 0x517 JUMP JUMPDEST PUSH3 0x532 DUP2 DUP5 DUP5 PUSH3 0x4EC JUMP JUMPDEST POP POP POP JUMP JUMPDEST JUMPDEST DUP2 DUP2 LT ISZERO PUSH3 0x559 JUMPI PUSH3 0x54D PUSH0 DUP3 PUSH3 0x51B JUMP JUMPDEST PUSH1 0x1 DUP2 ADD SWAP1 POP PUSH3 0x538 JUMP JUMPDEST POP POP JUMP JUMPDEST PUSH1 0x1F DUP3 GT ISZERO PUSH3 0x5A8 JUMPI PUSH3 0x572 DUP2 PUSH3 0x428 JUMP JUMPDEST PUSH3 0x57D DUP5 PUSH3 0x43A JUMP JUMPDEST DUP2 ADD PUSH1 0x20 DUP6 LT ISZERO PUSH3 0x58D JUMPI DUP2 SWAP1 POP JUMPDEST PUSH3 0x5A5 PUSH3 0x59C DUP6 PUSH3 0x43A JUMP JUMPDEST DUP4 ADD DUP3 PUSH3 0x537 JUMP JUMPDEST POP POP JUMPDEST POP POP POP JUMP JUMPDEST PUSH0 DUP3 DUP3 SHR SWAP1 POP SWAP3 SWAP2 POP POP JUMP JUMPDEST PUSH0 PUSH3 0x5CA PUSH0 NOT DUP5 PUSH1 0x8 MUL PUSH3 0x5AD JUMP JUMPDEST NOT DUP1 DUP4 AND SWAP2 POP POP SWAP3 SWAP2 POP POP JUMP JUMPDEST PUSH0 PUSH3 0x5E4 DUP4 DUP4 PUSH3 0x5B9 JUMP JUMPDEST SWAP2 POP DUP3 PUSH1 0x2 MUL DUP3 OR SWAP1 POP SWAP3 SWAP2 POP POP JUMP JUMPDEST PUSH3 0x5FF DUP3 PUSH3 0x3BD JUMP JUMPDEST PUSH8 0xFFFFFFFFFFFFFFFF DUP2 GT ISZERO PUSH3 0x61B JUMPI PUSH3 0x61A PUSH3 0x212 JUMP JUMPDEST JUMPDEST PUSH3 0x627 DUP3 SLOAD PUSH3 0x3F4 JUMP JUMPDEST PUSH3 0x634 DUP3 DUP3 DUP6 PUSH3 0x55D JUMP JUMPDEST PUSH0 PUSH1 0x20 SWAP1 POP PUSH1 0x1F DUP4 GT PUSH1 0x1 DUP2 EQ PUSH3 0x66A JUMPI PUSH0 DUP5 ISZERO PUSH3 0x655 JUMPI DUP3 DUP8 ADD MLOAD SWAP1 POP JUMPDEST PUSH3 0x661 DUP6 DUP3 PUSH3 0x5D7 JUMP JUMPDEST DUP7 SSTORE POP PUSH3 0x6D0 JUMP JUMPDEST PUSH1 0x1F NOT DUP5 AND PUSH3 0x67A DUP7 PUSH3 0x428 JUMP JUMPDEST PUSH0 JUMPDEST DUP3 DUP2 LT ISZERO PUSH3 0x6A3 JUMPI DUP5 DUP10 ADD MLOAD DUP3 SSTORE PUSH1 0x1 DUP3 ADD SWAP2 POP PUSH1 0x20 DUP6 ADD SWAP5 POP PUSH1 0x20 DUP2 ADD SWAP1 POP PUSH3 0x67C JUMP JUMPDEST DUP7 DUP4 LT ISZERO PUSH3 0x6C3 JUMPI DUP5 DUP10 ADD MLOAD PUSH3 0x6BF PUSH1 0x1F DUP10 AND DUP3 PUSH3 0x5B9 JUMP JUMPDEST DUP4 SSTORE POP JUMPDEST PUSH1 0x1 PUSH1 0x2 DUP9 MUL ADD DUP9 SSTORE POP POP POP JUMPDEST POP POP POP POP POP POP JUMP JUMPDEST PUSH2 0x597D DUP1 PUSH3 0x6E6 PUSH0 CODECOPY PUSH0 RETURN INVALID PUSH1 0x80 PUSH1 0x40 MSTORE CALLVALUE DUP1 ISZERO PUSH2 0xF JUMPI PUSH0 DUP1 REVERT JUMPDEST POP PUSH1 0x4 CALLDATASIZE LT PUSH2 0x203 JUMPI PUSH0 CALLDATALOAD PUSH1 0xE0 SHR DUP1 PUSH4 0x91D14854 GT PUSH2 0x118 JUMPI DUP1 PUSH4 0xB89571C7 GT PUSH2 0xAB JUMPI DUP1 PUSH4 0xE82F4062 GT PUSH2 0x7A JUMPI DUP1 PUSH4 0xE82F4062 EQ PUSH2 0x638 JUMPI DUP1 PUSH4 0xE985E9C5 EQ PUSH2 0x654 JUMPI DUP1 PUSH4 0xF1F201E8 EQ PUSH2 0x684 JUMPI DUP1 PUSH4 0xF23A6E61 EQ PUSH2 0x6B4 JUMPI DUP1 PUSH4 0xF242432A EQ PUSH2 0x6E4 JUMPI PUSH2 0x203 JUMP JUMPDEST DUP1 PUSH4 0xB89571C7 EQ PUSH2 0x5A0 JUMPI DUP1 PUSH4 0xBC197C81 EQ PUSH2 0x5BC JUMPI DUP1 PUSH4 0xD547741F EQ PUSH2 0x5EC JUMPI DUP1 PUSH4 0xDA47635D EQ PUSH2 0x608 JUMPI PUSH2 0x203 JUMP JUMPDEST DUP1 PUSH4 0xA217FDDF GT PUSH2 0xE7 JUMPI DUP1 PUSH4 0xA217FDDF EQ PUSH2 0x518 JUMPI DUP1 PUSH4 0xA22CB465 EQ PUSH2 0x536 JUMPI DUP1 PUSH4 0xA966A0DF EQ PUSH2 0x552 JUMPI DUP1 PUSH4 0xAC76E521 EQ PUSH2 0x570 JUMPI PUSH2 0x203 JUMP JUMPDEST DUP1 PUSH4 0x91D14854 EQ PUSH2 0x490 JUMPI DUP1 PUSH4 0x992642E5 EQ PUSH2 0x4C0 JUMPI DUP1 PUSH4 0x9CEA0787 EQ PUSH2 0x4DE JUMPI DUP1 PUSH4 0x9E56F275 EQ PUSH2 0x4FC JUMPI PUSH2 0x203 JUMP JUMPDEST DUP1 PUSH4 0x36568ABE GT PUSH2 0x19B JUMPI DUP1 PUSH4 0x4BC9DB85 GT PUSH2 0x16A JUMPI DUP1 PUSH4 0x4BC9DB85 EQ PUSH2 0x3D9 JUMPI DUP1 PUSH4 0x4E1273F4 EQ PUSH2 0x40C JUMPI DUP1 PUSH4 0x59F99C53 EQ PUSH2 0x43C JUMPI DUP1 PUSH4 0x7365E8EC EQ PUSH2 0x458 JUMPI DUP1 PUSH4 0x870E974E EQ PUSH2 0x474 JUMPI PUSH2 0x203 JUMP JUMPDEST DUP1 PUSH4 0x36568ABE EQ PUSH2 0x34D JUMPI DUP1 PUSH4 0x3A14AF65 EQ PUSH2 0x369 JUMPI DUP1 PUSH4 0x44879B3B EQ PUSH2 0x387 JUMPI DUP1 PUSH4 0x4B602673 EQ PUSH2 0x3A3 JUMPI PUSH2 0x203 JUMP JUMPDEST DUP1 PUSH4 0x237F1509 GT PUSH2 0x1D7 JUMPI DUP1 PUSH4 0x237F1509 EQ PUSH2 0x2B5 JUMPI DUP1 PUSH4 0x248A9CA3 EQ PUSH2 0x2E5 JUMPI DUP1 PUSH4 0x2EB2C2D6 EQ PUSH2 0x315 JUMPI DUP1 PUSH4 0x2F2FF15D EQ PUSH2 0x331 JUMPI PUSH2 0x203 JUMP JUMPDEST DUP1 PUSH3 0xFDD58E EQ PUSH2 0x207 JUMPI DUP1 PUSH4 0x1FFC9A7 EQ PUSH2 0x237 JUMPI DUP1 PUSH4 0xE89341C EQ PUSH2 0x267 JUMPI DUP1 PUSH4 0x18B6DCBC EQ PUSH2 0x297 JUMPI JUMPDEST PUSH0 DUP1 REVERT JUMPDEST PUSH2 0x221 PUSH1 0x4 DUP1 CALLDATASIZE SUB DUP2 ADD SWAP1 PUSH2 0x21C SWAP2 SWAP1 PUSH2 0x3ECC JUMP JUMPDEST PUSH2 0x700 JUMP JUMPDEST PUSH1 0x40 MLOAD PUSH2 0x22E SWAP2 SWAP1 PUSH2 0x3F19 JUMP JUMPDEST PUSH1 0x40 MLOAD DUP1 SWAP2 SUB SWAP1 RETURN JUMPDEST PUSH2 0x251 PUSH1 0x4 DUP1 CALLDATASIZE SUB DUP2 ADD SWAP1 PUSH2 0x24C SWAP2 SWAP1 PUSH2 0x3F87 JUMP JUMPDEST PUSH2 0x755 JUMP JUMPDEST PUSH1 0x40 MLOAD PUSH2 0x25E SWAP2 SWAP1 PUSH2 0x3FCC JUMP JUMPDEST PUSH1 0x40 MLOAD DUP1 SWAP2 SUB SWAP1 RETURN JUMPDEST PUSH2 0x281 PUSH1 0x4 DUP1 CALLDATASIZE SUB DUP2 ADD SWAP1 PUSH2 0x27C SWAP2 SWAP1 PUSH2 0x3FE5 JUMP JUMPDEST PUSH2 0x766 JUMP JUMPDEST PUSH1 0x40 MLOAD PUSH2 0x28E SWAP2 SWAP1 PUSH2 0x409A JUMP JUMPDEST PUSH1 0x40 MLOAD DUP1 SWAP2 SUB SWAP1 RETURN JUMPDEST PUSH2 0x29F PUSH2 0x7F8 JUMP JUMPDEST PUSH1 0x40 MLOAD PUSH2 0x2AC SWAP2 SWAP1 PUSH2 0x3F19 JUMP JUMPDEST PUSH1 0x40 MLOAD DUP1 SWAP2 SUB SWAP1 RETURN JUMPDEST PUSH2 0x2CF PUSH1 0x4 DUP1 CALLDATASIZE SUB DUP2 ADD SWAP1 PUSH2 0x2CA SWAP2 SWAP1 PUSH2 0x41E6 JUMP JUMPDEST PUSH2 0x7FE JUMP JUMPDEST PUSH1 0x40 MLOAD PUSH2 0x2DC SWAP2 SWAP1 PUSH2 0x3F19 JUMP JUMPDEST PUSH1 0x40 MLOAD DUP1 SWAP2 SUB SWAP1 RETURN JUMPDEST PUSH2 0x2FF PUSH1 0x4 DUP1 CALLDATASIZE SUB DUP2 ADD SWAP1 PUSH2 0x2FA SWAP2 SWAP1 PUSH2 0x42B5 JUMP JUMPDEST PUSH2 0x998 JUMP JUMPDEST PUSH1 0x40 MLOAD PUSH2 0x30C SWAP2 SWAP1 PUSH2 0x42EF JUMP JUMPDEST PUSH1 0x40 MLOAD DUP1 SWAP2 SUB SWAP1 RETURN JUMPDEST PUSH2 0x32F PUSH1 0x4 DUP1 CALLDATASIZE SUB DUP2 ADD SWAP1 PUSH2 0x32A SWAP2 SWAP1 PUSH2 0x446A JUMP JUMPDEST PUSH2 0x9B5 JUMP JUMPDEST STOP JUMPDEST PUSH2 0x34B PUSH1 0x4 DUP1 CALLDATASIZE SUB DUP2 ADD SWAP1 PUSH2 0x346 SWAP2 SWAP1 PUSH2 0x4535 JUMP JUMPDEST PUSH2 0xA5C JUMP JUMPDEST STOP JUMPDEST PUSH2 0x367 PUSH1 0x4 DUP1 CALLDATASIZE SUB DUP2 ADD SWAP1 PUSH2 0x362 SWAP2 SWAP1 PUSH2 0x4535 JUMP JUMPDEST PUSH2 0xA7E JUMP JUMPDEST STOP JUMPDEST PUSH2 0x371 PUSH2 0xAF9 JUMP JUMPDEST PUSH1 0x40 MLOAD PUSH2 0x37E SWAP2 SWAP1 PUSH2 0x3F19 JUMP JUMPDEST PUSH1 0x40 MLOAD DUP1 SWAP2 SUB SWAP1 RETURN JUMPDEST PUSH2 0x3A1 PUSH1 0x4 DUP1 CALLDATASIZE SUB DUP2 ADD SWAP1 PUSH2 0x39C SWAP2 SWAP1 PUSH2 0x4573 JUMP JUMPDEST PUSH2 0xAFF JUMP JUMPDEST STOP JUMPDEST PUSH2 0x3BD PUSH1 0x4 DUP1 CALLDATASIZE SUB DUP2 ADD SWAP1 PUSH2 0x3B8 SWAP2 SWAP1 PUSH2 0x3FE5 JUMP JUMPDEST PUSH2 0xB86 JUMP JUMPDEST PUSH1 0x40 MLOAD PUSH2 0x3D0 SWAP8 SWAP7 SWAP6 SWAP5 SWAP4 SWAP3 SWAP2 SWAP1 PUSH2 0x45AD JUMP JUMPDEST PUSH1 0x40 MLOAD DUP1 SWAP2 SUB SWAP1 RETURN JUMPDEST PUSH2 0x3F3 PUSH1 0x4 DUP1 CALLDATASIZE SUB DUP2 ADD SWAP1 PUSH2 0x3EE SWAP2 SWAP1 PUSH2 0x4628 JUMP JUMPDEST PUSH2 0xCEF JUMP JUMPDEST PUSH1 0x40 MLOAD PUSH2 0x403 SWAP5 SWAP4 SWAP3 SWAP2 SWAP1 PUSH2 0x46D9 JUMP JUMPDEST PUSH1 0x40 MLOAD DUP1 SWAP2 SUB SWAP1 RETURN JUMPDEST PUSH2 0x426 PUSH1 0x4 DUP1 CALLDATASIZE SUB DUP2 ADD SWAP1 PUSH2 0x421 SWAP2 SWAP1 PUSH2 0x47DC JUMP JUMPDEST PUSH2 0xD60 JUMP JUMPDEST PUSH1 0x40 MLOAD PUSH2 0x433 SWAP2 SWAP1 PUSH2 0x4909 JUMP JUMPDEST PUSH1 0x40 MLOAD DUP1 SWAP2 SUB SWAP1 RETURN JUMPDEST PUSH2 0x456 PUSH1 0x4 DUP1 CALLDATASIZE SUB DUP2 ADD SWAP1 PUSH2 0x451 SWAP2 SWAP1 PUSH2 0x3FE5 JUMP JUMPDEST PUSH2 0xE6D JUMP JUMPDEST STOP JUMPDEST PUSH2 0x472 PUSH1 0x4 DUP1 CALLDATASIZE SUB DUP2 ADD SWAP1 PUSH2 0x46D SWAP2 SWAP1 PUSH2 0x4628 JUMP JUMPDEST PUSH2 0x10B8 JUMP JUMPDEST STOP JUMPDEST PUSH2 0x48E PUSH1 0x4 DUP1 CALLDATASIZE SUB DUP2 ADD SWAP1 PUSH2 0x489 SWAP2 SWAP1 PUSH2 0x3FE5 JUMP JUMPDEST PUSH2 0x1584 JUMP JUMPDEST STOP JUMPDEST PUSH2 0x4AA PUSH1 0x4 DUP1 CALLDATASIZE SUB DUP2 ADD SWAP1 PUSH2 0x4A5 SWAP2 SWAP1 PUSH2 0x4535 JUMP JUMPDEST PUSH2 0x17BE JUMP JUMPDEST PUSH1 0x40 MLOAD PUSH2 0x4B7 SWAP2 SWAP1 PUSH2 0x3FCC JUMP JUMPDEST PUSH1 0x40 MLOAD DUP1 SWAP2 SUB SWAP1 RETURN JUMPDEST PUSH2 0x4C8 PUSH2 0x1822 JUMP JUMPDEST PUSH1 0x40 MLOAD PUSH2 0x4D5 SWAP2 SWAP1 PUSH2 0x4984 JUMP JUMPDEST PUSH1 0x40 MLOAD DUP1 SWAP2 SUB SWAP1 RETURN JUMPDEST PUSH2 0x4E6 PUSH2 0x1847 JUMP JUMPDEST PUSH1 0x40 MLOAD PUSH2 0x4F3 SWAP2 SWAP1 PUSH2 0x42EF JUMP JUMPDEST PUSH1 0x40 MLOAD DUP1 SWAP2 SUB SWAP1 RETURN JUMPDEST PUSH2 0x516 PUSH1 0x4 DUP1 CALLDATASIZE SUB DUP2 ADD SWAP1 PUSH2 0x511 SWAP2 SWAP1 PUSH2 0x49C7 JUMP JUMPDEST PUSH2 0x186B JUMP JUMPDEST STOP JUMPDEST PUSH2 0x520 PUSH2 0x1E60 JUMP JUMPDEST PUSH1 0x40 MLOAD PUSH2 0x52D SWAP2 SWAP1 PUSH2 0x42EF JUMP JUMPDEST PUSH1 0x40 MLOAD DUP1 SWAP2 SUB SWAP1 RETURN JUMPDEST PUSH2 0x550 PUSH1 0x4 DUP1 CALLDATASIZE SUB DUP2 ADD SWAP1 PUSH2 0x54B SWAP2 SWAP1 PUSH2 0x4A17 JUMP JUMPDEST PUSH2 0x1E66 JUMP JUMPDEST STOP JUMPDEST PUSH2 0x55A PUSH2 0x1E7C JUMP JUMPDEST PUSH1 0x40 MLOAD PUSH2 0x567 SWAP2 SWAP1 PUSH2 0x42EF JUMP JUMPDEST PUSH1 0x40 MLOAD DUP1 SWAP2 SUB SWAP1 RETURN JUMPDEST PUSH2 0x58A PUSH1 0x4 DUP1 CALLDATASIZE SUB DUP2 ADD SWAP1 PUSH2 0x585 SWAP2 SWAP1 PUSH2 0x4573 JUMP JUMPDEST PUSH2 0x1EA0 JUMP JUMPDEST PUSH1 0x40 MLOAD PUSH2 0x597 SWAP2 SWAP1 PUSH2 0x3F19 JUMP JUMPDEST PUSH1 0x40 MLOAD DUP1 SWAP2 SUB SWAP1 RETURN JUMPDEST PUSH2 0x5BA PUSH1 0x4 DUP1 CALLDATASIZE SUB DUP2 ADD SWAP1 PUSH2 0x5B5 SWAP2 SWAP1 PUSH2 0x49C7 JUMP JUMPDEST PUSH2 0x1EB5 JUMP JUMPDEST STOP JUMPDEST PUSH2 0x5D6 PUSH1 0x4 DUP1 CALLDATASIZE SUB DUP2 ADD SWAP1 PUSH2 0x5D1 SWAP2 SWAP1 PUSH2 0x446A JUMP JUMPDEST PUSH2 0x2372 JUMP JUMPDEST PUSH1 0x40 MLOAD PUSH2 0x5E3 SWAP2 SWAP1 PUSH2 0x4A64 JUMP JUMPDEST PUSH1 0x40 MLOAD DUP1 SWAP2 SUB SWAP1 RETURN JUMPDEST PUSH2 0x606 PUSH1 0x4 DUP1 CALLDATASIZE SUB DUP2 ADD SWAP1 PUSH2 0x601 SWAP2 SWAP1 PUSH2 0x4535 JUMP JUMPDEST PUSH2 0x2386 JUMP JUMPDEST STOP JUMPDEST PUSH2 0x622 PUSH1 0x4 DUP1 CALLDATASIZE SUB DUP2 ADD SWAP1 PUSH2 0x61D SWAP2 SWAP1 PUSH2 0x4628 JUMP JUMPDEST PUSH2 0x23A8 JUMP JUMPDEST PUSH1 0x40 MLOAD PUSH2 0x62F SWAP2 SWAP1 PUSH2 0x4AEE JUMP JUMPDEST PUSH1 0x40 MLOAD DUP1 SWAP2 SUB SWAP1 RETURN JUMPDEST PUSH2 0x652 PUSH1 0x4 DUP1 CALLDATASIZE SUB DUP2 ADD SWAP1 PUSH2 0x64D SWAP2 SWAP1 PUSH2 0x3FE5 JUMP JUMPDEST PUSH2 0x24EA JUMP JUMPDEST STOP JUMPDEST PUSH2 0x66E PUSH1 0x4 DUP1 CALLDATASIZE SUB DUP2 ADD SWAP1 PUSH2 0x669 SWAP2 SWAP1 PUSH2 0x4B07 JUMP JUMPDEST PUSH2 0x291F JUMP JUMPDEST PUSH1 0x40 MLOAD PUSH2 0x67B SWAP2 SWAP1 PUSH2 0x3FCC JUMP JUMPDEST PUSH1 0x40 MLOAD DUP1 SWAP2 SUB SWAP1 RETURN JUMPDEST PUSH2 0x69E PUSH1 0x4 DUP1 CALLDATASIZE SUB DUP2 ADD SWAP1 PUSH2 0x699 SWAP2 SWAP1 PUSH2 0x3FE5 JUMP JUMPDEST PUSH2 0x29AD JUMP JUMPDEST PUSH1 0x40 MLOAD PUSH2 0x6AB SWAP2 SWAP1 PUSH2 0x4C2D JUMP JUMPDEST PUSH1 0x40 MLOAD DUP1 SWAP2 SUB SWAP1 RETURN JUMPDEST PUSH2 0x6CE PUSH1 0x4 DUP1 CALLDATASIZE SUB DUP2 ADD SWAP1 PUSH2 0x6C9 SWAP2 SWAP1 PUSH2 0x4C4D JUMP JUMPDEST PUSH2 0x2B74 JUMP JUMPDEST PUSH1 0x40 MLOAD PUSH2 0x6DB SWAP2 SWAP1 PUSH2 0x4A64 JUMP JUMPDEST PUSH1 0x40 MLOAD DUP1 SWAP2 SUB SWAP1 RETURN JUMPDEST PUSH2 0x6FE PUSH1 0x4 DUP1 CALLDATASIZE SUB DUP2 ADD SWAP1 PUSH2 0x6F9 SWAP2 SWAP1 PUSH2 0x4C4D JUMP JUMPDEST PUSH2 0x2B88 JUMP JUMPDEST STOP JUMPDEST PUSH0 DUP1 PUSH0 DUP4 DUP2 MSTORE PUSH1 0x20 ADD SWAP1 DUP2 MSTORE PUSH1 0x20 ADD PUSH0 KECCAK256 PUSH0 DUP5 PUSH20 0xFFFFFFFFFFFFFFFFFFFFFFFFFFFFFFFFFFFFFFFF AND PUSH20 0xFFFFFFFFFFFFFFFFFFFFFFFFFFFFFFFFFFFFFFFF AND DUP2 MSTORE PUSH1 0x20 ADD SWAP1 DUP2 MSTORE PUSH1 0x20 ADD PUSH0 KECCAK256 SLOAD SWAP1 POP SWAP3 SWAP2 POP POP JUMP JUMPDEST PUSH0 PUSH2 0x75F DUP3 PUSH2 0x2C2F JUMP JUMPDEST SWAP1 POP SWAP2 SWAP1 POP JUMP JUMPDEST PUSH1 0x60 PUSH1 0x2 DUP1 SLOAD PUSH2 0x775 SWAP1 PUSH2 0x4D0D JUMP JUMPDEST DUP1 PUSH1 0x1F ADD PUSH1 0x20 DUP1 SWAP2 DIV MUL PUSH1 0x20 ADD PUSH1 0x40 MLOAD SWAP1 DUP2 ADD PUSH1 0x40 MSTORE DUP1 SWAP3 SWAP2 SWAP1 DUP2 DUP2 MSTORE PUSH1 0x20 ADD DUP3 DUP1 SLOAD PUSH2 0x7A1 SWAP1 PUSH2 0x4D0D JUMP JUMPDEST DUP1 ISZERO PUSH2 0x7EC JUMPI DUP1 PUSH1 0x1F LT PUSH2 0x7C3 JUMPI PUSH2 0x100 DUP1 DUP4 SLOAD DIV MUL DUP4 MSTORE SWAP2 PUSH1 0x20 ADD SWAP2 PUSH2 0x7EC JUMP JUMPDEST DUP3 ADD SWAP2 SWAP1 PUSH0 MSTORE PUSH1 0x20 PUSH0 KECCAK256 SWAP1 JUMPDEST DUP2 SLOAD DUP2 MSTORE SWAP1 PUSH1 0x1 ADD SWAP1 PUSH1 0x20 ADD DUP1 DUP4 GT PUSH2 0x7CF JUMPI DUP3 SWAP1 SUB PUSH1 0x1F AND DUP3 ADD SWAP2 JUMPDEST POP POP POP POP POP SWAP1 POP SWAP2 SWAP1 POP JUMP JUMPDEST PUSH1 0x5 SLOAD DUP2 JUMP JUMPDEST PUSH0 PUSH32 0x877A78DC988C0EC5F58453B44888A55EB39755C3D5ED8D8EA990912AA3EF29C6 PUSH2 0x829 DUP2 PUSH2 0x2CA8 JUMP JUMPDEST PUSH1 0x5 PUSH0 DUP2 SLOAD DUP1 SWAP3 SWAP2 SWAP1 PUSH2 0x83B SWAP1 PUSH2 0x4D6A JUMP JUMPDEST SWAP2 SWAP1 POP SSTORE POP PUSH0 PUSH1 0x5 SLOAD SWAP1 POP PUSH1 0x40 MLOAD DUP1 PUSH1 0xE0 ADD PUSH1 0x40 MSTORE DUP1 DUP3 DUP2 MSTORE PUSH1 0x20 ADD DUP9 DUP2 MSTORE PUSH1 0x20 ADD DUP8 DUP2 MSTORE PUSH1 0x20 ADD DUP7 DUP2 MSTORE PUSH1 0x20 ADD PUSH0 DUP2 MSTORE PUSH1 0x20 ADD DUP6 DUP2 MSTORE PUSH1 0x20 ADD CALLER PUSH20 0xFFFFFFFFFFFFFFFFFFFFFFFFFFFFFFFFFFFFFFFF AND DUP2 MSTORE POP PUSH1 0x7 PUSH0 DUP4 DUP2 MSTORE PUSH1 0x20 ADD SWAP1 DUP2 MSTORE PUSH1 0x20 ADD PUSH0 KECCAK256 PUSH0 DUP3 ADD MLOAD DUP2 PUSH0 ADD SSTORE PUSH1 0x20 DUP3 ADD MLOAD DUP2 PUSH1 0x1 ADD SWAP1 DUP2 PUSH2 0x8BD SWAP2 SWAP1 PUSH2 0x4F45 JUMP JUMPDEST POP PUSH1 0x40 DUP3 ADD MLOAD DUP2 PUSH1 0x2 ADD SWAP1 DUP2 PUSH2 0x8D3 SWAP2 SWAP1 PUSH2 0x4F45 JUMP JUMPDEST POP PUSH1 0x60 DUP3 ADD MLOAD DUP2 PUSH1 0x3 ADD SSTORE PUSH1 0x80 DUP3 ADD MLOAD DUP2 PUSH1 0x4 ADD SSTORE PUSH1 0xA0 DUP3 ADD MLOAD DUP2 PUSH1 0x5 ADD SSTORE PUSH1 0xC0 DUP3 ADD MLOAD DUP2 PUSH1 0x6 ADD PUSH0 PUSH2 0x100 EXP DUP2 SLOAD DUP2 PUSH20 0xFFFFFFFFFFFFFFFFFFFFFFFFFFFFFFFFFFFFFFFF MUL NOT AND SWAP1 DUP4 PUSH20 0xFFFFFFFFFFFFFFFFFFFFFFFFFFFFFFFFFFFFFFFF AND MUL OR SWAP1 SSTORE POP SWAP1 POP POP CALLER PUSH20 0xFFFFFFFFFFFFFFFFFFFFFFFFFFFFFFFFFFFFFFFF AND DUP2 PUSH31 0xF3538CB5ABE2E9BC54F73939E4D165FCE3752D27FE21A5E88B2A9F6DA20C63 DUP7 DUP9 PUSH1 0x40 MLOAD PUSH2 0x983 SWAP3 SWAP2 SWAP1 PUSH2 0x5014 JUMP JUMPDEST PUSH1 0x40 MLOAD DUP1 SWAP2 SUB SWAP1 LOG3 DUP1 SWAP3 POP POP POP SWAP5 SWAP4 POP POP POP POP JUMP JUMPDEST PUSH0 PUSH1 0x3 PUSH0 DUP4 DUP2 MSTORE PUSH1 0x20 ADD SWAP1 DUP2 MSTORE PUSH1 0x20 ADD PUSH0 KECCAK256 PUSH1 0x1 ADD SLOAD SWAP1 POP SWAP2 SWAP1 POP JUMP JUMPDEST PUSH0 PUSH2 0x9BE PUSH2 0x2CBC JUMP JUMPDEST SWAP1 POP DUP1 PUSH20 0xFFFFFFFFFFFFFFFFFFFFFFFFFFFFFFFFFFFFFFFF AND DUP7 PUSH20 0xFFFFFFFFFFFFFFFFFFFFFFFFFFFFFFFFFFFFFFFF AND EQ ISZERO DUP1 ISZERO PUSH2 0xA03 JUMPI POP PUSH2 0xA01 DUP7 DUP3 PUSH2 0x291F JUMP JUMPDEST ISZERO JUMPDEST ISZERO PUSH2 0xA47 JUMPI DUP1 DUP7 PUSH1 0x40 MLOAD PUSH32 0xE237D92200000000000000000000000000000000000000000000000000000000 DUP2 MSTORE PUSH1 0x4 ADD PUSH2 0xA3E SWAP3 SWAP2 SWAP1 PUSH2 0x503B JUMP JUMPDEST PUSH1 0x40 MLOAD DUP1 SWAP2 SUB SWAP1 REVERT JUMPDEST PUSH2 0xA54 DUP7 DUP7 DUP7 DUP7 DUP7 PUSH2 0x2CC3 JUMP JUMPDEST POP POP POP POP POP POP JUMP JUMPDEST PUSH2 0xA65 DUP3 PUSH2 0x998 JUMP JUMPDEST PUSH2 0xA6E DUP2 PUSH2 0x2CA8 JUMP JUMPDEST PUSH2 0xA78 DUP4 DUP4 PUSH2 0x2DB7 JUMP JUMPDEST POP POP POP POP JUMP JUMPDEST PUSH2 0xA86 PUSH2 0x2CBC JUMP JUMPDEST PUSH20 0xFFFFFFFFFFFFFFFFFFFFFFFFFFFFFFFFFFFFFFFF AND DUP2 PUSH20 0xFFFFFFFFFFFFFFFFFFFFFFFFFFFFFFFFFFFFFFFF AND EQ PUSH2 0xAEA JUMPI PUSH1 0x40 MLOAD PUSH32 0x6697B23200000000000000000000000000000000000000000000000000000000 DUP2 MSTORE PUSH1 0x4 ADD PUSH1 0x40 MLOAD DUP1 SWAP2 SUB SWAP1 REVERT JUMPDEST PUSH2 0xAF4 DUP3 DUP3 PUSH2 0x2EA1 JUMP JUMPDEST POP POP POP JUMP JUMPDEST PUSH2 0x258 DUP2 JUMP JUMPDEST PUSH0 DUP1 SHL PUSH2 0xB0B DUP2 PUSH2 0x2CA8 JUMP JUMPDEST DUP2 PUSH1 0x6 PUSH0 PUSH2 0x100 EXP DUP2 SLOAD DUP2 PUSH20 0xFFFFFFFFFFFFFFFFFFFFFFFFFFFFFFFFFFFFFFFF MUL NOT AND SWAP1 DUP4 PUSH20 0xFFFFFFFFFFFFFFFFFFFFFFFFFFFFFFFFFFFFFFFF AND MUL OR SWAP1 SSTORE POP PUSH32 0x8B3E443D01C14C05684786A0273FDB48381417285BD830B7E71354D3CE601666 DUP3 PUSH1 0x40 MLOAD PUSH2 0xB7A SWAP2 SWAP1 PUSH2 0x5062 JUMP JUMPDEST PUSH1 0x40 MLOAD DUP1 SWAP2 SUB SWAP1 LOG1 POP POP JUMP JUMPDEST PUSH1 0x7 PUSH1 0x20 MSTORE DUP1 PUSH0 MSTORE PUSH1 0x40 PUSH0 KECCAK256 PUSH0 SWAP2 POP SWAP1 POP DUP1 PUSH0 ADD SLOAD SWAP1 DUP1 PUSH1 0x1 ADD DUP1 SLOAD PUSH2 0xBAB SWAP1 PUSH2 0x4D0D JUMP JUMPDEST DUP1 PUSH1 0x1F ADD PUSH1 0x20 DUP1 SWAP2 DIV MUL PUSH1 0x20 ADD PUSH1 0x40 MLOAD SWAP1 DUP2 ADD PUSH1 0x40 MSTORE DUP1 SWAP3 SWAP2 SWAP1 DUP2 DUP2 MSTORE PUSH1 0x20 ADD DUP3 DUP1 SLOAD PUSH2 0xBD7 SWAP1 PUSH2 0x4D0D JUMP JUMPDEST DUP1 ISZERO PUSH2 0xC22 JUMPI DUP1 PUSH1 0x1F LT PUSH2 0xBF9 JUMPI PUSH2 0x100 DUP1 DUP4 SLOAD DIV MUL DUP4 MSTORE SWAP2 PUSH1 0x20 ADD SWAP2 PUSH2 0xC22 JUMP JUMPDEST DUP3 ADD SWAP2 SWAP1 PUSH0 MSTORE PUSH1 0x20 PUSH0 KECCAK256 SWAP1 JUMPDEST DUP2 SLOAD DUP2 MSTORE SWAP1 PUSH1 0x1 ADD SWAP1 PUSH1 0x20 ADD DUP1 DUP4 GT PUSH2 0xC05 JUMPI DUP3 SWAP1 SUB PUSH1 0x1F AND DUP3 ADD SWAP2 JUMPDEST POP POP POP POP POP SWAP1 DUP1 PUSH1 0x2 ADD DUP1 SLOAD PUSH2 0xC37 SWAP1 PUSH2 0x4D0D JUMP JUMPDEST DUP1 PUSH1 0x1F ADD PUSH1 0x20 DUP1 SWAP2 DIV MUL PUSH1 0x20 ADD PUSH1 0x40 MLOAD SWAP1 DUP2 ADD PUSH1 0x40 MSTORE DUP1 SWAP3 SWAP2 SWAP1 DUP2 DUP2 MSTORE PUSH1 0x20 ADD DUP3 DUP1 SLOAD PUSH2 0xC63 SWAP1 PUSH2 0x4D0D JUMP JUMPDEST DUP1 ISZERO PUSH2 0xCAE JUMPI DUP1 PUSH1 0x1F LT PUSH2 0xC85 JUMPI PUSH2 0x100 DUP1 DUP4 SLOAD DIV MUL DUP4 MSTORE SWAP2 PUSH1 0x20 ADD SWAP2 PUSH2 0xCAE JUMP JUMPDEST DUP3 ADD SWAP2 SWAP1 PUSH0 MSTORE PUSH1 0x20 PUSH0 KECCAK256 SWAP1 JUMPDEST DUP2 SLOAD DUP2 MSTORE SWAP1 PUSH1 0x1 ADD SWAP1 PUSH1 0x20 ADD DUP1 DUP4 GT PUSH2 0xC91 JUMPI DUP3 SWAP1 SUB PUSH1 0x1F AND DUP3 ADD SWAP2 JUMPDEST POP POP POP POP POP SWAP1 DUP1 PUSH1 0x3 ADD SLOAD SWAP1 DUP1 PUSH1 0x4 ADD SLOAD SWAP1 DUP1 PUSH1 0x5 ADD SLOAD SWAP1 DUP1 PUSH1 0x6 ADD PUSH0 SWAP1 SLOAD SWAP1 PUSH2 0x100 EXP SWAP1 DIV PUSH20 0xFFFFFFFFFFFFFFFFFFFFFFFFFFFFFFFFFFFFFFFF AND SWAP1 POP DUP8 JUMP JUMPDEST PUSH1 0x8 PUSH1 0x20 MSTORE DUP2 PUSH0 MSTORE PUSH1 0x40 PUSH0 KECCAK256 DUP2 DUP2 SLOAD DUP2 LT PUSH2 0xD08 JUMPI PUSH0 DUP1 REVERT JUMPDEST SWAP1 PUSH0 MSTORE PUSH1 0x20 PUSH0 KECCAK256 SWAP1 PUSH1 0x3 MUL ADD PUSH0 SWAP2 POP SWAP2 POP POP DUP1 PUSH0 ADD PUSH0 SWAP1 SLOAD SWAP1 PUSH2 0x100 EXP SWAP1 DIV PUSH20 0xFFFFFFFFFFFFFFFFFFFFFFFFFFFFFFFFFFFFFFFF AND SWAP1 DUP1 PUSH0 ADD PUSH1 0x14 SWAP1 SLOAD SWAP1 PUSH2 0x100 EXP SWAP1 DIV PUSH1 0xFF AND SWAP1 DUP1 PUSH1 0x1 ADD SLOAD SWAP1 DUP1 PUSH1 0x2 ADD SLOAD SWAP1 POP DUP5 JUMP JUMPDEST PUSH1 0x60 DUP2 MLOAD DUP4 MLOAD EQ PUSH2 0xDAC JUMPI DUP2 MLOAD DUP4 MLOAD PUSH1 0x40 MLOAD PUSH32 0x5B05999100000000000000000000000000000000000000000000000000000000 DUP2 MSTORE PUSH1 0x4 ADD PUSH2 0xDA3 SWAP3 SWAP2 SWAP1 PUSH2 0x5014 JUMP JUMPDEST PUSH1 0x40 MLOAD DUP1 SWAP2 SUB SWAP1 REVERT JUMPDEST PUSH0 DUP4 MLOAD PUSH8 0xFFFFFFFFFFFFFFFF DUP2 GT ISZERO PUSH2 0xDC8 JUMPI PUSH2 0xDC7 PUSH2 0x40C2 JUMP JUMPDEST JUMPDEST PUSH1 0x40 MLOAD SWAP1 DUP1 DUP3 MSTORE DUP1 PUSH1 0x20 MUL PUSH1 0x20 ADD DUP3 ADD PUSH1 0x40 MSTORE DUP1 ISZERO PUSH2 0xDF6 JUMPI DUP2 PUSH1 0x20 ADD PUSH1 0x20 DUP3 MUL DUP1 CALLDATASIZE DUP4 CALLDATACOPY DUP1 DUP3 ADD SWAP2 POP POP SWAP1 POP JUMPDEST POP SWAP1 POP PUSH0 JUMPDEST DUP5 MLOAD DUP2 LT ISZERO PUSH2 0xE62 JUMPI PUSH2 0xE32 PUSH2 0xE1A DUP3 DUP8 PUSH2 0x2F8B SWAP1 SWAP2 SWAP1 PUSH4 0xFFFFFFFF AND JUMP JUMPDEST PUSH2 0xE2D DUP4 DUP8 PUSH2 0x2F9E SWAP1 SWAP2 SWAP1 PUSH4 0xFFFFFFFF AND JUMP JUMPDEST PUSH2 0x700 JUMP JUMPDEST DUP3 DUP3 DUP2 MLOAD DUP2 LT PUSH2 0xE45 JUMPI PUSH2 0xE44 PUSH2 0x507B JUMP JUMPDEST JUMPDEST PUSH1 0x20 MUL PUSH1 0x20 ADD ADD DUP2 DUP2 MSTORE POP POP DUP1 PUSH2 0xE5B SWAP1 PUSH2 0x4D6A JUMP JUMPDEST SWAP1 POP PUSH2 0xDFB JUMP JUMPDEST POP DUP1 SWAP2 POP POP SWAP3 SWAP2 POP POP JUMP JUMPDEST PUSH2 0xE75 PUSH2 0x2FB1 JUMP JUMPDEST PUSH32 0x877A78DC988C0EC5F58453B44888A55EB39755C3D5ED8D8EA990912AA3EF29C6 PUSH2 0xE9F DUP2 PUSH2 0x2CA8 JUMP JUMPDEST PUSH0 PUSH20 0xFFFFFFFFFFFFFFFFFFFFFFFFFFFFFFFFFFFFFFFF AND PUSH1 0x6 PUSH0 SWAP1 SLOAD SWAP1 PUSH2 0x100 EXP SWAP1 DIV PUSH20 0xFFFFFFFFFFFFFFFFFFFFFFFFFFFFFFFFFFFFFFFF AND PUSH20 0xFFFFFFFFFFFFFFFFFFFFFFFFFFFFFFFFFFFFFFFF AND SUB PUSH2 0xF2E JUMPI PUSH1 0x40 MLOAD PUSH32 0x8C379A000000000000000000000000000000000000000000000000000000000 DUP2 MSTORE PUSH1 0x4 ADD PUSH2 0xF25 SWAP1 PUSH2 0x50F2 JUMP JUMPDEST PUSH1 0x40 MLOAD DUP1 SWAP2 SUB SWAP1 REVERT JUMPDEST PUSH1 0x6 PUSH0 SWAP1 SLOAD SWAP1 PUSH2 0x100 EXP SWAP1 DIV PUSH20 0xFFFFFFFFFFFFFFFFFFFFFFFFFFFFFFFFFFFFFFFF AND PUSH20 0xFFFFFFFFFFFFFFFFFFFFFFFFFFFFFFFFFFFFFFFF AND PUSH4 0x23B872DD CALLER ADDRESS DUP6 PUSH1 0x40 MLOAD DUP5 PUSH4 0xFFFFFFFF AND PUSH1 0xE0 SHL DUP2 MSTORE PUSH1 0x4 ADD PUSH2 0xF8C SWAP4 SWAP3 SWAP2 SWAP1 PUSH2 0x5110 JUMP JUMPDEST PUSH1 0x20 PUSH1 0x40 MLOAD DUP1 DUP4 SUB DUP2 PUSH0 DUP8 GAS CALL ISZERO DUP1 ISZERO PUSH2 0xFA8 JUMPI RETURNDATASIZE PUSH0 DUP1 RETURNDATACOPY RETURNDATASIZE PUSH0 REVERT JUMPDEST POP POP POP POP PUSH1 0x40 MLOAD RETURNDATASIZE PUSH1 0x1F NOT PUSH1 0x1F DUP3 ADD AND DUP3 ADD DUP1 PUSH1 0x40 MSTORE POP DUP2 ADD SWAP1 PUSH2 0xFCC SWAP2 SWAP1 PUSH2 0x5159 JUMP JUMPDEST PUSH2 0x100B JUMPI PUSH1 0x40 MLOAD PUSH32 0x8C379A000000000000000000000000000000000000000000000000000000000 DUP2 MSTORE PUSH1 0x4 ADD PUSH2 0x1002 SWAP1 PUSH2 0x51CE JUMP JUMPDEST PUSH1 0x40 MLOAD DUP1 SWAP2 SUB SWAP1 REVERT JUMPDEST DUP2 PUSH1 0x9 PUSH0 CALLER PUSH20 0xFFFFFFFFFFFFFFFFFFFFFFFFFFFFFFFFFFFFFFFF AND PUSH20 0xFFFFFFFFFFFFFFFFFFFFFFFFFFFFFFFFFFFFFFFF AND DUP2 MSTORE PUSH1 0x20 ADD SWAP1 DUP2 MSTORE PUSH1 0x20 ADD PUSH0 KECCAK256 PUSH0 DUP3 DUP3 SLOAD PUSH2 0x1057 SWAP2 SWAP1 PUSH2 0x51EC JUMP JUMPDEST SWAP3 POP POP DUP2 SWAP1 SSTORE POP CALLER PUSH20 0xFFFFFFFFFFFFFFFFFFFFFFFFFFFFFFFFFFFFFFFF AND PUSH32 0x53AFA103A6C0B67688F65D816C5869E8A5BC46BD37AAE6408EC773E45E2C3AA8 DUP4 PUSH1 0x40 MLOAD PUSH2 0x10A4 SWAP2 SWAP1 PUSH2 0x3F19 JUMP JUMPDEST PUSH1 0x40 MLOAD DUP1 SWAP2 SUB SWAP1 LOG2 POP PUSH2 0x10B5 PUSH2 0x3000 JUMP JUMPDEST POP JUMP JUMPDEST PUSH2 0x10C0 PUSH2 0x2FB1 JUMP JUMPDEST PUSH0 PUSH1 0x7 PUSH0 DUP5 DUP2 MSTORE PUSH1 0x20 ADD SWAP1 DUP2 MSTORE PUSH1 0x20 ADD PUSH0 KECCAK256 SWAP1 POP DUP1 PUSH1 0x6 ADD PUSH0 SWAP1 SLOAD SWAP1 PUSH2 0x100 EXP SWAP1 DIV PUSH20 0xFFFFFFFFFFFFFFFFFFFFFFFFFFFFFFFFFFFFFFFF AND PUSH20 0xFFFFFFFFFFFFFFFFFFFFFFFFFFFFFFFFFFFFFFFF AND CALLER PUSH20 0xFFFFFFFFFFFFFFFFFFFFFFFFFFFFFFFFFFFFFFFF AND EQ PUSH2 0x1165 JUMPI PUSH1 0x40 MLOAD PUSH32 0x8C379A000000000000000000000000000000000000000000000000000000000 DUP2 MSTORE PUSH1 0x4 ADD PUSH2 0x115C SWAP1 PUSH2 0x5269 JUMP JUMPDEST PUSH1 0x40 MLOAD DUP1 SWAP2 SUB SWAP1 REVERT JUMPDEST PUSH1 0x8 PUSH0 DUP5 DUP2 MSTORE PUSH1 0x20 ADD SWAP1 DUP2 MSTORE PUSH1 0x20 ADD PUSH0 KECCAK256 DUP1 SLOAD SWAP1 POP DUP3 LT PUSH2 0x11BB JUMPI PUSH1 0x40 MLOAD PUSH32 0x8C379A000000000000000000000000000000000000000000000000000000000 DUP2 MSTORE PUSH1 0x4 ADD PUSH2 0x11B2 SWAP1 PUSH2 0x52D1 JUMP JUMPDEST PUSH1 0x40 MLOAD DUP1 SWAP2 SUB SWAP1 REVERT JUMPDEST PUSH0 PUSH1 0x8 PUSH0 DUP6 DUP2 MSTORE PUSH1 0x20 ADD SWAP1 DUP2 MSTORE PUSH1 0x20 ADD PUSH0 KECCAK256 DUP4 DUP2 SLOAD DUP2 LT PUSH2 0x11DF JUMPI PUSH2 0x11DE PUSH2 0x507B JUMP JUMPDEST JUMPDEST SWAP1 PUSH0 MSTORE PUSH1 0x20 PUSH0 KECCAK256 SWAP1 PUSH1 0x3 MUL ADD SWAP1 POP PUSH0 PUSH1 0x3 DUP2 GT ISZERO PUSH2 0x1200 JUMPI PUSH2 0x11FF PUSH2 0x4666 JUMP JUMPDEST JUMPDEST DUP2 PUSH0 ADD PUSH1 0x14 SWAP1 SLOAD SWAP1 PUSH2 0x100 EXP SWAP1 DIV PUSH1 0xFF AND PUSH1 0x3 DUP2 GT ISZERO PUSH2 0x1223 JUMPI PUSH2 0x1222 PUSH2 0x4666 JUMP JUMPDEST JUMPDEST EQ PUSH2 0x1263 JUMPI PUSH1 0x40 MLOAD PUSH32 0x8C379A000000000000000000000000000000000000000000000000000000000 DUP2 MSTORE PUSH1 0x4 ADD PUSH2 0x125A SWAP1 PUSH2 0x5339 JUMP JUMPDEST PUSH1 0x40 MLOAD DUP1 SWAP2 SUB SWAP1 REVERT JUMPDEST PUSH2 0x258 DUP2 PUSH1 0x2 ADD SLOAD PUSH2 0x1275 SWAP2 SWAP1 PUSH2 0x51EC JUMP JUMPDEST TIMESTAMP LT ISZERO PUSH2 0x12B7 JUMPI PUSH1 0x40 MLOAD PUSH32 0x8C379A000000000000000000000000000000000000000000000000000000000 DUP2 MSTORE PUSH1 0x4 ADD PUSH2 0x12AE SWAP1 PUSH2 0x53A1 JUMP JUMPDEST PUSH1 0x40 MLOAD DUP1 SWAP2 SUB SWAP1 REVERT JUMPDEST PUSH1 0x6 PUSH0 SWAP1 SLOAD SWAP1 PUSH2 0x100 EXP SWAP1 DIV PUSH20 0xFFFFFFFFFFFFFFFFFFFFFFFFFFFFFFFFFFFFFFFF AND PUSH20 0xFFFFFFFFFFFFFFFFFFFFFFFFFFFFFFFFFFFFFFFF AND PUSH4 0xA9059CBB DUP3 PUSH0 ADD PUSH0 SWAP1 SLOAD SWAP1 PUSH2 0x100 EXP SWAP1 DIV PUSH20 0xFFFFFFFFFFFFFFFFFFFFFFFFFFFFFFFFFFFFFFFF AND DUP5 PUSH1 0x5 ADD SLOAD PUSH1 0x40 MLOAD DUP4 PUSH4 0xFFFFFFFF AND PUSH1 0xE0 SHL DUP2 MSTORE PUSH1 0x4 ADD PUSH2 0x1339 SWAP3 SWAP2 SWAP1 PUSH2 0x53BF JUMP JUMPDEST PUSH1 0x20 PUSH1 0x40 MLOAD DUP1 DUP4 SUB DUP2 PUSH0 DUP8 GAS CALL ISZERO DUP1 ISZERO PUSH2 0x1355 JUMPI RETURNDATASIZE PUSH0 DUP1 RETURNDATACOPY RETURNDATASIZE PUSH0 REVERT JUMPDEST POP POP POP POP PUSH1 0x40 MLOAD RETURNDATASIZE PUSH1 0x1F NOT PUSH1 0x1F DUP3 ADD AND DUP3 ADD DUP1 PUSH1 0x40 MSTORE POP DUP2 ADD SWAP1 PUSH2 0x1379 SWAP2 SWAP1 PUSH2 0x5159 JUMP JUMPDEST PUSH2 0x13B8 JUMPI PUSH1 0x40 MLOAD PUSH32 0x8C379A000000000000000000000000000000000000000000000000000000000 DUP2 MSTORE PUSH1 0x4 ADD PUSH2 0x13AF SWAP1 PUSH2 0x5430 JUMP JUMPDEST PUSH1 0x40 MLOAD DUP1 SWAP2 SUB SWAP1 REVERT JUMPDEST DUP2 PUSH1 0x5 ADD SLOAD DUP2 PUSH1 0x1 ADD SLOAD PUSH2 0x13CC SWAP2 SWAP1 PUSH2 0x51EC JUMP JUMPDEST PUSH1 0x9 PUSH0 DUP5 PUSH1 0x6 ADD PUSH0 SWAP1 SLOAD SWAP1 PUSH2 0x100 EXP SWAP1 DIV PUSH20 0xFFFFFFFFFFFFFFFFFFFFFFFFFFFFFFFFFFFFFFFF AND PUSH20 0xFFFFFFFFFFFFFFFFFFFFFFFFFFFFFFFFFFFFFFFF AND PUSH20 0xFFFFFFFFFFFFFFFFFFFFFFFFFFFFFFFFFFFFFFFF AND DUP2 MSTORE PUSH1 0x20 ADD SWAP1 DUP2 MSTORE PUSH1 0x20 ADD PUSH0 KECCAK256 PUSH0 DUP3 DUP3 SLOAD PUSH2 0x143A SWAP2 SWAP1 PUSH2 0x51EC JUMP JUMPDEST SWAP3 POP POP DUP2 SWAP1 SSTORE POP PUSH0 DUP2 PUSH1 0x1 ADD DUP2 SWAP1 SSTORE POP PUSH1 0x2 DUP2 PUSH0 ADD PUSH1 0x14 PUSH2 0x100 EXP DUP2 SLOAD DUP2 PUSH1 0xFF MUL NOT AND SWAP1 DUP4 PUSH1 0x3 DUP2 GT ISZERO PUSH2 0x1471 JUMPI PUSH2 0x1470 PUSH2 0x4666 JUMP JUMPDEST JUMPDEST MUL OR SWAP1 SSTORE POP DUP1 PUSH0 ADD PUSH0 SWAP1 SLOAD SWAP1 PUSH2 0x100 EXP SWAP1 DIV PUSH20 0xFFFFFFFFFFFFFFFFFFFFFFFFFFFFFFFFFFFFFFFF AND PUSH20 0xFFFFFFFFFFFFFFFFFFFFFFFFFFFFFFFFFFFFFFFF AND DUP3 PUSH1 0x6 ADD PUSH0 SWAP1 SLOAD SWAP1 PUSH2 0x100 EXP SWAP1 DIV PUSH20 0xFFFFFFFFFFFFFFFFFFFFFFFFFFFFFFFFFFFFFFFF AND PUSH20 0xFFFFFFFFFFFFFFFFFFFFFFFFFFFFFFFFFFFFFFFF AND DUP6 PUSH32 0x8A638E11B0C22C045787CDEB797B7660A82A4F82305CA40E86A115AE07B3EE28 DUP7 DUP7 PUSH1 0x5 ADD SLOAD PUSH1 0x40 MLOAD PUSH2 0x151F SWAP3 SWAP2 SWAP1 PUSH2 0x5014 JUMP JUMPDEST PUSH1 0x40 MLOAD DUP1 SWAP2 SUB SWAP1 LOG4 CALLER PUSH20 0xFFFFFFFFFFFFFFFFFFFFFFFFFFFFFFFFFFFFFFFF AND DUP5 PUSH32 0x86F9D82FE70F334564DFB5D0F47619293510546518AF6F46B21209F3CFD6D3E7 DUP6 PUSH1 0x40 MLOAD PUSH2 0x156E SWAP2 SWAP1 PUSH2 0x3F19 JUMP JUMPDEST PUSH1 0x40 MLOAD DUP1 SWAP2 SUB SWAP1 LOG3 POP POP PUSH2 0x1580 PUSH2 0x3000 JUMP JUMPDEST POP POP JUMP JUMPDEST PUSH2 0x158C PUSH2 0x2FB1 JUMP JUMPDEST PUSH32 0x877A78DC988C0EC5F58453B44888A55EB39755C3D5ED8D8EA990912AA3EF29C6 PUSH2 0x15B6 DUP2 PUSH2 0x2CA8 JUMP JUMPDEST DUP2 PUSH1 0x9 PUSH0 CALLER PUSH20 0xFFFFFFFFFFFFFFFFFFFFFFFFFFFFFFFFFFFFFFFF AND PUSH20 0xFFFFFFFFFFFFFFFFFFFFFFFFFFFFFFFFFFFFFFFF AND DUP2 MSTORE PUSH1 0x20 ADD SWAP1 DUP2 MSTORE PUSH1 0x20 ADD PUSH0 KECCAK256 SLOAD LT ISZERO PUSH2 0x1636 JUMPI PUSH1 0x40 MLOAD PUSH32 0x8C379A000000000000000000000000000000000000000000000000000000000 DUP2 MSTORE PUSH1 0x4 ADD PUSH2 0x162D SWAP1 PUSH2 0x5498 JUMP JUMPDEST PUSH1 0x40 MLOAD DUP1 SWAP2 SUB SWAP1 REVERT JUMPDEST DUP2 PUSH1 0x9 PUSH0 CALLER PUSH20 0xFFFFFFFFFFFFFFFFFFFFFFFFFFFFFFFFFFFFFFFF AND PUSH20 0xFFFFFFFFFFFFFFFFFFFFFFFFFFFFFFFFFFFFFFFF AND DUP2 MSTORE PUSH1 0x20 ADD SWAP1 DUP2 MSTORE PUSH1 0x20 ADD PUSH0 KECCAK256 PUSH0 DUP3 DUP3 SLOAD PUSH2 0x1682 SWAP2 SWAP1 PUSH2 0x54B6 JUMP JUMPDEST SWAP3 POP POP DUP2 SWAP1 SSTORE POP PUSH1 0x6 PUSH0 SWAP1 SLOAD SWAP1 PUSH2 0x100 EXP SWAP1 DIV PUSH20 0xFFFFFFFFFFFFFFFFFFFFFFFFFFFFFFFFFFFFFFFF AND PUSH20 0xFFFFFFFFFFFFFFFFFFFFFFFFFFFFFFFFFFFFFFFF AND PUSH4 0xA9059CBB CALLER DUP5 PUSH1 0x40 MLOAD DUP4 PUSH4 0xFFFFFFFF AND PUSH1 0xE0 SHL DUP2 MSTORE PUSH1 0x4 ADD PUSH2 0x16E5 SWAP3 SWAP2 SWAP1 PUSH2 0x53BF JUMP JUMPDEST PUSH1 0x20 PUSH1 0x40 MLOAD DUP1 DUP4 SUB DUP2 PUSH0 DUP8 GAS CALL ISZERO DUP1 ISZERO PUSH2 0x1701 JUMPI RETURNDATASIZE PUSH0 DUP1 RETURNDATACOPY RETURNDATASIZE PUSH0 REVERT JUMPDEST POP POP POP POP PUSH1 0x40 MLOAD RETURNDATASIZE PUSH1 0x1F NOT PUSH1 0x1F DUP3 ADD AND DUP3 ADD DUP1 PUSH1 0x40 MSTORE POP DUP2 ADD SWAP1 PUSH2 0x1725 SWAP2 SWAP1 PUSH2 0x5159 JUMP JUMPDEST PUSH2 0x1764 JUMPI PUSH1 0x40 MLOAD PUSH32 0x8C379A000000000000000000000000000000000000000000000000000000000 DUP2 MSTORE PUSH1 0x4 ADD PUSH2 0x175B SWAP1 PUSH2 0x51CE JUMP JUMPDEST PUSH1 0x40 MLOAD DUP1 SWAP2 SUB SWAP1 REVERT JUMPDEST CALLER PUSH20 0xFFFFFFFFFFFFFFFFFFFFFFFFFFFFFFFFFFFFFFFF AND PUSH32 0xF950065C052AFD5C2CA44FF2A18CD37168ED2F720C947332BDEA60CC300AC35C DUP4 PUSH1 0x40 MLOAD PUSH2 0x17AA SWAP2 SWAP1 PUSH2 0x3F19 JUMP JUMPDEST PUSH1 0x40 MLOAD DUP1 SWAP2 SUB SWAP1 LOG2 POP PUSH2 0x17BB PUSH2 0x3000 JUMP JUMPDEST POP JUMP JUMPDEST PUSH0 PUSH1 0x3 PUSH0 DUP5 DUP2 MSTORE PUSH1 0x20 ADD SWAP1 DUP2 MSTORE PUSH1 0x20 ADD PUSH0 KECCAK256 PUSH0 ADD PUSH0 DUP4 PUSH20 0xFFFFFFFFFFFFFFFFFFFFFFFFFFFFFFFFFFFFFFFF AND PUSH20 0xFFFFFFFFFFFFFFFFFFFFFFFFFFFFFFFFFFFFFFFF AND DUP2 MSTORE PUSH1 0x20 ADD SWAP1 DUP2 MSTORE PUSH1 0x20 ADD PUSH0 KECCAK256 PUSH0 SWAP1 SLOAD SWAP1 PUSH2 0x100 EXP SWAP1 DIV PUSH1 0xFF AND SWAP1 POP SWAP3 SWAP2 POP POP JUMP JUMPDEST PUSH1 0x6 PUSH0 SWAP1 SLOAD SWAP1 PUSH2 0x100 EXP SWAP1 DIV PUSH20 0xFFFFFFFFFFFFFFFFFFFFFFFFFFFFFFFFFFFFFFFF AND DUP2 JUMP JUMPDEST PUSH32 0x16CEEE8289685DD2A02B9C8AE81D2DF373176CE53519E6284E2A2950D6546FFA DUP2 JUMP JUMPDEST PUSH2 0x1873 PUSH2 0x2FB1 JUMP JUMPDEST PUSH32 0x16CEEE8289685DD2A02B9C8AE81D2DF373176CE53519E6284E2A2950D6546FFA PUSH2 0x189D DUP2 PUSH2 0x2CA8 JUMP JUMPDEST PUSH1 0x8 PUSH0 DUP6 DUP2 MSTORE PUSH1 0x20 ADD SWAP1 DUP2 MSTORE PUSH1 0x20 ADD PUSH0 KECCAK256 DUP1 SLOAD SWAP1 POP DUP4 LT PUSH2 0x18F3 JUMPI PUSH1 0x40 MLOAD PUSH32 0x8C379A000000000000000000000000000000000000000000000000000000000 DUP2 MSTORE PUSH1 0x4 ADD PUSH2 0x18EA SWAP1 PUSH2 0x52D1 JUMP JUMPDEST PUSH1 0x40 MLOAD DUP1 SWAP2 SUB SWAP1 REVERT JUMPDEST PUSH0 PUSH1 0x8 PUSH0 DUP7 DUP2 MSTORE PUSH1 0x20 ADD SWAP1 DUP2 MSTORE PUSH1 0x20 ADD PUSH0 KECCAK256 DUP5 DUP2 SLOAD DUP2 LT PUSH2 0x1917 JUMPI PUSH2 0x1916 PUSH2 0x507B JUMP JUMPDEST JUMPDEST SWAP1 PUSH0 MSTORE PUSH1 0x20 PUSH0 KECCAK256 SWAP1 PUSH1 0x3 MUL ADD SWAP1 POP PUSH1 0x1 PUSH1 0x3 DUP2 GT ISZERO PUSH2 0x1939 JUMPI PUSH2 0x1938 PUSH2 0x4666 JUMP JUMPDEST JUMPDEST DUP2 PUSH0 ADD PUSH1 0x14 SWAP1 SLOAD SWAP1 PUSH2 0x100 EXP SWAP1 DIV PUSH1 0xFF AND PUSH1 0x3 DUP2 GT ISZERO PUSH2 0x195C JUMPI PUSH2 0x195B PUSH2 0x4666 JUMP JUMPDEST JUMPDEST EQ PUSH2 0x199C JUMPI PUSH1 0x40 MLOAD PUSH32 0x8C379A000000000000000000000000000000000000000000000000000000000 DUP2 MSTORE PUSH1 0x4 ADD PUSH2 0x1993 SWAP1 PUSH2 0x5533 JUMP JUMPDEST PUSH1 0x40 MLOAD DUP1 SWAP2 SUB SWAP1 REVERT JUMPDEST PUSH0 PUSH1 0x7 PUSH0 DUP8 DUP2 MSTORE PUSH1 0x20 ADD SWAP1 DUP2 MSTORE PUSH1 0x20 ADD PUSH0 KECCAK256 SWAP1 POP DUP4 ISZERO PUSH2 0x1C2B JUMPI PUSH1 0x6 PUSH0 SWAP1 SLOAD SWAP1 PUSH2 0x100 EXP SWAP1 DIV PUSH20 0xFFFFFFFFFFFFFFFFFFFFFFFFFFFFFFFFFFFFFFFF AND PUSH20 0xFFFFFFFFFFFFFFFFFFFFFFFFFFFFFFFFFFFFFFFF AND PUSH4 0xA9059CBB DUP4 PUSH0 ADD PUSH0 SWAP1 SLOAD SWAP1 PUSH2 0x100 EXP SWAP1 DIV PUSH20 0xFFFFFFFFFFFFFFFFFFFFFFFFFFFFFFFFFFFFFFFF AND DUP4 PUSH1 0x5 ADD SLOAD PUSH1 0x40 MLOAD DUP4 PUSH4 0xFFFFFFFF AND PUSH1 0xE0 SHL DUP2 MSTORE PUSH1 0x4 ADD PUSH2 0x1A38 SWAP3 SWAP2 SWAP1 PUSH2 0x53BF JUMP JUMPDEST PUSH1 0x20 PUSH1 0x40 MLOAD DUP1 DUP4 SUB DUP2 PUSH0 DUP8 GAS CALL ISZERO DUP1 ISZERO PUSH2 0x1A54 JUMPI RETURNDATASIZE PUSH0 DUP1 RETURNDATACOPY RETURNDATASIZE PUSH0 REVERT JUMPDEST POP POP POP POP PUSH1 0x40 MLOAD RETURNDATASIZE PUSH1 0x1F NOT PUSH1 0x1F DUP3 ADD AND DUP3 ADD DUP1 PUSH1 0x40 MSTORE POP DUP2 ADD SWAP1 PUSH2 0x1A78 SWAP2 SWAP1 PUSH2 0x5159 JUMP JUMPDEST PUSH2 0x1AB7 JUMPI PUSH1 0x40 MLOAD PUSH32 0x8C379A000000000000000000000000000000000000000000000000000000000 DUP2 MSTORE PUSH1 0x4 ADD PUSH2 0x1AAE SWAP1 PUSH2 0x5430 JUMP JUMPDEST PUSH1 0x40 MLOAD DUP1 SWAP2 SUB SWAP1 REVERT JUMPDEST DUP1 PUSH1 0x5 ADD SLOAD DUP3 PUSH1 0x1 ADD SLOAD PUSH2 0x1ACB SWAP2 SWAP1 PUSH2 0x51EC JUMP JUMPDEST PUSH1 0x9 PUSH0 DUP4 PUSH1 0x6 ADD PUSH0 SWAP1 SLOAD SWAP1 PUSH2 0x100 EXP SWAP1 DIV PUSH20 0xFFFFFFFFFFFFFFFFFFFFFFFFFFFFFFFFFFFFFFFF AND PUSH20 0xFFFFFFFFFFFFFFFFFFFFFFFFFFFFFFFFFFFFFFFF AND PUSH20 0xFFFFFFFFFFFFFFFFFFFFFFFFFFFFFFFFFFFFFFFF AND DUP2 MSTORE PUSH1 0x20 ADD SWAP1 DUP2 MSTORE PUSH1 0x20 ADD PUSH0 KECCAK256 PUSH0 DUP3 DUP3 SLOAD PUSH2 0x1B39 SWAP2 SWAP1 PUSH2 0x51EC JUMP JUMPDEST SWAP3 POP POP DUP2 SWAP1 SSTORE POP PUSH0 DUP3 PUSH1 0x1 ADD DUP2 SWAP1 SSTORE POP PUSH1 0x2 DUP3 PUSH0 ADD PUSH1 0x14 PUSH2 0x100 EXP DUP2 SLOAD DUP2 PUSH1 0xFF MUL NOT AND SWAP1 DUP4 PUSH1 0x3 DUP2 GT ISZERO PUSH2 0x1B70 JUMPI PUSH2 0x1B6F PUSH2 0x4666 JUMP JUMPDEST JUMPDEST MUL OR SWAP1 SSTORE POP DUP2 PUSH0 ADD PUSH0 SWAP1 SLOAD SWAP1 PUSH2 0x100 EXP SWAP1 DIV PUSH20 0xFFFFFFFFFFFFFFFFFFFFFFFFFFFFFFFFFFFFFFFF AND PUSH20 0xFFFFFFFFFFFFFFFFFFFFFFFFFFFFFFFFFFFFFFFF AND DUP2 PUSH1 0x6 ADD PUSH0 SWAP1 SLOAD SWAP1 PUSH2 0x100 EXP SWAP1 DIV PUSH20 0xFFFFFFFFFFFFFFFFFFFFFFFFFFFFFFFFFFFFFFFF AND PUSH20 0xFFFFFFFFFFFFFFFFFFFFFFFFFFFFFFFFFFFFFFFF AND DUP8 PUSH32 0x8A638E11B0C22C045787CDEB797B7660A82A4F82305CA40E86A115AE07B3EE28 DUP9 DUP6 PUSH1 0x5 ADD SLOAD PUSH1 0x40 MLOAD PUSH2 0x1C1E SWAP3 SWAP2 SWAP1 PUSH2 0x5014 JUMP JUMPDEST PUSH1 0x40 MLOAD DUP1 SWAP2 SUB SWAP1 LOG4 PUSH2 0x1E16 JUMP JUMPDEST PUSH1 0x6 PUSH0 SWAP1 SLOAD SWAP1 PUSH2 0x100 EXP SWAP1 DIV PUSH20 0xFFFFFFFFFFFFFFFFFFFFFFFFFFFFFFFFFFFFFFFF AND PUSH20 0xFFFFFFFFFFFFFFFFFFFFFFFFFFFFFFFFFFFFFFFF AND PUSH4 0xA9059CBB DUP4 PUSH0 ADD PUSH0 SWAP1 SLOAD SWAP1 PUSH2 0x100 EXP SWAP1 DIV PUSH20 0xFFFFFFFFFFFFFFFFFFFFFFFFFFFFFFFFFFFFFFFF AND PUSH1 0x2 DUP5 PUSH1 0x5 ADD SLOAD PUSH2 0x1C9C SWAP2 SWAP1 PUSH2 0x5551 JUMP JUMPDEST PUSH1 0x40 MLOAD DUP4 PUSH4 0xFFFFFFFF AND PUSH1 0xE0 SHL DUP2 MSTORE PUSH1 0x4 ADD PUSH2 0x1CB9 SWAP3 SWAP2 SWAP1 PUSH2 0x53BF JUMP JUMPDEST PUSH1 0x20 PUSH1 0x40 MLOAD DUP1 DUP4 SUB DUP2 PUSH0 DUP8 GAS CALL ISZERO DUP1 ISZERO PUSH2 0x1CD5 JUMPI RETURNDATASIZE PUSH0 DUP1 RETURNDATACOPY RETURNDATASIZE PUSH0 REVERT JUMPDEST POP POP POP POP PUSH1 0x40 MLOAD RETURNDATASIZE PUSH1 0x1F NOT PUSH1 0x1F DUP3 ADD AND DUP3 ADD DUP1 PUSH1 0x40 MSTORE POP DUP2 ADD SWAP1 PUSH2 0x1CF9 SWAP2 SWAP1 PUSH2 0x5159 JUMP JUMPDEST PUSH2 0x1D38 JUMPI PUSH1 0x40 MLOAD PUSH32 0x8C379A000000000000000000000000000000000000000000000000000000000 DUP2 MSTORE PUSH1 0x4 ADD PUSH2 0x1D2F SWAP1 PUSH2 0x5430 JUMP JUMPDEST PUSH1 0x40 MLOAD DUP1 SWAP2 SUB SWAP1 REVERT JUMPDEST DUP2 PUSH1 0x1 ADD SLOAD PUSH1 0x9 PUSH0 DUP4 PUSH1 0x6 ADD PUSH0 SWAP1 SLOAD SWAP1 PUSH2 0x100 EXP SWAP1 DIV PUSH20 0xFFFFFFFFFFFFFFFFFFFFFFFFFFFFFFFFFFFFFFFF AND PUSH20 0xFFFFFFFFFFFFFFFFFFFFFFFFFFFFFFFFFFFFFFFF AND PUSH20 0xFFFFFFFFFFFFFFFFFFFFFFFFFFFFFFFFFFFFFFFF AND DUP2 MSTORE PUSH1 0x20 ADD SWAP1 DUP2 MSTORE PUSH1 0x20 ADD PUSH0 KECCAK256 PUSH0 DUP3 DUP3 SLOAD PUSH2 0x1DAB SWAP2 SWAP1 PUSH2 0x51EC JUMP JUMPDEST SWAP3 POP POP DUP2 SWAP1 SSTORE POP PUSH0 DUP3 PUSH1 0x1 ADD DUP2 SWAP1 SSTORE POP PUSH1 0x3 DUP3 PUSH0 ADD PUSH1 0x14 PUSH2 0x100 EXP DUP2 SLOAD DUP2 PUSH1 0xFF MUL NOT AND SWAP1 DUP4 PUSH1 0x3 DUP2 GT ISZERO PUSH2 0x1DE2 JUMPI PUSH2 0x1DE1 PUSH2 0x4666 JUMP JUMPDEST JUMPDEST MUL OR SWAP1 SSTORE POP PUSH2 0x1E15 DUP3 PUSH0 ADD PUSH0 SWAP1 SLOAD SWAP1 PUSH2 0x100 EXP SWAP1 DIV PUSH20 0xFFFFFFFFFFFFFFFFFFFFFFFFFFFFFFFFFFFFFFFF AND DUP8 PUSH1 0x1 PUSH2 0x300A JUMP JUMPDEST JUMPDEST DUP6 PUSH32 0xD4390D9B1EAE30D53D6E598D7EBA50E60F3EA18310CA83E7919E3DF177BB05CA DUP7 DUP7 PUSH1 0x40 MLOAD PUSH2 0x1E48 SWAP3 SWAP2 SWAP1 PUSH2 0x5592 JUMP JUMPDEST PUSH1 0x40 MLOAD DUP1 SWAP2 SUB SWAP1 LOG2 POP POP POP PUSH2 0x1E5B PUSH2 0x3000 JUMP JUMPDEST POP POP POP JUMP JUMPDEST PUSH0 DUP1 SHL DUP2 JUMP JUMPDEST PUSH2 0x1E78 PUSH2 0x1E71 PUSH2 0x2CBC JUMP JUMPDEST DUP4 DUP4 PUSH2 0x30AC JUMP JUMPDEST POP POP JUMP JUMPDEST PUSH32 0x877A78DC988C0EC5F58453B44888A55EB39755C3D5ED8D8EA990912AA3EF29C6 DUP2 JUMP JUMPDEST PUSH1 0x9 PUSH1 0x20 MSTORE DUP1 PUSH0 MSTORE PUSH1 0x40 PUSH0 KECCAK256 PUSH0 SWAP2 POP SWAP1 POP SLOAD DUP2 JUMP JUMPDEST PUSH2 0x1EBD PUSH2 0x2FB1 JUMP JUMPDEST PUSH1 0x8 PUSH0 DUP5 DUP2 MSTORE PUSH1 0x20 ADD SWAP1 DUP2 MSTORE PUSH1 0x20 ADD PUSH0 KECCAK256 DUP1 SLOAD SWAP1 POP DUP3 LT PUSH2 0x1F13 JUMPI PUSH1 0x40 MLOAD PUSH32 0x8C379A000000000000000000000000000000000000000000000000000000000 DUP2 MSTORE PUSH1 0x4 ADD PUSH2 0x1F0A SWAP1 PUSH2 0x52D1 JUMP JUMPDEST PUSH1 0x40 MLOAD DUP1 SWAP2 SUB SWAP1 REVERT JUMPDEST PUSH0 PUSH1 0x8 PUSH0 DUP6 DUP2 MSTORE PUSH1 0x20 ADD SWAP1 DUP2 MSTORE PUSH1 0x20 ADD PUSH0 KECCAK256 DUP4 DUP2 SLOAD DUP2 LT PUSH2 0x1F37 JUMPI PUSH2 0x1F36 PUSH2 0x507B JUMP JUMPDEST JUMPDEST SWAP1 PUSH0 MSTORE PUSH1 0x20 PUSH0 KECCAK256 SWAP1 PUSH1 0x3 MUL ADD SWAP1 POP CALLER PUSH20 0xFFFFFFFFFFFFFFFFFFFFFFFFFFFFFFFFFFFFFFFF AND DUP2 PUSH0 ADD PUSH0 SWAP1 SLOAD SWAP1 PUSH2 0x100 EXP SWAP1 DIV PUSH20 0xFFFFFFFFFFFFFFFFFFFFFFFFFFFFFFFFFFFFFFFF AND PUSH20 0xFFFFFFFFFFFFFFFFFFFFFFFFFFFFFFFFFFFFFFFF AND EQ PUSH2 0x1FD5 JUMPI PUSH1 0x40 MLOAD PUSH32 0x8C379A000000000000000000000000000000000000000000000000000000000 DUP2 MSTORE PUSH1 0x4 ADD PUSH2 0x1FCC SWAP1 PUSH2 0x5603 JUMP JUMPDEST PUSH1 0x40 MLOAD DUP1 SWAP2 SUB SWAP1 REVERT JUMPDEST PUSH0 PUSH1 0x3 DUP2 GT ISZERO PUSH2 0x1FE8 JUMPI PUSH2 0x1FE7 PUSH2 0x4666 JUMP JUMPDEST JUMPDEST DUP2 PUSH0 ADD PUSH1 0x14 SWAP1 SLOAD SWAP1 PUSH2 0x100 EXP SWAP1 DIV PUSH1 0xFF AND PUSH1 0x3 DUP2 GT ISZERO PUSH2 0x200B JUMPI PUSH2 0x200A PUSH2 0x4666 JUMP JUMPDEST JUMPDEST EQ PUSH2 0x204B JUMPI PUSH1 0x40 MLOAD PUSH32 0x8C379A000000000000000000000000000000000000000000000000000000000 DUP2 MSTORE PUSH1 0x4 ADD PUSH2 0x2042 SWAP1 PUSH2 0x5339 JUMP JUMPDEST PUSH1 0x40 MLOAD DUP1 SWAP2 SUB SWAP1 REVERT JUMPDEST PUSH0 PUSH1 0x7 PUSH0 DUP7 DUP2 MSTORE PUSH1 0x20 ADD SWAP1 DUP2 MSTORE PUSH1 0x20 ADD PUSH0 KECCAK256 SWAP1 POP CALLER PUSH20 0xFFFFFFFFFFFFFFFFFFFFFFFFFFFFFFFFFFFFFFFF AND DUP6 PUSH32 0xDFCFA307BD7FF3B7DF976AEA65A8DF73DEB67F2649E10E389AE208B2A5C667AF DUP7 DUP7 PUSH1 0x40 MLOAD PUSH2 0x20A8 SWAP3 SWAP2 SWAP1 PUSH2 0x5592 JUMP JUMPDEST PUSH1 0x40 MLOAD DUP1 SWAP2 SUB SWAP1 LOG3 DUP3 ISZERO PUSH2 0x22E7 JUMPI PUSH1 0x6 PUSH0 SWAP1 SLOAD SWAP1 PUSH2 0x100 EXP SWAP1 DIV PUSH20 0xFFFFFFFFFFFFFFFFFFFFFFFFFFFFFFFFFFFFFFFF AND PUSH20 0xFFFFFFFFFFFFFFFFFFFFFFFFFFFFFFFFFFFFFFFF AND PUSH4 0xA9059CBB CALLER DUP4 PUSH1 0x5 ADD SLOAD PUSH1 0x40 MLOAD DUP4 PUSH4 0xFFFFFFFF AND PUSH1 0xE0 SHL DUP2 MSTORE PUSH1 0x4 ADD PUSH2 0x2116 SWAP3 SWAP2 SWAP1 PUSH2 0x53BF JUMP JUMPDEST PUSH1 0x20 PUSH1 0x40 MLOAD DUP1 DUP4 SUB DUP2 PUSH0 DUP8 GAS CALL ISZERO DUP1 ISZERO PUSH2 0x2132 JUMPI RETURNDATASIZE PUSH0 DUP1 RETURNDATACOPY RETURNDATASIZE PUSH0 REVERT JUMPDEST POP POP POP POP PUSH1 0x40 MLOAD RETURNDATASIZE PUSH1 0x1F NOT PUSH1 0x1F DUP3 ADD AND DUP3 ADD DUP1 PUSH1 0x40 MSTORE POP DUP2 ADD SWAP1 PUSH2 0x2156 SWAP2 SWAP1 PUSH2 0x5159 JUMP JUMPDEST PUSH2 0x2195 JUMPI PUSH1 0x40 MLOAD PUSH32 0x8C379A000000000000000000000000000000000000000000000000000000000 DUP2 MSTORE PUSH1 0x4 ADD PUSH2 0x218C SWAP1 PUSH2 0x5430 JUMP JUMPDEST PUSH1 0x40 MLOAD DUP1 SWAP2 SUB SWAP1 REVERT JUMPDEST DUP1 PUSH1 0x5 ADD SLOAD DUP3 PUSH1 0x1 ADD SLOAD PUSH2 0x21A9 SWAP2 SWAP1 PUSH2 0x51EC JUMP JUMPDEST PUSH1 0x9 PUSH0 DUP4 PUSH1 0x6 ADD PUSH0 SWAP1 SLOAD SWAP1 PUSH2 0x100 EXP SWAP1 DIV PUSH20 0xFFFFFFFFFFFFFFFFFFFFFFFFFFFFFFFFFFFFFFFF AND PUSH20 0xFFFFFFFFFFFFFFFFFFFFFFFFFFFFFFFFFFFFFFFF AND PUSH20 0xFFFFFFFFFFFFFFFFFFFFFFFFFFFFFFFFFFFFFFFF AND DUP2 MSTORE PUSH1 0x20 ADD SWAP1 DUP2 MSTORE PUSH1 0x20 ADD PUSH0 KECCAK256 PUSH0 DUP3 DUP3 SLOAD PUSH2 0x2217 SWAP2 SWAP1 PUSH2 0x51EC JUMP JUMPDEST SWAP3 POP POP DUP2 SWAP1 SSTORE POP PUSH0 DUP3 PUSH1 0x1 ADD DUP2 SWAP1 SSTORE POP PUSH1 0x2 DUP3 PUSH0 ADD PUSH1 0x14 PUSH2 0x100 EXP DUP2 SLOAD DUP2 PUSH1 0xFF MUL NOT AND SWAP1 DUP4 PUSH1 0x3 DUP2 GT ISZERO PUSH2 0x224E JUMPI PUSH2 0x224D PUSH2 0x4666 JUMP JUMPDEST JUMPDEST MUL OR SWAP1 SSTORE POP CALLER PUSH20 0xFFFFFFFFFFFFFFFFFFFFFFFFFFFFFFFFFFFFFFFF AND DUP2 PUSH1 0x6 ADD PUSH0 SWAP1 SLOAD SWAP1 PUSH2 0x100 EXP SWAP1 DIV PUSH20 0xFFFFFFFFFFFFFFFFFFFFFFFFFFFFFFFFFFFFFFFF AND PUSH20 0xFFFFFFFFFFFFFFFFFFFFFFFFFFFFFFFFFFFFFFFF AND DUP7 PUSH32 0x8A638E11B0C22C045787CDEB797B7660A82A4F82305CA40E86A115AE07B3EE28 DUP8 DUP6 PUSH1 0x5 ADD SLOAD PUSH1 0x40 MLOAD PUSH2 0x22DA SWAP3 SWAP2 SWAP1 PUSH2 0x5014 JUMP JUMPDEST PUSH1 0x40 MLOAD DUP1 SWAP2 SUB SWAP1 LOG4 PUSH2 0x2363 JUMP JUMPDEST PUSH1 0x1 DUP3 PUSH0 ADD PUSH1 0x14 PUSH2 0x100 EXP DUP2 SLOAD DUP2 PUSH1 0xFF MUL NOT AND SWAP1 DUP4 PUSH1 0x3 DUP2 GT ISZERO PUSH2 0x230E JUMPI PUSH2 0x230D PUSH2 0x4666 JUMP JUMPDEST JUMPDEST MUL OR SWAP1 SSTORE POP CALLER PUSH20 0xFFFFFFFFFFFFFFFFFFFFFFFFFFFFFFFFFFFFFFFF AND DUP6 PUSH32 0xC6FB55A2BD2838E444163CECE1945A661C371C5EC8C1A4EA5D697AEFC7690547 DUP7 PUSH1 0x40 MLOAD PUSH2 0x235A SWAP2 SWAP1 PUSH2 0x3F19 JUMP JUMPDEST PUSH1 0x40 MLOAD DUP1 SWAP2 SUB SWAP1 LOG3 JUMPDEST POP POP PUSH2 0x236D PUSH2 0x3000 JUMP JUMPDEST POP POP POP JUMP JUMPDEST PUSH0 PUSH4 0xBC197C81 PUSH1 0xE0 SHL SWAP1 POP SWAP6 SWAP5 POP POP POP POP POP JUMP JUMPDEST PUSH2 0x238F DUP3 PUSH2 0x998 JUMP JUMPDEST PUSH2 0x2398 DUP2 PUSH2 0x2CA8 JUMP JUMPDEST PUSH2 0x23A2 DUP4 DUP4 PUSH2 0x2EA1 JUMP JUMPDEST POP POP POP POP JUMP JUMPDEST PUSH2 0x23B0 PUSH2 0x3D94 JUMP JUMPDEST PUSH1 0x8 PUSH0 DUP5 DUP2 MSTORE PUSH1 0x20 ADD SWAP1 DUP2 MSTORE PUSH1 0x20 ADD PUSH0 KECCAK256 DUP1 SLOAD SWAP1 POP DUP3 LT PUSH2 0x2406 JUMPI PUSH1 0x40 MLOAD PUSH32 0x8C379A000000000000000000000000000000000000000000000000000000000 DUP2 MSTORE PUSH1 0x4 ADD PUSH2 0x23FD SWAP1 PUSH2 0x52D1 JUMP JUMPDEST PUSH1 0x40 MLOAD DUP1 SWAP2 SUB SWAP1 REVERT JUMPDEST PUSH1 0x8 PUSH0 DUP5 DUP2 MSTORE PUSH1 0x20 ADD SWAP1 DUP2 MSTORE PUSH1 0x20 ADD PUSH0 KECCAK256 DUP3 DUP2 SLOAD DUP2 LT PUSH2 0x2429 JUMPI PUSH2 0x2428 PUSH2 0x507B JUMP JUMPDEST JUMPDEST SWAP1 PUSH0 MSTORE PUSH1 0x20 PUSH0 KECCAK256 SWAP1 PUSH1 0x3 MUL ADD PUSH1 0x40 MLOAD DUP1 PUSH1 0x80 ADD PUSH1 0x40 MSTORE SWAP1 DUP2 PUSH0 DUP3 ADD PUSH0 SWAP1 SLOAD SWAP1 PUSH2 0x100 EXP SWAP1 DIV PUSH20 0xFFFFFFFFFFFFFFFFFFFFFFFFFFFFFFFFFFFFFFFF AND PUSH20 0xFFFFFFFFFFFFFFFFFFFFFFFFFFFFFFFFFFFFFFFF AND PUSH20 0xFFFFFFFFFFFFFFFFFFFFFFFFFFFFFFFFFFFFFFFF AND DUP2 MSTORE PUSH1 0x20 ADD PUSH0 DUP3 ADD PUSH1 0x14 SWAP1 SLOAD SWAP1 PUSH2 0x100 EXP SWAP1 DIV PUSH1 0xFF AND PUSH1 0x3 DUP2 GT ISZERO PUSH2 0x24B8 JUMPI PUSH2 0x24B7 PUSH2 0x4666 JUMP JUMPDEST JUMPDEST PUSH1 0x3 DUP2 GT ISZERO PUSH2 0x24CA JUMPI PUSH2 0x24C9 PUSH2 0x4666 JUMP JUMPDEST JUMPDEST DUP2 MSTORE PUSH1 0x20 ADD PUSH1 0x1 DUP3 ADD SLOAD DUP2 MSTORE PUSH1 0x20 ADD PUSH1 0x2 DUP3 ADD SLOAD DUP2 MSTORE POP POP SWAP1 POP SWAP3 SWAP2 POP POP JUMP JUMPDEST PUSH2 0x24F2 PUSH2 0x2FB1 JUMP JUMPDEST PUSH0 PUSH1 0x7 PUSH0 DUP4 DUP2 MSTORE PUSH1 0x20 ADD SWAP1 DUP2 MSTORE PUSH1 0x20 ADD PUSH0 KECCAK256 SWAP1 POP DUP1 PUSH1 0x3 ADD SLOAD DUP2 PUSH1 0x4 ADD SLOAD LT PUSH2 0x2550 JUMPI PUSH1 0x40 MLOAD PUSH32 0x8C379A000000000000000000000000000000000000000000000000000000000 DUP2 MSTORE PUSH1 0x4 ADD PUSH2 0x2547 SWAP1 PUSH2 0x566B JUMP JUMPDEST PUSH1 0x40 MLOAD DUP1 SWAP2 SUB SWAP1 REVERT JUMPDEST PUSH0 PUSH1 0x2 DUP3 PUSH1 0x5 ADD SLOAD PUSH2 0x2562 SWAP2 SWAP1 PUSH2 0x5551 JUMP JUMPDEST SWAP1 POP PUSH1 0x6 PUSH0 SWAP1 SLOAD SWAP1 PUSH2 0x100 EXP SWAP1 DIV PUSH20 0xFFFFFFFFFFFFFFFFFFFFFFFFFFFFFFFFFFFFFFFF AND PUSH20 0xFFFFFFFFFFFFFFFFFFFFFFFFFFFFFFFFFFFFFFFF AND PUSH4 0x23B872DD CALLER ADDRESS DUP5 PUSH1 0x40 MLOAD DUP5 PUSH4 0xFFFFFFFF AND PUSH1 0xE0 SHL DUP2 MSTORE PUSH1 0x4 ADD PUSH2 0x25C2 SWAP4 SWAP3 SWAP2 SWAP1 PUSH2 0x5110 JUMP JUMPDEST PUSH1 0x20 PUSH1 0x40 MLOAD DUP1 DUP4 SUB DUP2 PUSH0 DUP8 GAS CALL ISZERO DUP1 ISZERO PUSH2 0x25DE JUMPI RETURNDATASIZE PUSH0 DUP1 RETURNDATACOPY RETURNDATASIZE PUSH0 REVERT JUMPDEST POP POP POP POP PUSH1 0x40 MLOAD RETURNDATASIZE PUSH1 0x1F NOT PUSH1 0x1F DUP3 ADD AND DUP3 ADD DUP1 PUSH1 0x40 MSTORE POP DUP2 ADD SWAP1 PUSH2 0x2602 SWAP2 SWAP1 PUSH2 0x5159 JUMP JUMPDEST PUSH2 0x2641 JUMPI PUSH1 0x40 MLOAD PUSH32 0x8C379A000000000000000000000000000000000000000000000000000000000 DUP2 MSTORE PUSH1 0x4 ADD PUSH2 0x2638 SWAP1 PUSH2 0x51CE JUMP JUMPDEST PUSH1 0x40 MLOAD DUP1 SWAP2 SUB SWAP1 REVERT JUMPDEST DUP1 PUSH1 0x9 PUSH0 DUP5 PUSH1 0x6 ADD PUSH0 SWAP1 SLOAD SWAP1 PUSH2 0x100 EXP SWAP1 DIV PUSH20 0xFFFFFFFFFFFFFFFFFFFFFFFFFFFFFFFFFFFFFFFF AND PUSH20 0xFFFFFFFFFFFFFFFFFFFFFFFFFFFFFFFFFFFFFFFF AND PUSH20 0xFFFFFFFFFFFFFFFFFFFFFFFFFFFFFFFFFFFFFFFF AND DUP2 MSTORE PUSH1 0x20 ADD SWAP1 DUP2 MSTORE PUSH1 0x20 ADD PUSH0 KECCAK256 SLOAD LT ISZERO PUSH2 0x26E4 JUMPI PUSH1 0x40 MLOAD PUSH32 0x8C379A000000000000000000000000000000000000000000000000000000000 DUP2 MSTORE PUSH1 0x4 ADD PUSH2 0x26DB SWAP1 PUSH2 0x56D3 JUMP JUMPDEST PUSH1 0x40 MLOAD DUP1 SWAP2 SUB SWAP1 REVERT JUMPDEST DUP1 PUSH1 0x9 PUSH0 DUP5 PUSH1 0x6 ADD PUSH0 SWAP1 SLOAD SWAP1 PUSH2 0x100 EXP SWAP1 DIV PUSH20 0xFFFFFFFFFFFFFFFFFFFFFFFFFFFFFFFFFFFFFFFF AND PUSH20 0xFFFFFFFFFFFFFFFFFFFFFFFFFFFFFFFFFFFFFFFF AND PUSH20 0xFFFFFFFFFFFFFFFFFFFFFFFFFFFFFFFFFFFFFFFF AND DUP2 MSTORE PUSH1 0x20 ADD SWAP1 DUP2 MSTORE PUSH1 0x20 ADD PUSH0 KECCAK256 PUSH0 DUP3 DUP3 SLOAD PUSH2 0x2753 SWAP2 SWAP1 PUSH2 0x54B6 JUMP JUMPDEST SWAP3 POP POP DUP2 SWAP1 SSTORE POP PUSH0 PUSH1 0x40 MLOAD DUP1 PUSH1 0x80 ADD PUSH1 0x40 MSTORE DUP1 CALLER PUSH20 0xFFFFFFFFFFFFFFFFFFFFFFFFFFFFFFFFFFFFFFFF AND DUP2 MSTORE PUSH1 0x20 ADD PUSH0 PUSH1 0x3 DUP2 GT ISZERO PUSH2 0x2795 JUMPI PUSH2 0x2794 PUSH2 0x4666 JUMP JUMPDEST JUMPDEST DUP2 MSTORE PUSH1 0x20 ADD DUP4 DUP2 MSTORE PUSH1 0x20 ADD TIMESTAMP DUP2 MSTORE POP SWAP1 POP PUSH1 0x8 PUSH0 DUP6 DUP2 MSTORE PUSH1 0x20 ADD SWAP1 DUP2 MSTORE PUSH1 0x20 ADD PUSH0 KECCAK256 DUP2 SWAP1 DUP1 PUSH1 0x1 DUP2 SLOAD ADD DUP1 DUP3 SSTORE DUP1 SWAP2 POP POP PUSH1 0x1 SWAP1 SUB SWAP1 PUSH0 MSTORE PUSH1 0x20 PUSH0 KECCAK256 SWAP1 PUSH1 0x3 MUL ADD PUSH0 SWAP1 SWAP2 SWAP1 SWAP2 SWAP1 SWAP2 POP PUSH0 DUP3 ADD MLOAD DUP2 PUSH0 ADD PUSH0 PUSH2 0x100 EXP DUP2 SLOAD DUP2 PUSH20 0xFFFFFFFFFFFFFFFFFFFFFFFFFFFFFFFFFFFFFFFF MUL NOT AND SWAP1 DUP4 PUSH20 0xFFFFFFFFFFFFFFFFFFFFFFFFFFFFFFFFFFFFFFFF AND MUL OR SWAP1 SSTORE POP PUSH1 0x20 DUP3 ADD MLOAD DUP2 PUSH0 ADD PUSH1 0x14 PUSH2 0x100 EXP DUP2 SLOAD DUP2 PUSH1 0xFF MUL NOT AND SWAP1 DUP4 PUSH1 0x3 DUP2 GT ISZERO PUSH2 0x284C JUMPI PUSH2 0x284B PUSH2 0x4666 JUMP JUMPDEST JUMPDEST MUL OR SWAP1 SSTORE POP PUSH1 0x40 DUP3 ADD MLOAD DUP2 PUSH1 0x1 ADD SSTORE PUSH1 0x60 DUP3 ADD MLOAD DUP2 PUSH1 0x2 ADD SSTORE POP POP PUSH0 PUSH1 0x1 PUSH1 0x8 PUSH0 DUP8 DUP2 MSTORE PUSH1 0x20 ADD SWAP1 DUP2 MSTORE PUSH1 0x20 ADD PUSH0 KECCAK256 DUP1 SLOAD SWAP1 POP PUSH2 0x2889 SWAP2 SWAP1 PUSH2 0x54B6 JUMP JUMPDEST SWAP1 POP PUSH1 0x1 DUP5 PUSH1 0x4 ADD PUSH0 DUP3 DUP3 SLOAD PUSH2 0x289F SWAP2 SWAP1 PUSH2 0x51EC JUMP JUMPDEST SWAP3 POP POP DUP2 SWAP1 SSTORE POP PUSH2 0x28C1 CALLER DUP7 PUSH1 0x1 PUSH1 0x40 MLOAD DUP1 PUSH1 0x20 ADD PUSH1 0x40 MSTORE DUP1 PUSH0 DUP2 MSTORE POP PUSH2 0x3215 JUMP JUMPDEST CALLER PUSH20 0xFFFFFFFFFFFFFFFFFFFFFFFFFFFFFFFFFFFFFFFF AND DUP6 PUSH32 0xC66714AC82C6B49D1BAF73A23208093F244FC265E1CE7E1412598A9FF1DA164 DUP4 PUSH1 0x40 MLOAD PUSH2 0x2908 SWAP2 SWAP1 PUSH2 0x3F19 JUMP JUMPDEST PUSH1 0x40 MLOAD DUP1 SWAP2 SUB SWAP1 LOG3 POP POP POP POP PUSH2 0x291C PUSH2 0x3000 JUMP JUMPDEST POP JUMP JUMPDEST PUSH0 PUSH1 0x1 PUSH0 DUP5 PUSH20 0xFFFFFFFFFFFFFFFFFFFFFFFFFFFFFFFFFFFFFFFF AND PUSH20 0xFFFFFFFFFFFFFFFFFFFFFFFFFFFFFFFFFFFFFFFF AND DUP2 MSTORE PUSH1 0x20 ADD SWAP1 DUP2 MSTORE PUSH1 0x20 ADD PUSH0 KECCAK256 PUSH0 DUP4 PUSH20 0xFFFFFFFFFFFFFFFFFFFFFFFFFFFFFFFFFFFFFFFF AND PUSH20 0xFFFFFFFFFFFFFFFFFFFFFFFFFFFFFFFFFFFFFFFF AND DUP2 MSTORE PUSH1 0x20 ADD SWAP1 DUP2 MSTORE PUSH1 0x20 ADD PUSH0 KECCAK256 PUSH0 SWAP1 SLOAD SWAP1 PUSH2 0x100 EXP SWAP1 DIV PUSH1 0xFF AND SWAP1 POP SWAP3 SWAP2 POP POP JUMP JUMPDEST PUSH2 0x29B5 PUSH2 0x3DE0 JUMP JUMPDEST PUSH1 0x7 PUSH0 DUP4 DUP2 MSTORE PUSH1 0x20 ADD SWAP1 DUP2 MSTORE PUSH1 0x20 ADD PUSH0 KECCAK256 PUSH1 0x40 MLOAD DUP1 PUSH1 0xE0 ADD PUSH1 0x40 MSTORE SWAP1 DUP2 PUSH0 DUP3 ADD SLOAD DUP2 MSTORE PUSH1 0x20 ADD PUSH1 0x1 DUP3 ADD DUP1 SLOAD PUSH2 0x29EA SWAP1 PUSH2 0x4D0D JUMP JUMPDEST DUP1 PUSH1 0x1F ADD PUSH1 0x20 DUP1 SWAP2 DIV MUL PUSH1 0x20 ADD PUSH1 0x40 MLOAD SWAP1 DUP2 ADD PUSH1 0x40 MSTORE DUP1 SWAP3 SWAP2 SWAP1 DUP2 DUP2 MSTORE PUSH1 0x20 ADD DUP3 DUP1 SLOAD PUSH2 0x2A16 SWAP1 PUSH2 0x4D0D JUMP JUMPDEST DUP1 ISZERO PUSH2 0x2A61 JUMPI DUP1 PUSH1 0x1F LT PUSH2 0x2A38 JUMPI PUSH2 0x100 DUP1 DUP4 SLOAD DIV MUL DUP4 MSTORE SWAP2 PUSH1 0x20 ADD SWAP2 PUSH2 0x2A61 JUMP JUMPDEST DUP3 ADD SWAP2 SWAP1 PUSH0 MSTORE PUSH1 0x20 PUSH0 KECCAK256 SWAP1 JUMPDEST DUP2 SLOAD DUP2 MSTORE SWAP1 PUSH1 0x1 ADD SWAP1 PUSH1 0x20 ADD DUP1 DUP4 GT PUSH2 0x2A44 JUMPI DUP3 SWAP1 SUB PUSH1 0x1F AND DUP3 ADD SWAP2 JUMPDEST POP POP POP POP POP DUP2 MSTORE PUSH1 0x20 ADD PUSH1 0x2 DUP3 ADD DUP1 SLOAD PUSH2 0x2A7A SWAP1 PUSH2 0x4D0D JUMP JUMPDEST DUP1 PUSH1 0x1F ADD PUSH1 0x20 DUP1 SWAP2 DIV MUL PUSH1 0x20 ADD PUSH1 0x40 MLOAD SWAP1 DUP2 ADD PUSH1 0x40 MSTORE DUP1 SWAP3 SWAP2 SWAP1 DUP2 DUP2 MSTORE PUSH1 0x20 ADD DUP3 DUP1 SLOAD PUSH2 0x2AA6 SWAP1 PUSH2 0x4D0D JUMP JUMPDEST DUP1 ISZERO PUSH2 0x2AF1 JUMPI DUP1 PUSH1 0x1F LT PUSH2 0x2AC8 JUMPI PUSH2 0x100 DUP1 DUP4 SLOAD DIV MUL DUP4 MSTORE SWAP2 PUSH1 0x20 ADD SWAP2 PUSH2 0x2AF1 JUMP JUMPDEST DUP3 ADD SWAP2 SWAP1 PUSH0 MSTORE PUSH1 0x20 PUSH0 KECCAK256 SWAP1 JUMPDEST DUP2 SLOAD DUP2 MSTORE SWAP1 PUSH1 0x1 ADD SWAP1 PUSH1 0x20 ADD DUP1 DUP4 GT PUSH2 0x2AD4 JUMPI DUP3 SWAP1 SUB PUSH1 0x1F AND DUP3 ADD SWAP2 JUMPDEST POP POP POP POP POP DUP2 MSTORE PUSH1 0x20 ADD PUSH1 0x3 DUP3 ADD SLOAD DUP2 MSTORE PUSH1 0x20 ADD PUSH1 0x4 DUP3 ADD SLOAD DUP2 MSTORE PUSH1 0x20 ADD PUSH1 0x5 DUP3 ADD SLOAD DUP2 MSTORE PUSH1 0x20 ADD PUSH1 0x6 DUP3 ADD PUSH0 SWAP1 SLOAD SWAP1 PUSH2 0x100 EXP SWAP1 DIV PUSH20 0xFFFFFFFFFFFFFFFFFFFFFFFFFFFFFFFFFFFFFFFF AND PUSH20 0xFFFFFFFFFFFFFFFFFFFFFFFFFFFFFFFFFFFFFFFF AND PUSH20 0xFFFFFFFFFFFFFFFFFFFFFFFFFFFFFFFFFFFFFFFF AND DUP2 MSTORE POP POP SWAP1 POP SWAP2 SWAP1 POP JUMP JUMPDEST PUSH0 PUSH4 0xF23A6E61 PUSH1 0xE0 SHL SWAP1 POP SWAP6 SWAP5 POP POP POP POP POP JUMP JUMPDEST PUSH0 PUSH2 0x2B91 PUSH2 0x2CBC JUMP JUMPDEST SWAP1 POP DUP1 PUSH20 0xFFFFFFFFFFFFFFFFFFFFFFFFFFFFFFFFFFFFFFFF AND DUP7 PUSH20 0xFFFFFFFFFFFFFFFFFFFFFFFFFFFFFFFFFFFFFFFF AND EQ ISZERO DUP1 ISZERO PUSH2 0x2BD6 JUMPI POP PUSH2 0x2BD4 DUP7 DUP3 PUSH2 0x291F JUMP JUMPDEST ISZERO JUMPDEST ISZERO PUSH2 0x2C1A JUMPI DUP1 DUP7 PUSH1 0x40 MLOAD PUSH32 0xE237D92200000000000000000000000000000000000000000000000000000000 DUP2 MSTORE PUSH1 0x4 ADD PUSH2 0x2C11 SWAP3 SWAP2 SWAP1 PUSH2 0x503B JUMP JUMPDEST PUSH1 0x40 MLOAD DUP1 SWAP2 SUB SWAP1 REVERT JUMPDEST PUSH2 0x2C27 DUP7 DUP7 DUP7 DUP7 DUP7 PUSH2 0x32AA JUMP JUMPDEST POP POP POP POP POP POP JUMP JUMPDEST PUSH0 PUSH32 0x7965DB0B00000000000000000000000000000000000000000000000000000000 PUSH28 0xFFFFFFFFFFFFFFFFFFFFFFFFFFFFFFFFFFFFFFFFFFFFFFFFFFFFFFFF NOT AND DUP3 PUSH28 0xFFFFFFFFFFFFFFFFFFFFFFFFFFFFFFFFFFFFFFFFFFFFFFFFFFFFFFFF NOT AND EQ DUP1 PUSH2 0x2CA1 JUMPI POP PUSH2 0x2CA0 DUP3 PUSH2 0x33B0 JUMP JUMPDEST JUMPDEST SWAP1 POP SWAP2 SWAP1 POP JUMP JUMPDEST PUSH2 0x2CB9 DUP2 PUSH2 0x2CB4 PUSH2 0x2CBC JUMP JUMPDEST PUSH2 0x3429 JUMP JUMPDEST POP JUMP JUMPDEST PUSH0 CALLER SWAP1 POP SWAP1 JUMP JUMPDEST PUSH0 PUSH20 0xFFFFFFFFFFFFFFFFFFFFFFFFFFFFFFFFFFFFFFFF AND DUP5 PUSH20 0xFFFFFFFFFFFFFFFFFFFFFFFFFFFFFFFFFFFFFFFF AND SUB PUSH2 0x2D33 JUMPI PUSH0 PUSH1 0x40 MLOAD PUSH32 0x57F447CE00000000000000000000000000000000000000000000000000000000 DUP2 MSTORE PUSH1 0x4 ADD PUSH2 0x2D2A SWAP2 SWAP1 PUSH2 0x5062 JUMP JUMPDEST PUSH1 0x40 MLOAD DUP1 SWAP2 SUB SWAP1 REVERT JUMPDEST PUSH0 PUSH20 0xFFFFFFFFFFFFFFFFFFFFFFFFFFFFFFFFFFFFFFFF AND DUP6 PUSH20 0xFFFFFFFFFFFFFFFFFFFFFFFFFFFFFFFFFFFFFFFF AND SUB PUSH2 0x2DA3 JUMPI PUSH0 PUSH1 0x40 MLOAD PUSH32 0x1A8351400000000000000000000000000000000000000000000000000000000 DUP2 MSTORE PUSH1 0x4 ADD PUSH2 0x2D9A SWAP2 SWAP1 PUSH2 0x5062 JUMP JUMPDEST PUSH1 0x40 MLOAD DUP1 SWAP2 SUB SWAP1 REVERT JUMPDEST PUSH2 0x2DB0 DUP6 DUP6 DUP6 DUP6 DUP6 PUSH2 0x347A JUMP JUMPDEST POP POP POP POP POP JUMP JUMPDEST PUSH0 PUSH2 0x2DC2 DUP4 DUP4 PUSH2 0x17BE JUMP JUMPDEST PUSH2 0x2E97 JUMPI PUSH1 0x1 PUSH1 0x3 PUSH0 DUP6 DUP2 MSTORE PUSH1 0x20 ADD SWAP1 DUP2 MSTORE PUSH1 0x20 ADD PUSH0 KECCAK256 PUSH0 ADD PUSH0 DUP5 PUSH20 0xFFFFFFFFFFFFFFFFFFFFFFFFFFFFFFFFFFFFFFFF AND PUSH20 0xFFFFFFFFFFFFFFFFFFFFFFFFFFFFFFFFFFFFFFFF AND DUP2 MSTORE PUSH1 0x20 ADD SWAP1 DUP2 MSTORE PUSH1 0x20 ADD PUSH0 KECCAK256 PUSH0 PUSH2 0x100 EXP DUP2 SLOAD DUP2 PUSH1 0xFF MUL NOT AND SWAP1 DUP4 ISZERO ISZERO MUL OR SWAP1 SSTORE POP PUSH2 0x2E34 PUSH2 0x2CBC JUMP JUMPDEST PUSH20 0xFFFFFFFFFFFFFFFFFFFFFFFFFFFFFFFFFFFFFFFF AND DUP3 PUSH20 0xFFFFFFFFFFFFFFFFFFFFFFFFFFFFFFFFFFFFFFFF AND DUP5 PUSH32 0x2F8788117E7EFF1D82E926EC794901D17C78024A50270940304540A733656F0D PUSH1 0x40 MLOAD PUSH1 0x40 MLOAD DUP1 SWAP2 SUB SWAP1 LOG4 PUSH1 0x1 SWAP1 POP PUSH2 0x2E9B JUMP JUMPDEST PUSH0 SWAP1 POP JUMPDEST SWAP3 SWAP2 POP POP JUMP JUMPDEST PUSH0 PUSH2 0x2EAC DUP4 DUP4 PUSH2 0x17BE JUMP JUMPDEST ISZERO PUSH2 0x2F81 JUMPI PUSH0 PUSH1 0x3 PUSH0 DUP6 DUP2 MSTORE PUSH1 0x20 ADD SWAP1 DUP2 MSTORE PUSH1 0x20 ADD PUSH0 KECCAK256 PUSH0 ADD PUSH0 DUP5 PUSH20 0xFFFFFFFFFFFFFFFFFFFFFFFFFFFFFFFFFFFFFFFF AND PUSH20 0xFFFFFFFFFFFFFFFFFFFFFFFFFFFFFFFFFFFFFFFF AND DUP2 MSTORE PUSH1 0x20 ADD SWAP1 DUP2 MSTORE PUSH1 0x20 ADD PUSH0 KECCAK256 PUSH0 PUSH2 0x100 EXP DUP2 SLOAD DUP2 PUSH1 0xFF MUL NOT AND SWAP1 DUP4 ISZERO ISZERO MUL OR SWAP1 SSTORE POP PUSH2 0x2F1E PUSH2 0x2CBC JUMP JUMPDEST PUSH20 0xFFFFFFFFFFFFFFFFFFFFFFFFFFFFFFFFFFFFFFFF AND DUP3 PUSH20 0xFFFFFFFFFFFFFFFFFFFFFFFFFFFFFFFFFFFFFFFF AND DUP5 PUSH32 0xF6391F5C32D9C69D2A47EA670B442974B53935D1EDC7FD64EB21E047A839171B PUSH1 0x40 MLOAD PUSH1 0x40 MLOAD DUP1 SWAP2 SUB SWAP1 LOG4 PUSH1 0x1 SWAP1 POP PUSH2 0x2F85 JUMP JUMPDEST PUSH0 SWAP1 POP JUMPDEST SWAP3 SWAP2 POP POP JUMP JUMPDEST PUSH0 PUSH1 0x20 DUP3 MUL PUSH1 0x20 DUP5 ADD ADD MLOAD SWAP1 POP SWAP3 SWAP2 POP POP JUMP JUMPDEST PUSH0 PUSH1 0x20 DUP3 MUL PUSH1 0x20 DUP5 ADD ADD MLOAD SWAP1 POP SWAP3 SWAP2 POP POP JUMP JUMPDEST PUSH1 0x2 PUSH1 0x4 SLOAD SUB PUSH2 0x2FF6 JUMPI PUSH1 0x40 MLOAD PUSH32 0x8C379A000000000000000000000000000000000000000000000000000000000 DUP2 MSTORE PUSH1 0x4 ADD PUSH2 0x2FED SWAP1 PUSH2 0x573B JUMP JUMPDEST PUSH1 0x40 MLOAD DUP1 SWAP2 SUB SWAP1 REVERT JUMPDEST PUSH1 0x2 PUSH1 0x4 DUP2 SWAP1 SSTORE POP JUMP JUMPDEST PUSH1 0x1 PUSH1 0x4 DUP2 SWAP1 SSTORE POP JUMP JUMPDEST PUSH0 PUSH20 0xFFFFFFFFFFFFFFFFFFFFFFFFFFFFFFFFFFFFFFFF AND DUP4 PUSH20 0xFFFFFFFFFFFFFFFFFFFFFFFFFFFFFFFFFFFFFFFF AND SUB PUSH2 0x307A JUMPI PUSH0 PUSH1 0x40 MLOAD PUSH32 0x1A8351400000000000000000000000000000000000000000000000000000000 DUP2 MSTORE PUSH1 0x4 ADD PUSH2 0x3071 SWAP2 SWAP1 PUSH2 0x5062 JUMP JUMPDEST PUSH1 0x40 MLOAD DUP1 SWAP2 SUB SWAP1 REVERT JUMPDEST PUSH0 DUP1 PUSH2 0x3086 DUP5 DUP5 PUSH2 0x3526 JUMP JUMPDEST SWAP2 POP SWAP2 POP PUSH2 0x30A5 DUP6 PUSH0 DUP5 DUP5 PUSH1 0x40 MLOAD DUP1 PUSH1 0x20 ADD PUSH1 0x40 MSTORE DUP1 PUSH0 DUP2 MSTORE POP PUSH2 0x347A JUMP JUMPDEST POP POP POP POP POP JUMP JUMPDEST PUSH0 PUSH20 0xFFFFFFFFFFFFFFFFFFFFFFFFFFFFFFFFFFFFFFFF AND DUP3 PUSH20 0xFFFFFFFFFFFFFFFFFFFFFFFFFFFFFFFFFFFFFFFF AND SUB PUSH2 0x311C JUMPI PUSH0 PUSH1 0x40 MLOAD PUSH32 0xCED3E10000000000000000000000000000000000000000000000000000000000 DUP2 MSTORE PUSH1 0x4 ADD PUSH2 0x3113 SWAP2 SWAP1 PUSH2 0x5062 JUMP JUMPDEST PUSH1 0x40 MLOAD DUP1 SWAP2 SUB SWAP1 REVERT JUMPDEST DUP1 PUSH1 0x1 PUSH0 DUP6 PUSH20 0xFFFFFFFFFFFFFFFFFFFFFFFFFFFFFFFFFFFFFFFF AND PUSH20 0xFFFFFFFFFFFFFFFFFFFFFFFFFFFFFFFFFFFFFFFF AND DUP2 MSTORE PUSH1 0x20 ADD SWAP1 DUP2 MSTORE PUSH1 0x20 ADD PUSH0 KECCAK256 PUSH0 DUP5 PUSH20 0xFFFFFFFFFFFFFFFFFFFFFFFFFFFFFFFFFFFFFFFF AND PUSH20 0xFFFFFFFFFFFFFFFFFFFFFFFFFFFFFFFFFFFFFFFF AND DUP2 MSTORE PUSH1 0x20 ADD SWAP1 DUP2 MSTORE PUSH1 0x20 ADD PUSH0 KECCAK256 PUSH0 PUSH2 0x100 EXP DUP2 SLOAD DUP2 PUSH1 0xFF MUL NOT AND SWAP1 DUP4 ISZERO ISZERO MUL OR SWAP1 SSTORE POP DUP2 PUSH20 0xFFFFFFFFFFFFFFFFFFFFFFFFFFFFFFFFFFFFFFFF AND DUP4 PUSH20 0xFFFFFFFFFFFFFFFFFFFFFFFFFFFFFFFFFFFFFFFF AND PUSH32 0x17307EAB39AB6107E8899845AD3D59BD9653F200F220920489CA2B5937696C31 DUP4 PUSH1 0x40 MLOAD PUSH2 0x3208 SWAP2 SWAP1 PUSH2 0x3FCC JUMP JUMPDEST PUSH1 0x40 MLOAD DUP1 SWAP2 SUB SWAP1 LOG3 POP POP POP JUMP JUMPDEST PUSH0 PUSH20 0xFFFFFFFFFFFFFFFFFFFFFFFFFFFFFFFFFFFFFFFF AND DUP5 PUSH20 0xFFFFFFFFFFFFFFFFFFFFFFFFFFFFFFFFFFFFFFFF AND SUB PUSH2 0x3285 JUMPI PUSH0 PUSH1 0x40 MLOAD PUSH32 0x57F447CE00000000000000000000000000000000000000000000000000000000 DUP2 MSTORE PUSH1 0x4 ADD PUSH2 0x327C SWAP2 SWAP1 PUSH2 0x5062 JUMP JUMPDEST PUSH1 0x40 MLOAD DUP1 SWAP2 SUB SWAP1 REVERT JUMPDEST PUSH0 DUP1 PUSH2 0x3291 DUP6 DUP6 PUSH2 0x3526 JUMP JUMPDEST SWAP2 POP SWAP2 POP PUSH2 0x32A2 PUSH0 DUP8 DUP5 DUP5 DUP8 PUSH2 0x347A JUMP JUMPDEST POP POP POP POP POP POP JUMP JUMPDEST PUSH0 PUSH20 0xFFFFFFFFFFFFFFFFFFFFFFFFFFFFFFFFFFFFFFFF AND DUP5 PUSH20 0xFFFFFFFFFFFFFFFFFFFFFFFFFFFFFFFFFFFFFFFF AND SUB PUSH2 0x331A JUMPI PUSH0 PUSH1 0x40 MLOAD PUSH32 0x57F447CE00000000000000000000000000000000000000000000000000000000 DUP2 MSTORE PUSH1 0x4 ADD PUSH2 0x3311 SWAP2 SWAP1 PUSH2 0x5062 JUMP JUMPDEST PUSH1 0x40 MLOAD DUP1 SWAP2 SUB SWAP1 REVERT JUMPDEST PUSH0 PUSH20 0xFFFFFFFFFFFFFFFFFFFFFFFFFFFFFFFFFFFFFFFF AND DUP6 PUSH20 0xFFFFFFFFFFFFFFFFFFFFFFFFFFFFFFFFFFFFFFFF AND SUB PUSH2 0x338A JUMPI PUSH0 PUSH1 0x40 MLOAD PUSH32 0x1A8351400000000000000000000000000000000000000000000000000000000 DUP2 MSTORE PUSH1 0x4 ADD PUSH2 0x3381 SWAP2 SWAP1 PUSH2 0x5062 JUMP JUMPDEST PUSH1 0x40 MLOAD DUP1 SWAP2 SUB SWAP1 REVERT JUMPDEST PUSH0 DUP1 PUSH2 0x3396 DUP6 DUP6 PUSH2 0x3526 JUMP JUMPDEST SWAP2 POP SWAP2 POP PUSH2 0x33A7 DUP8 DUP8 DUP5 DUP5 DUP8 PUSH2 0x347A JUMP JUMPDEST POP POP POP POP POP POP POP JUMP JUMPDEST PUSH0 PUSH32 0x4E2312E000000000000000000000000000000000000000000000000000000000 PUSH28 0xFFFFFFFFFFFFFFFFFFFFFFFFFFFFFFFFFFFFFFFFFFFFFFFFFFFFFFFF NOT AND DUP3 PUSH28 0xFFFFFFFFFFFFFFFFFFFFFFFFFFFFFFFFFFFFFFFFFFFFFFFFFFFFFFFF NOT AND EQ DUP1 PUSH2 0x3422 JUMPI POP PUSH2 0x3421 DUP3 PUSH2 0x3556 JUMP JUMPDEST JUMPDEST SWAP1 POP SWAP2 SWAP1 POP JUMP JUMPDEST PUSH2 0x3433 DUP3 DUP3 PUSH2 0x17BE JUMP JUMPDEST PUSH2 0x3476 JUMPI DUP1 DUP3 PUSH1 0x40 MLOAD PUSH32 0xE2517D3F00000000000000000000000000000000000000000000000000000000 DUP2 MSTORE PUSH1 0x4 ADD PUSH2 0x346D SWAP3 SWAP2 SWAP1 PUSH2 0x5759 JUMP JUMPDEST PUSH1 0x40 MLOAD DUP1 SWAP2 SUB SWAP1 REVERT JUMPDEST POP POP JUMP JUMPDEST PUSH2 0x3486 DUP6 DUP6 DUP6 DUP6 PUSH2 0x3637 JUMP JUMPDEST PUSH0 PUSH20 0xFFFFFFFFFFFFFFFFFFFFFFFFFFFFFFFFFFFFFFFF AND DUP5 PUSH20 0xFFFFFFFFFFFFFFFFFFFFFFFFFFFFFFFFFFFFFFFF AND EQ PUSH2 0x351F JUMPI PUSH0 PUSH2 0x34C2 PUSH2 0x2CBC JUMP JUMPDEST SWAP1 POP PUSH1 0x1 DUP5 MLOAD SUB PUSH2 0x350E JUMPI PUSH0 PUSH2 0x34E1 PUSH0 DUP7 PUSH2 0x2F9E SWAP1 SWAP2 SWAP1 PUSH4 0xFFFFFFFF AND JUMP JUMPDEST SWAP1 POP PUSH0 PUSH2 0x34F7 PUSH0 DUP7 PUSH2 0x2F9E SWAP1 SWAP2 SWAP1 PUSH4 0xFFFFFFFF AND JUMP JUMPDEST SWAP1 POP PUSH2 0x3507 DUP4 DUP10 DUP10 DUP6 DUP6 DUP10 PUSH2 0x39CD JUMP JUMPDEST POP POP PUSH2 0x351D JUMP JUMPDEST PUSH2 0x351C DUP2 DUP8 DUP8 DUP8 DUP8 DUP8 PUSH2 0x3B7C JUMP JUMPDEST JUMPDEST POP JUMPDEST POP POP POP POP POP JUMP JUMPDEST PUSH1 0x60 DUP1 PUSH1 0x40 MLOAD SWAP2 POP PUSH1 0x1 DUP3 MSTORE DUP4 PUSH1 0x20 DUP4 ADD MSTORE PUSH1 0x40 DUP3 ADD SWAP1 POP PUSH1 0x1 DUP2 MSTORE DUP3 PUSH1 0x20 DUP3 ADD MSTORE PUSH1 0x40 DUP2 ADD PUSH1 0x40 MSTORE SWAP3 POP SWAP3 SWAP1 POP JUMP JUMPDEST PUSH0 PUSH32 0xD9B67A2600000000000000000000000000000000000000000000000000000000 PUSH28 0xFFFFFFFFFFFFFFFFFFFFFFFFFFFFFFFFFFFFFFFFFFFFFFFFFFFFFFFF NOT AND DUP3 PUSH28 0xFFFFFFFFFFFFFFFFFFFFFFFFFFFFFFFFFFFFFFFFFFFFFFFFFFFFFFFF NOT AND EQ DUP1 PUSH2 0x3620 JUMPI POP PUSH32 0xE89341C00000000000000000000000000000000000000000000000000000000 PUSH28 0xFFFFFFFFFFFFFFFFFFFFFFFFFFFFFFFFFFFFFFFFFFFFFFFFFFFFFFFF NOT AND DUP3 PUSH28 0xFFFFFFFFFFFFFFFFFFFFFFFFFFFFFFFFFFFFFFFFFFFFFFFFFFFFFFFF NOT AND EQ JUMPDEST DUP1 PUSH2 0x3630 JUMPI POP PUSH2 0x362F DUP3 PUSH2 0x3D2B JUMP JUMPDEST JUMPDEST SWAP1 POP SWAP2 SWAP1 POP JUMP JUMPDEST DUP1 MLOAD DUP3 MLOAD EQ PUSH2 0x3681 JUMPI DUP2 MLOAD DUP2 MLOAD PUSH1 0x40 MLOAD PUSH32 0x5B05999100000000000000000000000000000000000000000000000000000000 DUP2 MSTORE PUSH1 0x4 ADD PUSH2 0x3678 SWAP3 SWAP2 SWAP1 PUSH2 0x5014 JUMP JUMPDEST PUSH1 0x40 MLOAD DUP1 SWAP2 SUB SWAP1 REVERT JUMPDEST PUSH0 PUSH2 0x368A PUSH2 0x2CBC JUMP JUMPDEST SWAP1 POP PUSH0 JUMPDEST DUP4 MLOAD DUP2 LT ISZERO PUSH2 0x388C JUMPI PUSH0 PUSH2 0x36AB DUP3 DUP7 PUSH2 0x2F9E SWAP1 SWAP2 SWAP1 PUSH4 0xFFFFFFFF AND JUMP JUMPDEST SWAP1 POP PUSH0 PUSH2 0x36C1 DUP4 DUP7 PUSH2 0x2F9E SWAP1 SWAP2 SWAP1 PUSH4 0xFFFFFFFF AND JUMP JUMPDEST SWAP1 POP PUSH0 PUSH20 0xFFFFFFFFFFFFFFFFFFFFFFFFFFFFFFFFFFFFFFFF AND DUP9 PUSH20 0xFFFFFFFFFFFFFFFFFFFFFFFFFFFFFFFFFFFFFFFF AND EQ PUSH2 0x37E4 JUMPI PUSH0 DUP1 PUSH0 DUP5 DUP2 MSTORE PUSH1 0x20 ADD SWAP1 DUP2 MSTORE PUSH1 0x20 ADD PUSH0 KECCAK256 PUSH0 DUP11 PUSH20 0xFFFFFFFFFFFFFFFFFFFFFFFFFFFFFFFFFFFFFFFF AND PUSH20 0xFFFFFFFFFFFFFFFFFFFFFFFFFFFFFFFFFFFFFFFF AND DUP2 MSTORE PUSH1 0x20 ADD SWAP1 DUP2 MSTORE PUSH1 0x20 ADD PUSH0 KECCAK256 SLOAD SWAP1 POP DUP2 DUP2 LT ISZERO PUSH2 0x3790 JUMPI DUP9 DUP2 DUP4 DUP6 PUSH1 0x40 MLOAD PUSH32 0x3DEE4C500000000000000000000000000000000000000000000000000000000 DUP2 MSTORE PUSH1 0x4 ADD PUSH2 0x3787 SWAP5 SWAP4 SWAP3 SWAP2 SWAP1 PUSH2 0x5780 JUMP JUMPDEST PUSH1 0x40 MLOAD DUP1 SWAP2 SUB SWAP1 REVERT JUMPDEST DUP2 DUP2 SUB PUSH0 DUP1 DUP6 DUP2 MSTORE PUSH1 0x20 ADD SWAP1 DUP2 MSTORE PUSH1 0x20 ADD PUSH0 KECCAK256 PUSH0 DUP12 PUSH20 0xFFFFFFFFFFFFFFFFFFFFFFFFFFFFFFFFFFFFFFFF AND PUSH20 0xFFFFFFFFFFFFFFFFFFFFFFFFFFFFFFFFFFFFFFFF AND DUP2 MSTORE PUSH1 0x20 ADD SWAP1 DUP2 MSTORE PUSH1 0x20 ADD PUSH0 KECCAK256 DUP2 SWAP1 SSTORE POP POP JUMPDEST PUSH0 PUSH20 0xFFFFFFFFFFFFFFFFFFFFFFFFFFFFFFFFFFFFFFFF AND DUP8 PUSH20 0xFFFFFFFFFFFFFFFFFFFFFFFFFFFFFFFFFFFFFFFF AND EQ PUSH2 0x3879 JUMPI DUP1 PUSH0 DUP1 DUP5 DUP2 MSTORE PUSH1 0x20 ADD SWAP1 DUP2 MSTORE PUSH1 0x20 ADD PUSH0 KECCAK256 PUSH0 DUP10 PUSH20 0xFFFFFFFFFFFFFFFFFFFFFFFFFFFFFFFFFFFFFFFF AND PUSH20 0xFFFFFFFFFFFFFFFFFFFFFFFFFFFFFFFFFFFFFFFF AND DUP2 MSTORE PUSH1 0x20 ADD SWAP1 DUP2 MSTORE PUSH1 0x20 ADD PUSH0 KECCAK256 PUSH0 DUP3 DUP3 SLOAD PUSH2 0x3871 SWAP2 SWAP1 PUSH2 0x51EC JUMP JUMPDEST SWAP3 POP POP DUP2 SWAP1 SSTORE POP JUMPDEST POP POP DUP1 PUSH2 0x3885 SWAP1 PUSH2 0x4D6A JUMP JUMPDEST SWAP1 POP PUSH2 0x368E JUMP JUMPDEST POP PUSH1 0x1 DUP4 MLOAD SUB PUSH2 0x3947 JUMPI PUSH0 PUSH2 0x38AA PUSH0 DUP6 PUSH2 0x2F9E SWAP1 SWAP2 SWAP1 PUSH4 0xFFFFFFFF AND JUMP JUMPDEST SWAP1 POP PUSH0 PUSH2 0x38C0 PUSH0 DUP6 PUSH2 0x2F9E SWAP1 SWAP2 SWAP1 PUSH4 0xFFFFFFFF AND JUMP JUMPDEST SWAP1 POP DUP6 PUSH20 0xFFFFFFFFFFFFFFFFFFFFFFFFFFFFFFFFFFFFFFFF AND DUP8 PUSH20 0xFFFFFFFFFFFFFFFFFFFFFFFFFFFFFFFFFFFFFFFF AND DUP5 PUSH20 0xFFFFFFFFFFFFFFFFFFFFFFFFFFFFFFFFFFFFFFFF AND PUSH32 0xC3D58168C5AE7397731D063D5BBF3D657854427343F4C083240F7AACAA2D0F62 DUP6 DUP6 PUSH1 0x40 MLOAD PUSH2 0x3938 SWAP3 SWAP2 SWAP1 PUSH2 0x5014 JUMP JUMPDEST PUSH1 0x40 MLOAD DUP1 SWAP2 SUB SWAP1 LOG4 POP POP PUSH2 0x39C6 JUMP JUMPDEST DUP4 PUSH20 0xFFFFFFFFFFFFFFFFFFFFFFFFFFFFFFFFFFFFFFFF AND DUP6 PUSH20 0xFFFFFFFFFFFFFFFFFFFFFFFFFFFFFFFFFFFFFFFF AND DUP3 PUSH20 0xFFFFFFFFFFFFFFFFFFFFFFFFFFFFFFFFFFFFFFFF AND PUSH32 0x4A39DC06D4C0DBC64B70AF90FD698A233A518AA5D07E595D983B8C0526C8F7FB DUP7 DUP7 PUSH1 0x40 MLOAD PUSH2 0x39BD SWAP3 SWAP2 SWAP1 PUSH2 0x57C3 JUMP JUMPDEST PUSH1 0x40 MLOAD DUP1 SWAP2 SUB SWAP1 LOG4 JUMPDEST POP POP POP POP POP JUMP JUMPDEST PUSH0 DUP5 PUSH20 0xFFFFFFFFFFFFFFFFFFFFFFFFFFFFFFFFFFFFFFFF AND EXTCODESIZE GT ISZERO PUSH2 0x3B74 JUMPI DUP4 PUSH20 0xFFFFFFFFFFFFFFFFFFFFFFFFFFFFFFFFFFFFFFFF AND PUSH4 0xF23A6E61 DUP8 DUP8 DUP7 DUP7 DUP7 PUSH1 0x40 MLOAD DUP7 PUSH4 0xFFFFFFFF AND PUSH1 0xE0 SHL DUP2 MSTORE PUSH1 0x4 ADD PUSH2 0x3A2D SWAP6 SWAP5 SWAP4 SWAP3 SWAP2 SWAP1 PUSH2 0x584A JUMP JUMPDEST PUSH1 0x20 PUSH1 0x40 MLOAD DUP1 DUP4 SUB DUP2 PUSH0 DUP8 GAS CALL SWAP3 POP POP POP DUP1 ISZERO PUSH2 0x3A68 JUMPI POP PUSH1 0x40 MLOAD RETURNDATASIZE PUSH1 0x1F NOT PUSH1 0x1F DUP3 ADD AND DUP3 ADD DUP1 PUSH1 0x40 MSTORE POP DUP2 ADD SWAP1 PUSH2 0x3A65 SWAP2 SWAP1 PUSH2 0x58B6 JUMP JUMPDEST PUSH1 0x1 JUMPDEST PUSH2 0x3AE9 JUMPI RETURNDATASIZE DUP1 PUSH0 DUP2 EQ PUSH2 0x3A96 JUMPI PUSH1 0x40 MLOAD SWAP2 POP PUSH1 0x1F NOT PUSH1 0x3F RETURNDATASIZE ADD AND DUP3 ADD PUSH1 0x40 MSTORE RETURNDATASIZE DUP3 MSTORE RETURNDATASIZE PUSH0 PUSH1 0x20 DUP5 ADD RETURNDATACOPY PUSH2 0x3A9B JUMP JUMPDEST PUSH1 0x60 SWAP2 POP JUMPDEST POP PUSH0 DUP2 MLOAD SUB PUSH2 0x3AE1 JUMPI DUP5 PUSH1 0x40 MLOAD PUSH32 0x57F447CE00000000000000000000000000000000000000000000000000000000 DUP2 MSTORE PUSH1 0x4 ADD PUSH2 0x3AD8 SWAP2 SWAP1 PUSH2 0x5062 JUMP JUMPDEST PUSH1 0x40 MLOAD DUP1 SWAP2 SUB SWAP1 REVERT JUMPDEST DUP1 MLOAD DUP2 PUSH1 0x20 ADD REVERT JUMPDEST PUSH4 0xF23A6E61 PUSH1 0xE0 SHL PUSH28 0xFFFFFFFFFFFFFFFFFFFFFFFFFFFFFFFFFFFFFFFFFFFFFFFFFFFFFFFF NOT AND DUP2 PUSH28 0xFFFFFFFFFFFFFFFFFFFFFFFFFFFFFFFFFFFFFFFFFFFFFFFFFFFFFFFF NOT AND EQ PUSH2 0x3B72 JUMPI DUP5 PUSH1 0x40 MLOAD PUSH32 0x57F447CE00000000000000000000000000000000000000000000000000000000 DUP2 MSTORE PUSH1 0x4 ADD PUSH2 0x3B69 SWAP2 SWAP1 PUSH2 0x5062 JUMP JUMPDEST PUSH1 0x40 MLOAD DUP1 SWAP2 SUB SWAP1 REVERT JUMPDEST POP JUMPDEST POP POP POP POP POP POP JUMP JUMPDEST PUSH0 DUP5 PUSH20 0xFFFFFFFFFFFFFFFFFFFFFFFFFFFFFFFFFFFFFFFF AND EXTCODESIZE GT ISZERO PUSH2 0x3D23 JUMPI DUP4 PUSH20 0xFFFFFFFFFFFFFFFFFFFFFFFFFFFFFFFFFFFFFFFF AND PUSH4 0xBC197C81 DUP8 DUP8 DUP7 DUP7 DUP7 PUSH1 0x40 MLOAD DUP7 PUSH4 0xFFFFFFFF AND PUSH1 0xE0 SHL DUP2 MSTORE PUSH1 0x4 ADD PUSH2 0x3BDC SWAP6 SWAP5 SWAP4 SWAP3 SWAP2 SWAP1 PUSH2 0x58E1 JUMP JUMPDEST PUSH1 0x20 PUSH1 0x40 MLOAD DUP1 DUP4 SUB DUP2 PUSH0 DUP8 GAS CALL SWAP3 POP POP POP DUP1 ISZERO PUSH2 0x3C17 JUMPI POP PUSH1 0x40 MLOAD RETURNDATASIZE PUSH1 0x1F NOT PUSH1 0x1F DUP3 ADD AND DUP3 ADD DUP1 PUSH1 0x40 MSTORE POP DUP2 ADD SWAP1 PUSH2 0x3C14 SWAP2 SWAP1 PUSH2 0x58B6 JUMP JUMPDEST PUSH1 0x1 JUMPDEST PUSH2 0x3C98 JUMPI RETURNDATASIZE DUP1 PUSH0 DUP2 EQ PUSH2 0x3C45 JUMPI PUSH1 0x40 MLOAD SWAP2 POP PUSH1 0x1F NOT PUSH1 0x3F RETURNDATASIZE ADD AND DUP3 ADD PUSH1 0x40 MSTORE RETURNDATASIZE DUP3 MSTORE RETURNDATASIZE PUSH0 PUSH1 0x20 DUP5 ADD RETURNDATACOPY PUSH2 0x3C4A JUMP JUMPDEST PUSH1 0x60 SWAP2 POP JUMPDEST POP PUSH0 DUP2 MLOAD SUB PUSH2 0x3C90 JUMPI DUP5 PUSH1 0x40 MLOAD PUSH32 0x57F447CE00000000000000000000000000000000000000000000000000000000 DUP2 MSTORE PUSH1 0x4 ADD PUSH2 0x3C87 SWAP2 SWAP1 PUSH2 0x5062 JUMP JUMPDEST PUSH1 0x40 MLOAD DUP1 SWAP2 SUB SWAP1 REVERT JUMPDEST DUP1 MLOAD DUP2 PUSH1 0x20 ADD REVERT JUMPDEST PUSH4 0xBC197C81 PUSH1 0xE0 SHL PUSH28 0xFFFFFFFFFFFFFFFFFFFFFFFFFFFFFFFFFFFFFFFFFFFFFFFFFFFFFFFF NOT AND DUP2 PUSH28 0xFFFFFFFFFFFFFFFFFFFFFFFFFFFFFFFFFFFFFFFFFFFFFFFFFFFFFFFF NOT AND EQ PUSH2 0x3D21 JUMPI DUP5 PUSH1 0x40 MLOAD PUSH32 0x57F447CE00000000000000000000000000000000000000000000000000000000 DUP2 MSTORE PUSH1 0x4 ADD PUSH2 0x3D18 SWAP2 SWAP1 PUSH2 0x5062 JUMP JUMPDEST PUSH1 0x40 MLOAD DUP1 SWAP2 SUB SWAP1 REVERT JUMPDEST POP JUMPDEST POP POP POP POP POP POP JUMP JUMPDEST PUSH0 PUSH32 0x1FFC9A700000000000000000000000000000000000000000000000000000000 PUSH28 0xFFFFFFFFFFFFFFFFFFFFFFFFFFFFFFFFFFFFFFFFFFFFFFFFFFFFFFFF NOT AND DUP3 PUSH28 0xFFFFFFFFFFFFFFFFFFFFFFFFFFFFFFFFFFFFFFFFFFFFFFFFFFFFFFFF NOT AND EQ SWAP1 POP SWAP2 SWAP1 POP JUMP JUMPDEST PUSH1 0x40 MLOAD DUP1 PUSH1 0x80 ADD PUSH1 0x40 MSTORE DUP1 PUSH0 PUSH20 0xFFFFFFFFFFFFFFFFFFFFFFFFFFFFFFFFFFFFFFFF AND DUP2 MSTORE PUSH1 0x20 ADD PUSH0 PUSH1 0x3 DUP2 GT ISZERO PUSH2 0x3DCE JUMPI PUSH2 0x3DCD PUSH2 0x4666 JUMP JUMPDEST JUMPDEST DUP2 MSTORE PUSH1 0x20 ADD PUSH0 DUP2 MSTORE PUSH1 0x20 ADD PUSH0 DUP2 MSTORE POP SWAP1 JUMP JUMPDEST PUSH1 0x40 MLOAD DUP1 PUSH1 0xE0 ADD PUSH1 0x40 MSTORE DUP1 PUSH0 DUP2 MSTORE PUSH1 0x20 ADD PUSH1 0x60 DUP2 MSTORE PUSH1 0x20 ADD PUSH1 0x60 DUP2 MSTORE PUSH1 0x20 ADD PUSH0 DUP2 MSTORE PUSH1 0x20 ADD PUSH0 DUP2 MSTORE PUSH1 0x20 ADD PUSH0 DUP2 MSTORE PUSH1 0x20 ADD PUSH0 PUSH20 0xFFFFFFFFFFFFFFFFFFFFFFFFFFFFFFFFFFFFFFFF AND DUP2 MSTORE POP SWAP1 JUMP JUMPDEST PUSH0 PUSH1 0x40 MLOAD SWAP1 POP SWAP1 JUMP JUMPDEST PUSH0 DUP1 REVERT JUMPDEST PUSH0 DUP1 REVERT JUMPDEST PUSH0 PUSH20 0xFFFFFFFFFFFFFFFFFFFFFFFFFFFFFFFFFFFFFFFF DUP3 AND SWAP1 POP SWAP2 SWAP1 POP JUMP JUMPDEST PUSH0 PUSH2 0x3E68 DUP3 PUSH2 0x3E3F JUMP JUMPDEST SWAP1 POP SWAP2 SWAP1 POP JUMP JUMPDEST PUSH2 0x3E78 DUP2 PUSH2 0x3E5E JUMP JUMPDEST DUP2 EQ PUSH2 0x3E82 JUMPI PUSH0 DUP1 REVERT JUMPDEST POP JUMP JUMPDEST PUSH0 DUP2 CALLDATALOAD SWAP1 POP PUSH2 0x3E93 DUP2 PUSH2 0x3E6F JUMP JUMPDEST SWAP3 SWAP2 POP POP JUMP JUMPDEST PUSH0 DUP2 SWAP1 POP SWAP2 SWAP1 POP JUMP JUMPDEST PUSH2 0x3EAB DUP2 PUSH2 0x3E99 JUMP JUMPDEST DUP2 EQ PUSH2 0x3EB5 JUMPI PUSH0 DUP1 REVERT JUMPDEST POP JUMP JUMPDEST PUSH0 DUP2 CALLDATALOAD SWAP1 POP PUSH2 0x3EC6 DUP2 PUSH2 0x3EA2 JUMP JUMPDEST SWAP3 SWAP2 POP POP JUMP JUMPDEST PUSH0 DUP1 PUSH1 0x40 DUP4 DUP6 SUB SLT ISZERO PUSH2 0x3EE2 JUMPI PUSH2 0x3EE1 PUSH2 0x3E37 JUMP JUMPDEST JUMPDEST PUSH0 PUSH2 0x3EEF DUP6 DUP3 DUP7 ADD PUSH2 0x3E85 JUMP JUMPDEST SWAP3 POP POP PUSH1 0x20 PUSH2 0x3F00 DUP6 DUP3 DUP7 ADD PUSH2 0x3EB8 JUMP JUMPDEST SWAP2 POP POP SWAP3 POP SWAP3 SWAP1 POP JUMP JUMPDEST PUSH2 0x3F13 DUP2 PUSH2 0x3E99 JUMP JUMPDEST DUP3 MSTORE POP POP JUMP JUMPDEST PUSH0 PUSH1 0x20 DUP3 ADD SWAP1 POP PUSH2 0x3F2C PUSH0 DUP4 ADD DUP5 PUSH2 0x3F0A JUMP JUMPDEST SWAP3 SWAP2 POP POP JUMP JUMPDEST PUSH0 PUSH32 0xFFFFFFFF00000000000000000000000000000000000000000000000000000000 DUP3 AND SWAP1 POP SWAP2 SWAP1 POP JUMP JUMPDEST PUSH2 0x3F66 DUP2 PUSH2 0x3F32 JUMP JUMPDEST DUP2 EQ PUSH2 0x3F70 JUMPI PUSH0 DUP1 REVERT JUMPDEST POP JUMP JUMPDEST PUSH0 DUP2 CALLDATALOAD SWAP1 POP PUSH2 0x3F81 DUP2 PUSH2 0x3F5D JUMP JUMPDEST SWAP3 SWAP2 POP POP JUMP JUMPDEST PUSH0 PUSH1 0x20 DUP3 DUP5 SUB SLT ISZERO PUSH2 0x3F9C JUMPI PUSH2 0x3F9B PUSH2 0x3E37 JUMP JUMPDEST JUMPDEST PUSH0 PUSH2 0x3FA9 DUP5 DUP3 DUP6 ADD PUSH2 0x3F73 JUMP JUMPDEST SWAP2 POP POP SWAP3 SWAP2 POP POP JUMP JUMPDEST PUSH0 DUP2 ISZERO ISZERO SWAP1 POP SWAP2 SWAP1 POP JUMP JUMPDEST PUSH2 0x3FC6 DUP2 PUSH2 0x3FB2 JUMP JUMPDEST DUP3 MSTORE POP POP JUMP JUMPDEST PUSH0 PUSH1 0x20 DUP3 ADD SWAP1 POP PUSH2 0x3FDF PUSH0 DUP4 ADD DUP5 PUSH2 0x3FBD JUMP JUMPDEST SWAP3 SWAP2 POP POP JUMP JUMPDEST PUSH0 PUSH1 0x20 DUP3 DUP5 SUB SLT ISZERO PUSH2 0x3FFA JUMPI PUSH2 0x3FF9 PUSH2 0x3E37 JUMP JUMPDEST JUMPDEST PUSH0 PUSH2 0x4007 DUP5 DUP3 DUP6 ADD PUSH2 0x3EB8 JUMP JUMPDEST SWAP2 POP POP SWAP3 SWAP2 POP POP JUMP JUMPDEST PUSH0 DUP2 MLOAD SWAP1 POP SWAP2 SWAP1 POP JUMP JUMPDEST PUSH0 DUP3 DUP3 MSTORE PUSH1 0x20 DUP3 ADD SWAP1 POP SWAP3 SWAP2 POP POP JUMP JUMPDEST PUSH0 JUMPDEST DUP4 DUP2 LT ISZERO PUSH2 0x4047 JUMPI DUP1 DUP3 ADD MLOAD DUP2 DUP5 ADD MSTORE PUSH1 0x20 DUP2 ADD SWAP1 POP PUSH2 0x402C JUMP JUMPDEST PUSH0 DUP5 DUP5 ADD MSTORE POP POP POP POP JUMP JUMPDEST PUSH0 PUSH1 0x1F NOT PUSH1 0x1F DUP4 ADD AND SWAP1 POP SWAP2 SWAP1 POP JUMP JUMPDEST PUSH0 PUSH2 0x406C DUP3 PUSH2 0x4010 JUMP JUMPDEST PUSH2 0x4076 DUP2 DUP6 PUSH2 0x401A JUMP JUMPDEST SWAP4 POP PUSH2 0x4086 DUP2 DUP6 PUSH1 0x20 DUP7 ADD PUSH2 0x402A JUMP JUMPDEST PUSH2 0x408F DUP2 PUSH2 0x4052 JUMP JUMPDEST DUP5 ADD SWAP2 POP POP SWAP3 SWAP2 POP POP JUMP JUMPDEST PUSH0 PUSH1 0x20 DUP3 ADD SWAP1 POP DUP2 DUP2 SUB PUSH0 DUP4 ADD MSTORE PUSH2 0x40B2 DUP2 DUP5 PUSH2 0x4062 JUMP JUMPDEST SWAP1 POP SWAP3 SWAP2 POP POP JUMP JUMPDEST PUSH0 DUP1 REVERT JUMPDEST PUSH0 DUP1 REVERT JUMPDEST PUSH32 0x4E487B7100000000000000000000000000000000000000000000000000000000 PUSH0 MSTORE PUSH1 0x41 PUSH1 0x4 MSTORE PUSH1 0x24 PUSH0 REVERT JUMPDEST PUSH2 0x40F8 DUP3 PUSH2 0x4052 JUMP JUMPDEST DUP2 ADD DUP2 DUP2 LT PUSH8 0xFFFFFFFFFFFFFFFF DUP3 GT OR ISZERO PUSH2 0x4117 JUMPI PUSH2 0x4116 PUSH2 0x40C2 JUMP JUMPDEST JUMPDEST DUP1 PUSH1 0x40 MSTORE POP POP POP JUMP JUMPDEST PUSH0 PUSH2 0x4129 PUSH2 0x3E2E JUMP JUMPDEST SWAP1 POP PUSH2 0x4135 DUP3 DUP3 PUSH2 0x40EF JUMP JUMPDEST SWAP2 SWAP1 POP JUMP JUMPDEST PUSH0 PUSH8 0xFFFFFFFFFFFFFFFF DUP3 GT ISZERO PUSH2 0x4154 JUMPI PUSH2 0x4153 PUSH2 0x40C2 JUMP JUMPDEST JUMPDEST PUSH2 0x415D DUP3 PUSH2 0x4052 JUMP JUMPDEST SWAP1 POP PUSH1 0x20 DUP2 ADD SWAP1 POP SWAP2 SWAP1 POP JUMP JUMPDEST DUP3 DUP2 DUP4 CALLDATACOPY PUSH0 DUP4 DUP4 ADD MSTORE POP POP POP JUMP JUMPDEST PUSH0 PUSH2 0x418A PUSH2 0x4185 DUP5 PUSH2 0x413A JUMP JUMPDEST PUSH2 0x4120 JUMP JUMPDEST SWAP1 POP DUP3 DUP2 MSTORE PUSH1 0x20 DUP2 ADD DUP5 DUP5 DUP5 ADD GT ISZERO PUSH2 0x41A6 JUMPI PUSH2 0x41A5 PUSH2 0x40BE JUMP JUMPDEST JUMPDEST PUSH2 0x41B1 DUP5 DUP3 DUP6 PUSH2 0x416A JUMP JUMPDEST POP SWAP4 SWAP3 POP POP POP JUMP JUMPDEST PUSH0 DUP3 PUSH1 0x1F DUP4 ADD SLT PUSH2 0x41CD JUMPI PUSH2 0x41CC PUSH2 0x40BA JUMP JUMPDEST JUMPDEST DUP2 CALLDATALOAD PUSH2 0x41DD DUP5 DUP3 PUSH1 0x20 DUP7 ADD PUSH2 0x4178 JUMP JUMPDEST SWAP2 POP POP SWAP3 SWAP2 POP POP JUMP JUMPDEST PUSH0 DUP1 PUSH0 DUP1 PUSH1 0x80 DUP6 DUP8 SUB SLT ISZERO PUSH2 0x41FE JUMPI PUSH2 0x41FD PUSH2 0x3E37 JUMP JUMPDEST JUMPDEST PUSH0 DUP6 ADD CALLDATALOAD PUSH8 0xFFFFFFFFFFFFFFFF DUP2 GT ISZERO PUSH2 0x421B JUMPI PUSH2 0x421A PUSH2 0x3E3B JUMP JUMPDEST JUMPDEST PUSH2 0x4227 DUP8 DUP3 DUP9 ADD PUSH2 0x41B9 JUMP JUMPDEST SWAP5 POP POP PUSH1 0x20 DUP6 ADD CALLDATALOAD PUSH8 0xFFFFFFFFFFFFFFFF DUP2 GT ISZERO PUSH2 0x4248 JUMPI PUSH2 0x4247 PUSH2 0x3E3B JUMP JUMPDEST JUMPDEST PUSH2 0x4254 DUP8 DUP3 DUP9 ADD PUSH2 0x41B9 JUMP JUMPDEST SWAP4 POP POP PUSH1 0x40 PUSH2 0x4265 DUP8 DUP3 DUP9 ADD PUSH2 0x3EB8 JUMP JUMPDEST SWAP3 POP POP PUSH1 0x60 PUSH2 0x4276 DUP8 DUP3 DUP9 ADD PUSH2 0x3EB8 JUMP JUMPDEST SWAP2 POP POP SWAP3 SWAP6 SWAP2 SWAP5 POP SWAP3 POP JUMP JUMPDEST PUSH0 DUP2 SWAP1 POP SWAP2 SWAP1 POP JUMP JUMPDEST PUSH2 0x4294 DUP2 PUSH2 0x4282 JUMP JUMPDEST DUP2 EQ PUSH2 0x429E JUMPI PUSH0 DUP1 REVERT JUMPDEST POP JUMP JUMPDEST PUSH0 DUP2 CALLDATALOAD SWAP1 POP PUSH2 0x42AF DUP2 PUSH2 0x428B JUMP JUMPDEST SWAP3 SWAP2 POP POP JUMP JUMPDEST PUSH0 PUSH1 0x20 DUP3 DUP5 SUB SLT ISZERO PUSH2 0x42CA JUMPI PUSH2 0x42C9 PUSH2 0x3E37 JUMP JUMPDEST JUMPDEST PUSH0 PUSH2 0x42D7 DUP5 DUP3 DUP6 ADD PUSH2 0x42A1 JUMP JUMPDEST SWAP2 POP POP SWAP3 SWAP2 POP POP JUMP JUMPDEST PUSH2 0x42E9 DUP2 PUSH2 0x4282 JUMP JUMPDEST DUP3 MSTORE POP POP JUMP JUMPDEST PUSH0 PUSH1 0x20 DUP3 ADD SWAP1 POP PUSH2 0x4302 PUSH0 DUP4 ADD DUP5 PUSH2 0x42E0 JUMP JUMPDEST SWAP3 SWAP2 POP POP JUMP JUMPDEST PUSH0 PUSH8 0xFFFFFFFFFFFFFFFF DUP3 GT ISZERO PUSH2 0x4322 JUMPI PUSH2 0x4321 PUSH2 0x40C2 JUMP JUMPDEST JUMPDEST PUSH1 0x20 DUP3 MUL SWAP1 POP PUSH1 0x20 DUP2 ADD SWAP1 POP SWAP2 SWAP1 POP JUMP JUMPDEST PUSH0 DUP1 REVERT JUMPDEST PUSH0 PUSH2 0x4349 PUSH2 0x4344 DUP5 PUSH2 0x4308 JUMP JUMPDEST PUSH2 0x4120 JUMP JUMPDEST SWAP1 POP DUP1 DUP4 DUP3 MSTORE PUSH1 0x20 DUP3 ADD SWAP1 POP PUSH1 0x20 DUP5 MUL DUP4 ADD DUP6 DUP2 GT ISZERO PUSH2 0x436C JUMPI PUSH2 0x436B PUSH2 0x4333 JUMP JUMPDEST JUMPDEST DUP4 JUMPDEST DUP2 DUP2 LT ISZERO PUSH2 0x4395 JUMPI DUP1 PUSH2 0x4381 DUP9 DUP3 PUSH2 0x3EB8 JUMP JUMPDEST DUP5 MSTORE PUSH1 0x20 DUP5 ADD SWAP4 POP POP PUSH1 0x20 DUP2 ADD SWAP1 POP PUSH2 0x436E JUMP JUMPDEST POP POP POP SWAP4 SWAP3 POP POP POP JUMP JUMPDEST PUSH0 DUP3 PUSH1 0x1F DUP4 ADD SLT PUSH2 0x43B3 JUMPI PUSH2 0x43B2 PUSH2 0x40BA JUMP JUMPDEST JUMPDEST DUP2 CALLDATALOAD PUSH2 0x43C3 DUP5 DUP3 PUSH1 0x20 DUP7 ADD PUSH2 0x4337 JUMP JUMPDEST SWAP2 POP POP SWAP3 SWAP2 POP POP JUMP JUMPDEST PUSH0 PUSH8 0xFFFFFFFFFFFFFFFF DUP3 GT ISZERO PUSH2 0x43E6 JUMPI PUSH2 0x43E5 PUSH2 0x40C2 JUMP JUMPDEST JUMPDEST PUSH2 0x43EF DUP3 PUSH2 0x4052 JUMP JUMPDEST SWAP1 POP PUSH1 0x20 DUP2 ADD SWAP1 POP SWAP2 SWAP1 POP JUMP JUMPDEST PUSH0 PUSH2 0x440E PUSH2 0x4409 DUP5 PUSH2 0x43CC JUMP JUMPDEST PUSH2 0x4120 JUMP JUMPDEST SWAP1 POP DUP3 DUP2 MSTORE PUSH1 0x20 DUP2 ADD DUP5 DUP5 DUP5 ADD GT ISZERO PUSH2 0x442A JUMPI PUSH2 0x4429 PUSH2 0x40BE JUMP JUMPDEST JUMPDEST PUSH2 0x4435 DUP5 DUP3 DUP6 PUSH2 0x416A JUMP JUMPDEST POP SWAP4 SWAP3 POP POP POP JUMP JUMPDEST PUSH0 DUP3 PUSH1 0x1F DUP4 ADD SLT PUSH2 0x4451 JUMPI PUSH2 0x4450 PUSH2 0x40BA JUMP JUMPDEST JUMPDEST DUP2 CALLDATALOAD PUSH2 0x4461 DUP5 DUP3 PUSH1 0x20 DUP7 ADD PUSH2 0x43FC JUMP JUMPDEST SWAP2 POP POP SWAP3 SWAP2 POP POP JUMP JUMPDEST PUSH0 DUP1 PUSH0 DUP1 PUSH0 PUSH1 0xA0 DUP7 DUP9 SUB SLT ISZERO PUSH2 0x4483 JUMPI PUSH2 0x4482 PUSH2 0x3E37 JUMP JUMPDEST JUMPDEST PUSH0 PUSH2 0x4490 DUP9 DUP3 DUP10 ADD PUSH2 0x3E85 JUMP JUMPDEST SWAP6 POP POP PUSH1 0x20 PUSH2 0x44A1 DUP9 DUP3 DUP10 ADD PUSH2 0x3E85 JUMP JUMPDEST SWAP5 POP POP PUSH1 0x40 DUP7 ADD CALLDATALOAD PUSH8 0xFFFFFFFFFFFFFFFF DUP2 GT ISZERO PUSH2 0x44C2 JUMPI PUSH2 0x44C1 PUSH2 0x3E3B JUMP JUMPDEST JUMPDEST PUSH2 0x44CE DUP9 DUP3 DUP10 ADD PUSH2 0x439F JUMP JUMPDEST SWAP4 POP POP PUSH1 0x60 DUP7 ADD CALLDATALOAD PUSH8 0xFFFFFFFFFFFFFFFF DUP2 GT ISZERO PUSH2 0x44EF JUMPI PUSH2 0x44EE PUSH2 0x3E3B JUMP JUMPDEST JUMPDEST PUSH2 0x44FB DUP9 DUP3 DUP10 ADD PUSH2 0x439F JUMP JUMPDEST SWAP3 POP POP PUSH1 0x80 DUP7 ADD CALLDATALOAD PUSH8 0xFFFFFFFFFFFFFFFF DUP2 GT ISZERO PUSH2 0x451C JUMPI PUSH2 0x451B PUSH2 0x3E3B JUMP JUMPDEST JUMPDEST PUSH2 0x4528 DUP9 DUP3 DUP10 ADD PUSH2 0x443D JUMP JUMPDEST SWAP2 POP POP SWAP3 SWAP6 POP SWAP3 SWAP6 SWAP1 SWAP4 POP JUMP JUMPDEST PUSH0 DUP1 PUSH1 0x40 DUP4 DUP6 SUB SLT ISZERO PUSH2 0x454B JUMPI PUSH2 0x454A PUSH2 0x3E37 JUMP JUMPDEST JUMPDEST PUSH0 PUSH2 0x4558 DUP6 DUP3 DUP7 ADD PUSH2 0x42A1 JUMP JUMPDEST SWAP3 POP POP PUSH1 0x20 PUSH2 0x4569 DUP6 DUP3 DUP7 ADD PUSH2 0x3E85 JUMP JUMPDEST SWAP2 POP POP SWAP3 POP SWAP3 SWAP1 POP JUMP JUMPDEST PUSH0 PUSH1 0x20 DUP3 DUP5 SUB SLT ISZERO PUSH2 0x4588 JUMPI PUSH2 0x4587 PUSH2 0x3E37 JUMP JUMPDEST JUMPDEST PUSH0 PUSH2 0x4595 DUP5 DUP3 DUP6 ADD PUSH2 0x3E85 JUMP JUMPDEST SWAP2 POP POP SWAP3 SWAP2 POP POP JUMP JUMPDEST PUSH2 0x45A7 DUP2 PUSH2 0x3E5E JUMP JUMPDEST DUP3 MSTORE POP POP JUMP JUMPDEST PUSH0 PUSH1 0xE0 DUP3 ADD SWAP1 POP PUSH2 0x45C0 PUSH0 DUP4 ADD DUP11 PUSH2 0x3F0A JUMP JUMPDEST DUP2 DUP2 SUB PUSH1 0x20 DUP4 ADD MSTORE PUSH2 0x45D2 DUP2 DUP10 PUSH2 0x4062 JUMP JUMPDEST SWAP1 POP DUP2 DUP2 SUB PUSH1 0x40 DUP4 ADD MSTORE PUSH2 0x45E6 DUP2 DUP9 PUSH2 0x4062 JUMP JUMPDEST SWAP1 POP PUSH2 0x45F5 PUSH1 0x60 DUP4 ADD DUP8 PUSH2 0x3F0A JUMP JUMPDEST PUSH2 0x4602 PUSH1 0x80 DUP4 ADD DUP7 PUSH2 0x3F0A JUMP JUMPDEST PUSH2 0x460F PUSH1 0xA0 DUP4 ADD DUP6 PUSH2 0x3F0A JUMP JUMPDEST PUSH2 0x461C PUSH1 0xC0 DUP4 ADD DUP5 PUSH2 0x459E JUMP JUMPDEST SWAP9 SWAP8 POP POP POP POP POP POP POP POP JUMP JUMPDEST PUSH0 DUP1 PUSH1 0x40 DUP4 DUP6 SUB SLT ISZERO PUSH2 0x463E JUMPI PUSH2 0x463D PUSH2 0x3E37 JUMP JUMPDEST JUMPDEST PUSH0 PUSH2 0x464B DUP6 DUP3 DUP7 ADD PUSH2 0x3EB8 JUMP JUMPDEST SWAP3 POP POP PUSH1 0x20 PUSH2 0x465C DUP6 DUP3 DUP7 ADD PUSH2 0x3EB8 JUMP JUMPDEST SWAP2 POP POP SWAP3 POP SWAP3 SWAP1 POP JUMP JUMPDEST PUSH32 0x4E487B7100000000000000000000000000000000000000000000000000000000 PUSH0 MSTORE PUSH1 0x21 PUSH1 0x4 MSTORE PUSH1 0x24 PUSH0 REVERT JUMPDEST PUSH1 0x4 DUP2 LT PUSH2 0x46A4 JUMPI PUSH2 0x46A3 PUSH2 0x4666 JUMP JUMPDEST JUMPDEST POP JUMP JUMPDEST PUSH0 DUP2 SWAP1 POP PUSH2 0x46B4 DUP3 PUSH2 0x4693 JUMP JUMPDEST SWAP2 SWAP1 POP JUMP JUMPDEST PUSH0 PUSH2 0x46C3 DUP3 PUSH2 0x46A7 JUMP JUMPDEST SWAP1 POP SWAP2 SWAP1 POP JUMP JUMPDEST PUSH2 0x46D3 DUP2 PUSH2 0x46B9 JUMP JUMPDEST DUP3 MSTORE POP POP JUMP JUMPDEST PUSH0 PUSH1 0x80 DUP3 ADD SWAP1 POP PUSH2 0x46EC PUSH0 DUP4 ADD DUP8 PUSH2 0x459E JUMP JUMPDEST PUSH2 0x46F9 PUSH1 0x20 DUP4 ADD DUP7 PUSH2 0x46CA JUMP JUMPDEST PUSH2 0x4706 PUSH1 0x40 DUP4 ADD DUP6 PUSH2 0x3F0A JUMP JUMPDEST PUSH2 0x4713 PUSH1 0x60 DUP4 ADD DUP5 PUSH2 0x3F0A JUMP JUMPDEST SWAP6 SWAP5 POP POP POP POP POP JUMP JUMPDEST PUSH0 PUSH8 0xFFFFFFFFFFFFFFFF DUP3 GT ISZERO PUSH2 0x4736 JUMPI PUSH2 0x4735 PUSH2 0x40C2 JUMP JUMPDEST JUMPDEST PUSH1 0x20 DUP3 MUL SWAP1 POP PUSH1 0x20 DUP2 ADD SWAP1 POP SWAP2 SWAP1 POP JUMP JUMPDEST PUSH0 PUSH2 0x4759 PUSH2 0x4754 DUP5 PUSH2 0x471C JUMP JUMPDEST PUSH2 0x4120 JUMP JUMPDEST SWAP1 POP DUP1 DUP4 DUP3 MSTORE PUSH1 0x20 DUP3 ADD SWAP1 POP PUSH1 0x20 DUP5 MUL DUP4 ADD DUP6 DUP2 GT ISZERO PUSH2 0x477C JUMPI PUSH2 0x477B PUSH2 0x4333 JUMP JUMPDEST JUMPDEST DUP4 JUMPDEST DUP2 DUP2 LT ISZERO PUSH2 0x47A5 JUMPI DUP1 PUSH2 0x4791 DUP9 DUP3 PUSH2 0x3E85 JUMP JUMPDEST DUP5 MSTORE PUSH1 0x20 DUP5 ADD SWAP4 POP POP PUSH1 0x20 DUP2 ADD SWAP1 POP PUSH2 0x477E JUMP JUMPDEST POP POP POP SWAP4 SWAP3 POP POP POP JUMP JUMPDEST PUSH0 DUP3 PUSH1 0x1F DUP4 ADD SLT PUSH2 0x47C3 JUMPI PUSH2 0x47C2 PUSH2 0x40BA JUMP JUMPDEST JUMPDEST DUP2 CALLDATALOAD PUSH2 0x47D3 DUP5 DUP3 PUSH1 0x20 DUP7 ADD PUSH2 0x4747 JUMP JUMPDEST SWAP2 POP POP SWAP3 SWAP2 POP POP JUMP JUMPDEST PUSH0 DUP1 PUSH1 0x40 DUP4 DUP6 SUB SLT ISZERO PUSH2 0x47F2 JUMPI PUSH2 0x47F1 PUSH2 0x3E37 JUMP JUMPDEST JUMPDEST PUSH0 DUP4 ADD CALLDATALOAD PUSH8 0xFFFFFFFFFFFFFFFF DUP2 GT ISZERO PUSH2 0x480F JUMPI PUSH2 0x480E PUSH2 0x3E3B JUMP JUMPDEST JUMPDEST PUSH2 0x481B DUP6 DUP3 DUP7 ADD PUSH2 0x47AF JUMP JUMPDEST SWAP3 POP POP PUSH1 0x20 DUP4 ADD CALLDATALOAD PUSH8 0xFFFFFFFFFFFFFFFF DUP2 GT ISZERO PUSH2 0x483C JUMPI PUSH2 0x483B PUSH2 0x3E3B JUMP JUMPDEST JUMPDEST PUSH2 0x4848 DUP6 DUP3 DUP7 ADD PUSH2 0x439F JUMP JUMPDEST SWAP2 POP POP SWAP3 POP SWAP3 SWAP1 POP JUMP JUMPDEST PUSH0 DUP2 MLOAD SWAP1 POP SWAP2 SWAP1 POP JUMP JUMPDEST PUSH0 DUP3 DUP3 MSTORE PUSH1 0x20 DUP3 ADD SWAP1 POP SWAP3 SWAP2 POP POP JUMP JUMPDEST PUSH0 DUP2 SWAP1 POP PUSH1 0x20 DUP3 ADD SWAP1 POP SWAP2 SWAP1 POP JUMP JUMPDEST PUSH2 0x4884 DUP2 PUSH2 0x3E99 JUMP JUMPDEST DUP3 MSTORE POP POP JUMP JUMPDEST PUSH0 PUSH2 0x4895 DUP4 DUP4 PUSH2 0x487B JUMP JUMPDEST PUSH1 0x20 DUP4 ADD SWAP1 POP SWAP3 SWAP2 POP POP JUMP JUMPDEST PUSH0 PUSH1 0x20 DUP3 ADD SWAP1 POP SWAP2 SWAP1 POP JUMP JUMPDEST PUSH0 PUSH2 0x48B7 DUP3 PUSH2 0x4852 JUMP JUMPDEST PUSH2 0x48C1 DUP2 DUP6 PUSH2 0x485C JUMP JUMPDEST SWAP4 POP PUSH2 0x48CC DUP4 PUSH2 0x486C JUMP JUMPDEST DUP1 PUSH0 JUMPDEST DUP4 DUP2 LT ISZERO PUSH2 0x48FC JUMPI DUP2 MLOAD PUSH2 0x48E3 DUP9 DUP3 PUSH2 0x488A JUMP JUMPDEST SWAP8 POP PUSH2 0x48EE DUP4 PUSH2 0x48A1 JUMP JUMPDEST SWAP3 POP POP PUSH1 0x1 DUP2 ADD SWAP1 POP PUSH2 0x48CF JUMP JUMPDEST POP DUP6 SWAP4 POP POP POP POP SWAP3 SWAP2 POP POP JUMP JUMPDEST PUSH0 PUSH1 0x20 DUP3 ADD SWAP1 POP DUP2 DUP2 SUB PUSH0 DUP4 ADD MSTORE PUSH2 0x4921 DUP2 DUP5 PUSH2 0x48AD JUMP JUMPDEST SWAP1 POP SWAP3 SWAP2 POP POP JUMP JUMPDEST PUSH0 DUP2 SWAP1 POP SWAP2 SWAP1 POP JUMP JUMPDEST PUSH0 PUSH2 0x494C PUSH2 0x4947 PUSH2 0x4942 DUP5 PUSH2 0x3E3F JUMP JUMPDEST PUSH2 0x4929 JUMP JUMPDEST PUSH2 0x3E3F JUMP JUMPDEST SWAP1 POP SWAP2 SWAP1 POP JUMP JUMPDEST PUSH0 PUSH2 0x495D DUP3 PUSH2 0x4932 JUMP JUMPDEST SWAP1 POP SWAP2 SWAP1 POP JUMP JUMPDEST PUSH0 PUSH2 0x496E DUP3 PUSH2 0x4953 JUMP JUMPDEST SWAP1 POP SWAP2 SWAP1 POP JUMP JUMPDEST PUSH2 0x497E DUP2 PUSH2 0x4964 JUMP JUMPDEST DUP3 MSTORE POP POP JUMP JUMPDEST PUSH0 PUSH1 0x20 DUP3 ADD SWAP1 POP PUSH2 0x4997 PUSH0 DUP4 ADD DUP5 PUSH2 0x4975 JUMP JUMPDEST SWAP3 SWAP2 POP POP JUMP JUMPDEST PUSH2 0x49A6 DUP2 PUSH2 0x3FB2 JUMP JUMPDEST DUP2 EQ PUSH2 0x49B0 JUMPI PUSH0 DUP1 REVERT JUMPDEST POP JUMP JUMPDEST PUSH0 DUP2 CALLDATALOAD SWAP1 POP PUSH2 0x49C1 DUP2 PUSH2 0x499D JUMP JUMPDEST SWAP3 SWAP2 POP POP JUMP JUMPDEST PUSH0 DUP1 PUSH0 PUSH1 0x60 DUP5 DUP7 SUB SLT ISZERO PUSH2 0x49DE JUMPI PUSH2 0x49DD PUSH2 0x3E37 JUMP JUMPDEST JUMPDEST PUSH0 PUSH2 0x49EB DUP7 DUP3 DUP8 ADD PUSH2 0x3EB8 JUMP JUMPDEST SWAP4 POP POP PUSH1 0x20 PUSH2 0x49FC DUP7 DUP3 DUP8 ADD PUSH2 0x3EB8 JUMP JUMPDEST SWAP3 POP POP PUSH1 0x40 PUSH2 0x4A0D DUP7 DUP3 DUP8 ADD PUSH2 0x49B3 JUMP JUMPDEST SWAP2 POP POP SWAP3 POP SWAP3 POP SWAP3 JUMP JUMPDEST PUSH0 DUP1 PUSH1 0x40 DUP4 DUP6 SUB SLT ISZERO PUSH2 0x4A2D JUMPI PUSH2 0x4A2C PUSH2 0x3E37 JUMP JUMPDEST JUMPDEST PUSH0 PUSH2 0x4A3A DUP6 DUP3 DUP7 ADD PUSH2 0x3E85 JUMP JUMPDEST SWAP3 POP POP PUSH1 0x20 PUSH2 0x4A4B DUP6 DUP3 DUP7 ADD PUSH2 0x49B3 JUMP JUMPDEST SWAP2 POP POP SWAP3 POP SWAP3 SWAP1 POP JUMP JUMPDEST PUSH2 0x4A5E DUP2 PUSH2 0x3F32 JUMP JUMPDEST DUP3 MSTORE POP POP JUMP JUMPDEST PUSH0 PUSH1 0x20 DUP3 ADD SWAP1 POP PUSH2 0x4A77 PUSH0 DUP4 ADD DUP5 PUSH2 0x4A55 JUMP JUMPDEST SWAP3 SWAP2 POP POP JUMP JUMPDEST PUSH2 0x4A86 DUP2 PUSH2 0x3E5E JUMP JUMPDEST DUP3 MSTORE POP POP JUMP JUMPDEST PUSH2 0x4A95 DUP2 PUSH2 0x46B9 JUMP JUMPDEST DUP3 MSTORE POP POP JUMP JUMPDEST PUSH1 0x80 DUP3 ADD PUSH0 DUP3 ADD MLOAD PUSH2 0x4AAF PUSH0 DUP6 ADD DUP3 PUSH2 0x4A7D JUMP JUMPDEST POP PUSH1 0x20 DUP3 ADD MLOAD PUSH2 0x4AC2 PUSH1 0x20 DUP6 ADD DUP3 PUSH2 0x4A8C JUMP JUMPDEST POP PUSH1 0x40 DUP3 ADD MLOAD PUSH2 0x4AD5 PUSH1 0x40 DUP6 ADD DUP3 PUSH2 0x487B JUMP JUMPDEST POP PUSH1 0x60 DUP3 ADD MLOAD PUSH2 0x4AE8 PUSH1 0x60 DUP6 ADD DUP3 PUSH2 0x487B JUMP JUMPDEST POP POP POP POP JUMP JUMPDEST PUSH0 PUSH1 0x80 DUP3 ADD SWAP1 POP PUSH2 0x4B01 PUSH0 DUP4 ADD DUP5 PUSH2 0x4A9B JUMP JUMPDEST SWAP3 SWAP2 POP POP JUMP JUMPDEST PUSH0 DUP1 PUSH1 0x40 DUP4 DUP6 SUB SLT ISZERO PUSH2 0x4B1D JUMPI PUSH2 0x4B1C PUSH2 0x3E37 JUMP JUMPDEST JUMPDEST PUSH0 PUSH2 0x4B2A DUP6 DUP3 DUP7 ADD PUSH2 0x3E85 JUMP JUMPDEST SWAP3 POP POP PUSH1 0x20 PUSH2 0x4B3B DUP6 DUP3 DUP7 ADD PUSH2 0x3E85 JUMP JUMPDEST SWAP2 POP POP SWAP3 POP SWAP3 SWAP1 POP JUMP JUMPDEST PUSH0 DUP3 DUP3 MSTORE PUSH1 0x20 DUP3 ADD SWAP1 POP SWAP3 SWAP2 POP POP JUMP JUMPDEST PUSH0 PUSH2 0x4B5F DUP3 PUSH2 0x4010 JUMP JUMPDEST PUSH2 0x4B69 DUP2 DUP6 PUSH2 0x4B45 JUMP JUMPDEST SWAP4 POP PUSH2 0x4B79 DUP2 DUP6 PUSH1 0x20 DUP7 ADD PUSH2 0x402A JUMP JUMPDEST PUSH2 0x4B82 DUP2 PUSH2 0x4052 JUMP JUMPDEST DUP5 ADD SWAP2 POP POP SWAP3 SWAP2 POP POP JUMP JUMPDEST PUSH0 PUSH1 0xE0 DUP4 ADD PUSH0 DUP4 ADD MLOAD PUSH2 0x4BA2 PUSH0 DUP7 ADD DUP3 PUSH2 0x487B JUMP JUMPDEST POP PUSH1 0x20 DUP4 ADD MLOAD DUP5 DUP3 SUB PUSH1 0x20 DUP7 ADD MSTORE PUSH2 0x4BBA DUP3 DUP3 PUSH2 0x4B55 JUMP JUMPDEST SWAP2 POP POP PUSH1 0x40 DUP4 ADD MLOAD DUP5 DUP3 SUB PUSH1 0x40 DUP7 ADD MSTORE PUSH2 0x4BD4 DUP3 DUP3 PUSH2 0x4B55 JUMP JUMPDEST SWAP2 POP POP PUSH1 0x60 DUP4 ADD MLOAD PUSH2 0x4BE9 PUSH1 0x60 DUP7 ADD DUP3 PUSH2 0x487B JUMP JUMPDEST POP PUSH1 0x80 DUP4 ADD MLOAD PUSH2 0x4BFC PUSH1 0x80 DUP7 ADD DUP3 PUSH2 0x487B JUMP JUMPDEST POP PUSH1 0xA0 DUP4 ADD MLOAD PUSH2 0x4C0F PUSH1 0xA0 DUP7 ADD DUP3 PUSH2 0x487B JUMP JUMPDEST POP PUSH1 0xC0 DUP4 ADD MLOAD PUSH2 0x4C22 PUSH1 0xC0 DUP7 ADD DUP3 PUSH2 0x4A7D JUMP JUMPDEST POP DUP1 SWAP2 POP POP SWAP3 SWAP2 POP POP JUMP JUMPDEST PUSH0 PUSH1 0x20 DUP3 ADD SWAP1 POP DUP2 DUP2 SUB PUSH0 DUP4 ADD MSTORE PUSH2 0x4C45 DUP2 DUP5 PUSH2 0x4B8D JUMP JUMPDEST SWAP1 POP SWAP3 SWAP2 POP POP JUMP JUMPDEST PUSH0 DUP1 PUSH0 DUP1 PUSH0 PUSH1 0xA0 DUP7 DUP9 SUB SLT ISZERO PUSH2 0x4C66 JUMPI PUSH2 0x4C65 PUSH2 0x3E37 JUMP JUMPDEST JUMPDEST PUSH0 PUSH2 0x4C73 DUP9 DUP3 DUP10 ADD PUSH2 0x3E85 JUMP JUMPDEST SWAP6 POP POP PUSH1 0x20 PUSH2 0x4C84 DUP9 DUP3 DUP10 ADD PUSH2 0x3E85 JUMP JUMPDEST SWAP5 POP POP PUSH1 0x40 PUSH2 0x4C95 DUP9 DUP3 DUP10 ADD PUSH2 0x3EB8 JUMP JUMPDEST SWAP4 POP POP PUSH1 0x60 PUSH2 0x4CA6 DUP9 DUP3 DUP10 ADD PUSH2 0x3EB8 JUMP JUMPDEST SWAP3 POP POP PUSH1 0x80 DUP7 ADD CALLDATALOAD PUSH8 0xFFFFFFFFFFFFFFFF DUP2 GT ISZERO PUSH2 0x4CC7 JUMPI PUSH2 0x4CC6 PUSH2 0x3E3B JUMP JUMPDEST JUMPDEST PUSH2 0x4CD3 DUP9 DUP3 DUP10 ADD PUSH2 0x443D JUMP JUMPDEST SWAP2 POP POP SWAP3 SWAP6 POP SWAP3 SWAP6 SWAP1 SWAP4 POP JUMP JUMPDEST PUSH32 0x4E487B7100000000000000000000000000000000000000000000000000000000 PUSH0 MSTORE PUSH1 0x22 PUSH1 0x4 MSTORE PUSH1 0x24 PUSH0 REVERT JUMPDEST PUSH0 PUSH1 0x2 DUP3 DIV SWAP1 POP PUSH1 0x1 DUP3 AND DUP1 PUSH2 0x4D24 JUMPI PUSH1 0x7F DUP3 AND SWAP2 POP JUMPDEST PUSH1 0x20 DUP3 LT DUP2 SUB PUSH2 0x4D37 JUMPI PUSH2 0x4D36 PUSH2 0x4CE0 JUMP JUMPDEST JUMPDEST POP SWAP2 SWAP1 POP JUMP JUMPDEST PUSH32 0x4E487B7100000000000000000000000000000000000000000000000000000000 PUSH0 MSTORE PUSH1 0x11 PUSH1 0x4 MSTORE PUSH1 0x24 PUSH0 REVERT JUMPDEST PUSH0 PUSH2 0x4D74 DUP3 PUSH2 0x3E99 JUMP JUMPDEST SWAP2 POP PUSH32 0xFFFFFFFFFFFFFFFFFFFFFFFFFFFFFFFFFFFFFFFFFFFFFFFFFFFFFFFFFFFFFFFF DUP3 SUB PUSH2 0x4DA6 JUMPI PUSH2 0x4DA5 PUSH2 0x4D3D JUMP JUMPDEST JUMPDEST PUSH1 0x1 DUP3 ADD SWAP1 POP SWAP2 SWAP1 POP JUMP JUMPDEST PUSH0 DUP2 SWAP1 POP DUP2 PUSH0 MSTORE PUSH1 0x20 PUSH0 KECCAK256 SWAP1 POP SWAP2 SWAP1 POP JUMP JUMPDEST PUSH0 PUSH1 0x20 PUSH1 0x1F DUP4 ADD DIV SWAP1 POP SWAP2 SWAP1 POP JUMP JUMPDEST PUSH0 DUP3 DUP3 SHL SWAP1 POP SWAP3 SWAP2 POP POP JUMP JUMPDEST PUSH0 PUSH1 0x8 DUP4 MUL PUSH2 0x4E0D PUSH32 0xFFFFFFFFFFFFFFFFFFFFFFFFFFFFFFFFFFFFFFFFFFFFFFFFFFFFFFFFFFFFFFFF DUP3 PUSH2 0x4DD2 JUMP JUMPDEST PUSH2 0x4E17 DUP7 DUP4 PUSH2 0x4DD2 JUMP JUMPDEST SWAP6 POP DUP1 NOT DUP5 AND SWAP4 POP DUP1 DUP7 AND DUP5 OR SWAP3 POP POP POP SWAP4 SWAP3 POP POP POP JUMP JUMPDEST PUSH0 PUSH2 0x4E49 PUSH2 0x4E44 PUSH2 0x4E3F DUP5 PUSH2 0x3E99 JUMP JUMPDEST PUSH2 0x4929 JUMP JUMPDEST PUSH2 0x3E99 JUMP JUMPDEST SWAP1 POP SWAP2 SWAP1 POP JUMP JUMPDEST PUSH0 DUP2 SWAP1 POP SWAP2 SWAP1 POP JUMP JUMPDEST PUSH2 0x4E62 DUP4 PUSH2 0x4E2F JUMP JUMPDEST PUSH2 0x4E76 PUSH2 0x4E6E DUP3 PUSH2 0x4E50 JUMP JUMPDEST DUP5 DUP5 SLOAD PUSH2 0x4DDE JUMP JUMPDEST DUP3 SSTORE POP POP POP POP JUMP JUMPDEST PUSH0 SWAP1 JUMP JUMPDEST PUSH2 0x4E8A PUSH2 0x4E7E JUMP JUMPDEST PUSH2 0x4E95 DUP2 DUP5 DUP5 PUSH2 0x4E59 JUMP JUMPDEST POP POP POP JUMP JUMPDEST JUMPDEST DUP2 DUP2 LT ISZERO PUSH2 0x4EB8 JUMPI PUSH2 0x4EAD PUSH0 DUP3 PUSH2 0x4E82 JUMP JUMPDEST PUSH1 0x1 DUP2 ADD SWAP1 POP PUSH2 0x4E9B JUMP JUMPDEST POP POP JUMP JUMPDEST PUSH1 0x1F DUP3 GT ISZERO PUSH2 0x4EFD JUMPI PUSH2 0x4ECE DUP2 PUSH2 0x4DB1 JUMP JUMPDEST PUSH2 0x4ED7 DUP5 PUSH2 0x4DC3 JUMP JUMPDEST DUP2 ADD PUSH1 0x20 DUP6 LT ISZERO PUSH2 0x4EE6 JUMPI DUP2 SWAP1 POP JUMPDEST PUSH2 0x4EFA PUSH2 0x4EF2 DUP6 PUSH2 0x4DC3 JUMP JUMPDEST DUP4 ADD DUP3 PUSH2 0x4E9A JUMP JUMPDEST POP POP JUMPDEST POP POP POP JUMP JUMPDEST PUSH0 DUP3 DUP3 SHR SWAP1 POP SWAP3 SWAP2 POP POP JUMP JUMPDEST PUSH0 PUSH2 0x4F1D PUSH0 NOT DUP5 PUSH1 0x8 MUL PUSH2 0x4F02 JUMP JUMPDEST NOT DUP1 DUP4 AND SWAP2 POP POP SWAP3 SWAP2 POP POP JUMP JUMPDEST PUSH0 PUSH2 0x4F35 DUP4 DUP4 PUSH2 0x4F0E JUMP JUMPDEST SWAP2 POP DUP3 PUSH1 0x2 MUL DUP3 OR SWAP1 POP SWAP3 SWAP2 POP POP JUMP JUMPDEST PUSH2 0x4F4E DUP3 PUSH2 0x4010 JUMP JUMPDEST PUSH8 0xFFFFFFFFFFFFFFFF DUP2 GT ISZERO PUSH2 0x4F67 JUMPI PUSH2 0x4F66 PUSH2 0x40C2 JUMP JUMPDEST JUMPDEST PUSH2 0x4F71 DUP3 SLOAD PUSH2 0x4D0D JUMP JUMPDEST PUSH2 0x4F7C DUP3 DUP3 DUP6 PUSH2 0x4EBC JUMP JUMPDEST PUSH0 PUSH1 0x20 SWAP1 POP PUSH1 0x1F DUP4 GT PUSH1 0x1 DUP2 EQ PUSH2 0x4FAD JUMPI PUSH0 DUP5 ISZERO PUSH2 0x4F9B JUMPI DUP3 DUP8 ADD MLOAD SWAP1 POP JUMPDEST PUSH2 0x4FA5 DUP6 DUP3 PUSH2 0x4F2A JUMP JUMPDEST DUP7 SSTORE POP PUSH2 0x500C JUMP JUMPDEST PUSH1 0x1F NOT DUP5 AND PUSH2 0x4FBB DUP7 PUSH2 0x4DB1 JUMP JUMPDEST PUSH0 JUMPDEST DUP3 DUP2 LT ISZERO PUSH2 0x4FE2 JUMPI DUP5 DUP10 ADD MLOAD DUP3 SSTORE PUSH1 0x1 DUP3 ADD SWAP2 POP PUSH1 0x20 DUP6 ADD SWAP5 POP PUSH1 0x20 DUP2 ADD SWAP1 POP PUSH2 0x4FBD JUMP JUMPDEST DUP7 DUP4 LT ISZERO PUSH2 0x4FFF JUMPI DUP5 DUP10 ADD MLOAD PUSH2 0x4FFB PUSH1 0x1F DUP10 AND DUP3 PUSH2 0x4F0E JUMP JUMPDEST DUP4 SSTORE POP JUMPDEST PUSH1 0x1 PUSH1 0x2 DUP9 MUL ADD DUP9 SSTORE POP POP POP JUMPDEST POP POP POP POP POP POP JUMP JUMPDEST PUSH0 PUSH1 0x40 DUP3 ADD SWAP1 POP PUSH2 0x5027 PUSH0 DUP4 ADD DUP6 PUSH2 0x3F0A JUMP JUMPDEST PUSH2 0x5034 PUSH1 0x20 DUP4 ADD DUP5 PUSH2 0x3F0A JUMP JUMPDEST SWAP4 SWAP3 POP POP POP JUMP JUMPDEST PUSH0 PUSH1 0x40 DUP3 ADD SWAP1 POP PUSH2 0x504E PUSH0 DUP4 ADD DUP6 PUSH2 0x459E JUMP JUMPDEST PUSH2 0x505B PUSH1 0x20 DUP4 ADD DUP5 PUSH2 0x459E JUMP JUMPDEST SWAP4 SWAP3 POP POP POP JUMP JUMPDEST PUSH0 PUSH1 0x20 DUP3 ADD SWAP1 POP PUSH2 0x5075 PUSH0 DUP4 ADD DUP5 PUSH2 0x459E JUMP JUMPDEST SWAP3 SWAP2 POP POP JUMP JUMPDEST PUSH32 0x4E487B7100000000000000000000000000000000000000000000000000000000 PUSH0 MSTORE PUSH1 0x32 PUSH1 0x4 MSTORE PUSH1 0x24 PUSH0 REVERT JUMPDEST PUSH32 0x537461626C65436F696E206E6F74207365740000000000000000000000000000 PUSH0 DUP3 ADD MSTORE POP JUMP JUMPDEST PUSH0 PUSH2 0x50DC PUSH1 0x12 DUP4 PUSH2 0x401A JUMP JUMPDEST SWAP2 POP PUSH2 0x50E7 DUP3 PUSH2 0x50A8 JUMP JUMPDEST PUSH1 0x20 DUP3 ADD SWAP1 POP SWAP2 SWAP1 POP JUMP JUMPDEST PUSH0 PUSH1 0x20 DUP3 ADD SWAP1 POP DUP2 DUP2 SUB PUSH0 DUP4 ADD MSTORE PUSH2 0x5109 DUP2 PUSH2 0x50D0 JUMP JUMPDEST SWAP1 POP SWAP2 SWAP1 POP JUMP JUMPDEST PUSH0 PUSH1 0x60 DUP3 ADD SWAP1 POP PUSH2 0x5123 PUSH0 DUP4 ADD DUP7 PUSH2 0x459E JUMP JUMPDEST PUSH2 0x5130 PUSH1 0x20 DUP4 ADD DUP6 PUSH2 0x459E JUMP JUMPDEST PUSH2 0x513D PUSH1 0x40 DUP4 ADD DUP5 PUSH2 0x3F0A JUMP JUMPDEST SWAP5 SWAP4 POP POP POP POP JUMP JUMPDEST PUSH0 DUP2 MLOAD SWAP1 POP PUSH2 0x5153 DUP2 PUSH2 0x499D JUMP JUMPDEST SWAP3 SWAP2 POP POP JUMP JUMPDEST PUSH0 PUSH1 0x20 DUP3 DUP5 SUB SLT ISZERO PUSH2 0x516E JUMPI PUSH2 0x516D PUSH2 0x3E37 JUMP JUMPDEST JUMPDEST PUSH0 PUSH2 0x517B DUP5 DUP3 DUP6 ADD PUSH2 0x5145 JUMP JUMPDEST SWAP2 POP POP SWAP3 SWAP2 POP POP JUMP JUMPDEST PUSH32 0x537461626C65436F696E207472616E73666572206661696C6564000000000000 PUSH0 DUP3 ADD MSTORE POP JUMP JUMPDEST PUSH0 PUSH2 0x51B8 PUSH1 0x1A DUP4 PUSH2 0x401A JUMP JUMPDEST SWAP2 POP PUSH2 0x51C3 DUP3 PUSH2 0x5184 JUMP JUMPDEST PUSH1 0x20 DUP3 ADD SWAP1 POP SWAP2 SWAP1 POP JUMP JUMPDEST PUSH0 PUSH1 0x20 DUP3 ADD SWAP1 POP DUP2 DUP2 SUB PUSH0 DUP4 ADD MSTORE PUSH2 0x51E5 DUP2 PUSH2 0x51AC JUMP JUMPDEST SWAP1 POP SWAP2 SWAP1 POP JUMP JUMPDEST PUSH0 PUSH2 0x51F6 DUP3 PUSH2 0x3E99 JUMP JUMPDEST SWAP2 POP PUSH2 0x5201 DUP4 PUSH2 0x3E99 JUMP JUMPDEST SWAP3 POP DUP3 DUP3 ADD SWAP1 POP DUP1 DUP3 GT ISZERO PUSH2 0x5219 JUMPI PUSH2 0x5218 PUSH2 0x4D3D JUMP JUMPDEST JUMPDEST SWAP3 SWAP2 POP POP JUMP JUMPDEST PUSH32 0x4F6E6C79206172746973742063616E20666F72636520636F6E6669726D000000 PUSH0 DUP3 ADD MSTORE POP JUMP JUMPDEST PUSH0 PUSH2 0x5253 PUSH1 0x1D DUP4 PUSH2 0x401A JUMP JUMPDEST SWAP2 POP PUSH2 0x525E DUP3 PUSH2 0x521F JUMP JUMPDEST PUSH1 0x20 DUP3 ADD SWAP1 POP SWAP2 SWAP1 POP JUMP JUMPDEST PUSH0 PUSH1 0x20 DUP3 ADD SWAP1 POP DUP2 DUP2 SUB PUSH0 DUP4 ADD MSTORE PUSH2 0x5280 DUP2 PUSH2 0x5247 JUMP JUMPDEST SWAP1 POP SWAP2 SWAP1 POP JUMP JUMPDEST PUSH32 0x496E76616C696420707572636861736520696E64657800000000000000000000 PUSH0 DUP3 ADD MSTORE POP JUMP JUMPDEST PUSH0 PUSH2 0x52BB PUSH1 0x16 DUP4 PUSH2 0x401A JUMP JUMPDEST SWAP2 POP PUSH2 0x52C6 DUP3 PUSH2 0x5287 JUMP JUMPDEST PUSH1 0x20 DUP3 ADD SWAP1 POP SWAP2 SWAP1 POP JUMP JUMPDEST PUSH0 PUSH1 0x20 DUP3 ADD SWAP1 POP DUP2 DUP2 SUB PUSH0 DUP4 ADD MSTORE PUSH2 0x52E8 DUP2 PUSH2 0x52AF JUMP JUMPDEST SWAP1 POP SWAP2 SWAP1 POP JUMP JUMPDEST PUSH32 0x5075726368617365206E6F742061637469766500000000000000000000000000 PUSH0 DUP3 ADD MSTORE POP JUMP JUMPDEST PUSH0 PUSH2 0x5323 PUSH1 0x13 DUP4 PUSH2 0x401A JUMP JUMPDEST SWAP2 POP PUSH2 0x532E DUP3 PUSH2 0x52EF JUMP JUMPDEST PUSH1 0x20 DUP3 ADD SWAP1 POP SWAP2 SWAP1 POP JUMP JUMPDEST PUSH0 PUSH1 0x20 DUP3 ADD SWAP1 POP DUP2 DUP2 SUB PUSH0 DUP4 ADD MSTORE PUSH2 0x5350 DUP2 PUSH2 0x5317 JUMP JUMPDEST SWAP1 POP SWAP2 SWAP1 POP JUMP JUMPDEST PUSH32 0x54696D656F7574206E6F74207265616368656400000000000000000000000000 PUSH0 DUP3 ADD MSTORE POP JUMP JUMPDEST PUSH0 PUSH2 0x538B PUSH1 0x13 DUP4 PUSH2 0x401A JUMP JUMPDEST SWAP2 POP PUSH2 0x5396 DUP3 PUSH2 0x5357 JUMP JUMPDEST PUSH1 0x20 DUP3 ADD SWAP1 POP SWAP2 SWAP1 POP JUMP JUMPDEST PUSH0 PUSH1 0x20 DUP3 ADD SWAP1 POP DUP2 DUP2 SUB PUSH0 DUP4 ADD MSTORE PUSH2 0x53B8 DUP2 PUSH2 0x537F JUMP JUMPDEST SWAP1 POP SWAP2 SWAP1 POP JUMP JUMPDEST PUSH0 PUSH1 0x40 DUP3 ADD SWAP1 POP PUSH2 0x53D2 PUSH0 DUP4 ADD DUP6 PUSH2 0x459E JUMP JUMPDEST PUSH2 0x53DF PUSH1 0x20 DUP4 ADD DUP5 PUSH2 0x3F0A JUMP JUMPDEST SWAP4 SWAP3 POP POP POP JUMP JUMPDEST PUSH32 0x526566756E64206661696C656400000000000000000000000000000000000000 PUSH0 DUP3 ADD MSTORE POP JUMP JUMPDEST PUSH0 PUSH2 0x541A PUSH1 0xD DUP4 PUSH2 0x401A JUMP JUMPDEST SWAP2 POP PUSH2 0x5425 DUP3 PUSH2 0x53E6 JUMP JUMPDEST PUSH1 0x20 DUP3 ADD SWAP1 POP SWAP2 SWAP1 POP JUMP JUMPDEST PUSH0 PUSH1 0x20 DUP3 ADD SWAP1 POP DUP2 DUP2 SUB PUSH0 DUP4 ADD MSTORE PUSH2 0x5447 DUP2 PUSH2 0x540E JUMP JUMPDEST SWAP1 POP SWAP2 SWAP1 POP JUMP JUMPDEST PUSH32 0x496E73756666696369656E74206465706F736974000000000000000000000000 PUSH0 DUP3 ADD MSTORE POP JUMP JUMPDEST PUSH0 PUSH2 0x5482 PUSH1 0x14 DUP4 PUSH2 0x401A JUMP JUMPDEST SWAP2 POP PUSH2 0x548D DUP3 PUSH2 0x544E JUMP JUMPDEST PUSH1 0x20 DUP3 ADD SWAP1 POP SWAP2 SWAP1 POP JUMP JUMPDEST PUSH0 PUSH1 0x20 DUP3 ADD SWAP1 POP DUP2 DUP2 SUB PUSH0 DUP4 ADD MSTORE PUSH2 0x54AF DUP2 PUSH2 0x5476 JUMP JUMPDEST SWAP1 POP SWAP2 SWAP1 POP JUMP JUMPDEST PUSH0 PUSH2 0x54C0 DUP3 PUSH2 0x3E99 JUMP JUMPDEST SWAP2 POP PUSH2 0x54CB DUP4 PUSH2 0x3E99 JUMP JUMPDEST SWAP3 POP DUP3 DUP3 SUB SWAP1 POP DUP2 DUP2 GT ISZERO PUSH2 0x54E3 JUMPI PUSH2 0x54E2 PUSH2 0x4D3D JUMP JUMPDEST JUMPDEST SWAP3 SWAP2 POP POP JUMP JUMPDEST PUSH32 0x5075726368617365206E6F7420696E2064697370757465000000000000000000 PUSH0 DUP3 ADD MSTORE POP JUMP JUMPDEST PUSH0 PUSH2 0x551D PUSH1 0x17 DUP4 PUSH2 0x401A JUMP JUMPDEST SWAP2 POP PUSH2 0x5528 DUP3 PUSH2 0x54E9 JUMP JUMPDEST PUSH1 0x20 DUP3 ADD SWAP1 POP SWAP2 SWAP1 POP JUMP JUMPDEST PUSH0 PUSH1 0x20 DUP3 ADD SWAP1 POP DUP2 DUP2 SUB PUSH0 DUP4 ADD MSTORE PUSH2 0x554A DUP2 PUSH2 0x5511 JUMP JUMPDEST SWAP1 POP SWAP2 SWAP1 POP JUMP JUMPDEST PUSH0 PUSH2 0x555B DUP3 PUSH2 0x3E99 JUMP JUMPDEST SWAP2 POP PUSH2 0x5566 DUP4 PUSH2 0x3E99 JUMP JUMPDEST SWAP3 POP DUP3 DUP3 MUL PUSH2 0x5574 DUP2 PUSH2 0x3E99 JUMP JUMPDEST SWAP2 POP DUP3 DUP3 DIV DUP5 EQ DUP4 ISZERO OR PUSH2 0x558B JUMPI PUSH2 0x558A PUSH2 0x4D3D JUMP JUMPDEST JUMPDEST POP SWAP3 SWAP2 POP POP JUMP JUMPDEST PUSH0 PUSH1 0x40 DUP3 ADD SWAP1 POP PUSH2 0x55A5 PUSH0 DUP4 ADD DUP6 PUSH2 0x3F0A JUMP JUMPDEST PUSH2 0x55B2 PUSH1 0x20 DUP4 ADD DUP5 PUSH2 0x3FBD JUMP JUMPDEST SWAP4 SWAP3 POP POP POP JUMP JUMPDEST PUSH32 0x43616C6C6572206973206E6F7420746865206275796572000000000000000000 PUSH0 DUP3 ADD MSTORE POP JUMP JUMPDEST PUSH0 PUSH2 0x55ED PUSH1 0x17 DUP4 PUSH2 0x401A JUMP JUMPDEST SWAP2 POP PUSH2 0x55F8 DUP3 PUSH2 0x55B9 JUMP JUMPDEST PUSH1 0x20 DUP3 ADD SWAP1 POP SWAP2 SWAP1 POP JUMP JUMPDEST PUSH0 PUSH1 0x20 DUP3 ADD SWAP1 POP DUP2 DUP2 SUB PUSH0 DUP4 ADD MSTORE PUSH2 0x561A DUP2 PUSH2 0x55E1 JUMP JUMPDEST SWAP1 POP SWAP2 SWAP1 POP JUMP JUMPDEST PUSH32 0x416C6C204E465473206D696E7465640000000000000000000000000000000000 PUSH0 DUP3 ADD MSTORE POP JUMP JUMPDEST PUSH0 PUSH2 0x5655 PUSH1 0xF DUP4 PUSH2 0x401A JUMP JUMPDEST SWAP2 POP PUSH2 0x5660 DUP3 PUSH2 0x5621 JUMP JUMPDEST PUSH1 0x20 DUP3 ADD SWAP1 POP SWAP2 SWAP1 POP JUMP JUMPDEST PUSH0 PUSH1 0x20 DUP3 ADD SWAP1 POP DUP2 DUP2 SUB PUSH0 DUP4 ADD MSTORE PUSH2 0x5682 DUP2 PUSH2 0x5649 JUMP JUMPDEST SWAP1 POP SWAP2 SWAP1 POP JUMP JUMPDEST PUSH32 0x417274697374206465706F73697420696E73756666696369656E740000000000 PUSH0 DUP3 ADD MSTORE POP JUMP JUMPDEST PUSH0 PUSH2 0x56BD PUSH1 0x1B DUP4 PUSH2 0x401A JUMP JUMPDEST SWAP2 POP PUSH2 0x56C8 DUP3 PUSH2 0x5689 JUMP JUMPDEST PUSH1 0x20 DUP3 ADD SWAP1 POP SWAP2 SWAP1 POP JUMP JUMPDEST PUSH0 PUSH1 0x20 DUP3 ADD SWAP1 POP DUP2 DUP2 SUB PUSH0 DUP4 ADD MSTORE PUSH2 0x56EA DUP2 PUSH2 0x56B1 JUMP JUMPDEST SWAP1 POP SWAP2 SWAP1 POP JUMP JUMPDEST PUSH32 0x5265656E7472616E637947756172643A207265656E7472616E742063616C6C00 PUSH0 DUP3 ADD MSTORE POP JUMP JUMPDEST PUSH0 PUSH2 0x5725 PUSH1 0x1F DUP4 PUSH2 0x401A JUMP JUMPDEST SWAP2 POP PUSH2 0x5730 DUP3 PUSH2 0x56F1 JUMP JUMPDEST PUSH1 0x20 DUP3 ADD SWAP1 POP SWAP2 SWAP1 POP JUMP JUMPDEST PUSH0 PUSH1 0x20 DUP3 ADD SWAP1 POP DUP2 DUP2 SUB PUSH0 DUP4 ADD MSTORE PUSH2 0x5752 DUP2 PUSH2 0x5719 JUMP JUMPDEST SWAP1 POP SWAP2 SWAP1 POP JUMP JUMPDEST PUSH0 PUSH1 0x40 DUP3 ADD SWAP1 POP PUSH2 0x576C PUSH0 DUP4 ADD DUP6 PUSH2 0x459E JUMP JUMPDEST PUSH2 0x5779 PUSH1 0x20 DUP4 ADD DUP5 PUSH2 0x42E0 JUMP JUMPDEST SWAP4 SWAP3 POP POP POP JUMP JUMPDEST PUSH0 PUSH1 0x80 DUP3 ADD SWAP1 POP PUSH2 0x5793 PUSH0 DUP4 ADD DUP8 PUSH2 0x459E JUMP JUMPDEST PUSH2 0x57A0 PUSH1 0x20 DUP4 ADD DUP7 PUSH2 0x3F0A JUMP JUMPDEST PUSH2 0x57AD PUSH1 0x40 DUP4 ADD DUP6 PUSH2 0x3F0A JUMP JUMPDEST PUSH2 0x57BA PUSH1 0x60 DUP4 ADD DUP5 PUSH2 0x3F0A JUMP JUMPDEST SWAP6 SWAP5 POP POP POP POP POP JUMP JUMPDEST PUSH0 PUSH1 0x40 DUP3 ADD SWAP1 POP DUP2 DUP2 SUB PUSH0 DUP4 ADD MSTORE PUSH2 0x57DB DUP2 DUP6 PUSH2 0x48AD JUMP JUMPDEST SWAP1 POP DUP2 DUP2 SUB PUSH1 0x20 DUP4 ADD MSTORE PUSH2 0x57EF DUP2 DUP5 PUSH2 0x48AD JUMP JUMPDEST SWAP1 POP SWAP4 SWAP3 POP POP POP JUMP JUMPDEST PUSH0 DUP2 MLOAD SWAP1 POP SWAP2 SWAP1 POP JUMP JUMPDEST PUSH0 DUP3 DUP3 MSTORE PUSH1 0x20 DUP3 ADD SWAP1 POP SWAP3 SWAP2 POP POP JUMP JUMPDEST PUSH0 PUSH2 0x581C DUP3 PUSH2 0x57F8 JUMP JUMPDEST PUSH2 0x5826 DUP2 DUP6 PUSH2 0x5802 JUMP JUMPDEST SWAP4 POP PUSH2 0x5836 DUP2 DUP6 PUSH1 0x20 DUP7 ADD PUSH2 0x402A JUMP JUMPDEST PUSH2 0x583F DUP2 PUSH2 0x4052 JUMP JUMPDEST DUP5 ADD SWAP2 POP POP SWAP3 SWAP2 POP POP JUMP JUMPDEST PUSH0 PUSH1 0xA0 DUP3 ADD SWAP1 POP PUSH2 0x585D PUSH0 DUP4 ADD DUP9 PUSH2 0x459E JUMP JUMPDEST PUSH2 0x586A PUSH1 0x20 DUP4 ADD DUP8 PUSH2 0x459E JUMP JUMPDEST PUSH2 0x5877 PUSH1 0x40 DUP4 ADD DUP7 PUSH2 0x3F0A JUMP JUMPDEST PUSH2 0x5884 PUSH1 0x60 DUP4 ADD DUP6 PUSH2 0x3F0A JUMP JUMPDEST DUP2 DUP2 SUB PUSH1 0x80 DUP4 ADD MSTORE PUSH2 0x5896 DUP2 DUP5 PUSH2 0x5812 JUMP JUMPDEST SWAP1 POP SWAP7 SWAP6 POP POP POP POP POP POP JUMP JUMPDEST PUSH0 DUP2 MLOAD SWAP1 POP PUSH2 0x58B0 DUP2 PUSH2 0x3F5D JUMP JUMPDEST SWAP3 SWAP2 POP POP JUMP JUMPDEST PUSH0 PUSH1 0x20 DUP3 DUP5 SUB SLT ISZERO PUSH2 0x58CB JUMPI PUSH2 0x58CA PUSH2 0x3E37 JUMP JUMPDEST JUMPDEST PUSH0 PUSH2 0x58D8 DUP5 DUP3 DUP6 ADD PUSH2 0x58A2 JUMP JUMPDEST SWAP2 POP POP SWAP3 SWAP2 POP POP JUMP JUMPDEST PUSH0 PUSH1 0xA0 DUP3 ADD SWAP1 POP PUSH2 0x58F4 PUSH0 DUP4 ADD DUP9 PUSH2 0x459E JUMP JUMPDEST PUSH2 0x5901 PUSH1 0x20 DUP4 ADD DUP8 PUSH2 0x459E JUMP JUMPDEST DUP2 DUP2 SUB PUSH1 0x40 DUP4 ADD MSTORE PUSH2 0x5913 DUP2 DUP7 PUSH2 0x48AD JUMP JUMPDEST SWAP1 POP DUP2 DUP2 SUB PUSH1 0x60 DUP4 ADD MSTORE PUSH2 0x5927 DUP2 DUP6 PUSH2 0x48AD JUMP JUMPDEST SWAP1 POP DUP2 DUP2 SUB PUSH1 0x80 DUP4 ADD MSTORE PUSH2 0x593B DUP2 DUP5 PUSH2 0x5812 JUMP JUMPDEST SWAP1 POP SWAP7 SWAP6 POP POP POP POP POP POP JUMP INVALID LOG2 PUSH5 0x6970667358 0x22 SLT KECCAK256 STATICCALL ADDMOD PUSH21 0x339A18471B5677356AC8997299D930AA382CFBE627 SELFDESTRUCT 0xEF PUSH28 0x4C5985981F64736F6C63430008140033000000000000000000000000 "
		},
		"gasEstimates": {
			"creation": {
				"codeDepositCost": "4581800",
				"executionCost": "infinite",
				"totalCost": "infinite"
			},
			"external": {
				"ARBITRATOR_ROLE()": "415",
				"ARTIST_ROLE()": "414",
				"CONFIRMATION_TIMEOUT()": "393",
				"DEFAULT_ADMIN_ROLE()": "375",
				"artistDeposits(address)": "2913",
				"artworkPurchases(uint256,uint256)": "infinite",
				"artworks(uint256)": "infinite",
				"balanceOf(address,uint256)": "infinite",
				"balanceOfBatch(address[],uint256[])": "infinite",
				"createArtwork(string,string,uint256,uint256)": "infinite",
				"currentArtworkId()": "2538",
				"depositStablecoin(uint256)": "infinite",
				"forceConfirmPurchase(uint256,uint256)": "infinite",
				"getArtworkInfo(uint256)": "infinite",
				"getPurchaseInfo(uint256,uint256)": "infinite",
				"getRoleAdmin(bytes32)": "infinite",
				"grantRole(bytes32,address)": "infinite",
				"hasRole(bytes32,address)": "3168",
				"isApprovedForAll(address,address)": "infinite",
				"mintArtwork(uint256)": "infinite",
				"onERC1155BatchReceived(address,address,uint256[],uint256[],bytes)": "infinite",
				"onERC1155Received(address,address,uint256,uint256,bytes)": "infinite",
				"renounceRole(bytes32,address)": "infinite",
				"revokeRole(bytes32,address)": "infinite",
				"safeBatchTransferFrom(address,address,uint256[],uint256[],bytes)": "infinite",
				"safeTransferFrom(address,address,uint256,uint256,bytes)": "infinite",
				"setApprovalForAll(address,bool)": "infinite",
				"setStableCoinAddress(address)": "infinite",
				"settlePurchaseDispute(uint256,uint256,bool)": "infinite",
				"stableCoin()": "infinite",
				"supportsInterface(bytes4)": "1050",
				"uri(uint256)": "infinite",
				"verifyPurchase(uint256,uint256,bool)": "infinite",
				"withdrawStablecoin(uint256)": "infinite"
			}
		},
		"methodIdentifiers": {
			"ARBITRATOR_ROLE()": "9cea0787",
			"ARTIST_ROLE()": "a966a0df",
			"CONFIRMATION_TIMEOUT()": "3a14af65",
			"DEFAULT_ADMIN_ROLE()": "a217fddf",
			"artistDeposits(address)": "ac76e521",
			"artworkPurchases(uint256,uint256)": "4bc9db85",
			"artworks(uint256)": "4b602673",
			"balanceOf(address,uint256)": "00fdd58e",
			"balanceOfBatch(address[],uint256[])": "4e1273f4",
			"createArtwork(string,string,uint256,uint256)": "237f1509",
			"currentArtworkId()": "18b6dcbc",
			"depositStablecoin(uint256)": "59f99c53",
			"forceConfirmPurchase(uint256,uint256)": "7365e8ec",
			"getArtworkInfo(uint256)": "f1f201e8",
			"getPurchaseInfo(uint256,uint256)": "da47635d",
			"getRoleAdmin(bytes32)": "248a9ca3",
			"grantRole(bytes32,address)": "2f2ff15d",
			"hasRole(bytes32,address)": "91d14854",
			"isApprovedForAll(address,address)": "e985e9c5",
			"mintArtwork(uint256)": "e82f4062",
			"onERC1155BatchReceived(address,address,uint256[],uint256[],bytes)": "bc197c81",
			"onERC1155Received(address,address,uint256,uint256,bytes)": "f23a6e61",
			"renounceRole(bytes32,address)": "36568abe",
			"revokeRole(bytes32,address)": "d547741f",
			"safeBatchTransferFrom(address,address,uint256[],uint256[],bytes)": "2eb2c2d6",
			"safeTransferFrom(address,address,uint256,uint256,bytes)": "f242432a",
			"setApprovalForAll(address,bool)": "a22cb465",
			"setStableCoinAddress(address)": "44879b3b",
			"settlePurchaseDispute(uint256,uint256,bool)": "9e56f275",
			"stableCoin()": "992642e5",
			"supportsInterface(bytes4)": "01ffc9a7",
			"uri(uint256)": "0e89341c",
			"verifyPurchase(uint256,uint256,bool)": "b89571c7",
			"withdrawStablecoin(uint256)": "870e974e"
		}
	},
	"abi": [
		{
			"inputs": [
				{
					"internalType": "string",
					"name": "uri",
					"type": "string"
				}
			],
			"stateMutability": "nonpayable",
			"type": "constructor"
		},
		{
			"inputs": [],
			"name": "AccessControlBadConfirmation",
			"type": "error"
		},
		{
			"inputs": [
				{
					"internalType": "address",
					"name": "account",
					"type": "address"
				},
				{
					"internalType": "bytes32",
					"name": "neededRole",
					"type": "bytes32"
				}
			],
			"name": "AccessControlUnauthorizedAccount",
			"type": "error"
		},
		{
			"inputs": [
				{
					"internalType": "address",
					"name": "sender",
					"type": "address"
				},
				{
					"internalType": "uint256",
					"name": "balance",
					"type": "uint256"
				},
				{
					"internalType": "uint256",
					"name": "needed",
					"type": "uint256"
				},
				{
					"internalType": "uint256",
					"name": "tokenId",
					"type": "uint256"
				}
			],
			"name": "ERC1155InsufficientBalance",
			"type": "error"
		},
		{
			"inputs": [
				{
					"internalType": "address",
					"name": "approver",
					"type": "address"
				}
			],
			"name": "ERC1155InvalidApprover",
			"type": "error"
		},
		{
			"inputs": [
				{
					"internalType": "uint256",
					"name": "idsLength",
					"type": "uint256"
				},
				{
					"internalType": "uint256",
					"name": "valuesLength",
					"type": "uint256"
				}
			],
			"name": "ERC1155InvalidArrayLength",
			"type": "error"
		},
		{
			"inputs": [
				{
					"internalType": "address",
					"name": "operator",
					"type": "address"
				}
			],
			"name": "ERC1155InvalidOperator",
			"type": "error"
		},
		{
			"inputs": [
				{
					"internalType": "address",
					"name": "receiver",
					"type": "address"
				}
			],
			"name": "ERC1155InvalidReceiver",
			"type": "error"
		},
		{
			"inputs": [
				{
					"internalType": "address",
					"name": "sender",
					"type": "address"
				}
			],
			"name": "ERC1155InvalidSender",
			"type": "error"
		},
		{
			"inputs": [
				{
					"internalType": "address",
					"name": "operator",
					"type": "address"
				},
				{
					"internalType": "address",
					"name": "owner",
					"type": "address"
				}
			],
			"name": "ERC1155MissingApprovalForAll",
			"type": "error"
		},
		{
			"anonymous": false,
			"inputs": [
				{
					"indexed": true,
					"internalType": "address",
					"name": "account",
					"type": "address"
				},
				{
					"indexed": true,
					"internalType": "address",
					"name": "operator",
					"type": "address"
				},
				{
					"indexed": false,
					"internalType": "bool",
					"name": "approved",
					"type": "bool"
				}
			],
			"name": "ApprovalForAll",
			"type": "event"
		},
		{
			"anonymous": false,
			"inputs": [
				{
					"indexed": true,
					"internalType": "uint256",
					"name": "tokenId",
					"type": "uint256"
				},
				{
					"indexed": true,
					"internalType": "address",
					"name": "artist",
					"type": "address"
				},
				{
					"indexed": false,
					"internalType": "uint256",
					"name": "price",
					"type": "uint256"
				},
				{
					"indexed": false,
					"internalType": "uint256",
					"name": "supplyLimit",
					"type": "uint256"
				}
			],
			"name": "ArtworkCreated",
			"type": "event"
		},
		{
			"anonymous": false,
			"inputs": [
				{
					"indexed": true,
					"internalType": "uint256",
					"name": "tokenId",
					"type": "uint256"
				},
				{
					"indexed": false,
					"internalType": "uint256",
					"name": "purchaseIndex",
					"type": "uint256"
				},
				{
					"indexed": true,
					"internalType": "address",
					"name": "buyer",
					"type": "address"
				}
			],
			"name": "ArtworkMinted",
			"type": "event"
		},
		{
			"anonymous": false,
			"inputs": [
				{
					"indexed": true,
					"internalType": "address",
					"name": "artist",
					"type": "address"
				},
				{
					"indexed": false,
					"internalType": "uint256",
					"name": "amount",
					"type": "uint256"
				}
			],
			"name": "DepositStablecoin",
			"type": "event"
		},
		{
			"anonymous": false,
			"inputs": [
				{
					"indexed": true,
					"internalType": "uint256",
					"name": "tokenId",
					"type": "uint256"
				},
				{
					"indexed": false,
					"internalType": "uint256",
					"name": "purchaseIndex",
					"type": "uint256"
				},
				{
					"indexed": true,
					"internalType": "address",
					"name": "artist",
					"type": "address"
				}
			],
			"name": "DisputeForced",
			"type": "event"
		},
		{
			"anonymous": false,
			"inputs": [
				{
					"indexed": true,
					"internalType": "uint256",
					"name": "tokenId",
					"type": "uint256"
				},
				{
					"indexed": false,
					"internalType": "uint256",
					"name": "purchaseIndex",
					"type": "uint256"
				},
				{
					"indexed": true,
					"internalType": "address",
					"name": "buyer",
					"type": "address"
				}
			],
			"name": "DisputeOpened",
			"type": "event"
		},
		{
			"anonymous": false,
			"inputs": [
				{
					"indexed": true,
					"internalType": "uint256",
					"name": "tokenId",
					"type": "uint256"
				},
				{
					"indexed": false,
					"internalType": "uint256",
					"name": "purchaseIndex",
					"type": "uint256"
				},
				{
					"indexed": false,
					"internalType": "bool",
					"name": "disputeResult",
					"type": "bool"
				}
			],
			"name": "DisputeSettled",
			"type": "event"
		},
		{
			"anonymous": false,
			"inputs": [
				{
					"indexed": true,
					"internalType": "uint256",
					"name": "tokenId",
					"type": "uint256"
				},
				{
					"indexed": false,
					"internalType": "uint256",
					"name": "purchaseIndex",
					"type": "uint256"
				},
				{
					"indexed": true,
					"internalType": "address",
					"name": "artist",
					"type": "address"
				},
				{
					"indexed": true,
					"internalType": "address",
					"name": "buyer",
					"type": "address"
				},
				{
					"indexed": false,
					"internalType": "uint256",
					"name": "saleNet",
					"type": "uint256"
				}
			],
			"name": "FundsDistributed",
			"type": "event"
		},
		{
			"anonymous": false,
			"inputs": [
				{
					"indexed": true,
					"internalType": "uint256",
					"name": "tokenId",
					"type": "uint256"
				},
				{
					"indexed": false,
					"internalType": "uint256",
					"name": "purchaseIndex",
					"type": "uint256"
				},
				{
					"indexed": true,
					"internalType": "address",
					"name": "buyer",
					"type": "address"
				}
			],
			"name": "NFTBurned",
			"type": "event"
		},
		{
			"anonymous": false,
			"inputs": [
				{
					"indexed": true,
					"internalType": "address",
					"name": "account",
					"type": "address"
				},
				{
					"indexed": false,
					"internalType": "bytes",
					"name": "publicKey",
					"type": "bytes"
				}
			],
			"name": "PublicKeyUpdated",
			"type": "event"
		},
		{
			"anonymous": false,
			"inputs": [
				{
					"indexed": true,
					"internalType": "bytes32",
					"name": "role",
					"type": "bytes32"
				},
				{
					"indexed": true,
					"internalType": "bytes32",
					"name": "previousAdminRole",
					"type": "bytes32"
				},
				{
					"indexed": true,
					"internalType": "bytes32",
					"name": "newAdminRole",
					"type": "bytes32"
				}
			],
			"name": "RoleAdminChanged",
			"type": "event"
		},
		{
			"anonymous": false,
			"inputs": [
				{
					"indexed": true,
					"internalType": "bytes32",
					"name": "role",
					"type": "bytes32"
				},
				{
					"indexed": true,
					"internalType": "address",
					"name": "account",
					"type": "address"
				},
				{
					"indexed": true,
					"internalType": "address",
					"name": "sender",
					"type": "address"
				}
			],
			"name": "RoleGranted",
			"type": "event"
		},
		{
			"anonymous": false,
			"inputs": [
				{
					"indexed": true,
					"internalType": "bytes32",
					"name": "role",
					"type": "bytes32"
				},
				{
					"indexed": true,
					"internalType": "address",
					"name": "account",
					"type": "address"
				},
				{
					"indexed": true,
					"internalType": "address",
					"name": "sender",
					"type": "address"
				}
			],
			"name": "RoleRevoked",
			"type": "event"
		},
		{
			"anonymous": false,
			"inputs": [
				{
					"indexed": false,
					"internalType": "address",
					"name": "stableCoinAddress",
					"type": "address"
				}
			],
			"name": "StableCoinAddressSet",
			"type": "event"
		},
		{
			"anonymous": false,
			"inputs": [
				{
					"indexed": true,
					"internalType": "address",
					"name": "operator",
					"type": "address"
				},
				{
					"indexed": true,
					"internalType": "address",
					"name": "from",
					"type": "address"
				},
				{
					"indexed": true,
					"internalType": "address",
					"name": "to",
					"type": "address"
				},
				{
					"indexed": false,
					"internalType": "uint256[]",
					"name": "ids",
					"type": "uint256[]"
				},
				{
					"indexed": false,
					"internalType": "uint256[]",
					"name": "values",
					"type": "uint256[]"
				}
			],
			"name": "TransferBatch",
			"type": "event"
		},
		{
			"anonymous": false,
			"inputs": [
				{
					"indexed": true,
					"internalType": "address",
					"name": "operator",
					"type": "address"
				},
				{
					"indexed": true,
					"internalType": "address",
					"name": "from",
					"type": "address"
				},
				{
					"indexed": true,
					"internalType": "address",
					"name": "to",
					"type": "address"
				},
				{
					"indexed": false,
					"internalType": "uint256",
					"name": "id",
					"type": "uint256"
				},
				{
					"indexed": false,
					"internalType": "uint256",
					"name": "value",
					"type": "uint256"
				}
			],
			"name": "TransferSingle",
			"type": "event"
		},
		{
			"anonymous": false,
			"inputs": [
				{
					"indexed": false,
					"internalType": "string",
					"name": "value",
					"type": "string"
				},
				{
					"indexed": true,
					"internalType": "uint256",
					"name": "id",
					"type": "uint256"
				}
			],
			"name": "URI",
			"type": "event"
		},
		{
			"anonymous": false,
			"inputs": [
				{
					"indexed": true,
					"internalType": "uint256",
					"name": "tokenId",
					"type": "uint256"
				},
				{
					"indexed": false,
					"internalType": "uint256",
					"name": "purchaseIndex",
					"type": "uint256"
				},
				{
					"indexed": true,
					"internalType": "address",
					"name": "buyer",
					"type": "address"
				},
				{
					"indexed": false,
					"internalType": "bool",
					"name": "result",
					"type": "bool"
				}
			],
			"name": "VerificationResult",
			"type": "event"
		},
		{
			"anonymous": false,
			"inputs": [
				{
					"indexed": true,
					"internalType": "address",
					"name": "artist",
					"type": "address"
				},
				{
					"indexed": false,
					"internalType": "uint256",
					"name": "amount",
					"type": "uint256"
				}
			],
			"name": "WithdrawStablecoin",
			"type": "event"
		},
		{
			"inputs": [],
			"name": "ARBITRATOR_ROLE",
			"outputs": [
				{
					"internalType": "bytes32",
					"name": "",
					"type": "bytes32"
				}
			],
			"stateMutability": "view",
			"type": "function"
		},
		{
			"inputs": [],
			"name": "ARTIST_ROLE",
			"outputs": [
				{
					"internalType": "bytes32",
					"name": "",
					"type": "bytes32"
				}
			],
			"stateMutability": "view",
			"type": "function"
		},
		{
			"inputs": [],
			"name": "CONFIRMATION_TIMEOUT",
			"outputs": [
				{
					"internalType": "uint256",
					"name": "",
					"type": "uint256"
				}
			],
			"stateMutability": "view",
			"type": "function"
		},
		{
			"inputs": [],
			"name": "DEFAULT_ADMIN_ROLE",
			"outputs": [
				{
					"internalType": "bytes32",
					"name": "",
					"type": "bytes32"
				}
			],
			"stateMutability": "view",
			"type": "function"
		},
		{
			"inputs": [
				{
					"internalType": "address",
					"name": "",
					"type": "address"
				}
			],
			"name": "artistDeposits",
			"outputs": [
				{
					"internalType": "uint256",
					"name": "",
					"type": "uint256"
				}
			],
			"stateMutability": "view",
			"type": "function"
		},
		{
			"inputs": [
				{
					"internalType": "uint256",
					"name": "",
					"type": "uint256"
				},
				{
					"internalType": "uint256",
					"name": "",
					"type": "uint256"
				}
			],
			"name": "artworkPurchases",
			"outputs": [
				{
					"internalType": "address",
					"name": "buyer",
					"type": "address"
				},
				{
					"internalType": "enum DigitalArtwork_ERC1155_Stablecoin.PurchaseState",
					"name": "state",
					"type": "uint8"
				},
				{
					"internalType": "uint256",
					"name": "lockedDeposit",
					"type": "uint256"
				},
				{
					"internalType": "uint256",
					"name": "purchaseTime",
					"type": "uint256"
				}
			],
			"stateMutability": "view",
			"type": "function"
		},
		{
			"inputs": [
				{
					"internalType": "uint256",
					"name": "",
					"type": "uint256"
				}
			],
			"name": "artworks",
			"outputs": [
				{
					"internalType": "uint256",
					"name": "tokenId",
					"type": "uint256"
				},
				{
					"internalType": "string",
					"name": "name",
					"type": "string"
				},
				{
					"internalType": "string",
					"name": "hash_json",
					"type": "string"
				},
				{
					"internalType": "uint256",
					"name": "supplyLimit",
					"type": "uint256"
				},
				{
					"internalType": "uint256",
					"name": "minted",
					"type": "uint256"
				},
				{
					"internalType": "uint256",
					"name": "price",
					"type": "uint256"
				},
				{
					"internalType": "address",
					"name": "artist",
					"type": "address"
				}
			],
			"stateMutability": "view",
			"type": "function"
		},
		{
			"inputs": [
				{
					"internalType": "address",
					"name": "account",
					"type": "address"
				},
				{
					"internalType": "uint256",
					"name": "id",
					"type": "uint256"
				}
			],
			"name": "balanceOf",
			"outputs": [
				{
					"internalType": "uint256",
					"name": "",
					"type": "uint256"
				}
			],
			"stateMutability": "view",
			"type": "function"
		},
		{
			"inputs": [
				{
					"internalType": "address[]",
					"name": "accounts",
					"type": "address[]"
				},
				{
					"internalType": "uint256[]",
					"name": "ids",
					"type": "uint256[]"
				}
			],
			"name": "balanceOfBatch",
			"outputs": [
				{
					"internalType": "uint256[]",
					"name": "",
					"type": "uint256[]"
				}
			],
			"stateMutability": "view",
			"type": "function"
		},
		{
			"inputs": [
				{
					"internalType": "string",
					"name": "_name",
					"type": "string"
				},
				{
					"internalType": "string",
					"name": "_hash_json",
					"type": "string"
				},
				{
					"internalType": "uint256",
					"name": "_supplyLimit",
					"type": "uint256"
				},
				{
					"internalType": "uint256",
					"name": "_price",
					"type": "uint256"
				}
			],
			"name": "createArtwork",
			"outputs": [
				{
					"internalType": "uint256",
					"name": "",
					"type": "uint256"
				}
			],
			"stateMutability": "nonpayable",
			"type": "function"
		},
		{
			"inputs": [],
			"name": "currentArtworkId",
			"outputs": [
				{
					"internalType": "uint256",
					"name": "",
					"type": "uint256"
				}
			],
			"stateMutability": "view",
			"type": "function"
		},
		{
			"inputs": [
				{
					"internalType": "uint256",
					"name": "amount",
					"type": "uint256"
				}
			],
			"name": "depositStablecoin",
			"outputs": [],
			"stateMutability": "nonpayable",
			"type": "function"
		},
		{
			"inputs": [
				{
					"internalType": "uint256",
					"name": "_tokenId",
					"type": "uint256"
				},
				{
					"internalType": "uint256",
					"name": "purchaseIndex",
					"type": "uint256"
				}
			],
			"name": "forceConfirmPurchase",
			"outputs": [],
			"stateMutability": "nonpayable",
			"type": "function"
		},
		{
			"inputs": [
				{
					"internalType": "uint256",
					"name": "_tokenId",
					"type": "uint256"
				}
			],
			"name": "getArtworkInfo",
			"outputs": [
				{
					"components": [
						{
							"internalType": "uint256",
							"name": "tokenId",
							"type": "uint256"
						},
						{
							"internalType": "string",
							"name": "name",
							"type": "string"
						},
						{
							"internalType": "string",
							"name": "hash_json",
							"type": "string"
						},
						{
							"internalType": "uint256",
							"name": "supplyLimit",
							"type": "uint256"
						},
						{
							"internalType": "uint256",
							"name": "minted",
							"type": "uint256"
						},
						{
							"internalType": "uint256",
							"name": "price",
							"type": "uint256"
						},
						{
							"internalType": "address",
							"name": "artist",
							"type": "address"
						}
					],
					"internalType": "struct DigitalArtwork_ERC1155_Stablecoin.Artwork",
					"name": "",
					"type": "tuple"
				}
			],
			"stateMutability": "view",
			"type": "function"
		},
		{
			"inputs": [
				{
					"internalType": "uint256",
					"name": "_tokenId",
					"type": "uint256"
				},
				{
					"internalType": "uint256",
					"name": "purchaseIndex",
					"type": "uint256"
				}
			],
			"name": "getPurchaseInfo",
			"outputs": [
				{
					"components": [
						{
							"internalType": "address",
							"name": "buyer",
							"type": "address"
						},
						{
							"internalType": "enum DigitalArtwork_ERC1155_Stablecoin.PurchaseState",
							"name": "state",
							"type": "uint8"
						},
						{
							"internalType": "uint256",
							"name": "lockedDeposit",
							"type": "uint256"
						},
						{
							"internalType": "uint256",
							"name": "purchaseTime",
							"type": "uint256"
						}
					],
					"internalType": "struct DigitalArtwork_ERC1155_Stablecoin.Purchase",
					"name": "",
					"type": "tuple"
				}
			],
			"stateMutability": "view",
			"type": "function"
		},
		{
			"inputs": [
				{
					"internalType": "bytes32",
					"name": "role",
					"type": "bytes32"
				}
			],
			"name": "getRoleAdmin",
			"outputs": [
				{
					"internalType": "bytes32",
					"name": "",
					"type": "bytes32"
				}
			],
			"stateMutability": "view",
			"type": "function"
		},
		{
			"inputs": [
				{
					"internalType": "bytes32",
					"name": "role",
					"type": "bytes32"
				},
				{
					"internalType": "address",
					"name": "account",
					"type": "address"
				}
			],
			"name": "grantRole",
			"outputs": [],
			"stateMutability": "nonpayable",
			"type": "function"
		},
		{
			"inputs": [
				{
					"internalType": "bytes32",
					"name": "role",
					"type": "bytes32"
				},
				{
					"internalType": "address",
					"name": "account",
					"type": "address"
				}
			],
			"name": "hasRole",
			"outputs": [
				{
					"internalType": "bool",
					"name": "",
					"type": "bool"
				}
			],
			"stateMutability": "view",
			"type": "function"
		},
		{
			"inputs": [
				{
					"internalType": "address",
					"name": "account",
					"type": "address"
				},
				{
					"internalType": "address",
					"name": "operator",
					"type": "address"
				}
			],
			"name": "isApprovedForAll",
			"outputs": [
				{
					"internalType": "bool",
					"name": "",
					"type": "bool"
				}
			],
			"stateMutability": "view",
			"type": "function"
		},
		{
			"inputs": [
				{
					"internalType": "uint256",
					"name": "_tokenId",
					"type": "uint256"
				}
			],
			"name": "mintArtwork",
			"outputs": [],
			"stateMutability": "nonpayable",
			"type": "function"
		},
		{
			"inputs": [
				{
					"internalType": "address",
					"name": "",
					"type": "address"
				},
				{
					"internalType": "address",
					"name": "",
					"type": "address"
				},
				{
					"internalType": "uint256[]",
					"name": "",
					"type": "uint256[]"
				},
				{
					"internalType": "uint256[]",
					"name": "",
					"type": "uint256[]"
				},
				{
					"internalType": "bytes",
					"name": "",
					"type": "bytes"
				}
			],
			"name": "onERC1155BatchReceived",
			"outputs": [
				{
					"internalType": "bytes4",
					"name": "",
					"type": "bytes4"
				}
			],
			"stateMutability": "nonpayable",
			"type": "function"
		},
		{
			"inputs": [
				{
					"internalType": "address",
					"name": "",
					"type": "address"
				},
				{
					"internalType": "address",
					"name": "",
					"type": "address"
				},
				{
					"internalType": "uint256",
					"name": "",
					"type": "uint256"
				},
				{
					"internalType": "uint256",
					"name": "",
					"type": "uint256"
				},
				{
					"internalType": "bytes",
					"name": "",
					"type": "bytes"
				}
			],
			"name": "onERC1155Received",
			"outputs": [
				{
					"internalType": "bytes4",
					"name": "",
					"type": "bytes4"
				}
			],
			"stateMutability": "nonpayable",
			"type": "function"
		},
		{
			"inputs": [
				{
					"internalType": "bytes32",
					"name": "role",
					"type": "bytes32"
				},
				{
					"internalType": "address",
					"name": "callerConfirmation",
					"type": "address"
				}
			],
			"name": "renounceRole",
			"outputs": [],
			"stateMutability": "nonpayable",
			"type": "function"
		},
		{
			"inputs": [
				{
					"internalType": "bytes32",
					"name": "role",
					"type": "bytes32"
				},
				{
					"internalType": "address",
					"name": "account",
					"type": "address"
				}
			],
			"name": "revokeRole",
			"outputs": [],
			"stateMutability": "nonpayable",
			"type": "function"
		},
		{
			"inputs": [
				{
					"internalType": "address",
					"name": "from",
					"type": "address"
				},
				{
					"internalType": "address",
					"name": "to",
					"type": "address"
				},
				{
					"internalType": "uint256[]",
					"name": "ids",
					"type": "uint256[]"
				},
				{
					"internalType": "uint256[]",
					"name": "values",
					"type": "uint256[]"
				},
				{
					"internalType": "bytes",
					"name": "data",
					"type": "bytes"
				}
			],
			"name": "safeBatchTransferFrom",
			"outputs": [],
			"stateMutability": "nonpayable",
			"type": "function"
		},
		{
			"inputs": [
				{
					"internalType": "address",
					"name": "from",
					"type": "address"
				},
				{
					"internalType": "address",
					"name": "to",
					"type": "address"
				},
				{
					"internalType": "uint256",
					"name": "id",
					"type": "uint256"
				},
				{
					"internalType": "uint256",
					"name": "value",
					"type": "uint256"
				},
				{
					"internalType": "bytes",
					"name": "data",
					"type": "bytes"
				}
			],
			"name": "safeTransferFrom",
			"outputs": [],
			"stateMutability": "nonpayable",
			"type": "function"
		},
		{
			"inputs": [
				{
					"internalType": "address",
					"name": "operator",
					"type": "address"
				},
				{
					"internalType": "bool",
					"name": "approved",
					"type": "bool"
				}
			],
			"name": "setApprovalForAll",
			"outputs": [],
			"stateMutability": "nonpayable",
			"type": "function"
		},
		{
			"inputs": [
				{
					"internalType": "address",
					"name": "_stableCoinAddress",
					"type": "address"
				}
			],
			"name": "setStableCoinAddress",
			"outputs": [],
			"stateMutability": "nonpayable",
			"type": "function"
		},
		{
			"inputs": [
				{
					"internalType": "uint256",
					"name": "_tokenId",
					"type": "uint256"
				},
				{
					"internalType": "uint256",
					"name": "purchaseIndex",
					"type": "uint256"
				},
				{
					"internalType": "bool",
					"name": "disputeResult",
					"type": "bool"
				}
			],
			"name": "settlePurchaseDispute",
			"outputs": [],
			"stateMutability": "nonpayable",
			"type": "function"
		},
		{
			"inputs": [],
			"name": "stableCoin",
			"outputs": [
				{
					"internalType": "contract IERC20",
					"name": "",
					"type": "address"
				}
			],
			"stateMutability": "view",
			"type": "function"
		},
		{
			"inputs": [
				{
					"internalType": "bytes4",
					"name": "interfaceId",
					"type": "bytes4"
				}
			],
			"name": "supportsInterface",
			"outputs": [
				{
					"internalType": "bool",
					"name": "",
					"type": "bool"
				}
			],
			"stateMutability": "view",
			"type": "function"
		},
		{
			"inputs": [
				{
					"internalType": "uint256",
					"name": "",
					"type": "uint256"
				}
			],
			"name": "uri",
			"outputs": [
				{
					"internalType": "string",
					"name": "",
					"type": "string"
				}
			],
			"stateMutability": "view",
			"type": "function"
		},
		{
			"inputs": [
				{
					"internalType": "uint256",
					"name": "_tokenId",
					"type": "uint256"
				},
				{
					"internalType": "uint256",
					"name": "purchaseIndex",
					"type": "uint256"
				},
				{
					"internalType": "bool",
					"name": "verificationResult",
					"type": "bool"
				}
			],
			"name": "verifyPurchase",
			"outputs": [],
			"stateMutability": "nonpayable",
			"type": "function"
		},
		{
			"inputs": [
				{
					"internalType": "uint256",
					"name": "amount",
					"type": "uint256"
				}
			],
			"name": "withdrawStablecoin",
			"outputs": [],
			"stateMutability": "nonpayable",
			"type": "function"
		}
	]
}