{
	"data": {
		"bytecode": {
			"linkReferences": {},
			"object": "608060405234801562000010575f80fd5b50604051620036bb380380620036bb833981016040819052620000339162000141565b806200003f816200006b565b506001600455620000515f336200007d565b5050600580546001600160a01b0319163317905562000363565b60026200007982826200029b565b5050565b5f8281526003602090815260408083206001600160a01b038516845290915281205460ff1662000124575f8381526003602090815260408083206001600160a01b03861684529091529020805460ff19166001179055620000db3390565b6001600160a01b0316826001600160a01b0316847f2f8788117e7eff1d82e926ec794901d17c78024a50270940304540a733656f0d60405160405180910390a450600162000127565b505f5b92915050565b634e487b7160e01b5f52604160045260245ffd5b5f602080838503121562000153575f80fd5b82516001600160401b03808211156200016a575f80fd5b818501915085601f8301126200017e575f80fd5b8151818111156200019357620001936200012d565b604051601f8201601f19908116603f01168101908382118183101715620001be57620001be6200012d565b816040528281528886848701011115620001d6575f80fd5b5f93505b82841015620001f95784840186015181850187015292850192620001da565b5f86848301015280965050505050505092915050565b600181811c908216806200022457607f821691505b6020821081036200024357634e487b7160e01b5f52602260045260245ffd5b50919050565b601f82111562000296575f81815260208120601f850160051c81016020861015620002715750805b601f850160051c820191505b8181101562000292578281556001016200027d565b5050505b505050565b81516001600160401b03811115620002b757620002b76200012d565b620002cf81620002c884546200020f565b8462000249565b602080601f83116001811462000305575f8415620002ed5750858301515b5f19600386901b1c1916600185901b17855562000292565b5f85815260208120601f198616915b82811015620003355788860151825594840194600190910190840162000314565b50858210156200035357878501515f19600388901b60f8161c191681555b5050505050600190811b01905550565b61334a80620003715f395ff3fe6080604052600436106101f9575f3560e01c80639cea07871161010b578063d4aa56b111610099578063f0d93b9a1161006b578063f0d93b9a14610659578063f14210a614610678578063f23a6e6114610697578063f242432a146106c2578063f6326fb3146106e157005b8063d4aa56b1146105e9578063d547741f14610608578063e82f406214610627578063e985e9c51461063a57005b8063a966a0df116100dd578063a966a0df14610504578063ac76e52114610524578063b69b6d661461054f578063b89571c714610586578063bc197c81146105a557005b80639cea0787146104805780639e56f275146104b3578063a217fddf146104d2578063a22cb465146104e557005b806336568abe116101885780634e1273f41161015a5780634e1273f4146103d8578063595af66f146104045780637365e8ec14610423578063815176aa1461044257806391d148541461046157005b806336568abe146103435780633a14af65146103625780634b602673146103775780634bc9db85146103a957005b8063237f1509116101cc578063237f1509146102a4578063248a9ca3146102c35780632eb2c2d6146102f15780632f2ff15d14610310578063361d8c3a1461032f57005b8062fdd58e1461020257806301ffc9a7146102345780630e89341c1461026357806318b6dcbc1461028f57005b3661020057005b005b34801561020d575f80fd5b5061022161021c3660046127d5565b6106e9565b6040519081526020015b60405180910390f35b34801561023f575f80fd5b5061025361024e366004612812565b610710565b604051901515815260200161022b565b34801561026e575f80fd5b5061028261027d366004612834565b61071a565b60405161022b919061288e565b34801561029a575f80fd5b5061022160075481565b3480156102af575f80fd5b506102216102be366004612951565b6107ac565b3480156102ce575f80fd5b506102216102dd366004612834565b5f9081526003602052604090206001015490565b3480156102fc575f80fd5b5061020061030b366004612a4b565b610923565b34801561031b575f80fd5b5061020061032a366004612aee565b61098a565b34801561033a575f80fd5b506102826109b4565b34801561034e575f80fd5b5061020061035d366004612aee565b610a40565b34801561036d575f80fd5b5061022161025881565b348015610382575f80fd5b50610396610391366004612834565b610a78565b60405161022b9796959493929190612b18565b3480156103b4575f80fd5b506103c86103c3366004612b72565b610bc8565b60405161022b9493929190612ba6565b3480156103e3575f80fd5b506103f76103f2366004612bed565b610c19565b60405161022b9190612ce0565b34801561040f575f80fd5b5061020061041e366004612cf2565b610cec565b34801561042e575f80fd5b5061020061043d366004612b72565b610d19565b34801561044d575f80fd5b5061028261045c366004612cf2565b61109a565b34801561046c575f80fd5b5061025361047b366004612aee565b6110b2565b34801561048b575f80fd5b506102217f16ceee8289685dd2a02b9c8ae81d2df373176ce53519e6284e2a2950d6546ffa81565b3480156104be575f80fd5b506102006104cd366004612d1a565b6110dc565b3480156104dd575f80fd5b506102215f81565b3480156104f0575f80fd5b506102006104ff366004612d4c565b61161e565b34801561050f575f80fd5b506102215f805160206132d583398151915281565b34801561052f575f80fd5b5061022161053e366004612cf2565b600b6020525f908152604090205481565b34801561055a575f80fd5b5060055461056e906001600160a01b031681565b6040516001600160a01b03909116815260200161022b565b348015610591575f80fd5b506102006105a0366004612d1a565b611629565b3480156105b0575f80fd5b506105d06105bf366004612a4b565b63bc197c8160e01b95945050505050565b6040516001600160e01b0319909116815260200161022b565b3480156105f4575f80fd5b50610200610603366004612d74565b6119bc565b348015610613575f80fd5b50610200610622366004612aee565b611a13565b610200610635366004612834565b611a37565b348015610645575f80fd5b50610253610654366004612de0565b611cbd565b348015610664575f80fd5b50610200610673366004612e08565b611cea565b348015610683575f80fd5b50610200610692366004612834565b611d02565b3480156106a2575f80fd5b506105d06106b1366004612e42565b63f23a6e6160e01b95945050505050565b3480156106cd575f80fd5b506102006106dc366004612e42565b611e0a565b610200611e69565b5f818152602081815260408083206001600160a01b03861684529091529020545b92915050565b5f61070a82611ed2565b60606002805461072990612ea2565b80601f016020809104026020016040519081016040528092919081815260200182805461075590612ea2565b80156107a05780601f10610777576101008083540402835291602001916107a0565b820191905f5260205f20905b81548152906001019060200180831161078357829003601f168201915b50505050509050919050565b5f5f805160206132d58339815191526107c481611ef6565b6107cf600a84612eee565b156108105760405162461bcd60e51b815260206004820152600c60248201526b496e76616c6964507269636560a01b60448201526064015b60405180910390fd5b60078054905f61081f83612f15565b90915550506007546040805160e08101825282815260208082018a81528284018a9052606083018990525f6080840181905260a084018990523360c0850152858152600990925292902081518155915190919060018201906108819082612f72565b50604082015160028201906108969082612f72565b50606082015160038201556080820151600482015560a0820151600582015560c090910151600690910180546001600160a01b0319166001600160a01b039092169190911790556040805185815260208101879052339183917ef3538cb5abe2e9bc54f73939e4d165fce3752d27fe21a5e88b2a9f6da20c63910160405180910390a39695505050505050565b336001600160a01b038616811480159061094457506109428682611cbd565b155b156109755760405163711bec9160e11b81526001600160a01b03808316600483015287166024820152604401610807565b6109828686868686611f00565b505050505050565b5f828152600360205260409020600101546109a481611ef6565b6109ae8383611f65565b50505050565b600680546109c190612ea2565b80601f01602080910402602001604051908101604052809291908181526020018280546109ed90612ea2565b8015610a385780601f10610a0f57610100808354040283529160200191610a38565b820191905f5260205f20905b815481529060010190602001808311610a1b57829003601f168201915b505050505081565b6001600160a01b0381163314610a695760405163334bd91960e11b815260040160405180910390fd5b610a738282611ff6565b505050565b60096020525f908152604090208054600182018054919291610a9990612ea2565b80601f0160208091040260200160405190810160405280929190818152602001828054610ac590612ea2565b8015610b105780601f10610ae757610100808354040283529160200191610b10565b820191905f5260205f20905b815481529060010190602001808311610af357829003601f168201915b505050505090806002018054610b2590612ea2565b80601f0160208091040260200160405190810160405280929190818152602001828054610b5190612ea2565b8015610b9c5780601f10610b7357610100808354040283529160200191610b9c565b820191905f5260205f20905b815481529060010190602001808311610b7f57829003601f168201915b50505050600383015460048401546005850154600690950154939491939092506001600160a01b031687565b600a602052815f5260405f208181548110610be1575f80fd5b5f9182526020909120600390910201805460018201546002909201546001600160a01b0382169450600160a01b90910460ff16925084565b60608151835114610c4a5781518351604051635b05999160e01b815260048101929092526024820152604401610807565b5f835167ffffffffffffffff811115610c6557610c656128a0565b604051908082528060200260200182016040528015610c8e578160200160208202803683370190505b5090505f5b8451811015610ce457602080820286010151610cb7906020808402870101516106e9565b828281518110610cc957610cc961302e565b6020908102919091010152610cdd81612f15565b9050610c93565b509392505050565b5f610cf681611ef6565b50600580546001600160a01b0319166001600160a01b0392909216919091179055565b610d21612061565b5f82815260096020526040902060068101546001600160a01b03163314610d775760405162461bcd60e51b815260206004820152600a60248201526913db9b1e505c9d1a5cdd60b21b6044820152606401610807565b5f838152600a60205260409020548210610da35760405162461bcd60e51b815260040161080790613042565b5f838152600a60205260408120805484908110610dc257610dc261302e565b5f9182526020822060039091020191508154600160a01b900460ff166003811115610def57610def612b92565b14610e2f5760405162461bcd60e51b815260206004820152601060248201526f496e616374697665507572636861736560801b6044820152606401610807565b6102588160020154610e419190613068565b421015610e815760405162461bcd60e51b815260206004820152600e60248201526d54696d656f757450656e64696e6760901b6044820152606401610807565b5f600a83600501546002610e95919061307b565b610e9f9190613092565b90505f600a8460050154610eb39190613092565b83549091505f906001600160a01b0316610ecd83856130a5565b6040515f81818185875af1925050503d805f8114610f06576040519150601f19603f3d011682016040523d82523d5f602084013e610f0b565b606091505b5050905080610f2c5760405162461bcd60e51b8152600401610807906130b8565b6005546040515f916001600160a01b03169084908381818185875af1925050503d805f8114610f76576040519150601f19603f3d011682016040523d82523d5f602084013e610f7b565b606091505b5050905080610f9c5760405162461bcd60e51b8152600401610807906130b8565b85600501548560010154610fb09190613068565b60068701546001600160a01b03165f908152600b602052604081208054909190610fdb908490613068565b90915550505f6001860155845460ff60a01b1916600160a11b17855560068601546001600160a01b031687895f805160206132f583398151915233611020888a6130a5565b885f8d600501548d600101546110369190613068565b6040516110479594939291906130dc565b60405180910390a4604051878152339089907f86f9d82fe70f334564dfb5d0f47619293510546518af6f46b21209f3cfd6d3e79060200160405180910390a35050505050506110966001600455565b5050565b60086020525f9081526040902080546109c190612ea2565b5f9182526003602090815260408084206001600160a01b0393909316845291905290205460ff1690565b6110e4612061565b7f16ceee8289685dd2a02b9c8ae81d2df373176ce53519e6284e2a2950d6546ffa61110e81611ef6565b5f848152600a6020526040902054831061113a5760405162461bcd60e51b815260040161080790613042565b5f848152600a602052604081208054859081106111595761115961302e565b5f9182526020909120600390910201905060018154600160a01b900460ff16600381111561118957611189612b92565b146111c45760405162461bcd60e51b815260206004820152600b60248201526a139bdd111a5cdc1d5d195960aa1b6044820152606401610807565b5f8581526009602052604081206005810154909190600a906111e790600261307b565b6111f19190613092565b90505f600a83600501546112059190613092565b905085156113a6576005546040515f916001600160a01b03169083908381818185875af1925050503d805f8114611257576040519150601f19603f3d011682016040523d82523d5f602084013e61125c565b606091505b505090508061127d5760405162461bcd60e51b8152600401610807906130b8565b6005546040515f916001600160a01b03169084908381818185875af1925050503d805f81146112c7576040519150601f19603f3d011682016040523d82523d5f602084013e6112cc565b606091505b50509050806112ed5760405162461bcd60e51b8152600401610807906130b8565b846005015486600101546113019190613068565b60068601546001600160a01b03165f908152600b60205260408120805490919061132c908490613068565b90915550505f600187018190558654600160a11b60ff60a01b198216178855600687015460058801546001600160a01b03918216938d938f935f805160206132f58339815191529391169190899081906113869084613068565b6040516113979594939291906130dc565b60405180910390a450506115d3565b835460058401545f916001600160a01b0316906113c4908590613068565b6040515f81818185875af1925050503d805f81146113fd576040519150601f19603f3d011682016040523d82523d5f602084013e611402565b606091505b50509050806114235760405162461bcd60e51b8152600401610807906130b8565b6005546040515f916001600160a01b03169084908381818185875af1925050503d805f811461146d576040519150601f19603f3d011682016040523d82523d5f602084013e611472565b606091505b50509050806114935760405162461bcd60e51b8152600401610807906130b8565b6005546040515f916001600160a01b03169085908381818185875af1925050503d805f81146114dd576040519150601f19603f3d011682016040523d82523d5f602084013e6114e2565b606091505b50509050806115035760405162461bcd60e51b8152600401610807906130b8565b5f6001888101919091558754600360a01b60ff60a01b198216178955611536916001600160a01b03909116908d906120ba565b6006860154875460058801546001600160a01b03928316928d928f925f805160206132f58339815191529290911690611570908b90613068565b898a5f6040516115849594939291906130dc565b60405180910390a486546040518b81526001600160a01b03909116908c907f9e07dce46977ec95e7805c93ce75a606c8828e2f4a3e5554bfeb839d508950999060200160405180910390a35050505b60408051888152871515602082015289917fd4390d9b1eae30d53d6e598d7eba50e60f3ea18310ca83e7919e3df177bb05ca910160405180910390a25050505050610a736001600455565b611096338383612120565b611631612061565b5f838152600a6020526040902054821061165d5760405162461bcd60e51b815260040161080790613042565b5f838152600a6020526040812080548490811061167c5761167c61302e565b5f918252602090912060039091020180549091506001600160a01b031633146116d25760405162461bcd60e51b81526020600482015260086024820152672737ba213abcb2b960c11b6044820152606401610807565b5f8154600160a01b900460ff1660038111156116f0576116f0612b92565b146117305760405162461bcd60e51b815260206004820152601060248201526f496e616374697665507572636861736560801b6044820152606401610807565b5f84815260096020526040908190209051339086907fdfcfa307bd7ff3b7df976aea65a8df73deb67f2649e10e389ae208b2a5c667af9061177f90889088909182521515602082015260400190565b60405180910390a38215611967575f600a826005015460026117a1919061307b565b6117ab9190613092565b90505f600a83600501546117bf9190613092565b6040519091505f90339084908381818185875af1925050503d805f8114611801576040519150601f19603f3d011682016040523d82523d5f602084013e611806565b606091505b50509050806118275760405162461bcd60e51b8152600401610807906130b8565b6005546040515f916001600160a01b03169084908381818185875af1925050503d805f8114611871576040519150601f19603f3d011682016040523d82523d5f602084013e611876565b606091505b50509050806118975760405162461bcd60e51b8152600401610807906130b8565b82856005015487600101546118ac9190613068565b6118b691906130a5565b60068601546001600160a01b03165f908152600b6020526040812080549091906118e1908490613068565b90915550505f60018701819055865460ff60a01b1916600160a11b178755600686015460058701546001600160a01b03909116918a918c915f805160206132f58339815191529133918a918a9190829061193b9083613068565b61194591906130a5565b6040516119569594939291906130dc565b60405180910390a4505050506119b0565b815460ff60a01b1916600160a01b178255604080518581529051339187917fc6fb55a2bd2838e444163cece1945a661c371c5ec8c1a4ea5d697aefc76905479181900360200190a35b5050610a736001600455565b6005546001600160a01b03163314611a065760405162461bcd60e51b815260206004820152600d60248201526c27b7363ca5b2bca9b2b93b32b960991b6044820152606401610807565b6006610a7382848361310a565b5f82815260036020526040902060010154611a2d81611ef6565b6109ae8383611ff6565b611a3f612061565b5f8181526009602052604090206003810154600482015410611a8d5760405162461bcd60e51b815260206004820152600760248201526614dbdb1913dd5d60ca1b6044820152606401610807565b5f600a82600501546002611aa1919061307b565b611aab9190613092565b90505f818360050154611abe9190613068565b9050803414611adf5760405162461bcd60e51b8152600401610807906131c5565b60068301546001600160a01b03165f908152600b6020526040902054821115611b365760405162461bcd60e51b8152602060048201526009602482015268139bd1195c1bdcda5d60ba1b6044820152606401610807565b60068301546001600160a01b03165f908152600b602052604081208054849290611b619084906130a5565b9091555050604080516080810182523381525f6020808301828152838501879052426060850152888352600a8252938220805460018101825590835291208251600392830290910180546001600160a01b031981166001600160a01b0390931692831782559451939485949193919284926001600160a81b03199092161790600160a01b908490811115611bf757611bf7612b92565b0217905550604082015181600101556060820151816002015550505f6001600a5f8881526020019081526020015f2080549050611c3491906130a5565b90506001856004015f828254611c4a9190613068565b92505081905550611c6c3387600160405180602001604052805f8152506121b4565b60408051848152602081018690523391839189917f0118b73186f00b652a3aaf789aa1ac1434f0800d84c3fe5b17a57aa550eb9725910160405180910390a45050505050611cba6001600455565b50565b6001600160a01b039182165f90815260016020908152604080832093909416825291909152205460ff1690565b335f9081526008602052604090206110968282612f72565b611d0a612061565b5f805160206132d5833981519152611d2181611ef6565b335f908152600b6020526040902054821115611d765760405162461bcd60e51b8152602060048201526014602482015273125b9cdd59999a58da595b9d0819195c1bdcda5d60621b6044820152606401610807565b335f908152600b602052604081208054849290611d949084906130a5565b90915550506040515f90339084908381818185875af1925050503d805f8114611dd8576040519150601f19603f3d011682016040523d82523d5f602084013e611ddd565b606091505b5050905080611dfe5760405162461bcd60e51b8152600401610807906131c5565b5050611cba6001600455565b336001600160a01b0386168114801590611e2b5750611e298682611cbd565b155b15611e5c5760405163711bec9160e11b81526001600160a01b03808316600483015287166024820152604401610807565b610982868686868661220f565b611e71612061565b5f805160206132d5833981519152611e8881611ef6565b5f3411611ea75760405162461bcd60e51b8152600401610807906131c5565b335f908152600b602052604081208054349290611ec5908490613068565b9091555050600160045550565b5f6001600160e01b03198216637965db0b60e01b148061070a575061070a8261229b565b611cba81336122bf565b6001600160a01b038416611f2957604051632bfa23e760e11b81525f6004820152602401610807565b6001600160a01b038516611f5157604051626a0d4560e21b81525f6004820152602401610807565b611f5e85858585856122f8565b5050505050565b5f611f7083836110b2565b611fef575f8381526003602090815260408083206001600160a01b03861684529091529020805460ff19166001179055611fa73390565b6001600160a01b0316826001600160a01b0316847f2f8788117e7eff1d82e926ec794901d17c78024a50270940304540a733656f0d60405160405180910390a450600161070a565b505f61070a565b5f61200183836110b2565b15611fef575f8381526003602090815260408083206001600160a01b0386168085529252808320805460ff1916905551339286917ff6391f5c32d9c69d2a47ea670b442974b53935d1edc7fd64eb21e047a839171b9190a450600161070a565b6002600454036120b35760405162461bcd60e51b815260206004820152601f60248201527f5265656e7472616e637947756172643a207265656e7472616e742063616c6c006044820152606401610807565b6002600455565b6001600160a01b0383166120e257604051626a0d4560e21b81525f6004820152602401610807565b604080516001808252602082018590528183019081526060820184905260a082019092525f60808201818152919291611f5e918791859085906122f8565b6001600160a01b0382166121485760405162ced3e160e81b81525f6004820152602401610807565b6001600160a01b038381165f81815260016020908152604080832094871680845294825291829020805460ff191686151590811790915591519182527f17307eab39ab6107e8899845ad3d59bd9653f200f220920489ca2b5937696c31910160405180910390a3505050565b6001600160a01b0384166121dd57604051632bfa23e760e11b81525f6004820152602401610807565b604080516001808252602082018690528183019081526060820185905260808201909252906109825f878484876122f8565b6001600160a01b03841661223857604051632bfa23e760e11b81525f6004820152602401610807565b6001600160a01b03851661226057604051626a0d4560e21b81525f6004820152602401610807565b6040805160018082526020820186905281830190815260608201859052608082019092529061229287878484876122f8565b50505050505050565b5f6001600160e01b03198216630271189760e51b148061070a575061070a8261234b565b6122c982826110b2565b6110965760405163e2517d3f60e01b81526001600160a01b038216600482015260248101839052604401610807565b6123048585858561239a565b6001600160a01b03841615611f5e578251339060010361233d57602084810151908401516123368389898585896125b2565b5050610982565b6109828187878787876126d3565b5f6001600160e01b03198216636cdb3d1360e11b148061237b57506001600160e01b031982166303a24d0760e21b145b8061070a57506301ffc9a760e01b6001600160e01b031983161461070a565b80518251146123c95781518151604051635b05999160e01b815260048101929092526024820152604401610807565b335f5b83518110156124d4576020818102858101820151908501909101516001600160a01b0388161561247d575f828152602081815260408083206001600160a01b038c16845290915290205481811015612457576040516303dee4c560e01b81526001600160a01b038a166004820152602481018290526044810183905260648101849052608401610807565b5f838152602081815260408083206001600160a01b038d16845290915290209082900390555b6001600160a01b038716156124c1575f828152602081815260408083206001600160a01b038b168452909152812080548392906124bb908490613068565b90915550505b5050806124cd90612f15565b90506123cc565b5082516001036125545760208301515f906020840151909150856001600160a01b0316876001600160a01b0316846001600160a01b03167fc3d58168c5ae7397731d063d5bbf3d657854427343f4c083240f7aacaa2d0f628585604051612545929190918252602082015260400190565b60405180910390a45050611f5e565b836001600160a01b0316856001600160a01b0316826001600160a01b03167f4a39dc06d4c0dbc64b70af90fd698a233a518aa5d07e595d983b8c0526c8f7fb86866040516125a39291906131eb565b60405180910390a45050505050565b6001600160a01b0384163b156109825760405163f23a6e6160e01b81526001600160a01b0385169063f23a6e61906125f69089908990889088908890600401613218565b6020604051808303815f875af1925050508015612630575060408051601f3d908101601f1916820190925261262d9181019061325c565b60015b612697573d80801561265d576040519150601f19603f3d011682016040523d82523d5f602084013e612662565b606091505b5080515f0361268f57604051632bfa23e760e11b81526001600160a01b0386166004820152602401610807565b805181602001fd5b6001600160e01b0319811663f23a6e6160e01b1461229257604051632bfa23e760e11b81526001600160a01b0386166004820152602401610807565b6001600160a01b0384163b156109825760405163bc197c8160e01b81526001600160a01b0385169063bc197c81906127179089908990889088908890600401613277565b6020604051808303815f875af1925050508015612751575060408051601f3d908101601f1916820190925261274e9181019061325c565b60015b61277e573d80801561265d576040519150601f19603f3d011682016040523d82523d5f602084013e612662565b6001600160e01b0319811663bc197c8160e01b1461229257604051632bfa23e760e11b81526001600160a01b0386166004820152602401610807565b80356001600160a01b03811681146127d0575f80fd5b919050565b5f80604083850312156127e6575f80fd5b6127ef836127ba565b946020939093013593505050565b6001600160e01b031981168114611cba575f80fd5b5f60208284031215612822575f80fd5b813561282d816127fd565b9392505050565b5f60208284031215612844575f80fd5b5035919050565b5f81518084525f5b8181101561286f57602081850181015186830182015201612853565b505f602082860101526020601f19601f83011685010191505092915050565b602081525f61282d602083018461284b565b634e487b7160e01b5f52604160045260245ffd5b604051601f8201601f1916810167ffffffffffffffff811182821017156128dd576128dd6128a0565b604052919050565b5f82601f8301126128f4575f80fd5b813567ffffffffffffffff81111561290e5761290e6128a0565b612921601f8201601f19166020016128b4565b818152846020838601011115612935575f80fd5b816020850160208301375f918101602001919091529392505050565b5f805f8060808587031215612964575f80fd5b843567ffffffffffffffff8082111561297b575f80fd5b612987888389016128e5565b9550602087013591508082111561299c575f80fd5b506129a9878288016128e5565b949794965050505060408301359260600135919050565b5f67ffffffffffffffff8211156129d9576129d96128a0565b5060051b60200190565b5f82601f8301126129f2575f80fd5b81356020612a07612a02836129c0565b6128b4565b82815260059290921b84018101918181019086841115612a25575f80fd5b8286015b84811015612a405780358352918301918301612a29565b509695505050505050565b5f805f805f60a08688031215612a5f575f80fd5b612a68866127ba565b9450612a76602087016127ba565b9350604086013567ffffffffffffffff80821115612a92575f80fd5b612a9e89838a016129e3565b94506060880135915080821115612ab3575f80fd5b612abf89838a016129e3565b93506080880135915080821115612ad4575f80fd5b50612ae1888289016128e5565b9150509295509295909350565b5f8060408385031215612aff575f80fd5b82359150612b0f602084016127ba565b90509250929050565b87815260e060208201525f612b3060e083018961284b565b8281036040840152612b42818961284b565b60608401979097525050608081019390935260a08301919091526001600160a01b031660c0909101529392505050565b5f8060408385031215612b83575f80fd5b50508035926020909101359150565b634e487b7160e01b5f52602160045260245ffd5b6001600160a01b03851681526080810160048510612bd257634e487b7160e01b5f52602160045260245ffd5b84602083015283604083015282606083015295945050505050565b5f8060408385031215612bfe575f80fd5b823567ffffffffffffffff80821115612c15575f80fd5b818501915085601f830112612c28575f80fd5b81356020612c38612a02836129c0565b82815260059290921b84018101918181019089841115612c56575f80fd5b948201945b83861015612c7b57612c6c866127ba565b82529482019490820190612c5b565b96505086013592505080821115612c90575f80fd5b50612c9d858286016129e3565b9150509250929050565b5f8151808452602080850194508084015f5b83811015612cd557815187529582019590820190600101612cb9565b509495945050505050565b602081525f61282d6020830184612ca7565b5f60208284031215612d02575f80fd5b61282d826127ba565b803580151581146127d0575f80fd5b5f805f60608486031215612d2c575f80fd5b8335925060208401359150612d4360408501612d0b565b90509250925092565b5f8060408385031215612d5d575f80fd5b612d66836127ba565b9150612b0f60208401612d0b565b5f8060208385031215612d85575f80fd5b823567ffffffffffffffff80821115612d9c575f80fd5b818501915085601f830112612daf575f80fd5b813581811115612dbd575f80fd5b866020828501011115612dce575f80fd5b60209290920196919550909350505050565b5f8060408385031215612df1575f80fd5b612dfa836127ba565b9150612b0f602084016127ba565b5f60208284031215612e18575f80fd5b813567ffffffffffffffff811115612e2e575f80fd5b612e3a848285016128e5565b949350505050565b5f805f805f60a08688031215612e56575f80fd5b612e5f866127ba565b9450612e6d602087016127ba565b93506040860135925060608601359150608086013567ffffffffffffffff811115612e96575f80fd5b612ae1888289016128e5565b600181811c90821680612eb657607f821691505b602082108103612ed457634e487b7160e01b5f52602260045260245ffd5b50919050565b634e487b7160e01b5f52601260045260245ffd5b5f82612efc57612efc612eda565b500690565b634e487b7160e01b5f52601160045260245ffd5b5f60018201612f2657612f26612f01565b5060010190565b601f821115610a73575f81815260208120601f850160051c81016020861015612f535750805b601f850160051c820191505b8181101561098257828155600101612f5f565b815167ffffffffffffffff811115612f8c57612f8c6128a0565b612fa081612f9a8454612ea2565b84612f2d565b602080601f831160018114612fd3575f8415612fbc5750858301515b5f19600386901b1c1916600185901b178555610982565b5f85815260208120601f198616915b8281101561300157888601518255948401946001909101908401612fe2565b508582101561301e57878501515f19600388901b60f8161c191681555b5050505050600190811b01905550565b634e487b7160e01b5f52603260045260245ffd5b6020808252600c908201526b092dcecc2d8d2c892dcc8caf60a31b604082015260600190565b8082018082111561070a5761070a612f01565b808202811582820484141761070a5761070a612f01565b5f826130a0576130a0612eda565b500490565b8181038181111561070a5761070a612f01565b6020808252600a90820152691499599d5b9911985a5b60b21b604082015260600190565b6001600160a01b03959095168552602085019390935260408401919091526060830152608082015260a00190565b67ffffffffffffffff831115613122576131226128a0565b613136836131308354612ea2565b83612f2d565b5f601f841160018114613167575f85156131505750838201355b5f19600387901b1c1916600186901b178355611f5e565b5f83815260209020601f19861690835b828110156131975786850135825560209485019460019092019101613177565b50868210156131b3575f1960f88860031b161c19848701351681555b505060018560011b0183555050505050565b6020808252600c908201526b151c985b9cd9995c91985a5b60a21b604082015260600190565b604081525f6131fd6040830185612ca7565b828103602084015261320f8185612ca7565b95945050505050565b6001600160a01b03868116825285166020820152604081018490526060810183905260a0608082018190525f906132519083018461284b565b979650505050505050565b5f6020828403121561326c575f80fd5b815161282d816127fd565b6001600160a01b0386811682528516602082015260a0604082018190525f906132a290830186612ca7565b82810360608401526132b48186612ca7565b905082810360808401526132c8818561284b565b9897505050505050505056fe877a78dc988c0ec5f58453b44888a55eb39755c3d5ed8d8ea990912aa3ef29c6264565e1ff1c54ef5f2bc263d3b7f062af7172daf399273b0c92ffc4fd8d4a4da2646970667358221220c64ba02118a3d66c65f387ce3370c723502c421bb72a63ff7fa5dcdec30b138e64736f6c63430008140033",
			"opcodes": "PUSH1 0x80 PUSH1 0x40 MSTORE CALLVALUE DUP1 ISZERO PUSH3 0x10 JUMPI PUSH0 DUP1 REVERT JUMPDEST POP PUSH1 0x40 MLOAD PUSH3 0x36BB CODESIZE SUB DUP1 PUSH3 0x36BB DUP4 CODECOPY DUP2 ADD PUSH1 0x40 DUP2 SWAP1 MSTORE PUSH3 0x33 SWAP2 PUSH3 0x141 JUMP JUMPDEST DUP1 PUSH3 0x3F DUP2 PUSH3 0x6B JUMP JUMPDEST POP PUSH1 0x1 PUSH1 0x4 SSTORE PUSH3 0x51 PUSH0 CALLER PUSH3 0x7D JUMP JUMPDEST POP POP PUSH1 0x5 DUP1 SLOAD PUSH1 0x1 PUSH1 0x1 PUSH1 0xA0 SHL SUB NOT AND CALLER OR SWAP1 SSTORE PUSH3 0x363 JUMP JUMPDEST PUSH1 0x2 PUSH3 0x79 DUP3 DUP3 PUSH3 0x29B JUMP JUMPDEST POP POP JUMP JUMPDEST PUSH0 DUP3 DUP2 MSTORE PUSH1 0x3 PUSH1 0x20 SWAP1 DUP2 MSTORE PUSH1 0x40 DUP1 DUP4 KECCAK256 PUSH1 0x1 PUSH1 0x1 PUSH1 0xA0 SHL SUB DUP6 AND DUP5 MSTORE SWAP1 SWAP2 MSTORE DUP2 KECCAK256 SLOAD PUSH1 0xFF AND PUSH3 0x124 JUMPI PUSH0 DUP4 DUP2 MSTORE PUSH1 0x3 PUSH1 0x20 SWAP1 DUP2 MSTORE PUSH1 0x40 DUP1 DUP4 KECCAK256 PUSH1 0x1 PUSH1 0x1 PUSH1 0xA0 SHL SUB DUP7 AND DUP5 MSTORE SWAP1 SWAP2 MSTORE SWAP1 KECCAK256 DUP1 SLOAD PUSH1 0xFF NOT AND PUSH1 0x1 OR SWAP1 SSTORE PUSH3 0xDB CALLER SWAP1 JUMP JUMPDEST PUSH1 0x1 PUSH1 0x1 PUSH1 0xA0 SHL SUB AND DUP3 PUSH1 0x1 PUSH1 0x1 PUSH1 0xA0 SHL SUB AND DUP5 PUSH32 0x2F8788117E7EFF1D82E926EC794901D17C78024A50270940304540A733656F0D PUSH1 0x40 MLOAD PUSH1 0x40 MLOAD DUP1 SWAP2 SUB SWAP1 LOG4 POP PUSH1 0x1 PUSH3 0x127 JUMP JUMPDEST POP PUSH0 JUMPDEST SWAP3 SWAP2 POP POP JUMP JUMPDEST PUSH4 0x4E487B71 PUSH1 0xE0 SHL PUSH0 MSTORE PUSH1 0x41 PUSH1 0x4 MSTORE PUSH1 0x24 PUSH0 REVERT JUMPDEST PUSH0 PUSH1 0x20 DUP1 DUP4 DUP6 SUB SLT ISZERO PUSH3 0x153 JUMPI PUSH0 DUP1 REVERT JUMPDEST DUP3 MLOAD PUSH1 0x1 PUSH1 0x1 PUSH1 0x40 SHL SUB DUP1 DUP3 GT ISZERO PUSH3 0x16A JUMPI PUSH0 DUP1 REVERT JUMPDEST DUP2 DUP6 ADD SWAP2 POP DUP6 PUSH1 0x1F DUP4 ADD SLT PUSH3 0x17E JUMPI PUSH0 DUP1 REVERT JUMPDEST DUP2 MLOAD DUP2 DUP2 GT ISZERO PUSH3 0x193 JUMPI PUSH3 0x193 PUSH3 0x12D JUMP JUMPDEST PUSH1 0x40 MLOAD PUSH1 0x1F DUP3 ADD PUSH1 0x1F NOT SWAP1 DUP2 AND PUSH1 0x3F ADD AND DUP2 ADD SWAP1 DUP4 DUP3 GT DUP2 DUP4 LT OR ISZERO PUSH3 0x1BE JUMPI PUSH3 0x1BE PUSH3 0x12D JUMP JUMPDEST DUP2 PUSH1 0x40 MSTORE DUP3 DUP2 MSTORE DUP9 DUP7 DUP5 DUP8 ADD ADD GT ISZERO PUSH3 0x1D6 JUMPI PUSH0 DUP1 REVERT JUMPDEST PUSH0 SWAP4 POP JUMPDEST DUP3 DUP5 LT ISZERO PUSH3 0x1F9 JUMPI DUP5 DUP5 ADD DUP7 ADD MLOAD DUP2 DUP6 ADD DUP8 ADD MSTORE SWAP3 DUP6 ADD SWAP3 PUSH3 0x1DA JUMP JUMPDEST PUSH0 DUP7 DUP5 DUP4 ADD ADD MSTORE DUP1 SWAP7 POP POP POP POP POP POP POP SWAP3 SWAP2 POP POP JUMP JUMPDEST PUSH1 0x1 DUP2 DUP2 SHR SWAP1 DUP3 AND DUP1 PUSH3 0x224 JUMPI PUSH1 0x7F DUP3 AND SWAP2 POP JUMPDEST PUSH1 0x20 DUP3 LT DUP2 SUB PUSH3 0x243 JUMPI PUSH4 0x4E487B71 PUSH1 0xE0 SHL PUSH0 MSTORE PUSH1 0x22 PUSH1 0x4 MSTORE PUSH1 0x24 PUSH0 REVERT JUMPDEST POP SWAP2 SWAP1 POP JUMP JUMPDEST PUSH1 0x1F DUP3 GT ISZERO PUSH3 0x296 JUMPI PUSH0 DUP2 DUP2 MSTORE PUSH1 0x20 DUP2 KECCAK256 PUSH1 0x1F DUP6 ADD PUSH1 0x5 SHR DUP2 ADD PUSH1 0x20 DUP7 LT ISZERO PUSH3 0x271 JUMPI POP DUP1 JUMPDEST PUSH1 0x1F DUP6 ADD PUSH1 0x5 SHR DUP3 ADD SWAP2 POP JUMPDEST DUP2 DUP2 LT ISZERO PUSH3 0x292 JUMPI DUP3 DUP2 SSTORE PUSH1 0x1 ADD PUSH3 0x27D JUMP JUMPDEST POP POP POP JUMPDEST POP POP POP JUMP JUMPDEST DUP2 MLOAD PUSH1 0x1 PUSH1 0x1 PUSH1 0x40 SHL SUB DUP2 GT ISZERO PUSH3 0x2B7 JUMPI PUSH3 0x2B7 PUSH3 0x12D JUMP JUMPDEST PUSH3 0x2CF DUP2 PUSH3 0x2C8 DUP5 SLOAD PUSH3 0x20F JUMP JUMPDEST DUP5 PUSH3 0x249 JUMP JUMPDEST PUSH1 0x20 DUP1 PUSH1 0x1F DUP4 GT PUSH1 0x1 DUP2 EQ PUSH3 0x305 JUMPI PUSH0 DUP5 ISZERO PUSH3 0x2ED JUMPI POP DUP6 DUP4 ADD MLOAD JUMPDEST PUSH0 NOT PUSH1 0x3 DUP7 SWAP1 SHL SHR NOT AND PUSH1 0x1 DUP6 SWAP1 SHL OR DUP6 SSTORE PUSH3 0x292 JUMP JUMPDEST PUSH0 DUP6 DUP2 MSTORE PUSH1 0x20 DUP2 KECCAK256 PUSH1 0x1F NOT DUP7 AND SWAP2 JUMPDEST DUP3 DUP2 LT ISZERO PUSH3 0x335 JUMPI DUP9 DUP7 ADD MLOAD DUP3 SSTORE SWAP5 DUP5 ADD SWAP5 PUSH1 0x1 SWAP1 SWAP2 ADD SWAP1 DUP5 ADD PUSH3 0x314 JUMP JUMPDEST POP DUP6 DUP3 LT ISZERO PUSH3 0x353 JUMPI DUP8 DUP6 ADD MLOAD PUSH0 NOT PUSH1 0x3 DUP9 SWAP1 SHL PUSH1 0xF8 AND SHR NOT AND DUP2 SSTORE JUMPDEST POP POP POP POP POP PUSH1 0x1 SWAP1 DUP2 SHL ADD SWAP1 SSTORE POP JUMP JUMPDEST PUSH2 0x334A DUP1 PUSH3 0x371 PUSH0 CODECOPY PUSH0 RETURN INVALID PUSH1 0x80 PUSH1 0x40 MSTORE PUSH1 0x4 CALLDATASIZE LT PUSH2 0x1F9 JUMPI PUSH0 CALLDATALOAD PUSH1 0xE0 SHR DUP1 PUSH4 0x9CEA0787 GT PUSH2 0x10B JUMPI DUP1 PUSH4 0xD4AA56B1 GT PUSH2 0x99 JUMPI DUP1 PUSH4 0xF0D93B9A GT PUSH2 0x6B JUMPI DUP1 PUSH4 0xF0D93B9A EQ PUSH2 0x659 JUMPI DUP1 PUSH4 0xF14210A6 EQ PUSH2 0x678 JUMPI DUP1 PUSH4 0xF23A6E61 EQ PUSH2 0x697 JUMPI DUP1 PUSH4 0xF242432A EQ PUSH2 0x6C2 JUMPI DUP1 PUSH4 0xF6326FB3 EQ PUSH2 0x6E1 JUMPI STOP JUMPDEST DUP1 PUSH4 0xD4AA56B1 EQ PUSH2 0x5E9 JUMPI DUP1 PUSH4 0xD547741F EQ PUSH2 0x608 JUMPI DUP1 PUSH4 0xE82F4062 EQ PUSH2 0x627 JUMPI DUP1 PUSH4 0xE985E9C5 EQ PUSH2 0x63A JUMPI STOP JUMPDEST DUP1 PUSH4 0xA966A0DF GT PUSH2 0xDD JUMPI DUP1 PUSH4 0xA966A0DF EQ PUSH2 0x504 JUMPI DUP1 PUSH4 0xAC76E521 EQ PUSH2 0x524 JUMPI DUP1 PUSH4 0xB69B6D66 EQ PUSH2 0x54F JUMPI DUP1 PUSH4 0xB89571C7 EQ PUSH2 0x586 JUMPI DUP1 PUSH4 0xBC197C81 EQ PUSH2 0x5A5 JUMPI STOP JUMPDEST DUP1 PUSH4 0x9CEA0787 EQ PUSH2 0x480 JUMPI DUP1 PUSH4 0x9E56F275 EQ PUSH2 0x4B3 JUMPI DUP1 PUSH4 0xA217FDDF EQ PUSH2 0x4D2 JUMPI DUP1 PUSH4 0xA22CB465 EQ PUSH2 0x4E5 JUMPI STOP JUMPDEST DUP1 PUSH4 0x36568ABE GT PUSH2 0x188 JUMPI DUP1 PUSH4 0x4E1273F4 GT PUSH2 0x15A JUMPI DUP1 PUSH4 0x4E1273F4 EQ PUSH2 0x3D8 JUMPI DUP1 PUSH4 0x595AF66F EQ PUSH2 0x404 JUMPI DUP1 PUSH4 0x7365E8EC EQ PUSH2 0x423 JUMPI DUP1 PUSH4 0x815176AA EQ PUSH2 0x442 JUMPI DUP1 PUSH4 0x91D14854 EQ PUSH2 0x461 JUMPI STOP JUMPDEST DUP1 PUSH4 0x36568ABE EQ PUSH2 0x343 JUMPI DUP1 PUSH4 0x3A14AF65 EQ PUSH2 0x362 JUMPI DUP1 PUSH4 0x4B602673 EQ PUSH2 0x377 JUMPI DUP1 PUSH4 0x4BC9DB85 EQ PUSH2 0x3A9 JUMPI STOP JUMPDEST DUP1 PUSH4 0x237F1509 GT PUSH2 0x1CC JUMPI DUP1 PUSH4 0x237F1509 EQ PUSH2 0x2A4 JUMPI DUP1 PUSH4 0x248A9CA3 EQ PUSH2 0x2C3 JUMPI DUP1 PUSH4 0x2EB2C2D6 EQ PUSH2 0x2F1 JUMPI DUP1 PUSH4 0x2F2FF15D EQ PUSH2 0x310 JUMPI DUP1 PUSH4 0x361D8C3A EQ PUSH2 0x32F JUMPI STOP JUMPDEST DUP1 PUSH3 0xFDD58E EQ PUSH2 0x202 JUMPI DUP1 PUSH4 0x1FFC9A7 EQ PUSH2 0x234 JUMPI DUP1 PUSH4 0xE89341C EQ PUSH2 0x263 JUMPI DUP1 PUSH4 0x18B6DCBC EQ PUSH2 0x28F JUMPI STOP JUMPDEST CALLDATASIZE PUSH2 0x200 JUMPI STOP JUMPDEST STOP JUMPDEST CALLVALUE DUP1 ISZERO PUSH2 0x20D JUMPI PUSH0 DUP1 REVERT JUMPDEST POP PUSH2 0x221 PUSH2 0x21C CALLDATASIZE PUSH1 0x4 PUSH2 0x27D5 JUMP JUMPDEST PUSH2 0x6E9 JUMP JUMPDEST PUSH1 0x40 MLOAD SWAP1 DUP2 MSTORE PUSH1 0x20 ADD JUMPDEST PUSH1 0x40 MLOAD DUP1 SWAP2 SUB SWAP1 RETURN JUMPDEST CALLVALUE DUP1 ISZERO PUSH2 0x23F JUMPI PUSH0 DUP1 REVERT JUMPDEST POP PUSH2 0x253 PUSH2 0x24E CALLDATASIZE PUSH1 0x4 PUSH2 0x2812 JUMP JUMPDEST PUSH2 0x710 JUMP JUMPDEST PUSH1 0x40 MLOAD SWAP1 ISZERO ISZERO DUP2 MSTORE PUSH1 0x20 ADD PUSH2 0x22B JUMP JUMPDEST CALLVALUE DUP1 ISZERO PUSH2 0x26E JUMPI PUSH0 DUP1 REVERT JUMPDEST POP PUSH2 0x282 PUSH2 0x27D CALLDATASIZE PUSH1 0x4 PUSH2 0x2834 JUMP JUMPDEST PUSH2 0x71A JUMP JUMPDEST PUSH1 0x40 MLOAD PUSH2 0x22B SWAP2 SWAP1 PUSH2 0x288E JUMP JUMPDEST CALLVALUE DUP1 ISZERO PUSH2 0x29A JUMPI PUSH0 DUP1 REVERT JUMPDEST POP PUSH2 0x221 PUSH1 0x7 SLOAD DUP2 JUMP JUMPDEST CALLVALUE DUP1 ISZERO PUSH2 0x2AF JUMPI PUSH0 DUP1 REVERT JUMPDEST POP PUSH2 0x221 PUSH2 0x2BE CALLDATASIZE PUSH1 0x4 PUSH2 0x2951 JUMP JUMPDEST PUSH2 0x7AC JUMP JUMPDEST CALLVALUE DUP1 ISZERO PUSH2 0x2CE JUMPI PUSH0 DUP1 REVERT JUMPDEST POP PUSH2 0x221 PUSH2 0x2DD CALLDATASIZE PUSH1 0x4 PUSH2 0x2834 JUMP JUMPDEST PUSH0 SWAP1 DUP2 MSTORE PUSH1 0x3 PUSH1 0x20 MSTORE PUSH1 0x40 SWAP1 KECCAK256 PUSH1 0x1 ADD SLOAD SWAP1 JUMP JUMPDEST CALLVALUE DUP1 ISZERO PUSH2 0x2FC JUMPI PUSH0 DUP1 REVERT JUMPDEST POP PUSH2 0x200 PUSH2 0x30B CALLDATASIZE PUSH1 0x4 PUSH2 0x2A4B JUMP JUMPDEST PUSH2 0x923 JUMP JUMPDEST CALLVALUE DUP1 ISZERO PUSH2 0x31B JUMPI PUSH0 DUP1 REVERT JUMPDEST POP PUSH2 0x200 PUSH2 0x32A CALLDATASIZE PUSH1 0x4 PUSH2 0x2AEE JUMP JUMPDEST PUSH2 0x98A JUMP JUMPDEST CALLVALUE DUP1 ISZERO PUSH2 0x33A JUMPI PUSH0 DUP1 REVERT JUMPDEST POP PUSH2 0x282 PUSH2 0x9B4 JUMP JUMPDEST CALLVALUE DUP1 ISZERO PUSH2 0x34E JUMPI PUSH0 DUP1 REVERT JUMPDEST POP PUSH2 0x200 PUSH2 0x35D CALLDATASIZE PUSH1 0x4 PUSH2 0x2AEE JUMP JUMPDEST PUSH2 0xA40 JUMP JUMPDEST CALLVALUE DUP1 ISZERO PUSH2 0x36D JUMPI PUSH0 DUP1 REVERT JUMPDEST POP PUSH2 0x221 PUSH2 0x258 DUP2 JUMP JUMPDEST CALLVALUE DUP1 ISZERO PUSH2 0x382 JUMPI PUSH0 DUP1 REVERT JUMPDEST POP PUSH2 0x396 PUSH2 0x391 CALLDATASIZE PUSH1 0x4 PUSH2 0x2834 JUMP JUMPDEST PUSH2 0xA78 JUMP JUMPDEST PUSH1 0x40 MLOAD PUSH2 0x22B SWAP8 SWAP7 SWAP6 SWAP5 SWAP4 SWAP3 SWAP2 SWAP1 PUSH2 0x2B18 JUMP JUMPDEST CALLVALUE DUP1 ISZERO PUSH2 0x3B4 JUMPI PUSH0 DUP1 REVERT JUMPDEST POP PUSH2 0x3C8 PUSH2 0x3C3 CALLDATASIZE PUSH1 0x4 PUSH2 0x2B72 JUMP JUMPDEST PUSH2 0xBC8 JUMP JUMPDEST PUSH1 0x40 MLOAD PUSH2 0x22B SWAP5 SWAP4 SWAP3 SWAP2 SWAP1 PUSH2 0x2BA6 JUMP JUMPDEST CALLVALUE DUP1 ISZERO PUSH2 0x3E3 JUMPI PUSH0 DUP1 REVERT JUMPDEST POP PUSH2 0x3F7 PUSH2 0x3F2 CALLDATASIZE PUSH1 0x4 PUSH2 0x2BED JUMP JUMPDEST PUSH2 0xC19 JUMP JUMPDEST PUSH1 0x40 MLOAD PUSH2 0x22B SWAP2 SWAP1 PUSH2 0x2CE0 JUMP JUMPDEST CALLVALUE DUP1 ISZERO PUSH2 0x40F JUMPI PUSH0 DUP1 REVERT JUMPDEST POP PUSH2 0x200 PUSH2 0x41E CALLDATASIZE PUSH1 0x4 PUSH2 0x2CF2 JUMP JUMPDEST PUSH2 0xCEC JUMP JUMPDEST CALLVALUE DUP1 ISZERO PUSH2 0x42E JUMPI PUSH0 DUP1 REVERT JUMPDEST POP PUSH2 0x200 PUSH2 0x43D CALLDATASIZE PUSH1 0x4 PUSH2 0x2B72 JUMP JUMPDEST PUSH2 0xD19 JUMP JUMPDEST CALLVALUE DUP1 ISZERO PUSH2 0x44D JUMPI PUSH0 DUP1 REVERT JUMPDEST POP PUSH2 0x282 PUSH2 0x45C CALLDATASIZE PUSH1 0x4 PUSH2 0x2CF2 JUMP JUMPDEST PUSH2 0x109A JUMP JUMPDEST CALLVALUE DUP1 ISZERO PUSH2 0x46C JUMPI PUSH0 DUP1 REVERT JUMPDEST POP PUSH2 0x253 PUSH2 0x47B CALLDATASIZE PUSH1 0x4 PUSH2 0x2AEE JUMP JUMPDEST PUSH2 0x10B2 JUMP JUMPDEST CALLVALUE DUP1 ISZERO PUSH2 0x48B JUMPI PUSH0 DUP1 REVERT JUMPDEST POP PUSH2 0x221 PUSH32 0x16CEEE8289685DD2A02B9C8AE81D2DF373176CE53519E6284E2A2950D6546FFA DUP2 JUMP JUMPDEST CALLVALUE DUP1 ISZERO PUSH2 0x4BE JUMPI PUSH0 DUP1 REVERT JUMPDEST POP PUSH2 0x200 PUSH2 0x4CD CALLDATASIZE PUSH1 0x4 PUSH2 0x2D1A JUMP JUMPDEST PUSH2 0x10DC JUMP JUMPDEST CALLVALUE DUP1 ISZERO PUSH2 0x4DD JUMPI PUSH0 DUP1 REVERT JUMPDEST POP PUSH2 0x221 PUSH0 DUP2 JUMP JUMPDEST CALLVALUE DUP1 ISZERO PUSH2 0x4F0 JUMPI PUSH0 DUP1 REVERT JUMPDEST POP PUSH2 0x200 PUSH2 0x4FF CALLDATASIZE PUSH1 0x4 PUSH2 0x2D4C JUMP JUMPDEST PUSH2 0x161E JUMP JUMPDEST CALLVALUE DUP1 ISZERO PUSH2 0x50F JUMPI PUSH0 DUP1 REVERT JUMPDEST POP PUSH2 0x221 PUSH0 DUP1 MLOAD PUSH1 0x20 PUSH2 0x32D5 DUP4 CODECOPY DUP2 MLOAD SWAP2 MSTORE DUP2 JUMP JUMPDEST CALLVALUE DUP1 ISZERO PUSH2 0x52F JUMPI PUSH0 DUP1 REVERT JUMPDEST POP PUSH2 0x221 PUSH2 0x53E CALLDATASIZE PUSH1 0x4 PUSH2 0x2CF2 JUMP JUMPDEST PUSH1 0xB PUSH1 0x20 MSTORE PUSH0 SWAP1 DUP2 MSTORE PUSH1 0x40 SWAP1 KECCAK256 SLOAD DUP2 JUMP JUMPDEST CALLVALUE DUP1 ISZERO PUSH2 0x55A JUMPI PUSH0 DUP1 REVERT JUMPDEST POP PUSH1 0x5 SLOAD PUSH2 0x56E SWAP1 PUSH1 0x1 PUSH1 0x1 PUSH1 0xA0 SHL SUB AND DUP2 JUMP JUMPDEST PUSH1 0x40 MLOAD PUSH1 0x1 PUSH1 0x1 PUSH1 0xA0 SHL SUB SWAP1 SWAP2 AND DUP2 MSTORE PUSH1 0x20 ADD PUSH2 0x22B JUMP JUMPDEST CALLVALUE DUP1 ISZERO PUSH2 0x591 JUMPI PUSH0 DUP1 REVERT JUMPDEST POP PUSH2 0x200 PUSH2 0x5A0 CALLDATASIZE PUSH1 0x4 PUSH2 0x2D1A JUMP JUMPDEST PUSH2 0x1629 JUMP JUMPDEST CALLVALUE DUP1 ISZERO PUSH2 0x5B0 JUMPI PUSH0 DUP1 REVERT JUMPDEST POP PUSH2 0x5D0 PUSH2 0x5BF CALLDATASIZE PUSH1 0x4 PUSH2 0x2A4B JUMP JUMPDEST PUSH4 0xBC197C81 PUSH1 0xE0 SHL SWAP6 SWAP5 POP POP POP POP POP JUMP JUMPDEST PUSH1 0x40 MLOAD PUSH1 0x1 PUSH1 0x1 PUSH1 0xE0 SHL SUB NOT SWAP1 SWAP2 AND DUP2 MSTORE PUSH1 0x20 ADD PUSH2 0x22B JUMP JUMPDEST CALLVALUE DUP1 ISZERO PUSH2 0x5F4 JUMPI PUSH0 DUP1 REVERT JUMPDEST POP PUSH2 0x200 PUSH2 0x603 CALLDATASIZE PUSH1 0x4 PUSH2 0x2D74 JUMP JUMPDEST PUSH2 0x19BC JUMP JUMPDEST CALLVALUE DUP1 ISZERO PUSH2 0x613 JUMPI PUSH0 DUP1 REVERT JUMPDEST POP PUSH2 0x200 PUSH2 0x622 CALLDATASIZE PUSH1 0x4 PUSH2 0x2AEE JUMP JUMPDEST PUSH2 0x1A13 JUMP JUMPDEST PUSH2 0x200 PUSH2 0x635 CALLDATASIZE PUSH1 0x4 PUSH2 0x2834 JUMP JUMPDEST PUSH2 0x1A37 JUMP JUMPDEST CALLVALUE DUP1 ISZERO PUSH2 0x645 JUMPI PUSH0 DUP1 REVERT JUMPDEST POP PUSH2 0x253 PUSH2 0x654 CALLDATASIZE PUSH1 0x4 PUSH2 0x2DE0 JUMP JUMPDEST PUSH2 0x1CBD JUMP JUMPDEST CALLVALUE DUP1 ISZERO PUSH2 0x664 JUMPI PUSH0 DUP1 REVERT JUMPDEST POP PUSH2 0x200 PUSH2 0x673 CALLDATASIZE PUSH1 0x4 PUSH2 0x2E08 JUMP JUMPDEST PUSH2 0x1CEA JUMP JUMPDEST CALLVALUE DUP1 ISZERO PUSH2 0x683 JUMPI PUSH0 DUP1 REVERT JUMPDEST POP PUSH2 0x200 PUSH2 0x692 CALLDATASIZE PUSH1 0x4 PUSH2 0x2834 JUMP JUMPDEST PUSH2 0x1D02 JUMP JUMPDEST CALLVALUE DUP1 ISZERO PUSH2 0x6A2 JUMPI PUSH0 DUP1 REVERT JUMPDEST POP PUSH2 0x5D0 PUSH2 0x6B1 CALLDATASIZE PUSH1 0x4 PUSH2 0x2E42 JUMP JUMPDEST PUSH4 0xF23A6E61 PUSH1 0xE0 SHL SWAP6 SWAP5 POP POP POP POP POP JUMP JUMPDEST CALLVALUE DUP1 ISZERO PUSH2 0x6CD JUMPI PUSH0 DUP1 REVERT JUMPDEST POP PUSH2 0x200 PUSH2 0x6DC CALLDATASIZE PUSH1 0x4 PUSH2 0x2E42 JUMP JUMPDEST PUSH2 0x1E0A JUMP JUMPDEST PUSH2 0x200 PUSH2 0x1E69 JUMP JUMPDEST PUSH0 DUP2 DUP2 MSTORE PUSH1 0x20 DUP2 DUP2 MSTORE PUSH1 0x40 DUP1 DUP4 KECCAK256 PUSH1 0x1 PUSH1 0x1 PUSH1 0xA0 SHL SUB DUP7 AND DUP5 MSTORE SWAP1 SWAP2 MSTORE SWAP1 KECCAK256 SLOAD JUMPDEST SWAP3 SWAP2 POP POP JUMP JUMPDEST PUSH0 PUSH2 0x70A DUP3 PUSH2 0x1ED2 JUMP JUMPDEST PUSH1 0x60 PUSH1 0x2 DUP1 SLOAD PUSH2 0x729 SWAP1 PUSH2 0x2EA2 JUMP JUMPDEST DUP1 PUSH1 0x1F ADD PUSH1 0x20 DUP1 SWAP2 DIV MUL PUSH1 0x20 ADD PUSH1 0x40 MLOAD SWAP1 DUP2 ADD PUSH1 0x40 MSTORE DUP1 SWAP3 SWAP2 SWAP1 DUP2 DUP2 MSTORE PUSH1 0x20 ADD DUP3 DUP1 SLOAD PUSH2 0x755 SWAP1 PUSH2 0x2EA2 JUMP JUMPDEST DUP1 ISZERO PUSH2 0x7A0 JUMPI DUP1 PUSH1 0x1F LT PUSH2 0x777 JUMPI PUSH2 0x100 DUP1 DUP4 SLOAD DIV MUL DUP4 MSTORE SWAP2 PUSH1 0x20 ADD SWAP2 PUSH2 0x7A0 JUMP JUMPDEST DUP3 ADD SWAP2 SWAP1 PUSH0 MSTORE PUSH1 0x20 PUSH0 KECCAK256 SWAP1 JUMPDEST DUP2 SLOAD DUP2 MSTORE SWAP1 PUSH1 0x1 ADD SWAP1 PUSH1 0x20 ADD DUP1 DUP4 GT PUSH2 0x783 JUMPI DUP3 SWAP1 SUB PUSH1 0x1F AND DUP3 ADD SWAP2 JUMPDEST POP POP POP POP POP SWAP1 POP SWAP2 SWAP1 POP JUMP JUMPDEST PUSH0 PUSH0 DUP1 MLOAD PUSH1 0x20 PUSH2 0x32D5 DUP4 CODECOPY DUP2 MLOAD SWAP2 MSTORE PUSH2 0x7C4 DUP2 PUSH2 0x1EF6 JUMP JUMPDEST PUSH2 0x7CF PUSH1 0xA DUP5 PUSH2 0x2EEE JUMP JUMPDEST ISZERO PUSH2 0x810 JUMPI PUSH1 0x40 MLOAD PUSH3 0x461BCD PUSH1 0xE5 SHL DUP2 MSTORE PUSH1 0x20 PUSH1 0x4 DUP3 ADD MSTORE PUSH1 0xC PUSH1 0x24 DUP3 ADD MSTORE PUSH12 0x496E76616C69645072696365 PUSH1 0xA0 SHL PUSH1 0x44 DUP3 ADD MSTORE PUSH1 0x64 ADD JUMPDEST PUSH1 0x40 MLOAD DUP1 SWAP2 SUB SWAP1 REVERT JUMPDEST PUSH1 0x7 DUP1 SLOAD SWAP1 PUSH0 PUSH2 0x81F DUP4 PUSH2 0x2F15 JUMP JUMPDEST SWAP1 SWAP2 SSTORE POP POP PUSH1 0x7 SLOAD PUSH1 0x40 DUP1 MLOAD PUSH1 0xE0 DUP2 ADD DUP3 MSTORE DUP3 DUP2 MSTORE PUSH1 0x20 DUP1 DUP3 ADD DUP11 DUP2 MSTORE DUP3 DUP5 ADD DUP11 SWAP1 MSTORE PUSH1 0x60 DUP4 ADD DUP10 SWAP1 MSTORE PUSH0 PUSH1 0x80 DUP5 ADD DUP2 SWAP1 MSTORE PUSH1 0xA0 DUP5 ADD DUP10 SWAP1 MSTORE CALLER PUSH1 0xC0 DUP6 ADD MSTORE DUP6 DUP2 MSTORE PUSH1 0x9 SWAP1 SWAP3 MSTORE SWAP3 SWAP1 KECCAK256 DUP2 MLOAD DUP2 SSTORE SWAP2 MLOAD SWAP1 SWAP2 SWAP1 PUSH1 0x1 DUP3 ADD SWAP1 PUSH2 0x881 SWAP1 DUP3 PUSH2 0x2F72 JUMP JUMPDEST POP PUSH1 0x40 DUP3 ADD MLOAD PUSH1 0x2 DUP3 ADD SWAP1 PUSH2 0x896 SWAP1 DUP3 PUSH2 0x2F72 JUMP JUMPDEST POP PUSH1 0x60 DUP3 ADD MLOAD PUSH1 0x3 DUP3 ADD SSTORE PUSH1 0x80 DUP3 ADD MLOAD PUSH1 0x4 DUP3 ADD SSTORE PUSH1 0xA0 DUP3 ADD MLOAD PUSH1 0x5 DUP3 ADD SSTORE PUSH1 0xC0 SWAP1 SWAP2 ADD MLOAD PUSH1 0x6 SWAP1 SWAP2 ADD DUP1 SLOAD PUSH1 0x1 PUSH1 0x1 PUSH1 0xA0 SHL SUB NOT AND PUSH1 0x1 PUSH1 0x1 PUSH1 0xA0 SHL SUB SWAP1 SWAP3 AND SWAP2 SWAP1 SWAP2 OR SWAP1 SSTORE PUSH1 0x40 DUP1 MLOAD DUP6 DUP2 MSTORE PUSH1 0x20 DUP2 ADD DUP8 SWAP1 MSTORE CALLER SWAP2 DUP4 SWAP2 PUSH31 0xF3538CB5ABE2E9BC54F73939E4D165FCE3752D27FE21A5E88B2A9F6DA20C63 SWAP2 ADD PUSH1 0x40 MLOAD DUP1 SWAP2 SUB SWAP1 LOG3 SWAP7 SWAP6 POP POP POP POP POP POP JUMP JUMPDEST CALLER PUSH1 0x1 PUSH1 0x1 PUSH1 0xA0 SHL SUB DUP7 AND DUP2 EQ DUP1 ISZERO SWAP1 PUSH2 0x944 JUMPI POP PUSH2 0x942 DUP7 DUP3 PUSH2 0x1CBD JUMP JUMPDEST ISZERO JUMPDEST ISZERO PUSH2 0x975 JUMPI PUSH1 0x40 MLOAD PUSH4 0x711BEC91 PUSH1 0xE1 SHL DUP2 MSTORE PUSH1 0x1 PUSH1 0x1 PUSH1 0xA0 SHL SUB DUP1 DUP4 AND PUSH1 0x4 DUP4 ADD MSTORE DUP8 AND PUSH1 0x24 DUP3 ADD MSTORE PUSH1 0x44 ADD PUSH2 0x807 JUMP JUMPDEST PUSH2 0x982 DUP7 DUP7 DUP7 DUP7 DUP7 PUSH2 0x1F00 JUMP JUMPDEST POP POP POP POP POP POP JUMP JUMPDEST PUSH0 DUP3 DUP2 MSTORE PUSH1 0x3 PUSH1 0x20 MSTORE PUSH1 0x40 SWAP1 KECCAK256 PUSH1 0x1 ADD SLOAD PUSH2 0x9A4 DUP2 PUSH2 0x1EF6 JUMP JUMPDEST PUSH2 0x9AE DUP4 DUP4 PUSH2 0x1F65 JUMP JUMPDEST POP POP POP POP JUMP JUMPDEST PUSH1 0x6 DUP1 SLOAD PUSH2 0x9C1 SWAP1 PUSH2 0x2EA2 JUMP JUMPDEST DUP1 PUSH1 0x1F ADD PUSH1 0x20 DUP1 SWAP2 DIV MUL PUSH1 0x20 ADD PUSH1 0x40 MLOAD SWAP1 DUP2 ADD PUSH1 0x40 MSTORE DUP1 SWAP3 SWAP2 SWAP1 DUP2 DUP2 MSTORE PUSH1 0x20 ADD DUP3 DUP1 SLOAD PUSH2 0x9ED SWAP1 PUSH2 0x2EA2 JUMP JUMPDEST DUP1 ISZERO PUSH2 0xA38 JUMPI DUP1 PUSH1 0x1F LT PUSH2 0xA0F JUMPI PUSH2 0x100 DUP1 DUP4 SLOAD DIV MUL DUP4 MSTORE SWAP2 PUSH1 0x20 ADD SWAP2 PUSH2 0xA38 JUMP JUMPDEST DUP3 ADD SWAP2 SWAP1 PUSH0 MSTORE PUSH1 0x20 PUSH0 KECCAK256 SWAP1 JUMPDEST DUP2 SLOAD DUP2 MSTORE SWAP1 PUSH1 0x1 ADD SWAP1 PUSH1 0x20 ADD DUP1 DUP4 GT PUSH2 0xA1B JUMPI DUP3 SWAP1 SUB PUSH1 0x1F AND DUP3 ADD SWAP2 JUMPDEST POP POP POP POP POP DUP2 JUMP JUMPDEST PUSH1 0x1 PUSH1 0x1 PUSH1 0xA0 SHL SUB DUP2 AND CALLER EQ PUSH2 0xA69 JUMPI PUSH1 0x40 MLOAD PUSH4 0x334BD919 PUSH1 0xE1 SHL DUP2 MSTORE PUSH1 0x4 ADD PUSH1 0x40 MLOAD DUP1 SWAP2 SUB SWAP1 REVERT JUMPDEST PUSH2 0xA73 DUP3 DUP3 PUSH2 0x1FF6 JUMP JUMPDEST POP POP POP JUMP JUMPDEST PUSH1 0x9 PUSH1 0x20 MSTORE PUSH0 SWAP1 DUP2 MSTORE PUSH1 0x40 SWAP1 KECCAK256 DUP1 SLOAD PUSH1 0x1 DUP3 ADD DUP1 SLOAD SWAP2 SWAP3 SWAP2 PUSH2 0xA99 SWAP1 PUSH2 0x2EA2 JUMP JUMPDEST DUP1 PUSH1 0x1F ADD PUSH1 0x20 DUP1 SWAP2 DIV MUL PUSH1 0x20 ADD PUSH1 0x40 MLOAD SWAP1 DUP2 ADD PUSH1 0x40 MSTORE DUP1 SWAP3 SWAP2 SWAP1 DUP2 DUP2 MSTORE PUSH1 0x20 ADD DUP3 DUP1 SLOAD PUSH2 0xAC5 SWAP1 PUSH2 0x2EA2 JUMP JUMPDEST DUP1 ISZERO PUSH2 0xB10 JUMPI DUP1 PUSH1 0x1F LT PUSH2 0xAE7 JUMPI PUSH2 0x100 DUP1 DUP4 SLOAD DIV MUL DUP4 MSTORE SWAP2 PUSH1 0x20 ADD SWAP2 PUSH2 0xB10 JUMP JUMPDEST DUP3 ADD SWAP2 SWAP1 PUSH0 MSTORE PUSH1 0x20 PUSH0 KECCAK256 SWAP1 JUMPDEST DUP2 SLOAD DUP2 MSTORE SWAP1 PUSH1 0x1 ADD SWAP1 PUSH1 0x20 ADD DUP1 DUP4 GT PUSH2 0xAF3 JUMPI DUP3 SWAP1 SUB PUSH1 0x1F AND DUP3 ADD SWAP2 JUMPDEST POP POP POP POP POP SWAP1 DUP1 PUSH1 0x2 ADD DUP1 SLOAD PUSH2 0xB25 SWAP1 PUSH2 0x2EA2 JUMP JUMPDEST DUP1 PUSH1 0x1F ADD PUSH1 0x20 DUP1 SWAP2 DIV MUL PUSH1 0x20 ADD PUSH1 0x40 MLOAD SWAP1 DUP2 ADD PUSH1 0x40 MSTORE DUP1 SWAP3 SWAP2 SWAP1 DUP2 DUP2 MSTORE PUSH1 0x20 ADD DUP3 DUP1 SLOAD PUSH2 0xB51 SWAP1 PUSH2 0x2EA2 JUMP JUMPDEST DUP1 ISZERO PUSH2 0xB9C JUMPI DUP1 PUSH1 0x1F LT PUSH2 0xB73 JUMPI PUSH2 0x100 DUP1 DUP4 SLOAD DIV MUL DUP4 MSTORE SWAP2 PUSH1 0x20 ADD SWAP2 PUSH2 0xB9C JUMP JUMPDEST DUP3 ADD SWAP2 SWAP1 PUSH0 MSTORE PUSH1 0x20 PUSH0 KECCAK256 SWAP1 JUMPDEST DUP2 SLOAD DUP2 MSTORE SWAP1 PUSH1 0x1 ADD SWAP1 PUSH1 0x20 ADD DUP1 DUP4 GT PUSH2 0xB7F JUMPI DUP3 SWAP1 SUB PUSH1 0x1F AND DUP3 ADD SWAP2 JUMPDEST POP POP POP POP PUSH1 0x3 DUP4 ADD SLOAD PUSH1 0x4 DUP5 ADD SLOAD PUSH1 0x5 DUP6 ADD SLOAD PUSH1 0x6 SWAP1 SWAP6 ADD SLOAD SWAP4 SWAP5 SWAP2 SWAP4 SWAP1 SWAP3 POP PUSH1 0x1 PUSH1 0x1 PUSH1 0xA0 SHL SUB AND DUP8 JUMP JUMPDEST PUSH1 0xA PUSH1 0x20 MSTORE DUP2 PUSH0 MSTORE PUSH1 0x40 PUSH0 KECCAK256 DUP2 DUP2 SLOAD DUP2 LT PUSH2 0xBE1 JUMPI PUSH0 DUP1 REVERT JUMPDEST PUSH0 SWAP2 DUP3 MSTORE PUSH1 0x20 SWAP1 SWAP2 KECCAK256 PUSH1 0x3 SWAP1 SWAP2 MUL ADD DUP1 SLOAD PUSH1 0x1 DUP3 ADD SLOAD PUSH1 0x2 SWAP1 SWAP3 ADD SLOAD PUSH1 0x1 PUSH1 0x1 PUSH1 0xA0 SHL SUB DUP3 AND SWAP5 POP PUSH1 0x1 PUSH1 0xA0 SHL SWAP1 SWAP2 DIV PUSH1 0xFF AND SWAP3 POP DUP5 JUMP JUMPDEST PUSH1 0x60 DUP2 MLOAD DUP4 MLOAD EQ PUSH2 0xC4A JUMPI DUP2 MLOAD DUP4 MLOAD PUSH1 0x40 MLOAD PUSH4 0x5B059991 PUSH1 0xE0 SHL DUP2 MSTORE PUSH1 0x4 DUP2 ADD SWAP3 SWAP1 SWAP3 MSTORE PUSH1 0x24 DUP3 ADD MSTORE PUSH1 0x44 ADD PUSH2 0x807 JUMP JUMPDEST PUSH0 DUP4 MLOAD PUSH8 0xFFFFFFFFFFFFFFFF DUP2 GT ISZERO PUSH2 0xC65 JUMPI PUSH2 0xC65 PUSH2 0x28A0 JUMP JUMPDEST PUSH1 0x40 MLOAD SWAP1 DUP1 DUP3 MSTORE DUP1 PUSH1 0x20 MUL PUSH1 0x20 ADD DUP3 ADD PUSH1 0x40 MSTORE DUP1 ISZERO PUSH2 0xC8E JUMPI DUP2 PUSH1 0x20 ADD PUSH1 0x20 DUP3 MUL DUP1 CALLDATASIZE DUP4 CALLDATACOPY ADD SWAP1 POP JUMPDEST POP SWAP1 POP PUSH0 JUMPDEST DUP5 MLOAD DUP2 LT ISZERO PUSH2 0xCE4 JUMPI PUSH1 0x20 DUP1 DUP3 MUL DUP7 ADD ADD MLOAD PUSH2 0xCB7 SWAP1 PUSH1 0x20 DUP1 DUP5 MUL DUP8 ADD ADD MLOAD PUSH2 0x6E9 JUMP JUMPDEST DUP3 DUP3 DUP2 MLOAD DUP2 LT PUSH2 0xCC9 JUMPI PUSH2 0xCC9 PUSH2 0x302E JUMP JUMPDEST PUSH1 0x20 SWAP1 DUP2 MUL SWAP2 SWAP1 SWAP2 ADD ADD MSTORE PUSH2 0xCDD DUP2 PUSH2 0x2F15 JUMP JUMPDEST SWAP1 POP PUSH2 0xC93 JUMP JUMPDEST POP SWAP4 SWAP3 POP POP POP JUMP JUMPDEST PUSH0 PUSH2 0xCF6 DUP2 PUSH2 0x1EF6 JUMP JUMPDEST POP PUSH1 0x5 DUP1 SLOAD PUSH1 0x1 PUSH1 0x1 PUSH1 0xA0 SHL SUB NOT AND PUSH1 0x1 PUSH1 0x1 PUSH1 0xA0 SHL SUB SWAP3 SWAP1 SWAP3 AND SWAP2 SWAP1 SWAP2 OR SWAP1 SSTORE JUMP JUMPDEST PUSH2 0xD21 PUSH2 0x2061 JUMP JUMPDEST PUSH0 DUP3 DUP2 MSTORE PUSH1 0x9 PUSH1 0x20 MSTORE PUSH1 0x40 SWAP1 KECCAK256 PUSH1 0x6 DUP2 ADD SLOAD PUSH1 0x1 PUSH1 0x1 PUSH1 0xA0 SHL SUB AND CALLER EQ PUSH2 0xD77 JUMPI PUSH1 0x40 MLOAD PUSH3 0x461BCD PUSH1 0xE5 SHL DUP2 MSTORE PUSH1 0x20 PUSH1 0x4 DUP3 ADD MSTORE PUSH1 0xA PUSH1 0x24 DUP3 ADD MSTORE PUSH10 0x13DB9B1E505C9D1A5CDD PUSH1 0xB2 SHL PUSH1 0x44 DUP3 ADD MSTORE PUSH1 0x64 ADD PUSH2 0x807 JUMP JUMPDEST PUSH0 DUP4 DUP2 MSTORE PUSH1 0xA PUSH1 0x20 MSTORE PUSH1 0x40 SWAP1 KECCAK256 SLOAD DUP3 LT PUSH2 0xDA3 JUMPI PUSH1 0x40 MLOAD PUSH3 0x461BCD PUSH1 0xE5 SHL DUP2 MSTORE PUSH1 0x4 ADD PUSH2 0x807 SWAP1 PUSH2 0x3042 JUMP JUMPDEST PUSH0 DUP4 DUP2 MSTORE PUSH1 0xA PUSH1 0x20 MSTORE PUSH1 0x40 DUP2 KECCAK256 DUP1 SLOAD DUP5 SWAP1 DUP2 LT PUSH2 0xDC2 JUMPI PUSH2 0xDC2 PUSH2 0x302E JUMP JUMPDEST PUSH0 SWAP2 DUP3 MSTORE PUSH1 0x20 DUP3 KECCAK256 PUSH1 0x3 SWAP1 SWAP2 MUL ADD SWAP2 POP DUP2 SLOAD PUSH1 0x1 PUSH1 0xA0 SHL SWAP1 DIV PUSH1 0xFF AND PUSH1 0x3 DUP2 GT ISZERO PUSH2 0xDEF JUMPI PUSH2 0xDEF PUSH2 0x2B92 JUMP JUMPDEST EQ PUSH2 0xE2F JUMPI PUSH1 0x40 MLOAD PUSH3 0x461BCD PUSH1 0xE5 SHL DUP2 MSTORE PUSH1 0x20 PUSH1 0x4 DUP3 ADD MSTORE PUSH1 0x10 PUSH1 0x24 DUP3 ADD MSTORE PUSH16 0x496E6163746976655075726368617365 PUSH1 0x80 SHL PUSH1 0x44 DUP3 ADD MSTORE PUSH1 0x64 ADD PUSH2 0x807 JUMP JUMPDEST PUSH2 0x258 DUP2 PUSH1 0x2 ADD SLOAD PUSH2 0xE41 SWAP2 SWAP1 PUSH2 0x3068 JUMP JUMPDEST TIMESTAMP LT ISZERO PUSH2 0xE81 JUMPI PUSH1 0x40 MLOAD PUSH3 0x461BCD PUSH1 0xE5 SHL DUP2 MSTORE PUSH1 0x20 PUSH1 0x4 DUP3 ADD MSTORE PUSH1 0xE PUSH1 0x24 DUP3 ADD MSTORE PUSH14 0x54696D656F757450656E64696E67 PUSH1 0x90 SHL PUSH1 0x44 DUP3 ADD MSTORE PUSH1 0x64 ADD PUSH2 0x807 JUMP JUMPDEST PUSH0 PUSH1 0xA DUP4 PUSH1 0x5 ADD SLOAD PUSH1 0x2 PUSH2 0xE95 SWAP2 SWAP1 PUSH2 0x307B JUMP JUMPDEST PUSH2 0xE9F SWAP2 SWAP1 PUSH2 0x3092 JUMP JUMPDEST SWAP1 POP PUSH0 PUSH1 0xA DUP5 PUSH1 0x5 ADD SLOAD PUSH2 0xEB3 SWAP2 SWAP1 PUSH2 0x3092 JUMP JUMPDEST DUP4 SLOAD SWAP1 SWAP2 POP PUSH0 SWAP1 PUSH1 0x1 PUSH1 0x1 PUSH1 0xA0 SHL SUB AND PUSH2 0xECD DUP4 DUP6 PUSH2 0x30A5 JUMP JUMPDEST PUSH1 0x40 MLOAD PUSH0 DUP2 DUP2 DUP2 DUP6 DUP8 GAS CALL SWAP3 POP POP POP RETURNDATASIZE DUP1 PUSH0 DUP2 EQ PUSH2 0xF06 JUMPI PUSH1 0x40 MLOAD SWAP2 POP PUSH1 0x1F NOT PUSH1 0x3F RETURNDATASIZE ADD AND DUP3 ADD PUSH1 0x40 MSTORE RETURNDATASIZE DUP3 MSTORE RETURNDATASIZE PUSH0 PUSH1 0x20 DUP5 ADD RETURNDATACOPY PUSH2 0xF0B JUMP JUMPDEST PUSH1 0x60 SWAP2 POP JUMPDEST POP POP SWAP1 POP DUP1 PUSH2 0xF2C JUMPI PUSH1 0x40 MLOAD PUSH3 0x461BCD PUSH1 0xE5 SHL DUP2 MSTORE PUSH1 0x4 ADD PUSH2 0x807 SWAP1 PUSH2 0x30B8 JUMP JUMPDEST PUSH1 0x5 SLOAD PUSH1 0x40 MLOAD PUSH0 SWAP2 PUSH1 0x1 PUSH1 0x1 PUSH1 0xA0 SHL SUB AND SWAP1 DUP5 SWAP1 DUP4 DUP2 DUP2 DUP2 DUP6 DUP8 GAS CALL SWAP3 POP POP POP RETURNDATASIZE DUP1 PUSH0 DUP2 EQ PUSH2 0xF76 JUMPI PUSH1 0x40 MLOAD SWAP2 POP PUSH1 0x1F NOT PUSH1 0x3F RETURNDATASIZE ADD AND DUP3 ADD PUSH1 0x40 MSTORE RETURNDATASIZE DUP3 MSTORE RETURNDATASIZE PUSH0 PUSH1 0x20 DUP5 ADD RETURNDATACOPY PUSH2 0xF7B JUMP JUMPDEST PUSH1 0x60 SWAP2 POP JUMPDEST POP POP SWAP1 POP DUP1 PUSH2 0xF9C JUMPI PUSH1 0x40 MLOAD PUSH3 0x461BCD PUSH1 0xE5 SHL DUP2 MSTORE PUSH1 0x4 ADD PUSH2 0x807 SWAP1 PUSH2 0x30B8 JUMP JUMPDEST DUP6 PUSH1 0x5 ADD SLOAD DUP6 PUSH1 0x1 ADD SLOAD PUSH2 0xFB0 SWAP2 SWAP1 PUSH2 0x3068 JUMP JUMPDEST PUSH1 0x6 DUP8 ADD SLOAD PUSH1 0x1 PUSH1 0x1 PUSH1 0xA0 SHL SUB AND PUSH0 SWAP1 DUP2 MSTORE PUSH1 0xB PUSH1 0x20 MSTORE PUSH1 0x40 DUP2 KECCAK256 DUP1 SLOAD SWAP1 SWAP2 SWAP1 PUSH2 0xFDB SWAP1 DUP5 SWAP1 PUSH2 0x3068 JUMP JUMPDEST SWAP1 SWAP2 SSTORE POP POP PUSH0 PUSH1 0x1 DUP7 ADD SSTORE DUP5 SLOAD PUSH1 0xFF PUSH1 0xA0 SHL NOT AND PUSH1 0x1 PUSH1 0xA1 SHL OR DUP6 SSTORE PUSH1 0x6 DUP7 ADD SLOAD PUSH1 0x1 PUSH1 0x1 PUSH1 0xA0 SHL SUB AND DUP8 DUP10 PUSH0 DUP1 MLOAD PUSH1 0x20 PUSH2 0x32F5 DUP4 CODECOPY DUP2 MLOAD SWAP2 MSTORE CALLER PUSH2 0x1020 DUP9 DUP11 PUSH2 0x30A5 JUMP JUMPDEST DUP9 PUSH0 DUP14 PUSH1 0x5 ADD SLOAD DUP14 PUSH1 0x1 ADD SLOAD PUSH2 0x1036 SWAP2 SWAP1 PUSH2 0x3068 JUMP JUMPDEST PUSH1 0x40 MLOAD PUSH2 0x1047 SWAP6 SWAP5 SWAP4 SWAP3 SWAP2 SWAP1 PUSH2 0x30DC JUMP JUMPDEST PUSH1 0x40 MLOAD DUP1 SWAP2 SUB SWAP1 LOG4 PUSH1 0x40 MLOAD DUP8 DUP2 MSTORE CALLER SWAP1 DUP10 SWAP1 PUSH32 0x86F9D82FE70F334564DFB5D0F47619293510546518AF6F46B21209F3CFD6D3E7 SWAP1 PUSH1 0x20 ADD PUSH1 0x40 MLOAD DUP1 SWAP2 SUB SWAP1 LOG3 POP POP POP POP POP POP PUSH2 0x1096 PUSH1 0x1 PUSH1 0x4 SSTORE JUMP JUMPDEST POP POP JUMP JUMPDEST PUSH1 0x8 PUSH1 0x20 MSTORE PUSH0 SWAP1 DUP2 MSTORE PUSH1 0x40 SWAP1 KECCAK256 DUP1 SLOAD PUSH2 0x9C1 SWAP1 PUSH2 0x2EA2 JUMP JUMPDEST PUSH0 SWAP2 DUP3 MSTORE PUSH1 0x3 PUSH1 0x20 SWAP1 DUP2 MSTORE PUSH1 0x40 DUP1 DUP5 KECCAK256 PUSH1 0x1 PUSH1 0x1 PUSH1 0xA0 SHL SUB SWAP4 SWAP1 SWAP4 AND DUP5 MSTORE SWAP2 SWAP1 MSTORE SWAP1 KECCAK256 SLOAD PUSH1 0xFF AND SWAP1 JUMP JUMPDEST PUSH2 0x10E4 PUSH2 0x2061 JUMP JUMPDEST PUSH32 0x16CEEE8289685DD2A02B9C8AE81D2DF373176CE53519E6284E2A2950D6546FFA PUSH2 0x110E DUP2 PUSH2 0x1EF6 JUMP JUMPDEST PUSH0 DUP5 DUP2 MSTORE PUSH1 0xA PUSH1 0x20 MSTORE PUSH1 0x40 SWAP1 KECCAK256 SLOAD DUP4 LT PUSH2 0x113A JUMPI PUSH1 0x40 MLOAD PUSH3 0x461BCD PUSH1 0xE5 SHL DUP2 MSTORE PUSH1 0x4 ADD PUSH2 0x807 SWAP1 PUSH2 0x3042 JUMP JUMPDEST PUSH0 DUP5 DUP2 MSTORE PUSH1 0xA PUSH1 0x20 MSTORE PUSH1 0x40 DUP2 KECCAK256 DUP1 SLOAD DUP6 SWAP1 DUP2 LT PUSH2 0x1159 JUMPI PUSH2 0x1159 PUSH2 0x302E JUMP JUMPDEST PUSH0 SWAP2 DUP3 MSTORE PUSH1 0x20 SWAP1 SWAP2 KECCAK256 PUSH1 0x3 SWAP1 SWAP2 MUL ADD SWAP1 POP PUSH1 0x1 DUP2 SLOAD PUSH1 0x1 PUSH1 0xA0 SHL SWAP1 DIV PUSH1 0xFF AND PUSH1 0x3 DUP2 GT ISZERO PUSH2 0x1189 JUMPI PUSH2 0x1189 PUSH2 0x2B92 JUMP JUMPDEST EQ PUSH2 0x11C4 JUMPI PUSH1 0x40 MLOAD PUSH3 0x461BCD PUSH1 0xE5 SHL DUP2 MSTORE PUSH1 0x20 PUSH1 0x4 DUP3 ADD MSTORE PUSH1 0xB PUSH1 0x24 DUP3 ADD MSTORE PUSH11 0x139BDD111A5CDC1D5D1959 PUSH1 0xAA SHL PUSH1 0x44 DUP3 ADD MSTORE PUSH1 0x64 ADD PUSH2 0x807 JUMP JUMPDEST PUSH0 DUP6 DUP2 MSTORE PUSH1 0x9 PUSH1 0x20 MSTORE PUSH1 0x40 DUP2 KECCAK256 PUSH1 0x5 DUP2 ADD SLOAD SWAP1 SWAP2 SWAP1 PUSH1 0xA SWAP1 PUSH2 0x11E7 SWAP1 PUSH1 0x2 PUSH2 0x307B JUMP JUMPDEST PUSH2 0x11F1 SWAP2 SWAP1 PUSH2 0x3092 JUMP JUMPDEST SWAP1 POP PUSH0 PUSH1 0xA DUP4 PUSH1 0x5 ADD SLOAD PUSH2 0x1205 SWAP2 SWAP1 PUSH2 0x3092 JUMP JUMPDEST SWAP1 POP DUP6 ISZERO PUSH2 0x13A6 JUMPI PUSH1 0x5 SLOAD PUSH1 0x40 MLOAD PUSH0 SWAP2 PUSH1 0x1 PUSH1 0x1 PUSH1 0xA0 SHL SUB AND SWAP1 DUP4 SWAP1 DUP4 DUP2 DUP2 DUP2 DUP6 DUP8 GAS CALL SWAP3 POP POP POP RETURNDATASIZE DUP1 PUSH0 DUP2 EQ PUSH2 0x1257 JUMPI PUSH1 0x40 MLOAD SWAP2 POP PUSH1 0x1F NOT PUSH1 0x3F RETURNDATASIZE ADD AND DUP3 ADD PUSH1 0x40 MSTORE RETURNDATASIZE DUP3 MSTORE RETURNDATASIZE PUSH0 PUSH1 0x20 DUP5 ADD RETURNDATACOPY PUSH2 0x125C JUMP JUMPDEST PUSH1 0x60 SWAP2 POP JUMPDEST POP POP SWAP1 POP DUP1 PUSH2 0x127D JUMPI PUSH1 0x40 MLOAD PUSH3 0x461BCD PUSH1 0xE5 SHL DUP2 MSTORE PUSH1 0x4 ADD PUSH2 0x807 SWAP1 PUSH2 0x30B8 JUMP JUMPDEST PUSH1 0x5 SLOAD PUSH1 0x40 MLOAD PUSH0 SWAP2 PUSH1 0x1 PUSH1 0x1 PUSH1 0xA0 SHL SUB AND SWAP1 DUP5 SWAP1 DUP4 DUP2 DUP2 DUP2 DUP6 DUP8 GAS CALL SWAP3 POP POP POP RETURNDATASIZE DUP1 PUSH0 DUP2 EQ PUSH2 0x12C7 JUMPI PUSH1 0x40 MLOAD SWAP2 POP PUSH1 0x1F NOT PUSH1 0x3F RETURNDATASIZE ADD AND DUP3 ADD PUSH1 0x40 MSTORE RETURNDATASIZE DUP3 MSTORE RETURNDATASIZE PUSH0 PUSH1 0x20 DUP5 ADD RETURNDATACOPY PUSH2 0x12CC JUMP JUMPDEST PUSH1 0x60 SWAP2 POP JUMPDEST POP POP SWAP1 POP DUP1 PUSH2 0x12ED JUMPI PUSH1 0x40 MLOAD PUSH3 0x461BCD PUSH1 0xE5 SHL DUP2 MSTORE PUSH1 0x4 ADD PUSH2 0x807 SWAP1 PUSH2 0x30B8 JUMP JUMPDEST DUP5 PUSH1 0x5 ADD SLOAD DUP7 PUSH1 0x1 ADD SLOAD PUSH2 0x1301 SWAP2 SWAP1 PUSH2 0x3068 JUMP JUMPDEST PUSH1 0x6 DUP7 ADD SLOAD PUSH1 0x1 PUSH1 0x1 PUSH1 0xA0 SHL SUB AND PUSH0 SWAP1 DUP2 MSTORE PUSH1 0xB PUSH1 0x20 MSTORE PUSH1 0x40 DUP2 KECCAK256 DUP1 SLOAD SWAP1 SWAP2 SWAP1 PUSH2 0x132C SWAP1 DUP5 SWAP1 PUSH2 0x3068 JUMP JUMPDEST SWAP1 SWAP2 SSTORE POP POP PUSH0 PUSH1 0x1 DUP8 ADD DUP2 SWAP1 SSTORE DUP7 SLOAD PUSH1 0x1 PUSH1 0xA1 SHL PUSH1 0xFF PUSH1 0xA0 SHL NOT DUP3 AND OR DUP9 SSTORE PUSH1 0x6 DUP8 ADD SLOAD PUSH1 0x5 DUP9 ADD SLOAD PUSH1 0x1 PUSH1 0x1 PUSH1 0xA0 SHL SUB SWAP2 DUP3 AND SWAP4 DUP14 SWAP4 DUP16 SWAP4 PUSH0 DUP1 MLOAD PUSH1 0x20 PUSH2 0x32F5 DUP4 CODECOPY DUP2 MLOAD SWAP2 MSTORE SWAP4 SWAP2 AND SWAP2 SWAP1 DUP10 SWAP1 DUP2 SWAP1 PUSH2 0x1386 SWAP1 DUP5 PUSH2 0x3068 JUMP JUMPDEST PUSH1 0x40 MLOAD PUSH2 0x1397 SWAP6 SWAP5 SWAP4 SWAP3 SWAP2 SWAP1 PUSH2 0x30DC JUMP JUMPDEST PUSH1 0x40 MLOAD DUP1 SWAP2 SUB SWAP1 LOG4 POP POP PUSH2 0x15D3 JUMP JUMPDEST DUP4 SLOAD PUSH1 0x5 DUP5 ADD SLOAD PUSH0 SWAP2 PUSH1 0x1 PUSH1 0x1 PUSH1 0xA0 SHL SUB AND SWAP1 PUSH2 0x13C4 SWAP1 DUP6 SWAP1 PUSH2 0x3068 JUMP JUMPDEST PUSH1 0x40 MLOAD PUSH0 DUP2 DUP2 DUP2 DUP6 DUP8 GAS CALL SWAP3 POP POP POP RETURNDATASIZE DUP1 PUSH0 DUP2 EQ PUSH2 0x13FD JUMPI PUSH1 0x40 MLOAD SWAP2 POP PUSH1 0x1F NOT PUSH1 0x3F RETURNDATASIZE ADD AND DUP3 ADD PUSH1 0x40 MSTORE RETURNDATASIZE DUP3 MSTORE RETURNDATASIZE PUSH0 PUSH1 0x20 DUP5 ADD RETURNDATACOPY PUSH2 0x1402 JUMP JUMPDEST PUSH1 0x60 SWAP2 POP JUMPDEST POP POP SWAP1 POP DUP1 PUSH2 0x1423 JUMPI PUSH1 0x40 MLOAD PUSH3 0x461BCD PUSH1 0xE5 SHL DUP2 MSTORE PUSH1 0x4 ADD PUSH2 0x807 SWAP1 PUSH2 0x30B8 JUMP JUMPDEST PUSH1 0x5 SLOAD PUSH1 0x40 MLOAD PUSH0 SWAP2 PUSH1 0x1 PUSH1 0x1 PUSH1 0xA0 SHL SUB AND SWAP1 DUP5 SWAP1 DUP4 DUP2 DUP2 DUP2 DUP6 DUP8 GAS CALL SWAP3 POP POP POP RETURNDATASIZE DUP1 PUSH0 DUP2 EQ PUSH2 0x146D JUMPI PUSH1 0x40 MLOAD SWAP2 POP PUSH1 0x1F NOT PUSH1 0x3F RETURNDATASIZE ADD AND DUP3 ADD PUSH1 0x40 MSTORE RETURNDATASIZE DUP3 MSTORE RETURNDATASIZE PUSH0 PUSH1 0x20 DUP5 ADD RETURNDATACOPY PUSH2 0x1472 JUMP JUMPDEST PUSH1 0x60 SWAP2 POP JUMPDEST POP POP SWAP1 POP DUP1 PUSH2 0x1493 JUMPI PUSH1 0x40 MLOAD PUSH3 0x461BCD PUSH1 0xE5 SHL DUP2 MSTORE PUSH1 0x4 ADD PUSH2 0x807 SWAP1 PUSH2 0x30B8 JUMP JUMPDEST PUSH1 0x5 SLOAD PUSH1 0x40 MLOAD PUSH0 SWAP2 PUSH1 0x1 PUSH1 0x1 PUSH1 0xA0 SHL SUB AND SWAP1 DUP6 SWAP1 DUP4 DUP2 DUP2 DUP2 DUP6 DUP8 GAS CALL SWAP3 POP POP POP RETURNDATASIZE DUP1 PUSH0 DUP2 EQ PUSH2 0x14DD JUMPI PUSH1 0x40 MLOAD SWAP2 POP PUSH1 0x1F NOT PUSH1 0x3F RETURNDATASIZE ADD AND DUP3 ADD PUSH1 0x40 MSTORE RETURNDATASIZE DUP3 MSTORE RETURNDATASIZE PUSH0 PUSH1 0x20 DUP5 ADD RETURNDATACOPY PUSH2 0x14E2 JUMP JUMPDEST PUSH1 0x60 SWAP2 POP JUMPDEST POP POP SWAP1 POP DUP1 PUSH2 0x1503 JUMPI PUSH1 0x40 MLOAD PUSH3 0x461BCD PUSH1 0xE5 SHL DUP2 MSTORE PUSH1 0x4 ADD PUSH2 0x807 SWAP1 PUSH2 0x30B8 JUMP JUMPDEST PUSH0 PUSH1 0x1 DUP9 DUP2 ADD SWAP2 SWAP1 SWAP2 SSTORE DUP8 SLOAD PUSH1 0x3 PUSH1 0xA0 SHL PUSH1 0xFF PUSH1 0xA0 SHL NOT DUP3 AND OR DUP10 SSTORE PUSH2 0x1536 SWAP2 PUSH1 0x1 PUSH1 0x1 PUSH1 0xA0 SHL SUB SWAP1 SWAP2 AND SWAP1 DUP14 SWAP1 PUSH2 0x20BA JUMP JUMPDEST PUSH1 0x6 DUP7 ADD SLOAD DUP8 SLOAD PUSH1 0x5 DUP9 ADD SLOAD PUSH1 0x1 PUSH1 0x1 PUSH1 0xA0 SHL SUB SWAP3 DUP4 AND SWAP3 DUP14 SWAP3 DUP16 SWAP3 PUSH0 DUP1 MLOAD PUSH1 0x20 PUSH2 0x32F5 DUP4 CODECOPY DUP2 MLOAD SWAP2 MSTORE SWAP3 SWAP1 SWAP2 AND SWAP1 PUSH2 0x1570 SWAP1 DUP12 SWAP1 PUSH2 0x3068 JUMP JUMPDEST DUP10 DUP11 PUSH0 PUSH1 0x40 MLOAD PUSH2 0x1584 SWAP6 SWAP5 SWAP4 SWAP3 SWAP2 SWAP1 PUSH2 0x30DC JUMP JUMPDEST PUSH1 0x40 MLOAD DUP1 SWAP2 SUB SWAP1 LOG4 DUP7 SLOAD PUSH1 0x40 MLOAD DUP12 DUP2 MSTORE PUSH1 0x1 PUSH1 0x1 PUSH1 0xA0 SHL SUB SWAP1 SWAP2 AND SWAP1 DUP13 SWAP1 PUSH32 0x9E07DCE46977EC95E7805C93CE75A606C8828E2F4A3E5554BFEB839D50895099 SWAP1 PUSH1 0x20 ADD PUSH1 0x40 MLOAD DUP1 SWAP2 SUB SWAP1 LOG3 POP POP POP JUMPDEST PUSH1 0x40 DUP1 MLOAD DUP9 DUP2 MSTORE DUP8 ISZERO ISZERO PUSH1 0x20 DUP3 ADD MSTORE DUP10 SWAP2 PUSH32 0xD4390D9B1EAE30D53D6E598D7EBA50E60F3EA18310CA83E7919E3DF177BB05CA SWAP2 ADD PUSH1 0x40 MLOAD DUP1 SWAP2 SUB SWAP1 LOG2 POP POP POP POP POP PUSH2 0xA73 PUSH1 0x1 PUSH1 0x4 SSTORE JUMP JUMPDEST PUSH2 0x1096 CALLER DUP4 DUP4 PUSH2 0x2120 JUMP JUMPDEST PUSH2 0x1631 PUSH2 0x2061 JUMP JUMPDEST PUSH0 DUP4 DUP2 MSTORE PUSH1 0xA PUSH1 0x20 MSTORE PUSH1 0x40 SWAP1 KECCAK256 SLOAD DUP3 LT PUSH2 0x165D JUMPI PUSH1 0x40 MLOAD PUSH3 0x461BCD PUSH1 0xE5 SHL DUP2 MSTORE PUSH1 0x4 ADD PUSH2 0x807 SWAP1 PUSH2 0x3042 JUMP JUMPDEST PUSH0 DUP4 DUP2 MSTORE PUSH1 0xA PUSH1 0x20 MSTORE PUSH1 0x40 DUP2 KECCAK256 DUP1 SLOAD DUP5 SWAP1 DUP2 LT PUSH2 0x167C JUMPI PUSH2 0x167C PUSH2 0x302E JUMP JUMPDEST PUSH0 SWAP2 DUP3 MSTORE PUSH1 0x20 SWAP1 SWAP2 KECCAK256 PUSH1 0x3 SWAP1 SWAP2 MUL ADD DUP1 SLOAD SWAP1 SWAP2 POP PUSH1 0x1 PUSH1 0x1 PUSH1 0xA0 SHL SUB AND CALLER EQ PUSH2 0x16D2 JUMPI PUSH1 0x40 MLOAD PUSH3 0x461BCD PUSH1 0xE5 SHL DUP2 MSTORE PUSH1 0x20 PUSH1 0x4 DUP3 ADD MSTORE PUSH1 0x8 PUSH1 0x24 DUP3 ADD MSTORE PUSH8 0x2737BA213ABCB2B9 PUSH1 0xC1 SHL PUSH1 0x44 DUP3 ADD MSTORE PUSH1 0x64 ADD PUSH2 0x807 JUMP JUMPDEST PUSH0 DUP2 SLOAD PUSH1 0x1 PUSH1 0xA0 SHL SWAP1 DIV PUSH1 0xFF AND PUSH1 0x3 DUP2 GT ISZERO PUSH2 0x16F0 JUMPI PUSH2 0x16F0 PUSH2 0x2B92 JUMP JUMPDEST EQ PUSH2 0x1730 JUMPI PUSH1 0x40 MLOAD PUSH3 0x461BCD PUSH1 0xE5 SHL DUP2 MSTORE PUSH1 0x20 PUSH1 0x4 DUP3 ADD MSTORE PUSH1 0x10 PUSH1 0x24 DUP3 ADD MSTORE PUSH16 0x496E6163746976655075726368617365 PUSH1 0x80 SHL PUSH1 0x44 DUP3 ADD MSTORE PUSH1 0x64 ADD PUSH2 0x807 JUMP JUMPDEST PUSH0 DUP5 DUP2 MSTORE PUSH1 0x9 PUSH1 0x20 MSTORE PUSH1 0x40 SWAP1 DUP2 SWAP1 KECCAK256 SWAP1 MLOAD CALLER SWAP1 DUP7 SWAP1 PUSH32 0xDFCFA307BD7FF3B7DF976AEA65A8DF73DEB67F2649E10E389AE208B2A5C667AF SWAP1 PUSH2 0x177F SWAP1 DUP9 SWAP1 DUP9 SWAP1 SWAP2 DUP3 MSTORE ISZERO ISZERO PUSH1 0x20 DUP3 ADD MSTORE PUSH1 0x40 ADD SWAP1 JUMP JUMPDEST PUSH1 0x40 MLOAD DUP1 SWAP2 SUB SWAP1 LOG3 DUP3 ISZERO PUSH2 0x1967 JUMPI PUSH0 PUSH1 0xA DUP3 PUSH1 0x5 ADD SLOAD PUSH1 0x2 PUSH2 0x17A1 SWAP2 SWAP1 PUSH2 0x307B JUMP JUMPDEST PUSH2 0x17AB SWAP2 SWAP1 PUSH2 0x3092 JUMP JUMPDEST SWAP1 POP PUSH0 PUSH1 0xA DUP4 PUSH1 0x5 ADD SLOAD PUSH2 0x17BF SWAP2 SWAP1 PUSH2 0x3092 JUMP JUMPDEST PUSH1 0x40 MLOAD SWAP1 SWAP2 POP PUSH0 SWAP1 CALLER SWAP1 DUP5 SWAP1 DUP4 DUP2 DUP2 DUP2 DUP6 DUP8 GAS CALL SWAP3 POP POP POP RETURNDATASIZE DUP1 PUSH0 DUP2 EQ PUSH2 0x1801 JUMPI PUSH1 0x40 MLOAD SWAP2 POP PUSH1 0x1F NOT PUSH1 0x3F RETURNDATASIZE ADD AND DUP3 ADD PUSH1 0x40 MSTORE RETURNDATASIZE DUP3 MSTORE RETURNDATASIZE PUSH0 PUSH1 0x20 DUP5 ADD RETURNDATACOPY PUSH2 0x1806 JUMP JUMPDEST PUSH1 0x60 SWAP2 POP JUMPDEST POP POP SWAP1 POP DUP1 PUSH2 0x1827 JUMPI PUSH1 0x40 MLOAD PUSH3 0x461BCD PUSH1 0xE5 SHL DUP2 MSTORE PUSH1 0x4 ADD PUSH2 0x807 SWAP1 PUSH2 0x30B8 JUMP JUMPDEST PUSH1 0x5 SLOAD PUSH1 0x40 MLOAD PUSH0 SWAP2 PUSH1 0x1 PUSH1 0x1 PUSH1 0xA0 SHL SUB AND SWAP1 DUP5 SWAP1 DUP4 DUP2 DUP2 DUP2 DUP6 DUP8 GAS CALL SWAP3 POP POP POP RETURNDATASIZE DUP1 PUSH0 DUP2 EQ PUSH2 0x1871 JUMPI PUSH1 0x40 MLOAD SWAP2 POP PUSH1 0x1F NOT PUSH1 0x3F RETURNDATASIZE ADD AND DUP3 ADD PUSH1 0x40 MSTORE RETURNDATASIZE DUP3 MSTORE RETURNDATASIZE PUSH0 PUSH1 0x20 DUP5 ADD RETURNDATACOPY PUSH2 0x1876 JUMP JUMPDEST PUSH1 0x60 SWAP2 POP JUMPDEST POP POP SWAP1 POP DUP1 PUSH2 0x1897 JUMPI PUSH1 0x40 MLOAD PUSH3 0x461BCD PUSH1 0xE5 SHL DUP2 MSTORE PUSH1 0x4 ADD PUSH2 0x807 SWAP1 PUSH2 0x30B8 JUMP JUMPDEST DUP3 DUP6 PUSH1 0x5 ADD SLOAD DUP8 PUSH1 0x1 ADD SLOAD PUSH2 0x18AC SWAP2 SWAP1 PUSH2 0x3068 JUMP JUMPDEST PUSH2 0x18B6 SWAP2 SWAP1 PUSH2 0x30A5 JUMP JUMPDEST PUSH1 0x6 DUP7 ADD SLOAD PUSH1 0x1 PUSH1 0x1 PUSH1 0xA0 SHL SUB AND PUSH0 SWAP1 DUP2 MSTORE PUSH1 0xB PUSH1 0x20 MSTORE PUSH1 0x40 DUP2 KECCAK256 DUP1 SLOAD SWAP1 SWAP2 SWAP1 PUSH2 0x18E1 SWAP1 DUP5 SWAP1 PUSH2 0x3068 JUMP JUMPDEST SWAP1 SWAP2 SSTORE POP POP PUSH0 PUSH1 0x1 DUP8 ADD DUP2 SWAP1 SSTORE DUP7 SLOAD PUSH1 0xFF PUSH1 0xA0 SHL NOT AND PUSH1 0x1 PUSH1 0xA1 SHL OR DUP8 SSTORE PUSH1 0x6 DUP7 ADD SLOAD PUSH1 0x5 DUP8 ADD SLOAD PUSH1 0x1 PUSH1 0x1 PUSH1 0xA0 SHL SUB SWAP1 SWAP2 AND SWAP2 DUP11 SWAP2 DUP13 SWAP2 PUSH0 DUP1 MLOAD PUSH1 0x20 PUSH2 0x32F5 DUP4 CODECOPY DUP2 MLOAD SWAP2 MSTORE SWAP2 CALLER SWAP2 DUP11 SWAP2 DUP11 SWAP2 SWAP1 DUP3 SWAP1 PUSH2 0x193B SWAP1 DUP4 PUSH2 0x3068 JUMP JUMPDEST PUSH2 0x1945 SWAP2 SWAP1 PUSH2 0x30A5 JUMP JUMPDEST PUSH1 0x40 MLOAD PUSH2 0x1956 SWAP6 SWAP5 SWAP4 SWAP3 SWAP2 SWAP1 PUSH2 0x30DC JUMP JUMPDEST PUSH1 0x40 MLOAD DUP1 SWAP2 SUB SWAP1 LOG4 POP POP POP POP PUSH2 0x19B0 JUMP JUMPDEST DUP2 SLOAD PUSH1 0xFF PUSH1 0xA0 SHL NOT AND PUSH1 0x1 PUSH1 0xA0 SHL OR DUP3 SSTORE PUSH1 0x40 DUP1 MLOAD DUP6 DUP2 MSTORE SWAP1 MLOAD CALLER SWAP2 DUP8 SWAP2 PUSH32 0xC6FB55A2BD2838E444163CECE1945A661C371C5EC8C1A4EA5D697AEFC7690547 SWAP2 DUP2 SWAP1 SUB PUSH1 0x20 ADD SWAP1 LOG3 JUMPDEST POP POP PUSH2 0xA73 PUSH1 0x1 PUSH1 0x4 SSTORE JUMP JUMPDEST PUSH1 0x5 SLOAD PUSH1 0x1 PUSH1 0x1 PUSH1 0xA0 SHL SUB AND CALLER EQ PUSH2 0x1A06 JUMPI PUSH1 0x40 MLOAD PUSH3 0x461BCD PUSH1 0xE5 SHL DUP2 MSTORE PUSH1 0x20 PUSH1 0x4 DUP3 ADD MSTORE PUSH1 0xD PUSH1 0x24 DUP3 ADD MSTORE PUSH13 0x27B7363CA5B2BCA9B2B93B32B9 PUSH1 0x99 SHL PUSH1 0x44 DUP3 ADD MSTORE PUSH1 0x64 ADD PUSH2 0x807 JUMP JUMPDEST PUSH1 0x6 PUSH2 0xA73 DUP3 DUP5 DUP4 PUSH2 0x310A JUMP JUMPDEST PUSH0 DUP3 DUP2 MSTORE PUSH1 0x3 PUSH1 0x20 MSTORE PUSH1 0x40 SWAP1 KECCAK256 PUSH1 0x1 ADD SLOAD PUSH2 0x1A2D DUP2 PUSH2 0x1EF6 JUMP JUMPDEST PUSH2 0x9AE DUP4 DUP4 PUSH2 0x1FF6 JUMP JUMPDEST PUSH2 0x1A3F PUSH2 0x2061 JUMP JUMPDEST PUSH0 DUP2 DUP2 MSTORE PUSH1 0x9 PUSH1 0x20 MSTORE PUSH1 0x40 SWAP1 KECCAK256 PUSH1 0x3 DUP2 ADD SLOAD PUSH1 0x4 DUP3 ADD SLOAD LT PUSH2 0x1A8D JUMPI PUSH1 0x40 MLOAD PUSH3 0x461BCD PUSH1 0xE5 SHL DUP2 MSTORE PUSH1 0x20 PUSH1 0x4 DUP3 ADD MSTORE PUSH1 0x7 PUSH1 0x24 DUP3 ADD MSTORE PUSH7 0x14DBDB1913DD5D PUSH1 0xCA SHL PUSH1 0x44 DUP3 ADD MSTORE PUSH1 0x64 ADD PUSH2 0x807 JUMP JUMPDEST PUSH0 PUSH1 0xA DUP3 PUSH1 0x5 ADD SLOAD PUSH1 0x2 PUSH2 0x1AA1 SWAP2 SWAP1 PUSH2 0x307B JUMP JUMPDEST PUSH2 0x1AAB SWAP2 SWAP1 PUSH2 0x3092 JUMP JUMPDEST SWAP1 POP PUSH0 DUP2 DUP4 PUSH1 0x5 ADD SLOAD PUSH2 0x1ABE SWAP2 SWAP1 PUSH2 0x3068 JUMP JUMPDEST SWAP1 POP DUP1 CALLVALUE EQ PUSH2 0x1ADF JUMPI PUSH1 0x40 MLOAD PUSH3 0x461BCD PUSH1 0xE5 SHL DUP2 MSTORE PUSH1 0x4 ADD PUSH2 0x807 SWAP1 PUSH2 0x31C5 JUMP JUMPDEST PUSH1 0x6 DUP4 ADD SLOAD PUSH1 0x1 PUSH1 0x1 PUSH1 0xA0 SHL SUB AND PUSH0 SWAP1 DUP2 MSTORE PUSH1 0xB PUSH1 0x20 MSTORE PUSH1 0x40 SWAP1 KECCAK256 SLOAD DUP3 GT ISZERO PUSH2 0x1B36 JUMPI PUSH1 0x40 MLOAD PUSH3 0x461BCD PUSH1 0xE5 SHL DUP2 MSTORE PUSH1 0x20 PUSH1 0x4 DUP3 ADD MSTORE PUSH1 0x9 PUSH1 0x24 DUP3 ADD MSTORE PUSH9 0x139BD1195C1BDCDA5D PUSH1 0xBA SHL PUSH1 0x44 DUP3 ADD MSTORE PUSH1 0x64 ADD PUSH2 0x807 JUMP JUMPDEST PUSH1 0x6 DUP4 ADD SLOAD PUSH1 0x1 PUSH1 0x1 PUSH1 0xA0 SHL SUB AND PUSH0 SWAP1 DUP2 MSTORE PUSH1 0xB PUSH1 0x20 MSTORE PUSH1 0x40 DUP2 KECCAK256 DUP1 SLOAD DUP5 SWAP3 SWAP1 PUSH2 0x1B61 SWAP1 DUP5 SWAP1 PUSH2 0x30A5 JUMP JUMPDEST SWAP1 SWAP2 SSTORE POP POP PUSH1 0x40 DUP1 MLOAD PUSH1 0x80 DUP2 ADD DUP3 MSTORE CALLER DUP2 MSTORE PUSH0 PUSH1 0x20 DUP1 DUP4 ADD DUP3 DUP2 MSTORE DUP4 DUP6 ADD DUP8 SWAP1 MSTORE TIMESTAMP PUSH1 0x60 DUP6 ADD MSTORE DUP9 DUP4 MSTORE PUSH1 0xA DUP3 MSTORE SWAP4 DUP3 KECCAK256 DUP1 SLOAD PUSH1 0x1 DUP2 ADD DUP3 SSTORE SWAP1 DUP4 MSTORE SWAP2 KECCAK256 DUP3 MLOAD PUSH1 0x3 SWAP3 DUP4 MUL SWAP1 SWAP2 ADD DUP1 SLOAD PUSH1 0x1 PUSH1 0x1 PUSH1 0xA0 SHL SUB NOT DUP2 AND PUSH1 0x1 PUSH1 0x1 PUSH1 0xA0 SHL SUB SWAP1 SWAP4 AND SWAP3 DUP4 OR DUP3 SSTORE SWAP5 MLOAD SWAP4 SWAP5 DUP6 SWAP5 SWAP2 SWAP4 SWAP2 SWAP3 DUP5 SWAP3 PUSH1 0x1 PUSH1 0x1 PUSH1 0xA8 SHL SUB NOT SWAP1 SWAP3 AND OR SWAP1 PUSH1 0x1 PUSH1 0xA0 SHL SWAP1 DUP5 SWAP1 DUP2 GT ISZERO PUSH2 0x1BF7 JUMPI PUSH2 0x1BF7 PUSH2 0x2B92 JUMP JUMPDEST MUL OR SWAP1 SSTORE POP PUSH1 0x40 DUP3 ADD MLOAD DUP2 PUSH1 0x1 ADD SSTORE PUSH1 0x60 DUP3 ADD MLOAD DUP2 PUSH1 0x2 ADD SSTORE POP POP PUSH0 PUSH1 0x1 PUSH1 0xA PUSH0 DUP9 DUP2 MSTORE PUSH1 0x20 ADD SWAP1 DUP2 MSTORE PUSH1 0x20 ADD PUSH0 KECCAK256 DUP1 SLOAD SWAP1 POP PUSH2 0x1C34 SWAP2 SWAP1 PUSH2 0x30A5 JUMP JUMPDEST SWAP1 POP PUSH1 0x1 DUP6 PUSH1 0x4 ADD PUSH0 DUP3 DUP3 SLOAD PUSH2 0x1C4A SWAP2 SWAP1 PUSH2 0x3068 JUMP JUMPDEST SWAP3 POP POP DUP2 SWAP1 SSTORE POP PUSH2 0x1C6C CALLER DUP8 PUSH1 0x1 PUSH1 0x40 MLOAD DUP1 PUSH1 0x20 ADD PUSH1 0x40 MSTORE DUP1 PUSH0 DUP2 MSTORE POP PUSH2 0x21B4 JUMP JUMPDEST PUSH1 0x40 DUP1 MLOAD DUP5 DUP2 MSTORE PUSH1 0x20 DUP2 ADD DUP7 SWAP1 MSTORE CALLER SWAP2 DUP4 SWAP2 DUP10 SWAP2 PUSH32 0x118B73186F00B652A3AAF789AA1AC1434F0800D84C3FE5B17A57AA550EB9725 SWAP2 ADD PUSH1 0x40 MLOAD DUP1 SWAP2 SUB SWAP1 LOG4 POP POP POP POP POP PUSH2 0x1CBA PUSH1 0x1 PUSH1 0x4 SSTORE JUMP JUMPDEST POP JUMP JUMPDEST PUSH1 0x1 PUSH1 0x1 PUSH1 0xA0 SHL SUB SWAP2 DUP3 AND PUSH0 SWAP1 DUP2 MSTORE PUSH1 0x1 PUSH1 0x20 SWAP1 DUP2 MSTORE PUSH1 0x40 DUP1 DUP4 KECCAK256 SWAP4 SWAP1 SWAP5 AND DUP3 MSTORE SWAP2 SWAP1 SWAP2 MSTORE KECCAK256 SLOAD PUSH1 0xFF AND SWAP1 JUMP JUMPDEST CALLER PUSH0 SWAP1 DUP2 MSTORE PUSH1 0x8 PUSH1 0x20 MSTORE PUSH1 0x40 SWAP1 KECCAK256 PUSH2 0x1096 DUP3 DUP3 PUSH2 0x2F72 JUMP JUMPDEST PUSH2 0x1D0A PUSH2 0x2061 JUMP JUMPDEST PUSH0 DUP1 MLOAD PUSH1 0x20 PUSH2 0x32D5 DUP4 CODECOPY DUP2 MLOAD SWAP2 MSTORE PUSH2 0x1D21 DUP2 PUSH2 0x1EF6 JUMP JUMPDEST CALLER PUSH0 SWAP1 DUP2 MSTORE PUSH1 0xB PUSH1 0x20 MSTORE PUSH1 0x40 SWAP1 KECCAK256 SLOAD DUP3 GT ISZERO PUSH2 0x1D76 JUMPI PUSH1 0x40 MLOAD PUSH3 0x461BCD PUSH1 0xE5 SHL DUP2 MSTORE PUSH1 0x20 PUSH1 0x4 DUP3 ADD MSTORE PUSH1 0x14 PUSH1 0x24 DUP3 ADD MSTORE PUSH20 0x125B9CDD59999A58DA595B9D0819195C1BDCDA5D PUSH1 0x62 SHL PUSH1 0x44 DUP3 ADD MSTORE PUSH1 0x64 ADD PUSH2 0x807 JUMP JUMPDEST CALLER PUSH0 SWAP1 DUP2 MSTORE PUSH1 0xB PUSH1 0x20 MSTORE PUSH1 0x40 DUP2 KECCAK256 DUP1 SLOAD DUP5 SWAP3 SWAP1 PUSH2 0x1D94 SWAP1 DUP5 SWAP1 PUSH2 0x30A5 JUMP JUMPDEST SWAP1 SWAP2 SSTORE POP POP PUSH1 0x40 MLOAD PUSH0 SWAP1 CALLER SWAP1 DUP5 SWAP1 DUP4 DUP2 DUP2 DUP2 DUP6 DUP8 GAS CALL SWAP3 POP POP POP RETURNDATASIZE DUP1 PUSH0 DUP2 EQ PUSH2 0x1DD8 JUMPI PUSH1 0x40 MLOAD SWAP2 POP PUSH1 0x1F NOT PUSH1 0x3F RETURNDATASIZE ADD AND DUP3 ADD PUSH1 0x40 MSTORE RETURNDATASIZE DUP3 MSTORE RETURNDATASIZE PUSH0 PUSH1 0x20 DUP5 ADD RETURNDATACOPY PUSH2 0x1DDD JUMP JUMPDEST PUSH1 0x60 SWAP2 POP JUMPDEST POP POP SWAP1 POP DUP1 PUSH2 0x1DFE JUMPI PUSH1 0x40 MLOAD PUSH3 0x461BCD PUSH1 0xE5 SHL DUP2 MSTORE PUSH1 0x4 ADD PUSH2 0x807 SWAP1 PUSH2 0x31C5 JUMP JUMPDEST POP POP PUSH2 0x1CBA PUSH1 0x1 PUSH1 0x4 SSTORE JUMP JUMPDEST CALLER PUSH1 0x1 PUSH1 0x1 PUSH1 0xA0 SHL SUB DUP7 AND DUP2 EQ DUP1 ISZERO SWAP1 PUSH2 0x1E2B JUMPI POP PUSH2 0x1E29 DUP7 DUP3 PUSH2 0x1CBD JUMP JUMPDEST ISZERO JUMPDEST ISZERO PUSH2 0x1E5C JUMPI PUSH1 0x40 MLOAD PUSH4 0x711BEC91 PUSH1 0xE1 SHL DUP2 MSTORE PUSH1 0x1 PUSH1 0x1 PUSH1 0xA0 SHL SUB DUP1 DUP4 AND PUSH1 0x4 DUP4 ADD MSTORE DUP8 AND PUSH1 0x24 DUP3 ADD MSTORE PUSH1 0x44 ADD PUSH2 0x807 JUMP JUMPDEST PUSH2 0x982 DUP7 DUP7 DUP7 DUP7 DUP7 PUSH2 0x220F JUMP JUMPDEST PUSH2 0x1E71 PUSH2 0x2061 JUMP JUMPDEST PUSH0 DUP1 MLOAD PUSH1 0x20 PUSH2 0x32D5 DUP4 CODECOPY DUP2 MLOAD SWAP2 MSTORE PUSH2 0x1E88 DUP2 PUSH2 0x1EF6 JUMP JUMPDEST PUSH0 CALLVALUE GT PUSH2 0x1EA7 JUMPI PUSH1 0x40 MLOAD PUSH3 0x461BCD PUSH1 0xE5 SHL DUP2 MSTORE PUSH1 0x4 ADD PUSH2 0x807 SWAP1 PUSH2 0x31C5 JUMP JUMPDEST CALLER PUSH0 SWAP1 DUP2 MSTORE PUSH1 0xB PUSH1 0x20 MSTORE PUSH1 0x40 DUP2 KECCAK256 DUP1 SLOAD CALLVALUE SWAP3 SWAP1 PUSH2 0x1EC5 SWAP1 DUP5 SWAP1 PUSH2 0x3068 JUMP JUMPDEST SWAP1 SWAP2 SSTORE POP POP PUSH1 0x1 PUSH1 0x4 SSTORE POP JUMP JUMPDEST PUSH0 PUSH1 0x1 PUSH1 0x1 PUSH1 0xE0 SHL SUB NOT DUP3 AND PUSH4 0x7965DB0B PUSH1 0xE0 SHL EQ DUP1 PUSH2 0x70A JUMPI POP PUSH2 0x70A DUP3 PUSH2 0x229B JUMP JUMPDEST PUSH2 0x1CBA DUP2 CALLER PUSH2 0x22BF JUMP JUMPDEST PUSH1 0x1 PUSH1 0x1 PUSH1 0xA0 SHL SUB DUP5 AND PUSH2 0x1F29 JUMPI PUSH1 0x40 MLOAD PUSH4 0x2BFA23E7 PUSH1 0xE1 SHL DUP2 MSTORE PUSH0 PUSH1 0x4 DUP3 ADD MSTORE PUSH1 0x24 ADD PUSH2 0x807 JUMP JUMPDEST PUSH1 0x1 PUSH1 0x1 PUSH1 0xA0 SHL SUB DUP6 AND PUSH2 0x1F51 JUMPI PUSH1 0x40 MLOAD PUSH3 0x6A0D45 PUSH1 0xE2 SHL DUP2 MSTORE PUSH0 PUSH1 0x4 DUP3 ADD MSTORE PUSH1 0x24 ADD PUSH2 0x807 JUMP JUMPDEST PUSH2 0x1F5E DUP6 DUP6 DUP6 DUP6 DUP6 PUSH2 0x22F8 JUMP JUMPDEST POP POP POP POP POP JUMP JUMPDEST PUSH0 PUSH2 0x1F70 DUP4 DUP4 PUSH2 0x10B2 JUMP JUMPDEST PUSH2 0x1FEF JUMPI PUSH0 DUP4 DUP2 MSTORE PUSH1 0x3 PUSH1 0x20 SWAP1 DUP2 MSTORE PUSH1 0x40 DUP1 DUP4 KECCAK256 PUSH1 0x1 PUSH1 0x1 PUSH1 0xA0 SHL SUB DUP7 AND DUP5 MSTORE SWAP1 SWAP2 MSTORE SWAP1 KECCAK256 DUP1 SLOAD PUSH1 0xFF NOT AND PUSH1 0x1 OR SWAP1 SSTORE PUSH2 0x1FA7 CALLER SWAP1 JUMP JUMPDEST PUSH1 0x1 PUSH1 0x1 PUSH1 0xA0 SHL SUB AND DUP3 PUSH1 0x1 PUSH1 0x1 PUSH1 0xA0 SHL SUB AND DUP5 PUSH32 0x2F8788117E7EFF1D82E926EC794901D17C78024A50270940304540A733656F0D PUSH1 0x40 MLOAD PUSH1 0x40 MLOAD DUP1 SWAP2 SUB SWAP1 LOG4 POP PUSH1 0x1 PUSH2 0x70A JUMP JUMPDEST POP PUSH0 PUSH2 0x70A JUMP JUMPDEST PUSH0 PUSH2 0x2001 DUP4 DUP4 PUSH2 0x10B2 JUMP JUMPDEST ISZERO PUSH2 0x1FEF JUMPI PUSH0 DUP4 DUP2 MSTORE PUSH1 0x3 PUSH1 0x20 SWAP1 DUP2 MSTORE PUSH1 0x40 DUP1 DUP4 KECCAK256 PUSH1 0x1 PUSH1 0x1 PUSH1 0xA0 SHL SUB DUP7 AND DUP1 DUP6 MSTORE SWAP3 MSTORE DUP1 DUP4 KECCAK256 DUP1 SLOAD PUSH1 0xFF NOT AND SWAP1 SSTORE MLOAD CALLER SWAP3 DUP7 SWAP2 PUSH32 0xF6391F5C32D9C69D2A47EA670B442974B53935D1EDC7FD64EB21E047A839171B SWAP2 SWAP1 LOG4 POP PUSH1 0x1 PUSH2 0x70A JUMP JUMPDEST PUSH1 0x2 PUSH1 0x4 SLOAD SUB PUSH2 0x20B3 JUMPI PUSH1 0x40 MLOAD PUSH3 0x461BCD PUSH1 0xE5 SHL DUP2 MSTORE PUSH1 0x20 PUSH1 0x4 DUP3 ADD MSTORE PUSH1 0x1F PUSH1 0x24 DUP3 ADD MSTORE PUSH32 0x5265656E7472616E637947756172643A207265656E7472616E742063616C6C00 PUSH1 0x44 DUP3 ADD MSTORE PUSH1 0x64 ADD PUSH2 0x807 JUMP JUMPDEST PUSH1 0x2 PUSH1 0x4 SSTORE JUMP JUMPDEST PUSH1 0x1 PUSH1 0x1 PUSH1 0xA0 SHL SUB DUP4 AND PUSH2 0x20E2 JUMPI PUSH1 0x40 MLOAD PUSH3 0x6A0D45 PUSH1 0xE2 SHL DUP2 MSTORE PUSH0 PUSH1 0x4 DUP3 ADD MSTORE PUSH1 0x24 ADD PUSH2 0x807 JUMP JUMPDEST PUSH1 0x40 DUP1 MLOAD PUSH1 0x1 DUP1 DUP3 MSTORE PUSH1 0x20 DUP3 ADD DUP6 SWAP1 MSTORE DUP2 DUP4 ADD SWAP1 DUP2 MSTORE PUSH1 0x60 DUP3 ADD DUP5 SWAP1 MSTORE PUSH1 0xA0 DUP3 ADD SWAP1 SWAP3 MSTORE PUSH0 PUSH1 0x80 DUP3 ADD DUP2 DUP2 MSTORE SWAP2 SWAP3 SWAP2 PUSH2 0x1F5E SWAP2 DUP8 SWAP2 DUP6 SWAP1 DUP6 SWAP1 PUSH2 0x22F8 JUMP JUMPDEST PUSH1 0x1 PUSH1 0x1 PUSH1 0xA0 SHL SUB DUP3 AND PUSH2 0x2148 JUMPI PUSH1 0x40 MLOAD PUSH3 0xCED3E1 PUSH1 0xE8 SHL DUP2 MSTORE PUSH0 PUSH1 0x4 DUP3 ADD MSTORE PUSH1 0x24 ADD PUSH2 0x807 JUMP JUMPDEST PUSH1 0x1 PUSH1 0x1 PUSH1 0xA0 SHL SUB DUP4 DUP2 AND PUSH0 DUP2 DUP2 MSTORE PUSH1 0x1 PUSH1 0x20 SWAP1 DUP2 MSTORE PUSH1 0x40 DUP1 DUP4 KECCAK256 SWAP5 DUP8 AND DUP1 DUP5 MSTORE SWAP5 DUP3 MSTORE SWAP2 DUP3 SWAP1 KECCAK256 DUP1 SLOAD PUSH1 0xFF NOT AND DUP7 ISZERO ISZERO SWAP1 DUP2 OR SWAP1 SWAP2 SSTORE SWAP2 MLOAD SWAP2 DUP3 MSTORE PUSH32 0x17307EAB39AB6107E8899845AD3D59BD9653F200F220920489CA2B5937696C31 SWAP2 ADD PUSH1 0x40 MLOAD DUP1 SWAP2 SUB SWAP1 LOG3 POP POP POP JUMP JUMPDEST PUSH1 0x1 PUSH1 0x1 PUSH1 0xA0 SHL SUB DUP5 AND PUSH2 0x21DD JUMPI PUSH1 0x40 MLOAD PUSH4 0x2BFA23E7 PUSH1 0xE1 SHL DUP2 MSTORE PUSH0 PUSH1 0x4 DUP3 ADD MSTORE PUSH1 0x24 ADD PUSH2 0x807 JUMP JUMPDEST PUSH1 0x40 DUP1 MLOAD PUSH1 0x1 DUP1 DUP3 MSTORE PUSH1 0x20 DUP3 ADD DUP7 SWAP1 MSTORE DUP2 DUP4 ADD SWAP1 DUP2 MSTORE PUSH1 0x60 DUP3 ADD DUP6 SWAP1 MSTORE PUSH1 0x80 DUP3 ADD SWAP1 SWAP3 MSTORE SWAP1 PUSH2 0x982 PUSH0 DUP8 DUP5 DUP5 DUP8 PUSH2 0x22F8 JUMP JUMPDEST PUSH1 0x1 PUSH1 0x1 PUSH1 0xA0 SHL SUB DUP5 AND PUSH2 0x2238 JUMPI PUSH1 0x40 MLOAD PUSH4 0x2BFA23E7 PUSH1 0xE1 SHL DUP2 MSTORE PUSH0 PUSH1 0x4 DUP3 ADD MSTORE PUSH1 0x24 ADD PUSH2 0x807 JUMP JUMPDEST PUSH1 0x1 PUSH1 0x1 PUSH1 0xA0 SHL SUB DUP6 AND PUSH2 0x2260 JUMPI PUSH1 0x40 MLOAD PUSH3 0x6A0D45 PUSH1 0xE2 SHL DUP2 MSTORE PUSH0 PUSH1 0x4 DUP3 ADD MSTORE PUSH1 0x24 ADD PUSH2 0x807 JUMP JUMPDEST PUSH1 0x40 DUP1 MLOAD PUSH1 0x1 DUP1 DUP3 MSTORE PUSH1 0x20 DUP3 ADD DUP7 SWAP1 MSTORE DUP2 DUP4 ADD SWAP1 DUP2 MSTORE PUSH1 0x60 DUP3 ADD DUP6 SWAP1 MSTORE PUSH1 0x80 DUP3 ADD SWAP1 SWAP3 MSTORE SWAP1 PUSH2 0x2292 DUP8 DUP8 DUP5 DUP5 DUP8 PUSH2 0x22F8 JUMP JUMPDEST POP POP POP POP POP POP POP JUMP JUMPDEST PUSH0 PUSH1 0x1 PUSH1 0x1 PUSH1 0xE0 SHL SUB NOT DUP3 AND PUSH4 0x2711897 PUSH1 0xE5 SHL EQ DUP1 PUSH2 0x70A JUMPI POP PUSH2 0x70A DUP3 PUSH2 0x234B JUMP JUMPDEST PUSH2 0x22C9 DUP3 DUP3 PUSH2 0x10B2 JUMP JUMPDEST PUSH2 0x1096 JUMPI PUSH1 0x40 MLOAD PUSH4 0xE2517D3F PUSH1 0xE0 SHL DUP2 MSTORE PUSH1 0x1 PUSH1 0x1 PUSH1 0xA0 SHL SUB DUP3 AND PUSH1 0x4 DUP3 ADD MSTORE PUSH1 0x24 DUP2 ADD DUP4 SWAP1 MSTORE PUSH1 0x44 ADD PUSH2 0x807 JUMP JUMPDEST PUSH2 0x2304 DUP6 DUP6 DUP6 DUP6 PUSH2 0x239A JUMP JUMPDEST PUSH1 0x1 PUSH1 0x1 PUSH1 0xA0 SHL SUB DUP5 AND ISZERO PUSH2 0x1F5E JUMPI DUP3 MLOAD CALLER SWAP1 PUSH1 0x1 SUB PUSH2 0x233D JUMPI PUSH1 0x20 DUP5 DUP2 ADD MLOAD SWAP1 DUP5 ADD MLOAD PUSH2 0x2336 DUP4 DUP10 DUP10 DUP6 DUP6 DUP10 PUSH2 0x25B2 JUMP JUMPDEST POP POP PUSH2 0x982 JUMP JUMPDEST PUSH2 0x982 DUP2 DUP8 DUP8 DUP8 DUP8 DUP8 PUSH2 0x26D3 JUMP JUMPDEST PUSH0 PUSH1 0x1 PUSH1 0x1 PUSH1 0xE0 SHL SUB NOT DUP3 AND PUSH4 0x6CDB3D13 PUSH1 0xE1 SHL EQ DUP1 PUSH2 0x237B JUMPI POP PUSH1 0x1 PUSH1 0x1 PUSH1 0xE0 SHL SUB NOT DUP3 AND PUSH4 0x3A24D07 PUSH1 0xE2 SHL EQ JUMPDEST DUP1 PUSH2 0x70A JUMPI POP PUSH4 0x1FFC9A7 PUSH1 0xE0 SHL PUSH1 0x1 PUSH1 0x1 PUSH1 0xE0 SHL SUB NOT DUP4 AND EQ PUSH2 0x70A JUMP JUMPDEST DUP1 MLOAD DUP3 MLOAD EQ PUSH2 0x23C9 JUMPI DUP2 MLOAD DUP2 MLOAD PUSH1 0x40 MLOAD PUSH4 0x5B059991 PUSH1 0xE0 SHL DUP2 MSTORE PUSH1 0x4 DUP2 ADD SWAP3 SWAP1 SWAP3 MSTORE PUSH1 0x24 DUP3 ADD MSTORE PUSH1 0x44 ADD PUSH2 0x807 JUMP JUMPDEST CALLER PUSH0 JUMPDEST DUP4 MLOAD DUP2 LT ISZERO PUSH2 0x24D4 JUMPI PUSH1 0x20 DUP2 DUP2 MUL DUP6 DUP2 ADD DUP3 ADD MLOAD SWAP1 DUP6 ADD SWAP1 SWAP2 ADD MLOAD PUSH1 0x1 PUSH1 0x1 PUSH1 0xA0 SHL SUB DUP9 AND ISZERO PUSH2 0x247D JUMPI PUSH0 DUP3 DUP2 MSTORE PUSH1 0x20 DUP2 DUP2 MSTORE PUSH1 0x40 DUP1 DUP4 KECCAK256 PUSH1 0x1 PUSH1 0x1 PUSH1 0xA0 SHL SUB DUP13 AND DUP5 MSTORE SWAP1 SWAP2 MSTORE SWAP1 KECCAK256 SLOAD DUP2 DUP2 LT ISZERO PUSH2 0x2457 JUMPI PUSH1 0x40 MLOAD PUSH4 0x3DEE4C5 PUSH1 0xE0 SHL DUP2 MSTORE PUSH1 0x1 PUSH1 0x1 PUSH1 0xA0 SHL SUB DUP11 AND PUSH1 0x4 DUP3 ADD MSTORE PUSH1 0x24 DUP2 ADD DUP3 SWAP1 MSTORE PUSH1 0x44 DUP2 ADD DUP4 SWAP1 MSTORE PUSH1 0x64 DUP2 ADD DUP5 SWAP1 MSTORE PUSH1 0x84 ADD PUSH2 0x807 JUMP JUMPDEST PUSH0 DUP4 DUP2 MSTORE PUSH1 0x20 DUP2 DUP2 MSTORE PUSH1 0x40 DUP1 DUP4 KECCAK256 PUSH1 0x1 PUSH1 0x1 PUSH1 0xA0 SHL SUB DUP14 AND DUP5 MSTORE SWAP1 SWAP2 MSTORE SWAP1 KECCAK256 SWAP1 DUP3 SWAP1 SUB SWAP1 SSTORE JUMPDEST PUSH1 0x1 PUSH1 0x1 PUSH1 0xA0 SHL SUB DUP8 AND ISZERO PUSH2 0x24C1 JUMPI PUSH0 DUP3 DUP2 MSTORE PUSH1 0x20 DUP2 DUP2 MSTORE PUSH1 0x40 DUP1 DUP4 KECCAK256 PUSH1 0x1 PUSH1 0x1 PUSH1 0xA0 SHL SUB DUP12 AND DUP5 MSTORE SWAP1 SWAP2 MSTORE DUP2 KECCAK256 DUP1 SLOAD DUP4 SWAP3 SWAP1 PUSH2 0x24BB SWAP1 DUP5 SWAP1 PUSH2 0x3068 JUMP JUMPDEST SWAP1 SWAP2 SSTORE POP POP JUMPDEST POP POP DUP1 PUSH2 0x24CD SWAP1 PUSH2 0x2F15 JUMP JUMPDEST SWAP1 POP PUSH2 0x23CC JUMP JUMPDEST POP DUP3 MLOAD PUSH1 0x1 SUB PUSH2 0x2554 JUMPI PUSH1 0x20 DUP4 ADD MLOAD PUSH0 SWAP1 PUSH1 0x20 DUP5 ADD MLOAD SWAP1 SWAP2 POP DUP6 PUSH1 0x1 PUSH1 0x1 PUSH1 0xA0 SHL SUB AND DUP8 PUSH1 0x1 PUSH1 0x1 PUSH1 0xA0 SHL SUB AND DUP5 PUSH1 0x1 PUSH1 0x1 PUSH1 0xA0 SHL SUB AND PUSH32 0xC3D58168C5AE7397731D063D5BBF3D657854427343F4C083240F7AACAA2D0F62 DUP6 DUP6 PUSH1 0x40 MLOAD PUSH2 0x2545 SWAP3 SWAP2 SWAP1 SWAP2 DUP3 MSTORE PUSH1 0x20 DUP3 ADD MSTORE PUSH1 0x40 ADD SWAP1 JUMP JUMPDEST PUSH1 0x40 MLOAD DUP1 SWAP2 SUB SWAP1 LOG4 POP POP PUSH2 0x1F5E JUMP JUMPDEST DUP4 PUSH1 0x1 PUSH1 0x1 PUSH1 0xA0 SHL SUB AND DUP6 PUSH1 0x1 PUSH1 0x1 PUSH1 0xA0 SHL SUB AND DUP3 PUSH1 0x1 PUSH1 0x1 PUSH1 0xA0 SHL SUB AND PUSH32 0x4A39DC06D4C0DBC64B70AF90FD698A233A518AA5D07E595D983B8C0526C8F7FB DUP7 DUP7 PUSH1 0x40 MLOAD PUSH2 0x25A3 SWAP3 SWAP2 SWAP1 PUSH2 0x31EB JUMP JUMPDEST PUSH1 0x40 MLOAD DUP1 SWAP2 SUB SWAP1 LOG4 POP POP POP POP POP JUMP JUMPDEST PUSH1 0x1 PUSH1 0x1 PUSH1 0xA0 SHL SUB DUP5 AND EXTCODESIZE ISZERO PUSH2 0x982 JUMPI PUSH1 0x40 MLOAD PUSH4 0xF23A6E61 PUSH1 0xE0 SHL DUP2 MSTORE PUSH1 0x1 PUSH1 0x1 PUSH1 0xA0 SHL SUB DUP6 AND SWAP1 PUSH4 0xF23A6E61 SWAP1 PUSH2 0x25F6 SWAP1 DUP10 SWAP1 DUP10 SWAP1 DUP9 SWAP1 DUP9 SWAP1 DUP9 SWAP1 PUSH1 0x4 ADD PUSH2 0x3218 JUMP JUMPDEST PUSH1 0x20 PUSH1 0x40 MLOAD DUP1 DUP4 SUB DUP2 PUSH0 DUP8 GAS CALL SWAP3 POP POP POP DUP1 ISZERO PUSH2 0x2630 JUMPI POP PUSH1 0x40 DUP1 MLOAD PUSH1 0x1F RETURNDATASIZE SWAP1 DUP2 ADD PUSH1 0x1F NOT AND DUP3 ADD SWAP1 SWAP3 MSTORE PUSH2 0x262D SWAP2 DUP2 ADD SWAP1 PUSH2 0x325C JUMP JUMPDEST PUSH1 0x1 JUMPDEST PUSH2 0x2697 JUMPI RETURNDATASIZE DUP1 DUP1 ISZERO PUSH2 0x265D JUMPI PUSH1 0x40 MLOAD SWAP2 POP PUSH1 0x1F NOT PUSH1 0x3F RETURNDATASIZE ADD AND DUP3 ADD PUSH1 0x40 MSTORE RETURNDATASIZE DUP3 MSTORE RETURNDATASIZE PUSH0 PUSH1 0x20 DUP5 ADD RETURNDATACOPY PUSH2 0x2662 JUMP JUMPDEST PUSH1 0x60 SWAP2 POP JUMPDEST POP DUP1 MLOAD PUSH0 SUB PUSH2 0x268F JUMPI PUSH1 0x40 MLOAD PUSH4 0x2BFA23E7 PUSH1 0xE1 SHL DUP2 MSTORE PUSH1 0x1 PUSH1 0x1 PUSH1 0xA0 SHL SUB DUP7 AND PUSH1 0x4 DUP3 ADD MSTORE PUSH1 0x24 ADD PUSH2 0x807 JUMP JUMPDEST DUP1 MLOAD DUP2 PUSH1 0x20 ADD REVERT JUMPDEST PUSH1 0x1 PUSH1 0x1 PUSH1 0xE0 SHL SUB NOT DUP2 AND PUSH4 0xF23A6E61 PUSH1 0xE0 SHL EQ PUSH2 0x2292 JUMPI PUSH1 0x40 MLOAD PUSH4 0x2BFA23E7 PUSH1 0xE1 SHL DUP2 MSTORE PUSH1 0x1 PUSH1 0x1 PUSH1 0xA0 SHL SUB DUP7 AND PUSH1 0x4 DUP3 ADD MSTORE PUSH1 0x24 ADD PUSH2 0x807 JUMP JUMPDEST PUSH1 0x1 PUSH1 0x1 PUSH1 0xA0 SHL SUB DUP5 AND EXTCODESIZE ISZERO PUSH2 0x982 JUMPI PUSH1 0x40 MLOAD PUSH4 0xBC197C81 PUSH1 0xE0 SHL DUP2 MSTORE PUSH1 0x1 PUSH1 0x1 PUSH1 0xA0 SHL SUB DUP6 AND SWAP1 PUSH4 0xBC197C81 SWAP1 PUSH2 0x2717 SWAP1 DUP10 SWAP1 DUP10 SWAP1 DUP9 SWAP1 DUP9 SWAP1 DUP9 SWAP1 PUSH1 0x4 ADD PUSH2 0x3277 JUMP JUMPDEST PUSH1 0x20 PUSH1 0x40 MLOAD DUP1 DUP4 SUB DUP2 PUSH0 DUP8 GAS CALL SWAP3 POP POP POP DUP1 ISZERO PUSH2 0x2751 JUMPI POP PUSH1 0x40 DUP1 MLOAD PUSH1 0x1F RETURNDATASIZE SWAP1 DUP2 ADD PUSH1 0x1F NOT AND DUP3 ADD SWAP1 SWAP3 MSTORE PUSH2 0x274E SWAP2 DUP2 ADD SWAP1 PUSH2 0x325C JUMP JUMPDEST PUSH1 0x1 JUMPDEST PUSH2 0x277E JUMPI RETURNDATASIZE DUP1 DUP1 ISZERO PUSH2 0x265D JUMPI PUSH1 0x40 MLOAD SWAP2 POP PUSH1 0x1F NOT PUSH1 0x3F RETURNDATASIZE ADD AND DUP3 ADD PUSH1 0x40 MSTORE RETURNDATASIZE DUP3 MSTORE RETURNDATASIZE PUSH0 PUSH1 0x20 DUP5 ADD RETURNDATACOPY PUSH2 0x2662 JUMP JUMPDEST PUSH1 0x1 PUSH1 0x1 PUSH1 0xE0 SHL SUB NOT DUP2 AND PUSH4 0xBC197C81 PUSH1 0xE0 SHL EQ PUSH2 0x2292 JUMPI PUSH1 0x40 MLOAD PUSH4 0x2BFA23E7 PUSH1 0xE1 SHL DUP2 MSTORE PUSH1 0x1 PUSH1 0x1 PUSH1 0xA0 SHL SUB DUP7 AND PUSH1 0x4 DUP3 ADD MSTORE PUSH1 0x24 ADD PUSH2 0x807 JUMP JUMPDEST DUP1 CALLDATALOAD PUSH1 0x1 PUSH1 0x1 PUSH1 0xA0 SHL SUB DUP2 AND DUP2 EQ PUSH2 0x27D0 JUMPI PUSH0 DUP1 REVERT JUMPDEST SWAP2 SWAP1 POP JUMP JUMPDEST PUSH0 DUP1 PUSH1 0x40 DUP4 DUP6 SUB SLT ISZERO PUSH2 0x27E6 JUMPI PUSH0 DUP1 REVERT JUMPDEST PUSH2 0x27EF DUP4 PUSH2 0x27BA JUMP JUMPDEST SWAP5 PUSH1 0x20 SWAP4 SWAP1 SWAP4 ADD CALLDATALOAD SWAP4 POP POP POP JUMP JUMPDEST PUSH1 0x1 PUSH1 0x1 PUSH1 0xE0 SHL SUB NOT DUP2 AND DUP2 EQ PUSH2 0x1CBA JUMPI PUSH0 DUP1 REVERT JUMPDEST PUSH0 PUSH1 0x20 DUP3 DUP5 SUB SLT ISZERO PUSH2 0x2822 JUMPI PUSH0 DUP1 REVERT JUMPDEST DUP2 CALLDATALOAD PUSH2 0x282D DUP2 PUSH2 0x27FD JUMP JUMPDEST SWAP4 SWAP3 POP POP POP JUMP JUMPDEST PUSH0 PUSH1 0x20 DUP3 DUP5 SUB SLT ISZERO PUSH2 0x2844 JUMPI PUSH0 DUP1 REVERT JUMPDEST POP CALLDATALOAD SWAP2 SWAP1 POP JUMP JUMPDEST PUSH0 DUP2 MLOAD DUP1 DUP5 MSTORE PUSH0 JUMPDEST DUP2 DUP2 LT ISZERO PUSH2 0x286F JUMPI PUSH1 0x20 DUP2 DUP6 ADD DUP2 ADD MLOAD DUP7 DUP4 ADD DUP3 ADD MSTORE ADD PUSH2 0x2853 JUMP JUMPDEST POP PUSH0 PUSH1 0x20 DUP3 DUP7 ADD ADD MSTORE PUSH1 0x20 PUSH1 0x1F NOT PUSH1 0x1F DUP4 ADD AND DUP6 ADD ADD SWAP2 POP POP SWAP3 SWAP2 POP POP JUMP JUMPDEST PUSH1 0x20 DUP2 MSTORE PUSH0 PUSH2 0x282D PUSH1 0x20 DUP4 ADD DUP5 PUSH2 0x284B JUMP JUMPDEST PUSH4 0x4E487B71 PUSH1 0xE0 SHL PUSH0 MSTORE PUSH1 0x41 PUSH1 0x4 MSTORE PUSH1 0x24 PUSH0 REVERT JUMPDEST PUSH1 0x40 MLOAD PUSH1 0x1F DUP3 ADD PUSH1 0x1F NOT AND DUP2 ADD PUSH8 0xFFFFFFFFFFFFFFFF DUP2 GT DUP3 DUP3 LT OR ISZERO PUSH2 0x28DD JUMPI PUSH2 0x28DD PUSH2 0x28A0 JUMP JUMPDEST PUSH1 0x40 MSTORE SWAP2 SWAP1 POP JUMP JUMPDEST PUSH0 DUP3 PUSH1 0x1F DUP4 ADD SLT PUSH2 0x28F4 JUMPI PUSH0 DUP1 REVERT JUMPDEST DUP2 CALLDATALOAD PUSH8 0xFFFFFFFFFFFFFFFF DUP2 GT ISZERO PUSH2 0x290E JUMPI PUSH2 0x290E PUSH2 0x28A0 JUMP JUMPDEST PUSH2 0x2921 PUSH1 0x1F DUP3 ADD PUSH1 0x1F NOT AND PUSH1 0x20 ADD PUSH2 0x28B4 JUMP JUMPDEST DUP2 DUP2 MSTORE DUP5 PUSH1 0x20 DUP4 DUP7 ADD ADD GT ISZERO PUSH2 0x2935 JUMPI PUSH0 DUP1 REVERT JUMPDEST DUP2 PUSH1 0x20 DUP6 ADD PUSH1 0x20 DUP4 ADD CALLDATACOPY PUSH0 SWAP2 DUP2 ADD PUSH1 0x20 ADD SWAP2 SWAP1 SWAP2 MSTORE SWAP4 SWAP3 POP POP POP JUMP JUMPDEST PUSH0 DUP1 PUSH0 DUP1 PUSH1 0x80 DUP6 DUP8 SUB SLT ISZERO PUSH2 0x2964 JUMPI PUSH0 DUP1 REVERT JUMPDEST DUP5 CALLDATALOAD PUSH8 0xFFFFFFFFFFFFFFFF DUP1 DUP3 GT ISZERO PUSH2 0x297B JUMPI PUSH0 DUP1 REVERT JUMPDEST PUSH2 0x2987 DUP9 DUP4 DUP10 ADD PUSH2 0x28E5 JUMP JUMPDEST SWAP6 POP PUSH1 0x20 DUP8 ADD CALLDATALOAD SWAP2 POP DUP1 DUP3 GT ISZERO PUSH2 0x299C JUMPI PUSH0 DUP1 REVERT JUMPDEST POP PUSH2 0x29A9 DUP8 DUP3 DUP9 ADD PUSH2 0x28E5 JUMP JUMPDEST SWAP5 SWAP8 SWAP5 SWAP7 POP POP POP POP PUSH1 0x40 DUP4 ADD CALLDATALOAD SWAP3 PUSH1 0x60 ADD CALLDATALOAD SWAP2 SWAP1 POP JUMP JUMPDEST PUSH0 PUSH8 0xFFFFFFFFFFFFFFFF DUP3 GT ISZERO PUSH2 0x29D9 JUMPI PUSH2 0x29D9 PUSH2 0x28A0 JUMP JUMPDEST POP PUSH1 0x5 SHL PUSH1 0x20 ADD SWAP1 JUMP JUMPDEST PUSH0 DUP3 PUSH1 0x1F DUP4 ADD SLT PUSH2 0x29F2 JUMPI PUSH0 DUP1 REVERT JUMPDEST DUP2 CALLDATALOAD PUSH1 0x20 PUSH2 0x2A07 PUSH2 0x2A02 DUP4 PUSH2 0x29C0 JUMP JUMPDEST PUSH2 0x28B4 JUMP JUMPDEST DUP3 DUP2 MSTORE PUSH1 0x5 SWAP3 SWAP1 SWAP3 SHL DUP5 ADD DUP2 ADD SWAP2 DUP2 DUP2 ADD SWAP1 DUP7 DUP5 GT ISZERO PUSH2 0x2A25 JUMPI PUSH0 DUP1 REVERT JUMPDEST DUP3 DUP7 ADD JUMPDEST DUP5 DUP2 LT ISZERO PUSH2 0x2A40 JUMPI DUP1 CALLDATALOAD DUP4 MSTORE SWAP2 DUP4 ADD SWAP2 DUP4 ADD PUSH2 0x2A29 JUMP JUMPDEST POP SWAP7 SWAP6 POP POP POP POP POP POP JUMP JUMPDEST PUSH0 DUP1 PUSH0 DUP1 PUSH0 PUSH1 0xA0 DUP7 DUP9 SUB SLT ISZERO PUSH2 0x2A5F JUMPI PUSH0 DUP1 REVERT JUMPDEST PUSH2 0x2A68 DUP7 PUSH2 0x27BA JUMP JUMPDEST SWAP5 POP PUSH2 0x2A76 PUSH1 0x20 DUP8 ADD PUSH2 0x27BA JUMP JUMPDEST SWAP4 POP PUSH1 0x40 DUP7 ADD CALLDATALOAD PUSH8 0xFFFFFFFFFFFFFFFF DUP1 DUP3 GT ISZERO PUSH2 0x2A92 JUMPI PUSH0 DUP1 REVERT JUMPDEST PUSH2 0x2A9E DUP10 DUP4 DUP11 ADD PUSH2 0x29E3 JUMP JUMPDEST SWAP5 POP PUSH1 0x60 DUP9 ADD CALLDATALOAD SWAP2 POP DUP1 DUP3 GT ISZERO PUSH2 0x2AB3 JUMPI PUSH0 DUP1 REVERT JUMPDEST PUSH2 0x2ABF DUP10 DUP4 DUP11 ADD PUSH2 0x29E3 JUMP JUMPDEST SWAP4 POP PUSH1 0x80 DUP9 ADD CALLDATALOAD SWAP2 POP DUP1 DUP3 GT ISZERO PUSH2 0x2AD4 JUMPI PUSH0 DUP1 REVERT JUMPDEST POP PUSH2 0x2AE1 DUP9 DUP3 DUP10 ADD PUSH2 0x28E5 JUMP JUMPDEST SWAP2 POP POP SWAP3 SWAP6 POP SWAP3 SWAP6 SWAP1 SWAP4 POP JUMP JUMPDEST PUSH0 DUP1 PUSH1 0x40 DUP4 DUP6 SUB SLT ISZERO PUSH2 0x2AFF JUMPI PUSH0 DUP1 REVERT JUMPDEST DUP3 CALLDATALOAD SWAP2 POP PUSH2 0x2B0F PUSH1 0x20 DUP5 ADD PUSH2 0x27BA JUMP JUMPDEST SWAP1 POP SWAP3 POP SWAP3 SWAP1 POP JUMP JUMPDEST DUP8 DUP2 MSTORE PUSH1 0xE0 PUSH1 0x20 DUP3 ADD MSTORE PUSH0 PUSH2 0x2B30 PUSH1 0xE0 DUP4 ADD DUP10 PUSH2 0x284B JUMP JUMPDEST DUP3 DUP2 SUB PUSH1 0x40 DUP5 ADD MSTORE PUSH2 0x2B42 DUP2 DUP10 PUSH2 0x284B JUMP JUMPDEST PUSH1 0x60 DUP5 ADD SWAP8 SWAP1 SWAP8 MSTORE POP POP PUSH1 0x80 DUP2 ADD SWAP4 SWAP1 SWAP4 MSTORE PUSH1 0xA0 DUP4 ADD SWAP2 SWAP1 SWAP2 MSTORE PUSH1 0x1 PUSH1 0x1 PUSH1 0xA0 SHL SUB AND PUSH1 0xC0 SWAP1 SWAP2 ADD MSTORE SWAP4 SWAP3 POP POP POP JUMP JUMPDEST PUSH0 DUP1 PUSH1 0x40 DUP4 DUP6 SUB SLT ISZERO PUSH2 0x2B83 JUMPI PUSH0 DUP1 REVERT JUMPDEST POP POP DUP1 CALLDATALOAD SWAP3 PUSH1 0x20 SWAP1 SWAP2 ADD CALLDATALOAD SWAP2 POP JUMP JUMPDEST PUSH4 0x4E487B71 PUSH1 0xE0 SHL PUSH0 MSTORE PUSH1 0x21 PUSH1 0x4 MSTORE PUSH1 0x24 PUSH0 REVERT JUMPDEST PUSH1 0x1 PUSH1 0x1 PUSH1 0xA0 SHL SUB DUP6 AND DUP2 MSTORE PUSH1 0x80 DUP2 ADD PUSH1 0x4 DUP6 LT PUSH2 0x2BD2 JUMPI PUSH4 0x4E487B71 PUSH1 0xE0 SHL PUSH0 MSTORE PUSH1 0x21 PUSH1 0x4 MSTORE PUSH1 0x24 PUSH0 REVERT JUMPDEST DUP5 PUSH1 0x20 DUP4 ADD MSTORE DUP4 PUSH1 0x40 DUP4 ADD MSTORE DUP3 PUSH1 0x60 DUP4 ADD MSTORE SWAP6 SWAP5 POP POP POP POP POP JUMP JUMPDEST PUSH0 DUP1 PUSH1 0x40 DUP4 DUP6 SUB SLT ISZERO PUSH2 0x2BFE JUMPI PUSH0 DUP1 REVERT JUMPDEST DUP3 CALLDATALOAD PUSH8 0xFFFFFFFFFFFFFFFF DUP1 DUP3 GT ISZERO PUSH2 0x2C15 JUMPI PUSH0 DUP1 REVERT JUMPDEST DUP2 DUP6 ADD SWAP2 POP DUP6 PUSH1 0x1F DUP4 ADD SLT PUSH2 0x2C28 JUMPI PUSH0 DUP1 REVERT JUMPDEST DUP2 CALLDATALOAD PUSH1 0x20 PUSH2 0x2C38 PUSH2 0x2A02 DUP4 PUSH2 0x29C0 JUMP JUMPDEST DUP3 DUP2 MSTORE PUSH1 0x5 SWAP3 SWAP1 SWAP3 SHL DUP5 ADD DUP2 ADD SWAP2 DUP2 DUP2 ADD SWAP1 DUP10 DUP5 GT ISZERO PUSH2 0x2C56 JUMPI PUSH0 DUP1 REVERT JUMPDEST SWAP5 DUP3 ADD SWAP5 JUMPDEST DUP4 DUP7 LT ISZERO PUSH2 0x2C7B JUMPI PUSH2 0x2C6C DUP7 PUSH2 0x27BA JUMP JUMPDEST DUP3 MSTORE SWAP5 DUP3 ADD SWAP5 SWAP1 DUP3 ADD SWAP1 PUSH2 0x2C5B JUMP JUMPDEST SWAP7 POP POP DUP7 ADD CALLDATALOAD SWAP3 POP POP DUP1 DUP3 GT ISZERO PUSH2 0x2C90 JUMPI PUSH0 DUP1 REVERT JUMPDEST POP PUSH2 0x2C9D DUP6 DUP3 DUP7 ADD PUSH2 0x29E3 JUMP JUMPDEST SWAP2 POP POP SWAP3 POP SWAP3 SWAP1 POP JUMP JUMPDEST PUSH0 DUP2 MLOAD DUP1 DUP5 MSTORE PUSH1 0x20 DUP1 DUP6 ADD SWAP5 POP DUP1 DUP5 ADD PUSH0 JUMPDEST DUP4 DUP2 LT ISZERO PUSH2 0x2CD5 JUMPI DUP2 MLOAD DUP8 MSTORE SWAP6 DUP3 ADD SWAP6 SWAP1 DUP3 ADD SWAP1 PUSH1 0x1 ADD PUSH2 0x2CB9 JUMP JUMPDEST POP SWAP5 SWAP6 SWAP5 POP POP POP POP POP JUMP JUMPDEST PUSH1 0x20 DUP2 MSTORE PUSH0 PUSH2 0x282D PUSH1 0x20 DUP4 ADD DUP5 PUSH2 0x2CA7 JUMP JUMPDEST PUSH0 PUSH1 0x20 DUP3 DUP5 SUB SLT ISZERO PUSH2 0x2D02 JUMPI PUSH0 DUP1 REVERT JUMPDEST PUSH2 0x282D DUP3 PUSH2 0x27BA JUMP JUMPDEST DUP1 CALLDATALOAD DUP1 ISZERO ISZERO DUP2 EQ PUSH2 0x27D0 JUMPI PUSH0 DUP1 REVERT JUMPDEST PUSH0 DUP1 PUSH0 PUSH1 0x60 DUP5 DUP7 SUB SLT ISZERO PUSH2 0x2D2C JUMPI PUSH0 DUP1 REVERT JUMPDEST DUP4 CALLDATALOAD SWAP3 POP PUSH1 0x20 DUP5 ADD CALLDATALOAD SWAP2 POP PUSH2 0x2D43 PUSH1 0x40 DUP6 ADD PUSH2 0x2D0B JUMP JUMPDEST SWAP1 POP SWAP3 POP SWAP3 POP SWAP3 JUMP JUMPDEST PUSH0 DUP1 PUSH1 0x40 DUP4 DUP6 SUB SLT ISZERO PUSH2 0x2D5D JUMPI PUSH0 DUP1 REVERT JUMPDEST PUSH2 0x2D66 DUP4 PUSH2 0x27BA JUMP JUMPDEST SWAP2 POP PUSH2 0x2B0F PUSH1 0x20 DUP5 ADD PUSH2 0x2D0B JUMP JUMPDEST PUSH0 DUP1 PUSH1 0x20 DUP4 DUP6 SUB SLT ISZERO PUSH2 0x2D85 JUMPI PUSH0 DUP1 REVERT JUMPDEST DUP3 CALLDATALOAD PUSH8 0xFFFFFFFFFFFFFFFF DUP1 DUP3 GT ISZERO PUSH2 0x2D9C JUMPI PUSH0 DUP1 REVERT JUMPDEST DUP2 DUP6 ADD SWAP2 POP DUP6 PUSH1 0x1F DUP4 ADD SLT PUSH2 0x2DAF JUMPI PUSH0 DUP1 REVERT JUMPDEST DUP2 CALLDATALOAD DUP2 DUP2 GT ISZERO PUSH2 0x2DBD JUMPI PUSH0 DUP1 REVERT JUMPDEST DUP7 PUSH1 0x20 DUP3 DUP6 ADD ADD GT ISZERO PUSH2 0x2DCE JUMPI PUSH0 DUP1 REVERT JUMPDEST PUSH1 0x20 SWAP3 SWAP1 SWAP3 ADD SWAP7 SWAP2 SWAP6 POP SWAP1 SWAP4 POP POP POP POP JUMP JUMPDEST PUSH0 DUP1 PUSH1 0x40 DUP4 DUP6 SUB SLT ISZERO PUSH2 0x2DF1 JUMPI PUSH0 DUP1 REVERT JUMPDEST PUSH2 0x2DFA DUP4 PUSH2 0x27BA JUMP JUMPDEST SWAP2 POP PUSH2 0x2B0F PUSH1 0x20 DUP5 ADD PUSH2 0x27BA JUMP JUMPDEST PUSH0 PUSH1 0x20 DUP3 DUP5 SUB SLT ISZERO PUSH2 0x2E18 JUMPI PUSH0 DUP1 REVERT JUMPDEST DUP2 CALLDATALOAD PUSH8 0xFFFFFFFFFFFFFFFF DUP2 GT ISZERO PUSH2 0x2E2E JUMPI PUSH0 DUP1 REVERT JUMPDEST PUSH2 0x2E3A DUP5 DUP3 DUP6 ADD PUSH2 0x28E5 JUMP JUMPDEST SWAP5 SWAP4 POP POP POP POP JUMP JUMPDEST PUSH0 DUP1 PUSH0 DUP1 PUSH0 PUSH1 0xA0 DUP7 DUP9 SUB SLT ISZERO PUSH2 0x2E56 JUMPI PUSH0 DUP1 REVERT JUMPDEST PUSH2 0x2E5F DUP7 PUSH2 0x27BA JUMP JUMPDEST SWAP5 POP PUSH2 0x2E6D PUSH1 0x20 DUP8 ADD PUSH2 0x27BA JUMP JUMPDEST SWAP4 POP PUSH1 0x40 DUP7 ADD CALLDATALOAD SWAP3 POP PUSH1 0x60 DUP7 ADD CALLDATALOAD SWAP2 POP PUSH1 0x80 DUP7 ADD CALLDATALOAD PUSH8 0xFFFFFFFFFFFFFFFF DUP2 GT ISZERO PUSH2 0x2E96 JUMPI PUSH0 DUP1 REVERT JUMPDEST PUSH2 0x2AE1 DUP9 DUP3 DUP10 ADD PUSH2 0x28E5 JUMP JUMPDEST PUSH1 0x1 DUP2 DUP2 SHR SWAP1 DUP3 AND DUP1 PUSH2 0x2EB6 JUMPI PUSH1 0x7F DUP3 AND SWAP2 POP JUMPDEST PUSH1 0x20 DUP3 LT DUP2 SUB PUSH2 0x2ED4 JUMPI PUSH4 0x4E487B71 PUSH1 0xE0 SHL PUSH0 MSTORE PUSH1 0x22 PUSH1 0x4 MSTORE PUSH1 0x24 PUSH0 REVERT JUMPDEST POP SWAP2 SWAP1 POP JUMP JUMPDEST PUSH4 0x4E487B71 PUSH1 0xE0 SHL PUSH0 MSTORE PUSH1 0x12 PUSH1 0x4 MSTORE PUSH1 0x24 PUSH0 REVERT JUMPDEST PUSH0 DUP3 PUSH2 0x2EFC JUMPI PUSH2 0x2EFC PUSH2 0x2EDA JUMP JUMPDEST POP MOD SWAP1 JUMP JUMPDEST PUSH4 0x4E487B71 PUSH1 0xE0 SHL PUSH0 MSTORE PUSH1 0x11 PUSH1 0x4 MSTORE PUSH1 0x24 PUSH0 REVERT JUMPDEST PUSH0 PUSH1 0x1 DUP3 ADD PUSH2 0x2F26 JUMPI PUSH2 0x2F26 PUSH2 0x2F01 JUMP JUMPDEST POP PUSH1 0x1 ADD SWAP1 JUMP JUMPDEST PUSH1 0x1F DUP3 GT ISZERO PUSH2 0xA73 JUMPI PUSH0 DUP2 DUP2 MSTORE PUSH1 0x20 DUP2 KECCAK256 PUSH1 0x1F DUP6 ADD PUSH1 0x5 SHR DUP2 ADD PUSH1 0x20 DUP7 LT ISZERO PUSH2 0x2F53 JUMPI POP DUP1 JUMPDEST PUSH1 0x1F DUP6 ADD PUSH1 0x5 SHR DUP3 ADD SWAP2 POP JUMPDEST DUP2 DUP2 LT ISZERO PUSH2 0x982 JUMPI DUP3 DUP2 SSTORE PUSH1 0x1 ADD PUSH2 0x2F5F JUMP JUMPDEST DUP2 MLOAD PUSH8 0xFFFFFFFFFFFFFFFF DUP2 GT ISZERO PUSH2 0x2F8C JUMPI PUSH2 0x2F8C PUSH2 0x28A0 JUMP JUMPDEST PUSH2 0x2FA0 DUP2 PUSH2 0x2F9A DUP5 SLOAD PUSH2 0x2EA2 JUMP JUMPDEST DUP5 PUSH2 0x2F2D JUMP JUMPDEST PUSH1 0x20 DUP1 PUSH1 0x1F DUP4 GT PUSH1 0x1 DUP2 EQ PUSH2 0x2FD3 JUMPI PUSH0 DUP5 ISZERO PUSH2 0x2FBC JUMPI POP DUP6 DUP4 ADD MLOAD JUMPDEST PUSH0 NOT PUSH1 0x3 DUP7 SWAP1 SHL SHR NOT AND PUSH1 0x1 DUP6 SWAP1 SHL OR DUP6 SSTORE PUSH2 0x982 JUMP JUMPDEST PUSH0 DUP6 DUP2 MSTORE PUSH1 0x20 DUP2 KECCAK256 PUSH1 0x1F NOT DUP7 AND SWAP2 JUMPDEST DUP3 DUP2 LT ISZERO PUSH2 0x3001 JUMPI DUP9 DUP7 ADD MLOAD DUP3 SSTORE SWAP5 DUP5 ADD SWAP5 PUSH1 0x1 SWAP1 SWAP2 ADD SWAP1 DUP5 ADD PUSH2 0x2FE2 JUMP JUMPDEST POP DUP6 DUP3 LT ISZERO PUSH2 0x301E JUMPI DUP8 DUP6 ADD MLOAD PUSH0 NOT PUSH1 0x3 DUP9 SWAP1 SHL PUSH1 0xF8 AND SHR NOT AND DUP2 SSTORE JUMPDEST POP POP POP POP POP PUSH1 0x1 SWAP1 DUP2 SHL ADD SWAP1 SSTORE POP JUMP JUMPDEST PUSH4 0x4E487B71 PUSH1 0xE0 SHL PUSH0 MSTORE PUSH1 0x32 PUSH1 0x4 MSTORE PUSH1 0x24 PUSH0 REVERT JUMPDEST PUSH1 0x20 DUP1 DUP3 MSTORE PUSH1 0xC SWAP1 DUP3 ADD MSTORE PUSH12 0x92DCECC2D8D2C892DCC8CAF PUSH1 0xA3 SHL PUSH1 0x40 DUP3 ADD MSTORE PUSH1 0x60 ADD SWAP1 JUMP JUMPDEST DUP1 DUP3 ADD DUP1 DUP3 GT ISZERO PUSH2 0x70A JUMPI PUSH2 0x70A PUSH2 0x2F01 JUMP JUMPDEST DUP1 DUP3 MUL DUP2 ISZERO DUP3 DUP3 DIV DUP5 EQ OR PUSH2 0x70A JUMPI PUSH2 0x70A PUSH2 0x2F01 JUMP JUMPDEST PUSH0 DUP3 PUSH2 0x30A0 JUMPI PUSH2 0x30A0 PUSH2 0x2EDA JUMP JUMPDEST POP DIV SWAP1 JUMP JUMPDEST DUP2 DUP2 SUB DUP2 DUP2 GT ISZERO PUSH2 0x70A JUMPI PUSH2 0x70A PUSH2 0x2F01 JUMP JUMPDEST PUSH1 0x20 DUP1 DUP3 MSTORE PUSH1 0xA SWAP1 DUP3 ADD MSTORE PUSH10 0x1499599D5B9911985A5B PUSH1 0xB2 SHL PUSH1 0x40 DUP3 ADD MSTORE PUSH1 0x60 ADD SWAP1 JUMP JUMPDEST PUSH1 0x1 PUSH1 0x1 PUSH1 0xA0 SHL SUB SWAP6 SWAP1 SWAP6 AND DUP6 MSTORE PUSH1 0x20 DUP6 ADD SWAP4 SWAP1 SWAP4 MSTORE PUSH1 0x40 DUP5 ADD SWAP2 SWAP1 SWAP2 MSTORE PUSH1 0x60 DUP4 ADD MSTORE PUSH1 0x80 DUP3 ADD MSTORE PUSH1 0xA0 ADD SWAP1 JUMP JUMPDEST PUSH8 0xFFFFFFFFFFFFFFFF DUP4 GT ISZERO PUSH2 0x3122 JUMPI PUSH2 0x3122 PUSH2 0x28A0 JUMP JUMPDEST PUSH2 0x3136 DUP4 PUSH2 0x3130 DUP4 SLOAD PUSH2 0x2EA2 JUMP JUMPDEST DUP4 PUSH2 0x2F2D JUMP JUMPDEST PUSH0 PUSH1 0x1F DUP5 GT PUSH1 0x1 DUP2 EQ PUSH2 0x3167 JUMPI PUSH0 DUP6 ISZERO PUSH2 0x3150 JUMPI POP DUP4 DUP3 ADD CALLDATALOAD JUMPDEST PUSH0 NOT PUSH1 0x3 DUP8 SWAP1 SHL SHR NOT AND PUSH1 0x1 DUP7 SWAP1 SHL OR DUP4 SSTORE PUSH2 0x1F5E JUMP JUMPDEST PUSH0 DUP4 DUP2 MSTORE PUSH1 0x20 SWAP1 KECCAK256 PUSH1 0x1F NOT DUP7 AND SWAP1 DUP4 JUMPDEST DUP3 DUP2 LT ISZERO PUSH2 0x3197 JUMPI DUP7 DUP6 ADD CALLDATALOAD DUP3 SSTORE PUSH1 0x20 SWAP5 DUP6 ADD SWAP5 PUSH1 0x1 SWAP1 SWAP3 ADD SWAP2 ADD PUSH2 0x3177 JUMP JUMPDEST POP DUP7 DUP3 LT ISZERO PUSH2 0x31B3 JUMPI PUSH0 NOT PUSH1 0xF8 DUP9 PUSH1 0x3 SHL AND SHR NOT DUP5 DUP8 ADD CALLDATALOAD AND DUP2 SSTORE JUMPDEST POP POP PUSH1 0x1 DUP6 PUSH1 0x1 SHL ADD DUP4 SSTORE POP POP POP POP POP JUMP JUMPDEST PUSH1 0x20 DUP1 DUP3 MSTORE PUSH1 0xC SWAP1 DUP3 ADD MSTORE PUSH12 0x151C985B9CD9995C91985A5B PUSH1 0xA2 SHL PUSH1 0x40 DUP3 ADD MSTORE PUSH1 0x60 ADD SWAP1 JUMP JUMPDEST PUSH1 0x40 DUP2 MSTORE PUSH0 PUSH2 0x31FD PUSH1 0x40 DUP4 ADD DUP6 PUSH2 0x2CA7 JUMP JUMPDEST DUP3 DUP2 SUB PUSH1 0x20 DUP5 ADD MSTORE PUSH2 0x320F DUP2 DUP6 PUSH2 0x2CA7 JUMP JUMPDEST SWAP6 SWAP5 POP POP POP POP POP JUMP JUMPDEST PUSH1 0x1 PUSH1 0x1 PUSH1 0xA0 SHL SUB DUP7 DUP2 AND DUP3 MSTORE DUP6 AND PUSH1 0x20 DUP3 ADD MSTORE PUSH1 0x40 DUP2 ADD DUP5 SWAP1 MSTORE PUSH1 0x60 DUP2 ADD DUP4 SWAP1 MSTORE PUSH1 0xA0 PUSH1 0x80 DUP3 ADD DUP2 SWAP1 MSTORE PUSH0 SWAP1 PUSH2 0x3251 SWAP1 DUP4 ADD DUP5 PUSH2 0x284B JUMP JUMPDEST SWAP8 SWAP7 POP POP POP POP POP POP POP JUMP JUMPDEST PUSH0 PUSH1 0x20 DUP3 DUP5 SUB SLT ISZERO PUSH2 0x326C JUMPI PUSH0 DUP1 REVERT JUMPDEST DUP2 MLOAD PUSH2 0x282D DUP2 PUSH2 0x27FD JUMP JUMPDEST PUSH1 0x1 PUSH1 0x1 PUSH1 0xA0 SHL SUB DUP7 DUP2 AND DUP3 MSTORE DUP6 AND PUSH1 0x20 DUP3 ADD MSTORE PUSH1 0xA0 PUSH1 0x40 DUP3 ADD DUP2 SWAP1 MSTORE PUSH0 SWAP1 PUSH2 0x32A2 SWAP1 DUP4 ADD DUP7 PUSH2 0x2CA7 JUMP JUMPDEST DUP3 DUP2 SUB PUSH1 0x60 DUP5 ADD MSTORE PUSH2 0x32B4 DUP2 DUP7 PUSH2 0x2CA7 JUMP JUMPDEST SWAP1 POP DUP3 DUP2 SUB PUSH1 0x80 DUP5 ADD MSTORE PUSH2 0x32C8 DUP2 DUP6 PUSH2 0x284B JUMP JUMPDEST SWAP9 SWAP8 POP POP POP POP POP POP POP POP JUMP INVALID DUP8 PUSH27 0x78DC988C0EC5F58453B44888A55EB39755C3D5ED8D8EA990912AA3 0xEF 0x29 0xC6 0x26 GASLIMIT PUSH6 0xE1FF1C54EF5F 0x2B 0xC2 PUSH4 0xD3B7F062 0xAF PUSH18 0x72DAF399273B0C92FFC4FD8D4A4DA2646970 PUSH7 0x7358221220C64B LOG0 0x21 XOR LOG3 0xD6 PUSH13 0x65F387CE3370C723502C421BB7 0x2A PUSH4 0xFF7FA5DC 0xDE 0xC3 SIGNEXTEND SGT DUP15 PUSH5 0x736F6C6343 STOP ADDMOD EQ STOP CALLER "
		},
		"gasEstimates": {
			"creation": {
				"codeDepositCost": "2626000",
				"executionCost": "infinite",
				"totalCost": "infinite"
			},
			"external": {
				"": "207",
				"ARBITRATOR_ROLE()": "229",
				"ARTIST_ROLE()": "infinite",
				"CONFIRMATION_TIMEOUT()": "251",
				"DEFAULT_ADMIN_ROLE()": "272",
				"artistDeposits(address)": "2572",
				"artworkPurchases(uint256,uint256)": "9199",
				"artworks(uint256)": "infinite",
				"balanceOf(address,uint256)": "2680",
				"balanceOfBatch(address[],uint256[])": "infinite",
				"createArtwork(string,string,uint256,uint256)": "infinite",
				"currentArtworkId()": "2396",
				"depositETH()": "infinite",
				"forceConfirmPurchase(uint256,uint256)": "infinite",
				"getRoleAdmin(bytes32)": "2498",
				"grantRole(bytes32,address)": "infinite",
				"hasRole(bytes32,address)": "2795",
				"isApprovedForAll(address,address)": "infinite",
				"keyServer()": "2425",
				"keyServerURL()": "infinite",
				"mintArtwork(uint256)": "infinite",
				"onERC1155BatchReceived(address,address,uint256[],uint256[],bytes)": "infinite",
				"onERC1155Received(address,address,uint256,uint256,bytes)": "infinite",
				"publicKeyURI(address)": "infinite",
				"renounceRole(bytes32,address)": "29070",
				"revokeRole(bytes32,address)": "infinite",
				"safeBatchTransferFrom(address,address,uint256[],uint256[],bytes)": "infinite",
				"safeTransferFrom(address,address,uint256,uint256,bytes)": "infinite",
				"setApprovalForAll(address,bool)": "infinite",
				"setKeyServer(address)": "27019",
				"setKeyServerURL(string)": "infinite",
				"setPublicKeyURI(string)": "infinite",
				"settlePurchaseDispute(uint256,uint256,bool)": "infinite",
				"supportsInterface(bytes4)": "infinite",
				"uri(uint256)": "infinite",
				"verifyPurchase(uint256,uint256,bool)": "infinite",
				"withdrawETH(uint256)": "infinite"
			}
		},
		"methodIdentifiers": {
			"ARBITRATOR_ROLE()": "9cea0787",
			"ARTIST_ROLE()": "a966a0df",
			"CONFIRMATION_TIMEOUT()": "3a14af65",
			"DEFAULT_ADMIN_ROLE()": "a217fddf",
			"artistDeposits(address)": "ac76e521",
			"artworkPurchases(uint256,uint256)": "4bc9db85",
			"artworks(uint256)": "4b602673",
			"balanceOf(address,uint256)": "00fdd58e",
			"balanceOfBatch(address[],uint256[])": "4e1273f4",
			"createArtwork(string,string,uint256,uint256)": "237f1509",
			"currentArtworkId()": "18b6dcbc",
			"depositETH()": "f6326fb3",
			"forceConfirmPurchase(uint256,uint256)": "7365e8ec",
			"getRoleAdmin(bytes32)": "248a9ca3",
			"grantRole(bytes32,address)": "2f2ff15d",
			"hasRole(bytes32,address)": "91d14854",
			"isApprovedForAll(address,address)": "e985e9c5",
			"keyServer()": "b69b6d66",
			"keyServerURL()": "361d8c3a",
			"mintArtwork(uint256)": "e82f4062",
			"onERC1155BatchReceived(address,address,uint256[],uint256[],bytes)": "bc197c81",
			"onERC1155Received(address,address,uint256,uint256,bytes)": "f23a6e61",
			"publicKeyURI(address)": "815176aa",
			"renounceRole(bytes32,address)": "36568abe",
			"revokeRole(bytes32,address)": "d547741f",
			"safeBatchTransferFrom(address,address,uint256[],uint256[],bytes)": "2eb2c2d6",
			"safeTransferFrom(address,address,uint256,uint256,bytes)": "f242432a",
			"setApprovalForAll(address,bool)": "a22cb465",
			"setKeyServer(address)": "595af66f",
			"setKeyServerURL(string)": "d4aa56b1",
			"setPublicKeyURI(string)": "f0d93b9a",
			"settlePurchaseDispute(uint256,uint256,bool)": "9e56f275",
			"supportsInterface(bytes4)": "01ffc9a7",
			"uri(uint256)": "0e89341c",
			"verifyPurchase(uint256,uint256,bool)": "b89571c7",
			"withdrawETH(uint256)": "f14210a6"
		}
	},
	"abi": [
		{
			"inputs": [
				{
					"internalType": "string",
					"name": "uri",
					"type": "string"
				}
			],
			"stateMutability": "nonpayable",
			"type": "constructor"
		},
		{
			"inputs": [],
			"name": "AccessControlBadConfirmation",
			"type": "error"
		},
		{
			"inputs": [
				{
					"internalType": "address",
					"name": "account",
					"type": "address"
				},
				{
					"internalType": "bytes32",
					"name": "neededRole",
					"type": "bytes32"
				}
			],
			"name": "AccessControlUnauthorizedAccount",
			"type": "error"
		},
		{
			"inputs": [
				{
					"internalType": "address",
					"name": "sender",
					"type": "address"
				},
				{
					"internalType": "uint256",
					"name": "balance",
					"type": "uint256"
				},
				{
					"internalType": "uint256",
					"name": "needed",
					"type": "uint256"
				},
				{
					"internalType": "uint256",
					"name": "tokenId",
					"type": "uint256"
				}
			],
			"name": "ERC1155InsufficientBalance",
			"type": "error"
		},
		{
			"inputs": [
				{
					"internalType": "address",
					"name": "approver",
					"type": "address"
				}
			],
			"name": "ERC1155InvalidApprover",
			"type": "error"
		},
		{
			"inputs": [
				{
					"internalType": "uint256",
					"name": "idsLength",
					"type": "uint256"
				},
				{
					"internalType": "uint256",
					"name": "valuesLength",
					"type": "uint256"
				}
			],
			"name": "ERC1155InvalidArrayLength",
			"type": "error"
		},
		{
			"inputs": [
				{
					"internalType": "address",
					"name": "operator",
					"type": "address"
				}
			],
			"name": "ERC1155InvalidOperator",
			"type": "error"
		},
		{
			"inputs": [
				{
					"internalType": "address",
					"name": "receiver",
					"type": "address"
				}
			],
			"name": "ERC1155InvalidReceiver",
			"type": "error"
		},
		{
			"inputs": [
				{
					"internalType": "address",
					"name": "sender",
					"type": "address"
				}
			],
			"name": "ERC1155InvalidSender",
			"type": "error"
		},
		{
			"inputs": [
				{
					"internalType": "address",
					"name": "operator",
					"type": "address"
				},
				{
					"internalType": "address",
					"name": "owner",
					"type": "address"
				}
			],
			"name": "ERC1155MissingApprovalForAll",
			"type": "error"
		},
		{
			"anonymous": false,
			"inputs": [
				{
					"indexed": true,
					"internalType": "address",
					"name": "account",
					"type": "address"
				},
				{
					"indexed": true,
					"internalType": "address",
					"name": "operator",
					"type": "address"
				},
				{
					"indexed": false,
					"internalType": "bool",
					"name": "approved",
					"type": "bool"
				}
			],
			"name": "ApprovalForAll",
			"type": "event"
		},
		{
			"anonymous": false,
			"inputs": [
				{
					"indexed": true,
					"internalType": "uint256",
					"name": "tokenId",
					"type": "uint256"
				},
				{
					"indexed": true,
					"internalType": "address",
					"name": "artist",
					"type": "address"
				},
				{
					"indexed": false,
					"internalType": "uint256",
					"name": "price",
					"type": "uint256"
				},
				{
					"indexed": false,
					"internalType": "uint256",
					"name": "supplyLimit",
					"type": "uint256"
				}
			],
			"name": "ArtworkCreated",
			"type": "event"
		},
		{
			"anonymous": false,
			"inputs": [
				{
					"indexed": true,
					"internalType": "uint256",
					"name": "tokenId",
					"type": "uint256"
				},
				{
					"indexed": true,
					"internalType": "uint256",
					"name": "purchaseIndex",
					"type": "uint256"
				},
				{
					"indexed": true,
					"internalType": "address",
					"name": "buyer",
					"type": "address"
				},
				{
					"indexed": false,
					"internalType": "uint256",
					"name": "purchaseAmount",
					"type": "uint256"
				},
				{
					"indexed": false,
					"internalType": "uint256",
					"name": "depositLocked",
					"type": "uint256"
				}
			],
			"name": "ArtworkMinted",
			"type": "event"
		},
		{
			"anonymous": false,
			"inputs": [
				{
					"indexed": true,
					"internalType": "uint256",
					"name": "tokenId",
					"type": "uint256"
				},
				{
					"indexed": false,
					"internalType": "uint256",
					"name": "purchaseIndex",
					"type": "uint256"
				},
				{
					"indexed": true,
					"internalType": "address",
					"name": "artist",
					"type": "address"
				}
			],
			"name": "DisputeForced",
			"type": "event"
		},
		{
			"anonymous": false,
			"inputs": [
				{
					"indexed": true,
					"internalType": "uint256",
					"name": "tokenId",
					"type": "uint256"
				},
				{
					"indexed": false,
					"internalType": "uint256",
					"name": "purchaseIndex",
					"type": "uint256"
				},
				{
					"indexed": true,
					"internalType": "address",
					"name": "buyer",
					"type": "address"
				}
			],
			"name": "DisputeOpened",
			"type": "event"
		},
		{
			"anonymous": false,
			"inputs": [
				{
					"indexed": true,
					"internalType": "uint256",
					"name": "tokenId",
					"type": "uint256"
				},
				{
					"indexed": false,
					"internalType": "uint256",
					"name": "purchaseIndex",
					"type": "uint256"
				},
				{
					"indexed": false,
					"internalType": "bool",
					"name": "disputeResult",
					"type": "bool"
				}
			],
			"name": "DisputeSettled",
			"type": "event"
		},
		{
			"anonymous": false,
			"inputs": [
				{
					"indexed": true,
					"internalType": "uint256",
					"name": "tokenId",
					"type": "uint256"
				},
				{
					"indexed": true,
					"internalType": "uint256",
					"name": "purchaseIndex",
					"type": "uint256"
				},
				{
					"indexed": true,
					"internalType": "address",
					"name": "artist",
					"type": "address"
				},
				{
					"indexed": false,
					"internalType": "address",
					"name": "buyer",
					"type": "address"
				},
				{
					"indexed": false,
					"internalType": "uint256",
					"name": "buyerRefund",
					"type": "uint256"
				},
				{
					"indexed": false,
					"internalType": "uint256",
					"name": "keyServerFee",
					"type": "uint256"
				},
				{
					"indexed": false,
					"internalType": "uint256",
					"name": "arbitratorFee",
					"type": "uint256"
				},
				{
					"indexed": false,
					"internalType": "uint256",
					"name": "artistCredit",
					"type": "uint256"
				}
			],
			"name": "FundsDistributed",
			"type": "event"
		},
		{
			"anonymous": false,
			"inputs": [
				{
					"indexed": true,
					"internalType": "uint256",
					"name": "tokenId",
					"type": "uint256"
				},
				{
					"indexed": false,
					"internalType": "uint256",
					"name": "purchaseIndex",
					"type": "uint256"
				},
				{
					"indexed": true,
					"internalType": "address",
					"name": "buyer",
					"type": "address"
				}
			],
			"name": "NFTBurned",
			"type": "event"
		},
		{
			"anonymous": false,
			"inputs": [
				{
					"indexed": true,
					"internalType": "bytes32",
					"name": "role",
					"type": "bytes32"
				},
				{
					"indexed": true,
					"internalType": "bytes32",
					"name": "previousAdminRole",
					"type": "bytes32"
				},
				{
					"indexed": true,
					"internalType": "bytes32",
					"name": "newAdminRole",
					"type": "bytes32"
				}
			],
			"name": "RoleAdminChanged",
			"type": "event"
		},
		{
			"anonymous": false,
			"inputs": [
				{
					"indexed": true,
					"internalType": "bytes32",
					"name": "role",
					"type": "bytes32"
				},
				{
					"indexed": true,
					"internalType": "address",
					"name": "account",
					"type": "address"
				},
				{
					"indexed": true,
					"internalType": "address",
					"name": "sender",
					"type": "address"
				}
			],
			"name": "RoleGranted",
			"type": "event"
		},
		{
			"anonymous": false,
			"inputs": [
				{
					"indexed": true,
					"internalType": "bytes32",
					"name": "role",
					"type": "bytes32"
				},
				{
					"indexed": true,
					"internalType": "address",
					"name": "account",
					"type": "address"
				},
				{
					"indexed": true,
					"internalType": "address",
					"name": "sender",
					"type": "address"
				}
			],
			"name": "RoleRevoked",
			"type": "event"
		},
		{
			"anonymous": false,
			"inputs": [
				{
					"indexed": true,
					"internalType": "address",
					"name": "operator",
					"type": "address"
				},
				{
					"indexed": true,
					"internalType": "address",
					"name": "from",
					"type": "address"
				},
				{
					"indexed": true,
					"internalType": "address",
					"name": "to",
					"type": "address"
				},
				{
					"indexed": false,
					"internalType": "uint256[]",
					"name": "ids",
					"type": "uint256[]"
				},
				{
					"indexed": false,
					"internalType": "uint256[]",
					"name": "values",
					"type": "uint256[]"
				}
			],
			"name": "TransferBatch",
			"type": "event"
		},
		{
			"anonymous": false,
			"inputs": [
				{
					"indexed": true,
					"internalType": "address",
					"name": "operator",
					"type": "address"
				},
				{
					"indexed": true,
					"internalType": "address",
					"name": "from",
					"type": "address"
				},
				{
					"indexed": true,
					"internalType": "address",
					"name": "to",
					"type": "address"
				},
				{
					"indexed": false,
					"internalType": "uint256",
					"name": "id",
					"type": "uint256"
				},
				{
					"indexed": false,
					"internalType": "uint256",
					"name": "value",
					"type": "uint256"
				}
			],
			"name": "TransferSingle",
			"type": "event"
		},
		{
			"anonymous": false,
			"inputs": [
				{
					"indexed": false,
					"internalType": "string",
					"name": "value",
					"type": "string"
				},
				{
					"indexed": true,
					"internalType": "uint256",
					"name": "id",
					"type": "uint256"
				}
			],
			"name": "URI",
			"type": "event"
		},
		{
			"anonymous": false,
			"inputs": [
				{
					"indexed": true,
					"internalType": "uint256",
					"name": "tokenId",
					"type": "uint256"
				},
				{
					"indexed": false,
					"internalType": "uint256",
					"name": "purchaseIndex",
					"type": "uint256"
				},
				{
					"indexed": true,
					"internalType": "address",
					"name": "buyer",
					"type": "address"
				},
				{
					"indexed": false,
					"internalType": "bool",
					"name": "result",
					"type": "bool"
				}
			],
			"name": "VerificationResult",
			"type": "event"
		},
		{
			"stateMutability": "payable",
			"type": "fallback"
		},
		{
			"inputs": [],
			"name": "ARBITRATOR_ROLE",
			"outputs": [
				{
					"internalType": "bytes32",
					"name": "",
					"type": "bytes32"
				}
			],
			"stateMutability": "view",
			"type": "function"
		},
		{
			"inputs": [],
			"name": "ARTIST_ROLE",
			"outputs": [
				{
					"internalType": "bytes32",
					"name": "",
					"type": "bytes32"
				}
			],
			"stateMutability": "view",
			"type": "function"
		},
		{
			"inputs": [],
			"name": "CONFIRMATION_TIMEOUT",
			"outputs": [
				{
					"internalType": "uint256",
					"name": "",
					"type": "uint256"
				}
			],
			"stateMutability": "view",
			"type": "function"
		},
		{
			"inputs": [],
			"name": "DEFAULT_ADMIN_ROLE",
			"outputs": [
				{
					"internalType": "bytes32",
					"name": "",
					"type": "bytes32"
				}
			],
			"stateMutability": "view",
			"type": "function"
		},
		{
			"inputs": [
				{
					"internalType": "address",
					"name": "",
					"type": "address"
				}
			],
			"name": "artistDeposits",
			"outputs": [
				{
					"internalType": "uint256",
					"name": "",
					"type": "uint256"
				}
			],
			"stateMutability": "view",
			"type": "function"
		},
		{
			"inputs": [
				{
					"internalType": "uint256",
					"name": "",
					"type": "uint256"
				},
				{
					"internalType": "uint256",
					"name": "",
					"type": "uint256"
				}
			],
			"name": "artworkPurchases",
			"outputs": [
				{
					"internalType": "address",
					"name": "buyer",
					"type": "address"
				},
				{
					"internalType": "enum DigitalArtwork_ERC1155_ETH.PurchaseState",
					"name": "state",
					"type": "uint8"
				},
				{
					"internalType": "uint256",
					"name": "lockedDeposit",
					"type": "uint256"
				},
				{
					"internalType": "uint256",
					"name": "purchaseTime",
					"type": "uint256"
				}
			],
			"stateMutability": "view",
			"type": "function"
		},
		{
			"inputs": [
				{
					"internalType": "uint256",
					"name": "",
					"type": "uint256"
				}
			],
			"name": "artworks",
			"outputs": [
				{
					"internalType": "uint256",
					"name": "tokenId",
					"type": "uint256"
				},
				{
					"internalType": "string",
					"name": "name",
					"type": "string"
				},
				{
					"internalType": "string",
					"name": "hash_json",
					"type": "string"
				},
				{
					"internalType": "uint256",
					"name": "supplyLimit",
					"type": "uint256"
				},
				{
					"internalType": "uint256",
					"name": "minted",
					"type": "uint256"
				},
				{
					"internalType": "uint256",
					"name": "price",
					"type": "uint256"
				},
				{
					"internalType": "address",
					"name": "artist",
					"type": "address"
				}
			],
			"stateMutability": "view",
			"type": "function"
		},
		{
			"inputs": [
				{
					"internalType": "address",
					"name": "account",
					"type": "address"
				},
				{
					"internalType": "uint256",
					"name": "id",
					"type": "uint256"
				}
			],
			"name": "balanceOf",
			"outputs": [
				{
					"internalType": "uint256",
					"name": "",
					"type": "uint256"
				}
			],
			"stateMutability": "view",
			"type": "function"
		},
		{
			"inputs": [
				{
					"internalType": "address[]",
					"name": "accounts",
					"type": "address[]"
				},
				{
					"internalType": "uint256[]",
					"name": "ids",
					"type": "uint256[]"
				}
			],
			"name": "balanceOfBatch",
			"outputs": [
				{
					"internalType": "uint256[]",
					"name": "",
					"type": "uint256[]"
				}
			],
			"stateMutability": "view",
			"type": "function"
		},
		{
			"inputs": [
				{
					"internalType": "string",
					"name": "_name",
					"type": "string"
				},
				{
					"internalType": "string",
					"name": "_hash_json",
					"type": "string"
				},
				{
					"internalType": "uint256",
					"name": "_supplyLimit",
					"type": "uint256"
				},
				{
					"internalType": "uint256",
					"name": "_price",
					"type": "uint256"
				}
			],
			"name": "createArtwork",
			"outputs": [
				{
					"internalType": "uint256",
					"name": "",
					"type": "uint256"
				}
			],
			"stateMutability": "nonpayable",
			"type": "function"
		},
		{
			"inputs": [],
			"name": "currentArtworkId",
			"outputs": [
				{
					"internalType": "uint256",
					"name": "",
					"type": "uint256"
				}
			],
			"stateMutability": "view",
			"type": "function"
		},
		{
			"inputs": [],
			"name": "depositETH",
			"outputs": [],
			"stateMutability": "payable",
			"type": "function"
		},
		{
			"inputs": [
				{
					"internalType": "uint256",
					"name": "_tokenId",
					"type": "uint256"
				},
				{
					"internalType": "uint256",
					"name": "purchaseIndex",
					"type": "uint256"
				}
			],
			"name": "forceConfirmPurchase",
			"outputs": [],
			"stateMutability": "nonpayable",
			"type": "function"
		},
		{
			"inputs": [
				{
					"internalType": "bytes32",
					"name": "role",
					"type": "bytes32"
				}
			],
			"name": "getRoleAdmin",
			"outputs": [
				{
					"internalType": "bytes32",
					"name": "",
					"type": "bytes32"
				}
			],
			"stateMutability": "view",
			"type": "function"
		},
		{
			"inputs": [
				{
					"internalType": "bytes32",
					"name": "role",
					"type": "bytes32"
				},
				{
					"internalType": "address",
					"name": "account",
					"type": "address"
				}
			],
			"name": "grantRole",
			"outputs": [],
			"stateMutability": "nonpayable",
			"type": "function"
		},
		{
			"inputs": [
				{
					"internalType": "bytes32",
					"name": "role",
					"type": "bytes32"
				},
				{
					"internalType": "address",
					"name": "account",
					"type": "address"
				}
			],
			"name": "hasRole",
			"outputs": [
				{
					"internalType": "bool",
					"name": "",
					"type": "bool"
				}
			],
			"stateMutability": "view",
			"type": "function"
		},
		{
			"inputs": [
				{
					"internalType": "address",
					"name": "account",
					"type": "address"
				},
				{
					"internalType": "address",
					"name": "operator",
					"type": "address"
				}
			],
			"name": "isApprovedForAll",
			"outputs": [
				{
					"internalType": "bool",
					"name": "",
					"type": "bool"
				}
			],
			"stateMutability": "view",
			"type": "function"
		},
		{
			"inputs": [],
			"name": "keyServer",
			"outputs": [
				{
					"internalType": "address",
					"name": "",
					"type": "address"
				}
			],
			"stateMutability": "view",
			"type": "function"
		},
		{
			"inputs": [],
			"name": "keyServerURL",
			"outputs": [
				{
					"internalType": "string",
					"name": "",
					"type": "string"
				}
			],
			"stateMutability": "view",
			"type": "function"
		},
		{
			"inputs": [
				{
					"internalType": "uint256",
					"name": "_tokenId",
					"type": "uint256"
				}
			],
			"name": "mintArtwork",
			"outputs": [],
			"stateMutability": "payable",
			"type": "function"
		},
		{
			"inputs": [
				{
					"internalType": "address",
					"name": "",
					"type": "address"
				},
				{
					"internalType": "address",
					"name": "",
					"type": "address"
				},
				{
					"internalType": "uint256[]",
					"name": "",
					"type": "uint256[]"
				},
				{
					"internalType": "uint256[]",
					"name": "",
					"type": "uint256[]"
				},
				{
					"internalType": "bytes",
					"name": "",
					"type": "bytes"
				}
			],
			"name": "onERC1155BatchReceived",
			"outputs": [
				{
					"internalType": "bytes4",
					"name": "",
					"type": "bytes4"
				}
			],
			"stateMutability": "nonpayable",
			"type": "function"
		},
		{
			"inputs": [
				{
					"internalType": "address",
					"name": "",
					"type": "address"
				},
				{
					"internalType": "address",
					"name": "",
					"type": "address"
				},
				{
					"internalType": "uint256",
					"name": "",
					"type": "uint256"
				},
				{
					"internalType": "uint256",
					"name": "",
					"type": "uint256"
				},
				{
					"internalType": "bytes",
					"name": "",
					"type": "bytes"
				}
			],
			"name": "onERC1155Received",
			"outputs": [
				{
					"internalType": "bytes4",
					"name": "",
					"type": "bytes4"
				}
			],
			"stateMutability": "nonpayable",
			"type": "function"
		},
		{
			"inputs": [
				{
					"internalType": "address",
					"name": "",
					"type": "address"
				}
			],
			"name": "publicKeyURI",
			"outputs": [
				{
					"internalType": "string",
					"name": "",
					"type": "string"
				}
			],
			"stateMutability": "view",
			"type": "function"
		},
		{
			"inputs": [
				{
					"internalType": "bytes32",
					"name": "role",
					"type": "bytes32"
				},
				{
					"internalType": "address",
					"name": "callerConfirmation",
					"type": "address"
				}
			],
			"name": "renounceRole",
			"outputs": [],
			"stateMutability": "nonpayable",
			"type": "function"
		},
		{
			"inputs": [
				{
					"internalType": "bytes32",
					"name": "role",
					"type": "bytes32"
				},
				{
					"internalType": "address",
					"name": "account",
					"type": "address"
				}
			],
			"name": "revokeRole",
			"outputs": [],
			"stateMutability": "nonpayable",
			"type": "function"
		},
		{
			"inputs": [
				{
					"internalType": "address",
					"name": "from",
					"type": "address"
				},
				{
					"internalType": "address",
					"name": "to",
					"type": "address"
				},
				{
					"internalType": "uint256[]",
					"name": "ids",
					"type": "uint256[]"
				},
				{
					"internalType": "uint256[]",
					"name": "values",
					"type": "uint256[]"
				},
				{
					"internalType": "bytes",
					"name": "data",
					"type": "bytes"
				}
			],
			"name": "safeBatchTransferFrom",
			"outputs": [],
			"stateMutability": "nonpayable",
			"type": "function"
		},
		{
			"inputs": [
				{
					"internalType": "address",
					"name": "from",
					"type": "address"
				},
				{
					"internalType": "address",
					"name": "to",
					"type": "address"
				},
				{
					"internalType": "uint256",
					"name": "id",
					"type": "uint256"
				},
				{
					"internalType": "uint256",
					"name": "value",
					"type": "uint256"
				},
				{
					"internalType": "bytes",
					"name": "data",
					"type": "bytes"
				}
			],
			"name": "safeTransferFrom",
			"outputs": [],
			"stateMutability": "nonpayable",
			"type": "function"
		},
		{
			"inputs": [
				{
					"internalType": "address",
					"name": "operator",
					"type": "address"
				},
				{
					"internalType": "bool",
					"name": "approved",
					"type": "bool"
				}
			],
			"name": "setApprovalForAll",
			"outputs": [],
			"stateMutability": "nonpayable",
			"type": "function"
		},
		{
			"inputs": [
				{
					"internalType": "address",
					"name": "_keyServer",
					"type": "address"
				}
			],
			"name": "setKeyServer",
			"outputs": [],
			"stateMutability": "nonpayable",
			"type": "function"
		},
		{
			"inputs": [
				{
					"internalType": "string",
					"name": "newURL",
					"type": "string"
				}
			],
			"name": "setKeyServerURL",
			"outputs": [],
			"stateMutability": "nonpayable",
			"type": "function"
		},
		{
			"inputs": [
				{
					"internalType": "string",
					"name": "keyURI",
					"type": "string"
				}
			],
			"name": "setPublicKeyURI",
			"outputs": [],
			"stateMutability": "nonpayable",
			"type": "function"
		},
		{
			"inputs": [
				{
					"internalType": "uint256",
					"name": "_tokenId",
					"type": "uint256"
				},
				{
					"internalType": "uint256",
					"name": "purchaseIndex",
					"type": "uint256"
				},
				{
					"internalType": "bool",
					"name": "disputeResult",
					"type": "bool"
				}
			],
			"name": "settlePurchaseDispute",
			"outputs": [],
			"stateMutability": "nonpayable",
			"type": "function"
		},
		{
			"inputs": [
				{
					"internalType": "bytes4",
					"name": "interfaceId",
					"type": "bytes4"
				}
			],
			"name": "supportsInterface",
			"outputs": [
				{
					"internalType": "bool",
					"name": "",
					"type": "bool"
				}
			],
			"stateMutability": "view",
			"type": "function"
		},
		{
			"inputs": [
				{
					"internalType": "uint256",
					"name": "",
					"type": "uint256"
				}
			],
			"name": "uri",
			"outputs": [
				{
					"internalType": "string",
					"name": "",
					"type": "string"
				}
			],
			"stateMutability": "view",
			"type": "function"
		},
		{
			"inputs": [
				{
					"internalType": "uint256",
					"name": "_tokenId",
					"type": "uint256"
				},
				{
					"internalType": "uint256",
					"name": "purchaseIndex",
					"type": "uint256"
				},
				{
					"internalType": "bool",
					"name": "verificationResult",
					"type": "bool"
				}
			],
			"name": "verifyPurchase",
			"outputs": [],
			"stateMutability": "nonpayable",
			"type": "function"
		},
		{
			"inputs": [
				{
					"internalType": "uint256",
					"name": "amount",
					"type": "uint256"
				}
			],
			"name": "withdrawETH",
			"outputs": [],
			"stateMutability": "nonpayable",
			"type": "function"
		},
		{
			"stateMutability": "payable",
			"type": "receive"
		}
	]
}